{
	"Users/leilei/Downloads/MasterChefV2/MasterChefV2.sol": {
		"MasterChefV2": {
			"abi": [
				{
					"inputs": [
						{
							"internalType": "contract IMasterChef",
							"name": "_MASTER_CHEF",
							"type": "address"
						},
						{
							"internalType": "contract IBEP20",
							"name": "_CAKE",
							"type": "address"
						},
						{
							"internalType": "uint256",
							"name": "_MASTER_PID",
							"type": "uint256"
						},
						{
							"internalType": "address",
							"name": "_burnAdmin",
							"type": "address"
						}
					],
					"stateMutability": "nonpayable",
					"type": "constructor"
				},
				{
					"anonymous": false,
					"inputs": [
						{
							"indexed": true,
							"internalType": "uint256",
							"name": "pid",
							"type": "uint256"
						},
						{
							"indexed": false,
							"internalType": "uint256",
							"name": "allocPoint",
							"type": "uint256"
						},
						{
							"indexed": true,
							"internalType": "contract IBEP20",
							"name": "lpToken",
							"type": "address"
						},
						{
							"indexed": false,
							"internalType": "bool",
							"name": "isRegular",
							"type": "bool"
						}
					],
					"name": "AddPool",
					"type": "event"
				},
				{
					"anonymous": false,
					"inputs": [
						{
							"indexed": true,
							"internalType": "address",
							"name": "user",
							"type": "address"
						},
						{
							"indexed": true,
							"internalType": "uint256",
							"name": "pid",
							"type": "uint256"
						},
						{
							"indexed": false,
							"internalType": "uint256",
							"name": "amount",
							"type": "uint256"
						}
					],
					"name": "Deposit",
					"type": "event"
				},
				{
					"anonymous": false,
					"inputs": [
						{
							"indexed": true,
							"internalType": "address",
							"name": "user",
							"type": "address"
						},
						{
							"indexed": true,
							"internalType": "uint256",
							"name": "pid",
							"type": "uint256"
						},
						{
							"indexed": false,
							"internalType": "uint256",
							"name": "amount",
							"type": "uint256"
						}
					],
					"name": "EmergencyWithdraw",
					"type": "event"
				},
				{
					"anonymous": false,
					"inputs": [],
					"name": "Init",
					"type": "event"
				},
				{
					"anonymous": false,
					"inputs": [
						{
							"indexed": true,
							"internalType": "address",
							"name": "previousOwner",
							"type": "address"
						},
						{
							"indexed": true,
							"internalType": "address",
							"name": "newOwner",
							"type": "address"
						}
					],
					"name": "OwnershipTransferred",
					"type": "event"
				},
				{
					"anonymous": false,
					"inputs": [
						{
							"indexed": true,
							"internalType": "uint256",
							"name": "pid",
							"type": "uint256"
						},
						{
							"indexed": false,
							"internalType": "uint256",
							"name": "allocPoint",
							"type": "uint256"
						}
					],
					"name": "SetPool",
					"type": "event"
				},
				{
					"anonymous": false,
					"inputs": [
						{
							"indexed": true,
							"internalType": "address",
							"name": "boostContract",
							"type": "address"
						}
					],
					"name": "UpdateBoostContract",
					"type": "event"
				},
				{
					"anonymous": false,
					"inputs": [
						{
							"indexed": true,
							"internalType": "address",
							"name": "user",
							"type": "address"
						},
						{
							"indexed": false,
							"internalType": "uint256",
							"name": "pid",
							"type": "uint256"
						},
						{
							"indexed": false,
							"internalType": "uint256",
							"name": "oldMultiplier",
							"type": "uint256"
						},
						{
							"indexed": false,
							"internalType": "uint256",
							"name": "newMultiplier",
							"type": "uint256"
						}
					],
					"name": "UpdateBoostMultiplier",
					"type": "event"
				},
				{
					"anonymous": false,
					"inputs": [
						{
							"indexed": true,
							"internalType": "address",
							"name": "oldAdmin",
							"type": "address"
						},
						{
							"indexed": true,
							"internalType": "address",
							"name": "newAdmin",
							"type": "address"
						}
					],
					"name": "UpdateBurnAdmin",
					"type": "event"
				},
				{
					"anonymous": false,
					"inputs": [
						{
							"indexed": false,
							"internalType": "uint256",
							"name": "burnRate",
							"type": "uint256"
						},
						{
							"indexed": false,
							"internalType": "uint256",
							"name": "regularFarmRate",
							"type": "uint256"
						},
						{
							"indexed": false,
							"internalType": "uint256",
							"name": "specialFarmRate",
							"type": "uint256"
						}
					],
					"name": "UpdateCakeRate",
					"type": "event"
				},
				{
					"anonymous": false,
					"inputs": [
						{
							"indexed": true,
							"internalType": "uint256",
							"name": "pid",
							"type": "uint256"
						},
						{
							"indexed": false,
							"internalType": "uint256",
							"name": "lastRewardBlock",
							"type": "uint256"
						},
						{
							"indexed": false,
							"internalType": "uint256",
							"name": "lpSupply",
							"type": "uint256"
						},
						{
							"indexed": false,
							"internalType": "uint256",
							"name": "accCakePerShare",
							"type": "uint256"
						}
					],
					"name": "UpdatePool",
					"type": "event"
				},
				{
					"anonymous": false,
					"inputs": [
						{
							"indexed": true,
							"internalType": "address",
							"name": "user",
							"type": "address"
						},
						{
							"indexed": false,
							"internalType": "bool",
							"name": "isValid",
							"type": "bool"
						}
					],
					"name": "UpdateWhiteList",
					"type": "event"
				},
				{
					"anonymous": false,
					"inputs": [
						{
							"indexed": true,
							"internalType": "address",
							"name": "user",
							"type": "address"
						},
						{
							"indexed": true,
							"internalType": "uint256",
							"name": "pid",
							"type": "uint256"
						},
						{
							"indexed": false,
							"internalType": "uint256",
							"name": "amount",
							"type": "uint256"
						}
					],
					"name": "Withdraw",
					"type": "event"
				},
				{
					"inputs": [],
					"name": "ACC_CAKE_PRECISION",
					"outputs": [
						{
							"internalType": "uint256",
							"name": "",
							"type": "uint256"
						}
					],
					"stateMutability": "view",
					"type": "function"
				},
				{
					"inputs": [],
					"name": "BOOST_PRECISION",
					"outputs": [
						{
							"internalType": "uint256",
							"name": "",
							"type": "uint256"
						}
					],
					"stateMutability": "view",
					"type": "function"
				},
				{
					"inputs": [],
					"name": "CAKE",
					"outputs": [
						{
							"internalType": "contract IBEP20",
							"name": "",
							"type": "address"
						}
					],
					"stateMutability": "view",
					"type": "function"
				},
				{
					"inputs": [],
					"name": "CAKE_RATE_TOTAL_PRECISION",
					"outputs": [
						{
							"internalType": "uint256",
							"name": "",
							"type": "uint256"
						}
					],
					"stateMutability": "view",
					"type": "function"
				},
				{
					"inputs": [],
					"name": "MASTERCHEF_CAKE_PER_BLOCK",
					"outputs": [
						{
							"internalType": "uint256",
							"name": "",
							"type": "uint256"
						}
					],
					"stateMutability": "view",
					"type": "function"
				},
				{
					"inputs": [],
					"name": "MASTER_CHEF",
					"outputs": [
						{
							"internalType": "contract IMasterChef",
							"name": "",
							"type": "address"
						}
					],
					"stateMutability": "view",
					"type": "function"
				},
				{
					"inputs": [],
					"name": "MASTER_PID",
					"outputs": [
						{
							"internalType": "uint256",
							"name": "",
							"type": "uint256"
						}
					],
					"stateMutability": "view",
					"type": "function"
				},
				{
					"inputs": [],
					"name": "MAX_BOOST_PRECISION",
					"outputs": [
						{
							"internalType": "uint256",
							"name": "",
							"type": "uint256"
						}
					],
					"stateMutability": "view",
					"type": "function"
				},
				{
					"inputs": [
						{
							"internalType": "uint256",
							"name": "_allocPoint",
							"type": "uint256"
						},
						{
							"internalType": "contract IBEP20",
							"name": "_lpToken",
							"type": "address"
						},
						{
							"internalType": "bool",
							"name": "_isRegular",
							"type": "bool"
						},
						{
							"internalType": "bool",
							"name": "_withUpdate",
							"type": "bool"
						}
					],
					"name": "add",
					"outputs": [],
					"stateMutability": "nonpayable",
					"type": "function"
				},
				{
					"inputs": [],
					"name": "boostContract",
					"outputs": [
						{
							"internalType": "address",
							"name": "",
							"type": "address"
						}
					],
					"stateMutability": "view",
					"type": "function"
				},
				{
					"inputs": [],
					"name": "burnAdmin",
					"outputs": [
						{
							"internalType": "address",
							"name": "",
							"type": "address"
						}
					],
					"stateMutability": "view",
					"type": "function"
				},
				{
					"inputs": [
						{
							"internalType": "bool",
							"name": "_withUpdate",
							"type": "bool"
						}
					],
					"name": "burnCake",
					"outputs": [],
					"stateMutability": "nonpayable",
					"type": "function"
				},
				{
					"inputs": [
						{
							"internalType": "bool",
							"name": "_isRegular",
							"type": "bool"
						}
					],
					"name": "cakePerBlock",
					"outputs": [
						{
							"internalType": "uint256",
							"name": "amount",
							"type": "uint256"
						}
					],
					"stateMutability": "view",
					"type": "function"
				},
				{
					"inputs": [],
					"name": "cakePerBlockToBurn",
					"outputs": [
						{
							"internalType": "uint256",
							"name": "amount",
							"type": "uint256"
						}
					],
					"stateMutability": "view",
					"type": "function"
				},
				{
					"inputs": [],
					"name": "cakeRateToBurn",
					"outputs": [
						{
							"internalType": "uint256",
							"name": "",
							"type": "uint256"
						}
					],
					"stateMutability": "view",
					"type": "function"
				},
				{
					"inputs": [],
					"name": "cakeRateToRegularFarm",
					"outputs": [
						{
							"internalType": "uint256",
							"name": "",
							"type": "uint256"
						}
					],
					"stateMutability": "view",
					"type": "function"
				},
				{
					"inputs": [],
					"name": "cakeRateToSpecialFarm",
					"outputs": [
						{
							"internalType": "uint256",
							"name": "",
							"type": "uint256"
						}
					],
					"stateMutability": "view",
					"type": "function"
				},
				{
					"inputs": [
						{
							"internalType": "uint256",
							"name": "_pid",
							"type": "uint256"
						},
						{
							"internalType": "uint256",
							"name": "_amount",
							"type": "uint256"
						}
					],
					"name": "deposit",
					"outputs": [],
					"stateMutability": "nonpayable",
					"type": "function"
				},
				{
					"inputs": [
						{
							"internalType": "uint256",
							"name": "_pid",
							"type": "uint256"
						}
					],
					"name": "emergencyWithdraw",
					"outputs": [],
					"stateMutability": "nonpayable",
					"type": "function"
				},
				{
					"inputs": [
						{
							"internalType": "address",
							"name": "_user",
							"type": "address"
						},
						{
							"internalType": "uint256",
							"name": "_pid",
							"type": "uint256"
						}
					],
					"name": "getBoostMultiplier",
					"outputs": [
						{
							"internalType": "uint256",
							"name": "",
							"type": "uint256"
						}
					],
					"stateMutability": "view",
					"type": "function"
				},
				{
					"inputs": [],
					"name": "harvestFromMasterChef",
					"outputs": [],
					"stateMutability": "nonpayable",
					"type": "function"
				},
				{
					"inputs": [
						{
							"internalType": "contract IBEP20",
							"name": "dummyToken",
							"type": "address"
						}
					],
					"name": "init",
					"outputs": [],
					"stateMutability": "nonpayable",
					"type": "function"
				},
				{
					"inputs": [],
					"name": "lastBurnedBlock",
					"outputs": [
						{
							"internalType": "uint256",
							"name": "",
							"type": "uint256"
						}
					],
					"stateMutability": "view",
					"type": "function"
				},
				{
					"inputs": [
						{
							"internalType": "uint256",
							"name": "",
							"type": "uint256"
						}
					],
					"name": "lpToken",
					"outputs": [
						{
							"internalType": "contract IBEP20",
							"name": "",
							"type": "address"
						}
					],
					"stateMutability": "view",
					"type": "function"
				},
				{
					"inputs": [],
					"name": "massUpdatePools",
					"outputs": [],
					"stateMutability": "nonpayable",
					"type": "function"
				},
				{
					"inputs": [],
					"name": "owner",
					"outputs": [
						{
							"internalType": "address",
							"name": "",
							"type": "address"
						}
					],
					"stateMutability": "view",
					"type": "function"
				},
				{
					"inputs": [
						{
							"internalType": "uint256",
							"name": "_pid",
							"type": "uint256"
						},
						{
							"internalType": "address",
							"name": "_user",
							"type": "address"
						}
					],
					"name": "pendingCake",
					"outputs": [
						{
							"internalType": "uint256",
							"name": "",
							"type": "uint256"
						}
					],
					"stateMutability": "view",
					"type": "function"
				},
				{
					"inputs": [
						{
							"internalType": "uint256",
							"name": "",
							"type": "uint256"
						}
					],
					"name": "poolInfo",
					"outputs": [
						{
							"internalType": "uint256",
							"name": "accCakePerShare",
							"type": "uint256"
						},
						{
							"internalType": "uint256",
							"name": "lastRewardBlock",
							"type": "uint256"
						},
						{
							"internalType": "uint256",
							"name": "allocPoint",
							"type": "uint256"
						},
						{
							"internalType": "uint256",
							"name": "totalBoostedShare",
							"type": "uint256"
						},
						{
							"internalType": "bool",
							"name": "isRegular",
							"type": "bool"
						}
					],
					"stateMutability": "view",
					"type": "function"
				},
				{
					"inputs": [],
					"name": "poolLength",
					"outputs": [
						{
							"internalType": "uint256",
							"name": "pools",
							"type": "uint256"
						}
					],
					"stateMutability": "view",
					"type": "function"
				},
				{
					"inputs": [],
					"name": "renounceOwnership",
					"outputs": [],
					"stateMutability": "nonpayable",
					"type": "function"
				},
				{
					"inputs": [
						{
							"internalType": "uint256",
							"name": "_pid",
							"type": "uint256"
						},
						{
							"internalType": "uint256",
							"name": "_allocPoint",
							"type": "uint256"
						},
						{
							"internalType": "bool",
							"name": "_withUpdate",
							"type": "bool"
						}
					],
					"name": "set",
					"outputs": [],
					"stateMutability": "nonpayable",
					"type": "function"
				},
				{
					"inputs": [],
					"name": "totalRegularAllocPoint",
					"outputs": [
						{
							"internalType": "uint256",
							"name": "",
							"type": "uint256"
						}
					],
					"stateMutability": "view",
					"type": "function"
				},
				{
					"inputs": [],
					"name": "totalSpecialAllocPoint",
					"outputs": [
						{
							"internalType": "uint256",
							"name": "",
							"type": "uint256"
						}
					],
					"stateMutability": "view",
					"type": "function"
				},
				{
					"inputs": [
						{
							"internalType": "address",
							"name": "newOwner",
							"type": "address"
						}
					],
					"name": "transferOwnership",
					"outputs": [],
					"stateMutability": "nonpayable",
					"type": "function"
				},
				{
					"inputs": [
						{
							"internalType": "address",
							"name": "_newBoostContract",
							"type": "address"
						}
					],
					"name": "updateBoostContract",
					"outputs": [],
					"stateMutability": "nonpayable",
					"type": "function"
				},
				{
					"inputs": [
						{
							"internalType": "address",
							"name": "_user",
							"type": "address"
						},
						{
							"internalType": "uint256",
							"name": "_pid",
							"type": "uint256"
						},
						{
							"internalType": "uint256",
							"name": "_newMultiplier",
							"type": "uint256"
						}
					],
					"name": "updateBoostMultiplier",
					"outputs": [],
					"stateMutability": "nonpayable",
					"type": "function"
				},
				{
					"inputs": [
						{
							"internalType": "address",
							"name": "_newAdmin",
							"type": "address"
						}
					],
					"name": "updateBurnAdmin",
					"outputs": [],
					"stateMutability": "nonpayable",
					"type": "function"
				},
				{
					"inputs": [
						{
							"internalType": "uint256",
							"name": "_burnRate",
							"type": "uint256"
						},
						{
							"internalType": "uint256",
							"name": "_regularFarmRate",
							"type": "uint256"
						},
						{
							"internalType": "uint256",
							"name": "_specialFarmRate",
							"type": "uint256"
						},
						{
							"internalType": "bool",
							"name": "_withUpdate",
							"type": "bool"
						}
					],
					"name": "updateCakeRate",
					"outputs": [],
					"stateMutability": "nonpayable",
					"type": "function"
				},
				{
					"inputs": [
						{
							"internalType": "uint256",
							"name": "_pid",
							"type": "uint256"
						}
					],
					"name": "updatePool",
					"outputs": [
						{
							"components": [
								{
									"internalType": "uint256",
									"name": "accCakePerShare",
									"type": "uint256"
								},
								{
									"internalType": "uint256",
									"name": "lastRewardBlock",
									"type": "uint256"
								},
								{
									"internalType": "uint256",
									"name": "allocPoint",
									"type": "uint256"
								},
								{
									"internalType": "uint256",
									"name": "totalBoostedShare",
									"type": "uint256"
								},
								{
									"internalType": "bool",
									"name": "isRegular",
									"type": "bool"
								}
							],
							"internalType": "struct MasterChefV2.PoolInfo",
							"name": "pool",
							"type": "tuple"
						}
					],
					"stateMutability": "nonpayable",
					"type": "function"
				},
				{
					"inputs": [
						{
							"internalType": "address",
							"name": "_user",
							"type": "address"
						},
						{
							"internalType": "bool",
							"name": "_isValid",
							"type": "bool"
						}
					],
					"name": "updateWhiteList",
					"outputs": [],
					"stateMutability": "nonpayable",
					"type": "function"
				},
				{
					"inputs": [
						{
							"internalType": "uint256",
							"name": "",
							"type": "uint256"
						},
						{
							"internalType": "address",
							"name": "",
							"type": "address"
						}
					],
					"name": "userInfo",
					"outputs": [
						{
							"internalType": "uint256",
							"name": "amount",
							"type": "uint256"
						},
						{
							"internalType": "uint256",
							"name": "rewardDebt",
							"type": "uint256"
						},
						{
							"internalType": "uint256",
							"name": "boostMultiplier",
							"type": "uint256"
						}
					],
					"stateMutability": "view",
					"type": "function"
				},
				{
					"inputs": [
						{
							"internalType": "address",
							"name": "",
							"type": "address"
						}
					],
					"name": "whiteList",
					"outputs": [
						{
							"internalType": "bool",
							"name": "",
							"type": "bool"
						}
					],
					"stateMutability": "view",
					"type": "function"
				},
				{
					"inputs": [
						{
							"internalType": "uint256",
							"name": "_pid",
							"type": "uint256"
						},
						{
							"internalType": "uint256",
							"name": "_amount",
							"type": "uint256"
						}
					],
					"name": "withdraw",
					"outputs": [],
					"stateMutability": "nonpayable",
					"type": "function"
				}
			],
			"devdoc": {
				"kind": "dev",
				"methods": {
					"add(uint256,address,bool,bool)": {
						"params": {
							"_allocPoint": "Number of allocation points for the new pool.",
							"_isRegular": "Whether the pool is regular or special. LP farms are always \"regular\". \"Special\" pools are",
							"_lpToken": "Address of the LP BEP-20 token.",
							"_withUpdate": "Whether call \"massUpdatePools\" operation. only for CAKE distributions within PancakeSwap products."
						}
					},
					"burnCake(bool)": {
						"params": {
							"_withUpdate": "Whether call \"massUpdatePools\" operation."
						}
					},
					"cakePerBlock(bool)": {
						"params": {
							"_isRegular": "If the pool belongs to regular or special."
						}
					},
					"constructor": {
						"params": {
							"_CAKE": "The CAKE token contract address.",
							"_MASTER_CHEF": "The PancakeSwap MCV1 contract address.",
							"_MASTER_PID": "The pool id of the dummy pool on the MCV1.",
							"_burnAdmin": "The address of burn admin."
						}
					},
					"deposit(uint256,uint256)": {
						"params": {
							"_amount": "Amount of LP tokens to deposit.",
							"_pid": "The id of the pool. See `poolInfo`."
						}
					},
					"emergencyWithdraw(uint256)": {
						"params": {
							"_pid": "The id of the pool. See `poolInfo`."
						}
					},
					"getBoostMultiplier(address,uint256)": {
						"params": {
							"_pid": "The pool id.",
							"_user": "The user address."
						}
					},
					"init(address)": {
						"params": {
							"dummyToken": "The address of the BEP-20 token to be deposited into MCV1."
						}
					},
					"owner()": {
						"details": "Returns the address of the current owner."
					},
					"pendingCake(uint256,address)": {
						"params": {
							"_pid": "The id of the pool. See `poolInfo`.",
							"_user": "Address of the user."
						}
					},
					"renounceOwnership()": {
						"details": "Leaves the contract without owner. It will not be possible to call `onlyOwner` functions anymore. Can only be called by the current owner. NOTE: Renouncing ownership will leave the contract without an owner, thereby removing any functionality that is only available to the owner."
					},
					"set(uint256,uint256,bool)": {
						"params": {
							"_allocPoint": "New number of allocation points for the pool.",
							"_pid": "The id of the pool. See `poolInfo`.",
							"_withUpdate": "Whether call \"massUpdatePools\" operation."
						}
					},
					"transferOwnership(address)": {
						"details": "Transfers ownership of the contract to a new account (`newOwner`). Can only be called by the current owner."
					},
					"updateBoostContract(address)": {
						"params": {
							"_newBoostContract": "The new address for handling all the share boosts."
						}
					},
					"updateBoostMultiplier(address,uint256,uint256)": {
						"params": {
							"_newMultiplier": "New boost multiplier.",
							"_pid": "The pool id for the boost factor updates.",
							"_user": "The user address for boost factor updates."
						}
					},
					"updateBurnAdmin(address)": {
						"params": {
							"_newAdmin": "The new burn admin address."
						}
					},
					"updateCakeRate(uint256,uint256,uint256,bool)": {
						"params": {
							"_burnRate": "The % of CAKE to burn each block.",
							"_regularFarmRate": "The % of CAKE to regular pools each block.",
							"_specialFarmRate": "The % of CAKE to special pools each block.",
							"_withUpdate": "Whether call \"massUpdatePools\" operation."
						}
					},
					"updatePool(uint256)": {
						"params": {
							"_pid": "The id of the pool. See `poolInfo`."
						},
						"returns": {
							"pool": "Returns the pool that was updated."
						}
					},
					"updateWhiteList(address,bool)": {
						"params": {
							"_isValid": "The flag for valid or invalid.",
							"_user": "The address to be updated."
						}
					},
					"withdraw(uint256,uint256)": {
						"params": {
							"_amount": "Amount of LP tokens to withdraw.",
							"_pid": "The id of the pool. See `poolInfo`."
						}
					}
				},
				"version": 1
			},
			"evm": {
				"assembly": "    /* \"Users/leilei/Downloads/MasterChefV2/MasterChefV2.sol\":704:23573  contract MasterChefV2 is Ownable, ReentrancyGuard {... */\n  mstore(0x40, 0xe0)\n    /* \"Users/leilei/Downloads/MasterChefV2/MasterChefV2.sol\":4683:4695  643750000000 */\n  0x95e27d7580\n    /* \"Users/leilei/Downloads/MasterChefV2/MasterChefV2.sol\":4651:4695  uint256 public cakeRateToBurn = 643750000000 */\n  0x0a\n  sstore\n    /* \"Users/leilei/Downloads/MasterChefV2/MasterChefV2.sol\":4796:4807  62847222222 */\n  0x0ea1fc81ce\n    /* \"Users/leilei/Downloads/MasterChefV2/MasterChefV2.sol\":4757:4807  uint256 public cakeRateToRegularFarm = 62847222222 */\n  0x0b\n  sstore\n    /* \"Users/leilei/Downloads/MasterChefV2/MasterChefV2.sol\":4904:4916  293402777778 */\n  0x44502b18b2\n    /* \"Users/leilei/Downloads/MasterChefV2/MasterChefV2.sol\":4865:4916  uint256 public cakeRateToSpecialFarm = 293402777778 */\n  0x0c\n  sstore\n    /* \"Users/leilei/Downloads/MasterChefV2/MasterChefV2.sol\":6152:6421  constructor(... */\n  callvalue\n  dup1\n  iszero\n  tag_1\n  jumpi\n  0x00\n  dup1\n  revert\ntag_1:\n  pop\n  mload(0x40)\n  sub(codesize, bytecodeSize)\n  dup1\n  bytecodeSize\n  dup4\n  codecopy\n  dup2\n  dup2\n  add\n  0x40\n  mstore\n  dup2\n  add\n  swap1\n  tag_2\n  swap2\n  swap1\n  tag_3\n  jump\t// in\ntag_2:\n    /* \"Users/leilei/Downloads/MasterChefV2/Ownable.sol\":860:877  address msgSender */\n  0x00\n    /* \"Users/leilei/Downloads/MasterChefV2/Ownable.sol\":880:892  _msgSender() */\n  tag_8\n    /* \"Users/leilei/Downloads/MasterChefV2/Ownable.sol\":880:890  _msgSender */\n  shl(0x20, tag_9)\n    /* \"Users/leilei/Downloads/MasterChefV2/Ownable.sol\":880:892  _msgSender() */\n  0x20\n  shr\n  jump\t// in\ntag_8:\n    /* \"Users/leilei/Downloads/MasterChefV2/Ownable.sol\":860:892  address msgSender = _msgSender() */\n  swap1\n  pop\n    /* \"Users/leilei/Downloads/MasterChefV2/Ownable.sol\":911:920  msgSender */\n  dup1\n    /* \"Users/leilei/Downloads/MasterChefV2/Ownable.sol\":902:908  _owner */\n  0x00\n  dup1\n    /* \"Users/leilei/Downloads/MasterChefV2/Ownable.sol\":902:920  _owner = msgSender */\n  0x0100\n  exp\n  dup2\n  sload\n  dup2\n  0xffffffffffffffffffffffffffffffffffffffff\n  mul\n  not\n  and\n  swap1\n  dup4\n  0xffffffffffffffffffffffffffffffffffffffff\n  and\n  mul\n  or\n  swap1\n  sstore\n  pop\n    /* \"Users/leilei/Downloads/MasterChefV2/Ownable.sol\":968:977  msgSender */\n  dup1\n    /* \"Users/leilei/Downloads/MasterChefV2/Ownable.sol\":935:978  OwnershipTransferred(address(0), msgSender) */\n  0xffffffffffffffffffffffffffffffffffffffff\n  and\n    /* \"Users/leilei/Downloads/MasterChefV2/Ownable.sol\":964:965  0 */\n  0x00\n    /* \"Users/leilei/Downloads/MasterChefV2/Ownable.sol\":935:978  OwnershipTransferred(address(0), msgSender) */\n  0xffffffffffffffffffffffffffffffffffffffff\n  and\n  0x8be0079c531659141344cd1fd0a4f28419497f9722a3daafe3b4186f6b6457e0\n  mload(0x40)\n  mload(0x40)\n  dup1\n  swap2\n  sub\n  swap1\n  log3\n    /* \"Users/leilei/Downloads/MasterChefV2/Ownable.sol\":826:985  constructor () internal {... */\n  pop\n    /* \"Users/leilei/Downloads/MasterChefV2/ReentrancyGuard.sol\":1628:1629  1 */\n  0x01\n    /* \"Users/leilei/Downloads/MasterChefV2/ReentrancyGuard.sol\":1743:1750  _status */\n  dup1\n    /* \"Users/leilei/Downloads/MasterChefV2/ReentrancyGuard.sol\":1743:1765  _status = _NOT_ENTERED */\n  dup2\n  swap1\n  sstore\n  pop\n    /* \"Users/leilei/Downloads/MasterChefV2/MasterChefV2.sol\":6314:6326  _MASTER_CHEF */\n  dup4\n    /* \"Users/leilei/Downloads/MasterChefV2/MasterChefV2.sol\":6300:6326  MASTER_CHEF = _MASTER_CHEF */\n  0xffffffffffffffffffffffffffffffffffffffff\n  and\n  0x80\n  dup2\n  0xffffffffffffffffffffffffffffffffffffffff\n  and\n  0x60\n  shl\n  dup2\n  mstore\n  pop\n  pop\n    /* \"Users/leilei/Downloads/MasterChefV2/MasterChefV2.sol\":6343:6348  _CAKE */\n  dup3\n    /* \"Users/leilei/Downloads/MasterChefV2/MasterChefV2.sol\":6336:6348  CAKE = _CAKE */\n  0xffffffffffffffffffffffffffffffffffffffff\n  and\n  0xa0\n  dup2\n  0xffffffffffffffffffffffffffffffffffffffff\n  and\n  0x60\n  shl\n  dup2\n  mstore\n  pop\n  pop\n    /* \"Users/leilei/Downloads/MasterChefV2/MasterChefV2.sol\":6371:6382  _MASTER_PID */\n  dup2\n    /* \"Users/leilei/Downloads/MasterChefV2/MasterChefV2.sol\":6358:6382  MASTER_PID = _MASTER_PID */\n  0xc0\n  dup2\n  dup2\n  mstore\n  pop\n  pop\n    /* \"Users/leilei/Downloads/MasterChefV2/MasterChefV2.sol\":6404:6414  _burnAdmin */\n  dup1\n    /* \"Users/leilei/Downloads/MasterChefV2/MasterChefV2.sol\":6392:6401  burnAdmin */\n  0x02\n  0x00\n    /* \"Users/leilei/Downloads/MasterChefV2/MasterChefV2.sol\":6392:6414  burnAdmin = _burnAdmin */\n  0x0100\n  exp\n  dup2\n  sload\n  dup2\n  0xffffffffffffffffffffffffffffffffffffffff\n  mul\n  not\n  and\n  swap1\n  dup4\n  0xffffffffffffffffffffffffffffffffffffffff\n  and\n  mul\n  or\n  swap1\n  sstore\n  pop\n    /* \"Users/leilei/Downloads/MasterChefV2/MasterChefV2.sol\":6152:6421  constructor(... */\n  pop\n  pop\n  pop\n  pop\n    /* \"Users/leilei/Downloads/MasterChefV2/MasterChefV2.sol\":704:23573  contract MasterChefV2 is Ownable, ReentrancyGuard {... */\n  jump(tag_12)\n    /* \"Users/leilei/Downloads/MasterChefV2/Context.sol\":590:694  function _msgSender() internal view virtual returns (address payable) {... */\ntag_9:\n    /* \"Users/leilei/Downloads/MasterChefV2/Context.sol\":643:658  address payable */\n  0x00\n    /* \"Users/leilei/Downloads/MasterChefV2/Context.sol\":677:687  msg.sender */\n  caller\n    /* \"Users/leilei/Downloads/MasterChefV2/Context.sol\":670:687  return msg.sender */\n  swap1\n  pop\n    /* \"Users/leilei/Downloads/MasterChefV2/Context.sol\":590:694  function _msgSender() internal view virtual returns (address payable) {... */\n  swap1\n  jump\t// out\n    /* \"--CODEGEN--\":5:139   */\ntag_15:\n  0x00\n    /* \"--CODEGEN--\":89:95   */\n  dup2\n    /* \"--CODEGEN--\":83:96   */\n  mload\n    /* \"--CODEGEN--\":74:96   */\n  swap1\n  pop\n    /* \"--CODEGEN--\":101:134   */\n  tag_17\n    /* \"--CODEGEN--\":128:133   */\n  dup2\n    /* \"--CODEGEN--\":101:134   */\n  tag_18\n  jump\t// in\ntag_17:\n    /* \"--CODEGEN--\":68:139   */\n  swap3\n  swap2\n  pop\n  pop\n  jump\t// out\n    /* \"--CODEGEN--\":146:310   */\ntag_19:\n  0x00\n    /* \"--CODEGEN--\":245:251   */\n  dup2\n    /* \"--CODEGEN--\":239:252   */\n  mload\n    /* \"--CODEGEN--\":230:252   */\n  swap1\n  pop\n    /* \"--CODEGEN--\":257:305   */\n  tag_21\n    /* \"--CODEGEN--\":299:304   */\n  dup2\n    /* \"--CODEGEN--\":257:305   */\n  tag_22\n  jump\t// in\ntag_21:\n    /* \"--CODEGEN--\":224:310   */\n  swap3\n  swap2\n  pop\n  pop\n  jump\t// out\n    /* \"--CODEGEN--\":317:491   */\ntag_23:\n  0x00\n    /* \"--CODEGEN--\":421:427   */\n  dup2\n    /* \"--CODEGEN--\":415:428   */\n  mload\n    /* \"--CODEGEN--\":406:428   */\n  swap1\n  pop\n    /* \"--CODEGEN--\":433:486   */\n  tag_25\n    /* \"--CODEGEN--\":480:485   */\n  dup2\n    /* \"--CODEGEN--\":433:486   */\n  tag_26\n  jump\t// in\ntag_25:\n    /* \"--CODEGEN--\":400:491   */\n  swap3\n  swap2\n  pop\n  pop\n  jump\t// out\n    /* \"--CODEGEN--\":498:632   */\ntag_27:\n  0x00\n    /* \"--CODEGEN--\":582:588   */\n  dup2\n    /* \"--CODEGEN--\":576:589   */\n  mload\n    /* \"--CODEGEN--\":567:589   */\n  swap1\n  pop\n    /* \"--CODEGEN--\":594:627   */\n  tag_29\n    /* \"--CODEGEN--\":621:626   */\n  dup2\n    /* \"--CODEGEN--\":594:627   */\n  tag_30\n  jump\t// in\ntag_29:\n    /* \"--CODEGEN--\":561:632   */\n  swap3\n  swap2\n  pop\n  pop\n  jump\t// out\n    /* \"--CODEGEN--\":639:1381   */\ntag_3:\n  0x00\n  dup1\n  0x00\n  dup1\n    /* \"--CODEGEN--\":840:843   */\n  0x80\n    /* \"--CODEGEN--\":828:837   */\n  dup6\n    /* \"--CODEGEN--\":819:826   */\n  dup8\n    /* \"--CODEGEN--\":815:838   */\n  sub\n    /* \"--CODEGEN--\":811:844   */\n  slt\n    /* \"--CODEGEN--\":808:810   */\n  iszero\n  tag_32\n  jumpi\n    /* \"--CODEGEN--\":857:858   */\n  0x00\n    /* \"--CODEGEN--\":854:855   */\n  dup1\n    /* \"--CODEGEN--\":847:859   */\n  revert\n    /* \"--CODEGEN--\":808:810   */\ntag_32:\n    /* \"--CODEGEN--\":892:893   */\n  0x00\n    /* \"--CODEGEN--\":909:993   */\n  tag_33\n    /* \"--CODEGEN--\":985:992   */\n  dup8\n    /* \"--CODEGEN--\":976:982   */\n  dup3\n    /* \"--CODEGEN--\":965:974   */\n  dup9\n    /* \"--CODEGEN--\":961:983   */\n  add\n    /* \"--CODEGEN--\":909:993   */\n  tag_23\n  jump\t// in\ntag_33:\n    /* \"--CODEGEN--\":899:993   */\n  swap5\n  pop\n    /* \"--CODEGEN--\":871:999   */\n  pop\n    /* \"--CODEGEN--\":1030:1032   */\n  0x20\n    /* \"--CODEGEN--\":1048:1127   */\n  tag_34\n    /* \"--CODEGEN--\":1119:1126   */\n  dup8\n    /* \"--CODEGEN--\":1110:1116   */\n  dup3\n    /* \"--CODEGEN--\":1099:1108   */\n  dup9\n    /* \"--CODEGEN--\":1095:1117   */\n  add\n    /* \"--CODEGEN--\":1048:1127   */\n  tag_19\n  jump\t// in\ntag_34:\n    /* \"--CODEGEN--\":1038:1127   */\n  swap4\n  pop\n    /* \"--CODEGEN--\":1009:1133   */\n  pop\n    /* \"--CODEGEN--\":1164:1166   */\n  0x40\n    /* \"--CODEGEN--\":1182:1246   */\n  tag_35\n    /* \"--CODEGEN--\":1238:1245   */\n  dup8\n    /* \"--CODEGEN--\":1229:1235   */\n  dup3\n    /* \"--CODEGEN--\":1218:1227   */\n  dup9\n    /* \"--CODEGEN--\":1214:1236   */\n  add\n    /* \"--CODEGEN--\":1182:1246   */\n  tag_27\n  jump\t// in\ntag_35:\n    /* \"--CODEGEN--\":1172:1246   */\n  swap3\n  pop\n    /* \"--CODEGEN--\":1143:1252   */\n  pop\n    /* \"--CODEGEN--\":1283:1285   */\n  0x60\n    /* \"--CODEGEN--\":1301:1365   */\n  tag_36\n    /* \"--CODEGEN--\":1357:1364   */\n  dup8\n    /* \"--CODEGEN--\":1348:1354   */\n  dup3\n    /* \"--CODEGEN--\":1337:1346   */\n  dup9\n    /* \"--CODEGEN--\":1333:1355   */\n  add\n    /* \"--CODEGEN--\":1301:1365   */\n  tag_15\n  jump\t// in\ntag_36:\n    /* \"--CODEGEN--\":1291:1365   */\n  swap2\n  pop\n    /* \"--CODEGEN--\":1262:1371   */\n  pop\n    /* \"--CODEGEN--\":802:1381   */\n  swap3\n  swap6\n  swap2\n  swap5\n  pop\n  swap3\n  pop\n  jump\t// out\n    /* \"--CODEGEN--\":1388:1479   */\ntag_37:\n  0x00\n    /* \"--CODEGEN--\":1450:1474   */\n  tag_39\n    /* \"--CODEGEN--\":1468:1473   */\n  dup3\n    /* \"--CODEGEN--\":1450:1474   */\n  tag_40\n  jump\t// in\ntag_39:\n    /* \"--CODEGEN--\":1439:1474   */\n  swap1\n  pop\n    /* \"--CODEGEN--\":1433:1479   */\n  swap2\n  swap1\n  pop\n  jump\t// out\n    /* \"--CODEGEN--\":1486:1592   */\ntag_41:\n  0x00\n    /* \"--CODEGEN--\":1563:1587   */\n  tag_43\n    /* \"--CODEGEN--\":1581:1586   */\n  dup3\n    /* \"--CODEGEN--\":1563:1587   */\n  tag_37\n  jump\t// in\ntag_43:\n    /* \"--CODEGEN--\":1552:1587   */\n  swap1\n  pop\n    /* \"--CODEGEN--\":1546:1592   */\n  swap2\n  swap1\n  pop\n  jump\t// out\n    /* \"--CODEGEN--\":1599:1710   */\ntag_44:\n  0x00\n    /* \"--CODEGEN--\":1681:1705   */\n  tag_46\n    /* \"--CODEGEN--\":1699:1704   */\n  dup3\n    /* \"--CODEGEN--\":1681:1705   */\n  tag_37\n  jump\t// in\ntag_46:\n    /* \"--CODEGEN--\":1670:1705   */\n  swap1\n  pop\n    /* \"--CODEGEN--\":1664:1710   */\n  swap2\n  swap1\n  pop\n  jump\t// out\n    /* \"--CODEGEN--\":1717:1838   */\ntag_40:\n  0x00\n    /* \"--CODEGEN--\":1790:1832   */\n  0xffffffffffffffffffffffffffffffffffffffff\n    /* \"--CODEGEN--\":1783:1788   */\n  dup3\n    /* \"--CODEGEN--\":1779:1833   */\n  and\n    /* \"--CODEGEN--\":1768:1833   */\n  swap1\n  pop\n    /* \"--CODEGEN--\":1762:1838   */\n  swap2\n  swap1\n  pop\n  jump\t// out\n    /* \"--CODEGEN--\":1845:1917   */\ntag_48:\n  0x00\n    /* \"--CODEGEN--\":1907:1912   */\n  dup2\n    /* \"--CODEGEN--\":1896:1912   */\n  swap1\n  pop\n    /* \"--CODEGEN--\":1890:1917   */\n  swap2\n  swap1\n  pop\n  jump\t// out\n    /* \"--CODEGEN--\":1924:2041   */\ntag_18:\n    /* \"--CODEGEN--\":1993:2017   */\n  tag_51\n    /* \"--CODEGEN--\":2011:2016   */\n  dup2\n    /* \"--CODEGEN--\":1993:2017   */\n  tag_37\n  jump\t// in\ntag_51:\n    /* \"--CODEGEN--\":1986:1991   */\n  dup2\n    /* \"--CODEGEN--\":1983:2018   */\n  eq\n    /* \"--CODEGEN--\":1973:1975   */\n  tag_52\n  jumpi\n    /* \"--CODEGEN--\":2032:2033   */\n  0x00\n    /* \"--CODEGEN--\":2029:2030   */\n  dup1\n    /* \"--CODEGEN--\":2022:2034   */\n  revert\n    /* \"--CODEGEN--\":1973:1975   */\ntag_52:\n    /* \"--CODEGEN--\":1967:2041   */\n  pop\n  jump\t// out\n    /* \"--CODEGEN--\":2048:2195   */\ntag_22:\n    /* \"--CODEGEN--\":2132:2171   */\n  tag_54\n    /* \"--CODEGEN--\":2165:2170   */\n  dup2\n    /* \"--CODEGEN--\":2132:2171   */\n  tag_41\n  jump\t// in\ntag_54:\n    /* \"--CODEGEN--\":2125:2130   */\n  dup2\n    /* \"--CODEGEN--\":2122:2172   */\n  eq\n    /* \"--CODEGEN--\":2112:2114   */\n  tag_55\n  jumpi\n    /* \"--CODEGEN--\":2186:2187   */\n  0x00\n    /* \"--CODEGEN--\":2183:2184   */\n  dup1\n    /* \"--CODEGEN--\":2176:2188   */\n  revert\n    /* \"--CODEGEN--\":2112:2114   */\ntag_55:\n    /* \"--CODEGEN--\":2106:2195   */\n  pop\n  jump\t// out\n    /* \"--CODEGEN--\":2202:2359   */\ntag_26:\n    /* \"--CODEGEN--\":2291:2335   */\n  tag_57\n    /* \"--CODEGEN--\":2329:2334   */\n  dup2\n    /* \"--CODEGEN--\":2291:2335   */\n  tag_44\n  jump\t// in\ntag_57:\n    /* \"--CODEGEN--\":2284:2289   */\n  dup2\n    /* \"--CODEGEN--\":2281:2336   */\n  eq\n    /* \"--CODEGEN--\":2271:2273   */\n  tag_58\n  jumpi\n    /* \"--CODEGEN--\":2350:2351   */\n  0x00\n    /* \"--CODEGEN--\":2347:2348   */\n  dup1\n    /* \"--CODEGEN--\":2340:2352   */\n  revert\n    /* \"--CODEGEN--\":2271:2273   */\ntag_58:\n    /* \"--CODEGEN--\":2265:2359   */\n  pop\n  jump\t// out\n    /* \"--CODEGEN--\":2366:2483   */\ntag_30:\n    /* \"--CODEGEN--\":2435:2459   */\n  tag_60\n    /* \"--CODEGEN--\":2453:2458   */\n  dup2\n    /* \"--CODEGEN--\":2435:2459   */\n  tag_48\n  jump\t// in\ntag_60:\n    /* \"--CODEGEN--\":2428:2433   */\n  dup2\n    /* \"--CODEGEN--\":2425:2460   */\n  eq\n    /* \"--CODEGEN--\":2415:2417   */\n  tag_61\n  jumpi\n    /* \"--CODEGEN--\":2474:2475   */\n  0x00\n    /* \"--CODEGEN--\":2471:2472   */\n  dup1\n    /* \"--CODEGEN--\":2464:2476   */\n  revert\n    /* \"--CODEGEN--\":2415:2417   */\ntag_61:\n    /* \"--CODEGEN--\":2409:2483   */\n  pop\n  jump\t// out\n    /* \"Users/leilei/Downloads/MasterChefV2/MasterChefV2.sol\":704:23573  contract MasterChefV2 is Ownable, ReentrancyGuard {... */\ntag_12:\n  shr(0x60, mload(0x80))\n  shr(0x60, mload(0xa0))\n  mload(0xc0)\n  codecopy(0x00, dataOffset(sub_0), dataSize(sub_0))\n  assignImmutable(\"0x3ac7ca38fd21a491cc5fb19169926fdbe6b54822181a3fae6f9aebec8e42713d\")\n  assignImmutable(\"0xe6a1c065389a8d929a5a64a56bc16a7e49ca76d19f5c2b002f72a1f543f272ee\")\n  assignImmutable(\"0x16c8a63d520d02dbd3ba67dd93cae5eadc6219145ea2099e8e9f17a2533fafa7\")\n  return(0x00, dataSize(sub_0))\nstop\n\nsub_0: assembly {\n        /* \"Users/leilei/Downloads/MasterChefV2/MasterChefV2.sol\":704:23573  contract MasterChefV2 is Ownable, ReentrancyGuard {... */\n      mstore(0x40, 0x80)\n      callvalue\n      dup1\n      iszero\n      tag_1\n      jumpi\n      0x00\n      dup1\n      revert\n    tag_1:\n      pop\n      jumpi(tag_2, lt(calldatasize, 0x04))\n      shr(0xe0, calldataload(0x00))\n      dup1\n      0x7398b7ea\n      gt\n      tag_46\n      jumpi\n      dup1\n      0xac1d0609\n      gt\n      tag_47\n      jumpi\n      dup1\n      0xdfcedeee\n      gt\n      tag_48\n      jumpi\n      dup1\n      0xdfcedeee\n      eq\n      tag_40\n      jumpi\n      dup1\n      0xe0f91f6c\n      eq\n      tag_41\n      jumpi\n      dup1\n      0xe2bbb158\n      eq\n      tag_42\n      jumpi\n      dup1\n      0xe39e1323\n      eq\n      tag_43\n      jumpi\n      dup1\n      0xedd8b170\n      eq\n      tag_44\n      jumpi\n      dup1\n      0xf2fde38b\n      eq\n      tag_45\n      jumpi\n      jump(tag_2)\n    tag_48:\n      dup1\n      0xac1d0609\n      eq\n      tag_35\n      jumpi\n      dup1\n      0xc40d337b\n      eq\n      tag_36\n      jumpi\n      dup1\n      0xc507aeaa\n      eq\n      tag_37\n      jumpi\n      dup1\n      0xcc6db2da\n      eq\n      tag_38\n      jumpi\n      dup1\n      0xdc6363df\n      eq\n      tag_39\n      jumpi\n      jump(tag_2)\n    tag_47:\n      dup1\n      0x8da5cb5b\n      gt\n      tag_49\n      jumpi\n      dup1\n      0x8da5cb5b\n      eq\n      tag_29\n      jumpi\n      dup1\n      0x93f1a40b\n      eq\n      tag_30\n      jumpi\n      dup1\n      0x99d7e84a\n      eq\n      tag_31\n      jumpi\n      dup1\n      0x9dcc1b5f\n      eq\n      tag_32\n      jumpi\n      dup1\n      0x9dd2fcc3\n      eq\n      tag_33\n      jumpi\n      dup1\n      0xaa47bc8e\n      eq\n      tag_34\n      jumpi\n      jump(tag_2)\n    tag_49:\n      dup1\n      0x7398b7ea\n      eq\n      tag_24\n      jumpi\n      dup1\n      0x777a97f8\n      eq\n      tag_25\n      jumpi\n      dup1\n      0x78db4c34\n      eq\n      tag_26\n      jumpi\n      dup1\n      0x78ed5d1f\n      eq\n      tag_27\n      jumpi\n      dup1\n      0x81bdf98c\n      eq\n      tag_28\n      jumpi\n      jump(tag_2)\n    tag_46:\n      dup1\n      0x39aae5ba\n      gt\n      tag_50\n      jumpi\n      dup1\n      0x5312ea8e\n      gt\n      tag_51\n      jumpi\n      dup1\n      0x5312ea8e\n      eq\n      tag_18\n      jumpi\n      dup1\n      0x61621aaa\n      eq\n      tag_19\n      jumpi\n      dup1\n      0x630b5ba1\n      eq\n      tag_20\n      jumpi\n      dup1\n      0x64482f79\n      eq\n      tag_21\n      jumpi\n      dup1\n      0x69b02128\n      eq\n      tag_22\n      jumpi\n      dup1\n      0x715018a6\n      eq\n      tag_23\n      jumpi\n      jump(tag_2)\n    tag_51:\n      dup1\n      0x39aae5ba\n      eq\n      tag_13\n      jumpi\n      dup1\n      0x441a3e70\n      eq\n      tag_14\n      jumpi\n      dup1\n      0x4ca6ef28\n      eq\n      tag_15\n      jumpi\n      dup1\n      0x4f70b15a\n      eq\n      tag_16\n      jumpi\n      dup1\n      0x51eb05a6\n      eq\n      tag_17\n      jumpi\n      jump(tag_2)\n    tag_50:\n      dup1\n      0x1526fe27\n      gt\n      tag_52\n      jumpi\n      dup1\n      0x1526fe27\n      eq\n      tag_8\n      jumpi\n      dup1\n      0x19ab453c\n      eq\n      tag_9\n      jumpi\n      dup1\n      0x1ce06d57\n      eq\n      tag_10\n      jumpi\n      dup1\n      0x1e9b828b\n      eq\n      tag_11\n      jumpi\n      dup1\n      0x372c12b1\n      eq\n      tag_12\n      jumpi\n      jump(tag_2)\n    tag_52:\n      dup1\n      0x033186e8\n      eq\n      tag_3\n      jumpi\n      dup1\n      0x041a84c9\n      eq\n      tag_4\n      jumpi\n      dup1\n      0x081e3eda\n      eq\n      tag_5\n      jumpi\n      dup1\n      0x0bb844bc\n      eq\n      tag_6\n      jumpi\n      dup1\n      0x1175a1dd\n      eq\n      tag_7\n      jumpi\n    tag_2:\n      0x00\n      dup1\n      revert\n        /* \"Users/leilei/Downloads/MasterChefV2/MasterChefV2.sol\":21958:22196  function getBoostMultiplier(address _user, uint256 _pid) public view returns (uint256) {... */\n    tag_3:\n      tag_53\n      0x04\n      dup1\n      calldatasize\n      sub\n      dup2\n      add\n      swap1\n      tag_54\n      swap2\n      swap1\n      tag_55\n      jump\t// in\n    tag_54:\n      tag_56\n      jump\t// in\n    tag_53:\n      mload(0x40)\n      tag_57\n      swap2\n      swap1\n      tag_58\n      jump\t// in\n    tag_57:\n      mload(0x40)\n      dup1\n      swap2\n      sub\n      swap1\n      return\n        /* \"Users/leilei/Downloads/MasterChefV2/MasterChefV2.sol\":20548:21816  function updateBoostMultiplier(... */\n    tag_4:\n      tag_59\n      0x04\n      dup1\n      calldatasize\n      sub\n      dup2\n      add\n      swap1\n      tag_60\n      swap2\n      swap1\n      tag_61\n      jump\t// in\n    tag_60:\n      tag_62\n      jump\t// in\n    tag_59:\n      stop\n        /* \"Users/leilei/Downloads/MasterChefV2/MasterChefV2.sol\":7599:7697  function poolLength() public view returns (uint256 pools) {... */\n    tag_5:\n      tag_63\n      tag_64\n      jump\t// in\n    tag_63:\n      mload(0x40)\n      tag_65\n      swap2\n      swap1\n      tag_58\n      jump\t// in\n    tag_65:\n      mload(0x40)\n      dup1\n      swap2\n      sub\n      swap1\n      return\n        /* \"Users/leilei/Downloads/MasterChefV2/MasterChefV2.sol\":18980:19374  function updateBurnAdmin(address _newAdmin) external onlyOwner {... */\n    tag_6:\n      tag_66\n      0x04\n      dup1\n      calldatasize\n      sub\n      dup2\n      add\n      swap1\n      tag_67\n      swap2\n      swap1\n      tag_68\n      jump\t// in\n    tag_67:\n      tag_69\n      jump\t// in\n    tag_66:\n      stop\n        /* \"Users/leilei/Downloads/MasterChefV2/MasterChefV2.sol\":10496:11449  function pendingCake(uint256 _pid, address _user) external view returns (uint256) {... */\n    tag_7:\n      tag_70\n      0x04\n      dup1\n      calldatasize\n      sub\n      dup2\n      add\n      swap1\n      tag_71\n      swap2\n      swap1\n      tag_72\n      jump\t// in\n    tag_71:\n      tag_73\n      jump\t// in\n    tag_70:\n      mload(0x40)\n      tag_74\n      swap2\n      swap1\n      tag_58\n      jump\t// in\n    tag_74:\n      mload(0x40)\n      dup1\n      swap2\n      sub\n      swap1\n      return\n        /* \"Users/leilei/Downloads/MasterChefV2/MasterChefV2.sol\":3197:3223  PoolInfo[] public poolInfo */\n    tag_8:\n      tag_75\n      0x04\n      dup1\n      calldatasize\n      sub\n      dup2\n      add\n      swap1\n      tag_76\n      swap2\n      swap1\n      tag_77\n      jump\t// in\n    tag_76:\n      tag_78\n      jump\t// in\n    tag_75:\n      mload(0x40)\n      tag_79\n      swap6\n      swap5\n      swap4\n      swap3\n      swap2\n      swap1\n      tag_80\n      jump\t// in\n    tag_79:\n      mload(0x40)\n      dup1\n      swap2\n      sub\n      swap1\n      return\n        /* \"Users/leilei/Downloads/MasterChefV2/MasterChefV2.sol\":7037:7543  function init(IBEP20 dummyToken) external onlyOwner {... */\n    tag_9:\n      tag_81\n      0x04\n      dup1\n      calldatasize\n      sub\n      dup2\n      add\n      swap1\n      tag_82\n      swap2\n      swap1\n      tag_83\n      jump\t// in\n    tag_82:\n      tag_84\n      jump\t// in\n    tag_81:\n      stop\n        /* \"Users/leilei/Downloads/MasterChefV2/MasterChefV2.sol\":4865:4916  uint256 public cakeRateToSpecialFarm = 293402777778 */\n    tag_10:\n      tag_85\n      tag_86\n      jump\t// in\n    tag_85:\n      mload(0x40)\n      tag_87\n      swap2\n      swap1\n      tag_58\n      jump\t// in\n    tag_87:\n      mload(0x40)\n      dup1\n      swap2\n      sub\n      swap1\n      return\n        /* \"Users/leilei/Downloads/MasterChefV2/MasterChefV2.sol\":11973:12321  function cakePerBlock(bool _isRegular) public view returns (uint256 amount) {... */\n    tag_11:\n      tag_88\n      0x04\n      dup1\n      calldatasize\n      sub\n      dup2\n      add\n      swap1\n      tag_89\n      swap2\n      swap1\n      tag_90\n      jump\t// in\n    tag_89:\n      tag_91\n      jump\t// in\n    tag_88:\n      mload(0x40)\n      tag_92\n      swap2\n      swap1\n      tag_58\n      jump\t// in\n    tag_92:\n      mload(0x40)\n      dup1\n      swap2\n      sub\n      swap1\n      return\n        /* \"Users/leilei/Downloads/MasterChefV2/MasterChefV2.sol\":3509:3550  mapping(address => bool) public whiteList */\n    tag_12:\n      tag_93\n      0x04\n      dup1\n      calldatasize\n      sub\n      dup2\n      add\n      swap1\n      tag_94\n      swap2\n      swap1\n      tag_68\n      jump\t// in\n    tag_94:\n      tag_95\n      jump\t// in\n    tag_93:\n      mload(0x40)\n      tag_96\n      swap2\n      swap1\n      tag_97\n      jump\t// in\n    tag_96:\n      mload(0x40)\n      dup1\n      swap2\n      sub\n      swap1\n      return\n        /* \"Users/leilei/Downloads/MasterChefV2/MasterChefV2.sol\":4005:4066  uint256 public constant MASTERCHEF_CAKE_PER_BLOCK = 40 * 1e18 */\n    tag_13:\n      tag_98\n      tag_99\n      jump\t// in\n    tag_98:\n      mload(0x40)\n      tag_100\n      swap2\n      swap1\n      tag_58\n      jump\t// in\n    tag_100:\n      mload(0x40)\n      dup1\n      swap2\n      sub\n      swap1\n      return\n        /* \"Users/leilei/Downloads/MasterChefV2/MasterChefV2.sol\":15227:16108  function withdraw(uint256 _pid, uint256 _amount) external nonReentrant {... */\n    tag_14:\n      tag_101\n      0x04\n      dup1\n      calldatasize\n      sub\n      dup2\n      add\n      swap1\n      tag_102\n      swap2\n      swap1\n      tag_103\n      jump\t// in\n    tag_102:\n      tag_104\n      jump\t// in\n    tag_101:\n      stop\n        /* \"Users/leilei/Downloads/MasterChefV2/MasterChefV2.sol\":2937:2965  IBEP20 public immutable CAKE */\n    tag_15:\n      tag_105\n      tag_106\n      jump\t// in\n    tag_105:\n      mload(0x40)\n      tag_107\n      swap2\n      swap1\n      tag_108\n      jump\t// in\n    tag_107:\n      mload(0x40)\n      dup1\n      swap2\n      sub\n      swap1\n      return\n        /* \"Users/leilei/Downloads/MasterChefV2/MasterChefV2.sol\":16199:16290  function harvestFromMasterChef() public {... */\n    tag_16:\n      tag_109\n      tag_110\n      jump\t// in\n    tag_109:\n      stop\n        /* \"Users/leilei/Downloads/MasterChefV2/MasterChefV2.sol\":12753:13685  function updatePool(uint256 _pid) public returns (PoolInfo memory pool) {... */\n    tag_17:\n      tag_111\n      0x04\n      dup1\n      calldatasize\n      sub\n      dup2\n      add\n      swap1\n      tag_112\n      swap2\n      swap1\n      tag_77\n      jump\t// in\n    tag_112:\n      tag_113\n      jump\t// in\n    tag_111:\n      mload(0x40)\n      tag_114\n      swap2\n      swap1\n      tag_115\n      jump\t// in\n    tag_114:\n      mload(0x40)\n      dup1\n      swap2\n      sub\n      swap1\n      return\n        /* \"Users/leilei/Downloads/MasterChefV2/MasterChefV2.sol\":16427:17104  function emergencyWithdraw(uint256 _pid) external nonReentrant {... */\n    tag_18:\n      tag_116\n      0x04\n      dup1\n      calldatasize\n      sub\n      dup2\n      add\n      swap1\n      tag_117\n      swap2\n      swap1\n      tag_77\n      jump\t// in\n    tag_117:\n      tag_118\n      jump\t// in\n    tag_116:\n      stop\n        /* \"Users/leilei/Downloads/MasterChefV2/MasterChefV2.sol\":3622:3657  uint256 public immutable MASTER_PID */\n    tag_19:\n      tag_119\n      tag_120\n      jump\t// in\n    tag_119:\n      mload(0x40)\n      tag_121\n      swap2\n      swap1\n      tag_58\n      jump\t// in\n    tag_121:\n      mload(0x40)\n      dup1\n      swap2\n      sub\n      swap1\n      return\n        /* \"Users/leilei/Downloads/MasterChefV2/MasterChefV2.sol\":11544:11827  function massUpdatePools() public {... */\n    tag_20:\n      tag_122\n      tag_123\n      jump\t// in\n    tag_122:\n      stop\n        /* \"Users/leilei/Downloads/MasterChefV2/MasterChefV2.sol\":9616:10327  function set(... */\n    tag_21:\n      tag_124\n      0x04\n      dup1\n      calldatasize\n      sub\n      dup2\n      add\n      swap1\n      tag_125\n      swap2\n      swap1\n      tag_126\n      jump\t// in\n    tag_125:\n      tag_127\n      jump\t// in\n    tag_124:\n      stop\n        /* \"Users/leilei/Downloads/MasterChefV2/MasterChefV2.sol\":4345:4401  uint256 public constant MAX_BOOST_PRECISION = 200 * 1e10 */\n    tag_22:\n      tag_128\n      tag_129\n      jump\t// in\n    tag_128:\n      mload(0x40)\n      tag_130\n      swap2\n      swap1\n      tag_58\n      jump\t// in\n    tag_130:\n      mload(0x40)\n      dup1\n      swap2\n      sub\n      swap1\n      return\n        /* \"Users/leilei/Downloads/MasterChefV2/Ownable.sol\":1684:1829  function renounceOwnership() public virtual onlyOwner {... */\n    tag_23:\n      tag_131\n      tag_132\n      jump\t// in\n    tag_131:\n      stop\n        /* \"Users/leilei/Downloads/MasterChefV2/MasterChefV2.sol\":4072:4121  uint256 public constant ACC_CAKE_PRECISION = 1e18 */\n    tag_24:\n      tag_133\n      tag_134\n      jump\t// in\n    tag_133:\n      mload(0x40)\n      tag_135\n      swap2\n      swap1\n      tag_58\n      jump\t// in\n    tag_135:\n      mload(0x40)\n      dup1\n      swap2\n      sub\n      swap1\n      return\n        /* \"Users/leilei/Downloads/MasterChefV2/MasterChefV2.sol\":17238:17628  function burnCake(bool _withUpdate) public onlyOwner {... */\n    tag_25:\n      tag_136\n      0x04\n      dup1\n      calldatasize\n      sub\n      dup2\n      add\n      swap1\n      tag_137\n      swap2\n      swap1\n      tag_90\n      jump\t// in\n    tag_137:\n      tag_138\n      jump\t// in\n    tag_136:\n      stop\n        /* \"Users/leilei/Downloads/MasterChefV2/MasterChefV2.sol\":4923:4953  uint256 public lastBurnedBlock */\n    tag_26:\n      tag_139\n      tag_140\n      jump\t// in\n    tag_139:\n      mload(0x40)\n      tag_141\n      swap2\n      swap1\n      tag_58\n      jump\t// in\n    tag_141:\n      mload(0x40)\n      dup1\n      swap2\n      sub\n      swap1\n      return\n        /* \"Users/leilei/Downloads/MasterChefV2/MasterChefV2.sol\":3289:3312  IBEP20[] public lpToken */\n    tag_27:\n      tag_142\n      0x04\n      dup1\n      calldatasize\n      sub\n      dup2\n      add\n      swap1\n      tag_143\n      swap2\n      swap1\n      tag_77\n      jump\t// in\n    tag_143:\n      tag_144\n      jump\t// in\n    tag_142:\n      mload(0x40)\n      tag_145\n      swap2\n      swap1\n      tag_108\n      jump\t// in\n    tag_145:\n      mload(0x40)\n      dup1\n      swap2\n      sub\n      swap1\n      return\n        /* \"Users/leilei/Downloads/MasterChefV2/MasterChefV2.sol\":3037:3061  address public burnAdmin */\n    tag_28:\n      tag_146\n      tag_147\n      jump\t// in\n    tag_146:\n      mload(0x40)\n      tag_148\n      swap2\n      swap1\n      tag_149\n      jump\t// in\n    tag_148:\n      mload(0x40)\n      dup1\n      swap2\n      sub\n      swap1\n      return\n        /* \"Users/leilei/Downloads/MasterChefV2/Ownable.sol\":1061:1138  function owner() public view returns (address) {... */\n    tag_29:\n      tag_150\n      tag_151\n      jump\t// in\n    tag_150:\n      mload(0x40)\n      tag_152\n      swap2\n      swap1\n      tag_149\n      jump\t// in\n    tag_152:\n      mload(0x40)\n      dup1\n      swap2\n      sub\n      swap1\n      return\n        /* \"Users/leilei/Downloads/MasterChefV2/MasterChefV2.sol\":3359:3423  mapping(uint256 => mapping(address => UserInfo)) public userInfo */\n    tag_30:\n      tag_153\n      0x04\n      dup1\n      calldatasize\n      sub\n      dup2\n      add\n      swap1\n      tag_154\n      swap2\n      swap1\n      tag_72\n      jump\t// in\n    tag_154:\n      tag_155\n      jump\t// in\n    tag_153:\n      mload(0x40)\n      tag_156\n      swap4\n      swap3\n      swap2\n      swap1\n      tag_157\n      jump\t// in\n    tag_156:\n      mload(0x40)\n      dup1\n      swap2\n      sub\n      swap1\n      return\n        /* \"Users/leilei/Downloads/MasterChefV2/MasterChefV2.sol\":3918:3955  uint256 public totalSpecialAllocPoint */\n    tag_31:\n      tag_158\n      tag_159\n      jump\t// in\n    tag_158:\n      mload(0x40)\n      tag_160\n      swap2\n      swap1\n      tag_58\n      jump\t// in\n    tag_160:\n      mload(0x40)\n      dup1\n      swap2\n      sub\n      swap1\n      return\n        /* \"Users/leilei/Downloads/MasterChefV2/MasterChefV2.sol\":12406:12575  function cakePerBlockToBurn() public view returns (uint256 amount) {... */\n    tag_32:\n      tag_161\n      tag_162\n      jump\t// in\n    tag_161:\n      mload(0x40)\n      tag_163\n      swap2\n      swap1\n      tag_58\n      jump\t// in\n    tag_163:\n      mload(0x40)\n      dup1\n      swap2\n      sub\n      swap1\n      return\n        /* \"Users/leilei/Downloads/MasterChefV2/MasterChefV2.sol\":19963:20322  function updateBoostContract(address _newBoostContract) external onlyOwner {... */\n    tag_33:\n      tag_164\n      0x04\n      dup1\n      calldatasize\n      sub\n      dup2\n      add\n      swap1\n      tag_165\n      swap2\n      swap1\n      tag_68\n      jump\t// in\n    tag_165:\n      tag_166\n      jump\t// in\n    tag_164:\n      stop\n        /* \"Users/leilei/Downloads/MasterChefV2/MasterChefV2.sol\":4757:4807  uint256 public cakeRateToRegularFarm = 62847222222 */\n    tag_34:\n      tag_167\n      tag_168\n      jump\t// in\n    tag_167:\n      mload(0x40)\n      tag_169\n      swap2\n      swap1\n      tag_58\n      jump\t// in\n    tag_169:\n      mload(0x40)\n      dup1\n      swap2\n      sub\n      swap1\n      return\n        /* \"Users/leilei/Downloads/MasterChefV2/MasterChefV2.sol\":19547:19805  function updateWhiteList(address _user, bool _isValid) external onlyOwner {... */\n    tag_35:\n      tag_170\n      0x04\n      dup1\n      calldatasize\n      sub\n      dup2\n      add\n      swap1\n      tag_171\n      swap2\n      swap1\n      tag_172\n      jump\t// in\n    tag_171:\n      tag_173\n      jump\t// in\n    tag_170:\n      stop\n        /* \"Users/leilei/Downloads/MasterChefV2/MasterChefV2.sol\":3769:3806  uint256 public totalRegularAllocPoint */\n    tag_36:\n      tag_174\n      tag_175\n      jump\t// in\n    tag_174:\n      mload(0x40)\n      tag_176\n      swap2\n      swap1\n      tag_58\n      jump\t// in\n    tag_176:\n      mload(0x40)\n      dup1\n      swap2\n      sub\n      swap1\n      return\n        /* \"Users/leilei/Downloads/MasterChefV2/MasterChefV2.sol\":8238:9316  function add(... */\n    tag_37:\n      tag_177\n      0x04\n      dup1\n      calldatasize\n      sub\n      dup2\n      add\n      swap1\n      tag_178\n      swap2\n      swap1\n      tag_179\n      jump\t// in\n    tag_178:\n      tag_180\n      jump\t// in\n    tag_177:\n      stop\n        /* \"Users/leilei/Downloads/MasterChefV2/MasterChefV2.sol\":4197:4249  uint256 public constant BOOST_PRECISION = 100 * 1e10 */\n    tag_38:\n      tag_181\n      tag_182\n      jump\t// in\n    tag_181:\n      mload(0x40)\n      tag_183\n      swap2\n      swap1\n      tag_58\n      jump\t// in\n    tag_183:\n      mload(0x40)\n      dup1\n      swap2\n      sub\n      swap1\n      return\n        /* \"Users/leilei/Downloads/MasterChefV2/MasterChefV2.sol\":18006:18878  function updateCakeRate(... */\n    tag_39:\n      tag_184\n      0x04\n      dup1\n      calldatasize\n      sub\n      dup2\n      add\n      swap1\n      tag_185\n      swap2\n      swap1\n      tag_186\n      jump\t// in\n    tag_185:\n      tag_187\n      jump\t// in\n    tag_184:\n      stop\n        /* \"Users/leilei/Downloads/MasterChefV2/MasterChefV2.sol\":3122:3150  address public boostContract */\n    tag_40:\n      tag_188\n      tag_189\n      jump\t// in\n    tag_188:\n      mload(0x40)\n      tag_190\n      swap2\n      swap1\n      tag_149\n      jump\t// in\n    tag_190:\n      mload(0x40)\n      dup1\n      swap2\n      sub\n      swap1\n      return\n        /* \"Users/leilei/Downloads/MasterChefV2/MasterChefV2.sol\":4651:4695  uint256 public cakeRateToBurn = 643750000000 */\n    tag_41:\n      tag_191\n      tag_192\n      jump\t// in\n    tag_191:\n      mload(0x40)\n      tag_193\n      swap2\n      swap1\n      tag_58\n      jump\t// in\n    tag_193:\n      mload(0x40)\n      dup1\n      swap2\n      sub\n      swap1\n      return\n        /* \"Users/leilei/Downloads/MasterChefV2/MasterChefV2.sol\":13845:15063  function deposit(uint256 _pid, uint256 _amount) external nonReentrant {... */\n    tag_42:\n      tag_194\n      0x04\n      dup1\n      calldatasize\n      sub\n      dup2\n      add\n      swap1\n      tag_195\n      swap2\n      swap1\n      tag_103\n      jump\t// in\n    tag_195:\n      tag_196\n      jump\t// in\n    tag_194:\n      stop\n        /* \"Users/leilei/Downloads/MasterChefV2/MasterChefV2.sol\":4472:4528  uint256 public constant CAKE_RATE_TOTAL_PRECISION = 1e12 */\n    tag_43:\n      tag_197\n      tag_198\n      jump\t// in\n    tag_197:\n      mload(0x40)\n      tag_199\n      swap2\n      swap1\n      tag_58\n      jump\t// in\n    tag_199:\n      mload(0x40)\n      dup1\n      swap2\n      sub\n      swap1\n      return\n        /* \"Users/leilei/Downloads/MasterChefV2/MasterChefV2.sol\":2849:2889  IMasterChef public immutable MASTER_CHEF */\n    tag_44:\n      tag_200\n      tag_201\n      jump\t// in\n    tag_200:\n      mload(0x40)\n      tag_202\n      swap2\n      swap1\n      tag_203\n      jump\t// in\n    tag_202:\n      mload(0x40)\n      dup1\n      swap2\n      sub\n      swap1\n      return\n        /* \"Users/leilei/Downloads/MasterChefV2/Ownable.sol\":1978:2218  function transferOwnership(address newOwner) public virtual onlyOwner {... */\n    tag_45:\n      tag_204\n      0x04\n      dup1\n      calldatasize\n      sub\n      dup2\n      add\n      swap1\n      tag_205\n      swap2\n      swap1\n      tag_68\n      jump\t// in\n    tag_205:\n      tag_206\n      jump\t// in\n    tag_204:\n      stop\n        /* \"Users/leilei/Downloads/MasterChefV2/MasterChefV2.sol\":21958:22196  function getBoostMultiplier(address _user, uint256 _pid) public view returns (uint256) {... */\n    tag_56:\n        /* \"Users/leilei/Downloads/MasterChefV2/MasterChefV2.sol\":22036:22043  uint256 */\n      0x00\n        /* \"Users/leilei/Downloads/MasterChefV2/MasterChefV2.sol\":22055:22073  uint256 multiplier */\n      dup1\n        /* \"Users/leilei/Downloads/MasterChefV2/MasterChefV2.sol\":22076:22084  userInfo */\n      0x06\n        /* \"Users/leilei/Downloads/MasterChefV2/MasterChefV2.sol\":22076:22090  userInfo[_pid] */\n      0x00\n        /* \"Users/leilei/Downloads/MasterChefV2/MasterChefV2.sol\":22085:22089  _pid */\n      dup5\n        /* \"Users/leilei/Downloads/MasterChefV2/MasterChefV2.sol\":22076:22090  userInfo[_pid] */\n      dup2\n      mstore\n      0x20\n      add\n      swap1\n      dup2\n      mstore\n      0x20\n      add\n      0x00\n      keccak256\n        /* \"Users/leilei/Downloads/MasterChefV2/MasterChefV2.sol\":22076:22097  userInfo[_pid][_user] */\n      0x00\n        /* \"Users/leilei/Downloads/MasterChefV2/MasterChefV2.sol\":22091:22096  _user */\n      dup6\n        /* \"Users/leilei/Downloads/MasterChefV2/MasterChefV2.sol\":22076:22097  userInfo[_pid][_user] */\n      0xffffffffffffffffffffffffffffffffffffffff\n      and\n      0xffffffffffffffffffffffffffffffffffffffff\n      and\n      dup2\n      mstore\n      0x20\n      add\n      swap1\n      dup2\n      mstore\n      0x20\n      add\n      0x00\n      keccak256\n        /* \"Users/leilei/Downloads/MasterChefV2/MasterChefV2.sol\":22076:22113  userInfo[_pid][_user].boostMultiplier */\n      0x02\n      add\n      sload\n        /* \"Users/leilei/Downloads/MasterChefV2/MasterChefV2.sol\":22055:22113  uint256 multiplier = userInfo[_pid][_user].boostMultiplier */\n      swap1\n      pop\n        /* \"Users/leilei/Downloads/MasterChefV2/MasterChefV2.sol\":4239:4249  100 * 1e10 */\n      0xe8d4a51000\n        /* \"Users/leilei/Downloads/MasterChefV2/MasterChefV2.sol\":22130:22140  multiplier */\n      dup2\n        /* \"Users/leilei/Downloads/MasterChefV2/MasterChefV2.sol\":22130:22158  multiplier > BOOST_PRECISION */\n      gt\n        /* \"Users/leilei/Downloads/MasterChefV2/MasterChefV2.sol\":22130:22189  multiplier > BOOST_PRECISION ? multiplier : BOOST_PRECISION */\n      tag_208\n      jumpi\n        /* \"Users/leilei/Downloads/MasterChefV2/MasterChefV2.sol\":4239:4249  100 * 1e10 */\n      0xe8d4a51000\n        /* \"Users/leilei/Downloads/MasterChefV2/MasterChefV2.sol\":22130:22189  multiplier > BOOST_PRECISION ? multiplier : BOOST_PRECISION */\n      jump(tag_209)\n    tag_208:\n        /* \"Users/leilei/Downloads/MasterChefV2/MasterChefV2.sol\":22161:22171  multiplier */\n      dup1\n        /* \"Users/leilei/Downloads/MasterChefV2/MasterChefV2.sol\":22130:22189  multiplier > BOOST_PRECISION ? multiplier : BOOST_PRECISION */\n    tag_209:\n        /* \"Users/leilei/Downloads/MasterChefV2/MasterChefV2.sol\":22123:22189  return multiplier > BOOST_PRECISION ? multiplier : BOOST_PRECISION */\n      swap2\n      pop\n      pop\n        /* \"Users/leilei/Downloads/MasterChefV2/MasterChefV2.sol\":21958:22196  function getBoostMultiplier(address _user, uint256 _pid) public view returns (uint256) {... */\n      swap3\n      swap2\n      pop\n      pop\n      jump\t// out\n        /* \"Users/leilei/Downloads/MasterChefV2/MasterChefV2.sol\":20548:21816  function updateBoostMultiplier(... */\n    tag_62:\n        /* \"Users/leilei/Downloads/MasterChefV2/MasterChefV2.sol\":6563:6573  msg.sender */\n      caller\n        /* \"Users/leilei/Downloads/MasterChefV2/MasterChefV2.sol\":6546:6573  boostContract == msg.sender */\n      0xffffffffffffffffffffffffffffffffffffffff\n      and\n        /* \"Users/leilei/Downloads/MasterChefV2/MasterChefV2.sol\":6546:6559  boostContract */\n      0x03\n      0x00\n      swap1\n      sload\n      swap1\n      0x0100\n      exp\n      swap1\n      div\n      0xffffffffffffffffffffffffffffffffffffffff\n      and\n        /* \"Users/leilei/Downloads/MasterChefV2/MasterChefV2.sol\":6546:6573  boostContract == msg.sender */\n      0xffffffffffffffffffffffffffffffffffffffff\n      and\n      eq\n        /* \"Users/leilei/Downloads/MasterChefV2/MasterChefV2.sol\":6538:6619  require(boostContract == msg.sender, \"Ownable: caller is not the boost contract\") */\n      tag_211\n      jumpi\n      mload(0x40)\n      0x08c379a000000000000000000000000000000000000000000000000000000000\n      dup2\n      mstore\n      0x04\n      add\n      tag_212\n      swap1\n      tag_213\n      jump\t// in\n    tag_212:\n      mload(0x40)\n      dup1\n      swap2\n      sub\n      swap1\n      revert\n    tag_211:\n        /* \"Users/leilei/Downloads/MasterChefV2/ReentrancyGuard.sol\":1671:1672  2 */\n      0x02\n        /* \"Users/leilei/Downloads/MasterChefV2/ReentrancyGuard.sol\":2260:2267  _status */\n      sload(0x01)\n        /* \"Users/leilei/Downloads/MasterChefV2/ReentrancyGuard.sol\":2260:2279  _status != _ENTERED */\n      eq\n      iszero\n        /* \"Users/leilei/Downloads/MasterChefV2/ReentrancyGuard.sol\":2252:2315  require(_status != _ENTERED, \"ReentrancyGuard: reentrant call\") */\n      tag_215\n      jumpi\n      mload(0x40)\n      0x08c379a000000000000000000000000000000000000000000000000000000000\n      dup2\n      mstore\n      0x04\n      add\n      tag_216\n      swap1\n      tag_217\n      jump\t// in\n    tag_216:\n      mload(0x40)\n      dup1\n      swap2\n      sub\n      swap1\n      revert\n    tag_215:\n        /* \"Users/leilei/Downloads/MasterChefV2/ReentrancyGuard.sol\":1671:1672  2 */\n      0x02\n        /* \"Users/leilei/Downloads/MasterChefV2/ReentrancyGuard.sol\":2390:2397  _status */\n      0x01\n        /* \"Users/leilei/Downloads/MasterChefV2/ReentrancyGuard.sol\":2390:2408  _status = _ENTERED */\n      dup2\n      swap1\n      sstore\n      pop\n        /* \"Users/leilei/Downloads/MasterChefV2/MasterChefV2.sol\":20737:20738  0 */\n      0x00\n        /* \"Users/leilei/Downloads/MasterChefV2/MasterChefV2.sol\":20720:20739  _user != address(0) */\n      0xffffffffffffffffffffffffffffffffffffffff\n      and\n        /* \"Users/leilei/Downloads/MasterChefV2/MasterChefV2.sol\":20720:20725  _user */\n      dup4\n        /* \"Users/leilei/Downloads/MasterChefV2/MasterChefV2.sol\":20720:20739  _user != address(0) */\n      0xffffffffffffffffffffffffffffffffffffffff\n      and\n      eq\n      iszero\n        /* \"Users/leilei/Downloads/MasterChefV2/MasterChefV2.sol\":20712:20788  require(_user != address(0), \"MasterChefV2: The user address must be valid\") */\n      tag_219\n      jumpi\n      mload(0x40)\n      0x08c379a000000000000000000000000000000000000000000000000000000000\n      dup2\n      mstore\n      0x04\n      add\n      tag_220\n      swap1\n      tag_221\n      jump\t// in\n    tag_220:\n      mload(0x40)\n      dup1\n      swap2\n      sub\n      swap1\n      revert\n    tag_219:\n        /* \"Users/leilei/Downloads/MasterChefV2/MasterChefV2.sol\":20806:20814  poolInfo */\n      0x04\n        /* \"Users/leilei/Downloads/MasterChefV2/MasterChefV2.sol\":20815:20819  _pid */\n      dup3\n        /* \"Users/leilei/Downloads/MasterChefV2/MasterChefV2.sol\":20806:20820  poolInfo[_pid] */\n      dup2\n      sload\n      dup2\n      lt\n      tag_222\n      jumpi\n      invalid\n    tag_222:\n      swap1\n      0x00\n      mstore\n      keccak256(0x00, 0x20)\n      swap1\n      0x05\n      mul\n      add\n        /* \"Users/leilei/Downloads/MasterChefV2/MasterChefV2.sol\":20806:20830  poolInfo[_pid].isRegular */\n      0x04\n      add\n      0x00\n      swap1\n      sload\n      swap1\n      0x0100\n      exp\n      swap1\n      div\n      0xff\n      and\n        /* \"Users/leilei/Downloads/MasterChefV2/MasterChefV2.sol\":20798:20883  require(poolInfo[_pid].isRegular, \"MasterChefV2: Only regular farm could be boosted\") */\n      tag_224\n      jumpi\n      mload(0x40)\n      0x08c379a000000000000000000000000000000000000000000000000000000000\n      dup2\n      mstore\n      0x04\n      add\n      tag_225\n      swap1\n      tag_226\n      jump\t// in\n    tag_225:\n      mload(0x40)\n      dup1\n      swap2\n      sub\n      swap1\n      revert\n    tag_224:\n        /* \"Users/leilei/Downloads/MasterChefV2/MasterChefV2.sol\":4239:4249  100 * 1e10 */\n      0xe8d4a51000\n        /* \"Users/leilei/Downloads/MasterChefV2/MasterChefV2.sol\":20914:20928  _newMultiplier */\n      dup2\n        /* \"Users/leilei/Downloads/MasterChefV2/MasterChefV2.sol\":20914:20947  _newMultiplier >= BOOST_PRECISION */\n      lt\n      iszero\n        /* \"Users/leilei/Downloads/MasterChefV2/MasterChefV2.sol\":20914:20988  _newMultiplier >= BOOST_PRECISION && _newMultiplier <= MAX_BOOST_PRECISION */\n      dup1\n      iszero\n      tag_227\n      jumpi\n      pop\n        /* \"Users/leilei/Downloads/MasterChefV2/MasterChefV2.sol\":4391:4401  200 * 1e10 */\n      0x01d1a94a2000\n        /* \"Users/leilei/Downloads/MasterChefV2/MasterChefV2.sol\":20951:20965  _newMultiplier */\n      dup2\n        /* \"Users/leilei/Downloads/MasterChefV2/MasterChefV2.sol\":20951:20988  _newMultiplier <= MAX_BOOST_PRECISION */\n      gt\n      iszero\n        /* \"Users/leilei/Downloads/MasterChefV2/MasterChefV2.sol\":20914:20988  _newMultiplier >= BOOST_PRECISION && _newMultiplier <= MAX_BOOST_PRECISION */\n    tag_227:\n        /* \"Users/leilei/Downloads/MasterChefV2/MasterChefV2.sol\":20893:21056  require(... */\n      tag_228\n      jumpi\n      mload(0x40)\n      0x08c379a000000000000000000000000000000000000000000000000000000000\n      dup2\n      mstore\n      0x04\n      add\n      tag_229\n      swap1\n      tag_230\n      jump\t// in\n    tag_229:\n      mload(0x40)\n      dup1\n      swap2\n      sub\n      swap1\n      revert\n    tag_228:\n        /* \"Users/leilei/Downloads/MasterChefV2/MasterChefV2.sol\":21067:21087  PoolInfo memory pool */\n      tag_231\n      tag_232\n      jump\t// in\n    tag_231:\n        /* \"Users/leilei/Downloads/MasterChefV2/MasterChefV2.sol\":21090:21106  updatePool(_pid) */\n      tag_233\n        /* \"Users/leilei/Downloads/MasterChefV2/MasterChefV2.sol\":21101:21105  _pid */\n      dup4\n        /* \"Users/leilei/Downloads/MasterChefV2/MasterChefV2.sol\":21090:21100  updatePool */\n      tag_113\n        /* \"Users/leilei/Downloads/MasterChefV2/MasterChefV2.sol\":21090:21106  updatePool(_pid) */\n      jump\t// in\n    tag_233:\n        /* \"Users/leilei/Downloads/MasterChefV2/MasterChefV2.sol\":21067:21106  PoolInfo memory pool = updatePool(_pid) */\n      swap1\n      pop\n        /* \"Users/leilei/Downloads/MasterChefV2/MasterChefV2.sol\":21116:21137  UserInfo storage user */\n      0x00\n        /* \"Users/leilei/Downloads/MasterChefV2/MasterChefV2.sol\":21140:21148  userInfo */\n      0x06\n        /* \"Users/leilei/Downloads/MasterChefV2/MasterChefV2.sol\":21140:21154  userInfo[_pid] */\n      0x00\n        /* \"Users/leilei/Downloads/MasterChefV2/MasterChefV2.sol\":21149:21153  _pid */\n      dup6\n        /* \"Users/leilei/Downloads/MasterChefV2/MasterChefV2.sol\":21140:21154  userInfo[_pid] */\n      dup2\n      mstore\n      0x20\n      add\n      swap1\n      dup2\n      mstore\n      0x20\n      add\n      0x00\n      keccak256\n        /* \"Users/leilei/Downloads/MasterChefV2/MasterChefV2.sol\":21140:21161  userInfo[_pid][_user] */\n      0x00\n        /* \"Users/leilei/Downloads/MasterChefV2/MasterChefV2.sol\":21155:21160  _user */\n      dup7\n        /* \"Users/leilei/Downloads/MasterChefV2/MasterChefV2.sol\":21140:21161  userInfo[_pid][_user] */\n      0xffffffffffffffffffffffffffffffffffffffff\n      and\n      0xffffffffffffffffffffffffffffffffffffffff\n      and\n      dup2\n      mstore\n      0x20\n      add\n      swap1\n      dup2\n      mstore\n      0x20\n      add\n      0x00\n      keccak256\n        /* \"Users/leilei/Downloads/MasterChefV2/MasterChefV2.sol\":21116:21161  UserInfo storage user = userInfo[_pid][_user] */\n      swap1\n      pop\n        /* \"Users/leilei/Downloads/MasterChefV2/MasterChefV2.sol\":21172:21194  uint256 prevMultiplier */\n      0x00\n        /* \"Users/leilei/Downloads/MasterChefV2/MasterChefV2.sol\":21197:21228  getBoostMultiplier(_user, _pid) */\n      tag_234\n        /* \"Users/leilei/Downloads/MasterChefV2/MasterChefV2.sol\":21216:21221  _user */\n      dup7\n        /* \"Users/leilei/Downloads/MasterChefV2/MasterChefV2.sol\":21223:21227  _pid */\n      dup7\n        /* \"Users/leilei/Downloads/MasterChefV2/MasterChefV2.sol\":21197:21215  getBoostMultiplier */\n      tag_56\n        /* \"Users/leilei/Downloads/MasterChefV2/MasterChefV2.sol\":21197:21228  getBoostMultiplier(_user, _pid) */\n      jump\t// in\n    tag_234:\n        /* \"Users/leilei/Downloads/MasterChefV2/MasterChefV2.sol\":21172:21228  uint256 prevMultiplier = getBoostMultiplier(_user, _pid) */\n      swap1\n      pop\n        /* \"Users/leilei/Downloads/MasterChefV2/MasterChefV2.sol\":21238:21284  settlePendingCake(_user, _pid, prevMultiplier) */\n      tag_235\n        /* \"Users/leilei/Downloads/MasterChefV2/MasterChefV2.sol\":21256:21261  _user */\n      dup7\n        /* \"Users/leilei/Downloads/MasterChefV2/MasterChefV2.sol\":21263:21267  _pid */\n      dup7\n        /* \"Users/leilei/Downloads/MasterChefV2/MasterChefV2.sol\":21269:21283  prevMultiplier */\n      dup4\n        /* \"Users/leilei/Downloads/MasterChefV2/MasterChefV2.sol\":21238:21255  settlePendingCake */\n      tag_236\n        /* \"Users/leilei/Downloads/MasterChefV2/MasterChefV2.sol\":21238:21284  settlePendingCake(_user, _pid, prevMultiplier) */\n      jump\t// in\n    tag_235:\n        /* \"Users/leilei/Downloads/MasterChefV2/MasterChefV2.sol\":21313:21437  user.amount.mul(_newMultiplier).div(BOOST_PRECISION).mul(pool.accCakePerShare).div(... */\n      tag_237\n        /* \"Users/leilei/Downloads/MasterChefV2/MasterChefV2.sol\":4117:4121  1e18 */\n      0x0de0b6b3a7640000\n        /* \"Users/leilei/Downloads/MasterChefV2/MasterChefV2.sol\":21313:21391  user.amount.mul(_newMultiplier).div(BOOST_PRECISION).mul(pool.accCakePerShare) */\n      tag_238\n        /* \"Users/leilei/Downloads/MasterChefV2/MasterChefV2.sol\":21370:21374  pool */\n      dup6\n        /* \"Users/leilei/Downloads/MasterChefV2/MasterChefV2.sol\":21370:21390  pool.accCakePerShare */\n      0x00\n      add\n      mload\n        /* \"Users/leilei/Downloads/MasterChefV2/MasterChefV2.sol\":21313:21365  user.amount.mul(_newMultiplier).div(BOOST_PRECISION) */\n      tag_239\n        /* \"Users/leilei/Downloads/MasterChefV2/MasterChefV2.sol\":4239:4249  100 * 1e10 */\n      0xe8d4a51000\n        /* \"Users/leilei/Downloads/MasterChefV2/MasterChefV2.sol\":21313:21344  user.amount.mul(_newMultiplier) */\n      tag_240\n        /* \"Users/leilei/Downloads/MasterChefV2/MasterChefV2.sol\":21329:21343  _newMultiplier */\n      dup11\n        /* \"Users/leilei/Downloads/MasterChefV2/MasterChefV2.sol\":21313:21317  user */\n      dup10\n        /* \"Users/leilei/Downloads/MasterChefV2/MasterChefV2.sol\":21313:21324  user.amount */\n      0x00\n      add\n      sload\n        /* \"Users/leilei/Downloads/MasterChefV2/MasterChefV2.sol\":21313:21328  user.amount.mul */\n      tag_241\n      swap1\n        /* \"Users/leilei/Downloads/MasterChefV2/MasterChefV2.sol\":21313:21344  user.amount.mul(_newMultiplier) */\n      swap2\n      swap1\n      0xffffffff\n      and\n      jump\t// in\n    tag_240:\n        /* \"Users/leilei/Downloads/MasterChefV2/MasterChefV2.sol\":21313:21348  user.amount.mul(_newMultiplier).div */\n      tag_242\n      swap1\n        /* \"Users/leilei/Downloads/MasterChefV2/MasterChefV2.sol\":21313:21365  user.amount.mul(_newMultiplier).div(BOOST_PRECISION) */\n      swap2\n      swap1\n      0xffffffff\n      and\n      jump\t// in\n    tag_239:\n        /* \"Users/leilei/Downloads/MasterChefV2/MasterChefV2.sol\":21313:21369  user.amount.mul(_newMultiplier).div(BOOST_PRECISION).mul */\n      tag_241\n      swap1\n        /* \"Users/leilei/Downloads/MasterChefV2/MasterChefV2.sol\":21313:21391  user.amount.mul(_newMultiplier).div(BOOST_PRECISION).mul(pool.accCakePerShare) */\n      swap2\n      swap1\n      0xffffffff\n      and\n      jump\t// in\n    tag_238:\n        /* \"Users/leilei/Downloads/MasterChefV2/MasterChefV2.sol\":21313:21395  user.amount.mul(_newMultiplier).div(BOOST_PRECISION).mul(pool.accCakePerShare).div */\n      tag_242\n      swap1\n        /* \"Users/leilei/Downloads/MasterChefV2/MasterChefV2.sol\":21313:21437  user.amount.mul(_newMultiplier).div(BOOST_PRECISION).mul(pool.accCakePerShare).div(... */\n      swap2\n      swap1\n      0xffffffff\n      and\n      jump\t// in\n    tag_237:\n        /* \"Users/leilei/Downloads/MasterChefV2/MasterChefV2.sol\":21295:21299  user */\n      dup3\n        /* \"Users/leilei/Downloads/MasterChefV2/MasterChefV2.sol\":21295:21310  user.rewardDebt */\n      0x01\n      add\n        /* \"Users/leilei/Downloads/MasterChefV2/MasterChefV2.sol\":21295:21437  user.rewardDebt = user.amount.mul(_newMultiplier).div(BOOST_PRECISION).mul(pool.accCakePerShare).div(... */\n      dup2\n      swap1\n      sstore\n      pop\n        /* \"Users/leilei/Downloads/MasterChefV2/MasterChefV2.sol\":21472:21632  pool.totalBoostedShare.sub(user.amount.mul(prevMultiplier).div(BOOST_PRECISION)).add(... */\n      tag_243\n        /* \"Users/leilei/Downloads/MasterChefV2/MasterChefV2.sol\":21570:21622  user.amount.mul(_newMultiplier).div(BOOST_PRECISION) */\n      tag_244\n        /* \"Users/leilei/Downloads/MasterChefV2/MasterChefV2.sol\":4239:4249  100 * 1e10 */\n      0xe8d4a51000\n        /* \"Users/leilei/Downloads/MasterChefV2/MasterChefV2.sol\":21570:21601  user.amount.mul(_newMultiplier) */\n      tag_245\n        /* \"Users/leilei/Downloads/MasterChefV2/MasterChefV2.sol\":21586:21600  _newMultiplier */\n      dup8\n        /* \"Users/leilei/Downloads/MasterChefV2/MasterChefV2.sol\":21570:21574  user */\n      dup7\n        /* \"Users/leilei/Downloads/MasterChefV2/MasterChefV2.sol\":21570:21581  user.amount */\n      0x00\n      add\n      sload\n        /* \"Users/leilei/Downloads/MasterChefV2/MasterChefV2.sol\":21570:21585  user.amount.mul */\n      tag_241\n      swap1\n        /* \"Users/leilei/Downloads/MasterChefV2/MasterChefV2.sol\":21570:21601  user.amount.mul(_newMultiplier) */\n      swap2\n      swap1\n      0xffffffff\n      and\n      jump\t// in\n    tag_245:\n        /* \"Users/leilei/Downloads/MasterChefV2/MasterChefV2.sol\":21570:21605  user.amount.mul(_newMultiplier).div */\n      tag_242\n      swap1\n        /* \"Users/leilei/Downloads/MasterChefV2/MasterChefV2.sol\":21570:21622  user.amount.mul(_newMultiplier).div(BOOST_PRECISION) */\n      swap2\n      swap1\n      0xffffffff\n      and\n      jump\t// in\n    tag_244:\n        /* \"Users/leilei/Downloads/MasterChefV2/MasterChefV2.sol\":21472:21552  pool.totalBoostedShare.sub(user.amount.mul(prevMultiplier).div(BOOST_PRECISION)) */\n      tag_246\n        /* \"Users/leilei/Downloads/MasterChefV2/MasterChefV2.sol\":21499:21551  user.amount.mul(prevMultiplier).div(BOOST_PRECISION) */\n      tag_247\n        /* \"Users/leilei/Downloads/MasterChefV2/MasterChefV2.sol\":4239:4249  100 * 1e10 */\n      0xe8d4a51000\n        /* \"Users/leilei/Downloads/MasterChefV2/MasterChefV2.sol\":21499:21530  user.amount.mul(prevMultiplier) */\n      tag_248\n        /* \"Users/leilei/Downloads/MasterChefV2/MasterChefV2.sol\":21515:21529  prevMultiplier */\n      dup7\n        /* \"Users/leilei/Downloads/MasterChefV2/MasterChefV2.sol\":21499:21503  user */\n      dup9\n        /* \"Users/leilei/Downloads/MasterChefV2/MasterChefV2.sol\":21499:21510  user.amount */\n      0x00\n      add\n      sload\n        /* \"Users/leilei/Downloads/MasterChefV2/MasterChefV2.sol\":21499:21514  user.amount.mul */\n      tag_241\n      swap1\n        /* \"Users/leilei/Downloads/MasterChefV2/MasterChefV2.sol\":21499:21530  user.amount.mul(prevMultiplier) */\n      swap2\n      swap1\n      0xffffffff\n      and\n      jump\t// in\n    tag_248:\n        /* \"Users/leilei/Downloads/MasterChefV2/MasterChefV2.sol\":21499:21534  user.amount.mul(prevMultiplier).div */\n      tag_242\n      swap1\n        /* \"Users/leilei/Downloads/MasterChefV2/MasterChefV2.sol\":21499:21551  user.amount.mul(prevMultiplier).div(BOOST_PRECISION) */\n      swap2\n      swap1\n      0xffffffff\n      and\n      jump\t// in\n    tag_247:\n        /* \"Users/leilei/Downloads/MasterChefV2/MasterChefV2.sol\":21472:21476  pool */\n      dup7\n        /* \"Users/leilei/Downloads/MasterChefV2/MasterChefV2.sol\":21472:21494  pool.totalBoostedShare */\n      0x60\n      add\n      mload\n        /* \"Users/leilei/Downloads/MasterChefV2/MasterChefV2.sol\":21472:21498  pool.totalBoostedShare.sub */\n      tag_249\n      swap1\n        /* \"Users/leilei/Downloads/MasterChefV2/MasterChefV2.sol\":21472:21552  pool.totalBoostedShare.sub(user.amount.mul(prevMultiplier).div(BOOST_PRECISION)) */\n      swap2\n      swap1\n      0xffffffff\n      and\n      jump\t// in\n    tag_246:\n        /* \"Users/leilei/Downloads/MasterChefV2/MasterChefV2.sol\":21472:21556  pool.totalBoostedShare.sub(user.amount.mul(prevMultiplier).div(BOOST_PRECISION)).add */\n      tag_250\n      swap1\n        /* \"Users/leilei/Downloads/MasterChefV2/MasterChefV2.sol\":21472:21632  pool.totalBoostedShare.sub(user.amount.mul(prevMultiplier).div(BOOST_PRECISION)).add(... */\n      swap2\n      swap1\n      0xffffffff\n      and\n      jump\t// in\n    tag_243:\n        /* \"Users/leilei/Downloads/MasterChefV2/MasterChefV2.sol\":21447:21451  pool */\n      dup4\n        /* \"Users/leilei/Downloads/MasterChefV2/MasterChefV2.sol\":21447:21469  pool.totalBoostedShare */\n      0x60\n      add\n        /* \"Users/leilei/Downloads/MasterChefV2/MasterChefV2.sol\":21447:21632  pool.totalBoostedShare = pool.totalBoostedShare.sub(user.amount.mul(prevMultiplier).div(BOOST_PRECISION)).add(... */\n      dup2\n      dup2\n      mstore\n      pop\n      pop\n        /* \"Users/leilei/Downloads/MasterChefV2/MasterChefV2.sol\":21659:21663  pool */\n      dup3\n        /* \"Users/leilei/Downloads/MasterChefV2/MasterChefV2.sol\":21642:21650  poolInfo */\n      0x04\n        /* \"Users/leilei/Downloads/MasterChefV2/MasterChefV2.sol\":21651:21655  _pid */\n      dup7\n        /* \"Users/leilei/Downloads/MasterChefV2/MasterChefV2.sol\":21642:21656  poolInfo[_pid] */\n      dup2\n      sload\n      dup2\n      lt\n      tag_251\n      jumpi\n      invalid\n    tag_251:\n      swap1\n      0x00\n      mstore\n      keccak256(0x00, 0x20)\n      swap1\n      0x05\n      mul\n      add\n        /* \"Users/leilei/Downloads/MasterChefV2/MasterChefV2.sol\":21642:21663  poolInfo[_pid] = pool */\n      0x00\n      dup3\n      add\n      mload\n      dup2\n      0x00\n      add\n      sstore\n      0x20\n      dup3\n      add\n      mload\n      dup2\n      0x01\n      add\n      sstore\n      0x40\n      dup3\n      add\n      mload\n      dup2\n      0x02\n      add\n      sstore\n      0x60\n      dup3\n      add\n      mload\n      dup2\n      0x03\n      add\n      sstore\n      0x80\n      dup3\n      add\n      mload\n      dup2\n      0x04\n      add\n      exp(0x0100, 0x00)\n      dup2\n      sload\n      dup2\n      0xff\n      mul\n      not\n      and\n      swap1\n      dup4\n      iszero\n      iszero\n      mul\n      or\n      swap1\n      sstore\n      pop\n      swap1\n      pop\n      pop\n        /* \"Users/leilei/Downloads/MasterChefV2/MasterChefV2.sol\":21713:21727  _newMultiplier */\n      dup4\n        /* \"Users/leilei/Downloads/MasterChefV2/MasterChefV2.sol\":21673:21681  userInfo */\n      0x06\n        /* \"Users/leilei/Downloads/MasterChefV2/MasterChefV2.sol\":21673:21687  userInfo[_pid] */\n      0x00\n        /* \"Users/leilei/Downloads/MasterChefV2/MasterChefV2.sol\":21682:21686  _pid */\n      dup8\n        /* \"Users/leilei/Downloads/MasterChefV2/MasterChefV2.sol\":21673:21687  userInfo[_pid] */\n      dup2\n      mstore\n      0x20\n      add\n      swap1\n      dup2\n      mstore\n      0x20\n      add\n      0x00\n      keccak256\n        /* \"Users/leilei/Downloads/MasterChefV2/MasterChefV2.sol\":21673:21694  userInfo[_pid][_user] */\n      0x00\n        /* \"Users/leilei/Downloads/MasterChefV2/MasterChefV2.sol\":21688:21693  _user */\n      dup9\n        /* \"Users/leilei/Downloads/MasterChefV2/MasterChefV2.sol\":21673:21694  userInfo[_pid][_user] */\n      0xffffffffffffffffffffffffffffffffffffffff\n      and\n      0xffffffffffffffffffffffffffffffffffffffff\n      and\n      dup2\n      mstore\n      0x20\n      add\n      swap1\n      dup2\n      mstore\n      0x20\n      add\n      0x00\n      keccak256\n        /* \"Users/leilei/Downloads/MasterChefV2/MasterChefV2.sol\":21673:21710  userInfo[_pid][_user].boostMultiplier */\n      0x02\n      add\n        /* \"Users/leilei/Downloads/MasterChefV2/MasterChefV2.sol\":21673:21727  userInfo[_pid][_user].boostMultiplier = _newMultiplier */\n      dup2\n      swap1\n      sstore\n      pop\n        /* \"Users/leilei/Downloads/MasterChefV2/MasterChefV2.sol\":21765:21770  _user */\n      dup6\n        /* \"Users/leilei/Downloads/MasterChefV2/MasterChefV2.sol\":21743:21809  UpdateBoostMultiplier(_user, _pid, prevMultiplier, _newMultiplier) */\n      0xffffffffffffffffffffffffffffffffffffffff\n      and\n      0x01abd62439b64f6c5dab6f94d56099495bd0c094f9c21f98f4d3562a21edb4ba\n        /* \"Users/leilei/Downloads/MasterChefV2/MasterChefV2.sol\":21772:21776  _pid */\n      dup7\n        /* \"Users/leilei/Downloads/MasterChefV2/MasterChefV2.sol\":21778:21792  prevMultiplier */\n      dup4\n        /* \"Users/leilei/Downloads/MasterChefV2/MasterChefV2.sol\":21794:21808  _newMultiplier */\n      dup8\n        /* \"Users/leilei/Downloads/MasterChefV2/MasterChefV2.sol\":21743:21809  UpdateBoostMultiplier(_user, _pid, prevMultiplier, _newMultiplier) */\n      mload(0x40)\n      tag_253\n      swap4\n      swap3\n      swap2\n      swap1\n      tag_157\n      jump\t// in\n    tag_253:\n      mload(0x40)\n      dup1\n      swap2\n      sub\n      swap1\n      log2\n        /* \"Users/leilei/Downloads/MasterChefV2/ReentrancyGuard.sol\":2419:2420  _ */\n      pop\n      pop\n      pop\n        /* \"Users/leilei/Downloads/MasterChefV2/ReentrancyGuard.sol\":1628:1629  1 */\n      0x01\n        /* \"Users/leilei/Downloads/MasterChefV2/ReentrancyGuard.sol\":2563:2570  _status */\n      dup1\n        /* \"Users/leilei/Downloads/MasterChefV2/ReentrancyGuard.sol\":2563:2585  _status = _NOT_ENTERED */\n      dup2\n      swap1\n      sstore\n      pop\n        /* \"Users/leilei/Downloads/MasterChefV2/MasterChefV2.sol\":20548:21816  function updateBoostMultiplier(... */\n      pop\n      pop\n      pop\n      jump\t// out\n        /* \"Users/leilei/Downloads/MasterChefV2/MasterChefV2.sol\":7599:7697  function poolLength() public view returns (uint256 pools) {... */\n    tag_64:\n        /* \"Users/leilei/Downloads/MasterChefV2/MasterChefV2.sol\":7642:7655  uint256 pools */\n      0x00\n        /* \"Users/leilei/Downloads/MasterChefV2/MasterChefV2.sol\":7675:7683  poolInfo */\n      0x04\n        /* \"Users/leilei/Downloads/MasterChefV2/MasterChefV2.sol\":7675:7690  poolInfo.length */\n      dup1\n      sload\n      swap1\n      pop\n        /* \"Users/leilei/Downloads/MasterChefV2/MasterChefV2.sol\":7667:7690  pools = poolInfo.length */\n      swap1\n      pop\n        /* \"Users/leilei/Downloads/MasterChefV2/MasterChefV2.sol\":7599:7697  function poolLength() public view returns (uint256 pools) {... */\n      swap1\n      jump\t// out\n        /* \"Users/leilei/Downloads/MasterChefV2/MasterChefV2.sol\":18980:19374  function updateBurnAdmin(address _newAdmin) external onlyOwner {... */\n    tag_69:\n        /* \"Users/leilei/Downloads/MasterChefV2/Ownable.sol\":1275:1287  _msgSender() */\n      tag_256\n        /* \"Users/leilei/Downloads/MasterChefV2/Ownable.sol\":1275:1285  _msgSender */\n      tag_257\n        /* \"Users/leilei/Downloads/MasterChefV2/Ownable.sol\":1275:1287  _msgSender() */\n      jump\t// in\n    tag_256:\n        /* \"Users/leilei/Downloads/MasterChefV2/Ownable.sol\":1265:1287  _owner == _msgSender() */\n      0xffffffffffffffffffffffffffffffffffffffff\n      and\n        /* \"Users/leilei/Downloads/MasterChefV2/Ownable.sol\":1265:1271  _owner */\n      0x00\n      dup1\n      sload\n      swap1\n      0x0100\n      exp\n      swap1\n      div\n      0xffffffffffffffffffffffffffffffffffffffff\n      and\n        /* \"Users/leilei/Downloads/MasterChefV2/Ownable.sol\":1265:1287  _owner == _msgSender() */\n      0xffffffffffffffffffffffffffffffffffffffff\n      and\n      eq\n        /* \"Users/leilei/Downloads/MasterChefV2/Ownable.sol\":1257:1324  require(_owner == _msgSender(), \"Ownable: caller is not the owner\") */\n      tag_258\n      jumpi\n      mload(0x40)\n      0x08c379a000000000000000000000000000000000000000000000000000000000\n      dup2\n      mstore\n      0x04\n      add\n      tag_259\n      swap1\n      tag_260\n      jump\t// in\n    tag_259:\n      mload(0x40)\n      dup1\n      swap2\n      sub\n      swap1\n      revert\n    tag_258:\n        /* \"Users/leilei/Downloads/MasterChefV2/MasterChefV2.sol\":19082:19083  0 */\n      0x00\n        /* \"Users/leilei/Downloads/MasterChefV2/MasterChefV2.sol\":19061:19084  _newAdmin != address(0) */\n      0xffffffffffffffffffffffffffffffffffffffff\n      and\n        /* \"Users/leilei/Downloads/MasterChefV2/MasterChefV2.sol\":19061:19070  _newAdmin */\n      dup2\n        /* \"Users/leilei/Downloads/MasterChefV2/MasterChefV2.sol\":19061:19084  _newAdmin != address(0) */\n      0xffffffffffffffffffffffffffffffffffffffff\n      and\n      eq\n      iszero\n        /* \"Users/leilei/Downloads/MasterChefV2/MasterChefV2.sol\":19053:19135  require(_newAdmin != address(0), \"MasterChefV2: Burn admin address must be valid\") */\n      tag_262\n      jumpi\n      mload(0x40)\n      0x08c379a000000000000000000000000000000000000000000000000000000000\n      dup2\n      mstore\n      0x04\n      add\n      tag_263\n      swap1\n      tag_264\n      jump\t// in\n    tag_263:\n      mload(0x40)\n      dup1\n      swap2\n      sub\n      swap1\n      revert\n    tag_262:\n        /* \"Users/leilei/Downloads/MasterChefV2/MasterChefV2.sol\":19166:19175  burnAdmin */\n      0x02\n      0x00\n      swap1\n      sload\n      swap1\n      0x0100\n      exp\n      swap1\n      div\n      0xffffffffffffffffffffffffffffffffffffffff\n      and\n        /* \"Users/leilei/Downloads/MasterChefV2/MasterChefV2.sol\":19153:19175  _newAdmin != burnAdmin */\n      0xffffffffffffffffffffffffffffffffffffffff\n      and\n        /* \"Users/leilei/Downloads/MasterChefV2/MasterChefV2.sol\":19153:19162  _newAdmin */\n      dup2\n        /* \"Users/leilei/Downloads/MasterChefV2/MasterChefV2.sol\":19153:19175  _newAdmin != burnAdmin */\n      0xffffffffffffffffffffffffffffffffffffffff\n      and\n      eq\n      iszero\n        /* \"Users/leilei/Downloads/MasterChefV2/MasterChefV2.sol\":19145:19245  require(_newAdmin != burnAdmin, \"MasterChefV2: Burn admin address is the same with current address\") */\n      tag_265\n      jumpi\n      mload(0x40)\n      0x08c379a000000000000000000000000000000000000000000000000000000000\n      dup2\n      mstore\n      0x04\n      add\n      tag_266\n      swap1\n      tag_267\n      jump\t// in\n    tag_266:\n      mload(0x40)\n      dup1\n      swap2\n      sub\n      swap1\n      revert\n    tag_265:\n        /* \"Users/leilei/Downloads/MasterChefV2/MasterChefV2.sol\":19255:19272  address _oldAdmin */\n      0x00\n        /* \"Users/leilei/Downloads/MasterChefV2/MasterChefV2.sol\":19275:19284  burnAdmin */\n      0x02\n      0x00\n      swap1\n      sload\n      swap1\n      0x0100\n      exp\n      swap1\n      div\n      0xffffffffffffffffffffffffffffffffffffffff\n      and\n        /* \"Users/leilei/Downloads/MasterChefV2/MasterChefV2.sol\":19255:19284  address _oldAdmin = burnAdmin */\n      swap1\n      pop\n        /* \"Users/leilei/Downloads/MasterChefV2/MasterChefV2.sol\":19306:19315  _newAdmin */\n      dup2\n        /* \"Users/leilei/Downloads/MasterChefV2/MasterChefV2.sol\":19294:19303  burnAdmin */\n      0x02\n      0x00\n        /* \"Users/leilei/Downloads/MasterChefV2/MasterChefV2.sol\":19294:19315  burnAdmin = _newAdmin */\n      0x0100\n      exp\n      dup2\n      sload\n      dup2\n      0xffffffffffffffffffffffffffffffffffffffff\n      mul\n      not\n      and\n      swap1\n      dup4\n      0xffffffffffffffffffffffffffffffffffffffff\n      and\n      mul\n      or\n      swap1\n      sstore\n      pop\n        /* \"Users/leilei/Downloads/MasterChefV2/MasterChefV2.sol\":19357:19366  _newAdmin */\n      dup2\n        /* \"Users/leilei/Downloads/MasterChefV2/MasterChefV2.sol\":19330:19367  UpdateBurnAdmin(_oldAdmin, _newAdmin) */\n      0xffffffffffffffffffffffffffffffffffffffff\n      and\n        /* \"Users/leilei/Downloads/MasterChefV2/MasterChefV2.sol\":19346:19355  _oldAdmin */\n      dup2\n        /* \"Users/leilei/Downloads/MasterChefV2/MasterChefV2.sol\":19330:19367  UpdateBurnAdmin(_oldAdmin, _newAdmin) */\n      0xffffffffffffffffffffffffffffffffffffffff\n      and\n      0xd146fe330fdddf682413850a35b28edfccd4c4b53cfee802fd24950de5be1dbe\n      mload(0x40)\n      mload(0x40)\n      dup1\n      swap2\n      sub\n      swap1\n      log3\n        /* \"Users/leilei/Downloads/MasterChefV2/Ownable.sol\":1334:1335  _ */\n      pop\n        /* \"Users/leilei/Downloads/MasterChefV2/MasterChefV2.sol\":18980:19374  function updateBurnAdmin(address _newAdmin) external onlyOwner {... */\n      pop\n      jump\t// out\n        /* \"Users/leilei/Downloads/MasterChefV2/MasterChefV2.sol\":10496:11449  function pendingCake(uint256 _pid, address _user) external view returns (uint256) {... */\n    tag_73:\n        /* \"Users/leilei/Downloads/MasterChefV2/MasterChefV2.sol\":10569:10576  uint256 */\n      0x00\n        /* \"Users/leilei/Downloads/MasterChefV2/MasterChefV2.sol\":10588:10608  PoolInfo memory pool */\n      tag_269\n      tag_232\n      jump\t// in\n    tag_269:\n        /* \"Users/leilei/Downloads/MasterChefV2/MasterChefV2.sol\":10611:10619  poolInfo */\n      0x04\n        /* \"Users/leilei/Downloads/MasterChefV2/MasterChefV2.sol\":10620:10624  _pid */\n      dup5\n        /* \"Users/leilei/Downloads/MasterChefV2/MasterChefV2.sol\":10611:10625  poolInfo[_pid] */\n      dup2\n      sload\n      dup2\n      lt\n      tag_270\n      jumpi\n      invalid\n    tag_270:\n      swap1\n      0x00\n      mstore\n      keccak256(0x00, 0x20)\n      swap1\n      0x05\n      mul\n      add\n        /* \"Users/leilei/Downloads/MasterChefV2/MasterChefV2.sol\":10588:10625  PoolInfo memory pool = poolInfo[_pid] */\n      mload(0x40)\n      dup1\n      0xa0\n      add\n      0x40\n      mstore\n      swap1\n      dup2\n      0x00\n      dup3\n      add\n      sload\n      dup2\n      mstore\n      0x20\n      add\n      0x01\n      dup3\n      add\n      sload\n      dup2\n      mstore\n      0x20\n      add\n      0x02\n      dup3\n      add\n      sload\n      dup2\n      mstore\n      0x20\n      add\n      0x03\n      dup3\n      add\n      sload\n      dup2\n      mstore\n      0x20\n      add\n      0x04\n      dup3\n      add\n      0x00\n      swap1\n      sload\n      swap1\n      0x0100\n      exp\n      swap1\n      div\n      0xff\n      and\n      iszero\n      iszero\n      iszero\n      iszero\n      dup2\n      mstore\n      pop\n      pop\n      swap1\n      pop\n        /* \"Users/leilei/Downloads/MasterChefV2/MasterChefV2.sol\":10635:10655  UserInfo memory user */\n      tag_272\n      tag_273\n      jump\t// in\n    tag_272:\n        /* \"Users/leilei/Downloads/MasterChefV2/MasterChefV2.sol\":10658:10666  userInfo */\n      0x06\n        /* \"Users/leilei/Downloads/MasterChefV2/MasterChefV2.sol\":10658:10672  userInfo[_pid] */\n      0x00\n        /* \"Users/leilei/Downloads/MasterChefV2/MasterChefV2.sol\":10667:10671  _pid */\n      dup7\n        /* \"Users/leilei/Downloads/MasterChefV2/MasterChefV2.sol\":10658:10672  userInfo[_pid] */\n      dup2\n      mstore\n      0x20\n      add\n      swap1\n      dup2\n      mstore\n      0x20\n      add\n      0x00\n      keccak256\n        /* \"Users/leilei/Downloads/MasterChefV2/MasterChefV2.sol\":10658:10679  userInfo[_pid][_user] */\n      0x00\n        /* \"Users/leilei/Downloads/MasterChefV2/MasterChefV2.sol\":10673:10678  _user */\n      dup6\n        /* \"Users/leilei/Downloads/MasterChefV2/MasterChefV2.sol\":10658:10679  userInfo[_pid][_user] */\n      0xffffffffffffffffffffffffffffffffffffffff\n      and\n      0xffffffffffffffffffffffffffffffffffffffff\n      and\n      dup2\n      mstore\n      0x20\n      add\n      swap1\n      dup2\n      mstore\n      0x20\n      add\n      0x00\n      keccak256\n        /* \"Users/leilei/Downloads/MasterChefV2/MasterChefV2.sol\":10635:10679  UserInfo memory user = userInfo[_pid][_user] */\n      mload(0x40)\n      dup1\n      0x60\n      add\n      0x40\n      mstore\n      swap1\n      dup2\n      0x00\n      dup3\n      add\n      sload\n      dup2\n      mstore\n      0x20\n      add\n      0x01\n      dup3\n      add\n      sload\n      dup2\n      mstore\n      0x20\n      add\n      0x02\n      dup3\n      add\n      sload\n      dup2\n      mstore\n      pop\n      pop\n      swap1\n      pop\n        /* \"Users/leilei/Downloads/MasterChefV2/MasterChefV2.sol\":10689:10712  uint256 accCakePerShare */\n      0x00\n        /* \"Users/leilei/Downloads/MasterChefV2/MasterChefV2.sol\":10715:10719  pool */\n      dup3\n        /* \"Users/leilei/Downloads/MasterChefV2/MasterChefV2.sol\":10715:10735  pool.accCakePerShare */\n      0x00\n      add\n      mload\n        /* \"Users/leilei/Downloads/MasterChefV2/MasterChefV2.sol\":10689:10735  uint256 accCakePerShare = pool.accCakePerShare */\n      swap1\n      pop\n        /* \"Users/leilei/Downloads/MasterChefV2/MasterChefV2.sol\":10745:10761  uint256 lpSupply */\n      0x00\n        /* \"Users/leilei/Downloads/MasterChefV2/MasterChefV2.sol\":10764:10768  pool */\n      dup4\n        /* \"Users/leilei/Downloads/MasterChefV2/MasterChefV2.sol\":10764:10786  pool.totalBoostedShare */\n      0x60\n      add\n      mload\n        /* \"Users/leilei/Downloads/MasterChefV2/MasterChefV2.sol\":10745:10786  uint256 lpSupply = pool.totalBoostedShare */\n      swap1\n      pop\n        /* \"Users/leilei/Downloads/MasterChefV2/MasterChefV2.sol\":10816:10820  pool */\n      dup4\n        /* \"Users/leilei/Downloads/MasterChefV2/MasterChefV2.sol\":10816:10836  pool.lastRewardBlock */\n      0x20\n      add\n      mload\n        /* \"Users/leilei/Downloads/MasterChefV2/MasterChefV2.sol\":10801:10813  block.number */\n      number\n        /* \"Users/leilei/Downloads/MasterChefV2/MasterChefV2.sol\":10801:10836  block.number > pool.lastRewardBlock */\n      gt\n        /* \"Users/leilei/Downloads/MasterChefV2/MasterChefV2.sol\":10801:10853  block.number > pool.lastRewardBlock && lpSupply != 0 */\n      dup1\n      iszero\n      tag_274\n      jumpi\n      pop\n        /* \"Users/leilei/Downloads/MasterChefV2/MasterChefV2.sol\":10852:10853  0 */\n      0x00\n        /* \"Users/leilei/Downloads/MasterChefV2/MasterChefV2.sol\":10840:10848  lpSupply */\n      dup2\n        /* \"Users/leilei/Downloads/MasterChefV2/MasterChefV2.sol\":10840:10853  lpSupply != 0 */\n      eq\n      iszero\n        /* \"Users/leilei/Downloads/MasterChefV2/MasterChefV2.sol\":10801:10853  block.number > pool.lastRewardBlock && lpSupply != 0 */\n    tag_274:\n        /* \"Users/leilei/Downloads/MasterChefV2/MasterChefV2.sol\":10797:11243  if (block.number > pool.lastRewardBlock && lpSupply != 0) {... */\n      iszero\n      tag_275\n      jumpi\n        /* \"Users/leilei/Downloads/MasterChefV2/MasterChefV2.sol\":10869:10887  uint256 multiplier */\n      0x00\n        /* \"Users/leilei/Downloads/MasterChefV2/MasterChefV2.sol\":10890:10928  block.number.sub(pool.lastRewardBlock) */\n      tag_276\n        /* \"Users/leilei/Downloads/MasterChefV2/MasterChefV2.sol\":10907:10911  pool */\n      dup6\n        /* \"Users/leilei/Downloads/MasterChefV2/MasterChefV2.sol\":10907:10927  pool.lastRewardBlock */\n      0x20\n      add\n      mload\n        /* \"Users/leilei/Downloads/MasterChefV2/MasterChefV2.sol\":10890:10902  block.number */\n      number\n        /* \"Users/leilei/Downloads/MasterChefV2/MasterChefV2.sol\":10890:10906  block.number.sub */\n      tag_249\n      swap1\n        /* \"Users/leilei/Downloads/MasterChefV2/MasterChefV2.sol\":10890:10928  block.number.sub(pool.lastRewardBlock) */\n      swap2\n      swap1\n      0xffffffff\n      and\n      jump\t// in\n    tag_276:\n        /* \"Users/leilei/Downloads/MasterChefV2/MasterChefV2.sol\":10869:10928  uint256 multiplier = block.number.sub(pool.lastRewardBlock) */\n      swap1\n      pop\n        /* \"Users/leilei/Downloads/MasterChefV2/MasterChefV2.sol\":10943:10961  uint256 cakeReward */\n      0x00\n        /* \"Users/leilei/Downloads/MasterChefV2/MasterChefV2.sol\":10964:11131  multiplier.mul(cakePerBlock(pool.isRegular)).mul(pool.allocPoint).div(... */\n      tag_277\n        /* \"Users/leilei/Downloads/MasterChefV2/MasterChefV2.sol\":11052:11056  pool */\n      dup7\n        /* \"Users/leilei/Downloads/MasterChefV2/MasterChefV2.sol\":11052:11066  pool.isRegular */\n      0x80\n      add\n      mload\n        /* \"Users/leilei/Downloads/MasterChefV2/MasterChefV2.sol\":11052:11116  pool.isRegular ? totalRegularAllocPoint : totalSpecialAllocPoint */\n      tag_278\n      jumpi\n        /* \"Users/leilei/Downloads/MasterChefV2/MasterChefV2.sol\":11094:11116  totalSpecialAllocPoint */\n      sload(0x09)\n        /* \"Users/leilei/Downloads/MasterChefV2/MasterChefV2.sol\":11052:11116  pool.isRegular ? totalRegularAllocPoint : totalSpecialAllocPoint */\n      jump(tag_279)\n    tag_278:\n        /* \"Users/leilei/Downloads/MasterChefV2/MasterChefV2.sol\":11069:11091  totalRegularAllocPoint */\n      sload(0x08)\n        /* \"Users/leilei/Downloads/MasterChefV2/MasterChefV2.sol\":11052:11116  pool.isRegular ? totalRegularAllocPoint : totalSpecialAllocPoint */\n    tag_279:\n        /* \"Users/leilei/Downloads/MasterChefV2/MasterChefV2.sol\":10964:11029  multiplier.mul(cakePerBlock(pool.isRegular)).mul(pool.allocPoint) */\n      tag_280\n        /* \"Users/leilei/Downloads/MasterChefV2/MasterChefV2.sol\":11013:11017  pool */\n      dup9\n        /* \"Users/leilei/Downloads/MasterChefV2/MasterChefV2.sol\":11013:11028  pool.allocPoint */\n      0x40\n      add\n      mload\n        /* \"Users/leilei/Downloads/MasterChefV2/MasterChefV2.sol\":10964:11008  multiplier.mul(cakePerBlock(pool.isRegular)) */\n      tag_281\n        /* \"Users/leilei/Downloads/MasterChefV2/MasterChefV2.sol\":10979:11007  cakePerBlock(pool.isRegular) */\n      tag_282\n        /* \"Users/leilei/Downloads/MasterChefV2/MasterChefV2.sol\":10992:10996  pool */\n      dup12\n        /* \"Users/leilei/Downloads/MasterChefV2/MasterChefV2.sol\":10992:11006  pool.isRegular */\n      0x80\n      add\n      mload\n        /* \"Users/leilei/Downloads/MasterChefV2/MasterChefV2.sol\":10979:10991  cakePerBlock */\n      tag_91\n        /* \"Users/leilei/Downloads/MasterChefV2/MasterChefV2.sol\":10979:11007  cakePerBlock(pool.isRegular) */\n      jump\t// in\n    tag_282:\n        /* \"Users/leilei/Downloads/MasterChefV2/MasterChefV2.sol\":10964:10974  multiplier */\n      dup8\n        /* \"Users/leilei/Downloads/MasterChefV2/MasterChefV2.sol\":10964:10978  multiplier.mul */\n      tag_241\n      swap1\n        /* \"Users/leilei/Downloads/MasterChefV2/MasterChefV2.sol\":10964:11008  multiplier.mul(cakePerBlock(pool.isRegular)) */\n      swap2\n      swap1\n      0xffffffff\n      and\n      jump\t// in\n    tag_281:\n        /* \"Users/leilei/Downloads/MasterChefV2/MasterChefV2.sol\":10964:11012  multiplier.mul(cakePerBlock(pool.isRegular)).mul */\n      tag_241\n      swap1\n        /* \"Users/leilei/Downloads/MasterChefV2/MasterChefV2.sol\":10964:11029  multiplier.mul(cakePerBlock(pool.isRegular)).mul(pool.allocPoint) */\n      swap2\n      swap1\n      0xffffffff\n      and\n      jump\t// in\n    tag_280:\n        /* \"Users/leilei/Downloads/MasterChefV2/MasterChefV2.sol\":10964:11033  multiplier.mul(cakePerBlock(pool.isRegular)).mul(pool.allocPoint).div */\n      tag_242\n      swap1\n        /* \"Users/leilei/Downloads/MasterChefV2/MasterChefV2.sol\":10964:11131  multiplier.mul(cakePerBlock(pool.isRegular)).mul(pool.allocPoint).div(... */\n      swap2\n      swap1\n      0xffffffff\n      and\n      jump\t// in\n    tag_277:\n        /* \"Users/leilei/Downloads/MasterChefV2/MasterChefV2.sol\":10943:11131  uint256 cakeReward = multiplier.mul(cakePerBlock(pool.isRegular)).mul(pool.allocPoint).div(... */\n      swap1\n      pop\n        /* \"Users/leilei/Downloads/MasterChefV2/MasterChefV2.sol\":11163:11232  accCakePerShare.add(cakeReward.mul(ACC_CAKE_PRECISION).div(lpSupply)) */\n      tag_283\n        /* \"Users/leilei/Downloads/MasterChefV2/MasterChefV2.sol\":11183:11231  cakeReward.mul(ACC_CAKE_PRECISION).div(lpSupply) */\n      tag_284\n        /* \"Users/leilei/Downloads/MasterChefV2/MasterChefV2.sol\":11222:11230  lpSupply */\n      dup5\n        /* \"Users/leilei/Downloads/MasterChefV2/MasterChefV2.sol\":11183:11217  cakeReward.mul(ACC_CAKE_PRECISION) */\n      tag_285\n        /* \"Users/leilei/Downloads/MasterChefV2/MasterChefV2.sol\":4117:4121  1e18 */\n      0x0de0b6b3a7640000\n        /* \"Users/leilei/Downloads/MasterChefV2/MasterChefV2.sol\":11183:11193  cakeReward */\n      dup6\n        /* \"Users/leilei/Downloads/MasterChefV2/MasterChefV2.sol\":11183:11197  cakeReward.mul */\n      tag_241\n      swap1\n        /* \"Users/leilei/Downloads/MasterChefV2/MasterChefV2.sol\":11183:11217  cakeReward.mul(ACC_CAKE_PRECISION) */\n      swap2\n      swap1\n      0xffffffff\n      and\n      jump\t// in\n    tag_285:\n        /* \"Users/leilei/Downloads/MasterChefV2/MasterChefV2.sol\":11183:11221  cakeReward.mul(ACC_CAKE_PRECISION).div */\n      tag_242\n      swap1\n        /* \"Users/leilei/Downloads/MasterChefV2/MasterChefV2.sol\":11183:11231  cakeReward.mul(ACC_CAKE_PRECISION).div(lpSupply) */\n      swap2\n      swap1\n      0xffffffff\n      and\n      jump\t// in\n    tag_284:\n        /* \"Users/leilei/Downloads/MasterChefV2/MasterChefV2.sol\":11163:11178  accCakePerShare */\n      dup6\n        /* \"Users/leilei/Downloads/MasterChefV2/MasterChefV2.sol\":11163:11182  accCakePerShare.add */\n      tag_250\n      swap1\n        /* \"Users/leilei/Downloads/MasterChefV2/MasterChefV2.sol\":11163:11232  accCakePerShare.add(cakeReward.mul(ACC_CAKE_PRECISION).div(lpSupply)) */\n      swap2\n      swap1\n      0xffffffff\n      and\n      jump\t// in\n    tag_283:\n        /* \"Users/leilei/Downloads/MasterChefV2/MasterChefV2.sol\":11145:11232  accCakePerShare = accCakePerShare.add(cakeReward.mul(ACC_CAKE_PRECISION).div(lpSupply)) */\n      swap4\n      pop\n        /* \"Users/leilei/Downloads/MasterChefV2/MasterChefV2.sol\":10797:11243  if (block.number > pool.lastRewardBlock && lpSupply != 0) {... */\n      pop\n      pop\n    tag_275:\n        /* \"Users/leilei/Downloads/MasterChefV2/MasterChefV2.sol\":11253:11274  uint256 boostedAmount */\n      0x00\n        /* \"Users/leilei/Downloads/MasterChefV2/MasterChefV2.sol\":11277:11346  user.amount.mul(getBoostMultiplier(_user, _pid)).div(BOOST_PRECISION) */\n      tag_286\n        /* \"Users/leilei/Downloads/MasterChefV2/MasterChefV2.sol\":4239:4249  100 * 1e10 */\n      0xe8d4a51000\n        /* \"Users/leilei/Downloads/MasterChefV2/MasterChefV2.sol\":11277:11325  user.amount.mul(getBoostMultiplier(_user, _pid)) */\n      tag_287\n        /* \"Users/leilei/Downloads/MasterChefV2/MasterChefV2.sol\":11293:11324  getBoostMultiplier(_user, _pid) */\n      tag_288\n        /* \"Users/leilei/Downloads/MasterChefV2/MasterChefV2.sol\":11312:11317  _user */\n      dup11\n        /* \"Users/leilei/Downloads/MasterChefV2/MasterChefV2.sol\":11319:11323  _pid */\n      dup13\n        /* \"Users/leilei/Downloads/MasterChefV2/MasterChefV2.sol\":11293:11311  getBoostMultiplier */\n      tag_56\n        /* \"Users/leilei/Downloads/MasterChefV2/MasterChefV2.sol\":11293:11324  getBoostMultiplier(_user, _pid) */\n      jump\t// in\n    tag_288:\n        /* \"Users/leilei/Downloads/MasterChefV2/MasterChefV2.sol\":11277:11281  user */\n      dup8\n        /* \"Users/leilei/Downloads/MasterChefV2/MasterChefV2.sol\":11277:11288  user.amount */\n      0x00\n      add\n      mload\n        /* \"Users/leilei/Downloads/MasterChefV2/MasterChefV2.sol\":11277:11292  user.amount.mul */\n      tag_241\n      swap1\n        /* \"Users/leilei/Downloads/MasterChefV2/MasterChefV2.sol\":11277:11325  user.amount.mul(getBoostMultiplier(_user, _pid)) */\n      swap2\n      swap1\n      0xffffffff\n      and\n      jump\t// in\n    tag_287:\n        /* \"Users/leilei/Downloads/MasterChefV2/MasterChefV2.sol\":11277:11329  user.amount.mul(getBoostMultiplier(_user, _pid)).div */\n      tag_242\n      swap1\n        /* \"Users/leilei/Downloads/MasterChefV2/MasterChefV2.sol\":11277:11346  user.amount.mul(getBoostMultiplier(_user, _pid)).div(BOOST_PRECISION) */\n      swap2\n      swap1\n      0xffffffff\n      and\n      jump\t// in\n    tag_286:\n        /* \"Users/leilei/Downloads/MasterChefV2/MasterChefV2.sol\":11253:11346  uint256 boostedAmount = user.amount.mul(getBoostMultiplier(_user, _pid)).div(BOOST_PRECISION) */\n      swap1\n      pop\n        /* \"Users/leilei/Downloads/MasterChefV2/MasterChefV2.sol\":11363:11442  boostedAmount.mul(accCakePerShare).div(ACC_CAKE_PRECISION).sub(user.rewardDebt) */\n      tag_289\n        /* \"Users/leilei/Downloads/MasterChefV2/MasterChefV2.sol\":11426:11430  user */\n      dup5\n        /* \"Users/leilei/Downloads/MasterChefV2/MasterChefV2.sol\":11426:11441  user.rewardDebt */\n      0x20\n      add\n      mload\n        /* \"Users/leilei/Downloads/MasterChefV2/MasterChefV2.sol\":11363:11421  boostedAmount.mul(accCakePerShare).div(ACC_CAKE_PRECISION) */\n      tag_290\n        /* \"Users/leilei/Downloads/MasterChefV2/MasterChefV2.sol\":4117:4121  1e18 */\n      0x0de0b6b3a7640000\n        /* \"Users/leilei/Downloads/MasterChefV2/MasterChefV2.sol\":11363:11397  boostedAmount.mul(accCakePerShare) */\n      tag_291\n        /* \"Users/leilei/Downloads/MasterChefV2/MasterChefV2.sol\":11381:11396  accCakePerShare */\n      dup8\n        /* \"Users/leilei/Downloads/MasterChefV2/MasterChefV2.sol\":11363:11376  boostedAmount */\n      dup7\n        /* \"Users/leilei/Downloads/MasterChefV2/MasterChefV2.sol\":11363:11380  boostedAmount.mul */\n      tag_241\n      swap1\n        /* \"Users/leilei/Downloads/MasterChefV2/MasterChefV2.sol\":11363:11397  boostedAmount.mul(accCakePerShare) */\n      swap2\n      swap1\n      0xffffffff\n      and\n      jump\t// in\n    tag_291:\n        /* \"Users/leilei/Downloads/MasterChefV2/MasterChefV2.sol\":11363:11401  boostedAmount.mul(accCakePerShare).div */\n      tag_242\n      swap1\n        /* \"Users/leilei/Downloads/MasterChefV2/MasterChefV2.sol\":11363:11421  boostedAmount.mul(accCakePerShare).div(ACC_CAKE_PRECISION) */\n      swap2\n      swap1\n      0xffffffff\n      and\n      jump\t// in\n    tag_290:\n        /* \"Users/leilei/Downloads/MasterChefV2/MasterChefV2.sol\":11363:11425  boostedAmount.mul(accCakePerShare).div(ACC_CAKE_PRECISION).sub */\n      tag_249\n      swap1\n        /* \"Users/leilei/Downloads/MasterChefV2/MasterChefV2.sol\":11363:11442  boostedAmount.mul(accCakePerShare).div(ACC_CAKE_PRECISION).sub(user.rewardDebt) */\n      swap2\n      swap1\n      0xffffffff\n      and\n      jump\t// in\n    tag_289:\n        /* \"Users/leilei/Downloads/MasterChefV2/MasterChefV2.sol\":11356:11442  return boostedAmount.mul(accCakePerShare).div(ACC_CAKE_PRECISION).sub(user.rewardDebt) */\n      swap6\n      pop\n      pop\n      pop\n      pop\n      pop\n      pop\n        /* \"Users/leilei/Downloads/MasterChefV2/MasterChefV2.sol\":10496:11449  function pendingCake(uint256 _pid, address _user) external view returns (uint256) {... */\n      swap3\n      swap2\n      pop\n      pop\n      jump\t// out\n        /* \"Users/leilei/Downloads/MasterChefV2/MasterChefV2.sol\":3197:3223  PoolInfo[] public poolInfo */\n    tag_78:\n      0x04\n      dup2\n      dup2\n      sload\n      dup2\n      lt\n      tag_292\n      jumpi\n      invalid\n    tag_292:\n      swap1\n      0x00\n      mstore\n      keccak256(0x00, 0x20)\n      swap1\n      0x05\n      mul\n      add\n      0x00\n      swap2\n      pop\n      swap1\n      pop\n      dup1\n      0x00\n      add\n      sload\n      swap1\n      dup1\n      0x01\n      add\n      sload\n      swap1\n      dup1\n      0x02\n      add\n      sload\n      swap1\n      dup1\n      0x03\n      add\n      sload\n      swap1\n      dup1\n      0x04\n      add\n      0x00\n      swap1\n      sload\n      swap1\n      0x0100\n      exp\n      swap1\n      div\n      0xff\n      and\n      swap1\n      pop\n      dup6\n      jump\t// out\n        /* \"Users/leilei/Downloads/MasterChefV2/MasterChefV2.sol\":7037:7543  function init(IBEP20 dummyToken) external onlyOwner {... */\n    tag_84:\n        /* \"Users/leilei/Downloads/MasterChefV2/Ownable.sol\":1275:1287  _msgSender() */\n      tag_295\n        /* \"Users/leilei/Downloads/MasterChefV2/Ownable.sol\":1275:1285  _msgSender */\n      tag_257\n        /* \"Users/leilei/Downloads/MasterChefV2/Ownable.sol\":1275:1287  _msgSender() */\n      jump\t// in\n    tag_295:\n        /* \"Users/leilei/Downloads/MasterChefV2/Ownable.sol\":1265:1287  _owner == _msgSender() */\n      0xffffffffffffffffffffffffffffffffffffffff\n      and\n        /* \"Users/leilei/Downloads/MasterChefV2/Ownable.sol\":1265:1271  _owner */\n      0x00\n      dup1\n      sload\n      swap1\n      0x0100\n      exp\n      swap1\n      div\n      0xffffffffffffffffffffffffffffffffffffffff\n      and\n        /* \"Users/leilei/Downloads/MasterChefV2/Ownable.sol\":1265:1287  _owner == _msgSender() */\n      0xffffffffffffffffffffffffffffffffffffffff\n      and\n      eq\n        /* \"Users/leilei/Downloads/MasterChefV2/Ownable.sol\":1257:1324  require(_owner == _msgSender(), \"Ownable: caller is not the owner\") */\n      tag_296\n      jumpi\n      mload(0x40)\n      0x08c379a000000000000000000000000000000000000000000000000000000000\n      dup2\n      mstore\n      0x04\n      add\n      tag_297\n      swap1\n      tag_260\n      jump\t// in\n    tag_297:\n      mload(0x40)\n      dup1\n      swap2\n      sub\n      swap1\n      revert\n    tag_296:\n        /* \"Users/leilei/Downloads/MasterChefV2/MasterChefV2.sol\":7099:7114  uint256 balance */\n      0x00\n        /* \"Users/leilei/Downloads/MasterChefV2/MasterChefV2.sol\":7117:7127  dummyToken */\n      dup2\n        /* \"Users/leilei/Downloads/MasterChefV2/MasterChefV2.sol\":7117:7137  dummyToken.balanceOf */\n      0xffffffffffffffffffffffffffffffffffffffff\n      and\n      0x70a08231\n        /* \"Users/leilei/Downloads/MasterChefV2/MasterChefV2.sol\":7138:7148  msg.sender */\n      caller\n        /* \"Users/leilei/Downloads/MasterChefV2/MasterChefV2.sol\":7117:7149  dummyToken.balanceOf(msg.sender) */\n      mload(0x40)\n      dup3\n      0xffffffff\n      and\n      0xe0\n      shl\n      dup2\n      mstore\n      0x04\n      add\n      tag_299\n      swap2\n      swap1\n      tag_300\n      jump\t// in\n    tag_299:\n      0x20\n      mload(0x40)\n      dup1\n      dup4\n      sub\n      dup2\n      dup7\n      dup1\n      extcodesize\n      iszero\n      dup1\n      iszero\n      tag_301\n      jumpi\n      0x00\n      dup1\n      revert\n    tag_301:\n      pop\n      gas\n      staticcall\n      iszero\n      dup1\n      iszero\n      tag_303\n      jumpi\n      returndatasize\n      0x00\n      dup1\n      returndatacopy\n      revert(0x00, returndatasize)\n    tag_303:\n      pop\n      pop\n      pop\n      pop\n      mload(0x40)\n      returndatasize\n      not(0x1f)\n      0x1f\n      dup3\n      add\n      and\n      dup3\n      add\n      dup1\n      0x40\n      mstore\n      pop\n      dup2\n      add\n      swap1\n      tag_304\n      swap2\n      swap1\n      tag_305\n      jump\t// in\n    tag_304:\n        /* \"Users/leilei/Downloads/MasterChefV2/MasterChefV2.sol\":7099:7149  uint256 balance = dummyToken.balanceOf(msg.sender) */\n      swap1\n      pop\n        /* \"Users/leilei/Downloads/MasterChefV2/MasterChefV2.sol\":7178:7179  0 */\n      0x00\n        /* \"Users/leilei/Downloads/MasterChefV2/MasterChefV2.sol\":7167:7174  balance */\n      dup2\n        /* \"Users/leilei/Downloads/MasterChefV2/MasterChefV2.sol\":7167:7179  balance != 0 */\n      eq\n      iszero\n        /* \"Users/leilei/Downloads/MasterChefV2/MasterChefV2.sol\":7159:7219  require(balance != 0, \"MasterChefV2: Balance must exceed 0\") */\n      tag_306\n      jumpi\n      mload(0x40)\n      0x08c379a000000000000000000000000000000000000000000000000000000000\n      dup2\n      mstore\n      0x04\n      add\n      tag_307\n      swap1\n      tag_308\n      jump\t// in\n    tag_307:\n      mload(0x40)\n      dup1\n      swap2\n      sub\n      swap1\n      revert\n    tag_306:\n        /* \"Users/leilei/Downloads/MasterChefV2/MasterChefV2.sol\":7229:7292  dummyToken.safeTransferFrom(msg.sender, address(this), balance) */\n      tag_309\n        /* \"Users/leilei/Downloads/MasterChefV2/MasterChefV2.sol\":7257:7267  msg.sender */\n      caller\n        /* \"Users/leilei/Downloads/MasterChefV2/MasterChefV2.sol\":7277:7281  this */\n      address\n        /* \"Users/leilei/Downloads/MasterChefV2/MasterChefV2.sol\":7284:7291  balance */\n      dup4\n        /* \"Users/leilei/Downloads/MasterChefV2/MasterChefV2.sol\":7229:7239  dummyToken */\n      dup6\n        /* \"Users/leilei/Downloads/MasterChefV2/MasterChefV2.sol\":7229:7256  dummyToken.safeTransferFrom */\n      0xffffffffffffffffffffffffffffffffffffffff\n      and\n      tag_310\n      swap1\n        /* \"Users/leilei/Downloads/MasterChefV2/MasterChefV2.sol\":7229:7292  dummyToken.safeTransferFrom(msg.sender, address(this), balance) */\n      swap4\n      swap3\n      swap2\n      swap1\n      0xffffffff\n      and\n      jump\t// in\n    tag_309:\n        /* \"Users/leilei/Downloads/MasterChefV2/MasterChefV2.sol\":7302:7312  dummyToken */\n      dup2\n        /* \"Users/leilei/Downloads/MasterChefV2/MasterChefV2.sol\":7302:7320  dummyToken.approve */\n      0xffffffffffffffffffffffffffffffffffffffff\n      and\n      0x095ea7b3\n        /* \"Users/leilei/Downloads/MasterChefV2/MasterChefV2.sol\":7329:7340  MASTER_CHEF */\n      immutable(\"0x16c8a63d520d02dbd3ba67dd93cae5eadc6219145ea2099e8e9f17a2533fafa7\")\n        /* \"Users/leilei/Downloads/MasterChefV2/MasterChefV2.sol\":7343:7350  balance */\n      dup4\n        /* \"Users/leilei/Downloads/MasterChefV2/MasterChefV2.sol\":7302:7351  dummyToken.approve(address(MASTER_CHEF), balance) */\n      mload(0x40)\n      dup4\n      0xffffffff\n      and\n      0xe0\n      shl\n      dup2\n      mstore\n      0x04\n      add\n      tag_311\n      swap3\n      swap2\n      swap1\n      tag_312\n      jump\t// in\n    tag_311:\n      0x20\n      mload(0x40)\n      dup1\n      dup4\n      sub\n      dup2\n      0x00\n      dup8\n      dup1\n      extcodesize\n      iszero\n      dup1\n      iszero\n      tag_313\n      jumpi\n      0x00\n      dup1\n      revert\n    tag_313:\n      pop\n      gas\n      call\n      iszero\n      dup1\n      iszero\n      tag_315\n      jumpi\n      returndatasize\n      0x00\n      dup1\n      returndatacopy\n      revert(0x00, returndatasize)\n    tag_315:\n      pop\n      pop\n      pop\n      pop\n      mload(0x40)\n      returndatasize\n      not(0x1f)\n      0x1f\n      dup3\n      add\n      and\n      dup3\n      add\n      dup1\n      0x40\n      mstore\n      pop\n      dup2\n      add\n      swap1\n      tag_316\n      swap2\n      swap1\n      tag_317\n      jump\t// in\n    tag_316:\n      pop\n        /* \"Users/leilei/Downloads/MasterChefV2/MasterChefV2.sol\":7361:7372  MASTER_CHEF */\n      immutable(\"0x16c8a63d520d02dbd3ba67dd93cae5eadc6219145ea2099e8e9f17a2533fafa7\")\n        /* \"Users/leilei/Downloads/MasterChefV2/MasterChefV2.sol\":7361:7380  MASTER_CHEF.deposit */\n      0xffffffffffffffffffffffffffffffffffffffff\n      and\n      0xe2bbb158\n        /* \"Users/leilei/Downloads/MasterChefV2/MasterChefV2.sol\":7381:7391  MASTER_PID */\n      immutable(\"0x3ac7ca38fd21a491cc5fb19169926fdbe6b54822181a3fae6f9aebec8e42713d\")\n        /* \"Users/leilei/Downloads/MasterChefV2/MasterChefV2.sol\":7393:7400  balance */\n      dup4\n        /* \"Users/leilei/Downloads/MasterChefV2/MasterChefV2.sol\":7361:7401  MASTER_CHEF.deposit(MASTER_PID, balance) */\n      mload(0x40)\n      dup4\n      0xffffffff\n      and\n      0xe0\n      shl\n      dup2\n      mstore\n      0x04\n      add\n      tag_318\n      swap3\n      swap2\n      swap1\n      tag_319\n      jump\t// in\n    tag_318:\n      0x00\n      mload(0x40)\n      dup1\n      dup4\n      sub\n      dup2\n      0x00\n      dup8\n      dup1\n      extcodesize\n      iszero\n      dup1\n      iszero\n      tag_320\n      jumpi\n      0x00\n      dup1\n      revert\n    tag_320:\n      pop\n      gas\n      call\n      iszero\n      dup1\n      iszero\n      tag_322\n      jumpi\n      returndatasize\n      0x00\n      dup1\n      returndatacopy\n      revert(0x00, returndatasize)\n    tag_322:\n      pop\n      pop\n      pop\n      pop\n        /* \"Users/leilei/Downloads/MasterChefV2/MasterChefV2.sol\":7503:7515  block.number */\n      number\n        /* \"Users/leilei/Downloads/MasterChefV2/MasterChefV2.sol\":7485:7500  lastBurnedBlock */\n      0x0d\n        /* \"Users/leilei/Downloads/MasterChefV2/MasterChefV2.sol\":7485:7515  lastBurnedBlock = block.number */\n      dup2\n      swap1\n      sstore\n      pop\n        /* \"Users/leilei/Downloads/MasterChefV2/MasterChefV2.sol\":7530:7536  Init() */\n      0x57a86f7d14ccde89e22870afe839e3011216827daa9b24e18629f0a1e9d6cc14\n      mload(0x40)\n      mload(0x40)\n      dup1\n      swap2\n      sub\n      swap1\n      log1\n        /* \"Users/leilei/Downloads/MasterChefV2/Ownable.sol\":1334:1335  _ */\n      pop\n        /* \"Users/leilei/Downloads/MasterChefV2/MasterChefV2.sol\":7037:7543  function init(IBEP20 dummyToken) external onlyOwner {... */\n      pop\n      jump\t// out\n        /* \"Users/leilei/Downloads/MasterChefV2/MasterChefV2.sol\":4865:4916  uint256 public cakeRateToSpecialFarm = 293402777778 */\n    tag_86:\n      sload(0x0c)\n      dup2\n      jump\t// out\n        /* \"Users/leilei/Downloads/MasterChefV2/MasterChefV2.sol\":11973:12321  function cakePerBlock(bool _isRegular) public view returns (uint256 amount) {... */\n    tag_91:\n        /* \"Users/leilei/Downloads/MasterChefV2/MasterChefV2.sol\":12033:12047  uint256 amount */\n      0x00\n        /* \"Users/leilei/Downloads/MasterChefV2/MasterChefV2.sol\":12063:12073  _isRegular */\n      dup2\n        /* \"Users/leilei/Downloads/MasterChefV2/MasterChefV2.sol\":12059:12315  if (_isRegular) {... */\n      iszero\n      tag_324\n      jumpi\n        /* \"Users/leilei/Downloads/MasterChefV2/MasterChefV2.sol\":12098:12181  MASTERCHEF_CAKE_PER_BLOCK.mul(cakeRateToRegularFarm).div(CAKE_RATE_TOTAL_PRECISION) */\n      tag_325\n        /* \"Users/leilei/Downloads/MasterChefV2/MasterChefV2.sol\":4524:4528  1e12 */\n      0xe8d4a51000\n        /* \"Users/leilei/Downloads/MasterChefV2/MasterChefV2.sol\":12098:12150  MASTERCHEF_CAKE_PER_BLOCK.mul(cakeRateToRegularFarm) */\n      tag_326\n        /* \"Users/leilei/Downloads/MasterChefV2/MasterChefV2.sol\":12128:12149  cakeRateToRegularFarm */\n      sload(0x0b)\n        /* \"Users/leilei/Downloads/MasterChefV2/MasterChefV2.sol\":4057:4066  40 * 1e18 */\n      0x022b1c8c1227a00000\n        /* \"Users/leilei/Downloads/MasterChefV2/MasterChefV2.sol\":12098:12127  MASTERCHEF_CAKE_PER_BLOCK.mul */\n      tag_241\n      swap1\n        /* \"Users/leilei/Downloads/MasterChefV2/MasterChefV2.sol\":12098:12150  MASTERCHEF_CAKE_PER_BLOCK.mul(cakeRateToRegularFarm) */\n      swap2\n      swap1\n      0xffffffff\n      and\n      jump\t// in\n    tag_326:\n        /* \"Users/leilei/Downloads/MasterChefV2/MasterChefV2.sol\":12098:12154  MASTERCHEF_CAKE_PER_BLOCK.mul(cakeRateToRegularFarm).div */\n      tag_242\n      swap1\n        /* \"Users/leilei/Downloads/MasterChefV2/MasterChefV2.sol\":12098:12181  MASTERCHEF_CAKE_PER_BLOCK.mul(cakeRateToRegularFarm).div(CAKE_RATE_TOTAL_PRECISION) */\n      swap2\n      swap1\n      0xffffffff\n      and\n      jump\t// in\n    tag_325:\n        /* \"Users/leilei/Downloads/MasterChefV2/MasterChefV2.sol\":12089:12181  amount = MASTERCHEF_CAKE_PER_BLOCK.mul(cakeRateToRegularFarm).div(CAKE_RATE_TOTAL_PRECISION) */\n      swap1\n      pop\n        /* \"Users/leilei/Downloads/MasterChefV2/MasterChefV2.sol\":12059:12315  if (_isRegular) {... */\n      jump(tag_327)\n    tag_324:\n        /* \"Users/leilei/Downloads/MasterChefV2/MasterChefV2.sol\":12221:12304  MASTERCHEF_CAKE_PER_BLOCK.mul(cakeRateToSpecialFarm).div(CAKE_RATE_TOTAL_PRECISION) */\n      tag_328\n        /* \"Users/leilei/Downloads/MasterChefV2/MasterChefV2.sol\":4524:4528  1e12 */\n      0xe8d4a51000\n        /* \"Users/leilei/Downloads/MasterChefV2/MasterChefV2.sol\":12221:12273  MASTERCHEF_CAKE_PER_BLOCK.mul(cakeRateToSpecialFarm) */\n      tag_329\n        /* \"Users/leilei/Downloads/MasterChefV2/MasterChefV2.sol\":12251:12272  cakeRateToSpecialFarm */\n      sload(0x0c)\n        /* \"Users/leilei/Downloads/MasterChefV2/MasterChefV2.sol\":4057:4066  40 * 1e18 */\n      0x022b1c8c1227a00000\n        /* \"Users/leilei/Downloads/MasterChefV2/MasterChefV2.sol\":12221:12250  MASTERCHEF_CAKE_PER_BLOCK.mul */\n      tag_241\n      swap1\n        /* \"Users/leilei/Downloads/MasterChefV2/MasterChefV2.sol\":12221:12273  MASTERCHEF_CAKE_PER_BLOCK.mul(cakeRateToSpecialFarm) */\n      swap2\n      swap1\n      0xffffffff\n      and\n      jump\t// in\n    tag_329:\n        /* \"Users/leilei/Downloads/MasterChefV2/MasterChefV2.sol\":12221:12277  MASTERCHEF_CAKE_PER_BLOCK.mul(cakeRateToSpecialFarm).div */\n      tag_242\n      swap1\n        /* \"Users/leilei/Downloads/MasterChefV2/MasterChefV2.sol\":12221:12304  MASTERCHEF_CAKE_PER_BLOCK.mul(cakeRateToSpecialFarm).div(CAKE_RATE_TOTAL_PRECISION) */\n      swap2\n      swap1\n      0xffffffff\n      and\n      jump\t// in\n    tag_328:\n        /* \"Users/leilei/Downloads/MasterChefV2/MasterChefV2.sol\":12212:12304  amount = MASTERCHEF_CAKE_PER_BLOCK.mul(cakeRateToSpecialFarm).div(CAKE_RATE_TOTAL_PRECISION) */\n      swap1\n      pop\n        /* \"Users/leilei/Downloads/MasterChefV2/MasterChefV2.sol\":12059:12315  if (_isRegular) {... */\n    tag_327:\n        /* \"Users/leilei/Downloads/MasterChefV2/MasterChefV2.sol\":11973:12321  function cakePerBlock(bool _isRegular) public view returns (uint256 amount) {... */\n      swap2\n      swap1\n      pop\n      jump\t// out\n        /* \"Users/leilei/Downloads/MasterChefV2/MasterChefV2.sol\":3509:3550  mapping(address => bool) public whiteList */\n    tag_95:\n      mstore(0x20, 0x07)\n      dup1\n      0x00\n      mstore\n      keccak256(0x00, 0x40)\n      0x00\n      swap2\n      pop\n      sload\n      swap1\n      0x0100\n      exp\n      swap1\n      div\n      0xff\n      and\n      dup2\n      jump\t// out\n        /* \"Users/leilei/Downloads/MasterChefV2/MasterChefV2.sol\":4005:4066  uint256 public constant MASTERCHEF_CAKE_PER_BLOCK = 40 * 1e18 */\n    tag_99:\n        /* \"Users/leilei/Downloads/MasterChefV2/MasterChefV2.sol\":4057:4066  40 * 1e18 */\n      0x022b1c8c1227a00000\n        /* \"Users/leilei/Downloads/MasterChefV2/MasterChefV2.sol\":4005:4066  uint256 public constant MASTERCHEF_CAKE_PER_BLOCK = 40 * 1e18 */\n      dup2\n      jump\t// out\n        /* \"Users/leilei/Downloads/MasterChefV2/MasterChefV2.sol\":15227:16108  function withdraw(uint256 _pid, uint256 _amount) external nonReentrant {... */\n    tag_104:\n        /* \"Users/leilei/Downloads/MasterChefV2/ReentrancyGuard.sol\":1671:1672  2 */\n      0x02\n        /* \"Users/leilei/Downloads/MasterChefV2/ReentrancyGuard.sol\":2260:2267  _status */\n      sload(0x01)\n        /* \"Users/leilei/Downloads/MasterChefV2/ReentrancyGuard.sol\":2260:2279  _status != _ENTERED */\n      eq\n      iszero\n        /* \"Users/leilei/Downloads/MasterChefV2/ReentrancyGuard.sol\":2252:2315  require(_status != _ENTERED, \"ReentrancyGuard: reentrant call\") */\n      tag_331\n      jumpi\n      mload(0x40)\n      0x08c379a000000000000000000000000000000000000000000000000000000000\n      dup2\n      mstore\n      0x04\n      add\n      tag_332\n      swap1\n      tag_217\n      jump\t// in\n    tag_332:\n      mload(0x40)\n      dup1\n      swap2\n      sub\n      swap1\n      revert\n    tag_331:\n        /* \"Users/leilei/Downloads/MasterChefV2/ReentrancyGuard.sol\":1671:1672  2 */\n      0x02\n        /* \"Users/leilei/Downloads/MasterChefV2/ReentrancyGuard.sol\":2390:2397  _status */\n      0x01\n        /* \"Users/leilei/Downloads/MasterChefV2/ReentrancyGuard.sol\":2390:2408  _status = _ENTERED */\n      dup2\n      swap1\n      sstore\n      pop\n        /* \"Users/leilei/Downloads/MasterChefV2/MasterChefV2.sol\":15308:15328  PoolInfo memory pool */\n      tag_334\n      tag_232\n      jump\t// in\n    tag_334:\n        /* \"Users/leilei/Downloads/MasterChefV2/MasterChefV2.sol\":15331:15347  updatePool(_pid) */\n      tag_335\n        /* \"Users/leilei/Downloads/MasterChefV2/MasterChefV2.sol\":15342:15346  _pid */\n      dup4\n        /* \"Users/leilei/Downloads/MasterChefV2/MasterChefV2.sol\":15331:15341  updatePool */\n      tag_113\n        /* \"Users/leilei/Downloads/MasterChefV2/MasterChefV2.sol\":15331:15347  updatePool(_pid) */\n      jump\t// in\n    tag_335:\n        /* \"Users/leilei/Downloads/MasterChefV2/MasterChefV2.sol\":15308:15347  PoolInfo memory pool = updatePool(_pid) */\n      swap1\n      pop\n        /* \"Users/leilei/Downloads/MasterChefV2/MasterChefV2.sol\":15357:15378  UserInfo storage user */\n      0x00\n        /* \"Users/leilei/Downloads/MasterChefV2/MasterChefV2.sol\":15381:15389  userInfo */\n      0x06\n        /* \"Users/leilei/Downloads/MasterChefV2/MasterChefV2.sol\":15381:15395  userInfo[_pid] */\n      0x00\n        /* \"Users/leilei/Downloads/MasterChefV2/MasterChefV2.sol\":15390:15394  _pid */\n      dup6\n        /* \"Users/leilei/Downloads/MasterChefV2/MasterChefV2.sol\":15381:15395  userInfo[_pid] */\n      dup2\n      mstore\n      0x20\n      add\n      swap1\n      dup2\n      mstore\n      0x20\n      add\n      0x00\n      keccak256\n        /* \"Users/leilei/Downloads/MasterChefV2/MasterChefV2.sol\":15381:15407  userInfo[_pid][msg.sender] */\n      0x00\n        /* \"Users/leilei/Downloads/MasterChefV2/MasterChefV2.sol\":15396:15406  msg.sender */\n      caller\n        /* \"Users/leilei/Downloads/MasterChefV2/MasterChefV2.sol\":15381:15407  userInfo[_pid][msg.sender] */\n      0xffffffffffffffffffffffffffffffffffffffff\n      and\n      0xffffffffffffffffffffffffffffffffffffffff\n      and\n      dup2\n      mstore\n      0x20\n      add\n      swap1\n      dup2\n      mstore\n      0x20\n      add\n      0x00\n      keccak256\n        /* \"Users/leilei/Downloads/MasterChefV2/MasterChefV2.sol\":15357:15407  UserInfo storage user = userInfo[_pid][msg.sender] */\n      swap1\n      pop\n        /* \"Users/leilei/Downloads/MasterChefV2/MasterChefV2.sol\":15441:15448  _amount */\n      dup3\n        /* \"Users/leilei/Downloads/MasterChefV2/MasterChefV2.sol\":15426:15430  user */\n      dup2\n        /* \"Users/leilei/Downloads/MasterChefV2/MasterChefV2.sol\":15426:15437  user.amount */\n      0x00\n      add\n      sload\n        /* \"Users/leilei/Downloads/MasterChefV2/MasterChefV2.sol\":15426:15448  user.amount >= _amount */\n      lt\n      iszero\n        /* \"Users/leilei/Downloads/MasterChefV2/MasterChefV2.sol\":15418:15475  require(user.amount >= _amount, \"withdraw: Insufficient\") */\n      tag_336\n      jumpi\n      mload(0x40)\n      0x08c379a000000000000000000000000000000000000000000000000000000000\n      dup2\n      mstore\n      0x04\n      add\n      tag_337\n      swap1\n      tag_338\n      jump\t// in\n    tag_337:\n      mload(0x40)\n      dup1\n      swap2\n      sub\n      swap1\n      revert\n    tag_336:\n        /* \"Users/leilei/Downloads/MasterChefV2/MasterChefV2.sol\":15486:15504  uint256 multiplier */\n      0x00\n        /* \"Users/leilei/Downloads/MasterChefV2/MasterChefV2.sol\":15507:15543  getBoostMultiplier(msg.sender, _pid) */\n      tag_339\n        /* \"Users/leilei/Downloads/MasterChefV2/MasterChefV2.sol\":15526:15536  msg.sender */\n      caller\n        /* \"Users/leilei/Downloads/MasterChefV2/MasterChefV2.sol\":15538:15542  _pid */\n      dup7\n        /* \"Users/leilei/Downloads/MasterChefV2/MasterChefV2.sol\":15507:15525  getBoostMultiplier */\n      tag_56\n        /* \"Users/leilei/Downloads/MasterChefV2/MasterChefV2.sol\":15507:15543  getBoostMultiplier(msg.sender, _pid) */\n      jump\t// in\n    tag_339:\n        /* \"Users/leilei/Downloads/MasterChefV2/MasterChefV2.sol\":15486:15543  uint256 multiplier = getBoostMultiplier(msg.sender, _pid) */\n      swap1\n      pop\n        /* \"Users/leilei/Downloads/MasterChefV2/MasterChefV2.sol\":15554:15601  settlePendingCake(msg.sender, _pid, multiplier) */\n      tag_340\n        /* \"Users/leilei/Downloads/MasterChefV2/MasterChefV2.sol\":15572:15582  msg.sender */\n      caller\n        /* \"Users/leilei/Downloads/MasterChefV2/MasterChefV2.sol\":15584:15588  _pid */\n      dup7\n        /* \"Users/leilei/Downloads/MasterChefV2/MasterChefV2.sol\":15590:15600  multiplier */\n      dup4\n        /* \"Users/leilei/Downloads/MasterChefV2/MasterChefV2.sol\":15554:15571  settlePendingCake */\n      tag_236\n        /* \"Users/leilei/Downloads/MasterChefV2/MasterChefV2.sol\":15554:15601  settlePendingCake(msg.sender, _pid, multiplier) */\n      jump\t// in\n    tag_340:\n        /* \"Users/leilei/Downloads/MasterChefV2/MasterChefV2.sol\":15626:15627  0 */\n      0x00\n        /* \"Users/leilei/Downloads/MasterChefV2/MasterChefV2.sol\":15616:15623  _amount */\n      dup5\n        /* \"Users/leilei/Downloads/MasterChefV2/MasterChefV2.sol\":15616:15627  _amount > 0 */\n      gt\n        /* \"Users/leilei/Downloads/MasterChefV2/MasterChefV2.sol\":15612:15753  if (_amount > 0) {... */\n      iszero\n      tag_341\n      jumpi\n        /* \"Users/leilei/Downloads/MasterChefV2/MasterChefV2.sol\":15657:15681  user.amount.sub(_amount) */\n      tag_342\n        /* \"Users/leilei/Downloads/MasterChefV2/MasterChefV2.sol\":15673:15680  _amount */\n      dup5\n        /* \"Users/leilei/Downloads/MasterChefV2/MasterChefV2.sol\":15657:15661  user */\n      dup4\n        /* \"Users/leilei/Downloads/MasterChefV2/MasterChefV2.sol\":15657:15668  user.amount */\n      0x00\n      add\n      sload\n        /* \"Users/leilei/Downloads/MasterChefV2/MasterChefV2.sol\":15657:15672  user.amount.sub */\n      tag_249\n      swap1\n        /* \"Users/leilei/Downloads/MasterChefV2/MasterChefV2.sol\":15657:15681  user.amount.sub(_amount) */\n      swap2\n      swap1\n      0xffffffff\n      and\n      jump\t// in\n    tag_342:\n        /* \"Users/leilei/Downloads/MasterChefV2/MasterChefV2.sol\":15643:15647  user */\n      dup3\n        /* \"Users/leilei/Downloads/MasterChefV2/MasterChefV2.sol\":15643:15654  user.amount */\n      0x00\n      add\n        /* \"Users/leilei/Downloads/MasterChefV2/MasterChefV2.sol\":15643:15681  user.amount = user.amount.sub(_amount) */\n      dup2\n      swap1\n      sstore\n      pop\n        /* \"Users/leilei/Downloads/MasterChefV2/MasterChefV2.sol\":15695:15742  lpToken[_pid].safeTransfer(msg.sender, _amount) */\n      tag_343\n        /* \"Users/leilei/Downloads/MasterChefV2/MasterChefV2.sol\":15722:15732  msg.sender */\n      caller\n        /* \"Users/leilei/Downloads/MasterChefV2/MasterChefV2.sol\":15734:15741  _amount */\n      dup6\n        /* \"Users/leilei/Downloads/MasterChefV2/MasterChefV2.sol\":15695:15702  lpToken */\n      0x05\n        /* \"Users/leilei/Downloads/MasterChefV2/MasterChefV2.sol\":15703:15707  _pid */\n      dup9\n        /* \"Users/leilei/Downloads/MasterChefV2/MasterChefV2.sol\":15695:15708  lpToken[_pid] */\n      dup2\n      sload\n      dup2\n      lt\n      tag_344\n      jumpi\n      invalid\n    tag_344:\n      swap1\n      0x00\n      mstore\n      keccak256(0x00, 0x20)\n      add\n      0x00\n      swap1\n      sload\n      swap1\n      0x0100\n      exp\n      swap1\n      div\n      0xffffffffffffffffffffffffffffffffffffffff\n      and\n        /* \"Users/leilei/Downloads/MasterChefV2/MasterChefV2.sol\":15695:15721  lpToken[_pid].safeTransfer */\n      0xffffffffffffffffffffffffffffffffffffffff\n      and\n      tag_346\n      swap1\n        /* \"Users/leilei/Downloads/MasterChefV2/MasterChefV2.sol\":15695:15742  lpToken[_pid].safeTransfer(msg.sender, _amount) */\n      swap3\n      swap2\n      swap1\n      0xffffffff\n      and\n      jump\t// in\n    tag_343:\n        /* \"Users/leilei/Downloads/MasterChefV2/MasterChefV2.sol\":15612:15753  if (_amount > 0) {... */\n    tag_341:\n        /* \"Users/leilei/Downloads/MasterChefV2/MasterChefV2.sol\":15781:15901  user.amount.mul(multiplier).div(BOOST_PRECISION).mul(pool.accCakePerShare).div(... */\n      tag_347\n        /* \"Users/leilei/Downloads/MasterChefV2/MasterChefV2.sol\":4117:4121  1e18 */\n      0x0de0b6b3a7640000\n        /* \"Users/leilei/Downloads/MasterChefV2/MasterChefV2.sol\":15781:15855  user.amount.mul(multiplier).div(BOOST_PRECISION).mul(pool.accCakePerShare) */\n      tag_348\n        /* \"Users/leilei/Downloads/MasterChefV2/MasterChefV2.sol\":15834:15838  pool */\n      dup6\n        /* \"Users/leilei/Downloads/MasterChefV2/MasterChefV2.sol\":15834:15854  pool.accCakePerShare */\n      0x00\n      add\n      mload\n        /* \"Users/leilei/Downloads/MasterChefV2/MasterChefV2.sol\":15781:15829  user.amount.mul(multiplier).div(BOOST_PRECISION) */\n      tag_349\n        /* \"Users/leilei/Downloads/MasterChefV2/MasterChefV2.sol\":4239:4249  100 * 1e10 */\n      0xe8d4a51000\n        /* \"Users/leilei/Downloads/MasterChefV2/MasterChefV2.sol\":15781:15808  user.amount.mul(multiplier) */\n      tag_350\n        /* \"Users/leilei/Downloads/MasterChefV2/MasterChefV2.sol\":15797:15807  multiplier */\n      dup8\n        /* \"Users/leilei/Downloads/MasterChefV2/MasterChefV2.sol\":15781:15785  user */\n      dup10\n        /* \"Users/leilei/Downloads/MasterChefV2/MasterChefV2.sol\":15781:15792  user.amount */\n      0x00\n      add\n      sload\n        /* \"Users/leilei/Downloads/MasterChefV2/MasterChefV2.sol\":15781:15796  user.amount.mul */\n      tag_241\n      swap1\n        /* \"Users/leilei/Downloads/MasterChefV2/MasterChefV2.sol\":15781:15808  user.amount.mul(multiplier) */\n      swap2\n      swap1\n      0xffffffff\n      and\n      jump\t// in\n    tag_350:\n        /* \"Users/leilei/Downloads/MasterChefV2/MasterChefV2.sol\":15781:15812  user.amount.mul(multiplier).div */\n      tag_242\n      swap1\n        /* \"Users/leilei/Downloads/MasterChefV2/MasterChefV2.sol\":15781:15829  user.amount.mul(multiplier).div(BOOST_PRECISION) */\n      swap2\n      swap1\n      0xffffffff\n      and\n      jump\t// in\n    tag_349:\n        /* \"Users/leilei/Downloads/MasterChefV2/MasterChefV2.sol\":15781:15833  user.amount.mul(multiplier).div(BOOST_PRECISION).mul */\n      tag_241\n      swap1\n        /* \"Users/leilei/Downloads/MasterChefV2/MasterChefV2.sol\":15781:15855  user.amount.mul(multiplier).div(BOOST_PRECISION).mul(pool.accCakePerShare) */\n      swap2\n      swap1\n      0xffffffff\n      and\n      jump\t// in\n    tag_348:\n        /* \"Users/leilei/Downloads/MasterChefV2/MasterChefV2.sol\":15781:15859  user.amount.mul(multiplier).div(BOOST_PRECISION).mul(pool.accCakePerShare).div */\n      tag_242\n      swap1\n        /* \"Users/leilei/Downloads/MasterChefV2/MasterChefV2.sol\":15781:15901  user.amount.mul(multiplier).div(BOOST_PRECISION).mul(pool.accCakePerShare).div(... */\n      swap2\n      swap1\n      0xffffffff\n      and\n      jump\t// in\n    tag_347:\n        /* \"Users/leilei/Downloads/MasterChefV2/MasterChefV2.sol\":15763:15767  user */\n      dup3\n        /* \"Users/leilei/Downloads/MasterChefV2/MasterChefV2.sol\":15763:15778  user.rewardDebt */\n      0x01\n      add\n        /* \"Users/leilei/Downloads/MasterChefV2/MasterChefV2.sol\":15763:15901  user.rewardDebt = user.amount.mul(multiplier).div(BOOST_PRECISION).mul(pool.accCakePerShare).div(... */\n      dup2\n      swap1\n      sstore\n      pop\n        /* \"Users/leilei/Downloads/MasterChefV2/MasterChefV2.sol\":15946:16050  poolInfo[_pid].totalBoostedShare.sub(... */\n      tag_351\n        /* \"Users/leilei/Downloads/MasterChefV2/MasterChefV2.sol\":15996:16040  _amount.mul(multiplier).div(BOOST_PRECISION) */\n      tag_352\n        /* \"Users/leilei/Downloads/MasterChefV2/MasterChefV2.sol\":4239:4249  100 * 1e10 */\n      0xe8d4a51000\n        /* \"Users/leilei/Downloads/MasterChefV2/MasterChefV2.sol\":15996:16019  _amount.mul(multiplier) */\n      tag_353\n        /* \"Users/leilei/Downloads/MasterChefV2/MasterChefV2.sol\":16008:16018  multiplier */\n      dup5\n        /* \"Users/leilei/Downloads/MasterChefV2/MasterChefV2.sol\":15996:16003  _amount */\n      dup9\n        /* \"Users/leilei/Downloads/MasterChefV2/MasterChefV2.sol\":15996:16007  _amount.mul */\n      tag_241\n      swap1\n        /* \"Users/leilei/Downloads/MasterChefV2/MasterChefV2.sol\":15996:16019  _amount.mul(multiplier) */\n      swap2\n      swap1\n      0xffffffff\n      and\n      jump\t// in\n    tag_353:\n        /* \"Users/leilei/Downloads/MasterChefV2/MasterChefV2.sol\":15996:16023  _amount.mul(multiplier).div */\n      tag_242\n      swap1\n        /* \"Users/leilei/Downloads/MasterChefV2/MasterChefV2.sol\":15996:16040  _amount.mul(multiplier).div(BOOST_PRECISION) */\n      swap2\n      swap1\n      0xffffffff\n      and\n      jump\t// in\n    tag_352:\n        /* \"Users/leilei/Downloads/MasterChefV2/MasterChefV2.sol\":15946:15954  poolInfo */\n      0x04\n        /* \"Users/leilei/Downloads/MasterChefV2/MasterChefV2.sol\":15955:15959  _pid */\n      dup8\n        /* \"Users/leilei/Downloads/MasterChefV2/MasterChefV2.sol\":15946:15960  poolInfo[_pid] */\n      dup2\n      sload\n      dup2\n      lt\n      tag_354\n      jumpi\n      invalid\n    tag_354:\n      swap1\n      0x00\n      mstore\n      keccak256(0x00, 0x20)\n      swap1\n      0x05\n      mul\n      add\n        /* \"Users/leilei/Downloads/MasterChefV2/MasterChefV2.sol\":15946:15978  poolInfo[_pid].totalBoostedShare */\n      0x03\n      add\n      sload\n        /* \"Users/leilei/Downloads/MasterChefV2/MasterChefV2.sol\":15946:15982  poolInfo[_pid].totalBoostedShare.sub */\n      tag_249\n      swap1\n        /* \"Users/leilei/Downloads/MasterChefV2/MasterChefV2.sol\":15946:16050  poolInfo[_pid].totalBoostedShare.sub(... */\n      swap2\n      swap1\n      0xffffffff\n      and\n      jump\t// in\n    tag_351:\n        /* \"Users/leilei/Downloads/MasterChefV2/MasterChefV2.sol\":15911:15919  poolInfo */\n      0x04\n        /* \"Users/leilei/Downloads/MasterChefV2/MasterChefV2.sol\":15920:15924  _pid */\n      dup7\n        /* \"Users/leilei/Downloads/MasterChefV2/MasterChefV2.sol\":15911:15925  poolInfo[_pid] */\n      dup2\n      sload\n      dup2\n      lt\n      tag_356\n      jumpi\n      invalid\n    tag_356:\n      swap1\n      0x00\n      mstore\n      keccak256(0x00, 0x20)\n      swap1\n      0x05\n      mul\n      add\n        /* \"Users/leilei/Downloads/MasterChefV2/MasterChefV2.sol\":15911:15943  poolInfo[_pid].totalBoostedShare */\n      0x03\n      add\n        /* \"Users/leilei/Downloads/MasterChefV2/MasterChefV2.sol\":15911:16050  poolInfo[_pid].totalBoostedShare = poolInfo[_pid].totalBoostedShare.sub(... */\n      dup2\n      swap1\n      sstore\n      pop\n        /* \"Users/leilei/Downloads/MasterChefV2/MasterChefV2.sol\":16087:16091  _pid */\n      dup5\n        /* \"Users/leilei/Downloads/MasterChefV2/MasterChefV2.sol\":16075:16085  msg.sender */\n      caller\n        /* \"Users/leilei/Downloads/MasterChefV2/MasterChefV2.sol\":16066:16101  Withdraw(msg.sender, _pid, _amount) */\n      0xffffffffffffffffffffffffffffffffffffffff\n      and\n      0xf279e6a1f5e320cca91135676d9cb6e44ca8a08c0b88342bcdb1144f6511b568\n        /* \"Users/leilei/Downloads/MasterChefV2/MasterChefV2.sol\":16093:16100  _amount */\n      dup7\n        /* \"Users/leilei/Downloads/MasterChefV2/MasterChefV2.sol\":16066:16101  Withdraw(msg.sender, _pid, _amount) */\n      mload(0x40)\n      tag_358\n      swap2\n      swap1\n      tag_58\n      jump\t// in\n    tag_358:\n      mload(0x40)\n      dup1\n      swap2\n      sub\n      swap1\n      log3\n        /* \"Users/leilei/Downloads/MasterChefV2/ReentrancyGuard.sol\":2419:2420  _ */\n      pop\n      pop\n      pop\n        /* \"Users/leilei/Downloads/MasterChefV2/ReentrancyGuard.sol\":1628:1629  1 */\n      0x01\n        /* \"Users/leilei/Downloads/MasterChefV2/ReentrancyGuard.sol\":2563:2570  _status */\n      dup1\n        /* \"Users/leilei/Downloads/MasterChefV2/ReentrancyGuard.sol\":2563:2585  _status = _NOT_ENTERED */\n      dup2\n      swap1\n      sstore\n      pop\n        /* \"Users/leilei/Downloads/MasterChefV2/MasterChefV2.sol\":15227:16108  function withdraw(uint256 _pid, uint256 _amount) external nonReentrant {... */\n      pop\n      pop\n      jump\t// out\n        /* \"Users/leilei/Downloads/MasterChefV2/MasterChefV2.sol\":2937:2965  IBEP20 public immutable CAKE */\n    tag_106:\n      immutable(\"0xe6a1c065389a8d929a5a64a56bc16a7e49ca76d19f5c2b002f72a1f543f272ee\")\n      dup2\n      jump\t// out\n        /* \"Users/leilei/Downloads/MasterChefV2/MasterChefV2.sol\":16199:16290  function harvestFromMasterChef() public {... */\n    tag_110:\n        /* \"Users/leilei/Downloads/MasterChefV2/MasterChefV2.sol\":16249:16260  MASTER_CHEF */\n      immutable(\"0x16c8a63d520d02dbd3ba67dd93cae5eadc6219145ea2099e8e9f17a2533fafa7\")\n        /* \"Users/leilei/Downloads/MasterChefV2/MasterChefV2.sol\":16249:16268  MASTER_CHEF.deposit */\n      0xffffffffffffffffffffffffffffffffffffffff\n      and\n      0xe2bbb158\n        /* \"Users/leilei/Downloads/MasterChefV2/MasterChefV2.sol\":16269:16279  MASTER_PID */\n      immutable(\"0x3ac7ca38fd21a491cc5fb19169926fdbe6b54822181a3fae6f9aebec8e42713d\")\n        /* \"Users/leilei/Downloads/MasterChefV2/MasterChefV2.sol\":16281:16282  0 */\n      0x00\n        /* \"Users/leilei/Downloads/MasterChefV2/MasterChefV2.sol\":16249:16283  MASTER_CHEF.deposit(MASTER_PID, 0) */\n      mload(0x40)\n      dup4\n      0xffffffff\n      and\n      0xe0\n      shl\n      dup2\n      mstore\n      0x04\n      add\n      tag_360\n      swap3\n      swap2\n      swap1\n      tag_361\n      jump\t// in\n    tag_360:\n      0x00\n      mload(0x40)\n      dup1\n      dup4\n      sub\n      dup2\n      0x00\n      dup8\n      dup1\n      extcodesize\n      iszero\n      dup1\n      iszero\n      tag_362\n      jumpi\n      0x00\n      dup1\n      revert\n    tag_362:\n      pop\n      gas\n      call\n      iszero\n      dup1\n      iszero\n      tag_364\n      jumpi\n      returndatasize\n      0x00\n      dup1\n      returndatacopy\n      revert(0x00, returndatasize)\n    tag_364:\n      pop\n      pop\n      pop\n      pop\n        /* \"Users/leilei/Downloads/MasterChefV2/MasterChefV2.sol\":16199:16290  function harvestFromMasterChef() public {... */\n      jump\t// out\n        /* \"Users/leilei/Downloads/MasterChefV2/MasterChefV2.sol\":12753:13685  function updatePool(uint256 _pid) public returns (PoolInfo memory pool) {... */\n    tag_113:\n        /* \"Users/leilei/Downloads/MasterChefV2/MasterChefV2.sol\":12803:12823  PoolInfo memory pool */\n      tag_365\n      tag_232\n      jump\t// in\n    tag_365:\n        /* \"Users/leilei/Downloads/MasterChefV2/MasterChefV2.sol\":12842:12850  poolInfo */\n      0x04\n        /* \"Users/leilei/Downloads/MasterChefV2/MasterChefV2.sol\":12851:12855  _pid */\n      dup3\n        /* \"Users/leilei/Downloads/MasterChefV2/MasterChefV2.sol\":12842:12856  poolInfo[_pid] */\n      dup2\n      sload\n      dup2\n      lt\n      tag_367\n      jumpi\n      invalid\n    tag_367:\n      swap1\n      0x00\n      mstore\n      keccak256(0x00, 0x20)\n      swap1\n      0x05\n      mul\n      add\n        /* \"Users/leilei/Downloads/MasterChefV2/MasterChefV2.sol\":12835:12856  pool = poolInfo[_pid] */\n      mload(0x40)\n      dup1\n      0xa0\n      add\n      0x40\n      mstore\n      swap1\n      dup2\n      0x00\n      dup3\n      add\n      sload\n      dup2\n      mstore\n      0x20\n      add\n      0x01\n      dup3\n      add\n      sload\n      dup2\n      mstore\n      0x20\n      add\n      0x02\n      dup3\n      add\n      sload\n      dup2\n      mstore\n      0x20\n      add\n      0x03\n      dup3\n      add\n      sload\n      dup2\n      mstore\n      0x20\n      add\n      0x04\n      dup3\n      add\n      0x00\n      swap1\n      sload\n      swap1\n      0x0100\n      exp\n      swap1\n      div\n      0xff\n      and\n      iszero\n      iszero\n      iszero\n      iszero\n      dup2\n      mstore\n      pop\n      pop\n      swap1\n      pop\n        /* \"Users/leilei/Downloads/MasterChefV2/MasterChefV2.sol\":12885:12889  pool */\n      dup1\n        /* \"Users/leilei/Downloads/MasterChefV2/MasterChefV2.sol\":12885:12905  pool.lastRewardBlock */\n      0x20\n      add\n      mload\n        /* \"Users/leilei/Downloads/MasterChefV2/MasterChefV2.sol\":12870:12882  block.number */\n      number\n        /* \"Users/leilei/Downloads/MasterChefV2/MasterChefV2.sol\":12870:12905  block.number > pool.lastRewardBlock */\n      gt\n        /* \"Users/leilei/Downloads/MasterChefV2/MasterChefV2.sol\":12866:13679  if (block.number > pool.lastRewardBlock) {... */\n      iszero\n      tag_369\n      jumpi\n        /* \"Users/leilei/Downloads/MasterChefV2/MasterChefV2.sol\":12921:12937  uint256 lpSupply */\n      0x00\n        /* \"Users/leilei/Downloads/MasterChefV2/MasterChefV2.sol\":12940:12944  pool */\n      dup2\n        /* \"Users/leilei/Downloads/MasterChefV2/MasterChefV2.sol\":12940:12962  pool.totalBoostedShare */\n      0x60\n      add\n      mload\n        /* \"Users/leilei/Downloads/MasterChefV2/MasterChefV2.sol\":12921:12962  uint256 lpSupply = pool.totalBoostedShare */\n      swap1\n      pop\n        /* \"Users/leilei/Downloads/MasterChefV2/MasterChefV2.sol\":12976:12999  uint256 totalAllocPoint */\n      0x00\n        /* \"Users/leilei/Downloads/MasterChefV2/MasterChefV2.sol\":13003:13007  pool */\n      dup3\n        /* \"Users/leilei/Downloads/MasterChefV2/MasterChefV2.sol\":13003:13017  pool.isRegular */\n      0x80\n      add\n      mload\n        /* \"Users/leilei/Downloads/MasterChefV2/MasterChefV2.sol\":13003:13067  pool.isRegular ? totalRegularAllocPoint : totalSpecialAllocPoint */\n      tag_370\n      jumpi\n        /* \"Users/leilei/Downloads/MasterChefV2/MasterChefV2.sol\":13045:13067  totalSpecialAllocPoint */\n      sload(0x09)\n        /* \"Users/leilei/Downloads/MasterChefV2/MasterChefV2.sol\":13003:13067  pool.isRegular ? totalRegularAllocPoint : totalSpecialAllocPoint */\n      jump(tag_371)\n    tag_370:\n        /* \"Users/leilei/Downloads/MasterChefV2/MasterChefV2.sol\":13020:13042  totalRegularAllocPoint */\n      sload(0x08)\n        /* \"Users/leilei/Downloads/MasterChefV2/MasterChefV2.sol\":13003:13067  pool.isRegular ? totalRegularAllocPoint : totalSpecialAllocPoint */\n    tag_371:\n        /* \"Users/leilei/Downloads/MasterChefV2/MasterChefV2.sol\":12976:13068  uint256 totalAllocPoint = (pool.isRegular ? totalRegularAllocPoint : totalSpecialAllocPoint) */\n      swap1\n      pop\n        /* \"Users/leilei/Downloads/MasterChefV2/MasterChefV2.sol\":13098:13099  0 */\n      0x00\n        /* \"Users/leilei/Downloads/MasterChefV2/MasterChefV2.sol\":13087:13095  lpSupply */\n      dup3\n        /* \"Users/leilei/Downloads/MasterChefV2/MasterChefV2.sol\":13087:13099  lpSupply > 0 */\n      gt\n        /* \"Users/leilei/Downloads/MasterChefV2/MasterChefV2.sol\":13087:13122  lpSupply > 0 && totalAllocPoint > 0 */\n      dup1\n      iszero\n      tag_372\n      jumpi\n      pop\n        /* \"Users/leilei/Downloads/MasterChefV2/MasterChefV2.sol\":13121:13122  0 */\n      0x00\n        /* \"Users/leilei/Downloads/MasterChefV2/MasterChefV2.sol\":13103:13118  totalAllocPoint */\n      dup2\n        /* \"Users/leilei/Downloads/MasterChefV2/MasterChefV2.sol\":13103:13122  totalAllocPoint > 0 */\n      gt\n        /* \"Users/leilei/Downloads/MasterChefV2/MasterChefV2.sol\":13087:13122  lpSupply > 0 && totalAllocPoint > 0 */\n    tag_372:\n        /* \"Users/leilei/Downloads/MasterChefV2/MasterChefV2.sol\":13083:13496  if (lpSupply > 0 && totalAllocPoint > 0) {... */\n      iszero\n      tag_373\n      jumpi\n        /* \"Users/leilei/Downloads/MasterChefV2/MasterChefV2.sol\":13142:13160  uint256 multiplier */\n      0x00\n        /* \"Users/leilei/Downloads/MasterChefV2/MasterChefV2.sol\":13163:13201  block.number.sub(pool.lastRewardBlock) */\n      tag_374\n        /* \"Users/leilei/Downloads/MasterChefV2/MasterChefV2.sol\":13180:13184  pool */\n      dup5\n        /* \"Users/leilei/Downloads/MasterChefV2/MasterChefV2.sol\":13180:13200  pool.lastRewardBlock */\n      0x20\n      add\n      mload\n        /* \"Users/leilei/Downloads/MasterChefV2/MasterChefV2.sol\":13163:13175  block.number */\n      number\n        /* \"Users/leilei/Downloads/MasterChefV2/MasterChefV2.sol\":13163:13179  block.number.sub */\n      tag_249\n      swap1\n        /* \"Users/leilei/Downloads/MasterChefV2/MasterChefV2.sol\":13163:13201  block.number.sub(pool.lastRewardBlock) */\n      swap2\n      swap1\n      0xffffffff\n      and\n      jump\t// in\n    tag_374:\n        /* \"Users/leilei/Downloads/MasterChefV2/MasterChefV2.sol\":13142:13201  uint256 multiplier = block.number.sub(pool.lastRewardBlock) */\n      swap1\n      pop\n        /* \"Users/leilei/Downloads/MasterChefV2/MasterChefV2.sol\":13219:13237  uint256 cakeReward */\n      0x00\n        /* \"Users/leilei/Downloads/MasterChefV2/MasterChefV2.sol\":13240:13364  multiplier.mul(cakePerBlock(pool.isRegular)).mul(pool.allocPoint).div(... */\n      tag_375\n        /* \"Users/leilei/Downloads/MasterChefV2/MasterChefV2.sol\":13331:13346  totalAllocPoint */\n      dup4\n        /* \"Users/leilei/Downloads/MasterChefV2/MasterChefV2.sol\":13240:13305  multiplier.mul(cakePerBlock(pool.isRegular)).mul(pool.allocPoint) */\n      tag_376\n        /* \"Users/leilei/Downloads/MasterChefV2/MasterChefV2.sol\":13289:13293  pool */\n      dup8\n        /* \"Users/leilei/Downloads/MasterChefV2/MasterChefV2.sol\":13289:13304  pool.allocPoint */\n      0x40\n      add\n      mload\n        /* \"Users/leilei/Downloads/MasterChefV2/MasterChefV2.sol\":13240:13284  multiplier.mul(cakePerBlock(pool.isRegular)) */\n      tag_377\n        /* \"Users/leilei/Downloads/MasterChefV2/MasterChefV2.sol\":13255:13283  cakePerBlock(pool.isRegular) */\n      tag_378\n        /* \"Users/leilei/Downloads/MasterChefV2/MasterChefV2.sol\":13268:13272  pool */\n      dup11\n        /* \"Users/leilei/Downloads/MasterChefV2/MasterChefV2.sol\":13268:13282  pool.isRegular */\n      0x80\n      add\n      mload\n        /* \"Users/leilei/Downloads/MasterChefV2/MasterChefV2.sol\":13255:13267  cakePerBlock */\n      tag_91\n        /* \"Users/leilei/Downloads/MasterChefV2/MasterChefV2.sol\":13255:13283  cakePerBlock(pool.isRegular) */\n      jump\t// in\n    tag_378:\n        /* \"Users/leilei/Downloads/MasterChefV2/MasterChefV2.sol\":13240:13250  multiplier */\n      dup8\n        /* \"Users/leilei/Downloads/MasterChefV2/MasterChefV2.sol\":13240:13254  multiplier.mul */\n      tag_241\n      swap1\n        /* \"Users/leilei/Downloads/MasterChefV2/MasterChefV2.sol\":13240:13284  multiplier.mul(cakePerBlock(pool.isRegular)) */\n      swap2\n      swap1\n      0xffffffff\n      and\n      jump\t// in\n    tag_377:\n        /* \"Users/leilei/Downloads/MasterChefV2/MasterChefV2.sol\":13240:13288  multiplier.mul(cakePerBlock(pool.isRegular)).mul */\n      tag_241\n      swap1\n        /* \"Users/leilei/Downloads/MasterChefV2/MasterChefV2.sol\":13240:13305  multiplier.mul(cakePerBlock(pool.isRegular)).mul(pool.allocPoint) */\n      swap2\n      swap1\n      0xffffffff\n      and\n      jump\t// in\n    tag_376:\n        /* \"Users/leilei/Downloads/MasterChefV2/MasterChefV2.sol\":13240:13309  multiplier.mul(cakePerBlock(pool.isRegular)).mul(pool.allocPoint).div */\n      tag_242\n      swap1\n        /* \"Users/leilei/Downloads/MasterChefV2/MasterChefV2.sol\":13240:13364  multiplier.mul(cakePerBlock(pool.isRegular)).mul(pool.allocPoint).div(... */\n      swap2\n      swap1\n      0xffffffff\n      and\n      jump\t// in\n    tag_375:\n        /* \"Users/leilei/Downloads/MasterChefV2/MasterChefV2.sol\":13219:13364  uint256 cakeReward = multiplier.mul(cakePerBlock(pool.isRegular)).mul(pool.allocPoint).div(... */\n      swap1\n      pop\n        /* \"Users/leilei/Downloads/MasterChefV2/MasterChefV2.sol\":13405:13481  pool.accCakePerShare.add((cakeReward.mul(ACC_CAKE_PRECISION).div(lpSupply))) */\n      tag_379\n        /* \"Users/leilei/Downloads/MasterChefV2/MasterChefV2.sol\":13431:13479  cakeReward.mul(ACC_CAKE_PRECISION).div(lpSupply) */\n      tag_380\n        /* \"Users/leilei/Downloads/MasterChefV2/MasterChefV2.sol\":13470:13478  lpSupply */\n      dup6\n        /* \"Users/leilei/Downloads/MasterChefV2/MasterChefV2.sol\":13431:13465  cakeReward.mul(ACC_CAKE_PRECISION) */\n      tag_381\n        /* \"Users/leilei/Downloads/MasterChefV2/MasterChefV2.sol\":4117:4121  1e18 */\n      0x0de0b6b3a7640000\n        /* \"Users/leilei/Downloads/MasterChefV2/MasterChefV2.sol\":13431:13441  cakeReward */\n      dup6\n        /* \"Users/leilei/Downloads/MasterChefV2/MasterChefV2.sol\":13431:13445  cakeReward.mul */\n      tag_241\n      swap1\n        /* \"Users/leilei/Downloads/MasterChefV2/MasterChefV2.sol\":13431:13465  cakeReward.mul(ACC_CAKE_PRECISION) */\n      swap2\n      swap1\n      0xffffffff\n      and\n      jump\t// in\n    tag_381:\n        /* \"Users/leilei/Downloads/MasterChefV2/MasterChefV2.sol\":13431:13469  cakeReward.mul(ACC_CAKE_PRECISION).div */\n      tag_242\n      swap1\n        /* \"Users/leilei/Downloads/MasterChefV2/MasterChefV2.sol\":13431:13479  cakeReward.mul(ACC_CAKE_PRECISION).div(lpSupply) */\n      swap2\n      swap1\n      0xffffffff\n      and\n      jump\t// in\n    tag_380:\n        /* \"Users/leilei/Downloads/MasterChefV2/MasterChefV2.sol\":13405:13409  pool */\n      dup7\n        /* \"Users/leilei/Downloads/MasterChefV2/MasterChefV2.sol\":13405:13425  pool.accCakePerShare */\n      0x00\n      add\n      mload\n        /* \"Users/leilei/Downloads/MasterChefV2/MasterChefV2.sol\":13405:13429  pool.accCakePerShare.add */\n      tag_250\n      swap1\n        /* \"Users/leilei/Downloads/MasterChefV2/MasterChefV2.sol\":13405:13481  pool.accCakePerShare.add((cakeReward.mul(ACC_CAKE_PRECISION).div(lpSupply))) */\n      swap2\n      swap1\n      0xffffffff\n      and\n      jump\t// in\n    tag_379:\n        /* \"Users/leilei/Downloads/MasterChefV2/MasterChefV2.sol\":13382:13386  pool */\n      dup6\n        /* \"Users/leilei/Downloads/MasterChefV2/MasterChefV2.sol\":13382:13402  pool.accCakePerShare */\n      0x00\n      add\n        /* \"Users/leilei/Downloads/MasterChefV2/MasterChefV2.sol\":13382:13481  pool.accCakePerShare = pool.accCakePerShare.add((cakeReward.mul(ACC_CAKE_PRECISION).div(lpSupply))) */\n      dup2\n      dup2\n      mstore\n      pop\n      pop\n        /* \"Users/leilei/Downloads/MasterChefV2/MasterChefV2.sol\":13083:13496  if (lpSupply > 0 && totalAllocPoint > 0) {... */\n      pop\n      pop\n    tag_373:\n        /* \"Users/leilei/Downloads/MasterChefV2/MasterChefV2.sol\":13532:13544  block.number */\n      number\n        /* \"Users/leilei/Downloads/MasterChefV2/MasterChefV2.sol\":13509:13513  pool */\n      dup4\n        /* \"Users/leilei/Downloads/MasterChefV2/MasterChefV2.sol\":13509:13529  pool.lastRewardBlock */\n      0x20\n      add\n        /* \"Users/leilei/Downloads/MasterChefV2/MasterChefV2.sol\":13509:13544  pool.lastRewardBlock = block.number */\n      dup2\n      dup2\n      mstore\n      pop\n      pop\n        /* \"Users/leilei/Downloads/MasterChefV2/MasterChefV2.sol\":13575:13579  pool */\n      dup3\n        /* \"Users/leilei/Downloads/MasterChefV2/MasterChefV2.sol\":13558:13566  poolInfo */\n      0x04\n        /* \"Users/leilei/Downloads/MasterChefV2/MasterChefV2.sol\":13567:13571  _pid */\n      dup6\n        /* \"Users/leilei/Downloads/MasterChefV2/MasterChefV2.sol\":13558:13572  poolInfo[_pid] */\n      dup2\n      sload\n      dup2\n      lt\n      tag_382\n      jumpi\n      invalid\n    tag_382:\n      swap1\n      0x00\n      mstore\n      keccak256(0x00, 0x20)\n      swap1\n      0x05\n      mul\n      add\n        /* \"Users/leilei/Downloads/MasterChefV2/MasterChefV2.sol\":13558:13579  poolInfo[_pid] = pool */\n      0x00\n      dup3\n      add\n      mload\n      dup2\n      0x00\n      add\n      sstore\n      0x20\n      dup3\n      add\n      mload\n      dup2\n      0x01\n      add\n      sstore\n      0x40\n      dup3\n      add\n      mload\n      dup2\n      0x02\n      add\n      sstore\n      0x60\n      dup3\n      add\n      mload\n      dup2\n      0x03\n      add\n      sstore\n      0x80\n      dup3\n      add\n      mload\n      dup2\n      0x04\n      add\n      exp(0x0100, 0x00)\n      dup2\n      sload\n      dup2\n      0xff\n      mul\n      not\n      and\n      swap1\n      dup4\n      iszero\n      iszero\n      mul\n      or\n      swap1\n      sstore\n      pop\n      swap1\n      pop\n      pop\n        /* \"Users/leilei/Downloads/MasterChefV2/MasterChefV2.sol\":13609:13613  _pid */\n      dup4\n        /* \"Users/leilei/Downloads/MasterChefV2/MasterChefV2.sol\":13598:13668  UpdatePool(_pid, pool.lastRewardBlock, lpSupply, pool.accCakePerShare) */\n      0x3be3541fc42237d611b30329040bfa4569541d156560acdbbae57640d20b8f46\n        /* \"Users/leilei/Downloads/MasterChefV2/MasterChefV2.sol\":13615:13619  pool */\n      dup5\n        /* \"Users/leilei/Downloads/MasterChefV2/MasterChefV2.sol\":13615:13635  pool.lastRewardBlock */\n      0x20\n      add\n      mload\n        /* \"Users/leilei/Downloads/MasterChefV2/MasterChefV2.sol\":13637:13645  lpSupply */\n      dup5\n        /* \"Users/leilei/Downloads/MasterChefV2/MasterChefV2.sol\":13647:13651  pool */\n      dup7\n        /* \"Users/leilei/Downloads/MasterChefV2/MasterChefV2.sol\":13647:13667  pool.accCakePerShare */\n      0x00\n      add\n      mload\n        /* \"Users/leilei/Downloads/MasterChefV2/MasterChefV2.sol\":13598:13668  UpdatePool(_pid, pool.lastRewardBlock, lpSupply, pool.accCakePerShare) */\n      mload(0x40)\n      tag_384\n      swap4\n      swap3\n      swap2\n      swap1\n      tag_157\n      jump\t// in\n    tag_384:\n      mload(0x40)\n      dup1\n      swap2\n      sub\n      swap1\n      log2\n        /* \"Users/leilei/Downloads/MasterChefV2/MasterChefV2.sol\":12866:13679  if (block.number > pool.lastRewardBlock) {... */\n      pop\n      pop\n    tag_369:\n        /* \"Users/leilei/Downloads/MasterChefV2/MasterChefV2.sol\":12753:13685  function updatePool(uint256 _pid) public returns (PoolInfo memory pool) {... */\n      swap2\n      swap1\n      pop\n      jump\t// out\n        /* \"Users/leilei/Downloads/MasterChefV2/MasterChefV2.sol\":16427:17104  function emergencyWithdraw(uint256 _pid) external nonReentrant {... */\n    tag_118:\n        /* \"Users/leilei/Downloads/MasterChefV2/ReentrancyGuard.sol\":1671:1672  2 */\n      0x02\n        /* \"Users/leilei/Downloads/MasterChefV2/ReentrancyGuard.sol\":2260:2267  _status */\n      sload(0x01)\n        /* \"Users/leilei/Downloads/MasterChefV2/ReentrancyGuard.sol\":2260:2279  _status != _ENTERED */\n      eq\n      iszero\n        /* \"Users/leilei/Downloads/MasterChefV2/ReentrancyGuard.sol\":2252:2315  require(_status != _ENTERED, \"ReentrancyGuard: reentrant call\") */\n      tag_386\n      jumpi\n      mload(0x40)\n      0x08c379a000000000000000000000000000000000000000000000000000000000\n      dup2\n      mstore\n      0x04\n      add\n      tag_387\n      swap1\n      tag_217\n      jump\t// in\n    tag_387:\n      mload(0x40)\n      dup1\n      swap2\n      sub\n      swap1\n      revert\n    tag_386:\n        /* \"Users/leilei/Downloads/MasterChefV2/ReentrancyGuard.sol\":1671:1672  2 */\n      0x02\n        /* \"Users/leilei/Downloads/MasterChefV2/ReentrancyGuard.sol\":2390:2397  _status */\n      0x01\n        /* \"Users/leilei/Downloads/MasterChefV2/ReentrancyGuard.sol\":2390:2408  _status = _ENTERED */\n      dup2\n      swap1\n      sstore\n      pop\n        /* \"Users/leilei/Downloads/MasterChefV2/MasterChefV2.sol\":16500:16521  PoolInfo storage pool */\n      0x00\n        /* \"Users/leilei/Downloads/MasterChefV2/MasterChefV2.sol\":16524:16532  poolInfo */\n      0x04\n        /* \"Users/leilei/Downloads/MasterChefV2/MasterChefV2.sol\":16533:16537  _pid */\n      dup3\n        /* \"Users/leilei/Downloads/MasterChefV2/MasterChefV2.sol\":16524:16538  poolInfo[_pid] */\n      dup2\n      sload\n      dup2\n      lt\n      tag_389\n      jumpi\n      invalid\n    tag_389:\n      swap1\n      0x00\n      mstore\n      keccak256(0x00, 0x20)\n      swap1\n      0x05\n      mul\n      add\n        /* \"Users/leilei/Downloads/MasterChefV2/MasterChefV2.sol\":16500:16538  PoolInfo storage pool = poolInfo[_pid] */\n      swap1\n      pop\n        /* \"Users/leilei/Downloads/MasterChefV2/MasterChefV2.sol\":16548:16569  UserInfo storage user */\n      0x00\n        /* \"Users/leilei/Downloads/MasterChefV2/MasterChefV2.sol\":16572:16580  userInfo */\n      0x06\n        /* \"Users/leilei/Downloads/MasterChefV2/MasterChefV2.sol\":16572:16586  userInfo[_pid] */\n      0x00\n        /* \"Users/leilei/Downloads/MasterChefV2/MasterChefV2.sol\":16581:16585  _pid */\n      dup5\n        /* \"Users/leilei/Downloads/MasterChefV2/MasterChefV2.sol\":16572:16586  userInfo[_pid] */\n      dup2\n      mstore\n      0x20\n      add\n      swap1\n      dup2\n      mstore\n      0x20\n      add\n      0x00\n      keccak256\n        /* \"Users/leilei/Downloads/MasterChefV2/MasterChefV2.sol\":16572:16598  userInfo[_pid][msg.sender] */\n      0x00\n        /* \"Users/leilei/Downloads/MasterChefV2/MasterChefV2.sol\":16587:16597  msg.sender */\n      caller\n        /* \"Users/leilei/Downloads/MasterChefV2/MasterChefV2.sol\":16572:16598  userInfo[_pid][msg.sender] */\n      0xffffffffffffffffffffffffffffffffffffffff\n      and\n      0xffffffffffffffffffffffffffffffffffffffff\n      and\n      dup2\n      mstore\n      0x20\n      add\n      swap1\n      dup2\n      mstore\n      0x20\n      add\n      0x00\n      keccak256\n        /* \"Users/leilei/Downloads/MasterChefV2/MasterChefV2.sol\":16548:16598  UserInfo storage user = userInfo[_pid][msg.sender] */\n      swap1\n      pop\n        /* \"Users/leilei/Downloads/MasterChefV2/MasterChefV2.sol\":16609:16623  uint256 amount */\n      0x00\n        /* \"Users/leilei/Downloads/MasterChefV2/MasterChefV2.sol\":16626:16630  user */\n      dup2\n        /* \"Users/leilei/Downloads/MasterChefV2/MasterChefV2.sol\":16626:16637  user.amount */\n      0x00\n      add\n      sload\n        /* \"Users/leilei/Downloads/MasterChefV2/MasterChefV2.sol\":16609:16637  uint256 amount = user.amount */\n      swap1\n      pop\n        /* \"Users/leilei/Downloads/MasterChefV2/MasterChefV2.sol\":16661:16662  0 */\n      0x00\n        /* \"Users/leilei/Downloads/MasterChefV2/MasterChefV2.sol\":16647:16651  user */\n      dup3\n        /* \"Users/leilei/Downloads/MasterChefV2/MasterChefV2.sol\":16647:16658  user.amount */\n      0x00\n      add\n        /* \"Users/leilei/Downloads/MasterChefV2/MasterChefV2.sol\":16647:16662  user.amount = 0 */\n      dup2\n      swap1\n      sstore\n      pop\n        /* \"Users/leilei/Downloads/MasterChefV2/MasterChefV2.sol\":16690:16691  0 */\n      0x00\n        /* \"Users/leilei/Downloads/MasterChefV2/MasterChefV2.sol\":16672:16676  user */\n      dup3\n        /* \"Users/leilei/Downloads/MasterChefV2/MasterChefV2.sol\":16672:16687  user.rewardDebt */\n      0x01\n      add\n        /* \"Users/leilei/Downloads/MasterChefV2/MasterChefV2.sol\":16672:16691  user.rewardDebt = 0 */\n      dup2\n      swap1\n      sstore\n      pop\n        /* \"Users/leilei/Downloads/MasterChefV2/MasterChefV2.sol\":16701:16722  uint256 boostedAmount */\n      0x00\n        /* \"Users/leilei/Downloads/MasterChefV2/MasterChefV2.sol\":16725:16794  amount.mul(getBoostMultiplier(msg.sender, _pid)).div(BOOST_PRECISION) */\n      tag_391\n        /* \"Users/leilei/Downloads/MasterChefV2/MasterChefV2.sol\":4239:4249  100 * 1e10 */\n      0xe8d4a51000\n        /* \"Users/leilei/Downloads/MasterChefV2/MasterChefV2.sol\":16725:16773  amount.mul(getBoostMultiplier(msg.sender, _pid)) */\n      tag_392\n        /* \"Users/leilei/Downloads/MasterChefV2/MasterChefV2.sol\":16736:16772  getBoostMultiplier(msg.sender, _pid) */\n      tag_393\n        /* \"Users/leilei/Downloads/MasterChefV2/MasterChefV2.sol\":16755:16765  msg.sender */\n      caller\n        /* \"Users/leilei/Downloads/MasterChefV2/MasterChefV2.sol\":16767:16771  _pid */\n      dup10\n        /* \"Users/leilei/Downloads/MasterChefV2/MasterChefV2.sol\":16736:16754  getBoostMultiplier */\n      tag_56\n        /* \"Users/leilei/Downloads/MasterChefV2/MasterChefV2.sol\":16736:16772  getBoostMultiplier(msg.sender, _pid) */\n      jump\t// in\n    tag_393:\n        /* \"Users/leilei/Downloads/MasterChefV2/MasterChefV2.sol\":16725:16731  amount */\n      dup6\n        /* \"Users/leilei/Downloads/MasterChefV2/MasterChefV2.sol\":16725:16735  amount.mul */\n      tag_241\n      swap1\n        /* \"Users/leilei/Downloads/MasterChefV2/MasterChefV2.sol\":16725:16773  amount.mul(getBoostMultiplier(msg.sender, _pid)) */\n      swap2\n      swap1\n      0xffffffff\n      and\n      jump\t// in\n    tag_392:\n        /* \"Users/leilei/Downloads/MasterChefV2/MasterChefV2.sol\":16725:16777  amount.mul(getBoostMultiplier(msg.sender, _pid)).div */\n      tag_242\n      swap1\n        /* \"Users/leilei/Downloads/MasterChefV2/MasterChefV2.sol\":16725:16794  amount.mul(getBoostMultiplier(msg.sender, _pid)).div(BOOST_PRECISION) */\n      swap2\n      swap1\n      0xffffffff\n      and\n      jump\t// in\n    tag_391:\n        /* \"Users/leilei/Downloads/MasterChefV2/MasterChefV2.sol\":16701:16794  uint256 boostedAmount = amount.mul(getBoostMultiplier(msg.sender, _pid)).div(BOOST_PRECISION) */\n      swap1\n      pop\n        /* \"Users/leilei/Downloads/MasterChefV2/MasterChefV2.sol\":16854:16867  boostedAmount */\n      dup1\n        /* \"Users/leilei/Downloads/MasterChefV2/MasterChefV2.sol\":16829:16833  pool */\n      dup5\n        /* \"Users/leilei/Downloads/MasterChefV2/MasterChefV2.sol\":16829:16851  pool.totalBoostedShare */\n      0x03\n      add\n      sload\n        /* \"Users/leilei/Downloads/MasterChefV2/MasterChefV2.sol\":16829:16867  pool.totalBoostedShare > boostedAmount */\n      gt\n        /* \"Users/leilei/Downloads/MasterChefV2/MasterChefV2.sol\":16829:16915  pool.totalBoostedShare > boostedAmount ? pool.totalBoostedShare.sub(boostedAmount) : 0 */\n      tag_394\n      jumpi\n        /* \"Users/leilei/Downloads/MasterChefV2/MasterChefV2.sol\":16914:16915  0 */\n      0x00\n        /* \"Users/leilei/Downloads/MasterChefV2/MasterChefV2.sol\":16829:16915  pool.totalBoostedShare > boostedAmount ? pool.totalBoostedShare.sub(boostedAmount) : 0 */\n      jump(tag_395)\n    tag_394:\n        /* \"Users/leilei/Downloads/MasterChefV2/MasterChefV2.sol\":16870:16911  pool.totalBoostedShare.sub(boostedAmount) */\n      tag_396\n        /* \"Users/leilei/Downloads/MasterChefV2/MasterChefV2.sol\":16897:16910  boostedAmount */\n      dup2\n        /* \"Users/leilei/Downloads/MasterChefV2/MasterChefV2.sol\":16870:16874  pool */\n      dup6\n        /* \"Users/leilei/Downloads/MasterChefV2/MasterChefV2.sol\":16870:16892  pool.totalBoostedShare */\n      0x03\n      add\n      sload\n        /* \"Users/leilei/Downloads/MasterChefV2/MasterChefV2.sol\":16870:16896  pool.totalBoostedShare.sub */\n      tag_249\n      swap1\n        /* \"Users/leilei/Downloads/MasterChefV2/MasterChefV2.sol\":16870:16911  pool.totalBoostedShare.sub(boostedAmount) */\n      swap2\n      swap1\n      0xffffffff\n      and\n      jump\t// in\n    tag_396:\n        /* \"Users/leilei/Downloads/MasterChefV2/MasterChefV2.sol\":16829:16915  pool.totalBoostedShare > boostedAmount ? pool.totalBoostedShare.sub(boostedAmount) : 0 */\n    tag_395:\n        /* \"Users/leilei/Downloads/MasterChefV2/MasterChefV2.sol\":16804:16808  pool */\n      dup5\n        /* \"Users/leilei/Downloads/MasterChefV2/MasterChefV2.sol\":16804:16826  pool.totalBoostedShare */\n      0x03\n      add\n        /* \"Users/leilei/Downloads/MasterChefV2/MasterChefV2.sol\":16804:16915  pool.totalBoostedShare = pool.totalBoostedShare > boostedAmount ? pool.totalBoostedShare.sub(boostedAmount) : 0 */\n      dup2\n      swap1\n      sstore\n      pop\n        /* \"Users/leilei/Downloads/MasterChefV2/MasterChefV2.sol\":16993:17039  lpToken[_pid].safeTransfer(msg.sender, amount) */\n      tag_397\n        /* \"Users/leilei/Downloads/MasterChefV2/MasterChefV2.sol\":17020:17030  msg.sender */\n      caller\n        /* \"Users/leilei/Downloads/MasterChefV2/MasterChefV2.sol\":17032:17038  amount */\n      dup4\n        /* \"Users/leilei/Downloads/MasterChefV2/MasterChefV2.sol\":16993:17000  lpToken */\n      0x05\n        /* \"Users/leilei/Downloads/MasterChefV2/MasterChefV2.sol\":17001:17005  _pid */\n      dup9\n        /* \"Users/leilei/Downloads/MasterChefV2/MasterChefV2.sol\":16993:17006  lpToken[_pid] */\n      dup2\n      sload\n      dup2\n      lt\n      tag_398\n      jumpi\n      invalid\n    tag_398:\n      swap1\n      0x00\n      mstore\n      keccak256(0x00, 0x20)\n      add\n      0x00\n      swap1\n      sload\n      swap1\n      0x0100\n      exp\n      swap1\n      div\n      0xffffffffffffffffffffffffffffffffffffffff\n      and\n        /* \"Users/leilei/Downloads/MasterChefV2/MasterChefV2.sol\":16993:17019  lpToken[_pid].safeTransfer */\n      0xffffffffffffffffffffffffffffffffffffffff\n      and\n      tag_346\n      swap1\n        /* \"Users/leilei/Downloads/MasterChefV2/MasterChefV2.sol\":16993:17039  lpToken[_pid].safeTransfer(msg.sender, amount) */\n      swap3\n      swap2\n      swap1\n      0xffffffff\n      and\n      jump\t// in\n    tag_397:\n        /* \"Users/leilei/Downloads/MasterChefV2/MasterChefV2.sol\":17084:17088  _pid */\n      dup5\n        /* \"Users/leilei/Downloads/MasterChefV2/MasterChefV2.sol\":17072:17082  msg.sender */\n      caller\n        /* \"Users/leilei/Downloads/MasterChefV2/MasterChefV2.sol\":17054:17097  EmergencyWithdraw(msg.sender, _pid, amount) */\n      0xffffffffffffffffffffffffffffffffffffffff\n      and\n      0xbb757047c2b5f3974fe26b7c10f732e7bce710b0952a71082702781e62ae0595\n        /* \"Users/leilei/Downloads/MasterChefV2/MasterChefV2.sol\":17090:17096  amount */\n      dup5\n        /* \"Users/leilei/Downloads/MasterChefV2/MasterChefV2.sol\":17054:17097  EmergencyWithdraw(msg.sender, _pid, amount) */\n      mload(0x40)\n      tag_400\n      swap2\n      swap1\n      tag_58\n      jump\t// in\n    tag_400:\n      mload(0x40)\n      dup1\n      swap2\n      sub\n      swap1\n      log3\n        /* \"Users/leilei/Downloads/MasterChefV2/ReentrancyGuard.sol\":2419:2420  _ */\n      pop\n      pop\n      pop\n      pop\n        /* \"Users/leilei/Downloads/MasterChefV2/ReentrancyGuard.sol\":1628:1629  1 */\n      0x01\n        /* \"Users/leilei/Downloads/MasterChefV2/ReentrancyGuard.sol\":2563:2570  _status */\n      dup1\n        /* \"Users/leilei/Downloads/MasterChefV2/ReentrancyGuard.sol\":2563:2585  _status = _NOT_ENTERED */\n      dup2\n      swap1\n      sstore\n      pop\n        /* \"Users/leilei/Downloads/MasterChefV2/MasterChefV2.sol\":16427:17104  function emergencyWithdraw(uint256 _pid) external nonReentrant {... */\n      pop\n      jump\t// out\n        /* \"Users/leilei/Downloads/MasterChefV2/MasterChefV2.sol\":3622:3657  uint256 public immutable MASTER_PID */\n    tag_120:\n      immutable(\"0x3ac7ca38fd21a491cc5fb19169926fdbe6b54822181a3fae6f9aebec8e42713d\")\n      dup2\n      jump\t// out\n        /* \"Users/leilei/Downloads/MasterChefV2/MasterChefV2.sol\":11544:11827  function massUpdatePools() public {... */\n    tag_123:\n        /* \"Users/leilei/Downloads/MasterChefV2/MasterChefV2.sol\":11588:11602  uint256 length */\n      0x00\n        /* \"Users/leilei/Downloads/MasterChefV2/MasterChefV2.sol\":11605:11613  poolInfo */\n      0x04\n        /* \"Users/leilei/Downloads/MasterChefV2/MasterChefV2.sol\":11605:11620  poolInfo.length */\n      dup1\n      sload\n      swap1\n      pop\n        /* \"Users/leilei/Downloads/MasterChefV2/MasterChefV2.sol\":11588:11620  uint256 length = poolInfo.length */\n      swap1\n      pop\n        /* \"Users/leilei/Downloads/MasterChefV2/MasterChefV2.sol\":11635:11646  uint256 pid */\n      0x00\n        /* \"Users/leilei/Downloads/MasterChefV2/MasterChefV2.sol\":11630:11821  for (uint256 pid = 0; pid < length; ++pid) {... */\n    tag_402:\n        /* \"Users/leilei/Downloads/MasterChefV2/MasterChefV2.sol\":11658:11664  length */\n      dup2\n        /* \"Users/leilei/Downloads/MasterChefV2/MasterChefV2.sol\":11652:11655  pid */\n      dup2\n        /* \"Users/leilei/Downloads/MasterChefV2/MasterChefV2.sol\":11652:11664  pid < length */\n      lt\n        /* \"Users/leilei/Downloads/MasterChefV2/MasterChefV2.sol\":11630:11821  for (uint256 pid = 0; pid < length; ++pid) {... */\n      iszero\n      tag_403\n      jumpi\n        /* \"Users/leilei/Downloads/MasterChefV2/MasterChefV2.sol\":11687:11707  PoolInfo memory pool */\n      tag_405\n      tag_232\n      jump\t// in\n    tag_405:\n        /* \"Users/leilei/Downloads/MasterChefV2/MasterChefV2.sol\":11710:11718  poolInfo */\n      0x04\n        /* \"Users/leilei/Downloads/MasterChefV2/MasterChefV2.sol\":11719:11722  pid */\n      dup3\n        /* \"Users/leilei/Downloads/MasterChefV2/MasterChefV2.sol\":11710:11723  poolInfo[pid] */\n      dup2\n      sload\n      dup2\n      lt\n      tag_406\n      jumpi\n      invalid\n    tag_406:\n      swap1\n      0x00\n      mstore\n      keccak256(0x00, 0x20)\n      swap1\n      0x05\n      mul\n      add\n        /* \"Users/leilei/Downloads/MasterChefV2/MasterChefV2.sol\":11687:11723  PoolInfo memory pool = poolInfo[pid] */\n      mload(0x40)\n      dup1\n      0xa0\n      add\n      0x40\n      mstore\n      swap1\n      dup2\n      0x00\n      dup3\n      add\n      sload\n      dup2\n      mstore\n      0x20\n      add\n      0x01\n      dup3\n      add\n      sload\n      dup2\n      mstore\n      0x20\n      add\n      0x02\n      dup3\n      add\n      sload\n      dup2\n      mstore\n      0x20\n      add\n      0x03\n      dup3\n      add\n      sload\n      dup2\n      mstore\n      0x20\n      add\n      0x04\n      dup3\n      add\n      0x00\n      swap1\n      sload\n      swap1\n      0x0100\n      exp\n      swap1\n      div\n      0xff\n      and\n      iszero\n      iszero\n      iszero\n      iszero\n      dup2\n      mstore\n      pop\n      pop\n      swap1\n      pop\n        /* \"Users/leilei/Downloads/MasterChefV2/MasterChefV2.sol\":11760:11761  0 */\n      0x00\n        /* \"Users/leilei/Downloads/MasterChefV2/MasterChefV2.sol\":11741:11745  pool */\n      dup2\n        /* \"Users/leilei/Downloads/MasterChefV2/MasterChefV2.sol\":11741:11756  pool.allocPoint */\n      0x40\n      add\n      mload\n        /* \"Users/leilei/Downloads/MasterChefV2/MasterChefV2.sol\":11741:11761  pool.allocPoint != 0 */\n      eq\n        /* \"Users/leilei/Downloads/MasterChefV2/MasterChefV2.sol\":11737:11811  if (pool.allocPoint != 0) {... */\n      tag_408\n      jumpi\n        /* \"Users/leilei/Downloads/MasterChefV2/MasterChefV2.sol\":11781:11796  updatePool(pid) */\n      tag_409\n        /* \"Users/leilei/Downloads/MasterChefV2/MasterChefV2.sol\":11792:11795  pid */\n      dup3\n        /* \"Users/leilei/Downloads/MasterChefV2/MasterChefV2.sol\":11781:11791  updatePool */\n      tag_113\n        /* \"Users/leilei/Downloads/MasterChefV2/MasterChefV2.sol\":11781:11796  updatePool(pid) */\n      jump\t// in\n    tag_409:\n      pop\n        /* \"Users/leilei/Downloads/MasterChefV2/MasterChefV2.sol\":11737:11811  if (pool.allocPoint != 0) {... */\n    tag_408:\n        /* \"Users/leilei/Downloads/MasterChefV2/MasterChefV2.sol\":11630:11821  for (uint256 pid = 0; pid < length; ++pid) {... */\n      pop\n        /* \"Users/leilei/Downloads/MasterChefV2/MasterChefV2.sol\":11666:11671  ++pid */\n      dup1\n      0x01\n      add\n      swap1\n      pop\n        /* \"Users/leilei/Downloads/MasterChefV2/MasterChefV2.sol\":11630:11821  for (uint256 pid = 0; pid < length; ++pid) {... */\n      jump(tag_402)\n    tag_403:\n      pop\n        /* \"Users/leilei/Downloads/MasterChefV2/MasterChefV2.sol\":11544:11827  function massUpdatePools() public {... */\n      pop\n      jump\t// out\n        /* \"Users/leilei/Downloads/MasterChefV2/MasterChefV2.sol\":9616:10327  function set(... */\n    tag_127:\n        /* \"Users/leilei/Downloads/MasterChefV2/Ownable.sol\":1275:1287  _msgSender() */\n      tag_411\n        /* \"Users/leilei/Downloads/MasterChefV2/Ownable.sol\":1275:1285  _msgSender */\n      tag_257\n        /* \"Users/leilei/Downloads/MasterChefV2/Ownable.sol\":1275:1287  _msgSender() */\n      jump\t// in\n    tag_411:\n        /* \"Users/leilei/Downloads/MasterChefV2/Ownable.sol\":1265:1287  _owner == _msgSender() */\n      0xffffffffffffffffffffffffffffffffffffffff\n      and\n        /* \"Users/leilei/Downloads/MasterChefV2/Ownable.sol\":1265:1271  _owner */\n      0x00\n      dup1\n      sload\n      swap1\n      0x0100\n      exp\n      swap1\n      div\n      0xffffffffffffffffffffffffffffffffffffffff\n      and\n        /* \"Users/leilei/Downloads/MasterChefV2/Ownable.sol\":1265:1287  _owner == _msgSender() */\n      0xffffffffffffffffffffffffffffffffffffffff\n      and\n      eq\n        /* \"Users/leilei/Downloads/MasterChefV2/Ownable.sol\":1257:1324  require(_owner == _msgSender(), \"Ownable: caller is not the owner\") */\n      tag_412\n      jumpi\n      mload(0x40)\n      0x08c379a000000000000000000000000000000000000000000000000000000000\n      dup2\n      mstore\n      0x04\n      add\n      tag_413\n      swap1\n      tag_260\n      jump\t// in\n    tag_413:\n      mload(0x40)\n      dup1\n      swap2\n      sub\n      swap1\n      revert\n    tag_412:\n        /* \"Users/leilei/Downloads/MasterChefV2/MasterChefV2.sol\":9859:9875  updatePool(_pid) */\n      tag_415\n        /* \"Users/leilei/Downloads/MasterChefV2/MasterChefV2.sol\":9870:9874  _pid */\n      dup4\n        /* \"Users/leilei/Downloads/MasterChefV2/MasterChefV2.sol\":9859:9869  updatePool */\n      tag_113\n        /* \"Users/leilei/Downloads/MasterChefV2/MasterChefV2.sol\":9859:9875  updatePool(_pid) */\n      jump\t// in\n    tag_415:\n      pop\n        /* \"Users/leilei/Downloads/MasterChefV2/MasterChefV2.sol\":9890:9901  _withUpdate */\n      dup1\n        /* \"Users/leilei/Downloads/MasterChefV2/MasterChefV2.sol\":9886:9945  if (_withUpdate) {... */\n      iszero\n      tag_416\n      jumpi\n        /* \"Users/leilei/Downloads/MasterChefV2/MasterChefV2.sol\":9917:9934  massUpdatePools() */\n      tag_417\n        /* \"Users/leilei/Downloads/MasterChefV2/MasterChefV2.sol\":9917:9932  massUpdatePools */\n      tag_123\n        /* \"Users/leilei/Downloads/MasterChefV2/MasterChefV2.sol\":9917:9934  massUpdatePools() */\n      jump\t// in\n    tag_417:\n        /* \"Users/leilei/Downloads/MasterChefV2/MasterChefV2.sol\":9886:9945  if (_withUpdate) {... */\n    tag_416:\n        /* \"Users/leilei/Downloads/MasterChefV2/MasterChefV2.sol\":9959:9967  poolInfo */\n      0x04\n        /* \"Users/leilei/Downloads/MasterChefV2/MasterChefV2.sol\":9968:9972  _pid */\n      dup4\n        /* \"Users/leilei/Downloads/MasterChefV2/MasterChefV2.sol\":9959:9973  poolInfo[_pid] */\n      dup2\n      sload\n      dup2\n      lt\n      tag_418\n      jumpi\n      invalid\n    tag_418:\n      swap1\n      0x00\n      mstore\n      keccak256(0x00, 0x20)\n      swap1\n      0x05\n      mul\n      add\n        /* \"Users/leilei/Downloads/MasterChefV2/MasterChefV2.sol\":9959:9983  poolInfo[_pid].isRegular */\n      0x04\n      add\n      0x00\n      swap1\n      sload\n      swap1\n      0x0100\n      exp\n      swap1\n      div\n      0xff\n      and\n        /* \"Users/leilei/Downloads/MasterChefV2/MasterChefV2.sol\":9955:10231  if (poolInfo[_pid].isRegular) {... */\n      iszero\n      tag_420\n      jumpi\n        /* \"Users/leilei/Downloads/MasterChefV2/MasterChefV2.sol\":10024:10094  totalRegularAllocPoint.sub(poolInfo[_pid].allocPoint).add(_allocPoint) */\n      tag_421\n        /* \"Users/leilei/Downloads/MasterChefV2/MasterChefV2.sol\":10082:10093  _allocPoint */\n      dup3\n        /* \"Users/leilei/Downloads/MasterChefV2/MasterChefV2.sol\":10024:10077  totalRegularAllocPoint.sub(poolInfo[_pid].allocPoint) */\n      tag_422\n        /* \"Users/leilei/Downloads/MasterChefV2/MasterChefV2.sol\":10051:10059  poolInfo */\n      0x04\n        /* \"Users/leilei/Downloads/MasterChefV2/MasterChefV2.sol\":10060:10064  _pid */\n      dup7\n        /* \"Users/leilei/Downloads/MasterChefV2/MasterChefV2.sol\":10051:10065  poolInfo[_pid] */\n      dup2\n      sload\n      dup2\n      lt\n      tag_423\n      jumpi\n      invalid\n    tag_423:\n      swap1\n      0x00\n      mstore\n      keccak256(0x00, 0x20)\n      swap1\n      0x05\n      mul\n      add\n        /* \"Users/leilei/Downloads/MasterChefV2/MasterChefV2.sol\":10051:10076  poolInfo[_pid].allocPoint */\n      0x02\n      add\n      sload\n        /* \"Users/leilei/Downloads/MasterChefV2/MasterChefV2.sol\":10024:10046  totalRegularAllocPoint */\n      sload(0x08)\n        /* \"Users/leilei/Downloads/MasterChefV2/MasterChefV2.sol\":10024:10050  totalRegularAllocPoint.sub */\n      tag_249\n      swap1\n        /* \"Users/leilei/Downloads/MasterChefV2/MasterChefV2.sol\":10024:10077  totalRegularAllocPoint.sub(poolInfo[_pid].allocPoint) */\n      swap2\n      swap1\n      0xffffffff\n      and\n      jump\t// in\n    tag_422:\n        /* \"Users/leilei/Downloads/MasterChefV2/MasterChefV2.sol\":10024:10081  totalRegularAllocPoint.sub(poolInfo[_pid].allocPoint).add */\n      tag_250\n      swap1\n        /* \"Users/leilei/Downloads/MasterChefV2/MasterChefV2.sol\":10024:10094  totalRegularAllocPoint.sub(poolInfo[_pid].allocPoint).add(_allocPoint) */\n      swap2\n      swap1\n      0xffffffff\n      and\n      jump\t// in\n    tag_421:\n        /* \"Users/leilei/Downloads/MasterChefV2/MasterChefV2.sol\":9999:10021  totalRegularAllocPoint */\n      0x08\n        /* \"Users/leilei/Downloads/MasterChefV2/MasterChefV2.sol\":9999:10094  totalRegularAllocPoint = totalRegularAllocPoint.sub(poolInfo[_pid].allocPoint).add(_allocPoint) */\n      dup2\n      swap1\n      sstore\n      pop\n        /* \"Users/leilei/Downloads/MasterChefV2/MasterChefV2.sol\":9955:10231  if (poolInfo[_pid].isRegular) {... */\n      jump(tag_425)\n    tag_420:\n        /* \"Users/leilei/Downloads/MasterChefV2/MasterChefV2.sol\":10150:10220  totalSpecialAllocPoint.sub(poolInfo[_pid].allocPoint).add(_allocPoint) */\n      tag_426\n        /* \"Users/leilei/Downloads/MasterChefV2/MasterChefV2.sol\":10208:10219  _allocPoint */\n      dup3\n        /* \"Users/leilei/Downloads/MasterChefV2/MasterChefV2.sol\":10150:10203  totalSpecialAllocPoint.sub(poolInfo[_pid].allocPoint) */\n      tag_427\n        /* \"Users/leilei/Downloads/MasterChefV2/MasterChefV2.sol\":10177:10185  poolInfo */\n      0x04\n        /* \"Users/leilei/Downloads/MasterChefV2/MasterChefV2.sol\":10186:10190  _pid */\n      dup7\n        /* \"Users/leilei/Downloads/MasterChefV2/MasterChefV2.sol\":10177:10191  poolInfo[_pid] */\n      dup2\n      sload\n      dup2\n      lt\n      tag_428\n      jumpi\n      invalid\n    tag_428:\n      swap1\n      0x00\n      mstore\n      keccak256(0x00, 0x20)\n      swap1\n      0x05\n      mul\n      add\n        /* \"Users/leilei/Downloads/MasterChefV2/MasterChefV2.sol\":10177:10202  poolInfo[_pid].allocPoint */\n      0x02\n      add\n      sload\n        /* \"Users/leilei/Downloads/MasterChefV2/MasterChefV2.sol\":10150:10172  totalSpecialAllocPoint */\n      sload(0x09)\n        /* \"Users/leilei/Downloads/MasterChefV2/MasterChefV2.sol\":10150:10176  totalSpecialAllocPoint.sub */\n      tag_249\n      swap1\n        /* \"Users/leilei/Downloads/MasterChefV2/MasterChefV2.sol\":10150:10203  totalSpecialAllocPoint.sub(poolInfo[_pid].allocPoint) */\n      swap2\n      swap1\n      0xffffffff\n      and\n      jump\t// in\n    tag_427:\n        /* \"Users/leilei/Downloads/MasterChefV2/MasterChefV2.sol\":10150:10207  totalSpecialAllocPoint.sub(poolInfo[_pid].allocPoint).add */\n      tag_250\n      swap1\n        /* \"Users/leilei/Downloads/MasterChefV2/MasterChefV2.sol\":10150:10220  totalSpecialAllocPoint.sub(poolInfo[_pid].allocPoint).add(_allocPoint) */\n      swap2\n      swap1\n      0xffffffff\n      and\n      jump\t// in\n    tag_426:\n        /* \"Users/leilei/Downloads/MasterChefV2/MasterChefV2.sol\":10125:10147  totalSpecialAllocPoint */\n      0x09\n        /* \"Users/leilei/Downloads/MasterChefV2/MasterChefV2.sol\":10125:10220  totalSpecialAllocPoint = totalSpecialAllocPoint.sub(poolInfo[_pid].allocPoint).add(_allocPoint) */\n      dup2\n      swap1\n      sstore\n      pop\n        /* \"Users/leilei/Downloads/MasterChefV2/MasterChefV2.sol\":9955:10231  if (poolInfo[_pid].isRegular) {... */\n    tag_425:\n        /* \"Users/leilei/Downloads/MasterChefV2/MasterChefV2.sol\":10268:10279  _allocPoint */\n      dup2\n        /* \"Users/leilei/Downloads/MasterChefV2/MasterChefV2.sol\":10240:10248  poolInfo */\n      0x04\n        /* \"Users/leilei/Downloads/MasterChefV2/MasterChefV2.sol\":10249:10253  _pid */\n      dup5\n        /* \"Users/leilei/Downloads/MasterChefV2/MasterChefV2.sol\":10240:10254  poolInfo[_pid] */\n      dup2\n      sload\n      dup2\n      lt\n      tag_430\n      jumpi\n      invalid\n    tag_430:\n      swap1\n      0x00\n      mstore\n      keccak256(0x00, 0x20)\n      swap1\n      0x05\n      mul\n      add\n        /* \"Users/leilei/Downloads/MasterChefV2/MasterChefV2.sol\":10240:10265  poolInfo[_pid].allocPoint */\n      0x02\n      add\n        /* \"Users/leilei/Downloads/MasterChefV2/MasterChefV2.sol\":10240:10279  poolInfo[_pid].allocPoint = _allocPoint */\n      dup2\n      swap1\n      sstore\n      pop\n        /* \"Users/leilei/Downloads/MasterChefV2/MasterChefV2.sol\":10302:10306  _pid */\n      dup3\n        /* \"Users/leilei/Downloads/MasterChefV2/MasterChefV2.sol\":10294:10320  SetPool(_pid, _allocPoint) */\n      0xc0cfd54d2de2b55f1e6e108d3ec53ff0a1abe6055401d32c61e9433b747ef9f8\n        /* \"Users/leilei/Downloads/MasterChefV2/MasterChefV2.sol\":10308:10319  _allocPoint */\n      dup4\n        /* \"Users/leilei/Downloads/MasterChefV2/MasterChefV2.sol\":10294:10320  SetPool(_pid, _allocPoint) */\n      mload(0x40)\n      tag_432\n      swap2\n      swap1\n      tag_58\n      jump\t// in\n    tag_432:\n      mload(0x40)\n      dup1\n      swap2\n      sub\n      swap1\n      log2\n        /* \"Users/leilei/Downloads/MasterChefV2/MasterChefV2.sol\":9616:10327  function set(... */\n      pop\n      pop\n      pop\n      jump\t// out\n        /* \"Users/leilei/Downloads/MasterChefV2/MasterChefV2.sol\":4345:4401  uint256 public constant MAX_BOOST_PRECISION = 200 * 1e10 */\n    tag_129:\n        /* \"Users/leilei/Downloads/MasterChefV2/MasterChefV2.sol\":4391:4401  200 * 1e10 */\n      0x01d1a94a2000\n        /* \"Users/leilei/Downloads/MasterChefV2/MasterChefV2.sol\":4345:4401  uint256 public constant MAX_BOOST_PRECISION = 200 * 1e10 */\n      dup2\n      jump\t// out\n        /* \"Users/leilei/Downloads/MasterChefV2/Ownable.sol\":1684:1829  function renounceOwnership() public virtual onlyOwner {... */\n    tag_132:\n        /* \"Users/leilei/Downloads/MasterChefV2/Ownable.sol\":1275:1287  _msgSender() */\n      tag_434\n        /* \"Users/leilei/Downloads/MasterChefV2/Ownable.sol\":1275:1285  _msgSender */\n      tag_257\n        /* \"Users/leilei/Downloads/MasterChefV2/Ownable.sol\":1275:1287  _msgSender() */\n      jump\t// in\n    tag_434:\n        /* \"Users/leilei/Downloads/MasterChefV2/Ownable.sol\":1265:1287  _owner == _msgSender() */\n      0xffffffffffffffffffffffffffffffffffffffff\n      and\n        /* \"Users/leilei/Downloads/MasterChefV2/Ownable.sol\":1265:1271  _owner */\n      0x00\n      dup1\n      sload\n      swap1\n      0x0100\n      exp\n      swap1\n      div\n      0xffffffffffffffffffffffffffffffffffffffff\n      and\n        /* \"Users/leilei/Downloads/MasterChefV2/Ownable.sol\":1265:1287  _owner == _msgSender() */\n      0xffffffffffffffffffffffffffffffffffffffff\n      and\n      eq\n        /* \"Users/leilei/Downloads/MasterChefV2/Ownable.sol\":1257:1324  require(_owner == _msgSender(), \"Ownable: caller is not the owner\") */\n      tag_435\n      jumpi\n      mload(0x40)\n      0x08c379a000000000000000000000000000000000000000000000000000000000\n      dup2\n      mstore\n      0x04\n      add\n      tag_436\n      swap1\n      tag_260\n      jump\t// in\n    tag_436:\n      mload(0x40)\n      dup1\n      swap2\n      sub\n      swap1\n      revert\n    tag_435:\n        /* \"Users/leilei/Downloads/MasterChefV2/Ownable.sol\":1790:1791  0 */\n      0x00\n        /* \"Users/leilei/Downloads/MasterChefV2/Ownable.sol\":1753:1793  OwnershipTransferred(_owner, address(0)) */\n      0xffffffffffffffffffffffffffffffffffffffff\n      and\n        /* \"Users/leilei/Downloads/MasterChefV2/Ownable.sol\":1774:1780  _owner */\n      0x00\n      dup1\n      sload\n      swap1\n      0x0100\n      exp\n      swap1\n      div\n      0xffffffffffffffffffffffffffffffffffffffff\n      and\n        /* \"Users/leilei/Downloads/MasterChefV2/Ownable.sol\":1753:1793  OwnershipTransferred(_owner, address(0)) */\n      0xffffffffffffffffffffffffffffffffffffffff\n      and\n      0x8be0079c531659141344cd1fd0a4f28419497f9722a3daafe3b4186f6b6457e0\n      mload(0x40)\n      mload(0x40)\n      dup1\n      swap2\n      sub\n      swap1\n      log3\n        /* \"Users/leilei/Downloads/MasterChefV2/Ownable.sol\":1820:1821  0 */\n      0x00\n        /* \"Users/leilei/Downloads/MasterChefV2/Ownable.sol\":1803:1809  _owner */\n      dup1\n      0x00\n        /* \"Users/leilei/Downloads/MasterChefV2/Ownable.sol\":1803:1822  _owner = address(0) */\n      0x0100\n      exp\n      dup2\n      sload\n      dup2\n      0xffffffffffffffffffffffffffffffffffffffff\n      mul\n      not\n      and\n      swap1\n      dup4\n      0xffffffffffffffffffffffffffffffffffffffff\n      and\n      mul\n      or\n      swap1\n      sstore\n      pop\n        /* \"Users/leilei/Downloads/MasterChefV2/Ownable.sol\":1684:1829  function renounceOwnership() public virtual onlyOwner {... */\n      jump\t// out\n        /* \"Users/leilei/Downloads/MasterChefV2/MasterChefV2.sol\":4072:4121  uint256 public constant ACC_CAKE_PRECISION = 1e18 */\n    tag_134:\n        /* \"Users/leilei/Downloads/MasterChefV2/MasterChefV2.sol\":4117:4121  1e18 */\n      0x0de0b6b3a7640000\n        /* \"Users/leilei/Downloads/MasterChefV2/MasterChefV2.sol\":4072:4121  uint256 public constant ACC_CAKE_PRECISION = 1e18 */\n      dup2\n      jump\t// out\n        /* \"Users/leilei/Downloads/MasterChefV2/MasterChefV2.sol\":17238:17628  function burnCake(bool _withUpdate) public onlyOwner {... */\n    tag_138:\n        /* \"Users/leilei/Downloads/MasterChefV2/Ownable.sol\":1275:1287  _msgSender() */\n      tag_439\n        /* \"Users/leilei/Downloads/MasterChefV2/Ownable.sol\":1275:1285  _msgSender */\n      tag_257\n        /* \"Users/leilei/Downloads/MasterChefV2/Ownable.sol\":1275:1287  _msgSender() */\n      jump\t// in\n    tag_439:\n        /* \"Users/leilei/Downloads/MasterChefV2/Ownable.sol\":1265:1287  _owner == _msgSender() */\n      0xffffffffffffffffffffffffffffffffffffffff\n      and\n        /* \"Users/leilei/Downloads/MasterChefV2/Ownable.sol\":1265:1271  _owner */\n      0x00\n      dup1\n      sload\n      swap1\n      0x0100\n      exp\n      swap1\n      div\n      0xffffffffffffffffffffffffffffffffffffffff\n      and\n        /* \"Users/leilei/Downloads/MasterChefV2/Ownable.sol\":1265:1287  _owner == _msgSender() */\n      0xffffffffffffffffffffffffffffffffffffffff\n      and\n      eq\n        /* \"Users/leilei/Downloads/MasterChefV2/Ownable.sol\":1257:1324  require(_owner == _msgSender(), \"Ownable: caller is not the owner\") */\n      tag_440\n      jumpi\n      mload(0x40)\n      0x08c379a000000000000000000000000000000000000000000000000000000000\n      dup2\n      mstore\n      0x04\n      add\n      tag_441\n      swap1\n      tag_260\n      jump\t// in\n    tag_441:\n      mload(0x40)\n      dup1\n      swap2\n      sub\n      swap1\n      revert\n    tag_440:\n        /* \"Users/leilei/Downloads/MasterChefV2/MasterChefV2.sol\":17305:17316  _withUpdate */\n      dup1\n        /* \"Users/leilei/Downloads/MasterChefV2/MasterChefV2.sol\":17301:17360  if (_withUpdate) {... */\n      iszero\n      tag_443\n      jumpi\n        /* \"Users/leilei/Downloads/MasterChefV2/MasterChefV2.sol\":17332:17349  massUpdatePools() */\n      tag_444\n        /* \"Users/leilei/Downloads/MasterChefV2/MasterChefV2.sol\":17332:17347  massUpdatePools */\n      tag_123\n        /* \"Users/leilei/Downloads/MasterChefV2/MasterChefV2.sol\":17332:17349  massUpdatePools() */\n      jump\t// in\n    tag_444:\n        /* \"Users/leilei/Downloads/MasterChefV2/MasterChefV2.sol\":17301:17360  if (_withUpdate) {... */\n    tag_443:\n        /* \"Users/leilei/Downloads/MasterChefV2/MasterChefV2.sol\":17370:17388  uint256 multiplier */\n      0x00\n        /* \"Users/leilei/Downloads/MasterChefV2/MasterChefV2.sol\":17391:17424  block.number.sub(lastBurnedBlock) */\n      tag_445\n        /* \"Users/leilei/Downloads/MasterChefV2/MasterChefV2.sol\":17408:17423  lastBurnedBlock */\n      sload(0x0d)\n        /* \"Users/leilei/Downloads/MasterChefV2/MasterChefV2.sol\":17391:17403  block.number */\n      number\n        /* \"Users/leilei/Downloads/MasterChefV2/MasterChefV2.sol\":17391:17407  block.number.sub */\n      tag_249\n      swap1\n        /* \"Users/leilei/Downloads/MasterChefV2/MasterChefV2.sol\":17391:17424  block.number.sub(lastBurnedBlock) */\n      swap2\n      swap1\n      0xffffffff\n      and\n      jump\t// in\n    tag_445:\n        /* \"Users/leilei/Downloads/MasterChefV2/MasterChefV2.sol\":17370:17424  uint256 multiplier = block.number.sub(lastBurnedBlock) */\n      swap1\n      pop\n        /* \"Users/leilei/Downloads/MasterChefV2/MasterChefV2.sol\":17434:17459  uint256 pendingCakeToBurn */\n      0x00\n        /* \"Users/leilei/Downloads/MasterChefV2/MasterChefV2.sol\":17462:17498  multiplier.mul(cakePerBlockToBurn()) */\n      tag_446\n        /* \"Users/leilei/Downloads/MasterChefV2/MasterChefV2.sol\":17477:17497  cakePerBlockToBurn() */\n      tag_447\n        /* \"Users/leilei/Downloads/MasterChefV2/MasterChefV2.sol\":17477:17495  cakePerBlockToBurn */\n      tag_162\n        /* \"Users/leilei/Downloads/MasterChefV2/MasterChefV2.sol\":17477:17497  cakePerBlockToBurn() */\n      jump\t// in\n    tag_447:\n        /* \"Users/leilei/Downloads/MasterChefV2/MasterChefV2.sol\":17462:17472  multiplier */\n      dup4\n        /* \"Users/leilei/Downloads/MasterChefV2/MasterChefV2.sol\":17462:17476  multiplier.mul */\n      tag_241\n      swap1\n        /* \"Users/leilei/Downloads/MasterChefV2/MasterChefV2.sol\":17462:17498  multiplier.mul(cakePerBlockToBurn()) */\n      swap2\n      swap1\n      0xffffffff\n      and\n      jump\t// in\n    tag_446:\n        /* \"Users/leilei/Downloads/MasterChefV2/MasterChefV2.sol\":17434:17498  uint256 pendingCakeToBurn = multiplier.mul(cakePerBlockToBurn()) */\n      swap1\n      pop\n        /* \"Users/leilei/Downloads/MasterChefV2/MasterChefV2.sol\":17538:17581  _safeTransfer(burnAdmin, pendingCakeToBurn) */\n      tag_448\n        /* \"Users/leilei/Downloads/MasterChefV2/MasterChefV2.sol\":17552:17561  burnAdmin */\n      0x02\n      0x00\n      swap1\n      sload\n      swap1\n      0x0100\n      exp\n      swap1\n      div\n      0xffffffffffffffffffffffffffffffffffffffff\n      and\n        /* \"Users/leilei/Downloads/MasterChefV2/MasterChefV2.sol\":17563:17580  pendingCakeToBurn */\n      dup3\n        /* \"Users/leilei/Downloads/MasterChefV2/MasterChefV2.sol\":17538:17551  _safeTransfer */\n      tag_449\n        /* \"Users/leilei/Downloads/MasterChefV2/MasterChefV2.sol\":17538:17581  _safeTransfer(burnAdmin, pendingCakeToBurn) */\n      jump\t// in\n    tag_448:\n        /* \"Users/leilei/Downloads/MasterChefV2/MasterChefV2.sol\":17609:17621  block.number */\n      number\n        /* \"Users/leilei/Downloads/MasterChefV2/MasterChefV2.sol\":17591:17606  lastBurnedBlock */\n      0x0d\n        /* \"Users/leilei/Downloads/MasterChefV2/MasterChefV2.sol\":17591:17621  lastBurnedBlock = block.number */\n      dup2\n      swap1\n      sstore\n      pop\n        /* \"Users/leilei/Downloads/MasterChefV2/Ownable.sol\":1334:1335  _ */\n      pop\n      pop\n        /* \"Users/leilei/Downloads/MasterChefV2/MasterChefV2.sol\":17238:17628  function burnCake(bool _withUpdate) public onlyOwner {... */\n      pop\n      jump\t// out\n        /* \"Users/leilei/Downloads/MasterChefV2/MasterChefV2.sol\":4923:4953  uint256 public lastBurnedBlock */\n    tag_140:\n      sload(0x0d)\n      dup2\n      jump\t// out\n        /* \"Users/leilei/Downloads/MasterChefV2/MasterChefV2.sol\":3289:3312  IBEP20[] public lpToken */\n    tag_144:\n      0x05\n      dup2\n      dup2\n      sload\n      dup2\n      lt\n      tag_450\n      jumpi\n      invalid\n    tag_450:\n      swap1\n      0x00\n      mstore\n      keccak256(0x00, 0x20)\n      add\n      0x00\n      swap2\n      pop\n      sload\n      swap1\n      0x0100\n      exp\n      swap1\n      div\n      0xffffffffffffffffffffffffffffffffffffffff\n      and\n      dup2\n      jump\t// out\n        /* \"Users/leilei/Downloads/MasterChefV2/MasterChefV2.sol\":3037:3061  address public burnAdmin */\n    tag_147:\n      0x02\n      0x00\n      swap1\n      sload\n      swap1\n      0x0100\n      exp\n      swap1\n      div\n      0xffffffffffffffffffffffffffffffffffffffff\n      and\n      dup2\n      jump\t// out\n        /* \"Users/leilei/Downloads/MasterChefV2/Ownable.sol\":1061:1138  function owner() public view returns (address) {... */\n    tag_151:\n        /* \"Users/leilei/Downloads/MasterChefV2/Ownable.sol\":1099:1106  address */\n      0x00\n        /* \"Users/leilei/Downloads/MasterChefV2/Ownable.sol\":1125:1131  _owner */\n      dup1\n      0x00\n      swap1\n      sload\n      swap1\n      0x0100\n      exp\n      swap1\n      div\n      0xffffffffffffffffffffffffffffffffffffffff\n      and\n        /* \"Users/leilei/Downloads/MasterChefV2/Ownable.sol\":1118:1131  return _owner */\n      swap1\n      pop\n        /* \"Users/leilei/Downloads/MasterChefV2/Ownable.sol\":1061:1138  function owner() public view returns (address) {... */\n      swap1\n      jump\t// out\n        /* \"Users/leilei/Downloads/MasterChefV2/MasterChefV2.sol\":3359:3423  mapping(uint256 => mapping(address => UserInfo)) public userInfo */\n    tag_155:\n      mstore(0x20, 0x06)\n      dup2\n      0x00\n      mstore\n      mstore(0x20, keccak256(0x00, 0x40))\n      dup1\n      0x00\n      mstore\n      keccak256(0x00, 0x40)\n      0x00\n      swap2\n      pop\n      swap2\n      pop\n      pop\n      dup1\n      0x00\n      add\n      sload\n      swap1\n      dup1\n      0x01\n      add\n      sload\n      swap1\n      dup1\n      0x02\n      add\n      sload\n      swap1\n      pop\n      dup4\n      jump\t// out\n        /* \"Users/leilei/Downloads/MasterChefV2/MasterChefV2.sol\":3918:3955  uint256 public totalSpecialAllocPoint */\n    tag_159:\n      sload(0x09)\n      dup2\n      jump\t// out\n        /* \"Users/leilei/Downloads/MasterChefV2/MasterChefV2.sol\":12406:12575  function cakePerBlockToBurn() public view returns (uint256 amount) {... */\n    tag_162:\n        /* \"Users/leilei/Downloads/MasterChefV2/MasterChefV2.sol\":12457:12471  uint256 amount */\n      0x00\n        /* \"Users/leilei/Downloads/MasterChefV2/MasterChefV2.sol\":12492:12568  MASTERCHEF_CAKE_PER_BLOCK.mul(cakeRateToBurn).div(CAKE_RATE_TOTAL_PRECISION) */\n      tag_454\n        /* \"Users/leilei/Downloads/MasterChefV2/MasterChefV2.sol\":4524:4528  1e12 */\n      0xe8d4a51000\n        /* \"Users/leilei/Downloads/MasterChefV2/MasterChefV2.sol\":12492:12537  MASTERCHEF_CAKE_PER_BLOCK.mul(cakeRateToBurn) */\n      tag_455\n        /* \"Users/leilei/Downloads/MasterChefV2/MasterChefV2.sol\":12522:12536  cakeRateToBurn */\n      sload(0x0a)\n        /* \"Users/leilei/Downloads/MasterChefV2/MasterChefV2.sol\":4057:4066  40 * 1e18 */\n      0x022b1c8c1227a00000\n        /* \"Users/leilei/Downloads/MasterChefV2/MasterChefV2.sol\":12492:12521  MASTERCHEF_CAKE_PER_BLOCK.mul */\n      tag_241\n      swap1\n        /* \"Users/leilei/Downloads/MasterChefV2/MasterChefV2.sol\":12492:12537  MASTERCHEF_CAKE_PER_BLOCK.mul(cakeRateToBurn) */\n      swap2\n      swap1\n      0xffffffff\n      and\n      jump\t// in\n    tag_455:\n        /* \"Users/leilei/Downloads/MasterChefV2/MasterChefV2.sol\":12492:12541  MASTERCHEF_CAKE_PER_BLOCK.mul(cakeRateToBurn).div */\n      tag_242\n      swap1\n        /* \"Users/leilei/Downloads/MasterChefV2/MasterChefV2.sol\":12492:12568  MASTERCHEF_CAKE_PER_BLOCK.mul(cakeRateToBurn).div(CAKE_RATE_TOTAL_PRECISION) */\n      swap2\n      swap1\n      0xffffffff\n      and\n      jump\t// in\n    tag_454:\n        /* \"Users/leilei/Downloads/MasterChefV2/MasterChefV2.sol\":12483:12568  amount = MASTERCHEF_CAKE_PER_BLOCK.mul(cakeRateToBurn).div(CAKE_RATE_TOTAL_PRECISION) */\n      swap1\n      pop\n        /* \"Users/leilei/Downloads/MasterChefV2/MasterChefV2.sol\":12406:12575  function cakePerBlockToBurn() public view returns (uint256 amount) {... */\n      swap1\n      jump\t// out\n        /* \"Users/leilei/Downloads/MasterChefV2/MasterChefV2.sol\":19963:20322  function updateBoostContract(address _newBoostContract) external onlyOwner {... */\n    tag_166:\n        /* \"Users/leilei/Downloads/MasterChefV2/Ownable.sol\":1275:1287  _msgSender() */\n      tag_457\n        /* \"Users/leilei/Downloads/MasterChefV2/Ownable.sol\":1275:1285  _msgSender */\n      tag_257\n        /* \"Users/leilei/Downloads/MasterChefV2/Ownable.sol\":1275:1287  _msgSender() */\n      jump\t// in\n    tag_457:\n        /* \"Users/leilei/Downloads/MasterChefV2/Ownable.sol\":1265:1287  _owner == _msgSender() */\n      0xffffffffffffffffffffffffffffffffffffffff\n      and\n        /* \"Users/leilei/Downloads/MasterChefV2/Ownable.sol\":1265:1271  _owner */\n      0x00\n      dup1\n      sload\n      swap1\n      0x0100\n      exp\n      swap1\n      div\n      0xffffffffffffffffffffffffffffffffffffffff\n      and\n        /* \"Users/leilei/Downloads/MasterChefV2/Ownable.sol\":1265:1287  _owner == _msgSender() */\n      0xffffffffffffffffffffffffffffffffffffffff\n      and\n      eq\n        /* \"Users/leilei/Downloads/MasterChefV2/Ownable.sol\":1257:1324  require(_owner == _msgSender(), \"Ownable: caller is not the owner\") */\n      tag_458\n      jumpi\n      mload(0x40)\n      0x08c379a000000000000000000000000000000000000000000000000000000000\n      dup2\n      mstore\n      0x04\n      add\n      tag_459\n      swap1\n      tag_260\n      jump\t// in\n    tag_459:\n      mload(0x40)\n      dup1\n      swap2\n      sub\n      swap1\n      revert\n    tag_458:\n        /* \"Users/leilei/Downloads/MasterChefV2/MasterChefV2.sol\":20098:20099  0 */\n      0x00\n        /* \"Users/leilei/Downloads/MasterChefV2/MasterChefV2.sol\":20069:20100  _newBoostContract != address(0) */\n      0xffffffffffffffffffffffffffffffffffffffff\n      and\n        /* \"Users/leilei/Downloads/MasterChefV2/MasterChefV2.sol\":20069:20086  _newBoostContract */\n      dup2\n        /* \"Users/leilei/Downloads/MasterChefV2/MasterChefV2.sol\":20069:20100  _newBoostContract != address(0) */\n      0xffffffffffffffffffffffffffffffffffffffff\n      and\n      eq\n      iszero\n        /* \"Users/leilei/Downloads/MasterChefV2/MasterChefV2.sol\":20069:20138  _newBoostContract != address(0) && _newBoostContract != boostContract */\n      dup1\n      iszero\n      tag_461\n      jumpi\n      pop\n        /* \"Users/leilei/Downloads/MasterChefV2/MasterChefV2.sol\":20125:20138  boostContract */\n      0x03\n      0x00\n      swap1\n      sload\n      swap1\n      0x0100\n      exp\n      swap1\n      div\n      0xffffffffffffffffffffffffffffffffffffffff\n      and\n        /* \"Users/leilei/Downloads/MasterChefV2/MasterChefV2.sol\":20104:20138  _newBoostContract != boostContract */\n      0xffffffffffffffffffffffffffffffffffffffff\n      and\n        /* \"Users/leilei/Downloads/MasterChefV2/MasterChefV2.sol\":20104:20121  _newBoostContract */\n      dup2\n        /* \"Users/leilei/Downloads/MasterChefV2/MasterChefV2.sol\":20104:20138  _newBoostContract != boostContract */\n      0xffffffffffffffffffffffffffffffffffffffff\n      and\n      eq\n      iszero\n        /* \"Users/leilei/Downloads/MasterChefV2/MasterChefV2.sol\":20069:20138  _newBoostContract != address(0) && _newBoostContract != boostContract */\n    tag_461:\n        /* \"Users/leilei/Downloads/MasterChefV2/MasterChefV2.sol\":20048:20218  require(... */\n      tag_462\n      jumpi\n      mload(0x40)\n      0x08c379a000000000000000000000000000000000000000000000000000000000\n      dup2\n      mstore\n      0x04\n      add\n      tag_463\n      swap1\n      tag_464\n      jump\t// in\n    tag_463:\n      mload(0x40)\n      dup1\n      swap2\n      sub\n      swap1\n      revert\n    tag_462:\n        /* \"Users/leilei/Downloads/MasterChefV2/MasterChefV2.sol\":20245:20262  _newBoostContract */\n      dup1\n        /* \"Users/leilei/Downloads/MasterChefV2/MasterChefV2.sol\":20229:20242  boostContract */\n      0x03\n      0x00\n        /* \"Users/leilei/Downloads/MasterChefV2/MasterChefV2.sol\":20229:20262  boostContract = _newBoostContract */\n      0x0100\n      exp\n      dup2\n      sload\n      dup2\n      0xffffffffffffffffffffffffffffffffffffffff\n      mul\n      not\n      and\n      swap1\n      dup4\n      0xffffffffffffffffffffffffffffffffffffffff\n      and\n      mul\n      or\n      swap1\n      sstore\n      pop\n        /* \"Users/leilei/Downloads/MasterChefV2/MasterChefV2.sol\":20297:20314  _newBoostContract */\n      dup1\n        /* \"Users/leilei/Downloads/MasterChefV2/MasterChefV2.sol\":20277:20315  UpdateBoostContract(_newBoostContract) */\n      0xffffffffffffffffffffffffffffffffffffffff\n      and\n      0x4c0c07d0b548b824a1b998eb4d11fccf1cfbc1e47edcdb309970ba88315eb303\n      mload(0x40)\n      mload(0x40)\n      dup1\n      swap2\n      sub\n      swap1\n      log2\n        /* \"Users/leilei/Downloads/MasterChefV2/MasterChefV2.sol\":19963:20322  function updateBoostContract(address _newBoostContract) external onlyOwner {... */\n      pop\n      jump\t// out\n        /* \"Users/leilei/Downloads/MasterChefV2/MasterChefV2.sol\":4757:4807  uint256 public cakeRateToRegularFarm = 62847222222 */\n    tag_168:\n      sload(0x0b)\n      dup2\n      jump\t// out\n        /* \"Users/leilei/Downloads/MasterChefV2/MasterChefV2.sol\":19547:19805  function updateWhiteList(address _user, bool _isValid) external onlyOwner {... */\n    tag_173:\n        /* \"Users/leilei/Downloads/MasterChefV2/Ownable.sol\":1275:1287  _msgSender() */\n      tag_466\n        /* \"Users/leilei/Downloads/MasterChefV2/Ownable.sol\":1275:1285  _msgSender */\n      tag_257\n        /* \"Users/leilei/Downloads/MasterChefV2/Ownable.sol\":1275:1287  _msgSender() */\n      jump\t// in\n    tag_466:\n        /* \"Users/leilei/Downloads/MasterChefV2/Ownable.sol\":1265:1287  _owner == _msgSender() */\n      0xffffffffffffffffffffffffffffffffffffffff\n      and\n        /* \"Users/leilei/Downloads/MasterChefV2/Ownable.sol\":1265:1271  _owner */\n      0x00\n      dup1\n      sload\n      swap1\n      0x0100\n      exp\n      swap1\n      div\n      0xffffffffffffffffffffffffffffffffffffffff\n      and\n        /* \"Users/leilei/Downloads/MasterChefV2/Ownable.sol\":1265:1287  _owner == _msgSender() */\n      0xffffffffffffffffffffffffffffffffffffffff\n      and\n      eq\n        /* \"Users/leilei/Downloads/MasterChefV2/Ownable.sol\":1257:1324  require(_owner == _msgSender(), \"Ownable: caller is not the owner\") */\n      tag_467\n      jumpi\n      mload(0x40)\n      0x08c379a000000000000000000000000000000000000000000000000000000000\n      dup2\n      mstore\n      0x04\n      add\n      tag_468\n      swap1\n      tag_260\n      jump\t// in\n    tag_468:\n      mload(0x40)\n      dup1\n      swap2\n      sub\n      swap1\n      revert\n    tag_467:\n        /* \"Users/leilei/Downloads/MasterChefV2/MasterChefV2.sol\":19656:19657  0 */\n      0x00\n        /* \"Users/leilei/Downloads/MasterChefV2/MasterChefV2.sol\":19639:19658  _user != address(0) */\n      0xffffffffffffffffffffffffffffffffffffffff\n      and\n        /* \"Users/leilei/Downloads/MasterChefV2/MasterChefV2.sol\":19639:19644  _user */\n      dup3\n        /* \"Users/leilei/Downloads/MasterChefV2/MasterChefV2.sol\":19639:19658  _user != address(0) */\n      0xffffffffffffffffffffffffffffffffffffffff\n      and\n      eq\n      iszero\n        /* \"Users/leilei/Downloads/MasterChefV2/MasterChefV2.sol\":19631:19713  require(_user != address(0), \"MasterChefV2: The white list address must be valid\") */\n      tag_470\n      jumpi\n      mload(0x40)\n      0x08c379a000000000000000000000000000000000000000000000000000000000\n      dup2\n      mstore\n      0x04\n      add\n      tag_471\n      swap1\n      tag_472\n      jump\t// in\n    tag_471:\n      mload(0x40)\n      dup1\n      swap2\n      sub\n      swap1\n      revert\n    tag_470:\n        /* \"Users/leilei/Downloads/MasterChefV2/MasterChefV2.sol\":19743:19751  _isValid */\n      dup1\n        /* \"Users/leilei/Downloads/MasterChefV2/MasterChefV2.sol\":19724:19733  whiteList */\n      0x07\n        /* \"Users/leilei/Downloads/MasterChefV2/MasterChefV2.sol\":19724:19740  whiteList[_user] */\n      0x00\n        /* \"Users/leilei/Downloads/MasterChefV2/MasterChefV2.sol\":19734:19739  _user */\n      dup5\n        /* \"Users/leilei/Downloads/MasterChefV2/MasterChefV2.sol\":19724:19740  whiteList[_user] */\n      0xffffffffffffffffffffffffffffffffffffffff\n      and\n      0xffffffffffffffffffffffffffffffffffffffff\n      and\n      dup2\n      mstore\n      0x20\n      add\n      swap1\n      dup2\n      mstore\n      0x20\n      add\n      0x00\n      keccak256\n      0x00\n        /* \"Users/leilei/Downloads/MasterChefV2/MasterChefV2.sol\":19724:19751  whiteList[_user] = _isValid */\n      0x0100\n      exp\n      dup2\n      sload\n      dup2\n      0xff\n      mul\n      not\n      and\n      swap1\n      dup4\n      iszero\n      iszero\n      mul\n      or\n      swap1\n      sstore\n      pop\n        /* \"Users/leilei/Downloads/MasterChefV2/MasterChefV2.sol\":19782:19787  _user */\n      dup2\n        /* \"Users/leilei/Downloads/MasterChefV2/MasterChefV2.sol\":19766:19798  UpdateWhiteList(_user, _isValid) */\n      0xffffffffffffffffffffffffffffffffffffffff\n      and\n      0xc551bbb22d0406dbfb8b6b7740cc521bcf44e1106029cf899c19b6a8e4c99d51\n        /* \"Users/leilei/Downloads/MasterChefV2/MasterChefV2.sol\":19789:19797  _isValid */\n      dup3\n        /* \"Users/leilei/Downloads/MasterChefV2/MasterChefV2.sol\":19766:19798  UpdateWhiteList(_user, _isValid) */\n      mload(0x40)\n      tag_473\n      swap2\n      swap1\n      tag_97\n      jump\t// in\n    tag_473:\n      mload(0x40)\n      dup1\n      swap2\n      sub\n      swap1\n      log2\n        /* \"Users/leilei/Downloads/MasterChefV2/MasterChefV2.sol\":19547:19805  function updateWhiteList(address _user, bool _isValid) external onlyOwner {... */\n      pop\n      pop\n      jump\t// out\n        /* \"Users/leilei/Downloads/MasterChefV2/MasterChefV2.sol\":3769:3806  uint256 public totalRegularAllocPoint */\n    tag_175:\n      sload(0x08)\n      dup2\n      jump\t// out\n        /* \"Users/leilei/Downloads/MasterChefV2/MasterChefV2.sol\":8238:9316  function add(... */\n    tag_180:\n        /* \"Users/leilei/Downloads/MasterChefV2/Ownable.sol\":1275:1287  _msgSender() */\n      tag_475\n        /* \"Users/leilei/Downloads/MasterChefV2/Ownable.sol\":1275:1285  _msgSender */\n      tag_257\n        /* \"Users/leilei/Downloads/MasterChefV2/Ownable.sol\":1275:1287  _msgSender() */\n      jump\t// in\n    tag_475:\n        /* \"Users/leilei/Downloads/MasterChefV2/Ownable.sol\":1265:1287  _owner == _msgSender() */\n      0xffffffffffffffffffffffffffffffffffffffff\n      and\n        /* \"Users/leilei/Downloads/MasterChefV2/Ownable.sol\":1265:1271  _owner */\n      0x00\n      dup1\n      sload\n      swap1\n      0x0100\n      exp\n      swap1\n      div\n      0xffffffffffffffffffffffffffffffffffffffff\n      and\n        /* \"Users/leilei/Downloads/MasterChefV2/Ownable.sol\":1265:1287  _owner == _msgSender() */\n      0xffffffffffffffffffffffffffffffffffffffff\n      and\n      eq\n        /* \"Users/leilei/Downloads/MasterChefV2/Ownable.sol\":1257:1324  require(_owner == _msgSender(), \"Ownable: caller is not the owner\") */\n      tag_476\n      jumpi\n      mload(0x40)\n      0x08c379a000000000000000000000000000000000000000000000000000000000\n      dup2\n      mstore\n      0x04\n      add\n      tag_477\n      swap1\n      tag_260\n      jump\t// in\n    tag_477:\n      mload(0x40)\n      dup1\n      swap2\n      sub\n      swap1\n      revert\n    tag_476:\n        /* \"Users/leilei/Downloads/MasterChefV2/MasterChefV2.sol\":8436:8437  0 */\n      0x00\n        /* \"Users/leilei/Downloads/MasterChefV2/MasterChefV2.sol\":8399:8407  _lpToken */\n      dup4\n        /* \"Users/leilei/Downloads/MasterChefV2/MasterChefV2.sol\":8399:8417  _lpToken.balanceOf */\n      0xffffffffffffffffffffffffffffffffffffffff\n      and\n      0x70a08231\n        /* \"Users/leilei/Downloads/MasterChefV2/MasterChefV2.sol\":8426:8430  this */\n      address\n        /* \"Users/leilei/Downloads/MasterChefV2/MasterChefV2.sol\":8399:8432  _lpToken.balanceOf(address(this)) */\n      mload(0x40)\n      dup3\n      0xffffffff\n      and\n      0xe0\n      shl\n      dup2\n      mstore\n      0x04\n      add\n      tag_479\n      swap2\n      swap1\n      tag_149\n      jump\t// in\n    tag_479:\n      0x20\n      mload(0x40)\n      dup1\n      dup4\n      sub\n      dup2\n      dup7\n      dup1\n      extcodesize\n      iszero\n      dup1\n      iszero\n      tag_480\n      jumpi\n      0x00\n      dup1\n      revert\n    tag_480:\n      pop\n      gas\n      staticcall\n      iszero\n      dup1\n      iszero\n      tag_482\n      jumpi\n      returndatasize\n      0x00\n      dup1\n      returndatacopy\n      revert(0x00, returndatasize)\n    tag_482:\n      pop\n      pop\n      pop\n      pop\n      mload(0x40)\n      returndatasize\n      not(0x1f)\n      0x1f\n      dup3\n      add\n      and\n      dup3\n      add\n      dup1\n      0x40\n      mstore\n      pop\n      dup2\n      add\n      swap1\n      tag_483\n      swap2\n      swap1\n      tag_305\n      jump\t// in\n    tag_483:\n        /* \"Users/leilei/Downloads/MasterChefV2/MasterChefV2.sol\":8399:8437  _lpToken.balanceOf(address(this)) >= 0 */\n      lt\n      iszero\n        /* \"Users/leilei/Downloads/MasterChefV2/MasterChefV2.sol\":8391:8459  require(_lpToken.balanceOf(address(this)) >= 0, \"None BEP20 tokens\") */\n      tag_484\n      jumpi\n      mload(0x40)\n      0x08c379a000000000000000000000000000000000000000000000000000000000\n      dup2\n      mstore\n      0x04\n      add\n      tag_485\n      swap1\n      tag_486\n      jump\t// in\n    tag_485:\n      mload(0x40)\n      dup1\n      swap2\n      sub\n      swap1\n      revert\n    tag_484:\n        /* \"Users/leilei/Downloads/MasterChefV2/MasterChefV2.sol\":8641:8645  CAKE */\n      immutable(\"0xe6a1c065389a8d929a5a64a56bc16a7e49ca76d19f5c2b002f72a1f543f272ee\")\n        /* \"Users/leilei/Downloads/MasterChefV2/MasterChefV2.sol\":8629:8645  _lpToken != CAKE */\n      0xffffffffffffffffffffffffffffffffffffffff\n      and\n        /* \"Users/leilei/Downloads/MasterChefV2/MasterChefV2.sol\":8629:8637  _lpToken */\n      dup4\n        /* \"Users/leilei/Downloads/MasterChefV2/MasterChefV2.sol\":8629:8645  _lpToken != CAKE */\n      0xffffffffffffffffffffffffffffffffffffffff\n      and\n      eq\n      iszero\n        /* \"Users/leilei/Downloads/MasterChefV2/MasterChefV2.sol\":8621:8689  require(_lpToken != CAKE, \"CAKE token can't be added to farm pools\") */\n      tag_487\n      jumpi\n      mload(0x40)\n      0x08c379a000000000000000000000000000000000000000000000000000000000\n      dup2\n      mstore\n      0x04\n      add\n      tag_488\n      swap1\n      tag_489\n      jump\t// in\n    tag_488:\n      mload(0x40)\n      dup1\n      swap2\n      sub\n      swap1\n      revert\n    tag_487:\n        /* \"Users/leilei/Downloads/MasterChefV2/MasterChefV2.sol\":8704:8715  _withUpdate */\n      dup1\n        /* \"Users/leilei/Downloads/MasterChefV2/MasterChefV2.sol\":8700:8759  if (_withUpdate) {... */\n      iszero\n      tag_490\n      jumpi\n        /* \"Users/leilei/Downloads/MasterChefV2/MasterChefV2.sol\":8731:8748  massUpdatePools() */\n      tag_491\n        /* \"Users/leilei/Downloads/MasterChefV2/MasterChefV2.sol\":8731:8746  massUpdatePools */\n      tag_123\n        /* \"Users/leilei/Downloads/MasterChefV2/MasterChefV2.sol\":8731:8748  massUpdatePools() */\n      jump\t// in\n    tag_491:\n        /* \"Users/leilei/Downloads/MasterChefV2/MasterChefV2.sol\":8700:8759  if (_withUpdate) {... */\n    tag_490:\n        /* \"Users/leilei/Downloads/MasterChefV2/MasterChefV2.sol\":8773:8783  _isRegular */\n      dup2\n        /* \"Users/leilei/Downloads/MasterChefV2/MasterChefV2.sol\":8769:8969  if (_isRegular) {... */\n      iszero\n      tag_492\n      jumpi\n        /* \"Users/leilei/Downloads/MasterChefV2/MasterChefV2.sol\":8824:8863  totalRegularAllocPoint.add(_allocPoint) */\n      tag_493\n        /* \"Users/leilei/Downloads/MasterChefV2/MasterChefV2.sol\":8851:8862  _allocPoint */\n      dup5\n        /* \"Users/leilei/Downloads/MasterChefV2/MasterChefV2.sol\":8824:8846  totalRegularAllocPoint */\n      sload(0x08)\n        /* \"Users/leilei/Downloads/MasterChefV2/MasterChefV2.sol\":8824:8850  totalRegularAllocPoint.add */\n      tag_250\n      swap1\n        /* \"Users/leilei/Downloads/MasterChefV2/MasterChefV2.sol\":8824:8863  totalRegularAllocPoint.add(_allocPoint) */\n      swap2\n      swap1\n      0xffffffff\n      and\n      jump\t// in\n    tag_493:\n        /* \"Users/leilei/Downloads/MasterChefV2/MasterChefV2.sol\":8799:8821  totalRegularAllocPoint */\n      0x08\n        /* \"Users/leilei/Downloads/MasterChefV2/MasterChefV2.sol\":8799:8863  totalRegularAllocPoint = totalRegularAllocPoint.add(_allocPoint) */\n      dup2\n      swap1\n      sstore\n      pop\n        /* \"Users/leilei/Downloads/MasterChefV2/MasterChefV2.sol\":8769:8969  if (_isRegular) {... */\n      jump(tag_494)\n    tag_492:\n        /* \"Users/leilei/Downloads/MasterChefV2/MasterChefV2.sol\":8919:8958  totalSpecialAllocPoint.add(_allocPoint) */\n      tag_495\n        /* \"Users/leilei/Downloads/MasterChefV2/MasterChefV2.sol\":8946:8957  _allocPoint */\n      dup5\n        /* \"Users/leilei/Downloads/MasterChefV2/MasterChefV2.sol\":8919:8941  totalSpecialAllocPoint */\n      sload(0x09)\n        /* \"Users/leilei/Downloads/MasterChefV2/MasterChefV2.sol\":8919:8945  totalSpecialAllocPoint.add */\n      tag_250\n      swap1\n        /* \"Users/leilei/Downloads/MasterChefV2/MasterChefV2.sol\":8919:8958  totalSpecialAllocPoint.add(_allocPoint) */\n      swap2\n      swap1\n      0xffffffff\n      and\n      jump\t// in\n    tag_495:\n        /* \"Users/leilei/Downloads/MasterChefV2/MasterChefV2.sol\":8894:8916  totalSpecialAllocPoint */\n      0x09\n        /* \"Users/leilei/Downloads/MasterChefV2/MasterChefV2.sol\":8894:8958  totalSpecialAllocPoint = totalSpecialAllocPoint.add(_allocPoint) */\n      dup2\n      swap1\n      sstore\n      pop\n        /* \"Users/leilei/Downloads/MasterChefV2/MasterChefV2.sol\":8769:8969  if (_isRegular) {... */\n    tag_494:\n        /* \"Users/leilei/Downloads/MasterChefV2/MasterChefV2.sol\":8978:8985  lpToken */\n      0x05\n        /* \"Users/leilei/Downloads/MasterChefV2/MasterChefV2.sol\":8991:8999  _lpToken */\n      dup4\n        /* \"Users/leilei/Downloads/MasterChefV2/MasterChefV2.sol\":8978:9000  lpToken.push(_lpToken) */\n      swap1\n      dup1\n      0x01\n      dup2\n      sload\n      add\n      dup1\n      dup3\n      sstore\n      dup1\n      swap2\n      pop\n      pop\n      0x01\n      swap1\n      sub\n      swap1\n      0x00\n      mstore\n      keccak256(0x00, 0x20)\n      add\n      0x00\n      swap1\n      swap2\n      swap1\n      swap2\n      swap1\n      swap2\n      0x0100\n      exp\n      dup2\n      sload\n      dup2\n      0xffffffffffffffffffffffffffffffffffffffff\n      mul\n      not\n      and\n      swap1\n      dup4\n      0xffffffffffffffffffffffffffffffffffffffff\n      and\n      mul\n      or\n      swap1\n      sstore\n      pop\n        /* \"Users/leilei/Downloads/MasterChefV2/MasterChefV2.sol\":9011:9019  poolInfo */\n      0x04\n        /* \"Users/leilei/Downloads/MasterChefV2/MasterChefV2.sol\":9038:9219  PoolInfo({... */\n      mload(0x40)\n      dup1\n      0xa0\n      add\n      0x40\n      mstore\n      dup1\n        /* \"Users/leilei/Downloads/MasterChefV2/MasterChefV2.sol\":9146:9147  0 */\n      0x00\n        /* \"Users/leilei/Downloads/MasterChefV2/MasterChefV2.sol\":9038:9219  PoolInfo({... */\n      dup2\n      mstore\n      0x20\n      add\n        /* \"Users/leilei/Downloads/MasterChefV2/MasterChefV2.sol\":9107:9119  block.number */\n      number\n        /* \"Users/leilei/Downloads/MasterChefV2/MasterChefV2.sol\":9038:9219  PoolInfo({... */\n      dup2\n      mstore\n      0x20\n      add\n        /* \"Users/leilei/Downloads/MasterChefV2/MasterChefV2.sol\":9069:9080  _allocPoint */\n      dup7\n        /* \"Users/leilei/Downloads/MasterChefV2/MasterChefV2.sol\":9038:9219  PoolInfo({... */\n      dup2\n      mstore\n      0x20\n      add\n        /* \"Users/leilei/Downloads/MasterChefV2/MasterChefV2.sol\":9207:9208  0 */\n      0x00\n        /* \"Users/leilei/Downloads/MasterChefV2/MasterChefV2.sol\":9038:9219  PoolInfo({... */\n      dup2\n      mstore\n      0x20\n      add\n        /* \"Users/leilei/Downloads/MasterChefV2/MasterChefV2.sol\":9168:9178  _isRegular */\n      dup5\n        /* \"Users/leilei/Downloads/MasterChefV2/MasterChefV2.sol\":9038:9219  PoolInfo({... */\n      iszero\n      iszero\n      dup2\n      mstore\n      pop\n        /* \"Users/leilei/Downloads/MasterChefV2/MasterChefV2.sol\":9011:9229  poolInfo.push(... */\n      swap1\n      dup1\n      0x01\n      dup2\n      sload\n      add\n      dup1\n      dup3\n      sstore\n      dup1\n      swap2\n      pop\n      pop\n      0x01\n      swap1\n      sub\n      swap1\n      0x00\n      mstore\n      keccak256(0x00, 0x20)\n      swap1\n      0x05\n      mul\n      add\n      0x00\n      swap1\n      swap2\n      swap1\n      swap2\n      swap1\n      swap2\n      pop\n      0x00\n      dup3\n      add\n      mload\n      dup2\n      0x00\n      add\n      sstore\n      0x20\n      dup3\n      add\n      mload\n      dup2\n      0x01\n      add\n      sstore\n      0x40\n      dup3\n      add\n      mload\n      dup2\n      0x02\n      add\n      sstore\n      0x60\n      dup3\n      add\n      mload\n      dup2\n      0x03\n      add\n      sstore\n      0x80\n      dup3\n      add\n      mload\n      dup2\n      0x04\n      add\n      exp(0x0100, 0x00)\n      dup2\n      sload\n      dup2\n      0xff\n      mul\n      not\n      and\n      swap1\n      dup4\n      iszero\n      iszero\n      mul\n      or\n      swap1\n      sstore\n      pop\n      pop\n      pop\n        /* \"Users/leilei/Downloads/MasterChefV2/MasterChefV2.sol\":9288:9296  _lpToken */\n      dup3\n        /* \"Users/leilei/Downloads/MasterChefV2/MasterChefV2.sol\":9244:9309  AddPool(lpToken.length.sub(1), _allocPoint, _lpToken, _isRegular) */\n      0xffffffffffffffffffffffffffffffffffffffff\n      and\n        /* \"Users/leilei/Downloads/MasterChefV2/MasterChefV2.sol\":9252:9273  lpToken.length.sub(1) */\n      tag_498\n        /* \"Users/leilei/Downloads/MasterChefV2/MasterChefV2.sol\":9271:9272  1 */\n      0x01\n        /* \"Users/leilei/Downloads/MasterChefV2/MasterChefV2.sol\":9252:9259  lpToken */\n      0x05\n        /* \"Users/leilei/Downloads/MasterChefV2/MasterChefV2.sol\":9252:9266  lpToken.length */\n      dup1\n      sload\n      swap1\n      pop\n        /* \"Users/leilei/Downloads/MasterChefV2/MasterChefV2.sol\":9252:9270  lpToken.length.sub */\n      tag_249\n      swap1\n        /* \"Users/leilei/Downloads/MasterChefV2/MasterChefV2.sol\":9252:9273  lpToken.length.sub(1) */\n      swap2\n      swap1\n      0xffffffff\n      and\n      jump\t// in\n    tag_498:\n        /* \"Users/leilei/Downloads/MasterChefV2/MasterChefV2.sol\":9244:9309  AddPool(lpToken.length.sub(1), _allocPoint, _lpToken, _isRegular) */\n      0x18caa0724a26384928efe604ae6ddc99c242548876259770fc88fcb7e719d8fa\n        /* \"Users/leilei/Downloads/MasterChefV2/MasterChefV2.sol\":9275:9286  _allocPoint */\n      dup7\n        /* \"Users/leilei/Downloads/MasterChefV2/MasterChefV2.sol\":9298:9308  _isRegular */\n      dup6\n        /* \"Users/leilei/Downloads/MasterChefV2/MasterChefV2.sol\":9244:9309  AddPool(lpToken.length.sub(1), _allocPoint, _lpToken, _isRegular) */\n      mload(0x40)\n      tag_499\n      swap3\n      swap2\n      swap1\n      tag_500\n      jump\t// in\n    tag_499:\n      mload(0x40)\n      dup1\n      swap2\n      sub\n      swap1\n      log3\n        /* \"Users/leilei/Downloads/MasterChefV2/MasterChefV2.sol\":8238:9316  function add(... */\n      pop\n      pop\n      pop\n      pop\n      jump\t// out\n        /* \"Users/leilei/Downloads/MasterChefV2/MasterChefV2.sol\":4197:4249  uint256 public constant BOOST_PRECISION = 100 * 1e10 */\n    tag_182:\n        /* \"Users/leilei/Downloads/MasterChefV2/MasterChefV2.sol\":4239:4249  100 * 1e10 */\n      0xe8d4a51000\n        /* \"Users/leilei/Downloads/MasterChefV2/MasterChefV2.sol\":4197:4249  uint256 public constant BOOST_PRECISION = 100 * 1e10 */\n      dup2\n      jump\t// out\n        /* \"Users/leilei/Downloads/MasterChefV2/MasterChefV2.sol\":18006:18878  function updateCakeRate(... */\n    tag_187:\n        /* \"Users/leilei/Downloads/MasterChefV2/Ownable.sol\":1275:1287  _msgSender() */\n      tag_502\n        /* \"Users/leilei/Downloads/MasterChefV2/Ownable.sol\":1275:1285  _msgSender */\n      tag_257\n        /* \"Users/leilei/Downloads/MasterChefV2/Ownable.sol\":1275:1287  _msgSender() */\n      jump\t// in\n    tag_502:\n        /* \"Users/leilei/Downloads/MasterChefV2/Ownable.sol\":1265:1287  _owner == _msgSender() */\n      0xffffffffffffffffffffffffffffffffffffffff\n      and\n        /* \"Users/leilei/Downloads/MasterChefV2/Ownable.sol\":1265:1271  _owner */\n      0x00\n      dup1\n      sload\n      swap1\n      0x0100\n      exp\n      swap1\n      div\n      0xffffffffffffffffffffffffffffffffffffffff\n      and\n        /* \"Users/leilei/Downloads/MasterChefV2/Ownable.sol\":1265:1287  _owner == _msgSender() */\n      0xffffffffffffffffffffffffffffffffffffffff\n      and\n      eq\n        /* \"Users/leilei/Downloads/MasterChefV2/Ownable.sol\":1257:1324  require(_owner == _msgSender(), \"Ownable: caller is not the owner\") */\n      tag_503\n      jumpi\n      mload(0x40)\n      0x08c379a000000000000000000000000000000000000000000000000000000000\n      dup2\n      mstore\n      0x04\n      add\n      tag_504\n      swap1\n      tag_260\n      jump\t// in\n    tag_504:\n      mload(0x40)\n      dup1\n      swap2\n      sub\n      swap1\n      revert\n    tag_503:\n        /* \"Users/leilei/Downloads/MasterChefV2/MasterChefV2.sol\":18219:18220  0 */\n      0x00\n        /* \"Users/leilei/Downloads/MasterChefV2/MasterChefV2.sol\":18207:18216  _burnRate */\n      dup5\n        /* \"Users/leilei/Downloads/MasterChefV2/MasterChefV2.sol\":18207:18220  _burnRate > 0 */\n      gt\n        /* \"Users/leilei/Downloads/MasterChefV2/MasterChefV2.sol\":18207:18244  _burnRate > 0 && _regularFarmRate > 0 */\n      dup1\n      iszero\n      tag_506\n      jumpi\n      pop\n        /* \"Users/leilei/Downloads/MasterChefV2/MasterChefV2.sol\":18243:18244  0 */\n      0x00\n        /* \"Users/leilei/Downloads/MasterChefV2/MasterChefV2.sol\":18224:18240  _regularFarmRate */\n      dup4\n        /* \"Users/leilei/Downloads/MasterChefV2/MasterChefV2.sol\":18224:18244  _regularFarmRate > 0 */\n      gt\n        /* \"Users/leilei/Downloads/MasterChefV2/MasterChefV2.sol\":18207:18244  _burnRate > 0 && _regularFarmRate > 0 */\n    tag_506:\n        /* \"Users/leilei/Downloads/MasterChefV2/MasterChefV2.sol\":18207:18268  _burnRate > 0 && _regularFarmRate > 0 && _specialFarmRate > 0 */\n      dup1\n      iszero\n      tag_507\n      jumpi\n      pop\n        /* \"Users/leilei/Downloads/MasterChefV2/MasterChefV2.sol\":18267:18268  0 */\n      0x00\n        /* \"Users/leilei/Downloads/MasterChefV2/MasterChefV2.sol\":18248:18264  _specialFarmRate */\n      dup3\n        /* \"Users/leilei/Downloads/MasterChefV2/MasterChefV2.sol\":18248:18268  _specialFarmRate > 0 */\n      gt\n        /* \"Users/leilei/Downloads/MasterChefV2/MasterChefV2.sol\":18207:18268  _burnRate > 0 && _regularFarmRate > 0 && _specialFarmRate > 0 */\n    tag_507:\n        /* \"Users/leilei/Downloads/MasterChefV2/MasterChefV2.sol\":18186:18340  require(... */\n      tag_508\n      jumpi\n      mload(0x40)\n      0x08c379a000000000000000000000000000000000000000000000000000000000\n      dup2\n      mstore\n      0x04\n      add\n      tag_509\n      swap1\n      tag_510\n      jump\t// in\n    tag_509:\n      mload(0x40)\n      dup1\n      swap2\n      sub\n      swap1\n      revert\n    tag_508:\n        /* \"Users/leilei/Downloads/MasterChefV2/MasterChefV2.sol\":4524:4528  1e12 */\n      0xe8d4a51000\n        /* \"Users/leilei/Downloads/MasterChefV2/MasterChefV2.sol\":18371:18424  _burnRate.add(_regularFarmRate).add(_specialFarmRate) */\n      tag_511\n        /* \"Users/leilei/Downloads/MasterChefV2/MasterChefV2.sol\":18407:18423  _specialFarmRate */\n      dup4\n        /* \"Users/leilei/Downloads/MasterChefV2/MasterChefV2.sol\":18371:18402  _burnRate.add(_regularFarmRate) */\n      tag_512\n        /* \"Users/leilei/Downloads/MasterChefV2/MasterChefV2.sol\":18385:18401  _regularFarmRate */\n      dup7\n        /* \"Users/leilei/Downloads/MasterChefV2/MasterChefV2.sol\":18371:18380  _burnRate */\n      dup9\n        /* \"Users/leilei/Downloads/MasterChefV2/MasterChefV2.sol\":18371:18384  _burnRate.add */\n      tag_250\n      swap1\n        /* \"Users/leilei/Downloads/MasterChefV2/MasterChefV2.sol\":18371:18402  _burnRate.add(_regularFarmRate) */\n      swap2\n      swap1\n      0xffffffff\n      and\n      jump\t// in\n    tag_512:\n        /* \"Users/leilei/Downloads/MasterChefV2/MasterChefV2.sol\":18371:18406  _burnRate.add(_regularFarmRate).add */\n      tag_250\n      swap1\n        /* \"Users/leilei/Downloads/MasterChefV2/MasterChefV2.sol\":18371:18424  _burnRate.add(_regularFarmRate).add(_specialFarmRate) */\n      swap2\n      swap1\n      0xffffffff\n      and\n      jump\t// in\n    tag_511:\n        /* \"Users/leilei/Downloads/MasterChefV2/MasterChefV2.sol\":18371:18453  _burnRate.add(_regularFarmRate).add(_specialFarmRate) == CAKE_RATE_TOTAL_PRECISION */\n      eq\n        /* \"Users/leilei/Downloads/MasterChefV2/MasterChefV2.sol\":18350:18516  require(... */\n      tag_513\n      jumpi\n      mload(0x40)\n      0x08c379a000000000000000000000000000000000000000000000000000000000\n      dup2\n      mstore\n      0x04\n      add\n      tag_514\n      swap1\n      tag_515\n      jump\t// in\n    tag_514:\n      mload(0x40)\n      dup1\n      swap2\n      sub\n      swap1\n      revert\n    tag_513:\n        /* \"Users/leilei/Downloads/MasterChefV2/MasterChefV2.sol\":18530:18541  _withUpdate */\n      dup1\n        /* \"Users/leilei/Downloads/MasterChefV2/MasterChefV2.sol\":18526:18585  if (_withUpdate) {... */\n      iszero\n      tag_516\n      jumpi\n        /* \"Users/leilei/Downloads/MasterChefV2/MasterChefV2.sol\":18557:18574  massUpdatePools() */\n      tag_517\n        /* \"Users/leilei/Downloads/MasterChefV2/MasterChefV2.sol\":18557:18572  massUpdatePools */\n      tag_123\n        /* \"Users/leilei/Downloads/MasterChefV2/MasterChefV2.sol\":18557:18574  massUpdatePools() */\n      jump\t// in\n    tag_517:\n        /* \"Users/leilei/Downloads/MasterChefV2/MasterChefV2.sol\":18526:18585  if (_withUpdate) {... */\n    tag_516:\n        /* \"Users/leilei/Downloads/MasterChefV2/MasterChefV2.sol\":18642:18657  burnCake(false) */\n      tag_518\n        /* \"Users/leilei/Downloads/MasterChefV2/MasterChefV2.sol\":18651:18656  false */\n      0x00\n        /* \"Users/leilei/Downloads/MasterChefV2/MasterChefV2.sol\":18642:18650  burnCake */\n      tag_138\n        /* \"Users/leilei/Downloads/MasterChefV2/MasterChefV2.sol\":18642:18657  burnCake(false) */\n      jump\t// in\n    tag_518:\n        /* \"Users/leilei/Downloads/MasterChefV2/MasterChefV2.sol\":18685:18694  _burnRate */\n      dup4\n        /* \"Users/leilei/Downloads/MasterChefV2/MasterChefV2.sol\":18668:18682  cakeRateToBurn */\n      0x0a\n        /* \"Users/leilei/Downloads/MasterChefV2/MasterChefV2.sol\":18668:18694  cakeRateToBurn = _burnRate */\n      dup2\n      swap1\n      sstore\n      pop\n        /* \"Users/leilei/Downloads/MasterChefV2/MasterChefV2.sol\":18728:18744  _regularFarmRate */\n      dup3\n        /* \"Users/leilei/Downloads/MasterChefV2/MasterChefV2.sol\":18704:18725  cakeRateToRegularFarm */\n      0x0b\n        /* \"Users/leilei/Downloads/MasterChefV2/MasterChefV2.sol\":18704:18744  cakeRateToRegularFarm = _regularFarmRate */\n      dup2\n      swap1\n      sstore\n      pop\n        /* \"Users/leilei/Downloads/MasterChefV2/MasterChefV2.sol\":18778:18794  _specialFarmRate */\n      dup2\n        /* \"Users/leilei/Downloads/MasterChefV2/MasterChefV2.sol\":18754:18775  cakeRateToSpecialFarm */\n      0x0c\n        /* \"Users/leilei/Downloads/MasterChefV2/MasterChefV2.sol\":18754:18794  cakeRateToSpecialFarm = _specialFarmRate */\n      dup2\n      swap1\n      sstore\n      pop\n        /* \"Users/leilei/Downloads/MasterChefV2/MasterChefV2.sol\":18810:18871  UpdateCakeRate(_burnRate, _regularFarmRate, _specialFarmRate) */\n      0xae2d2e7d1ae84564fc72227253ce0f36a007209f7fd5ec414dea80e5af2fb5b0\n        /* \"Users/leilei/Downloads/MasterChefV2/MasterChefV2.sol\":18825:18834  _burnRate */\n      dup5\n        /* \"Users/leilei/Downloads/MasterChefV2/MasterChefV2.sol\":18836:18852  _regularFarmRate */\n      dup5\n        /* \"Users/leilei/Downloads/MasterChefV2/MasterChefV2.sol\":18854:18870  _specialFarmRate */\n      dup5\n        /* \"Users/leilei/Downloads/MasterChefV2/MasterChefV2.sol\":18810:18871  UpdateCakeRate(_burnRate, _regularFarmRate, _specialFarmRate) */\n      mload(0x40)\n      tag_519\n      swap4\n      swap3\n      swap2\n      swap1\n      tag_157\n      jump\t// in\n    tag_519:\n      mload(0x40)\n      dup1\n      swap2\n      sub\n      swap1\n      log1\n        /* \"Users/leilei/Downloads/MasterChefV2/MasterChefV2.sol\":18006:18878  function updateCakeRate(... */\n      pop\n      pop\n      pop\n      pop\n      jump\t// out\n        /* \"Users/leilei/Downloads/MasterChefV2/MasterChefV2.sol\":3122:3150  address public boostContract */\n    tag_189:\n      0x03\n      0x00\n      swap1\n      sload\n      swap1\n      0x0100\n      exp\n      swap1\n      div\n      0xffffffffffffffffffffffffffffffffffffffff\n      and\n      dup2\n      jump\t// out\n        /* \"Users/leilei/Downloads/MasterChefV2/MasterChefV2.sol\":4651:4695  uint256 public cakeRateToBurn = 643750000000 */\n    tag_192:\n      sload(0x0a)\n      dup2\n      jump\t// out\n        /* \"Users/leilei/Downloads/MasterChefV2/MasterChefV2.sol\":13845:15063  function deposit(uint256 _pid, uint256 _amount) external nonReentrant {... */\n    tag_196:\n        /* \"Users/leilei/Downloads/MasterChefV2/ReentrancyGuard.sol\":1671:1672  2 */\n      0x02\n        /* \"Users/leilei/Downloads/MasterChefV2/ReentrancyGuard.sol\":2260:2267  _status */\n      sload(0x01)\n        /* \"Users/leilei/Downloads/MasterChefV2/ReentrancyGuard.sol\":2260:2279  _status != _ENTERED */\n      eq\n      iszero\n        /* \"Users/leilei/Downloads/MasterChefV2/ReentrancyGuard.sol\":2252:2315  require(_status != _ENTERED, \"ReentrancyGuard: reentrant call\") */\n      tag_521\n      jumpi\n      mload(0x40)\n      0x08c379a000000000000000000000000000000000000000000000000000000000\n      dup2\n      mstore\n      0x04\n      add\n      tag_522\n      swap1\n      tag_217\n      jump\t// in\n    tag_522:\n      mload(0x40)\n      dup1\n      swap2\n      sub\n      swap1\n      revert\n    tag_521:\n        /* \"Users/leilei/Downloads/MasterChefV2/ReentrancyGuard.sol\":1671:1672  2 */\n      0x02\n        /* \"Users/leilei/Downloads/MasterChefV2/ReentrancyGuard.sol\":2390:2397  _status */\n      0x01\n        /* \"Users/leilei/Downloads/MasterChefV2/ReentrancyGuard.sol\":2390:2408  _status = _ENTERED */\n      dup2\n      swap1\n      sstore\n      pop\n        /* \"Users/leilei/Downloads/MasterChefV2/MasterChefV2.sol\":13925:13945  PoolInfo memory pool */\n      tag_524\n      tag_232\n      jump\t// in\n    tag_524:\n        /* \"Users/leilei/Downloads/MasterChefV2/MasterChefV2.sol\":13948:13964  updatePool(_pid) */\n      tag_525\n        /* \"Users/leilei/Downloads/MasterChefV2/MasterChefV2.sol\":13959:13963  _pid */\n      dup4\n        /* \"Users/leilei/Downloads/MasterChefV2/MasterChefV2.sol\":13948:13958  updatePool */\n      tag_113\n        /* \"Users/leilei/Downloads/MasterChefV2/MasterChefV2.sol\":13948:13964  updatePool(_pid) */\n      jump\t// in\n    tag_525:\n        /* \"Users/leilei/Downloads/MasterChefV2/MasterChefV2.sol\":13925:13964  PoolInfo memory pool = updatePool(_pid) */\n      swap1\n      pop\n        /* \"Users/leilei/Downloads/MasterChefV2/MasterChefV2.sol\":13974:13995  UserInfo storage user */\n      0x00\n        /* \"Users/leilei/Downloads/MasterChefV2/MasterChefV2.sol\":13998:14006  userInfo */\n      0x06\n        /* \"Users/leilei/Downloads/MasterChefV2/MasterChefV2.sol\":13998:14012  userInfo[_pid] */\n      0x00\n        /* \"Users/leilei/Downloads/MasterChefV2/MasterChefV2.sol\":14007:14011  _pid */\n      dup6\n        /* \"Users/leilei/Downloads/MasterChefV2/MasterChefV2.sol\":13998:14012  userInfo[_pid] */\n      dup2\n      mstore\n      0x20\n      add\n      swap1\n      dup2\n      mstore\n      0x20\n      add\n      0x00\n      keccak256\n        /* \"Users/leilei/Downloads/MasterChefV2/MasterChefV2.sol\":13998:14024  userInfo[_pid][msg.sender] */\n      0x00\n        /* \"Users/leilei/Downloads/MasterChefV2/MasterChefV2.sol\":14013:14023  msg.sender */\n      caller\n        /* \"Users/leilei/Downloads/MasterChefV2/MasterChefV2.sol\":13998:14024  userInfo[_pid][msg.sender] */\n      0xffffffffffffffffffffffffffffffffffffffff\n      and\n      0xffffffffffffffffffffffffffffffffffffffff\n      and\n      dup2\n      mstore\n      0x20\n      add\n      swap1\n      dup2\n      mstore\n      0x20\n      add\n      0x00\n      keccak256\n        /* \"Users/leilei/Downloads/MasterChefV2/MasterChefV2.sol\":13974:14024  UserInfo storage user = userInfo[_pid][msg.sender] */\n      swap1\n      pop\n        /* \"Users/leilei/Downloads/MasterChefV2/MasterChefV2.sol\":14056:14060  pool */\n      dup2\n        /* \"Users/leilei/Downloads/MasterChefV2/MasterChefV2.sol\":14056:14070  pool.isRegular */\n      0x80\n      add\n      mload\n        /* \"Users/leilei/Downloads/MasterChefV2/MasterChefV2.sol\":14056:14095  pool.isRegular || whiteList[msg.sender] */\n      dup1\n      tag_526\n      jumpi\n      pop\n        /* \"Users/leilei/Downloads/MasterChefV2/MasterChefV2.sol\":14074:14083  whiteList */\n      0x07\n        /* \"Users/leilei/Downloads/MasterChefV2/MasterChefV2.sol\":14074:14095  whiteList[msg.sender] */\n      0x00\n        /* \"Users/leilei/Downloads/MasterChefV2/MasterChefV2.sol\":14084:14094  msg.sender */\n      caller\n        /* \"Users/leilei/Downloads/MasterChefV2/MasterChefV2.sol\":14074:14095  whiteList[msg.sender] */\n      0xffffffffffffffffffffffffffffffffffffffff\n      and\n      0xffffffffffffffffffffffffffffffffffffffff\n      and\n      dup2\n      mstore\n      0x20\n      add\n      swap1\n      dup2\n      mstore\n      0x20\n      add\n      0x00\n      keccak256\n      0x00\n      swap1\n      sload\n      swap1\n      0x0100\n      exp\n      swap1\n      div\n      0xff\n      and\n        /* \"Users/leilei/Downloads/MasterChefV2/MasterChefV2.sol\":14056:14095  pool.isRegular || whiteList[msg.sender] */\n    tag_526:\n        /* \"Users/leilei/Downloads/MasterChefV2/MasterChefV2.sol\":14035:14187  require(... */\n      tag_527\n      jumpi\n      mload(0x40)\n      0x08c379a000000000000000000000000000000000000000000000000000000000\n      dup2\n      mstore\n      0x04\n      add\n      tag_528\n      swap1\n      tag_529\n      jump\t// in\n    tag_528:\n      mload(0x40)\n      dup1\n      swap2\n      sub\n      swap1\n      revert\n    tag_527:\n        /* \"Users/leilei/Downloads/MasterChefV2/MasterChefV2.sol\":14198:14216  uint256 multiplier */\n      0x00\n        /* \"Users/leilei/Downloads/MasterChefV2/MasterChefV2.sol\":14219:14255  getBoostMultiplier(msg.sender, _pid) */\n      tag_530\n        /* \"Users/leilei/Downloads/MasterChefV2/MasterChefV2.sol\":14238:14248  msg.sender */\n      caller\n        /* \"Users/leilei/Downloads/MasterChefV2/MasterChefV2.sol\":14250:14254  _pid */\n      dup7\n        /* \"Users/leilei/Downloads/MasterChefV2/MasterChefV2.sol\":14219:14237  getBoostMultiplier */\n      tag_56\n        /* \"Users/leilei/Downloads/MasterChefV2/MasterChefV2.sol\":14219:14255  getBoostMultiplier(msg.sender, _pid) */\n      jump\t// in\n    tag_530:\n        /* \"Users/leilei/Downloads/MasterChefV2/MasterChefV2.sol\":14198:14255  uint256 multiplier = getBoostMultiplier(msg.sender, _pid) */\n      swap1\n      pop\n        /* \"Users/leilei/Downloads/MasterChefV2/MasterChefV2.sol\":14284:14285  0 */\n      0x00\n        /* \"Users/leilei/Downloads/MasterChefV2/MasterChefV2.sol\":14270:14274  user */\n      dup3\n        /* \"Users/leilei/Downloads/MasterChefV2/MasterChefV2.sol\":14270:14281  user.amount */\n      0x00\n      add\n      sload\n        /* \"Users/leilei/Downloads/MasterChefV2/MasterChefV2.sol\":14270:14285  user.amount > 0 */\n      gt\n        /* \"Users/leilei/Downloads/MasterChefV2/MasterChefV2.sol\":14266:14359  if (user.amount > 0) {... */\n      iszero\n      tag_531\n      jumpi\n        /* \"Users/leilei/Downloads/MasterChefV2/MasterChefV2.sol\":14301:14348  settlePendingCake(msg.sender, _pid, multiplier) */\n      tag_532\n        /* \"Users/leilei/Downloads/MasterChefV2/MasterChefV2.sol\":14319:14329  msg.sender */\n      caller\n        /* \"Users/leilei/Downloads/MasterChefV2/MasterChefV2.sol\":14331:14335  _pid */\n      dup7\n        /* \"Users/leilei/Downloads/MasterChefV2/MasterChefV2.sol\":14337:14347  multiplier */\n      dup4\n        /* \"Users/leilei/Downloads/MasterChefV2/MasterChefV2.sol\":14301:14318  settlePendingCake */\n      tag_236\n        /* \"Users/leilei/Downloads/MasterChefV2/MasterChefV2.sol\":14301:14348  settlePendingCake(msg.sender, _pid, multiplier) */\n      jump\t// in\n    tag_532:\n        /* \"Users/leilei/Downloads/MasterChefV2/MasterChefV2.sol\":14266:14359  if (user.amount > 0) {... */\n    tag_531:\n        /* \"Users/leilei/Downloads/MasterChefV2/MasterChefV2.sol\":14383:14384  0 */\n      0x00\n        /* \"Users/leilei/Downloads/MasterChefV2/MasterChefV2.sol\":14373:14380  _amount */\n      dup5\n        /* \"Users/leilei/Downloads/MasterChefV2/MasterChefV2.sol\":14373:14384  _amount > 0 */\n      gt\n        /* \"Users/leilei/Downloads/MasterChefV2/MasterChefV2.sol\":14369:14827  if (_amount > 0) {... */\n      iszero\n      tag_533\n      jumpi\n        /* \"Users/leilei/Downloads/MasterChefV2/MasterChefV2.sol\":14400:14414  uint256 before */\n      0x00\n        /* \"Users/leilei/Downloads/MasterChefV2/MasterChefV2.sol\":14417:14424  lpToken */\n      0x05\n        /* \"Users/leilei/Downloads/MasterChefV2/MasterChefV2.sol\":14425:14429  _pid */\n      dup7\n        /* \"Users/leilei/Downloads/MasterChefV2/MasterChefV2.sol\":14417:14430  lpToken[_pid] */\n      dup2\n      sload\n      dup2\n      lt\n      tag_534\n      jumpi\n      invalid\n    tag_534:\n      swap1\n      0x00\n      mstore\n      keccak256(0x00, 0x20)\n      add\n      0x00\n      swap1\n      sload\n      swap1\n      0x0100\n      exp\n      swap1\n      div\n      0xffffffffffffffffffffffffffffffffffffffff\n      and\n        /* \"Users/leilei/Downloads/MasterChefV2/MasterChefV2.sol\":14417:14440  lpToken[_pid].balanceOf */\n      0xffffffffffffffffffffffffffffffffffffffff\n      and\n      0x70a08231\n        /* \"Users/leilei/Downloads/MasterChefV2/MasterChefV2.sol\":14449:14453  this */\n      address\n        /* \"Users/leilei/Downloads/MasterChefV2/MasterChefV2.sol\":14417:14455  lpToken[_pid].balanceOf(address(this)) */\n      mload(0x40)\n      dup3\n      0xffffffff\n      and\n      0xe0\n      shl\n      dup2\n      mstore\n      0x04\n      add\n      tag_536\n      swap2\n      swap1\n      tag_149\n      jump\t// in\n    tag_536:\n      0x20\n      mload(0x40)\n      dup1\n      dup4\n      sub\n      dup2\n      dup7\n      dup1\n      extcodesize\n      iszero\n      dup1\n      iszero\n      tag_537\n      jumpi\n      0x00\n      dup1\n      revert\n    tag_537:\n      pop\n      gas\n      staticcall\n      iszero\n      dup1\n      iszero\n      tag_539\n      jumpi\n      returndatasize\n      0x00\n      dup1\n      returndatacopy\n      revert(0x00, returndatasize)\n    tag_539:\n      pop\n      pop\n      pop\n      pop\n      mload(0x40)\n      returndatasize\n      not(0x1f)\n      0x1f\n      dup3\n      add\n      and\n      dup3\n      add\n      dup1\n      0x40\n      mstore\n      pop\n      dup2\n      add\n      swap1\n      tag_540\n      swap2\n      swap1\n      tag_305\n      jump\t// in\n    tag_540:\n        /* \"Users/leilei/Downloads/MasterChefV2/MasterChefV2.sol\":14400:14455  uint256 before = lpToken[_pid].balanceOf(address(this)) */\n      swap1\n      pop\n        /* \"Users/leilei/Downloads/MasterChefV2/MasterChefV2.sol\":14469:14535  lpToken[_pid].safeTransferFrom(msg.sender, address(this), _amount) */\n      tag_541\n        /* \"Users/leilei/Downloads/MasterChefV2/MasterChefV2.sol\":14500:14510  msg.sender */\n      caller\n        /* \"Users/leilei/Downloads/MasterChefV2/MasterChefV2.sol\":14520:14524  this */\n      address\n        /* \"Users/leilei/Downloads/MasterChefV2/MasterChefV2.sol\":14527:14534  _amount */\n      dup8\n        /* \"Users/leilei/Downloads/MasterChefV2/MasterChefV2.sol\":14469:14476  lpToken */\n      0x05\n        /* \"Users/leilei/Downloads/MasterChefV2/MasterChefV2.sol\":14477:14481  _pid */\n      dup11\n        /* \"Users/leilei/Downloads/MasterChefV2/MasterChefV2.sol\":14469:14482  lpToken[_pid] */\n      dup2\n      sload\n      dup2\n      lt\n      tag_542\n      jumpi\n      invalid\n    tag_542:\n      swap1\n      0x00\n      mstore\n      keccak256(0x00, 0x20)\n      add\n      0x00\n      swap1\n      sload\n      swap1\n      0x0100\n      exp\n      swap1\n      div\n      0xffffffffffffffffffffffffffffffffffffffff\n      and\n        /* \"Users/leilei/Downloads/MasterChefV2/MasterChefV2.sol\":14469:14499  lpToken[_pid].safeTransferFrom */\n      0xffffffffffffffffffffffffffffffffffffffff\n      and\n      tag_310\n      swap1\n        /* \"Users/leilei/Downloads/MasterChefV2/MasterChefV2.sol\":14469:14535  lpToken[_pid].safeTransferFrom(msg.sender, address(this), _amount) */\n      swap4\n      swap3\n      swap2\n      swap1\n      0xffffffff\n      and\n      jump\t// in\n    tag_541:\n        /* \"Users/leilei/Downloads/MasterChefV2/MasterChefV2.sol\":14559:14609  lpToken[_pid].balanceOf(address(this)).sub(before) */\n      tag_544\n        /* \"Users/leilei/Downloads/MasterChefV2/MasterChefV2.sol\":14602:14608  before */\n      dup2\n        /* \"Users/leilei/Downloads/MasterChefV2/MasterChefV2.sol\":14559:14566  lpToken */\n      0x05\n        /* \"Users/leilei/Downloads/MasterChefV2/MasterChefV2.sol\":14567:14571  _pid */\n      dup9\n        /* \"Users/leilei/Downloads/MasterChefV2/MasterChefV2.sol\":14559:14572  lpToken[_pid] */\n      dup2\n      sload\n      dup2\n      lt\n      tag_545\n      jumpi\n      invalid\n    tag_545:\n      swap1\n      0x00\n      mstore\n      keccak256(0x00, 0x20)\n      add\n      0x00\n      swap1\n      sload\n      swap1\n      0x0100\n      exp\n      swap1\n      div\n      0xffffffffffffffffffffffffffffffffffffffff\n      and\n        /* \"Users/leilei/Downloads/MasterChefV2/MasterChefV2.sol\":14559:14582  lpToken[_pid].balanceOf */\n      0xffffffffffffffffffffffffffffffffffffffff\n      and\n      0x70a08231\n        /* \"Users/leilei/Downloads/MasterChefV2/MasterChefV2.sol\":14591:14595  this */\n      address\n        /* \"Users/leilei/Downloads/MasterChefV2/MasterChefV2.sol\":14559:14597  lpToken[_pid].balanceOf(address(this)) */\n      mload(0x40)\n      dup3\n      0xffffffff\n      and\n      0xe0\n      shl\n      dup2\n      mstore\n      0x04\n      add\n      tag_547\n      swap2\n      swap1\n      tag_149\n      jump\t// in\n    tag_547:\n      0x20\n      mload(0x40)\n      dup1\n      dup4\n      sub\n      dup2\n      dup7\n      dup1\n      extcodesize\n      iszero\n      dup1\n      iszero\n      tag_548\n      jumpi\n      0x00\n      dup1\n      revert\n    tag_548:\n      pop\n      gas\n      staticcall\n      iszero\n      dup1\n      iszero\n      tag_550\n      jumpi\n      returndatasize\n      0x00\n      dup1\n      returndatacopy\n      revert(0x00, returndatasize)\n    tag_550:\n      pop\n      pop\n      pop\n      pop\n      mload(0x40)\n      returndatasize\n      not(0x1f)\n      0x1f\n      dup3\n      add\n      and\n      dup3\n      add\n      dup1\n      0x40\n      mstore\n      pop\n      dup2\n      add\n      swap1\n      tag_551\n      swap2\n      swap1\n      tag_305\n      jump\t// in\n    tag_551:\n        /* \"Users/leilei/Downloads/MasterChefV2/MasterChefV2.sol\":14559:14601  lpToken[_pid].balanceOf(address(this)).sub */\n      tag_249\n      swap1\n        /* \"Users/leilei/Downloads/MasterChefV2/MasterChefV2.sol\":14559:14609  lpToken[_pid].balanceOf(address(this)).sub(before) */\n      swap2\n      swap1\n      0xffffffff\n      and\n      jump\t// in\n    tag_544:\n        /* \"Users/leilei/Downloads/MasterChefV2/MasterChefV2.sol\":14549:14609  _amount = lpToken[_pid].balanceOf(address(this)).sub(before) */\n      swap5\n      pop\n        /* \"Users/leilei/Downloads/MasterChefV2/MasterChefV2.sol\":14637:14661  user.amount.add(_amount) */\n      tag_552\n        /* \"Users/leilei/Downloads/MasterChefV2/MasterChefV2.sol\":14653:14660  _amount */\n      dup6\n        /* \"Users/leilei/Downloads/MasterChefV2/MasterChefV2.sol\":14637:14641  user */\n      dup5\n        /* \"Users/leilei/Downloads/MasterChefV2/MasterChefV2.sol\":14637:14648  user.amount */\n      0x00\n      add\n      sload\n        /* \"Users/leilei/Downloads/MasterChefV2/MasterChefV2.sol\":14637:14652  user.amount.add */\n      tag_250\n      swap1\n        /* \"Users/leilei/Downloads/MasterChefV2/MasterChefV2.sol\":14637:14661  user.amount.add(_amount) */\n      swap2\n      swap1\n      0xffffffff\n      and\n      jump\t// in\n    tag_552:\n        /* \"Users/leilei/Downloads/MasterChefV2/MasterChefV2.sol\":14623:14627  user */\n      dup4\n        /* \"Users/leilei/Downloads/MasterChefV2/MasterChefV2.sol\":14623:14634  user.amount */\n      0x00\n      add\n        /* \"Users/leilei/Downloads/MasterChefV2/MasterChefV2.sol\":14623:14661  user.amount = user.amount.add(_amount) */\n      dup2\n      swap1\n      sstore\n      pop\n        /* \"Users/leilei/Downloads/MasterChefV2/MasterChefV2.sol\":14744:14816  pool.totalBoostedShare.add(_amount.mul(multiplier).div(BOOST_PRECISION)) */\n      tag_553\n        /* \"Users/leilei/Downloads/MasterChefV2/MasterChefV2.sol\":14771:14815  _amount.mul(multiplier).div(BOOST_PRECISION) */\n      tag_554\n        /* \"Users/leilei/Downloads/MasterChefV2/MasterChefV2.sol\":4239:4249  100 * 1e10 */\n      0xe8d4a51000\n        /* \"Users/leilei/Downloads/MasterChefV2/MasterChefV2.sol\":14771:14794  _amount.mul(multiplier) */\n      tag_555\n        /* \"Users/leilei/Downloads/MasterChefV2/MasterChefV2.sol\":14783:14793  multiplier */\n      dup6\n        /* \"Users/leilei/Downloads/MasterChefV2/MasterChefV2.sol\":14771:14778  _amount */\n      dup10\n        /* \"Users/leilei/Downloads/MasterChefV2/MasterChefV2.sol\":14771:14782  _amount.mul */\n      tag_241\n      swap1\n        /* \"Users/leilei/Downloads/MasterChefV2/MasterChefV2.sol\":14771:14794  _amount.mul(multiplier) */\n      swap2\n      swap1\n      0xffffffff\n      and\n      jump\t// in\n    tag_555:\n        /* \"Users/leilei/Downloads/MasterChefV2/MasterChefV2.sol\":14771:14798  _amount.mul(multiplier).div */\n      tag_242\n      swap1\n        /* \"Users/leilei/Downloads/MasterChefV2/MasterChefV2.sol\":14771:14815  _amount.mul(multiplier).div(BOOST_PRECISION) */\n      swap2\n      swap1\n      0xffffffff\n      and\n      jump\t// in\n    tag_554:\n        /* \"Users/leilei/Downloads/MasterChefV2/MasterChefV2.sol\":14744:14748  pool */\n      dup6\n        /* \"Users/leilei/Downloads/MasterChefV2/MasterChefV2.sol\":14744:14766  pool.totalBoostedShare */\n      0x60\n      add\n      mload\n        /* \"Users/leilei/Downloads/MasterChefV2/MasterChefV2.sol\":14744:14770  pool.totalBoostedShare.add */\n      tag_250\n      swap1\n        /* \"Users/leilei/Downloads/MasterChefV2/MasterChefV2.sol\":14744:14816  pool.totalBoostedShare.add(_amount.mul(multiplier).div(BOOST_PRECISION)) */\n      swap2\n      swap1\n      0xffffffff\n      and\n      jump\t// in\n    tag_553:\n        /* \"Users/leilei/Downloads/MasterChefV2/MasterChefV2.sol\":14719:14723  pool */\n      dup5\n        /* \"Users/leilei/Downloads/MasterChefV2/MasterChefV2.sol\":14719:14741  pool.totalBoostedShare */\n      0x60\n      add\n        /* \"Users/leilei/Downloads/MasterChefV2/MasterChefV2.sol\":14719:14816  pool.totalBoostedShare = pool.totalBoostedShare.add(_amount.mul(multiplier).div(BOOST_PRECISION)) */\n      dup2\n      dup2\n      mstore\n      pop\n      pop\n        /* \"Users/leilei/Downloads/MasterChefV2/MasterChefV2.sol\":14369:14827  if (_amount > 0) {... */\n      pop\n    tag_533:\n        /* \"Users/leilei/Downloads/MasterChefV2/MasterChefV2.sol\":14855:14975  user.amount.mul(multiplier).div(BOOST_PRECISION).mul(pool.accCakePerShare).div(... */\n      tag_556\n        /* \"Users/leilei/Downloads/MasterChefV2/MasterChefV2.sol\":4117:4121  1e18 */\n      0x0de0b6b3a7640000\n        /* \"Users/leilei/Downloads/MasterChefV2/MasterChefV2.sol\":14855:14929  user.amount.mul(multiplier).div(BOOST_PRECISION).mul(pool.accCakePerShare) */\n      tag_557\n        /* \"Users/leilei/Downloads/MasterChefV2/MasterChefV2.sol\":14908:14912  pool */\n      dup6\n        /* \"Users/leilei/Downloads/MasterChefV2/MasterChefV2.sol\":14908:14928  pool.accCakePerShare */\n      0x00\n      add\n      mload\n        /* \"Users/leilei/Downloads/MasterChefV2/MasterChefV2.sol\":14855:14903  user.amount.mul(multiplier).div(BOOST_PRECISION) */\n      tag_558\n        /* \"Users/leilei/Downloads/MasterChefV2/MasterChefV2.sol\":4239:4249  100 * 1e10 */\n      0xe8d4a51000\n        /* \"Users/leilei/Downloads/MasterChefV2/MasterChefV2.sol\":14855:14882  user.amount.mul(multiplier) */\n      tag_559\n        /* \"Users/leilei/Downloads/MasterChefV2/MasterChefV2.sol\":14871:14881  multiplier */\n      dup8\n        /* \"Users/leilei/Downloads/MasterChefV2/MasterChefV2.sol\":14855:14859  user */\n      dup10\n        /* \"Users/leilei/Downloads/MasterChefV2/MasterChefV2.sol\":14855:14866  user.amount */\n      0x00\n      add\n      sload\n        /* \"Users/leilei/Downloads/MasterChefV2/MasterChefV2.sol\":14855:14870  user.amount.mul */\n      tag_241\n      swap1\n        /* \"Users/leilei/Downloads/MasterChefV2/MasterChefV2.sol\":14855:14882  user.amount.mul(multiplier) */\n      swap2\n      swap1\n      0xffffffff\n      and\n      jump\t// in\n    tag_559:\n        /* \"Users/leilei/Downloads/MasterChefV2/MasterChefV2.sol\":14855:14886  user.amount.mul(multiplier).div */\n      tag_242\n      swap1\n        /* \"Users/leilei/Downloads/MasterChefV2/MasterChefV2.sol\":14855:14903  user.amount.mul(multiplier).div(BOOST_PRECISION) */\n      swap2\n      swap1\n      0xffffffff\n      and\n      jump\t// in\n    tag_558:\n        /* \"Users/leilei/Downloads/MasterChefV2/MasterChefV2.sol\":14855:14907  user.amount.mul(multiplier).div(BOOST_PRECISION).mul */\n      tag_241\n      swap1\n        /* \"Users/leilei/Downloads/MasterChefV2/MasterChefV2.sol\":14855:14929  user.amount.mul(multiplier).div(BOOST_PRECISION).mul(pool.accCakePerShare) */\n      swap2\n      swap1\n      0xffffffff\n      and\n      jump\t// in\n    tag_557:\n        /* \"Users/leilei/Downloads/MasterChefV2/MasterChefV2.sol\":14855:14933  user.amount.mul(multiplier).div(BOOST_PRECISION).mul(pool.accCakePerShare).div */\n      tag_242\n      swap1\n        /* \"Users/leilei/Downloads/MasterChefV2/MasterChefV2.sol\":14855:14975  user.amount.mul(multiplier).div(BOOST_PRECISION).mul(pool.accCakePerShare).div(... */\n      swap2\n      swap1\n      0xffffffff\n      and\n      jump\t// in\n    tag_556:\n        /* \"Users/leilei/Downloads/MasterChefV2/MasterChefV2.sol\":14837:14841  user */\n      dup3\n        /* \"Users/leilei/Downloads/MasterChefV2/MasterChefV2.sol\":14837:14852  user.rewardDebt */\n      0x01\n      add\n        /* \"Users/leilei/Downloads/MasterChefV2/MasterChefV2.sol\":14837:14975  user.rewardDebt = user.amount.mul(multiplier).div(BOOST_PRECISION).mul(pool.accCakePerShare).div(... */\n      dup2\n      swap1\n      sstore\n      pop\n        /* \"Users/leilei/Downloads/MasterChefV2/MasterChefV2.sol\":15002:15006  pool */\n      dup3\n        /* \"Users/leilei/Downloads/MasterChefV2/MasterChefV2.sol\":14985:14993  poolInfo */\n      0x04\n        /* \"Users/leilei/Downloads/MasterChefV2/MasterChefV2.sol\":14994:14998  _pid */\n      dup7\n        /* \"Users/leilei/Downloads/MasterChefV2/MasterChefV2.sol\":14985:14999  poolInfo[_pid] */\n      dup2\n      sload\n      dup2\n      lt\n      tag_560\n      jumpi\n      invalid\n    tag_560:\n      swap1\n      0x00\n      mstore\n      keccak256(0x00, 0x20)\n      swap1\n      0x05\n      mul\n      add\n        /* \"Users/leilei/Downloads/MasterChefV2/MasterChefV2.sol\":14985:15006  poolInfo[_pid] = pool */\n      0x00\n      dup3\n      add\n      mload\n      dup2\n      0x00\n      add\n      sstore\n      0x20\n      dup3\n      add\n      mload\n      dup2\n      0x01\n      add\n      sstore\n      0x40\n      dup3\n      add\n      mload\n      dup2\n      0x02\n      add\n      sstore\n      0x60\n      dup3\n      add\n      mload\n      dup2\n      0x03\n      add\n      sstore\n      0x80\n      dup3\n      add\n      mload\n      dup2\n      0x04\n      add\n      exp(0x0100, 0x00)\n      dup2\n      sload\n      dup2\n      0xff\n      mul\n      not\n      and\n      swap1\n      dup4\n      iszero\n      iszero\n      mul\n      or\n      swap1\n      sstore\n      pop\n      swap1\n      pop\n      pop\n        /* \"Users/leilei/Downloads/MasterChefV2/MasterChefV2.sol\":15042:15046  _pid */\n      dup5\n        /* \"Users/leilei/Downloads/MasterChefV2/MasterChefV2.sol\":15030:15040  msg.sender */\n      caller\n        /* \"Users/leilei/Downloads/MasterChefV2/MasterChefV2.sol\":15022:15056  Deposit(msg.sender, _pid, _amount) */\n      0xffffffffffffffffffffffffffffffffffffffff\n      and\n      0x90890809c654f11d6e72a28fa60149770a0d11ec6c92319d6ceb2bb0a4ea1a15\n        /* \"Users/leilei/Downloads/MasterChefV2/MasterChefV2.sol\":15048:15055  _amount */\n      dup7\n        /* \"Users/leilei/Downloads/MasterChefV2/MasterChefV2.sol\":15022:15056  Deposit(msg.sender, _pid, _amount) */\n      mload(0x40)\n      tag_562\n      swap2\n      swap1\n      tag_58\n      jump\t// in\n    tag_562:\n      mload(0x40)\n      dup1\n      swap2\n      sub\n      swap1\n      log3\n        /* \"Users/leilei/Downloads/MasterChefV2/ReentrancyGuard.sol\":2419:2420  _ */\n      pop\n      pop\n      pop\n        /* \"Users/leilei/Downloads/MasterChefV2/ReentrancyGuard.sol\":1628:1629  1 */\n      0x01\n        /* \"Users/leilei/Downloads/MasterChefV2/ReentrancyGuard.sol\":2563:2570  _status */\n      dup1\n        /* \"Users/leilei/Downloads/MasterChefV2/ReentrancyGuard.sol\":2563:2585  _status = _NOT_ENTERED */\n      dup2\n      swap1\n      sstore\n      pop\n        /* \"Users/leilei/Downloads/MasterChefV2/MasterChefV2.sol\":13845:15063  function deposit(uint256 _pid, uint256 _amount) external nonReentrant {... */\n      pop\n      pop\n      jump\t// out\n        /* \"Users/leilei/Downloads/MasterChefV2/MasterChefV2.sol\":4472:4528  uint256 public constant CAKE_RATE_TOTAL_PRECISION = 1e12 */\n    tag_198:\n        /* \"Users/leilei/Downloads/MasterChefV2/MasterChefV2.sol\":4524:4528  1e12 */\n      0xe8d4a51000\n        /* \"Users/leilei/Downloads/MasterChefV2/MasterChefV2.sol\":4472:4528  uint256 public constant CAKE_RATE_TOTAL_PRECISION = 1e12 */\n      dup2\n      jump\t// out\n        /* \"Users/leilei/Downloads/MasterChefV2/MasterChefV2.sol\":2849:2889  IMasterChef public immutable MASTER_CHEF */\n    tag_201:\n      immutable(\"0x16c8a63d520d02dbd3ba67dd93cae5eadc6219145ea2099e8e9f17a2533fafa7\")\n      dup2\n      jump\t// out\n        /* \"Users/leilei/Downloads/MasterChefV2/Ownable.sol\":1978:2218  function transferOwnership(address newOwner) public virtual onlyOwner {... */\n    tag_206:\n        /* \"Users/leilei/Downloads/MasterChefV2/Ownable.sol\":1275:1287  _msgSender() */\n      tag_564\n        /* \"Users/leilei/Downloads/MasterChefV2/Ownable.sol\":1275:1285  _msgSender */\n      tag_257\n        /* \"Users/leilei/Downloads/MasterChefV2/Ownable.sol\":1275:1287  _msgSender() */\n      jump\t// in\n    tag_564:\n        /* \"Users/leilei/Downloads/MasterChefV2/Ownable.sol\":1265:1287  _owner == _msgSender() */\n      0xffffffffffffffffffffffffffffffffffffffff\n      and\n        /* \"Users/leilei/Downloads/MasterChefV2/Ownable.sol\":1265:1271  _owner */\n      0x00\n      dup1\n      sload\n      swap1\n      0x0100\n      exp\n      swap1\n      div\n      0xffffffffffffffffffffffffffffffffffffffff\n      and\n        /* \"Users/leilei/Downloads/MasterChefV2/Ownable.sol\":1265:1287  _owner == _msgSender() */\n      0xffffffffffffffffffffffffffffffffffffffff\n      and\n      eq\n        /* \"Users/leilei/Downloads/MasterChefV2/Ownable.sol\":1257:1324  require(_owner == _msgSender(), \"Ownable: caller is not the owner\") */\n      tag_565\n      jumpi\n      mload(0x40)\n      0x08c379a000000000000000000000000000000000000000000000000000000000\n      dup2\n      mstore\n      0x04\n      add\n      tag_566\n      swap1\n      tag_260\n      jump\t// in\n    tag_566:\n      mload(0x40)\n      dup1\n      swap2\n      sub\n      swap1\n      revert\n    tag_565:\n        /* \"Users/leilei/Downloads/MasterChefV2/Ownable.sol\":2086:2087  0 */\n      0x00\n        /* \"Users/leilei/Downloads/MasterChefV2/Ownable.sol\":2066:2088  newOwner != address(0) */\n      0xffffffffffffffffffffffffffffffffffffffff\n      and\n        /* \"Users/leilei/Downloads/MasterChefV2/Ownable.sol\":2066:2074  newOwner */\n      dup2\n        /* \"Users/leilei/Downloads/MasterChefV2/Ownable.sol\":2066:2088  newOwner != address(0) */\n      0xffffffffffffffffffffffffffffffffffffffff\n      and\n      eq\n      iszero\n        /* \"Users/leilei/Downloads/MasterChefV2/Ownable.sol\":2058:2131  require(newOwner != address(0), \"Ownable: new owner is the zero address\") */\n      tag_568\n      jumpi\n      mload(0x40)\n      0x08c379a000000000000000000000000000000000000000000000000000000000\n      dup2\n      mstore\n      0x04\n      add\n      tag_569\n      swap1\n      tag_570\n      jump\t// in\n    tag_569:\n      mload(0x40)\n      dup1\n      swap2\n      sub\n      swap1\n      revert\n    tag_568:\n        /* \"Users/leilei/Downloads/MasterChefV2/Ownable.sol\":2175:2183  newOwner */\n      dup1\n        /* \"Users/leilei/Downloads/MasterChefV2/Ownable.sol\":2146:2184  OwnershipTransferred(_owner, newOwner) */\n      0xffffffffffffffffffffffffffffffffffffffff\n      and\n        /* \"Users/leilei/Downloads/MasterChefV2/Ownable.sol\":2167:2173  _owner */\n      0x00\n      dup1\n      sload\n      swap1\n      0x0100\n      exp\n      swap1\n      div\n      0xffffffffffffffffffffffffffffffffffffffff\n      and\n        /* \"Users/leilei/Downloads/MasterChefV2/Ownable.sol\":2146:2184  OwnershipTransferred(_owner, newOwner) */\n      0xffffffffffffffffffffffffffffffffffffffff\n      and\n      0x8be0079c531659141344cd1fd0a4f28419497f9722a3daafe3b4186f6b6457e0\n      mload(0x40)\n      mload(0x40)\n      dup1\n      swap2\n      sub\n      swap1\n      log3\n        /* \"Users/leilei/Downloads/MasterChefV2/Ownable.sol\":2203:2211  newOwner */\n      dup1\n        /* \"Users/leilei/Downloads/MasterChefV2/Ownable.sol\":2194:2200  _owner */\n      0x00\n      dup1\n        /* \"Users/leilei/Downloads/MasterChefV2/Ownable.sol\":2194:2211  _owner = newOwner */\n      0x0100\n      exp\n      dup2\n      sload\n      dup2\n      0xffffffffffffffffffffffffffffffffffffffff\n      mul\n      not\n      and\n      swap1\n      dup4\n      0xffffffffffffffffffffffffffffffffffffffff\n      and\n      mul\n      or\n      swap1\n      sstore\n      pop\n        /* \"Users/leilei/Downloads/MasterChefV2/Ownable.sol\":1978:2218  function transferOwnership(address newOwner) public virtual onlyOwner {... */\n      pop\n      jump\t// out\n        /* \"Users/leilei/Downloads/MasterChefV2/MasterChefV2.sol\":22451:22947  function settlePendingCake(... */\n    tag_236:\n        /* \"Users/leilei/Downloads/MasterChefV2/MasterChefV2.sol\":22582:22602  UserInfo memory user */\n      tag_572\n      tag_273\n      jump\t// in\n    tag_572:\n        /* \"Users/leilei/Downloads/MasterChefV2/MasterChefV2.sol\":22605:22613  userInfo */\n      0x06\n        /* \"Users/leilei/Downloads/MasterChefV2/MasterChefV2.sol\":22605:22619  userInfo[_pid] */\n      0x00\n        /* \"Users/leilei/Downloads/MasterChefV2/MasterChefV2.sol\":22614:22618  _pid */\n      dup5\n        /* \"Users/leilei/Downloads/MasterChefV2/MasterChefV2.sol\":22605:22619  userInfo[_pid] */\n      dup2\n      mstore\n      0x20\n      add\n      swap1\n      dup2\n      mstore\n      0x20\n      add\n      0x00\n      keccak256\n        /* \"Users/leilei/Downloads/MasterChefV2/MasterChefV2.sol\":22605:22626  userInfo[_pid][_user] */\n      0x00\n        /* \"Users/leilei/Downloads/MasterChefV2/MasterChefV2.sol\":22620:22625  _user */\n      dup6\n        /* \"Users/leilei/Downloads/MasterChefV2/MasterChefV2.sol\":22605:22626  userInfo[_pid][_user] */\n      0xffffffffffffffffffffffffffffffffffffffff\n      and\n      0xffffffffffffffffffffffffffffffffffffffff\n      and\n      dup2\n      mstore\n      0x20\n      add\n      swap1\n      dup2\n      mstore\n      0x20\n      add\n      0x00\n      keccak256\n        /* \"Users/leilei/Downloads/MasterChefV2/MasterChefV2.sol\":22582:22626  UserInfo memory user = userInfo[_pid][_user] */\n      mload(0x40)\n      dup1\n      0x60\n      add\n      0x40\n      mstore\n      swap1\n      dup2\n      0x00\n      dup3\n      add\n      sload\n      dup2\n      mstore\n      0x20\n      add\n      0x01\n      dup3\n      add\n      sload\n      dup2\n      mstore\n      0x20\n      add\n      0x02\n      dup3\n      add\n      sload\n      dup2\n      mstore\n      pop\n      pop\n      swap1\n      pop\n        /* \"Users/leilei/Downloads/MasterChefV2/MasterChefV2.sol\":22637:22658  uint256 boostedAmount */\n      0x00\n        /* \"Users/leilei/Downloads/MasterChefV2/MasterChefV2.sol\":22661:22715  user.amount.mul(_boostMultiplier).div(BOOST_PRECISION) */\n      tag_573\n        /* \"Users/leilei/Downloads/MasterChefV2/MasterChefV2.sol\":4239:4249  100 * 1e10 */\n      0xe8d4a51000\n        /* \"Users/leilei/Downloads/MasterChefV2/MasterChefV2.sol\":22661:22694  user.amount.mul(_boostMultiplier) */\n      tag_574\n        /* \"Users/leilei/Downloads/MasterChefV2/MasterChefV2.sol\":22677:22693  _boostMultiplier */\n      dup6\n        /* \"Users/leilei/Downloads/MasterChefV2/MasterChefV2.sol\":22661:22665  user */\n      dup6\n        /* \"Users/leilei/Downloads/MasterChefV2/MasterChefV2.sol\":22661:22672  user.amount */\n      0x00\n      add\n      mload\n        /* \"Users/leilei/Downloads/MasterChefV2/MasterChefV2.sol\":22661:22676  user.amount.mul */\n      tag_241\n      swap1\n        /* \"Users/leilei/Downloads/MasterChefV2/MasterChefV2.sol\":22661:22694  user.amount.mul(_boostMultiplier) */\n      swap2\n      swap1\n      0xffffffff\n      and\n      jump\t// in\n    tag_574:\n        /* \"Users/leilei/Downloads/MasterChefV2/MasterChefV2.sol\":22661:22698  user.amount.mul(_boostMultiplier).div */\n      tag_242\n      swap1\n        /* \"Users/leilei/Downloads/MasterChefV2/MasterChefV2.sol\":22661:22715  user.amount.mul(_boostMultiplier).div(BOOST_PRECISION) */\n      swap2\n      swap1\n      0xffffffff\n      and\n      jump\t// in\n    tag_573:\n        /* \"Users/leilei/Downloads/MasterChefV2/MasterChefV2.sol\":22637:22715  uint256 boostedAmount = user.amount.mul(_boostMultiplier).div(BOOST_PRECISION) */\n      swap1\n      pop\n        /* \"Users/leilei/Downloads/MasterChefV2/MasterChefV2.sol\":22725:22740  uint256 accCake */\n      0x00\n        /* \"Users/leilei/Downloads/MasterChefV2/MasterChefV2.sol\":22743:22816  boostedAmount.mul(poolInfo[_pid].accCakePerShare).div(ACC_CAKE_PRECISION) */\n      tag_575\n        /* \"Users/leilei/Downloads/MasterChefV2/MasterChefV2.sol\":4117:4121  1e18 */\n      0x0de0b6b3a7640000\n        /* \"Users/leilei/Downloads/MasterChefV2/MasterChefV2.sol\":22743:22792  boostedAmount.mul(poolInfo[_pid].accCakePerShare) */\n      tag_576\n        /* \"Users/leilei/Downloads/MasterChefV2/MasterChefV2.sol\":22761:22769  poolInfo */\n      0x04\n        /* \"Users/leilei/Downloads/MasterChefV2/MasterChefV2.sol\":22770:22774  _pid */\n      dup9\n        /* \"Users/leilei/Downloads/MasterChefV2/MasterChefV2.sol\":22761:22775  poolInfo[_pid] */\n      dup2\n      sload\n      dup2\n      lt\n      tag_577\n      jumpi\n      invalid\n    tag_577:\n      swap1\n      0x00\n      mstore\n      keccak256(0x00, 0x20)\n      swap1\n      0x05\n      mul\n      add\n        /* \"Users/leilei/Downloads/MasterChefV2/MasterChefV2.sol\":22761:22791  poolInfo[_pid].accCakePerShare */\n      0x00\n      add\n      sload\n        /* \"Users/leilei/Downloads/MasterChefV2/MasterChefV2.sol\":22743:22756  boostedAmount */\n      dup6\n        /* \"Users/leilei/Downloads/MasterChefV2/MasterChefV2.sol\":22743:22760  boostedAmount.mul */\n      tag_241\n      swap1\n        /* \"Users/leilei/Downloads/MasterChefV2/MasterChefV2.sol\":22743:22792  boostedAmount.mul(poolInfo[_pid].accCakePerShare) */\n      swap2\n      swap1\n      0xffffffff\n      and\n      jump\t// in\n    tag_576:\n        /* \"Users/leilei/Downloads/MasterChefV2/MasterChefV2.sol\":22743:22796  boostedAmount.mul(poolInfo[_pid].accCakePerShare).div */\n      tag_242\n      swap1\n        /* \"Users/leilei/Downloads/MasterChefV2/MasterChefV2.sol\":22743:22816  boostedAmount.mul(poolInfo[_pid].accCakePerShare).div(ACC_CAKE_PRECISION) */\n      swap2\n      swap1\n      0xffffffff\n      and\n      jump\t// in\n    tag_575:\n        /* \"Users/leilei/Downloads/MasterChefV2/MasterChefV2.sol\":22725:22816  uint256 accCake = boostedAmount.mul(poolInfo[_pid].accCakePerShare).div(ACC_CAKE_PRECISION) */\n      swap1\n      pop\n        /* \"Users/leilei/Downloads/MasterChefV2/MasterChefV2.sol\":22826:22841  uint256 pending */\n      0x00\n        /* \"Users/leilei/Downloads/MasterChefV2/MasterChefV2.sol\":22844:22872  accCake.sub(user.rewardDebt) */\n      tag_579\n        /* \"Users/leilei/Downloads/MasterChefV2/MasterChefV2.sol\":22856:22860  user */\n      dup5\n        /* \"Users/leilei/Downloads/MasterChefV2/MasterChefV2.sol\":22856:22871  user.rewardDebt */\n      0x20\n      add\n      mload\n        /* \"Users/leilei/Downloads/MasterChefV2/MasterChefV2.sol\":22844:22851  accCake */\n      dup4\n        /* \"Users/leilei/Downloads/MasterChefV2/MasterChefV2.sol\":22844:22855  accCake.sub */\n      tag_249\n      swap1\n        /* \"Users/leilei/Downloads/MasterChefV2/MasterChefV2.sol\":22844:22872  accCake.sub(user.rewardDebt) */\n      swap2\n      swap1\n      0xffffffff\n      and\n      jump\t// in\n    tag_579:\n        /* \"Users/leilei/Downloads/MasterChefV2/MasterChefV2.sol\":22826:22872  uint256 pending = accCake.sub(user.rewardDebt) */\n      swap1\n      pop\n        /* \"Users/leilei/Downloads/MasterChefV2/MasterChefV2.sol\":22911:22940  _safeTransfer(_user, pending) */\n      tag_580\n        /* \"Users/leilei/Downloads/MasterChefV2/MasterChefV2.sol\":22925:22930  _user */\n      dup8\n        /* \"Users/leilei/Downloads/MasterChefV2/MasterChefV2.sol\":22932:22939  pending */\n      dup3\n        /* \"Users/leilei/Downloads/MasterChefV2/MasterChefV2.sol\":22911:22924  _safeTransfer */\n      tag_449\n        /* \"Users/leilei/Downloads/MasterChefV2/MasterChefV2.sol\":22911:22940  _safeTransfer(_user, pending) */\n      jump\t// in\n    tag_580:\n        /* \"Users/leilei/Downloads/MasterChefV2/MasterChefV2.sol\":22451:22947  function settlePendingCake(... */\n      pop\n      pop\n      pop\n      pop\n      pop\n      pop\n      pop\n      jump\t// out\n        /* \"Users/leilei/Downloads/MasterChefV2/SafeMath.sol\":2180:2639  function mul(uint256 a, uint256 b) internal pure returns (uint256) {... */\n    tag_241:\n        /* \"Users/leilei/Downloads/MasterChefV2/SafeMath.sol\":2238:2245  uint256 */\n      0x00\n        /* \"Users/leilei/Downloads/MasterChefV2/SafeMath.sol\":2484:2485  0 */\n      dup1\n        /* \"Users/leilei/Downloads/MasterChefV2/SafeMath.sol\":2479:2480  a */\n      dup4\n        /* \"Users/leilei/Downloads/MasterChefV2/SafeMath.sol\":2479:2485  a == 0 */\n      eq\n        /* \"Users/leilei/Downloads/MasterChefV2/SafeMath.sol\":2475:2520  if (a == 0) {... */\n      iszero\n      tag_582\n      jumpi\n        /* \"Users/leilei/Downloads/MasterChefV2/SafeMath.sol\":2508:2509  0 */\n      0x00\n        /* \"Users/leilei/Downloads/MasterChefV2/SafeMath.sol\":2501:2509  return 0 */\n      swap1\n      pop\n      jump(tag_581)\n        /* \"Users/leilei/Downloads/MasterChefV2/SafeMath.sol\":2475:2520  if (a == 0) {... */\n    tag_582:\n        /* \"Users/leilei/Downloads/MasterChefV2/SafeMath.sol\":2530:2539  uint256 c */\n      0x00\n        /* \"Users/leilei/Downloads/MasterChefV2/SafeMath.sol\":2546:2547  b */\n      dup3\n        /* \"Users/leilei/Downloads/MasterChefV2/SafeMath.sol\":2542:2543  a */\n      dup5\n        /* \"Users/leilei/Downloads/MasterChefV2/SafeMath.sol\":2542:2547  a * b */\n      mul\n        /* \"Users/leilei/Downloads/MasterChefV2/SafeMath.sol\":2530:2547  uint256 c = a * b */\n      swap1\n      pop\n        /* \"Users/leilei/Downloads/MasterChefV2/SafeMath.sol\":2574:2575  b */\n      dup3\n        /* \"Users/leilei/Downloads/MasterChefV2/SafeMath.sol\":2569:2570  a */\n      dup5\n        /* \"Users/leilei/Downloads/MasterChefV2/SafeMath.sol\":2565:2566  c */\n      dup3\n        /* \"Users/leilei/Downloads/MasterChefV2/SafeMath.sol\":2565:2570  c / a */\n      dup2\n      tag_583\n      jumpi\n      invalid\n    tag_583:\n      div\n        /* \"Users/leilei/Downloads/MasterChefV2/SafeMath.sol\":2565:2575  c / a == b */\n      eq\n        /* \"Users/leilei/Downloads/MasterChefV2/SafeMath.sol\":2557:2613  require(c / a == b, \"SafeMath: multiplication overflow\") */\n      tag_584\n      jumpi\n      mload(0x40)\n      0x08c379a000000000000000000000000000000000000000000000000000000000\n      dup2\n      mstore\n      0x04\n      add\n      tag_585\n      swap1\n      tag_586\n      jump\t// in\n    tag_585:\n      mload(0x40)\n      dup1\n      swap2\n      sub\n      swap1\n      revert\n    tag_584:\n        /* \"Users/leilei/Downloads/MasterChefV2/SafeMath.sol\":2631:2632  c */\n      dup1\n        /* \"Users/leilei/Downloads/MasterChefV2/SafeMath.sol\":2624:2632  return c */\n      swap2\n      pop\n      pop\n        /* \"Users/leilei/Downloads/MasterChefV2/SafeMath.sol\":2180:2639  function mul(uint256 a, uint256 b) internal pure returns (uint256) {... */\n    tag_581:\n      swap3\n      swap2\n      pop\n      pop\n      jump\t// out\n        /* \"Users/leilei/Downloads/MasterChefV2/SafeMath.sol\":3101:3231  function div(uint256 a, uint256 b) internal pure returns (uint256) {... */\n    tag_242:\n        /* \"Users/leilei/Downloads/MasterChefV2/SafeMath.sol\":3159:3166  uint256 */\n      0x00\n        /* \"Users/leilei/Downloads/MasterChefV2/SafeMath.sol\":3185:3224  div(a, b, \"SafeMath: division by zero\") */\n      tag_588\n        /* \"Users/leilei/Downloads/MasterChefV2/SafeMath.sol\":3189:3190  a */\n      dup4\n        /* \"Users/leilei/Downloads/MasterChefV2/SafeMath.sol\":3192:3193  b */\n      dup4\n        /* \"Users/leilei/Downloads/MasterChefV2/SafeMath.sol\":3185:3224  div(a, b, \"SafeMath: division by zero\") */\n      mload(0x40)\n      dup1\n      0x40\n      add\n      0x40\n      mstore\n      dup1\n      0x1a\n      dup2\n      mstore\n      0x20\n      add\n      0x536166654d6174683a206469766973696f6e206279207a65726f000000000000\n      dup2\n      mstore\n      pop\n        /* \"Users/leilei/Downloads/MasterChefV2/SafeMath.sol\":3185:3188  div */\n      tag_589\n        /* \"Users/leilei/Downloads/MasterChefV2/SafeMath.sol\":3185:3224  div(a, b, \"SafeMath: division by zero\") */\n      jump\t// in\n    tag_588:\n        /* \"Users/leilei/Downloads/MasterChefV2/SafeMath.sol\":3178:3224  return div(a, b, \"SafeMath: division by zero\") */\n      swap1\n      pop\n        /* \"Users/leilei/Downloads/MasterChefV2/SafeMath.sol\":3101:3231  function div(uint256 a, uint256 b) internal pure returns (uint256) {... */\n      swap3\n      swap2\n      pop\n      pop\n      jump\t// out\n        /* \"Users/leilei/Downloads/MasterChefV2/SafeMath.sol\":1321:1455  function sub(uint256 a, uint256 b) internal pure returns (uint256) {... */\n    tag_249:\n        /* \"Users/leilei/Downloads/MasterChefV2/SafeMath.sol\":1379:1386  uint256 */\n      0x00\n        /* \"Users/leilei/Downloads/MasterChefV2/SafeMath.sol\":1405:1448  sub(a, b, \"SafeMath: subtraction overflow\") */\n      tag_591\n        /* \"Users/leilei/Downloads/MasterChefV2/SafeMath.sol\":1409:1410  a */\n      dup4\n        /* \"Users/leilei/Downloads/MasterChefV2/SafeMath.sol\":1412:1413  b */\n      dup4\n        /* \"Users/leilei/Downloads/MasterChefV2/SafeMath.sol\":1405:1448  sub(a, b, \"SafeMath: subtraction overflow\") */\n      mload(0x40)\n      dup1\n      0x40\n      add\n      0x40\n      mstore\n      dup1\n      0x1e\n      dup2\n      mstore\n      0x20\n      add\n      0x536166654d6174683a207375627472616374696f6e206f766572666c6f770000\n      dup2\n      mstore\n      pop\n        /* \"Users/leilei/Downloads/MasterChefV2/SafeMath.sol\":1405:1408  sub */\n      tag_592\n        /* \"Users/leilei/Downloads/MasterChefV2/SafeMath.sol\":1405:1448  sub(a, b, \"SafeMath: subtraction overflow\") */\n      jump\t// in\n    tag_591:\n        /* \"Users/leilei/Downloads/MasterChefV2/SafeMath.sol\":1398:1448  return sub(a, b, \"SafeMath: subtraction overflow\") */\n      swap1\n      pop\n        /* \"Users/leilei/Downloads/MasterChefV2/SafeMath.sol\":1321:1455  function sub(uint256 a, uint256 b) internal pure returns (uint256) {... */\n      swap3\n      swap2\n      pop\n      pop\n      jump\t// out\n        /* \"Users/leilei/Downloads/MasterChefV2/SafeMath.sol\":874:1050  function add(uint256 a, uint256 b) internal pure returns (uint256) {... */\n    tag_250:\n        /* \"Users/leilei/Downloads/MasterChefV2/SafeMath.sol\":932:939  uint256 */\n      0x00\n        /* \"Users/leilei/Downloads/MasterChefV2/SafeMath.sol\":951:960  uint256 c */\n      dup1\n        /* \"Users/leilei/Downloads/MasterChefV2/SafeMath.sol\":967:968  b */\n      dup3\n        /* \"Users/leilei/Downloads/MasterChefV2/SafeMath.sol\":963:964  a */\n      dup5\n        /* \"Users/leilei/Downloads/MasterChefV2/SafeMath.sol\":963:968  a + b */\n      add\n        /* \"Users/leilei/Downloads/MasterChefV2/SafeMath.sol\":951:968  uint256 c = a + b */\n      swap1\n      pop\n        /* \"Users/leilei/Downloads/MasterChefV2/SafeMath.sol\":991:992  a */\n      dup4\n        /* \"Users/leilei/Downloads/MasterChefV2/SafeMath.sol\":986:987  c */\n      dup2\n        /* \"Users/leilei/Downloads/MasterChefV2/SafeMath.sol\":986:992  c >= a */\n      lt\n      iszero\n        /* \"Users/leilei/Downloads/MasterChefV2/SafeMath.sol\":978:1024  require(c >= a, \"SafeMath: addition overflow\") */\n      tag_594\n      jumpi\n      mload(0x40)\n      0x08c379a000000000000000000000000000000000000000000000000000000000\n      dup2\n      mstore\n      0x04\n      add\n      tag_595\n      swap1\n      tag_596\n      jump\t// in\n    tag_595:\n      mload(0x40)\n      dup1\n      swap2\n      sub\n      swap1\n      revert\n    tag_594:\n        /* \"Users/leilei/Downloads/MasterChefV2/SafeMath.sol\":1042:1043  c */\n      dup1\n        /* \"Users/leilei/Downloads/MasterChefV2/SafeMath.sol\":1035:1043  return c */\n      swap2\n      pop\n      pop\n        /* \"Users/leilei/Downloads/MasterChefV2/SafeMath.sol\":874:1050  function add(uint256 a, uint256 b) internal pure returns (uint256) {... */\n      swap3\n      swap2\n      pop\n      pop\n      jump\t// out\n        /* \"Users/leilei/Downloads/MasterChefV2/Context.sol\":590:694  function _msgSender() internal view virtual returns (address payable) {... */\n    tag_257:\n        /* \"Users/leilei/Downloads/MasterChefV2/Context.sol\":643:658  address payable */\n      0x00\n        /* \"Users/leilei/Downloads/MasterChefV2/Context.sol\":677:687  msg.sender */\n      caller\n        /* \"Users/leilei/Downloads/MasterChefV2/Context.sol\":670:687  return msg.sender */\n      swap1\n      pop\n        /* \"Users/leilei/Downloads/MasterChefV2/Context.sol\":590:694  function _msgSender() internal view virtual returns (address payable) {... */\n      swap1\n      jump\t// out\n        /* \"Users/leilei/Downloads/MasterChefV2/SafeBEP20.sol\":932:1207  function safeTransferFrom(... */\n    tag_310:\n        /* \"Users/leilei/Downloads/MasterChefV2/SafeBEP20.sol\":1070:1200  _callOptionalReturn(... */\n      tag_599\n        /* \"Users/leilei/Downloads/MasterChefV2/SafeBEP20.sol\":1103:1108  token */\n      dup5\n        /* \"Users/leilei/Downloads/MasterChefV2/SafeBEP20.sol\":1145:1172  token.transferFrom.selector */\n      shl(0xe0, 0x23b872dd)\n        /* \"Users/leilei/Downloads/MasterChefV2/SafeBEP20.sol\":1174:1178  from */\n      dup6\n        /* \"Users/leilei/Downloads/MasterChefV2/SafeBEP20.sol\":1180:1182  to */\n      dup6\n        /* \"Users/leilei/Downloads/MasterChefV2/SafeBEP20.sol\":1184:1189  value */\n      dup6\n        /* \"Users/leilei/Downloads/MasterChefV2/SafeBEP20.sol\":1122:1190  abi.encodeWithSelector(token.transferFrom.selector, from, to, value) */\n      add(0x24, mload(0x40))\n      tag_600\n      swap4\n      swap3\n      swap2\n      swap1\n      tag_601\n      jump\t// in\n    tag_600:\n      mload(0x40)\n      0x20\n      dup2\n      dup4\n      sub\n      sub\n      dup2\n      mstore\n      swap1\n      0x40\n      mstore\n      swap1\n      not(0xffffffffffffffffffffffffffffffffffffffffffffffffffffffff)\n      and\n      0x20\n      dup3\n      add\n      dup1\n      mload\n      0xffffffffffffffffffffffffffffffffffffffffffffffffffffffff\n      dup4\n      dup2\n      dup4\n      and\n      or\n      dup4\n      mstore\n      pop\n      pop\n      pop\n      pop\n        /* \"Users/leilei/Downloads/MasterChefV2/SafeBEP20.sol\":1070:1089  _callOptionalReturn */\n      tag_602\n        /* \"Users/leilei/Downloads/MasterChefV2/SafeBEP20.sol\":1070:1200  _callOptionalReturn(... */\n      jump\t// in\n    tag_599:\n        /* \"Users/leilei/Downloads/MasterChefV2/SafeBEP20.sol\":932:1207  function safeTransferFrom(... */\n      pop\n      pop\n      pop\n      pop\n      jump\t// out\n        /* \"Users/leilei/Downloads/MasterChefV2/SafeBEP20.sol\":687:926  function safeTransfer(... */\n    tag_346:\n        /* \"Users/leilei/Downloads/MasterChefV2/SafeBEP20.sol\":799:919  _callOptionalReturn(... */\n      tag_604\n        /* \"Users/leilei/Downloads/MasterChefV2/SafeBEP20.sol\":832:837  token */\n      dup4\n        /* \"Users/leilei/Downloads/MasterChefV2/SafeBEP20.sol\":874:897  token.transfer.selector */\n      shl(0xe0, 0xa9059cbb)\n        /* \"Users/leilei/Downloads/MasterChefV2/SafeBEP20.sol\":899:901  to */\n      dup5\n        /* \"Users/leilei/Downloads/MasterChefV2/SafeBEP20.sol\":903:908  value */\n      dup5\n        /* \"Users/leilei/Downloads/MasterChefV2/SafeBEP20.sol\":851:909  abi.encodeWithSelector(token.transfer.selector, to, value) */\n      add(0x24, mload(0x40))\n      tag_605\n      swap3\n      swap2\n      swap1\n      tag_312\n      jump\t// in\n    tag_605:\n      mload(0x40)\n      0x20\n      dup2\n      dup4\n      sub\n      sub\n      dup2\n      mstore\n      swap1\n      0x40\n      mstore\n      swap1\n      not(0xffffffffffffffffffffffffffffffffffffffffffffffffffffffff)\n      and\n      0x20\n      dup3\n      add\n      dup1\n      mload\n      0xffffffffffffffffffffffffffffffffffffffffffffffffffffffff\n      dup4\n      dup2\n      dup4\n      and\n      or\n      dup4\n      mstore\n      pop\n      pop\n      pop\n      pop\n        /* \"Users/leilei/Downloads/MasterChefV2/SafeBEP20.sol\":799:818  _callOptionalReturn */\n      tag_602\n        /* \"Users/leilei/Downloads/MasterChefV2/SafeBEP20.sol\":799:919  _callOptionalReturn(... */\n      jump\t// in\n    tag_604:\n        /* \"Users/leilei/Downloads/MasterChefV2/SafeBEP20.sol\":687:926  function safeTransfer(... */\n      pop\n      pop\n      pop\n      jump\t// out\n        /* \"Users/leilei/Downloads/MasterChefV2/MasterChefV2.sol\":23081:23571  function _safeTransfer(address _to, uint256 _amount) internal {... */\n    tag_449:\n        /* \"Users/leilei/Downloads/MasterChefV2/MasterChefV2.sol\":23167:23168  0 */\n      0x00\n        /* \"Users/leilei/Downloads/MasterChefV2/MasterChefV2.sol\":23157:23164  _amount */\n      dup2\n        /* \"Users/leilei/Downloads/MasterChefV2/MasterChefV2.sol\":23157:23168  _amount > 0 */\n      gt\n        /* \"Users/leilei/Downloads/MasterChefV2/MasterChefV2.sol\":23153:23565  if (_amount > 0) {... */\n      iszero\n      tag_607\n      jumpi\n        /* \"Users/leilei/Downloads/MasterChefV2/MasterChefV2.sol\":23298:23305  _amount */\n      dup1\n        /* \"Users/leilei/Downloads/MasterChefV2/MasterChefV2.sol\":23266:23270  CAKE */\n      immutable(\"0xe6a1c065389a8d929a5a64a56bc16a7e49ca76d19f5c2b002f72a1f543f272ee\")\n        /* \"Users/leilei/Downloads/MasterChefV2/MasterChefV2.sol\":23266:23280  CAKE.balanceOf */\n      0xffffffffffffffffffffffffffffffffffffffff\n      and\n      0x70a08231\n        /* \"Users/leilei/Downloads/MasterChefV2/MasterChefV2.sol\":23289:23293  this */\n      address\n        /* \"Users/leilei/Downloads/MasterChefV2/MasterChefV2.sol\":23266:23295  CAKE.balanceOf(address(this)) */\n      mload(0x40)\n      dup3\n      0xffffffff\n      and\n      0xe0\n      shl\n      dup2\n      mstore\n      0x04\n      add\n      tag_608\n      swap2\n      swap1\n      tag_149\n      jump\t// in\n    tag_608:\n      0x20\n      mload(0x40)\n      dup1\n      dup4\n      sub\n      dup2\n      dup7\n      dup1\n      extcodesize\n      iszero\n      dup1\n      iszero\n      tag_609\n      jumpi\n      0x00\n      dup1\n      revert\n    tag_609:\n      pop\n      gas\n      staticcall\n      iszero\n      dup1\n      iszero\n      tag_611\n      jumpi\n      returndatasize\n      0x00\n      dup1\n      returndatacopy\n      revert(0x00, returndatasize)\n    tag_611:\n      pop\n      pop\n      pop\n      pop\n      mload(0x40)\n      returndatasize\n      not(0x1f)\n      0x1f\n      dup3\n      add\n      and\n      dup3\n      add\n      dup1\n      0x40\n      mstore\n      pop\n      dup2\n      add\n      swap1\n      tag_612\n      swap2\n      swap1\n      tag_305\n      jump\t// in\n    tag_612:\n        /* \"Users/leilei/Downloads/MasterChefV2/MasterChefV2.sol\":23266:23305  CAKE.balanceOf(address(this)) < _amount */\n      lt\n        /* \"Users/leilei/Downloads/MasterChefV2/MasterChefV2.sol\":23262:23363  if (CAKE.balanceOf(address(this)) < _amount) {... */\n      iszero\n      tag_613\n      jumpi\n        /* \"Users/leilei/Downloads/MasterChefV2/MasterChefV2.sol\":23325:23348  harvestFromMasterChef() */\n      tag_614\n        /* \"Users/leilei/Downloads/MasterChefV2/MasterChefV2.sol\":23325:23346  harvestFromMasterChef */\n      tag_110\n        /* \"Users/leilei/Downloads/MasterChefV2/MasterChefV2.sol\":23325:23348  harvestFromMasterChef() */\n      jump\t// in\n    tag_614:\n        /* \"Users/leilei/Downloads/MasterChefV2/MasterChefV2.sol\":23262:23363  if (CAKE.balanceOf(address(this)) < _amount) {... */\n    tag_613:\n        /* \"Users/leilei/Downloads/MasterChefV2/MasterChefV2.sol\":23376:23391  uint256 balance */\n      0x00\n        /* \"Users/leilei/Downloads/MasterChefV2/MasterChefV2.sol\":23394:23398  CAKE */\n      immutable(\"0xe6a1c065389a8d929a5a64a56bc16a7e49ca76d19f5c2b002f72a1f543f272ee\")\n        /* \"Users/leilei/Downloads/MasterChefV2/MasterChefV2.sol\":23394:23408  CAKE.balanceOf */\n      0xffffffffffffffffffffffffffffffffffffffff\n      and\n      0x70a08231\n        /* \"Users/leilei/Downloads/MasterChefV2/MasterChefV2.sol\":23417:23421  this */\n      address\n        /* \"Users/leilei/Downloads/MasterChefV2/MasterChefV2.sol\":23394:23423  CAKE.balanceOf(address(this)) */\n      mload(0x40)\n      dup3\n      0xffffffff\n      and\n      0xe0\n      shl\n      dup2\n      mstore\n      0x04\n      add\n      tag_615\n      swap2\n      swap1\n      tag_149\n      jump\t// in\n    tag_615:\n      0x20\n      mload(0x40)\n      dup1\n      dup4\n      sub\n      dup2\n      dup7\n      dup1\n      extcodesize\n      iszero\n      dup1\n      iszero\n      tag_616\n      jumpi\n      0x00\n      dup1\n      revert\n    tag_616:\n      pop\n      gas\n      staticcall\n      iszero\n      dup1\n      iszero\n      tag_618\n      jumpi\n      returndatasize\n      0x00\n      dup1\n      returndatacopy\n      revert(0x00, returndatasize)\n    tag_618:\n      pop\n      pop\n      pop\n      pop\n      mload(0x40)\n      returndatasize\n      not(0x1f)\n      0x1f\n      dup3\n      add\n      and\n      dup3\n      add\n      dup1\n      0x40\n      mstore\n      pop\n      dup2\n      add\n      swap1\n      tag_619\n      swap2\n      swap1\n      tag_305\n      jump\t// in\n    tag_619:\n        /* \"Users/leilei/Downloads/MasterChefV2/MasterChefV2.sol\":23376:23423  uint256 balance = CAKE.balanceOf(address(this)) */\n      swap1\n      pop\n        /* \"Users/leilei/Downloads/MasterChefV2/MasterChefV2.sol\":23451:23458  _amount */\n      dup2\n        /* \"Users/leilei/Downloads/MasterChefV2/MasterChefV2.sol\":23441:23448  balance */\n      dup2\n        /* \"Users/leilei/Downloads/MasterChefV2/MasterChefV2.sol\":23441:23458  balance < _amount */\n      lt\n        /* \"Users/leilei/Downloads/MasterChefV2/MasterChefV2.sol\":23437:23510  if (balance < _amount) {... */\n      iszero\n      tag_620\n      jumpi\n        /* \"Users/leilei/Downloads/MasterChefV2/MasterChefV2.sol\":23488:23495  balance */\n      dup1\n        /* \"Users/leilei/Downloads/MasterChefV2/MasterChefV2.sol\":23478:23495  _amount = balance */\n      swap2\n      pop\n        /* \"Users/leilei/Downloads/MasterChefV2/MasterChefV2.sol\":23437:23510  if (balance < _amount) {... */\n    tag_620:\n        /* \"Users/leilei/Downloads/MasterChefV2/MasterChefV2.sol\":23523:23554  CAKE.safeTransfer(_to, _amount) */\n      tag_621\n        /* \"Users/leilei/Downloads/MasterChefV2/MasterChefV2.sol\":23541:23544  _to */\n      dup4\n        /* \"Users/leilei/Downloads/MasterChefV2/MasterChefV2.sol\":23546:23553  _amount */\n      dup4\n        /* \"Users/leilei/Downloads/MasterChefV2/MasterChefV2.sol\":23523:23527  CAKE */\n      immutable(\"0xe6a1c065389a8d929a5a64a56bc16a7e49ca76d19f5c2b002f72a1f543f272ee\")\n        /* \"Users/leilei/Downloads/MasterChefV2/MasterChefV2.sol\":23523:23540  CAKE.safeTransfer */\n      0xffffffffffffffffffffffffffffffffffffffff\n      and\n      tag_346\n      swap1\n        /* \"Users/leilei/Downloads/MasterChefV2/MasterChefV2.sol\":23523:23554  CAKE.safeTransfer(_to, _amount) */\n      swap3\n      swap2\n      swap1\n      0xffffffff\n      and\n      jump\t// in\n    tag_621:\n        /* \"Users/leilei/Downloads/MasterChefV2/MasterChefV2.sol\":23153:23565  if (_amount > 0) {... */\n      pop\n    tag_607:\n        /* \"Users/leilei/Downloads/MasterChefV2/MasterChefV2.sol\":23081:23571  function _safeTransfer(address _to, uint256 _amount) internal {... */\n      pop\n      pop\n      jump\t// out\n        /* \"Users/leilei/Downloads/MasterChefV2/SafeMath.sol\":3713:3985  function div(uint256 a, uint256 b, string memory errorMessage) internal pure returns (uint256) {... */\n    tag_589:\n        /* \"Users/leilei/Downloads/MasterChefV2/SafeMath.sol\":3799:3806  uint256 */\n      0x00\n        /* \"Users/leilei/Downloads/MasterChefV2/SafeMath.sol\":3830:3831  0 */\n      dup1\n        /* \"Users/leilei/Downloads/MasterChefV2/SafeMath.sol\":3826:3827  b */\n      dup4\n        /* \"Users/leilei/Downloads/MasterChefV2/SafeMath.sol\":3826:3831  b > 0 */\n      gt\n        /* \"Users/leilei/Downloads/MasterChefV2/SafeMath.sol\":3833:3845  errorMessage */\n      dup3\n        /* \"Users/leilei/Downloads/MasterChefV2/SafeMath.sol\":3818:3846  require(b > 0, errorMessage) */\n      swap1\n      tag_623\n      jumpi\n      mload(0x40)\n      0x08c379a000000000000000000000000000000000000000000000000000000000\n      dup2\n      mstore\n      0x04\n      add\n      tag_624\n      swap2\n      swap1\n      tag_625\n      jump\t// in\n    tag_624:\n      mload(0x40)\n      dup1\n      swap2\n      sub\n      swap1\n      revert\n    tag_623:\n      pop\n        /* \"Users/leilei/Downloads/MasterChefV2/SafeMath.sol\":3856:3865  uint256 c */\n      0x00\n        /* \"Users/leilei/Downloads/MasterChefV2/SafeMath.sol\":3872:3873  b */\n      dup4\n        /* \"Users/leilei/Downloads/MasterChefV2/SafeMath.sol\":3868:3869  a */\n      dup6\n        /* \"Users/leilei/Downloads/MasterChefV2/SafeMath.sol\":3868:3873  a / b */\n      dup2\n      tag_626\n      jumpi\n      invalid\n    tag_626:\n      div\n        /* \"Users/leilei/Downloads/MasterChefV2/SafeMath.sol\":3856:3873  uint256 c = a / b */\n      swap1\n      pop\n        /* \"Users/leilei/Downloads/MasterChefV2/SafeMath.sol\":3977:3978  c */\n      dup1\n        /* \"Users/leilei/Downloads/MasterChefV2/SafeMath.sol\":3970:3978  return c */\n      swap2\n      pop\n      pop\n        /* \"Users/leilei/Downloads/MasterChefV2/SafeMath.sol\":3713:3985  function div(uint256 a, uint256 b, string memory errorMessage) internal pure returns (uint256) {... */\n      swap4\n      swap3\n      pop\n      pop\n      pop\n      jump\t// out\n        /* \"Users/leilei/Downloads/MasterChefV2/SafeMath.sol\":1746:1933  function sub(uint256 a, uint256 b, string memory errorMessage) internal pure returns (uint256) {... */\n    tag_592:\n        /* \"Users/leilei/Downloads/MasterChefV2/SafeMath.sol\":1832:1839  uint256 */\n      0x00\n        /* \"Users/leilei/Downloads/MasterChefV2/SafeMath.sol\":1864:1865  a */\n      dup4\n        /* \"Users/leilei/Downloads/MasterChefV2/SafeMath.sol\":1859:1860  b */\n      dup4\n        /* \"Users/leilei/Downloads/MasterChefV2/SafeMath.sol\":1859:1865  b <= a */\n      gt\n      iszero\n        /* \"Users/leilei/Downloads/MasterChefV2/SafeMath.sol\":1867:1879  errorMessage */\n      dup3\n        /* \"Users/leilei/Downloads/MasterChefV2/SafeMath.sol\":1851:1880  require(b <= a, errorMessage) */\n      swap1\n      tag_628\n      jumpi\n      mload(0x40)\n      0x08c379a000000000000000000000000000000000000000000000000000000000\n      dup2\n      mstore\n      0x04\n      add\n      tag_629\n      swap2\n      swap1\n      tag_625\n      jump\t// in\n    tag_629:\n      mload(0x40)\n      dup1\n      swap2\n      sub\n      swap1\n      revert\n    tag_628:\n      pop\n        /* \"Users/leilei/Downloads/MasterChefV2/SafeMath.sol\":1890:1899  uint256 c */\n      0x00\n        /* \"Users/leilei/Downloads/MasterChefV2/SafeMath.sol\":1906:1907  b */\n      dup4\n        /* \"Users/leilei/Downloads/MasterChefV2/SafeMath.sol\":1902:1903  a */\n      dup6\n        /* \"Users/leilei/Downloads/MasterChefV2/SafeMath.sol\":1902:1907  a - b */\n      sub\n        /* \"Users/leilei/Downloads/MasterChefV2/SafeMath.sol\":1890:1907  uint256 c = a - b */\n      swap1\n      pop\n        /* \"Users/leilei/Downloads/MasterChefV2/SafeMath.sol\":1925:1926  c */\n      dup1\n        /* \"Users/leilei/Downloads/MasterChefV2/SafeMath.sol\":1918:1926  return c */\n      swap2\n      pop\n      pop\n        /* \"Users/leilei/Downloads/MasterChefV2/SafeMath.sol\":1746:1933  function sub(uint256 a, uint256 b, string memory errorMessage) internal pure returns (uint256) {... */\n      swap4\n      swap3\n      pop\n      pop\n      pop\n      jump\t// out\n        /* \"Users/leilei/Downloads/MasterChefV2/SafeBEP20.sol\":3315:4132  function _callOptionalReturn(IBEP20 token, bytes memory data) private {... */\n    tag_602:\n        /* \"Users/leilei/Downloads/MasterChefV2/SafeBEP20.sol\":3734:3757  bytes memory returndata */\n      0x60\n        /* \"Users/leilei/Downloads/MasterChefV2/SafeBEP20.sol\":3768:3837  address(token).functionCall(data, \"SafeBEP20: low-level call failed\") */\n      tag_631\n        /* \"Users/leilei/Downloads/MasterChefV2/SafeBEP20.sol\":3796:3800  data */\n      dup3\n        /* \"Users/leilei/Downloads/MasterChefV2/SafeBEP20.sol\":3768:3837  address(token).functionCall(data, \"SafeBEP20: low-level call failed\") */\n      mload(0x40)\n      dup1\n      0x40\n      add\n      0x40\n      mstore\n      dup1\n      0x20\n      dup2\n      mstore\n      0x20\n      add\n      0x5361666542455032303a206c6f772d6c6576656c2063616c6c206661696c6564\n      dup2\n      mstore\n      pop\n        /* \"Users/leilei/Downloads/MasterChefV2/SafeBEP20.sol\":3776:3781  token */\n      dup6\n        /* \"Users/leilei/Downloads/MasterChefV2/SafeBEP20.sol\":3768:3795  address(token).functionCall */\n      0xffffffffffffffffffffffffffffffffffffffff\n      and\n      tag_632\n      swap1\n        /* \"Users/leilei/Downloads/MasterChefV2/SafeBEP20.sol\":3768:3837  address(token).functionCall(data, \"SafeBEP20: low-level call failed\") */\n      swap3\n      swap2\n      swap1\n      0xffffffff\n      and\n      jump\t// in\n    tag_631:\n        /* \"Users/leilei/Downloads/MasterChefV2/SafeBEP20.sol\":3734:3837  bytes memory returndata =... */\n      swap1\n      pop\n        /* \"Users/leilei/Downloads/MasterChefV2/SafeBEP20.sol\":3871:3872  0 */\n      0x00\n        /* \"Users/leilei/Downloads/MasterChefV2/SafeBEP20.sol\":3851:3861  returndata */\n      dup2\n        /* \"Users/leilei/Downloads/MasterChefV2/SafeBEP20.sol\":3851:3868  returndata.length */\n      mload\n        /* \"Users/leilei/Downloads/MasterChefV2/SafeBEP20.sol\":3851:3872  returndata.length > 0 */\n      gt\n        /* \"Users/leilei/Downloads/MasterChefV2/SafeBEP20.sol\":3847:4126  if (returndata.length > 0) {... */\n      iszero\n      tag_633\n      jumpi\n        /* \"Users/leilei/Downloads/MasterChefV2/SafeBEP20.sol\":4020:4030  returndata */\n      dup1\n        /* \"Users/leilei/Downloads/MasterChefV2/SafeBEP20.sol\":4009:4039  abi.decode(returndata, (bool)) */\n      dup1\n      0x20\n      add\n      swap1\n      mload\n      dup2\n      add\n      swap1\n      tag_634\n      swap2\n      swap1\n      tag_317\n      jump\t// in\n    tag_634:\n        /* \"Users/leilei/Downloads/MasterChefV2/SafeBEP20.sol\":3984:4115  require(... */\n      tag_635\n      jumpi\n      mload(0x40)\n      0x08c379a000000000000000000000000000000000000000000000000000000000\n      dup2\n      mstore\n      0x04\n      add\n      tag_636\n      swap1\n      tag_637\n      jump\t// in\n    tag_636:\n      mload(0x40)\n      dup1\n      swap2\n      sub\n      swap1\n      revert\n    tag_635:\n        /* \"Users/leilei/Downloads/MasterChefV2/SafeBEP20.sol\":3847:4126  if (returndata.length > 0) {... */\n    tag_633:\n        /* \"Users/leilei/Downloads/MasterChefV2/SafeBEP20.sol\":3315:4132  function _callOptionalReturn(IBEP20 token, bytes memory data) private {... */\n      pop\n      pop\n      pop\n      jump\t// out\n        /* \"Users/leilei/Downloads/MasterChefV2/Address.sol\":3573:3767  function functionCall(address target, bytes memory data, string memory errorMessage) internal returns (bytes memory) {... */\n    tag_632:\n        /* \"Users/leilei/Downloads/MasterChefV2/Address.sol\":3676:3688  bytes memory */\n      0x60\n        /* \"Users/leilei/Downloads/MasterChefV2/Address.sol\":3707:3760  _functionCallWithValue(target, data, 0, errorMessage) */\n      tag_639\n        /* \"Users/leilei/Downloads/MasterChefV2/Address.sol\":3730:3736  target */\n      dup5\n        /* \"Users/leilei/Downloads/MasterChefV2/Address.sol\":3738:3742  data */\n      dup5\n        /* \"Users/leilei/Downloads/MasterChefV2/Address.sol\":3744:3745  0 */\n      0x00\n        /* \"Users/leilei/Downloads/MasterChefV2/Address.sol\":3747:3759  errorMessage */\n      dup6\n        /* \"Users/leilei/Downloads/MasterChefV2/Address.sol\":3707:3729  _functionCallWithValue */\n      tag_640\n        /* \"Users/leilei/Downloads/MasterChefV2/Address.sol\":3707:3760  _functionCallWithValue(target, data, 0, errorMessage) */\n      jump\t// in\n    tag_639:\n        /* \"Users/leilei/Downloads/MasterChefV2/Address.sol\":3700:3760  return _functionCallWithValue(target, data, 0, errorMessage) */\n      swap1\n      pop\n        /* \"Users/leilei/Downloads/MasterChefV2/Address.sol\":3573:3767  function functionCall(address target, bytes memory data, string memory errorMessage) internal returns (bytes memory) {... */\n      swap4\n      swap3\n      pop\n      pop\n      pop\n      jump\t// out\n        /* \"Users/leilei/Downloads/MasterChefV2/Address.sol\":4920:5878  function _functionCallWithValue(address target, bytes memory data, uint256 weiValue, string memory errorMessage) private returns (bytes memory) {... */\n    tag_640:\n        /* \"Users/leilei/Downloads/MasterChefV2/Address.sol\":5050:5062  bytes memory */\n      0x60\n        /* \"Users/leilei/Downloads/MasterChefV2/Address.sol\":5082:5100  isContract(target) */\n      tag_642\n        /* \"Users/leilei/Downloads/MasterChefV2/Address.sol\":5093:5099  target */\n      dup6\n        /* \"Users/leilei/Downloads/MasterChefV2/Address.sol\":5082:5092  isContract */\n      tag_643\n        /* \"Users/leilei/Downloads/MasterChefV2/Address.sol\":5082:5100  isContract(target) */\n      jump\t// in\n    tag_642:\n        /* \"Users/leilei/Downloads/MasterChefV2/Address.sol\":5074:5134  require(isContract(target), \"Address: call to non-contract\") */\n      tag_644\n      jumpi\n      mload(0x40)\n      0x08c379a000000000000000000000000000000000000000000000000000000000\n      dup2\n      mstore\n      0x04\n      add\n      tag_645\n      swap1\n      tag_646\n      jump\t// in\n    tag_645:\n      mload(0x40)\n      dup1\n      swap2\n      sub\n      swap1\n      revert\n    tag_644:\n        /* \"Users/leilei/Downloads/MasterChefV2/Address.sol\":5205:5217  bool success */\n      0x00\n        /* \"Users/leilei/Downloads/MasterChefV2/Address.sol\":5219:5242  bytes memory returndata */\n      0x60\n        /* \"Users/leilei/Downloads/MasterChefV2/Address.sol\":5246:5252  target */\n      dup7\n        /* \"Users/leilei/Downloads/MasterChefV2/Address.sol\":5246:5257  target.call */\n      0xffffffffffffffffffffffffffffffffffffffff\n      and\n        /* \"Users/leilei/Downloads/MasterChefV2/Address.sol\":5266:5274  weiValue */\n      dup6\n        /* \"Users/leilei/Downloads/MasterChefV2/Address.sol\":5277:5281  data */\n      dup8\n        /* \"Users/leilei/Downloads/MasterChefV2/Address.sol\":5246:5282  target.call{ value: weiValue }(data) */\n      mload(0x40)\n      tag_647\n      swap2\n      swap1\n      tag_648\n      jump\t// in\n    tag_647:\n      0x00\n      mload(0x40)\n      dup1\n      dup4\n      sub\n      dup2\n      dup6\n      dup8\n      gas\n      call\n      swap3\n      pop\n      pop\n      pop\n      returndatasize\n      dup1\n      0x00\n      dup2\n      eq\n      tag_651\n      jumpi\n      mload(0x40)\n      swap2\n      pop\n      and(add(returndatasize, 0x3f), not(0x1f))\n      dup3\n      add\n      0x40\n      mstore\n      returndatasize\n      dup3\n      mstore\n      returndatasize\n      0x00\n      0x20\n      dup5\n      add\n      returndatacopy\n      jump(tag_650)\n    tag_651:\n      0x60\n      swap2\n      pop\n    tag_650:\n      pop\n        /* \"Users/leilei/Downloads/MasterChefV2/Address.sol\":5204:5282  (bool success, bytes memory returndata) = target.call{ value: weiValue }(data) */\n      swap2\n      pop\n      swap2\n      pop\n        /* \"Users/leilei/Downloads/MasterChefV2/Address.sol\":5296:5303  success */\n      dup2\n        /* \"Users/leilei/Downloads/MasterChefV2/Address.sol\":5292:5872  if (success) {... */\n      iszero\n      tag_652\n      jumpi\n        /* \"Users/leilei/Downloads/MasterChefV2/Address.sol\":5326:5336  returndata */\n      dup1\n        /* \"Users/leilei/Downloads/MasterChefV2/Address.sol\":5319:5336  return returndata */\n      swap3\n      pop\n      pop\n      pop\n      jump(tag_641)\n        /* \"Users/leilei/Downloads/MasterChefV2/Address.sol\":5292:5872  if (success) {... */\n    tag_652:\n        /* \"Users/leilei/Downloads/MasterChefV2/Address.sol\":5457:5458  0 */\n      0x00\n        /* \"Users/leilei/Downloads/MasterChefV2/Address.sol\":5437:5447  returndata */\n      dup2\n        /* \"Users/leilei/Downloads/MasterChefV2/Address.sol\":5437:5454  returndata.length */\n      mload\n        /* \"Users/leilei/Downloads/MasterChefV2/Address.sol\":5437:5458  returndata.length > 0 */\n      gt\n        /* \"Users/leilei/Downloads/MasterChefV2/Address.sol\":5433:5862  if (returndata.length > 0) {... */\n      iszero\n      tag_654\n      jumpi\n        /* \"Users/leilei/Downloads/MasterChefV2/Address.sol\":5695:5705  returndata */\n      dup1\n        /* \"Users/leilei/Downloads/MasterChefV2/Address.sol\":5689:5706  mload(returndata) */\n      mload\n        /* \"Users/leilei/Downloads/MasterChefV2/Address.sol\":5755:5770  returndata_size */\n      dup1\n        /* \"Users/leilei/Downloads/MasterChefV2/Address.sol\":5742:5752  returndata */\n      dup3\n        /* \"Users/leilei/Downloads/MasterChefV2/Address.sol\":5738:5740  32 */\n      0x20\n        /* \"Users/leilei/Downloads/MasterChefV2/Address.sol\":5734:5753  add(32, returndata) */\n      add\n        /* \"Users/leilei/Downloads/MasterChefV2/Address.sol\":5727:5771  revert(add(32, returndata), returndata_size) */\n      revert\n        /* \"Users/leilei/Downloads/MasterChefV2/Address.sol\":5644:5789  {... */\n    tag_654:\n        /* \"Users/leilei/Downloads/MasterChefV2/Address.sol\":5834:5846  errorMessage */\n      dup4\n        /* \"Users/leilei/Downloads/MasterChefV2/Address.sol\":5827:5847  revert(errorMessage) */\n      mload(0x40)\n      0x08c379a000000000000000000000000000000000000000000000000000000000\n      dup2\n      mstore\n      0x04\n      add\n      tag_656\n      swap2\n      swap1\n      tag_625\n      jump\t// in\n    tag_656:\n      mload(0x40)\n      dup1\n      swap2\n      sub\n      swap1\n      revert\n        /* \"Users/leilei/Downloads/MasterChefV2/Address.sol\":4920:5878  function _functionCallWithValue(address target, bytes memory data, uint256 weiValue, string memory errorMessage) private returns (bytes memory) {... */\n    tag_641:\n      swap5\n      swap4\n      pop\n      pop\n      pop\n      pop\n      jump\t// out\n        /* \"Users/leilei/Downloads/MasterChefV2/Address.sol\":718:1131  function isContract(address account) internal view returns (bool) {... */\n    tag_643:\n        /* \"Users/leilei/Downloads/MasterChefV2/Address.sol\":778:782  bool */\n      0x00\n        /* \"Users/leilei/Downloads/MasterChefV2/Address.sol\":981:993  uint256 size */\n      dup1\n        /* \"Users/leilei/Downloads/MasterChefV2/Address.sol\":1090:1097  account */\n      dup3\n        /* \"Users/leilei/Downloads/MasterChefV2/Address.sol\":1078:1098  extcodesize(account) */\n      extcodesize\n        /* \"Users/leilei/Downloads/MasterChefV2/Address.sol\":1070:1098  size := extcodesize(account) */\n      swap1\n      pop\n        /* \"Users/leilei/Downloads/MasterChefV2/Address.sol\":1123:1124  0 */\n      0x00\n        /* \"Users/leilei/Downloads/MasterChefV2/Address.sol\":1116:1120  size */\n      dup2\n        /* \"Users/leilei/Downloads/MasterChefV2/Address.sol\":1116:1124  size > 0 */\n      gt\n        /* \"Users/leilei/Downloads/MasterChefV2/Address.sol\":1109:1124  return size > 0 */\n      swap2\n      pop\n      pop\n        /* \"Users/leilei/Downloads/MasterChefV2/Address.sol\":718:1131  function isContract(address account) internal view returns (bool) {... */\n      swap2\n      swap1\n      pop\n      jump\t// out\n    tag_232:\n      mload(0x40)\n      dup1\n      0xa0\n      add\n      0x40\n      mstore\n      dup1\n      0x00\n      dup2\n      mstore\n      0x20\n      add\n      0x00\n      dup2\n      mstore\n      0x20\n      add\n      0x00\n      dup2\n      mstore\n      0x20\n      add\n      0x00\n      dup2\n      mstore\n      0x20\n      add\n      iszero(iszero(0x00))\n      dup2\n      mstore\n      pop\n      swap1\n      jump\t// out\n    tag_273:\n      mload(0x40)\n      dup1\n      0x60\n      add\n      0x40\n      mstore\n      dup1\n      0x00\n      dup2\n      mstore\n      0x20\n      add\n      0x00\n      dup2\n      mstore\n      0x20\n      add\n      0x00\n      dup2\n      mstore\n      pop\n      swap1\n      jump\t// out\n        /* \"--CODEGEN--\":5:135   */\n    tag_659:\n      0x00\n        /* \"--CODEGEN--\":85:91   */\n      dup2\n        /* \"--CODEGEN--\":72:92   */\n      calldataload\n        /* \"--CODEGEN--\":63:92   */\n      swap1\n      pop\n        /* \"--CODEGEN--\":97:130   */\n      tag_661\n        /* \"--CODEGEN--\":124:129   */\n      dup2\n        /* \"--CODEGEN--\":97:130   */\n      tag_662\n      jump\t// in\n    tag_661:\n        /* \"--CODEGEN--\":57:135   */\n      swap3\n      swap2\n      pop\n      pop\n      jump\t// out\n        /* \"--CODEGEN--\":142:266   */\n    tag_663:\n      0x00\n        /* \"--CODEGEN--\":219:225   */\n      dup2\n        /* \"--CODEGEN--\":206:226   */\n      calldataload\n        /* \"--CODEGEN--\":197:226   */\n      swap1\n      pop\n        /* \"--CODEGEN--\":231:261   */\n      tag_665\n        /* \"--CODEGEN--\":255:260   */\n      dup2\n        /* \"--CODEGEN--\":231:261   */\n      tag_666\n      jump\t// in\n    tag_665:\n        /* \"--CODEGEN--\":191:266   */\n      swap3\n      swap2\n      pop\n      pop\n      jump\t// out\n        /* \"--CODEGEN--\":273:401   */\n    tag_667:\n      0x00\n        /* \"--CODEGEN--\":354:360   */\n      dup2\n        /* \"--CODEGEN--\":348:361   */\n      mload\n        /* \"--CODEGEN--\":339:361   */\n      swap1\n      pop\n        /* \"--CODEGEN--\":366:396   */\n      tag_669\n        /* \"--CODEGEN--\":390:395   */\n      dup2\n        /* \"--CODEGEN--\":366:396   */\n      tag_666\n      jump\t// in\n    tag_669:\n        /* \"--CODEGEN--\":333:401   */\n      swap3\n      swap2\n      pop\n      pop\n      jump\t// out\n        /* \"--CODEGEN--\":408:568   */\n    tag_670:\n      0x00\n        /* \"--CODEGEN--\":503:509   */\n      dup2\n        /* \"--CODEGEN--\":490:510   */\n      calldataload\n        /* \"--CODEGEN--\":481:510   */\n      swap1\n      pop\n        /* \"--CODEGEN--\":515:563   */\n      tag_672\n        /* \"--CODEGEN--\":557:562   */\n      dup2\n        /* \"--CODEGEN--\":515:563   */\n      tag_673\n      jump\t// in\n    tag_672:\n        /* \"--CODEGEN--\":475:568   */\n      swap3\n      swap2\n      pop\n      pop\n      jump\t// out\n        /* \"--CODEGEN--\":575:705   */\n    tag_674:\n      0x00\n        /* \"--CODEGEN--\":655:661   */\n      dup2\n        /* \"--CODEGEN--\":642:662   */\n      calldataload\n        /* \"--CODEGEN--\":633:662   */\n      swap1\n      pop\n        /* \"--CODEGEN--\":667:700   */\n      tag_676\n        /* \"--CODEGEN--\":694:699   */\n      dup2\n        /* \"--CODEGEN--\":667:700   */\n      tag_677\n      jump\t// in\n    tag_676:\n        /* \"--CODEGEN--\":627:705   */\n      swap3\n      swap2\n      pop\n      pop\n      jump\t// out\n        /* \"--CODEGEN--\":712:846   */\n    tag_678:\n      0x00\n        /* \"--CODEGEN--\":796:802   */\n      dup2\n        /* \"--CODEGEN--\":790:803   */\n      mload\n        /* \"--CODEGEN--\":781:803   */\n      swap1\n      pop\n        /* \"--CODEGEN--\":808:841   */\n      tag_680\n        /* \"--CODEGEN--\":835:840   */\n      dup2\n        /* \"--CODEGEN--\":808:841   */\n      tag_677\n      jump\t// in\n    tag_680:\n        /* \"--CODEGEN--\":775:846   */\n      swap3\n      swap2\n      pop\n      pop\n      jump\t// out\n        /* \"--CODEGEN--\":853:1094   */\n    tag_68:\n      0x00\n        /* \"--CODEGEN--\":957:959   */\n      0x20\n        /* \"--CODEGEN--\":945:954   */\n      dup3\n        /* \"--CODEGEN--\":936:943   */\n      dup5\n        /* \"--CODEGEN--\":932:955   */\n      sub\n        /* \"--CODEGEN--\":928:960   */\n      slt\n        /* \"--CODEGEN--\":925:927   */\n      iszero\n      tag_682\n      jumpi\n        /* \"--CODEGEN--\":973:974   */\n      0x00\n        /* \"--CODEGEN--\":970:971   */\n      dup1\n        /* \"--CODEGEN--\":963:975   */\n      revert\n        /* \"--CODEGEN--\":925:927   */\n    tag_682:\n        /* \"--CODEGEN--\":1008:1009   */\n      0x00\n        /* \"--CODEGEN--\":1025:1078   */\n      tag_683\n        /* \"--CODEGEN--\":1070:1077   */\n      dup5\n        /* \"--CODEGEN--\":1061:1067   */\n      dup3\n        /* \"--CODEGEN--\":1050:1059   */\n      dup6\n        /* \"--CODEGEN--\":1046:1068   */\n      add\n        /* \"--CODEGEN--\":1025:1078   */\n      tag_659\n      jump\t// in\n    tag_683:\n        /* \"--CODEGEN--\":1015:1078   */\n      swap2\n      pop\n        /* \"--CODEGEN--\":987:1084   */\n      pop\n        /* \"--CODEGEN--\":919:1094   */\n      swap3\n      swap2\n      pop\n      pop\n      jump\t// out\n        /* \"--CODEGEN--\":1101:1461   */\n    tag_172:\n      0x00\n      dup1\n        /* \"--CODEGEN--\":1219:1221   */\n      0x40\n        /* \"--CODEGEN--\":1207:1216   */\n      dup4\n        /* \"--CODEGEN--\":1198:1205   */\n      dup6\n        /* \"--CODEGEN--\":1194:1217   */\n      sub\n        /* \"--CODEGEN--\":1190:1222   */\n      slt\n        /* \"--CODEGEN--\":1187:1189   */\n      iszero\n      tag_685\n      jumpi\n        /* \"--CODEGEN--\":1235:1236   */\n      0x00\n        /* \"--CODEGEN--\":1232:1233   */\n      dup1\n        /* \"--CODEGEN--\":1225:1237   */\n      revert\n        /* \"--CODEGEN--\":1187:1189   */\n    tag_685:\n        /* \"--CODEGEN--\":1270:1271   */\n      0x00\n        /* \"--CODEGEN--\":1287:1340   */\n      tag_686\n        /* \"--CODEGEN--\":1332:1339   */\n      dup6\n        /* \"--CODEGEN--\":1323:1329   */\n      dup3\n        /* \"--CODEGEN--\":1312:1321   */\n      dup7\n        /* \"--CODEGEN--\":1308:1330   */\n      add\n        /* \"--CODEGEN--\":1287:1340   */\n      tag_659\n      jump\t// in\n    tag_686:\n        /* \"--CODEGEN--\":1277:1340   */\n      swap3\n      pop\n        /* \"--CODEGEN--\":1249:1346   */\n      pop\n        /* \"--CODEGEN--\":1377:1379   */\n      0x20\n        /* \"--CODEGEN--\":1395:1445   */\n      tag_687\n        /* \"--CODEGEN--\":1437:1444   */\n      dup6\n        /* \"--CODEGEN--\":1428:1434   */\n      dup3\n        /* \"--CODEGEN--\":1417:1426   */\n      dup7\n        /* \"--CODEGEN--\":1413:1435   */\n      add\n        /* \"--CODEGEN--\":1395:1445   */\n      tag_663\n      jump\t// in\n    tag_687:\n        /* \"--CODEGEN--\":1385:1445   */\n      swap2\n      pop\n        /* \"--CODEGEN--\":1356:1451   */\n      pop\n        /* \"--CODEGEN--\":1181:1461   */\n      swap3\n      pop\n      swap3\n      swap1\n      pop\n      jump\t// out\n        /* \"--CODEGEN--\":1468:1834   */\n    tag_55:\n      0x00\n      dup1\n        /* \"--CODEGEN--\":1589:1591   */\n      0x40\n        /* \"--CODEGEN--\":1577:1586   */\n      dup4\n        /* \"--CODEGEN--\":1568:1575   */\n      dup6\n        /* \"--CODEGEN--\":1564:1587   */\n      sub\n        /* \"--CODEGEN--\":1560:1592   */\n      slt\n        /* \"--CODEGEN--\":1557:1559   */\n      iszero\n      tag_689\n      jumpi\n        /* \"--CODEGEN--\":1605:1606   */\n      0x00\n        /* \"--CODEGEN--\":1602:1603   */\n      dup1\n        /* \"--CODEGEN--\":1595:1607   */\n      revert\n        /* \"--CODEGEN--\":1557:1559   */\n    tag_689:\n        /* \"--CODEGEN--\":1640:1641   */\n      0x00\n        /* \"--CODEGEN--\":1657:1710   */\n      tag_690\n        /* \"--CODEGEN--\":1702:1709   */\n      dup6\n        /* \"--CODEGEN--\":1693:1699   */\n      dup3\n        /* \"--CODEGEN--\":1682:1691   */\n      dup7\n        /* \"--CODEGEN--\":1678:1700   */\n      add\n        /* \"--CODEGEN--\":1657:1710   */\n      tag_659\n      jump\t// in\n    tag_690:\n        /* \"--CODEGEN--\":1647:1710   */\n      swap3\n      pop\n        /* \"--CODEGEN--\":1619:1716   */\n      pop\n        /* \"--CODEGEN--\":1747:1749   */\n      0x20\n        /* \"--CODEGEN--\":1765:1818   */\n      tag_691\n        /* \"--CODEGEN--\":1810:1817   */\n      dup6\n        /* \"--CODEGEN--\":1801:1807   */\n      dup3\n        /* \"--CODEGEN--\":1790:1799   */\n      dup7\n        /* \"--CODEGEN--\":1786:1808   */\n      add\n        /* \"--CODEGEN--\":1765:1818   */\n      tag_674\n      jump\t// in\n    tag_691:\n        /* \"--CODEGEN--\":1755:1818   */\n      swap2\n      pop\n        /* \"--CODEGEN--\":1726:1824   */\n      pop\n        /* \"--CODEGEN--\":1551:1834   */\n      swap3\n      pop\n      swap3\n      swap1\n      pop\n      jump\t// out\n        /* \"--CODEGEN--\":1841:2332   */\n    tag_61:\n      0x00\n      dup1\n      0x00\n        /* \"--CODEGEN--\":1979:1981   */\n      0x60\n        /* \"--CODEGEN--\":1967:1976   */\n      dup5\n        /* \"--CODEGEN--\":1958:1965   */\n      dup7\n        /* \"--CODEGEN--\":1954:1977   */\n      sub\n        /* \"--CODEGEN--\":1950:1982   */\n      slt\n        /* \"--CODEGEN--\":1947:1949   */\n      iszero\n      tag_693\n      jumpi\n        /* \"--CODEGEN--\":1995:1996   */\n      0x00\n        /* \"--CODEGEN--\":1992:1993   */\n      dup1\n        /* \"--CODEGEN--\":1985:1997   */\n      revert\n        /* \"--CODEGEN--\":1947:1949   */\n    tag_693:\n        /* \"--CODEGEN--\":2030:2031   */\n      0x00\n        /* \"--CODEGEN--\":2047:2100   */\n      tag_694\n        /* \"--CODEGEN--\":2092:2099   */\n      dup7\n        /* \"--CODEGEN--\":2083:2089   */\n      dup3\n        /* \"--CODEGEN--\":2072:2081   */\n      dup8\n        /* \"--CODEGEN--\":2068:2090   */\n      add\n        /* \"--CODEGEN--\":2047:2100   */\n      tag_659\n      jump\t// in\n    tag_694:\n        /* \"--CODEGEN--\":2037:2100   */\n      swap4\n      pop\n        /* \"--CODEGEN--\":2009:2106   */\n      pop\n        /* \"--CODEGEN--\":2137:2139   */\n      0x20\n        /* \"--CODEGEN--\":2155:2208   */\n      tag_695\n        /* \"--CODEGEN--\":2200:2207   */\n      dup7\n        /* \"--CODEGEN--\":2191:2197   */\n      dup3\n        /* \"--CODEGEN--\":2180:2189   */\n      dup8\n        /* \"--CODEGEN--\":2176:2198   */\n      add\n        /* \"--CODEGEN--\":2155:2208   */\n      tag_674\n      jump\t// in\n    tag_695:\n        /* \"--CODEGEN--\":2145:2208   */\n      swap3\n      pop\n        /* \"--CODEGEN--\":2116:2214   */\n      pop\n        /* \"--CODEGEN--\":2245:2247   */\n      0x40\n        /* \"--CODEGEN--\":2263:2316   */\n      tag_696\n        /* \"--CODEGEN--\":2308:2315   */\n      dup7\n        /* \"--CODEGEN--\":2299:2305   */\n      dup3\n        /* \"--CODEGEN--\":2288:2297   */\n      dup8\n        /* \"--CODEGEN--\":2284:2306   */\n      add\n        /* \"--CODEGEN--\":2263:2316   */\n      tag_674\n      jump\t// in\n    tag_696:\n        /* \"--CODEGEN--\":2253:2316   */\n      swap2\n      pop\n        /* \"--CODEGEN--\":2224:2322   */\n      pop\n        /* \"--CODEGEN--\":1941:2332   */\n      swap3\n      pop\n      swap3\n      pop\n      swap3\n      jump\t// out\n        /* \"--CODEGEN--\":2339:2574   */\n    tag_90:\n      0x00\n        /* \"--CODEGEN--\":2440:2442   */\n      0x20\n        /* \"--CODEGEN--\":2428:2437   */\n      dup3\n        /* \"--CODEGEN--\":2419:2426   */\n      dup5\n        /* \"--CODEGEN--\":2415:2438   */\n      sub\n        /* \"--CODEGEN--\":2411:2443   */\n      slt\n        /* \"--CODEGEN--\":2408:2410   */\n      iszero\n      tag_698\n      jumpi\n        /* \"--CODEGEN--\":2456:2457   */\n      0x00\n        /* \"--CODEGEN--\":2453:2454   */\n      dup1\n        /* \"--CODEGEN--\":2446:2458   */\n      revert\n        /* \"--CODEGEN--\":2408:2410   */\n    tag_698:\n        /* \"--CODEGEN--\":2491:2492   */\n      0x00\n        /* \"--CODEGEN--\":2508:2558   */\n      tag_699\n        /* \"--CODEGEN--\":2550:2557   */\n      dup5\n        /* \"--CODEGEN--\":2541:2547   */\n      dup3\n        /* \"--CODEGEN--\":2530:2539   */\n      dup6\n        /* \"--CODEGEN--\":2526:2548   */\n      add\n        /* \"--CODEGEN--\":2508:2558   */\n      tag_663\n      jump\t// in\n    tag_699:\n        /* \"--CODEGEN--\":2498:2558   */\n      swap2\n      pop\n        /* \"--CODEGEN--\":2470:2564   */\n      pop\n        /* \"--CODEGEN--\":2402:2574   */\n      swap3\n      swap2\n      pop\n      pop\n      jump\t// out\n        /* \"--CODEGEN--\":2581:2838   */\n    tag_317:\n      0x00\n        /* \"--CODEGEN--\":2693:2695   */\n      0x20\n        /* \"--CODEGEN--\":2681:2690   */\n      dup3\n        /* \"--CODEGEN--\":2672:2679   */\n      dup5\n        /* \"--CODEGEN--\":2668:2691   */\n      sub\n        /* \"--CODEGEN--\":2664:2696   */\n      slt\n        /* \"--CODEGEN--\":2661:2663   */\n      iszero\n      tag_701\n      jumpi\n        /* \"--CODEGEN--\":2709:2710   */\n      0x00\n        /* \"--CODEGEN--\":2706:2707   */\n      dup1\n        /* \"--CODEGEN--\":2699:2711   */\n      revert\n        /* \"--CODEGEN--\":2661:2663   */\n    tag_701:\n        /* \"--CODEGEN--\":2744:2745   */\n      0x00\n        /* \"--CODEGEN--\":2761:2822   */\n      tag_702\n        /* \"--CODEGEN--\":2814:2821   */\n      dup5\n        /* \"--CODEGEN--\":2805:2811   */\n      dup3\n        /* \"--CODEGEN--\":2794:2803   */\n      dup6\n        /* \"--CODEGEN--\":2790:2812   */\n      add\n        /* \"--CODEGEN--\":2761:2822   */\n      tag_667\n      jump\t// in\n    tag_702:\n        /* \"--CODEGEN--\":2751:2822   */\n      swap2\n      pop\n        /* \"--CODEGEN--\":2723:2828   */\n      pop\n        /* \"--CODEGEN--\":2655:2838   */\n      swap3\n      swap2\n      pop\n      pop\n      jump\t// out\n        /* \"--CODEGEN--\":2845:3116   */\n    tag_83:\n      0x00\n        /* \"--CODEGEN--\":2964:2966   */\n      0x20\n        /* \"--CODEGEN--\":2952:2961   */\n      dup3\n        /* \"--CODEGEN--\":2943:2950   */\n      dup5\n        /* \"--CODEGEN--\":2939:2962   */\n      sub\n        /* \"--CODEGEN--\":2935:2967   */\n      slt\n        /* \"--CODEGEN--\":2932:2934   */\n      iszero\n      tag_704\n      jumpi\n        /* \"--CODEGEN--\":2980:2981   */\n      0x00\n        /* \"--CODEGEN--\":2977:2978   */\n      dup1\n        /* \"--CODEGEN--\":2970:2982   */\n      revert\n        /* \"--CODEGEN--\":2932:2934   */\n    tag_704:\n        /* \"--CODEGEN--\":3015:3016   */\n      0x00\n        /* \"--CODEGEN--\":3032:3100   */\n      tag_705\n        /* \"--CODEGEN--\":3092:3099   */\n      dup5\n        /* \"--CODEGEN--\":3083:3089   */\n      dup3\n        /* \"--CODEGEN--\":3072:3081   */\n      dup6\n        /* \"--CODEGEN--\":3068:3090   */\n      add\n        /* \"--CODEGEN--\":3032:3100   */\n      tag_670\n      jump\t// in\n    tag_705:\n        /* \"--CODEGEN--\":3022:3100   */\n      swap2\n      pop\n        /* \"--CODEGEN--\":2994:3106   */\n      pop\n        /* \"--CODEGEN--\":2926:3116   */\n      swap3\n      swap2\n      pop\n      pop\n      jump\t// out\n        /* \"--CODEGEN--\":3123:3364   */\n    tag_77:\n      0x00\n        /* \"--CODEGEN--\":3227:3229   */\n      0x20\n        /* \"--CODEGEN--\":3215:3224   */\n      dup3\n        /* \"--CODEGEN--\":3206:3213   */\n      dup5\n        /* \"--CODEGEN--\":3202:3225   */\n      sub\n        /* \"--CODEGEN--\":3198:3230   */\n      slt\n        /* \"--CODEGEN--\":3195:3197   */\n      iszero\n      tag_707\n      jumpi\n        /* \"--CODEGEN--\":3243:3244   */\n      0x00\n        /* \"--CODEGEN--\":3240:3241   */\n      dup1\n        /* \"--CODEGEN--\":3233:3245   */\n      revert\n        /* \"--CODEGEN--\":3195:3197   */\n    tag_707:\n        /* \"--CODEGEN--\":3278:3279   */\n      0x00\n        /* \"--CODEGEN--\":3295:3348   */\n      tag_708\n        /* \"--CODEGEN--\":3340:3347   */\n      dup5\n        /* \"--CODEGEN--\":3331:3337   */\n      dup3\n        /* \"--CODEGEN--\":3320:3329   */\n      dup6\n        /* \"--CODEGEN--\":3316:3338   */\n      add\n        /* \"--CODEGEN--\":3295:3348   */\n      tag_674\n      jump\t// in\n    tag_708:\n        /* \"--CODEGEN--\":3285:3348   */\n      swap2\n      pop\n        /* \"--CODEGEN--\":3257:3354   */\n      pop\n        /* \"--CODEGEN--\":3189:3364   */\n      swap3\n      swap2\n      pop\n      pop\n      jump\t// out\n        /* \"--CODEGEN--\":3371:3634   */\n    tag_305:\n      0x00\n        /* \"--CODEGEN--\":3486:3488   */\n      0x20\n        /* \"--CODEGEN--\":3474:3483   */\n      dup3\n        /* \"--CODEGEN--\":3465:3472   */\n      dup5\n        /* \"--CODEGEN--\":3461:3484   */\n      sub\n        /* \"--CODEGEN--\":3457:3489   */\n      slt\n        /* \"--CODEGEN--\":3454:3456   */\n      iszero\n      tag_710\n      jumpi\n        /* \"--CODEGEN--\":3502:3503   */\n      0x00\n        /* \"--CODEGEN--\":3499:3500   */\n      dup1\n        /* \"--CODEGEN--\":3492:3504   */\n      revert\n        /* \"--CODEGEN--\":3454:3456   */\n    tag_710:\n        /* \"--CODEGEN--\":3537:3538   */\n      0x00\n        /* \"--CODEGEN--\":3554:3618   */\n      tag_711\n        /* \"--CODEGEN--\":3610:3617   */\n      dup5\n        /* \"--CODEGEN--\":3601:3607   */\n      dup3\n        /* \"--CODEGEN--\":3590:3599   */\n      dup6\n        /* \"--CODEGEN--\":3586:3608   */\n      add\n        /* \"--CODEGEN--\":3554:3618   */\n      tag_678\n      jump\t// in\n    tag_711:\n        /* \"--CODEGEN--\":3544:3618   */\n      swap2\n      pop\n        /* \"--CODEGEN--\":3516:3624   */\n      pop\n        /* \"--CODEGEN--\":3448:3634   */\n      swap3\n      swap2\n      pop\n      pop\n      jump\t// out\n        /* \"--CODEGEN--\":3641:4007   */\n    tag_72:\n      0x00\n      dup1\n        /* \"--CODEGEN--\":3762:3764   */\n      0x40\n        /* \"--CODEGEN--\":3750:3759   */\n      dup4\n        /* \"--CODEGEN--\":3741:3748   */\n      dup6\n        /* \"--CODEGEN--\":3737:3760   */\n      sub\n        /* \"--CODEGEN--\":3733:3765   */\n      slt\n        /* \"--CODEGEN--\":3730:3732   */\n      iszero\n      tag_713\n      jumpi\n        /* \"--CODEGEN--\":3778:3779   */\n      0x00\n        /* \"--CODEGEN--\":3775:3776   */\n      dup1\n        /* \"--CODEGEN--\":3768:3780   */\n      revert\n        /* \"--CODEGEN--\":3730:3732   */\n    tag_713:\n        /* \"--CODEGEN--\":3813:3814   */\n      0x00\n        /* \"--CODEGEN--\":3830:3883   */\n      tag_714\n        /* \"--CODEGEN--\":3875:3882   */\n      dup6\n        /* \"--CODEGEN--\":3866:3872   */\n      dup3\n        /* \"--CODEGEN--\":3855:3864   */\n      dup7\n        /* \"--CODEGEN--\":3851:3873   */\n      add\n        /* \"--CODEGEN--\":3830:3883   */\n      tag_674\n      jump\t// in\n    tag_714:\n        /* \"--CODEGEN--\":3820:3883   */\n      swap3\n      pop\n        /* \"--CODEGEN--\":3792:3889   */\n      pop\n        /* \"--CODEGEN--\":3920:3922   */\n      0x20\n        /* \"--CODEGEN--\":3938:3991   */\n      tag_715\n        /* \"--CODEGEN--\":3983:3990   */\n      dup6\n        /* \"--CODEGEN--\":3974:3980   */\n      dup3\n        /* \"--CODEGEN--\":3963:3972   */\n      dup7\n        /* \"--CODEGEN--\":3959:3981   */\n      add\n        /* \"--CODEGEN--\":3938:3991   */\n      tag_659\n      jump\t// in\n    tag_715:\n        /* \"--CODEGEN--\":3928:3991   */\n      swap2\n      pop\n        /* \"--CODEGEN--\":3899:3997   */\n      pop\n        /* \"--CODEGEN--\":3724:4007   */\n      swap3\n      pop\n      swap3\n      swap1\n      pop\n      jump\t// out\n        /* \"--CODEGEN--\":4014:4649   */\n    tag_179:\n      0x00\n      dup1\n      0x00\n      dup1\n        /* \"--CODEGEN--\":4178:4181   */\n      0x80\n        /* \"--CODEGEN--\":4166:4175   */\n      dup6\n        /* \"--CODEGEN--\":4157:4164   */\n      dup8\n        /* \"--CODEGEN--\":4153:4176   */\n      sub\n        /* \"--CODEGEN--\":4149:4182   */\n      slt\n        /* \"--CODEGEN--\":4146:4148   */\n      iszero\n      tag_717\n      jumpi\n        /* \"--CODEGEN--\":4195:4196   */\n      0x00\n        /* \"--CODEGEN--\":4192:4193   */\n      dup1\n        /* \"--CODEGEN--\":4185:4197   */\n      revert\n        /* \"--CODEGEN--\":4146:4148   */\n    tag_717:\n        /* \"--CODEGEN--\":4230:4231   */\n      0x00\n        /* \"--CODEGEN--\":4247:4300   */\n      tag_718\n        /* \"--CODEGEN--\":4292:4299   */\n      dup8\n        /* \"--CODEGEN--\":4283:4289   */\n      dup3\n        /* \"--CODEGEN--\":4272:4281   */\n      dup9\n        /* \"--CODEGEN--\":4268:4290   */\n      add\n        /* \"--CODEGEN--\":4247:4300   */\n      tag_674\n      jump\t// in\n    tag_718:\n        /* \"--CODEGEN--\":4237:4300   */\n      swap5\n      pop\n        /* \"--CODEGEN--\":4209:4306   */\n      pop\n        /* \"--CODEGEN--\":4337:4339   */\n      0x20\n        /* \"--CODEGEN--\":4355:4423   */\n      tag_719\n        /* \"--CODEGEN--\":4415:4422   */\n      dup8\n        /* \"--CODEGEN--\":4406:4412   */\n      dup3\n        /* \"--CODEGEN--\":4395:4404   */\n      dup9\n        /* \"--CODEGEN--\":4391:4413   */\n      add\n        /* \"--CODEGEN--\":4355:4423   */\n      tag_670\n      jump\t// in\n    tag_719:\n        /* \"--CODEGEN--\":4345:4423   */\n      swap4\n      pop\n        /* \"--CODEGEN--\":4316:4429   */\n      pop\n        /* \"--CODEGEN--\":4460:4462   */\n      0x40\n        /* \"--CODEGEN--\":4478:4528   */\n      tag_720\n        /* \"--CODEGEN--\":4520:4527   */\n      dup8\n        /* \"--CODEGEN--\":4511:4517   */\n      dup3\n        /* \"--CODEGEN--\":4500:4509   */\n      dup9\n        /* \"--CODEGEN--\":4496:4518   */\n      add\n        /* \"--CODEGEN--\":4478:4528   */\n      tag_663\n      jump\t// in\n    tag_720:\n        /* \"--CODEGEN--\":4468:4528   */\n      swap3\n      pop\n        /* \"--CODEGEN--\":4439:4534   */\n      pop\n        /* \"--CODEGEN--\":4565:4567   */\n      0x60\n        /* \"--CODEGEN--\":4583:4633   */\n      tag_721\n        /* \"--CODEGEN--\":4625:4632   */\n      dup8\n        /* \"--CODEGEN--\":4616:4622   */\n      dup3\n        /* \"--CODEGEN--\":4605:4614   */\n      dup9\n        /* \"--CODEGEN--\":4601:4623   */\n      add\n        /* \"--CODEGEN--\":4583:4633   */\n      tag_663\n      jump\t// in\n    tag_721:\n        /* \"--CODEGEN--\":4573:4633   */\n      swap2\n      pop\n        /* \"--CODEGEN--\":4544:4639   */\n      pop\n        /* \"--CODEGEN--\":4140:4649   */\n      swap3\n      swap6\n      swap2\n      swap5\n      pop\n      swap3\n      pop\n      jump\t// out\n        /* \"--CODEGEN--\":4656:5022   */\n    tag_103:\n      0x00\n      dup1\n        /* \"--CODEGEN--\":4777:4779   */\n      0x40\n        /* \"--CODEGEN--\":4765:4774   */\n      dup4\n        /* \"--CODEGEN--\":4756:4763   */\n      dup6\n        /* \"--CODEGEN--\":4752:4775   */\n      sub\n        /* \"--CODEGEN--\":4748:4780   */\n      slt\n        /* \"--CODEGEN--\":4745:4747   */\n      iszero\n      tag_723\n      jumpi\n        /* \"--CODEGEN--\":4793:4794   */\n      0x00\n        /* \"--CODEGEN--\":4790:4791   */\n      dup1\n        /* \"--CODEGEN--\":4783:4795   */\n      revert\n        /* \"--CODEGEN--\":4745:4747   */\n    tag_723:\n        /* \"--CODEGEN--\":4828:4829   */\n      0x00\n        /* \"--CODEGEN--\":4845:4898   */\n      tag_724\n        /* \"--CODEGEN--\":4890:4897   */\n      dup6\n        /* \"--CODEGEN--\":4881:4887   */\n      dup3\n        /* \"--CODEGEN--\":4870:4879   */\n      dup7\n        /* \"--CODEGEN--\":4866:4888   */\n      add\n        /* \"--CODEGEN--\":4845:4898   */\n      tag_674\n      jump\t// in\n    tag_724:\n        /* \"--CODEGEN--\":4835:4898   */\n      swap3\n      pop\n        /* \"--CODEGEN--\":4807:4904   */\n      pop\n        /* \"--CODEGEN--\":4935:4937   */\n      0x20\n        /* \"--CODEGEN--\":4953:5006   */\n      tag_725\n        /* \"--CODEGEN--\":4998:5005   */\n      dup6\n        /* \"--CODEGEN--\":4989:4995   */\n      dup3\n        /* \"--CODEGEN--\":4978:4987   */\n      dup7\n        /* \"--CODEGEN--\":4974:4996   */\n      add\n        /* \"--CODEGEN--\":4953:5006   */\n      tag_674\n      jump\t// in\n    tag_725:\n        /* \"--CODEGEN--\":4943:5006   */\n      swap2\n      pop\n        /* \"--CODEGEN--\":4914:5012   */\n      pop\n        /* \"--CODEGEN--\":4739:5022   */\n      swap3\n      pop\n      swap3\n      swap1\n      pop\n      jump\t// out\n        /* \"--CODEGEN--\":5029:5514   */\n    tag_126:\n      0x00\n      dup1\n      0x00\n        /* \"--CODEGEN--\":5164:5166   */\n      0x60\n        /* \"--CODEGEN--\":5152:5161   */\n      dup5\n        /* \"--CODEGEN--\":5143:5150   */\n      dup7\n        /* \"--CODEGEN--\":5139:5162   */\n      sub\n        /* \"--CODEGEN--\":5135:5167   */\n      slt\n        /* \"--CODEGEN--\":5132:5134   */\n      iszero\n      tag_727\n      jumpi\n        /* \"--CODEGEN--\":5180:5181   */\n      0x00\n        /* \"--CODEGEN--\":5177:5178   */\n      dup1\n        /* \"--CODEGEN--\":5170:5182   */\n      revert\n        /* \"--CODEGEN--\":5132:5134   */\n    tag_727:\n        /* \"--CODEGEN--\":5215:5216   */\n      0x00\n        /* \"--CODEGEN--\":5232:5285   */\n      tag_728\n        /* \"--CODEGEN--\":5277:5284   */\n      dup7\n        /* \"--CODEGEN--\":5268:5274   */\n      dup3\n        /* \"--CODEGEN--\":5257:5266   */\n      dup8\n        /* \"--CODEGEN--\":5253:5275   */\n      add\n        /* \"--CODEGEN--\":5232:5285   */\n      tag_674\n      jump\t// in\n    tag_728:\n        /* \"--CODEGEN--\":5222:5285   */\n      swap4\n      pop\n        /* \"--CODEGEN--\":5194:5291   */\n      pop\n        /* \"--CODEGEN--\":5322:5324   */\n      0x20\n        /* \"--CODEGEN--\":5340:5393   */\n      tag_729\n        /* \"--CODEGEN--\":5385:5392   */\n      dup7\n        /* \"--CODEGEN--\":5376:5382   */\n      dup3\n        /* \"--CODEGEN--\":5365:5374   */\n      dup8\n        /* \"--CODEGEN--\":5361:5383   */\n      add\n        /* \"--CODEGEN--\":5340:5393   */\n      tag_674\n      jump\t// in\n    tag_729:\n        /* \"--CODEGEN--\":5330:5393   */\n      swap3\n      pop\n        /* \"--CODEGEN--\":5301:5399   */\n      pop\n        /* \"--CODEGEN--\":5430:5432   */\n      0x40\n        /* \"--CODEGEN--\":5448:5498   */\n      tag_730\n        /* \"--CODEGEN--\":5490:5497   */\n      dup7\n        /* \"--CODEGEN--\":5481:5487   */\n      dup3\n        /* \"--CODEGEN--\":5470:5479   */\n      dup8\n        /* \"--CODEGEN--\":5466:5488   */\n      add\n        /* \"--CODEGEN--\":5448:5498   */\n      tag_663\n      jump\t// in\n    tag_730:\n        /* \"--CODEGEN--\":5438:5498   */\n      swap2\n      pop\n        /* \"--CODEGEN--\":5409:5504   */\n      pop\n        /* \"--CODEGEN--\":5126:5514   */\n      swap3\n      pop\n      swap3\n      pop\n      swap3\n      jump\t// out\n        /* \"--CODEGEN--\":5521:6132   */\n    tag_186:\n      0x00\n      dup1\n      0x00\n      dup1\n        /* \"--CODEGEN--\":5673:5676   */\n      0x80\n        /* \"--CODEGEN--\":5661:5670   */\n      dup6\n        /* \"--CODEGEN--\":5652:5659   */\n      dup8\n        /* \"--CODEGEN--\":5648:5671   */\n      sub\n        /* \"--CODEGEN--\":5644:5677   */\n      slt\n        /* \"--CODEGEN--\":5641:5643   */\n      iszero\n      tag_732\n      jumpi\n        /* \"--CODEGEN--\":5690:5691   */\n      0x00\n        /* \"--CODEGEN--\":5687:5688   */\n      dup1\n        /* \"--CODEGEN--\":5680:5692   */\n      revert\n        /* \"--CODEGEN--\":5641:5643   */\n    tag_732:\n        /* \"--CODEGEN--\":5725:5726   */\n      0x00\n        /* \"--CODEGEN--\":5742:5795   */\n      tag_733\n        /* \"--CODEGEN--\":5787:5794   */\n      dup8\n        /* \"--CODEGEN--\":5778:5784   */\n      dup3\n        /* \"--CODEGEN--\":5767:5776   */\n      dup9\n        /* \"--CODEGEN--\":5763:5785   */\n      add\n        /* \"--CODEGEN--\":5742:5795   */\n      tag_674\n      jump\t// in\n    tag_733:\n        /* \"--CODEGEN--\":5732:5795   */\n      swap5\n      pop\n        /* \"--CODEGEN--\":5704:5801   */\n      pop\n        /* \"--CODEGEN--\":5832:5834   */\n      0x20\n        /* \"--CODEGEN--\":5850:5903   */\n      tag_734\n        /* \"--CODEGEN--\":5895:5902   */\n      dup8\n        /* \"--CODEGEN--\":5886:5892   */\n      dup3\n        /* \"--CODEGEN--\":5875:5884   */\n      dup9\n        /* \"--CODEGEN--\":5871:5893   */\n      add\n        /* \"--CODEGEN--\":5850:5903   */\n      tag_674\n      jump\t// in\n    tag_734:\n        /* \"--CODEGEN--\":5840:5903   */\n      swap4\n      pop\n        /* \"--CODEGEN--\":5811:5909   */\n      pop\n        /* \"--CODEGEN--\":5940:5942   */\n      0x40\n        /* \"--CODEGEN--\":5958:6011   */\n      tag_735\n        /* \"--CODEGEN--\":6003:6010   */\n      dup8\n        /* \"--CODEGEN--\":5994:6000   */\n      dup3\n        /* \"--CODEGEN--\":5983:5992   */\n      dup9\n        /* \"--CODEGEN--\":5979:6001   */\n      add\n        /* \"--CODEGEN--\":5958:6011   */\n      tag_674\n      jump\t// in\n    tag_735:\n        /* \"--CODEGEN--\":5948:6011   */\n      swap3\n      pop\n        /* \"--CODEGEN--\":5919:6017   */\n      pop\n        /* \"--CODEGEN--\":6048:6050   */\n      0x60\n        /* \"--CODEGEN--\":6066:6116   */\n      tag_736\n        /* \"--CODEGEN--\":6108:6115   */\n      dup8\n        /* \"--CODEGEN--\":6099:6105   */\n      dup3\n        /* \"--CODEGEN--\":6088:6097   */\n      dup9\n        /* \"--CODEGEN--\":6084:6106   */\n      add\n        /* \"--CODEGEN--\":6066:6116   */\n      tag_663\n      jump\t// in\n    tag_736:\n        /* \"--CODEGEN--\":6056:6116   */\n      swap2\n      pop\n        /* \"--CODEGEN--\":6027:6122   */\n      pop\n        /* \"--CODEGEN--\":5635:6132   */\n      swap3\n      swap6\n      swap2\n      swap5\n      pop\n      swap3\n      pop\n      jump\t// out\n        /* \"--CODEGEN--\":6139:6281   */\n    tag_737:\n        /* \"--CODEGEN--\":6230:6275   */\n      tag_739\n        /* \"--CODEGEN--\":6269:6274   */\n      dup2\n        /* \"--CODEGEN--\":6230:6275   */\n      tag_740\n      jump\t// in\n    tag_739:\n        /* \"--CODEGEN--\":6225:6228   */\n      dup3\n        /* \"--CODEGEN--\":6218:6276   */\n      mstore\n        /* \"--CODEGEN--\":6212:6281   */\n      pop\n      pop\n      jump\t// out\n        /* \"--CODEGEN--\":6288:6401   */\n    tag_741:\n        /* \"--CODEGEN--\":6371:6395   */\n      tag_743\n        /* \"--CODEGEN--\":6389:6394   */\n      dup2\n        /* \"--CODEGEN--\":6371:6395   */\n      tag_744\n      jump\t// in\n    tag_743:\n        /* \"--CODEGEN--\":6366:6369   */\n      dup3\n        /* \"--CODEGEN--\":6359:6396   */\n      mstore\n        /* \"--CODEGEN--\":6353:6401   */\n      pop\n      pop\n      jump\t// out\n        /* \"--CODEGEN--\":6408:6502   */\n    tag_745:\n        /* \"--CODEGEN--\":6475:6496   */\n      tag_747\n        /* \"--CODEGEN--\":6490:6495   */\n      dup2\n        /* \"--CODEGEN--\":6475:6496   */\n      tag_748\n      jump\t// in\n    tag_747:\n        /* \"--CODEGEN--\":6470:6473   */\n      dup3\n        /* \"--CODEGEN--\":6463:6497   */\n      mstore\n        /* \"--CODEGEN--\":6457:6502   */\n      pop\n      pop\n      jump\t// out\n        /* \"--CODEGEN--\":6509:6613   */\n    tag_749:\n        /* \"--CODEGEN--\":6586:6607   */\n      tag_751\n        /* \"--CODEGEN--\":6601:6606   */\n      dup2\n        /* \"--CODEGEN--\":6586:6607   */\n      tag_748\n      jump\t// in\n    tag_751:\n        /* \"--CODEGEN--\":6581:6584   */\n      dup3\n        /* \"--CODEGEN--\":6574:6608   */\n      mstore\n        /* \"--CODEGEN--\":6568:6613   */\n      pop\n      pop\n      jump\t// out\n        /* \"--CODEGEN--\":6620:6976   */\n    tag_752:\n      0x00\n        /* \"--CODEGEN--\":6748:6786   */\n      tag_754\n        /* \"--CODEGEN--\":6780:6785   */\n      dup3\n        /* \"--CODEGEN--\":6748:6786   */\n      tag_755\n      jump\t// in\n    tag_754:\n        /* \"--CODEGEN--\":6798:6886   */\n      tag_756\n        /* \"--CODEGEN--\":6879:6885   */\n      dup2\n        /* \"--CODEGEN--\":6874:6877   */\n      dup6\n        /* \"--CODEGEN--\":6798:6886   */\n      tag_757\n      jump\t// in\n    tag_756:\n        /* \"--CODEGEN--\":6791:6886   */\n      swap4\n      pop\n        /* \"--CODEGEN--\":6891:6943   */\n      tag_758\n        /* \"--CODEGEN--\":6936:6942   */\n      dup2\n        /* \"--CODEGEN--\":6931:6934   */\n      dup6\n        /* \"--CODEGEN--\":6924:6928   */\n      0x20\n        /* \"--CODEGEN--\":6917:6922   */\n      dup7\n        /* \"--CODEGEN--\":6913:6929   */\n      add\n        /* \"--CODEGEN--\":6891:6943   */\n      tag_759\n      jump\t// in\n    tag_758:\n        /* \"--CODEGEN--\":6964:6970   */\n      dup1\n        /* \"--CODEGEN--\":6959:6962   */\n      dup5\n        /* \"--CODEGEN--\":6955:6971   */\n      add\n        /* \"--CODEGEN--\":6948:6971   */\n      swap2\n      pop\n        /* \"--CODEGEN--\":6728:6976   */\n      pop\n      swap3\n      swap2\n      pop\n      pop\n      jump\t// out\n        /* \"--CODEGEN--\":6983:7139   */\n    tag_760:\n        /* \"--CODEGEN--\":7081:7133   */\n      tag_762\n        /* \"--CODEGEN--\":7127:7132   */\n      dup2\n        /* \"--CODEGEN--\":7081:7133   */\n      tag_763\n      jump\t// in\n    tag_762:\n        /* \"--CODEGEN--\":7076:7079   */\n      dup3\n        /* \"--CODEGEN--\":7069:7134   */\n      mstore\n        /* \"--CODEGEN--\":7063:7139   */\n      pop\n      pop\n      jump\t// out\n        /* \"--CODEGEN--\":7146:7312   */\n    tag_764:\n        /* \"--CODEGEN--\":7249:7306   */\n      tag_766\n        /* \"--CODEGEN--\":7300:7305   */\n      dup2\n        /* \"--CODEGEN--\":7249:7306   */\n      tag_767\n      jump\t// in\n    tag_766:\n        /* \"--CODEGEN--\":7244:7247   */\n      dup3\n        /* \"--CODEGEN--\":7237:7307   */\n      mstore\n        /* \"--CODEGEN--\":7231:7312   */\n      pop\n      pop\n      jump\t// out\n        /* \"--CODEGEN--\":7319:7461   */\n    tag_768:\n        /* \"--CODEGEN--\":7410:7455   */\n      tag_770\n        /* \"--CODEGEN--\":7449:7454   */\n      dup2\n        /* \"--CODEGEN--\":7410:7455   */\n      tag_771\n      jump\t// in\n    tag_770:\n        /* \"--CODEGEN--\":7405:7408   */\n      dup3\n        /* \"--CODEGEN--\":7398:7456   */\n      mstore\n        /* \"--CODEGEN--\":7392:7461   */\n      pop\n      pop\n      jump\t// out\n        /* \"--CODEGEN--\":7468:7815   */\n    tag_772:\n      0x00\n        /* \"--CODEGEN--\":7580:7619   */\n      tag_774\n        /* \"--CODEGEN--\":7613:7618   */\n      dup3\n        /* \"--CODEGEN--\":7580:7619   */\n      tag_775\n      jump\t// in\n    tag_774:\n        /* \"--CODEGEN--\":7631:7702   */\n      tag_776\n        /* \"--CODEGEN--\":7695:7701   */\n      dup2\n        /* \"--CODEGEN--\":7690:7693   */\n      dup6\n        /* \"--CODEGEN--\":7631:7702   */\n      tag_777\n      jump\t// in\n    tag_776:\n        /* \"--CODEGEN--\":7624:7702   */\n      swap4\n      pop\n        /* \"--CODEGEN--\":7707:7759   */\n      tag_778\n        /* \"--CODEGEN--\":7752:7758   */\n      dup2\n        /* \"--CODEGEN--\":7747:7750   */\n      dup6\n        /* \"--CODEGEN--\":7740:7744   */\n      0x20\n        /* \"--CODEGEN--\":7733:7738   */\n      dup7\n        /* \"--CODEGEN--\":7729:7745   */\n      add\n        /* \"--CODEGEN--\":7707:7759   */\n      tag_759\n      jump\t// in\n    tag_778:\n        /* \"--CODEGEN--\":7780:7809   */\n      tag_779\n        /* \"--CODEGEN--\":7802:7808   */\n      dup2\n        /* \"--CODEGEN--\":7780:7809   */\n      tag_780\n      jump\t// in\n    tag_779:\n        /* \"--CODEGEN--\":7775:7778   */\n      dup5\n        /* \"--CODEGEN--\":7771:7810   */\n      add\n        /* \"--CODEGEN--\":7764:7810   */\n      swap2\n      pop\n        /* \"--CODEGEN--\":7560:7815   */\n      pop\n      swap3\n      swap2\n      pop\n      pop\n      jump\t// out\n        /* \"--CODEGEN--\":7823:8195   */\n    tag_781:\n      0x00\n        /* \"--CODEGEN--\":7983:8050   */\n      tag_783\n        /* \"--CODEGEN--\":8047:8049   */\n      0x23\n        /* \"--CODEGEN--\":8042:8045   */\n      dup4\n        /* \"--CODEGEN--\":7983:8050   */\n      tag_777\n      jump\t// in\n    tag_783:\n        /* \"--CODEGEN--\":7976:8050   */\n      swap2\n      pop\n        /* \"--CODEGEN--\":8083:8117   */\n      0x4d61737465724368656656323a2042616c616e6365206d757374206578636565\n        /* \"--CODEGEN--\":8079:8080   */\n      0x00\n        /* \"--CODEGEN--\":8074:8077   */\n      dup4\n        /* \"--CODEGEN--\":8070:8081   */\n      add\n        /* \"--CODEGEN--\":8063:8118   */\n      mstore\n        /* \"--CODEGEN--\":8152:8157   */\n      0x6420300000000000000000000000000000000000000000000000000000000000\n        /* \"--CODEGEN--\":8147:8149   */\n      0x20\n        /* \"--CODEGEN--\":8142:8145   */\n      dup4\n        /* \"--CODEGEN--\":8138:8150   */\n      add\n        /* \"--CODEGEN--\":8131:8158   */\n      mstore\n        /* \"--CODEGEN--\":8186:8188   */\n      0x40\n        /* \"--CODEGEN--\":8181:8184   */\n      dup3\n        /* \"--CODEGEN--\":8177:8189   */\n      add\n        /* \"--CODEGEN--\":8170:8189   */\n      swap1\n      pop\n        /* \"--CODEGEN--\":7969:8195   */\n      swap2\n      swap1\n      pop\n      jump\t// out\n        /* \"--CODEGEN--\":8204:8583   */\n    tag_784:\n      0x00\n        /* \"--CODEGEN--\":8364:8431   */\n      tag_786\n        /* \"--CODEGEN--\":8428:8430   */\n      0x2a\n        /* \"--CODEGEN--\":8423:8426   */\n      dup4\n        /* \"--CODEGEN--\":8364:8431   */\n      tag_777\n      jump\t// in\n    tag_786:\n        /* \"--CODEGEN--\":8357:8431   */\n      swap2\n      pop\n        /* \"--CODEGEN--\":8464:8498   */\n      0x4d61737465724368656656323a20496e76616c6964206e657720626f6f737420\n        /* \"--CODEGEN--\":8460:8461   */\n      0x00\n        /* \"--CODEGEN--\":8455:8458   */\n      dup4\n        /* \"--CODEGEN--\":8451:8462   */\n      add\n        /* \"--CODEGEN--\":8444:8499   */\n      mstore\n        /* \"--CODEGEN--\":8533:8545   */\n      0x6d756c7469706c69657200000000000000000000000000000000000000000000\n        /* \"--CODEGEN--\":8528:8530   */\n      0x20\n        /* \"--CODEGEN--\":8523:8526   */\n      dup4\n        /* \"--CODEGEN--\":8519:8531   */\n      add\n        /* \"--CODEGEN--\":8512:8546   */\n      mstore\n        /* \"--CODEGEN--\":8574:8576   */\n      0x40\n        /* \"--CODEGEN--\":8569:8572   */\n      dup3\n        /* \"--CODEGEN--\":8565:8577   */\n      add\n        /* \"--CODEGEN--\":8558:8577   */\n      swap1\n      pop\n        /* \"--CODEGEN--\":8350:8583   */\n      swap2\n      swap1\n      pop\n      jump\t// out\n        /* \"--CODEGEN--\":8592:8971   */\n    tag_787:\n      0x00\n        /* \"--CODEGEN--\":8752:8819   */\n      tag_789\n        /* \"--CODEGEN--\":8816:8818   */\n      0x2a\n        /* \"--CODEGEN--\":8811:8814   */\n      dup4\n        /* \"--CODEGEN--\":8752:8819   */\n      tag_777\n      jump\t// in\n    tag_789:\n        /* \"--CODEGEN--\":8745:8819   */\n      swap2\n      pop\n        /* \"--CODEGEN--\":8852:8886   */\n      0x5361666542455032303a204245503230206f7065726174696f6e20646964206e\n        /* \"--CODEGEN--\":8848:8849   */\n      0x00\n        /* \"--CODEGEN--\":8843:8846   */\n      dup4\n        /* \"--CODEGEN--\":8839:8850   */\n      add\n        /* \"--CODEGEN--\":8832:8887   */\n      mstore\n        /* \"--CODEGEN--\":8921:8933   */\n      0x6f74207375636365656400000000000000000000000000000000000000000000\n        /* \"--CODEGEN--\":8916:8918   */\n      0x20\n        /* \"--CODEGEN--\":8911:8914   */\n      dup4\n        /* \"--CODEGEN--\":8907:8919   */\n      add\n        /* \"--CODEGEN--\":8900:8934   */\n      mstore\n        /* \"--CODEGEN--\":8962:8964   */\n      0x40\n        /* \"--CODEGEN--\":8957:8960   */\n      dup3\n        /* \"--CODEGEN--\":8953:8965   */\n      add\n        /* \"--CODEGEN--\":8946:8965   */\n      swap1\n      pop\n        /* \"--CODEGEN--\":8738:8971   */\n      swap2\n      swap1\n      pop\n      jump\t// out\n        /* \"--CODEGEN--\":8980:9355   */\n    tag_790:\n      0x00\n        /* \"--CODEGEN--\":9140:9207   */\n      tag_792\n        /* \"--CODEGEN--\":9204:9206   */\n      0x26\n        /* \"--CODEGEN--\":9199:9202   */\n      dup4\n        /* \"--CODEGEN--\":9140:9207   */\n      tag_777\n      jump\t// in\n    tag_792:\n        /* \"--CODEGEN--\":9133:9207   */\n      swap2\n      pop\n        /* \"--CODEGEN--\":9240:9274   */\n      0x4f776e61626c653a206e6577206f776e657220697320746865207a65726f2061\n        /* \"--CODEGEN--\":9236:9237   */\n      0x00\n        /* \"--CODEGEN--\":9231:9234   */\n      dup4\n        /* \"--CODEGEN--\":9227:9238   */\n      add\n        /* \"--CODEGEN--\":9220:9275   */\n      mstore\n        /* \"--CODEGEN--\":9309:9317   */\n      0x6464726573730000000000000000000000000000000000000000000000000000\n        /* \"--CODEGEN--\":9304:9306   */\n      0x20\n        /* \"--CODEGEN--\":9299:9302   */\n      dup4\n        /* \"--CODEGEN--\":9295:9307   */\n      add\n        /* \"--CODEGEN--\":9288:9318   */\n      mstore\n        /* \"--CODEGEN--\":9346:9348   */\n      0x40\n        /* \"--CODEGEN--\":9341:9344   */\n      dup3\n        /* \"--CODEGEN--\":9337:9349   */\n      add\n        /* \"--CODEGEN--\":9330:9349   */\n      swap1\n      pop\n        /* \"--CODEGEN--\":9126:9355   */\n      swap2\n      swap1\n      pop\n      jump\t// out\n        /* \"--CODEGEN--\":9364:9691   */\n    tag_793:\n      0x00\n        /* \"--CODEGEN--\":9524:9591   */\n      tag_795\n        /* \"--CODEGEN--\":9588:9590   */\n      0x1b\n        /* \"--CODEGEN--\":9583:9586   */\n      dup4\n        /* \"--CODEGEN--\":9524:9591   */\n      tag_777\n      jump\t// in\n    tag_795:\n        /* \"--CODEGEN--\":9517:9591   */\n      swap2\n      pop\n        /* \"--CODEGEN--\":9624:9653   */\n      0x536166654d6174683a206164646974696f6e206f766572666c6f770000000000\n        /* \"--CODEGEN--\":9620:9621   */\n      0x00\n        /* \"--CODEGEN--\":9615:9618   */\n      dup4\n        /* \"--CODEGEN--\":9611:9622   */\n      add\n        /* \"--CODEGEN--\":9604:9654   */\n      mstore\n        /* \"--CODEGEN--\":9682:9684   */\n      0x20\n        /* \"--CODEGEN--\":9677:9680   */\n      dup3\n        /* \"--CODEGEN--\":9673:9685   */\n      add\n        /* \"--CODEGEN--\":9666:9685   */\n      swap1\n      pop\n        /* \"--CODEGEN--\":9510:9691   */\n      swap2\n      swap1\n      pop\n      jump\t// out\n        /* \"--CODEGEN--\":9700:10081   */\n    tag_796:\n      0x00\n        /* \"--CODEGEN--\":9860:9927   */\n      tag_798\n        /* \"--CODEGEN--\":9924:9926   */\n      0x2c\n        /* \"--CODEGEN--\":9919:9922   */\n      dup4\n        /* \"--CODEGEN--\":9860:9927   */\n      tag_777\n      jump\t// in\n    tag_798:\n        /* \"--CODEGEN--\":9853:9927   */\n      swap2\n      pop\n        /* \"--CODEGEN--\":9960:9994   */\n      0x4d61737465724368656656323a2054686520757365722061646472657373206d\n        /* \"--CODEGEN--\":9956:9957   */\n      0x00\n        /* \"--CODEGEN--\":9951:9954   */\n      dup4\n        /* \"--CODEGEN--\":9947:9958   */\n      add\n        /* \"--CODEGEN--\":9940:9995   */\n      mstore\n        /* \"--CODEGEN--\":10029:10043   */\n      0x7573742062652076616c69640000000000000000000000000000000000000000\n        /* \"--CODEGEN--\":10024:10026   */\n      0x20\n        /* \"--CODEGEN--\":10019:10022   */\n      dup4\n        /* \"--CODEGEN--\":10015:10027   */\n      add\n        /* \"--CODEGEN--\":10008:10044   */\n      mstore\n        /* \"--CODEGEN--\":10072:10074   */\n      0x40\n        /* \"--CODEGEN--\":10067:10070   */\n      dup3\n        /* \"--CODEGEN--\":10063:10075   */\n      add\n        /* \"--CODEGEN--\":10056:10075   */\n      swap1\n      pop\n        /* \"--CODEGEN--\":9846:10081   */\n      swap2\n      swap1\n      pop\n      jump\t// out\n        /* \"--CODEGEN--\":10090:10473   */\n    tag_799:\n      0x00\n        /* \"--CODEGEN--\":10250:10317   */\n      tag_801\n        /* \"--CODEGEN--\":10314:10316   */\n      0x2e\n        /* \"--CODEGEN--\":10309:10312   */\n      dup4\n        /* \"--CODEGEN--\":10250:10317   */\n      tag_777\n      jump\t// in\n    tag_801:\n        /* \"--CODEGEN--\":10243:10317   */\n      swap2\n      pop\n        /* \"--CODEGEN--\":10350:10384   */\n      0x4d61737465724368656656323a204275726e2061646d696e2061646472657373\n        /* \"--CODEGEN--\":10346:10347   */\n      0x00\n        /* \"--CODEGEN--\":10341:10344   */\n      dup4\n        /* \"--CODEGEN--\":10337:10348   */\n      add\n        /* \"--CODEGEN--\":10330:10385   */\n      mstore\n        /* \"--CODEGEN--\":10419:10435   */\n      0x206d7573742062652076616c6964000000000000000000000000000000000000\n        /* \"--CODEGEN--\":10414:10416   */\n      0x20\n        /* \"--CODEGEN--\":10409:10412   */\n      dup4\n        /* \"--CODEGEN--\":10405:10417   */\n      add\n        /* \"--CODEGEN--\":10398:10436   */\n      mstore\n        /* \"--CODEGEN--\":10464:10466   */\n      0x40\n        /* \"--CODEGEN--\":10459:10462   */\n      dup3\n        /* \"--CODEGEN--\":10455:10467   */\n      add\n        /* \"--CODEGEN--\":10448:10467   */\n      swap1\n      pop\n        /* \"--CODEGEN--\":10236:10473   */\n      swap2\n      swap1\n      pop\n      jump\t// out\n        /* \"--CODEGEN--\":10482:10865   */\n    tag_802:\n      0x00\n        /* \"--CODEGEN--\":10642:10709   */\n      tag_804\n        /* \"--CODEGEN--\":10706:10708   */\n      0x2e\n        /* \"--CODEGEN--\":10701:10704   */\n      dup4\n        /* \"--CODEGEN--\":10642:10709   */\n      tag_777\n      jump\t// in\n    tag_804:\n        /* \"--CODEGEN--\":10635:10709   */\n      swap2\n      pop\n        /* \"--CODEGEN--\":10742:10776   */\n      0x4d61737465724368656656323a2043616b652072617465206d75737420626520\n        /* \"--CODEGEN--\":10738:10739   */\n      0x00\n        /* \"--CODEGEN--\":10733:10736   */\n      dup4\n        /* \"--CODEGEN--\":10729:10740   */\n      add\n        /* \"--CODEGEN--\":10722:10777   */\n      mstore\n        /* \"--CODEGEN--\":10811:10827   */\n      0x67726561746572207468616e2030000000000000000000000000000000000000\n        /* \"--CODEGEN--\":10806:10808   */\n      0x20\n        /* \"--CODEGEN--\":10801:10804   */\n      dup4\n        /* \"--CODEGEN--\":10797:10809   */\n      add\n        /* \"--CODEGEN--\":10790:10828   */\n      mstore\n        /* \"--CODEGEN--\":10856:10858   */\n      0x40\n        /* \"--CODEGEN--\":10851:10854   */\n      dup3\n        /* \"--CODEGEN--\":10847:10859   */\n      add\n        /* \"--CODEGEN--\":10840:10859   */\n      swap1\n      pop\n        /* \"--CODEGEN--\":10628:10865   */\n      swap2\n      swap1\n      pop\n      jump\t// out\n        /* \"--CODEGEN--\":10874:11314   */\n    tag_805:\n      0x00\n        /* \"--CODEGEN--\":11034:11101   */\n      tag_807\n        /* \"--CODEGEN--\":11098:11100   */\n      0x42\n        /* \"--CODEGEN--\":11093:11096   */\n      dup4\n        /* \"--CODEGEN--\":11034:11101   */\n      tag_777\n      jump\t// in\n    tag_807:\n        /* \"--CODEGEN--\":11027:11101   */\n      swap2\n      pop\n        /* \"--CODEGEN--\":11134:11168   */\n      0x4d61737465724368656656323a205468652061646472657373206973206e6f74\n        /* \"--CODEGEN--\":11130:11131   */\n      0x00\n        /* \"--CODEGEN--\":11125:11128   */\n      dup4\n        /* \"--CODEGEN--\":11121:11132   */\n      add\n        /* \"--CODEGEN--\":11114:11169   */\n      mstore\n        /* \"--CODEGEN--\":11203:11237   */\n      0x20617661696c61626c6520746f206465706f73697420696e207468697320706f\n        /* \"--CODEGEN--\":11198:11200   */\n      0x20\n        /* \"--CODEGEN--\":11193:11196   */\n      dup4\n        /* \"--CODEGEN--\":11189:11201   */\n      add\n        /* \"--CODEGEN--\":11182:11238   */\n      mstore\n        /* \"--CODEGEN--\":11272:11276   */\n      0x6f6c000000000000000000000000000000000000000000000000000000000000\n        /* \"--CODEGEN--\":11267:11269   */\n      0x40\n        /* \"--CODEGEN--\":11262:11265   */\n      dup4\n        /* \"--CODEGEN--\":11258:11270   */\n      add\n        /* \"--CODEGEN--\":11251:11277   */\n      mstore\n        /* \"--CODEGEN--\":11305:11307   */\n      0x60\n        /* \"--CODEGEN--\":11300:11303   */\n      dup3\n        /* \"--CODEGEN--\":11296:11308   */\n      add\n        /* \"--CODEGEN--\":11289:11308   */\n      swap1\n      pop\n        /* \"--CODEGEN--\":11020:11314   */\n      swap2\n      swap1\n      pop\n      jump\t// out\n        /* \"--CODEGEN--\":11323:11693   */\n    tag_808:\n      0x00\n        /* \"--CODEGEN--\":11483:11550   */\n      tag_810\n        /* \"--CODEGEN--\":11547:11549   */\n      0x21\n        /* \"--CODEGEN--\":11542:11545   */\n      dup4\n        /* \"--CODEGEN--\":11483:11550   */\n      tag_777\n      jump\t// in\n    tag_810:\n        /* \"--CODEGEN--\":11476:11550   */\n      swap2\n      pop\n        /* \"--CODEGEN--\":11583:11617   */\n      0x536166654d6174683a206d756c7469706c69636174696f6e206f766572666c6f\n        /* \"--CODEGEN--\":11579:11580   */\n      0x00\n        /* \"--CODEGEN--\":11574:11577   */\n      dup4\n        /* \"--CODEGEN--\":11570:11581   */\n      add\n        /* \"--CODEGEN--\":11563:11618   */\n      mstore\n        /* \"--CODEGEN--\":11652:11655   */\n      0x7700000000000000000000000000000000000000000000000000000000000000\n        /* \"--CODEGEN--\":11647:11649   */\n      0x20\n        /* \"--CODEGEN--\":11642:11645   */\n      dup4\n        /* \"--CODEGEN--\":11638:11650   */\n      add\n        /* \"--CODEGEN--\":11631:11656   */\n      mstore\n        /* \"--CODEGEN--\":11684:11686   */\n      0x40\n        /* \"--CODEGEN--\":11679:11682   */\n      dup3\n        /* \"--CODEGEN--\":11675:11687   */\n      add\n        /* \"--CODEGEN--\":11668:11687   */\n      swap1\n      pop\n        /* \"--CODEGEN--\":11469:11693   */\n      swap2\n      swap1\n      pop\n      jump\t// out\n        /* \"--CODEGEN--\":11702:12024   */\n    tag_811:\n      0x00\n        /* \"--CODEGEN--\":11862:11929   */\n      tag_813\n        /* \"--CODEGEN--\":11926:11928   */\n      0x16\n        /* \"--CODEGEN--\":11921:11924   */\n      dup4\n        /* \"--CODEGEN--\":11862:11929   */\n      tag_777\n      jump\t// in\n    tag_813:\n        /* \"--CODEGEN--\":11855:11929   */\n      swap2\n      pop\n        /* \"--CODEGEN--\":11962:11986   */\n      0x77697468647261773a20496e73756666696369656e7400000000000000000000\n        /* \"--CODEGEN--\":11958:11959   */\n      0x00\n        /* \"--CODEGEN--\":11953:11956   */\n      dup4\n        /* \"--CODEGEN--\":11949:11960   */\n      add\n        /* \"--CODEGEN--\":11942:11987   */\n      mstore\n        /* \"--CODEGEN--\":12015:12017   */\n      0x20\n        /* \"--CODEGEN--\":12010:12013   */\n      dup3\n        /* \"--CODEGEN--\":12006:12018   */\n      add\n        /* \"--CODEGEN--\":11999:12018   */\n      swap1\n      pop\n        /* \"--CODEGEN--\":11848:12024   */\n      swap2\n      swap1\n      pop\n      jump\t// out\n        /* \"--CODEGEN--\":12033:12350   */\n    tag_814:\n      0x00\n        /* \"--CODEGEN--\":12193:12260   */\n      tag_816\n        /* \"--CODEGEN--\":12257:12259   */\n      0x11\n        /* \"--CODEGEN--\":12252:12255   */\n      dup4\n        /* \"--CODEGEN--\":12193:12260   */\n      tag_777\n      jump\t// in\n    tag_816:\n        /* \"--CODEGEN--\":12186:12260   */\n      swap2\n      pop\n        /* \"--CODEGEN--\":12293:12312   */\n      0x4e6f6e6520424550323020746f6b656e73000000000000000000000000000000\n        /* \"--CODEGEN--\":12289:12290   */\n      0x00\n        /* \"--CODEGEN--\":12284:12287   */\n      dup4\n        /* \"--CODEGEN--\":12280:12291   */\n      add\n        /* \"--CODEGEN--\":12273:12313   */\n      mstore\n        /* \"--CODEGEN--\":12341:12343   */\n      0x20\n        /* \"--CODEGEN--\":12336:12339   */\n      dup3\n        /* \"--CODEGEN--\":12332:12344   */\n      add\n        /* \"--CODEGEN--\":12325:12344   */\n      swap1\n      pop\n        /* \"--CODEGEN--\":12179:12350   */\n      swap2\n      swap1\n      pop\n      jump\t// out\n        /* \"--CODEGEN--\":12359:12691   */\n    tag_817:\n      0x00\n        /* \"--CODEGEN--\":12519:12586   */\n      tag_819\n        /* \"--CODEGEN--\":12583:12585   */\n      0x20\n        /* \"--CODEGEN--\":12578:12581   */\n      dup4\n        /* \"--CODEGEN--\":12519:12586   */\n      tag_777\n      jump\t// in\n    tag_819:\n        /* \"--CODEGEN--\":12512:12586   */\n      swap2\n      pop\n        /* \"--CODEGEN--\":12619:12653   */\n      0x4f776e61626c653a2063616c6c6572206973206e6f7420746865206f776e6572\n        /* \"--CODEGEN--\":12615:12616   */\n      0x00\n        /* \"--CODEGEN--\":12610:12613   */\n      dup4\n        /* \"--CODEGEN--\":12606:12617   */\n      add\n        /* \"--CODEGEN--\":12599:12654   */\n      mstore\n        /* \"--CODEGEN--\":12682:12684   */\n      0x20\n        /* \"--CODEGEN--\":12677:12680   */\n      dup3\n        /* \"--CODEGEN--\":12673:12685   */\n      add\n        /* \"--CODEGEN--\":12666:12685   */\n      swap1\n      pop\n        /* \"--CODEGEN--\":12505:12691   */\n      swap2\n      swap1\n      pop\n      jump\t// out\n        /* \"--CODEGEN--\":12700:13078   */\n    tag_820:\n      0x00\n        /* \"--CODEGEN--\":12860:12927   */\n      tag_822\n        /* \"--CODEGEN--\":12924:12926   */\n      0x29\n        /* \"--CODEGEN--\":12919:12922   */\n      dup4\n        /* \"--CODEGEN--\":12860:12927   */\n      tag_777\n      jump\t// in\n    tag_822:\n        /* \"--CODEGEN--\":12853:12927   */\n      swap2\n      pop\n        /* \"--CODEGEN--\":12960:12994   */\n      0x4f776e61626c653a2063616c6c6572206973206e6f742074686520626f6f7374\n        /* \"--CODEGEN--\":12956:12957   */\n      0x00\n        /* \"--CODEGEN--\":12951:12954   */\n      dup4\n        /* \"--CODEGEN--\":12947:12958   */\n      add\n        /* \"--CODEGEN--\":12940:12995   */\n      mstore\n        /* \"--CODEGEN--\":13029:13040   */\n      0x20636f6e74726163740000000000000000000000000000000000000000000000\n        /* \"--CODEGEN--\":13024:13026   */\n      0x20\n        /* \"--CODEGEN--\":13019:13022   */\n      dup4\n        /* \"--CODEGEN--\":13015:13027   */\n      add\n        /* \"--CODEGEN--\":13008:13041   */\n      mstore\n        /* \"--CODEGEN--\":13069:13071   */\n      0x40\n        /* \"--CODEGEN--\":13064:13067   */\n      dup3\n        /* \"--CODEGEN--\":13060:13072   */\n      add\n        /* \"--CODEGEN--\":13053:13072   */\n      swap1\n      pop\n        /* \"--CODEGEN--\":12846:13078   */\n      swap2\n      swap1\n      pop\n      jump\t// out\n        /* \"--CODEGEN--\":13087:13463   */\n    tag_823:\n      0x00\n        /* \"--CODEGEN--\":13247:13314   */\n      tag_825\n        /* \"--CODEGEN--\":13311:13313   */\n      0x27\n        /* \"--CODEGEN--\":13306:13309   */\n      dup4\n        /* \"--CODEGEN--\":13247:13314   */\n      tag_777\n      jump\t// in\n    tag_825:\n        /* \"--CODEGEN--\":13240:13314   */\n      swap2\n      pop\n        /* \"--CODEGEN--\":13347:13381   */\n      0x43414b4520746f6b656e2063616e277420626520616464656420746f20666172\n        /* \"--CODEGEN--\":13343:13344   */\n      0x00\n        /* \"--CODEGEN--\":13338:13341   */\n      dup4\n        /* \"--CODEGEN--\":13334:13345   */\n      add\n        /* \"--CODEGEN--\":13327:13382   */\n      mstore\n        /* \"--CODEGEN--\":13416:13425   */\n      0x6d20706f6f6c7300000000000000000000000000000000000000000000000000\n        /* \"--CODEGEN--\":13411:13413   */\n      0x20\n        /* \"--CODEGEN--\":13406:13409   */\n      dup4\n        /* \"--CODEGEN--\":13402:13414   */\n      add\n        /* \"--CODEGEN--\":13395:13426   */\n      mstore\n        /* \"--CODEGEN--\":13454:13456   */\n      0x40\n        /* \"--CODEGEN--\":13449:13452   */\n      dup3\n        /* \"--CODEGEN--\":13445:13457   */\n      add\n        /* \"--CODEGEN--\":13438:13457   */\n      swap1\n      pop\n        /* \"--CODEGEN--\":13233:13463   */\n      swap2\n      swap1\n      pop\n      jump\t// out\n        /* \"--CODEGEN--\":13472:13857   */\n    tag_826:\n      0x00\n        /* \"--CODEGEN--\":13632:13699   */\n      tag_828\n        /* \"--CODEGEN--\":13696:13698   */\n      0x30\n        /* \"--CODEGEN--\":13691:13694   */\n      dup4\n        /* \"--CODEGEN--\":13632:13699   */\n      tag_777\n      jump\t// in\n    tag_828:\n        /* \"--CODEGEN--\":13625:13699   */\n      swap2\n      pop\n        /* \"--CODEGEN--\":13732:13766   */\n      0x4d61737465724368656656323a204f6e6c7920726567756c6172206661726d20\n        /* \"--CODEGEN--\":13728:13729   */\n      0x00\n        /* \"--CODEGEN--\":13723:13726   */\n      dup4\n        /* \"--CODEGEN--\":13719:13730   */\n      add\n        /* \"--CODEGEN--\":13712:13767   */\n      mstore\n        /* \"--CODEGEN--\":13801:13819   */\n      0x636f756c6420626520626f6f7374656400000000000000000000000000000000\n        /* \"--CODEGEN--\":13796:13798   */\n      0x20\n        /* \"--CODEGEN--\":13791:13794   */\n      dup4\n        /* \"--CODEGEN--\":13787:13799   */\n      add\n        /* \"--CODEGEN--\":13780:13820   */\n      mstore\n        /* \"--CODEGEN--\":13848:13850   */\n      0x40\n        /* \"--CODEGEN--\":13843:13846   */\n      dup3\n        /* \"--CODEGEN--\":13839:13851   */\n      add\n        /* \"--CODEGEN--\":13832:13851   */\n      swap1\n      pop\n        /* \"--CODEGEN--\":13618:13857   */\n      swap2\n      swap1\n      pop\n      jump\t// out\n        /* \"--CODEGEN--\":13866:14253   */\n    tag_829:\n      0x00\n        /* \"--CODEGEN--\":14026:14093   */\n      tag_831\n        /* \"--CODEGEN--\":14090:14092   */\n      0x32\n        /* \"--CODEGEN--\":14085:14088   */\n      dup4\n        /* \"--CODEGEN--\":14026:14093   */\n      tag_777\n      jump\t// in\n    tag_831:\n        /* \"--CODEGEN--\":14019:14093   */\n      swap2\n      pop\n        /* \"--CODEGEN--\":14126:14160   */\n      0x4d61737465724368656656323a20546865207768697465206c69737420616464\n        /* \"--CODEGEN--\":14122:14123   */\n      0x00\n        /* \"--CODEGEN--\":14117:14120   */\n      dup4\n        /* \"--CODEGEN--\":14113:14124   */\n      add\n        /* \"--CODEGEN--\":14106:14161   */\n      mstore\n        /* \"--CODEGEN--\":14195:14215   */\n      0x72657373206d7573742062652076616c69640000000000000000000000000000\n        /* \"--CODEGEN--\":14190:14192   */\n      0x20\n        /* \"--CODEGEN--\":14185:14188   */\n      dup4\n        /* \"--CODEGEN--\":14181:14193   */\n      add\n        /* \"--CODEGEN--\":14174:14216   */\n      mstore\n        /* \"--CODEGEN--\":14244:14246   */\n      0x40\n        /* \"--CODEGEN--\":14239:14242   */\n      dup3\n        /* \"--CODEGEN--\":14235:14247   */\n      add\n        /* \"--CODEGEN--\":14228:14247   */\n      swap1\n      pop\n        /* \"--CODEGEN--\":14012:14253   */\n      swap2\n      swap1\n      pop\n      jump\t// out\n        /* \"--CODEGEN--\":14262:14591   */\n    tag_832:\n      0x00\n        /* \"--CODEGEN--\":14422:14489   */\n      tag_834\n        /* \"--CODEGEN--\":14486:14488   */\n      0x1d\n        /* \"--CODEGEN--\":14481:14484   */\n      dup4\n        /* \"--CODEGEN--\":14422:14489   */\n      tag_777\n      jump\t// in\n    tag_834:\n        /* \"--CODEGEN--\":14415:14489   */\n      swap2\n      pop\n        /* \"--CODEGEN--\":14522:14553   */\n      0x416464726573733a2063616c6c20746f206e6f6e2d636f6e7472616374000000\n        /* \"--CODEGEN--\":14518:14519   */\n      0x00\n        /* \"--CODEGEN--\":14513:14516   */\n      dup4\n        /* \"--CODEGEN--\":14509:14520   */\n      add\n        /* \"--CODEGEN--\":14502:14554   */\n      mstore\n        /* \"--CODEGEN--\":14582:14584   */\n      0x20\n        /* \"--CODEGEN--\":14577:14580   */\n      dup3\n        /* \"--CODEGEN--\":14573:14585   */\n      add\n        /* \"--CODEGEN--\":14566:14585   */\n      swap1\n      pop\n        /* \"--CODEGEN--\":14408:14591   */\n      swap2\n      swap1\n      pop\n      jump\t// out\n        /* \"--CODEGEN--\":14600:14974   */\n    tag_835:\n      0x00\n        /* \"--CODEGEN--\":14760:14827   */\n      tag_837\n        /* \"--CODEGEN--\":14824:14826   */\n      0x25\n        /* \"--CODEGEN--\":14819:14822   */\n      dup4\n        /* \"--CODEGEN--\":14760:14827   */\n      tag_777\n      jump\t// in\n    tag_837:\n        /* \"--CODEGEN--\":14753:14827   */\n      swap2\n      pop\n        /* \"--CODEGEN--\":14860:14894   */\n      0x4d61737465724368656656323a20546f74616c2072617465206d757374206265\n        /* \"--CODEGEN--\":14856:14857   */\n      0x00\n        /* \"--CODEGEN--\":14851:14854   */\n      dup4\n        /* \"--CODEGEN--\":14847:14858   */\n      add\n        /* \"--CODEGEN--\":14840:14895   */\n      mstore\n        /* \"--CODEGEN--\":14929:14936   */\n      0x2031653132000000000000000000000000000000000000000000000000000000\n        /* \"--CODEGEN--\":14924:14926   */\n      0x20\n        /* \"--CODEGEN--\":14919:14922   */\n      dup4\n        /* \"--CODEGEN--\":14915:14927   */\n      add\n        /* \"--CODEGEN--\":14908:14937   */\n      mstore\n        /* \"--CODEGEN--\":14965:14967   */\n      0x40\n        /* \"--CODEGEN--\":14960:14963   */\n      dup3\n        /* \"--CODEGEN--\":14956:14968   */\n      add\n        /* \"--CODEGEN--\":14949:14968   */\n      swap1\n      pop\n        /* \"--CODEGEN--\":14746:14974   */\n      swap2\n      swap1\n      pop\n      jump\t// out\n        /* \"--CODEGEN--\":14983:15314   */\n    tag_838:\n      0x00\n        /* \"--CODEGEN--\":15143:15210   */\n      tag_840\n        /* \"--CODEGEN--\":15207:15209   */\n      0x1f\n        /* \"--CODEGEN--\":15202:15205   */\n      dup4\n        /* \"--CODEGEN--\":15143:15210   */\n      tag_777\n      jump\t// in\n    tag_840:\n        /* \"--CODEGEN--\":15136:15210   */\n      swap2\n      pop\n        /* \"--CODEGEN--\":15243:15276   */\n      0x5265656e7472616e637947756172643a207265656e7472616e742063616c6c00\n        /* \"--CODEGEN--\":15239:15240   */\n      0x00\n        /* \"--CODEGEN--\":15234:15237   */\n      dup4\n        /* \"--CODEGEN--\":15230:15241   */\n      add\n        /* \"--CODEGEN--\":15223:15277   */\n      mstore\n        /* \"--CODEGEN--\":15305:15307   */\n      0x20\n        /* \"--CODEGEN--\":15300:15303   */\n      dup3\n        /* \"--CODEGEN--\":15296:15308   */\n      add\n        /* \"--CODEGEN--\":15289:15308   */\n      swap1\n      pop\n        /* \"--CODEGEN--\":15129:15314   */\n      swap2\n      swap1\n      pop\n      jump\t// out\n        /* \"--CODEGEN--\":15323:15762   */\n    tag_841:\n      0x00\n        /* \"--CODEGEN--\":15483:15550   */\n      tag_843\n        /* \"--CODEGEN--\":15547:15549   */\n      0x41\n        /* \"--CODEGEN--\":15542:15545   */\n      dup4\n        /* \"--CODEGEN--\":15483:15550   */\n      tag_777\n      jump\t// in\n    tag_843:\n        /* \"--CODEGEN--\":15476:15550   */\n      swap2\n      pop\n        /* \"--CODEGEN--\":15583:15617   */\n      0x4d61737465724368656656323a204275726e2061646d696e2061646472657373\n        /* \"--CODEGEN--\":15579:15580   */\n      0x00\n        /* \"--CODEGEN--\":15574:15577   */\n      dup4\n        /* \"--CODEGEN--\":15570:15581   */\n      add\n        /* \"--CODEGEN--\":15563:15618   */\n      mstore\n        /* \"--CODEGEN--\":15652:15686   */\n      0x206973207468652073616d6520776974682063757272656e7420616464726573\n        /* \"--CODEGEN--\":15647:15649   */\n      0x20\n        /* \"--CODEGEN--\":15642:15645   */\n      dup4\n        /* \"--CODEGEN--\":15638:15650   */\n      add\n        /* \"--CODEGEN--\":15631:15687   */\n      mstore\n        /* \"--CODEGEN--\":15721:15724   */\n      0x7300000000000000000000000000000000000000000000000000000000000000\n        /* \"--CODEGEN--\":15716:15718   */\n      0x40\n        /* \"--CODEGEN--\":15711:15714   */\n      dup4\n        /* \"--CODEGEN--\":15707:15719   */\n      add\n        /* \"--CODEGEN--\":15700:15725   */\n      mstore\n        /* \"--CODEGEN--\":15753:15755   */\n      0x60\n        /* \"--CODEGEN--\":15748:15751   */\n      dup3\n        /* \"--CODEGEN--\":15744:15756   */\n      add\n        /* \"--CODEGEN--\":15737:15756   */\n      swap1\n      pop\n        /* \"--CODEGEN--\":15469:15762   */\n      swap2\n      swap1\n      pop\n      jump\t// out\n        /* \"--CODEGEN--\":15771:16162   */\n    tag_844:\n      0x00\n        /* \"--CODEGEN--\":15931:15998   */\n      tag_846\n        /* \"--CODEGEN--\":15995:15997   */\n      0x36\n        /* \"--CODEGEN--\":15990:15993   */\n      dup4\n        /* \"--CODEGEN--\":15931:15998   */\n      tag_777\n      jump\t// in\n    tag_846:\n        /* \"--CODEGEN--\":15924:15998   */\n      swap2\n      pop\n        /* \"--CODEGEN--\":16031:16065   */\n      0x4d61737465724368656656323a204e657720626f6f737420636f6e7472616374\n        /* \"--CODEGEN--\":16027:16028   */\n      0x00\n        /* \"--CODEGEN--\":16022:16025   */\n      dup4\n        /* \"--CODEGEN--\":16018:16029   */\n      add\n        /* \"--CODEGEN--\":16011:16066   */\n      mstore\n        /* \"--CODEGEN--\":16100:16124   */\n      0x2061646472657373206d7573742062652076616c696400000000000000000000\n        /* \"--CODEGEN--\":16095:16097   */\n      0x20\n        /* \"--CODEGEN--\":16090:16093   */\n      dup4\n        /* \"--CODEGEN--\":16086:16098   */\n      add\n        /* \"--CODEGEN--\":16079:16125   */\n      mstore\n        /* \"--CODEGEN--\":16153:16155   */\n      0x40\n        /* \"--CODEGEN--\":16148:16151   */\n      dup3\n        /* \"--CODEGEN--\":16144:16156   */\n      add\n        /* \"--CODEGEN--\":16137:16156   */\n      swap1\n      pop\n        /* \"--CODEGEN--\":15917:16162   */\n      swap2\n      swap1\n      pop\n      jump\t// out\n        /* \"--CODEGEN--\":16237:17215   */\n    tag_847:\n        /* \"--CODEGEN--\":16380:16384   */\n      0xa0\n        /* \"--CODEGEN--\":16375:16378   */\n      dup3\n        /* \"--CODEGEN--\":16371:16385   */\n      add\n        /* \"--CODEGEN--\":16474:16478   */\n      0x00\n        /* \"--CODEGEN--\":16467:16472   */\n      dup3\n        /* \"--CODEGEN--\":16463:16479   */\n      add\n        /* \"--CODEGEN--\":16457:16480   */\n      mload\n        /* \"--CODEGEN--\":16486:16549   */\n      tag_849\n        /* \"--CODEGEN--\":16543:16547   */\n      0x00\n        /* \"--CODEGEN--\":16538:16541   */\n      dup6\n        /* \"--CODEGEN--\":16534:16548   */\n      add\n        /* \"--CODEGEN--\":16520:16532   */\n      dup3\n        /* \"--CODEGEN--\":16486:16549   */\n      tag_850\n      jump\t// in\n    tag_849:\n        /* \"--CODEGEN--\":16400:16555   */\n      pop\n        /* \"--CODEGEN--\":16639:16643   */\n      0x20\n        /* \"--CODEGEN--\":16632:16637   */\n      dup3\n        /* \"--CODEGEN--\":16628:16644   */\n      add\n        /* \"--CODEGEN--\":16622:16645   */\n      mload\n        /* \"--CODEGEN--\":16651:16714   */\n      tag_851\n        /* \"--CODEGEN--\":16708:16712   */\n      0x20\n        /* \"--CODEGEN--\":16703:16706   */\n      dup6\n        /* \"--CODEGEN--\":16699:16713   */\n      add\n        /* \"--CODEGEN--\":16685:16697   */\n      dup3\n        /* \"--CODEGEN--\":16651:16714   */\n      tag_850\n      jump\t// in\n    tag_851:\n        /* \"--CODEGEN--\":16565:16720   */\n      pop\n        /* \"--CODEGEN--\":16799:16803   */\n      0x40\n        /* \"--CODEGEN--\":16792:16797   */\n      dup3\n        /* \"--CODEGEN--\":16788:16804   */\n      add\n        /* \"--CODEGEN--\":16782:16805   */\n      mload\n        /* \"--CODEGEN--\":16811:16874   */\n      tag_852\n        /* \"--CODEGEN--\":16868:16872   */\n      0x40\n        /* \"--CODEGEN--\":16863:16866   */\n      dup6\n        /* \"--CODEGEN--\":16859:16873   */\n      add\n        /* \"--CODEGEN--\":16845:16857   */\n      dup3\n        /* \"--CODEGEN--\":16811:16874   */\n      tag_850\n      jump\t// in\n    tag_852:\n        /* \"--CODEGEN--\":16730:16880   */\n      pop\n        /* \"--CODEGEN--\":16966:16970   */\n      0x60\n        /* \"--CODEGEN--\":16959:16964   */\n      dup3\n        /* \"--CODEGEN--\":16955:16971   */\n      add\n        /* \"--CODEGEN--\":16949:16972   */\n      mload\n        /* \"--CODEGEN--\":16978:17041   */\n      tag_853\n        /* \"--CODEGEN--\":17035:17039   */\n      0x60\n        /* \"--CODEGEN--\":17030:17033   */\n      dup6\n        /* \"--CODEGEN--\":17026:17040   */\n      add\n        /* \"--CODEGEN--\":17012:17024   */\n      dup3\n        /* \"--CODEGEN--\":16978:17041   */\n      tag_850\n      jump\t// in\n    tag_853:\n        /* \"--CODEGEN--\":16890:17047   */\n      pop\n        /* \"--CODEGEN--\":17125:17129   */\n      0x80\n        /* \"--CODEGEN--\":17118:17123   */\n      dup3\n        /* \"--CODEGEN--\":17114:17130   */\n      add\n        /* \"--CODEGEN--\":17108:17131   */\n      mload\n        /* \"--CODEGEN--\":17137:17194   */\n      tag_854\n        /* \"--CODEGEN--\":17188:17192   */\n      0x80\n        /* \"--CODEGEN--\":17183:17186   */\n      dup6\n        /* \"--CODEGEN--\":17179:17193   */\n      add\n        /* \"--CODEGEN--\":17165:17177   */\n      dup3\n        /* \"--CODEGEN--\":17137:17194   */\n      tag_745\n      jump\t// in\n    tag_854:\n        /* \"--CODEGEN--\":17057:17200   */\n      pop\n        /* \"--CODEGEN--\":16353:17215   */\n      pop\n      pop\n      pop\n      jump\t// out\n        /* \"--CODEGEN--\":17222:17325   */\n    tag_850:\n        /* \"--CODEGEN--\":17295:17319   */\n      tag_856\n        /* \"--CODEGEN--\":17313:17318   */\n      dup2\n        /* \"--CODEGEN--\":17295:17319   */\n      tag_857\n      jump\t// in\n    tag_856:\n        /* \"--CODEGEN--\":17290:17293   */\n      dup3\n        /* \"--CODEGEN--\":17283:17320   */\n      mstore\n        /* \"--CODEGEN--\":17277:17325   */\n      pop\n      pop\n      jump\t// out\n        /* \"--CODEGEN--\":17332:17445   */\n    tag_858:\n        /* \"--CODEGEN--\":17415:17439   */\n      tag_860\n        /* \"--CODEGEN--\":17433:17438   */\n      dup2\n        /* \"--CODEGEN--\":17415:17439   */\n      tag_857\n      jump\t// in\n    tag_860:\n        /* \"--CODEGEN--\":17410:17413   */\n      dup3\n        /* \"--CODEGEN--\":17403:17440   */\n      mstore\n        /* \"--CODEGEN--\":17397:17445   */\n      pop\n      pop\n      jump\t// out\n        /* \"--CODEGEN--\":17452:17723   */\n    tag_648:\n      0x00\n        /* \"--CODEGEN--\":17605:17698   */\n      tag_862\n        /* \"--CODEGEN--\":17694:17697   */\n      dup3\n        /* \"--CODEGEN--\":17685:17691   */\n      dup5\n        /* \"--CODEGEN--\":17605:17698   */\n      tag_752\n      jump\t// in\n    tag_862:\n        /* \"--CODEGEN--\":17598:17698   */\n      swap2\n      pop\n        /* \"--CODEGEN--\":17715:17718   */\n      dup2\n        /* \"--CODEGEN--\":17708:17718   */\n      swap1\n      pop\n        /* \"--CODEGEN--\":17586:17723   */\n      swap3\n      swap2\n      pop\n      pop\n      jump\t// out\n        /* \"--CODEGEN--\":17730:17952   */\n    tag_149:\n      0x00\n        /* \"--CODEGEN--\":17857:17859   */\n      0x20\n        /* \"--CODEGEN--\":17846:17855   */\n      dup3\n        /* \"--CODEGEN--\":17842:17860   */\n      add\n        /* \"--CODEGEN--\":17834:17860   */\n      swap1\n      pop\n        /* \"--CODEGEN--\":17871:17942   */\n      tag_864\n        /* \"--CODEGEN--\":17939:17940   */\n      0x00\n        /* \"--CODEGEN--\":17928:17937   */\n      dup4\n        /* \"--CODEGEN--\":17924:17941   */\n      add\n        /* \"--CODEGEN--\":17915:17921   */\n      dup5\n        /* \"--CODEGEN--\":17871:17942   */\n      tag_741\n      jump\t// in\n    tag_864:\n        /* \"--CODEGEN--\":17828:17952   */\n      swap3\n      swap2\n      pop\n      pop\n      jump\t// out\n        /* \"--CODEGEN--\":17959:18197   */\n    tag_300:\n      0x00\n        /* \"--CODEGEN--\":18094:18096   */\n      0x20\n        /* \"--CODEGEN--\":18083:18092   */\n      dup3\n        /* \"--CODEGEN--\":18079:18097   */\n      add\n        /* \"--CODEGEN--\":18071:18097   */\n      swap1\n      pop\n        /* \"--CODEGEN--\":18108:18187   */\n      tag_866\n        /* \"--CODEGEN--\":18184:18185   */\n      0x00\n        /* \"--CODEGEN--\":18173:18182   */\n      dup4\n        /* \"--CODEGEN--\":18169:18186   */\n      add\n        /* \"--CODEGEN--\":18160:18166   */\n      dup5\n        /* \"--CODEGEN--\":18108:18187   */\n      tag_737\n      jump\t// in\n    tag_866:\n        /* \"--CODEGEN--\":18065:18197   */\n      swap3\n      swap2\n      pop\n      pop\n      jump\t// out\n        /* \"--CODEGEN--\":18204:18648   */\n    tag_601:\n      0x00\n        /* \"--CODEGEN--\":18387:18389   */\n      0x60\n        /* \"--CODEGEN--\":18376:18385   */\n      dup3\n        /* \"--CODEGEN--\":18372:18390   */\n      add\n        /* \"--CODEGEN--\":18364:18390   */\n      swap1\n      pop\n        /* \"--CODEGEN--\":18401:18472   */\n      tag_868\n        /* \"--CODEGEN--\":18469:18470   */\n      0x00\n        /* \"--CODEGEN--\":18458:18467   */\n      dup4\n        /* \"--CODEGEN--\":18454:18471   */\n      add\n        /* \"--CODEGEN--\":18445:18451   */\n      dup7\n        /* \"--CODEGEN--\":18401:18472   */\n      tag_741\n      jump\t// in\n    tag_868:\n        /* \"--CODEGEN--\":18483:18555   */\n      tag_869\n        /* \"--CODEGEN--\":18551:18553   */\n      0x20\n        /* \"--CODEGEN--\":18540:18549   */\n      dup4\n        /* \"--CODEGEN--\":18536:18554   */\n      add\n        /* \"--CODEGEN--\":18527:18533   */\n      dup6\n        /* \"--CODEGEN--\":18483:18555   */\n      tag_741\n      jump\t// in\n    tag_869:\n        /* \"--CODEGEN--\":18566:18638   */\n      tag_870\n        /* \"--CODEGEN--\":18634:18636   */\n      0x40\n        /* \"--CODEGEN--\":18623:18632   */\n      dup4\n        /* \"--CODEGEN--\":18619:18637   */\n      add\n        /* \"--CODEGEN--\":18610:18616   */\n      dup5\n        /* \"--CODEGEN--\":18566:18638   */\n      tag_858\n      jump\t// in\n    tag_870:\n        /* \"--CODEGEN--\":18358:18648   */\n      swap5\n      swap4\n      pop\n      pop\n      pop\n      pop\n      jump\t// out\n        /* \"--CODEGEN--\":18655:18988   */\n    tag_312:\n      0x00\n        /* \"--CODEGEN--\":18810:18812   */\n      0x40\n        /* \"--CODEGEN--\":18799:18808   */\n      dup3\n        /* \"--CODEGEN--\":18795:18813   */\n      add\n        /* \"--CODEGEN--\":18787:18813   */\n      swap1\n      pop\n        /* \"--CODEGEN--\":18824:18895   */\n      tag_872\n        /* \"--CODEGEN--\":18892:18893   */\n      0x00\n        /* \"--CODEGEN--\":18881:18890   */\n      dup4\n        /* \"--CODEGEN--\":18877:18894   */\n      add\n        /* \"--CODEGEN--\":18868:18874   */\n      dup6\n        /* \"--CODEGEN--\":18824:18895   */\n      tag_741\n      jump\t// in\n    tag_872:\n        /* \"--CODEGEN--\":18906:18978   */\n      tag_873\n        /* \"--CODEGEN--\":18974:18976   */\n      0x20\n        /* \"--CODEGEN--\":18963:18972   */\n      dup4\n        /* \"--CODEGEN--\":18959:18977   */\n      add\n        /* \"--CODEGEN--\":18950:18956   */\n      dup5\n        /* \"--CODEGEN--\":18906:18978   */\n      tag_858\n      jump\t// in\n    tag_873:\n        /* \"--CODEGEN--\":18781:18988   */\n      swap4\n      swap3\n      pop\n      pop\n      pop\n      jump\t// out\n        /* \"--CODEGEN--\":18995:19205   */\n    tag_97:\n      0x00\n        /* \"--CODEGEN--\":19116:19118   */\n      0x20\n        /* \"--CODEGEN--\":19105:19114   */\n      dup3\n        /* \"--CODEGEN--\":19101:19119   */\n      add\n        /* \"--CODEGEN--\":19093:19119   */\n      swap1\n      pop\n        /* \"--CODEGEN--\":19130:19195   */\n      tag_875\n        /* \"--CODEGEN--\":19192:19193   */\n      0x00\n        /* \"--CODEGEN--\":19181:19190   */\n      dup4\n        /* \"--CODEGEN--\":19177:19194   */\n      add\n        /* \"--CODEGEN--\":19168:19174   */\n      dup5\n        /* \"--CODEGEN--\":19130:19195   */\n      tag_749\n      jump\t// in\n    tag_875:\n        /* \"--CODEGEN--\":19087:19205   */\n      swap3\n      swap2\n      pop\n      pop\n      jump\t// out\n        /* \"--CODEGEN--\":19212:19464   */\n    tag_108:\n      0x00\n        /* \"--CODEGEN--\":19354:19356   */\n      0x20\n        /* \"--CODEGEN--\":19343:19352   */\n      dup3\n        /* \"--CODEGEN--\":19339:19357   */\n      add\n        /* \"--CODEGEN--\":19331:19357   */\n      swap1\n      pop\n        /* \"--CODEGEN--\":19368:19454   */\n      tag_877\n        /* \"--CODEGEN--\":19451:19452   */\n      0x00\n        /* \"--CODEGEN--\":19440:19449   */\n      dup4\n        /* \"--CODEGEN--\":19436:19453   */\n      add\n        /* \"--CODEGEN--\":19427:19433   */\n      dup5\n        /* \"--CODEGEN--\":19368:19454   */\n      tag_760\n      jump\t// in\n    tag_877:\n        /* \"--CODEGEN--\":19325:19464   */\n      swap3\n      swap2\n      pop\n      pop\n      jump\t// out\n        /* \"--CODEGEN--\":19471:19733   */\n    tag_203:\n      0x00\n        /* \"--CODEGEN--\":19618:19620   */\n      0x20\n        /* \"--CODEGEN--\":19607:19616   */\n      dup3\n        /* \"--CODEGEN--\":19603:19621   */\n      add\n        /* \"--CODEGEN--\":19595:19621   */\n      swap1\n      pop\n        /* \"--CODEGEN--\":19632:19723   */\n      tag_879\n        /* \"--CODEGEN--\":19720:19721   */\n      0x00\n        /* \"--CODEGEN--\":19709:19718   */\n      dup4\n        /* \"--CODEGEN--\":19705:19722   */\n      add\n        /* \"--CODEGEN--\":19696:19702   */\n      dup5\n        /* \"--CODEGEN--\":19632:19723   */\n      tag_764\n      jump\t// in\n    tag_879:\n        /* \"--CODEGEN--\":19589:19733   */\n      swap3\n      swap2\n      pop\n      pop\n      jump\t// out\n        /* \"--CODEGEN--\":19740:20050   */\n    tag_625:\n      0x00\n        /* \"--CODEGEN--\":19887:19889   */\n      0x20\n        /* \"--CODEGEN--\":19876:19885   */\n      dup3\n        /* \"--CODEGEN--\":19872:19890   */\n      add\n        /* \"--CODEGEN--\":19864:19890   */\n      swap1\n      pop\n        /* \"--CODEGEN--\":19937:19946   */\n      dup2\n        /* \"--CODEGEN--\":19931:19935   */\n      dup2\n        /* \"--CODEGEN--\":19927:19947   */\n      sub\n        /* \"--CODEGEN--\":19923:19924   */\n      0x00\n        /* \"--CODEGEN--\":19912:19921   */\n      dup4\n        /* \"--CODEGEN--\":19908:19925   */\n      add\n        /* \"--CODEGEN--\":19901:19948   */\n      mstore\n        /* \"--CODEGEN--\":19962:20040   */\n      tag_881\n        /* \"--CODEGEN--\":20035:20039   */\n      dup2\n        /* \"--CODEGEN--\":20026:20032   */\n      dup5\n        /* \"--CODEGEN--\":19962:20040   */\n      tag_772\n      jump\t// in\n    tag_881:\n        /* \"--CODEGEN--\":19954:20040   */\n      swap1\n      pop\n        /* \"--CODEGEN--\":19858:20050   */\n      swap3\n      swap2\n      pop\n      pop\n      jump\t// out\n        /* \"--CODEGEN--\":20057:20473   */\n    tag_308:\n      0x00\n        /* \"--CODEGEN--\":20257:20259   */\n      0x20\n        /* \"--CODEGEN--\":20246:20255   */\n      dup3\n        /* \"--CODEGEN--\":20242:20260   */\n      add\n        /* \"--CODEGEN--\":20234:20260   */\n      swap1\n      pop\n        /* \"--CODEGEN--\":20307:20316   */\n      dup2\n        /* \"--CODEGEN--\":20301:20305   */\n      dup2\n        /* \"--CODEGEN--\":20297:20317   */\n      sub\n        /* \"--CODEGEN--\":20293:20294   */\n      0x00\n        /* \"--CODEGEN--\":20282:20291   */\n      dup4\n        /* \"--CODEGEN--\":20278:20295   */\n      add\n        /* \"--CODEGEN--\":20271:20318   */\n      mstore\n        /* \"--CODEGEN--\":20332:20463   */\n      tag_883\n        /* \"--CODEGEN--\":20458:20462   */\n      dup2\n        /* \"--CODEGEN--\":20332:20463   */\n      tag_781\n      jump\t// in\n    tag_883:\n        /* \"--CODEGEN--\":20324:20463   */\n      swap1\n      pop\n        /* \"--CODEGEN--\":20228:20473   */\n      swap2\n      swap1\n      pop\n      jump\t// out\n        /* \"--CODEGEN--\":20480:20896   */\n    tag_230:\n      0x00\n        /* \"--CODEGEN--\":20680:20682   */\n      0x20\n        /* \"--CODEGEN--\":20669:20678   */\n      dup3\n        /* \"--CODEGEN--\":20665:20683   */\n      add\n        /* \"--CODEGEN--\":20657:20683   */\n      swap1\n      pop\n        /* \"--CODEGEN--\":20730:20739   */\n      dup2\n        /* \"--CODEGEN--\":20724:20728   */\n      dup2\n        /* \"--CODEGEN--\":20720:20740   */\n      sub\n        /* \"--CODEGEN--\":20716:20717   */\n      0x00\n        /* \"--CODEGEN--\":20705:20714   */\n      dup4\n        /* \"--CODEGEN--\":20701:20718   */\n      add\n        /* \"--CODEGEN--\":20694:20741   */\n      mstore\n        /* \"--CODEGEN--\":20755:20886   */\n      tag_885\n        /* \"--CODEGEN--\":20881:20885   */\n      dup2\n        /* \"--CODEGEN--\":20755:20886   */\n      tag_784\n      jump\t// in\n    tag_885:\n        /* \"--CODEGEN--\":20747:20886   */\n      swap1\n      pop\n        /* \"--CODEGEN--\":20651:20896   */\n      swap2\n      swap1\n      pop\n      jump\t// out\n        /* \"--CODEGEN--\":20903:21319   */\n    tag_637:\n      0x00\n        /* \"--CODEGEN--\":21103:21105   */\n      0x20\n        /* \"--CODEGEN--\":21092:21101   */\n      dup3\n        /* \"--CODEGEN--\":21088:21106   */\n      add\n        /* \"--CODEGEN--\":21080:21106   */\n      swap1\n      pop\n        /* \"--CODEGEN--\":21153:21162   */\n      dup2\n        /* \"--CODEGEN--\":21147:21151   */\n      dup2\n        /* \"--CODEGEN--\":21143:21163   */\n      sub\n        /* \"--CODEGEN--\":21139:21140   */\n      0x00\n        /* \"--CODEGEN--\":21128:21137   */\n      dup4\n        /* \"--CODEGEN--\":21124:21141   */\n      add\n        /* \"--CODEGEN--\":21117:21164   */\n      mstore\n        /* \"--CODEGEN--\":21178:21309   */\n      tag_887\n        /* \"--CODEGEN--\":21304:21308   */\n      dup2\n        /* \"--CODEGEN--\":21178:21309   */\n      tag_787\n      jump\t// in\n    tag_887:\n        /* \"--CODEGEN--\":21170:21309   */\n      swap1\n      pop\n        /* \"--CODEGEN--\":21074:21319   */\n      swap2\n      swap1\n      pop\n      jump\t// out\n        /* \"--CODEGEN--\":21326:21742   */\n    tag_570:\n      0x00\n        /* \"--CODEGEN--\":21526:21528   */\n      0x20\n        /* \"--CODEGEN--\":21515:21524   */\n      dup3\n        /* \"--CODEGEN--\":21511:21529   */\n      add\n        /* \"--CODEGEN--\":21503:21529   */\n      swap1\n      pop\n        /* \"--CODEGEN--\":21576:21585   */\n      dup2\n        /* \"--CODEGEN--\":21570:21574   */\n      dup2\n        /* \"--CODEGEN--\":21566:21586   */\n      sub\n        /* \"--CODEGEN--\":21562:21563   */\n      0x00\n        /* \"--CODEGEN--\":21551:21560   */\n      dup4\n        /* \"--CODEGEN--\":21547:21564   */\n      add\n        /* \"--CODEGEN--\":21540:21587   */\n      mstore\n        /* \"--CODEGEN--\":21601:21732   */\n      tag_889\n        /* \"--CODEGEN--\":21727:21731   */\n      dup2\n        /* \"--CODEGEN--\":21601:21732   */\n      tag_790\n      jump\t// in\n    tag_889:\n        /* \"--CODEGEN--\":21593:21732   */\n      swap1\n      pop\n        /* \"--CODEGEN--\":21497:21742   */\n      swap2\n      swap1\n      pop\n      jump\t// out\n        /* \"--CODEGEN--\":21749:22165   */\n    tag_596:\n      0x00\n        /* \"--CODEGEN--\":21949:21951   */\n      0x20\n        /* \"--CODEGEN--\":21938:21947   */\n      dup3\n        /* \"--CODEGEN--\":21934:21952   */\n      add\n        /* \"--CODEGEN--\":21926:21952   */\n      swap1\n      pop\n        /* \"--CODEGEN--\":21999:22008   */\n      dup2\n        /* \"--CODEGEN--\":21993:21997   */\n      dup2\n        /* \"--CODEGEN--\":21989:22009   */\n      sub\n        /* \"--CODEGEN--\":21985:21986   */\n      0x00\n        /* \"--CODEGEN--\":21974:21983   */\n      dup4\n        /* \"--CODEGEN--\":21970:21987   */\n      add\n        /* \"--CODEGEN--\":21963:22010   */\n      mstore\n        /* \"--CODEGEN--\":22024:22155   */\n      tag_891\n        /* \"--CODEGEN--\":22150:22154   */\n      dup2\n        /* \"--CODEGEN--\":22024:22155   */\n      tag_793\n      jump\t// in\n    tag_891:\n        /* \"--CODEGEN--\":22016:22155   */\n      swap1\n      pop\n        /* \"--CODEGEN--\":21920:22165   */\n      swap2\n      swap1\n      pop\n      jump\t// out\n        /* \"--CODEGEN--\":22172:22588   */\n    tag_221:\n      0x00\n        /* \"--CODEGEN--\":22372:22374   */\n      0x20\n        /* \"--CODEGEN--\":22361:22370   */\n      dup3\n        /* \"--CODEGEN--\":22357:22375   */\n      add\n        /* \"--CODEGEN--\":22349:22375   */\n      swap1\n      pop\n        /* \"--CODEGEN--\":22422:22431   */\n      dup2\n        /* \"--CODEGEN--\":22416:22420   */\n      dup2\n        /* \"--CODEGEN--\":22412:22432   */\n      sub\n        /* \"--CODEGEN--\":22408:22409   */\n      0x00\n        /* \"--CODEGEN--\":22397:22406   */\n      dup4\n        /* \"--CODEGEN--\":22393:22410   */\n      add\n        /* \"--CODEGEN--\":22386:22433   */\n      mstore\n        /* \"--CODEGEN--\":22447:22578   */\n      tag_893\n        /* \"--CODEGEN--\":22573:22577   */\n      dup2\n        /* \"--CODEGEN--\":22447:22578   */\n      tag_796\n      jump\t// in\n    tag_893:\n        /* \"--CODEGEN--\":22439:22578   */\n      swap1\n      pop\n        /* \"--CODEGEN--\":22343:22588   */\n      swap2\n      swap1\n      pop\n      jump\t// out\n        /* \"--CODEGEN--\":22595:23011   */\n    tag_264:\n      0x00\n        /* \"--CODEGEN--\":22795:22797   */\n      0x20\n        /* \"--CODEGEN--\":22784:22793   */\n      dup3\n        /* \"--CODEGEN--\":22780:22798   */\n      add\n        /* \"--CODEGEN--\":22772:22798   */\n      swap1\n      pop\n        /* \"--CODEGEN--\":22845:22854   */\n      dup2\n        /* \"--CODEGEN--\":22839:22843   */\n      dup2\n        /* \"--CODEGEN--\":22835:22855   */\n      sub\n        /* \"--CODEGEN--\":22831:22832   */\n      0x00\n        /* \"--CODEGEN--\":22820:22829   */\n      dup4\n        /* \"--CODEGEN--\":22816:22833   */\n      add\n        /* \"--CODEGEN--\":22809:22856   */\n      mstore\n        /* \"--CODEGEN--\":22870:23001   */\n      tag_895\n        /* \"--CODEGEN--\":22996:23000   */\n      dup2\n        /* \"--CODEGEN--\":22870:23001   */\n      tag_799\n      jump\t// in\n    tag_895:\n        /* \"--CODEGEN--\":22862:23001   */\n      swap1\n      pop\n        /* \"--CODEGEN--\":22766:23011   */\n      swap2\n      swap1\n      pop\n      jump\t// out\n        /* \"--CODEGEN--\":23018:23434   */\n    tag_510:\n      0x00\n        /* \"--CODEGEN--\":23218:23220   */\n      0x20\n        /* \"--CODEGEN--\":23207:23216   */\n      dup3\n        /* \"--CODEGEN--\":23203:23221   */\n      add\n        /* \"--CODEGEN--\":23195:23221   */\n      swap1\n      pop\n        /* \"--CODEGEN--\":23268:23277   */\n      dup2\n        /* \"--CODEGEN--\":23262:23266   */\n      dup2\n        /* \"--CODEGEN--\":23258:23278   */\n      sub\n        /* \"--CODEGEN--\":23254:23255   */\n      0x00\n        /* \"--CODEGEN--\":23243:23252   */\n      dup4\n        /* \"--CODEGEN--\":23239:23256   */\n      add\n        /* \"--CODEGEN--\":23232:23279   */\n      mstore\n        /* \"--CODEGEN--\":23293:23424   */\n      tag_897\n        /* \"--CODEGEN--\":23419:23423   */\n      dup2\n        /* \"--CODEGEN--\":23293:23424   */\n      tag_802\n      jump\t// in\n    tag_897:\n        /* \"--CODEGEN--\":23285:23424   */\n      swap1\n      pop\n        /* \"--CODEGEN--\":23189:23434   */\n      swap2\n      swap1\n      pop\n      jump\t// out\n        /* \"--CODEGEN--\":23441:23857   */\n    tag_529:\n      0x00\n        /* \"--CODEGEN--\":23641:23643   */\n      0x20\n        /* \"--CODEGEN--\":23630:23639   */\n      dup3\n        /* \"--CODEGEN--\":23626:23644   */\n      add\n        /* \"--CODEGEN--\":23618:23644   */\n      swap1\n      pop\n        /* \"--CODEGEN--\":23691:23700   */\n      dup2\n        /* \"--CODEGEN--\":23685:23689   */\n      dup2\n        /* \"--CODEGEN--\":23681:23701   */\n      sub\n        /* \"--CODEGEN--\":23677:23678   */\n      0x00\n        /* \"--CODEGEN--\":23666:23675   */\n      dup4\n        /* \"--CODEGEN--\":23662:23679   */\n      add\n        /* \"--CODEGEN--\":23655:23702   */\n      mstore\n        /* \"--CODEGEN--\":23716:23847   */\n      tag_899\n        /* \"--CODEGEN--\":23842:23846   */\n      dup2\n        /* \"--CODEGEN--\":23716:23847   */\n      tag_805\n      jump\t// in\n    tag_899:\n        /* \"--CODEGEN--\":23708:23847   */\n      swap1\n      pop\n        /* \"--CODEGEN--\":23612:23857   */\n      swap2\n      swap1\n      pop\n      jump\t// out\n        /* \"--CODEGEN--\":23864:24280   */\n    tag_586:\n      0x00\n        /* \"--CODEGEN--\":24064:24066   */\n      0x20\n        /* \"--CODEGEN--\":24053:24062   */\n      dup3\n        /* \"--CODEGEN--\":24049:24067   */\n      add\n        /* \"--CODEGEN--\":24041:24067   */\n      swap1\n      pop\n        /* \"--CODEGEN--\":24114:24123   */\n      dup2\n        /* \"--CODEGEN--\":24108:24112   */\n      dup2\n        /* \"--CODEGEN--\":24104:24124   */\n      sub\n        /* \"--CODEGEN--\":24100:24101   */\n      0x00\n        /* \"--CODEGEN--\":24089:24098   */\n      dup4\n        /* \"--CODEGEN--\":24085:24102   */\n      add\n        /* \"--CODEGEN--\":24078:24125   */\n      mstore\n        /* \"--CODEGEN--\":24139:24270   */\n      tag_901\n        /* \"--CODEGEN--\":24265:24269   */\n      dup2\n        /* \"--CODEGEN--\":24139:24270   */\n      tag_808\n      jump\t// in\n    tag_901:\n        /* \"--CODEGEN--\":24131:24270   */\n      swap1\n      pop\n        /* \"--CODEGEN--\":24035:24280   */\n      swap2\n      swap1\n      pop\n      jump\t// out\n        /* \"--CODEGEN--\":24287:24703   */\n    tag_338:\n      0x00\n        /* \"--CODEGEN--\":24487:24489   */\n      0x20\n        /* \"--CODEGEN--\":24476:24485   */\n      dup3\n        /* \"--CODEGEN--\":24472:24490   */\n      add\n        /* \"--CODEGEN--\":24464:24490   */\n      swap1\n      pop\n        /* \"--CODEGEN--\":24537:24546   */\n      dup2\n        /* \"--CODEGEN--\":24531:24535   */\n      dup2\n        /* \"--CODEGEN--\":24527:24547   */\n      sub\n        /* \"--CODEGEN--\":24523:24524   */\n      0x00\n        /* \"--CODEGEN--\":24512:24521   */\n      dup4\n        /* \"--CODEGEN--\":24508:24525   */\n      add\n        /* \"--CODEGEN--\":24501:24548   */\n      mstore\n        /* \"--CODEGEN--\":24562:24693   */\n      tag_903\n        /* \"--CODEGEN--\":24688:24692   */\n      dup2\n        /* \"--CODEGEN--\":24562:24693   */\n      tag_811\n      jump\t// in\n    tag_903:\n        /* \"--CODEGEN--\":24554:24693   */\n      swap1\n      pop\n        /* \"--CODEGEN--\":24458:24703   */\n      swap2\n      swap1\n      pop\n      jump\t// out\n        /* \"--CODEGEN--\":24710:25126   */\n    tag_486:\n      0x00\n        /* \"--CODEGEN--\":24910:24912   */\n      0x20\n        /* \"--CODEGEN--\":24899:24908   */\n      dup3\n        /* \"--CODEGEN--\":24895:24913   */\n      add\n        /* \"--CODEGEN--\":24887:24913   */\n      swap1\n      pop\n        /* \"--CODEGEN--\":24960:24969   */\n      dup2\n        /* \"--CODEGEN--\":24954:24958   */\n      dup2\n        /* \"--CODEGEN--\":24950:24970   */\n      sub\n        /* \"--CODEGEN--\":24946:24947   */\n      0x00\n        /* \"--CODEGEN--\":24935:24944   */\n      dup4\n        /* \"--CODEGEN--\":24931:24948   */\n      add\n        /* \"--CODEGEN--\":24924:24971   */\n      mstore\n        /* \"--CODEGEN--\":24985:25116   */\n      tag_905\n        /* \"--CODEGEN--\":25111:25115   */\n      dup2\n        /* \"--CODEGEN--\":24985:25116   */\n      tag_814\n      jump\t// in\n    tag_905:\n        /* \"--CODEGEN--\":24977:25116   */\n      swap1\n      pop\n        /* \"--CODEGEN--\":24881:25126   */\n      swap2\n      swap1\n      pop\n      jump\t// out\n        /* \"--CODEGEN--\":25133:25549   */\n    tag_260:\n      0x00\n        /* \"--CODEGEN--\":25333:25335   */\n      0x20\n        /* \"--CODEGEN--\":25322:25331   */\n      dup3\n        /* \"--CODEGEN--\":25318:25336   */\n      add\n        /* \"--CODEGEN--\":25310:25336   */\n      swap1\n      pop\n        /* \"--CODEGEN--\":25383:25392   */\n      dup2\n        /* \"--CODEGEN--\":25377:25381   */\n      dup2\n        /* \"--CODEGEN--\":25373:25393   */\n      sub\n        /* \"--CODEGEN--\":25369:25370   */\n      0x00\n        /* \"--CODEGEN--\":25358:25367   */\n      dup4\n        /* \"--CODEGEN--\":25354:25371   */\n      add\n        /* \"--CODEGEN--\":25347:25394   */\n      mstore\n        /* \"--CODEGEN--\":25408:25539   */\n      tag_907\n        /* \"--CODEGEN--\":25534:25538   */\n      dup2\n        /* \"--CODEGEN--\":25408:25539   */\n      tag_817\n      jump\t// in\n    tag_907:\n        /* \"--CODEGEN--\":25400:25539   */\n      swap1\n      pop\n        /* \"--CODEGEN--\":25304:25549   */\n      swap2\n      swap1\n      pop\n      jump\t// out\n        /* \"--CODEGEN--\":25556:25972   */\n    tag_213:\n      0x00\n        /* \"--CODEGEN--\":25756:25758   */\n      0x20\n        /* \"--CODEGEN--\":25745:25754   */\n      dup3\n        /* \"--CODEGEN--\":25741:25759   */\n      add\n        /* \"--CODEGEN--\":25733:25759   */\n      swap1\n      pop\n        /* \"--CODEGEN--\":25806:25815   */\n      dup2\n        /* \"--CODEGEN--\":25800:25804   */\n      dup2\n        /* \"--CODEGEN--\":25796:25816   */\n      sub\n        /* \"--CODEGEN--\":25792:25793   */\n      0x00\n        /* \"--CODEGEN--\":25781:25790   */\n      dup4\n        /* \"--CODEGEN--\":25777:25794   */\n      add\n        /* \"--CODEGEN--\":25770:25817   */\n      mstore\n        /* \"--CODEGEN--\":25831:25962   */\n      tag_909\n        /* \"--CODEGEN--\":25957:25961   */\n      dup2\n        /* \"--CODEGEN--\":25831:25962   */\n      tag_820\n      jump\t// in\n    tag_909:\n        /* \"--CODEGEN--\":25823:25962   */\n      swap1\n      pop\n        /* \"--CODEGEN--\":25727:25972   */\n      swap2\n      swap1\n      pop\n      jump\t// out\n        /* \"--CODEGEN--\":25979:26395   */\n    tag_489:\n      0x00\n        /* \"--CODEGEN--\":26179:26181   */\n      0x20\n        /* \"--CODEGEN--\":26168:26177   */\n      dup3\n        /* \"--CODEGEN--\":26164:26182   */\n      add\n        /* \"--CODEGEN--\":26156:26182   */\n      swap1\n      pop\n        /* \"--CODEGEN--\":26229:26238   */\n      dup2\n        /* \"--CODEGEN--\":26223:26227   */\n      dup2\n        /* \"--CODEGEN--\":26219:26239   */\n      sub\n        /* \"--CODEGEN--\":26215:26216   */\n      0x00\n        /* \"--CODEGEN--\":26204:26213   */\n      dup4\n        /* \"--CODEGEN--\":26200:26217   */\n      add\n        /* \"--CODEGEN--\":26193:26240   */\n      mstore\n        /* \"--CODEGEN--\":26254:26385   */\n      tag_911\n        /* \"--CODEGEN--\":26380:26384   */\n      dup2\n        /* \"--CODEGEN--\":26254:26385   */\n      tag_823\n      jump\t// in\n    tag_911:\n        /* \"--CODEGEN--\":26246:26385   */\n      swap1\n      pop\n        /* \"--CODEGEN--\":26150:26395   */\n      swap2\n      swap1\n      pop\n      jump\t// out\n        /* \"--CODEGEN--\":26402:26818   */\n    tag_226:\n      0x00\n        /* \"--CODEGEN--\":26602:26604   */\n      0x20\n        /* \"--CODEGEN--\":26591:26600   */\n      dup3\n        /* \"--CODEGEN--\":26587:26605   */\n      add\n        /* \"--CODEGEN--\":26579:26605   */\n      swap1\n      pop\n        /* \"--CODEGEN--\":26652:26661   */\n      dup2\n        /* \"--CODEGEN--\":26646:26650   */\n      dup2\n        /* \"--CODEGEN--\":26642:26662   */\n      sub\n        /* \"--CODEGEN--\":26638:26639   */\n      0x00\n        /* \"--CODEGEN--\":26627:26636   */\n      dup4\n        /* \"--CODEGEN--\":26623:26640   */\n      add\n        /* \"--CODEGEN--\":26616:26663   */\n      mstore\n        /* \"--CODEGEN--\":26677:26808   */\n      tag_913\n        /* \"--CODEGEN--\":26803:26807   */\n      dup2\n        /* \"--CODEGEN--\":26677:26808   */\n      tag_826\n      jump\t// in\n    tag_913:\n        /* \"--CODEGEN--\":26669:26808   */\n      swap1\n      pop\n        /* \"--CODEGEN--\":26573:26818   */\n      swap2\n      swap1\n      pop\n      jump\t// out\n        /* \"--CODEGEN--\":26825:27241   */\n    tag_472:\n      0x00\n        /* \"--CODEGEN--\":27025:27027   */\n      0x20\n        /* \"--CODEGEN--\":27014:27023   */\n      dup3\n        /* \"--CODEGEN--\":27010:27028   */\n      add\n        /* \"--CODEGEN--\":27002:27028   */\n      swap1\n      pop\n        /* \"--CODEGEN--\":27075:27084   */\n      dup2\n        /* \"--CODEGEN--\":27069:27073   */\n      dup2\n        /* \"--CODEGEN--\":27065:27085   */\n      sub\n        /* \"--CODEGEN--\":27061:27062   */\n      0x00\n        /* \"--CODEGEN--\":27050:27059   */\n      dup4\n        /* \"--CODEGEN--\":27046:27063   */\n      add\n        /* \"--CODEGEN--\":27039:27086   */\n      mstore\n        /* \"--CODEGEN--\":27100:27231   */\n      tag_915\n        /* \"--CODEGEN--\":27226:27230   */\n      dup2\n        /* \"--CODEGEN--\":27100:27231   */\n      tag_829\n      jump\t// in\n    tag_915:\n        /* \"--CODEGEN--\":27092:27231   */\n      swap1\n      pop\n        /* \"--CODEGEN--\":26996:27241   */\n      swap2\n      swap1\n      pop\n      jump\t// out\n        /* \"--CODEGEN--\":27248:27664   */\n    tag_646:\n      0x00\n        /* \"--CODEGEN--\":27448:27450   */\n      0x20\n        /* \"--CODEGEN--\":27437:27446   */\n      dup3\n        /* \"--CODEGEN--\":27433:27451   */\n      add\n        /* \"--CODEGEN--\":27425:27451   */\n      swap1\n      pop\n        /* \"--CODEGEN--\":27498:27507   */\n      dup2\n        /* \"--CODEGEN--\":27492:27496   */\n      dup2\n        /* \"--CODEGEN--\":27488:27508   */\n      sub\n        /* \"--CODEGEN--\":27484:27485   */\n      0x00\n        /* \"--CODEGEN--\":27473:27482   */\n      dup4\n        /* \"--CODEGEN--\":27469:27486   */\n      add\n        /* \"--CODEGEN--\":27462:27509   */\n      mstore\n        /* \"--CODEGEN--\":27523:27654   */\n      tag_917\n        /* \"--CODEGEN--\":27649:27653   */\n      dup2\n        /* \"--CODEGEN--\":27523:27654   */\n      tag_832\n      jump\t// in\n    tag_917:\n        /* \"--CODEGEN--\":27515:27654   */\n      swap1\n      pop\n        /* \"--CODEGEN--\":27419:27664   */\n      swap2\n      swap1\n      pop\n      jump\t// out\n        /* \"--CODEGEN--\":27671:28087   */\n    tag_515:\n      0x00\n        /* \"--CODEGEN--\":27871:27873   */\n      0x20\n        /* \"--CODEGEN--\":27860:27869   */\n      dup3\n        /* \"--CODEGEN--\":27856:27874   */\n      add\n        /* \"--CODEGEN--\":27848:27874   */\n      swap1\n      pop\n        /* \"--CODEGEN--\":27921:27930   */\n      dup2\n        /* \"--CODEGEN--\":27915:27919   */\n      dup2\n        /* \"--CODEGEN--\":27911:27931   */\n      sub\n        /* \"--CODEGEN--\":27907:27908   */\n      0x00\n        /* \"--CODEGEN--\":27896:27905   */\n      dup4\n        /* \"--CODEGEN--\":27892:27909   */\n      add\n        /* \"--CODEGEN--\":27885:27932   */\n      mstore\n        /* \"--CODEGEN--\":27946:28077   */\n      tag_919\n        /* \"--CODEGEN--\":28072:28076   */\n      dup2\n        /* \"--CODEGEN--\":27946:28077   */\n      tag_835\n      jump\t// in\n    tag_919:\n        /* \"--CODEGEN--\":27938:28077   */\n      swap1\n      pop\n        /* \"--CODEGEN--\":27842:28087   */\n      swap2\n      swap1\n      pop\n      jump\t// out\n        /* \"--CODEGEN--\":28094:28510   */\n    tag_217:\n      0x00\n        /* \"--CODEGEN--\":28294:28296   */\n      0x20\n        /* \"--CODEGEN--\":28283:28292   */\n      dup3\n        /* \"--CODEGEN--\":28279:28297   */\n      add\n        /* \"--CODEGEN--\":28271:28297   */\n      swap1\n      pop\n        /* \"--CODEGEN--\":28344:28353   */\n      dup2\n        /* \"--CODEGEN--\":28338:28342   */\n      dup2\n        /* \"--CODEGEN--\":28334:28354   */\n      sub\n        /* \"--CODEGEN--\":28330:28331   */\n      0x00\n        /* \"--CODEGEN--\":28319:28328   */\n      dup4\n        /* \"--CODEGEN--\":28315:28332   */\n      add\n        /* \"--CODEGEN--\":28308:28355   */\n      mstore\n        /* \"--CODEGEN--\":28369:28500   */\n      tag_921\n        /* \"--CODEGEN--\":28495:28499   */\n      dup2\n        /* \"--CODEGEN--\":28369:28500   */\n      tag_838\n      jump\t// in\n    tag_921:\n        /* \"--CODEGEN--\":28361:28500   */\n      swap1\n      pop\n        /* \"--CODEGEN--\":28265:28510   */\n      swap2\n      swap1\n      pop\n      jump\t// out\n        /* \"--CODEGEN--\":28517:28933   */\n    tag_267:\n      0x00\n        /* \"--CODEGEN--\":28717:28719   */\n      0x20\n        /* \"--CODEGEN--\":28706:28715   */\n      dup3\n        /* \"--CODEGEN--\":28702:28720   */\n      add\n        /* \"--CODEGEN--\":28694:28720   */\n      swap1\n      pop\n        /* \"--CODEGEN--\":28767:28776   */\n      dup2\n        /* \"--CODEGEN--\":28761:28765   */\n      dup2\n        /* \"--CODEGEN--\":28757:28777   */\n      sub\n        /* \"--CODEGEN--\":28753:28754   */\n      0x00\n        /* \"--CODEGEN--\":28742:28751   */\n      dup4\n        /* \"--CODEGEN--\":28738:28755   */\n      add\n        /* \"--CODEGEN--\":28731:28778   */\n      mstore\n        /* \"--CODEGEN--\":28792:28923   */\n      tag_923\n        /* \"--CODEGEN--\":28918:28922   */\n      dup2\n        /* \"--CODEGEN--\":28792:28923   */\n      tag_841\n      jump\t// in\n    tag_923:\n        /* \"--CODEGEN--\":28784:28923   */\n      swap1\n      pop\n        /* \"--CODEGEN--\":28688:28933   */\n      swap2\n      swap1\n      pop\n      jump\t// out\n        /* \"--CODEGEN--\":28940:29356   */\n    tag_464:\n      0x00\n        /* \"--CODEGEN--\":29140:29142   */\n      0x20\n        /* \"--CODEGEN--\":29129:29138   */\n      dup3\n        /* \"--CODEGEN--\":29125:29143   */\n      add\n        /* \"--CODEGEN--\":29117:29143   */\n      swap1\n      pop\n        /* \"--CODEGEN--\":29190:29199   */\n      dup2\n        /* \"--CODEGEN--\":29184:29188   */\n      dup2\n        /* \"--CODEGEN--\":29180:29200   */\n      sub\n        /* \"--CODEGEN--\":29176:29177   */\n      0x00\n        /* \"--CODEGEN--\":29165:29174   */\n      dup4\n        /* \"--CODEGEN--\":29161:29178   */\n      add\n        /* \"--CODEGEN--\":29154:29201   */\n      mstore\n        /* \"--CODEGEN--\":29215:29346   */\n      tag_925\n        /* \"--CODEGEN--\":29341:29345   */\n      dup2\n        /* \"--CODEGEN--\":29215:29346   */\n      tag_844\n      jump\t// in\n    tag_925:\n        /* \"--CODEGEN--\":29207:29346   */\n      swap1\n      pop\n        /* \"--CODEGEN--\":29111:29356   */\n      swap2\n      swap1\n      pop\n      jump\t// out\n        /* \"--CODEGEN--\":29363:29686   */\n    tag_115:\n      0x00\n        /* \"--CODEGEN--\":29540:29543   */\n      0xa0\n        /* \"--CODEGEN--\":29529:29538   */\n      dup3\n        /* \"--CODEGEN--\":29525:29544   */\n      add\n        /* \"--CODEGEN--\":29517:29544   */\n      swap1\n      pop\n        /* \"--CODEGEN--\":29555:29676   */\n      tag_927\n        /* \"--CODEGEN--\":29673:29674   */\n      0x00\n        /* \"--CODEGEN--\":29662:29671   */\n      dup4\n        /* \"--CODEGEN--\":29658:29675   */\n      add\n        /* \"--CODEGEN--\":29649:29655   */\n      dup5\n        /* \"--CODEGEN--\":29555:29676   */\n      tag_847\n      jump\t// in\n    tag_927:\n        /* \"--CODEGEN--\":29511:29686   */\n      swap3\n      swap2\n      pop\n      pop\n      jump\t// out\n        /* \"--CODEGEN--\":29693:29915   */\n    tag_58:\n      0x00\n        /* \"--CODEGEN--\":29820:29822   */\n      0x20\n        /* \"--CODEGEN--\":29809:29818   */\n      dup3\n        /* \"--CODEGEN--\":29805:29823   */\n      add\n        /* \"--CODEGEN--\":29797:29823   */\n      swap1\n      pop\n        /* \"--CODEGEN--\":29834:29905   */\n      tag_929\n        /* \"--CODEGEN--\":29902:29903   */\n      0x00\n        /* \"--CODEGEN--\":29891:29900   */\n      dup4\n        /* \"--CODEGEN--\":29887:29904   */\n      add\n        /* \"--CODEGEN--\":29878:29884   */\n      dup5\n        /* \"--CODEGEN--\":29834:29905   */\n      tag_858\n      jump\t// in\n    tag_929:\n        /* \"--CODEGEN--\":29791:29915   */\n      swap3\n      swap2\n      pop\n      pop\n      jump\t// out\n        /* \"--CODEGEN--\":29922:30243   */\n    tag_500:\n      0x00\n        /* \"--CODEGEN--\":30071:30073   */\n      0x40\n        /* \"--CODEGEN--\":30060:30069   */\n      dup3\n        /* \"--CODEGEN--\":30056:30074   */\n      add\n        /* \"--CODEGEN--\":30048:30074   */\n      swap1\n      pop\n        /* \"--CODEGEN--\":30085:30156   */\n      tag_931\n        /* \"--CODEGEN--\":30153:30154   */\n      0x00\n        /* \"--CODEGEN--\":30142:30151   */\n      dup4\n        /* \"--CODEGEN--\":30138:30155   */\n      add\n        /* \"--CODEGEN--\":30129:30135   */\n      dup6\n        /* \"--CODEGEN--\":30085:30156   */\n      tag_858\n      jump\t// in\n    tag_931:\n        /* \"--CODEGEN--\":30167:30233   */\n      tag_932\n        /* \"--CODEGEN--\":30229:30231   */\n      0x20\n        /* \"--CODEGEN--\":30218:30227   */\n      dup4\n        /* \"--CODEGEN--\":30214:30232   */\n      add\n        /* \"--CODEGEN--\":30205:30211   */\n      dup5\n        /* \"--CODEGEN--\":30167:30233   */\n      tag_749\n      jump\t// in\n    tag_932:\n        /* \"--CODEGEN--\":30042:30243   */\n      swap4\n      swap3\n      pop\n      pop\n      pop\n      jump\t// out\n        /* \"--CODEGEN--\":30250:30599   */\n    tag_361:\n      0x00\n        /* \"--CODEGEN--\":30413:30415   */\n      0x40\n        /* \"--CODEGEN--\":30402:30411   */\n      dup3\n        /* \"--CODEGEN--\":30398:30416   */\n      add\n        /* \"--CODEGEN--\":30390:30416   */\n      swap1\n      pop\n        /* \"--CODEGEN--\":30427:30498   */\n      tag_934\n        /* \"--CODEGEN--\":30495:30496   */\n      0x00\n        /* \"--CODEGEN--\":30484:30493   */\n      dup4\n        /* \"--CODEGEN--\":30480:30497   */\n      add\n        /* \"--CODEGEN--\":30471:30477   */\n      dup6\n        /* \"--CODEGEN--\":30427:30498   */\n      tag_858\n      jump\t// in\n    tag_934:\n        /* \"--CODEGEN--\":30509:30589   */\n      tag_935\n        /* \"--CODEGEN--\":30585:30587   */\n      0x20\n        /* \"--CODEGEN--\":30574:30583   */\n      dup4\n        /* \"--CODEGEN--\":30570:30588   */\n      add\n        /* \"--CODEGEN--\":30561:30567   */\n      dup5\n        /* \"--CODEGEN--\":30509:30589   */\n      tag_768\n      jump\t// in\n    tag_935:\n        /* \"--CODEGEN--\":30384:30599   */\n      swap4\n      swap3\n      pop\n      pop\n      pop\n      jump\t// out\n        /* \"--CODEGEN--\":30606:30939   */\n    tag_319:\n      0x00\n        /* \"--CODEGEN--\":30761:30763   */\n      0x40\n        /* \"--CODEGEN--\":30750:30759   */\n      dup3\n        /* \"--CODEGEN--\":30746:30764   */\n      add\n        /* \"--CODEGEN--\":30738:30764   */\n      swap1\n      pop\n        /* \"--CODEGEN--\":30775:30846   */\n      tag_937\n        /* \"--CODEGEN--\":30843:30844   */\n      0x00\n        /* \"--CODEGEN--\":30832:30841   */\n      dup4\n        /* \"--CODEGEN--\":30828:30845   */\n      add\n        /* \"--CODEGEN--\":30819:30825   */\n      dup6\n        /* \"--CODEGEN--\":30775:30846   */\n      tag_858\n      jump\t// in\n    tag_937:\n        /* \"--CODEGEN--\":30857:30929   */\n      tag_938\n        /* \"--CODEGEN--\":30925:30927   */\n      0x20\n        /* \"--CODEGEN--\":30914:30923   */\n      dup4\n        /* \"--CODEGEN--\":30910:30928   */\n      add\n        /* \"--CODEGEN--\":30901:30907   */\n      dup5\n        /* \"--CODEGEN--\":30857:30929   */\n      tag_858\n      jump\t// in\n    tag_938:\n        /* \"--CODEGEN--\":30732:30939   */\n      swap4\n      swap3\n      pop\n      pop\n      pop\n      jump\t// out\n        /* \"--CODEGEN--\":30946:31390   */\n    tag_157:\n      0x00\n        /* \"--CODEGEN--\":31129:31131   */\n      0x60\n        /* \"--CODEGEN--\":31118:31127   */\n      dup3\n        /* \"--CODEGEN--\":31114:31132   */\n      add\n        /* \"--CODEGEN--\":31106:31132   */\n      swap1\n      pop\n        /* \"--CODEGEN--\":31143:31214   */\n      tag_940\n        /* \"--CODEGEN--\":31211:31212   */\n      0x00\n        /* \"--CODEGEN--\":31200:31209   */\n      dup4\n        /* \"--CODEGEN--\":31196:31213   */\n      add\n        /* \"--CODEGEN--\":31187:31193   */\n      dup7\n        /* \"--CODEGEN--\":31143:31214   */\n      tag_858\n      jump\t// in\n    tag_940:\n        /* \"--CODEGEN--\":31225:31297   */\n      tag_941\n        /* \"--CODEGEN--\":31293:31295   */\n      0x20\n        /* \"--CODEGEN--\":31282:31291   */\n      dup4\n        /* \"--CODEGEN--\":31278:31296   */\n      add\n        /* \"--CODEGEN--\":31269:31275   */\n      dup6\n        /* \"--CODEGEN--\":31225:31297   */\n      tag_858\n      jump\t// in\n    tag_941:\n        /* \"--CODEGEN--\":31308:31380   */\n      tag_942\n        /* \"--CODEGEN--\":31376:31378   */\n      0x40\n        /* \"--CODEGEN--\":31365:31374   */\n      dup4\n        /* \"--CODEGEN--\":31361:31379   */\n      add\n        /* \"--CODEGEN--\":31352:31358   */\n      dup5\n        /* \"--CODEGEN--\":31308:31380   */\n      tag_858\n      jump\t// in\n    tag_942:\n        /* \"--CODEGEN--\":31100:31390   */\n      swap5\n      swap4\n      pop\n      pop\n      pop\n      pop\n      jump\t// out\n        /* \"--CODEGEN--\":31397:32053   */\n    tag_80:\n      0x00\n        /* \"--CODEGEN--\":31630:31633   */\n      0xa0\n        /* \"--CODEGEN--\":31619:31628   */\n      dup3\n        /* \"--CODEGEN--\":31615:31634   */\n      add\n        /* \"--CODEGEN--\":31607:31634   */\n      swap1\n      pop\n        /* \"--CODEGEN--\":31645:31716   */\n      tag_944\n        /* \"--CODEGEN--\":31713:31714   */\n      0x00\n        /* \"--CODEGEN--\":31702:31711   */\n      dup4\n        /* \"--CODEGEN--\":31698:31715   */\n      add\n        /* \"--CODEGEN--\":31689:31695   */\n      dup9\n        /* \"--CODEGEN--\":31645:31716   */\n      tag_858\n      jump\t// in\n    tag_944:\n        /* \"--CODEGEN--\":31727:31799   */\n      tag_945\n        /* \"--CODEGEN--\":31795:31797   */\n      0x20\n        /* \"--CODEGEN--\":31784:31793   */\n      dup4\n        /* \"--CODEGEN--\":31780:31798   */\n      add\n        /* \"--CODEGEN--\":31771:31777   */\n      dup8\n        /* \"--CODEGEN--\":31727:31799   */\n      tag_858\n      jump\t// in\n    tag_945:\n        /* \"--CODEGEN--\":31810:31882   */\n      tag_946\n        /* \"--CODEGEN--\":31878:31880   */\n      0x40\n        /* \"--CODEGEN--\":31867:31876   */\n      dup4\n        /* \"--CODEGEN--\":31863:31881   */\n      add\n        /* \"--CODEGEN--\":31854:31860   */\n      dup7\n        /* \"--CODEGEN--\":31810:31882   */\n      tag_858\n      jump\t// in\n    tag_946:\n        /* \"--CODEGEN--\":31893:31965   */\n      tag_947\n        /* \"--CODEGEN--\":31961:31963   */\n      0x60\n        /* \"--CODEGEN--\":31950:31959   */\n      dup4\n        /* \"--CODEGEN--\":31946:31964   */\n      add\n        /* \"--CODEGEN--\":31937:31943   */\n      dup6\n        /* \"--CODEGEN--\":31893:31965   */\n      tag_858\n      jump\t// in\n    tag_947:\n        /* \"--CODEGEN--\":31976:32043   */\n      tag_948\n        /* \"--CODEGEN--\":32038:32041   */\n      0x80\n        /* \"--CODEGEN--\":32027:32036   */\n      dup4\n        /* \"--CODEGEN--\":32023:32042   */\n      add\n        /* \"--CODEGEN--\":32014:32020   */\n      dup5\n        /* \"--CODEGEN--\":31976:32043   */\n      tag_749\n      jump\t// in\n    tag_948:\n        /* \"--CODEGEN--\":31601:32053   */\n      swap7\n      swap6\n      pop\n      pop\n      pop\n      pop\n      pop\n      pop\n      jump\t// out\n        /* \"--CODEGEN--\":32060:32181   */\n    tag_755:\n      0x00\n        /* \"--CODEGEN--\":32153:32158   */\n      dup2\n        /* \"--CODEGEN--\":32147:32159   */\n      mload\n        /* \"--CODEGEN--\":32137:32159   */\n      swap1\n      pop\n        /* \"--CODEGEN--\":32118:32181   */\n      swap2\n      swap1\n      pop\n      jump\t// out\n        /* \"--CODEGEN--\":32188:32310   */\n    tag_775:\n      0x00\n        /* \"--CODEGEN--\":32282:32287   */\n      dup2\n        /* \"--CODEGEN--\":32276:32288   */\n      mload\n        /* \"--CODEGEN--\":32266:32288   */\n      swap1\n      pop\n        /* \"--CODEGEN--\":32247:32310   */\n      swap2\n      swap1\n      pop\n      jump\t// out\n        /* \"--CODEGEN--\":32318:32462   */\n    tag_757:\n      0x00\n        /* \"--CODEGEN--\":32453:32456   */\n      dup2\n        /* \"--CODEGEN--\":32438:32456   */\n      swap1\n      pop\n        /* \"--CODEGEN--\":32431:32462   */\n      swap3\n      swap2\n      pop\n      pop\n      jump\t// out\n        /* \"--CODEGEN--\":32471:32634   */\n    tag_777:\n      0x00\n        /* \"--CODEGEN--\":32586:32592   */\n      dup3\n        /* \"--CODEGEN--\":32581:32584   */\n      dup3\n        /* \"--CODEGEN--\":32574:32593   */\n      mstore\n        /* \"--CODEGEN--\":32623:32627   */\n      0x20\n        /* \"--CODEGEN--\":32618:32621   */\n      dup3\n        /* \"--CODEGEN--\":32614:32628   */\n      add\n        /* \"--CODEGEN--\":32599:32628   */\n      swap1\n      pop\n        /* \"--CODEGEN--\":32567:32634   */\n      swap3\n      swap2\n      pop\n      pop\n      jump\t// out\n        /* \"--CODEGEN--\":32642:32733   */\n    tag_744:\n      0x00\n        /* \"--CODEGEN--\":32704:32728   */\n      tag_954\n        /* \"--CODEGEN--\":32722:32727   */\n      dup3\n        /* \"--CODEGEN--\":32704:32728   */\n      tag_955\n      jump\t// in\n    tag_954:\n        /* \"--CODEGEN--\":32693:32728   */\n      swap1\n      pop\n        /* \"--CODEGEN--\":32687:32733   */\n      swap2\n      swap1\n      pop\n      jump\t// out\n        /* \"--CODEGEN--\":32740:32825   */\n    tag_748:\n      0x00\n        /* \"--CODEGEN--\":32813:32818   */\n      dup2\n        /* \"--CODEGEN--\":32806:32819   */\n      iszero\n        /* \"--CODEGEN--\":32799:32820   */\n      iszero\n        /* \"--CODEGEN--\":32788:32820   */\n      swap1\n      pop\n        /* \"--CODEGEN--\":32782:32825   */\n      swap2\n      swap1\n      pop\n      jump\t// out\n        /* \"--CODEGEN--\":32832:32938   */\n    tag_957:\n      0x00\n        /* \"--CODEGEN--\":32909:32933   */\n      tag_959\n        /* \"--CODEGEN--\":32927:32932   */\n      dup3\n        /* \"--CODEGEN--\":32909:32933   */\n      tag_744\n      jump\t// in\n    tag_959:\n        /* \"--CODEGEN--\":32898:32933   */\n      swap1\n      pop\n        /* \"--CODEGEN--\":32892:32938   */\n      swap2\n      swap1\n      pop\n      jump\t// out\n        /* \"--CODEGEN--\":32945:33066   */\n    tag_955:\n      0x00\n        /* \"--CODEGEN--\":33018:33060   */\n      0xffffffffffffffffffffffffffffffffffffffff\n        /* \"--CODEGEN--\":33011:33016   */\n      dup3\n        /* \"--CODEGEN--\":33007:33061   */\n      and\n        /* \"--CODEGEN--\":32996:33061   */\n      swap1\n      pop\n        /* \"--CODEGEN--\":32990:33066   */\n      swap2\n      swap1\n      pop\n      jump\t// out\n        /* \"--CODEGEN--\":33073:33145   */\n    tag_857:\n      0x00\n        /* \"--CODEGEN--\":33135:33140   */\n      dup2\n        /* \"--CODEGEN--\":33124:33140   */\n      swap1\n      pop\n        /* \"--CODEGEN--\":33118:33145   */\n      swap2\n      swap1\n      pop\n      jump\t// out\n        /* \"--CODEGEN--\":33152:33281   */\n    tag_740:\n      0x00\n        /* \"--CODEGEN--\":33239:33276   */\n      tag_963\n        /* \"--CODEGEN--\":33270:33275   */\n      dup3\n        /* \"--CODEGEN--\":33239:33276   */\n      tag_964\n      jump\t// in\n    tag_963:\n        /* \"--CODEGEN--\":33226:33276   */\n      swap1\n      pop\n        /* \"--CODEGEN--\":33220:33281   */\n      swap2\n      swap1\n      pop\n      jump\t// out\n        /* \"--CODEGEN--\":33288:33439   */\n    tag_763:\n      0x00\n        /* \"--CODEGEN--\":33382:33434   */\n      tag_966\n        /* \"--CODEGEN--\":33428:33433   */\n      dup3\n        /* \"--CODEGEN--\":33382:33434   */\n      tag_967\n      jump\t// in\n    tag_966:\n        /* \"--CODEGEN--\":33369:33434   */\n      swap1\n      pop\n        /* \"--CODEGEN--\":33363:33439   */\n      swap2\n      swap1\n      pop\n      jump\t// out\n        /* \"--CODEGEN--\":33446:33569   */\n    tag_967:\n      0x00\n        /* \"--CODEGEN--\":33540:33564   */\n      tag_969\n        /* \"--CODEGEN--\":33558:33563   */\n      dup3\n        /* \"--CODEGEN--\":33540:33564   */\n      tag_955\n      jump\t// in\n    tag_969:\n        /* \"--CODEGEN--\":33527:33564   */\n      swap1\n      pop\n        /* \"--CODEGEN--\":33521:33569   */\n      swap2\n      swap1\n      pop\n      jump\t// out\n        /* \"--CODEGEN--\":33576:33737   */\n    tag_767:\n      0x00\n        /* \"--CODEGEN--\":33675:33732   */\n      tag_971\n        /* \"--CODEGEN--\":33726:33731   */\n      dup3\n        /* \"--CODEGEN--\":33675:33732   */\n      tag_972\n      jump\t// in\n    tag_971:\n        /* \"--CODEGEN--\":33662:33732   */\n      swap1\n      pop\n        /* \"--CODEGEN--\":33656:33737   */\n      swap2\n      swap1\n      pop\n      jump\t// out\n        /* \"--CODEGEN--\":33744:33872   */\n    tag_972:\n      0x00\n        /* \"--CODEGEN--\":33843:33867   */\n      tag_974\n        /* \"--CODEGEN--\":33861:33866   */\n      dup3\n        /* \"--CODEGEN--\":33843:33867   */\n      tag_955\n      jump\t// in\n    tag_974:\n        /* \"--CODEGEN--\":33830:33867   */\n      swap1\n      pop\n        /* \"--CODEGEN--\":33824:33872   */\n      swap2\n      swap1\n      pop\n      jump\t// out\n        /* \"--CODEGEN--\":33879:33995   */\n    tag_771:\n      0x00\n        /* \"--CODEGEN--\":33966:33990   */\n      tag_976\n        /* \"--CODEGEN--\":33984:33989   */\n      dup3\n        /* \"--CODEGEN--\":33966:33990   */\n      tag_857\n      jump\t// in\n    tag_976:\n        /* \"--CODEGEN--\":33953:33990   */\n      swap1\n      pop\n        /* \"--CODEGEN--\":33947:33995   */\n      swap2\n      swap1\n      pop\n      jump\t// out\n        /* \"--CODEGEN--\":34002:34123   */\n    tag_964:\n      0x00\n        /* \"--CODEGEN--\":34081:34118   */\n      tag_978\n        /* \"--CODEGEN--\":34112:34117   */\n      dup3\n        /* \"--CODEGEN--\":34081:34118   */\n      tag_979\n      jump\t// in\n    tag_978:\n        /* \"--CODEGEN--\":34068:34118   */\n      swap1\n      pop\n        /* \"--CODEGEN--\":34062:34123   */\n      swap2\n      swap1\n      pop\n      jump\t// out\n        /* \"--CODEGEN--\":34130:34238   */\n    tag_979:\n      0x00\n        /* \"--CODEGEN--\":34209:34233   */\n      tag_981\n        /* \"--CODEGEN--\":34227:34232   */\n      dup3\n        /* \"--CODEGEN--\":34209:34233   */\n      tag_955\n      jump\t// in\n    tag_981:\n        /* \"--CODEGEN--\":34196:34233   */\n      swap1\n      pop\n        /* \"--CODEGEN--\":34190:34238   */\n      swap2\n      swap1\n      pop\n      jump\t// out\n        /* \"--CODEGEN--\":34246:34514   */\n    tag_759:\n        /* \"--CODEGEN--\":34311:34312   */\n      0x00\n        /* \"--CODEGEN--\":34318:34419   */\n    tag_983:\n        /* \"--CODEGEN--\":34332:34338   */\n      dup4\n        /* \"--CODEGEN--\":34329:34330   */\n      dup2\n        /* \"--CODEGEN--\":34326:34339   */\n      lt\n        /* \"--CODEGEN--\":34318:34419   */\n      iszero\n      tag_985\n      jumpi\n        /* \"--CODEGEN--\":34408:34409   */\n      dup1\n        /* \"--CODEGEN--\":34403:34406   */\n      dup3\n        /* \"--CODEGEN--\":34399:34410   */\n      add\n        /* \"--CODEGEN--\":34393:34411   */\n      mload\n        /* \"--CODEGEN--\":34389:34390   */\n      dup2\n        /* \"--CODEGEN--\":34384:34387   */\n      dup5\n        /* \"--CODEGEN--\":34380:34391   */\n      add\n        /* \"--CODEGEN--\":34373:34412   */\n      mstore\n        /* \"--CODEGEN--\":34354:34356   */\n      0x20\n        /* \"--CODEGEN--\":34351:34352   */\n      dup2\n        /* \"--CODEGEN--\":34347:34357   */\n      add\n        /* \"--CODEGEN--\":34342:34357   */\n      swap1\n      pop\n        /* \"--CODEGEN--\":34318:34419   */\n      jump(tag_983)\n    tag_985:\n        /* \"--CODEGEN--\":34434:34440   */\n      dup4\n        /* \"--CODEGEN--\":34431:34432   */\n      dup2\n        /* \"--CODEGEN--\":34428:34441   */\n      gt\n        /* \"--CODEGEN--\":34425:34427   */\n      iszero\n      tag_986\n      jumpi\n        /* \"--CODEGEN--\":34499:34500   */\n      0x00\n        /* \"--CODEGEN--\":34490:34496   */\n      dup5\n        /* \"--CODEGEN--\":34485:34488   */\n      dup5\n        /* \"--CODEGEN--\":34481:34497   */\n      add\n        /* \"--CODEGEN--\":34474:34501   */\n      mstore\n        /* \"--CODEGEN--\":34425:34427   */\n    tag_986:\n        /* \"--CODEGEN--\":34295:34514   */\n      pop\n      pop\n      pop\n      pop\n      jump\t// out\n        /* \"--CODEGEN--\":34522:34619   */\n    tag_780:\n      0x00\n        /* \"--CODEGEN--\":34610:34612   */\n      0x1f\n        /* \"--CODEGEN--\":34606:34613   */\n      not\n        /* \"--CODEGEN--\":34601:34603   */\n      0x1f\n        /* \"--CODEGEN--\":34594:34599   */\n      dup4\n        /* \"--CODEGEN--\":34590:34604   */\n      add\n        /* \"--CODEGEN--\":34586:34614   */\n      and\n        /* \"--CODEGEN--\":34576:34614   */\n      swap1\n      pop\n        /* \"--CODEGEN--\":34570:34619   */\n      swap2\n      swap1\n      pop\n      jump\t// out\n        /* \"--CODEGEN--\":34627:34744   */\n    tag_662:\n        /* \"--CODEGEN--\":34696:34720   */\n      tag_989\n        /* \"--CODEGEN--\":34714:34719   */\n      dup2\n        /* \"--CODEGEN--\":34696:34720   */\n      tag_744\n      jump\t// in\n    tag_989:\n        /* \"--CODEGEN--\":34689:34694   */\n      dup2\n        /* \"--CODEGEN--\":34686:34721   */\n      eq\n        /* \"--CODEGEN--\":34676:34678   */\n      tag_990\n      jumpi\n        /* \"--CODEGEN--\":34735:34736   */\n      0x00\n        /* \"--CODEGEN--\":34732:34733   */\n      dup1\n        /* \"--CODEGEN--\":34725:34737   */\n      revert\n        /* \"--CODEGEN--\":34676:34678   */\n    tag_990:\n        /* \"--CODEGEN--\":34670:34744   */\n      pop\n      jump\t// out\n        /* \"--CODEGEN--\":34751:34862   */\n    tag_666:\n        /* \"--CODEGEN--\":34817:34838   */\n      tag_992\n        /* \"--CODEGEN--\":34832:34837   */\n      dup2\n        /* \"--CODEGEN--\":34817:34838   */\n      tag_748\n      jump\t// in\n    tag_992:\n        /* \"--CODEGEN--\":34810:34815   */\n      dup2\n        /* \"--CODEGEN--\":34807:34839   */\n      eq\n        /* \"--CODEGEN--\":34797:34799   */\n      tag_993\n      jumpi\n        /* \"--CODEGEN--\":34853:34854   */\n      0x00\n        /* \"--CODEGEN--\":34850:34851   */\n      dup1\n        /* \"--CODEGEN--\":34843:34855   */\n      revert\n        /* \"--CODEGEN--\":34797:34799   */\n    tag_993:\n        /* \"--CODEGEN--\":34791:34862   */\n      pop\n      jump\t// out\n        /* \"--CODEGEN--\":34869:35016   */\n    tag_673:\n        /* \"--CODEGEN--\":34953:34992   */\n      tag_995\n        /* \"--CODEGEN--\":34986:34991   */\n      dup2\n        /* \"--CODEGEN--\":34953:34992   */\n      tag_957\n      jump\t// in\n    tag_995:\n        /* \"--CODEGEN--\":34946:34951   */\n      dup2\n        /* \"--CODEGEN--\":34943:34993   */\n      eq\n        /* \"--CODEGEN--\":34933:34935   */\n      tag_996\n      jumpi\n        /* \"--CODEGEN--\":35007:35008   */\n      0x00\n        /* \"--CODEGEN--\":35004:35005   */\n      dup1\n        /* \"--CODEGEN--\":34997:35009   */\n      revert\n        /* \"--CODEGEN--\":34933:34935   */\n    tag_996:\n        /* \"--CODEGEN--\":34927:35016   */\n      pop\n      jump\t// out\n        /* \"--CODEGEN--\":35023:35140   */\n    tag_677:\n        /* \"--CODEGEN--\":35092:35116   */\n      tag_998\n        /* \"--CODEGEN--\":35110:35115   */\n      dup2\n        /* \"--CODEGEN--\":35092:35116   */\n      tag_857\n      jump\t// in\n    tag_998:\n        /* \"--CODEGEN--\":35085:35090   */\n      dup2\n        /* \"--CODEGEN--\":35082:35117   */\n      eq\n        /* \"--CODEGEN--\":35072:35074   */\n      tag_999\n      jumpi\n        /* \"--CODEGEN--\":35131:35132   */\n      0x00\n        /* \"--CODEGEN--\":35128:35129   */\n      dup1\n        /* \"--CODEGEN--\":35121:35133   */\n      revert\n        /* \"--CODEGEN--\":35072:35074   */\n    tag_999:\n        /* \"--CODEGEN--\":35066:35140   */\n      pop\n      jump\t// out\n\n    auxdata: 0xa2646970667358221220743ace61d3a62ce2cfff9fa955388da5348138b71bdd0451ad7ab1c3f903ac0d64736f6c634300060c0033\n}\n",
				"bytecode": {
					"linkReferences": {},
					"object": "60e06040526495e27d7580600a55640ea1fc81ce600b556444502b18b2600c553480156200002c57600080fd5b50604051620054ec380380620054ec83398181016040528101906200005291906200022e565b600062000064620001ca60201b60201c565b9050806000806101000a81548173ffffffffffffffffffffffffffffffffffffffff021916908373ffffffffffffffffffffffffffffffffffffffff1602179055508073ffffffffffffffffffffffffffffffffffffffff16600073ffffffffffffffffffffffffffffffffffffffff167f8be0079c531659141344cd1fd0a4f28419497f9722a3daafe3b4186f6b6457e060405160405180910390a350600180819055508373ffffffffffffffffffffffffffffffffffffffff1660808173ffffffffffffffffffffffffffffffffffffffff1660601b815250508273ffffffffffffffffffffffffffffffffffffffff1660a08173ffffffffffffffffffffffffffffffffffffffff1660601b815250508160c0818152505080600260006101000a81548173ffffffffffffffffffffffffffffffffffffffff021916908373ffffffffffffffffffffffffffffffffffffffff1602179055505050505062000368565b600033905090565b600081519050620001e38162000300565b92915050565b600081519050620001fa816200031a565b92915050565b600081519050620002118162000334565b92915050565b60008151905062000228816200034e565b92915050565b600080600080608085870312156200024557600080fd5b6000620002558782880162000200565b94505060206200026887828801620001e9565b93505060406200027b8782880162000217565b92505060606200028e87828801620001d2565b91505092959194509250565b6000620002a782620002d6565b9050919050565b6000620002bb826200029a565b9050919050565b6000620002cf826200029a565b9050919050565b600073ffffffffffffffffffffffffffffffffffffffff82169050919050565b6000819050919050565b6200030b816200029a565b81146200031757600080fd5b50565b6200032581620002ae565b81146200033157600080fd5b50565b6200033f81620002c2565b81146200034b57600080fd5b50565b6200035981620002f6565b81146200036557600080fd5b50565b60805160601c60a05160601c60c051615124620003c86000398061147c52806119175280611db95250806118b752806128ee52806137e752806138a1528061395d5250806113ae528061144052806118db528061325552506151246000f3fe608060405234801561001057600080fd5b50600436106102695760003560e01c80637398b7ea11610151578063ac1d0609116100c3578063dfcedeee11610087578063dfcedeee14610708578063e0f91f6c14610726578063e2bbb15814610744578063e39e132314610760578063edd8b1701461077e578063f2fde38b1461079c57610269565b8063ac1d060914610678578063c40d337b14610694578063c507aeaa146106b2578063cc6db2da146106ce578063dc6363df146106ec57610269565b80638da5cb5b116101155780638da5cb5b146105b257806393f1a40b146105d057806399d7e84a146106025780639dcc1b5f146106205780639dd2fcc31461063e578063aa47bc8e1461065a57610269565b80637398b7ea1461050c578063777a97f81461052a57806378db4c341461054657806378ed5d1f1461056457806381bdf98c1461059457610269565b806339aae5ba116101ea5780635312ea8e116101ae5780635312ea8e1461048457806361621aaa146104a0578063630b5ba1146104be57806364482f79146104c857806369b02128146104e4578063715018a61461050257610269565b806339aae5ba146103f2578063441a3e70146104105780634ca6ef281461042c5780634f70b15a1461044a57806351eb05a61461045457610269565b80631526fe27116102315780631526fe271461032457806319ab453c146103585780631ce06d57146103745780631e9b828b14610392578063372c12b1146103c257610269565b8063033186e81461026e578063041a84c91461029e578063081e3eda146102ba5780630bb844bc146102d85780631175a1dd146102f4575b600080fd5b61028860048036038101906102839190613dad565b6107b8565b6040516102959190614e12565b60405180910390f35b6102b860048036038101906102b39190613de9565b610833565b005b6102c2610cd8565b6040516102cf9190614e12565b60405180910390f35b6102f260048036038101906102ed9190613d48565b610ce5565b005b61030e60048036038101906103099190613f05565b610f41565b60405161031b9190614e12565b60405180910390f35b61033e60048036038101906103399190613eb3565b6111ad565b60405161034f959493929190614edf565b60405180910390f35b610372600480360381019061036d9190613e8a565b6111fd565b005b61037c611522565b6040516103899190614e12565b60405180910390f35b6103ac60048036038101906103a79190613e38565b611528565b6040516103b99190614e12565b60405180910390f35b6103dc60048036038101906103d79190613d48565b6115a9565b6040516103e99190614ac4565b60405180910390f35b6103fa6115c9565b6040516104079190614e12565b60405180910390f35b61042a60048036038101906104259190613fa4565b6115d6565b005b6104346118b5565b6040516104419190614adf565b60405180910390f35b6104526118d9565b005b61046e60048036038101906104699190613eb3565b611989565b60405161047b9190614df7565b60405180910390f35b61049e60048036038101906104999190613eb3565b611bb1565b005b6104a8611db7565b6040516104b59190614e12565b60405180910390f35b6104c6611ddb565b005b6104e260048036038101906104dd9190613fe0565b611e8a565b005b6104ec612065565b6040516104f99190614e12565b60405180910390f35b61050a61206f565b005b6105146121c2565b6040516105219190614e12565b60405180910390f35b610544600480360381019061053f9190613e38565b6121ce565b005b61054e6122e1565b60405161055b9190614e12565b60405180910390f35b61057e60048036038101906105799190613eb3565b6122e7565b60405161058b9190614adf565b60405180910390f35b61059c612323565b6040516105a99190614a2e565b60405180910390f35b6105ba612349565b6040516105c79190614a2e565b60405180910390f35b6105ea60048036038101906105e59190613f05565b612372565b6040516105f993929190614ea8565b60405180910390f35b61060a6123a9565b6040516106179190614e12565b60405180910390f35b6106286123af565b6040516106359190614e12565b60405180910390f35b61065860048036038101906106539190613d48565b6123eb565b005b6106626125d1565b60405161066f9190614e12565b60405180910390f35b610692600480360381019061068d9190613d71565b6125d7565b005b61069c612785565b6040516106a99190614e12565b60405180910390f35b6106cc60048036038101906106c79190613f41565b61278b565b005b6106d6612b3e565b6040516106e39190614e12565b60405180910390f35b6107066004803603810190610701919061402f565b612b47565b005b610710612d11565b60405161071d9190614a2e565b60405180910390f35b61072e612d37565b60405161073b9190614e12565b60405180910390f35b61075e60048036038101906107599190613fa4565b612d3d565b005b61076861324a565b6040516107759190614e12565b60405180910390f35b610786613253565b6040516107939190614afa565b60405180910390f35b6107b660048036038101906107b19190613d48565b613277565b005b6000806006600084815260200190815260200160002060008573ffffffffffffffffffffffffffffffffffffffff1673ffffffffffffffffffffffffffffffffffffffff16815260200190815260200160002060020154905064e8d4a5100081116108285764e8d4a5100061082a565b805b91505092915050565b3373ffffffffffffffffffffffffffffffffffffffff16600360009054906101000a900473ffffffffffffffffffffffffffffffffffffffff1673ffffffffffffffffffffffffffffffffffffffff16146108c3576040517f08c379a00000000000000000000000000000000000000000000000000000000081526004016108ba90614cd7565b60405180910390fd5b60026001541415610909576040517f08c379a000000000000000000000000000000000000000000000000000000000815260040161090090614d97565b60405180910390fd5b6002600181905550600073ffffffffffffffffffffffffffffffffffffffff168373ffffffffffffffffffffffffffffffffffffffff161415610981576040517f08c379a000000000000000000000000000000000000000000000000000000000815260040161097890614bd7565b60405180910390fd5b6004828154811061098e57fe5b906000526020600020906005020160040160009054906101000a900460ff166109ec576040517f08c379a00000000000000000000000000000000000000000000000000000000081526004016109e390614d17565b60405180910390fd5b64e8d4a510008110158015610a0757506501d1a94a20008111155b610a46576040517f08c379a0000000000000000000000000000000000000000000000000000000008152600401610a3d90614b57565b60405180910390fd5b610a4e613c78565b610a5783611989565b905060006006600085815260200190815260200160002060008673ffffffffffffffffffffffffffffffffffffffff1673ffffffffffffffffffffffffffffffffffffffff16815260200190815260200160002090506000610ab986866107b8565b9050610ac6868683613439565b610b24670de0b6b3a7640000610b168560000151610b0864e8d4a51000610afa8a896000015461356b90919063ffffffff16565b6135db90919063ffffffff16565b61356b90919063ffffffff16565b6135db90919063ffffffff16565b8260010181905550610baf610b5d64e8d4a51000610b4f87866000015461356b90919063ffffffff16565b6135db90919063ffffffff16565b610ba1610b8e64e8d4a51000610b8086886000015461356b90919063ffffffff16565b6135db90919063ffffffff16565b866060015161362590919063ffffffff16565b61366f90919063ffffffff16565b8360600181815250508260048681548110610bc657fe5b90600052602060002090600502016000820151816000015560208201518160010155604082015181600201556060820151816003015560808201518160040160006101000a81548160ff021916908315150217905550905050836006600087815260200190815260200160002060008873ffffffffffffffffffffffffffffffffffffffff1673ffffffffffffffffffffffffffffffffffffffff168152602001908152602001600020600201819055508573ffffffffffffffffffffffffffffffffffffffff167f01abd62439b64f6c5dab6f94d56099495bd0c094f9c21f98f4d3562a21edb4ba868387604051610cc193929190614ea8565b60405180910390a250505060018081905550505050565b6000600480549050905090565b610ced6136c4565b73ffffffffffffffffffffffffffffffffffffffff1660008054906101000a900473ffffffffffffffffffffffffffffffffffffffff1673ffffffffffffffffffffffffffffffffffffffff1614610d7a576040517f08c379a0000000000000000000000000000000000000000000000000000000008152600401610d7190614cb7565b60405180910390fd5b600073ffffffffffffffffffffffffffffffffffffffff168173ffffffffffffffffffffffffffffffffffffffff161415610dea576040517f08c379a0000000000000000000000000000000000000000000000000000000008152600401610de190614bf7565b60405180910390fd5b600260009054906101000a900473ffffffffffffffffffffffffffffffffffffffff1673ffffffffffffffffffffffffffffffffffffffff168173ffffffffffffffffffffffffffffffffffffffff161415610e7b576040517f08c379a0000000000000000000000000000000000000000000000000000000008152600401610e7290614db7565b60405180910390fd5b6000600260009054906101000a900473ffffffffffffffffffffffffffffffffffffffff16905081600260006101000a81548173ffffffffffffffffffffffffffffffffffffffff021916908373ffffffffffffffffffffffffffffffffffffffff1602179055508173ffffffffffffffffffffffffffffffffffffffff168173ffffffffffffffffffffffffffffffffffffffff167fd146fe330fdddf682413850a35b28edfccd4c4b53cfee802fd24950de5be1dbe60405160405180910390a35050565b6000610f4b613c78565b60048481548110610f5857fe5b90600052602060002090600502016040518060a0016040529081600082015481526020016001820154815260200160028201548152602001600382015481526020016004820160009054906101000a900460ff1615151515815250509050610fbe613ca9565b6006600086815260200190815260200160002060008573ffffffffffffffffffffffffffffffffffffffff1673ffffffffffffffffffffffffffffffffffffffff1681526020019081526020016000206040518060600160405290816000820154815260200160018201548152602001600282015481525050905060008260000151905060008360600151905083602001514311801561105f575060008114155b1561112257600061107d85602001514361362590919063ffffffff16565b905060006110dc866080015161109557600954611099565b6008545b6110ce88604001516110c06110b18b60800151611528565b8761356b90919063ffffffff16565b61356b90919063ffffffff16565b6135db90919063ffffffff16565b905061111d61110e84611100670de0b6b3a76400008561356b90919063ffffffff16565b6135db90919063ffffffff16565b8561366f90919063ffffffff16565b935050505b600061115b64e8d4a5100061114d61113a8a8c6107b8565b876000015161356b90919063ffffffff16565b6135db90919063ffffffff16565b90506111a08460200151611192670de0b6b3a7640000611184878661356b90919063ffffffff16565b6135db90919063ffffffff16565b61362590919063ffffffff16565b9550505050505092915050565b600481815481106111ba57fe5b90600052602060002090600502016000915090508060000154908060010154908060020154908060030154908060040160009054906101000a900460ff16905085565b6112056136c4565b73ffffffffffffffffffffffffffffffffffffffff1660008054906101000a900473ffffffffffffffffffffffffffffffffffffffff1673ffffffffffffffffffffffffffffffffffffffff1614611292576040517f08c379a000000000000000000000000000000000000000000000000000000000815260040161128990614cb7565b60405180910390fd5b60008173ffffffffffffffffffffffffffffffffffffffff166370a08231336040518263ffffffff1660e01b81526004016112cd9190614a49565b60206040518083038186803b1580156112e557600080fd5b505afa1580156112f9573d6000803e3d6000fd5b505050506040513d601f19601f8201168201806040525081019061131d9190613edc565b90506000811415611363576040517f08c379a000000000000000000000000000000000000000000000000000000000815260040161135a90614b37565b60405180910390fd5b6113903330838573ffffffffffffffffffffffffffffffffffffffff166136cc909392919063ffffffff16565b8173ffffffffffffffffffffffffffffffffffffffff1663095ea7b37f0000000000000000000000000000000000000000000000000000000000000000836040518363ffffffff1660e01b81526004016113eb929190614a9b565b602060405180830381600087803b15801561140557600080fd5b505af1158015611419573d6000803e3d6000fd5b505050506040513d601f19601f8201168201806040525081019061143d9190613e61565b507f000000000000000000000000000000000000000000000000000000000000000073ffffffffffffffffffffffffffffffffffffffff1663e2bbb1587f0000000000000000000000000000000000000000000000000000000000000000836040518363ffffffff1660e01b81526004016114b9929190614e7f565b600060405180830381600087803b1580156114d357600080fd5b505af11580156114e7573d6000803e3d6000fd5b5050505043600d819055507f57a86f7d14ccde89e22870afe839e3011216827daa9b24e18629f0a1e9d6cc1460405160405180910390a15050565b600c5481565b6000811561156c5761156564e8d4a51000611557600b5468022b1c8c1227a0000061356b90919063ffffffff16565b6135db90919063ffffffff16565b90506115a4565b6115a164e8d4a51000611593600c5468022b1c8c1227a0000061356b90919063ffffffff16565b6135db90919063ffffffff16565b90505b919050565b60076020528060005260406000206000915054906101000a900460ff1681565b68022b1c8c1227a0000081565b6002600154141561161c576040517f08c379a000000000000000000000000000000000000000000000000000000000815260040161161390614d97565b60405180910390fd5b600260018190555061162c613c78565b61163583611989565b905060006006600085815260200190815260200160002060003373ffffffffffffffffffffffffffffffffffffffff1673ffffffffffffffffffffffffffffffffffffffff168152602001908152602001600020905082816000015410156116d2576040517f08c379a00000000000000000000000000000000000000000000000000000000081526004016116c990614c77565b60405180910390fd5b60006116de33866107b8565b90506116eb338683613439565b60008411156117765761170b84836000015461362590919063ffffffff16565b826000018190555061177533856005888154811061172557fe5b9060005260206000200160009054906101000a900473ffffffffffffffffffffffffffffffffffffffff1673ffffffffffffffffffffffffffffffffffffffff166137559092919063ffffffff16565b5b6117d4670de0b6b3a76400006117c685600001516117b864e8d4a510006117aa87896000015461356b90919063ffffffff16565b6135db90919063ffffffff16565b61356b90919063ffffffff16565b6135db90919063ffffffff16565b826001018190555061183661180964e8d4a510006117fb848861356b90919063ffffffff16565b6135db90919063ffffffff16565b6004878154811061181657fe5b90600052602060002090600502016003015461362590919063ffffffff16565b6004868154811061184357fe5b906000526020600020906005020160030181905550843373ffffffffffffffffffffffffffffffffffffffff167ff279e6a1f5e320cca91135676d9cb6e44ca8a08c0b88342bcdb1144f6511b5688660405161189f9190614e12565b60405180910390a3505050600180819055505050565b7f000000000000000000000000000000000000000000000000000000000000000081565b7f000000000000000000000000000000000000000000000000000000000000000073ffffffffffffffffffffffffffffffffffffffff1663e2bbb1587f000000000000000000000000000000000000000000000000000000000000000060006040518363ffffffff1660e01b8152600401611955929190614e56565b600060405180830381600087803b15801561196f57600080fd5b505af1158015611983573d6000803e3d6000fd5b50505050565b611991613c78565b6004828154811061199e57fe5b90600052602060002090600502016040518060a0016040529081600082015481526020016001820154815260200160028201548152602001600382015481526020016004820160009054906101000a900460ff16151515158152505090508060200151431115611bac5760008160600151905060008260800151611a2457600954611a28565b6008545b9050600082118015611a3a5750600081115b15611af4576000611a5884602001514361362590919063ffffffff16565b90506000611aa383611a958760400151611a87611a788a60800151611528565b8761356b90919063ffffffff16565b61356b90919063ffffffff16565b6135db90919063ffffffff16565b9050611ae8611ad585611ac7670de0b6b3a76400008561356b90919063ffffffff16565b6135db90919063ffffffff16565b866000015161366f90919063ffffffff16565b85600001818152505050505b438360200181815250508260048581548110611b0c57fe5b90600052602060002090600502016000820151816000015560208201518160010155604082015181600201556060820151816003015560808201518160040160006101000a81548160ff021916908315150217905550905050837f3be3541fc42237d611b30329040bfa4569541d156560acdbbae57640d20b8f468460200151848660000151604051611ba193929190614ea8565b60405180910390a250505b919050565b60026001541415611bf7576040517f08c379a0000000000000000000000000000000000000000000000000000000008152600401611bee90614d97565b60405180910390fd5b6002600181905550600060048281548110611c0e57fe5b9060005260206000209060050201905060006006600084815260200190815260200160002060003373ffffffffffffffffffffffffffffffffffffffff1673ffffffffffffffffffffffffffffffffffffffff168152602001908152602001600020905060008160000154905060008260000181905550600082600101819055506000611cc464e8d4a51000611cb6611ca733896107b8565b8561356b90919063ffffffff16565b6135db90919063ffffffff16565b905080846003015411611cd8576000611cf0565b611cef81856003015461362590919063ffffffff16565b5b8460030181905550611d5a338360058881548110611d0a57fe5b9060005260206000200160009054906101000a900473ffffffffffffffffffffffffffffffffffffffff1673ffffffffffffffffffffffffffffffffffffffff166137559092919063ffffffff16565b843373ffffffffffffffffffffffffffffffffffffffff167fbb757047c2b5f3974fe26b7c10f732e7bce710b0952a71082702781e62ae059584604051611da19190614e12565b60405180910390a3505050506001808190555050565b7f000000000000000000000000000000000000000000000000000000000000000081565b6000600480549050905060005b81811015611e8657611df8613c78565b60048281548110611e0557fe5b90600052602060002090600502016040518060a0016040529081600082015481526020016001820154815260200160028201548152602001600382015481526020016004820160009054906101000a900460ff16151515158152505090506000816040015114611e7a57611e7882611989565b505b50806001019050611de8565b5050565b611e926136c4565b73ffffffffffffffffffffffffffffffffffffffff1660008054906101000a900473ffffffffffffffffffffffffffffffffffffffff1673ffffffffffffffffffffffffffffffffffffffff1614611f1f576040517f08c379a0000000000000000000000000000000000000000000000000000000008152600401611f1690614cb7565b60405180910390fd5b611f2883611989565b508015611f3857611f37611ddb565b5b60048381548110611f4557fe5b906000526020600020906005020160040160009054906101000a900460ff1615611fb957611fae82611fa060048681548110611f7d57fe5b90600052602060002090600502016002015460085461362590919063ffffffff16565b61366f90919063ffffffff16565b600881905550612005565b611ffe82611ff060048681548110611fcd57fe5b90600052602060002090600502016002015460095461362590919063ffffffff16565b61366f90919063ffffffff16565b6009819055505b816004848154811061201357fe5b906000526020600020906005020160020181905550827fc0cfd54d2de2b55f1e6e108d3ec53ff0a1abe6055401d32c61e9433b747ef9f8836040516120589190614e12565b60405180910390a2505050565b6501d1a94a200081565b6120776136c4565b73ffffffffffffffffffffffffffffffffffffffff1660008054906101000a900473ffffffffffffffffffffffffffffffffffffffff1673ffffffffffffffffffffffffffffffffffffffff1614612104576040517f08c379a00000000000000000000000000000000000000000000000000000000081526004016120fb90614cb7565b60405180910390fd5b600073ffffffffffffffffffffffffffffffffffffffff1660008054906101000a900473ffffffffffffffffffffffffffffffffffffffff1673ffffffffffffffffffffffffffffffffffffffff167f8be0079c531659141344cd1fd0a4f28419497f9722a3daafe3b4186f6b6457e060405160405180910390a360008060006101000a81548173ffffffffffffffffffffffffffffffffffffffff021916908373ffffffffffffffffffffffffffffffffffffffff160217905550565b670de0b6b3a764000081565b6121d66136c4565b73ffffffffffffffffffffffffffffffffffffffff1660008054906101000a900473ffffffffffffffffffffffffffffffffffffffff1673ffffffffffffffffffffffffffffffffffffffff1614612263576040517f08c379a000000000000000000000000000000000000000000000000000000000815260040161225a90614cb7565b60405180910390fd5b801561227257612271611ddb565b5b6000612289600d544361362590919063ffffffff16565b905060006122a76122986123af565b8361356b90919063ffffffff16565b90506122d5600260009054906101000a900473ffffffffffffffffffffffffffffffffffffffff16826137db565b43600d81905550505050565b600d5481565b600581815481106122f457fe5b906000526020600020016000915054906101000a900473ffffffffffffffffffffffffffffffffffffffff1681565b600260009054906101000a900473ffffffffffffffffffffffffffffffffffffffff1681565b60008060009054906101000a900473ffffffffffffffffffffffffffffffffffffffff16905090565b6006602052816000526040600020602052806000526040600020600091509150508060000154908060010154908060020154905083565b60095481565b60006123e664e8d4a510006123d8600a5468022b1c8c1227a0000061356b90919063ffffffff16565b6135db90919063ffffffff16565b905090565b6123f36136c4565b73ffffffffffffffffffffffffffffffffffffffff1660008054906101000a900473ffffffffffffffffffffffffffffffffffffffff1673ffffffffffffffffffffffffffffffffffffffff1614612480576040517f08c379a000000000000000000000000000000000000000000000000000000000815260040161247790614cb7565b60405180910390fd5b600073ffffffffffffffffffffffffffffffffffffffff168173ffffffffffffffffffffffffffffffffffffffff161415801561250b5750600360009054906101000a900473ffffffffffffffffffffffffffffffffffffffff1673ffffffffffffffffffffffffffffffffffffffff168173ffffffffffffffffffffffffffffffffffffffff1614155b61254a576040517f08c379a000000000000000000000000000000000000000000000000000000000815260040161254190614dd7565b60405180910390fd5b80600360006101000a81548173ffffffffffffffffffffffffffffffffffffffff021916908373ffffffffffffffffffffffffffffffffffffffff1602179055508073ffffffffffffffffffffffffffffffffffffffff167f4c0c07d0b548b824a1b998eb4d11fccf1cfbc1e47edcdb309970ba88315eb30360405160405180910390a250565b600b5481565b6125df6136c4565b73ffffffffffffffffffffffffffffffffffffffff1660008054906101000a900473ffffffffffffffffffffffffffffffffffffffff1673ffffffffffffffffffffffffffffffffffffffff161461266c576040517f08c379a000000000000000000000000000000000000000000000000000000000815260040161266390614cb7565b60405180910390fd5b600073ffffffffffffffffffffffffffffffffffffffff168273ffffffffffffffffffffffffffffffffffffffff1614156126dc576040517f08c379a00000000000000000000000000000000000000000000000000000000081526004016126d390614d37565b60405180910390fd5b80600760008473ffffffffffffffffffffffffffffffffffffffff1673ffffffffffffffffffffffffffffffffffffffff16815260200190815260200160002060006101000a81548160ff0219169083151502179055508173ffffffffffffffffffffffffffffffffffffffff167fc551bbb22d0406dbfb8b6b7740cc521bcf44e1106029cf899c19b6a8e4c99d51826040516127799190614ac4565b60405180910390a25050565b60085481565b6127936136c4565b73ffffffffffffffffffffffffffffffffffffffff1660008054906101000a900473ffffffffffffffffffffffffffffffffffffffff1673ffffffffffffffffffffffffffffffffffffffff1614612820576040517f08c379a000000000000000000000000000000000000000000000000000000000815260040161281790614cb7565b60405180910390fd5b60008373ffffffffffffffffffffffffffffffffffffffff166370a08231306040518263ffffffff1660e01b815260040161285b9190614a2e565b60206040518083038186803b15801561287357600080fd5b505afa158015612887573d6000803e3d6000fd5b505050506040513d601f19601f820116820180604052508101906128ab9190613edc565b10156128ec576040517f08c379a00000000000000000000000000000000000000000000000000000000081526004016128e390614c97565b60405180910390fd5b7f000000000000000000000000000000000000000000000000000000000000000073ffffffffffffffffffffffffffffffffffffffff168373ffffffffffffffffffffffffffffffffffffffff16141561297b576040517f08c379a000000000000000000000000000000000000000000000000000000000815260040161297290614cf7565b60405180910390fd5b801561298a57612989611ddb565b5b81156129b0576129a58460085461366f90919063ffffffff16565b6008819055506129cc565b6129c58460095461366f90919063ffffffff16565b6009819055505b6005839080600181540180825580915050600190039060005260206000200160009091909190916101000a81548173ffffffffffffffffffffffffffffffffffffffff021916908373ffffffffffffffffffffffffffffffffffffffff16021790555060046040518060a00160405280600081526020014381526020018681526020016000815260200184151581525090806001815401808255809150506001900390600052602060002090600502016000909190919091506000820151816000015560208201518160010155604082015181600201556060820151816003015560808201518160040160006101000a81548160ff02191690831515021790555050508273ffffffffffffffffffffffffffffffffffffffff16612aff600160058054905061362590919063ffffffff16565b7f18caa0724a26384928efe604ae6ddc99c242548876259770fc88fcb7e719d8fa8685604051612b30929190614e2d565b60405180910390a350505050565b64e8d4a5100081565b612b4f6136c4565b73ffffffffffffffffffffffffffffffffffffffff1660008054906101000a900473ffffffffffffffffffffffffffffffffffffffff1673ffffffffffffffffffffffffffffffffffffffff1614612bdc576040517f08c379a0000000000000000000000000000000000000000000000000000000008152600401612bd390614cb7565b60405180910390fd5b600084118015612bec5750600083115b8015612bf85750600082115b612c37576040517f08c379a0000000000000000000000000000000000000000000000000000000008152600401612c2e90614c17565b60405180910390fd5b64e8d4a51000612c6283612c54868861366f90919063ffffffff16565b61366f90919063ffffffff16565b14612ca2576040517f08c379a0000000000000000000000000000000000000000000000000000000008152600401612c9990614d77565b60405180910390fd5b8015612cb157612cb0611ddb565b5b612cbb60006121ce565b83600a8190555082600b8190555081600c819055507fae2d2e7d1ae84564fc72227253ce0f36a007209f7fd5ec414dea80e5af2fb5b0848484604051612d0393929190614ea8565b60405180910390a150505050565b600360009054906101000a900473ffffffffffffffffffffffffffffffffffffffff1681565b600a5481565b60026001541415612d83576040517f08c379a0000000000000000000000000000000000000000000000000000000008152600401612d7a90614d97565b60405180910390fd5b6002600181905550612d93613c78565b612d9c83611989565b905060006006600085815260200190815260200160002060003373ffffffffffffffffffffffffffffffffffffffff1673ffffffffffffffffffffffffffffffffffffffff1681526020019081526020016000209050816080015180612e4b5750600760003373ffffffffffffffffffffffffffffffffffffffff1673ffffffffffffffffffffffffffffffffffffffff16815260200190815260200160002060009054906101000a900460ff165b612e8a576040517f08c379a0000000000000000000000000000000000000000000000000000000008152600401612e8190614c37565b60405180910390fd5b6000612e9633866107b8565b9050600082600001541115612eb157612eb0338683613439565b5b600084111561312057600060058681548110612ec957fe5b9060005260206000200160009054906101000a900473ffffffffffffffffffffffffffffffffffffffff1673ffffffffffffffffffffffffffffffffffffffff166370a08231306040518263ffffffff1660e01b8152600401612f2c9190614a2e565b60206040518083038186803b158015612f4457600080fd5b505afa158015612f58573d6000803e3d6000fd5b505050506040513d601f19601f82011682018060405250810190612f7c9190613edc565b9050612fe233308760058a81548110612f9157fe5b9060005260206000200160009054906101000a900473ffffffffffffffffffffffffffffffffffffffff1673ffffffffffffffffffffffffffffffffffffffff166136cc909392919063ffffffff16565b6130b48160058881548110612ff357fe5b9060005260206000200160009054906101000a900473ffffffffffffffffffffffffffffffffffffffff1673ffffffffffffffffffffffffffffffffffffffff166370a08231306040518263ffffffff1660e01b81526004016130569190614a2e565b60206040518083038186803b15801561306e57600080fd5b505afa158015613082573d6000803e3d6000fd5b505050506040513d601f19601f820116820180604052508101906130a69190613edc565b61362590919063ffffffff16565b94506130cd85846000015461366f90919063ffffffff16565b836000018190555061311561310264e8d4a510006130f4858961356b90919063ffffffff16565b6135db90919063ffffffff16565b856060015161366f90919063ffffffff16565b846060018181525050505b61317e670de0b6b3a7640000613170856000015161316264e8d4a5100061315487896000015461356b90919063ffffffff16565b6135db90919063ffffffff16565b61356b90919063ffffffff16565b6135db90919063ffffffff16565b8260010181905550826004868154811061319457fe5b90600052602060002090600502016000820151816000015560208201518160010155604082015181600201556060820151816003015560808201518160040160006101000a81548160ff021916908315150217905550905050843373ffffffffffffffffffffffffffffffffffffffff167f90890809c654f11d6e72a28fa60149770a0d11ec6c92319d6ceb2bb0a4ea1a15866040516132349190614e12565b60405180910390a3505050600180819055505050565b64e8d4a5100081565b7f000000000000000000000000000000000000000000000000000000000000000081565b61327f6136c4565b73ffffffffffffffffffffffffffffffffffffffff1660008054906101000a900473ffffffffffffffffffffffffffffffffffffffff1673ffffffffffffffffffffffffffffffffffffffff161461330c576040517f08c379a000000000000000000000000000000000000000000000000000000000815260040161330390614cb7565b60405180910390fd5b600073ffffffffffffffffffffffffffffffffffffffff168173ffffffffffffffffffffffffffffffffffffffff16141561337c576040517f08c379a000000000000000000000000000000000000000000000000000000000815260040161337390614b97565b60405180910390fd5b8073ffffffffffffffffffffffffffffffffffffffff1660008054906101000a900473ffffffffffffffffffffffffffffffffffffffff1673ffffffffffffffffffffffffffffffffffffffff167f8be0079c531659141344cd1fd0a4f28419497f9722a3daafe3b4186f6b6457e060405160405180910390a3806000806101000a81548173ffffffffffffffffffffffffffffffffffffffff021916908373ffffffffffffffffffffffffffffffffffffffff16021790555050565b613441613ca9565b6006600084815260200190815260200160002060008573ffffffffffffffffffffffffffffffffffffffff1673ffffffffffffffffffffffffffffffffffffffff1681526020019081526020016000206040518060600160405290816000820154815260200160018201548152602001600282015481525050905060006134ec64e8d4a510006134de85856000015161356b90919063ffffffff16565b6135db90919063ffffffff16565b9050600061353b670de0b6b3a764000061352d6004888154811061350c57fe5b9060005260206000209060050201600001548561356b90919063ffffffff16565b6135db90919063ffffffff16565b9050600061355684602001518361362590919063ffffffff16565b905061356287826137db565b50505050505050565b60008083141561357e57600090506135d5565b600082840290508284828161358f57fe5b04146135d0576040517f08c379a00000000000000000000000000000000000000000000000000000000081526004016135c790614c57565b60405180910390fd5b809150505b92915050565b600061361d83836040518060400160405280601a81526020017f536166654d6174683a206469766973696f6e206279207a65726f0000000000008152506139a7565b905092915050565b600061366783836040518060400160405280601e81526020017f536166654d6174683a207375627472616374696f6e206f766572666c6f770000815250613a08565b905092915050565b6000808284019050838110156136ba576040517f08c379a00000000000000000000000000000000000000000000000000000000081526004016136b190614bb7565b60405180910390fd5b8091505092915050565b600033905090565b61374f846323b872dd60e01b8585856040516024016136ed93929190614a64565b604051602081830303815290604052907bffffffffffffffffffffffffffffffffffffffffffffffffffffffff19166020820180517bffffffffffffffffffffffffffffffffffffffffffffffffffffffff8381831617835250505050613a63565b50505050565b6137d68363a9059cbb60e01b8484604051602401613774929190614a9b565b604051602081830303815290604052907bffffffffffffffffffffffffffffffffffffffffffffffffffffffff19166020820180517bffffffffffffffffffffffffffffffffffffffffffffffffffffffff8381831617835250505050613a63565b505050565b60008111156139a357807f000000000000000000000000000000000000000000000000000000000000000073ffffffffffffffffffffffffffffffffffffffff166370a08231306040518263ffffffff1660e01b815260040161383e9190614a2e565b60206040518083038186803b15801561385657600080fd5b505afa15801561386a573d6000803e3d6000fd5b505050506040513d601f19601f8201168201806040525081019061388e9190613edc565b101561389d5761389c6118d9565b5b60007f000000000000000000000000000000000000000000000000000000000000000073ffffffffffffffffffffffffffffffffffffffff166370a08231306040518263ffffffff1660e01b81526004016138f89190614a2e565b60206040518083038186803b15801561391057600080fd5b505afa158015613924573d6000803e3d6000fd5b505050506040513d601f19601f820116820180604052508101906139489190613edc565b905081811015613956578091505b6139a183837f000000000000000000000000000000000000000000000000000000000000000073ffffffffffffffffffffffffffffffffffffffff166137559092919063ffffffff16565b505b5050565b600080831182906139ee576040517f08c379a00000000000000000000000000000000000000000000000000000000081526004016139e59190614b15565b60405180910390fd5b5060008385816139fa57fe5b049050809150509392505050565b6000838311158290613a50576040517f08c379a0000000000000000000000000000000000000000000000000000000008152600401613a479190614b15565b60405180910390fd5b5060008385039050809150509392505050565b6060613ac5826040518060400160405280602081526020017f5361666542455032303a206c6f772d6c6576656c2063616c6c206661696c65648152508573ffffffffffffffffffffffffffffffffffffffff16613b2a9092919063ffffffff16565b9050600081511115613b255780806020019051810190613ae59190613e61565b613b24576040517f08c379a0000000000000000000000000000000000000000000000000000000008152600401613b1b90614b77565b60405180910390fd5b5b505050565b6060613b398484600085613b42565b90509392505050565b6060613b4d85613c65565b613b8c576040517f08c379a0000000000000000000000000000000000000000000000000000000008152600401613b8390614d57565b60405180910390fd5b600060608673ffffffffffffffffffffffffffffffffffffffff168587604051613bb69190614a17565b60006040518083038185875af1925050503d8060008114613bf3576040519150601f19603f3d011682016040523d82523d6000602084013e613bf8565b606091505b50915091508115613c0d578092505050613c5d565b600081511115613c205780518082602001fd5b836040517f08c379a0000000000000000000000000000000000000000000000000000000008152600401613c549190614b15565b60405180910390fd5b949350505050565b600080823b905060008111915050919050565b6040518060a00160405280600081526020016000815260200160008152602001600081526020016000151581525090565b60405180606001604052806000815260200160008152602001600081525090565b600081359050613cd981615092565b92915050565b600081359050613cee816150a9565b92915050565b600081519050613d03816150a9565b92915050565b600081359050613d18816150c0565b92915050565b600081359050613d2d816150d7565b92915050565b600081519050613d42816150d7565b92915050565b600060208284031215613d5a57600080fd5b6000613d6884828501613cca565b91505092915050565b60008060408385031215613d8457600080fd5b6000613d9285828601613cca565b9250506020613da385828601613cdf565b9150509250929050565b60008060408385031215613dc057600080fd5b6000613dce85828601613cca565b9250506020613ddf85828601613d1e565b9150509250929050565b600080600060608486031215613dfe57600080fd5b6000613e0c86828701613cca565b9350506020613e1d86828701613d1e565b9250506040613e2e86828701613d1e565b9150509250925092565b600060208284031215613e4a57600080fd5b6000613e5884828501613cdf565b91505092915050565b600060208284031215613e7357600080fd5b6000613e8184828501613cf4565b91505092915050565b600060208284031215613e9c57600080fd5b6000613eaa84828501613d09565b91505092915050565b600060208284031215613ec557600080fd5b6000613ed384828501613d1e565b91505092915050565b600060208284031215613eee57600080fd5b6000613efc84828501613d33565b91505092915050565b60008060408385031215613f1857600080fd5b6000613f2685828601613d1e565b9250506020613f3785828601613cca565b9150509250929050565b60008060008060808587031215613f5757600080fd5b6000613f6587828801613d1e565b9450506020613f7687828801613d09565b9350506040613f8787828801613cdf565b9250506060613f9887828801613cdf565b91505092959194509250565b60008060408385031215613fb757600080fd5b6000613fc585828601613d1e565b9250506020613fd685828601613d1e565b9150509250929050565b600080600060608486031215613ff557600080fd5b600061400386828701613d1e565b935050602061401486828701613d1e565b925050604061402586828701613cdf565b9150509250925092565b6000806000806080858703121561404557600080fd5b600061405387828801613d1e565b945050602061406487828801613d1e565b935050604061407587828801613d1e565b925050606061408687828801613cdf565b91505092959194509250565b61409b81614fbe565b82525050565b6140aa81614f64565b82525050565b6140b981614f76565b82525050565b6140c881614f76565b82525050565b60006140d982614f32565b6140e38185614f48565b93506140f381856020860161504e565b80840191505092915050565b61410881614fd0565b82525050565b61411781614ff4565b82525050565b61412681615018565b82525050565b600061413782614f3d565b6141418185614f53565b935061415181856020860161504e565b61415a81615081565b840191505092915050565b6000614172602383614f53565b91507f4d61737465724368656656323a2042616c616e6365206d75737420657863656560008301527f64203000000000000000000000000000000000000000000000000000000000006020830152604082019050919050565b60006141d8602a83614f53565b91507f4d61737465724368656656323a20496e76616c6964206e657720626f6f73742060008301527f6d756c7469706c696572000000000000000000000000000000000000000000006020830152604082019050919050565b600061423e602a83614f53565b91507f5361666542455032303a204245503230206f7065726174696f6e20646964206e60008301527f6f742073756363656564000000000000000000000000000000000000000000006020830152604082019050919050565b60006142a4602683614f53565b91507f4f776e61626c653a206e6577206f776e657220697320746865207a65726f206160008301527f64647265737300000000000000000000000000000000000000000000000000006020830152604082019050919050565b600061430a601b83614f53565b91507f536166654d6174683a206164646974696f6e206f766572666c6f7700000000006000830152602082019050919050565b600061434a602c83614f53565b91507f4d61737465724368656656323a2054686520757365722061646472657373206d60008301527f7573742062652076616c696400000000000000000000000000000000000000006020830152604082019050919050565b60006143b0602e83614f53565b91507f4d61737465724368656656323a204275726e2061646d696e206164647265737360008301527f206d7573742062652076616c69640000000000000000000000000000000000006020830152604082019050919050565b6000614416602e83614f53565b91507f4d61737465724368656656323a2043616b652072617465206d7573742062652060008301527f67726561746572207468616e20300000000000000000000000000000000000006020830152604082019050919050565b600061447c604283614f53565b91507f4d61737465724368656656323a205468652061646472657373206973206e6f7460008301527f20617661696c61626c6520746f206465706f73697420696e207468697320706f60208301527f6f6c0000000000000000000000000000000000000000000000000000000000006040830152606082019050919050565b6000614508602183614f53565b91507f536166654d6174683a206d756c7469706c69636174696f6e206f766572666c6f60008301527f77000000000000000000000000000000000000000000000000000000000000006020830152604082019050919050565b600061456e601683614f53565b91507f77697468647261773a20496e73756666696369656e74000000000000000000006000830152602082019050919050565b60006145ae601183614f53565b91507f4e6f6e6520424550323020746f6b656e730000000000000000000000000000006000830152602082019050919050565b60006145ee602083614f53565b91507f4f776e61626c653a2063616c6c6572206973206e6f7420746865206f776e65726000830152602082019050919050565b600061462e602983614f53565b91507f4f776e61626c653a2063616c6c6572206973206e6f742074686520626f6f737460008301527f20636f6e747261637400000000000000000000000000000000000000000000006020830152604082019050919050565b6000614694602783614f53565b91507f43414b4520746f6b656e2063616e277420626520616464656420746f2066617260008301527f6d20706f6f6c73000000000000000000000000000000000000000000000000006020830152604082019050919050565b60006146fa603083614f53565b91507f4d61737465724368656656323a204f6e6c7920726567756c6172206661726d2060008301527f636f756c6420626520626f6f73746564000000000000000000000000000000006020830152604082019050919050565b6000614760603283614f53565b91507f4d61737465724368656656323a20546865207768697465206c6973742061646460008301527f72657373206d7573742062652076616c696400000000000000000000000000006020830152604082019050919050565b60006147c6601d83614f53565b91507f416464726573733a2063616c6c20746f206e6f6e2d636f6e74726163740000006000830152602082019050919050565b6000614806602583614f53565b91507f4d61737465724368656656323a20546f74616c2072617465206d75737420626560008301527f20316531320000000000000000000000000000000000000000000000000000006020830152604082019050919050565b600061486c601f83614f53565b91507f5265656e7472616e637947756172643a207265656e7472616e742063616c6c006000830152602082019050919050565b60006148ac604183614f53565b91507f4d61737465724368656656323a204275726e2061646d696e206164647265737360008301527f206973207468652073616d6520776974682063757272656e742061646472657360208301527f73000000000000000000000000000000000000000000000000000000000000006040830152606082019050919050565b6000614938603683614f53565b91507f4d61737465724368656656323a204e657720626f6f737420636f6e747261637460008301527f2061646472657373206d7573742062652076616c6964000000000000000000006020830152604082019050919050565b60a0820160008201516149a760008501826149f9565b5060208201516149ba60208501826149f9565b5060408201516149cd60408501826149f9565b5060608201516149e060608501826149f9565b5060808201516149f360808501826140b0565b50505050565b614a0281614fb4565b82525050565b614a1181614fb4565b82525050565b6000614a2382846140ce565b915081905092915050565b6000602082019050614a4360008301846140a1565b92915050565b6000602082019050614a5e6000830184614092565b92915050565b6000606082019050614a7960008301866140a1565b614a8660208301856140a1565b614a936040830184614a08565b949350505050565b6000604082019050614ab060008301856140a1565b614abd6020830184614a08565b9392505050565b6000602082019050614ad960008301846140bf565b92915050565b6000602082019050614af460008301846140ff565b92915050565b6000602082019050614b0f600083018461410e565b92915050565b60006020820190508181036000830152614b2f818461412c565b905092915050565b60006020820190508181036000830152614b5081614165565b9050919050565b60006020820190508181036000830152614b70816141cb565b9050919050565b60006020820190508181036000830152614b9081614231565b9050919050565b60006020820190508181036000830152614bb081614297565b9050919050565b60006020820190508181036000830152614bd0816142fd565b9050919050565b60006020820190508181036000830152614bf08161433d565b9050919050565b60006020820190508181036000830152614c10816143a3565b9050919050565b60006020820190508181036000830152614c3081614409565b9050919050565b60006020820190508181036000830152614c508161446f565b9050919050565b60006020820190508181036000830152614c70816144fb565b9050919050565b60006020820190508181036000830152614c9081614561565b9050919050565b60006020820190508181036000830152614cb0816145a1565b9050919050565b60006020820190508181036000830152614cd0816145e1565b9050919050565b60006020820190508181036000830152614cf081614621565b9050919050565b60006020820190508181036000830152614d1081614687565b9050919050565b60006020820190508181036000830152614d30816146ed565b9050919050565b60006020820190508181036000830152614d5081614753565b9050919050565b60006020820190508181036000830152614d70816147b9565b9050919050565b60006020820190508181036000830152614d90816147f9565b9050919050565b60006020820190508181036000830152614db08161485f565b9050919050565b60006020820190508181036000830152614dd08161489f565b9050919050565b60006020820190508181036000830152614df08161492b565b9050919050565b600060a082019050614e0c6000830184614991565b92915050565b6000602082019050614e276000830184614a08565b92915050565b6000604082019050614e426000830185614a08565b614e4f60208301846140bf565b9392505050565b6000604082019050614e6b6000830185614a08565b614e78602083018461411d565b9392505050565b6000604082019050614e946000830185614a08565b614ea16020830184614a08565b9392505050565b6000606082019050614ebd6000830186614a08565b614eca6020830185614a08565b614ed76040830184614a08565b949350505050565b600060a082019050614ef46000830188614a08565b614f016020830187614a08565b614f0e6040830186614a08565b614f1b6060830185614a08565b614f2860808301846140bf565b9695505050505050565b600081519050919050565b600081519050919050565b600081905092915050565b600082825260208201905092915050565b6000614f6f82614f94565b9050919050565b60008115159050919050565b6000614f8d82614f64565b9050919050565b600073ffffffffffffffffffffffffffffffffffffffff82169050919050565b6000819050919050565b6000614fc98261502a565b9050919050565b6000614fdb82614fe2565b9050919050565b6000614fed82614f94565b9050919050565b6000614fff82615006565b9050919050565b600061501182614f94565b9050919050565b600061502382614fb4565b9050919050565b60006150358261503c565b9050919050565b600061504782614f94565b9050919050565b60005b8381101561506c578082015181840152602081019050615051565b8381111561507b576000848401525b50505050565b6000601f19601f8301169050919050565b61509b81614f64565b81146150a657600080fd5b50565b6150b281614f76565b81146150bd57600080fd5b50565b6150c981614f82565b81146150d457600080fd5b50565b6150e081614fb4565b81146150eb57600080fd5b5056fea2646970667358221220743ace61d3a62ce2cfff9fa955388da5348138b71bdd0451ad7ab1c3f903ac0d64736f6c634300060c0033",
					"opcodes": "PUSH1 0xE0 PUSH1 0x40 MSTORE PUSH5 0x95E27D7580 PUSH1 0xA SSTORE PUSH5 0xEA1FC81CE PUSH1 0xB SSTORE PUSH5 0x44502B18B2 PUSH1 0xC SSTORE CALLVALUE DUP1 ISZERO PUSH3 0x2C JUMPI PUSH1 0x0 DUP1 REVERT JUMPDEST POP PUSH1 0x40 MLOAD PUSH3 0x54EC CODESIZE SUB DUP1 PUSH3 0x54EC DUP4 CODECOPY DUP2 DUP2 ADD PUSH1 0x40 MSTORE DUP2 ADD SWAP1 PUSH3 0x52 SWAP2 SWAP1 PUSH3 0x22E JUMP JUMPDEST PUSH1 0x0 PUSH3 0x64 PUSH3 0x1CA PUSH1 0x20 SHL PUSH1 0x20 SHR JUMP JUMPDEST SWAP1 POP DUP1 PUSH1 0x0 DUP1 PUSH2 0x100 EXP DUP2 SLOAD DUP2 PUSH20 0xFFFFFFFFFFFFFFFFFFFFFFFFFFFFFFFFFFFFFFFF MUL NOT AND SWAP1 DUP4 PUSH20 0xFFFFFFFFFFFFFFFFFFFFFFFFFFFFFFFFFFFFFFFF AND MUL OR SWAP1 SSTORE POP DUP1 PUSH20 0xFFFFFFFFFFFFFFFFFFFFFFFFFFFFFFFFFFFFFFFF AND PUSH1 0x0 PUSH20 0xFFFFFFFFFFFFFFFFFFFFFFFFFFFFFFFFFFFFFFFF AND PUSH32 0x8BE0079C531659141344CD1FD0A4F28419497F9722A3DAAFE3B4186F6B6457E0 PUSH1 0x40 MLOAD PUSH1 0x40 MLOAD DUP1 SWAP2 SUB SWAP1 LOG3 POP PUSH1 0x1 DUP1 DUP2 SWAP1 SSTORE POP DUP4 PUSH20 0xFFFFFFFFFFFFFFFFFFFFFFFFFFFFFFFFFFFFFFFF AND PUSH1 0x80 DUP2 PUSH20 0xFFFFFFFFFFFFFFFFFFFFFFFFFFFFFFFFFFFFFFFF AND PUSH1 0x60 SHL DUP2 MSTORE POP POP DUP3 PUSH20 0xFFFFFFFFFFFFFFFFFFFFFFFFFFFFFFFFFFFFFFFF AND PUSH1 0xA0 DUP2 PUSH20 0xFFFFFFFFFFFFFFFFFFFFFFFFFFFFFFFFFFFFFFFF AND PUSH1 0x60 SHL DUP2 MSTORE POP POP DUP2 PUSH1 0xC0 DUP2 DUP2 MSTORE POP POP DUP1 PUSH1 0x2 PUSH1 0x0 PUSH2 0x100 EXP DUP2 SLOAD DUP2 PUSH20 0xFFFFFFFFFFFFFFFFFFFFFFFFFFFFFFFFFFFFFFFF MUL NOT AND SWAP1 DUP4 PUSH20 0xFFFFFFFFFFFFFFFFFFFFFFFFFFFFFFFFFFFFFFFF AND MUL OR SWAP1 SSTORE POP POP POP POP POP PUSH3 0x368 JUMP JUMPDEST PUSH1 0x0 CALLER SWAP1 POP SWAP1 JUMP JUMPDEST PUSH1 0x0 DUP2 MLOAD SWAP1 POP PUSH3 0x1E3 DUP2 PUSH3 0x300 JUMP JUMPDEST SWAP3 SWAP2 POP POP JUMP JUMPDEST PUSH1 0x0 DUP2 MLOAD SWAP1 POP PUSH3 0x1FA DUP2 PUSH3 0x31A JUMP JUMPDEST SWAP3 SWAP2 POP POP JUMP JUMPDEST PUSH1 0x0 DUP2 MLOAD SWAP1 POP PUSH3 0x211 DUP2 PUSH3 0x334 JUMP JUMPDEST SWAP3 SWAP2 POP POP JUMP JUMPDEST PUSH1 0x0 DUP2 MLOAD SWAP1 POP PUSH3 0x228 DUP2 PUSH3 0x34E JUMP JUMPDEST SWAP3 SWAP2 POP POP JUMP JUMPDEST PUSH1 0x0 DUP1 PUSH1 0x0 DUP1 PUSH1 0x80 DUP6 DUP8 SUB SLT ISZERO PUSH3 0x245 JUMPI PUSH1 0x0 DUP1 REVERT JUMPDEST PUSH1 0x0 PUSH3 0x255 DUP8 DUP3 DUP9 ADD PUSH3 0x200 JUMP JUMPDEST SWAP5 POP POP PUSH1 0x20 PUSH3 0x268 DUP8 DUP3 DUP9 ADD PUSH3 0x1E9 JUMP JUMPDEST SWAP4 POP POP PUSH1 0x40 PUSH3 0x27B DUP8 DUP3 DUP9 ADD PUSH3 0x217 JUMP JUMPDEST SWAP3 POP POP PUSH1 0x60 PUSH3 0x28E DUP8 DUP3 DUP9 ADD PUSH3 0x1D2 JUMP JUMPDEST SWAP2 POP POP SWAP3 SWAP6 SWAP2 SWAP5 POP SWAP3 POP JUMP JUMPDEST PUSH1 0x0 PUSH3 0x2A7 DUP3 PUSH3 0x2D6 JUMP JUMPDEST SWAP1 POP SWAP2 SWAP1 POP JUMP JUMPDEST PUSH1 0x0 PUSH3 0x2BB DUP3 PUSH3 0x29A JUMP JUMPDEST SWAP1 POP SWAP2 SWAP1 POP JUMP JUMPDEST PUSH1 0x0 PUSH3 0x2CF DUP3 PUSH3 0x29A JUMP JUMPDEST SWAP1 POP SWAP2 SWAP1 POP JUMP JUMPDEST PUSH1 0x0 PUSH20 0xFFFFFFFFFFFFFFFFFFFFFFFFFFFFFFFFFFFFFFFF DUP3 AND SWAP1 POP SWAP2 SWAP1 POP JUMP JUMPDEST PUSH1 0x0 DUP2 SWAP1 POP SWAP2 SWAP1 POP JUMP JUMPDEST PUSH3 0x30B DUP2 PUSH3 0x29A JUMP JUMPDEST DUP2 EQ PUSH3 0x317 JUMPI PUSH1 0x0 DUP1 REVERT JUMPDEST POP JUMP JUMPDEST PUSH3 0x325 DUP2 PUSH3 0x2AE JUMP JUMPDEST DUP2 EQ PUSH3 0x331 JUMPI PUSH1 0x0 DUP1 REVERT JUMPDEST POP JUMP JUMPDEST PUSH3 0x33F DUP2 PUSH3 0x2C2 JUMP JUMPDEST DUP2 EQ PUSH3 0x34B JUMPI PUSH1 0x0 DUP1 REVERT JUMPDEST POP JUMP JUMPDEST PUSH3 0x359 DUP2 PUSH3 0x2F6 JUMP JUMPDEST DUP2 EQ PUSH3 0x365 JUMPI PUSH1 0x0 DUP1 REVERT JUMPDEST POP JUMP JUMPDEST PUSH1 0x80 MLOAD PUSH1 0x60 SHR PUSH1 0xA0 MLOAD PUSH1 0x60 SHR PUSH1 0xC0 MLOAD PUSH2 0x5124 PUSH3 0x3C8 PUSH1 0x0 CODECOPY DUP1 PUSH2 0x147C MSTORE DUP1 PUSH2 0x1917 MSTORE DUP1 PUSH2 0x1DB9 MSTORE POP DUP1 PUSH2 0x18B7 MSTORE DUP1 PUSH2 0x28EE MSTORE DUP1 PUSH2 0x37E7 MSTORE DUP1 PUSH2 0x38A1 MSTORE DUP1 PUSH2 0x395D MSTORE POP DUP1 PUSH2 0x13AE MSTORE DUP1 PUSH2 0x1440 MSTORE DUP1 PUSH2 0x18DB MSTORE DUP1 PUSH2 0x3255 MSTORE POP PUSH2 0x5124 PUSH1 0x0 RETURN INVALID PUSH1 0x80 PUSH1 0x40 MSTORE CALLVALUE DUP1 ISZERO PUSH2 0x10 JUMPI PUSH1 0x0 DUP1 REVERT JUMPDEST POP PUSH1 0x4 CALLDATASIZE LT PUSH2 0x269 JUMPI PUSH1 0x0 CALLDATALOAD PUSH1 0xE0 SHR DUP1 PUSH4 0x7398B7EA GT PUSH2 0x151 JUMPI DUP1 PUSH4 0xAC1D0609 GT PUSH2 0xC3 JUMPI DUP1 PUSH4 0xDFCEDEEE GT PUSH2 0x87 JUMPI DUP1 PUSH4 0xDFCEDEEE EQ PUSH2 0x708 JUMPI DUP1 PUSH4 0xE0F91F6C EQ PUSH2 0x726 JUMPI DUP1 PUSH4 0xE2BBB158 EQ PUSH2 0x744 JUMPI DUP1 PUSH4 0xE39E1323 EQ PUSH2 0x760 JUMPI DUP1 PUSH4 0xEDD8B170 EQ PUSH2 0x77E JUMPI DUP1 PUSH4 0xF2FDE38B EQ PUSH2 0x79C JUMPI PUSH2 0x269 JUMP JUMPDEST DUP1 PUSH4 0xAC1D0609 EQ PUSH2 0x678 JUMPI DUP1 PUSH4 0xC40D337B EQ PUSH2 0x694 JUMPI DUP1 PUSH4 0xC507AEAA EQ PUSH2 0x6B2 JUMPI DUP1 PUSH4 0xCC6DB2DA EQ PUSH2 0x6CE JUMPI DUP1 PUSH4 0xDC6363DF EQ PUSH2 0x6EC JUMPI PUSH2 0x269 JUMP JUMPDEST DUP1 PUSH4 0x8DA5CB5B GT PUSH2 0x115 JUMPI DUP1 PUSH4 0x8DA5CB5B EQ PUSH2 0x5B2 JUMPI DUP1 PUSH4 0x93F1A40B EQ PUSH2 0x5D0 JUMPI DUP1 PUSH4 0x99D7E84A EQ PUSH2 0x602 JUMPI DUP1 PUSH4 0x9DCC1B5F EQ PUSH2 0x620 JUMPI DUP1 PUSH4 0x9DD2FCC3 EQ PUSH2 0x63E JUMPI DUP1 PUSH4 0xAA47BC8E EQ PUSH2 0x65A JUMPI PUSH2 0x269 JUMP JUMPDEST DUP1 PUSH4 0x7398B7EA EQ PUSH2 0x50C JUMPI DUP1 PUSH4 0x777A97F8 EQ PUSH2 0x52A JUMPI DUP1 PUSH4 0x78DB4C34 EQ PUSH2 0x546 JUMPI DUP1 PUSH4 0x78ED5D1F EQ PUSH2 0x564 JUMPI DUP1 PUSH4 0x81BDF98C EQ PUSH2 0x594 JUMPI PUSH2 0x269 JUMP JUMPDEST DUP1 PUSH4 0x39AAE5BA GT PUSH2 0x1EA JUMPI DUP1 PUSH4 0x5312EA8E GT PUSH2 0x1AE JUMPI DUP1 PUSH4 0x5312EA8E EQ PUSH2 0x484 JUMPI DUP1 PUSH4 0x61621AAA EQ PUSH2 0x4A0 JUMPI DUP1 PUSH4 0x630B5BA1 EQ PUSH2 0x4BE JUMPI DUP1 PUSH4 0x64482F79 EQ PUSH2 0x4C8 JUMPI DUP1 PUSH4 0x69B02128 EQ PUSH2 0x4E4 JUMPI DUP1 PUSH4 0x715018A6 EQ PUSH2 0x502 JUMPI PUSH2 0x269 JUMP JUMPDEST DUP1 PUSH4 0x39AAE5BA EQ PUSH2 0x3F2 JUMPI DUP1 PUSH4 0x441A3E70 EQ PUSH2 0x410 JUMPI DUP1 PUSH4 0x4CA6EF28 EQ PUSH2 0x42C JUMPI DUP1 PUSH4 0x4F70B15A EQ PUSH2 0x44A JUMPI DUP1 PUSH4 0x51EB05A6 EQ PUSH2 0x454 JUMPI PUSH2 0x269 JUMP JUMPDEST DUP1 PUSH4 0x1526FE27 GT PUSH2 0x231 JUMPI DUP1 PUSH4 0x1526FE27 EQ PUSH2 0x324 JUMPI DUP1 PUSH4 0x19AB453C EQ PUSH2 0x358 JUMPI DUP1 PUSH4 0x1CE06D57 EQ PUSH2 0x374 JUMPI DUP1 PUSH4 0x1E9B828B EQ PUSH2 0x392 JUMPI DUP1 PUSH4 0x372C12B1 EQ PUSH2 0x3C2 JUMPI PUSH2 0x269 JUMP JUMPDEST DUP1 PUSH4 0x33186E8 EQ PUSH2 0x26E JUMPI DUP1 PUSH4 0x41A84C9 EQ PUSH2 0x29E JUMPI DUP1 PUSH4 0x81E3EDA EQ PUSH2 0x2BA JUMPI DUP1 PUSH4 0xBB844BC EQ PUSH2 0x2D8 JUMPI DUP1 PUSH4 0x1175A1DD EQ PUSH2 0x2F4 JUMPI JUMPDEST PUSH1 0x0 DUP1 REVERT JUMPDEST PUSH2 0x288 PUSH1 0x4 DUP1 CALLDATASIZE SUB DUP2 ADD SWAP1 PUSH2 0x283 SWAP2 SWAP1 PUSH2 0x3DAD JUMP JUMPDEST PUSH2 0x7B8 JUMP JUMPDEST PUSH1 0x40 MLOAD PUSH2 0x295 SWAP2 SWAP1 PUSH2 0x4E12 JUMP JUMPDEST PUSH1 0x40 MLOAD DUP1 SWAP2 SUB SWAP1 RETURN JUMPDEST PUSH2 0x2B8 PUSH1 0x4 DUP1 CALLDATASIZE SUB DUP2 ADD SWAP1 PUSH2 0x2B3 SWAP2 SWAP1 PUSH2 0x3DE9 JUMP JUMPDEST PUSH2 0x833 JUMP JUMPDEST STOP JUMPDEST PUSH2 0x2C2 PUSH2 0xCD8 JUMP JUMPDEST PUSH1 0x40 MLOAD PUSH2 0x2CF SWAP2 SWAP1 PUSH2 0x4E12 JUMP JUMPDEST PUSH1 0x40 MLOAD DUP1 SWAP2 SUB SWAP1 RETURN JUMPDEST PUSH2 0x2F2 PUSH1 0x4 DUP1 CALLDATASIZE SUB DUP2 ADD SWAP1 PUSH2 0x2ED SWAP2 SWAP1 PUSH2 0x3D48 JUMP JUMPDEST PUSH2 0xCE5 JUMP JUMPDEST STOP JUMPDEST PUSH2 0x30E PUSH1 0x4 DUP1 CALLDATASIZE SUB DUP2 ADD SWAP1 PUSH2 0x309 SWAP2 SWAP1 PUSH2 0x3F05 JUMP JUMPDEST PUSH2 0xF41 JUMP JUMPDEST PUSH1 0x40 MLOAD PUSH2 0x31B SWAP2 SWAP1 PUSH2 0x4E12 JUMP JUMPDEST PUSH1 0x40 MLOAD DUP1 SWAP2 SUB SWAP1 RETURN JUMPDEST PUSH2 0x33E PUSH1 0x4 DUP1 CALLDATASIZE SUB DUP2 ADD SWAP1 PUSH2 0x339 SWAP2 SWAP1 PUSH2 0x3EB3 JUMP JUMPDEST PUSH2 0x11AD JUMP JUMPDEST PUSH1 0x40 MLOAD PUSH2 0x34F SWAP6 SWAP5 SWAP4 SWAP3 SWAP2 SWAP1 PUSH2 0x4EDF JUMP JUMPDEST PUSH1 0x40 MLOAD DUP1 SWAP2 SUB SWAP1 RETURN JUMPDEST PUSH2 0x372 PUSH1 0x4 DUP1 CALLDATASIZE SUB DUP2 ADD SWAP1 PUSH2 0x36D SWAP2 SWAP1 PUSH2 0x3E8A JUMP JUMPDEST PUSH2 0x11FD JUMP JUMPDEST STOP JUMPDEST PUSH2 0x37C PUSH2 0x1522 JUMP JUMPDEST PUSH1 0x40 MLOAD PUSH2 0x389 SWAP2 SWAP1 PUSH2 0x4E12 JUMP JUMPDEST PUSH1 0x40 MLOAD DUP1 SWAP2 SUB SWAP1 RETURN JUMPDEST PUSH2 0x3AC PUSH1 0x4 DUP1 CALLDATASIZE SUB DUP2 ADD SWAP1 PUSH2 0x3A7 SWAP2 SWAP1 PUSH2 0x3E38 JUMP JUMPDEST PUSH2 0x1528 JUMP JUMPDEST PUSH1 0x40 MLOAD PUSH2 0x3B9 SWAP2 SWAP1 PUSH2 0x4E12 JUMP JUMPDEST PUSH1 0x40 MLOAD DUP1 SWAP2 SUB SWAP1 RETURN JUMPDEST PUSH2 0x3DC PUSH1 0x4 DUP1 CALLDATASIZE SUB DUP2 ADD SWAP1 PUSH2 0x3D7 SWAP2 SWAP1 PUSH2 0x3D48 JUMP JUMPDEST PUSH2 0x15A9 JUMP JUMPDEST PUSH1 0x40 MLOAD PUSH2 0x3E9 SWAP2 SWAP1 PUSH2 0x4AC4 JUMP JUMPDEST PUSH1 0x40 MLOAD DUP1 SWAP2 SUB SWAP1 RETURN JUMPDEST PUSH2 0x3FA PUSH2 0x15C9 JUMP JUMPDEST PUSH1 0x40 MLOAD PUSH2 0x407 SWAP2 SWAP1 PUSH2 0x4E12 JUMP JUMPDEST PUSH1 0x40 MLOAD DUP1 SWAP2 SUB SWAP1 RETURN JUMPDEST PUSH2 0x42A PUSH1 0x4 DUP1 CALLDATASIZE SUB DUP2 ADD SWAP1 PUSH2 0x425 SWAP2 SWAP1 PUSH2 0x3FA4 JUMP JUMPDEST PUSH2 0x15D6 JUMP JUMPDEST STOP JUMPDEST PUSH2 0x434 PUSH2 0x18B5 JUMP JUMPDEST PUSH1 0x40 MLOAD PUSH2 0x441 SWAP2 SWAP1 PUSH2 0x4ADF JUMP JUMPDEST PUSH1 0x40 MLOAD DUP1 SWAP2 SUB SWAP1 RETURN JUMPDEST PUSH2 0x452 PUSH2 0x18D9 JUMP JUMPDEST STOP JUMPDEST PUSH2 0x46E PUSH1 0x4 DUP1 CALLDATASIZE SUB DUP2 ADD SWAP1 PUSH2 0x469 SWAP2 SWAP1 PUSH2 0x3EB3 JUMP JUMPDEST PUSH2 0x1989 JUMP JUMPDEST PUSH1 0x40 MLOAD PUSH2 0x47B SWAP2 SWAP1 PUSH2 0x4DF7 JUMP JUMPDEST PUSH1 0x40 MLOAD DUP1 SWAP2 SUB SWAP1 RETURN JUMPDEST PUSH2 0x49E PUSH1 0x4 DUP1 CALLDATASIZE SUB DUP2 ADD SWAP1 PUSH2 0x499 SWAP2 SWAP1 PUSH2 0x3EB3 JUMP JUMPDEST PUSH2 0x1BB1 JUMP JUMPDEST STOP JUMPDEST PUSH2 0x4A8 PUSH2 0x1DB7 JUMP JUMPDEST PUSH1 0x40 MLOAD PUSH2 0x4B5 SWAP2 SWAP1 PUSH2 0x4E12 JUMP JUMPDEST PUSH1 0x40 MLOAD DUP1 SWAP2 SUB SWAP1 RETURN JUMPDEST PUSH2 0x4C6 PUSH2 0x1DDB JUMP JUMPDEST STOP JUMPDEST PUSH2 0x4E2 PUSH1 0x4 DUP1 CALLDATASIZE SUB DUP2 ADD SWAP1 PUSH2 0x4DD SWAP2 SWAP1 PUSH2 0x3FE0 JUMP JUMPDEST PUSH2 0x1E8A JUMP JUMPDEST STOP JUMPDEST PUSH2 0x4EC PUSH2 0x2065 JUMP JUMPDEST PUSH1 0x40 MLOAD PUSH2 0x4F9 SWAP2 SWAP1 PUSH2 0x4E12 JUMP JUMPDEST PUSH1 0x40 MLOAD DUP1 SWAP2 SUB SWAP1 RETURN JUMPDEST PUSH2 0x50A PUSH2 0x206F JUMP JUMPDEST STOP JUMPDEST PUSH2 0x514 PUSH2 0x21C2 JUMP JUMPDEST PUSH1 0x40 MLOAD PUSH2 0x521 SWAP2 SWAP1 PUSH2 0x4E12 JUMP JUMPDEST PUSH1 0x40 MLOAD DUP1 SWAP2 SUB SWAP1 RETURN JUMPDEST PUSH2 0x544 PUSH1 0x4 DUP1 CALLDATASIZE SUB DUP2 ADD SWAP1 PUSH2 0x53F SWAP2 SWAP1 PUSH2 0x3E38 JUMP JUMPDEST PUSH2 0x21CE JUMP JUMPDEST STOP JUMPDEST PUSH2 0x54E PUSH2 0x22E1 JUMP JUMPDEST PUSH1 0x40 MLOAD PUSH2 0x55B SWAP2 SWAP1 PUSH2 0x4E12 JUMP JUMPDEST PUSH1 0x40 MLOAD DUP1 SWAP2 SUB SWAP1 RETURN JUMPDEST PUSH2 0x57E PUSH1 0x4 DUP1 CALLDATASIZE SUB DUP2 ADD SWAP1 PUSH2 0x579 SWAP2 SWAP1 PUSH2 0x3EB3 JUMP JUMPDEST PUSH2 0x22E7 JUMP JUMPDEST PUSH1 0x40 MLOAD PUSH2 0x58B SWAP2 SWAP1 PUSH2 0x4ADF JUMP JUMPDEST PUSH1 0x40 MLOAD DUP1 SWAP2 SUB SWAP1 RETURN JUMPDEST PUSH2 0x59C PUSH2 0x2323 JUMP JUMPDEST PUSH1 0x40 MLOAD PUSH2 0x5A9 SWAP2 SWAP1 PUSH2 0x4A2E JUMP JUMPDEST PUSH1 0x40 MLOAD DUP1 SWAP2 SUB SWAP1 RETURN JUMPDEST PUSH2 0x5BA PUSH2 0x2349 JUMP JUMPDEST PUSH1 0x40 MLOAD PUSH2 0x5C7 SWAP2 SWAP1 PUSH2 0x4A2E JUMP JUMPDEST PUSH1 0x40 MLOAD DUP1 SWAP2 SUB SWAP1 RETURN JUMPDEST PUSH2 0x5EA PUSH1 0x4 DUP1 CALLDATASIZE SUB DUP2 ADD SWAP1 PUSH2 0x5E5 SWAP2 SWAP1 PUSH2 0x3F05 JUMP JUMPDEST PUSH2 0x2372 JUMP JUMPDEST PUSH1 0x40 MLOAD PUSH2 0x5F9 SWAP4 SWAP3 SWAP2 SWAP1 PUSH2 0x4EA8 JUMP JUMPDEST PUSH1 0x40 MLOAD DUP1 SWAP2 SUB SWAP1 RETURN JUMPDEST PUSH2 0x60A PUSH2 0x23A9 JUMP JUMPDEST PUSH1 0x40 MLOAD PUSH2 0x617 SWAP2 SWAP1 PUSH2 0x4E12 JUMP JUMPDEST PUSH1 0x40 MLOAD DUP1 SWAP2 SUB SWAP1 RETURN JUMPDEST PUSH2 0x628 PUSH2 0x23AF JUMP JUMPDEST PUSH1 0x40 MLOAD PUSH2 0x635 SWAP2 SWAP1 PUSH2 0x4E12 JUMP JUMPDEST PUSH1 0x40 MLOAD DUP1 SWAP2 SUB SWAP1 RETURN JUMPDEST PUSH2 0x658 PUSH1 0x4 DUP1 CALLDATASIZE SUB DUP2 ADD SWAP1 PUSH2 0x653 SWAP2 SWAP1 PUSH2 0x3D48 JUMP JUMPDEST PUSH2 0x23EB JUMP JUMPDEST STOP JUMPDEST PUSH2 0x662 PUSH2 0x25D1 JUMP JUMPDEST PUSH1 0x40 MLOAD PUSH2 0x66F SWAP2 SWAP1 PUSH2 0x4E12 JUMP JUMPDEST PUSH1 0x40 MLOAD DUP1 SWAP2 SUB SWAP1 RETURN JUMPDEST PUSH2 0x692 PUSH1 0x4 DUP1 CALLDATASIZE SUB DUP2 ADD SWAP1 PUSH2 0x68D SWAP2 SWAP1 PUSH2 0x3D71 JUMP JUMPDEST PUSH2 0x25D7 JUMP JUMPDEST STOP JUMPDEST PUSH2 0x69C PUSH2 0x2785 JUMP JUMPDEST PUSH1 0x40 MLOAD PUSH2 0x6A9 SWAP2 SWAP1 PUSH2 0x4E12 JUMP JUMPDEST PUSH1 0x40 MLOAD DUP1 SWAP2 SUB SWAP1 RETURN JUMPDEST PUSH2 0x6CC PUSH1 0x4 DUP1 CALLDATASIZE SUB DUP2 ADD SWAP1 PUSH2 0x6C7 SWAP2 SWAP1 PUSH2 0x3F41 JUMP JUMPDEST PUSH2 0x278B JUMP JUMPDEST STOP JUMPDEST PUSH2 0x6D6 PUSH2 0x2B3E JUMP JUMPDEST PUSH1 0x40 MLOAD PUSH2 0x6E3 SWAP2 SWAP1 PUSH2 0x4E12 JUMP JUMPDEST PUSH1 0x40 MLOAD DUP1 SWAP2 SUB SWAP1 RETURN JUMPDEST PUSH2 0x706 PUSH1 0x4 DUP1 CALLDATASIZE SUB DUP2 ADD SWAP1 PUSH2 0x701 SWAP2 SWAP1 PUSH2 0x402F JUMP JUMPDEST PUSH2 0x2B47 JUMP JUMPDEST STOP JUMPDEST PUSH2 0x710 PUSH2 0x2D11 JUMP JUMPDEST PUSH1 0x40 MLOAD PUSH2 0x71D SWAP2 SWAP1 PUSH2 0x4A2E JUMP JUMPDEST PUSH1 0x40 MLOAD DUP1 SWAP2 SUB SWAP1 RETURN JUMPDEST PUSH2 0x72E PUSH2 0x2D37 JUMP JUMPDEST PUSH1 0x40 MLOAD PUSH2 0x73B SWAP2 SWAP1 PUSH2 0x4E12 JUMP JUMPDEST PUSH1 0x40 MLOAD DUP1 SWAP2 SUB SWAP1 RETURN JUMPDEST PUSH2 0x75E PUSH1 0x4 DUP1 CALLDATASIZE SUB DUP2 ADD SWAP1 PUSH2 0x759 SWAP2 SWAP1 PUSH2 0x3FA4 JUMP JUMPDEST PUSH2 0x2D3D JUMP JUMPDEST STOP JUMPDEST PUSH2 0x768 PUSH2 0x324A JUMP JUMPDEST PUSH1 0x40 MLOAD PUSH2 0x775 SWAP2 SWAP1 PUSH2 0x4E12 JUMP JUMPDEST PUSH1 0x40 MLOAD DUP1 SWAP2 SUB SWAP1 RETURN JUMPDEST PUSH2 0x786 PUSH2 0x3253 JUMP JUMPDEST PUSH1 0x40 MLOAD PUSH2 0x793 SWAP2 SWAP1 PUSH2 0x4AFA JUMP JUMPDEST PUSH1 0x40 MLOAD DUP1 SWAP2 SUB SWAP1 RETURN JUMPDEST PUSH2 0x7B6 PUSH1 0x4 DUP1 CALLDATASIZE SUB DUP2 ADD SWAP1 PUSH2 0x7B1 SWAP2 SWAP1 PUSH2 0x3D48 JUMP JUMPDEST PUSH2 0x3277 JUMP JUMPDEST STOP JUMPDEST PUSH1 0x0 DUP1 PUSH1 0x6 PUSH1 0x0 DUP5 DUP2 MSTORE PUSH1 0x20 ADD SWAP1 DUP2 MSTORE PUSH1 0x20 ADD PUSH1 0x0 KECCAK256 PUSH1 0x0 DUP6 PUSH20 0xFFFFFFFFFFFFFFFFFFFFFFFFFFFFFFFFFFFFFFFF AND PUSH20 0xFFFFFFFFFFFFFFFFFFFFFFFFFFFFFFFFFFFFFFFF AND DUP2 MSTORE PUSH1 0x20 ADD SWAP1 DUP2 MSTORE PUSH1 0x20 ADD PUSH1 0x0 KECCAK256 PUSH1 0x2 ADD SLOAD SWAP1 POP PUSH5 0xE8D4A51000 DUP2 GT PUSH2 0x828 JUMPI PUSH5 0xE8D4A51000 PUSH2 0x82A JUMP JUMPDEST DUP1 JUMPDEST SWAP2 POP POP SWAP3 SWAP2 POP POP JUMP JUMPDEST CALLER PUSH20 0xFFFFFFFFFFFFFFFFFFFFFFFFFFFFFFFFFFFFFFFF AND PUSH1 0x3 PUSH1 0x0 SWAP1 SLOAD SWAP1 PUSH2 0x100 EXP SWAP1 DIV PUSH20 0xFFFFFFFFFFFFFFFFFFFFFFFFFFFFFFFFFFFFFFFF AND PUSH20 0xFFFFFFFFFFFFFFFFFFFFFFFFFFFFFFFFFFFFFFFF AND EQ PUSH2 0x8C3 JUMPI PUSH1 0x40 MLOAD PUSH32 0x8C379A000000000000000000000000000000000000000000000000000000000 DUP2 MSTORE PUSH1 0x4 ADD PUSH2 0x8BA SWAP1 PUSH2 0x4CD7 JUMP JUMPDEST PUSH1 0x40 MLOAD DUP1 SWAP2 SUB SWAP1 REVERT JUMPDEST PUSH1 0x2 PUSH1 0x1 SLOAD EQ ISZERO PUSH2 0x909 JUMPI PUSH1 0x40 MLOAD PUSH32 0x8C379A000000000000000000000000000000000000000000000000000000000 DUP2 MSTORE PUSH1 0x4 ADD PUSH2 0x900 SWAP1 PUSH2 0x4D97 JUMP JUMPDEST PUSH1 0x40 MLOAD DUP1 SWAP2 SUB SWAP1 REVERT JUMPDEST PUSH1 0x2 PUSH1 0x1 DUP2 SWAP1 SSTORE POP PUSH1 0x0 PUSH20 0xFFFFFFFFFFFFFFFFFFFFFFFFFFFFFFFFFFFFFFFF AND DUP4 PUSH20 0xFFFFFFFFFFFFFFFFFFFFFFFFFFFFFFFFFFFFFFFF AND EQ ISZERO PUSH2 0x981 JUMPI PUSH1 0x40 MLOAD PUSH32 0x8C379A000000000000000000000000000000000000000000000000000000000 DUP2 MSTORE PUSH1 0x4 ADD PUSH2 0x978 SWAP1 PUSH2 0x4BD7 JUMP JUMPDEST PUSH1 0x40 MLOAD DUP1 SWAP2 SUB SWAP1 REVERT JUMPDEST PUSH1 0x4 DUP3 DUP2 SLOAD DUP2 LT PUSH2 0x98E JUMPI INVALID JUMPDEST SWAP1 PUSH1 0x0 MSTORE PUSH1 0x20 PUSH1 0x0 KECCAK256 SWAP1 PUSH1 0x5 MUL ADD PUSH1 0x4 ADD PUSH1 0x0 SWAP1 SLOAD SWAP1 PUSH2 0x100 EXP SWAP1 DIV PUSH1 0xFF AND PUSH2 0x9EC JUMPI PUSH1 0x40 MLOAD PUSH32 0x8C379A000000000000000000000000000000000000000000000000000000000 DUP2 MSTORE PUSH1 0x4 ADD PUSH2 0x9E3 SWAP1 PUSH2 0x4D17 JUMP JUMPDEST PUSH1 0x40 MLOAD DUP1 SWAP2 SUB SWAP1 REVERT JUMPDEST PUSH5 0xE8D4A51000 DUP2 LT ISZERO DUP1 ISZERO PUSH2 0xA07 JUMPI POP PUSH6 0x1D1A94A2000 DUP2 GT ISZERO JUMPDEST PUSH2 0xA46 JUMPI PUSH1 0x40 MLOAD PUSH32 0x8C379A000000000000000000000000000000000000000000000000000000000 DUP2 MSTORE PUSH1 0x4 ADD PUSH2 0xA3D SWAP1 PUSH2 0x4B57 JUMP JUMPDEST PUSH1 0x40 MLOAD DUP1 SWAP2 SUB SWAP1 REVERT JUMPDEST PUSH2 0xA4E PUSH2 0x3C78 JUMP JUMPDEST PUSH2 0xA57 DUP4 PUSH2 0x1989 JUMP JUMPDEST SWAP1 POP PUSH1 0x0 PUSH1 0x6 PUSH1 0x0 DUP6 DUP2 MSTORE PUSH1 0x20 ADD SWAP1 DUP2 MSTORE PUSH1 0x20 ADD PUSH1 0x0 KECCAK256 PUSH1 0x0 DUP7 PUSH20 0xFFFFFFFFFFFFFFFFFFFFFFFFFFFFFFFFFFFFFFFF AND PUSH20 0xFFFFFFFFFFFFFFFFFFFFFFFFFFFFFFFFFFFFFFFF AND DUP2 MSTORE PUSH1 0x20 ADD SWAP1 DUP2 MSTORE PUSH1 0x20 ADD PUSH1 0x0 KECCAK256 SWAP1 POP PUSH1 0x0 PUSH2 0xAB9 DUP7 DUP7 PUSH2 0x7B8 JUMP JUMPDEST SWAP1 POP PUSH2 0xAC6 DUP7 DUP7 DUP4 PUSH2 0x3439 JUMP JUMPDEST PUSH2 0xB24 PUSH8 0xDE0B6B3A7640000 PUSH2 0xB16 DUP6 PUSH1 0x0 ADD MLOAD PUSH2 0xB08 PUSH5 0xE8D4A51000 PUSH2 0xAFA DUP11 DUP10 PUSH1 0x0 ADD SLOAD PUSH2 0x356B SWAP1 SWAP2 SWAP1 PUSH4 0xFFFFFFFF AND JUMP JUMPDEST PUSH2 0x35DB SWAP1 SWAP2 SWAP1 PUSH4 0xFFFFFFFF AND JUMP JUMPDEST PUSH2 0x356B SWAP1 SWAP2 SWAP1 PUSH4 0xFFFFFFFF AND JUMP JUMPDEST PUSH2 0x35DB SWAP1 SWAP2 SWAP1 PUSH4 0xFFFFFFFF AND JUMP JUMPDEST DUP3 PUSH1 0x1 ADD DUP2 SWAP1 SSTORE POP PUSH2 0xBAF PUSH2 0xB5D PUSH5 0xE8D4A51000 PUSH2 0xB4F DUP8 DUP7 PUSH1 0x0 ADD SLOAD PUSH2 0x356B SWAP1 SWAP2 SWAP1 PUSH4 0xFFFFFFFF AND JUMP JUMPDEST PUSH2 0x35DB SWAP1 SWAP2 SWAP1 PUSH4 0xFFFFFFFF AND JUMP JUMPDEST PUSH2 0xBA1 PUSH2 0xB8E PUSH5 0xE8D4A51000 PUSH2 0xB80 DUP7 DUP9 PUSH1 0x0 ADD SLOAD PUSH2 0x356B SWAP1 SWAP2 SWAP1 PUSH4 0xFFFFFFFF AND JUMP JUMPDEST PUSH2 0x35DB SWAP1 SWAP2 SWAP1 PUSH4 0xFFFFFFFF AND JUMP JUMPDEST DUP7 PUSH1 0x60 ADD MLOAD PUSH2 0x3625 SWAP1 SWAP2 SWAP1 PUSH4 0xFFFFFFFF AND JUMP JUMPDEST PUSH2 0x366F SWAP1 SWAP2 SWAP1 PUSH4 0xFFFFFFFF AND JUMP JUMPDEST DUP4 PUSH1 0x60 ADD DUP2 DUP2 MSTORE POP POP DUP3 PUSH1 0x4 DUP7 DUP2 SLOAD DUP2 LT PUSH2 0xBC6 JUMPI INVALID JUMPDEST SWAP1 PUSH1 0x0 MSTORE PUSH1 0x20 PUSH1 0x0 KECCAK256 SWAP1 PUSH1 0x5 MUL ADD PUSH1 0x0 DUP3 ADD MLOAD DUP2 PUSH1 0x0 ADD SSTORE PUSH1 0x20 DUP3 ADD MLOAD DUP2 PUSH1 0x1 ADD SSTORE PUSH1 0x40 DUP3 ADD MLOAD DUP2 PUSH1 0x2 ADD SSTORE PUSH1 0x60 DUP3 ADD MLOAD DUP2 PUSH1 0x3 ADD SSTORE PUSH1 0x80 DUP3 ADD MLOAD DUP2 PUSH1 0x4 ADD PUSH1 0x0 PUSH2 0x100 EXP DUP2 SLOAD DUP2 PUSH1 0xFF MUL NOT AND SWAP1 DUP4 ISZERO ISZERO MUL OR SWAP1 SSTORE POP SWAP1 POP POP DUP4 PUSH1 0x6 PUSH1 0x0 DUP8 DUP2 MSTORE PUSH1 0x20 ADD SWAP1 DUP2 MSTORE PUSH1 0x20 ADD PUSH1 0x0 KECCAK256 PUSH1 0x0 DUP9 PUSH20 0xFFFFFFFFFFFFFFFFFFFFFFFFFFFFFFFFFFFFFFFF AND PUSH20 0xFFFFFFFFFFFFFFFFFFFFFFFFFFFFFFFFFFFFFFFF AND DUP2 MSTORE PUSH1 0x20 ADD SWAP1 DUP2 MSTORE PUSH1 0x20 ADD PUSH1 0x0 KECCAK256 PUSH1 0x2 ADD DUP2 SWAP1 SSTORE POP DUP6 PUSH20 0xFFFFFFFFFFFFFFFFFFFFFFFFFFFFFFFFFFFFFFFF AND PUSH32 0x1ABD62439B64F6C5DAB6F94D56099495BD0C094F9C21F98F4D3562A21EDB4BA DUP7 DUP4 DUP8 PUSH1 0x40 MLOAD PUSH2 0xCC1 SWAP4 SWAP3 SWAP2 SWAP1 PUSH2 0x4EA8 JUMP JUMPDEST PUSH1 0x40 MLOAD DUP1 SWAP2 SUB SWAP1 LOG2 POP POP POP PUSH1 0x1 DUP1 DUP2 SWAP1 SSTORE POP POP POP POP JUMP JUMPDEST PUSH1 0x0 PUSH1 0x4 DUP1 SLOAD SWAP1 POP SWAP1 POP SWAP1 JUMP JUMPDEST PUSH2 0xCED PUSH2 0x36C4 JUMP JUMPDEST PUSH20 0xFFFFFFFFFFFFFFFFFFFFFFFFFFFFFFFFFFFFFFFF AND PUSH1 0x0 DUP1 SLOAD SWAP1 PUSH2 0x100 EXP SWAP1 DIV PUSH20 0xFFFFFFFFFFFFFFFFFFFFFFFFFFFFFFFFFFFFFFFF AND PUSH20 0xFFFFFFFFFFFFFFFFFFFFFFFFFFFFFFFFFFFFFFFF AND EQ PUSH2 0xD7A JUMPI PUSH1 0x40 MLOAD PUSH32 0x8C379A000000000000000000000000000000000000000000000000000000000 DUP2 MSTORE PUSH1 0x4 ADD PUSH2 0xD71 SWAP1 PUSH2 0x4CB7 JUMP JUMPDEST PUSH1 0x40 MLOAD DUP1 SWAP2 SUB SWAP1 REVERT JUMPDEST PUSH1 0x0 PUSH20 0xFFFFFFFFFFFFFFFFFFFFFFFFFFFFFFFFFFFFFFFF AND DUP2 PUSH20 0xFFFFFFFFFFFFFFFFFFFFFFFFFFFFFFFFFFFFFFFF AND EQ ISZERO PUSH2 0xDEA JUMPI PUSH1 0x40 MLOAD PUSH32 0x8C379A000000000000000000000000000000000000000000000000000000000 DUP2 MSTORE PUSH1 0x4 ADD PUSH2 0xDE1 SWAP1 PUSH2 0x4BF7 JUMP JUMPDEST PUSH1 0x40 MLOAD DUP1 SWAP2 SUB SWAP1 REVERT JUMPDEST PUSH1 0x2 PUSH1 0x0 SWAP1 SLOAD SWAP1 PUSH2 0x100 EXP SWAP1 DIV PUSH20 0xFFFFFFFFFFFFFFFFFFFFFFFFFFFFFFFFFFFFFFFF AND PUSH20 0xFFFFFFFFFFFFFFFFFFFFFFFFFFFFFFFFFFFFFFFF AND DUP2 PUSH20 0xFFFFFFFFFFFFFFFFFFFFFFFFFFFFFFFFFFFFFFFF AND EQ ISZERO PUSH2 0xE7B JUMPI PUSH1 0x40 MLOAD PUSH32 0x8C379A000000000000000000000000000000000000000000000000000000000 DUP2 MSTORE PUSH1 0x4 ADD PUSH2 0xE72 SWAP1 PUSH2 0x4DB7 JUMP JUMPDEST PUSH1 0x40 MLOAD DUP1 SWAP2 SUB SWAP1 REVERT JUMPDEST PUSH1 0x0 PUSH1 0x2 PUSH1 0x0 SWAP1 SLOAD SWAP1 PUSH2 0x100 EXP SWAP1 DIV PUSH20 0xFFFFFFFFFFFFFFFFFFFFFFFFFFFFFFFFFFFFFFFF AND SWAP1 POP DUP2 PUSH1 0x2 PUSH1 0x0 PUSH2 0x100 EXP DUP2 SLOAD DUP2 PUSH20 0xFFFFFFFFFFFFFFFFFFFFFFFFFFFFFFFFFFFFFFFF MUL NOT AND SWAP1 DUP4 PUSH20 0xFFFFFFFFFFFFFFFFFFFFFFFFFFFFFFFFFFFFFFFF AND MUL OR SWAP1 SSTORE POP DUP2 PUSH20 0xFFFFFFFFFFFFFFFFFFFFFFFFFFFFFFFFFFFFFFFF AND DUP2 PUSH20 0xFFFFFFFFFFFFFFFFFFFFFFFFFFFFFFFFFFFFFFFF AND PUSH32 0xD146FE330FDDDF682413850A35B28EDFCCD4C4B53CFEE802FD24950DE5BE1DBE PUSH1 0x40 MLOAD PUSH1 0x40 MLOAD DUP1 SWAP2 SUB SWAP1 LOG3 POP POP JUMP JUMPDEST PUSH1 0x0 PUSH2 0xF4B PUSH2 0x3C78 JUMP JUMPDEST PUSH1 0x4 DUP5 DUP2 SLOAD DUP2 LT PUSH2 0xF58 JUMPI INVALID JUMPDEST SWAP1 PUSH1 0x0 MSTORE PUSH1 0x20 PUSH1 0x0 KECCAK256 SWAP1 PUSH1 0x5 MUL ADD PUSH1 0x40 MLOAD DUP1 PUSH1 0xA0 ADD PUSH1 0x40 MSTORE SWAP1 DUP2 PUSH1 0x0 DUP3 ADD SLOAD DUP2 MSTORE PUSH1 0x20 ADD PUSH1 0x1 DUP3 ADD SLOAD DUP2 MSTORE PUSH1 0x20 ADD PUSH1 0x2 DUP3 ADD SLOAD DUP2 MSTORE PUSH1 0x20 ADD PUSH1 0x3 DUP3 ADD SLOAD DUP2 MSTORE PUSH1 0x20 ADD PUSH1 0x4 DUP3 ADD PUSH1 0x0 SWAP1 SLOAD SWAP1 PUSH2 0x100 EXP SWAP1 DIV PUSH1 0xFF AND ISZERO ISZERO ISZERO ISZERO DUP2 MSTORE POP POP SWAP1 POP PUSH2 0xFBE PUSH2 0x3CA9 JUMP JUMPDEST PUSH1 0x6 PUSH1 0x0 DUP7 DUP2 MSTORE PUSH1 0x20 ADD SWAP1 DUP2 MSTORE PUSH1 0x20 ADD PUSH1 0x0 KECCAK256 PUSH1 0x0 DUP6 PUSH20 0xFFFFFFFFFFFFFFFFFFFFFFFFFFFFFFFFFFFFFFFF AND PUSH20 0xFFFFFFFFFFFFFFFFFFFFFFFFFFFFFFFFFFFFFFFF AND DUP2 MSTORE PUSH1 0x20 ADD SWAP1 DUP2 MSTORE PUSH1 0x20 ADD PUSH1 0x0 KECCAK256 PUSH1 0x40 MLOAD DUP1 PUSH1 0x60 ADD PUSH1 0x40 MSTORE SWAP1 DUP2 PUSH1 0x0 DUP3 ADD SLOAD DUP2 MSTORE PUSH1 0x20 ADD PUSH1 0x1 DUP3 ADD SLOAD DUP2 MSTORE PUSH1 0x20 ADD PUSH1 0x2 DUP3 ADD SLOAD DUP2 MSTORE POP POP SWAP1 POP PUSH1 0x0 DUP3 PUSH1 0x0 ADD MLOAD SWAP1 POP PUSH1 0x0 DUP4 PUSH1 0x60 ADD MLOAD SWAP1 POP DUP4 PUSH1 0x20 ADD MLOAD NUMBER GT DUP1 ISZERO PUSH2 0x105F JUMPI POP PUSH1 0x0 DUP2 EQ ISZERO JUMPDEST ISZERO PUSH2 0x1122 JUMPI PUSH1 0x0 PUSH2 0x107D DUP6 PUSH1 0x20 ADD MLOAD NUMBER PUSH2 0x3625 SWAP1 SWAP2 SWAP1 PUSH4 0xFFFFFFFF AND JUMP JUMPDEST SWAP1 POP PUSH1 0x0 PUSH2 0x10DC DUP7 PUSH1 0x80 ADD MLOAD PUSH2 0x1095 JUMPI PUSH1 0x9 SLOAD PUSH2 0x1099 JUMP JUMPDEST PUSH1 0x8 SLOAD JUMPDEST PUSH2 0x10CE DUP9 PUSH1 0x40 ADD MLOAD PUSH2 0x10C0 PUSH2 0x10B1 DUP12 PUSH1 0x80 ADD MLOAD PUSH2 0x1528 JUMP JUMPDEST DUP8 PUSH2 0x356B SWAP1 SWAP2 SWAP1 PUSH4 0xFFFFFFFF AND JUMP JUMPDEST PUSH2 0x356B SWAP1 SWAP2 SWAP1 PUSH4 0xFFFFFFFF AND JUMP JUMPDEST PUSH2 0x35DB SWAP1 SWAP2 SWAP1 PUSH4 0xFFFFFFFF AND JUMP JUMPDEST SWAP1 POP PUSH2 0x111D PUSH2 0x110E DUP5 PUSH2 0x1100 PUSH8 0xDE0B6B3A7640000 DUP6 PUSH2 0x356B SWAP1 SWAP2 SWAP1 PUSH4 0xFFFFFFFF AND JUMP JUMPDEST PUSH2 0x35DB SWAP1 SWAP2 SWAP1 PUSH4 0xFFFFFFFF AND JUMP JUMPDEST DUP6 PUSH2 0x366F SWAP1 SWAP2 SWAP1 PUSH4 0xFFFFFFFF AND JUMP JUMPDEST SWAP4 POP POP POP JUMPDEST PUSH1 0x0 PUSH2 0x115B PUSH5 0xE8D4A51000 PUSH2 0x114D PUSH2 0x113A DUP11 DUP13 PUSH2 0x7B8 JUMP JUMPDEST DUP8 PUSH1 0x0 ADD MLOAD PUSH2 0x356B SWAP1 SWAP2 SWAP1 PUSH4 0xFFFFFFFF AND JUMP JUMPDEST PUSH2 0x35DB SWAP1 SWAP2 SWAP1 PUSH4 0xFFFFFFFF AND JUMP JUMPDEST SWAP1 POP PUSH2 0x11A0 DUP5 PUSH1 0x20 ADD MLOAD PUSH2 0x1192 PUSH8 0xDE0B6B3A7640000 PUSH2 0x1184 DUP8 DUP7 PUSH2 0x356B SWAP1 SWAP2 SWAP1 PUSH4 0xFFFFFFFF AND JUMP JUMPDEST PUSH2 0x35DB SWAP1 SWAP2 SWAP1 PUSH4 0xFFFFFFFF AND JUMP JUMPDEST PUSH2 0x3625 SWAP1 SWAP2 SWAP1 PUSH4 0xFFFFFFFF AND JUMP JUMPDEST SWAP6 POP POP POP POP POP POP SWAP3 SWAP2 POP POP JUMP JUMPDEST PUSH1 0x4 DUP2 DUP2 SLOAD DUP2 LT PUSH2 0x11BA JUMPI INVALID JUMPDEST SWAP1 PUSH1 0x0 MSTORE PUSH1 0x20 PUSH1 0x0 KECCAK256 SWAP1 PUSH1 0x5 MUL ADD PUSH1 0x0 SWAP2 POP SWAP1 POP DUP1 PUSH1 0x0 ADD SLOAD SWAP1 DUP1 PUSH1 0x1 ADD SLOAD SWAP1 DUP1 PUSH1 0x2 ADD SLOAD SWAP1 DUP1 PUSH1 0x3 ADD SLOAD SWAP1 DUP1 PUSH1 0x4 ADD PUSH1 0x0 SWAP1 SLOAD SWAP1 PUSH2 0x100 EXP SWAP1 DIV PUSH1 0xFF AND SWAP1 POP DUP6 JUMP JUMPDEST PUSH2 0x1205 PUSH2 0x36C4 JUMP JUMPDEST PUSH20 0xFFFFFFFFFFFFFFFFFFFFFFFFFFFFFFFFFFFFFFFF AND PUSH1 0x0 DUP1 SLOAD SWAP1 PUSH2 0x100 EXP SWAP1 DIV PUSH20 0xFFFFFFFFFFFFFFFFFFFFFFFFFFFFFFFFFFFFFFFF AND PUSH20 0xFFFFFFFFFFFFFFFFFFFFFFFFFFFFFFFFFFFFFFFF AND EQ PUSH2 0x1292 JUMPI PUSH1 0x40 MLOAD PUSH32 0x8C379A000000000000000000000000000000000000000000000000000000000 DUP2 MSTORE PUSH1 0x4 ADD PUSH2 0x1289 SWAP1 PUSH2 0x4CB7 JUMP JUMPDEST PUSH1 0x40 MLOAD DUP1 SWAP2 SUB SWAP1 REVERT JUMPDEST PUSH1 0x0 DUP2 PUSH20 0xFFFFFFFFFFFFFFFFFFFFFFFFFFFFFFFFFFFFFFFF AND PUSH4 0x70A08231 CALLER PUSH1 0x40 MLOAD DUP3 PUSH4 0xFFFFFFFF AND PUSH1 0xE0 SHL DUP2 MSTORE PUSH1 0x4 ADD PUSH2 0x12CD SWAP2 SWAP1 PUSH2 0x4A49 JUMP JUMPDEST PUSH1 0x20 PUSH1 0x40 MLOAD DUP1 DUP4 SUB DUP2 DUP7 DUP1 EXTCODESIZE ISZERO DUP1 ISZERO PUSH2 0x12E5 JUMPI PUSH1 0x0 DUP1 REVERT JUMPDEST POP GAS STATICCALL ISZERO DUP1 ISZERO PUSH2 0x12F9 JUMPI RETURNDATASIZE PUSH1 0x0 DUP1 RETURNDATACOPY RETURNDATASIZE PUSH1 0x0 REVERT JUMPDEST POP POP POP POP PUSH1 0x40 MLOAD RETURNDATASIZE PUSH1 0x1F NOT PUSH1 0x1F DUP3 ADD AND DUP3 ADD DUP1 PUSH1 0x40 MSTORE POP DUP2 ADD SWAP1 PUSH2 0x131D SWAP2 SWAP1 PUSH2 0x3EDC JUMP JUMPDEST SWAP1 POP PUSH1 0x0 DUP2 EQ ISZERO PUSH2 0x1363 JUMPI PUSH1 0x40 MLOAD PUSH32 0x8C379A000000000000000000000000000000000000000000000000000000000 DUP2 MSTORE PUSH1 0x4 ADD PUSH2 0x135A SWAP1 PUSH2 0x4B37 JUMP JUMPDEST PUSH1 0x40 MLOAD DUP1 SWAP2 SUB SWAP1 REVERT JUMPDEST PUSH2 0x1390 CALLER ADDRESS DUP4 DUP6 PUSH20 0xFFFFFFFFFFFFFFFFFFFFFFFFFFFFFFFFFFFFFFFF AND PUSH2 0x36CC SWAP1 SWAP4 SWAP3 SWAP2 SWAP1 PUSH4 0xFFFFFFFF AND JUMP JUMPDEST DUP2 PUSH20 0xFFFFFFFFFFFFFFFFFFFFFFFFFFFFFFFFFFFFFFFF AND PUSH4 0x95EA7B3 PUSH32 0x0 DUP4 PUSH1 0x40 MLOAD DUP4 PUSH4 0xFFFFFFFF AND PUSH1 0xE0 SHL DUP2 MSTORE PUSH1 0x4 ADD PUSH2 0x13EB SWAP3 SWAP2 SWAP1 PUSH2 0x4A9B JUMP JUMPDEST PUSH1 0x20 PUSH1 0x40 MLOAD DUP1 DUP4 SUB DUP2 PUSH1 0x0 DUP8 DUP1 EXTCODESIZE ISZERO DUP1 ISZERO PUSH2 0x1405 JUMPI PUSH1 0x0 DUP1 REVERT JUMPDEST POP GAS CALL ISZERO DUP1 ISZERO PUSH2 0x1419 JUMPI RETURNDATASIZE PUSH1 0x0 DUP1 RETURNDATACOPY RETURNDATASIZE PUSH1 0x0 REVERT JUMPDEST POP POP POP POP PUSH1 0x40 MLOAD RETURNDATASIZE PUSH1 0x1F NOT PUSH1 0x1F DUP3 ADD AND DUP3 ADD DUP1 PUSH1 0x40 MSTORE POP DUP2 ADD SWAP1 PUSH2 0x143D SWAP2 SWAP1 PUSH2 0x3E61 JUMP JUMPDEST POP PUSH32 0x0 PUSH20 0xFFFFFFFFFFFFFFFFFFFFFFFFFFFFFFFFFFFFFFFF AND PUSH4 0xE2BBB158 PUSH32 0x0 DUP4 PUSH1 0x40 MLOAD DUP4 PUSH4 0xFFFFFFFF AND PUSH1 0xE0 SHL DUP2 MSTORE PUSH1 0x4 ADD PUSH2 0x14B9 SWAP3 SWAP2 SWAP1 PUSH2 0x4E7F JUMP JUMPDEST PUSH1 0x0 PUSH1 0x40 MLOAD DUP1 DUP4 SUB DUP2 PUSH1 0x0 DUP8 DUP1 EXTCODESIZE ISZERO DUP1 ISZERO PUSH2 0x14D3 JUMPI PUSH1 0x0 DUP1 REVERT JUMPDEST POP GAS CALL ISZERO DUP1 ISZERO PUSH2 0x14E7 JUMPI RETURNDATASIZE PUSH1 0x0 DUP1 RETURNDATACOPY RETURNDATASIZE PUSH1 0x0 REVERT JUMPDEST POP POP POP POP NUMBER PUSH1 0xD DUP2 SWAP1 SSTORE POP PUSH32 0x57A86F7D14CCDE89E22870AFE839E3011216827DAA9B24E18629F0A1E9D6CC14 PUSH1 0x40 MLOAD PUSH1 0x40 MLOAD DUP1 SWAP2 SUB SWAP1 LOG1 POP POP JUMP JUMPDEST PUSH1 0xC SLOAD DUP2 JUMP JUMPDEST PUSH1 0x0 DUP2 ISZERO PUSH2 0x156C JUMPI PUSH2 0x1565 PUSH5 0xE8D4A51000 PUSH2 0x1557 PUSH1 0xB SLOAD PUSH9 0x22B1C8C1227A00000 PUSH2 0x356B SWAP1 SWAP2 SWAP1 PUSH4 0xFFFFFFFF AND JUMP JUMPDEST PUSH2 0x35DB SWAP1 SWAP2 SWAP1 PUSH4 0xFFFFFFFF AND JUMP JUMPDEST SWAP1 POP PUSH2 0x15A4 JUMP JUMPDEST PUSH2 0x15A1 PUSH5 0xE8D4A51000 PUSH2 0x1593 PUSH1 0xC SLOAD PUSH9 0x22B1C8C1227A00000 PUSH2 0x356B SWAP1 SWAP2 SWAP1 PUSH4 0xFFFFFFFF AND JUMP JUMPDEST PUSH2 0x35DB SWAP1 SWAP2 SWAP1 PUSH4 0xFFFFFFFF AND JUMP JUMPDEST SWAP1 POP JUMPDEST SWAP2 SWAP1 POP JUMP JUMPDEST PUSH1 0x7 PUSH1 0x20 MSTORE DUP1 PUSH1 0x0 MSTORE PUSH1 0x40 PUSH1 0x0 KECCAK256 PUSH1 0x0 SWAP2 POP SLOAD SWAP1 PUSH2 0x100 EXP SWAP1 DIV PUSH1 0xFF AND DUP2 JUMP JUMPDEST PUSH9 0x22B1C8C1227A00000 DUP2 JUMP JUMPDEST PUSH1 0x2 PUSH1 0x1 SLOAD EQ ISZERO PUSH2 0x161C JUMPI PUSH1 0x40 MLOAD PUSH32 0x8C379A000000000000000000000000000000000000000000000000000000000 DUP2 MSTORE PUSH1 0x4 ADD PUSH2 0x1613 SWAP1 PUSH2 0x4D97 JUMP JUMPDEST PUSH1 0x40 MLOAD DUP1 SWAP2 SUB SWAP1 REVERT JUMPDEST PUSH1 0x2 PUSH1 0x1 DUP2 SWAP1 SSTORE POP PUSH2 0x162C PUSH2 0x3C78 JUMP JUMPDEST PUSH2 0x1635 DUP4 PUSH2 0x1989 JUMP JUMPDEST SWAP1 POP PUSH1 0x0 PUSH1 0x6 PUSH1 0x0 DUP6 DUP2 MSTORE PUSH1 0x20 ADD SWAP1 DUP2 MSTORE PUSH1 0x20 ADD PUSH1 0x0 KECCAK256 PUSH1 0x0 CALLER PUSH20 0xFFFFFFFFFFFFFFFFFFFFFFFFFFFFFFFFFFFFFFFF AND PUSH20 0xFFFFFFFFFFFFFFFFFFFFFFFFFFFFFFFFFFFFFFFF AND DUP2 MSTORE PUSH1 0x20 ADD SWAP1 DUP2 MSTORE PUSH1 0x20 ADD PUSH1 0x0 KECCAK256 SWAP1 POP DUP3 DUP2 PUSH1 0x0 ADD SLOAD LT ISZERO PUSH2 0x16D2 JUMPI PUSH1 0x40 MLOAD PUSH32 0x8C379A000000000000000000000000000000000000000000000000000000000 DUP2 MSTORE PUSH1 0x4 ADD PUSH2 0x16C9 SWAP1 PUSH2 0x4C77 JUMP JUMPDEST PUSH1 0x40 MLOAD DUP1 SWAP2 SUB SWAP1 REVERT JUMPDEST PUSH1 0x0 PUSH2 0x16DE CALLER DUP7 PUSH2 0x7B8 JUMP JUMPDEST SWAP1 POP PUSH2 0x16EB CALLER DUP7 DUP4 PUSH2 0x3439 JUMP JUMPDEST PUSH1 0x0 DUP5 GT ISZERO PUSH2 0x1776 JUMPI PUSH2 0x170B DUP5 DUP4 PUSH1 0x0 ADD SLOAD PUSH2 0x3625 SWAP1 SWAP2 SWAP1 PUSH4 0xFFFFFFFF AND JUMP JUMPDEST DUP3 PUSH1 0x0 ADD DUP2 SWAP1 SSTORE POP PUSH2 0x1775 CALLER DUP6 PUSH1 0x5 DUP9 DUP2 SLOAD DUP2 LT PUSH2 0x1725 JUMPI INVALID JUMPDEST SWAP1 PUSH1 0x0 MSTORE PUSH1 0x20 PUSH1 0x0 KECCAK256 ADD PUSH1 0x0 SWAP1 SLOAD SWAP1 PUSH2 0x100 EXP SWAP1 DIV PUSH20 0xFFFFFFFFFFFFFFFFFFFFFFFFFFFFFFFFFFFFFFFF AND PUSH20 0xFFFFFFFFFFFFFFFFFFFFFFFFFFFFFFFFFFFFFFFF AND PUSH2 0x3755 SWAP1 SWAP3 SWAP2 SWAP1 PUSH4 0xFFFFFFFF AND JUMP JUMPDEST JUMPDEST PUSH2 0x17D4 PUSH8 0xDE0B6B3A7640000 PUSH2 0x17C6 DUP6 PUSH1 0x0 ADD MLOAD PUSH2 0x17B8 PUSH5 0xE8D4A51000 PUSH2 0x17AA DUP8 DUP10 PUSH1 0x0 ADD SLOAD PUSH2 0x356B SWAP1 SWAP2 SWAP1 PUSH4 0xFFFFFFFF AND JUMP JUMPDEST PUSH2 0x35DB SWAP1 SWAP2 SWAP1 PUSH4 0xFFFFFFFF AND JUMP JUMPDEST PUSH2 0x356B SWAP1 SWAP2 SWAP1 PUSH4 0xFFFFFFFF AND JUMP JUMPDEST PUSH2 0x35DB SWAP1 SWAP2 SWAP1 PUSH4 0xFFFFFFFF AND JUMP JUMPDEST DUP3 PUSH1 0x1 ADD DUP2 SWAP1 SSTORE POP PUSH2 0x1836 PUSH2 0x1809 PUSH5 0xE8D4A51000 PUSH2 0x17FB DUP5 DUP9 PUSH2 0x356B SWAP1 SWAP2 SWAP1 PUSH4 0xFFFFFFFF AND JUMP JUMPDEST PUSH2 0x35DB SWAP1 SWAP2 SWAP1 PUSH4 0xFFFFFFFF AND JUMP JUMPDEST PUSH1 0x4 DUP8 DUP2 SLOAD DUP2 LT PUSH2 0x1816 JUMPI INVALID JUMPDEST SWAP1 PUSH1 0x0 MSTORE PUSH1 0x20 PUSH1 0x0 KECCAK256 SWAP1 PUSH1 0x5 MUL ADD PUSH1 0x3 ADD SLOAD PUSH2 0x3625 SWAP1 SWAP2 SWAP1 PUSH4 0xFFFFFFFF AND JUMP JUMPDEST PUSH1 0x4 DUP7 DUP2 SLOAD DUP2 LT PUSH2 0x1843 JUMPI INVALID JUMPDEST SWAP1 PUSH1 0x0 MSTORE PUSH1 0x20 PUSH1 0x0 KECCAK256 SWAP1 PUSH1 0x5 MUL ADD PUSH1 0x3 ADD DUP2 SWAP1 SSTORE POP DUP5 CALLER PUSH20 0xFFFFFFFFFFFFFFFFFFFFFFFFFFFFFFFFFFFFFFFF AND PUSH32 0xF279E6A1F5E320CCA91135676D9CB6E44CA8A08C0B88342BCDB1144F6511B568 DUP7 PUSH1 0x40 MLOAD PUSH2 0x189F SWAP2 SWAP1 PUSH2 0x4E12 JUMP JUMPDEST PUSH1 0x40 MLOAD DUP1 SWAP2 SUB SWAP1 LOG3 POP POP POP PUSH1 0x1 DUP1 DUP2 SWAP1 SSTORE POP POP POP JUMP JUMPDEST PUSH32 0x0 DUP2 JUMP JUMPDEST PUSH32 0x0 PUSH20 0xFFFFFFFFFFFFFFFFFFFFFFFFFFFFFFFFFFFFFFFF AND PUSH4 0xE2BBB158 PUSH32 0x0 PUSH1 0x0 PUSH1 0x40 MLOAD DUP4 PUSH4 0xFFFFFFFF AND PUSH1 0xE0 SHL DUP2 MSTORE PUSH1 0x4 ADD PUSH2 0x1955 SWAP3 SWAP2 SWAP1 PUSH2 0x4E56 JUMP JUMPDEST PUSH1 0x0 PUSH1 0x40 MLOAD DUP1 DUP4 SUB DUP2 PUSH1 0x0 DUP8 DUP1 EXTCODESIZE ISZERO DUP1 ISZERO PUSH2 0x196F JUMPI PUSH1 0x0 DUP1 REVERT JUMPDEST POP GAS CALL ISZERO DUP1 ISZERO PUSH2 0x1983 JUMPI RETURNDATASIZE PUSH1 0x0 DUP1 RETURNDATACOPY RETURNDATASIZE PUSH1 0x0 REVERT JUMPDEST POP POP POP POP JUMP JUMPDEST PUSH2 0x1991 PUSH2 0x3C78 JUMP JUMPDEST PUSH1 0x4 DUP3 DUP2 SLOAD DUP2 LT PUSH2 0x199E JUMPI INVALID JUMPDEST SWAP1 PUSH1 0x0 MSTORE PUSH1 0x20 PUSH1 0x0 KECCAK256 SWAP1 PUSH1 0x5 MUL ADD PUSH1 0x40 MLOAD DUP1 PUSH1 0xA0 ADD PUSH1 0x40 MSTORE SWAP1 DUP2 PUSH1 0x0 DUP3 ADD SLOAD DUP2 MSTORE PUSH1 0x20 ADD PUSH1 0x1 DUP3 ADD SLOAD DUP2 MSTORE PUSH1 0x20 ADD PUSH1 0x2 DUP3 ADD SLOAD DUP2 MSTORE PUSH1 0x20 ADD PUSH1 0x3 DUP3 ADD SLOAD DUP2 MSTORE PUSH1 0x20 ADD PUSH1 0x4 DUP3 ADD PUSH1 0x0 SWAP1 SLOAD SWAP1 PUSH2 0x100 EXP SWAP1 DIV PUSH1 0xFF AND ISZERO ISZERO ISZERO ISZERO DUP2 MSTORE POP POP SWAP1 POP DUP1 PUSH1 0x20 ADD MLOAD NUMBER GT ISZERO PUSH2 0x1BAC JUMPI PUSH1 0x0 DUP2 PUSH1 0x60 ADD MLOAD SWAP1 POP PUSH1 0x0 DUP3 PUSH1 0x80 ADD MLOAD PUSH2 0x1A24 JUMPI PUSH1 0x9 SLOAD PUSH2 0x1A28 JUMP JUMPDEST PUSH1 0x8 SLOAD JUMPDEST SWAP1 POP PUSH1 0x0 DUP3 GT DUP1 ISZERO PUSH2 0x1A3A JUMPI POP PUSH1 0x0 DUP2 GT JUMPDEST ISZERO PUSH2 0x1AF4 JUMPI PUSH1 0x0 PUSH2 0x1A58 DUP5 PUSH1 0x20 ADD MLOAD NUMBER PUSH2 0x3625 SWAP1 SWAP2 SWAP1 PUSH4 0xFFFFFFFF AND JUMP JUMPDEST SWAP1 POP PUSH1 0x0 PUSH2 0x1AA3 DUP4 PUSH2 0x1A95 DUP8 PUSH1 0x40 ADD MLOAD PUSH2 0x1A87 PUSH2 0x1A78 DUP11 PUSH1 0x80 ADD MLOAD PUSH2 0x1528 JUMP JUMPDEST DUP8 PUSH2 0x356B SWAP1 SWAP2 SWAP1 PUSH4 0xFFFFFFFF AND JUMP JUMPDEST PUSH2 0x356B SWAP1 SWAP2 SWAP1 PUSH4 0xFFFFFFFF AND JUMP JUMPDEST PUSH2 0x35DB SWAP1 SWAP2 SWAP1 PUSH4 0xFFFFFFFF AND JUMP JUMPDEST SWAP1 POP PUSH2 0x1AE8 PUSH2 0x1AD5 DUP6 PUSH2 0x1AC7 PUSH8 0xDE0B6B3A7640000 DUP6 PUSH2 0x356B SWAP1 SWAP2 SWAP1 PUSH4 0xFFFFFFFF AND JUMP JUMPDEST PUSH2 0x35DB SWAP1 SWAP2 SWAP1 PUSH4 0xFFFFFFFF AND JUMP JUMPDEST DUP7 PUSH1 0x0 ADD MLOAD PUSH2 0x366F SWAP1 SWAP2 SWAP1 PUSH4 0xFFFFFFFF AND JUMP JUMPDEST DUP6 PUSH1 0x0 ADD DUP2 DUP2 MSTORE POP POP POP POP JUMPDEST NUMBER DUP4 PUSH1 0x20 ADD DUP2 DUP2 MSTORE POP POP DUP3 PUSH1 0x4 DUP6 DUP2 SLOAD DUP2 LT PUSH2 0x1B0C JUMPI INVALID JUMPDEST SWAP1 PUSH1 0x0 MSTORE PUSH1 0x20 PUSH1 0x0 KECCAK256 SWAP1 PUSH1 0x5 MUL ADD PUSH1 0x0 DUP3 ADD MLOAD DUP2 PUSH1 0x0 ADD SSTORE PUSH1 0x20 DUP3 ADD MLOAD DUP2 PUSH1 0x1 ADD SSTORE PUSH1 0x40 DUP3 ADD MLOAD DUP2 PUSH1 0x2 ADD SSTORE PUSH1 0x60 DUP3 ADD MLOAD DUP2 PUSH1 0x3 ADD SSTORE PUSH1 0x80 DUP3 ADD MLOAD DUP2 PUSH1 0x4 ADD PUSH1 0x0 PUSH2 0x100 EXP DUP2 SLOAD DUP2 PUSH1 0xFF MUL NOT AND SWAP1 DUP4 ISZERO ISZERO MUL OR SWAP1 SSTORE POP SWAP1 POP POP DUP4 PUSH32 0x3BE3541FC42237D611B30329040BFA4569541D156560ACDBBAE57640D20B8F46 DUP5 PUSH1 0x20 ADD MLOAD DUP5 DUP7 PUSH1 0x0 ADD MLOAD PUSH1 0x40 MLOAD PUSH2 0x1BA1 SWAP4 SWAP3 SWAP2 SWAP1 PUSH2 0x4EA8 JUMP JUMPDEST PUSH1 0x40 MLOAD DUP1 SWAP2 SUB SWAP1 LOG2 POP POP JUMPDEST SWAP2 SWAP1 POP JUMP JUMPDEST PUSH1 0x2 PUSH1 0x1 SLOAD EQ ISZERO PUSH2 0x1BF7 JUMPI PUSH1 0x40 MLOAD PUSH32 0x8C379A000000000000000000000000000000000000000000000000000000000 DUP2 MSTORE PUSH1 0x4 ADD PUSH2 0x1BEE SWAP1 PUSH2 0x4D97 JUMP JUMPDEST PUSH1 0x40 MLOAD DUP1 SWAP2 SUB SWAP1 REVERT JUMPDEST PUSH1 0x2 PUSH1 0x1 DUP2 SWAP1 SSTORE POP PUSH1 0x0 PUSH1 0x4 DUP3 DUP2 SLOAD DUP2 LT PUSH2 0x1C0E JUMPI INVALID JUMPDEST SWAP1 PUSH1 0x0 MSTORE PUSH1 0x20 PUSH1 0x0 KECCAK256 SWAP1 PUSH1 0x5 MUL ADD SWAP1 POP PUSH1 0x0 PUSH1 0x6 PUSH1 0x0 DUP5 DUP2 MSTORE PUSH1 0x20 ADD SWAP1 DUP2 MSTORE PUSH1 0x20 ADD PUSH1 0x0 KECCAK256 PUSH1 0x0 CALLER PUSH20 0xFFFFFFFFFFFFFFFFFFFFFFFFFFFFFFFFFFFFFFFF AND PUSH20 0xFFFFFFFFFFFFFFFFFFFFFFFFFFFFFFFFFFFFFFFF AND DUP2 MSTORE PUSH1 0x20 ADD SWAP1 DUP2 MSTORE PUSH1 0x20 ADD PUSH1 0x0 KECCAK256 SWAP1 POP PUSH1 0x0 DUP2 PUSH1 0x0 ADD SLOAD SWAP1 POP PUSH1 0x0 DUP3 PUSH1 0x0 ADD DUP2 SWAP1 SSTORE POP PUSH1 0x0 DUP3 PUSH1 0x1 ADD DUP2 SWAP1 SSTORE POP PUSH1 0x0 PUSH2 0x1CC4 PUSH5 0xE8D4A51000 PUSH2 0x1CB6 PUSH2 0x1CA7 CALLER DUP10 PUSH2 0x7B8 JUMP JUMPDEST DUP6 PUSH2 0x356B SWAP1 SWAP2 SWAP1 PUSH4 0xFFFFFFFF AND JUMP JUMPDEST PUSH2 0x35DB SWAP1 SWAP2 SWAP1 PUSH4 0xFFFFFFFF AND JUMP JUMPDEST SWAP1 POP DUP1 DUP5 PUSH1 0x3 ADD SLOAD GT PUSH2 0x1CD8 JUMPI PUSH1 0x0 PUSH2 0x1CF0 JUMP JUMPDEST PUSH2 0x1CEF DUP2 DUP6 PUSH1 0x3 ADD SLOAD PUSH2 0x3625 SWAP1 SWAP2 SWAP1 PUSH4 0xFFFFFFFF AND JUMP JUMPDEST JUMPDEST DUP5 PUSH1 0x3 ADD DUP2 SWAP1 SSTORE POP PUSH2 0x1D5A CALLER DUP4 PUSH1 0x5 DUP9 DUP2 SLOAD DUP2 LT PUSH2 0x1D0A JUMPI INVALID JUMPDEST SWAP1 PUSH1 0x0 MSTORE PUSH1 0x20 PUSH1 0x0 KECCAK256 ADD PUSH1 0x0 SWAP1 SLOAD SWAP1 PUSH2 0x100 EXP SWAP1 DIV PUSH20 0xFFFFFFFFFFFFFFFFFFFFFFFFFFFFFFFFFFFFFFFF AND PUSH20 0xFFFFFFFFFFFFFFFFFFFFFFFFFFFFFFFFFFFFFFFF AND PUSH2 0x3755 SWAP1 SWAP3 SWAP2 SWAP1 PUSH4 0xFFFFFFFF AND JUMP JUMPDEST DUP5 CALLER PUSH20 0xFFFFFFFFFFFFFFFFFFFFFFFFFFFFFFFFFFFFFFFF AND PUSH32 0xBB757047C2B5F3974FE26B7C10F732E7BCE710B0952A71082702781E62AE0595 DUP5 PUSH1 0x40 MLOAD PUSH2 0x1DA1 SWAP2 SWAP1 PUSH2 0x4E12 JUMP JUMPDEST PUSH1 0x40 MLOAD DUP1 SWAP2 SUB SWAP1 LOG3 POP POP POP POP PUSH1 0x1 DUP1 DUP2 SWAP1 SSTORE POP POP JUMP JUMPDEST PUSH32 0x0 DUP2 JUMP JUMPDEST PUSH1 0x0 PUSH1 0x4 DUP1 SLOAD SWAP1 POP SWAP1 POP PUSH1 0x0 JUMPDEST DUP2 DUP2 LT ISZERO PUSH2 0x1E86 JUMPI PUSH2 0x1DF8 PUSH2 0x3C78 JUMP JUMPDEST PUSH1 0x4 DUP3 DUP2 SLOAD DUP2 LT PUSH2 0x1E05 JUMPI INVALID JUMPDEST SWAP1 PUSH1 0x0 MSTORE PUSH1 0x20 PUSH1 0x0 KECCAK256 SWAP1 PUSH1 0x5 MUL ADD PUSH1 0x40 MLOAD DUP1 PUSH1 0xA0 ADD PUSH1 0x40 MSTORE SWAP1 DUP2 PUSH1 0x0 DUP3 ADD SLOAD DUP2 MSTORE PUSH1 0x20 ADD PUSH1 0x1 DUP3 ADD SLOAD DUP2 MSTORE PUSH1 0x20 ADD PUSH1 0x2 DUP3 ADD SLOAD DUP2 MSTORE PUSH1 0x20 ADD PUSH1 0x3 DUP3 ADD SLOAD DUP2 MSTORE PUSH1 0x20 ADD PUSH1 0x4 DUP3 ADD PUSH1 0x0 SWAP1 SLOAD SWAP1 PUSH2 0x100 EXP SWAP1 DIV PUSH1 0xFF AND ISZERO ISZERO ISZERO ISZERO DUP2 MSTORE POP POP SWAP1 POP PUSH1 0x0 DUP2 PUSH1 0x40 ADD MLOAD EQ PUSH2 0x1E7A JUMPI PUSH2 0x1E78 DUP3 PUSH2 0x1989 JUMP JUMPDEST POP JUMPDEST POP DUP1 PUSH1 0x1 ADD SWAP1 POP PUSH2 0x1DE8 JUMP JUMPDEST POP POP JUMP JUMPDEST PUSH2 0x1E92 PUSH2 0x36C4 JUMP JUMPDEST PUSH20 0xFFFFFFFFFFFFFFFFFFFFFFFFFFFFFFFFFFFFFFFF AND PUSH1 0x0 DUP1 SLOAD SWAP1 PUSH2 0x100 EXP SWAP1 DIV PUSH20 0xFFFFFFFFFFFFFFFFFFFFFFFFFFFFFFFFFFFFFFFF AND PUSH20 0xFFFFFFFFFFFFFFFFFFFFFFFFFFFFFFFFFFFFFFFF AND EQ PUSH2 0x1F1F JUMPI PUSH1 0x40 MLOAD PUSH32 0x8C379A000000000000000000000000000000000000000000000000000000000 DUP2 MSTORE PUSH1 0x4 ADD PUSH2 0x1F16 SWAP1 PUSH2 0x4CB7 JUMP JUMPDEST PUSH1 0x40 MLOAD DUP1 SWAP2 SUB SWAP1 REVERT JUMPDEST PUSH2 0x1F28 DUP4 PUSH2 0x1989 JUMP JUMPDEST POP DUP1 ISZERO PUSH2 0x1F38 JUMPI PUSH2 0x1F37 PUSH2 0x1DDB JUMP JUMPDEST JUMPDEST PUSH1 0x4 DUP4 DUP2 SLOAD DUP2 LT PUSH2 0x1F45 JUMPI INVALID JUMPDEST SWAP1 PUSH1 0x0 MSTORE PUSH1 0x20 PUSH1 0x0 KECCAK256 SWAP1 PUSH1 0x5 MUL ADD PUSH1 0x4 ADD PUSH1 0x0 SWAP1 SLOAD SWAP1 PUSH2 0x100 EXP SWAP1 DIV PUSH1 0xFF AND ISZERO PUSH2 0x1FB9 JUMPI PUSH2 0x1FAE DUP3 PUSH2 0x1FA0 PUSH1 0x4 DUP7 DUP2 SLOAD DUP2 LT PUSH2 0x1F7D JUMPI INVALID JUMPDEST SWAP1 PUSH1 0x0 MSTORE PUSH1 0x20 PUSH1 0x0 KECCAK256 SWAP1 PUSH1 0x5 MUL ADD PUSH1 0x2 ADD SLOAD PUSH1 0x8 SLOAD PUSH2 0x3625 SWAP1 SWAP2 SWAP1 PUSH4 0xFFFFFFFF AND JUMP JUMPDEST PUSH2 0x366F SWAP1 SWAP2 SWAP1 PUSH4 0xFFFFFFFF AND JUMP JUMPDEST PUSH1 0x8 DUP2 SWAP1 SSTORE POP PUSH2 0x2005 JUMP JUMPDEST PUSH2 0x1FFE DUP3 PUSH2 0x1FF0 PUSH1 0x4 DUP7 DUP2 SLOAD DUP2 LT PUSH2 0x1FCD JUMPI INVALID JUMPDEST SWAP1 PUSH1 0x0 MSTORE PUSH1 0x20 PUSH1 0x0 KECCAK256 SWAP1 PUSH1 0x5 MUL ADD PUSH1 0x2 ADD SLOAD PUSH1 0x9 SLOAD PUSH2 0x3625 SWAP1 SWAP2 SWAP1 PUSH4 0xFFFFFFFF AND JUMP JUMPDEST PUSH2 0x366F SWAP1 SWAP2 SWAP1 PUSH4 0xFFFFFFFF AND JUMP JUMPDEST PUSH1 0x9 DUP2 SWAP1 SSTORE POP JUMPDEST DUP2 PUSH1 0x4 DUP5 DUP2 SLOAD DUP2 LT PUSH2 0x2013 JUMPI INVALID JUMPDEST SWAP1 PUSH1 0x0 MSTORE PUSH1 0x20 PUSH1 0x0 KECCAK256 SWAP1 PUSH1 0x5 MUL ADD PUSH1 0x2 ADD DUP2 SWAP1 SSTORE POP DUP3 PUSH32 0xC0CFD54D2DE2B55F1E6E108D3EC53FF0A1ABE6055401D32C61E9433B747EF9F8 DUP4 PUSH1 0x40 MLOAD PUSH2 0x2058 SWAP2 SWAP1 PUSH2 0x4E12 JUMP JUMPDEST PUSH1 0x40 MLOAD DUP1 SWAP2 SUB SWAP1 LOG2 POP POP POP JUMP JUMPDEST PUSH6 0x1D1A94A2000 DUP2 JUMP JUMPDEST PUSH2 0x2077 PUSH2 0x36C4 JUMP JUMPDEST PUSH20 0xFFFFFFFFFFFFFFFFFFFFFFFFFFFFFFFFFFFFFFFF AND PUSH1 0x0 DUP1 SLOAD SWAP1 PUSH2 0x100 EXP SWAP1 DIV PUSH20 0xFFFFFFFFFFFFFFFFFFFFFFFFFFFFFFFFFFFFFFFF AND PUSH20 0xFFFFFFFFFFFFFFFFFFFFFFFFFFFFFFFFFFFFFFFF AND EQ PUSH2 0x2104 JUMPI PUSH1 0x40 MLOAD PUSH32 0x8C379A000000000000000000000000000000000000000000000000000000000 DUP2 MSTORE PUSH1 0x4 ADD PUSH2 0x20FB SWAP1 PUSH2 0x4CB7 JUMP JUMPDEST PUSH1 0x40 MLOAD DUP1 SWAP2 SUB SWAP1 REVERT JUMPDEST PUSH1 0x0 PUSH20 0xFFFFFFFFFFFFFFFFFFFFFFFFFFFFFFFFFFFFFFFF AND PUSH1 0x0 DUP1 SLOAD SWAP1 PUSH2 0x100 EXP SWAP1 DIV PUSH20 0xFFFFFFFFFFFFFFFFFFFFFFFFFFFFFFFFFFFFFFFF AND PUSH20 0xFFFFFFFFFFFFFFFFFFFFFFFFFFFFFFFFFFFFFFFF AND PUSH32 0x8BE0079C531659141344CD1FD0A4F28419497F9722A3DAAFE3B4186F6B6457E0 PUSH1 0x40 MLOAD PUSH1 0x40 MLOAD DUP1 SWAP2 SUB SWAP1 LOG3 PUSH1 0x0 DUP1 PUSH1 0x0 PUSH2 0x100 EXP DUP2 SLOAD DUP2 PUSH20 0xFFFFFFFFFFFFFFFFFFFFFFFFFFFFFFFFFFFFFFFF MUL NOT AND SWAP1 DUP4 PUSH20 0xFFFFFFFFFFFFFFFFFFFFFFFFFFFFFFFFFFFFFFFF AND MUL OR SWAP1 SSTORE POP JUMP JUMPDEST PUSH8 0xDE0B6B3A7640000 DUP2 JUMP JUMPDEST PUSH2 0x21D6 PUSH2 0x36C4 JUMP JUMPDEST PUSH20 0xFFFFFFFFFFFFFFFFFFFFFFFFFFFFFFFFFFFFFFFF AND PUSH1 0x0 DUP1 SLOAD SWAP1 PUSH2 0x100 EXP SWAP1 DIV PUSH20 0xFFFFFFFFFFFFFFFFFFFFFFFFFFFFFFFFFFFFFFFF AND PUSH20 0xFFFFFFFFFFFFFFFFFFFFFFFFFFFFFFFFFFFFFFFF AND EQ PUSH2 0x2263 JUMPI PUSH1 0x40 MLOAD PUSH32 0x8C379A000000000000000000000000000000000000000000000000000000000 DUP2 MSTORE PUSH1 0x4 ADD PUSH2 0x225A SWAP1 PUSH2 0x4CB7 JUMP JUMPDEST PUSH1 0x40 MLOAD DUP1 SWAP2 SUB SWAP1 REVERT JUMPDEST DUP1 ISZERO PUSH2 0x2272 JUMPI PUSH2 0x2271 PUSH2 0x1DDB JUMP JUMPDEST JUMPDEST PUSH1 0x0 PUSH2 0x2289 PUSH1 0xD SLOAD NUMBER PUSH2 0x3625 SWAP1 SWAP2 SWAP1 PUSH4 0xFFFFFFFF AND JUMP JUMPDEST SWAP1 POP PUSH1 0x0 PUSH2 0x22A7 PUSH2 0x2298 PUSH2 0x23AF JUMP JUMPDEST DUP4 PUSH2 0x356B SWAP1 SWAP2 SWAP1 PUSH4 0xFFFFFFFF AND JUMP JUMPDEST SWAP1 POP PUSH2 0x22D5 PUSH1 0x2 PUSH1 0x0 SWAP1 SLOAD SWAP1 PUSH2 0x100 EXP SWAP1 DIV PUSH20 0xFFFFFFFFFFFFFFFFFFFFFFFFFFFFFFFFFFFFFFFF AND DUP3 PUSH2 0x37DB JUMP JUMPDEST NUMBER PUSH1 0xD DUP2 SWAP1 SSTORE POP POP POP POP JUMP JUMPDEST PUSH1 0xD SLOAD DUP2 JUMP JUMPDEST PUSH1 0x5 DUP2 DUP2 SLOAD DUP2 LT PUSH2 0x22F4 JUMPI INVALID JUMPDEST SWAP1 PUSH1 0x0 MSTORE PUSH1 0x20 PUSH1 0x0 KECCAK256 ADD PUSH1 0x0 SWAP2 POP SLOAD SWAP1 PUSH2 0x100 EXP SWAP1 DIV PUSH20 0xFFFFFFFFFFFFFFFFFFFFFFFFFFFFFFFFFFFFFFFF AND DUP2 JUMP JUMPDEST PUSH1 0x2 PUSH1 0x0 SWAP1 SLOAD SWAP1 PUSH2 0x100 EXP SWAP1 DIV PUSH20 0xFFFFFFFFFFFFFFFFFFFFFFFFFFFFFFFFFFFFFFFF AND DUP2 JUMP JUMPDEST PUSH1 0x0 DUP1 PUSH1 0x0 SWAP1 SLOAD SWAP1 PUSH2 0x100 EXP SWAP1 DIV PUSH20 0xFFFFFFFFFFFFFFFFFFFFFFFFFFFFFFFFFFFFFFFF AND SWAP1 POP SWAP1 JUMP JUMPDEST PUSH1 0x6 PUSH1 0x20 MSTORE DUP2 PUSH1 0x0 MSTORE PUSH1 0x40 PUSH1 0x0 KECCAK256 PUSH1 0x20 MSTORE DUP1 PUSH1 0x0 MSTORE PUSH1 0x40 PUSH1 0x0 KECCAK256 PUSH1 0x0 SWAP2 POP SWAP2 POP POP DUP1 PUSH1 0x0 ADD SLOAD SWAP1 DUP1 PUSH1 0x1 ADD SLOAD SWAP1 DUP1 PUSH1 0x2 ADD SLOAD SWAP1 POP DUP4 JUMP JUMPDEST PUSH1 0x9 SLOAD DUP2 JUMP JUMPDEST PUSH1 0x0 PUSH2 0x23E6 PUSH5 0xE8D4A51000 PUSH2 0x23D8 PUSH1 0xA SLOAD PUSH9 0x22B1C8C1227A00000 PUSH2 0x356B SWAP1 SWAP2 SWAP1 PUSH4 0xFFFFFFFF AND JUMP JUMPDEST PUSH2 0x35DB SWAP1 SWAP2 SWAP1 PUSH4 0xFFFFFFFF AND JUMP JUMPDEST SWAP1 POP SWAP1 JUMP JUMPDEST PUSH2 0x23F3 PUSH2 0x36C4 JUMP JUMPDEST PUSH20 0xFFFFFFFFFFFFFFFFFFFFFFFFFFFFFFFFFFFFFFFF AND PUSH1 0x0 DUP1 SLOAD SWAP1 PUSH2 0x100 EXP SWAP1 DIV PUSH20 0xFFFFFFFFFFFFFFFFFFFFFFFFFFFFFFFFFFFFFFFF AND PUSH20 0xFFFFFFFFFFFFFFFFFFFFFFFFFFFFFFFFFFFFFFFF AND EQ PUSH2 0x2480 JUMPI PUSH1 0x40 MLOAD PUSH32 0x8C379A000000000000000000000000000000000000000000000000000000000 DUP2 MSTORE PUSH1 0x4 ADD PUSH2 0x2477 SWAP1 PUSH2 0x4CB7 JUMP JUMPDEST PUSH1 0x40 MLOAD DUP1 SWAP2 SUB SWAP1 REVERT JUMPDEST PUSH1 0x0 PUSH20 0xFFFFFFFFFFFFFFFFFFFFFFFFFFFFFFFFFFFFFFFF AND DUP2 PUSH20 0xFFFFFFFFFFFFFFFFFFFFFFFFFFFFFFFFFFFFFFFF AND EQ ISZERO DUP1 ISZERO PUSH2 0x250B JUMPI POP PUSH1 0x3 PUSH1 0x0 SWAP1 SLOAD SWAP1 PUSH2 0x100 EXP SWAP1 DIV PUSH20 0xFFFFFFFFFFFFFFFFFFFFFFFFFFFFFFFFFFFFFFFF AND PUSH20 0xFFFFFFFFFFFFFFFFFFFFFFFFFFFFFFFFFFFFFFFF AND DUP2 PUSH20 0xFFFFFFFFFFFFFFFFFFFFFFFFFFFFFFFFFFFFFFFF AND EQ ISZERO JUMPDEST PUSH2 0x254A JUMPI PUSH1 0x40 MLOAD PUSH32 0x8C379A000000000000000000000000000000000000000000000000000000000 DUP2 MSTORE PUSH1 0x4 ADD PUSH2 0x2541 SWAP1 PUSH2 0x4DD7 JUMP JUMPDEST PUSH1 0x40 MLOAD DUP1 SWAP2 SUB SWAP1 REVERT JUMPDEST DUP1 PUSH1 0x3 PUSH1 0x0 PUSH2 0x100 EXP DUP2 SLOAD DUP2 PUSH20 0xFFFFFFFFFFFFFFFFFFFFFFFFFFFFFFFFFFFFFFFF MUL NOT AND SWAP1 DUP4 PUSH20 0xFFFFFFFFFFFFFFFFFFFFFFFFFFFFFFFFFFFFFFFF AND MUL OR SWAP1 SSTORE POP DUP1 PUSH20 0xFFFFFFFFFFFFFFFFFFFFFFFFFFFFFFFFFFFFFFFF AND PUSH32 0x4C0C07D0B548B824A1B998EB4D11FCCF1CFBC1E47EDCDB309970BA88315EB303 PUSH1 0x40 MLOAD PUSH1 0x40 MLOAD DUP1 SWAP2 SUB SWAP1 LOG2 POP JUMP JUMPDEST PUSH1 0xB SLOAD DUP2 JUMP JUMPDEST PUSH2 0x25DF PUSH2 0x36C4 JUMP JUMPDEST PUSH20 0xFFFFFFFFFFFFFFFFFFFFFFFFFFFFFFFFFFFFFFFF AND PUSH1 0x0 DUP1 SLOAD SWAP1 PUSH2 0x100 EXP SWAP1 DIV PUSH20 0xFFFFFFFFFFFFFFFFFFFFFFFFFFFFFFFFFFFFFFFF AND PUSH20 0xFFFFFFFFFFFFFFFFFFFFFFFFFFFFFFFFFFFFFFFF AND EQ PUSH2 0x266C JUMPI PUSH1 0x40 MLOAD PUSH32 0x8C379A000000000000000000000000000000000000000000000000000000000 DUP2 MSTORE PUSH1 0x4 ADD PUSH2 0x2663 SWAP1 PUSH2 0x4CB7 JUMP JUMPDEST PUSH1 0x40 MLOAD DUP1 SWAP2 SUB SWAP1 REVERT JUMPDEST PUSH1 0x0 PUSH20 0xFFFFFFFFFFFFFFFFFFFFFFFFFFFFFFFFFFFFFFFF AND DUP3 PUSH20 0xFFFFFFFFFFFFFFFFFFFFFFFFFFFFFFFFFFFFFFFF AND EQ ISZERO PUSH2 0x26DC JUMPI PUSH1 0x40 MLOAD PUSH32 0x8C379A000000000000000000000000000000000000000000000000000000000 DUP2 MSTORE PUSH1 0x4 ADD PUSH2 0x26D3 SWAP1 PUSH2 0x4D37 JUMP JUMPDEST PUSH1 0x40 MLOAD DUP1 SWAP2 SUB SWAP1 REVERT JUMPDEST DUP1 PUSH1 0x7 PUSH1 0x0 DUP5 PUSH20 0xFFFFFFFFFFFFFFFFFFFFFFFFFFFFFFFFFFFFFFFF AND PUSH20 0xFFFFFFFFFFFFFFFFFFFFFFFFFFFFFFFFFFFFFFFF AND DUP2 MSTORE PUSH1 0x20 ADD SWAP1 DUP2 MSTORE PUSH1 0x20 ADD PUSH1 0x0 KECCAK256 PUSH1 0x0 PUSH2 0x100 EXP DUP2 SLOAD DUP2 PUSH1 0xFF MUL NOT AND SWAP1 DUP4 ISZERO ISZERO MUL OR SWAP1 SSTORE POP DUP2 PUSH20 0xFFFFFFFFFFFFFFFFFFFFFFFFFFFFFFFFFFFFFFFF AND PUSH32 0xC551BBB22D0406DBFB8B6B7740CC521BCF44E1106029CF899C19B6A8E4C99D51 DUP3 PUSH1 0x40 MLOAD PUSH2 0x2779 SWAP2 SWAP1 PUSH2 0x4AC4 JUMP JUMPDEST PUSH1 0x40 MLOAD DUP1 SWAP2 SUB SWAP1 LOG2 POP POP JUMP JUMPDEST PUSH1 0x8 SLOAD DUP2 JUMP JUMPDEST PUSH2 0x2793 PUSH2 0x36C4 JUMP JUMPDEST PUSH20 0xFFFFFFFFFFFFFFFFFFFFFFFFFFFFFFFFFFFFFFFF AND PUSH1 0x0 DUP1 SLOAD SWAP1 PUSH2 0x100 EXP SWAP1 DIV PUSH20 0xFFFFFFFFFFFFFFFFFFFFFFFFFFFFFFFFFFFFFFFF AND PUSH20 0xFFFFFFFFFFFFFFFFFFFFFFFFFFFFFFFFFFFFFFFF AND EQ PUSH2 0x2820 JUMPI PUSH1 0x40 MLOAD PUSH32 0x8C379A000000000000000000000000000000000000000000000000000000000 DUP2 MSTORE PUSH1 0x4 ADD PUSH2 0x2817 SWAP1 PUSH2 0x4CB7 JUMP JUMPDEST PUSH1 0x40 MLOAD DUP1 SWAP2 SUB SWAP1 REVERT JUMPDEST PUSH1 0x0 DUP4 PUSH20 0xFFFFFFFFFFFFFFFFFFFFFFFFFFFFFFFFFFFFFFFF AND PUSH4 0x70A08231 ADDRESS PUSH1 0x40 MLOAD DUP3 PUSH4 0xFFFFFFFF AND PUSH1 0xE0 SHL DUP2 MSTORE PUSH1 0x4 ADD PUSH2 0x285B SWAP2 SWAP1 PUSH2 0x4A2E JUMP JUMPDEST PUSH1 0x20 PUSH1 0x40 MLOAD DUP1 DUP4 SUB DUP2 DUP7 DUP1 EXTCODESIZE ISZERO DUP1 ISZERO PUSH2 0x2873 JUMPI PUSH1 0x0 DUP1 REVERT JUMPDEST POP GAS STATICCALL ISZERO DUP1 ISZERO PUSH2 0x2887 JUMPI RETURNDATASIZE PUSH1 0x0 DUP1 RETURNDATACOPY RETURNDATASIZE PUSH1 0x0 REVERT JUMPDEST POP POP POP POP PUSH1 0x40 MLOAD RETURNDATASIZE PUSH1 0x1F NOT PUSH1 0x1F DUP3 ADD AND DUP3 ADD DUP1 PUSH1 0x40 MSTORE POP DUP2 ADD SWAP1 PUSH2 0x28AB SWAP2 SWAP1 PUSH2 0x3EDC JUMP JUMPDEST LT ISZERO PUSH2 0x28EC JUMPI PUSH1 0x40 MLOAD PUSH32 0x8C379A000000000000000000000000000000000000000000000000000000000 DUP2 MSTORE PUSH1 0x4 ADD PUSH2 0x28E3 SWAP1 PUSH2 0x4C97 JUMP JUMPDEST PUSH1 0x40 MLOAD DUP1 SWAP2 SUB SWAP1 REVERT JUMPDEST PUSH32 0x0 PUSH20 0xFFFFFFFFFFFFFFFFFFFFFFFFFFFFFFFFFFFFFFFF AND DUP4 PUSH20 0xFFFFFFFFFFFFFFFFFFFFFFFFFFFFFFFFFFFFFFFF AND EQ ISZERO PUSH2 0x297B JUMPI PUSH1 0x40 MLOAD PUSH32 0x8C379A000000000000000000000000000000000000000000000000000000000 DUP2 MSTORE PUSH1 0x4 ADD PUSH2 0x2972 SWAP1 PUSH2 0x4CF7 JUMP JUMPDEST PUSH1 0x40 MLOAD DUP1 SWAP2 SUB SWAP1 REVERT JUMPDEST DUP1 ISZERO PUSH2 0x298A JUMPI PUSH2 0x2989 PUSH2 0x1DDB JUMP JUMPDEST JUMPDEST DUP2 ISZERO PUSH2 0x29B0 JUMPI PUSH2 0x29A5 DUP5 PUSH1 0x8 SLOAD PUSH2 0x366F SWAP1 SWAP2 SWAP1 PUSH4 0xFFFFFFFF AND JUMP JUMPDEST PUSH1 0x8 DUP2 SWAP1 SSTORE POP PUSH2 0x29CC JUMP JUMPDEST PUSH2 0x29C5 DUP5 PUSH1 0x9 SLOAD PUSH2 0x366F SWAP1 SWAP2 SWAP1 PUSH4 0xFFFFFFFF AND JUMP JUMPDEST PUSH1 0x9 DUP2 SWAP1 SSTORE POP JUMPDEST PUSH1 0x5 DUP4 SWAP1 DUP1 PUSH1 0x1 DUP2 SLOAD ADD DUP1 DUP3 SSTORE DUP1 SWAP2 POP POP PUSH1 0x1 SWAP1 SUB SWAP1 PUSH1 0x0 MSTORE PUSH1 0x20 PUSH1 0x0 KECCAK256 ADD PUSH1 0x0 SWAP1 SWAP2 SWAP1 SWAP2 SWAP1 SWAP2 PUSH2 0x100 EXP DUP2 SLOAD DUP2 PUSH20 0xFFFFFFFFFFFFFFFFFFFFFFFFFFFFFFFFFFFFFFFF MUL NOT AND SWAP1 DUP4 PUSH20 0xFFFFFFFFFFFFFFFFFFFFFFFFFFFFFFFFFFFFFFFF AND MUL OR SWAP1 SSTORE POP PUSH1 0x4 PUSH1 0x40 MLOAD DUP1 PUSH1 0xA0 ADD PUSH1 0x40 MSTORE DUP1 PUSH1 0x0 DUP2 MSTORE PUSH1 0x20 ADD NUMBER DUP2 MSTORE PUSH1 0x20 ADD DUP7 DUP2 MSTORE PUSH1 0x20 ADD PUSH1 0x0 DUP2 MSTORE PUSH1 0x20 ADD DUP5 ISZERO ISZERO DUP2 MSTORE POP SWAP1 DUP1 PUSH1 0x1 DUP2 SLOAD ADD DUP1 DUP3 SSTORE DUP1 SWAP2 POP POP PUSH1 0x1 SWAP1 SUB SWAP1 PUSH1 0x0 MSTORE PUSH1 0x20 PUSH1 0x0 KECCAK256 SWAP1 PUSH1 0x5 MUL ADD PUSH1 0x0 SWAP1 SWAP2 SWAP1 SWAP2 SWAP1 SWAP2 POP PUSH1 0x0 DUP3 ADD MLOAD DUP2 PUSH1 0x0 ADD SSTORE PUSH1 0x20 DUP3 ADD MLOAD DUP2 PUSH1 0x1 ADD SSTORE PUSH1 0x40 DUP3 ADD MLOAD DUP2 PUSH1 0x2 ADD SSTORE PUSH1 0x60 DUP3 ADD MLOAD DUP2 PUSH1 0x3 ADD SSTORE PUSH1 0x80 DUP3 ADD MLOAD DUP2 PUSH1 0x4 ADD PUSH1 0x0 PUSH2 0x100 EXP DUP2 SLOAD DUP2 PUSH1 0xFF MUL NOT AND SWAP1 DUP4 ISZERO ISZERO MUL OR SWAP1 SSTORE POP POP POP DUP3 PUSH20 0xFFFFFFFFFFFFFFFFFFFFFFFFFFFFFFFFFFFFFFFF AND PUSH2 0x2AFF PUSH1 0x1 PUSH1 0x5 DUP1 SLOAD SWAP1 POP PUSH2 0x3625 SWAP1 SWAP2 SWAP1 PUSH4 0xFFFFFFFF AND JUMP JUMPDEST PUSH32 0x18CAA0724A26384928EFE604AE6DDC99C242548876259770FC88FCB7E719D8FA DUP7 DUP6 PUSH1 0x40 MLOAD PUSH2 0x2B30 SWAP3 SWAP2 SWAP1 PUSH2 0x4E2D JUMP JUMPDEST PUSH1 0x40 MLOAD DUP1 SWAP2 SUB SWAP1 LOG3 POP POP POP POP JUMP JUMPDEST PUSH5 0xE8D4A51000 DUP2 JUMP JUMPDEST PUSH2 0x2B4F PUSH2 0x36C4 JUMP JUMPDEST PUSH20 0xFFFFFFFFFFFFFFFFFFFFFFFFFFFFFFFFFFFFFFFF AND PUSH1 0x0 DUP1 SLOAD SWAP1 PUSH2 0x100 EXP SWAP1 DIV PUSH20 0xFFFFFFFFFFFFFFFFFFFFFFFFFFFFFFFFFFFFFFFF AND PUSH20 0xFFFFFFFFFFFFFFFFFFFFFFFFFFFFFFFFFFFFFFFF AND EQ PUSH2 0x2BDC JUMPI PUSH1 0x40 MLOAD PUSH32 0x8C379A000000000000000000000000000000000000000000000000000000000 DUP2 MSTORE PUSH1 0x4 ADD PUSH2 0x2BD3 SWAP1 PUSH2 0x4CB7 JUMP JUMPDEST PUSH1 0x40 MLOAD DUP1 SWAP2 SUB SWAP1 REVERT JUMPDEST PUSH1 0x0 DUP5 GT DUP1 ISZERO PUSH2 0x2BEC JUMPI POP PUSH1 0x0 DUP4 GT JUMPDEST DUP1 ISZERO PUSH2 0x2BF8 JUMPI POP PUSH1 0x0 DUP3 GT JUMPDEST PUSH2 0x2C37 JUMPI PUSH1 0x40 MLOAD PUSH32 0x8C379A000000000000000000000000000000000000000000000000000000000 DUP2 MSTORE PUSH1 0x4 ADD PUSH2 0x2C2E SWAP1 PUSH2 0x4C17 JUMP JUMPDEST PUSH1 0x40 MLOAD DUP1 SWAP2 SUB SWAP1 REVERT JUMPDEST PUSH5 0xE8D4A51000 PUSH2 0x2C62 DUP4 PUSH2 0x2C54 DUP7 DUP9 PUSH2 0x366F SWAP1 SWAP2 SWAP1 PUSH4 0xFFFFFFFF AND JUMP JUMPDEST PUSH2 0x366F SWAP1 SWAP2 SWAP1 PUSH4 0xFFFFFFFF AND JUMP JUMPDEST EQ PUSH2 0x2CA2 JUMPI PUSH1 0x40 MLOAD PUSH32 0x8C379A000000000000000000000000000000000000000000000000000000000 DUP2 MSTORE PUSH1 0x4 ADD PUSH2 0x2C99 SWAP1 PUSH2 0x4D77 JUMP JUMPDEST PUSH1 0x40 MLOAD DUP1 SWAP2 SUB SWAP1 REVERT JUMPDEST DUP1 ISZERO PUSH2 0x2CB1 JUMPI PUSH2 0x2CB0 PUSH2 0x1DDB JUMP JUMPDEST JUMPDEST PUSH2 0x2CBB PUSH1 0x0 PUSH2 0x21CE JUMP JUMPDEST DUP4 PUSH1 0xA DUP2 SWAP1 SSTORE POP DUP3 PUSH1 0xB DUP2 SWAP1 SSTORE POP DUP2 PUSH1 0xC DUP2 SWAP1 SSTORE POP PUSH32 0xAE2D2E7D1AE84564FC72227253CE0F36A007209F7FD5EC414DEA80E5AF2FB5B0 DUP5 DUP5 DUP5 PUSH1 0x40 MLOAD PUSH2 0x2D03 SWAP4 SWAP3 SWAP2 SWAP1 PUSH2 0x4EA8 JUMP JUMPDEST PUSH1 0x40 MLOAD DUP1 SWAP2 SUB SWAP1 LOG1 POP POP POP POP JUMP JUMPDEST PUSH1 0x3 PUSH1 0x0 SWAP1 SLOAD SWAP1 PUSH2 0x100 EXP SWAP1 DIV PUSH20 0xFFFFFFFFFFFFFFFFFFFFFFFFFFFFFFFFFFFFFFFF AND DUP2 JUMP JUMPDEST PUSH1 0xA SLOAD DUP2 JUMP JUMPDEST PUSH1 0x2 PUSH1 0x1 SLOAD EQ ISZERO PUSH2 0x2D83 JUMPI PUSH1 0x40 MLOAD PUSH32 0x8C379A000000000000000000000000000000000000000000000000000000000 DUP2 MSTORE PUSH1 0x4 ADD PUSH2 0x2D7A SWAP1 PUSH2 0x4D97 JUMP JUMPDEST PUSH1 0x40 MLOAD DUP1 SWAP2 SUB SWAP1 REVERT JUMPDEST PUSH1 0x2 PUSH1 0x1 DUP2 SWAP1 SSTORE POP PUSH2 0x2D93 PUSH2 0x3C78 JUMP JUMPDEST PUSH2 0x2D9C DUP4 PUSH2 0x1989 JUMP JUMPDEST SWAP1 POP PUSH1 0x0 PUSH1 0x6 PUSH1 0x0 DUP6 DUP2 MSTORE PUSH1 0x20 ADD SWAP1 DUP2 MSTORE PUSH1 0x20 ADD PUSH1 0x0 KECCAK256 PUSH1 0x0 CALLER PUSH20 0xFFFFFFFFFFFFFFFFFFFFFFFFFFFFFFFFFFFFFFFF AND PUSH20 0xFFFFFFFFFFFFFFFFFFFFFFFFFFFFFFFFFFFFFFFF AND DUP2 MSTORE PUSH1 0x20 ADD SWAP1 DUP2 MSTORE PUSH1 0x20 ADD PUSH1 0x0 KECCAK256 SWAP1 POP DUP2 PUSH1 0x80 ADD MLOAD DUP1 PUSH2 0x2E4B JUMPI POP PUSH1 0x7 PUSH1 0x0 CALLER PUSH20 0xFFFFFFFFFFFFFFFFFFFFFFFFFFFFFFFFFFFFFFFF AND PUSH20 0xFFFFFFFFFFFFFFFFFFFFFFFFFFFFFFFFFFFFFFFF AND DUP2 MSTORE PUSH1 0x20 ADD SWAP1 DUP2 MSTORE PUSH1 0x20 ADD PUSH1 0x0 KECCAK256 PUSH1 0x0 SWAP1 SLOAD SWAP1 PUSH2 0x100 EXP SWAP1 DIV PUSH1 0xFF AND JUMPDEST PUSH2 0x2E8A JUMPI PUSH1 0x40 MLOAD PUSH32 0x8C379A000000000000000000000000000000000000000000000000000000000 DUP2 MSTORE PUSH1 0x4 ADD PUSH2 0x2E81 SWAP1 PUSH2 0x4C37 JUMP JUMPDEST PUSH1 0x40 MLOAD DUP1 SWAP2 SUB SWAP1 REVERT JUMPDEST PUSH1 0x0 PUSH2 0x2E96 CALLER DUP7 PUSH2 0x7B8 JUMP JUMPDEST SWAP1 POP PUSH1 0x0 DUP3 PUSH1 0x0 ADD SLOAD GT ISZERO PUSH2 0x2EB1 JUMPI PUSH2 0x2EB0 CALLER DUP7 DUP4 PUSH2 0x3439 JUMP JUMPDEST JUMPDEST PUSH1 0x0 DUP5 GT ISZERO PUSH2 0x3120 JUMPI PUSH1 0x0 PUSH1 0x5 DUP7 DUP2 SLOAD DUP2 LT PUSH2 0x2EC9 JUMPI INVALID JUMPDEST SWAP1 PUSH1 0x0 MSTORE PUSH1 0x20 PUSH1 0x0 KECCAK256 ADD PUSH1 0x0 SWAP1 SLOAD SWAP1 PUSH2 0x100 EXP SWAP1 DIV PUSH20 0xFFFFFFFFFFFFFFFFFFFFFFFFFFFFFFFFFFFFFFFF AND PUSH20 0xFFFFFFFFFFFFFFFFFFFFFFFFFFFFFFFFFFFFFFFF AND PUSH4 0x70A08231 ADDRESS PUSH1 0x40 MLOAD DUP3 PUSH4 0xFFFFFFFF AND PUSH1 0xE0 SHL DUP2 MSTORE PUSH1 0x4 ADD PUSH2 0x2F2C SWAP2 SWAP1 PUSH2 0x4A2E JUMP JUMPDEST PUSH1 0x20 PUSH1 0x40 MLOAD DUP1 DUP4 SUB DUP2 DUP7 DUP1 EXTCODESIZE ISZERO DUP1 ISZERO PUSH2 0x2F44 JUMPI PUSH1 0x0 DUP1 REVERT JUMPDEST POP GAS STATICCALL ISZERO DUP1 ISZERO PUSH2 0x2F58 JUMPI RETURNDATASIZE PUSH1 0x0 DUP1 RETURNDATACOPY RETURNDATASIZE PUSH1 0x0 REVERT JUMPDEST POP POP POP POP PUSH1 0x40 MLOAD RETURNDATASIZE PUSH1 0x1F NOT PUSH1 0x1F DUP3 ADD AND DUP3 ADD DUP1 PUSH1 0x40 MSTORE POP DUP2 ADD SWAP1 PUSH2 0x2F7C SWAP2 SWAP1 PUSH2 0x3EDC JUMP JUMPDEST SWAP1 POP PUSH2 0x2FE2 CALLER ADDRESS DUP8 PUSH1 0x5 DUP11 DUP2 SLOAD DUP2 LT PUSH2 0x2F91 JUMPI INVALID JUMPDEST SWAP1 PUSH1 0x0 MSTORE PUSH1 0x20 PUSH1 0x0 KECCAK256 ADD PUSH1 0x0 SWAP1 SLOAD SWAP1 PUSH2 0x100 EXP SWAP1 DIV PUSH20 0xFFFFFFFFFFFFFFFFFFFFFFFFFFFFFFFFFFFFFFFF AND PUSH20 0xFFFFFFFFFFFFFFFFFFFFFFFFFFFFFFFFFFFFFFFF AND PUSH2 0x36CC SWAP1 SWAP4 SWAP3 SWAP2 SWAP1 PUSH4 0xFFFFFFFF AND JUMP JUMPDEST PUSH2 0x30B4 DUP2 PUSH1 0x5 DUP9 DUP2 SLOAD DUP2 LT PUSH2 0x2FF3 JUMPI INVALID JUMPDEST SWAP1 PUSH1 0x0 MSTORE PUSH1 0x20 PUSH1 0x0 KECCAK256 ADD PUSH1 0x0 SWAP1 SLOAD SWAP1 PUSH2 0x100 EXP SWAP1 DIV PUSH20 0xFFFFFFFFFFFFFFFFFFFFFFFFFFFFFFFFFFFFFFFF AND PUSH20 0xFFFFFFFFFFFFFFFFFFFFFFFFFFFFFFFFFFFFFFFF AND PUSH4 0x70A08231 ADDRESS PUSH1 0x40 MLOAD DUP3 PUSH4 0xFFFFFFFF AND PUSH1 0xE0 SHL DUP2 MSTORE PUSH1 0x4 ADD PUSH2 0x3056 SWAP2 SWAP1 PUSH2 0x4A2E JUMP JUMPDEST PUSH1 0x20 PUSH1 0x40 MLOAD DUP1 DUP4 SUB DUP2 DUP7 DUP1 EXTCODESIZE ISZERO DUP1 ISZERO PUSH2 0x306E JUMPI PUSH1 0x0 DUP1 REVERT JUMPDEST POP GAS STATICCALL ISZERO DUP1 ISZERO PUSH2 0x3082 JUMPI RETURNDATASIZE PUSH1 0x0 DUP1 RETURNDATACOPY RETURNDATASIZE PUSH1 0x0 REVERT JUMPDEST POP POP POP POP PUSH1 0x40 MLOAD RETURNDATASIZE PUSH1 0x1F NOT PUSH1 0x1F DUP3 ADD AND DUP3 ADD DUP1 PUSH1 0x40 MSTORE POP DUP2 ADD SWAP1 PUSH2 0x30A6 SWAP2 SWAP1 PUSH2 0x3EDC JUMP JUMPDEST PUSH2 0x3625 SWAP1 SWAP2 SWAP1 PUSH4 0xFFFFFFFF AND JUMP JUMPDEST SWAP5 POP PUSH2 0x30CD DUP6 DUP5 PUSH1 0x0 ADD SLOAD PUSH2 0x366F SWAP1 SWAP2 SWAP1 PUSH4 0xFFFFFFFF AND JUMP JUMPDEST DUP4 PUSH1 0x0 ADD DUP2 SWAP1 SSTORE POP PUSH2 0x3115 PUSH2 0x3102 PUSH5 0xE8D4A51000 PUSH2 0x30F4 DUP6 DUP10 PUSH2 0x356B SWAP1 SWAP2 SWAP1 PUSH4 0xFFFFFFFF AND JUMP JUMPDEST PUSH2 0x35DB SWAP1 SWAP2 SWAP1 PUSH4 0xFFFFFFFF AND JUMP JUMPDEST DUP6 PUSH1 0x60 ADD MLOAD PUSH2 0x366F SWAP1 SWAP2 SWAP1 PUSH4 0xFFFFFFFF AND JUMP JUMPDEST DUP5 PUSH1 0x60 ADD DUP2 DUP2 MSTORE POP POP POP JUMPDEST PUSH2 0x317E PUSH8 0xDE0B6B3A7640000 PUSH2 0x3170 DUP6 PUSH1 0x0 ADD MLOAD PUSH2 0x3162 PUSH5 0xE8D4A51000 PUSH2 0x3154 DUP8 DUP10 PUSH1 0x0 ADD SLOAD PUSH2 0x356B SWAP1 SWAP2 SWAP1 PUSH4 0xFFFFFFFF AND JUMP JUMPDEST PUSH2 0x35DB SWAP1 SWAP2 SWAP1 PUSH4 0xFFFFFFFF AND JUMP JUMPDEST PUSH2 0x356B SWAP1 SWAP2 SWAP1 PUSH4 0xFFFFFFFF AND JUMP JUMPDEST PUSH2 0x35DB SWAP1 SWAP2 SWAP1 PUSH4 0xFFFFFFFF AND JUMP JUMPDEST DUP3 PUSH1 0x1 ADD DUP2 SWAP1 SSTORE POP DUP3 PUSH1 0x4 DUP7 DUP2 SLOAD DUP2 LT PUSH2 0x3194 JUMPI INVALID JUMPDEST SWAP1 PUSH1 0x0 MSTORE PUSH1 0x20 PUSH1 0x0 KECCAK256 SWAP1 PUSH1 0x5 MUL ADD PUSH1 0x0 DUP3 ADD MLOAD DUP2 PUSH1 0x0 ADD SSTORE PUSH1 0x20 DUP3 ADD MLOAD DUP2 PUSH1 0x1 ADD SSTORE PUSH1 0x40 DUP3 ADD MLOAD DUP2 PUSH1 0x2 ADD SSTORE PUSH1 0x60 DUP3 ADD MLOAD DUP2 PUSH1 0x3 ADD SSTORE PUSH1 0x80 DUP3 ADD MLOAD DUP2 PUSH1 0x4 ADD PUSH1 0x0 PUSH2 0x100 EXP DUP2 SLOAD DUP2 PUSH1 0xFF MUL NOT AND SWAP1 DUP4 ISZERO ISZERO MUL OR SWAP1 SSTORE POP SWAP1 POP POP DUP5 CALLER PUSH20 0xFFFFFFFFFFFFFFFFFFFFFFFFFFFFFFFFFFFFFFFF AND PUSH32 0x90890809C654F11D6E72A28FA60149770A0D11EC6C92319D6CEB2BB0A4EA1A15 DUP7 PUSH1 0x40 MLOAD PUSH2 0x3234 SWAP2 SWAP1 PUSH2 0x4E12 JUMP JUMPDEST PUSH1 0x40 MLOAD DUP1 SWAP2 SUB SWAP1 LOG3 POP POP POP PUSH1 0x1 DUP1 DUP2 SWAP1 SSTORE POP POP POP JUMP JUMPDEST PUSH5 0xE8D4A51000 DUP2 JUMP JUMPDEST PUSH32 0x0 DUP2 JUMP JUMPDEST PUSH2 0x327F PUSH2 0x36C4 JUMP JUMPDEST PUSH20 0xFFFFFFFFFFFFFFFFFFFFFFFFFFFFFFFFFFFFFFFF AND PUSH1 0x0 DUP1 SLOAD SWAP1 PUSH2 0x100 EXP SWAP1 DIV PUSH20 0xFFFFFFFFFFFFFFFFFFFFFFFFFFFFFFFFFFFFFFFF AND PUSH20 0xFFFFFFFFFFFFFFFFFFFFFFFFFFFFFFFFFFFFFFFF AND EQ PUSH2 0x330C JUMPI PUSH1 0x40 MLOAD PUSH32 0x8C379A000000000000000000000000000000000000000000000000000000000 DUP2 MSTORE PUSH1 0x4 ADD PUSH2 0x3303 SWAP1 PUSH2 0x4CB7 JUMP JUMPDEST PUSH1 0x40 MLOAD DUP1 SWAP2 SUB SWAP1 REVERT JUMPDEST PUSH1 0x0 PUSH20 0xFFFFFFFFFFFFFFFFFFFFFFFFFFFFFFFFFFFFFFFF AND DUP2 PUSH20 0xFFFFFFFFFFFFFFFFFFFFFFFFFFFFFFFFFFFFFFFF AND EQ ISZERO PUSH2 0x337C JUMPI PUSH1 0x40 MLOAD PUSH32 0x8C379A000000000000000000000000000000000000000000000000000000000 DUP2 MSTORE PUSH1 0x4 ADD PUSH2 0x3373 SWAP1 PUSH2 0x4B97 JUMP JUMPDEST PUSH1 0x40 MLOAD DUP1 SWAP2 SUB SWAP1 REVERT JUMPDEST DUP1 PUSH20 0xFFFFFFFFFFFFFFFFFFFFFFFFFFFFFFFFFFFFFFFF AND PUSH1 0x0 DUP1 SLOAD SWAP1 PUSH2 0x100 EXP SWAP1 DIV PUSH20 0xFFFFFFFFFFFFFFFFFFFFFFFFFFFFFFFFFFFFFFFF AND PUSH20 0xFFFFFFFFFFFFFFFFFFFFFFFFFFFFFFFFFFFFFFFF AND PUSH32 0x8BE0079C531659141344CD1FD0A4F28419497F9722A3DAAFE3B4186F6B6457E0 PUSH1 0x40 MLOAD PUSH1 0x40 MLOAD DUP1 SWAP2 SUB SWAP1 LOG3 DUP1 PUSH1 0x0 DUP1 PUSH2 0x100 EXP DUP2 SLOAD DUP2 PUSH20 0xFFFFFFFFFFFFFFFFFFFFFFFFFFFFFFFFFFFFFFFF MUL NOT AND SWAP1 DUP4 PUSH20 0xFFFFFFFFFFFFFFFFFFFFFFFFFFFFFFFFFFFFFFFF AND MUL OR SWAP1 SSTORE POP POP JUMP JUMPDEST PUSH2 0x3441 PUSH2 0x3CA9 JUMP JUMPDEST PUSH1 0x6 PUSH1 0x0 DUP5 DUP2 MSTORE PUSH1 0x20 ADD SWAP1 DUP2 MSTORE PUSH1 0x20 ADD PUSH1 0x0 KECCAK256 PUSH1 0x0 DUP6 PUSH20 0xFFFFFFFFFFFFFFFFFFFFFFFFFFFFFFFFFFFFFFFF AND PUSH20 0xFFFFFFFFFFFFFFFFFFFFFFFFFFFFFFFFFFFFFFFF AND DUP2 MSTORE PUSH1 0x20 ADD SWAP1 DUP2 MSTORE PUSH1 0x20 ADD PUSH1 0x0 KECCAK256 PUSH1 0x40 MLOAD DUP1 PUSH1 0x60 ADD PUSH1 0x40 MSTORE SWAP1 DUP2 PUSH1 0x0 DUP3 ADD SLOAD DUP2 MSTORE PUSH1 0x20 ADD PUSH1 0x1 DUP3 ADD SLOAD DUP2 MSTORE PUSH1 0x20 ADD PUSH1 0x2 DUP3 ADD SLOAD DUP2 MSTORE POP POP SWAP1 POP PUSH1 0x0 PUSH2 0x34EC PUSH5 0xE8D4A51000 PUSH2 0x34DE DUP6 DUP6 PUSH1 0x0 ADD MLOAD PUSH2 0x356B SWAP1 SWAP2 SWAP1 PUSH4 0xFFFFFFFF AND JUMP JUMPDEST PUSH2 0x35DB SWAP1 SWAP2 SWAP1 PUSH4 0xFFFFFFFF AND JUMP JUMPDEST SWAP1 POP PUSH1 0x0 PUSH2 0x353B PUSH8 0xDE0B6B3A7640000 PUSH2 0x352D PUSH1 0x4 DUP9 DUP2 SLOAD DUP2 LT PUSH2 0x350C JUMPI INVALID JUMPDEST SWAP1 PUSH1 0x0 MSTORE PUSH1 0x20 PUSH1 0x0 KECCAK256 SWAP1 PUSH1 0x5 MUL ADD PUSH1 0x0 ADD SLOAD DUP6 PUSH2 0x356B SWAP1 SWAP2 SWAP1 PUSH4 0xFFFFFFFF AND JUMP JUMPDEST PUSH2 0x35DB SWAP1 SWAP2 SWAP1 PUSH4 0xFFFFFFFF AND JUMP JUMPDEST SWAP1 POP PUSH1 0x0 PUSH2 0x3556 DUP5 PUSH1 0x20 ADD MLOAD DUP4 PUSH2 0x3625 SWAP1 SWAP2 SWAP1 PUSH4 0xFFFFFFFF AND JUMP JUMPDEST SWAP1 POP PUSH2 0x3562 DUP8 DUP3 PUSH2 0x37DB JUMP JUMPDEST POP POP POP POP POP POP POP JUMP JUMPDEST PUSH1 0x0 DUP1 DUP4 EQ ISZERO PUSH2 0x357E JUMPI PUSH1 0x0 SWAP1 POP PUSH2 0x35D5 JUMP JUMPDEST PUSH1 0x0 DUP3 DUP5 MUL SWAP1 POP DUP3 DUP5 DUP3 DUP2 PUSH2 0x358F JUMPI INVALID JUMPDEST DIV EQ PUSH2 0x35D0 JUMPI PUSH1 0x40 MLOAD PUSH32 0x8C379A000000000000000000000000000000000000000000000000000000000 DUP2 MSTORE PUSH1 0x4 ADD PUSH2 0x35C7 SWAP1 PUSH2 0x4C57 JUMP JUMPDEST PUSH1 0x40 MLOAD DUP1 SWAP2 SUB SWAP1 REVERT JUMPDEST DUP1 SWAP2 POP POP JUMPDEST SWAP3 SWAP2 POP POP JUMP JUMPDEST PUSH1 0x0 PUSH2 0x361D DUP4 DUP4 PUSH1 0x40 MLOAD DUP1 PUSH1 0x40 ADD PUSH1 0x40 MSTORE DUP1 PUSH1 0x1A DUP2 MSTORE PUSH1 0x20 ADD PUSH32 0x536166654D6174683A206469766973696F6E206279207A65726F000000000000 DUP2 MSTORE POP PUSH2 0x39A7 JUMP JUMPDEST SWAP1 POP SWAP3 SWAP2 POP POP JUMP JUMPDEST PUSH1 0x0 PUSH2 0x3667 DUP4 DUP4 PUSH1 0x40 MLOAD DUP1 PUSH1 0x40 ADD PUSH1 0x40 MSTORE DUP1 PUSH1 0x1E DUP2 MSTORE PUSH1 0x20 ADD PUSH32 0x536166654D6174683A207375627472616374696F6E206F766572666C6F770000 DUP2 MSTORE POP PUSH2 0x3A08 JUMP JUMPDEST SWAP1 POP SWAP3 SWAP2 POP POP JUMP JUMPDEST PUSH1 0x0 DUP1 DUP3 DUP5 ADD SWAP1 POP DUP4 DUP2 LT ISZERO PUSH2 0x36BA JUMPI PUSH1 0x40 MLOAD PUSH32 0x8C379A000000000000000000000000000000000000000000000000000000000 DUP2 MSTORE PUSH1 0x4 ADD PUSH2 0x36B1 SWAP1 PUSH2 0x4BB7 JUMP JUMPDEST PUSH1 0x40 MLOAD DUP1 SWAP2 SUB SWAP1 REVERT JUMPDEST DUP1 SWAP2 POP POP SWAP3 SWAP2 POP POP JUMP JUMPDEST PUSH1 0x0 CALLER SWAP1 POP SWAP1 JUMP JUMPDEST PUSH2 0x374F DUP5 PUSH4 0x23B872DD PUSH1 0xE0 SHL DUP6 DUP6 DUP6 PUSH1 0x40 MLOAD PUSH1 0x24 ADD PUSH2 0x36ED SWAP4 SWAP3 SWAP2 SWAP1 PUSH2 0x4A64 JUMP JUMPDEST PUSH1 0x40 MLOAD PUSH1 0x20 DUP2 DUP4 SUB SUB DUP2 MSTORE SWAP1 PUSH1 0x40 MSTORE SWAP1 PUSH28 0xFFFFFFFFFFFFFFFFFFFFFFFFFFFFFFFFFFFFFFFFFFFFFFFFFFFFFFFF NOT AND PUSH1 0x20 DUP3 ADD DUP1 MLOAD PUSH28 0xFFFFFFFFFFFFFFFFFFFFFFFFFFFFFFFFFFFFFFFFFFFFFFFFFFFFFFFF DUP4 DUP2 DUP4 AND OR DUP4 MSTORE POP POP POP POP PUSH2 0x3A63 JUMP JUMPDEST POP POP POP POP JUMP JUMPDEST PUSH2 0x37D6 DUP4 PUSH4 0xA9059CBB PUSH1 0xE0 SHL DUP5 DUP5 PUSH1 0x40 MLOAD PUSH1 0x24 ADD PUSH2 0x3774 SWAP3 SWAP2 SWAP1 PUSH2 0x4A9B JUMP JUMPDEST PUSH1 0x40 MLOAD PUSH1 0x20 DUP2 DUP4 SUB SUB DUP2 MSTORE SWAP1 PUSH1 0x40 MSTORE SWAP1 PUSH28 0xFFFFFFFFFFFFFFFFFFFFFFFFFFFFFFFFFFFFFFFFFFFFFFFFFFFFFFFF NOT AND PUSH1 0x20 DUP3 ADD DUP1 MLOAD PUSH28 0xFFFFFFFFFFFFFFFFFFFFFFFFFFFFFFFFFFFFFFFFFFFFFFFFFFFFFFFF DUP4 DUP2 DUP4 AND OR DUP4 MSTORE POP POP POP POP PUSH2 0x3A63 JUMP JUMPDEST POP POP POP JUMP JUMPDEST PUSH1 0x0 DUP2 GT ISZERO PUSH2 0x39A3 JUMPI DUP1 PUSH32 0x0 PUSH20 0xFFFFFFFFFFFFFFFFFFFFFFFFFFFFFFFFFFFFFFFF AND PUSH4 0x70A08231 ADDRESS PUSH1 0x40 MLOAD DUP3 PUSH4 0xFFFFFFFF AND PUSH1 0xE0 SHL DUP2 MSTORE PUSH1 0x4 ADD PUSH2 0x383E SWAP2 SWAP1 PUSH2 0x4A2E JUMP JUMPDEST PUSH1 0x20 PUSH1 0x40 MLOAD DUP1 DUP4 SUB DUP2 DUP7 DUP1 EXTCODESIZE ISZERO DUP1 ISZERO PUSH2 0x3856 JUMPI PUSH1 0x0 DUP1 REVERT JUMPDEST POP GAS STATICCALL ISZERO DUP1 ISZERO PUSH2 0x386A JUMPI RETURNDATASIZE PUSH1 0x0 DUP1 RETURNDATACOPY RETURNDATASIZE PUSH1 0x0 REVERT JUMPDEST POP POP POP POP PUSH1 0x40 MLOAD RETURNDATASIZE PUSH1 0x1F NOT PUSH1 0x1F DUP3 ADD AND DUP3 ADD DUP1 PUSH1 0x40 MSTORE POP DUP2 ADD SWAP1 PUSH2 0x388E SWAP2 SWAP1 PUSH2 0x3EDC JUMP JUMPDEST LT ISZERO PUSH2 0x389D JUMPI PUSH2 0x389C PUSH2 0x18D9 JUMP JUMPDEST JUMPDEST PUSH1 0x0 PUSH32 0x0 PUSH20 0xFFFFFFFFFFFFFFFFFFFFFFFFFFFFFFFFFFFFFFFF AND PUSH4 0x70A08231 ADDRESS PUSH1 0x40 MLOAD DUP3 PUSH4 0xFFFFFFFF AND PUSH1 0xE0 SHL DUP2 MSTORE PUSH1 0x4 ADD PUSH2 0x38F8 SWAP2 SWAP1 PUSH2 0x4A2E JUMP JUMPDEST PUSH1 0x20 PUSH1 0x40 MLOAD DUP1 DUP4 SUB DUP2 DUP7 DUP1 EXTCODESIZE ISZERO DUP1 ISZERO PUSH2 0x3910 JUMPI PUSH1 0x0 DUP1 REVERT JUMPDEST POP GAS STATICCALL ISZERO DUP1 ISZERO PUSH2 0x3924 JUMPI RETURNDATASIZE PUSH1 0x0 DUP1 RETURNDATACOPY RETURNDATASIZE PUSH1 0x0 REVERT JUMPDEST POP POP POP POP PUSH1 0x40 MLOAD RETURNDATASIZE PUSH1 0x1F NOT PUSH1 0x1F DUP3 ADD AND DUP3 ADD DUP1 PUSH1 0x40 MSTORE POP DUP2 ADD SWAP1 PUSH2 0x3948 SWAP2 SWAP1 PUSH2 0x3EDC JUMP JUMPDEST SWAP1 POP DUP2 DUP2 LT ISZERO PUSH2 0x3956 JUMPI DUP1 SWAP2 POP JUMPDEST PUSH2 0x39A1 DUP4 DUP4 PUSH32 0x0 PUSH20 0xFFFFFFFFFFFFFFFFFFFFFFFFFFFFFFFFFFFFFFFF AND PUSH2 0x3755 SWAP1 SWAP3 SWAP2 SWAP1 PUSH4 0xFFFFFFFF AND JUMP JUMPDEST POP JUMPDEST POP POP JUMP JUMPDEST PUSH1 0x0 DUP1 DUP4 GT DUP3 SWAP1 PUSH2 0x39EE JUMPI PUSH1 0x40 MLOAD PUSH32 0x8C379A000000000000000000000000000000000000000000000000000000000 DUP2 MSTORE PUSH1 0x4 ADD PUSH2 0x39E5 SWAP2 SWAP1 PUSH2 0x4B15 JUMP JUMPDEST PUSH1 0x40 MLOAD DUP1 SWAP2 SUB SWAP1 REVERT JUMPDEST POP PUSH1 0x0 DUP4 DUP6 DUP2 PUSH2 0x39FA JUMPI INVALID JUMPDEST DIV SWAP1 POP DUP1 SWAP2 POP POP SWAP4 SWAP3 POP POP POP JUMP JUMPDEST PUSH1 0x0 DUP4 DUP4 GT ISZERO DUP3 SWAP1 PUSH2 0x3A50 JUMPI PUSH1 0x40 MLOAD PUSH32 0x8C379A000000000000000000000000000000000000000000000000000000000 DUP2 MSTORE PUSH1 0x4 ADD PUSH2 0x3A47 SWAP2 SWAP1 PUSH2 0x4B15 JUMP JUMPDEST PUSH1 0x40 MLOAD DUP1 SWAP2 SUB SWAP1 REVERT JUMPDEST POP PUSH1 0x0 DUP4 DUP6 SUB SWAP1 POP DUP1 SWAP2 POP POP SWAP4 SWAP3 POP POP POP JUMP JUMPDEST PUSH1 0x60 PUSH2 0x3AC5 DUP3 PUSH1 0x40 MLOAD DUP1 PUSH1 0x40 ADD PUSH1 0x40 MSTORE DUP1 PUSH1 0x20 DUP2 MSTORE PUSH1 0x20 ADD PUSH32 0x5361666542455032303A206C6F772D6C6576656C2063616C6C206661696C6564 DUP2 MSTORE POP DUP6 PUSH20 0xFFFFFFFFFFFFFFFFFFFFFFFFFFFFFFFFFFFFFFFF AND PUSH2 0x3B2A SWAP1 SWAP3 SWAP2 SWAP1 PUSH4 0xFFFFFFFF AND JUMP JUMPDEST SWAP1 POP PUSH1 0x0 DUP2 MLOAD GT ISZERO PUSH2 0x3B25 JUMPI DUP1 DUP1 PUSH1 0x20 ADD SWAP1 MLOAD DUP2 ADD SWAP1 PUSH2 0x3AE5 SWAP2 SWAP1 PUSH2 0x3E61 JUMP JUMPDEST PUSH2 0x3B24 JUMPI PUSH1 0x40 MLOAD PUSH32 0x8C379A000000000000000000000000000000000000000000000000000000000 DUP2 MSTORE PUSH1 0x4 ADD PUSH2 0x3B1B SWAP1 PUSH2 0x4B77 JUMP JUMPDEST PUSH1 0x40 MLOAD DUP1 SWAP2 SUB SWAP1 REVERT JUMPDEST JUMPDEST POP POP POP JUMP JUMPDEST PUSH1 0x60 PUSH2 0x3B39 DUP5 DUP5 PUSH1 0x0 DUP6 PUSH2 0x3B42 JUMP JUMPDEST SWAP1 POP SWAP4 SWAP3 POP POP POP JUMP JUMPDEST PUSH1 0x60 PUSH2 0x3B4D DUP6 PUSH2 0x3C65 JUMP JUMPDEST PUSH2 0x3B8C JUMPI PUSH1 0x40 MLOAD PUSH32 0x8C379A000000000000000000000000000000000000000000000000000000000 DUP2 MSTORE PUSH1 0x4 ADD PUSH2 0x3B83 SWAP1 PUSH2 0x4D57 JUMP JUMPDEST PUSH1 0x40 MLOAD DUP1 SWAP2 SUB SWAP1 REVERT JUMPDEST PUSH1 0x0 PUSH1 0x60 DUP7 PUSH20 0xFFFFFFFFFFFFFFFFFFFFFFFFFFFFFFFFFFFFFFFF AND DUP6 DUP8 PUSH1 0x40 MLOAD PUSH2 0x3BB6 SWAP2 SWAP1 PUSH2 0x4A17 JUMP JUMPDEST PUSH1 0x0 PUSH1 0x40 MLOAD DUP1 DUP4 SUB DUP2 DUP6 DUP8 GAS CALL SWAP3 POP POP POP RETURNDATASIZE DUP1 PUSH1 0x0 DUP2 EQ PUSH2 0x3BF3 JUMPI PUSH1 0x40 MLOAD SWAP2 POP PUSH1 0x1F NOT PUSH1 0x3F RETURNDATASIZE ADD AND DUP3 ADD PUSH1 0x40 MSTORE RETURNDATASIZE DUP3 MSTORE RETURNDATASIZE PUSH1 0x0 PUSH1 0x20 DUP5 ADD RETURNDATACOPY PUSH2 0x3BF8 JUMP JUMPDEST PUSH1 0x60 SWAP2 POP JUMPDEST POP SWAP2 POP SWAP2 POP DUP2 ISZERO PUSH2 0x3C0D JUMPI DUP1 SWAP3 POP POP POP PUSH2 0x3C5D JUMP JUMPDEST PUSH1 0x0 DUP2 MLOAD GT ISZERO PUSH2 0x3C20 JUMPI DUP1 MLOAD DUP1 DUP3 PUSH1 0x20 ADD REVERT JUMPDEST DUP4 PUSH1 0x40 MLOAD PUSH32 0x8C379A000000000000000000000000000000000000000000000000000000000 DUP2 MSTORE PUSH1 0x4 ADD PUSH2 0x3C54 SWAP2 SWAP1 PUSH2 0x4B15 JUMP JUMPDEST PUSH1 0x40 MLOAD DUP1 SWAP2 SUB SWAP1 REVERT JUMPDEST SWAP5 SWAP4 POP POP POP POP JUMP JUMPDEST PUSH1 0x0 DUP1 DUP3 EXTCODESIZE SWAP1 POP PUSH1 0x0 DUP2 GT SWAP2 POP POP SWAP2 SWAP1 POP JUMP JUMPDEST PUSH1 0x40 MLOAD DUP1 PUSH1 0xA0 ADD PUSH1 0x40 MSTORE DUP1 PUSH1 0x0 DUP2 MSTORE PUSH1 0x20 ADD PUSH1 0x0 DUP2 MSTORE PUSH1 0x20 ADD PUSH1 0x0 DUP2 MSTORE PUSH1 0x20 ADD PUSH1 0x0 DUP2 MSTORE PUSH1 0x20 ADD PUSH1 0x0 ISZERO ISZERO DUP2 MSTORE POP SWAP1 JUMP JUMPDEST PUSH1 0x40 MLOAD DUP1 PUSH1 0x60 ADD PUSH1 0x40 MSTORE DUP1 PUSH1 0x0 DUP2 MSTORE PUSH1 0x20 ADD PUSH1 0x0 DUP2 MSTORE PUSH1 0x20 ADD PUSH1 0x0 DUP2 MSTORE POP SWAP1 JUMP JUMPDEST PUSH1 0x0 DUP2 CALLDATALOAD SWAP1 POP PUSH2 0x3CD9 DUP2 PUSH2 0x5092 JUMP JUMPDEST SWAP3 SWAP2 POP POP JUMP JUMPDEST PUSH1 0x0 DUP2 CALLDATALOAD SWAP1 POP PUSH2 0x3CEE DUP2 PUSH2 0x50A9 JUMP JUMPDEST SWAP3 SWAP2 POP POP JUMP JUMPDEST PUSH1 0x0 DUP2 MLOAD SWAP1 POP PUSH2 0x3D03 DUP2 PUSH2 0x50A9 JUMP JUMPDEST SWAP3 SWAP2 POP POP JUMP JUMPDEST PUSH1 0x0 DUP2 CALLDATALOAD SWAP1 POP PUSH2 0x3D18 DUP2 PUSH2 0x50C0 JUMP JUMPDEST SWAP3 SWAP2 POP POP JUMP JUMPDEST PUSH1 0x0 DUP2 CALLDATALOAD SWAP1 POP PUSH2 0x3D2D DUP2 PUSH2 0x50D7 JUMP JUMPDEST SWAP3 SWAP2 POP POP JUMP JUMPDEST PUSH1 0x0 DUP2 MLOAD SWAP1 POP PUSH2 0x3D42 DUP2 PUSH2 0x50D7 JUMP JUMPDEST SWAP3 SWAP2 POP POP JUMP JUMPDEST PUSH1 0x0 PUSH1 0x20 DUP3 DUP5 SUB SLT ISZERO PUSH2 0x3D5A JUMPI PUSH1 0x0 DUP1 REVERT JUMPDEST PUSH1 0x0 PUSH2 0x3D68 DUP5 DUP3 DUP6 ADD PUSH2 0x3CCA JUMP JUMPDEST SWAP2 POP POP SWAP3 SWAP2 POP POP JUMP JUMPDEST PUSH1 0x0 DUP1 PUSH1 0x40 DUP4 DUP6 SUB SLT ISZERO PUSH2 0x3D84 JUMPI PUSH1 0x0 DUP1 REVERT JUMPDEST PUSH1 0x0 PUSH2 0x3D92 DUP6 DUP3 DUP7 ADD PUSH2 0x3CCA JUMP JUMPDEST SWAP3 POP POP PUSH1 0x20 PUSH2 0x3DA3 DUP6 DUP3 DUP7 ADD PUSH2 0x3CDF JUMP JUMPDEST SWAP2 POP POP SWAP3 POP SWAP3 SWAP1 POP JUMP JUMPDEST PUSH1 0x0 DUP1 PUSH1 0x40 DUP4 DUP6 SUB SLT ISZERO PUSH2 0x3DC0 JUMPI PUSH1 0x0 DUP1 REVERT JUMPDEST PUSH1 0x0 PUSH2 0x3DCE DUP6 DUP3 DUP7 ADD PUSH2 0x3CCA JUMP JUMPDEST SWAP3 POP POP PUSH1 0x20 PUSH2 0x3DDF DUP6 DUP3 DUP7 ADD PUSH2 0x3D1E JUMP JUMPDEST SWAP2 POP POP SWAP3 POP SWAP3 SWAP1 POP JUMP JUMPDEST PUSH1 0x0 DUP1 PUSH1 0x0 PUSH1 0x60 DUP5 DUP7 SUB SLT ISZERO PUSH2 0x3DFE JUMPI PUSH1 0x0 DUP1 REVERT JUMPDEST PUSH1 0x0 PUSH2 0x3E0C DUP7 DUP3 DUP8 ADD PUSH2 0x3CCA JUMP JUMPDEST SWAP4 POP POP PUSH1 0x20 PUSH2 0x3E1D DUP7 DUP3 DUP8 ADD PUSH2 0x3D1E JUMP JUMPDEST SWAP3 POP POP PUSH1 0x40 PUSH2 0x3E2E DUP7 DUP3 DUP8 ADD PUSH2 0x3D1E JUMP JUMPDEST SWAP2 POP POP SWAP3 POP SWAP3 POP SWAP3 JUMP JUMPDEST PUSH1 0x0 PUSH1 0x20 DUP3 DUP5 SUB SLT ISZERO PUSH2 0x3E4A JUMPI PUSH1 0x0 DUP1 REVERT JUMPDEST PUSH1 0x0 PUSH2 0x3E58 DUP5 DUP3 DUP6 ADD PUSH2 0x3CDF JUMP JUMPDEST SWAP2 POP POP SWAP3 SWAP2 POP POP JUMP JUMPDEST PUSH1 0x0 PUSH1 0x20 DUP3 DUP5 SUB SLT ISZERO PUSH2 0x3E73 JUMPI PUSH1 0x0 DUP1 REVERT JUMPDEST PUSH1 0x0 PUSH2 0x3E81 DUP5 DUP3 DUP6 ADD PUSH2 0x3CF4 JUMP JUMPDEST SWAP2 POP POP SWAP3 SWAP2 POP POP JUMP JUMPDEST PUSH1 0x0 PUSH1 0x20 DUP3 DUP5 SUB SLT ISZERO PUSH2 0x3E9C JUMPI PUSH1 0x0 DUP1 REVERT JUMPDEST PUSH1 0x0 PUSH2 0x3EAA DUP5 DUP3 DUP6 ADD PUSH2 0x3D09 JUMP JUMPDEST SWAP2 POP POP SWAP3 SWAP2 POP POP JUMP JUMPDEST PUSH1 0x0 PUSH1 0x20 DUP3 DUP5 SUB SLT ISZERO PUSH2 0x3EC5 JUMPI PUSH1 0x0 DUP1 REVERT JUMPDEST PUSH1 0x0 PUSH2 0x3ED3 DUP5 DUP3 DUP6 ADD PUSH2 0x3D1E JUMP JUMPDEST SWAP2 POP POP SWAP3 SWAP2 POP POP JUMP JUMPDEST PUSH1 0x0 PUSH1 0x20 DUP3 DUP5 SUB SLT ISZERO PUSH2 0x3EEE JUMPI PUSH1 0x0 DUP1 REVERT JUMPDEST PUSH1 0x0 PUSH2 0x3EFC DUP5 DUP3 DUP6 ADD PUSH2 0x3D33 JUMP JUMPDEST SWAP2 POP POP SWAP3 SWAP2 POP POP JUMP JUMPDEST PUSH1 0x0 DUP1 PUSH1 0x40 DUP4 DUP6 SUB SLT ISZERO PUSH2 0x3F18 JUMPI PUSH1 0x0 DUP1 REVERT JUMPDEST PUSH1 0x0 PUSH2 0x3F26 DUP6 DUP3 DUP7 ADD PUSH2 0x3D1E JUMP JUMPDEST SWAP3 POP POP PUSH1 0x20 PUSH2 0x3F37 DUP6 DUP3 DUP7 ADD PUSH2 0x3CCA JUMP JUMPDEST SWAP2 POP POP SWAP3 POP SWAP3 SWAP1 POP JUMP JUMPDEST PUSH1 0x0 DUP1 PUSH1 0x0 DUP1 PUSH1 0x80 DUP6 DUP8 SUB SLT ISZERO PUSH2 0x3F57 JUMPI PUSH1 0x0 DUP1 REVERT JUMPDEST PUSH1 0x0 PUSH2 0x3F65 DUP8 DUP3 DUP9 ADD PUSH2 0x3D1E JUMP JUMPDEST SWAP5 POP POP PUSH1 0x20 PUSH2 0x3F76 DUP8 DUP3 DUP9 ADD PUSH2 0x3D09 JUMP JUMPDEST SWAP4 POP POP PUSH1 0x40 PUSH2 0x3F87 DUP8 DUP3 DUP9 ADD PUSH2 0x3CDF JUMP JUMPDEST SWAP3 POP POP PUSH1 0x60 PUSH2 0x3F98 DUP8 DUP3 DUP9 ADD PUSH2 0x3CDF JUMP JUMPDEST SWAP2 POP POP SWAP3 SWAP6 SWAP2 SWAP5 POP SWAP3 POP JUMP JUMPDEST PUSH1 0x0 DUP1 PUSH1 0x40 DUP4 DUP6 SUB SLT ISZERO PUSH2 0x3FB7 JUMPI PUSH1 0x0 DUP1 REVERT JUMPDEST PUSH1 0x0 PUSH2 0x3FC5 DUP6 DUP3 DUP7 ADD PUSH2 0x3D1E JUMP JUMPDEST SWAP3 POP POP PUSH1 0x20 PUSH2 0x3FD6 DUP6 DUP3 DUP7 ADD PUSH2 0x3D1E JUMP JUMPDEST SWAP2 POP POP SWAP3 POP SWAP3 SWAP1 POP JUMP JUMPDEST PUSH1 0x0 DUP1 PUSH1 0x0 PUSH1 0x60 DUP5 DUP7 SUB SLT ISZERO PUSH2 0x3FF5 JUMPI PUSH1 0x0 DUP1 REVERT JUMPDEST PUSH1 0x0 PUSH2 0x4003 DUP7 DUP3 DUP8 ADD PUSH2 0x3D1E JUMP JUMPDEST SWAP4 POP POP PUSH1 0x20 PUSH2 0x4014 DUP7 DUP3 DUP8 ADD PUSH2 0x3D1E JUMP JUMPDEST SWAP3 POP POP PUSH1 0x40 PUSH2 0x4025 DUP7 DUP3 DUP8 ADD PUSH2 0x3CDF JUMP JUMPDEST SWAP2 POP POP SWAP3 POP SWAP3 POP SWAP3 JUMP JUMPDEST PUSH1 0x0 DUP1 PUSH1 0x0 DUP1 PUSH1 0x80 DUP6 DUP8 SUB SLT ISZERO PUSH2 0x4045 JUMPI PUSH1 0x0 DUP1 REVERT JUMPDEST PUSH1 0x0 PUSH2 0x4053 DUP8 DUP3 DUP9 ADD PUSH2 0x3D1E JUMP JUMPDEST SWAP5 POP POP PUSH1 0x20 PUSH2 0x4064 DUP8 DUP3 DUP9 ADD PUSH2 0x3D1E JUMP JUMPDEST SWAP4 POP POP PUSH1 0x40 PUSH2 0x4075 DUP8 DUP3 DUP9 ADD PUSH2 0x3D1E JUMP JUMPDEST SWAP3 POP POP PUSH1 0x60 PUSH2 0x4086 DUP8 DUP3 DUP9 ADD PUSH2 0x3CDF JUMP JUMPDEST SWAP2 POP POP SWAP3 SWAP6 SWAP2 SWAP5 POP SWAP3 POP JUMP JUMPDEST PUSH2 0x409B DUP2 PUSH2 0x4FBE JUMP JUMPDEST DUP3 MSTORE POP POP JUMP JUMPDEST PUSH2 0x40AA DUP2 PUSH2 0x4F64 JUMP JUMPDEST DUP3 MSTORE POP POP JUMP JUMPDEST PUSH2 0x40B9 DUP2 PUSH2 0x4F76 JUMP JUMPDEST DUP3 MSTORE POP POP JUMP JUMPDEST PUSH2 0x40C8 DUP2 PUSH2 0x4F76 JUMP JUMPDEST DUP3 MSTORE POP POP JUMP JUMPDEST PUSH1 0x0 PUSH2 0x40D9 DUP3 PUSH2 0x4F32 JUMP JUMPDEST PUSH2 0x40E3 DUP2 DUP6 PUSH2 0x4F48 JUMP JUMPDEST SWAP4 POP PUSH2 0x40F3 DUP2 DUP6 PUSH1 0x20 DUP7 ADD PUSH2 0x504E JUMP JUMPDEST DUP1 DUP5 ADD SWAP2 POP POP SWAP3 SWAP2 POP POP JUMP JUMPDEST PUSH2 0x4108 DUP2 PUSH2 0x4FD0 JUMP JUMPDEST DUP3 MSTORE POP POP JUMP JUMPDEST PUSH2 0x4117 DUP2 PUSH2 0x4FF4 JUMP JUMPDEST DUP3 MSTORE POP POP JUMP JUMPDEST PUSH2 0x4126 DUP2 PUSH2 0x5018 JUMP JUMPDEST DUP3 MSTORE POP POP JUMP JUMPDEST PUSH1 0x0 PUSH2 0x4137 DUP3 PUSH2 0x4F3D JUMP JUMPDEST PUSH2 0x4141 DUP2 DUP6 PUSH2 0x4F53 JUMP JUMPDEST SWAP4 POP PUSH2 0x4151 DUP2 DUP6 PUSH1 0x20 DUP7 ADD PUSH2 0x504E JUMP JUMPDEST PUSH2 0x415A DUP2 PUSH2 0x5081 JUMP JUMPDEST DUP5 ADD SWAP2 POP POP SWAP3 SWAP2 POP POP JUMP JUMPDEST PUSH1 0x0 PUSH2 0x4172 PUSH1 0x23 DUP4 PUSH2 0x4F53 JUMP JUMPDEST SWAP2 POP PUSH32 0x4D61737465724368656656323A2042616C616E6365206D757374206578636565 PUSH1 0x0 DUP4 ADD MSTORE PUSH32 0x6420300000000000000000000000000000000000000000000000000000000000 PUSH1 0x20 DUP4 ADD MSTORE PUSH1 0x40 DUP3 ADD SWAP1 POP SWAP2 SWAP1 POP JUMP JUMPDEST PUSH1 0x0 PUSH2 0x41D8 PUSH1 0x2A DUP4 PUSH2 0x4F53 JUMP JUMPDEST SWAP2 POP PUSH32 0x4D61737465724368656656323A20496E76616C6964206E657720626F6F737420 PUSH1 0x0 DUP4 ADD MSTORE PUSH32 0x6D756C7469706C69657200000000000000000000000000000000000000000000 PUSH1 0x20 DUP4 ADD MSTORE PUSH1 0x40 DUP3 ADD SWAP1 POP SWAP2 SWAP1 POP JUMP JUMPDEST PUSH1 0x0 PUSH2 0x423E PUSH1 0x2A DUP4 PUSH2 0x4F53 JUMP JUMPDEST SWAP2 POP PUSH32 0x5361666542455032303A204245503230206F7065726174696F6E20646964206E PUSH1 0x0 DUP4 ADD MSTORE PUSH32 0x6F74207375636365656400000000000000000000000000000000000000000000 PUSH1 0x20 DUP4 ADD MSTORE PUSH1 0x40 DUP3 ADD SWAP1 POP SWAP2 SWAP1 POP JUMP JUMPDEST PUSH1 0x0 PUSH2 0x42A4 PUSH1 0x26 DUP4 PUSH2 0x4F53 JUMP JUMPDEST SWAP2 POP PUSH32 0x4F776E61626C653A206E6577206F776E657220697320746865207A65726F2061 PUSH1 0x0 DUP4 ADD MSTORE PUSH32 0x6464726573730000000000000000000000000000000000000000000000000000 PUSH1 0x20 DUP4 ADD MSTORE PUSH1 0x40 DUP3 ADD SWAP1 POP SWAP2 SWAP1 POP JUMP JUMPDEST PUSH1 0x0 PUSH2 0x430A PUSH1 0x1B DUP4 PUSH2 0x4F53 JUMP JUMPDEST SWAP2 POP PUSH32 0x536166654D6174683A206164646974696F6E206F766572666C6F770000000000 PUSH1 0x0 DUP4 ADD MSTORE PUSH1 0x20 DUP3 ADD SWAP1 POP SWAP2 SWAP1 POP JUMP JUMPDEST PUSH1 0x0 PUSH2 0x434A PUSH1 0x2C DUP4 PUSH2 0x4F53 JUMP JUMPDEST SWAP2 POP PUSH32 0x4D61737465724368656656323A2054686520757365722061646472657373206D PUSH1 0x0 DUP4 ADD MSTORE PUSH32 0x7573742062652076616C69640000000000000000000000000000000000000000 PUSH1 0x20 DUP4 ADD MSTORE PUSH1 0x40 DUP3 ADD SWAP1 POP SWAP2 SWAP1 POP JUMP JUMPDEST PUSH1 0x0 PUSH2 0x43B0 PUSH1 0x2E DUP4 PUSH2 0x4F53 JUMP JUMPDEST SWAP2 POP PUSH32 0x4D61737465724368656656323A204275726E2061646D696E2061646472657373 PUSH1 0x0 DUP4 ADD MSTORE PUSH32 0x206D7573742062652076616C6964000000000000000000000000000000000000 PUSH1 0x20 DUP4 ADD MSTORE PUSH1 0x40 DUP3 ADD SWAP1 POP SWAP2 SWAP1 POP JUMP JUMPDEST PUSH1 0x0 PUSH2 0x4416 PUSH1 0x2E DUP4 PUSH2 0x4F53 JUMP JUMPDEST SWAP2 POP PUSH32 0x4D61737465724368656656323A2043616B652072617465206D75737420626520 PUSH1 0x0 DUP4 ADD MSTORE PUSH32 0x67726561746572207468616E2030000000000000000000000000000000000000 PUSH1 0x20 DUP4 ADD MSTORE PUSH1 0x40 DUP3 ADD SWAP1 POP SWAP2 SWAP1 POP JUMP JUMPDEST PUSH1 0x0 PUSH2 0x447C PUSH1 0x42 DUP4 PUSH2 0x4F53 JUMP JUMPDEST SWAP2 POP PUSH32 0x4D61737465724368656656323A205468652061646472657373206973206E6F74 PUSH1 0x0 DUP4 ADD MSTORE PUSH32 0x20617661696C61626C6520746F206465706F73697420696E207468697320706F PUSH1 0x20 DUP4 ADD MSTORE PUSH32 0x6F6C000000000000000000000000000000000000000000000000000000000000 PUSH1 0x40 DUP4 ADD MSTORE PUSH1 0x60 DUP3 ADD SWAP1 POP SWAP2 SWAP1 POP JUMP JUMPDEST PUSH1 0x0 PUSH2 0x4508 PUSH1 0x21 DUP4 PUSH2 0x4F53 JUMP JUMPDEST SWAP2 POP PUSH32 0x536166654D6174683A206D756C7469706C69636174696F6E206F766572666C6F PUSH1 0x0 DUP4 ADD MSTORE PUSH32 0x7700000000000000000000000000000000000000000000000000000000000000 PUSH1 0x20 DUP4 ADD MSTORE PUSH1 0x40 DUP3 ADD SWAP1 POP SWAP2 SWAP1 POP JUMP JUMPDEST PUSH1 0x0 PUSH2 0x456E PUSH1 0x16 DUP4 PUSH2 0x4F53 JUMP JUMPDEST SWAP2 POP PUSH32 0x77697468647261773A20496E73756666696369656E7400000000000000000000 PUSH1 0x0 DUP4 ADD MSTORE PUSH1 0x20 DUP3 ADD SWAP1 POP SWAP2 SWAP1 POP JUMP JUMPDEST PUSH1 0x0 PUSH2 0x45AE PUSH1 0x11 DUP4 PUSH2 0x4F53 JUMP JUMPDEST SWAP2 POP PUSH32 0x4E6F6E6520424550323020746F6B656E73000000000000000000000000000000 PUSH1 0x0 DUP4 ADD MSTORE PUSH1 0x20 DUP3 ADD SWAP1 POP SWAP2 SWAP1 POP JUMP JUMPDEST PUSH1 0x0 PUSH2 0x45EE PUSH1 0x20 DUP4 PUSH2 0x4F53 JUMP JUMPDEST SWAP2 POP PUSH32 0x4F776E61626C653A2063616C6C6572206973206E6F7420746865206F776E6572 PUSH1 0x0 DUP4 ADD MSTORE PUSH1 0x20 DUP3 ADD SWAP1 POP SWAP2 SWAP1 POP JUMP JUMPDEST PUSH1 0x0 PUSH2 0x462E PUSH1 0x29 DUP4 PUSH2 0x4F53 JUMP JUMPDEST SWAP2 POP PUSH32 0x4F776E61626C653A2063616C6C6572206973206E6F742074686520626F6F7374 PUSH1 0x0 DUP4 ADD MSTORE PUSH32 0x20636F6E74726163740000000000000000000000000000000000000000000000 PUSH1 0x20 DUP4 ADD MSTORE PUSH1 0x40 DUP3 ADD SWAP1 POP SWAP2 SWAP1 POP JUMP JUMPDEST PUSH1 0x0 PUSH2 0x4694 PUSH1 0x27 DUP4 PUSH2 0x4F53 JUMP JUMPDEST SWAP2 POP PUSH32 0x43414B4520746F6B656E2063616E277420626520616464656420746F20666172 PUSH1 0x0 DUP4 ADD MSTORE PUSH32 0x6D20706F6F6C7300000000000000000000000000000000000000000000000000 PUSH1 0x20 DUP4 ADD MSTORE PUSH1 0x40 DUP3 ADD SWAP1 POP SWAP2 SWAP1 POP JUMP JUMPDEST PUSH1 0x0 PUSH2 0x46FA PUSH1 0x30 DUP4 PUSH2 0x4F53 JUMP JUMPDEST SWAP2 POP PUSH32 0x4D61737465724368656656323A204F6E6C7920726567756C6172206661726D20 PUSH1 0x0 DUP4 ADD MSTORE PUSH32 0x636F756C6420626520626F6F7374656400000000000000000000000000000000 PUSH1 0x20 DUP4 ADD MSTORE PUSH1 0x40 DUP3 ADD SWAP1 POP SWAP2 SWAP1 POP JUMP JUMPDEST PUSH1 0x0 PUSH2 0x4760 PUSH1 0x32 DUP4 PUSH2 0x4F53 JUMP JUMPDEST SWAP2 POP PUSH32 0x4D61737465724368656656323A20546865207768697465206C69737420616464 PUSH1 0x0 DUP4 ADD MSTORE PUSH32 0x72657373206D7573742062652076616C69640000000000000000000000000000 PUSH1 0x20 DUP4 ADD MSTORE PUSH1 0x40 DUP3 ADD SWAP1 POP SWAP2 SWAP1 POP JUMP JUMPDEST PUSH1 0x0 PUSH2 0x47C6 PUSH1 0x1D DUP4 PUSH2 0x4F53 JUMP JUMPDEST SWAP2 POP PUSH32 0x416464726573733A2063616C6C20746F206E6F6E2D636F6E7472616374000000 PUSH1 0x0 DUP4 ADD MSTORE PUSH1 0x20 DUP3 ADD SWAP1 POP SWAP2 SWAP1 POP JUMP JUMPDEST PUSH1 0x0 PUSH2 0x4806 PUSH1 0x25 DUP4 PUSH2 0x4F53 JUMP JUMPDEST SWAP2 POP PUSH32 0x4D61737465724368656656323A20546F74616C2072617465206D757374206265 PUSH1 0x0 DUP4 ADD MSTORE PUSH32 0x2031653132000000000000000000000000000000000000000000000000000000 PUSH1 0x20 DUP4 ADD MSTORE PUSH1 0x40 DUP3 ADD SWAP1 POP SWAP2 SWAP1 POP JUMP JUMPDEST PUSH1 0x0 PUSH2 0x486C PUSH1 0x1F DUP4 PUSH2 0x4F53 JUMP JUMPDEST SWAP2 POP PUSH32 0x5265656E7472616E637947756172643A207265656E7472616E742063616C6C00 PUSH1 0x0 DUP4 ADD MSTORE PUSH1 0x20 DUP3 ADD SWAP1 POP SWAP2 SWAP1 POP JUMP JUMPDEST PUSH1 0x0 PUSH2 0x48AC PUSH1 0x41 DUP4 PUSH2 0x4F53 JUMP JUMPDEST SWAP2 POP PUSH32 0x4D61737465724368656656323A204275726E2061646D696E2061646472657373 PUSH1 0x0 DUP4 ADD MSTORE PUSH32 0x206973207468652073616D6520776974682063757272656E7420616464726573 PUSH1 0x20 DUP4 ADD MSTORE PUSH32 0x7300000000000000000000000000000000000000000000000000000000000000 PUSH1 0x40 DUP4 ADD MSTORE PUSH1 0x60 DUP3 ADD SWAP1 POP SWAP2 SWAP1 POP JUMP JUMPDEST PUSH1 0x0 PUSH2 0x4938 PUSH1 0x36 DUP4 PUSH2 0x4F53 JUMP JUMPDEST SWAP2 POP PUSH32 0x4D61737465724368656656323A204E657720626F6F737420636F6E7472616374 PUSH1 0x0 DUP4 ADD MSTORE PUSH32 0x2061646472657373206D7573742062652076616C696400000000000000000000 PUSH1 0x20 DUP4 ADD MSTORE PUSH1 0x40 DUP3 ADD SWAP1 POP SWAP2 SWAP1 POP JUMP JUMPDEST PUSH1 0xA0 DUP3 ADD PUSH1 0x0 DUP3 ADD MLOAD PUSH2 0x49A7 PUSH1 0x0 DUP6 ADD DUP3 PUSH2 0x49F9 JUMP JUMPDEST POP PUSH1 0x20 DUP3 ADD MLOAD PUSH2 0x49BA PUSH1 0x20 DUP6 ADD DUP3 PUSH2 0x49F9 JUMP JUMPDEST POP PUSH1 0x40 DUP3 ADD MLOAD PUSH2 0x49CD PUSH1 0x40 DUP6 ADD DUP3 PUSH2 0x49F9 JUMP JUMPDEST POP PUSH1 0x60 DUP3 ADD MLOAD PUSH2 0x49E0 PUSH1 0x60 DUP6 ADD DUP3 PUSH2 0x49F9 JUMP JUMPDEST POP PUSH1 0x80 DUP3 ADD MLOAD PUSH2 0x49F3 PUSH1 0x80 DUP6 ADD DUP3 PUSH2 0x40B0 JUMP JUMPDEST POP POP POP POP JUMP JUMPDEST PUSH2 0x4A02 DUP2 PUSH2 0x4FB4 JUMP JUMPDEST DUP3 MSTORE POP POP JUMP JUMPDEST PUSH2 0x4A11 DUP2 PUSH2 0x4FB4 JUMP JUMPDEST DUP3 MSTORE POP POP JUMP JUMPDEST PUSH1 0x0 PUSH2 0x4A23 DUP3 DUP5 PUSH2 0x40CE JUMP JUMPDEST SWAP2 POP DUP2 SWAP1 POP SWAP3 SWAP2 POP POP JUMP JUMPDEST PUSH1 0x0 PUSH1 0x20 DUP3 ADD SWAP1 POP PUSH2 0x4A43 PUSH1 0x0 DUP4 ADD DUP5 PUSH2 0x40A1 JUMP JUMPDEST SWAP3 SWAP2 POP POP JUMP JUMPDEST PUSH1 0x0 PUSH1 0x20 DUP3 ADD SWAP1 POP PUSH2 0x4A5E PUSH1 0x0 DUP4 ADD DUP5 PUSH2 0x4092 JUMP JUMPDEST SWAP3 SWAP2 POP POP JUMP JUMPDEST PUSH1 0x0 PUSH1 0x60 DUP3 ADD SWAP1 POP PUSH2 0x4A79 PUSH1 0x0 DUP4 ADD DUP7 PUSH2 0x40A1 JUMP JUMPDEST PUSH2 0x4A86 PUSH1 0x20 DUP4 ADD DUP6 PUSH2 0x40A1 JUMP JUMPDEST PUSH2 0x4A93 PUSH1 0x40 DUP4 ADD DUP5 PUSH2 0x4A08 JUMP JUMPDEST SWAP5 SWAP4 POP POP POP POP JUMP JUMPDEST PUSH1 0x0 PUSH1 0x40 DUP3 ADD SWAP1 POP PUSH2 0x4AB0 PUSH1 0x0 DUP4 ADD DUP6 PUSH2 0x40A1 JUMP JUMPDEST PUSH2 0x4ABD PUSH1 0x20 DUP4 ADD DUP5 PUSH2 0x4A08 JUMP JUMPDEST SWAP4 SWAP3 POP POP POP JUMP JUMPDEST PUSH1 0x0 PUSH1 0x20 DUP3 ADD SWAP1 POP PUSH2 0x4AD9 PUSH1 0x0 DUP4 ADD DUP5 PUSH2 0x40BF JUMP JUMPDEST SWAP3 SWAP2 POP POP JUMP JUMPDEST PUSH1 0x0 PUSH1 0x20 DUP3 ADD SWAP1 POP PUSH2 0x4AF4 PUSH1 0x0 DUP4 ADD DUP5 PUSH2 0x40FF JUMP JUMPDEST SWAP3 SWAP2 POP POP JUMP JUMPDEST PUSH1 0x0 PUSH1 0x20 DUP3 ADD SWAP1 POP PUSH2 0x4B0F PUSH1 0x0 DUP4 ADD DUP5 PUSH2 0x410E JUMP JUMPDEST SWAP3 SWAP2 POP POP JUMP JUMPDEST PUSH1 0x0 PUSH1 0x20 DUP3 ADD SWAP1 POP DUP2 DUP2 SUB PUSH1 0x0 DUP4 ADD MSTORE PUSH2 0x4B2F DUP2 DUP5 PUSH2 0x412C JUMP JUMPDEST SWAP1 POP SWAP3 SWAP2 POP POP JUMP JUMPDEST PUSH1 0x0 PUSH1 0x20 DUP3 ADD SWAP1 POP DUP2 DUP2 SUB PUSH1 0x0 DUP4 ADD MSTORE PUSH2 0x4B50 DUP2 PUSH2 0x4165 JUMP JUMPDEST SWAP1 POP SWAP2 SWAP1 POP JUMP JUMPDEST PUSH1 0x0 PUSH1 0x20 DUP3 ADD SWAP1 POP DUP2 DUP2 SUB PUSH1 0x0 DUP4 ADD MSTORE PUSH2 0x4B70 DUP2 PUSH2 0x41CB JUMP JUMPDEST SWAP1 POP SWAP2 SWAP1 POP JUMP JUMPDEST PUSH1 0x0 PUSH1 0x20 DUP3 ADD SWAP1 POP DUP2 DUP2 SUB PUSH1 0x0 DUP4 ADD MSTORE PUSH2 0x4B90 DUP2 PUSH2 0x4231 JUMP JUMPDEST SWAP1 POP SWAP2 SWAP1 POP JUMP JUMPDEST PUSH1 0x0 PUSH1 0x20 DUP3 ADD SWAP1 POP DUP2 DUP2 SUB PUSH1 0x0 DUP4 ADD MSTORE PUSH2 0x4BB0 DUP2 PUSH2 0x4297 JUMP JUMPDEST SWAP1 POP SWAP2 SWAP1 POP JUMP JUMPDEST PUSH1 0x0 PUSH1 0x20 DUP3 ADD SWAP1 POP DUP2 DUP2 SUB PUSH1 0x0 DUP4 ADD MSTORE PUSH2 0x4BD0 DUP2 PUSH2 0x42FD JUMP JUMPDEST SWAP1 POP SWAP2 SWAP1 POP JUMP JUMPDEST PUSH1 0x0 PUSH1 0x20 DUP3 ADD SWAP1 POP DUP2 DUP2 SUB PUSH1 0x0 DUP4 ADD MSTORE PUSH2 0x4BF0 DUP2 PUSH2 0x433D JUMP JUMPDEST SWAP1 POP SWAP2 SWAP1 POP JUMP JUMPDEST PUSH1 0x0 PUSH1 0x20 DUP3 ADD SWAP1 POP DUP2 DUP2 SUB PUSH1 0x0 DUP4 ADD MSTORE PUSH2 0x4C10 DUP2 PUSH2 0x43A3 JUMP JUMPDEST SWAP1 POP SWAP2 SWAP1 POP JUMP JUMPDEST PUSH1 0x0 PUSH1 0x20 DUP3 ADD SWAP1 POP DUP2 DUP2 SUB PUSH1 0x0 DUP4 ADD MSTORE PUSH2 0x4C30 DUP2 PUSH2 0x4409 JUMP JUMPDEST SWAP1 POP SWAP2 SWAP1 POP JUMP JUMPDEST PUSH1 0x0 PUSH1 0x20 DUP3 ADD SWAP1 POP DUP2 DUP2 SUB PUSH1 0x0 DUP4 ADD MSTORE PUSH2 0x4C50 DUP2 PUSH2 0x446F JUMP JUMPDEST SWAP1 POP SWAP2 SWAP1 POP JUMP JUMPDEST PUSH1 0x0 PUSH1 0x20 DUP3 ADD SWAP1 POP DUP2 DUP2 SUB PUSH1 0x0 DUP4 ADD MSTORE PUSH2 0x4C70 DUP2 PUSH2 0x44FB JUMP JUMPDEST SWAP1 POP SWAP2 SWAP1 POP JUMP JUMPDEST PUSH1 0x0 PUSH1 0x20 DUP3 ADD SWAP1 POP DUP2 DUP2 SUB PUSH1 0x0 DUP4 ADD MSTORE PUSH2 0x4C90 DUP2 PUSH2 0x4561 JUMP JUMPDEST SWAP1 POP SWAP2 SWAP1 POP JUMP JUMPDEST PUSH1 0x0 PUSH1 0x20 DUP3 ADD SWAP1 POP DUP2 DUP2 SUB PUSH1 0x0 DUP4 ADD MSTORE PUSH2 0x4CB0 DUP2 PUSH2 0x45A1 JUMP JUMPDEST SWAP1 POP SWAP2 SWAP1 POP JUMP JUMPDEST PUSH1 0x0 PUSH1 0x20 DUP3 ADD SWAP1 POP DUP2 DUP2 SUB PUSH1 0x0 DUP4 ADD MSTORE PUSH2 0x4CD0 DUP2 PUSH2 0x45E1 JUMP JUMPDEST SWAP1 POP SWAP2 SWAP1 POP JUMP JUMPDEST PUSH1 0x0 PUSH1 0x20 DUP3 ADD SWAP1 POP DUP2 DUP2 SUB PUSH1 0x0 DUP4 ADD MSTORE PUSH2 0x4CF0 DUP2 PUSH2 0x4621 JUMP JUMPDEST SWAP1 POP SWAP2 SWAP1 POP JUMP JUMPDEST PUSH1 0x0 PUSH1 0x20 DUP3 ADD SWAP1 POP DUP2 DUP2 SUB PUSH1 0x0 DUP4 ADD MSTORE PUSH2 0x4D10 DUP2 PUSH2 0x4687 JUMP JUMPDEST SWAP1 POP SWAP2 SWAP1 POP JUMP JUMPDEST PUSH1 0x0 PUSH1 0x20 DUP3 ADD SWAP1 POP DUP2 DUP2 SUB PUSH1 0x0 DUP4 ADD MSTORE PUSH2 0x4D30 DUP2 PUSH2 0x46ED JUMP JUMPDEST SWAP1 POP SWAP2 SWAP1 POP JUMP JUMPDEST PUSH1 0x0 PUSH1 0x20 DUP3 ADD SWAP1 POP DUP2 DUP2 SUB PUSH1 0x0 DUP4 ADD MSTORE PUSH2 0x4D50 DUP2 PUSH2 0x4753 JUMP JUMPDEST SWAP1 POP SWAP2 SWAP1 POP JUMP JUMPDEST PUSH1 0x0 PUSH1 0x20 DUP3 ADD SWAP1 POP DUP2 DUP2 SUB PUSH1 0x0 DUP4 ADD MSTORE PUSH2 0x4D70 DUP2 PUSH2 0x47B9 JUMP JUMPDEST SWAP1 POP SWAP2 SWAP1 POP JUMP JUMPDEST PUSH1 0x0 PUSH1 0x20 DUP3 ADD SWAP1 POP DUP2 DUP2 SUB PUSH1 0x0 DUP4 ADD MSTORE PUSH2 0x4D90 DUP2 PUSH2 0x47F9 JUMP JUMPDEST SWAP1 POP SWAP2 SWAP1 POP JUMP JUMPDEST PUSH1 0x0 PUSH1 0x20 DUP3 ADD SWAP1 POP DUP2 DUP2 SUB PUSH1 0x0 DUP4 ADD MSTORE PUSH2 0x4DB0 DUP2 PUSH2 0x485F JUMP JUMPDEST SWAP1 POP SWAP2 SWAP1 POP JUMP JUMPDEST PUSH1 0x0 PUSH1 0x20 DUP3 ADD SWAP1 POP DUP2 DUP2 SUB PUSH1 0x0 DUP4 ADD MSTORE PUSH2 0x4DD0 DUP2 PUSH2 0x489F JUMP JUMPDEST SWAP1 POP SWAP2 SWAP1 POP JUMP JUMPDEST PUSH1 0x0 PUSH1 0x20 DUP3 ADD SWAP1 POP DUP2 DUP2 SUB PUSH1 0x0 DUP4 ADD MSTORE PUSH2 0x4DF0 DUP2 PUSH2 0x492B JUMP JUMPDEST SWAP1 POP SWAP2 SWAP1 POP JUMP JUMPDEST PUSH1 0x0 PUSH1 0xA0 DUP3 ADD SWAP1 POP PUSH2 0x4E0C PUSH1 0x0 DUP4 ADD DUP5 PUSH2 0x4991 JUMP JUMPDEST SWAP3 SWAP2 POP POP JUMP JUMPDEST PUSH1 0x0 PUSH1 0x20 DUP3 ADD SWAP1 POP PUSH2 0x4E27 PUSH1 0x0 DUP4 ADD DUP5 PUSH2 0x4A08 JUMP JUMPDEST SWAP3 SWAP2 POP POP JUMP JUMPDEST PUSH1 0x0 PUSH1 0x40 DUP3 ADD SWAP1 POP PUSH2 0x4E42 PUSH1 0x0 DUP4 ADD DUP6 PUSH2 0x4A08 JUMP JUMPDEST PUSH2 0x4E4F PUSH1 0x20 DUP4 ADD DUP5 PUSH2 0x40BF JUMP JUMPDEST SWAP4 SWAP3 POP POP POP JUMP JUMPDEST PUSH1 0x0 PUSH1 0x40 DUP3 ADD SWAP1 POP PUSH2 0x4E6B PUSH1 0x0 DUP4 ADD DUP6 PUSH2 0x4A08 JUMP JUMPDEST PUSH2 0x4E78 PUSH1 0x20 DUP4 ADD DUP5 PUSH2 0x411D JUMP JUMPDEST SWAP4 SWAP3 POP POP POP JUMP JUMPDEST PUSH1 0x0 PUSH1 0x40 DUP3 ADD SWAP1 POP PUSH2 0x4E94 PUSH1 0x0 DUP4 ADD DUP6 PUSH2 0x4A08 JUMP JUMPDEST PUSH2 0x4EA1 PUSH1 0x20 DUP4 ADD DUP5 PUSH2 0x4A08 JUMP JUMPDEST SWAP4 SWAP3 POP POP POP JUMP JUMPDEST PUSH1 0x0 PUSH1 0x60 DUP3 ADD SWAP1 POP PUSH2 0x4EBD PUSH1 0x0 DUP4 ADD DUP7 PUSH2 0x4A08 JUMP JUMPDEST PUSH2 0x4ECA PUSH1 0x20 DUP4 ADD DUP6 PUSH2 0x4A08 JUMP JUMPDEST PUSH2 0x4ED7 PUSH1 0x40 DUP4 ADD DUP5 PUSH2 0x4A08 JUMP JUMPDEST SWAP5 SWAP4 POP POP POP POP JUMP JUMPDEST PUSH1 0x0 PUSH1 0xA0 DUP3 ADD SWAP1 POP PUSH2 0x4EF4 PUSH1 0x0 DUP4 ADD DUP9 PUSH2 0x4A08 JUMP JUMPDEST PUSH2 0x4F01 PUSH1 0x20 DUP4 ADD DUP8 PUSH2 0x4A08 JUMP JUMPDEST PUSH2 0x4F0E PUSH1 0x40 DUP4 ADD DUP7 PUSH2 0x4A08 JUMP JUMPDEST PUSH2 0x4F1B PUSH1 0x60 DUP4 ADD DUP6 PUSH2 0x4A08 JUMP JUMPDEST PUSH2 0x4F28 PUSH1 0x80 DUP4 ADD DUP5 PUSH2 0x40BF JUMP JUMPDEST SWAP7 SWAP6 POP POP POP POP POP POP JUMP JUMPDEST PUSH1 0x0 DUP2 MLOAD SWAP1 POP SWAP2 SWAP1 POP JUMP JUMPDEST PUSH1 0x0 DUP2 MLOAD SWAP1 POP SWAP2 SWAP1 POP JUMP JUMPDEST PUSH1 0x0 DUP2 SWAP1 POP SWAP3 SWAP2 POP POP JUMP JUMPDEST PUSH1 0x0 DUP3 DUP3 MSTORE PUSH1 0x20 DUP3 ADD SWAP1 POP SWAP3 SWAP2 POP POP JUMP JUMPDEST PUSH1 0x0 PUSH2 0x4F6F DUP3 PUSH2 0x4F94 JUMP JUMPDEST SWAP1 POP SWAP2 SWAP1 POP JUMP JUMPDEST PUSH1 0x0 DUP2 ISZERO ISZERO SWAP1 POP SWAP2 SWAP1 POP JUMP JUMPDEST PUSH1 0x0 PUSH2 0x4F8D DUP3 PUSH2 0x4F64 JUMP JUMPDEST SWAP1 POP SWAP2 SWAP1 POP JUMP JUMPDEST PUSH1 0x0 PUSH20 0xFFFFFFFFFFFFFFFFFFFFFFFFFFFFFFFFFFFFFFFF DUP3 AND SWAP1 POP SWAP2 SWAP1 POP JUMP JUMPDEST PUSH1 0x0 DUP2 SWAP1 POP SWAP2 SWAP1 POP JUMP JUMPDEST PUSH1 0x0 PUSH2 0x4FC9 DUP3 PUSH2 0x502A JUMP JUMPDEST SWAP1 POP SWAP2 SWAP1 POP JUMP JUMPDEST PUSH1 0x0 PUSH2 0x4FDB DUP3 PUSH2 0x4FE2 JUMP JUMPDEST SWAP1 POP SWAP2 SWAP1 POP JUMP JUMPDEST PUSH1 0x0 PUSH2 0x4FED DUP3 PUSH2 0x4F94 JUMP JUMPDEST SWAP1 POP SWAP2 SWAP1 POP JUMP JUMPDEST PUSH1 0x0 PUSH2 0x4FFF DUP3 PUSH2 0x5006 JUMP JUMPDEST SWAP1 POP SWAP2 SWAP1 POP JUMP JUMPDEST PUSH1 0x0 PUSH2 0x5011 DUP3 PUSH2 0x4F94 JUMP JUMPDEST SWAP1 POP SWAP2 SWAP1 POP JUMP JUMPDEST PUSH1 0x0 PUSH2 0x5023 DUP3 PUSH2 0x4FB4 JUMP JUMPDEST SWAP1 POP SWAP2 SWAP1 POP JUMP JUMPDEST PUSH1 0x0 PUSH2 0x5035 DUP3 PUSH2 0x503C JUMP JUMPDEST SWAP1 POP SWAP2 SWAP1 POP JUMP JUMPDEST PUSH1 0x0 PUSH2 0x5047 DUP3 PUSH2 0x4F94 JUMP JUMPDEST SWAP1 POP SWAP2 SWAP1 POP JUMP JUMPDEST PUSH1 0x0 JUMPDEST DUP4 DUP2 LT ISZERO PUSH2 0x506C JUMPI DUP1 DUP3 ADD MLOAD DUP2 DUP5 ADD MSTORE PUSH1 0x20 DUP2 ADD SWAP1 POP PUSH2 0x5051 JUMP JUMPDEST DUP4 DUP2 GT ISZERO PUSH2 0x507B JUMPI PUSH1 0x0 DUP5 DUP5 ADD MSTORE JUMPDEST POP POP POP POP JUMP JUMPDEST PUSH1 0x0 PUSH1 0x1F NOT PUSH1 0x1F DUP4 ADD AND SWAP1 POP SWAP2 SWAP1 POP JUMP JUMPDEST PUSH2 0x509B DUP2 PUSH2 0x4F64 JUMP JUMPDEST DUP2 EQ PUSH2 0x50A6 JUMPI PUSH1 0x0 DUP1 REVERT JUMPDEST POP JUMP JUMPDEST PUSH2 0x50B2 DUP2 PUSH2 0x4F76 JUMP JUMPDEST DUP2 EQ PUSH2 0x50BD JUMPI PUSH1 0x0 DUP1 REVERT JUMPDEST POP JUMP JUMPDEST PUSH2 0x50C9 DUP2 PUSH2 0x4F82 JUMP JUMPDEST DUP2 EQ PUSH2 0x50D4 JUMPI PUSH1 0x0 DUP1 REVERT JUMPDEST POP JUMP JUMPDEST PUSH2 0x50E0 DUP2 PUSH2 0x4FB4 JUMP JUMPDEST DUP2 EQ PUSH2 0x50EB JUMPI PUSH1 0x0 DUP1 REVERT JUMPDEST POP JUMP INVALID LOG2 PUSH5 0x6970667358 0x22 SLT KECCAK256 PUSH21 0x3ACE61D3A62CE2CFFF9FA955388DA5348138B71BDD DIV MLOAD 0xAD PUSH27 0xB1C3F903AC0D64736F6C634300060C003300000000000000000000 "
				},
				"gasEstimates": {
					"creation": {
						"codeDepositCost": "4154400",
						"executionCost": "infinite",
						"totalCost": "infinite"
					},
					"external": {
						"ACC_CAKE_PRECISION()": "375",
						"BOOST_PRECISION()": "440",
						"CAKE()": "infinite",
						"CAKE_RATE_TOTAL_PRECISION()": "439",
						"MASTERCHEF_CAKE_PER_BLOCK()": "375",
						"MASTER_CHEF()": "infinite",
						"MASTER_PID()": "infinite",
						"MAX_BOOST_PRECISION()": "462",
						"add(uint256,address,bool,bool)": "infinite",
						"boostContract()": "1258",
						"burnAdmin()": "1348",
						"burnCake(bool)": "infinite",
						"cakePerBlock(bool)": "infinite",
						"cakePerBlockToBurn()": "infinite",
						"cakeRateToBurn()": "1195",
						"cakeRateToRegularFarm()": "1284",
						"cakeRateToSpecialFarm()": "1219",
						"deposit(uint256,uint256)": "infinite",
						"emergencyWithdraw(uint256)": "infinite",
						"getBoostMultiplier(address,uint256)": "infinite",
						"harvestFromMasterChef()": "infinite",
						"init(address)": "infinite",
						"lastBurnedBlock()": "1219",
						"lpToken(uint256)": "2511",
						"massUpdatePools()": "infinite",
						"owner()": "1267",
						"pendingCake(uint256,address)": "infinite",
						"poolInfo(uint256)": "infinite",
						"poolLength()": "1236",
						"renounceOwnership()": "24446",
						"set(uint256,uint256,bool)": "infinite",
						"totalRegularAllocPoint()": "1196",
						"totalSpecialAllocPoint()": "1218",
						"transferOwnership(address)": "24794",
						"updateBoostContract(address)": "24438",
						"updateBoostMultiplier(address,uint256,uint256)": "infinite",
						"updateBurnAdmin(address)": "25643",
						"updateCakeRate(uint256,uint256,uint256,bool)": "infinite",
						"updatePool(uint256)": "infinite",
						"updateWhiteList(address,bool)": "infinite",
						"userInfo(uint256,address)": "infinite",
						"whiteList(address)": "1679",
						"withdraw(uint256,uint256)": "infinite"
					},
					"internal": {
						"_safeTransfer(address,uint256)": "infinite",
						"settlePendingCake(address,uint256,uint256)": "infinite"
					}
				},
				"methodIdentifiers": {
					"ACC_CAKE_PRECISION()": "7398b7ea",
					"BOOST_PRECISION()": "cc6db2da",
					"CAKE()": "4ca6ef28",
					"CAKE_RATE_TOTAL_PRECISION()": "e39e1323",
					"MASTERCHEF_CAKE_PER_BLOCK()": "39aae5ba",
					"MASTER_CHEF()": "edd8b170",
					"MASTER_PID()": "61621aaa",
					"MAX_BOOST_PRECISION()": "69b02128",
					"add(uint256,address,bool,bool)": "c507aeaa",
					"boostContract()": "dfcedeee",
					"burnAdmin()": "81bdf98c",
					"burnCake(bool)": "777a97f8",
					"cakePerBlock(bool)": "1e9b828b",
					"cakePerBlockToBurn()": "9dcc1b5f",
					"cakeRateToBurn()": "e0f91f6c",
					"cakeRateToRegularFarm()": "aa47bc8e",
					"cakeRateToSpecialFarm()": "1ce06d57",
					"deposit(uint256,uint256)": "e2bbb158",
					"emergencyWithdraw(uint256)": "5312ea8e",
					"getBoostMultiplier(address,uint256)": "033186e8",
					"harvestFromMasterChef()": "4f70b15a",
					"init(address)": "19ab453c",
					"lastBurnedBlock()": "78db4c34",
					"lpToken(uint256)": "78ed5d1f",
					"massUpdatePools()": "630b5ba1",
					"owner()": "8da5cb5b",
					"pendingCake(uint256,address)": "1175a1dd",
					"poolInfo(uint256)": "1526fe27",
					"poolLength()": "081e3eda",
					"renounceOwnership()": "715018a6",
					"set(uint256,uint256,bool)": "64482f79",
					"totalRegularAllocPoint()": "c40d337b",
					"totalSpecialAllocPoint()": "99d7e84a",
					"transferOwnership(address)": "f2fde38b",
					"updateBoostContract(address)": "9dd2fcc3",
					"updateBoostMultiplier(address,uint256,uint256)": "041a84c9",
					"updateBurnAdmin(address)": "0bb844bc",
					"updateCakeRate(uint256,uint256,uint256,bool)": "dc6363df",
					"updatePool(uint256)": "51eb05a6",
					"updateWhiteList(address,bool)": "ac1d0609",
					"userInfo(uint256,address)": "93f1a40b",
					"whiteList(address)": "372c12b1",
					"withdraw(uint256,uint256)": "441a3e70"
				}
			},
			"storageLayout": {
				"storage": [
					{
						"astId": 1887,
						"contract": "Users/leilei/Downloads/MasterChefV2/MasterChefV2.sol:MasterChefV2",
						"label": "_owner",
						"offset": 0,
						"slot": "0",
						"type": "t_address"
					},
					{
						"astId": 1999,
						"contract": "Users/leilei/Downloads/MasterChefV2/MasterChefV2.sol:MasterChefV2",
						"label": "_status",
						"offset": 0,
						"slot": "1",
						"type": "t_uint256"
					},
					{
						"astId": 264,
						"contract": "Users/leilei/Downloads/MasterChefV2/MasterChefV2.sol:MasterChefV2",
						"label": "burnAdmin",
						"offset": 0,
						"slot": "2",
						"type": "t_address"
					},
					{
						"astId": 267,
						"contract": "Users/leilei/Downloads/MasterChefV2/MasterChefV2.sol:MasterChefV2",
						"label": "boostContract",
						"offset": 0,
						"slot": "3",
						"type": "t_address"
					},
					{
						"astId": 271,
						"contract": "Users/leilei/Downloads/MasterChefV2/MasterChefV2.sol:MasterChefV2",
						"label": "poolInfo",
						"offset": 0,
						"slot": "4",
						"type": "t_array(t_struct(PoolInfo)255_storage)dyn_storage"
					},
					{
						"astId": 275,
						"contract": "Users/leilei/Downloads/MasterChefV2/MasterChefV2.sol:MasterChefV2",
						"label": "lpToken",
						"offset": 0,
						"slot": "5",
						"type": "t_array(t_contract(IBEP20)2538)dyn_storage"
					},
					{
						"astId": 282,
						"contract": "Users/leilei/Downloads/MasterChefV2/MasterChefV2.sol:MasterChefV2",
						"label": "userInfo",
						"offset": 0,
						"slot": "6",
						"type": "t_mapping(t_uint256,t_mapping(t_address,t_struct(UserInfo)244_storage))"
					},
					{
						"astId": 287,
						"contract": "Users/leilei/Downloads/MasterChefV2/MasterChefV2.sol:MasterChefV2",
						"label": "whiteList",
						"offset": 0,
						"slot": "7",
						"type": "t_mapping(t_address,t_bool)"
					},
					{
						"astId": 293,
						"contract": "Users/leilei/Downloads/MasterChefV2/MasterChefV2.sol:MasterChefV2",
						"label": "totalRegularAllocPoint",
						"offset": 0,
						"slot": "8",
						"type": "t_uint256"
					},
					{
						"astId": 296,
						"contract": "Users/leilei/Downloads/MasterChefV2/MasterChefV2.sol:MasterChefV2",
						"label": "totalSpecialAllocPoint",
						"offset": 0,
						"slot": "9",
						"type": "t_uint256"
					},
					{
						"astId": 325,
						"contract": "Users/leilei/Downloads/MasterChefV2/MasterChefV2.sol:MasterChefV2",
						"label": "cakeRateToBurn",
						"offset": 0,
						"slot": "10",
						"type": "t_uint256"
					},
					{
						"astId": 329,
						"contract": "Users/leilei/Downloads/MasterChefV2/MasterChefV2.sol:MasterChefV2",
						"label": "cakeRateToRegularFarm",
						"offset": 0,
						"slot": "11",
						"type": "t_uint256"
					},
					{
						"astId": 333,
						"contract": "Users/leilei/Downloads/MasterChefV2/MasterChefV2.sol:MasterChefV2",
						"label": "cakeRateToSpecialFarm",
						"offset": 0,
						"slot": "12",
						"type": "t_uint256"
					},
					{
						"astId": 335,
						"contract": "Users/leilei/Downloads/MasterChefV2/MasterChefV2.sol:MasterChefV2",
						"label": "lastBurnedBlock",
						"offset": 0,
						"slot": "13",
						"type": "t_uint256"
					}
				],
				"types": {
					"t_address": {
						"encoding": "inplace",
						"label": "address",
						"numberOfBytes": "20"
					},
					"t_array(t_contract(IBEP20)2538)dyn_storage": {
						"base": "t_contract(IBEP20)2538",
						"encoding": "dynamic_array",
						"label": "contract IBEP20[]",
						"numberOfBytes": "32"
					},
					"t_array(t_struct(PoolInfo)255_storage)dyn_storage": {
						"base": "t_struct(PoolInfo)255_storage",
						"encoding": "dynamic_array",
						"label": "struct MasterChefV2.PoolInfo[]",
						"numberOfBytes": "32"
					},
					"t_bool": {
						"encoding": "inplace",
						"label": "bool",
						"numberOfBytes": "1"
					},
					"t_contract(IBEP20)2538": {
						"encoding": "inplace",
						"label": "contract IBEP20",
						"numberOfBytes": "20"
					},
					"t_mapping(t_address,t_bool)": {
						"encoding": "mapping",
						"key": "t_address",
						"label": "mapping(address => bool)",
						"numberOfBytes": "32",
						"value": "t_bool"
					},
					"t_mapping(t_address,t_struct(UserInfo)244_storage)": {
						"encoding": "mapping",
						"key": "t_address",
						"label": "mapping(address => struct MasterChefV2.UserInfo)",
						"numberOfBytes": "32",
						"value": "t_struct(UserInfo)244_storage"
					},
					"t_mapping(t_uint256,t_mapping(t_address,t_struct(UserInfo)244_storage))": {
						"encoding": "mapping",
						"key": "t_uint256",
						"label": "mapping(uint256 => mapping(address => struct MasterChefV2.UserInfo))",
						"numberOfBytes": "32",
						"value": "t_mapping(t_address,t_struct(UserInfo)244_storage)"
					},
					"t_struct(PoolInfo)255_storage": {
						"encoding": "inplace",
						"label": "struct MasterChefV2.PoolInfo",
						"members": [
							{
								"astId": 246,
								"contract": "Users/leilei/Downloads/MasterChefV2/MasterChefV2.sol:MasterChefV2",
								"label": "accCakePerShare",
								"offset": 0,
								"slot": "0",
								"type": "t_uint256"
							},
							{
								"astId": 248,
								"contract": "Users/leilei/Downloads/MasterChefV2/MasterChefV2.sol:MasterChefV2",
								"label": "lastRewardBlock",
								"offset": 0,
								"slot": "1",
								"type": "t_uint256"
							},
							{
								"astId": 250,
								"contract": "Users/leilei/Downloads/MasterChefV2/MasterChefV2.sol:MasterChefV2",
								"label": "allocPoint",
								"offset": 0,
								"slot": "2",
								"type": "t_uint256"
							},
							{
								"astId": 252,
								"contract": "Users/leilei/Downloads/MasterChefV2/MasterChefV2.sol:MasterChefV2",
								"label": "totalBoostedShare",
								"offset": 0,
								"slot": "3",
								"type": "t_uint256"
							},
							{
								"astId": 254,
								"contract": "Users/leilei/Downloads/MasterChefV2/MasterChefV2.sol:MasterChefV2",
								"label": "isRegular",
								"offset": 0,
								"slot": "4",
								"type": "t_bool"
							}
						],
						"numberOfBytes": "160"
					},
					"t_struct(UserInfo)244_storage": {
						"encoding": "inplace",
						"label": "struct MasterChefV2.UserInfo",
						"members": [
							{
								"astId": 239,
								"contract": "Users/leilei/Downloads/MasterChefV2/MasterChefV2.sol:MasterChefV2",
								"label": "amount",
								"offset": 0,
								"slot": "0",
								"type": "t_uint256"
							},
							{
								"astId": 241,
								"contract": "Users/leilei/Downloads/MasterChefV2/MasterChefV2.sol:MasterChefV2",
								"label": "rewardDebt",
								"offset": 0,
								"slot": "1",
								"type": "t_uint256"
							},
							{
								"astId": 243,
								"contract": "Users/leilei/Downloads/MasterChefV2/MasterChefV2.sol:MasterChefV2",
								"label": "boostMultiplier",
								"offset": 0,
								"slot": "2",
								"type": "t_uint256"
							}
						],
						"numberOfBytes": "96"
					},
					"t_uint256": {
						"encoding": "inplace",
						"label": "uint256",
						"numberOfBytes": "32"
					}
				}
			},
			"userdoc": {
				"kind": "user",
				"methods": {
					"BOOST_PRECISION()": {
						"notice": "Basic boost factor, none boosted user's boost factor"
					},
					"CAKE()": {
						"notice": "Address of CAKE contract."
					},
					"CAKE_RATE_TOTAL_PRECISION()": {
						"notice": "total cake rate = toBurn + toRegular + toSpecial"
					},
					"MASTERCHEF_CAKE_PER_BLOCK()": {
						"notice": "40 cakes per block in MCV1"
					},
					"MASTER_CHEF()": {
						"notice": "Address of MCV1 contract."
					},
					"MASTER_PID()": {
						"notice": "The pool id of the MCV2 mock token pool in MCV1."
					},
					"MAX_BOOST_PRECISION()": {
						"notice": "Hard limit for maxmium boost factor, it must greater than BOOST_PRECISION"
					},
					"add(uint256,address,bool,bool)": {
						"notice": "Add a new pool. Can only be called by the owner. DO NOT add the same LP token more than once. Rewards will be messed up if you do."
					},
					"boostContract()": {
						"notice": "The contract handles the share boosts."
					},
					"burnAdmin()": {
						"notice": "The only address can withdraw all the burn CAKE."
					},
					"burnCake(bool)": {
						"notice": "Send CAKE pending for burn to `burnAdmin`."
					},
					"cakePerBlock(bool)": {
						"notice": "Calculates and returns the `amount` of CAKE per block."
					},
					"cakePerBlockToBurn()": {
						"notice": "Calculates and returns the `amount` of CAKE per block to burn."
					},
					"cakeRateToBurn()": {
						"notice": "The last block number of CAKE burn action being executed.CAKE distribute % for burn"
					},
					"cakeRateToRegularFarm()": {
						"notice": "CAKE distribute % for regular farm pool"
					},
					"cakeRateToSpecialFarm()": {
						"notice": "CAKE distribute % for special pools"
					},
					"deposit(uint256,uint256)": {
						"notice": "Deposit LP tokens to pool."
					},
					"emergencyWithdraw(uint256)": {
						"notice": "Withdraw without caring about the rewards. EMERGENCY ONLY."
					},
					"getBoostMultiplier(address,uint256)": {
						"notice": "Get user boost multiplier for specific pool id."
					},
					"harvestFromMasterChef()": {
						"notice": "Harvests CAKE from `MASTER_CHEF` MCV1 and pool `MASTER_PID` to MCV2."
					},
					"init(address)": {
						"notice": "Deposits a dummy token to `MASTER_CHEF` MCV1. This is required because MCV1 holds the minting permission of CAKE. It will transfer all the `dummyToken` in the tx sender address. The allocation point for the dummy pool on MCV1 should be equal to the total amount of allocPoint."
					},
					"lpToken(uint256)": {
						"notice": "Address of the LP token for each MCV2 pool."
					},
					"massUpdatePools()": {
						"notice": "Update cake reward for all the active pools. Be careful of gas spending!"
					},
					"pendingCake(uint256,address)": {
						"notice": "View function for checking pending CAKE rewards."
					},
					"poolInfo(uint256)": {
						"notice": "Info of each MCV2 pool."
					},
					"poolLength()": {
						"notice": "Returns the number of MCV2 pools."
					},
					"set(uint256,uint256,bool)": {
						"notice": "Update the given pool's CAKE allocation point. Can only be called by the owner."
					},
					"totalRegularAllocPoint()": {
						"notice": "Total regular allocation points. Must be the sum of all regular pools' allocation points."
					},
					"totalSpecialAllocPoint()": {
						"notice": "Total special allocation points. Must be the sum of all special pools' allocation points."
					},
					"updateBoostContract(address)": {
						"notice": "Update boost contract address and max boost factor."
					},
					"updateBoostMultiplier(address,uint256,uint256)": {
						"notice": "Update user boost factor."
					},
					"updateBurnAdmin(address)": {
						"notice": "Update burn admin address."
					},
					"updateCakeRate(uint256,uint256,uint256,bool)": {
						"notice": "Update the % of CAKE distributions for burn, regular pools and special pools."
					},
					"updatePool(uint256)": {
						"notice": "Update reward variables for the given pool."
					},
					"updateWhiteList(address,bool)": {
						"notice": "Update whitelisted addresses for special pools."
					},
					"userInfo(uint256,address)": {
						"notice": "Info of each pool user."
					},
					"whiteList(address)": {
						"notice": "The whitelist of addresses allowed to deposit in special pools."
					},
					"withdraw(uint256,uint256)": {
						"notice": "Withdraw LP tokens from pool."
					}
				},
				"notice": "The (older) MasterChef contract gives out a constant number of CAKE tokens per block. It is the only address with minting rights for CAKE. The idea for this MasterChef V2 (MCV2) contract is therefore to be the owner of a dummy token that is deposited into the MasterChef V1 (MCV1) contract. The allocation point for this pool on MCV1 is the total allocation point for all pools that receive incentives.",
				"version": 1
			}
		}
	}
}