{
	"Users/leilei/Downloads/MasterChefV2/contracts/BlockhashStore.sol": {
		"BlockhashStore": {
			"abi": [
				{
					"inputs": [
						{
							"internalType": "uint256",
							"name": "n",
							"type": "uint256"
						}
					],
					"name": "getBlockhash",
					"outputs": [
						{
							"internalType": "bytes32",
							"name": "",
							"type": "bytes32"
						}
					],
					"stateMutability": "view",
					"type": "function"
				},
				{
					"inputs": [
						{
							"internalType": "uint256",
							"name": "n",
							"type": "uint256"
						}
					],
					"name": "store",
					"outputs": [],
					"stateMutability": "nonpayable",
					"type": "function"
				},
				{
					"inputs": [],
					"name": "storeEarliest",
					"outputs": [],
					"stateMutability": "nonpayable",
					"type": "function"
				},
				{
					"inputs": [
						{
							"internalType": "uint256",
							"name": "n",
							"type": "uint256"
						},
						{
							"internalType": "bytes",
							"name": "header",
							"type": "bytes"
						}
					],
					"name": "storeVerifyHeader",
					"outputs": [],
					"stateMutability": "nonpayable",
					"type": "function"
				}
			],
			"devdoc": {
				"methods": {
					"getBlockhash(uint256)": {
						"params": {
							"n": "the number of the block whose blockhash should be returned"
						}
					},
					"store(uint256)": {
						"params": {
							"n": "the number of the block whose blockhash should be stored"
						}
					},
					"storeVerifyHeader(uint256,bytes)": {
						"params": {
							"header": "the rlp-encoded blockheader of block n+1. We verify its correctness by checking  that it hashes to a stored blockhash, and then extract parentHash to get the n-th blockhash.",
							"n": "the number of the block whose blockhash should be stored"
						}
					}
				},
				"title": "BlockhashStore"
			},
			"evm": {
				"assembly": "    /* \"Users/leilei/Downloads/MasterChefV2/contracts/BlockhashStore.sol\":262:2757  contract BlockhashStore {... */\n  mstore(0x40, 0x80)\n  callvalue\n    /* \"--CODEGEN--\":5:14   */\n  dup1\n    /* \"--CODEGEN--\":2:4   */\n  iszero\n  tag_1\n  jumpi\n    /* \"--CODEGEN--\":27:28   */\n  0x00\n    /* \"--CODEGEN--\":24:25   */\n  dup1\n    /* \"--CODEGEN--\":17:29   */\n  revert\n    /* \"--CODEGEN--\":2:4   */\ntag_1:\n    /* \"Users/leilei/Downloads/MasterChefV2/contracts/BlockhashStore.sol\":262:2757  contract BlockhashStore {... */\n  pop\n  dataSize(sub_0)\n  dup1\n  dataOffset(sub_0)\n  0x00\n  codecopy\n  0x00\n  return\nstop\n\nsub_0: assembly {\n        /* \"Users/leilei/Downloads/MasterChefV2/contracts/BlockhashStore.sol\":262:2757  contract BlockhashStore {... */\n      mstore(0x40, 0x80)\n      callvalue\n        /* \"--CODEGEN--\":5:14   */\n      dup1\n        /* \"--CODEGEN--\":2:4   */\n      iszero\n      tag_1\n      jumpi\n        /* \"--CODEGEN--\":27:28   */\n      0x00\n        /* \"--CODEGEN--\":24:25   */\n      dup1\n        /* \"--CODEGEN--\":17:29   */\n      revert\n        /* \"--CODEGEN--\":2:4   */\n    tag_1:\n        /* \"Users/leilei/Downloads/MasterChefV2/contracts/BlockhashStore.sol\":262:2757  contract BlockhashStore {... */\n      pop\n      jumpi(tag_2, lt(calldatasize, 0x04))\n      shr(0xe0, calldataload(0x00))\n      dup1\n      0x6057361d\n      eq\n      tag_3\n      jumpi\n      dup1\n      0x83b6d6b7\n      eq\n      tag_4\n      jumpi\n      dup1\n      0xe9413d38\n      eq\n      tag_5\n      jumpi\n      dup1\n      0xfadff0e1\n      eq\n      tag_6\n      jumpi\n    tag_2:\n        /* \"--CODEGEN--\":12:13   */\n      0x00\n        /* \"--CODEGEN--\":9:10   */\n      dup1\n        /* \"--CODEGEN--\":2:14   */\n      revert\n        /* \"Users/leilei/Downloads/MasterChefV2/contracts/BlockhashStore.sol\":517:657  function store(uint256 n) public {... */\n    tag_3:\n      tag_7\n      0x04\n      dup1\n      calldatasize\n      sub\n        /* \"--CODEGEN--\":15:17   */\n      0x20\n        /* \"--CODEGEN--\":10:13   */\n      dup2\n        /* \"--CODEGEN--\":7:18   */\n      lt\n        /* \"--CODEGEN--\":4:6   */\n      iszero\n      tag_8\n      jumpi\n        /* \"--CODEGEN--\":31:32   */\n      0x00\n        /* \"--CODEGEN--\":28:29   */\n      dup1\n        /* \"--CODEGEN--\":21:33   */\n      revert\n        /* \"--CODEGEN--\":4:6   */\n    tag_8:\n        /* \"Users/leilei/Downloads/MasterChefV2/contracts/BlockhashStore.sol\":517:657  function store(uint256 n) public {... */\n      dup2\n      add\n      swap1\n      dup1\n      dup1\n      calldataload\n      swap1\n      0x20\n      add\n      swap1\n      swap3\n      swap2\n      swap1\n      pop\n      pop\n      pop\n      tag_9\n      jump\t// in\n    tag_7:\n      stop\n        /* \"Users/leilei/Downloads/MasterChefV2/contracts/BlockhashStore.sol\":761:831  function storeEarliest() external {... */\n    tag_4:\n      tag_10\n      tag_11\n      jump\t// in\n    tag_10:\n      stop\n        /* \"Users/leilei/Downloads/MasterChefV2/contracts/BlockhashStore.sol\":2582:2755  function getBlockhash(uint256 n) external view returns (bytes32) {... */\n    tag_5:\n      tag_12\n      0x04\n      dup1\n      calldatasize\n      sub\n        /* \"--CODEGEN--\":15:17   */\n      0x20\n        /* \"--CODEGEN--\":10:13   */\n      dup2\n        /* \"--CODEGEN--\":7:18   */\n      lt\n        /* \"--CODEGEN--\":4:6   */\n      iszero\n      tag_13\n      jumpi\n        /* \"--CODEGEN--\":31:32   */\n      0x00\n        /* \"--CODEGEN--\":28:29   */\n      dup1\n        /* \"--CODEGEN--\":21:33   */\n      revert\n        /* \"--CODEGEN--\":4:6   */\n    tag_13:\n        /* \"Users/leilei/Downloads/MasterChefV2/contracts/BlockhashStore.sol\":2582:2755  function getBlockhash(uint256 n) external view returns (bytes32) {... */\n      dup2\n      add\n      swap1\n      dup1\n      dup1\n      calldataload\n      swap1\n      0x20\n      add\n      swap1\n      swap3\n      swap2\n      swap1\n      pop\n      pop\n      pop\n      tag_14\n      jump\t// in\n    tag_12:\n      mload(0x40)\n      dup1\n      dup3\n      dup2\n      mstore\n      0x20\n      add\n      swap2\n      pop\n      pop\n      mload(0x40)\n      dup1\n      swap2\n      sub\n      swap1\n      return\n        /* \"Users/leilei/Downloads/MasterChefV2/contracts/BlockhashStore.sol\":1201:2403  function storeVerifyHeader(uint256 n, bytes memory header) public {... */\n    tag_6:\n      tag_15\n      0x04\n      dup1\n      calldatasize\n      sub\n        /* \"--CODEGEN--\":15:17   */\n      0x40\n        /* \"--CODEGEN--\":10:13   */\n      dup2\n        /* \"--CODEGEN--\":7:18   */\n      lt\n        /* \"--CODEGEN--\":4:6   */\n      iszero\n      tag_16\n      jumpi\n        /* \"--CODEGEN--\":31:32   */\n      0x00\n        /* \"--CODEGEN--\":28:29   */\n      dup1\n        /* \"--CODEGEN--\":21:33   */\n      revert\n        /* \"--CODEGEN--\":4:6   */\n    tag_16:\n        /* \"Users/leilei/Downloads/MasterChefV2/contracts/BlockhashStore.sol\":1201:2403  function storeVerifyHeader(uint256 n, bytes memory header) public {... */\n      dup2\n      add\n      swap1\n      dup1\n      dup1\n      calldataload\n      swap1\n      0x20\n      add\n      swap1\n      swap3\n      swap2\n      swap1\n      dup1\n      calldataload\n      swap1\n      0x20\n      add\n      swap1\n        /* \"--CODEGEN--\":27:38   */\n      0x0100000000\n        /* \"--CODEGEN--\":14:25   */\n      dup2\n        /* \"--CODEGEN--\":11:39   */\n      gt\n        /* \"--CODEGEN--\":8:10   */\n      iszero\n      tag_17\n      jumpi\n        /* \"--CODEGEN--\":52:53   */\n      0x00\n        /* \"--CODEGEN--\":49:50   */\n      dup1\n        /* \"--CODEGEN--\":42:54   */\n      revert\n        /* \"--CODEGEN--\":8:10   */\n    tag_17:\n        /* \"Users/leilei/Downloads/MasterChefV2/contracts/BlockhashStore.sol\":1201:2403  function storeVerifyHeader(uint256 n, bytes memory header) public {... */\n      dup3\n      add\n        /* \"--CODEGEN--\":41:50   */\n      dup4\n        /* \"--CODEGEN--\":34:38   */\n      0x20\n        /* \"--CODEGEN--\":18:32   */\n      dup3\n        /* \"--CODEGEN--\":14:39   */\n      add\n        /* \"--CODEGEN--\":11:51   */\n      gt\n        /* \"--CODEGEN--\":8:10   */\n      iszero\n      tag_18\n      jumpi\n        /* \"--CODEGEN--\":64:65   */\n      0x00\n        /* \"--CODEGEN--\":61:62   */\n      dup1\n        /* \"--CODEGEN--\":54:66   */\n      revert\n        /* \"--CODEGEN--\":8:10   */\n    tag_18:\n        /* \"Users/leilei/Downloads/MasterChefV2/contracts/BlockhashStore.sol\":1201:2403  function storeVerifyHeader(uint256 n, bytes memory header) public {... */\n      dup1\n      calldataload\n      swap1\n      0x20\n      add\n      swap2\n        /* \"--CODEGEN--\":100:109   */\n      dup5\n        /* \"--CODEGEN--\":95:96   */\n      0x01\n        /* \"--CODEGEN--\":81:93   */\n      dup4\n        /* \"--CODEGEN--\":77:97   */\n      mul\n        /* \"--CODEGEN--\":67:75   */\n      dup5\n        /* \"--CODEGEN--\":63:98   */\n      add\n        /* \"--CODEGEN--\":60:110   */\n      gt\n        /* \"--CODEGEN--\":39:50   */\n      0x0100000000\n        /* \"--CODEGEN--\":25:37   */\n      dup4\n        /* \"--CODEGEN--\":22:51   */\n      gt\n        /* \"--CODEGEN--\":11:118   */\n      or\n        /* \"--CODEGEN--\":8:10   */\n      iszero\n      tag_19\n      jumpi\n        /* \"--CODEGEN--\":131:132   */\n      0x00\n        /* \"--CODEGEN--\":128:129   */\n      dup1\n        /* \"--CODEGEN--\":121:133   */\n      revert\n        /* \"--CODEGEN--\":8:10   */\n    tag_19:\n        /* \"Users/leilei/Downloads/MasterChefV2/contracts/BlockhashStore.sol\":1201:2403  function storeVerifyHeader(uint256 n, bytes memory header) public {... */\n      swap2\n      swap1\n      dup1\n      dup1\n      0x1f\n      add\n      0x20\n      dup1\n      swap2\n      div\n      mul\n      0x20\n      add\n      mload(0x40)\n      swap1\n      dup2\n      add\n      0x40\n      mstore\n      dup1\n      swap4\n      swap3\n      swap2\n      swap1\n      dup2\n      dup2\n      mstore\n      0x20\n      add\n      dup4\n      dup4\n        /* \"--CODEGEN--\":30:33   */\n      dup1\n        /* \"--CODEGEN--\":22:28   */\n      dup3\n        /* \"--CODEGEN--\":14:20   */\n      dup5\n        /* \"--CODEGEN--\":1:34   */\n      calldatacopy\n        /* \"--CODEGEN--\":99:100   */\n      0x00\n        /* \"--CODEGEN--\":93:96   */\n      dup2\n        /* \"--CODEGEN--\":85:91   */\n      dup5\n        /* \"--CODEGEN--\":81:97   */\n      add\n        /* \"--CODEGEN--\":74:101   */\n      mstore\n        /* \"--CODEGEN--\":137:141   */\n      0x1f\n        /* \"--CODEGEN--\":133:142   */\n      not\n        /* \"--CODEGEN--\":126:130   */\n      0x1f\n        /* \"--CODEGEN--\":121:124   */\n      dup3\n        /* \"--CODEGEN--\":117:131   */\n      add\n        /* \"--CODEGEN--\":113:143   */\n      and\n        /* \"--CODEGEN--\":106:143   */\n      swap1\n      pop\n        /* \"--CODEGEN--\":169:172   */\n      dup1\n        /* \"--CODEGEN--\":161:167   */\n      dup4\n        /* \"--CODEGEN--\":157:173   */\n      add\n        /* \"--CODEGEN--\":147:173   */\n      swap3\n      pop\n        /* \"Users/leilei/Downloads/MasterChefV2/contracts/BlockhashStore.sol\":1201:2403  function storeVerifyHeader(uint256 n, bytes memory header) public {... */\n      pop\n      pop\n      pop\n      pop\n      pop\n      pop\n      swap2\n      swap3\n      swap2\n      swap3\n      swap1\n      pop\n      pop\n      pop\n      tag_20\n      jump\t// in\n    tag_15:\n      stop\n        /* \"Users/leilei/Downloads/MasterChefV2/contracts/BlockhashStore.sol\":517:657  function store(uint256 n) public {... */\n    tag_9:\n        /* \"Users/leilei/Downloads/MasterChefV2/contracts/BlockhashStore.sol\":556:565  bytes32 h */\n      0x00\n        /* \"Users/leilei/Downloads/MasterChefV2/contracts/BlockhashStore.sol\":578:579  n */\n      dup2\n        /* \"Users/leilei/Downloads/MasterChefV2/contracts/BlockhashStore.sol\":568:580  blockhash(n) */\n      blockhash\n        /* \"Users/leilei/Downloads/MasterChefV2/contracts/BlockhashStore.sol\":556:580  bytes32 h = blockhash(n) */\n      swap1\n      pop\n        /* \"Users/leilei/Downloads/MasterChefV2/contracts/BlockhashStore.sol\":599:602  0x0 */\n      0x00\n        /* \"Users/leilei/Downloads/MasterChefV2/contracts/BlockhashStore.sol\":594:602  h != 0x0 */\n      dup1\n      shl\n        /* \"Users/leilei/Downloads/MasterChefV2/contracts/BlockhashStore.sol\":594:595  h */\n      dup2\n        /* \"Users/leilei/Downloads/MasterChefV2/contracts/BlockhashStore.sol\":594:602  h != 0x0 */\n      eq\n      iszero\n        /* \"Users/leilei/Downloads/MasterChefV2/contracts/BlockhashStore.sol\":586:626  require(h != 0x0, \"blockhash(n) failed\") */\n      tag_22\n      jumpi\n      mload(0x40)\n      0x08c379a000000000000000000000000000000000000000000000000000000000\n      dup2\n      mstore\n      0x04\n      add\n      dup1\n      dup1\n      0x20\n      add\n      dup3\n      dup2\n      sub\n      dup3\n      mstore\n      0x13\n      dup2\n      mstore\n      0x20\n      add\n      dup1\n      0x626c6f636b68617368286e29206661696c656400000000000000000000000000\n      dup2\n      mstore\n      pop\n      0x20\n      add\n      swap2\n      pop\n      pop\n      mload(0x40)\n      dup1\n      swap2\n      sub\n      swap1\n      revert\n    tag_22:\n        /* \"Users/leilei/Downloads/MasterChefV2/contracts/BlockhashStore.sol\":651:652  h */\n      dup1\n        /* \"Users/leilei/Downloads/MasterChefV2/contracts/BlockhashStore.sol\":632:645  s_blockhashes */\n      0x00\n        /* \"Users/leilei/Downloads/MasterChefV2/contracts/BlockhashStore.sol\":632:648  s_blockhashes[n] */\n      dup1\n        /* \"Users/leilei/Downloads/MasterChefV2/contracts/BlockhashStore.sol\":646:647  n */\n      dup5\n        /* \"Users/leilei/Downloads/MasterChefV2/contracts/BlockhashStore.sol\":632:648  s_blockhashes[n] */\n      dup2\n      mstore\n      0x20\n      add\n      swap1\n      dup2\n      mstore\n      0x20\n      add\n      0x00\n      keccak256\n        /* \"Users/leilei/Downloads/MasterChefV2/contracts/BlockhashStore.sol\":632:652  s_blockhashes[n] = h */\n      dup2\n      swap1\n      sstore\n      pop\n        /* \"Users/leilei/Downloads/MasterChefV2/contracts/BlockhashStore.sol\":517:657  function store(uint256 n) public {... */\n      pop\n      pop\n      jump\t// out\n        /* \"Users/leilei/Downloads/MasterChefV2/contracts/BlockhashStore.sol\":761:831  function storeEarliest() external {... */\n    tag_11:\n        /* \"Users/leilei/Downloads/MasterChefV2/contracts/BlockhashStore.sol\":801:826  store(block.number - 256) */\n      tag_24\n        /* \"Users/leilei/Downloads/MasterChefV2/contracts/BlockhashStore.sol\":822:825  256 */\n      0x0100\n        /* \"Users/leilei/Downloads/MasterChefV2/contracts/BlockhashStore.sol\":807:819  block.number */\n      number\n        /* \"Users/leilei/Downloads/MasterChefV2/contracts/BlockhashStore.sol\":807:825  block.number - 256 */\n      sub\n        /* \"Users/leilei/Downloads/MasterChefV2/contracts/BlockhashStore.sol\":801:806  store */\n      tag_9\n        /* \"Users/leilei/Downloads/MasterChefV2/contracts/BlockhashStore.sol\":801:826  store(block.number - 256) */\n      jump\t// in\n    tag_24:\n        /* \"Users/leilei/Downloads/MasterChefV2/contracts/BlockhashStore.sol\":761:831  function storeEarliest() external {... */\n      jump\t// out\n        /* \"Users/leilei/Downloads/MasterChefV2/contracts/BlockhashStore.sol\":2582:2755  function getBlockhash(uint256 n) external view returns (bytes32) {... */\n    tag_14:\n        /* \"Users/leilei/Downloads/MasterChefV2/contracts/BlockhashStore.sol\":2638:2645  bytes32 */\n      0x00\n        /* \"Users/leilei/Downloads/MasterChefV2/contracts/BlockhashStore.sol\":2653:2662  bytes32 h */\n      dup1\n        /* \"Users/leilei/Downloads/MasterChefV2/contracts/BlockhashStore.sol\":2665:2678  s_blockhashes */\n      0x00\n        /* \"Users/leilei/Downloads/MasterChefV2/contracts/BlockhashStore.sol\":2665:2681  s_blockhashes[n] */\n      dup1\n        /* \"Users/leilei/Downloads/MasterChefV2/contracts/BlockhashStore.sol\":2679:2680  n */\n      dup5\n        /* \"Users/leilei/Downloads/MasterChefV2/contracts/BlockhashStore.sol\":2665:2681  s_blockhashes[n] */\n      dup2\n      mstore\n      0x20\n      add\n      swap1\n      dup2\n      mstore\n      0x20\n      add\n      0x00\n      keccak256\n      sload\n        /* \"Users/leilei/Downloads/MasterChefV2/contracts/BlockhashStore.sol\":2653:2681  bytes32 h = s_blockhashes[n] */\n      swap1\n      pop\n        /* \"Users/leilei/Downloads/MasterChefV2/contracts/BlockhashStore.sol\":2700:2703  0x0 */\n      0x00\n        /* \"Users/leilei/Downloads/MasterChefV2/contracts/BlockhashStore.sol\":2695:2703  h != 0x0 */\n      dup1\n      shl\n        /* \"Users/leilei/Downloads/MasterChefV2/contracts/BlockhashStore.sol\":2695:2696  h */\n      dup2\n        /* \"Users/leilei/Downloads/MasterChefV2/contracts/BlockhashStore.sol\":2695:2703  h != 0x0 */\n      eq\n      iszero\n        /* \"Users/leilei/Downloads/MasterChefV2/contracts/BlockhashStore.sol\":2687:2736  require(h != 0x0, \"blockhash not found in store\") */\n      tag_26\n      jumpi\n      mload(0x40)\n      0x08c379a000000000000000000000000000000000000000000000000000000000\n      dup2\n      mstore\n      0x04\n      add\n      dup1\n      dup1\n      0x20\n      add\n      dup3\n      dup2\n      sub\n      dup3\n      mstore\n      0x1c\n      dup2\n      mstore\n      0x20\n      add\n      dup1\n      0x626c6f636b68617368206e6f7420666f756e6420696e2073746f726500000000\n      dup2\n      mstore\n      pop\n      0x20\n      add\n      swap2\n      pop\n      pop\n      mload(0x40)\n      dup1\n      swap2\n      sub\n      swap1\n      revert\n    tag_26:\n        /* \"Users/leilei/Downloads/MasterChefV2/contracts/BlockhashStore.sol\":2749:2750  h */\n      dup1\n        /* \"Users/leilei/Downloads/MasterChefV2/contracts/BlockhashStore.sol\":2742:2750  return h */\n      swap2\n      pop\n      pop\n        /* \"Users/leilei/Downloads/MasterChefV2/contracts/BlockhashStore.sol\":2582:2755  function getBlockhash(uint256 n) external view returns (bytes32) {... */\n      swap2\n      swap1\n      pop\n      jump\t// out\n        /* \"Users/leilei/Downloads/MasterChefV2/contracts/BlockhashStore.sol\":1201:2403  function storeVerifyHeader(uint256 n, bytes memory header) public {... */\n    tag_20:\n        /* \"Users/leilei/Downloads/MasterChefV2/contracts/BlockhashStore.sol\":1302:1315  s_blockhashes */\n      0x00\n        /* \"Users/leilei/Downloads/MasterChefV2/contracts/BlockhashStore.sol\":1302:1322  s_blockhashes[n + 1] */\n      dup1\n        /* \"Users/leilei/Downloads/MasterChefV2/contracts/BlockhashStore.sol\":1320:1321  1 */\n      0x01\n        /* \"Users/leilei/Downloads/MasterChefV2/contracts/BlockhashStore.sol\":1316:1317  n */\n      dup5\n        /* \"Users/leilei/Downloads/MasterChefV2/contracts/BlockhashStore.sol\":1316:1321  n + 1 */\n      add\n        /* \"Users/leilei/Downloads/MasterChefV2/contracts/BlockhashStore.sol\":1302:1322  s_blockhashes[n + 1] */\n      dup2\n      mstore\n      0x20\n      add\n      swap1\n      dup2\n      mstore\n      0x20\n      add\n      0x00\n      keccak256\n      sload\n        /* \"Users/leilei/Downloads/MasterChefV2/contracts/BlockhashStore.sol\":1291:1297  header */\n      dup2\n        /* \"Users/leilei/Downloads/MasterChefV2/contracts/BlockhashStore.sol\":1281:1298  keccak256(header) */\n      dup1\n      mload\n      swap1\n      0x20\n      add\n      keccak256\n        /* \"Users/leilei/Downloads/MasterChefV2/contracts/BlockhashStore.sol\":1281:1322  keccak256(header) == s_blockhashes[n + 1] */\n      eq\n        /* \"Users/leilei/Downloads/MasterChefV2/contracts/BlockhashStore.sol\":1273:1355  require(keccak256(header) == s_blockhashes[n + 1], \"header has unknown blockhash\") */\n      tag_28\n      jumpi\n      mload(0x40)\n      0x08c379a000000000000000000000000000000000000000000000000000000000\n      dup2\n      mstore\n      0x04\n      add\n      dup1\n      dup1\n      0x20\n      add\n      dup3\n      dup2\n      sub\n      dup3\n      mstore\n      0x1c\n      dup2\n      mstore\n      0x20\n      add\n      dup1\n      0x6865616465722068617320756e6b6e6f776e20626c6f636b6861736800000000\n      dup2\n      mstore\n      pop\n      0x20\n      add\n      swap2\n      pop\n      pop\n      mload(0x40)\n      dup1\n      swap2\n      sub\n      swap1\n      revert\n    tag_28:\n        /* \"Users/leilei/Downloads/MasterChefV2/contracts/BlockhashStore.sol\":2126:2144  bytes32 parentHash */\n      0x00\n        /* \"Users/leilei/Downloads/MasterChefV2/contracts/BlockhashStore.sol\":2199:2201  36 */\n      0x24\n        /* \"Users/leilei/Downloads/MasterChefV2/contracts/BlockhashStore.sol\":2191:2197  header */\n      dup3\n        /* \"Users/leilei/Downloads/MasterChefV2/contracts/BlockhashStore.sol\":2187:2202  add(header, 36) */\n      add\n        /* \"Users/leilei/Downloads/MasterChefV2/contracts/BlockhashStore.sol\":2181:2203  mload(add(header, 36)) */\n      mload\n        /* \"Users/leilei/Downloads/MasterChefV2/contracts/BlockhashStore.sol\":2167:2203  parentHash := mload(add(header, 36)) */\n      swap1\n      pop\n        /* \"Users/leilei/Downloads/MasterChefV2/contracts/BlockhashStore.sol\":2388:2398  parentHash */\n      dup1\n        /* \"Users/leilei/Downloads/MasterChefV2/contracts/BlockhashStore.sol\":2369:2382  s_blockhashes */\n      0x00\n        /* \"Users/leilei/Downloads/MasterChefV2/contracts/BlockhashStore.sol\":2369:2385  s_blockhashes[n] */\n      dup1\n        /* \"Users/leilei/Downloads/MasterChefV2/contracts/BlockhashStore.sol\":2383:2384  n */\n      dup6\n        /* \"Users/leilei/Downloads/MasterChefV2/contracts/BlockhashStore.sol\":2369:2385  s_blockhashes[n] */\n      dup2\n      mstore\n      0x20\n      add\n      swap1\n      dup2\n      mstore\n      0x20\n      add\n      0x00\n      keccak256\n        /* \"Users/leilei/Downloads/MasterChefV2/contracts/BlockhashStore.sol\":2369:2398  s_blockhashes[n] = parentHash */\n      dup2\n      swap1\n      sstore\n      pop\n        /* \"Users/leilei/Downloads/MasterChefV2/contracts/BlockhashStore.sol\":1201:2403  function storeVerifyHeader(uint256 n, bytes memory header) public {... */\n      pop\n      pop\n      pop\n      jump\t// out\n\n    auxdata: 0xa2646970667358221220c81a6399956b3287126a878d7af6870be01ac306c9830ce06ede9715d066575c64736f6c63430006060033\n}\n",
				"bytecode": {
					"linkReferences": {},
					"object": "608060405234801561001057600080fd5b506103bf806100206000396000f3fe608060405234801561001057600080fd5b506004361061004c5760003560e01c80636057361d1461005157806383b6d6b71461007f578063e9413d3814610089578063fadff0e1146100cb575b600080fd5b61007d6004803603602081101561006757600080fd5b8101908080359060200190929190505050610190565b005b61008761022a565b005b6100b56004803603602081101561009f57600080fd5b8101908080359060200190929190505050610239565b6040518082815260200191505060405180910390f35b61018e600480360360408110156100e157600080fd5b81019080803590602001909291908035906020019064010000000081111561010857600080fd5b82018360208201111561011a57600080fd5b8035906020019184600183028401116401000000008311171561013c57600080fd5b91908080601f016020809104026020016040519081016040528093929190818152602001838380828437600081840152601f19601f8201169050808301925050505050505091929192905050506102d3565b005b6000814090506000801b81141561020f576040517f08c379a00000000000000000000000000000000000000000000000000000000081526004018080602001828103825260138152602001807f626c6f636b68617368286e29206661696c65640000000000000000000000000081525060200191505060405180910390fd5b80600080848152602001908152602001600020819055505050565b6102376101004303610190565b565b6000806000808481526020019081526020016000205490506000801b8114156102ca576040517f08c379a000000000000000000000000000000000000000000000000000000000815260040180806020018281038252601c8152602001807f626c6f636b68617368206e6f7420666f756e6420696e2073746f72650000000081525060200191505060405180910390fd5b80915050919050565b60008060018401815260200190815260200160002054818051906020012014610364576040517f08c379a000000000000000000000000000000000000000000000000000000000815260040180806020018281038252601c8152602001807f6865616465722068617320756e6b6e6f776e20626c6f636b686173680000000081525060200191505060405180910390fd5b600060248201519050806000808581526020019081526020016000208190555050505056fea2646970667358221220c81a6399956b3287126a878d7af6870be01ac306c9830ce06ede9715d066575c64736f6c63430006060033",
					"opcodes": "PUSH1 0x80 PUSH1 0x40 MSTORE CALLVALUE DUP1 ISZERO PUSH2 0x10 JUMPI PUSH1 0x0 DUP1 REVERT JUMPDEST POP PUSH2 0x3BF DUP1 PUSH2 0x20 PUSH1 0x0 CODECOPY PUSH1 0x0 RETURN INVALID PUSH1 0x80 PUSH1 0x40 MSTORE CALLVALUE DUP1 ISZERO PUSH2 0x10 JUMPI PUSH1 0x0 DUP1 REVERT JUMPDEST POP PUSH1 0x4 CALLDATASIZE LT PUSH2 0x4C JUMPI PUSH1 0x0 CALLDATALOAD PUSH1 0xE0 SHR DUP1 PUSH4 0x6057361D EQ PUSH2 0x51 JUMPI DUP1 PUSH4 0x83B6D6B7 EQ PUSH2 0x7F JUMPI DUP1 PUSH4 0xE9413D38 EQ PUSH2 0x89 JUMPI DUP1 PUSH4 0xFADFF0E1 EQ PUSH2 0xCB JUMPI JUMPDEST PUSH1 0x0 DUP1 REVERT JUMPDEST PUSH2 0x7D PUSH1 0x4 DUP1 CALLDATASIZE SUB PUSH1 0x20 DUP2 LT ISZERO PUSH2 0x67 JUMPI PUSH1 0x0 DUP1 REVERT JUMPDEST DUP2 ADD SWAP1 DUP1 DUP1 CALLDATALOAD SWAP1 PUSH1 0x20 ADD SWAP1 SWAP3 SWAP2 SWAP1 POP POP POP PUSH2 0x190 JUMP JUMPDEST STOP JUMPDEST PUSH2 0x87 PUSH2 0x22A JUMP JUMPDEST STOP JUMPDEST PUSH2 0xB5 PUSH1 0x4 DUP1 CALLDATASIZE SUB PUSH1 0x20 DUP2 LT ISZERO PUSH2 0x9F JUMPI PUSH1 0x0 DUP1 REVERT JUMPDEST DUP2 ADD SWAP1 DUP1 DUP1 CALLDATALOAD SWAP1 PUSH1 0x20 ADD SWAP1 SWAP3 SWAP2 SWAP1 POP POP POP PUSH2 0x239 JUMP JUMPDEST PUSH1 0x40 MLOAD DUP1 DUP3 DUP2 MSTORE PUSH1 0x20 ADD SWAP2 POP POP PUSH1 0x40 MLOAD DUP1 SWAP2 SUB SWAP1 RETURN JUMPDEST PUSH2 0x18E PUSH1 0x4 DUP1 CALLDATASIZE SUB PUSH1 0x40 DUP2 LT ISZERO PUSH2 0xE1 JUMPI PUSH1 0x0 DUP1 REVERT JUMPDEST DUP2 ADD SWAP1 DUP1 DUP1 CALLDATALOAD SWAP1 PUSH1 0x20 ADD SWAP1 SWAP3 SWAP2 SWAP1 DUP1 CALLDATALOAD SWAP1 PUSH1 0x20 ADD SWAP1 PUSH5 0x100000000 DUP2 GT ISZERO PUSH2 0x108 JUMPI PUSH1 0x0 DUP1 REVERT JUMPDEST DUP3 ADD DUP4 PUSH1 0x20 DUP3 ADD GT ISZERO PUSH2 0x11A JUMPI PUSH1 0x0 DUP1 REVERT JUMPDEST DUP1 CALLDATALOAD SWAP1 PUSH1 0x20 ADD SWAP2 DUP5 PUSH1 0x1 DUP4 MUL DUP5 ADD GT PUSH5 0x100000000 DUP4 GT OR ISZERO PUSH2 0x13C JUMPI PUSH1 0x0 DUP1 REVERT JUMPDEST SWAP2 SWAP1 DUP1 DUP1 PUSH1 0x1F ADD PUSH1 0x20 DUP1 SWAP2 DIV MUL PUSH1 0x20 ADD PUSH1 0x40 MLOAD SWAP1 DUP2 ADD PUSH1 0x40 MSTORE DUP1 SWAP4 SWAP3 SWAP2 SWAP1 DUP2 DUP2 MSTORE PUSH1 0x20 ADD DUP4 DUP4 DUP1 DUP3 DUP5 CALLDATACOPY PUSH1 0x0 DUP2 DUP5 ADD MSTORE PUSH1 0x1F NOT PUSH1 0x1F DUP3 ADD AND SWAP1 POP DUP1 DUP4 ADD SWAP3 POP POP POP POP POP POP POP SWAP2 SWAP3 SWAP2 SWAP3 SWAP1 POP POP POP PUSH2 0x2D3 JUMP JUMPDEST STOP JUMPDEST PUSH1 0x0 DUP2 BLOCKHASH SWAP1 POP PUSH1 0x0 DUP1 SHL DUP2 EQ ISZERO PUSH2 0x20F JUMPI PUSH1 0x40 MLOAD PUSH32 0x8C379A000000000000000000000000000000000000000000000000000000000 DUP2 MSTORE PUSH1 0x4 ADD DUP1 DUP1 PUSH1 0x20 ADD DUP3 DUP2 SUB DUP3 MSTORE PUSH1 0x13 DUP2 MSTORE PUSH1 0x20 ADD DUP1 PUSH32 0x626C6F636B68617368286E29206661696C656400000000000000000000000000 DUP2 MSTORE POP PUSH1 0x20 ADD SWAP2 POP POP PUSH1 0x40 MLOAD DUP1 SWAP2 SUB SWAP1 REVERT JUMPDEST DUP1 PUSH1 0x0 DUP1 DUP5 DUP2 MSTORE PUSH1 0x20 ADD SWAP1 DUP2 MSTORE PUSH1 0x20 ADD PUSH1 0x0 KECCAK256 DUP2 SWAP1 SSTORE POP POP POP JUMP JUMPDEST PUSH2 0x237 PUSH2 0x100 NUMBER SUB PUSH2 0x190 JUMP JUMPDEST JUMP JUMPDEST PUSH1 0x0 DUP1 PUSH1 0x0 DUP1 DUP5 DUP2 MSTORE PUSH1 0x20 ADD SWAP1 DUP2 MSTORE PUSH1 0x20 ADD PUSH1 0x0 KECCAK256 SLOAD SWAP1 POP PUSH1 0x0 DUP1 SHL DUP2 EQ ISZERO PUSH2 0x2CA JUMPI PUSH1 0x40 MLOAD PUSH32 0x8C379A000000000000000000000000000000000000000000000000000000000 DUP2 MSTORE PUSH1 0x4 ADD DUP1 DUP1 PUSH1 0x20 ADD DUP3 DUP2 SUB DUP3 MSTORE PUSH1 0x1C DUP2 MSTORE PUSH1 0x20 ADD DUP1 PUSH32 0x626C6F636B68617368206E6F7420666F756E6420696E2073746F726500000000 DUP2 MSTORE POP PUSH1 0x20 ADD SWAP2 POP POP PUSH1 0x40 MLOAD DUP1 SWAP2 SUB SWAP1 REVERT JUMPDEST DUP1 SWAP2 POP POP SWAP2 SWAP1 POP JUMP JUMPDEST PUSH1 0x0 DUP1 PUSH1 0x1 DUP5 ADD DUP2 MSTORE PUSH1 0x20 ADD SWAP1 DUP2 MSTORE PUSH1 0x20 ADD PUSH1 0x0 KECCAK256 SLOAD DUP2 DUP1 MLOAD SWAP1 PUSH1 0x20 ADD KECCAK256 EQ PUSH2 0x364 JUMPI PUSH1 0x40 MLOAD PUSH32 0x8C379A000000000000000000000000000000000000000000000000000000000 DUP2 MSTORE PUSH1 0x4 ADD DUP1 DUP1 PUSH1 0x20 ADD DUP3 DUP2 SUB DUP3 MSTORE PUSH1 0x1C DUP2 MSTORE PUSH1 0x20 ADD DUP1 PUSH32 0x6865616465722068617320756E6B6E6F776E20626C6F636B6861736800000000 DUP2 MSTORE POP PUSH1 0x20 ADD SWAP2 POP POP PUSH1 0x40 MLOAD DUP1 SWAP2 SUB SWAP1 REVERT JUMPDEST PUSH1 0x0 PUSH1 0x24 DUP3 ADD MLOAD SWAP1 POP DUP1 PUSH1 0x0 DUP1 DUP6 DUP2 MSTORE PUSH1 0x20 ADD SWAP1 DUP2 MSTORE PUSH1 0x20 ADD PUSH1 0x0 KECCAK256 DUP2 SWAP1 SSTORE POP POP POP POP JUMP INVALID LOG2 PUSH5 0x6970667358 0x22 SLT KECCAK256 0xC8 BYTE PUSH4 0x99956B32 DUP8 SLT PUSH11 0x878D7AF6870BE01AC306C9 DUP4 0xC 0xE0 PUSH15 0xDE9715D066575C64736F6C63430006 MOD STOP CALLER "
				},
				"gasEstimates": {
					"creation": {
						"codeDepositCost": "191800",
						"executionCost": "232",
						"totalCost": "192032"
					},
					"external": {
						"getBlockhash(uint256)": "1285",
						"store(uint256)": "20363",
						"storeEarliest()": "20335",
						"storeVerifyHeader(uint256,bytes)": "infinite"
					}
				},
				"methodIdentifiers": {
					"getBlockhash(uint256)": "e9413d38",
					"store(uint256)": "6057361d",
					"storeEarliest()": "83b6d6b7",
					"storeVerifyHeader(uint256,bytes)": "fadff0e1"
				}
			},
			"storageLayout": {
				"storage": [
					{
						"astId": 6,
						"contract": "Users/leilei/Downloads/MasterChefV2/contracts/BlockhashStore.sol:BlockhashStore",
						"label": "s_blockhashes",
						"offset": 0,
						"slot": "0",
						"type": "t_mapping(t_uint256,t_bytes32)"
					}
				],
				"types": {
					"t_bytes32": {
						"encoding": "inplace",
						"label": "bytes32",
						"numberOfBytes": "32"
					},
					"t_mapping(t_uint256,t_bytes32)": {
						"encoding": "mapping",
						"key": "t_uint256",
						"label": "mapping(uint256 => bytes32)",
						"numberOfBytes": "32",
						"value": "t_bytes32"
					},
					"t_uint256": {
						"encoding": "inplace",
						"label": "uint256",
						"numberOfBytes": "32"
					}
				}
			},
			"userdoc": {
				"methods": {
					"getBlockhash(uint256)": {
						"notice": "gets a blockhash from the store. If no hash is known, this function reverts."
					},
					"store(uint256)": {
						"notice": "stores blockhash of a given block, assuming it is available through BLOCKHASH"
					},
					"storeEarliest()": {
						"notice": "stores blockhash of the earliest block still available through BLOCKHASH."
					},
					"storeVerifyHeader(uint256,bytes)": {
						"notice": "stores blockhash after verifying blockheader of child/subsequent block"
					}
				},
				"notice": "This contract provides a way to access blockhashes older than  the 256 block limit imposed by the BLOCKHASH opcode.  You may assume that any blockhash stored by the contract is correct."
			}
		}
	}
}