{
	"Users/leilei/Downloads/MasterChefV2/contracts/LinkToken.sol": {
		"LinkToken": {
			"abi": [
				{
					"constant": true,
					"inputs": [],
					"name": "name",
					"outputs": [
						{
							"name": "",
							"type": "string"
						}
					],
					"payable": false,
					"stateMutability": "view",
					"type": "function"
				},
				{
					"constant": false,
					"inputs": [
						{
							"name": "_spender",
							"type": "address"
						},
						{
							"name": "_value",
							"type": "uint256"
						}
					],
					"name": "approve",
					"outputs": [
						{
							"name": "",
							"type": "bool"
						}
					],
					"payable": false,
					"stateMutability": "nonpayable",
					"type": "function"
				},
				{
					"constant": true,
					"inputs": [],
					"name": "totalSupply",
					"outputs": [
						{
							"name": "",
							"type": "uint256"
						}
					],
					"payable": false,
					"stateMutability": "view",
					"type": "function"
				},
				{
					"constant": false,
					"inputs": [
						{
							"name": "_from",
							"type": "address"
						},
						{
							"name": "_to",
							"type": "address"
						},
						{
							"name": "_value",
							"type": "uint256"
						}
					],
					"name": "transferFrom",
					"outputs": [
						{
							"name": "",
							"type": "bool"
						}
					],
					"payable": false,
					"stateMutability": "nonpayable",
					"type": "function"
				},
				{
					"constant": true,
					"inputs": [],
					"name": "decimals",
					"outputs": [
						{
							"name": "",
							"type": "uint8"
						}
					],
					"payable": false,
					"stateMutability": "view",
					"type": "function"
				},
				{
					"constant": false,
					"inputs": [
						{
							"name": "_to",
							"type": "address"
						},
						{
							"name": "_value",
							"type": "uint256"
						},
						{
							"name": "_data",
							"type": "bytes"
						}
					],
					"name": "transferAndCall",
					"outputs": [
						{
							"name": "success",
							"type": "bool"
						}
					],
					"payable": false,
					"stateMutability": "nonpayable",
					"type": "function"
				},
				{
					"constant": false,
					"inputs": [
						{
							"name": "_spender",
							"type": "address"
						},
						{
							"name": "_subtractedValue",
							"type": "uint256"
						}
					],
					"name": "decreaseApproval",
					"outputs": [
						{
							"name": "success",
							"type": "bool"
						}
					],
					"payable": false,
					"stateMutability": "nonpayable",
					"type": "function"
				},
				{
					"constant": true,
					"inputs": [
						{
							"name": "_owner",
							"type": "address"
						}
					],
					"name": "balanceOf",
					"outputs": [
						{
							"name": "balance",
							"type": "uint256"
						}
					],
					"payable": false,
					"stateMutability": "view",
					"type": "function"
				},
				{
					"constant": true,
					"inputs": [],
					"name": "symbol",
					"outputs": [
						{
							"name": "",
							"type": "string"
						}
					],
					"payable": false,
					"stateMutability": "view",
					"type": "function"
				},
				{
					"constant": false,
					"inputs": [
						{
							"name": "_to",
							"type": "address"
						},
						{
							"name": "_value",
							"type": "uint256"
						}
					],
					"name": "transfer",
					"outputs": [
						{
							"name": "success",
							"type": "bool"
						}
					],
					"payable": false,
					"stateMutability": "nonpayable",
					"type": "function"
				},
				{
					"constant": false,
					"inputs": [
						{
							"name": "_spender",
							"type": "address"
						},
						{
							"name": "_addedValue",
							"type": "uint256"
						}
					],
					"name": "increaseApproval",
					"outputs": [
						{
							"name": "success",
							"type": "bool"
						}
					],
					"payable": false,
					"stateMutability": "nonpayable",
					"type": "function"
				},
				{
					"constant": true,
					"inputs": [
						{
							"name": "_owner",
							"type": "address"
						},
						{
							"name": "_spender",
							"type": "address"
						}
					],
					"name": "allowance",
					"outputs": [
						{
							"name": "remaining",
							"type": "uint256"
						}
					],
					"payable": false,
					"stateMutability": "view",
					"type": "function"
				},
				{
					"inputs": [],
					"payable": false,
					"stateMutability": "nonpayable",
					"type": "constructor"
				},
				{
					"anonymous": false,
					"inputs": [
						{
							"indexed": true,
							"name": "from",
							"type": "address"
						},
						{
							"indexed": true,
							"name": "to",
							"type": "address"
						},
						{
							"indexed": false,
							"name": "value",
							"type": "uint256"
						},
						{
							"indexed": false,
							"name": "data",
							"type": "bytes"
						}
					],
					"name": "Transfer",
					"type": "event"
				},
				{
					"anonymous": false,
					"inputs": [
						{
							"indexed": true,
							"name": "owner",
							"type": "address"
						},
						{
							"indexed": true,
							"name": "spender",
							"type": "address"
						},
						{
							"indexed": false,
							"name": "value",
							"type": "uint256"
						}
					],
					"name": "Approval",
					"type": "event"
				},
				{
					"anonymous": false,
					"inputs": [
						{
							"indexed": true,
							"name": "from",
							"type": "address"
						},
						{
							"indexed": true,
							"name": "to",
							"type": "address"
						},
						{
							"indexed": false,
							"name": "value",
							"type": "uint256"
						}
					],
					"name": "Transfer",
					"type": "event"
				}
			],
			"devdoc": {
				"methods": {
					"allowance(address,address)": {
						"details": "Function to check the amount of tokens that an owner allowed to a spender.",
						"params": {
							"_owner": "address The address which owns the funds.",
							"_spender": "address The address which will spend the funds."
						},
						"return": "A uint256 specifying the amount of tokens still available for the spender."
					},
					"approve(address,uint256)": {
						"details": "Approve the passed address to spend the specified amount of tokens on behalf of msg.sender.",
						"params": {
							"_spender": "The address which will spend the funds.",
							"_value": "The amount of tokens to be spent."
						}
					},
					"balanceOf(address)": {
						"details": "Gets the balance of the specified address.",
						"params": {
							"_owner": "The address to query the the balance of. "
						},
						"return": "An uint256 representing the amount owned by the passed address."
					},
					"transfer(address,uint256)": {
						"details": "transfer token to a specified address.",
						"params": {
							"_to": "The address to transfer to.",
							"_value": "The amount to be transferred."
						}
					},
					"transferAndCall(address,uint256,bytes)": {
						"details": "transfer token to a specified address with additional data if the recipient is a contract.",
						"params": {
							"_data": "The extra data to be passed to the receiving contract.",
							"_to": "The address to transfer to.",
							"_value": "The amount to be transferred."
						}
					},
					"transferFrom(address,address,uint256)": {
						"details": "Transfer tokens from one address to another",
						"params": {
							"_from": "address The address which you want to send tokens from",
							"_to": "address The address which you want to transfer to",
							"_value": "uint256 the amount of tokens to be transferred"
						}
					}
				}
			},
			"evm": {
				"assembly": "    /* \"Users/leilei/Downloads/MasterChefV2/contracts/LinkToken.sol\":6873:8957  contract LinkToken is linkStandardToken, ERC677Token {... */\n  mstore(0x40, 0x80)\n    /* \"Users/leilei/Downloads/MasterChefV2/contracts/LinkToken.sol\":7109:7188  function LinkToken()... */\n  callvalue\n    /* \"--CODEGEN--\":8:17   */\n  dup1\n    /* \"--CODEGEN--\":5:7   */\n  iszero\n  tag_1\n  jumpi\n    /* \"--CODEGEN--\":30:31   */\n  0x0\n    /* \"--CODEGEN--\":27:28   */\n  dup1\n    /* \"--CODEGEN--\":20:32   */\n  revert\n    /* \"--CODEGEN--\":5:7   */\ntag_1:\n    /* \"Users/leilei/Downloads/MasterChefV2/contracts/LinkToken.sol\":7109:7188  function LinkToken()... */\n  pop\n    /* \"Users/leilei/Downloads/MasterChefV2/contracts/LinkToken.sol\":6966:6972  10**27 */\n  0x33b2e3c9fd0803ce8000000\n    /* \"Users/leilei/Downloads/MasterChefV2/contracts/LinkToken.sol\":7149:7157  balances */\n  0x1\n    /* \"Users/leilei/Downloads/MasterChefV2/contracts/LinkToken.sol\":7149:7169  balances[msg.sender] */\n  0x0\n    /* \"Users/leilei/Downloads/MasterChefV2/contracts/LinkToken.sol\":7158:7168  msg.sender */\n  caller\n    /* \"Users/leilei/Downloads/MasterChefV2/contracts/LinkToken.sol\":7149:7169  balances[msg.sender] */\n  0xffffffffffffffffffffffffffffffffffffffff\n  and\n  0xffffffffffffffffffffffffffffffffffffffff\n  and\n  dup2\n  mstore\n  0x20\n  add\n  swap1\n  dup2\n  mstore\n  0x20\n  add\n  0x0\n  keccak256\n    /* \"Users/leilei/Downloads/MasterChefV2/contracts/LinkToken.sol\":7149:7183  balances[msg.sender] = totalSupply */\n  dup2\n  swap1\n  sstore\n  pop\n    /* \"Users/leilei/Downloads/MasterChefV2/contracts/LinkToken.sol\":6873:8957  contract LinkToken is linkStandardToken, ERC677Token {... */\n  dataSize(sub_0)\n  dup1\n  dataOffset(sub_0)\n  0x0\n  codecopy\n  0x0\n  return\nstop\n\nsub_0: assembly {\n        /* \"Users/leilei/Downloads/MasterChefV2/contracts/LinkToken.sol\":6873:8957  contract LinkToken is linkStandardToken, ERC677Token {... */\n      mstore(0x40, 0x80)\n      jumpi(tag_1, lt(calldatasize, 0x4))\n      calldataload(0x0)\n      0x100000000000000000000000000000000000000000000000000000000\n      swap1\n      div\n      0xffffffff\n      and\n      dup1\n      0x6fdde03\n      eq\n      tag_2\n      jumpi\n      dup1\n      0x95ea7b3\n      eq\n      tag_3\n      jumpi\n      dup1\n      0x18160ddd\n      eq\n      tag_4\n      jumpi\n      dup1\n      0x23b872dd\n      eq\n      tag_5\n      jumpi\n      dup1\n      0x313ce567\n      eq\n      tag_6\n      jumpi\n      dup1\n      0x4000aea0\n      eq\n      tag_7\n      jumpi\n      dup1\n      0x66188463\n      eq\n      tag_8\n      jumpi\n      dup1\n      0x70a08231\n      eq\n      tag_9\n      jumpi\n      dup1\n      0x95d89b41\n      eq\n      tag_10\n      jumpi\n      dup1\n      0xa9059cbb\n      eq\n      tag_11\n      jumpi\n      dup1\n      0xd73dd623\n      eq\n      tag_12\n      jumpi\n      dup1\n      0xdd62ed3e\n      eq\n      tag_13\n      jumpi\n    tag_1:\n      0x0\n      dup1\n      revert\n        /* \"Users/leilei/Downloads/MasterChefV2/contracts/LinkToken.sol\":6976:7023  string public constant name = 'ChainLink Token' */\n    tag_2:\n      callvalue\n        /* \"--CODEGEN--\":8:17   */\n      dup1\n        /* \"--CODEGEN--\":5:7   */\n      iszero\n      tag_14\n      jumpi\n        /* \"--CODEGEN--\":30:31   */\n      0x0\n        /* \"--CODEGEN--\":27:28   */\n      dup1\n        /* \"--CODEGEN--\":20:32   */\n      revert\n        /* \"--CODEGEN--\":5:7   */\n    tag_14:\n        /* \"Users/leilei/Downloads/MasterChefV2/contracts/LinkToken.sol\":6976:7023  string public constant name = 'ChainLink Token' */\n      pop\n      tag_15\n      jump(tag_16)\n    tag_15:\n      mload(0x40)\n      dup1\n      dup1\n      0x20\n      add\n      dup3\n      dup2\n      sub\n      dup3\n      mstore\n      dup4\n      dup2\n      dup2\n      mload\n      dup2\n      mstore\n      0x20\n      add\n      swap2\n      pop\n      dup1\n      mload\n      swap1\n      0x20\n      add\n      swap1\n      dup1\n      dup4\n      dup4\n        /* \"--CODEGEN--\":23:24   */\n      0x0\n        /* \"--CODEGEN--\":8:108   */\n    tag_17:\n        /* \"--CODEGEN--\":33:36   */\n      dup4\n        /* \"--CODEGEN--\":30:31   */\n      dup2\n        /* \"--CODEGEN--\":27:37   */\n      lt\n        /* \"--CODEGEN--\":8:108   */\n      iszero\n      tag_18\n      jumpi\n        /* \"--CODEGEN--\":99:100   */\n      dup1\n        /* \"--CODEGEN--\":94:97   */\n      dup3\n        /* \"--CODEGEN--\":90:101   */\n      add\n        /* \"--CODEGEN--\":84:102   */\n      mload\n        /* \"--CODEGEN--\":80:81   */\n      dup2\n        /* \"--CODEGEN--\":75:78   */\n      dup5\n        /* \"--CODEGEN--\":71:82   */\n      add\n        /* \"--CODEGEN--\":64:103   */\n      mstore\n        /* \"--CODEGEN--\":52:54   */\n      0x20\n        /* \"--CODEGEN--\":49:50   */\n      dup2\n        /* \"--CODEGEN--\":45:55   */\n      add\n        /* \"--CODEGEN--\":40:55   */\n      swap1\n      pop\n        /* \"--CODEGEN--\":8:108   */\n      jump(tag_17)\n    tag_18:\n        /* \"--CODEGEN--\":12:26   */\n      pop\n        /* \"Users/leilei/Downloads/MasterChefV2/contracts/LinkToken.sol\":6976:7023  string public constant name = 'ChainLink Token' */\n      pop\n      pop\n      pop\n      swap1\n      pop\n      swap1\n      dup2\n      add\n      swap1\n      0x1f\n      and\n      dup1\n      iszero\n      tag_20\n      jumpi\n      dup1\n      dup3\n      sub\n      dup1\n      mload\n      0x1\n      dup4\n      0x20\n      sub\n      0x100\n      exp\n      sub\n      not\n      and\n      dup2\n      mstore\n      0x20\n      add\n      swap2\n      pop\n    tag_20:\n      pop\n      swap3\n      pop\n      pop\n      pop\n      mload(0x40)\n      dup1\n      swap2\n      sub\n      swap1\n      return\n        /* \"Users/leilei/Downloads/MasterChefV2/contracts/LinkToken.sol\":8192:8354  function approve(address _spender, uint256 _value)... */\n    tag_3:\n      callvalue\n        /* \"--CODEGEN--\":8:17   */\n      dup1\n        /* \"--CODEGEN--\":5:7   */\n      iszero\n      tag_21\n      jumpi\n        /* \"--CODEGEN--\":30:31   */\n      0x0\n        /* \"--CODEGEN--\":27:28   */\n      dup1\n        /* \"--CODEGEN--\":20:32   */\n      revert\n        /* \"--CODEGEN--\":5:7   */\n    tag_21:\n        /* \"Users/leilei/Downloads/MasterChefV2/contracts/LinkToken.sol\":8192:8354  function approve(address _spender, uint256 _value)... */\n      pop\n      tag_22\n      0x4\n      dup1\n      calldatasize\n      sub\n      dup2\n      add\n      swap1\n      dup1\n      dup1\n      calldataload\n      0xffffffffffffffffffffffffffffffffffffffff\n      and\n      swap1\n      0x20\n      add\n      swap1\n      swap3\n      swap2\n      swap1\n      dup1\n      calldataload\n      swap1\n      0x20\n      add\n      swap1\n      swap3\n      swap2\n      swap1\n      pop\n      pop\n      pop\n      jump(tag_23)\n    tag_22:\n      mload(0x40)\n      dup1\n      dup3\n      iszero\n      iszero\n      iszero\n      iszero\n      dup2\n      mstore\n      0x20\n      add\n      swap2\n      pop\n      pop\n      mload(0x40)\n      dup1\n      swap2\n      sub\n      swap1\n      return\n        /* \"Users/leilei/Downloads/MasterChefV2/contracts/LinkToken.sol\":6931:6972  uint public constant totalSupply = 10**27 */\n    tag_4:\n      callvalue\n        /* \"--CODEGEN--\":8:17   */\n      dup1\n        /* \"--CODEGEN--\":5:7   */\n      iszero\n      tag_24\n      jumpi\n        /* \"--CODEGEN--\":30:31   */\n      0x0\n        /* \"--CODEGEN--\":27:28   */\n      dup1\n        /* \"--CODEGEN--\":20:32   */\n      revert\n        /* \"--CODEGEN--\":5:7   */\n    tag_24:\n        /* \"Users/leilei/Downloads/MasterChefV2/contracts/LinkToken.sol\":6931:6972  uint public constant totalSupply = 10**27 */\n      pop\n      tag_25\n      jump(tag_26)\n    tag_25:\n      mload(0x40)\n      dup1\n      dup3\n      dup2\n      mstore\n      0x20\n      add\n      swap2\n      pop\n      pop\n      mload(0x40)\n      dup1\n      swap2\n      sub\n      swap1\n      return\n        /* \"Users/leilei/Downloads/MasterChefV2/contracts/LinkToken.sol\":8629:8807  function transferFrom(address _from, address _to, uint256 _value)... */\n    tag_5:\n      callvalue\n        /* \"--CODEGEN--\":8:17   */\n      dup1\n        /* \"--CODEGEN--\":5:7   */\n      iszero\n      tag_27\n      jumpi\n        /* \"--CODEGEN--\":30:31   */\n      0x0\n        /* \"--CODEGEN--\":27:28   */\n      dup1\n        /* \"--CODEGEN--\":20:32   */\n      revert\n        /* \"--CODEGEN--\":5:7   */\n    tag_27:\n        /* \"Users/leilei/Downloads/MasterChefV2/contracts/LinkToken.sol\":8629:8807  function transferFrom(address _from, address _to, uint256 _value)... */\n      pop\n      tag_28\n      0x4\n      dup1\n      calldatasize\n      sub\n      dup2\n      add\n      swap1\n      dup1\n      dup1\n      calldataload\n      0xffffffffffffffffffffffffffffffffffffffff\n      and\n      swap1\n      0x20\n      add\n      swap1\n      swap3\n      swap2\n      swap1\n      dup1\n      calldataload\n      0xffffffffffffffffffffffffffffffffffffffff\n      and\n      swap1\n      0x20\n      add\n      swap1\n      swap3\n      swap2\n      swap1\n      dup1\n      calldataload\n      swap1\n      0x20\n      add\n      swap1\n      swap3\n      swap2\n      swap1\n      pop\n      pop\n      pop\n      jump(tag_29)\n    tag_28:\n      mload(0x40)\n      dup1\n      dup3\n      iszero\n      iszero\n      iszero\n      iszero\n      dup2\n      mstore\n      0x20\n      add\n      swap2\n      pop\n      pop\n      mload(0x40)\n      dup1\n      swap2\n      sub\n      swap1\n      return\n        /* \"Users/leilei/Downloads/MasterChefV2/contracts/LinkToken.sol\":7027:7062  uint8 public constant decimals = 18 */\n    tag_6:\n      callvalue\n        /* \"--CODEGEN--\":8:17   */\n      dup1\n        /* \"--CODEGEN--\":5:7   */\n      iszero\n      tag_30\n      jumpi\n        /* \"--CODEGEN--\":30:31   */\n      0x0\n        /* \"--CODEGEN--\":27:28   */\n      dup1\n        /* \"--CODEGEN--\":20:32   */\n      revert\n        /* \"--CODEGEN--\":5:7   */\n    tag_30:\n        /* \"Users/leilei/Downloads/MasterChefV2/contracts/LinkToken.sol\":7027:7062  uint8 public constant decimals = 18 */\n      pop\n      tag_31\n      jump(tag_32)\n    tag_31:\n      mload(0x40)\n      dup1\n      dup3\n      0xff\n      and\n      0xff\n      and\n      dup2\n      mstore\n      0x20\n      add\n      swap2\n      pop\n      pop\n      mload(0x40)\n      dup1\n      swap2\n      sub\n      swap1\n      return\n        /* \"Users/leilei/Downloads/MasterChefV2/contracts/LinkToken.sol\":7466:7653  function transferAndCall(address _to, uint _value, bytes _data)... */\n    tag_7:\n      callvalue\n        /* \"--CODEGEN--\":8:17   */\n      dup1\n        /* \"--CODEGEN--\":5:7   */\n      iszero\n      tag_33\n      jumpi\n        /* \"--CODEGEN--\":30:31   */\n      0x0\n        /* \"--CODEGEN--\":27:28   */\n      dup1\n        /* \"--CODEGEN--\":20:32   */\n      revert\n        /* \"--CODEGEN--\":5:7   */\n    tag_33:\n        /* \"Users/leilei/Downloads/MasterChefV2/contracts/LinkToken.sol\":7466:7653  function transferAndCall(address _to, uint _value, bytes _data)... */\n      pop\n      tag_34\n      0x4\n      dup1\n      calldatasize\n      sub\n      dup2\n      add\n      swap1\n      dup1\n      dup1\n      calldataload\n      0xffffffffffffffffffffffffffffffffffffffff\n      and\n      swap1\n      0x20\n      add\n      swap1\n      swap3\n      swap2\n      swap1\n      dup1\n      calldataload\n      swap1\n      0x20\n      add\n      swap1\n      swap3\n      swap2\n      swap1\n      dup1\n      calldataload\n      swap1\n      0x20\n      add\n      swap1\n      dup3\n      add\n      dup1\n      calldataload\n      swap1\n      0x20\n      add\n      swap1\n      dup1\n      dup1\n      0x1f\n      add\n      0x20\n      dup1\n      swap2\n      div\n      mul\n      0x20\n      add\n      mload(0x40)\n      swap1\n      dup2\n      add\n      0x40\n      mstore\n      dup1\n      swap4\n      swap3\n      swap2\n      swap1\n      dup2\n      dup2\n      mstore\n      0x20\n      add\n      dup4\n      dup4\n      dup1\n      dup3\n      dup5\n      calldatacopy\n      dup3\n      add\n      swap2\n      pop\n      pop\n      pop\n      pop\n      pop\n      pop\n      swap2\n      swap3\n      swap2\n      swap3\n      swap1\n      pop\n      pop\n      pop\n      jump(tag_35)\n    tag_34:\n      mload(0x40)\n      dup1\n      dup3\n      iszero\n      iszero\n      iszero\n      iszero\n      dup2\n      mstore\n      0x20\n      add\n      swap2\n      pop\n      pop\n      mload(0x40)\n      dup1\n      swap2\n      sub\n      swap1\n      return\n        /* \"Users/leilei/Downloads/MasterChefV2/contracts/LinkToken.sol\":6461:6866  function decreaseApproval (address _spender, uint _subtractedValue) ... */\n    tag_8:\n      callvalue\n        /* \"--CODEGEN--\":8:17   */\n      dup1\n        /* \"--CODEGEN--\":5:7   */\n      iszero\n      tag_36\n      jumpi\n        /* \"--CODEGEN--\":30:31   */\n      0x0\n        /* \"--CODEGEN--\":27:28   */\n      dup1\n        /* \"--CODEGEN--\":20:32   */\n      revert\n        /* \"--CODEGEN--\":5:7   */\n    tag_36:\n        /* \"Users/leilei/Downloads/MasterChefV2/contracts/LinkToken.sol\":6461:6866  function decreaseApproval (address _spender, uint _subtractedValue) ... */\n      pop\n      tag_37\n      0x4\n      dup1\n      calldatasize\n      sub\n      dup2\n      add\n      swap1\n      dup1\n      dup1\n      calldataload\n      0xffffffffffffffffffffffffffffffffffffffff\n      and\n      swap1\n      0x20\n      add\n      swap1\n      swap3\n      swap2\n      swap1\n      dup1\n      calldataload\n      swap1\n      0x20\n      add\n      swap1\n      swap3\n      swap2\n      swap1\n      pop\n      pop\n      pop\n      jump(tag_38)\n    tag_37:\n      mload(0x40)\n      dup1\n      dup3\n      iszero\n      iszero\n      iszero\n      iszero\n      dup2\n      mstore\n      0x20\n      add\n      swap2\n      pop\n      pop\n      mload(0x40)\n      dup1\n      swap2\n      sub\n      swap1\n      return\n        /* \"Users/leilei/Downloads/MasterChefV2/contracts/LinkToken.sol\":3826:3930  function balanceOf(address _owner) constant returns (uint256 balance) {... */\n    tag_9:\n      callvalue\n        /* \"--CODEGEN--\":8:17   */\n      dup1\n        /* \"--CODEGEN--\":5:7   */\n      iszero\n      tag_39\n      jumpi\n        /* \"--CODEGEN--\":30:31   */\n      0x0\n        /* \"--CODEGEN--\":27:28   */\n      dup1\n        /* \"--CODEGEN--\":20:32   */\n      revert\n        /* \"--CODEGEN--\":5:7   */\n    tag_39:\n        /* \"Users/leilei/Downloads/MasterChefV2/contracts/LinkToken.sol\":3826:3930  function balanceOf(address _owner) constant returns (uint256 balance) {... */\n      pop\n      tag_40\n      0x4\n      dup1\n      calldatasize\n      sub\n      dup2\n      add\n      swap1\n      dup1\n      dup1\n      calldataload\n      0xffffffffffffffffffffffffffffffffffffffff\n      and\n      swap1\n      0x20\n      add\n      swap1\n      swap3\n      swap2\n      swap1\n      pop\n      pop\n      pop\n      jump(tag_41)\n    tag_40:\n      mload(0x40)\n      dup1\n      dup3\n      dup2\n      mstore\n      0x20\n      add\n      swap2\n      pop\n      pop\n      mload(0x40)\n      dup1\n      swap2\n      sub\n      swap1\n      return\n        /* \"Users/leilei/Downloads/MasterChefV2/contracts/LinkToken.sol\":7066:7104  string public constant symbol = 'LINK' */\n    tag_10:\n      callvalue\n        /* \"--CODEGEN--\":8:17   */\n      dup1\n        /* \"--CODEGEN--\":5:7   */\n      iszero\n      tag_42\n      jumpi\n        /* \"--CODEGEN--\":30:31   */\n      0x0\n        /* \"--CODEGEN--\":27:28   */\n      dup1\n        /* \"--CODEGEN--\":20:32   */\n      revert\n        /* \"--CODEGEN--\":5:7   */\n    tag_42:\n        /* \"Users/leilei/Downloads/MasterChefV2/contracts/LinkToken.sol\":7066:7104  string public constant symbol = 'LINK' */\n      pop\n      tag_43\n      jump(tag_44)\n    tag_43:\n      mload(0x40)\n      dup1\n      dup1\n      0x20\n      add\n      dup3\n      dup2\n      sub\n      dup3\n      mstore\n      dup4\n      dup2\n      dup2\n      mload\n      dup2\n      mstore\n      0x20\n      add\n      swap2\n      pop\n      dup1\n      mload\n      swap1\n      0x20\n      add\n      swap1\n      dup1\n      dup4\n      dup4\n        /* \"--CODEGEN--\":23:24   */\n      0x0\n        /* \"--CODEGEN--\":8:108   */\n    tag_45:\n        /* \"--CODEGEN--\":33:36   */\n      dup4\n        /* \"--CODEGEN--\":30:31   */\n      dup2\n        /* \"--CODEGEN--\":27:37   */\n      lt\n        /* \"--CODEGEN--\":8:108   */\n      iszero\n      tag_46\n      jumpi\n        /* \"--CODEGEN--\":99:100   */\n      dup1\n        /* \"--CODEGEN--\":94:97   */\n      dup3\n        /* \"--CODEGEN--\":90:101   */\n      add\n        /* \"--CODEGEN--\":84:102   */\n      mload\n        /* \"--CODEGEN--\":80:81   */\n      dup2\n        /* \"--CODEGEN--\":75:78   */\n      dup5\n        /* \"--CODEGEN--\":71:82   */\n      add\n        /* \"--CODEGEN--\":64:103   */\n      mstore\n        /* \"--CODEGEN--\":52:54   */\n      0x20\n        /* \"--CODEGEN--\":49:50   */\n      dup2\n        /* \"--CODEGEN--\":45:55   */\n      add\n        /* \"--CODEGEN--\":40:55   */\n      swap1\n      pop\n        /* \"--CODEGEN--\":8:108   */\n      jump(tag_45)\n    tag_46:\n        /* \"--CODEGEN--\":12:26   */\n      pop\n        /* \"Users/leilei/Downloads/MasterChefV2/contracts/LinkToken.sol\":7066:7104  string public constant symbol = 'LINK' */\n      pop\n      pop\n      pop\n      swap1\n      pop\n      swap1\n      dup2\n      add\n      swap1\n      0x1f\n      and\n      dup1\n      iszero\n      tag_48\n      jumpi\n      dup1\n      dup3\n      sub\n      dup1\n      mload\n      0x1\n      dup4\n      0x20\n      sub\n      0x100\n      exp\n      sub\n      not\n      and\n      dup2\n      mstore\n      0x20\n      add\n      swap2\n      pop\n    tag_48:\n      pop\n      swap3\n      pop\n      pop\n      pop\n      mload(0x40)\n      dup1\n      swap2\n      sub\n      swap1\n      return\n        /* \"Users/leilei/Downloads/MasterChefV2/contracts/LinkToken.sol\":7807:7960  function transfer(address _to, uint _value)... */\n    tag_11:\n      callvalue\n        /* \"--CODEGEN--\":8:17   */\n      dup1\n        /* \"--CODEGEN--\":5:7   */\n      iszero\n      tag_49\n      jumpi\n        /* \"--CODEGEN--\":30:31   */\n      0x0\n        /* \"--CODEGEN--\":27:28   */\n      dup1\n        /* \"--CODEGEN--\":20:32   */\n      revert\n        /* \"--CODEGEN--\":5:7   */\n    tag_49:\n        /* \"Users/leilei/Downloads/MasterChefV2/contracts/LinkToken.sol\":7807:7960  function transfer(address _to, uint _value)... */\n      pop\n      tag_50\n      0x4\n      dup1\n      calldatasize\n      sub\n      dup2\n      add\n      swap1\n      dup1\n      dup1\n      calldataload\n      0xffffffffffffffffffffffffffffffffffffffff\n      and\n      swap1\n      0x20\n      add\n      swap1\n      swap3\n      swap2\n      swap1\n      dup1\n      calldataload\n      swap1\n      0x20\n      add\n      swap1\n      swap3\n      swap2\n      swap1\n      pop\n      pop\n      pop\n      jump(tag_51)\n    tag_50:\n      mload(0x40)\n      dup1\n      dup3\n      iszero\n      iszero\n      iszero\n      iszero\n      dup2\n      mstore\n      0x20\n      add\n      swap2\n      pop\n      pop\n      mload(0x40)\n      dup1\n      swap2\n      sub\n      swap1\n      return\n        /* \"Users/leilei/Downloads/MasterChefV2/contracts/LinkToken.sol\":6193:6457  function increaseApproval (address _spender, uint _addedValue) ... */\n    tag_12:\n      callvalue\n        /* \"--CODEGEN--\":8:17   */\n      dup1\n        /* \"--CODEGEN--\":5:7   */\n      iszero\n      tag_52\n      jumpi\n        /* \"--CODEGEN--\":30:31   */\n      0x0\n        /* \"--CODEGEN--\":27:28   */\n      dup1\n        /* \"--CODEGEN--\":20:32   */\n      revert\n        /* \"--CODEGEN--\":5:7   */\n    tag_52:\n        /* \"Users/leilei/Downloads/MasterChefV2/contracts/LinkToken.sol\":6193:6457  function increaseApproval (address _spender, uint _addedValue) ... */\n      pop\n      tag_53\n      0x4\n      dup1\n      calldatasize\n      sub\n      dup2\n      add\n      swap1\n      dup1\n      dup1\n      calldataload\n      0xffffffffffffffffffffffffffffffffffffffff\n      and\n      swap1\n      0x20\n      add\n      swap1\n      swap3\n      swap2\n      swap1\n      dup1\n      calldataload\n      swap1\n      0x20\n      add\n      swap1\n      swap3\n      swap2\n      swap1\n      pop\n      pop\n      pop\n      jump(tag_54)\n    tag_53:\n      mload(0x40)\n      dup1\n      dup3\n      iszero\n      iszero\n      iszero\n      iszero\n      dup2\n      mstore\n      0x20\n      add\n      swap2\n      pop\n      pop\n      mload(0x40)\n      dup1\n      swap2\n      sub\n      swap1\n      return\n        /* \"Users/leilei/Downloads/MasterChefV2/contracts/LinkToken.sol\":5816:5949  function allowance(address _owner, address _spender) constant returns (uint256 remaining) {... */\n    tag_13:\n      callvalue\n        /* \"--CODEGEN--\":8:17   */\n      dup1\n        /* \"--CODEGEN--\":5:7   */\n      iszero\n      tag_55\n      jumpi\n        /* \"--CODEGEN--\":30:31   */\n      0x0\n        /* \"--CODEGEN--\":27:28   */\n      dup1\n        /* \"--CODEGEN--\":20:32   */\n      revert\n        /* \"--CODEGEN--\":5:7   */\n    tag_55:\n        /* \"Users/leilei/Downloads/MasterChefV2/contracts/LinkToken.sol\":5816:5949  function allowance(address _owner, address _spender) constant returns (uint256 remaining) {... */\n      pop\n      tag_56\n      0x4\n      dup1\n      calldatasize\n      sub\n      dup2\n      add\n      swap1\n      dup1\n      dup1\n      calldataload\n      0xffffffffffffffffffffffffffffffffffffffff\n      and\n      swap1\n      0x20\n      add\n      swap1\n      swap3\n      swap2\n      swap1\n      dup1\n      calldataload\n      0xffffffffffffffffffffffffffffffffffffffff\n      and\n      swap1\n      0x20\n      add\n      swap1\n      swap3\n      swap2\n      swap1\n      pop\n      pop\n      pop\n      jump(tag_57)\n    tag_56:\n      mload(0x40)\n      dup1\n      dup3\n      dup2\n      mstore\n      0x20\n      add\n      swap2\n      pop\n      pop\n      mload(0x40)\n      dup1\n      swap2\n      sub\n      swap1\n      return\n        /* \"Users/leilei/Downloads/MasterChefV2/contracts/LinkToken.sol\":6976:7023  string public constant name = 'ChainLink Token' */\n    tag_16:\n      0x40\n      dup1\n      mload\n      swap1\n      dup2\n      add\n      0x40\n      mstore\n      dup1\n      0xf\n      dup2\n      mstore\n      0x20\n      add\n      0x436861696e4c696e6b20546f6b656e0000000000000000000000000000000000\n      dup2\n      mstore\n      pop\n      dup2\n      jump\t// out\n        /* \"Users/leilei/Downloads/MasterChefV2/contracts/LinkToken.sol\":8192:8354  function approve(address _spender, uint256 _value)... */\n    tag_23:\n        /* \"Users/leilei/Downloads/MasterChefV2/contracts/LinkToken.sol\":8296:8300  bool */\n      0x0\n        /* \"Users/leilei/Downloads/MasterChefV2/contracts/LinkToken.sol\":8273:8281  _spender */\n      dup3\n        /* \"Users/leilei/Downloads/MasterChefV2/contracts/LinkToken.sol\":8908:8909  0 */\n      0x0\n        /* \"Users/leilei/Downloads/MasterChefV2/contracts/LinkToken.sol\":8886:8910  _recipient != address(0) */\n      0xffffffffffffffffffffffffffffffffffffffff\n      and\n        /* \"Users/leilei/Downloads/MasterChefV2/contracts/LinkToken.sol\":8886:8896  _recipient */\n      dup2\n        /* \"Users/leilei/Downloads/MasterChefV2/contracts/LinkToken.sol\":8886:8910  _recipient != address(0) */\n      0xffffffffffffffffffffffffffffffffffffffff\n      and\n      eq\n      iszero\n        /* \"Users/leilei/Downloads/MasterChefV2/contracts/LinkToken.sol\":8886:8941  _recipient != address(0) && _recipient != address(this) */\n      dup1\n      iszero\n      tag_59\n      jumpi\n      pop\n        /* \"Users/leilei/Downloads/MasterChefV2/contracts/LinkToken.sol\":8936:8940  this */\n      address\n        /* \"Users/leilei/Downloads/MasterChefV2/contracts/LinkToken.sol\":8914:8941  _recipient != address(this) */\n      0xffffffffffffffffffffffffffffffffffffffff\n      and\n        /* \"Users/leilei/Downloads/MasterChefV2/contracts/LinkToken.sol\":8914:8924  _recipient */\n      dup2\n        /* \"Users/leilei/Downloads/MasterChefV2/contracts/LinkToken.sol\":8914:8941  _recipient != address(this) */\n      0xffffffffffffffffffffffffffffffffffffffff\n      and\n      eq\n      iszero\n        /* \"Users/leilei/Downloads/MasterChefV2/contracts/LinkToken.sol\":8886:8941  _recipient != address(0) && _recipient != address(this) */\n    tag_59:\n        /* \"Users/leilei/Downloads/MasterChefV2/contracts/LinkToken.sol\":8878:8942  require(_recipient != address(0) && _recipient != address(this)) */\n      iszero\n      iszero\n      tag_60\n      jumpi\n      0x0\n      dup1\n      revert\n    tag_60:\n        /* \"Users/leilei/Downloads/MasterChefV2/contracts/LinkToken.sol\":8317:8349  super.approve(_spender,  _value) */\n      tag_62\n        /* \"Users/leilei/Downloads/MasterChefV2/contracts/LinkToken.sol\":8331:8339  _spender */\n      dup5\n        /* \"Users/leilei/Downloads/MasterChefV2/contracts/LinkToken.sol\":8342:8348  _value */\n      dup5\n        /* \"Users/leilei/Downloads/MasterChefV2/contracts/LinkToken.sol\":8317:8330  super.approve */\n      tag_63\n        /* \"Users/leilei/Downloads/MasterChefV2/contracts/LinkToken.sol\":8317:8349  super.approve(_spender,  _value) */\n      jump\t// in\n    tag_62:\n        /* \"Users/leilei/Downloads/MasterChefV2/contracts/LinkToken.sol\":8310:8349  return super.approve(_spender,  _value) */\n      swap2\n      pop\n        /* \"Users/leilei/Downloads/MasterChefV2/contracts/LinkToken.sol\":8192:8354  function approve(address _spender, uint256 _value)... */\n      pop\n      swap3\n      swap2\n      pop\n      pop\n      jump\t// out\n        /* \"Users/leilei/Downloads/MasterChefV2/contracts/LinkToken.sol\":6931:6972  uint public constant totalSupply = 10**27 */\n    tag_26:\n        /* \"Users/leilei/Downloads/MasterChefV2/contracts/LinkToken.sol\":6966:6972  10**27 */\n      0x33b2e3c9fd0803ce8000000\n        /* \"Users/leilei/Downloads/MasterChefV2/contracts/LinkToken.sol\":6931:6972  uint public constant totalSupply = 10**27 */\n      dup2\n      jump\t// out\n        /* \"Users/leilei/Downloads/MasterChefV2/contracts/LinkToken.sol\":8629:8807  function transferFrom(address _from, address _to, uint256 _value)... */\n    tag_29:\n        /* \"Users/leilei/Downloads/MasterChefV2/contracts/LinkToken.sol\":8743:8747  bool */\n      0x0\n        /* \"Users/leilei/Downloads/MasterChefV2/contracts/LinkToken.sol\":8725:8728  _to */\n      dup3\n        /* \"Users/leilei/Downloads/MasterChefV2/contracts/LinkToken.sol\":8908:8909  0 */\n      0x0\n        /* \"Users/leilei/Downloads/MasterChefV2/contracts/LinkToken.sol\":8886:8910  _recipient != address(0) */\n      0xffffffffffffffffffffffffffffffffffffffff\n      and\n        /* \"Users/leilei/Downloads/MasterChefV2/contracts/LinkToken.sol\":8886:8896  _recipient */\n      dup2\n        /* \"Users/leilei/Downloads/MasterChefV2/contracts/LinkToken.sol\":8886:8910  _recipient != address(0) */\n      0xffffffffffffffffffffffffffffffffffffffff\n      and\n      eq\n      iszero\n        /* \"Users/leilei/Downloads/MasterChefV2/contracts/LinkToken.sol\":8886:8941  _recipient != address(0) && _recipient != address(this) */\n      dup1\n      iszero\n      tag_65\n      jumpi\n      pop\n        /* \"Users/leilei/Downloads/MasterChefV2/contracts/LinkToken.sol\":8936:8940  this */\n      address\n        /* \"Users/leilei/Downloads/MasterChefV2/contracts/LinkToken.sol\":8914:8941  _recipient != address(this) */\n      0xffffffffffffffffffffffffffffffffffffffff\n      and\n        /* \"Users/leilei/Downloads/MasterChefV2/contracts/LinkToken.sol\":8914:8924  _recipient */\n      dup2\n        /* \"Users/leilei/Downloads/MasterChefV2/contracts/LinkToken.sol\":8914:8941  _recipient != address(this) */\n      0xffffffffffffffffffffffffffffffffffffffff\n      and\n      eq\n      iszero\n        /* \"Users/leilei/Downloads/MasterChefV2/contracts/LinkToken.sol\":8886:8941  _recipient != address(0) && _recipient != address(this) */\n    tag_65:\n        /* \"Users/leilei/Downloads/MasterChefV2/contracts/LinkToken.sol\":8878:8942  require(_recipient != address(0) && _recipient != address(this)) */\n      iszero\n      iszero\n      tag_66\n      jumpi\n      0x0\n      dup1\n      revert\n    tag_66:\n        /* \"Users/leilei/Downloads/MasterChefV2/contracts/LinkToken.sol\":8764:8802  super.transferFrom(_from, _to, _value) */\n      tag_68\n        /* \"Users/leilei/Downloads/MasterChefV2/contracts/LinkToken.sol\":8783:8788  _from */\n      dup6\n        /* \"Users/leilei/Downloads/MasterChefV2/contracts/LinkToken.sol\":8790:8793  _to */\n      dup6\n        /* \"Users/leilei/Downloads/MasterChefV2/contracts/LinkToken.sol\":8795:8801  _value */\n      dup6\n        /* \"Users/leilei/Downloads/MasterChefV2/contracts/LinkToken.sol\":8764:8782  super.transferFrom */\n      tag_69\n        /* \"Users/leilei/Downloads/MasterChefV2/contracts/LinkToken.sol\":8764:8802  super.transferFrom(_from, _to, _value) */\n      jump\t// in\n    tag_68:\n        /* \"Users/leilei/Downloads/MasterChefV2/contracts/LinkToken.sol\":8757:8802  return super.transferFrom(_from, _to, _value) */\n      swap2\n      pop\n        /* \"Users/leilei/Downloads/MasterChefV2/contracts/LinkToken.sol\":8629:8807  function transferFrom(address _from, address _to, uint256 _value)... */\n      pop\n      swap4\n      swap3\n      pop\n      pop\n      pop\n      jump\t// out\n        /* \"Users/leilei/Downloads/MasterChefV2/contracts/LinkToken.sol\":7027:7062  uint8 public constant decimals = 18 */\n    tag_32:\n        /* \"Users/leilei/Downloads/MasterChefV2/contracts/LinkToken.sol\":7060:7062  18 */\n      0x12\n        /* \"Users/leilei/Downloads/MasterChefV2/contracts/LinkToken.sol\":7027:7062  uint8 public constant decimals = 18 */\n      dup2\n      jump\t// out\n        /* \"Users/leilei/Downloads/MasterChefV2/contracts/LinkToken.sol\":7466:7653  function transferAndCall(address _to, uint _value, bytes _data)... */\n    tag_35:\n        /* \"Users/leilei/Downloads/MasterChefV2/contracts/LinkToken.sol\":7578:7590  bool success */\n      0x0\n        /* \"Users/leilei/Downloads/MasterChefV2/contracts/LinkToken.sol\":7560:7563  _to */\n      dup4\n        /* \"Users/leilei/Downloads/MasterChefV2/contracts/LinkToken.sol\":8908:8909  0 */\n      0x0\n        /* \"Users/leilei/Downloads/MasterChefV2/contracts/LinkToken.sol\":8886:8910  _recipient != address(0) */\n      0xffffffffffffffffffffffffffffffffffffffff\n      and\n        /* \"Users/leilei/Downloads/MasterChefV2/contracts/LinkToken.sol\":8886:8896  _recipient */\n      dup2\n        /* \"Users/leilei/Downloads/MasterChefV2/contracts/LinkToken.sol\":8886:8910  _recipient != address(0) */\n      0xffffffffffffffffffffffffffffffffffffffff\n      and\n      eq\n      iszero\n        /* \"Users/leilei/Downloads/MasterChefV2/contracts/LinkToken.sol\":8886:8941  _recipient != address(0) && _recipient != address(this) */\n      dup1\n      iszero\n      tag_71\n      jumpi\n      pop\n        /* \"Users/leilei/Downloads/MasterChefV2/contracts/LinkToken.sol\":8936:8940  this */\n      address\n        /* \"Users/leilei/Downloads/MasterChefV2/contracts/LinkToken.sol\":8914:8941  _recipient != address(this) */\n      0xffffffffffffffffffffffffffffffffffffffff\n      and\n        /* \"Users/leilei/Downloads/MasterChefV2/contracts/LinkToken.sol\":8914:8924  _recipient */\n      dup2\n        /* \"Users/leilei/Downloads/MasterChefV2/contracts/LinkToken.sol\":8914:8941  _recipient != address(this) */\n      0xffffffffffffffffffffffffffffffffffffffff\n      and\n      eq\n      iszero\n        /* \"Users/leilei/Downloads/MasterChefV2/contracts/LinkToken.sol\":8886:8941  _recipient != address(0) && _recipient != address(this) */\n    tag_71:\n        /* \"Users/leilei/Downloads/MasterChefV2/contracts/LinkToken.sol\":8878:8942  require(_recipient != address(0) && _recipient != address(this)) */\n      iszero\n      iszero\n      tag_72\n      jumpi\n      0x0\n      dup1\n      revert\n    tag_72:\n        /* \"Users/leilei/Downloads/MasterChefV2/contracts/LinkToken.sol\":7607:7648  super.transferAndCall(_to, _value, _data) */\n      tag_74\n        /* \"Users/leilei/Downloads/MasterChefV2/contracts/LinkToken.sol\":7629:7632  _to */\n      dup6\n        /* \"Users/leilei/Downloads/MasterChefV2/contracts/LinkToken.sol\":7634:7640  _value */\n      dup6\n        /* \"Users/leilei/Downloads/MasterChefV2/contracts/LinkToken.sol\":7642:7647  _data */\n      dup6\n        /* \"Users/leilei/Downloads/MasterChefV2/contracts/LinkToken.sol\":7607:7628  super.transferAndCall */\n      tag_75\n        /* \"Users/leilei/Downloads/MasterChefV2/contracts/LinkToken.sol\":7607:7648  super.transferAndCall(_to, _value, _data) */\n      jump\t// in\n    tag_74:\n        /* \"Users/leilei/Downloads/MasterChefV2/contracts/LinkToken.sol\":7600:7648  return super.transferAndCall(_to, _value, _data) */\n      swap2\n      pop\n        /* \"Users/leilei/Downloads/MasterChefV2/contracts/LinkToken.sol\":7466:7653  function transferAndCall(address _to, uint _value, bytes _data)... */\n      pop\n      swap4\n      swap3\n      pop\n      pop\n      pop\n      jump\t// out\n        /* \"Users/leilei/Downloads/MasterChefV2/contracts/LinkToken.sol\":6461:6866  function decreaseApproval (address _spender, uint _subtractedValue) ... */\n    tag_38:\n        /* \"Users/leilei/Downloads/MasterChefV2/contracts/LinkToken.sol\":6543:6555  bool success */\n      0x0\n        /* \"Users/leilei/Downloads/MasterChefV2/contracts/LinkToken.sol\":6563:6576  uint oldValue */\n      dup1\n        /* \"Users/leilei/Downloads/MasterChefV2/contracts/LinkToken.sol\":6579:6586  allowed */\n      0x2\n        /* \"Users/leilei/Downloads/MasterChefV2/contracts/LinkToken.sol\":6579:6598  allowed[msg.sender] */\n      0x0\n        /* \"Users/leilei/Downloads/MasterChefV2/contracts/LinkToken.sol\":6587:6597  msg.sender */\n      caller\n        /* \"Users/leilei/Downloads/MasterChefV2/contracts/LinkToken.sol\":6579:6598  allowed[msg.sender] */\n      0xffffffffffffffffffffffffffffffffffffffff\n      and\n      0xffffffffffffffffffffffffffffffffffffffff\n      and\n      dup2\n      mstore\n      0x20\n      add\n      swap1\n      dup2\n      mstore\n      0x20\n      add\n      0x0\n      keccak256\n        /* \"Users/leilei/Downloads/MasterChefV2/contracts/LinkToken.sol\":6579:6608  allowed[msg.sender][_spender] */\n      0x0\n        /* \"Users/leilei/Downloads/MasterChefV2/contracts/LinkToken.sol\":6599:6607  _spender */\n      dup6\n        /* \"Users/leilei/Downloads/MasterChefV2/contracts/LinkToken.sol\":6579:6608  allowed[msg.sender][_spender] */\n      0xffffffffffffffffffffffffffffffffffffffff\n      and\n      0xffffffffffffffffffffffffffffffffffffffff\n      and\n      dup2\n      mstore\n      0x20\n      add\n      swap1\n      dup2\n      mstore\n      0x20\n      add\n      0x0\n      keccak256\n      sload\n        /* \"Users/leilei/Downloads/MasterChefV2/contracts/LinkToken.sol\":6563:6608  uint oldValue = allowed[msg.sender][_spender] */\n      swap1\n      pop\n        /* \"Users/leilei/Downloads/MasterChefV2/contracts/LinkToken.sol\":6637:6645  oldValue */\n      dup1\n        /* \"Users/leilei/Downloads/MasterChefV2/contracts/LinkToken.sol\":6618:6634  _subtractedValue */\n      dup4\n        /* \"Users/leilei/Downloads/MasterChefV2/contracts/LinkToken.sol\":6618:6645  _subtractedValue > oldValue */\n      gt\n        /* \"Users/leilei/Downloads/MasterChefV2/contracts/LinkToken.sol\":6614:6778  if (_subtractedValue > oldValue) {... */\n      iszero\n      tag_77\n      jumpi\n        /* \"Users/leilei/Downloads/MasterChefV2/contracts/LinkToken.sol\":6687:6688  0 */\n      0x0\n        /* \"Users/leilei/Downloads/MasterChefV2/contracts/LinkToken.sol\":6655:6662  allowed */\n      0x2\n        /* \"Users/leilei/Downloads/MasterChefV2/contracts/LinkToken.sol\":6655:6674  allowed[msg.sender] */\n      0x0\n        /* \"Users/leilei/Downloads/MasterChefV2/contracts/LinkToken.sol\":6663:6673  msg.sender */\n      caller\n        /* \"Users/leilei/Downloads/MasterChefV2/contracts/LinkToken.sol\":6655:6674  allowed[msg.sender] */\n      0xffffffffffffffffffffffffffffffffffffffff\n      and\n      0xffffffffffffffffffffffffffffffffffffffff\n      and\n      dup2\n      mstore\n      0x20\n      add\n      swap1\n      dup2\n      mstore\n      0x20\n      add\n      0x0\n      keccak256\n        /* \"Users/leilei/Downloads/MasterChefV2/contracts/LinkToken.sol\":6655:6684  allowed[msg.sender][_spender] */\n      0x0\n        /* \"Users/leilei/Downloads/MasterChefV2/contracts/LinkToken.sol\":6675:6683  _spender */\n      dup7\n        /* \"Users/leilei/Downloads/MasterChefV2/contracts/LinkToken.sol\":6655:6684  allowed[msg.sender][_spender] */\n      0xffffffffffffffffffffffffffffffffffffffff\n      and\n      0xffffffffffffffffffffffffffffffffffffffff\n      and\n      dup2\n      mstore\n      0x20\n      add\n      swap1\n      dup2\n      mstore\n      0x20\n      add\n      0x0\n      keccak256\n        /* \"Users/leilei/Downloads/MasterChefV2/contracts/LinkToken.sol\":6655:6688  allowed[msg.sender][_spender] = 0 */\n      dup2\n      swap1\n      sstore\n      pop\n        /* \"Users/leilei/Downloads/MasterChefV2/contracts/LinkToken.sol\":6614:6778  if (_subtractedValue > oldValue) {... */\n      jump(tag_78)\n    tag_77:\n        /* \"Users/leilei/Downloads/MasterChefV2/contracts/LinkToken.sol\":6741:6771  oldValue.sub(_subtractedValue) */\n      tag_79\n        /* \"Users/leilei/Downloads/MasterChefV2/contracts/LinkToken.sol\":6754:6770  _subtractedValue */\n      dup4\n        /* \"Users/leilei/Downloads/MasterChefV2/contracts/LinkToken.sol\":6741:6749  oldValue */\n      dup3\n        /* \"Users/leilei/Downloads/MasterChefV2/contracts/LinkToken.sol\":6741:6753  oldValue.sub */\n      tag_80\n      swap1\n        /* \"Users/leilei/Downloads/MasterChefV2/contracts/LinkToken.sol\":6741:6771  oldValue.sub(_subtractedValue) */\n      swap2\n      swap1\n      0xffffffff\n      and\n      jump\t// in\n    tag_79:\n        /* \"Users/leilei/Downloads/MasterChefV2/contracts/LinkToken.sol\":6709:6716  allowed */\n      0x2\n        /* \"Users/leilei/Downloads/MasterChefV2/contracts/LinkToken.sol\":6709:6728  allowed[msg.sender] */\n      0x0\n        /* \"Users/leilei/Downloads/MasterChefV2/contracts/LinkToken.sol\":6717:6727  msg.sender */\n      caller\n        /* \"Users/leilei/Downloads/MasterChefV2/contracts/LinkToken.sol\":6709:6728  allowed[msg.sender] */\n      0xffffffffffffffffffffffffffffffffffffffff\n      and\n      0xffffffffffffffffffffffffffffffffffffffff\n      and\n      dup2\n      mstore\n      0x20\n      add\n      swap1\n      dup2\n      mstore\n      0x20\n      add\n      0x0\n      keccak256\n        /* \"Users/leilei/Downloads/MasterChefV2/contracts/LinkToken.sol\":6709:6738  allowed[msg.sender][_spender] */\n      0x0\n        /* \"Users/leilei/Downloads/MasterChefV2/contracts/LinkToken.sol\":6729:6737  _spender */\n      dup7\n        /* \"Users/leilei/Downloads/MasterChefV2/contracts/LinkToken.sol\":6709:6738  allowed[msg.sender][_spender] */\n      0xffffffffffffffffffffffffffffffffffffffff\n      and\n      0xffffffffffffffffffffffffffffffffffffffff\n      and\n      dup2\n      mstore\n      0x20\n      add\n      swap1\n      dup2\n      mstore\n      0x20\n      add\n      0x0\n      keccak256\n        /* \"Users/leilei/Downloads/MasterChefV2/contracts/LinkToken.sol\":6709:6771  allowed[msg.sender][_spender] = oldValue.sub(_subtractedValue) */\n      dup2\n      swap1\n      sstore\n      pop\n        /* \"Users/leilei/Downloads/MasterChefV2/contracts/LinkToken.sol\":6614:6778  if (_subtractedValue > oldValue) {... */\n    tag_78:\n        /* \"Users/leilei/Downloads/MasterChefV2/contracts/LinkToken.sol\":6804:6812  _spender */\n      dup4\n        /* \"Users/leilei/Downloads/MasterChefV2/contracts/LinkToken.sol\":6783:6844  Approval(msg.sender, _spender, allowed[msg.sender][_spender]) */\n      0xffffffffffffffffffffffffffffffffffffffff\n      and\n        /* \"Users/leilei/Downloads/MasterChefV2/contracts/LinkToken.sol\":6792:6802  msg.sender */\n      caller\n        /* \"Users/leilei/Downloads/MasterChefV2/contracts/LinkToken.sol\":6783:6844  Approval(msg.sender, _spender, allowed[msg.sender][_spender]) */\n      0xffffffffffffffffffffffffffffffffffffffff\n      and\n      0x8c5be1e5ebec7d5bd14f71427d1e84f3dd0314c0f7b2291e5b200ac8c7c3b925\n        /* \"Users/leilei/Downloads/MasterChefV2/contracts/LinkToken.sol\":6814:6821  allowed */\n      0x2\n        /* \"Users/leilei/Downloads/MasterChefV2/contracts/LinkToken.sol\":6814:6833  allowed[msg.sender] */\n      0x0\n        /* \"Users/leilei/Downloads/MasterChefV2/contracts/LinkToken.sol\":6822:6832  msg.sender */\n      caller\n        /* \"Users/leilei/Downloads/MasterChefV2/contracts/LinkToken.sol\":6814:6833  allowed[msg.sender] */\n      0xffffffffffffffffffffffffffffffffffffffff\n      and\n      0xffffffffffffffffffffffffffffffffffffffff\n      and\n      dup2\n      mstore\n      0x20\n      add\n      swap1\n      dup2\n      mstore\n      0x20\n      add\n      0x0\n      keccak256\n        /* \"Users/leilei/Downloads/MasterChefV2/contracts/LinkToken.sol\":6814:6843  allowed[msg.sender][_spender] */\n      0x0\n        /* \"Users/leilei/Downloads/MasterChefV2/contracts/LinkToken.sol\":6834:6842  _spender */\n      dup9\n        /* \"Users/leilei/Downloads/MasterChefV2/contracts/LinkToken.sol\":6814:6843  allowed[msg.sender][_spender] */\n      0xffffffffffffffffffffffffffffffffffffffff\n      and\n      0xffffffffffffffffffffffffffffffffffffffff\n      and\n      dup2\n      mstore\n      0x20\n      add\n      swap1\n      dup2\n      mstore\n      0x20\n      add\n      0x0\n      keccak256\n      sload\n        /* \"Users/leilei/Downloads/MasterChefV2/contracts/LinkToken.sol\":6783:6844  Approval(msg.sender, _spender, allowed[msg.sender][_spender]) */\n      mload(0x40)\n      dup1\n      dup3\n      dup2\n      mstore\n      0x20\n      add\n      swap2\n      pop\n      pop\n      mload(0x40)\n      dup1\n      swap2\n      sub\n      swap1\n      log3\n        /* \"Users/leilei/Downloads/MasterChefV2/contracts/LinkToken.sol\":6857:6861  true */\n      0x1\n        /* \"Users/leilei/Downloads/MasterChefV2/contracts/LinkToken.sol\":6850:6861  return true */\n      swap2\n      pop\n        /* \"Users/leilei/Downloads/MasterChefV2/contracts/LinkToken.sol\":6461:6866  function decreaseApproval (address _spender, uint _subtractedValue) ... */\n      pop\n      swap3\n      swap2\n      pop\n      pop\n      jump\t// out\n        /* \"Users/leilei/Downloads/MasterChefV2/contracts/LinkToken.sol\":3826:3930  function balanceOf(address _owner) constant returns (uint256 balance) {... */\n    tag_41:\n        /* \"Users/leilei/Downloads/MasterChefV2/contracts/LinkToken.sol\":3879:3894  uint256 balance */\n      0x0\n        /* \"Users/leilei/Downloads/MasterChefV2/contracts/LinkToken.sol\":3909:3917  balances */\n      0x1\n        /* \"Users/leilei/Downloads/MasterChefV2/contracts/LinkToken.sol\":3909:3925  balances[_owner] */\n      0x0\n        /* \"Users/leilei/Downloads/MasterChefV2/contracts/LinkToken.sol\":3918:3924  _owner */\n      dup4\n        /* \"Users/leilei/Downloads/MasterChefV2/contracts/LinkToken.sol\":3909:3925  balances[_owner] */\n      0xffffffffffffffffffffffffffffffffffffffff\n      and\n      0xffffffffffffffffffffffffffffffffffffffff\n      and\n      dup2\n      mstore\n      0x20\n      add\n      swap1\n      dup2\n      mstore\n      0x20\n      add\n      0x0\n      keccak256\n      sload\n        /* \"Users/leilei/Downloads/MasterChefV2/contracts/LinkToken.sol\":3902:3925  return balances[_owner] */\n      swap1\n      pop\n        /* \"Users/leilei/Downloads/MasterChefV2/contracts/LinkToken.sol\":3826:3930  function balanceOf(address _owner) constant returns (uint256 balance) {... */\n      swap2\n      swap1\n      pop\n      jump\t// out\n        /* \"Users/leilei/Downloads/MasterChefV2/contracts/LinkToken.sol\":7066:7104  string public constant symbol = 'LINK' */\n    tag_44:\n      0x40\n      dup1\n      mload\n      swap1\n      dup2\n      add\n      0x40\n      mstore\n      dup1\n      0x4\n      dup2\n      mstore\n      0x20\n      add\n      0x4c494e4b00000000000000000000000000000000000000000000000000000000\n      dup2\n      mstore\n      pop\n      dup2\n      jump\t// out\n        /* \"Users/leilei/Downloads/MasterChefV2/contracts/LinkToken.sol\":7807:7960  function transfer(address _to, uint _value)... */\n    tag_51:\n        /* \"Users/leilei/Downloads/MasterChefV2/contracts/LinkToken.sol\":7899:7911  bool success */\n      0x0\n        /* \"Users/leilei/Downloads/MasterChefV2/contracts/LinkToken.sol\":7881:7884  _to */\n      dup3\n        /* \"Users/leilei/Downloads/MasterChefV2/contracts/LinkToken.sol\":8908:8909  0 */\n      0x0\n        /* \"Users/leilei/Downloads/MasterChefV2/contracts/LinkToken.sol\":8886:8910  _recipient != address(0) */\n      0xffffffffffffffffffffffffffffffffffffffff\n      and\n        /* \"Users/leilei/Downloads/MasterChefV2/contracts/LinkToken.sol\":8886:8896  _recipient */\n      dup2\n        /* \"Users/leilei/Downloads/MasterChefV2/contracts/LinkToken.sol\":8886:8910  _recipient != address(0) */\n      0xffffffffffffffffffffffffffffffffffffffff\n      and\n      eq\n      iszero\n        /* \"Users/leilei/Downloads/MasterChefV2/contracts/LinkToken.sol\":8886:8941  _recipient != address(0) && _recipient != address(this) */\n      dup1\n      iszero\n      tag_83\n      jumpi\n      pop\n        /* \"Users/leilei/Downloads/MasterChefV2/contracts/LinkToken.sol\":8936:8940  this */\n      address\n        /* \"Users/leilei/Downloads/MasterChefV2/contracts/LinkToken.sol\":8914:8941  _recipient != address(this) */\n      0xffffffffffffffffffffffffffffffffffffffff\n      and\n        /* \"Users/leilei/Downloads/MasterChefV2/contracts/LinkToken.sol\":8914:8924  _recipient */\n      dup2\n        /* \"Users/leilei/Downloads/MasterChefV2/contracts/LinkToken.sol\":8914:8941  _recipient != address(this) */\n      0xffffffffffffffffffffffffffffffffffffffff\n      and\n      eq\n      iszero\n        /* \"Users/leilei/Downloads/MasterChefV2/contracts/LinkToken.sol\":8886:8941  _recipient != address(0) && _recipient != address(this) */\n    tag_83:\n        /* \"Users/leilei/Downloads/MasterChefV2/contracts/LinkToken.sol\":8878:8942  require(_recipient != address(0) && _recipient != address(this)) */\n      iszero\n      iszero\n      tag_84\n      jumpi\n      0x0\n      dup1\n      revert\n    tag_84:\n        /* \"Users/leilei/Downloads/MasterChefV2/contracts/LinkToken.sol\":7928:7955  super.transfer(_to, _value) */\n      tag_86\n        /* \"Users/leilei/Downloads/MasterChefV2/contracts/LinkToken.sol\":7943:7946  _to */\n      dup5\n        /* \"Users/leilei/Downloads/MasterChefV2/contracts/LinkToken.sol\":7948:7954  _value */\n      dup5\n        /* \"Users/leilei/Downloads/MasterChefV2/contracts/LinkToken.sol\":7928:7942  super.transfer */\n      tag_87\n        /* \"Users/leilei/Downloads/MasterChefV2/contracts/LinkToken.sol\":7928:7955  super.transfer(_to, _value) */\n      jump\t// in\n    tag_86:\n        /* \"Users/leilei/Downloads/MasterChefV2/contracts/LinkToken.sol\":7921:7955  return super.transfer(_to, _value) */\n      swap2\n      pop\n        /* \"Users/leilei/Downloads/MasterChefV2/contracts/LinkToken.sol\":7807:7960  function transfer(address _to, uint _value)... */\n      pop\n      swap3\n      swap2\n      pop\n      pop\n      jump\t// out\n        /* \"Users/leilei/Downloads/MasterChefV2/contracts/LinkToken.sol\":6193:6457  function increaseApproval (address _spender, uint _addedValue) ... */\n    tag_54:\n        /* \"Users/leilei/Downloads/MasterChefV2/contracts/LinkToken.sol\":6270:6282  bool success */\n      0x0\n        /* \"Users/leilei/Downloads/MasterChefV2/contracts/LinkToken.sol\":6322:6368  allowed[msg.sender][_spender].add(_addedValue) */\n      tag_89\n        /* \"Users/leilei/Downloads/MasterChefV2/contracts/LinkToken.sol\":6356:6367  _addedValue */\n      dup3\n        /* \"Users/leilei/Downloads/MasterChefV2/contracts/LinkToken.sol\":6322:6329  allowed */\n      0x2\n        /* \"Users/leilei/Downloads/MasterChefV2/contracts/LinkToken.sol\":6322:6341  allowed[msg.sender] */\n      0x0\n        /* \"Users/leilei/Downloads/MasterChefV2/contracts/LinkToken.sol\":6330:6340  msg.sender */\n      caller\n        /* \"Users/leilei/Downloads/MasterChefV2/contracts/LinkToken.sol\":6322:6341  allowed[msg.sender] */\n      0xffffffffffffffffffffffffffffffffffffffff\n      and\n      0xffffffffffffffffffffffffffffffffffffffff\n      and\n      dup2\n      mstore\n      0x20\n      add\n      swap1\n      dup2\n      mstore\n      0x20\n      add\n      0x0\n      keccak256\n        /* \"Users/leilei/Downloads/MasterChefV2/contracts/LinkToken.sol\":6322:6351  allowed[msg.sender][_spender] */\n      0x0\n        /* \"Users/leilei/Downloads/MasterChefV2/contracts/LinkToken.sol\":6342:6350  _spender */\n      dup7\n        /* \"Users/leilei/Downloads/MasterChefV2/contracts/LinkToken.sol\":6322:6351  allowed[msg.sender][_spender] */\n      0xffffffffffffffffffffffffffffffffffffffff\n      and\n      0xffffffffffffffffffffffffffffffffffffffff\n      and\n      dup2\n      mstore\n      0x20\n      add\n      swap1\n      dup2\n      mstore\n      0x20\n      add\n      0x0\n      keccak256\n      sload\n        /* \"Users/leilei/Downloads/MasterChefV2/contracts/LinkToken.sol\":6322:6355  allowed[msg.sender][_spender].add */\n      tag_90\n      swap1\n        /* \"Users/leilei/Downloads/MasterChefV2/contracts/LinkToken.sol\":6322:6368  allowed[msg.sender][_spender].add(_addedValue) */\n      swap2\n      swap1\n      0xffffffff\n      and\n      jump\t// in\n    tag_89:\n        /* \"Users/leilei/Downloads/MasterChefV2/contracts/LinkToken.sol\":6290:6297  allowed */\n      0x2\n        /* \"Users/leilei/Downloads/MasterChefV2/contracts/LinkToken.sol\":6290:6309  allowed[msg.sender] */\n      0x0\n        /* \"Users/leilei/Downloads/MasterChefV2/contracts/LinkToken.sol\":6298:6308  msg.sender */\n      caller\n        /* \"Users/leilei/Downloads/MasterChefV2/contracts/LinkToken.sol\":6290:6309  allowed[msg.sender] */\n      0xffffffffffffffffffffffffffffffffffffffff\n      and\n      0xffffffffffffffffffffffffffffffffffffffff\n      and\n      dup2\n      mstore\n      0x20\n      add\n      swap1\n      dup2\n      mstore\n      0x20\n      add\n      0x0\n      keccak256\n        /* \"Users/leilei/Downloads/MasterChefV2/contracts/LinkToken.sol\":6290:6319  allowed[msg.sender][_spender] */\n      0x0\n        /* \"Users/leilei/Downloads/MasterChefV2/contracts/LinkToken.sol\":6310:6318  _spender */\n      dup6\n        /* \"Users/leilei/Downloads/MasterChefV2/contracts/LinkToken.sol\":6290:6319  allowed[msg.sender][_spender] */\n      0xffffffffffffffffffffffffffffffffffffffff\n      and\n      0xffffffffffffffffffffffffffffffffffffffff\n      and\n      dup2\n      mstore\n      0x20\n      add\n      swap1\n      dup2\n      mstore\n      0x20\n      add\n      0x0\n      keccak256\n        /* \"Users/leilei/Downloads/MasterChefV2/contracts/LinkToken.sol\":6290:6368  allowed[msg.sender][_spender] = allowed[msg.sender][_spender].add(_addedValue) */\n      dup2\n      swap1\n      sstore\n      pop\n        /* \"Users/leilei/Downloads/MasterChefV2/contracts/LinkToken.sol\":6395:6403  _spender */\n      dup3\n        /* \"Users/leilei/Downloads/MasterChefV2/contracts/LinkToken.sol\":6374:6435  Approval(msg.sender, _spender, allowed[msg.sender][_spender]) */\n      0xffffffffffffffffffffffffffffffffffffffff\n      and\n        /* \"Users/leilei/Downloads/MasterChefV2/contracts/LinkToken.sol\":6383:6393  msg.sender */\n      caller\n        /* \"Users/leilei/Downloads/MasterChefV2/contracts/LinkToken.sol\":6374:6435  Approval(msg.sender, _spender, allowed[msg.sender][_spender]) */\n      0xffffffffffffffffffffffffffffffffffffffff\n      and\n      0x8c5be1e5ebec7d5bd14f71427d1e84f3dd0314c0f7b2291e5b200ac8c7c3b925\n        /* \"Users/leilei/Downloads/MasterChefV2/contracts/LinkToken.sol\":6405:6412  allowed */\n      0x2\n        /* \"Users/leilei/Downloads/MasterChefV2/contracts/LinkToken.sol\":6405:6424  allowed[msg.sender] */\n      0x0\n        /* \"Users/leilei/Downloads/MasterChefV2/contracts/LinkToken.sol\":6413:6423  msg.sender */\n      caller\n        /* \"Users/leilei/Downloads/MasterChefV2/contracts/LinkToken.sol\":6405:6424  allowed[msg.sender] */\n      0xffffffffffffffffffffffffffffffffffffffff\n      and\n      0xffffffffffffffffffffffffffffffffffffffff\n      and\n      dup2\n      mstore\n      0x20\n      add\n      swap1\n      dup2\n      mstore\n      0x20\n      add\n      0x0\n      keccak256\n        /* \"Users/leilei/Downloads/MasterChefV2/contracts/LinkToken.sol\":6405:6434  allowed[msg.sender][_spender] */\n      0x0\n        /* \"Users/leilei/Downloads/MasterChefV2/contracts/LinkToken.sol\":6425:6433  _spender */\n      dup8\n        /* \"Users/leilei/Downloads/MasterChefV2/contracts/LinkToken.sol\":6405:6434  allowed[msg.sender][_spender] */\n      0xffffffffffffffffffffffffffffffffffffffff\n      and\n      0xffffffffffffffffffffffffffffffffffffffff\n      and\n      dup2\n      mstore\n      0x20\n      add\n      swap1\n      dup2\n      mstore\n      0x20\n      add\n      0x0\n      keccak256\n      sload\n        /* \"Users/leilei/Downloads/MasterChefV2/contracts/LinkToken.sol\":6374:6435  Approval(msg.sender, _spender, allowed[msg.sender][_spender]) */\n      mload(0x40)\n      dup1\n      dup3\n      dup2\n      mstore\n      0x20\n      add\n      swap2\n      pop\n      pop\n      mload(0x40)\n      dup1\n      swap2\n      sub\n      swap1\n      log3\n        /* \"Users/leilei/Downloads/MasterChefV2/contracts/LinkToken.sol\":6448:6452  true */\n      0x1\n        /* \"Users/leilei/Downloads/MasterChefV2/contracts/LinkToken.sol\":6441:6452  return true */\n      swap1\n      pop\n        /* \"Users/leilei/Downloads/MasterChefV2/contracts/LinkToken.sol\":6193:6457  function increaseApproval (address _spender, uint _addedValue) ... */\n      swap3\n      swap2\n      pop\n      pop\n      jump\t// out\n        /* \"Users/leilei/Downloads/MasterChefV2/contracts/LinkToken.sol\":5816:5949  function allowance(address _owner, address _spender) constant returns (uint256 remaining) {... */\n    tag_57:\n        /* \"Users/leilei/Downloads/MasterChefV2/contracts/LinkToken.sol\":5887:5904  uint256 remaining */\n      0x0\n        /* \"Users/leilei/Downloads/MasterChefV2/contracts/LinkToken.sol\":5919:5926  allowed */\n      0x2\n        /* \"Users/leilei/Downloads/MasterChefV2/contracts/LinkToken.sol\":5919:5934  allowed[_owner] */\n      0x0\n        /* \"Users/leilei/Downloads/MasterChefV2/contracts/LinkToken.sol\":5927:5933  _owner */\n      dup5\n        /* \"Users/leilei/Downloads/MasterChefV2/contracts/LinkToken.sol\":5919:5934  allowed[_owner] */\n      0xffffffffffffffffffffffffffffffffffffffff\n      and\n      0xffffffffffffffffffffffffffffffffffffffff\n      and\n      dup2\n      mstore\n      0x20\n      add\n      swap1\n      dup2\n      mstore\n      0x20\n      add\n      0x0\n      keccak256\n        /* \"Users/leilei/Downloads/MasterChefV2/contracts/LinkToken.sol\":5919:5944  allowed[_owner][_spender] */\n      0x0\n        /* \"Users/leilei/Downloads/MasterChefV2/contracts/LinkToken.sol\":5935:5943  _spender */\n      dup4\n        /* \"Users/leilei/Downloads/MasterChefV2/contracts/LinkToken.sol\":5919:5944  allowed[_owner][_spender] */\n      0xffffffffffffffffffffffffffffffffffffffff\n      and\n      0xffffffffffffffffffffffffffffffffffffffff\n      and\n      dup2\n      mstore\n      0x20\n      add\n      swap1\n      dup2\n      mstore\n      0x20\n      add\n      0x0\n      keccak256\n      sload\n        /* \"Users/leilei/Downloads/MasterChefV2/contracts/LinkToken.sol\":5912:5944  return allowed[_owner][_spender] */\n      swap1\n      pop\n        /* \"Users/leilei/Downloads/MasterChefV2/contracts/LinkToken.sol\":5816:5949  function allowance(address _owner, address _spender) constant returns (uint256 remaining) {... */\n      swap3\n      swap2\n      pop\n      pop\n      jump\t// out\n        /* \"Users/leilei/Downloads/MasterChefV2/contracts/LinkToken.sol\":5321:5497  function approve(address _spender, uint256 _value) returns (bool) {... */\n    tag_63:\n        /* \"Users/leilei/Downloads/MasterChefV2/contracts/LinkToken.sol\":5381:5385  bool */\n      0x0\n        /* \"Users/leilei/Downloads/MasterChefV2/contracts/LinkToken.sol\":5425:5431  _value */\n      dup2\n        /* \"Users/leilei/Downloads/MasterChefV2/contracts/LinkToken.sol\":5393:5400  allowed */\n      0x2\n        /* \"Users/leilei/Downloads/MasterChefV2/contracts/LinkToken.sol\":5393:5412  allowed[msg.sender] */\n      0x0\n        /* \"Users/leilei/Downloads/MasterChefV2/contracts/LinkToken.sol\":5401:5411  msg.sender */\n      caller\n        /* \"Users/leilei/Downloads/MasterChefV2/contracts/LinkToken.sol\":5393:5412  allowed[msg.sender] */\n      0xffffffffffffffffffffffffffffffffffffffff\n      and\n      0xffffffffffffffffffffffffffffffffffffffff\n      and\n      dup2\n      mstore\n      0x20\n      add\n      swap1\n      dup2\n      mstore\n      0x20\n      add\n      0x0\n      keccak256\n        /* \"Users/leilei/Downloads/MasterChefV2/contracts/LinkToken.sol\":5393:5422  allowed[msg.sender][_spender] */\n      0x0\n        /* \"Users/leilei/Downloads/MasterChefV2/contracts/LinkToken.sol\":5413:5421  _spender */\n      dup6\n        /* \"Users/leilei/Downloads/MasterChefV2/contracts/LinkToken.sol\":5393:5422  allowed[msg.sender][_spender] */\n      0xffffffffffffffffffffffffffffffffffffffff\n      and\n      0xffffffffffffffffffffffffffffffffffffffff\n      and\n      dup2\n      mstore\n      0x20\n      add\n      swap1\n      dup2\n      mstore\n      0x20\n      add\n      0x0\n      keccak256\n        /* \"Users/leilei/Downloads/MasterChefV2/contracts/LinkToken.sol\":5393:5431  allowed[msg.sender][_spender] = _value */\n      dup2\n      swap1\n      sstore\n      pop\n        /* \"Users/leilei/Downloads/MasterChefV2/contracts/LinkToken.sol\":5458:5466  _spender */\n      dup3\n        /* \"Users/leilei/Downloads/MasterChefV2/contracts/LinkToken.sol\":5437:5475  Approval(msg.sender, _spender, _value) */\n      0xffffffffffffffffffffffffffffffffffffffff\n      and\n        /* \"Users/leilei/Downloads/MasterChefV2/contracts/LinkToken.sol\":5446:5456  msg.sender */\n      caller\n        /* \"Users/leilei/Downloads/MasterChefV2/contracts/LinkToken.sol\":5437:5475  Approval(msg.sender, _spender, _value) */\n      0xffffffffffffffffffffffffffffffffffffffff\n      and\n      0x8c5be1e5ebec7d5bd14f71427d1e84f3dd0314c0f7b2291e5b200ac8c7c3b925\n        /* \"Users/leilei/Downloads/MasterChefV2/contracts/LinkToken.sol\":5468:5474  _value */\n      dup5\n        /* \"Users/leilei/Downloads/MasterChefV2/contracts/LinkToken.sol\":5437:5475  Approval(msg.sender, _spender, _value) */\n      mload(0x40)\n      dup1\n      dup3\n      dup2\n      mstore\n      0x20\n      add\n      swap2\n      pop\n      pop\n      mload(0x40)\n      dup1\n      swap2\n      sub\n      swap1\n      log3\n        /* \"Users/leilei/Downloads/MasterChefV2/contracts/LinkToken.sol\":5488:5492  true */\n      0x1\n        /* \"Users/leilei/Downloads/MasterChefV2/contracts/LinkToken.sol\":5481:5492  return true */\n      swap1\n      pop\n        /* \"Users/leilei/Downloads/MasterChefV2/contracts/LinkToken.sol\":5321:5497  function approve(address _spender, uint256 _value) returns (bool) {... */\n      swap3\n      swap2\n      pop\n      pop\n      jump\t// out\n        /* \"Users/leilei/Downloads/MasterChefV2/contracts/LinkToken.sol\":4600:5089  function transferFrom(address _from, address _to, uint256 _value) returns (bool) {... */\n    tag_69:\n        /* \"Users/leilei/Downloads/MasterChefV2/contracts/LinkToken.sol\":4675:4679  bool */\n      0x0\n        /* \"Users/leilei/Downloads/MasterChefV2/contracts/LinkToken.sol\":4687:4701  var _allowance */\n      dup1\n        /* \"Users/leilei/Downloads/MasterChefV2/contracts/LinkToken.sol\":4704:4711  allowed */\n      0x2\n        /* \"Users/leilei/Downloads/MasterChefV2/contracts/LinkToken.sol\":4704:4718  allowed[_from] */\n      0x0\n        /* \"Users/leilei/Downloads/MasterChefV2/contracts/LinkToken.sol\":4712:4717  _from */\n      dup7\n        /* \"Users/leilei/Downloads/MasterChefV2/contracts/LinkToken.sol\":4704:4718  allowed[_from] */\n      0xffffffffffffffffffffffffffffffffffffffff\n      and\n      0xffffffffffffffffffffffffffffffffffffffff\n      and\n      dup2\n      mstore\n      0x20\n      add\n      swap1\n      dup2\n      mstore\n      0x20\n      add\n      0x0\n      keccak256\n        /* \"Users/leilei/Downloads/MasterChefV2/contracts/LinkToken.sol\":4704:4730  allowed[_from][msg.sender] */\n      0x0\n        /* \"Users/leilei/Downloads/MasterChefV2/contracts/LinkToken.sol\":4719:4729  msg.sender */\n      caller\n        /* \"Users/leilei/Downloads/MasterChefV2/contracts/LinkToken.sol\":4704:4730  allowed[_from][msg.sender] */\n      0xffffffffffffffffffffffffffffffffffffffff\n      and\n      0xffffffffffffffffffffffffffffffffffffffff\n      and\n      dup2\n      mstore\n      0x20\n      add\n      swap1\n      dup2\n      mstore\n      0x20\n      add\n      0x0\n      keccak256\n      sload\n        /* \"Users/leilei/Downloads/MasterChefV2/contracts/LinkToken.sol\":4687:4730  var _allowance = allowed[_from][msg.sender] */\n      swap1\n      pop\n        /* \"Users/leilei/Downloads/MasterChefV2/contracts/LinkToken.sol\":4902:4929  balances[_from].sub(_value) */\n      tag_94\n        /* \"Users/leilei/Downloads/MasterChefV2/contracts/LinkToken.sol\":4922:4928  _value */\n      dup4\n        /* \"Users/leilei/Downloads/MasterChefV2/contracts/LinkToken.sol\":4902:4910  balances */\n      0x1\n        /* \"Users/leilei/Downloads/MasterChefV2/contracts/LinkToken.sol\":4902:4917  balances[_from] */\n      0x0\n        /* \"Users/leilei/Downloads/MasterChefV2/contracts/LinkToken.sol\":4911:4916  _from */\n      dup9\n        /* \"Users/leilei/Downloads/MasterChefV2/contracts/LinkToken.sol\":4902:4917  balances[_from] */\n      0xffffffffffffffffffffffffffffffffffffffff\n      and\n      0xffffffffffffffffffffffffffffffffffffffff\n      and\n      dup2\n      mstore\n      0x20\n      add\n      swap1\n      dup2\n      mstore\n      0x20\n      add\n      0x0\n      keccak256\n      sload\n        /* \"Users/leilei/Downloads/MasterChefV2/contracts/LinkToken.sol\":4902:4921  balances[_from].sub */\n      tag_80\n      swap1\n        /* \"Users/leilei/Downloads/MasterChefV2/contracts/LinkToken.sol\":4902:4929  balances[_from].sub(_value) */\n      swap2\n      swap1\n      0xffffffff\n      and\n      jump\t// in\n    tag_94:\n        /* \"Users/leilei/Downloads/MasterChefV2/contracts/LinkToken.sol\":4884:4892  balances */\n      0x1\n        /* \"Users/leilei/Downloads/MasterChefV2/contracts/LinkToken.sol\":4884:4899  balances[_from] */\n      0x0\n        /* \"Users/leilei/Downloads/MasterChefV2/contracts/LinkToken.sol\":4893:4898  _from */\n      dup8\n        /* \"Users/leilei/Downloads/MasterChefV2/contracts/LinkToken.sol\":4884:4899  balances[_from] */\n      0xffffffffffffffffffffffffffffffffffffffff\n      and\n      0xffffffffffffffffffffffffffffffffffffffff\n      and\n      dup2\n      mstore\n      0x20\n      add\n      swap1\n      dup2\n      mstore\n      0x20\n      add\n      0x0\n      keccak256\n        /* \"Users/leilei/Downloads/MasterChefV2/contracts/LinkToken.sol\":4884:4929  balances[_from] = balances[_from].sub(_value) */\n      dup2\n      swap1\n      sstore\n      pop\n        /* \"Users/leilei/Downloads/MasterChefV2/contracts/LinkToken.sol\":4951:4976  balances[_to].add(_value) */\n      tag_95\n        /* \"Users/leilei/Downloads/MasterChefV2/contracts/LinkToken.sol\":4969:4975  _value */\n      dup4\n        /* \"Users/leilei/Downloads/MasterChefV2/contracts/LinkToken.sol\":4951:4959  balances */\n      0x1\n        /* \"Users/leilei/Downloads/MasterChefV2/contracts/LinkToken.sol\":4951:4964  balances[_to] */\n      0x0\n        /* \"Users/leilei/Downloads/MasterChefV2/contracts/LinkToken.sol\":4960:4963  _to */\n      dup8\n        /* \"Users/leilei/Downloads/MasterChefV2/contracts/LinkToken.sol\":4951:4964  balances[_to] */\n      0xffffffffffffffffffffffffffffffffffffffff\n      and\n      0xffffffffffffffffffffffffffffffffffffffff\n      and\n      dup2\n      mstore\n      0x20\n      add\n      swap1\n      dup2\n      mstore\n      0x20\n      add\n      0x0\n      keccak256\n      sload\n        /* \"Users/leilei/Downloads/MasterChefV2/contracts/LinkToken.sol\":4951:4968  balances[_to].add */\n      tag_90\n      swap1\n        /* \"Users/leilei/Downloads/MasterChefV2/contracts/LinkToken.sol\":4951:4976  balances[_to].add(_value) */\n      swap2\n      swap1\n      0xffffffff\n      and\n      jump\t// in\n    tag_95:\n        /* \"Users/leilei/Downloads/MasterChefV2/contracts/LinkToken.sol\":4935:4943  balances */\n      0x1\n        /* \"Users/leilei/Downloads/MasterChefV2/contracts/LinkToken.sol\":4935:4948  balances[_to] */\n      0x0\n        /* \"Users/leilei/Downloads/MasterChefV2/contracts/LinkToken.sol\":4944:4947  _to */\n      dup7\n        /* \"Users/leilei/Downloads/MasterChefV2/contracts/LinkToken.sol\":4935:4948  balances[_to] */\n      0xffffffffffffffffffffffffffffffffffffffff\n      and\n      0xffffffffffffffffffffffffffffffffffffffff\n      and\n      dup2\n      mstore\n      0x20\n      add\n      swap1\n      dup2\n      mstore\n      0x20\n      add\n      0x0\n      keccak256\n        /* \"Users/leilei/Downloads/MasterChefV2/contracts/LinkToken.sol\":4935:4976  balances[_to] = balances[_to].add(_value) */\n      dup2\n      swap1\n      sstore\n      pop\n        /* \"Users/leilei/Downloads/MasterChefV2/contracts/LinkToken.sol\":5011:5033  _allowance.sub(_value) */\n      tag_96\n        /* \"Users/leilei/Downloads/MasterChefV2/contracts/LinkToken.sol\":5026:5032  _value */\n      dup4\n        /* \"Users/leilei/Downloads/MasterChefV2/contracts/LinkToken.sol\":5011:5021  _allowance */\n      dup3\n        /* \"Users/leilei/Downloads/MasterChefV2/contracts/LinkToken.sol\":5011:5025  _allowance.sub */\n      tag_80\n      swap1\n        /* \"Users/leilei/Downloads/MasterChefV2/contracts/LinkToken.sol\":5011:5033  _allowance.sub(_value) */\n      swap2\n      swap1\n      0xffffffff\n      and\n      jump\t// in\n    tag_96:\n        /* \"Users/leilei/Downloads/MasterChefV2/contracts/LinkToken.sol\":4982:4989  allowed */\n      0x2\n        /* \"Users/leilei/Downloads/MasterChefV2/contracts/LinkToken.sol\":4982:4996  allowed[_from] */\n      0x0\n        /* \"Users/leilei/Downloads/MasterChefV2/contracts/LinkToken.sol\":4990:4995  _from */\n      dup8\n        /* \"Users/leilei/Downloads/MasterChefV2/contracts/LinkToken.sol\":4982:4996  allowed[_from] */\n      0xffffffffffffffffffffffffffffffffffffffff\n      and\n      0xffffffffffffffffffffffffffffffffffffffff\n      and\n      dup2\n      mstore\n      0x20\n      add\n      swap1\n      dup2\n      mstore\n      0x20\n      add\n      0x0\n      keccak256\n        /* \"Users/leilei/Downloads/MasterChefV2/contracts/LinkToken.sol\":4982:5008  allowed[_from][msg.sender] */\n      0x0\n        /* \"Users/leilei/Downloads/MasterChefV2/contracts/LinkToken.sol\":4997:5007  msg.sender */\n      caller\n        /* \"Users/leilei/Downloads/MasterChefV2/contracts/LinkToken.sol\":4982:5008  allowed[_from][msg.sender] */\n      0xffffffffffffffffffffffffffffffffffffffff\n      and\n      0xffffffffffffffffffffffffffffffffffffffff\n      and\n      dup2\n      mstore\n      0x20\n      add\n      swap1\n      dup2\n      mstore\n      0x20\n      add\n      0x0\n      keccak256\n        /* \"Users/leilei/Downloads/MasterChefV2/contracts/LinkToken.sol\":4982:5033  allowed[_from][msg.sender] = _allowance.sub(_value) */\n      dup2\n      swap1\n      sstore\n      pop\n        /* \"Users/leilei/Downloads/MasterChefV2/contracts/LinkToken.sol\":5055:5058  _to */\n      dup4\n        /* \"Users/leilei/Downloads/MasterChefV2/contracts/LinkToken.sol\":5039:5067  Transfer(_from, _to, _value) */\n      0xffffffffffffffffffffffffffffffffffffffff\n      and\n        /* \"Users/leilei/Downloads/MasterChefV2/contracts/LinkToken.sol\":5048:5053  _from */\n      dup6\n        /* \"Users/leilei/Downloads/MasterChefV2/contracts/LinkToken.sol\":5039:5067  Transfer(_from, _to, _value) */\n      0xffffffffffffffffffffffffffffffffffffffff\n      and\n      0xddf252ad1be2c89b69c2b068fc378daa952ba7f163c4a11628f55a4df523b3ef\n        /* \"Users/leilei/Downloads/MasterChefV2/contracts/LinkToken.sol\":5060:5066  _value */\n      dup6\n        /* \"Users/leilei/Downloads/MasterChefV2/contracts/LinkToken.sol\":5039:5067  Transfer(_from, _to, _value) */\n      mload(0x40)\n      dup1\n      dup3\n      dup2\n      mstore\n      0x20\n      add\n      swap2\n      pop\n      pop\n      mload(0x40)\n      dup1\n      swap2\n      sub\n      swap1\n      log3\n        /* \"Users/leilei/Downloads/MasterChefV2/contracts/LinkToken.sol\":5080:5084  true */\n      0x1\n        /* \"Users/leilei/Downloads/MasterChefV2/contracts/LinkToken.sol\":5073:5084  return true */\n      swap2\n      pop\n        /* \"Users/leilei/Downloads/MasterChefV2/contracts/LinkToken.sol\":4600:5089  function transferFrom(address _from, address _to, uint256 _value) returns (bool) {... */\n      pop\n      swap4\n      swap3\n      pop\n      pop\n      pop\n      jump\t// out\n        /* \"Users/leilei/Downloads/MasterChefV2/contracts/LinkToken.sol\":1554:1836  function transferAndCall(address _to, uint _value, bytes _data)... */\n    tag_75:\n        /* \"Users/leilei/Downloads/MasterChefV2/contracts/LinkToken.sol\":1642:1654  bool success */\n      0x0\n        /* \"Users/leilei/Downloads/MasterChefV2/contracts/LinkToken.sol\":1664:1691  super.transfer(_to, _value) */\n      tag_98\n        /* \"Users/leilei/Downloads/MasterChefV2/contracts/LinkToken.sol\":1679:1682  _to */\n      dup5\n        /* \"Users/leilei/Downloads/MasterChefV2/contracts/LinkToken.sol\":1684:1690  _value */\n      dup5\n        /* \"Users/leilei/Downloads/MasterChefV2/contracts/LinkToken.sol\":1664:1678  super.transfer */\n      tag_87\n        /* \"Users/leilei/Downloads/MasterChefV2/contracts/LinkToken.sol\":1664:1691  super.transfer(_to, _value) */\n      jump\t// in\n    tag_98:\n      pop\n        /* \"Users/leilei/Downloads/MasterChefV2/contracts/LinkToken.sol\":1718:1721  _to */\n      dup4\n        /* \"Users/leilei/Downloads/MasterChefV2/contracts/LinkToken.sol\":1697:1737  Transfer(msg.sender, _to, _value, _data) */\n      0xffffffffffffffffffffffffffffffffffffffff\n      and\n        /* \"Users/leilei/Downloads/MasterChefV2/contracts/LinkToken.sol\":1706:1716  msg.sender */\n      caller\n        /* \"Users/leilei/Downloads/MasterChefV2/contracts/LinkToken.sol\":1697:1737  Transfer(msg.sender, _to, _value, _data) */\n      0xffffffffffffffffffffffffffffffffffffffff\n      and\n      0xe19260aff97b920c7df27010903aeb9c8d2be5d310a2c67824cf3f15396e4c16\n        /* \"Users/leilei/Downloads/MasterChefV2/contracts/LinkToken.sol\":1723:1729  _value */\n      dup6\n        /* \"Users/leilei/Downloads/MasterChefV2/contracts/LinkToken.sol\":1731:1736  _data */\n      dup6\n        /* \"Users/leilei/Downloads/MasterChefV2/contracts/LinkToken.sol\":1697:1737  Transfer(msg.sender, _to, _value, _data) */\n      mload(0x40)\n      dup1\n      dup4\n      dup2\n      mstore\n      0x20\n      add\n      dup1\n      0x20\n      add\n      dup3\n      dup2\n      sub\n      dup3\n      mstore\n      dup4\n      dup2\n      dup2\n      mload\n      dup2\n      mstore\n      0x20\n      add\n      swap2\n      pop\n      dup1\n      mload\n      swap1\n      0x20\n      add\n      swap1\n      dup1\n      dup4\n      dup4\n        /* \"--CODEGEN--\":23:24   */\n      0x0\n        /* \"--CODEGEN--\":8:108   */\n    tag_99:\n        /* \"--CODEGEN--\":33:36   */\n      dup4\n        /* \"--CODEGEN--\":30:31   */\n      dup2\n        /* \"--CODEGEN--\":27:37   */\n      lt\n        /* \"--CODEGEN--\":8:108   */\n      iszero\n      tag_100\n      jumpi\n        /* \"--CODEGEN--\":99:100   */\n      dup1\n        /* \"--CODEGEN--\":94:97   */\n      dup3\n        /* \"--CODEGEN--\":90:101   */\n      add\n        /* \"--CODEGEN--\":84:102   */\n      mload\n        /* \"--CODEGEN--\":80:81   */\n      dup2\n        /* \"--CODEGEN--\":75:78   */\n      dup5\n        /* \"--CODEGEN--\":71:82   */\n      add\n        /* \"--CODEGEN--\":64:103   */\n      mstore\n        /* \"--CODEGEN--\":52:54   */\n      0x20\n        /* \"--CODEGEN--\":49:50   */\n      dup2\n        /* \"--CODEGEN--\":45:55   */\n      add\n        /* \"--CODEGEN--\":40:55   */\n      swap1\n      pop\n        /* \"--CODEGEN--\":8:108   */\n      jump(tag_99)\n    tag_100:\n        /* \"--CODEGEN--\":12:26   */\n      pop\n        /* \"Users/leilei/Downloads/MasterChefV2/contracts/LinkToken.sol\":1697:1737  Transfer(msg.sender, _to, _value, _data) */\n      pop\n      pop\n      pop\n      swap1\n      pop\n      swap1\n      dup2\n      add\n      swap1\n      0x1f\n      and\n      dup1\n      iszero\n      tag_102\n      jumpi\n      dup1\n      dup3\n      sub\n      dup1\n      mload\n      0x1\n      dup4\n      0x20\n      sub\n      0x100\n      exp\n      sub\n      not\n      and\n      dup2\n      mstore\n      0x20\n      add\n      swap2\n      pop\n    tag_102:\n      pop\n      swap4\n      pop\n      pop\n      pop\n      pop\n      mload(0x40)\n      dup1\n      swap2\n      sub\n      swap1\n      log3\n        /* \"Users/leilei/Downloads/MasterChefV2/contracts/LinkToken.sol\":1747:1762  isContract(_to) */\n      tag_103\n        /* \"Users/leilei/Downloads/MasterChefV2/contracts/LinkToken.sol\":1758:1761  _to */\n      dup5\n        /* \"Users/leilei/Downloads/MasterChefV2/contracts/LinkToken.sol\":1747:1757  isContract */\n      tag_104\n        /* \"Users/leilei/Downloads/MasterChefV2/contracts/LinkToken.sol\":1747:1762  isContract(_to) */\n      jump\t// in\n    tag_103:\n        /* \"Users/leilei/Downloads/MasterChefV2/contracts/LinkToken.sol\":1743:1815  if (isContract(_to)) {... */\n      iszero\n      tag_105\n      jumpi\n        /* \"Users/leilei/Downloads/MasterChefV2/contracts/LinkToken.sol\":1772:1808  contractFallback(_to, _value, _data) */\n      tag_106\n        /* \"Users/leilei/Downloads/MasterChefV2/contracts/LinkToken.sol\":1789:1792  _to */\n      dup5\n        /* \"Users/leilei/Downloads/MasterChefV2/contracts/LinkToken.sol\":1794:1800  _value */\n      dup5\n        /* \"Users/leilei/Downloads/MasterChefV2/contracts/LinkToken.sol\":1802:1807  _data */\n      dup5\n        /* \"Users/leilei/Downloads/MasterChefV2/contracts/LinkToken.sol\":1772:1788  contractFallback */\n      tag_107\n        /* \"Users/leilei/Downloads/MasterChefV2/contracts/LinkToken.sol\":1772:1808  contractFallback(_to, _value, _data) */\n      jump\t// in\n    tag_106:\n        /* \"Users/leilei/Downloads/MasterChefV2/contracts/LinkToken.sol\":1743:1815  if (isContract(_to)) {... */\n    tag_105:\n        /* \"Users/leilei/Downloads/MasterChefV2/contracts/LinkToken.sol\":1827:1831  true */\n      0x1\n        /* \"Users/leilei/Downloads/MasterChefV2/contracts/LinkToken.sol\":1820:1831  return true */\n      swap1\n      pop\n        /* \"Users/leilei/Downloads/MasterChefV2/contracts/LinkToken.sol\":1554:1836  function transferAndCall(address _to, uint _value, bytes _data)... */\n      swap4\n      swap3\n      pop\n      pop\n      pop\n      jump\t// out\n        /* \"Users/leilei/Downloads/MasterChefV2/contracts/LinkToken.sol\":2772:2886  function sub(uint256 a, uint256 b) internal constant returns (uint256) {... */\n    tag_80:\n        /* \"Users/leilei/Downloads/MasterChefV2/contracts/LinkToken.sol\":2834:2841  uint256 */\n      0x0\n        /* \"Users/leilei/Downloads/MasterChefV2/contracts/LinkToken.sol\":2861:2862  a */\n      dup3\n        /* \"Users/leilei/Downloads/MasterChefV2/contracts/LinkToken.sol\":2856:2857  b */\n      dup3\n        /* \"Users/leilei/Downloads/MasterChefV2/contracts/LinkToken.sol\":2856:2862  b <= a */\n      gt\n      iszero\n        /* \"Users/leilei/Downloads/MasterChefV2/contracts/LinkToken.sol\":2849:2863  assert(b <= a) */\n      iszero\n      iszero\n      tag_109\n      jumpi\n      invalid\n    tag_109:\n        /* \"Users/leilei/Downloads/MasterChefV2/contracts/LinkToken.sol\":2880:2881  b */\n      dup2\n        /* \"Users/leilei/Downloads/MasterChefV2/contracts/LinkToken.sol\":2876:2877  a */\n      dup4\n        /* \"Users/leilei/Downloads/MasterChefV2/contracts/LinkToken.sol\":2876:2881  a - b */\n      sub\n        /* \"Users/leilei/Downloads/MasterChefV2/contracts/LinkToken.sol\":2869:2881  return a - b */\n      swap1\n      pop\n        /* \"Users/leilei/Downloads/MasterChefV2/contracts/LinkToken.sol\":2772:2886  function sub(uint256 a, uint256 b) internal constant returns (uint256) {... */\n      swap3\n      swap2\n      pop\n      pop\n      jump\t// out\n        /* \"Users/leilei/Downloads/MasterChefV2/contracts/LinkToken.sol\":3392:3623  function transfer(address _to, uint256 _value) returns (bool) {... */\n    tag_87:\n        /* \"Users/leilei/Downloads/MasterChefV2/contracts/LinkToken.sol\":3448:3452  bool */\n      0x0\n        /* \"Users/leilei/Downloads/MasterChefV2/contracts/LinkToken.sol\":3483:3515  balances[msg.sender].sub(_value) */\n      tag_111\n        /* \"Users/leilei/Downloads/MasterChefV2/contracts/LinkToken.sol\":3508:3514  _value */\n      dup3\n        /* \"Users/leilei/Downloads/MasterChefV2/contracts/LinkToken.sol\":3483:3491  balances */\n      0x1\n        /* \"Users/leilei/Downloads/MasterChefV2/contracts/LinkToken.sol\":3483:3503  balances[msg.sender] */\n      0x0\n        /* \"Users/leilei/Downloads/MasterChefV2/contracts/LinkToken.sol\":3492:3502  msg.sender */\n      caller\n        /* \"Users/leilei/Downloads/MasterChefV2/contracts/LinkToken.sol\":3483:3503  balances[msg.sender] */\n      0xffffffffffffffffffffffffffffffffffffffff\n      and\n      0xffffffffffffffffffffffffffffffffffffffff\n      and\n      dup2\n      mstore\n      0x20\n      add\n      swap1\n      dup2\n      mstore\n      0x20\n      add\n      0x0\n      keccak256\n      sload\n        /* \"Users/leilei/Downloads/MasterChefV2/contracts/LinkToken.sol\":3483:3507  balances[msg.sender].sub */\n      tag_80\n      swap1\n        /* \"Users/leilei/Downloads/MasterChefV2/contracts/LinkToken.sol\":3483:3515  balances[msg.sender].sub(_value) */\n      swap2\n      swap1\n      0xffffffff\n      and\n      jump\t// in\n    tag_111:\n        /* \"Users/leilei/Downloads/MasterChefV2/contracts/LinkToken.sol\":3460:3468  balances */\n      0x1\n        /* \"Users/leilei/Downloads/MasterChefV2/contracts/LinkToken.sol\":3460:3480  balances[msg.sender] */\n      0x0\n        /* \"Users/leilei/Downloads/MasterChefV2/contracts/LinkToken.sol\":3469:3479  msg.sender */\n      caller\n        /* \"Users/leilei/Downloads/MasterChefV2/contracts/LinkToken.sol\":3460:3480  balances[msg.sender] */\n      0xffffffffffffffffffffffffffffffffffffffff\n      and\n      0xffffffffffffffffffffffffffffffffffffffff\n      and\n      dup2\n      mstore\n      0x20\n      add\n      swap1\n      dup2\n      mstore\n      0x20\n      add\n      0x0\n      keccak256\n        /* \"Users/leilei/Downloads/MasterChefV2/contracts/LinkToken.sol\":3460:3515  balances[msg.sender] = balances[msg.sender].sub(_value) */\n      dup2\n      swap1\n      sstore\n      pop\n        /* \"Users/leilei/Downloads/MasterChefV2/contracts/LinkToken.sol\":3537:3562  balances[_to].add(_value) */\n      tag_112\n        /* \"Users/leilei/Downloads/MasterChefV2/contracts/LinkToken.sol\":3555:3561  _value */\n      dup3\n        /* \"Users/leilei/Downloads/MasterChefV2/contracts/LinkToken.sol\":3537:3545  balances */\n      0x1\n        /* \"Users/leilei/Downloads/MasterChefV2/contracts/LinkToken.sol\":3537:3550  balances[_to] */\n      0x0\n        /* \"Users/leilei/Downloads/MasterChefV2/contracts/LinkToken.sol\":3546:3549  _to */\n      dup7\n        /* \"Users/leilei/Downloads/MasterChefV2/contracts/LinkToken.sol\":3537:3550  balances[_to] */\n      0xffffffffffffffffffffffffffffffffffffffff\n      and\n      0xffffffffffffffffffffffffffffffffffffffff\n      and\n      dup2\n      mstore\n      0x20\n      add\n      swap1\n      dup2\n      mstore\n      0x20\n      add\n      0x0\n      keccak256\n      sload\n        /* \"Users/leilei/Downloads/MasterChefV2/contracts/LinkToken.sol\":3537:3554  balances[_to].add */\n      tag_90\n      swap1\n        /* \"Users/leilei/Downloads/MasterChefV2/contracts/LinkToken.sol\":3537:3562  balances[_to].add(_value) */\n      swap2\n      swap1\n      0xffffffff\n      and\n      jump\t// in\n    tag_112:\n        /* \"Users/leilei/Downloads/MasterChefV2/contracts/LinkToken.sol\":3521:3529  balances */\n      0x1\n        /* \"Users/leilei/Downloads/MasterChefV2/contracts/LinkToken.sol\":3521:3534  balances[_to] */\n      0x0\n        /* \"Users/leilei/Downloads/MasterChefV2/contracts/LinkToken.sol\":3530:3533  _to */\n      dup6\n        /* \"Users/leilei/Downloads/MasterChefV2/contracts/LinkToken.sol\":3521:3534  balances[_to] */\n      0xffffffffffffffffffffffffffffffffffffffff\n      and\n      0xffffffffffffffffffffffffffffffffffffffff\n      and\n      dup2\n      mstore\n      0x20\n      add\n      swap1\n      dup2\n      mstore\n      0x20\n      add\n      0x0\n      keccak256\n        /* \"Users/leilei/Downloads/MasterChefV2/contracts/LinkToken.sol\":3521:3562  balances[_to] = balances[_to].add(_value) */\n      dup2\n      swap1\n      sstore\n      pop\n        /* \"Users/leilei/Downloads/MasterChefV2/contracts/LinkToken.sol\":3589:3592  _to */\n      dup3\n        /* \"Users/leilei/Downloads/MasterChefV2/contracts/LinkToken.sol\":3568:3601  Transfer(msg.sender, _to, _value) */\n      0xffffffffffffffffffffffffffffffffffffffff\n      and\n        /* \"Users/leilei/Downloads/MasterChefV2/contracts/LinkToken.sol\":3577:3587  msg.sender */\n      caller\n        /* \"Users/leilei/Downloads/MasterChefV2/contracts/LinkToken.sol\":3568:3601  Transfer(msg.sender, _to, _value) */\n      0xffffffffffffffffffffffffffffffffffffffff\n      and\n      0xddf252ad1be2c89b69c2b068fc378daa952ba7f163c4a11628f55a4df523b3ef\n        /* \"Users/leilei/Downloads/MasterChefV2/contracts/LinkToken.sol\":3594:3600  _value */\n      dup5\n        /* \"Users/leilei/Downloads/MasterChefV2/contracts/LinkToken.sol\":3568:3601  Transfer(msg.sender, _to, _value) */\n      mload(0x40)\n      dup1\n      dup3\n      dup2\n      mstore\n      0x20\n      add\n      swap2\n      pop\n      pop\n      mload(0x40)\n      dup1\n      swap2\n      sub\n      swap1\n      log3\n        /* \"Users/leilei/Downloads/MasterChefV2/contracts/LinkToken.sol\":3614:3618  true */\n      0x1\n        /* \"Users/leilei/Downloads/MasterChefV2/contracts/LinkToken.sol\":3607:3618  return true */\n      swap1\n      pop\n        /* \"Users/leilei/Downloads/MasterChefV2/contracts/LinkToken.sol\":3392:3623  function transfer(address _to, uint256 _value) returns (bool) {... */\n      swap3\n      swap2\n      pop\n      pop\n      jump\t// out\n        /* \"Users/leilei/Downloads/MasterChefV2/contracts/LinkToken.sol\":2890:3023  function add(uint256 a, uint256 b) internal constant returns (uint256) {... */\n    tag_90:\n        /* \"Users/leilei/Downloads/MasterChefV2/contracts/LinkToken.sol\":2952:2959  uint256 */\n      0x0\n        /* \"Users/leilei/Downloads/MasterChefV2/contracts/LinkToken.sol\":2967:2976  uint256 c */\n      dup1\n        /* \"Users/leilei/Downloads/MasterChefV2/contracts/LinkToken.sol\":2983:2984  b */\n      dup3\n        /* \"Users/leilei/Downloads/MasterChefV2/contracts/LinkToken.sol\":2979:2980  a */\n      dup5\n        /* \"Users/leilei/Downloads/MasterChefV2/contracts/LinkToken.sol\":2979:2984  a + b */\n      add\n        /* \"Users/leilei/Downloads/MasterChefV2/contracts/LinkToken.sol\":2967:2984  uint256 c = a + b */\n      swap1\n      pop\n        /* \"Users/leilei/Downloads/MasterChefV2/contracts/LinkToken.sol\":3002:3003  a */\n      dup4\n        /* \"Users/leilei/Downloads/MasterChefV2/contracts/LinkToken.sol\":2997:2998  c */\n      dup2\n        /* \"Users/leilei/Downloads/MasterChefV2/contracts/LinkToken.sol\":2997:3003  c >= a */\n      lt\n      iszero\n        /* \"Users/leilei/Downloads/MasterChefV2/contracts/LinkToken.sol\":2990:3004  assert(c >= a) */\n      iszero\n      iszero\n      tag_114\n      jumpi\n      invalid\n    tag_114:\n        /* \"Users/leilei/Downloads/MasterChefV2/contracts/LinkToken.sol\":3017:3018  c */\n      dup1\n        /* \"Users/leilei/Downloads/MasterChefV2/contracts/LinkToken.sol\":3010:3018  return c */\n      swap2\n      pop\n        /* \"Users/leilei/Downloads/MasterChefV2/contracts/LinkToken.sol\":2890:3023  function add(uint256 a, uint256 b) internal constant returns (uint256) {... */\n      pop\n      swap3\n      swap2\n      pop\n      pop\n      jump\t// out\n        /* \"Users/leilei/Downloads/MasterChefV2/contracts/LinkToken.sol\":2051:2218  function isContract(address _addr)... */\n    tag_104:\n        /* \"Users/leilei/Downloads/MasterChefV2/contracts/LinkToken.sol\":2111:2123  bool hasCode */\n      0x0\n        /* \"Users/leilei/Downloads/MasterChefV2/contracts/LinkToken.sol\":2133:2144  uint length */\n      dup1\n        /* \"Users/leilei/Downloads/MasterChefV2/contracts/LinkToken.sol\":2183:2188  _addr */\n      dup3\n        /* \"Users/leilei/Downloads/MasterChefV2/contracts/LinkToken.sol\":2171:2189  extcodesize(_addr) */\n      extcodesize\n        /* \"Users/leilei/Downloads/MasterChefV2/contracts/LinkToken.sol\":2161:2189  length := extcodesize(_addr) */\n      swap1\n      pop\n        /* \"Users/leilei/Downloads/MasterChefV2/contracts/LinkToken.sol\":2212:2213  0 */\n      0x0\n        /* \"Users/leilei/Downloads/MasterChefV2/contracts/LinkToken.sol\":2203:2209  length */\n      dup2\n        /* \"Users/leilei/Downloads/MasterChefV2/contracts/LinkToken.sol\":2203:2213  length > 0 */\n      gt\n        /* \"Users/leilei/Downloads/MasterChefV2/contracts/LinkToken.sol\":2196:2213  return length > 0 */\n      swap2\n      pop\n        /* \"Users/leilei/Downloads/MasterChefV2/contracts/LinkToken.sol\":2051:2218  function isContract(address _addr)... */\n      pop\n      swap2\n      swap1\n      pop\n      jump\t// out\n        /* \"Users/leilei/Downloads/MasterChefV2/contracts/LinkToken.sol\":1855:2047  function contractFallback(address _to, uint _value, bytes _data)... */\n    tag_107:\n        /* \"Users/leilei/Downloads/MasterChefV2/contracts/LinkToken.sol\":1940:1963  ERC677Receiver receiver */\n      0x0\n        /* \"Users/leilei/Downloads/MasterChefV2/contracts/LinkToken.sol\":1981:1984  _to */\n      dup4\n        /* \"Users/leilei/Downloads/MasterChefV2/contracts/LinkToken.sol\":1940:1985  ERC677Receiver receiver = ERC677Receiver(_to) */\n      swap1\n      pop\n        /* \"Users/leilei/Downloads/MasterChefV2/contracts/LinkToken.sol\":1991:1999  receiver */\n      dup1\n        /* \"Users/leilei/Downloads/MasterChefV2/contracts/LinkToken.sol\":1991:2015  receiver.onTokenTransfer */\n      0xffffffffffffffffffffffffffffffffffffffff\n      and\n      0xa4c0ed36\n        /* \"Users/leilei/Downloads/MasterChefV2/contracts/LinkToken.sol\":2016:2026  msg.sender */\n      caller\n        /* \"Users/leilei/Downloads/MasterChefV2/contracts/LinkToken.sol\":2028:2034  _value */\n      dup6\n        /* \"Users/leilei/Downloads/MasterChefV2/contracts/LinkToken.sol\":2036:2041  _data */\n      dup6\n        /* \"Users/leilei/Downloads/MasterChefV2/contracts/LinkToken.sol\":1991:2042  receiver.onTokenTransfer(msg.sender, _value, _data) */\n      mload(0x40)\n      dup5\n      0xffffffff\n      and\n      0x100000000000000000000000000000000000000000000000000000000\n      mul\n      dup2\n      mstore\n      0x4\n      add\n      dup1\n      dup5\n      0xffffffffffffffffffffffffffffffffffffffff\n      and\n      0xffffffffffffffffffffffffffffffffffffffff\n      and\n      dup2\n      mstore\n      0x20\n      add\n      dup4\n      dup2\n      mstore\n      0x20\n      add\n      dup1\n      0x20\n      add\n      dup3\n      dup2\n      sub\n      dup3\n      mstore\n      dup4\n      dup2\n      dup2\n      mload\n      dup2\n      mstore\n      0x20\n      add\n      swap2\n      pop\n      dup1\n      mload\n      swap1\n      0x20\n      add\n      swap1\n      dup1\n      dup4\n      dup4\n        /* \"--CODEGEN--\":23:24   */\n      0x0\n        /* \"--CODEGEN--\":8:108   */\n    tag_117:\n        /* \"--CODEGEN--\":33:36   */\n      dup4\n        /* \"--CODEGEN--\":30:31   */\n      dup2\n        /* \"--CODEGEN--\":27:37   */\n      lt\n        /* \"--CODEGEN--\":8:108   */\n      iszero\n      tag_118\n      jumpi\n        /* \"--CODEGEN--\":99:100   */\n      dup1\n        /* \"--CODEGEN--\":94:97   */\n      dup3\n        /* \"--CODEGEN--\":90:101   */\n      add\n        /* \"--CODEGEN--\":84:102   */\n      mload\n        /* \"--CODEGEN--\":80:81   */\n      dup2\n        /* \"--CODEGEN--\":75:78   */\n      dup5\n        /* \"--CODEGEN--\":71:82   */\n      add\n        /* \"--CODEGEN--\":64:103   */\n      mstore\n        /* \"--CODEGEN--\":52:54   */\n      0x20\n        /* \"--CODEGEN--\":49:50   */\n      dup2\n        /* \"--CODEGEN--\":45:55   */\n      add\n        /* \"--CODEGEN--\":40:55   */\n      swap1\n      pop\n        /* \"--CODEGEN--\":8:108   */\n      jump(tag_117)\n    tag_118:\n        /* \"--CODEGEN--\":12:26   */\n      pop\n        /* \"Users/leilei/Downloads/MasterChefV2/contracts/LinkToken.sol\":1991:2042  receiver.onTokenTransfer(msg.sender, _value, _data) */\n      pop\n      pop\n      pop\n      swap1\n      pop\n      swap1\n      dup2\n      add\n      swap1\n      0x1f\n      and\n      dup1\n      iszero\n      tag_120\n      jumpi\n      dup1\n      dup3\n      sub\n      dup1\n      mload\n      0x1\n      dup4\n      0x20\n      sub\n      0x100\n      exp\n      sub\n      not\n      and\n      dup2\n      mstore\n      0x20\n      add\n      swap2\n      pop\n    tag_120:\n      pop\n      swap5\n      pop\n      pop\n      pop\n      pop\n      pop\n      0x0\n      mload(0x40)\n      dup1\n      dup4\n      sub\n      dup2\n      0x0\n      dup8\n      dup1\n      extcodesize\n      iszero\n        /* \"--CODEGEN--\":8:17   */\n      dup1\n        /* \"--CODEGEN--\":5:7   */\n      iszero\n      tag_121\n      jumpi\n        /* \"--CODEGEN--\":30:31   */\n      0x0\n        /* \"--CODEGEN--\":27:28   */\n      dup1\n        /* \"--CODEGEN--\":20:32   */\n      revert\n        /* \"--CODEGEN--\":5:7   */\n    tag_121:\n        /* \"Users/leilei/Downloads/MasterChefV2/contracts/LinkToken.sol\":1991:2042  receiver.onTokenTransfer(msg.sender, _value, _data) */\n      pop\n      gas\n      call\n      iszero\n        /* \"--CODEGEN--\":8:17   */\n      dup1\n        /* \"--CODEGEN--\":5:7   */\n      iszero\n      tag_122\n      jumpi\n        /* \"--CODEGEN--\":45:61   */\n      returndatasize\n        /* \"--CODEGEN--\":42:43   */\n      0x0\n        /* \"--CODEGEN--\":39:40   */\n      dup1\n        /* \"--CODEGEN--\":24:62   */\n      returndatacopy\n        /* \"--CODEGEN--\":77:93   */\n      returndatasize\n        /* \"--CODEGEN--\":74:75   */\n      0x0\n        /* \"--CODEGEN--\":67:94   */\n      revert\n        /* \"--CODEGEN--\":5:7   */\n    tag_122:\n        /* \"Users/leilei/Downloads/MasterChefV2/contracts/LinkToken.sol\":1991:2042  receiver.onTokenTransfer(msg.sender, _value, _data) */\n      pop\n      pop\n      pop\n      pop\n        /* \"Users/leilei/Downloads/MasterChefV2/contracts/LinkToken.sol\":1855:2047  function contractFallback(address _to, uint _value, bytes _data)... */\n      pop\n      pop\n      pop\n      pop\n      jump\t// out\n\n    auxdata: 0xa165627a7a72305820b83290881fd5852f4bc9f63d9d0402cc76b6499a81498bc996f9abebc63a692d0029\n}\n",
				"bytecode": {
					"linkReferences": {},
					"object": "608060405234801561001057600080fd5b506b033b2e3c9fd0803ce8000000600160003373ffffffffffffffffffffffffffffffffffffffff1673ffffffffffffffffffffffffffffffffffffffff168152602001908152602001600020819055506115c7806100706000396000f3006080604052600436106100ba576000357c0100000000000000000000000000000000000000000000000000000000900463ffffffff16806306fdde03146100bf578063095ea7b31461014f57806318160ddd146101b457806323b872dd146101df578063313ce567146102645780634000aea014610295578063661884631461034057806370a08231146103a557806395d89b41146103fc578063a9059cbb1461048c578063d73dd623146104f1578063dd62ed3e14610556575b600080fd5b3480156100cb57600080fd5b506100d46105cd565b6040518080602001828103825283818151815260200191508051906020019080838360005b838110156101145780820151818401526020810190506100f9565b50505050905090810190601f1680156101415780820380516001836020036101000a031916815260200191505b509250505060405180910390f35b34801561015b57600080fd5b5061019a600480360381019080803573ffffffffffffffffffffffffffffffffffffffff16906020019092919080359060200190929190505050610606565b604051808215151515815260200191505060405180910390f35b3480156101c057600080fd5b506101c9610690565b6040518082815260200191505060405180910390f35b3480156101eb57600080fd5b5061024a600480360381019080803573ffffffffffffffffffffffffffffffffffffffff169060200190929190803573ffffffffffffffffffffffffffffffffffffffff169060200190929190803590602001909291905050506106a0565b604051808215151515815260200191505060405180910390f35b34801561027057600080fd5b5061027961072c565b604051808260ff1660ff16815260200191505060405180910390f35b3480156102a157600080fd5b50610326600480360381019080803573ffffffffffffffffffffffffffffffffffffffff16906020019092919080359060200190929190803590602001908201803590602001908080601f0160208091040260200160405190810160405280939291908181526020018383808284378201915050505050509192919290505050610731565b604051808215151515815260200191505060405180910390f35b34801561034c57600080fd5b5061038b600480360381019080803573ffffffffffffffffffffffffffffffffffffffff169060200190929190803590602001909291905050506107bd565b604051808215151515815260200191505060405180910390f35b3480156103b157600080fd5b506103e6600480360381019080803573ffffffffffffffffffffffffffffffffffffffff169060200190929190505050610a4e565b6040518082815260200191505060405180910390f35b34801561040857600080fd5b50610411610a97565b6040518080602001828103825283818151815260200191508051906020019080838360005b83811015610451578082015181840152602081019050610436565b50505050905090810190601f16801561047e5780820380516001836020036101000a031916815260200191505b509250505060405180910390f35b34801561049857600080fd5b506104d7600480360381019080803573ffffffffffffffffffffffffffffffffffffffff16906020019092919080359060200190929190505050610ad0565b604051808215151515815260200191505060405180910390f35b3480156104fd57600080fd5b5061053c600480360381019080803573ffffffffffffffffffffffffffffffffffffffff16906020019092919080359060200190929190505050610b5a565b604051808215151515815260200191505060405180910390f35b34801561056257600080fd5b506105b7600480360381019080803573ffffffffffffffffffffffffffffffffffffffff169060200190929190803573ffffffffffffffffffffffffffffffffffffffff169060200190929190505050610d56565b6040518082815260200191505060405180910390f35b6040805190810160405280600f81526020017f436861696e4c696e6b20546f6b656e000000000000000000000000000000000081525081565b600082600073ffffffffffffffffffffffffffffffffffffffff168173ffffffffffffffffffffffffffffffffffffffff161415801561067257503073ffffffffffffffffffffffffffffffffffffffff168173ffffffffffffffffffffffffffffffffffffffff1614155b151561067d57600080fd5b6106878484610ddd565b91505092915050565b6b033b2e3c9fd0803ce800000081565b600082600073ffffffffffffffffffffffffffffffffffffffff168173ffffffffffffffffffffffffffffffffffffffff161415801561070c57503073ffffffffffffffffffffffffffffffffffffffff168173ffffffffffffffffffffffffffffffffffffffff1614155b151561071757600080fd5b610722858585610ecf565b9150509392505050565b601281565b600083600073ffffffffffffffffffffffffffffffffffffffff168173ffffffffffffffffffffffffffffffffffffffff161415801561079d57503073ffffffffffffffffffffffffffffffffffffffff168173ffffffffffffffffffffffffffffffffffffffff1614155b15156107a857600080fd5b6107b385858561117f565b9150509392505050565b600080600260003373ffffffffffffffffffffffffffffffffffffffff1673ffffffffffffffffffffffffffffffffffffffff16815260200190815260200160002060008573ffffffffffffffffffffffffffffffffffffffff1673ffffffffffffffffffffffffffffffffffffffff168152602001908152602001600020549050808311156108ce576000600260003373ffffffffffffffffffffffffffffffffffffffff1673ffffffffffffffffffffffffffffffffffffffff16815260200190815260200160002060008673ffffffffffffffffffffffffffffffffffffffff1673ffffffffffffffffffffffffffffffffffffffff16815260200190815260200160002081905550610962565b6108e1838261128390919063ffffffff16565b600260003373ffffffffffffffffffffffffffffffffffffffff1673ffffffffffffffffffffffffffffffffffffffff16815260200190815260200160002060008673ffffffffffffffffffffffffffffffffffffffff1673ffffffffffffffffffffffffffffffffffffffff168152602001908152602001600020819055505b8373ffffffffffffffffffffffffffffffffffffffff163373ffffffffffffffffffffffffffffffffffffffff167f8c5be1e5ebec7d5bd14f71427d1e84f3dd0314c0f7b2291e5b200ac8c7c3b925600260003373ffffffffffffffffffffffffffffffffffffffff1673ffffffffffffffffffffffffffffffffffffffff16815260200190815260200160002060008873ffffffffffffffffffffffffffffffffffffffff1673ffffffffffffffffffffffffffffffffffffffff168152602001908152602001600020546040518082815260200191505060405180910390a3600191505092915050565b6000600160008373ffffffffffffffffffffffffffffffffffffffff1673ffffffffffffffffffffffffffffffffffffffff168152602001908152602001600020549050919050565b6040805190810160405280600481526020017f4c494e4b0000000000000000000000000000000000000000000000000000000081525081565b600082600073ffffffffffffffffffffffffffffffffffffffff168173ffffffffffffffffffffffffffffffffffffffff1614158015610b3c57503073ffffffffffffffffffffffffffffffffffffffff168173ffffffffffffffffffffffffffffffffffffffff1614155b1515610b4757600080fd5b610b51848461129c565b91505092915050565b6000610beb82600260003373ffffffffffffffffffffffffffffffffffffffff1673ffffffffffffffffffffffffffffffffffffffff16815260200190815260200160002060008673ffffffffffffffffffffffffffffffffffffffff1673ffffffffffffffffffffffffffffffffffffffff1681526020019081526020016000205461143790919063ffffffff16565b600260003373ffffffffffffffffffffffffffffffffffffffff1673ffffffffffffffffffffffffffffffffffffffff16815260200190815260200160002060008573ffffffffffffffffffffffffffffffffffffffff1673ffffffffffffffffffffffffffffffffffffffff168152602001908152602001600020819055508273ffffffffffffffffffffffffffffffffffffffff163373ffffffffffffffffffffffffffffffffffffffff167f8c5be1e5ebec7d5bd14f71427d1e84f3dd0314c0f7b2291e5b200ac8c7c3b925600260003373ffffffffffffffffffffffffffffffffffffffff1673ffffffffffffffffffffffffffffffffffffffff16815260200190815260200160002060008773ffffffffffffffffffffffffffffffffffffffff1673ffffffffffffffffffffffffffffffffffffffff168152602001908152602001600020546040518082815260200191505060405180910390a36001905092915050565b6000600260008473ffffffffffffffffffffffffffffffffffffffff1673ffffffffffffffffffffffffffffffffffffffff16815260200190815260200160002060008373ffffffffffffffffffffffffffffffffffffffff1673ffffffffffffffffffffffffffffffffffffffff16815260200190815260200160002054905092915050565b600081600260003373ffffffffffffffffffffffffffffffffffffffff1673ffffffffffffffffffffffffffffffffffffffff16815260200190815260200160002060008573ffffffffffffffffffffffffffffffffffffffff1673ffffffffffffffffffffffffffffffffffffffff168152602001908152602001600020819055508273ffffffffffffffffffffffffffffffffffffffff163373ffffffffffffffffffffffffffffffffffffffff167f8c5be1e5ebec7d5bd14f71427d1e84f3dd0314c0f7b2291e5b200ac8c7c3b925846040518082815260200191505060405180910390a36001905092915050565b600080600260008673ffffffffffffffffffffffffffffffffffffffff1673ffffffffffffffffffffffffffffffffffffffff16815260200190815260200160002060003373ffffffffffffffffffffffffffffffffffffffff1673ffffffffffffffffffffffffffffffffffffffff168152602001908152602001600020549050610fa383600160008873ffffffffffffffffffffffffffffffffffffffff1673ffffffffffffffffffffffffffffffffffffffff1681526020019081526020016000205461128390919063ffffffff16565b600160008773ffffffffffffffffffffffffffffffffffffffff1673ffffffffffffffffffffffffffffffffffffffff1681526020019081526020016000208190555061103883600160008773ffffffffffffffffffffffffffffffffffffffff1673ffffffffffffffffffffffffffffffffffffffff1681526020019081526020016000205461143790919063ffffffff16565b600160008673ffffffffffffffffffffffffffffffffffffffff1673ffffffffffffffffffffffffffffffffffffffff1681526020019081526020016000208190555061108e838261128390919063ffffffff16565b600260008773ffffffffffffffffffffffffffffffffffffffff1673ffffffffffffffffffffffffffffffffffffffff16815260200190815260200160002060003373ffffffffffffffffffffffffffffffffffffffff1673ffffffffffffffffffffffffffffffffffffffff168152602001908152602001600020819055508373ffffffffffffffffffffffffffffffffffffffff168573ffffffffffffffffffffffffffffffffffffffff167fddf252ad1be2c89b69c2b068fc378daa952ba7f163c4a11628f55a4df523b3ef856040518082815260200191505060405180910390a360019150509392505050565b600061118b848461129c565b508373ffffffffffffffffffffffffffffffffffffffff163373ffffffffffffffffffffffffffffffffffffffff167fe19260aff97b920c7df27010903aeb9c8d2be5d310a2c67824cf3f15396e4c1685856040518083815260200180602001828103825283818151815260200191508051906020019080838360005b83811015611223578082015181840152602081019050611208565b50505050905090810190601f1680156112505780820380516001836020036101000a031916815260200191505b50935050505060405180910390a361126784611455565b1561127857611277848484611468565b5b600190509392505050565b600082821115151561129157fe5b818303905092915050565b60006112f082600160003373ffffffffffffffffffffffffffffffffffffffff1673ffffffffffffffffffffffffffffffffffffffff1681526020019081526020016000205461128390919063ffffffff16565b600160003373ffffffffffffffffffffffffffffffffffffffff1673ffffffffffffffffffffffffffffffffffffffff1681526020019081526020016000208190555061138582600160008673ffffffffffffffffffffffffffffffffffffffff1673ffffffffffffffffffffffffffffffffffffffff1681526020019081526020016000205461143790919063ffffffff16565b600160008573ffffffffffffffffffffffffffffffffffffffff1673ffffffffffffffffffffffffffffffffffffffff168152602001908152602001600020819055508273ffffffffffffffffffffffffffffffffffffffff163373ffffffffffffffffffffffffffffffffffffffff167fddf252ad1be2c89b69c2b068fc378daa952ba7f163c4a11628f55a4df523b3ef846040518082815260200191505060405180910390a36001905092915050565b600080828401905083811015151561144b57fe5b8091505092915050565b600080823b905060008111915050919050565b60008390508073ffffffffffffffffffffffffffffffffffffffff1663a4c0ed363385856040518463ffffffff167c0100000000000000000000000000000000000000000000000000000000028152600401808473ffffffffffffffffffffffffffffffffffffffff1673ffffffffffffffffffffffffffffffffffffffff16815260200183815260200180602001828103825283818151815260200191508051906020019080838360005b8381101561152f578082015181840152602081019050611514565b50505050905090810190601f16801561155c5780820380516001836020036101000a031916815260200191505b50945050505050600060405180830381600087803b15801561157d57600080fd5b505af1158015611591573d6000803e3d6000fd5b50505050505050505600a165627a7a72305820b83290881fd5852f4bc9f63d9d0402cc76b6499a81498bc996f9abebc63a692d0029",
					"opcodes": "PUSH1 0x80 PUSH1 0x40 MSTORE CALLVALUE DUP1 ISZERO PUSH2 0x10 JUMPI PUSH1 0x0 DUP1 REVERT JUMPDEST POP PUSH12 0x33B2E3C9FD0803CE8000000 PUSH1 0x1 PUSH1 0x0 CALLER PUSH20 0xFFFFFFFFFFFFFFFFFFFFFFFFFFFFFFFFFFFFFFFF AND PUSH20 0xFFFFFFFFFFFFFFFFFFFFFFFFFFFFFFFFFFFFFFFF AND DUP2 MSTORE PUSH1 0x20 ADD SWAP1 DUP2 MSTORE PUSH1 0x20 ADD PUSH1 0x0 KECCAK256 DUP2 SWAP1 SSTORE POP PUSH2 0x15C7 DUP1 PUSH2 0x70 PUSH1 0x0 CODECOPY PUSH1 0x0 RETURN STOP PUSH1 0x80 PUSH1 0x40 MSTORE PUSH1 0x4 CALLDATASIZE LT PUSH2 0xBA JUMPI PUSH1 0x0 CALLDATALOAD PUSH29 0x100000000000000000000000000000000000000000000000000000000 SWAP1 DIV PUSH4 0xFFFFFFFF AND DUP1 PUSH4 0x6FDDE03 EQ PUSH2 0xBF JUMPI DUP1 PUSH4 0x95EA7B3 EQ PUSH2 0x14F JUMPI DUP1 PUSH4 0x18160DDD EQ PUSH2 0x1B4 JUMPI DUP1 PUSH4 0x23B872DD EQ PUSH2 0x1DF JUMPI DUP1 PUSH4 0x313CE567 EQ PUSH2 0x264 JUMPI DUP1 PUSH4 0x4000AEA0 EQ PUSH2 0x295 JUMPI DUP1 PUSH4 0x66188463 EQ PUSH2 0x340 JUMPI DUP1 PUSH4 0x70A08231 EQ PUSH2 0x3A5 JUMPI DUP1 PUSH4 0x95D89B41 EQ PUSH2 0x3FC JUMPI DUP1 PUSH4 0xA9059CBB EQ PUSH2 0x48C JUMPI DUP1 PUSH4 0xD73DD623 EQ PUSH2 0x4F1 JUMPI DUP1 PUSH4 0xDD62ED3E EQ PUSH2 0x556 JUMPI JUMPDEST PUSH1 0x0 DUP1 REVERT JUMPDEST CALLVALUE DUP1 ISZERO PUSH2 0xCB JUMPI PUSH1 0x0 DUP1 REVERT JUMPDEST POP PUSH2 0xD4 PUSH2 0x5CD JUMP JUMPDEST PUSH1 0x40 MLOAD DUP1 DUP1 PUSH1 0x20 ADD DUP3 DUP2 SUB DUP3 MSTORE DUP4 DUP2 DUP2 MLOAD DUP2 MSTORE PUSH1 0x20 ADD SWAP2 POP DUP1 MLOAD SWAP1 PUSH1 0x20 ADD SWAP1 DUP1 DUP4 DUP4 PUSH1 0x0 JUMPDEST DUP4 DUP2 LT ISZERO PUSH2 0x114 JUMPI DUP1 DUP3 ADD MLOAD DUP2 DUP5 ADD MSTORE PUSH1 0x20 DUP2 ADD SWAP1 POP PUSH2 0xF9 JUMP JUMPDEST POP POP POP POP SWAP1 POP SWAP1 DUP2 ADD SWAP1 PUSH1 0x1F AND DUP1 ISZERO PUSH2 0x141 JUMPI DUP1 DUP3 SUB DUP1 MLOAD PUSH1 0x1 DUP4 PUSH1 0x20 SUB PUSH2 0x100 EXP SUB NOT AND DUP2 MSTORE PUSH1 0x20 ADD SWAP2 POP JUMPDEST POP SWAP3 POP POP POP PUSH1 0x40 MLOAD DUP1 SWAP2 SUB SWAP1 RETURN JUMPDEST CALLVALUE DUP1 ISZERO PUSH2 0x15B JUMPI PUSH1 0x0 DUP1 REVERT JUMPDEST POP PUSH2 0x19A PUSH1 0x4 DUP1 CALLDATASIZE SUB DUP2 ADD SWAP1 DUP1 DUP1 CALLDATALOAD PUSH20 0xFFFFFFFFFFFFFFFFFFFFFFFFFFFFFFFFFFFFFFFF AND SWAP1 PUSH1 0x20 ADD SWAP1 SWAP3 SWAP2 SWAP1 DUP1 CALLDATALOAD SWAP1 PUSH1 0x20 ADD SWAP1 SWAP3 SWAP2 SWAP1 POP POP POP PUSH2 0x606 JUMP JUMPDEST PUSH1 0x40 MLOAD DUP1 DUP3 ISZERO ISZERO ISZERO ISZERO DUP2 MSTORE PUSH1 0x20 ADD SWAP2 POP POP PUSH1 0x40 MLOAD DUP1 SWAP2 SUB SWAP1 RETURN JUMPDEST CALLVALUE DUP1 ISZERO PUSH2 0x1C0 JUMPI PUSH1 0x0 DUP1 REVERT JUMPDEST POP PUSH2 0x1C9 PUSH2 0x690 JUMP JUMPDEST PUSH1 0x40 MLOAD DUP1 DUP3 DUP2 MSTORE PUSH1 0x20 ADD SWAP2 POP POP PUSH1 0x40 MLOAD DUP1 SWAP2 SUB SWAP1 RETURN JUMPDEST CALLVALUE DUP1 ISZERO PUSH2 0x1EB JUMPI PUSH1 0x0 DUP1 REVERT JUMPDEST POP PUSH2 0x24A PUSH1 0x4 DUP1 CALLDATASIZE SUB DUP2 ADD SWAP1 DUP1 DUP1 CALLDATALOAD PUSH20 0xFFFFFFFFFFFFFFFFFFFFFFFFFFFFFFFFFFFFFFFF AND SWAP1 PUSH1 0x20 ADD SWAP1 SWAP3 SWAP2 SWAP1 DUP1 CALLDATALOAD PUSH20 0xFFFFFFFFFFFFFFFFFFFFFFFFFFFFFFFFFFFFFFFF AND SWAP1 PUSH1 0x20 ADD SWAP1 SWAP3 SWAP2 SWAP1 DUP1 CALLDATALOAD SWAP1 PUSH1 0x20 ADD SWAP1 SWAP3 SWAP2 SWAP1 POP POP POP PUSH2 0x6A0 JUMP JUMPDEST PUSH1 0x40 MLOAD DUP1 DUP3 ISZERO ISZERO ISZERO ISZERO DUP2 MSTORE PUSH1 0x20 ADD SWAP2 POP POP PUSH1 0x40 MLOAD DUP1 SWAP2 SUB SWAP1 RETURN JUMPDEST CALLVALUE DUP1 ISZERO PUSH2 0x270 JUMPI PUSH1 0x0 DUP1 REVERT JUMPDEST POP PUSH2 0x279 PUSH2 0x72C JUMP JUMPDEST PUSH1 0x40 MLOAD DUP1 DUP3 PUSH1 0xFF AND PUSH1 0xFF AND DUP2 MSTORE PUSH1 0x20 ADD SWAP2 POP POP PUSH1 0x40 MLOAD DUP1 SWAP2 SUB SWAP1 RETURN JUMPDEST CALLVALUE DUP1 ISZERO PUSH2 0x2A1 JUMPI PUSH1 0x0 DUP1 REVERT JUMPDEST POP PUSH2 0x326 PUSH1 0x4 DUP1 CALLDATASIZE SUB DUP2 ADD SWAP1 DUP1 DUP1 CALLDATALOAD PUSH20 0xFFFFFFFFFFFFFFFFFFFFFFFFFFFFFFFFFFFFFFFF AND SWAP1 PUSH1 0x20 ADD SWAP1 SWAP3 SWAP2 SWAP1 DUP1 CALLDATALOAD SWAP1 PUSH1 0x20 ADD SWAP1 SWAP3 SWAP2 SWAP1 DUP1 CALLDATALOAD SWAP1 PUSH1 0x20 ADD SWAP1 DUP3 ADD DUP1 CALLDATALOAD SWAP1 PUSH1 0x20 ADD SWAP1 DUP1 DUP1 PUSH1 0x1F ADD PUSH1 0x20 DUP1 SWAP2 DIV MUL PUSH1 0x20 ADD PUSH1 0x40 MLOAD SWAP1 DUP2 ADD PUSH1 0x40 MSTORE DUP1 SWAP4 SWAP3 SWAP2 SWAP1 DUP2 DUP2 MSTORE PUSH1 0x20 ADD DUP4 DUP4 DUP1 DUP3 DUP5 CALLDATACOPY DUP3 ADD SWAP2 POP POP POP POP POP POP SWAP2 SWAP3 SWAP2 SWAP3 SWAP1 POP POP POP PUSH2 0x731 JUMP JUMPDEST PUSH1 0x40 MLOAD DUP1 DUP3 ISZERO ISZERO ISZERO ISZERO DUP2 MSTORE PUSH1 0x20 ADD SWAP2 POP POP PUSH1 0x40 MLOAD DUP1 SWAP2 SUB SWAP1 RETURN JUMPDEST CALLVALUE DUP1 ISZERO PUSH2 0x34C JUMPI PUSH1 0x0 DUP1 REVERT JUMPDEST POP PUSH2 0x38B PUSH1 0x4 DUP1 CALLDATASIZE SUB DUP2 ADD SWAP1 DUP1 DUP1 CALLDATALOAD PUSH20 0xFFFFFFFFFFFFFFFFFFFFFFFFFFFFFFFFFFFFFFFF AND SWAP1 PUSH1 0x20 ADD SWAP1 SWAP3 SWAP2 SWAP1 DUP1 CALLDATALOAD SWAP1 PUSH1 0x20 ADD SWAP1 SWAP3 SWAP2 SWAP1 POP POP POP PUSH2 0x7BD JUMP JUMPDEST PUSH1 0x40 MLOAD DUP1 DUP3 ISZERO ISZERO ISZERO ISZERO DUP2 MSTORE PUSH1 0x20 ADD SWAP2 POP POP PUSH1 0x40 MLOAD DUP1 SWAP2 SUB SWAP1 RETURN JUMPDEST CALLVALUE DUP1 ISZERO PUSH2 0x3B1 JUMPI PUSH1 0x0 DUP1 REVERT JUMPDEST POP PUSH2 0x3E6 PUSH1 0x4 DUP1 CALLDATASIZE SUB DUP2 ADD SWAP1 DUP1 DUP1 CALLDATALOAD PUSH20 0xFFFFFFFFFFFFFFFFFFFFFFFFFFFFFFFFFFFFFFFF AND SWAP1 PUSH1 0x20 ADD SWAP1 SWAP3 SWAP2 SWAP1 POP POP POP PUSH2 0xA4E JUMP JUMPDEST PUSH1 0x40 MLOAD DUP1 DUP3 DUP2 MSTORE PUSH1 0x20 ADD SWAP2 POP POP PUSH1 0x40 MLOAD DUP1 SWAP2 SUB SWAP1 RETURN JUMPDEST CALLVALUE DUP1 ISZERO PUSH2 0x408 JUMPI PUSH1 0x0 DUP1 REVERT JUMPDEST POP PUSH2 0x411 PUSH2 0xA97 JUMP JUMPDEST PUSH1 0x40 MLOAD DUP1 DUP1 PUSH1 0x20 ADD DUP3 DUP2 SUB DUP3 MSTORE DUP4 DUP2 DUP2 MLOAD DUP2 MSTORE PUSH1 0x20 ADD SWAP2 POP DUP1 MLOAD SWAP1 PUSH1 0x20 ADD SWAP1 DUP1 DUP4 DUP4 PUSH1 0x0 JUMPDEST DUP4 DUP2 LT ISZERO PUSH2 0x451 JUMPI DUP1 DUP3 ADD MLOAD DUP2 DUP5 ADD MSTORE PUSH1 0x20 DUP2 ADD SWAP1 POP PUSH2 0x436 JUMP JUMPDEST POP POP POP POP SWAP1 POP SWAP1 DUP2 ADD SWAP1 PUSH1 0x1F AND DUP1 ISZERO PUSH2 0x47E JUMPI DUP1 DUP3 SUB DUP1 MLOAD PUSH1 0x1 DUP4 PUSH1 0x20 SUB PUSH2 0x100 EXP SUB NOT AND DUP2 MSTORE PUSH1 0x20 ADD SWAP2 POP JUMPDEST POP SWAP3 POP POP POP PUSH1 0x40 MLOAD DUP1 SWAP2 SUB SWAP1 RETURN JUMPDEST CALLVALUE DUP1 ISZERO PUSH2 0x498 JUMPI PUSH1 0x0 DUP1 REVERT JUMPDEST POP PUSH2 0x4D7 PUSH1 0x4 DUP1 CALLDATASIZE SUB DUP2 ADD SWAP1 DUP1 DUP1 CALLDATALOAD PUSH20 0xFFFFFFFFFFFFFFFFFFFFFFFFFFFFFFFFFFFFFFFF AND SWAP1 PUSH1 0x20 ADD SWAP1 SWAP3 SWAP2 SWAP1 DUP1 CALLDATALOAD SWAP1 PUSH1 0x20 ADD SWAP1 SWAP3 SWAP2 SWAP1 POP POP POP PUSH2 0xAD0 JUMP JUMPDEST PUSH1 0x40 MLOAD DUP1 DUP3 ISZERO ISZERO ISZERO ISZERO DUP2 MSTORE PUSH1 0x20 ADD SWAP2 POP POP PUSH1 0x40 MLOAD DUP1 SWAP2 SUB SWAP1 RETURN JUMPDEST CALLVALUE DUP1 ISZERO PUSH2 0x4FD JUMPI PUSH1 0x0 DUP1 REVERT JUMPDEST POP PUSH2 0x53C PUSH1 0x4 DUP1 CALLDATASIZE SUB DUP2 ADD SWAP1 DUP1 DUP1 CALLDATALOAD PUSH20 0xFFFFFFFFFFFFFFFFFFFFFFFFFFFFFFFFFFFFFFFF AND SWAP1 PUSH1 0x20 ADD SWAP1 SWAP3 SWAP2 SWAP1 DUP1 CALLDATALOAD SWAP1 PUSH1 0x20 ADD SWAP1 SWAP3 SWAP2 SWAP1 POP POP POP PUSH2 0xB5A JUMP JUMPDEST PUSH1 0x40 MLOAD DUP1 DUP3 ISZERO ISZERO ISZERO ISZERO DUP2 MSTORE PUSH1 0x20 ADD SWAP2 POP POP PUSH1 0x40 MLOAD DUP1 SWAP2 SUB SWAP1 RETURN JUMPDEST CALLVALUE DUP1 ISZERO PUSH2 0x562 JUMPI PUSH1 0x0 DUP1 REVERT JUMPDEST POP PUSH2 0x5B7 PUSH1 0x4 DUP1 CALLDATASIZE SUB DUP2 ADD SWAP1 DUP1 DUP1 CALLDATALOAD PUSH20 0xFFFFFFFFFFFFFFFFFFFFFFFFFFFFFFFFFFFFFFFF AND SWAP1 PUSH1 0x20 ADD SWAP1 SWAP3 SWAP2 SWAP1 DUP1 CALLDATALOAD PUSH20 0xFFFFFFFFFFFFFFFFFFFFFFFFFFFFFFFFFFFFFFFF AND SWAP1 PUSH1 0x20 ADD SWAP1 SWAP3 SWAP2 SWAP1 POP POP POP PUSH2 0xD56 JUMP JUMPDEST PUSH1 0x40 MLOAD DUP1 DUP3 DUP2 MSTORE PUSH1 0x20 ADD SWAP2 POP POP PUSH1 0x40 MLOAD DUP1 SWAP2 SUB SWAP1 RETURN JUMPDEST PUSH1 0x40 DUP1 MLOAD SWAP1 DUP2 ADD PUSH1 0x40 MSTORE DUP1 PUSH1 0xF DUP2 MSTORE PUSH1 0x20 ADD PUSH32 0x436861696E4C696E6B20546F6B656E0000000000000000000000000000000000 DUP2 MSTORE POP DUP2 JUMP JUMPDEST PUSH1 0x0 DUP3 PUSH1 0x0 PUSH20 0xFFFFFFFFFFFFFFFFFFFFFFFFFFFFFFFFFFFFFFFF AND DUP2 PUSH20 0xFFFFFFFFFFFFFFFFFFFFFFFFFFFFFFFFFFFFFFFF AND EQ ISZERO DUP1 ISZERO PUSH2 0x672 JUMPI POP ADDRESS PUSH20 0xFFFFFFFFFFFFFFFFFFFFFFFFFFFFFFFFFFFFFFFF AND DUP2 PUSH20 0xFFFFFFFFFFFFFFFFFFFFFFFFFFFFFFFFFFFFFFFF AND EQ ISZERO JUMPDEST ISZERO ISZERO PUSH2 0x67D JUMPI PUSH1 0x0 DUP1 REVERT JUMPDEST PUSH2 0x687 DUP5 DUP5 PUSH2 0xDDD JUMP JUMPDEST SWAP2 POP POP SWAP3 SWAP2 POP POP JUMP JUMPDEST PUSH12 0x33B2E3C9FD0803CE8000000 DUP2 JUMP JUMPDEST PUSH1 0x0 DUP3 PUSH1 0x0 PUSH20 0xFFFFFFFFFFFFFFFFFFFFFFFFFFFFFFFFFFFFFFFF AND DUP2 PUSH20 0xFFFFFFFFFFFFFFFFFFFFFFFFFFFFFFFFFFFFFFFF AND EQ ISZERO DUP1 ISZERO PUSH2 0x70C JUMPI POP ADDRESS PUSH20 0xFFFFFFFFFFFFFFFFFFFFFFFFFFFFFFFFFFFFFFFF AND DUP2 PUSH20 0xFFFFFFFFFFFFFFFFFFFFFFFFFFFFFFFFFFFFFFFF AND EQ ISZERO JUMPDEST ISZERO ISZERO PUSH2 0x717 JUMPI PUSH1 0x0 DUP1 REVERT JUMPDEST PUSH2 0x722 DUP6 DUP6 DUP6 PUSH2 0xECF JUMP JUMPDEST SWAP2 POP POP SWAP4 SWAP3 POP POP POP JUMP JUMPDEST PUSH1 0x12 DUP2 JUMP JUMPDEST PUSH1 0x0 DUP4 PUSH1 0x0 PUSH20 0xFFFFFFFFFFFFFFFFFFFFFFFFFFFFFFFFFFFFFFFF AND DUP2 PUSH20 0xFFFFFFFFFFFFFFFFFFFFFFFFFFFFFFFFFFFFFFFF AND EQ ISZERO DUP1 ISZERO PUSH2 0x79D JUMPI POP ADDRESS PUSH20 0xFFFFFFFFFFFFFFFFFFFFFFFFFFFFFFFFFFFFFFFF AND DUP2 PUSH20 0xFFFFFFFFFFFFFFFFFFFFFFFFFFFFFFFFFFFFFFFF AND EQ ISZERO JUMPDEST ISZERO ISZERO PUSH2 0x7A8 JUMPI PUSH1 0x0 DUP1 REVERT JUMPDEST PUSH2 0x7B3 DUP6 DUP6 DUP6 PUSH2 0x117F JUMP JUMPDEST SWAP2 POP POP SWAP4 SWAP3 POP POP POP JUMP JUMPDEST PUSH1 0x0 DUP1 PUSH1 0x2 PUSH1 0x0 CALLER PUSH20 0xFFFFFFFFFFFFFFFFFFFFFFFFFFFFFFFFFFFFFFFF AND PUSH20 0xFFFFFFFFFFFFFFFFFFFFFFFFFFFFFFFFFFFFFFFF AND DUP2 MSTORE PUSH1 0x20 ADD SWAP1 DUP2 MSTORE PUSH1 0x20 ADD PUSH1 0x0 KECCAK256 PUSH1 0x0 DUP6 PUSH20 0xFFFFFFFFFFFFFFFFFFFFFFFFFFFFFFFFFFFFFFFF AND PUSH20 0xFFFFFFFFFFFFFFFFFFFFFFFFFFFFFFFFFFFFFFFF AND DUP2 MSTORE PUSH1 0x20 ADD SWAP1 DUP2 MSTORE PUSH1 0x20 ADD PUSH1 0x0 KECCAK256 SLOAD SWAP1 POP DUP1 DUP4 GT ISZERO PUSH2 0x8CE JUMPI PUSH1 0x0 PUSH1 0x2 PUSH1 0x0 CALLER PUSH20 0xFFFFFFFFFFFFFFFFFFFFFFFFFFFFFFFFFFFFFFFF AND PUSH20 0xFFFFFFFFFFFFFFFFFFFFFFFFFFFFFFFFFFFFFFFF AND DUP2 MSTORE PUSH1 0x20 ADD SWAP1 DUP2 MSTORE PUSH1 0x20 ADD PUSH1 0x0 KECCAK256 PUSH1 0x0 DUP7 PUSH20 0xFFFFFFFFFFFFFFFFFFFFFFFFFFFFFFFFFFFFFFFF AND PUSH20 0xFFFFFFFFFFFFFFFFFFFFFFFFFFFFFFFFFFFFFFFF AND DUP2 MSTORE PUSH1 0x20 ADD SWAP1 DUP2 MSTORE PUSH1 0x20 ADD PUSH1 0x0 KECCAK256 DUP2 SWAP1 SSTORE POP PUSH2 0x962 JUMP JUMPDEST PUSH2 0x8E1 DUP4 DUP3 PUSH2 0x1283 SWAP1 SWAP2 SWAP1 PUSH4 0xFFFFFFFF AND JUMP JUMPDEST PUSH1 0x2 PUSH1 0x0 CALLER PUSH20 0xFFFFFFFFFFFFFFFFFFFFFFFFFFFFFFFFFFFFFFFF AND PUSH20 0xFFFFFFFFFFFFFFFFFFFFFFFFFFFFFFFFFFFFFFFF AND DUP2 MSTORE PUSH1 0x20 ADD SWAP1 DUP2 MSTORE PUSH1 0x20 ADD PUSH1 0x0 KECCAK256 PUSH1 0x0 DUP7 PUSH20 0xFFFFFFFFFFFFFFFFFFFFFFFFFFFFFFFFFFFFFFFF AND PUSH20 0xFFFFFFFFFFFFFFFFFFFFFFFFFFFFFFFFFFFFFFFF AND DUP2 MSTORE PUSH1 0x20 ADD SWAP1 DUP2 MSTORE PUSH1 0x20 ADD PUSH1 0x0 KECCAK256 DUP2 SWAP1 SSTORE POP JUMPDEST DUP4 PUSH20 0xFFFFFFFFFFFFFFFFFFFFFFFFFFFFFFFFFFFFFFFF AND CALLER PUSH20 0xFFFFFFFFFFFFFFFFFFFFFFFFFFFFFFFFFFFFFFFF AND PUSH32 0x8C5BE1E5EBEC7D5BD14F71427D1E84F3DD0314C0F7B2291E5B200AC8C7C3B925 PUSH1 0x2 PUSH1 0x0 CALLER PUSH20 0xFFFFFFFFFFFFFFFFFFFFFFFFFFFFFFFFFFFFFFFF AND PUSH20 0xFFFFFFFFFFFFFFFFFFFFFFFFFFFFFFFFFFFFFFFF AND DUP2 MSTORE PUSH1 0x20 ADD SWAP1 DUP2 MSTORE PUSH1 0x20 ADD PUSH1 0x0 KECCAK256 PUSH1 0x0 DUP9 PUSH20 0xFFFFFFFFFFFFFFFFFFFFFFFFFFFFFFFFFFFFFFFF AND PUSH20 0xFFFFFFFFFFFFFFFFFFFFFFFFFFFFFFFFFFFFFFFF AND DUP2 MSTORE PUSH1 0x20 ADD SWAP1 DUP2 MSTORE PUSH1 0x20 ADD PUSH1 0x0 KECCAK256 SLOAD PUSH1 0x40 MLOAD DUP1 DUP3 DUP2 MSTORE PUSH1 0x20 ADD SWAP2 POP POP PUSH1 0x40 MLOAD DUP1 SWAP2 SUB SWAP1 LOG3 PUSH1 0x1 SWAP2 POP POP SWAP3 SWAP2 POP POP JUMP JUMPDEST PUSH1 0x0 PUSH1 0x1 PUSH1 0x0 DUP4 PUSH20 0xFFFFFFFFFFFFFFFFFFFFFFFFFFFFFFFFFFFFFFFF AND PUSH20 0xFFFFFFFFFFFFFFFFFFFFFFFFFFFFFFFFFFFFFFFF AND DUP2 MSTORE PUSH1 0x20 ADD SWAP1 DUP2 MSTORE PUSH1 0x20 ADD PUSH1 0x0 KECCAK256 SLOAD SWAP1 POP SWAP2 SWAP1 POP JUMP JUMPDEST PUSH1 0x40 DUP1 MLOAD SWAP1 DUP2 ADD PUSH1 0x40 MSTORE DUP1 PUSH1 0x4 DUP2 MSTORE PUSH1 0x20 ADD PUSH32 0x4C494E4B00000000000000000000000000000000000000000000000000000000 DUP2 MSTORE POP DUP2 JUMP JUMPDEST PUSH1 0x0 DUP3 PUSH1 0x0 PUSH20 0xFFFFFFFFFFFFFFFFFFFFFFFFFFFFFFFFFFFFFFFF AND DUP2 PUSH20 0xFFFFFFFFFFFFFFFFFFFFFFFFFFFFFFFFFFFFFFFF AND EQ ISZERO DUP1 ISZERO PUSH2 0xB3C JUMPI POP ADDRESS PUSH20 0xFFFFFFFFFFFFFFFFFFFFFFFFFFFFFFFFFFFFFFFF AND DUP2 PUSH20 0xFFFFFFFFFFFFFFFFFFFFFFFFFFFFFFFFFFFFFFFF AND EQ ISZERO JUMPDEST ISZERO ISZERO PUSH2 0xB47 JUMPI PUSH1 0x0 DUP1 REVERT JUMPDEST PUSH2 0xB51 DUP5 DUP5 PUSH2 0x129C JUMP JUMPDEST SWAP2 POP POP SWAP3 SWAP2 POP POP JUMP JUMPDEST PUSH1 0x0 PUSH2 0xBEB DUP3 PUSH1 0x2 PUSH1 0x0 CALLER PUSH20 0xFFFFFFFFFFFFFFFFFFFFFFFFFFFFFFFFFFFFFFFF AND PUSH20 0xFFFFFFFFFFFFFFFFFFFFFFFFFFFFFFFFFFFFFFFF AND DUP2 MSTORE PUSH1 0x20 ADD SWAP1 DUP2 MSTORE PUSH1 0x20 ADD PUSH1 0x0 KECCAK256 PUSH1 0x0 DUP7 PUSH20 0xFFFFFFFFFFFFFFFFFFFFFFFFFFFFFFFFFFFFFFFF AND PUSH20 0xFFFFFFFFFFFFFFFFFFFFFFFFFFFFFFFFFFFFFFFF AND DUP2 MSTORE PUSH1 0x20 ADD SWAP1 DUP2 MSTORE PUSH1 0x20 ADD PUSH1 0x0 KECCAK256 SLOAD PUSH2 0x1437 SWAP1 SWAP2 SWAP1 PUSH4 0xFFFFFFFF AND JUMP JUMPDEST PUSH1 0x2 PUSH1 0x0 CALLER PUSH20 0xFFFFFFFFFFFFFFFFFFFFFFFFFFFFFFFFFFFFFFFF AND PUSH20 0xFFFFFFFFFFFFFFFFFFFFFFFFFFFFFFFFFFFFFFFF AND DUP2 MSTORE PUSH1 0x20 ADD SWAP1 DUP2 MSTORE PUSH1 0x20 ADD PUSH1 0x0 KECCAK256 PUSH1 0x0 DUP6 PUSH20 0xFFFFFFFFFFFFFFFFFFFFFFFFFFFFFFFFFFFFFFFF AND PUSH20 0xFFFFFFFFFFFFFFFFFFFFFFFFFFFFFFFFFFFFFFFF AND DUP2 MSTORE PUSH1 0x20 ADD SWAP1 DUP2 MSTORE PUSH1 0x20 ADD PUSH1 0x0 KECCAK256 DUP2 SWAP1 SSTORE POP DUP3 PUSH20 0xFFFFFFFFFFFFFFFFFFFFFFFFFFFFFFFFFFFFFFFF AND CALLER PUSH20 0xFFFFFFFFFFFFFFFFFFFFFFFFFFFFFFFFFFFFFFFF AND PUSH32 0x8C5BE1E5EBEC7D5BD14F71427D1E84F3DD0314C0F7B2291E5B200AC8C7C3B925 PUSH1 0x2 PUSH1 0x0 CALLER PUSH20 0xFFFFFFFFFFFFFFFFFFFFFFFFFFFFFFFFFFFFFFFF AND PUSH20 0xFFFFFFFFFFFFFFFFFFFFFFFFFFFFFFFFFFFFFFFF AND DUP2 MSTORE PUSH1 0x20 ADD SWAP1 DUP2 MSTORE PUSH1 0x20 ADD PUSH1 0x0 KECCAK256 PUSH1 0x0 DUP8 PUSH20 0xFFFFFFFFFFFFFFFFFFFFFFFFFFFFFFFFFFFFFFFF AND PUSH20 0xFFFFFFFFFFFFFFFFFFFFFFFFFFFFFFFFFFFFFFFF AND DUP2 MSTORE PUSH1 0x20 ADD SWAP1 DUP2 MSTORE PUSH1 0x20 ADD PUSH1 0x0 KECCAK256 SLOAD PUSH1 0x40 MLOAD DUP1 DUP3 DUP2 MSTORE PUSH1 0x20 ADD SWAP2 POP POP PUSH1 0x40 MLOAD DUP1 SWAP2 SUB SWAP1 LOG3 PUSH1 0x1 SWAP1 POP SWAP3 SWAP2 POP POP JUMP JUMPDEST PUSH1 0x0 PUSH1 0x2 PUSH1 0x0 DUP5 PUSH20 0xFFFFFFFFFFFFFFFFFFFFFFFFFFFFFFFFFFFFFFFF AND PUSH20 0xFFFFFFFFFFFFFFFFFFFFFFFFFFFFFFFFFFFFFFFF AND DUP2 MSTORE PUSH1 0x20 ADD SWAP1 DUP2 MSTORE PUSH1 0x20 ADD PUSH1 0x0 KECCAK256 PUSH1 0x0 DUP4 PUSH20 0xFFFFFFFFFFFFFFFFFFFFFFFFFFFFFFFFFFFFFFFF AND PUSH20 0xFFFFFFFFFFFFFFFFFFFFFFFFFFFFFFFFFFFFFFFF AND DUP2 MSTORE PUSH1 0x20 ADD SWAP1 DUP2 MSTORE PUSH1 0x20 ADD PUSH1 0x0 KECCAK256 SLOAD SWAP1 POP SWAP3 SWAP2 POP POP JUMP JUMPDEST PUSH1 0x0 DUP2 PUSH1 0x2 PUSH1 0x0 CALLER PUSH20 0xFFFFFFFFFFFFFFFFFFFFFFFFFFFFFFFFFFFFFFFF AND PUSH20 0xFFFFFFFFFFFFFFFFFFFFFFFFFFFFFFFFFFFFFFFF AND DUP2 MSTORE PUSH1 0x20 ADD SWAP1 DUP2 MSTORE PUSH1 0x20 ADD PUSH1 0x0 KECCAK256 PUSH1 0x0 DUP6 PUSH20 0xFFFFFFFFFFFFFFFFFFFFFFFFFFFFFFFFFFFFFFFF AND PUSH20 0xFFFFFFFFFFFFFFFFFFFFFFFFFFFFFFFFFFFFFFFF AND DUP2 MSTORE PUSH1 0x20 ADD SWAP1 DUP2 MSTORE PUSH1 0x20 ADD PUSH1 0x0 KECCAK256 DUP2 SWAP1 SSTORE POP DUP3 PUSH20 0xFFFFFFFFFFFFFFFFFFFFFFFFFFFFFFFFFFFFFFFF AND CALLER PUSH20 0xFFFFFFFFFFFFFFFFFFFFFFFFFFFFFFFFFFFFFFFF AND PUSH32 0x8C5BE1E5EBEC7D5BD14F71427D1E84F3DD0314C0F7B2291E5B200AC8C7C3B925 DUP5 PUSH1 0x40 MLOAD DUP1 DUP3 DUP2 MSTORE PUSH1 0x20 ADD SWAP2 POP POP PUSH1 0x40 MLOAD DUP1 SWAP2 SUB SWAP1 LOG3 PUSH1 0x1 SWAP1 POP SWAP3 SWAP2 POP POP JUMP JUMPDEST PUSH1 0x0 DUP1 PUSH1 0x2 PUSH1 0x0 DUP7 PUSH20 0xFFFFFFFFFFFFFFFFFFFFFFFFFFFFFFFFFFFFFFFF AND PUSH20 0xFFFFFFFFFFFFFFFFFFFFFFFFFFFFFFFFFFFFFFFF AND DUP2 MSTORE PUSH1 0x20 ADD SWAP1 DUP2 MSTORE PUSH1 0x20 ADD PUSH1 0x0 KECCAK256 PUSH1 0x0 CALLER PUSH20 0xFFFFFFFFFFFFFFFFFFFFFFFFFFFFFFFFFFFFFFFF AND PUSH20 0xFFFFFFFFFFFFFFFFFFFFFFFFFFFFFFFFFFFFFFFF AND DUP2 MSTORE PUSH1 0x20 ADD SWAP1 DUP2 MSTORE PUSH1 0x20 ADD PUSH1 0x0 KECCAK256 SLOAD SWAP1 POP PUSH2 0xFA3 DUP4 PUSH1 0x1 PUSH1 0x0 DUP9 PUSH20 0xFFFFFFFFFFFFFFFFFFFFFFFFFFFFFFFFFFFFFFFF AND PUSH20 0xFFFFFFFFFFFFFFFFFFFFFFFFFFFFFFFFFFFFFFFF AND DUP2 MSTORE PUSH1 0x20 ADD SWAP1 DUP2 MSTORE PUSH1 0x20 ADD PUSH1 0x0 KECCAK256 SLOAD PUSH2 0x1283 SWAP1 SWAP2 SWAP1 PUSH4 0xFFFFFFFF AND JUMP JUMPDEST PUSH1 0x1 PUSH1 0x0 DUP8 PUSH20 0xFFFFFFFFFFFFFFFFFFFFFFFFFFFFFFFFFFFFFFFF AND PUSH20 0xFFFFFFFFFFFFFFFFFFFFFFFFFFFFFFFFFFFFFFFF AND DUP2 MSTORE PUSH1 0x20 ADD SWAP1 DUP2 MSTORE PUSH1 0x20 ADD PUSH1 0x0 KECCAK256 DUP2 SWAP1 SSTORE POP PUSH2 0x1038 DUP4 PUSH1 0x1 PUSH1 0x0 DUP8 PUSH20 0xFFFFFFFFFFFFFFFFFFFFFFFFFFFFFFFFFFFFFFFF AND PUSH20 0xFFFFFFFFFFFFFFFFFFFFFFFFFFFFFFFFFFFFFFFF AND DUP2 MSTORE PUSH1 0x20 ADD SWAP1 DUP2 MSTORE PUSH1 0x20 ADD PUSH1 0x0 KECCAK256 SLOAD PUSH2 0x1437 SWAP1 SWAP2 SWAP1 PUSH4 0xFFFFFFFF AND JUMP JUMPDEST PUSH1 0x1 PUSH1 0x0 DUP7 PUSH20 0xFFFFFFFFFFFFFFFFFFFFFFFFFFFFFFFFFFFFFFFF AND PUSH20 0xFFFFFFFFFFFFFFFFFFFFFFFFFFFFFFFFFFFFFFFF AND DUP2 MSTORE PUSH1 0x20 ADD SWAP1 DUP2 MSTORE PUSH1 0x20 ADD PUSH1 0x0 KECCAK256 DUP2 SWAP1 SSTORE POP PUSH2 0x108E DUP4 DUP3 PUSH2 0x1283 SWAP1 SWAP2 SWAP1 PUSH4 0xFFFFFFFF AND JUMP JUMPDEST PUSH1 0x2 PUSH1 0x0 DUP8 PUSH20 0xFFFFFFFFFFFFFFFFFFFFFFFFFFFFFFFFFFFFFFFF AND PUSH20 0xFFFFFFFFFFFFFFFFFFFFFFFFFFFFFFFFFFFFFFFF AND DUP2 MSTORE PUSH1 0x20 ADD SWAP1 DUP2 MSTORE PUSH1 0x20 ADD PUSH1 0x0 KECCAK256 PUSH1 0x0 CALLER PUSH20 0xFFFFFFFFFFFFFFFFFFFFFFFFFFFFFFFFFFFFFFFF AND PUSH20 0xFFFFFFFFFFFFFFFFFFFFFFFFFFFFFFFFFFFFFFFF AND DUP2 MSTORE PUSH1 0x20 ADD SWAP1 DUP2 MSTORE PUSH1 0x20 ADD PUSH1 0x0 KECCAK256 DUP2 SWAP1 SSTORE POP DUP4 PUSH20 0xFFFFFFFFFFFFFFFFFFFFFFFFFFFFFFFFFFFFFFFF AND DUP6 PUSH20 0xFFFFFFFFFFFFFFFFFFFFFFFFFFFFFFFFFFFFFFFF AND PUSH32 0xDDF252AD1BE2C89B69C2B068FC378DAA952BA7F163C4A11628F55A4DF523B3EF DUP6 PUSH1 0x40 MLOAD DUP1 DUP3 DUP2 MSTORE PUSH1 0x20 ADD SWAP2 POP POP PUSH1 0x40 MLOAD DUP1 SWAP2 SUB SWAP1 LOG3 PUSH1 0x1 SWAP2 POP POP SWAP4 SWAP3 POP POP POP JUMP JUMPDEST PUSH1 0x0 PUSH2 0x118B DUP5 DUP5 PUSH2 0x129C JUMP JUMPDEST POP DUP4 PUSH20 0xFFFFFFFFFFFFFFFFFFFFFFFFFFFFFFFFFFFFFFFF AND CALLER PUSH20 0xFFFFFFFFFFFFFFFFFFFFFFFFFFFFFFFFFFFFFFFF AND PUSH32 0xE19260AFF97B920C7DF27010903AEB9C8D2BE5D310A2C67824CF3F15396E4C16 DUP6 DUP6 PUSH1 0x40 MLOAD DUP1 DUP4 DUP2 MSTORE PUSH1 0x20 ADD DUP1 PUSH1 0x20 ADD DUP3 DUP2 SUB DUP3 MSTORE DUP4 DUP2 DUP2 MLOAD DUP2 MSTORE PUSH1 0x20 ADD SWAP2 POP DUP1 MLOAD SWAP1 PUSH1 0x20 ADD SWAP1 DUP1 DUP4 DUP4 PUSH1 0x0 JUMPDEST DUP4 DUP2 LT ISZERO PUSH2 0x1223 JUMPI DUP1 DUP3 ADD MLOAD DUP2 DUP5 ADD MSTORE PUSH1 0x20 DUP2 ADD SWAP1 POP PUSH2 0x1208 JUMP JUMPDEST POP POP POP POP SWAP1 POP SWAP1 DUP2 ADD SWAP1 PUSH1 0x1F AND DUP1 ISZERO PUSH2 0x1250 JUMPI DUP1 DUP3 SUB DUP1 MLOAD PUSH1 0x1 DUP4 PUSH1 0x20 SUB PUSH2 0x100 EXP SUB NOT AND DUP2 MSTORE PUSH1 0x20 ADD SWAP2 POP JUMPDEST POP SWAP4 POP POP POP POP PUSH1 0x40 MLOAD DUP1 SWAP2 SUB SWAP1 LOG3 PUSH2 0x1267 DUP5 PUSH2 0x1455 JUMP JUMPDEST ISZERO PUSH2 0x1278 JUMPI PUSH2 0x1277 DUP5 DUP5 DUP5 PUSH2 0x1468 JUMP JUMPDEST JUMPDEST PUSH1 0x1 SWAP1 POP SWAP4 SWAP3 POP POP POP JUMP JUMPDEST PUSH1 0x0 DUP3 DUP3 GT ISZERO ISZERO ISZERO PUSH2 0x1291 JUMPI INVALID JUMPDEST DUP2 DUP4 SUB SWAP1 POP SWAP3 SWAP2 POP POP JUMP JUMPDEST PUSH1 0x0 PUSH2 0x12F0 DUP3 PUSH1 0x1 PUSH1 0x0 CALLER PUSH20 0xFFFFFFFFFFFFFFFFFFFFFFFFFFFFFFFFFFFFFFFF AND PUSH20 0xFFFFFFFFFFFFFFFFFFFFFFFFFFFFFFFFFFFFFFFF AND DUP2 MSTORE PUSH1 0x20 ADD SWAP1 DUP2 MSTORE PUSH1 0x20 ADD PUSH1 0x0 KECCAK256 SLOAD PUSH2 0x1283 SWAP1 SWAP2 SWAP1 PUSH4 0xFFFFFFFF AND JUMP JUMPDEST PUSH1 0x1 PUSH1 0x0 CALLER PUSH20 0xFFFFFFFFFFFFFFFFFFFFFFFFFFFFFFFFFFFFFFFF AND PUSH20 0xFFFFFFFFFFFFFFFFFFFFFFFFFFFFFFFFFFFFFFFF AND DUP2 MSTORE PUSH1 0x20 ADD SWAP1 DUP2 MSTORE PUSH1 0x20 ADD PUSH1 0x0 KECCAK256 DUP2 SWAP1 SSTORE POP PUSH2 0x1385 DUP3 PUSH1 0x1 PUSH1 0x0 DUP7 PUSH20 0xFFFFFFFFFFFFFFFFFFFFFFFFFFFFFFFFFFFFFFFF AND PUSH20 0xFFFFFFFFFFFFFFFFFFFFFFFFFFFFFFFFFFFFFFFF AND DUP2 MSTORE PUSH1 0x20 ADD SWAP1 DUP2 MSTORE PUSH1 0x20 ADD PUSH1 0x0 KECCAK256 SLOAD PUSH2 0x1437 SWAP1 SWAP2 SWAP1 PUSH4 0xFFFFFFFF AND JUMP JUMPDEST PUSH1 0x1 PUSH1 0x0 DUP6 PUSH20 0xFFFFFFFFFFFFFFFFFFFFFFFFFFFFFFFFFFFFFFFF AND PUSH20 0xFFFFFFFFFFFFFFFFFFFFFFFFFFFFFFFFFFFFFFFF AND DUP2 MSTORE PUSH1 0x20 ADD SWAP1 DUP2 MSTORE PUSH1 0x20 ADD PUSH1 0x0 KECCAK256 DUP2 SWAP1 SSTORE POP DUP3 PUSH20 0xFFFFFFFFFFFFFFFFFFFFFFFFFFFFFFFFFFFFFFFF AND CALLER PUSH20 0xFFFFFFFFFFFFFFFFFFFFFFFFFFFFFFFFFFFFFFFF AND PUSH32 0xDDF252AD1BE2C89B69C2B068FC378DAA952BA7F163C4A11628F55A4DF523B3EF DUP5 PUSH1 0x40 MLOAD DUP1 DUP3 DUP2 MSTORE PUSH1 0x20 ADD SWAP2 POP POP PUSH1 0x40 MLOAD DUP1 SWAP2 SUB SWAP1 LOG3 PUSH1 0x1 SWAP1 POP SWAP3 SWAP2 POP POP JUMP JUMPDEST PUSH1 0x0 DUP1 DUP3 DUP5 ADD SWAP1 POP DUP4 DUP2 LT ISZERO ISZERO ISZERO PUSH2 0x144B JUMPI INVALID JUMPDEST DUP1 SWAP2 POP POP SWAP3 SWAP2 POP POP JUMP JUMPDEST PUSH1 0x0 DUP1 DUP3 EXTCODESIZE SWAP1 POP PUSH1 0x0 DUP2 GT SWAP2 POP POP SWAP2 SWAP1 POP JUMP JUMPDEST PUSH1 0x0 DUP4 SWAP1 POP DUP1 PUSH20 0xFFFFFFFFFFFFFFFFFFFFFFFFFFFFFFFFFFFFFFFF AND PUSH4 0xA4C0ED36 CALLER DUP6 DUP6 PUSH1 0x40 MLOAD DUP5 PUSH4 0xFFFFFFFF AND PUSH29 0x100000000000000000000000000000000000000000000000000000000 MUL DUP2 MSTORE PUSH1 0x4 ADD DUP1 DUP5 PUSH20 0xFFFFFFFFFFFFFFFFFFFFFFFFFFFFFFFFFFFFFFFF AND PUSH20 0xFFFFFFFFFFFFFFFFFFFFFFFFFFFFFFFFFFFFFFFF AND DUP2 MSTORE PUSH1 0x20 ADD DUP4 DUP2 MSTORE PUSH1 0x20 ADD DUP1 PUSH1 0x20 ADD DUP3 DUP2 SUB DUP3 MSTORE DUP4 DUP2 DUP2 MLOAD DUP2 MSTORE PUSH1 0x20 ADD SWAP2 POP DUP1 MLOAD SWAP1 PUSH1 0x20 ADD SWAP1 DUP1 DUP4 DUP4 PUSH1 0x0 JUMPDEST DUP4 DUP2 LT ISZERO PUSH2 0x152F JUMPI DUP1 DUP3 ADD MLOAD DUP2 DUP5 ADD MSTORE PUSH1 0x20 DUP2 ADD SWAP1 POP PUSH2 0x1514 JUMP JUMPDEST POP POP POP POP SWAP1 POP SWAP1 DUP2 ADD SWAP1 PUSH1 0x1F AND DUP1 ISZERO PUSH2 0x155C JUMPI DUP1 DUP3 SUB DUP1 MLOAD PUSH1 0x1 DUP4 PUSH1 0x20 SUB PUSH2 0x100 EXP SUB NOT AND DUP2 MSTORE PUSH1 0x20 ADD SWAP2 POP JUMPDEST POP SWAP5 POP POP POP POP POP PUSH1 0x0 PUSH1 0x40 MLOAD DUP1 DUP4 SUB DUP2 PUSH1 0x0 DUP8 DUP1 EXTCODESIZE ISZERO DUP1 ISZERO PUSH2 0x157D JUMPI PUSH1 0x0 DUP1 REVERT JUMPDEST POP GAS CALL ISZERO DUP1 ISZERO PUSH2 0x1591 JUMPI RETURNDATASIZE PUSH1 0x0 DUP1 RETURNDATACOPY RETURNDATASIZE PUSH1 0x0 REVERT JUMPDEST POP POP POP POP POP POP POP POP JUMP STOP LOG1 PUSH6 0x627A7A723058 KECCAK256 0xb8 ORIGIN SWAP1 DUP9 0x1f 0xd5 DUP6 0x2f 0x4b 0xc9 0xf6 RETURNDATASIZE SWAP14 DIV MUL 0xcc PUSH23 0xB6499A81498BC996F9ABEBC63A692D0029000000000000 "
				},
				"gasEstimates": {
					"creation": {
						"codeDepositCost": "1115000",
						"executionCost": "21263",
						"totalCost": "1136263"
					},
					"external": {
						"allowance(address,address)": "926",
						"approve(address,uint256)": "22495",
						"balanceOf(address)": "713",
						"decimals()": "294",
						"decreaseApproval(address,uint256)": "infinite",
						"increaseApproval(address,uint256)": "infinite",
						"name()": "infinite",
						"symbol()": "infinite",
						"totalSupply()": "238",
						"transfer(address,uint256)": "infinite",
						"transferAndCall(address,uint256,bytes)": "infinite",
						"transferFrom(address,address,uint256)": "infinite"
					}
				},
				"methodIdentifiers": {
					"allowance(address,address)": "dd62ed3e",
					"approve(address,uint256)": "095ea7b3",
					"balanceOf(address)": "70a08231",
					"decimals()": "313ce567",
					"decreaseApproval(address,uint256)": "66188463",
					"increaseApproval(address,uint256)": "d73dd623",
					"name()": "06fdde03",
					"symbol()": "95d89b41",
					"totalSupply()": "18160ddd",
					"transfer(address,uint256)": "a9059cbb",
					"transferAndCall(address,uint256,bytes)": "4000aea0",
					"transferFrom(address,address,uint256)": "23b872dd"
				}
			},
			"userdoc": {
				"methods": {}
			}
		}
	}
}