{
	"Users/leilei/Downloads/MasterChefV2/contracts/PancakeProfile.sol": {
		"PancakeProfile": {
			"abi": [
				{
					"inputs": [
						{
							"internalType": "contract IBEP20",
							"name": "_cakeToken",
							"type": "address"
						},
						{
							"internalType": "uint256",
							"name": "_numberCakeToReactivate",
							"type": "uint256"
						},
						{
							"internalType": "uint256",
							"name": "_numberCakeToRegister",
							"type": "uint256"
						},
						{
							"internalType": "uint256",
							"name": "_numberCakeToUpdate",
							"type": "uint256"
						}
					],
					"stateMutability": "nonpayable",
					"type": "constructor"
				},
				{
					"anonymous": false,
					"inputs": [
						{
							"indexed": true,
							"internalType": "bytes32",
							"name": "role",
							"type": "bytes32"
						},
						{
							"indexed": true,
							"internalType": "bytes32",
							"name": "previousAdminRole",
							"type": "bytes32"
						},
						{
							"indexed": true,
							"internalType": "bytes32",
							"name": "newAdminRole",
							"type": "bytes32"
						}
					],
					"name": "RoleAdminChanged",
					"type": "event"
				},
				{
					"anonymous": false,
					"inputs": [
						{
							"indexed": true,
							"internalType": "bytes32",
							"name": "role",
							"type": "bytes32"
						},
						{
							"indexed": true,
							"internalType": "address",
							"name": "account",
							"type": "address"
						},
						{
							"indexed": true,
							"internalType": "address",
							"name": "sender",
							"type": "address"
						}
					],
					"name": "RoleGranted",
					"type": "event"
				},
				{
					"anonymous": false,
					"inputs": [
						{
							"indexed": true,
							"internalType": "bytes32",
							"name": "role",
							"type": "bytes32"
						},
						{
							"indexed": true,
							"internalType": "address",
							"name": "account",
							"type": "address"
						},
						{
							"indexed": true,
							"internalType": "address",
							"name": "sender",
							"type": "address"
						}
					],
					"name": "RoleRevoked",
					"type": "event"
				},
				{
					"anonymous": false,
					"inputs": [
						{
							"indexed": false,
							"internalType": "uint256",
							"name": "teamId",
							"type": "uint256"
						},
						{
							"indexed": false,
							"internalType": "string",
							"name": "teamName",
							"type": "string"
						}
					],
					"name": "TeamAdd",
					"type": "event"
				},
				{
					"anonymous": false,
					"inputs": [
						{
							"indexed": true,
							"internalType": "uint256",
							"name": "teamId",
							"type": "uint256"
						},
						{
							"indexed": false,
							"internalType": "uint256",
							"name": "numberPoints",
							"type": "uint256"
						},
						{
							"indexed": true,
							"internalType": "uint256",
							"name": "campaignId",
							"type": "uint256"
						}
					],
					"name": "TeamPointIncrease",
					"type": "event"
				},
				{
					"anonymous": false,
					"inputs": [
						{
							"indexed": true,
							"internalType": "address",
							"name": "userAddress",
							"type": "address"
						},
						{
							"indexed": false,
							"internalType": "uint256",
							"name": "oldTeamId",
							"type": "uint256"
						},
						{
							"indexed": false,
							"internalType": "uint256",
							"name": "newTeamId",
							"type": "uint256"
						}
					],
					"name": "UserChangeTeam",
					"type": "event"
				},
				{
					"anonymous": false,
					"inputs": [
						{
							"indexed": true,
							"internalType": "address",
							"name": "userAddress",
							"type": "address"
						},
						{
							"indexed": false,
							"internalType": "uint256",
							"name": "teamId",
							"type": "uint256"
						},
						{
							"indexed": false,
							"internalType": "address",
							"name": "nftAddress",
							"type": "address"
						},
						{
							"indexed": false,
							"internalType": "uint256",
							"name": "tokenId",
							"type": "uint256"
						}
					],
					"name": "UserNew",
					"type": "event"
				},
				{
					"anonymous": false,
					"inputs": [
						{
							"indexed": true,
							"internalType": "address",
							"name": "userAddress",
							"type": "address"
						},
						{
							"indexed": false,
							"internalType": "uint256",
							"name": "teamId",
							"type": "uint256"
						}
					],
					"name": "UserPause",
					"type": "event"
				},
				{
					"anonymous": false,
					"inputs": [
						{
							"indexed": true,
							"internalType": "address",
							"name": "userAddress",
							"type": "address"
						},
						{
							"indexed": false,
							"internalType": "uint256",
							"name": "numberPoints",
							"type": "uint256"
						},
						{
							"indexed": true,
							"internalType": "uint256",
							"name": "campaignId",
							"type": "uint256"
						}
					],
					"name": "UserPointIncrease",
					"type": "event"
				},
				{
					"anonymous": false,
					"inputs": [
						{
							"indexed": false,
							"internalType": "address[]",
							"name": "userAddresses",
							"type": "address[]"
						},
						{
							"indexed": false,
							"internalType": "uint256",
							"name": "numberPoints",
							"type": "uint256"
						},
						{
							"indexed": true,
							"internalType": "uint256",
							"name": "campaignId",
							"type": "uint256"
						}
					],
					"name": "UserPointIncreaseMultiple",
					"type": "event"
				},
				{
					"anonymous": false,
					"inputs": [
						{
							"indexed": true,
							"internalType": "address",
							"name": "userAddress",
							"type": "address"
						},
						{
							"indexed": false,
							"internalType": "uint256",
							"name": "teamId",
							"type": "uint256"
						},
						{
							"indexed": false,
							"internalType": "address",
							"name": "nftAddress",
							"type": "address"
						},
						{
							"indexed": false,
							"internalType": "uint256",
							"name": "tokenId",
							"type": "uint256"
						}
					],
					"name": "UserReactivate",
					"type": "event"
				},
				{
					"anonymous": false,
					"inputs": [
						{
							"indexed": true,
							"internalType": "address",
							"name": "userAddress",
							"type": "address"
						},
						{
							"indexed": false,
							"internalType": "address",
							"name": "nftAddress",
							"type": "address"
						},
						{
							"indexed": false,
							"internalType": "uint256",
							"name": "tokenId",
							"type": "uint256"
						}
					],
					"name": "UserUpdate",
					"type": "event"
				},
				{
					"inputs": [],
					"name": "DEFAULT_ADMIN_ROLE",
					"outputs": [
						{
							"internalType": "bytes32",
							"name": "",
							"type": "bytes32"
						}
					],
					"stateMutability": "view",
					"type": "function"
				},
				{
					"inputs": [],
					"name": "NFT_ROLE",
					"outputs": [
						{
							"internalType": "bytes32",
							"name": "",
							"type": "bytes32"
						}
					],
					"stateMutability": "view",
					"type": "function"
				},
				{
					"inputs": [],
					"name": "POINT_ROLE",
					"outputs": [
						{
							"internalType": "bytes32",
							"name": "",
							"type": "bytes32"
						}
					],
					"stateMutability": "view",
					"type": "function"
				},
				{
					"inputs": [],
					"name": "SPECIAL_ROLE",
					"outputs": [
						{
							"internalType": "bytes32",
							"name": "",
							"type": "bytes32"
						}
					],
					"stateMutability": "view",
					"type": "function"
				},
				{
					"inputs": [
						{
							"internalType": "address",
							"name": "_nftAddress",
							"type": "address"
						}
					],
					"name": "addNftAddress",
					"outputs": [],
					"stateMutability": "nonpayable",
					"type": "function"
				},
				{
					"inputs": [
						{
							"internalType": "string",
							"name": "_teamName",
							"type": "string"
						},
						{
							"internalType": "string",
							"name": "_teamDescription",
							"type": "string"
						}
					],
					"name": "addTeam",
					"outputs": [],
					"stateMutability": "nonpayable",
					"type": "function"
				},
				{
					"inputs": [],
					"name": "cakeToken",
					"outputs": [
						{
							"internalType": "contract IBEP20",
							"name": "",
							"type": "address"
						}
					],
					"stateMutability": "view",
					"type": "function"
				},
				{
					"inputs": [
						{
							"internalType": "address",
							"name": "_userAddress",
							"type": "address"
						},
						{
							"internalType": "uint256",
							"name": "_newTeamId",
							"type": "uint256"
						}
					],
					"name": "changeTeam",
					"outputs": [],
					"stateMutability": "nonpayable",
					"type": "function"
				},
				{
					"inputs": [
						{
							"internalType": "uint256",
							"name": "_amount",
							"type": "uint256"
						}
					],
					"name": "claimFee",
					"outputs": [],
					"stateMutability": "nonpayable",
					"type": "function"
				},
				{
					"inputs": [
						{
							"internalType": "uint256",
							"name": "_teamId",
							"type": "uint256"
						},
						{
							"internalType": "address",
							"name": "_nftAddress",
							"type": "address"
						},
						{
							"internalType": "uint256",
							"name": "_tokenId",
							"type": "uint256"
						}
					],
					"name": "createProfile",
					"outputs": [],
					"stateMutability": "nonpayable",
					"type": "function"
				},
				{
					"inputs": [
						{
							"internalType": "bytes32",
							"name": "role",
							"type": "bytes32"
						}
					],
					"name": "getRoleAdmin",
					"outputs": [
						{
							"internalType": "bytes32",
							"name": "",
							"type": "bytes32"
						}
					],
					"stateMutability": "view",
					"type": "function"
				},
				{
					"inputs": [
						{
							"internalType": "bytes32",
							"name": "role",
							"type": "bytes32"
						},
						{
							"internalType": "uint256",
							"name": "index",
							"type": "uint256"
						}
					],
					"name": "getRoleMember",
					"outputs": [
						{
							"internalType": "address",
							"name": "",
							"type": "address"
						}
					],
					"stateMutability": "view",
					"type": "function"
				},
				{
					"inputs": [
						{
							"internalType": "bytes32",
							"name": "role",
							"type": "bytes32"
						}
					],
					"name": "getRoleMemberCount",
					"outputs": [
						{
							"internalType": "uint256",
							"name": "",
							"type": "uint256"
						}
					],
					"stateMutability": "view",
					"type": "function"
				},
				{
					"inputs": [
						{
							"internalType": "uint256",
							"name": "_teamId",
							"type": "uint256"
						}
					],
					"name": "getTeamProfile",
					"outputs": [
						{
							"internalType": "string",
							"name": "",
							"type": "string"
						},
						{
							"internalType": "string",
							"name": "",
							"type": "string"
						},
						{
							"internalType": "uint256",
							"name": "",
							"type": "uint256"
						},
						{
							"internalType": "uint256",
							"name": "",
							"type": "uint256"
						},
						{
							"internalType": "bool",
							"name": "",
							"type": "bool"
						}
					],
					"stateMutability": "view",
					"type": "function"
				},
				{
					"inputs": [
						{
							"internalType": "address",
							"name": "_userAddress",
							"type": "address"
						}
					],
					"name": "getUserProfile",
					"outputs": [
						{
							"internalType": "uint256",
							"name": "",
							"type": "uint256"
						},
						{
							"internalType": "uint256",
							"name": "",
							"type": "uint256"
						},
						{
							"internalType": "uint256",
							"name": "",
							"type": "uint256"
						},
						{
							"internalType": "address",
							"name": "",
							"type": "address"
						},
						{
							"internalType": "uint256",
							"name": "",
							"type": "uint256"
						},
						{
							"internalType": "bool",
							"name": "",
							"type": "bool"
						}
					],
					"stateMutability": "view",
					"type": "function"
				},
				{
					"inputs": [
						{
							"internalType": "address",
							"name": "_userAddress",
							"type": "address"
						}
					],
					"name": "getUserStatus",
					"outputs": [
						{
							"internalType": "bool",
							"name": "",
							"type": "bool"
						}
					],
					"stateMutability": "view",
					"type": "function"
				},
				{
					"inputs": [
						{
							"internalType": "bytes32",
							"name": "role",
							"type": "bytes32"
						},
						{
							"internalType": "address",
							"name": "account",
							"type": "address"
						}
					],
					"name": "grantRole",
					"outputs": [],
					"stateMutability": "nonpayable",
					"type": "function"
				},
				{
					"inputs": [
						{
							"internalType": "address",
							"name": "",
							"type": "address"
						}
					],
					"name": "hasRegistered",
					"outputs": [
						{
							"internalType": "bool",
							"name": "",
							"type": "bool"
						}
					],
					"stateMutability": "view",
					"type": "function"
				},
				{
					"inputs": [
						{
							"internalType": "bytes32",
							"name": "role",
							"type": "bytes32"
						},
						{
							"internalType": "address",
							"name": "account",
							"type": "address"
						}
					],
					"name": "hasRole",
					"outputs": [
						{
							"internalType": "bool",
							"name": "",
							"type": "bool"
						}
					],
					"stateMutability": "view",
					"type": "function"
				},
				{
					"inputs": [
						{
							"internalType": "uint256",
							"name": "_teamId",
							"type": "uint256"
						},
						{
							"internalType": "uint256",
							"name": "_numberPoints",
							"type": "uint256"
						},
						{
							"internalType": "uint256",
							"name": "_campaignId",
							"type": "uint256"
						}
					],
					"name": "increaseTeamPoints",
					"outputs": [],
					"stateMutability": "nonpayable",
					"type": "function"
				},
				{
					"inputs": [
						{
							"internalType": "address",
							"name": "_userAddress",
							"type": "address"
						},
						{
							"internalType": "uint256",
							"name": "_numberPoints",
							"type": "uint256"
						},
						{
							"internalType": "uint256",
							"name": "_campaignId",
							"type": "uint256"
						}
					],
					"name": "increaseUserPoints",
					"outputs": [],
					"stateMutability": "nonpayable",
					"type": "function"
				},
				{
					"inputs": [
						{
							"internalType": "address[]",
							"name": "_userAddresses",
							"type": "address[]"
						},
						{
							"internalType": "uint256",
							"name": "_numberPoints",
							"type": "uint256"
						},
						{
							"internalType": "uint256",
							"name": "_campaignId",
							"type": "uint256"
						}
					],
					"name": "increaseUserPointsMultiple",
					"outputs": [],
					"stateMutability": "nonpayable",
					"type": "function"
				},
				{
					"inputs": [
						{
							"internalType": "uint256",
							"name": "_teamId",
							"type": "uint256"
						}
					],
					"name": "makeTeamJoinable",
					"outputs": [],
					"stateMutability": "nonpayable",
					"type": "function"
				},
				{
					"inputs": [
						{
							"internalType": "uint256",
							"name": "_teamId",
							"type": "uint256"
						}
					],
					"name": "makeTeamNotJoinable",
					"outputs": [],
					"stateMutability": "nonpayable",
					"type": "function"
				},
				{
					"inputs": [],
					"name": "numberActiveProfiles",
					"outputs": [
						{
							"internalType": "uint256",
							"name": "",
							"type": "uint256"
						}
					],
					"stateMutability": "view",
					"type": "function"
				},
				{
					"inputs": [],
					"name": "numberCakeToReactivate",
					"outputs": [
						{
							"internalType": "uint256",
							"name": "",
							"type": "uint256"
						}
					],
					"stateMutability": "view",
					"type": "function"
				},
				{
					"inputs": [],
					"name": "numberCakeToRegister",
					"outputs": [
						{
							"internalType": "uint256",
							"name": "",
							"type": "uint256"
						}
					],
					"stateMutability": "view",
					"type": "function"
				},
				{
					"inputs": [],
					"name": "numberCakeToUpdate",
					"outputs": [
						{
							"internalType": "uint256",
							"name": "",
							"type": "uint256"
						}
					],
					"stateMutability": "view",
					"type": "function"
				},
				{
					"inputs": [],
					"name": "numberTeams",
					"outputs": [
						{
							"internalType": "uint256",
							"name": "",
							"type": "uint256"
						}
					],
					"stateMutability": "view",
					"type": "function"
				},
				{
					"inputs": [
						{
							"internalType": "address",
							"name": "",
							"type": "address"
						},
						{
							"internalType": "address",
							"name": "",
							"type": "address"
						},
						{
							"internalType": "uint256",
							"name": "",
							"type": "uint256"
						},
						{
							"internalType": "bytes",
							"name": "",
							"type": "bytes"
						}
					],
					"name": "onERC721Received",
					"outputs": [
						{
							"internalType": "bytes4",
							"name": "",
							"type": "bytes4"
						}
					],
					"stateMutability": "nonpayable",
					"type": "function"
				},
				{
					"inputs": [],
					"name": "pauseProfile",
					"outputs": [],
					"stateMutability": "nonpayable",
					"type": "function"
				},
				{
					"inputs": [
						{
							"internalType": "address",
							"name": "_nftAddress",
							"type": "address"
						},
						{
							"internalType": "uint256",
							"name": "_tokenId",
							"type": "uint256"
						}
					],
					"name": "reactivateProfile",
					"outputs": [],
					"stateMutability": "nonpayable",
					"type": "function"
				},
				{
					"inputs": [
						{
							"internalType": "uint256",
							"name": "_teamId",
							"type": "uint256"
						},
						{
							"internalType": "uint256",
							"name": "_numberPoints",
							"type": "uint256"
						}
					],
					"name": "removeTeamPoints",
					"outputs": [],
					"stateMutability": "nonpayable",
					"type": "function"
				},
				{
					"inputs": [
						{
							"internalType": "address",
							"name": "_userAddress",
							"type": "address"
						},
						{
							"internalType": "uint256",
							"name": "_numberPoints",
							"type": "uint256"
						}
					],
					"name": "removeUserPoints",
					"outputs": [],
					"stateMutability": "nonpayable",
					"type": "function"
				},
				{
					"inputs": [
						{
							"internalType": "address[]",
							"name": "_userAddresses",
							"type": "address[]"
						},
						{
							"internalType": "uint256",
							"name": "_numberPoints",
							"type": "uint256"
						}
					],
					"name": "removeUserPointsMultiple",
					"outputs": [],
					"stateMutability": "nonpayable",
					"type": "function"
				},
				{
					"inputs": [
						{
							"internalType": "uint256",
							"name": "_teamId",
							"type": "uint256"
						},
						{
							"internalType": "string",
							"name": "_teamName",
							"type": "string"
						},
						{
							"internalType": "string",
							"name": "_teamDescription",
							"type": "string"
						}
					],
					"name": "renameTeam",
					"outputs": [],
					"stateMutability": "nonpayable",
					"type": "function"
				},
				{
					"inputs": [
						{
							"internalType": "bytes32",
							"name": "role",
							"type": "bytes32"
						},
						{
							"internalType": "address",
							"name": "account",
							"type": "address"
						}
					],
					"name": "renounceRole",
					"outputs": [],
					"stateMutability": "nonpayable",
					"type": "function"
				},
				{
					"inputs": [
						{
							"internalType": "bytes32",
							"name": "role",
							"type": "bytes32"
						},
						{
							"internalType": "address",
							"name": "account",
							"type": "address"
						}
					],
					"name": "revokeRole",
					"outputs": [],
					"stateMutability": "nonpayable",
					"type": "function"
				},
				{
					"inputs": [
						{
							"internalType": "uint256",
							"name": "_newNumberCakeToReactivate",
							"type": "uint256"
						},
						{
							"internalType": "uint256",
							"name": "_newNumberCakeToRegister",
							"type": "uint256"
						},
						{
							"internalType": "uint256",
							"name": "_newNumberCakeToUpdate",
							"type": "uint256"
						}
					],
					"name": "updateNumberCake",
					"outputs": [],
					"stateMutability": "nonpayable",
					"type": "function"
				},
				{
					"inputs": [
						{
							"internalType": "address",
							"name": "_nftAddress",
							"type": "address"
						},
						{
							"internalType": "uint256",
							"name": "_tokenId",
							"type": "uint256"
						}
					],
					"name": "updateProfile",
					"outputs": [],
					"stateMutability": "nonpayable",
					"type": "function"
				}
			],
			"devdoc": {
				"details": "It is a contract for users to bind their address  to a customizable profile by depositing a NFT.",
				"methods": {
					"addNftAddress(address)": {
						"details": "To add a NFT contract address for users to set their profile. Callable only by owner admins."
					},
					"addTeam(string,string)": {
						"details": "Add a new teamId Callable only by owner admins."
					},
					"changeTeam(address,uint256)": {
						"details": "Function to change team. Callable only by special admins."
					},
					"claimFee(uint256)": {
						"details": "Claim CAKE to burn later. Callable only by owner admins."
					},
					"createProfile(uint256,address,uint256)": {
						"details": "To create a user profile. It sends the NFT to the contract and sends CAKE to burn address. Requires 2 token approvals."
					},
					"getRoleAdmin(bytes32)": {
						"details": "Returns the admin role that controls `role`. See {grantRole} and {revokeRole}.     * To change a role's admin, use {_setRoleAdmin}."
					},
					"getRoleMember(bytes32,uint256)": {
						"details": "Returns one of the accounts that have `role`. `index` must be a value between 0 and {getRoleMemberCount}, non-inclusive.     * Role bearers are not sorted in any particular way, and their ordering may change at any point.     * WARNING: When using {getRoleMember} and {getRoleMemberCount}, make sure you perform all queries on the same block. See the following https://forum.openzeppelin.com/t/iterating-over-elements-on-enumerableset-in-openzeppelin-contracts/2296[forum post] for more information."
					},
					"getRoleMemberCount(bytes32)": {
						"details": "Returns the number of accounts that have `role`. Can be used together with {getRoleMember} to enumerate all bearers of a role."
					},
					"getTeamProfile(uint256)": {
						"details": "Check a team's profile"
					},
					"getUserProfile(address)": {
						"details": "Check the user's profile for a given address"
					},
					"getUserStatus(address)": {
						"details": "Check the user's status for a given address"
					},
					"grantRole(bytes32,address)": {
						"details": "Grants `role` to `account`.     * If `account` had not been already granted `role`, emits a {RoleGranted} event.     * Requirements:     * - the caller must have ``role``'s admin role."
					},
					"hasRole(bytes32,address)": {
						"details": "Returns `true` if `account` has been granted `role`."
					},
					"increaseTeamPoints(uint256,uint256,uint256)": {
						"details": "To increase the number of points for a team. Callable only by point admins"
					},
					"increaseUserPoints(address,uint256,uint256)": {
						"details": "To increase the number of points for a user. Callable only by point admins"
					},
					"increaseUserPointsMultiple(address[],uint256,uint256)": {
						"details": "To increase the number of points for a set of users. Callable only by point admins"
					},
					"makeTeamJoinable(uint256)": {
						"details": "Make a team joinable again. Callable only by owner admins."
					},
					"makeTeamNotJoinable(uint256)": {
						"details": "Make a team not joinable. Callable only by owner admins."
					},
					"onERC721Received(address,address,uint256,bytes)": {
						"details": "See {IERC721Receiver-onERC721Received}.     * Always returns `IERC721Receiver.onERC721Received.selector`."
					},
					"pauseProfile()": {
						"details": "To pause user profile. It releases the NFT. Callable only by registered users."
					},
					"reactivateProfile(address,uint256)": {
						"details": "To reactivate user profile. Callable only by registered users."
					},
					"removeTeamPoints(uint256,uint256)": {
						"details": "To remove the number of points for a team. Callable only by point admins"
					},
					"removeUserPoints(address,uint256)": {
						"details": "To remove the number of points for a user. Callable only by point admins"
					},
					"removeUserPointsMultiple(address[],uint256)": {
						"details": "To remove a set number of points for a set of users."
					},
					"renameTeam(uint256,string,string)": {
						"details": "Rename a team Callable only by owner admins."
					},
					"renounceRole(bytes32,address)": {
						"details": "Revokes `role` from the calling account.     * Roles are often managed via {grantRole} and {revokeRole}: this function's purpose is to provide a mechanism for accounts to lose their privileges if they are compromised (such as when a trusted device is misplaced).     * If the calling account had been granted `role`, emits a {RoleRevoked} event.     * Requirements:     * - the caller must be `account`."
					},
					"revokeRole(bytes32,address)": {
						"details": "Revokes `role` from `account`.     * If `account` had been granted `role`, emits a {RoleRevoked} event.     * Requirements:     * - the caller must have ``role``'s admin role."
					},
					"updateNumberCake(uint256,uint256,uint256)": {
						"details": "Update the number of CAKE to register Callable only by owner admins."
					},
					"updateProfile(address,uint256)": {
						"details": "To update user profile. Callable only by registered users."
					}
				},
				"title": "PancakeProfile."
			},
			"evm": {
				"assembly": "    /* \"Users/leilei/Downloads/MasterChefV2/contracts/PancakeProfile.sol\":47570:66289  contract PancakeProfile is AccessControl, ERC721Holder {... */\n  mstore(0x40, 0x80)\n    /* \"Users/leilei/Downloads/MasterChefV2/contracts/PancakeProfile.sol\":50822:51246  constructor(... */\n  callvalue\n    /* \"--CODEGEN--\":5:14   */\n  dup1\n    /* \"--CODEGEN--\":2:4   */\n  iszero\n  tag_1\n  jumpi\n    /* \"--CODEGEN--\":27:28   */\n  0x00\n    /* \"--CODEGEN--\":24:25   */\n  dup1\n    /* \"--CODEGEN--\":17:29   */\n  revert\n    /* \"--CODEGEN--\":2:4   */\ntag_1:\n    /* \"Users/leilei/Downloads/MasterChefV2/contracts/PancakeProfile.sol\":50822:51246  constructor(... */\n  pop\n  mload(0x40)\n  sub(codesize, bytecodeSize)\n  dup1\n  bytecodeSize\n  dup4\n  codecopy\n  dup2\n  dup2\n  add\n  0x40\n  mstore\n    /* \"--CODEGEN--\":15:18   */\n  0x80\n    /* \"--CODEGEN--\":10:13   */\n  dup2\n    /* \"--CODEGEN--\":7:19   */\n  lt\n    /* \"--CODEGEN--\":4:6   */\n  iszero\n  tag_2\n  jumpi\n    /* \"--CODEGEN--\":32:33   */\n  0x00\n    /* \"--CODEGEN--\":29:30   */\n  dup1\n    /* \"--CODEGEN--\":22:34   */\n  revert\n    /* \"--CODEGEN--\":4:6   */\ntag_2:\n  pop\n    /* \"Users/leilei/Downloads/MasterChefV2/contracts/PancakeProfile.sol\":50822:51246  constructor(... */\n  dup1\n  mload\n  0x20\n  dup3\n  add\n  mload\n  0x40\n  dup4\n  add\n  mload\n  0x60\n  swap1\n  swap4\n  add\n  mload\n    /* \"Users/leilei/Downloads/MasterChefV2/contracts/PancakeProfile.sol\":51001:51010  cakeToken */\n  0x01\n    /* \"Users/leilei/Downloads/MasterChefV2/contracts/PancakeProfile.sol\":51001:51023  cakeToken = _cakeToken */\n  dup1\n  sload\n  not(sub(shl(0xa0, 0x01), 0x01))\n  and\n  sub(shl(0xa0, 0x01), 0x01)\n  dup6\n  and\n  or\n  swap1\n  sstore\n    /* \"Users/leilei/Downloads/MasterChefV2/contracts/PancakeProfile.sol\":51033:51055  numberCakeToReactivate */\n  0x03\n    /* \"Users/leilei/Downloads/MasterChefV2/contracts/PancakeProfile.sol\":51033:51081  numberCakeToReactivate = _numberCakeToReactivate */\n  dup3\n  swap1\n  sstore\n    /* \"Users/leilei/Downloads/MasterChefV2/contracts/PancakeProfile.sol\":51091:51111  numberCakeToRegister */\n  0x04\n    /* \"Users/leilei/Downloads/MasterChefV2/contracts/PancakeProfile.sol\":51091:51135  numberCakeToRegister = _numberCakeToRegister */\n  dup5\n  swap1\n  sstore\n    /* \"Users/leilei/Downloads/MasterChefV2/contracts/PancakeProfile.sol\":51145:51163  numberCakeToUpdate */\n  0x05\n    /* \"Users/leilei/Downloads/MasterChefV2/contracts/PancakeProfile.sol\":51145:51185  numberCakeToUpdate = _numberCakeToUpdate */\n  dup2\n  swap1\n  sstore\n    /* \"Users/leilei/Downloads/MasterChefV2/contracts/PancakeProfile.sol\":50822:51246  constructor(... */\n  swap2\n  swap3\n  swap1\n  swap2\n    /* \"Users/leilei/Downloads/MasterChefV2/contracts/PancakeProfile.sol\":51195:51239  _setupRole(DEFAULT_ADMIN_ROLE, _msgSender()) */\n  tag_5\n  0x00\n    /* \"Users/leilei/Downloads/MasterChefV2/contracts/PancakeProfile.sol\":51226:51238  _msgSender() */\n  tag_6\n    /* \"Users/leilei/Downloads/MasterChefV2/contracts/PancakeProfile.sol\":51226:51236  _msgSender */\n  tag_7\n    /* \"Users/leilei/Downloads/MasterChefV2/contracts/PancakeProfile.sol\":51226:51238  _msgSender() */\n  jump\t// in\ntag_6:\n  sub(shl(0xe0, 0x01), 0x01)\n    /* \"Users/leilei/Downloads/MasterChefV2/contracts/PancakeProfile.sol\":51195:51205  _setupRole */\n  tag_8\n    /* \"Users/leilei/Downloads/MasterChefV2/contracts/PancakeProfile.sol\":51195:51239  _setupRole(DEFAULT_ADMIN_ROLE, _msgSender()) */\n  and\n  jump\t// in\ntag_5:\n    /* \"Users/leilei/Downloads/MasterChefV2/contracts/PancakeProfile.sol\":50822:51246  constructor(... */\n  pop\n  pop\n  pop\n  pop\n    /* \"Users/leilei/Downloads/MasterChefV2/contracts/PancakeProfile.sol\":47570:66289  contract PancakeProfile is AccessControl, ERC721Holder {... */\n  jump(tag_9)\n    /* \"Users/leilei/Downloads/MasterChefV2/contracts/PancakeProfile.sol\":17861:17965  function _msgSender() internal view virtual returns (address payable) {... */\ntag_7:\n    /* \"Users/leilei/Downloads/MasterChefV2/contracts/PancakeProfile.sol\":17948:17958  msg.sender */\n  caller\n    /* \"Users/leilei/Downloads/MasterChefV2/contracts/PancakeProfile.sol\":17861:17965  function _msgSender() internal view virtual returns (address payable) {... */\n  swap1\n  jump\t// out\n    /* \"Users/leilei/Downloads/MasterChefV2/contracts/PancakeProfile.sol\":24938:25048  function _setupRole(bytes32 role, address account) internal virtual {... */\ntag_8:\n    /* \"Users/leilei/Downloads/MasterChefV2/contracts/PancakeProfile.sol\":25016:25041  _grantRole(role, account) */\n  tag_12\n    /* \"Users/leilei/Downloads/MasterChefV2/contracts/PancakeProfile.sol\":25027:25031  role */\n  dup3\n    /* \"Users/leilei/Downloads/MasterChefV2/contracts/PancakeProfile.sol\":25033:25040  account */\n  dup3\n  sub(shl(0xe0, 0x01), 0x01)\n    /* \"Users/leilei/Downloads/MasterChefV2/contracts/PancakeProfile.sol\":25016:25026  _grantRole */\n  tag_13\n    /* \"Users/leilei/Downloads/MasterChefV2/contracts/PancakeProfile.sol\":25016:25041  _grantRole(role, account) */\n  and\n  jump\t// in\ntag_12:\n    /* \"Users/leilei/Downloads/MasterChefV2/contracts/PancakeProfile.sol\":24938:25048  function _setupRole(bytes32 role, address account) internal virtual {... */\n  pop\n  pop\n  jump\t// out\n    /* \"Users/leilei/Downloads/MasterChefV2/contracts/PancakeProfile.sol\":25375:25559  function _grantRole(bytes32 role, address account) private {... */\ntag_13:\n    /* \"Users/leilei/Downloads/MasterChefV2/contracts/PancakeProfile.sol\":25448:25454  _roles */\n  0x00\n    /* \"Users/leilei/Downloads/MasterChefV2/contracts/PancakeProfile.sol\":25448:25460  _roles[role] */\n  dup3\n  dup2\n  mstore\n  0x20\n  dup2\n  dup2\n  mstore\n  0x40\n  swap1\n  swap2\n  keccak256\n    /* \"Users/leilei/Downloads/MasterChefV2/contracts/PancakeProfile.sol\":25448:25481  _roles[role].members.add(account) */\n  tag_15\n  swap2\n    /* \"Users/leilei/Downloads/MasterChefV2/contracts/PancakeProfile.sol\":25473:25480  account */\n  dup4\n  swap1\n    /* \"Users/leilei/Downloads/MasterChefV2/contracts/PancakeProfile.sol\":25448:25472  _roles[role].members.add */\n  tag_0_464\n  tag_16\n  dup3\n  shl\n  or\n    /* \"Users/leilei/Downloads/MasterChefV2/contracts/PancakeProfile.sol\":25448:25481  _roles[role].members.add(account) */\n  swap1\n  shr\n  jump\t// in\ntag_15:\n    /* \"Users/leilei/Downloads/MasterChefV2/contracts/PancakeProfile.sol\":25444:25553  if (_roles[role].members.add(account)) {... */\n  iszero\n  tag_12\n  jumpi\n    /* \"Users/leilei/Downloads/MasterChefV2/contracts/PancakeProfile.sol\":25529:25541  _msgSender() */\n  tag_18\n  sub(shl(0xe0, 0x01), 0x01)\n    /* \"Users/leilei/Downloads/MasterChefV2/contracts/PancakeProfile.sol\":25529:25539  _msgSender */\n  tag_7\n    /* \"Users/leilei/Downloads/MasterChefV2/contracts/PancakeProfile.sol\":25529:25541  _msgSender() */\n  and\n  jump\t// in\ntag_18:\n  sub(shl(0xa0, 0x01), 0x01)\n    /* \"Users/leilei/Downloads/MasterChefV2/contracts/PancakeProfile.sol\":25502:25542  RoleGranted(role, account, _msgSender()) */\n  and\n    /* \"Users/leilei/Downloads/MasterChefV2/contracts/PancakeProfile.sol\":25520:25527  account */\n  dup2\n  sub(shl(0xa0, 0x01), 0x01)\n    /* \"Users/leilei/Downloads/MasterChefV2/contracts/PancakeProfile.sol\":25502:25542  RoleGranted(role, account, _msgSender()) */\n  and\n    /* \"Users/leilei/Downloads/MasterChefV2/contracts/PancakeProfile.sol\":25514:25518  role */\n  dup4\n    /* \"Users/leilei/Downloads/MasterChefV2/contracts/PancakeProfile.sol\":25502:25542  RoleGranted(role, account, _msgSender()) */\n  0x2f8788117e7eff1d82e926ec794901d17c78024a50270940304540a733656f0d\n  mload(0x40)\n  mload(0x40)\n  dup1\n  swap2\n  sub\n  swap1\n  log4\n    /* \"Users/leilei/Downloads/MasterChefV2/contracts/PancakeProfile.sol\":25375:25559  function _grantRole(bytes32 role, address account) private {... */\n  pop\n  pop\n  jump\t// out\n    /* \"Users/leilei/Downloads/MasterChefV2/contracts/PancakeProfile.sol\":6769:6930  function add(AddressSet storage set, address value)... */\ntag_16:\n    /* \"Users/leilei/Downloads/MasterChefV2/contracts/PancakeProfile.sol\":6855:6859  bool */\n  0x00\n    /* \"Users/leilei/Downloads/MasterChefV2/contracts/PancakeProfile.sol\":6882:6923  _add(set._inner, bytes32(uint256(value))) */\n  tag_20\n    /* \"Users/leilei/Downloads/MasterChefV2/contracts/PancakeProfile.sol\":6887:6890  set */\n  dup4\n  sub(shl(0xa0, 0x01), 0x01)\n    /* \"Users/leilei/Downloads/MasterChefV2/contracts/PancakeProfile.sol\":6907:6921  uint256(value) */\n  dup5\n  and\n  sub(shl(0xe0, 0x01), 0x01)\n    /* \"Users/leilei/Downloads/MasterChefV2/contracts/PancakeProfile.sol\":6882:6886  _add */\n  tag_21\n    /* \"Users/leilei/Downloads/MasterChefV2/contracts/PancakeProfile.sol\":6882:6923  _add(set._inner, bytes32(uint256(value))) */\n  and\n  jump\t// in\ntag_20:\n    /* \"Users/leilei/Downloads/MasterChefV2/contracts/PancakeProfile.sol\":6875:6923  return _add(set._inner, bytes32(uint256(value))) */\n  swap1\n  pop\n    /* \"Users/leilei/Downloads/MasterChefV2/contracts/PancakeProfile.sol\":6769:6930  function add(AddressSet storage set, address value)... */\ntag_19:\n  swap3\n  swap2\n  pop\n  pop\n  jump\t// out\n    /* \"Users/leilei/Downloads/MasterChefV2/contracts/PancakeProfile.sol\":1762:2166  function _add(Set storage set, bytes32 value) private returns (bool) {... */\ntag_21:\n    /* \"Users/leilei/Downloads/MasterChefV2/contracts/PancakeProfile.sol\":1825:1829  bool */\n  0x00\n    /* \"Users/leilei/Downloads/MasterChefV2/contracts/PancakeProfile.sol\":1846:1867  _contains(set, value) */\n  tag_23\n    /* \"Users/leilei/Downloads/MasterChefV2/contracts/PancakeProfile.sol\":1856:1859  set */\n  dup4\n    /* \"Users/leilei/Downloads/MasterChefV2/contracts/PancakeProfile.sol\":1861:1866  value */\n  dup4\n  sub(shl(0xe0, 0x01), 0x01)\n    /* \"Users/leilei/Downloads/MasterChefV2/contracts/PancakeProfile.sol\":1846:1855  _contains */\n  tag_24\n    /* \"Users/leilei/Downloads/MasterChefV2/contracts/PancakeProfile.sol\":1846:1867  _contains(set, value) */\n  and\n  jump\t// in\ntag_23:\n    /* \"Users/leilei/Downloads/MasterChefV2/contracts/PancakeProfile.sol\":1841:2160  if (!_contains(set, value)) {... */\n  tag_25\n  jumpi\n  pop\n    /* \"--CODEGEN--\":27:37   */\n  dup2\n  sload\n    /* \"--CODEGEN--\":39:40   */\n  0x01\n    /* \"--CODEGEN--\":23:41   */\n  dup2\n  dup2\n  add\n    /* \"--CODEGEN--\":45:68   */\n  dup5\n  sstore\n    /* \"Users/leilei/Downloads/MasterChefV2/contracts/PancakeProfile.sol\":1883:1894  set._values */\n  0x00\n    /* \"Users/leilei/Downloads/MasterChefV2/contracts/PancakeProfile.sol\":1883:1906  set._values.push(value) */\n  dup5\n  dup2\n  mstore\n  0x20\n  dup1\n  dup3\n  keccak256\n  swap1\n  swap4\n  add\n  dup5\n  swap1\n  sstore\n    /* \"Users/leilei/Downloads/MasterChefV2/contracts/PancakeProfile.sol\":2063:2081  set._values.length */\n  dup5\n  sload\n    /* \"Users/leilei/Downloads/MasterChefV2/contracts/PancakeProfile.sol\":2041:2060  set._indexes[value] */\n  dup5\n  dup3\n  mstore\n    /* \"Users/leilei/Downloads/MasterChefV2/contracts/PancakeProfile.sol\":2041:2053  set._indexes */\n  dup3\n  dup7\n  add\n    /* \"Users/leilei/Downloads/MasterChefV2/contracts/PancakeProfile.sol\":2041:2060  set._indexes[value] */\n  swap1\n  swap4\n  mstore\n  0x40\n  swap1\n  keccak256\n    /* \"Users/leilei/Downloads/MasterChefV2/contracts/PancakeProfile.sol\":2041:2081  set._indexes[value] = set._values.length */\n  swap2\n  swap1\n  swap2\n  sstore\n    /* \"Users/leilei/Downloads/MasterChefV2/contracts/PancakeProfile.sol\":2095:2106  return true */\n  jump(tag_19)\n    /* \"Users/leilei/Downloads/MasterChefV2/contracts/PancakeProfile.sol\":1841:2160  if (!_contains(set, value)) {... */\ntag_25:\n  pop\n    /* \"Users/leilei/Downloads/MasterChefV2/contracts/PancakeProfile.sol\":2144:2149  false */\n  0x00\n    /* \"Users/leilei/Downloads/MasterChefV2/contracts/PancakeProfile.sol\":2137:2149  return false */\n  jump(tag_19)\n    /* \"Users/leilei/Downloads/MasterChefV2/contracts/PancakeProfile.sol\":3939:4094  function _contains(Set storage set, bytes32 value)... */\ntag_24:\n    /* \"Users/leilei/Downloads/MasterChefV2/contracts/PancakeProfile.sol\":4036:4040  bool */\n  0x00\n    /* \"Users/leilei/Downloads/MasterChefV2/contracts/PancakeProfile.sol\":4063:4082  set._indexes[value] */\n  swap1\n  dup2\n  mstore\n    /* \"Users/leilei/Downloads/MasterChefV2/contracts/PancakeProfile.sol\":4063:4075  set._indexes */\n  0x01\n  swap2\n  swap1\n  swap2\n  add\n    /* \"Users/leilei/Downloads/MasterChefV2/contracts/PancakeProfile.sol\":4063:4082  set._indexes[value] */\n  0x20\n  mstore\n  0x40\n  swap1\n  keccak256\n  sload\n    /* \"Users/leilei/Downloads/MasterChefV2/contracts/PancakeProfile.sol\":4063:4087  set._indexes[value] != 0 */\n  iszero\n  iszero\n  swap1\n    /* \"Users/leilei/Downloads/MasterChefV2/contracts/PancakeProfile.sol\":3939:4094  function _contains(Set storage set, bytes32 value)... */\n  jump\t// out\n    /* \"Users/leilei/Downloads/MasterChefV2/contracts/PancakeProfile.sol\":47570:66289  contract PancakeProfile is AccessControl, ERC721Holder {... */\ntag_9:\n  dataSize(sub_0)\n  dup1\n  dataOffset(sub_0)\n  0x00\n  codecopy\n  0x00\n  return\nstop\n\nsub_0: assembly {\n        /* \"Users/leilei/Downloads/MasterChefV2/contracts/PancakeProfile.sol\":47570:66289  contract PancakeProfile is AccessControl, ERC721Holder {... */\n      mstore(0x40, 0x80)\n      callvalue\n        /* \"--CODEGEN--\":5:14   */\n      dup1\n        /* \"--CODEGEN--\":2:4   */\n      iszero\n      tag_1\n      jumpi\n        /* \"--CODEGEN--\":27:28   */\n      0x00\n        /* \"--CODEGEN--\":24:25   */\n      dup1\n        /* \"--CODEGEN--\":17:29   */\n      revert\n        /* \"--CODEGEN--\":2:4   */\n    tag_1:\n        /* \"Users/leilei/Downloads/MasterChefV2/contracts/PancakeProfile.sol\":47570:66289  contract PancakeProfile is AccessControl, ERC721Holder {... */\n      pop\n      jumpi(tag_2, lt(calldatasize, 0x04))\n      shr(0xe0, calldataload(0x00))\n      dup1\n      0xa217fddf\n      gt\n      tag_43\n      jumpi\n      dup1\n      0xd547741f\n      gt\n      tag_44\n      jumpi\n      dup1\n      0xea0d5dcd\n      gt\n      tag_45\n      jumpi\n      dup1\n      0xea0d5dcd\n      eq\n      tag_38\n      jumpi\n      dup1\n      0xebc4ffc7\n      eq\n      tag_39\n      jumpi\n      dup1\n      0xf667526a\n      eq\n      tag_40\n      jumpi\n      dup1\n      0xf684f33c\n      eq\n      tag_41\n      jumpi\n      dup1\n      0xfd825f58\n      eq\n      tag_42\n      jumpi\n      jump(tag_2)\n    tag_45:\n      dup1\n      0xd547741f\n      eq\n      tag_33\n      jumpi\n      dup1\n      0xda83fe4a\n      eq\n      tag_34\n      jumpi\n      dup1\n      0xda95006d\n      eq\n      tag_35\n      jumpi\n      dup1\n      0xe2fa2ff3\n      eq\n      tag_36\n      jumpi\n      dup1\n      0xe5020a62\n      eq\n      tag_37\n      jumpi\n      jump(tag_2)\n    tag_44:\n      dup1\n      0xbf051c13\n      gt\n      tag_46\n      jumpi\n      dup1\n      0xbf051c13\n      eq\n      tag_28\n      jumpi\n      dup1\n      0xc1694a2f\n      eq\n      tag_29\n      jumpi\n      dup1\n      0xc9bed948\n      eq\n      tag_30\n      jumpi\n      dup1\n      0xca15c873\n      eq\n      tag_31\n      jumpi\n      dup1\n      0xd1d0954c\n      eq\n      tag_32\n      jumpi\n      jump(tag_2)\n    tag_46:\n      dup1\n      0xa217fddf\n      eq\n      tag_23\n      jumpi\n      dup1\n      0xa40601ee\n      eq\n      tag_24\n      jumpi\n      dup1\n      0xa56bd1de\n      eq\n      tag_25\n      jumpi\n      dup1\n      0xaee2f47f\n      eq\n      tag_26\n      jumpi\n      dup1\n      0xbe4f9bd6\n      eq\n      tag_27\n      jumpi\n      jump(tag_2)\n    tag_43:\n      dup1\n      0x36568abe\n      gt\n      tag_47\n      jumpi\n      dup1\n      0x8904bf2f\n      gt\n      tag_48\n      jumpi\n      dup1\n      0x8904bf2f\n      eq\n      tag_18\n      jumpi\n      dup1\n      0x9010d07c\n      eq\n      tag_19\n      jumpi\n      dup1\n      0x91d14854\n      eq\n      tag_20\n      jumpi\n      dup1\n      0x987ee156\n      eq\n      tag_21\n      jumpi\n      dup1\n      0xa0d03526\n      eq\n      tag_22\n      jumpi\n      jump(tag_2)\n    tag_48:\n      dup1\n      0x36568abe\n      eq\n      tag_13\n      jumpi\n      dup1\n      0x3dd452d6\n      eq\n      tag_14\n      jumpi\n      dup1\n      0x49b2cff5\n      eq\n      tag_15\n      jumpi\n      dup1\n      0x5da3c240\n      eq\n      tag_16\n      jumpi\n      dup1\n      0x5db34566\n      eq\n      tag_17\n      jumpi\n      jump(tag_2)\n    tag_47:\n      dup1\n      0x1e47a476\n      gt\n      tag_49\n      jumpi\n      dup1\n      0x1e47a476\n      eq\n      tag_8\n      jumpi\n      dup1\n      0x218188d7\n      eq\n      tag_9\n      jumpi\n      dup1\n      0x248a9ca3\n      eq\n      tag_10\n      jumpi\n      dup1\n      0x2daa72d4\n      eq\n      tag_11\n      jumpi\n      dup1\n      0x2f2ff15d\n      eq\n      tag_12\n      jumpi\n      jump(tag_2)\n    tag_49:\n      dup1\n      0x0a82697b\n      eq\n      tag_3\n      jumpi\n      dup1\n      0x0d4fb803\n      eq\n      tag_4\n      jumpi\n      dup1\n      0x150b7a02\n      eq\n      tag_5\n      jumpi\n      dup1\n      0x1bdc17f6\n      eq\n      tag_6\n      jumpi\n      dup1\n      0x1d0c02b9\n      eq\n      tag_7\n      jumpi\n    tag_2:\n        /* \"--CODEGEN--\":12:13   */\n      0x00\n        /* \"--CODEGEN--\":9:10   */\n      dup1\n        /* \"--CODEGEN--\":2:14   */\n      revert\n        /* \"Users/leilei/Downloads/MasterChefV2/contracts/PancakeProfile.sol\":54662:56096  function updateProfile(address _nftAddress, uint256 _tokenId) external {... */\n    tag_3:\n      tag_50\n      0x04\n      dup1\n      calldatasize\n      sub\n        /* \"--CODEGEN--\":15:17   */\n      0x40\n        /* \"--CODEGEN--\":10:13   */\n      dup2\n        /* \"--CODEGEN--\":7:18   */\n      lt\n        /* \"--CODEGEN--\":4:6   */\n      iszero\n      tag_51\n      jumpi\n        /* \"--CODEGEN--\":31:32   */\n      0x00\n        /* \"--CODEGEN--\":28:29   */\n      dup1\n        /* \"--CODEGEN--\":21:33   */\n      revert\n        /* \"--CODEGEN--\":4:6   */\n    tag_51:\n      pop\n      sub(shl(0xa0, 0x01), 0x01)\n        /* \"Users/leilei/Downloads/MasterChefV2/contracts/PancakeProfile.sol\":54662:56096  function updateProfile(address _nftAddress, uint256 _tokenId) external {... */\n      dup2\n      calldataload\n      and\n      swap1\n      0x20\n      add\n      calldataload\n      tag_52\n      jump\t// in\n    tag_50:\n      stop\n        /* \"Users/leilei/Downloads/MasterChefV2/contracts/PancakeProfile.sol\":61067:61875  function addTeam(... */\n    tag_4:\n      tag_50\n      0x04\n      dup1\n      calldatasize\n      sub\n        /* \"--CODEGEN--\":15:17   */\n      0x40\n        /* \"--CODEGEN--\":10:13   */\n      dup2\n        /* \"--CODEGEN--\":7:18   */\n      lt\n        /* \"--CODEGEN--\":4:6   */\n      iszero\n      tag_54\n      jumpi\n        /* \"--CODEGEN--\":31:32   */\n      0x00\n        /* \"--CODEGEN--\":28:29   */\n      dup1\n        /* \"--CODEGEN--\":21:33   */\n      revert\n        /* \"--CODEGEN--\":4:6   */\n    tag_54:\n        /* \"Users/leilei/Downloads/MasterChefV2/contracts/PancakeProfile.sol\":61067:61875  function addTeam(... */\n      dup2\n      add\n      swap1\n      0x20\n      dup2\n      add\n      dup2\n      calldataload\n      shl(0x20, 0x01)\n        /* \"--CODEGEN--\":11:39   */\n      dup2\n      gt\n        /* \"--CODEGEN--\":8:10   */\n      iszero\n      tag_55\n      jumpi\n        /* \"--CODEGEN--\":52:53   */\n      0x00\n        /* \"--CODEGEN--\":49:50   */\n      dup1\n        /* \"--CODEGEN--\":42:54   */\n      revert\n        /* \"--CODEGEN--\":8:10   */\n    tag_55:\n        /* \"Users/leilei/Downloads/MasterChefV2/contracts/PancakeProfile.sol\":61067:61875  function addTeam(... */\n      dup3\n      add\n        /* \"--CODEGEN--\":41:50   */\n      dup4\n        /* \"--CODEGEN--\":34:38   */\n      0x20\n        /* \"--CODEGEN--\":18:32   */\n      dup3\n        /* \"--CODEGEN--\":14:39   */\n      add\n        /* \"--CODEGEN--\":11:51   */\n      gt\n        /* \"--CODEGEN--\":8:10   */\n      iszero\n      tag_56\n      jumpi\n        /* \"--CODEGEN--\":64:65   */\n      0x00\n        /* \"--CODEGEN--\":61:62   */\n      dup1\n        /* \"--CODEGEN--\":54:66   */\n      revert\n        /* \"--CODEGEN--\":8:10   */\n    tag_56:\n        /* \"Users/leilei/Downloads/MasterChefV2/contracts/PancakeProfile.sol\":61067:61875  function addTeam(... */\n      dup1\n      calldataload\n      swap1\n      0x20\n      add\n      swap2\n        /* \"--CODEGEN--\":100:109   */\n      dup5\n        /* \"--CODEGEN--\":95:96   */\n      0x01\n        /* \"--CODEGEN--\":81:93   */\n      dup4\n        /* \"--CODEGEN--\":77:97   */\n      mul\n        /* \"--CODEGEN--\":67:75   */\n      dup5\n        /* \"--CODEGEN--\":63:98   */\n      add\n        /* \"--CODEGEN--\":60:110   */\n      gt\n      shl(0x20, 0x01)\n        /* \"--CODEGEN--\":25:37   */\n      dup4\n        /* \"--CODEGEN--\":22:51   */\n      gt\n        /* \"--CODEGEN--\":11:118   */\n      or\n        /* \"--CODEGEN--\":8:10   */\n      iszero\n      tag_57\n      jumpi\n        /* \"--CODEGEN--\":131:132   */\n      0x00\n        /* \"--CODEGEN--\":128:129   */\n      dup1\n        /* \"--CODEGEN--\":121:133   */\n      revert\n        /* \"--CODEGEN--\":8:10   */\n    tag_57:\n        /* \"Users/leilei/Downloads/MasterChefV2/contracts/PancakeProfile.sol\":61067:61875  function addTeam(... */\n      swap2\n      swap4\n      swap1\n      swap3\n      swap1\n      swap2\n      0x20\n      dup2\n      add\n      swap1\n      calldataload\n      shl(0x20, 0x01)\n        /* \"--CODEGEN--\":11:39   */\n      dup2\n      gt\n        /* \"--CODEGEN--\":8:10   */\n      iszero\n      tag_58\n      jumpi\n        /* \"--CODEGEN--\":52:53   */\n      0x00\n        /* \"--CODEGEN--\":49:50   */\n      dup1\n        /* \"--CODEGEN--\":42:54   */\n      revert\n        /* \"--CODEGEN--\":8:10   */\n    tag_58:\n        /* \"Users/leilei/Downloads/MasterChefV2/contracts/PancakeProfile.sol\":61067:61875  function addTeam(... */\n      dup3\n      add\n        /* \"--CODEGEN--\":41:50   */\n      dup4\n        /* \"--CODEGEN--\":34:38   */\n      0x20\n        /* \"--CODEGEN--\":18:32   */\n      dup3\n        /* \"--CODEGEN--\":14:39   */\n      add\n        /* \"--CODEGEN--\":11:51   */\n      gt\n        /* \"--CODEGEN--\":8:10   */\n      iszero\n      tag_59\n      jumpi\n        /* \"--CODEGEN--\":64:65   */\n      0x00\n        /* \"--CODEGEN--\":61:62   */\n      dup1\n        /* \"--CODEGEN--\":54:66   */\n      revert\n        /* \"--CODEGEN--\":8:10   */\n    tag_59:\n        /* \"Users/leilei/Downloads/MasterChefV2/contracts/PancakeProfile.sol\":61067:61875  function addTeam(... */\n      dup1\n      calldataload\n      swap1\n      0x20\n      add\n      swap2\n        /* \"--CODEGEN--\":100:109   */\n      dup5\n        /* \"--CODEGEN--\":95:96   */\n      0x01\n        /* \"--CODEGEN--\":81:93   */\n      dup4\n        /* \"--CODEGEN--\":77:97   */\n      mul\n        /* \"--CODEGEN--\":67:75   */\n      dup5\n        /* \"--CODEGEN--\":63:98   */\n      add\n        /* \"--CODEGEN--\":60:110   */\n      gt\n      shl(0x20, 0x01)\n        /* \"--CODEGEN--\":25:37   */\n      dup4\n        /* \"--CODEGEN--\":22:51   */\n      gt\n        /* \"--CODEGEN--\":11:118   */\n      or\n        /* \"--CODEGEN--\":8:10   */\n      iszero\n      tag_60\n      jumpi\n        /* \"--CODEGEN--\":131:132   */\n      0x00\n        /* \"--CODEGEN--\":128:129   */\n      dup1\n        /* \"--CODEGEN--\":121:133   */\n      revert\n        /* \"--CODEGEN--\":8:10   */\n    tag_60:\n      pop\n        /* \"Users/leilei/Downloads/MasterChefV2/contracts/PancakeProfile.sol\":61067:61875  function addTeam(... */\n      swap1\n      swap3\n      pop\n      swap1\n      pop\n      tag_61\n      jump\t// in\n        /* \"Users/leilei/Downloads/MasterChefV2/contracts/PancakeProfile.sol\":39667:39867  function onERC721Received(... */\n    tag_5:\n      tag_62\n      0x04\n      dup1\n      calldatasize\n      sub\n        /* \"--CODEGEN--\":15:18   */\n      0x80\n        /* \"--CODEGEN--\":10:13   */\n      dup2\n        /* \"--CODEGEN--\":7:19   */\n      lt\n        /* \"--CODEGEN--\":4:6   */\n      iszero\n      tag_63\n      jumpi\n        /* \"--CODEGEN--\":32:33   */\n      0x00\n        /* \"--CODEGEN--\":29:30   */\n      dup1\n        /* \"--CODEGEN--\":22:34   */\n      revert\n        /* \"--CODEGEN--\":4:6   */\n    tag_63:\n      sub(shl(0xa0, 0x01), 0x01)\n        /* \"Users/leilei/Downloads/MasterChefV2/contracts/PancakeProfile.sol\":39667:39867  function onERC721Received(... */\n      dup3\n      calldataload\n      dup2\n      and\n      swap3\n      0x20\n      dup2\n      add\n      calldataload\n      swap1\n      swap2\n      and\n      swap2\n      0x40\n      dup3\n      add\n      calldataload\n      swap2\n      swap1\n      dup2\n      add\n      swap1\n      0x80\n      dup2\n      add\n      0x60\n      dup3\n      add\n      calldataload\n      shl(0x20, 0x01)\n        /* \"--CODEGEN--\":11:39   */\n      dup2\n      gt\n        /* \"--CODEGEN--\":8:10   */\n      iszero\n      tag_64\n      jumpi\n        /* \"--CODEGEN--\":52:53   */\n      0x00\n        /* \"--CODEGEN--\":49:50   */\n      dup1\n        /* \"--CODEGEN--\":42:54   */\n      revert\n        /* \"--CODEGEN--\":8:10   */\n    tag_64:\n        /* \"Users/leilei/Downloads/MasterChefV2/contracts/PancakeProfile.sol\":39667:39867  function onERC721Received(... */\n      dup3\n      add\n        /* \"--CODEGEN--\":41:50   */\n      dup4\n        /* \"--CODEGEN--\":34:38   */\n      0x20\n        /* \"--CODEGEN--\":18:32   */\n      dup3\n        /* \"--CODEGEN--\":14:39   */\n      add\n        /* \"--CODEGEN--\":11:51   */\n      gt\n        /* \"--CODEGEN--\":8:10   */\n      iszero\n      tag_65\n      jumpi\n        /* \"--CODEGEN--\":64:65   */\n      0x00\n        /* \"--CODEGEN--\":61:62   */\n      dup1\n        /* \"--CODEGEN--\":54:66   */\n      revert\n        /* \"--CODEGEN--\":8:10   */\n    tag_65:\n        /* \"Users/leilei/Downloads/MasterChefV2/contracts/PancakeProfile.sol\":39667:39867  function onERC721Received(... */\n      dup1\n      calldataload\n      swap1\n      0x20\n      add\n      swap2\n        /* \"--CODEGEN--\":100:109   */\n      dup5\n        /* \"--CODEGEN--\":95:96   */\n      0x01\n        /* \"--CODEGEN--\":81:93   */\n      dup4\n        /* \"--CODEGEN--\":77:97   */\n      mul\n        /* \"--CODEGEN--\":67:75   */\n      dup5\n        /* \"--CODEGEN--\":63:98   */\n      add\n        /* \"--CODEGEN--\":60:110   */\n      gt\n      shl(0x20, 0x01)\n        /* \"--CODEGEN--\":25:37   */\n      dup4\n        /* \"--CODEGEN--\":22:51   */\n      gt\n        /* \"--CODEGEN--\":11:118   */\n      or\n        /* \"--CODEGEN--\":8:10   */\n      iszero\n      tag_66\n      jumpi\n        /* \"--CODEGEN--\":131:132   */\n      0x00\n        /* \"--CODEGEN--\":128:129   */\n      dup1\n        /* \"--CODEGEN--\":121:133   */\n      revert\n        /* \"--CODEGEN--\":8:10   */\n    tag_66:\n        /* \"Users/leilei/Downloads/MasterChefV2/contracts/PancakeProfile.sol\":39667:39867  function onERC721Received(... */\n      swap2\n      swap1\n      dup1\n      dup1\n      0x1f\n      add\n      0x20\n      dup1\n      swap2\n      div\n      mul\n      0x20\n      add\n      mload(0x40)\n      swap1\n      dup2\n      add\n      0x40\n      mstore\n      dup1\n      swap4\n      swap3\n      swap2\n      swap1\n      dup2\n      dup2\n      mstore\n      0x20\n      add\n      dup4\n      dup4\n        /* \"--CODEGEN--\":30:33   */\n      dup1\n        /* \"--CODEGEN--\":22:28   */\n      dup3\n        /* \"--CODEGEN--\":14:20   */\n      dup5\n        /* \"--CODEGEN--\":1:34   */\n      calldatacopy\n        /* \"--CODEGEN--\":99:100   */\n      0x00\n        /* \"--CODEGEN--\":81:97   */\n      swap3\n      add\n        /* \"--CODEGEN--\":74:101   */\n      swap2\n      swap1\n      swap2\n      mstore\n      pop\n        /* \"Users/leilei/Downloads/MasterChefV2/contracts/PancakeProfile.sol\":39667:39867  function onERC721Received(... */\n      swap3\n      swap6\n      pop\n      tag_67\n      swap5\n      pop\n      pop\n      pop\n      pop\n      pop\n      jump\t// in\n    tag_62:\n      0x40\n      dup1\n      mload\n      not(sub(shl(0xe0, 0x01), 0x01))\n      swap1\n      swap3\n      and\n      dup3\n      mstore\n      mload\n      swap1\n      dup2\n      swap1\n      sub\n      0x20\n      add\n      swap1\n      return\n        /* \"Users/leilei/Downloads/MasterChefV2/contracts/PancakeProfile.sol\":57704:58101  function increaseUserPoints(... */\n    tag_6:\n      tag_50\n      0x04\n      dup1\n      calldatasize\n      sub\n        /* \"--CODEGEN--\":15:17   */\n      0x60\n        /* \"--CODEGEN--\":10:13   */\n      dup2\n        /* \"--CODEGEN--\":7:18   */\n      lt\n        /* \"--CODEGEN--\":4:6   */\n      iszero\n      tag_69\n      jumpi\n        /* \"--CODEGEN--\":31:32   */\n      0x00\n        /* \"--CODEGEN--\":28:29   */\n      dup1\n        /* \"--CODEGEN--\":21:33   */\n      revert\n        /* \"--CODEGEN--\":4:6   */\n    tag_69:\n      pop\n      sub(shl(0xa0, 0x01), 0x01)\n        /* \"Users/leilei/Downloads/MasterChefV2/contracts/PancakeProfile.sol\":57704:58101  function increaseUserPoints(... */\n      dup2\n      calldataload\n      and\n      swap1\n      0x20\n      dup2\n      add\n      calldataload\n      swap1\n      0x40\n      add\n      calldataload\n      tag_70\n      jump\t// in\n        /* \"Users/leilei/Downloads/MasterChefV2/contracts/PancakeProfile.sol\":48091:48124  uint256 public numberCakeToUpdate */\n    tag_7:\n      tag_71\n      tag_72\n      jump\t// in\n    tag_71:\n      0x40\n      dup1\n      mload\n      swap2\n      dup3\n      mstore\n      mload\n      swap1\n      dup2\n      swap1\n      sub\n      0x20\n      add\n      swap1\n      return\n        /* \"Users/leilei/Downloads/MasterChefV2/contracts/PancakeProfile.sol\":58931:59308  function increaseTeamPoints(... */\n    tag_8:\n      tag_50\n      0x04\n      dup1\n      calldatasize\n      sub\n        /* \"--CODEGEN--\":15:17   */\n      0x60\n        /* \"--CODEGEN--\":10:13   */\n      dup2\n        /* \"--CODEGEN--\":7:18   */\n      lt\n        /* \"--CODEGEN--\":4:6   */\n      iszero\n      tag_74\n      jumpi\n        /* \"--CODEGEN--\":31:32   */\n      0x00\n        /* \"--CODEGEN--\":28:29   */\n      dup1\n        /* \"--CODEGEN--\":21:33   */\n      revert\n        /* \"--CODEGEN--\":4:6   */\n    tag_74:\n      pop\n        /* \"Users/leilei/Downloads/MasterChefV2/contracts/PancakeProfile.sol\":58931:59308  function increaseTeamPoints(... */\n      dup1\n      calldataload\n      swap1\n      0x20\n      dup2\n      add\n      calldataload\n      swap1\n      0x40\n      add\n      calldataload\n      tag_75\n      jump\t// in\n        /* \"Users/leilei/Downloads/MasterChefV2/contracts/PancakeProfile.sol\":63550:63743  function makeTeamNotJoinable(uint256 _teamId) external onlyOwner {... */\n    tag_9:\n      tag_50\n      0x04\n      dup1\n      calldatasize\n      sub\n        /* \"--CODEGEN--\":15:17   */\n      0x20\n        /* \"--CODEGEN--\":10:13   */\n      dup2\n        /* \"--CODEGEN--\":7:18   */\n      lt\n        /* \"--CODEGEN--\":4:6   */\n      iszero\n      tag_77\n      jumpi\n        /* \"--CODEGEN--\":31:32   */\n      0x00\n        /* \"--CODEGEN--\":28:29   */\n      dup1\n        /* \"--CODEGEN--\":21:33   */\n      revert\n        /* \"--CODEGEN--\":4:6   */\n    tag_77:\n      pop\n        /* \"Users/leilei/Downloads/MasterChefV2/contracts/PancakeProfile.sol\":63550:63743  function makeTeamNotJoinable(uint256 _teamId) external onlyOwner {... */\n      calldataload\n      tag_78\n      jump\t// in\n        /* \"Users/leilei/Downloads/MasterChefV2/contracts/PancakeProfile.sol\":22530:22642  function getRoleAdmin(bytes32 role) public view returns (bytes32) {... */\n    tag_10:\n      tag_71\n      0x04\n      dup1\n      calldatasize\n      sub\n        /* \"--CODEGEN--\":15:17   */\n      0x20\n        /* \"--CODEGEN--\":10:13   */\n      dup2\n        /* \"--CODEGEN--\":7:18   */\n      lt\n        /* \"--CODEGEN--\":4:6   */\n      iszero\n      tag_80\n      jumpi\n        /* \"--CODEGEN--\":31:32   */\n      0x00\n        /* \"--CODEGEN--\":28:29   */\n      dup1\n        /* \"--CODEGEN--\":21:33   */\n      revert\n        /* \"--CODEGEN--\":4:6   */\n    tag_80:\n      pop\n        /* \"Users/leilei/Downloads/MasterChefV2/contracts/PancakeProfile.sol\":22530:22642  function getRoleAdmin(bytes32 role) public view returns (bytes32) {... */\n      calldataload\n      tag_81\n      jump\t// in\n        /* \"Users/leilei/Downloads/MasterChefV2/contracts/PancakeProfile.sol\":64480:64835  function updateNumberCake(... */\n    tag_11:\n      tag_50\n      0x04\n      dup1\n      calldatasize\n      sub\n        /* \"--CODEGEN--\":15:17   */\n      0x60\n        /* \"--CODEGEN--\":10:13   */\n      dup2\n        /* \"--CODEGEN--\":7:18   */\n      lt\n        /* \"--CODEGEN--\":4:6   */\n      iszero\n      tag_83\n      jumpi\n        /* \"--CODEGEN--\":31:32   */\n      0x00\n        /* \"--CODEGEN--\":28:29   */\n      dup1\n        /* \"--CODEGEN--\":21:33   */\n      revert\n        /* \"--CODEGEN--\":4:6   */\n    tag_83:\n      pop\n        /* \"Users/leilei/Downloads/MasterChefV2/contracts/PancakeProfile.sol\":64480:64835  function updateNumberCake(... */\n      dup1\n      calldataload\n      swap1\n      0x20\n      dup2\n      add\n      calldataload\n      swap1\n      0x40\n      add\n      calldataload\n      tag_84\n      jump\t// in\n        /* \"Users/leilei/Downloads/MasterChefV2/contracts/PancakeProfile.sol\":22892:23149  function grantRole(bytes32 role, address account) public virtual {... */\n    tag_12:\n      tag_50\n      0x04\n      dup1\n      calldatasize\n      sub\n        /* \"--CODEGEN--\":15:17   */\n      0x40\n        /* \"--CODEGEN--\":10:13   */\n      dup2\n        /* \"--CODEGEN--\":7:18   */\n      lt\n        /* \"--CODEGEN--\":4:6   */\n      iszero\n      tag_86\n      jumpi\n        /* \"--CODEGEN--\":31:32   */\n      0x00\n        /* \"--CODEGEN--\":28:29   */\n      dup1\n        /* \"--CODEGEN--\":21:33   */\n      revert\n        /* \"--CODEGEN--\":4:6   */\n    tag_86:\n      pop\n        /* \"Users/leilei/Downloads/MasterChefV2/contracts/PancakeProfile.sol\":22892:23149  function grantRole(bytes32 role, address account) public virtual {... */\n      dup1\n      calldataload\n      swap1\n      0x20\n      add\n      calldataload\n      sub(shl(0xa0, 0x01), 0x01)\n      and\n      tag_87\n      jump\t// in\n        /* \"Users/leilei/Downloads/MasterChefV2/contracts/PancakeProfile.sol\":24134:24373  function renounceRole(bytes32 role, address account) public virtual {... */\n    tag_13:\n      tag_50\n      0x04\n      dup1\n      calldatasize\n      sub\n        /* \"--CODEGEN--\":15:17   */\n      0x40\n        /* \"--CODEGEN--\":10:13   */\n      dup2\n        /* \"--CODEGEN--\":7:18   */\n      lt\n        /* \"--CODEGEN--\":4:6   */\n      iszero\n      tag_89\n      jumpi\n        /* \"--CODEGEN--\":31:32   */\n      0x00\n        /* \"--CODEGEN--\":28:29   */\n      dup1\n        /* \"--CODEGEN--\":21:33   */\n      revert\n        /* \"--CODEGEN--\":4:6   */\n    tag_89:\n      pop\n        /* \"Users/leilei/Downloads/MasterChefV2/contracts/PancakeProfile.sol\":24134:24373  function renounceRole(bytes32 role, address account) public virtual {... */\n      dup1\n      calldataload\n      swap1\n      0x20\n      add\n      calldataload\n      sub(shl(0xa0, 0x01), 0x01)\n      and\n      tag_90\n      jump\t// in\n        /* \"Users/leilei/Downloads/MasterChefV2/contracts/PancakeProfile.sol\":48130:48156  uint256 public numberTeams */\n    tag_14:\n      tag_71\n      tag_92\n      jump\t// in\n        /* \"Users/leilei/Downloads/MasterChefV2/contracts/PancakeProfile.sol\":48050:48085  uint256 public numberCakeToRegister */\n    tag_15:\n      tag_71\n      tag_94\n      jump\t// in\n        /* \"Users/leilei/Downloads/MasterChefV2/contracts/PancakeProfile.sol\":60749:60978  function addNftAddress(address _nftAddress) external onlyOwner {... */\n    tag_16:\n      tag_50\n      0x04\n      dup1\n      calldatasize\n      sub\n        /* \"--CODEGEN--\":15:17   */\n      0x20\n        /* \"--CODEGEN--\":10:13   */\n      dup2\n        /* \"--CODEGEN--\":7:18   */\n      lt\n        /* \"--CODEGEN--\":4:6   */\n      iszero\n      tag_96\n      jumpi\n        /* \"--CODEGEN--\":31:32   */\n      0x00\n        /* \"--CODEGEN--\":28:29   */\n      dup1\n        /* \"--CODEGEN--\":21:33   */\n      revert\n        /* \"--CODEGEN--\":4:6   */\n    tag_96:\n      pop\n        /* \"Users/leilei/Downloads/MasterChefV2/contracts/PancakeProfile.sol\":60749:60978  function addNftAddress(address _nftAddress) external onlyOwner {... */\n      calldataload\n      sub(shl(0xa0, 0x01), 0x01)\n      and\n      tag_97\n      jump\t// in\n        /* \"Users/leilei/Downloads/MasterChefV2/contracts/PancakeProfile.sol\":63829:64370  function renameTeam(... */\n    tag_17:\n      tag_50\n      0x04\n      dup1\n      calldatasize\n      sub\n        /* \"--CODEGEN--\":15:17   */\n      0x60\n        /* \"--CODEGEN--\":10:13   */\n      dup2\n        /* \"--CODEGEN--\":7:18   */\n      lt\n        /* \"--CODEGEN--\":4:6   */\n      iszero\n      tag_99\n      jumpi\n        /* \"--CODEGEN--\":31:32   */\n      0x00\n        /* \"--CODEGEN--\":28:29   */\n      dup1\n        /* \"--CODEGEN--\":21:33   */\n      revert\n        /* \"--CODEGEN--\":4:6   */\n    tag_99:\n        /* \"Users/leilei/Downloads/MasterChefV2/contracts/PancakeProfile.sol\":63829:64370  function renameTeam(... */\n      dup2\n      calldataload\n      swap2\n      swap1\n      dup2\n      add\n      swap1\n      0x40\n      dup2\n      add\n      0x20\n      dup3\n      add\n      calldataload\n      shl(0x20, 0x01)\n        /* \"--CODEGEN--\":11:39   */\n      dup2\n      gt\n        /* \"--CODEGEN--\":8:10   */\n      iszero\n      tag_100\n      jumpi\n        /* \"--CODEGEN--\":52:53   */\n      0x00\n        /* \"--CODEGEN--\":49:50   */\n      dup1\n        /* \"--CODEGEN--\":42:54   */\n      revert\n        /* \"--CODEGEN--\":8:10   */\n    tag_100:\n        /* \"Users/leilei/Downloads/MasterChefV2/contracts/PancakeProfile.sol\":63829:64370  function renameTeam(... */\n      dup3\n      add\n        /* \"--CODEGEN--\":41:50   */\n      dup4\n        /* \"--CODEGEN--\":34:38   */\n      0x20\n        /* \"--CODEGEN--\":18:32   */\n      dup3\n        /* \"--CODEGEN--\":14:39   */\n      add\n        /* \"--CODEGEN--\":11:51   */\n      gt\n        /* \"--CODEGEN--\":8:10   */\n      iszero\n      tag_101\n      jumpi\n        /* \"--CODEGEN--\":64:65   */\n      0x00\n        /* \"--CODEGEN--\":61:62   */\n      dup1\n        /* \"--CODEGEN--\":54:66   */\n      revert\n        /* \"--CODEGEN--\":8:10   */\n    tag_101:\n        /* \"Users/leilei/Downloads/MasterChefV2/contracts/PancakeProfile.sol\":63829:64370  function renameTeam(... */\n      dup1\n      calldataload\n      swap1\n      0x20\n      add\n      swap2\n        /* \"--CODEGEN--\":100:109   */\n      dup5\n        /* \"--CODEGEN--\":95:96   */\n      0x01\n        /* \"--CODEGEN--\":81:93   */\n      dup4\n        /* \"--CODEGEN--\":77:97   */\n      mul\n        /* \"--CODEGEN--\":67:75   */\n      dup5\n        /* \"--CODEGEN--\":63:98   */\n      add\n        /* \"--CODEGEN--\":60:110   */\n      gt\n      shl(0x20, 0x01)\n        /* \"--CODEGEN--\":25:37   */\n      dup4\n        /* \"--CODEGEN--\":22:51   */\n      gt\n        /* \"--CODEGEN--\":11:118   */\n      or\n        /* \"--CODEGEN--\":8:10   */\n      iszero\n      tag_102\n      jumpi\n        /* \"--CODEGEN--\":131:132   */\n      0x00\n        /* \"--CODEGEN--\":128:129   */\n      dup1\n        /* \"--CODEGEN--\":121:133   */\n      revert\n        /* \"--CODEGEN--\":8:10   */\n    tag_102:\n        /* \"Users/leilei/Downloads/MasterChefV2/contracts/PancakeProfile.sol\":63829:64370  function renameTeam(... */\n      swap2\n      swap4\n      swap1\n      swap3\n      swap1\n      swap2\n      0x20\n      dup2\n      add\n      swap1\n      calldataload\n      shl(0x20, 0x01)\n        /* \"--CODEGEN--\":11:39   */\n      dup2\n      gt\n        /* \"--CODEGEN--\":8:10   */\n      iszero\n      tag_103\n      jumpi\n        /* \"--CODEGEN--\":52:53   */\n      0x00\n        /* \"--CODEGEN--\":49:50   */\n      dup1\n        /* \"--CODEGEN--\":42:54   */\n      revert\n        /* \"--CODEGEN--\":8:10   */\n    tag_103:\n        /* \"Users/leilei/Downloads/MasterChefV2/contracts/PancakeProfile.sol\":63829:64370  function renameTeam(... */\n      dup3\n      add\n        /* \"--CODEGEN--\":41:50   */\n      dup4\n        /* \"--CODEGEN--\":34:38   */\n      0x20\n        /* \"--CODEGEN--\":18:32   */\n      dup3\n        /* \"--CODEGEN--\":14:39   */\n      add\n        /* \"--CODEGEN--\":11:51   */\n      gt\n        /* \"--CODEGEN--\":8:10   */\n      iszero\n      tag_104\n      jumpi\n        /* \"--CODEGEN--\":64:65   */\n      0x00\n        /* \"--CODEGEN--\":61:62   */\n      dup1\n        /* \"--CODEGEN--\":54:66   */\n      revert\n        /* \"--CODEGEN--\":8:10   */\n    tag_104:\n        /* \"Users/leilei/Downloads/MasterChefV2/contracts/PancakeProfile.sol\":63829:64370  function renameTeam(... */\n      dup1\n      calldataload\n      swap1\n      0x20\n      add\n      swap2\n        /* \"--CODEGEN--\":100:109   */\n      dup5\n        /* \"--CODEGEN--\":95:96   */\n      0x01\n        /* \"--CODEGEN--\":81:93   */\n      dup4\n        /* \"--CODEGEN--\":77:97   */\n      mul\n        /* \"--CODEGEN--\":67:75   */\n      dup5\n        /* \"--CODEGEN--\":63:98   */\n      add\n        /* \"--CODEGEN--\":60:110   */\n      gt\n      shl(0x20, 0x01)\n        /* \"--CODEGEN--\":25:37   */\n      dup4\n        /* \"--CODEGEN--\":22:51   */\n      gt\n        /* \"--CODEGEN--\":11:118   */\n      or\n        /* \"--CODEGEN--\":8:10   */\n      iszero\n      tag_105\n      jumpi\n        /* \"--CODEGEN--\":131:132   */\n      0x00\n        /* \"--CODEGEN--\":128:129   */\n      dup1\n        /* \"--CODEGEN--\":121:133   */\n      revert\n        /* \"--CODEGEN--\":8:10   */\n    tag_105:\n      pop\n        /* \"Users/leilei/Downloads/MasterChefV2/contracts/PancakeProfile.sol\":63829:64370  function renameTeam(... */\n      swap1\n      swap3\n      pop\n      swap1\n      pop\n      tag_106\n      jump\t// in\n        /* \"Users/leilei/Downloads/MasterChefV2/contracts/PancakeProfile.sol\":47737:47760  IBEP20 public cakeToken */\n    tag_18:\n      tag_107\n      tag_108\n      jump\t// in\n    tag_107:\n      0x40\n      dup1\n      mload\n      sub(shl(0xa0, 0x01), 0x01)\n      swap1\n      swap3\n      and\n      dup3\n      mstore\n      mload\n      swap1\n      dup2\n      swap1\n      sub\n      0x20\n      add\n      swap1\n      return\n        /* \"Users/leilei/Downloads/MasterChefV2/contracts/PancakeProfile.sol\":22185:22349  function getRoleMember(bytes32 role, uint256 index)... */\n    tag_19:\n      tag_107\n      0x04\n      dup1\n      calldatasize\n      sub\n        /* \"--CODEGEN--\":15:17   */\n      0x40\n        /* \"--CODEGEN--\":10:13   */\n      dup2\n        /* \"--CODEGEN--\":7:18   */\n      lt\n        /* \"--CODEGEN--\":4:6   */\n      iszero\n      tag_110\n      jumpi\n        /* \"--CODEGEN--\":31:32   */\n      0x00\n        /* \"--CODEGEN--\":28:29   */\n      dup1\n        /* \"--CODEGEN--\":21:33   */\n      revert\n        /* \"--CODEGEN--\":4:6   */\n    tag_110:\n      pop\n        /* \"Users/leilei/Downloads/MasterChefV2/contracts/PancakeProfile.sol\":22185:22349  function getRoleMember(bytes32 role, uint256 index)... */\n      dup1\n      calldataload\n      swap1\n      0x20\n      add\n      calldataload\n      tag_111\n      jump\t// in\n        /* \"Users/leilei/Downloads/MasterChefV2/contracts/PancakeProfile.sol\":21170:21307  function hasRole(bytes32 role, address account) public view returns (bool) {... */\n    tag_20:\n      tag_112\n      0x04\n      dup1\n      calldatasize\n      sub\n        /* \"--CODEGEN--\":15:17   */\n      0x40\n        /* \"--CODEGEN--\":10:13   */\n      dup2\n        /* \"--CODEGEN--\":7:18   */\n      lt\n        /* \"--CODEGEN--\":4:6   */\n      iszero\n      tag_113\n      jumpi\n        /* \"--CODEGEN--\":31:32   */\n      0x00\n        /* \"--CODEGEN--\":28:29   */\n      dup1\n        /* \"--CODEGEN--\":21:33   */\n      revert\n        /* \"--CODEGEN--\":4:6   */\n    tag_113:\n      pop\n        /* \"Users/leilei/Downloads/MasterChefV2/contracts/PancakeProfile.sol\":21170:21307  function hasRole(bytes32 role, address account) public view returns (bool) {... */\n      dup1\n      calldataload\n      swap1\n      0x20\n      add\n      calldataload\n      sub(shl(0xa0, 0x01), 0x01)\n      and\n      tag_114\n      jump\t// in\n    tag_112:\n      0x40\n      dup1\n      mload\n      swap2\n      iszero\n      iszero\n      dup3\n      mstore\n      mload\n      swap1\n      dup2\n      swap1\n      sub\n      0x20\n      add\n      swap1\n      return\n        /* \"Users/leilei/Downloads/MasterChefV2/contracts/PancakeProfile.sol\":64914:65495  function getUserProfile(address _userAddress)... */\n    tag_21:\n      tag_115\n      0x04\n      dup1\n      calldatasize\n      sub\n        /* \"--CODEGEN--\":15:17   */\n      0x20\n        /* \"--CODEGEN--\":10:13   */\n      dup2\n        /* \"--CODEGEN--\":7:18   */\n      lt\n        /* \"--CODEGEN--\":4:6   */\n      iszero\n      tag_116\n      jumpi\n        /* \"--CODEGEN--\":31:32   */\n      0x00\n        /* \"--CODEGEN--\":28:29   */\n      dup1\n        /* \"--CODEGEN--\":21:33   */\n      revert\n        /* \"--CODEGEN--\":4:6   */\n    tag_116:\n      pop\n        /* \"Users/leilei/Downloads/MasterChefV2/contracts/PancakeProfile.sol\":64914:65495  function getUserProfile(address _userAddress)... */\n      calldataload\n      sub(shl(0xa0, 0x01), 0x01)\n      and\n      tag_117\n      jump\t// in\n    tag_115:\n      0x40\n      dup1\n      mload\n      swap7\n      dup8\n      mstore\n      0x20\n      dup8\n      add\n      swap6\n      swap1\n      swap6\n      mstore\n      dup6\n      dup6\n      add\n      swap4\n      swap1\n      swap4\n      mstore\n      sub(shl(0xa0, 0x01), 0x01)\n      swap1\n      swap2\n      and\n      0x60\n      dup6\n      add\n      mstore\n      0x80\n      dup5\n      add\n      mstore\n      iszero\n      iszero\n      0xa0\n      dup4\n      add\n      mstore\n      mload\n      swap1\n      dup2\n      swap1\n      sub\n      0xc0\n      add\n      swap1\n      return\n        /* \"Users/leilei/Downloads/MasterChefV2/contracts/PancakeProfile.sol\":48163:48208  mapping(address => bool) public hasRegistered */\n    tag_22:\n      tag_112\n      0x04\n      dup1\n      calldatasize\n      sub\n        /* \"--CODEGEN--\":15:17   */\n      0x20\n        /* \"--CODEGEN--\":10:13   */\n      dup2\n        /* \"--CODEGEN--\":7:18   */\n      lt\n        /* \"--CODEGEN--\":4:6   */\n      iszero\n      tag_119\n      jumpi\n        /* \"--CODEGEN--\":31:32   */\n      0x00\n        /* \"--CODEGEN--\":28:29   */\n      dup1\n        /* \"--CODEGEN--\":21:33   */\n      revert\n        /* \"--CODEGEN--\":4:6   */\n    tag_119:\n      pop\n        /* \"Users/leilei/Downloads/MasterChefV2/contracts/PancakeProfile.sol\":48163:48208  mapping(address => bool) public hasRegistered */\n      calldataload\n      sub(shl(0xa0, 0x01), 0x01)\n      and\n      tag_120\n      jump\t// in\n        /* \"Users/leilei/Downloads/MasterChefV2/contracts/PancakeProfile.sol\":19857:19906  bytes32 public constant DEFAULT_ADMIN_ROLE = 0x00 */\n    tag_23:\n      tag_71\n      tag_122\n      jump\t// in\n        /* \"Users/leilei/Downloads/MasterChefV2/contracts/PancakeProfile.sol\":56200:57588  function reactivateProfile(address _nftAddress, uint256 _tokenId) external {... */\n    tag_24:\n      tag_50\n      0x04\n      dup1\n      calldatasize\n      sub\n        /* \"--CODEGEN--\":15:17   */\n      0x40\n        /* \"--CODEGEN--\":10:13   */\n      dup2\n        /* \"--CODEGEN--\":7:18   */\n      lt\n        /* \"--CODEGEN--\":4:6   */\n      iszero\n      tag_124\n      jumpi\n        /* \"--CODEGEN--\":31:32   */\n      0x00\n        /* \"--CODEGEN--\":28:29   */\n      dup1\n        /* \"--CODEGEN--\":21:33   */\n      revert\n        /* \"--CODEGEN--\":4:6   */\n    tag_124:\n      pop\n      sub(shl(0xa0, 0x01), 0x01)\n        /* \"Users/leilei/Downloads/MasterChefV2/contracts/PancakeProfile.sol\":56200:57588  function reactivateProfile(address _nftAddress, uint256 _tokenId) external {... */\n      dup2\n      calldataload\n      and\n      swap1\n      0x20\n      add\n      calldataload\n      tag_125\n      jump\t// in\n        /* \"Users/leilei/Downloads/MasterChefV2/contracts/PancakeProfile.sol\":59798:60226  function removeUserPointsMultiple(... */\n    tag_25:\n      tag_50\n      0x04\n      dup1\n      calldatasize\n      sub\n        /* \"--CODEGEN--\":15:17   */\n      0x40\n        /* \"--CODEGEN--\":10:13   */\n      dup2\n        /* \"--CODEGEN--\":7:18   */\n      lt\n        /* \"--CODEGEN--\":4:6   */\n      iszero\n      tag_127\n      jumpi\n        /* \"--CODEGEN--\":31:32   */\n      0x00\n        /* \"--CODEGEN--\":28:29   */\n      dup1\n        /* \"--CODEGEN--\":21:33   */\n      revert\n        /* \"--CODEGEN--\":4:6   */\n    tag_127:\n        /* \"Users/leilei/Downloads/MasterChefV2/contracts/PancakeProfile.sol\":59798:60226  function removeUserPointsMultiple(... */\n      dup2\n      add\n      swap1\n      0x20\n      dup2\n      add\n      dup2\n      calldataload\n      shl(0x20, 0x01)\n        /* \"--CODEGEN--\":11:39   */\n      dup2\n      gt\n        /* \"--CODEGEN--\":8:10   */\n      iszero\n      tag_128\n      jumpi\n        /* \"--CODEGEN--\":52:53   */\n      0x00\n        /* \"--CODEGEN--\":49:50   */\n      dup1\n        /* \"--CODEGEN--\":42:54   */\n      revert\n        /* \"--CODEGEN--\":8:10   */\n    tag_128:\n        /* \"Users/leilei/Downloads/MasterChefV2/contracts/PancakeProfile.sol\":59798:60226  function removeUserPointsMultiple(... */\n      dup3\n      add\n        /* \"--CODEGEN--\":41:50   */\n      dup4\n        /* \"--CODEGEN--\":34:38   */\n      0x20\n        /* \"--CODEGEN--\":18:32   */\n      dup3\n        /* \"--CODEGEN--\":14:39   */\n      add\n        /* \"--CODEGEN--\":11:51   */\n      gt\n        /* \"--CODEGEN--\":8:10   */\n      iszero\n      tag_129\n      jumpi\n        /* \"--CODEGEN--\":64:65   */\n      0x00\n        /* \"--CODEGEN--\":61:62   */\n      dup1\n        /* \"--CODEGEN--\":54:66   */\n      revert\n        /* \"--CODEGEN--\":8:10   */\n    tag_129:\n        /* \"Users/leilei/Downloads/MasterChefV2/contracts/PancakeProfile.sol\":59798:60226  function removeUserPointsMultiple(... */\n      dup1\n      calldataload\n      swap1\n      0x20\n      add\n      swap2\n        /* \"--CODEGEN--\":101:110   */\n      dup5\n        /* \"--CODEGEN--\":95:97   */\n      0x20\n        /* \"--CODEGEN--\":81:93   */\n      dup4\n        /* \"--CODEGEN--\":77:98   */\n      mul\n        /* \"--CODEGEN--\":67:75   */\n      dup5\n        /* \"--CODEGEN--\":63:99   */\n      add\n        /* \"--CODEGEN--\":60:111   */\n      gt\n      shl(0x20, 0x01)\n        /* \"--CODEGEN--\":25:37   */\n      dup4\n        /* \"--CODEGEN--\":22:51   */\n      gt\n        /* \"--CODEGEN--\":11:119   */\n      or\n        /* \"--CODEGEN--\":8:10   */\n      iszero\n      tag_130\n      jumpi\n        /* \"--CODEGEN--\":132:133   */\n      0x00\n        /* \"--CODEGEN--\":129:130   */\n      dup1\n        /* \"--CODEGEN--\":122:134   */\n      revert\n        /* \"--CODEGEN--\":8:10   */\n    tag_130:\n        /* \"Users/leilei/Downloads/MasterChefV2/contracts/PancakeProfile.sol\":59798:60226  function removeUserPointsMultiple(... */\n      swap2\n      swap4\n      pop\n      swap2\n      pop\n      calldataload\n      tag_131\n      jump\t// in\n        /* \"Users/leilei/Downloads/MasterChefV2/contracts/PancakeProfile.sol\":65758:66287  function getTeamProfile(uint256 _teamId)... */\n    tag_26:\n      tag_132\n      0x04\n      dup1\n      calldatasize\n      sub\n        /* \"--CODEGEN--\":15:17   */\n      0x20\n        /* \"--CODEGEN--\":10:13   */\n      dup2\n        /* \"--CODEGEN--\":7:18   */\n      lt\n        /* \"--CODEGEN--\":4:6   */\n      iszero\n      tag_133\n      jumpi\n        /* \"--CODEGEN--\":31:32   */\n      0x00\n        /* \"--CODEGEN--\":28:29   */\n      dup1\n        /* \"--CODEGEN--\":21:33   */\n      revert\n        /* \"--CODEGEN--\":4:6   */\n    tag_133:\n      pop\n        /* \"Users/leilei/Downloads/MasterChefV2/contracts/PancakeProfile.sol\":65758:66287  function getTeamProfile(uint256 _teamId)... */\n      calldataload\n      tag_134\n      jump\t// in\n    tag_132:\n      0x40\n      dup1\n      mload\n      swap1\n      dup2\n      add\n      dup5\n      swap1\n      mstore\n      0x60\n      dup2\n      add\n      dup4\n      swap1\n      mstore\n      dup2\n      iszero\n      iszero\n      0x80\n      dup3\n      add\n      mstore\n      0xa0\n      dup1\n      dup3\n      mstore\n      dup7\n      mload\n      swap1\n      dup3\n      add\n      mstore\n      dup6\n      mload\n      dup2\n      swap1\n      0x20\n      dup1\n      dup4\n      add\n      swap2\n      0xc0\n      dup5\n      add\n      swap2\n      dup11\n      add\n      swap1\n      dup1\n      dup4\n      dup4\n      0x00\n        /* \"--CODEGEN--\":8:108   */\n    tag_135:\n        /* \"--CODEGEN--\":33:36   */\n      dup4\n        /* \"--CODEGEN--\":30:31   */\n      dup2\n        /* \"--CODEGEN--\":27:37   */\n      lt\n        /* \"--CODEGEN--\":8:108   */\n      iszero\n      tag_137\n      jumpi\n        /* \"--CODEGEN--\":90:101   */\n      dup2\n      dup2\n      add\n        /* \"--CODEGEN--\":84:102   */\n      mload\n        /* \"--CODEGEN--\":71:82   */\n      dup4\n      dup3\n      add\n        /* \"--CODEGEN--\":64:103   */\n      mstore\n        /* \"--CODEGEN--\":52:54   */\n      0x20\n        /* \"--CODEGEN--\":45:55   */\n      add\n        /* \"--CODEGEN--\":8:108   */\n      jump(tag_135)\n    tag_137:\n        /* \"--CODEGEN--\":12:26   */\n      pop\n        /* \"Users/leilei/Downloads/MasterChefV2/contracts/PancakeProfile.sol\":65758:66287  function getTeamProfile(uint256 _teamId)... */\n      pop\n      pop\n      pop\n      swap1\n      pop\n      swap1\n      dup2\n      add\n      swap1\n      0x1f\n      and\n      dup1\n      iszero\n      tag_138\n      jumpi\n      dup1\n      dup3\n      sub\n      dup1\n      mload\n      0x01\n      dup4\n      0x20\n      sub\n      0x0100\n      exp\n      sub\n      not\n      and\n      dup2\n      mstore\n      0x20\n      add\n      swap2\n      pop\n    tag_138:\n      pop\n      dup4\n      dup2\n      sub\n      dup3\n      mstore\n      dup8\n      mload\n      dup2\n      mstore\n      dup8\n      mload\n      0x20\n      swap2\n      dup3\n      add\n      swap2\n      dup10\n      add\n      swap1\n      dup1\n      dup4\n      dup4\n        /* \"--CODEGEN--\":23:24   */\n      0x00\n        /* \"--CODEGEN--\":8:108   */\n    tag_139:\n        /* \"--CODEGEN--\":33:36   */\n      dup4\n        /* \"--CODEGEN--\":30:31   */\n      dup2\n        /* \"--CODEGEN--\":27:37   */\n      lt\n        /* \"--CODEGEN--\":8:108   */\n      iszero\n      tag_141\n      jumpi\n        /* \"--CODEGEN--\":90:101   */\n      dup2\n      dup2\n      add\n        /* \"--CODEGEN--\":84:102   */\n      mload\n        /* \"--CODEGEN--\":71:82   */\n      dup4\n      dup3\n      add\n        /* \"--CODEGEN--\":64:103   */\n      mstore\n        /* \"--CODEGEN--\":52:54   */\n      0x20\n        /* \"--CODEGEN--\":45:55   */\n      add\n        /* \"--CODEGEN--\":8:108   */\n      jump(tag_139)\n    tag_141:\n        /* \"--CODEGEN--\":12:26   */\n      pop\n        /* \"Users/leilei/Downloads/MasterChefV2/contracts/PancakeProfile.sol\":65758:66287  function getTeamProfile(uint256 _teamId)... */\n      pop\n      pop\n      pop\n      swap1\n      pop\n      swap1\n      dup2\n      add\n      swap1\n      0x1f\n      and\n      dup1\n      iszero\n      tag_142\n      jumpi\n      dup1\n      dup3\n      sub\n      dup1\n      mload\n      0x01\n      dup4\n      0x20\n      sub\n      0x0100\n      exp\n      sub\n      not\n      and\n      dup2\n      mstore\n      0x20\n      add\n      swap2\n      pop\n    tag_142:\n      pop\n      swap8\n      pop\n      pop\n      pop\n      pop\n      pop\n      pop\n      pop\n      pop\n      mload(0x40)\n      dup1\n      swap2\n      sub\n      swap1\n      return\n        /* \"Users/leilei/Downloads/MasterChefV2/contracts/PancakeProfile.sol\":47966:48001  uint256 public numberActiveProfiles */\n    tag_27:\n      tag_71\n      tag_144\n      jump\t// in\n        /* \"Users/leilei/Downloads/MasterChefV2/contracts/PancakeProfile.sol\":47895:47959  bytes32 public constant SPECIAL_ROLE = keccak256(\"SPECIAL_ROLE\") */\n    tag_28:\n      tag_71\n      tag_146\n      jump\t// in\n        /* \"Users/leilei/Downloads/MasterChefV2/contracts/PancakeProfile.sol\":53305:54562  function pauseProfile() external {... */\n    tag_29:\n      tag_50\n      tag_148\n      jump\t// in\n        /* \"Users/leilei/Downloads/MasterChefV2/contracts/PancakeProfile.sol\":47829:47889  bytes32 public constant POINT_ROLE = keccak256(\"POINT_ROLE\") */\n    tag_30:\n      tag_71\n      tag_150\n      jump\t// in\n        /* \"Users/leilei/Downloads/MasterChefV2/contracts/PancakeProfile.sol\":21475:21600  function getRoleMemberCount(bytes32 role) public view returns (uint256) {... */\n    tag_31:\n      tag_71\n      0x04\n      dup1\n      calldatasize\n      sub\n        /* \"--CODEGEN--\":15:17   */\n      0x20\n        /* \"--CODEGEN--\":10:13   */\n      dup2\n        /* \"--CODEGEN--\":7:18   */\n      lt\n        /* \"--CODEGEN--\":4:6   */\n      iszero\n      tag_152\n      jumpi\n        /* \"--CODEGEN--\":31:32   */\n      0x00\n        /* \"--CODEGEN--\":28:29   */\n      dup1\n        /* \"--CODEGEN--\":21:33   */\n      revert\n        /* \"--CODEGEN--\":4:6   */\n    tag_152:\n      pop\n        /* \"Users/leilei/Downloads/MasterChefV2/contracts/PancakeProfile.sol\":21475:21600  function getRoleMemberCount(bytes32 role) public view returns (uint256) {... */\n      calldataload\n      tag_153\n      jump\t// in\n        /* \"Users/leilei/Downloads/MasterChefV2/contracts/PancakeProfile.sol\":60341:60615  function removeTeamPoints(uint256 _teamId, uint256 _numberPoints)... */\n    tag_32:\n      tag_50\n      0x04\n      dup1\n      calldatasize\n      sub\n        /* \"--CODEGEN--\":15:17   */\n      0x40\n        /* \"--CODEGEN--\":10:13   */\n      dup2\n        /* \"--CODEGEN--\":7:18   */\n      lt\n        /* \"--CODEGEN--\":4:6   */\n      iszero\n      tag_155\n      jumpi\n        /* \"--CODEGEN--\":31:32   */\n      0x00\n        /* \"--CODEGEN--\":28:29   */\n      dup1\n        /* \"--CODEGEN--\":21:33   */\n      revert\n        /* \"--CODEGEN--\":4:6   */\n    tag_155:\n      pop\n        /* \"Users/leilei/Downloads/MasterChefV2/contracts/PancakeProfile.sol\":60341:60615  function removeTeamPoints(uint256 _teamId, uint256 _numberPoints)... */\n      dup1\n      calldataload\n      swap1\n      0x20\n      add\n      calldataload\n      tag_156\n      jump\t// in\n        /* \"Users/leilei/Downloads/MasterChefV2/contracts/PancakeProfile.sol\":23383:23643  function revokeRole(bytes32 role, address account) public virtual {... */\n    tag_33:\n      tag_50\n      0x04\n      dup1\n      calldatasize\n      sub\n        /* \"--CODEGEN--\":15:17   */\n      0x40\n        /* \"--CODEGEN--\":10:13   */\n      dup2\n        /* \"--CODEGEN--\":7:18   */\n      lt\n        /* \"--CODEGEN--\":4:6   */\n      iszero\n      tag_158\n      jumpi\n        /* \"--CODEGEN--\":31:32   */\n      0x00\n        /* \"--CODEGEN--\":28:29   */\n      dup1\n        /* \"--CODEGEN--\":21:33   */\n      revert\n        /* \"--CODEGEN--\":4:6   */\n    tag_158:\n      pop\n        /* \"Users/leilei/Downloads/MasterChefV2/contracts/PancakeProfile.sol\":23383:23643  function revokeRole(bytes32 role, address account) public virtual {... */\n      dup1\n      calldataload\n      swap1\n      0x20\n      add\n      calldataload\n      sub(shl(0xa0, 0x01), 0x01)\n      and\n      tag_159\n      jump\t// in\n        /* \"Users/leilei/Downloads/MasterChefV2/contracts/PancakeProfile.sol\":59422:59711  function removeUserPoints(address _userAddress, uint256 _numberPoints)... */\n    tag_34:\n      tag_50\n      0x04\n      dup1\n      calldatasize\n      sub\n        /* \"--CODEGEN--\":15:17   */\n      0x40\n        /* \"--CODEGEN--\":10:13   */\n      dup2\n        /* \"--CODEGEN--\":7:18   */\n      lt\n        /* \"--CODEGEN--\":4:6   */\n      iszero\n      tag_161\n      jumpi\n        /* \"--CODEGEN--\":31:32   */\n      0x00\n        /* \"--CODEGEN--\":28:29   */\n      dup1\n        /* \"--CODEGEN--\":21:33   */\n      revert\n        /* \"--CODEGEN--\":4:6   */\n    tag_161:\n      pop\n      sub(shl(0xa0, 0x01), 0x01)\n        /* \"Users/leilei/Downloads/MasterChefV2/contracts/PancakeProfile.sol\":59422:59711  function removeUserPoints(address _userAddress, uint256 _numberPoints)... */\n      dup2\n      calldataload\n      and\n      swap1\n      0x20\n      add\n      calldataload\n      tag_162\n      jump\t// in\n        /* \"Users/leilei/Downloads/MasterChefV2/contracts/PancakeProfile.sol\":48007:48044  uint256 public numberCakeToReactivate */\n    tag_35:\n      tag_71\n      tag_164\n      jump\t// in\n        /* \"Users/leilei/Downloads/MasterChefV2/contracts/PancakeProfile.sol\":58225:58814  function increaseUserPointsMultiple(... */\n    tag_36:\n      tag_50\n      0x04\n      dup1\n      calldatasize\n      sub\n        /* \"--CODEGEN--\":15:17   */\n      0x60\n        /* \"--CODEGEN--\":10:13   */\n      dup2\n        /* \"--CODEGEN--\":7:18   */\n      lt\n        /* \"--CODEGEN--\":4:6   */\n      iszero\n      tag_166\n      jumpi\n        /* \"--CODEGEN--\":31:32   */\n      0x00\n        /* \"--CODEGEN--\":28:29   */\n      dup1\n        /* \"--CODEGEN--\":21:33   */\n      revert\n        /* \"--CODEGEN--\":4:6   */\n    tag_166:\n        /* \"Users/leilei/Downloads/MasterChefV2/contracts/PancakeProfile.sol\":58225:58814  function increaseUserPointsMultiple(... */\n      dup2\n      add\n      swap1\n      0x20\n      dup2\n      add\n      dup2\n      calldataload\n      shl(0x20, 0x01)\n        /* \"--CODEGEN--\":11:39   */\n      dup2\n      gt\n        /* \"--CODEGEN--\":8:10   */\n      iszero\n      tag_167\n      jumpi\n        /* \"--CODEGEN--\":52:53   */\n      0x00\n        /* \"--CODEGEN--\":49:50   */\n      dup1\n        /* \"--CODEGEN--\":42:54   */\n      revert\n        /* \"--CODEGEN--\":8:10   */\n    tag_167:\n        /* \"Users/leilei/Downloads/MasterChefV2/contracts/PancakeProfile.sol\":58225:58814  function increaseUserPointsMultiple(... */\n      dup3\n      add\n        /* \"--CODEGEN--\":41:50   */\n      dup4\n        /* \"--CODEGEN--\":34:38   */\n      0x20\n        /* \"--CODEGEN--\":18:32   */\n      dup3\n        /* \"--CODEGEN--\":14:39   */\n      add\n        /* \"--CODEGEN--\":11:51   */\n      gt\n        /* \"--CODEGEN--\":8:10   */\n      iszero\n      tag_168\n      jumpi\n        /* \"--CODEGEN--\":64:65   */\n      0x00\n        /* \"--CODEGEN--\":61:62   */\n      dup1\n        /* \"--CODEGEN--\":54:66   */\n      revert\n        /* \"--CODEGEN--\":8:10   */\n    tag_168:\n        /* \"Users/leilei/Downloads/MasterChefV2/contracts/PancakeProfile.sol\":58225:58814  function increaseUserPointsMultiple(... */\n      dup1\n      calldataload\n      swap1\n      0x20\n      add\n      swap2\n        /* \"--CODEGEN--\":101:110   */\n      dup5\n        /* \"--CODEGEN--\":95:97   */\n      0x20\n        /* \"--CODEGEN--\":81:93   */\n      dup4\n        /* \"--CODEGEN--\":77:98   */\n      mul\n        /* \"--CODEGEN--\":67:75   */\n      dup5\n        /* \"--CODEGEN--\":63:99   */\n      add\n        /* \"--CODEGEN--\":60:111   */\n      gt\n      shl(0x20, 0x01)\n        /* \"--CODEGEN--\":25:37   */\n      dup4\n        /* \"--CODEGEN--\":22:51   */\n      gt\n        /* \"--CODEGEN--\":11:119   */\n      or\n        /* \"--CODEGEN--\":8:10   */\n      iszero\n      tag_169\n      jumpi\n        /* \"--CODEGEN--\":132:133   */\n      0x00\n        /* \"--CODEGEN--\":129:130   */\n      dup1\n        /* \"--CODEGEN--\":122:134   */\n      revert\n        /* \"--CODEGEN--\":8:10   */\n    tag_169:\n        /* \"Users/leilei/Downloads/MasterChefV2/contracts/PancakeProfile.sol\":58225:58814  function increaseUserPointsMultiple(... */\n      swap2\n      swap4\n      pop\n      swap2\n      pop\n      dup1\n      calldataload\n      swap1\n      0x20\n      add\n      calldataload\n      tag_170\n      jump\t// in\n        /* \"Users/leilei/Downloads/MasterChefV2/contracts/PancakeProfile.sol\":61974:62949  function changeTeam(address _userAddress, uint256 _newTeamId)... */\n    tag_37:\n      tag_50\n      0x04\n      dup1\n      calldatasize\n      sub\n        /* \"--CODEGEN--\":15:17   */\n      0x40\n        /* \"--CODEGEN--\":10:13   */\n      dup2\n        /* \"--CODEGEN--\":7:18   */\n      lt\n        /* \"--CODEGEN--\":4:6   */\n      iszero\n      tag_172\n      jumpi\n        /* \"--CODEGEN--\":31:32   */\n      0x00\n        /* \"--CODEGEN--\":28:29   */\n      dup1\n        /* \"--CODEGEN--\":21:33   */\n      revert\n        /* \"--CODEGEN--\":4:6   */\n    tag_172:\n      pop\n      sub(shl(0xa0, 0x01), 0x01)\n        /* \"Users/leilei/Downloads/MasterChefV2/contracts/PancakeProfile.sol\":61974:62949  function changeTeam(address _userAddress, uint256 _newTeamId)... */\n      dup2\n      calldataload\n      and\n      swap1\n      0x20\n      add\n      calldataload\n      tag_173\n      jump\t// in\n        /* \"Users/leilei/Downloads/MasterChefV2/contracts/PancakeProfile.sol\":65573:65701  function getUserStatus(address _userAddress) external view returns (bool) {... */\n    tag_38:\n      tag_112\n      0x04\n      dup1\n      calldatasize\n      sub\n        /* \"--CODEGEN--\":15:17   */\n      0x20\n        /* \"--CODEGEN--\":10:13   */\n      dup2\n        /* \"--CODEGEN--\":7:18   */\n      lt\n        /* \"--CODEGEN--\":4:6   */\n      iszero\n      tag_175\n      jumpi\n        /* \"--CODEGEN--\":31:32   */\n      0x00\n        /* \"--CODEGEN--\":28:29   */\n      dup1\n        /* \"--CODEGEN--\":21:33   */\n      revert\n        /* \"--CODEGEN--\":4:6   */\n    tag_175:\n      pop\n        /* \"Users/leilei/Downloads/MasterChefV2/contracts/PancakeProfile.sol\":65573:65701  function getUserStatus(address _userAddress) external view returns (bool) {... */\n      calldataload\n      sub(shl(0xa0, 0x01), 0x01)\n      and\n      tag_176\n      jump\t// in\n        /* \"Users/leilei/Downloads/MasterChefV2/contracts/PancakeProfile.sol\":63263:63452  function makeTeamJoinable(uint256 _teamId) external onlyOwner {... */\n    tag_39:\n      tag_50\n      0x04\n      dup1\n      calldatasize\n      sub\n        /* \"--CODEGEN--\":15:17   */\n      0x20\n        /* \"--CODEGEN--\":10:13   */\n      dup2\n        /* \"--CODEGEN--\":7:18   */\n      lt\n        /* \"--CODEGEN--\":4:6   */\n      iszero\n      tag_178\n      jumpi\n        /* \"--CODEGEN--\":31:32   */\n      0x00\n        /* \"--CODEGEN--\":28:29   */\n      dup1\n        /* \"--CODEGEN--\":21:33   */\n      revert\n        /* \"--CODEGEN--\":4:6   */\n    tag_178:\n      pop\n        /* \"Users/leilei/Downloads/MasterChefV2/contracts/PancakeProfile.sol\":63263:63452  function makeTeamJoinable(uint256 _teamId) external onlyOwner {... */\n      calldataload\n      tag_179\n      jump\t// in\n        /* \"Users/leilei/Downloads/MasterChefV2/contracts/PancakeProfile.sol\":63047:63163  function claimFee(uint256 _amount) external onlyOwner {... */\n    tag_40:\n      tag_50\n      0x04\n      dup1\n      calldatasize\n      sub\n        /* \"--CODEGEN--\":15:17   */\n      0x20\n        /* \"--CODEGEN--\":10:13   */\n      dup2\n        /* \"--CODEGEN--\":7:18   */\n      lt\n        /* \"--CODEGEN--\":4:6   */\n      iszero\n      tag_181\n      jumpi\n        /* \"--CODEGEN--\":31:32   */\n      0x00\n        /* \"--CODEGEN--\":28:29   */\n      dup1\n        /* \"--CODEGEN--\":21:33   */\n      revert\n        /* \"--CODEGEN--\":4:6   */\n    tag_181:\n      pop\n        /* \"Users/leilei/Downloads/MasterChefV2/contracts/PancakeProfile.sol\":63047:63163  function claimFee(uint256 _amount) external onlyOwner {... */\n      calldataload\n      tag_182\n      jump\t// in\n        /* \"Users/leilei/Downloads/MasterChefV2/contracts/PancakeProfile.sol\":47767:47823  bytes32 public constant NFT_ROLE = keccak256(\"NFT_ROLE\") */\n    tag_41:\n      tag_71\n      tag_184\n      jump\t// in\n        /* \"Users/leilei/Downloads/MasterChefV2/contracts/PancakeProfile.sol\":51406:53185  function createProfile(... */\n    tag_42:\n      tag_50\n      0x04\n      dup1\n      calldatasize\n      sub\n        /* \"--CODEGEN--\":15:17   */\n      0x60\n        /* \"--CODEGEN--\":10:13   */\n      dup2\n        /* \"--CODEGEN--\":7:18   */\n      lt\n        /* \"--CODEGEN--\":4:6   */\n      iszero\n      tag_186\n      jumpi\n        /* \"--CODEGEN--\":31:32   */\n      0x00\n        /* \"--CODEGEN--\":28:29   */\n      dup1\n        /* \"--CODEGEN--\":21:33   */\n      revert\n        /* \"--CODEGEN--\":4:6   */\n    tag_186:\n      pop\n        /* \"Users/leilei/Downloads/MasterChefV2/contracts/PancakeProfile.sol\":51406:53185  function createProfile(... */\n      dup1\n      calldataload\n      swap1\n      sub(shl(0xa0, 0x01), 0x01)\n      0x20\n      dup3\n      add\n      calldataload\n      and\n      swap1\n      0x40\n      add\n      calldataload\n      tag_187\n      jump\t// in\n        /* \"Users/leilei/Downloads/MasterChefV2/contracts/PancakeProfile.sol\":54662:56096  function updateProfile(address _nftAddress, uint256 _tokenId) external {... */\n    tag_52:\n        /* \"Users/leilei/Downloads/MasterChefV2/contracts/PancakeProfile.sol\":54751:54764  hasRegistered */\n      0x07\n        /* \"Users/leilei/Downloads/MasterChefV2/contracts/PancakeProfile.sol\":54751:54778  hasRegistered[_msgSender()] */\n      0x00\n        /* \"Users/leilei/Downloads/MasterChefV2/contracts/PancakeProfile.sol\":54765:54777  _msgSender() */\n      tag_189\n        /* \"Users/leilei/Downloads/MasterChefV2/contracts/PancakeProfile.sol\":54765:54775  _msgSender */\n      tag_190\n        /* \"Users/leilei/Downloads/MasterChefV2/contracts/PancakeProfile.sol\":54765:54777  _msgSender() */\n      jump\t// in\n    tag_189:\n      sub(shl(0xa0, 0x01), 0x01)\n        /* \"Users/leilei/Downloads/MasterChefV2/contracts/PancakeProfile.sol\":54751:54778  hasRegistered[_msgSender()] */\n      and\n      dup2\n      mstore\n      0x20\n      dup2\n      add\n      swap2\n      swap1\n      swap2\n      mstore\n      0x40\n      add\n      0x00\n      keccak256\n      sload\n      0xff\n      and\n        /* \"Users/leilei/Downloads/MasterChefV2/contracts/PancakeProfile.sol\":54743:54801  require(hasRegistered[_msgSender()], \"Has not registered\") */\n      tag_191\n      jumpi\n      0x40\n      dup1\n      mload\n      shl(0xe5, 0x461bcd)\n      dup2\n      mstore\n      0x20\n      0x04\n      dup3\n      add\n      mstore\n      0x12\n      0x24\n      dup3\n      add\n      mstore\n      shl(0x72, 0x12185cc81b9bdd081c9959da5cdd195c9959)\n      0x44\n      dup3\n      add\n      mstore\n      swap1\n      mload\n      swap1\n      dup2\n      swap1\n      sub\n      0x64\n      add\n      swap1\n      revert\n    tag_191:\n        /* \"Users/leilei/Downloads/MasterChefV2/contracts/PancakeProfile.sol\":47802:47823  keccak256(\"NFT_ROLE\") */\n      0x40\n      dup1\n      mload\n      shl(0xc0, 0x4e46545f524f4c45)\n      dup2\n      mstore\n      swap1\n      mload\n      swap1\n      dup2\n      swap1\n      sub\n      0x08\n      add\n      swap1\n      keccak256\n        /* \"Users/leilei/Downloads/MasterChefV2/contracts/PancakeProfile.sol\":54819:54849  hasRole(NFT_ROLE, _nftAddress) */\n      tag_192\n      swap1\n        /* \"Users/leilei/Downloads/MasterChefV2/contracts/PancakeProfile.sol\":54837:54848  _nftAddress */\n      dup4\n        /* \"Users/leilei/Downloads/MasterChefV2/contracts/PancakeProfile.sol\":54819:54826  hasRole */\n      tag_114\n        /* \"Users/leilei/Downloads/MasterChefV2/contracts/PancakeProfile.sol\":54819:54849  hasRole(NFT_ROLE, _nftAddress) */\n      jump\t// in\n    tag_192:\n        /* \"Users/leilei/Downloads/MasterChefV2/contracts/PancakeProfile.sol\":54811:54873  require(hasRole(NFT_ROLE, _nftAddress), \"NFT address invalid\") */\n      tag_193\n      jumpi\n      0x40\n      dup1\n      mload\n      shl(0xe5, 0x461bcd)\n      dup2\n      mstore\n      0x20\n      0x04\n      dup3\n      add\n      mstore\n      0x13\n      0x24\n      dup3\n      add\n      mstore\n      shl(0x6a, 0x139195081859191c995cdcc81a5b9d985b1a59)\n      0x44\n      dup3\n      add\n      mstore\n      swap1\n      mload\n      swap1\n      dup2\n      swap1\n      sub\n      0x64\n      add\n      swap1\n      revert\n    tag_193:\n        /* \"Users/leilei/Downloads/MasterChefV2/contracts/PancakeProfile.sol\":54891:54896  users */\n      0x09\n        /* \"Users/leilei/Downloads/MasterChefV2/contracts/PancakeProfile.sol\":54891:54910  users[_msgSender()] */\n      0x00\n        /* \"Users/leilei/Downloads/MasterChefV2/contracts/PancakeProfile.sol\":54897:54909  _msgSender() */\n      tag_194\n        /* \"Users/leilei/Downloads/MasterChefV2/contracts/PancakeProfile.sol\":54897:54907  _msgSender */\n      tag_190\n        /* \"Users/leilei/Downloads/MasterChefV2/contracts/PancakeProfile.sol\":54897:54909  _msgSender() */\n      jump\t// in\n    tag_194:\n      sub(shl(0xa0, 0x01), 0x01)\n        /* \"Users/leilei/Downloads/MasterChefV2/contracts/PancakeProfile.sol\":54891:54910  users[_msgSender()] */\n      and\n      dup2\n      mstore\n      0x20\n      dup2\n      add\n      swap2\n      swap1\n      swap2\n      mstore\n      0x40\n      add\n      0x00\n      keccak256\n        /* \"Users/leilei/Downloads/MasterChefV2/contracts/PancakeProfile.sol\":54891:54919  users[_msgSender()].isActive */\n      0x05\n      add\n      sload\n      0xff\n      and\n        /* \"Users/leilei/Downloads/MasterChefV2/contracts/PancakeProfile.sol\":54883:54939  require(users[_msgSender()].isActive, \"User not active\") */\n      tag_195\n      jumpi\n      0x40\n      dup1\n      mload\n      shl(0xe5, 0x461bcd)\n      dup2\n      mstore\n      0x20\n      0x04\n      dup3\n      add\n      mstore\n      0x0f\n      0x24\n      dup3\n      add\n      mstore\n      shl(0x88, 0x55736572206e6f7420616374697665)\n      0x44\n      dup3\n      add\n      mstore\n      swap1\n      mload\n      swap1\n      dup2\n      swap1\n      sub\n      0x64\n      add\n      swap1\n      revert\n    tag_195:\n        /* \"Users/leilei/Downloads/MasterChefV2/contracts/PancakeProfile.sol\":54950:54972  address currentAddress */\n      0x00\n        /* \"Users/leilei/Downloads/MasterChefV2/contracts/PancakeProfile.sol\":54975:54980  users */\n      0x09\n        /* \"Users/leilei/Downloads/MasterChefV2/contracts/PancakeProfile.sol\":54975:54994  users[_msgSender()] */\n      0x00\n        /* \"Users/leilei/Downloads/MasterChefV2/contracts/PancakeProfile.sol\":54981:54993  _msgSender() */\n      tag_196\n        /* \"Users/leilei/Downloads/MasterChefV2/contracts/PancakeProfile.sol\":54981:54991  _msgSender */\n      tag_190\n        /* \"Users/leilei/Downloads/MasterChefV2/contracts/PancakeProfile.sol\":54981:54993  _msgSender() */\n      jump\t// in\n    tag_196:\n      sub(shl(0xa0, 0x01), 0x01)\n        /* \"Users/leilei/Downloads/MasterChefV2/contracts/PancakeProfile.sol\":54975:54994  users[_msgSender()] */\n      swap1\n      dup2\n      and\n      dup3\n      mstore\n      0x20\n      dup3\n      add\n      swap3\n      swap1\n      swap3\n      mstore\n      0x40\n      add\n      0x00\n      swap1\n      dup2\n      keccak256\n        /* \"Users/leilei/Downloads/MasterChefV2/contracts/PancakeProfile.sol\":54975:55005  users[_msgSender()].nftAddress */\n      0x03\n      add\n      sload\n      swap1\n      swap2\n      and\n      swap2\n      pop\n        /* \"Users/leilei/Downloads/MasterChefV2/contracts/PancakeProfile.sol\":55040:55045  users */\n      0x09\n      dup2\n        /* \"Users/leilei/Downloads/MasterChefV2/contracts/PancakeProfile.sol\":55046:55058  _msgSender() */\n      tag_197\n        /* \"Users/leilei/Downloads/MasterChefV2/contracts/PancakeProfile.sol\":55046:55056  _msgSender */\n      tag_190\n        /* \"Users/leilei/Downloads/MasterChefV2/contracts/PancakeProfile.sol\":55046:55058  _msgSender() */\n      jump\t// in\n    tag_197:\n      sub(shl(0xa0, 0x01), 0x01)\n        /* \"Users/leilei/Downloads/MasterChefV2/contracts/PancakeProfile.sol\":55040:55059  users[_msgSender()] */\n      and\n      sub(shl(0xa0, 0x01), 0x01)\n      and\n      dup2\n      mstore\n      0x20\n      add\n      swap1\n      dup2\n      mstore\n      0x20\n      add\n      0x00\n      keccak256\n        /* \"Users/leilei/Downloads/MasterChefV2/contracts/PancakeProfile.sol\":55040:55067  users[_msgSender()].tokenId */\n      0x04\n      add\n      sload\n        /* \"Users/leilei/Downloads/MasterChefV2/contracts/PancakeProfile.sol\":55015:55067  uint256 currentTokenId = users[_msgSender()].tokenId */\n      swap1\n      pop\n        /* \"Users/leilei/Downloads/MasterChefV2/contracts/PancakeProfile.sol\":55127:55146  IERC721 nftNewToken */\n      0x00\n        /* \"Users/leilei/Downloads/MasterChefV2/contracts/PancakeProfile.sol\":55157:55168  _nftAddress */\n      dup5\n        /* \"Users/leilei/Downloads/MasterChefV2/contracts/PancakeProfile.sol\":55127:55169  IERC721 nftNewToken = IERC721(_nftAddress) */\n      swap1\n      pop\n        /* \"Users/leilei/Downloads/MasterChefV2/contracts/PancakeProfile.sol\":55217:55228  nftNewToken */\n      dup1\n      sub(shl(0xa0, 0x01), 0x01)\n        /* \"Users/leilei/Downloads/MasterChefV2/contracts/PancakeProfile.sol\":55217:55236  nftNewToken.ownerOf */\n      and\n      0x6352211e\n        /* \"Users/leilei/Downloads/MasterChefV2/contracts/PancakeProfile.sol\":55237:55245  _tokenId */\n      dup6\n        /* \"Users/leilei/Downloads/MasterChefV2/contracts/PancakeProfile.sol\":55217:55246  nftNewToken.ownerOf(_tokenId) */\n      mload(0x40)\n      dup3\n      0xffffffff\n      and\n      0xe0\n      shl\n      dup2\n      mstore\n      0x04\n      add\n      dup1\n      dup3\n      dup2\n      mstore\n      0x20\n      add\n      swap2\n      pop\n      pop\n      0x20\n      mload(0x40)\n      dup1\n      dup4\n      sub\n      dup2\n      dup7\n      dup1\n      extcodesize\n      iszero\n        /* \"--CODEGEN--\":5:14   */\n      dup1\n        /* \"--CODEGEN--\":2:4   */\n      iszero\n      tag_198\n      jumpi\n        /* \"--CODEGEN--\":27:28   */\n      0x00\n        /* \"--CODEGEN--\":24:25   */\n      dup1\n        /* \"--CODEGEN--\":17:29   */\n      revert\n        /* \"--CODEGEN--\":2:4   */\n    tag_198:\n        /* \"Users/leilei/Downloads/MasterChefV2/contracts/PancakeProfile.sol\":55217:55246  nftNewToken.ownerOf(_tokenId) */\n      pop\n      gas\n      staticcall\n      iszero\n        /* \"--CODEGEN--\":8:17   */\n      dup1\n        /* \"--CODEGEN--\":5:7   */\n      iszero\n      tag_200\n      jumpi\n        /* \"--CODEGEN--\":45:61   */\n      returndatasize\n        /* \"--CODEGEN--\":42:43   */\n      0x00\n        /* \"--CODEGEN--\":39:40   */\n      dup1\n        /* \"--CODEGEN--\":24:62   */\n      returndatacopy\n        /* \"--CODEGEN--\":77:93   */\n      returndatasize\n        /* \"--CODEGEN--\":74:75   */\n      0x00\n        /* \"--CODEGEN--\":67:94   */\n      revert\n        /* \"--CODEGEN--\":5:7   */\n    tag_200:\n        /* \"Users/leilei/Downloads/MasterChefV2/contracts/PancakeProfile.sol\":55217:55246  nftNewToken.ownerOf(_tokenId) */\n      pop\n      pop\n      pop\n      pop\n      mload(0x40)\n      returndatasize\n        /* \"--CODEGEN--\":15:17   */\n      0x20\n        /* \"--CODEGEN--\":10:13   */\n      dup2\n        /* \"--CODEGEN--\":7:18   */\n      lt\n        /* \"--CODEGEN--\":4:6   */\n      iszero\n      tag_201\n      jumpi\n        /* \"--CODEGEN--\":31:32   */\n      0x00\n        /* \"--CODEGEN--\":28:29   */\n      dup1\n        /* \"--CODEGEN--\":21:33   */\n      revert\n        /* \"--CODEGEN--\":4:6   */\n    tag_201:\n      pop\n        /* \"Users/leilei/Downloads/MasterChefV2/contracts/PancakeProfile.sol\":55217:55246  nftNewToken.ownerOf(_tokenId) */\n      mload\n      sub(shl(0xa0, 0x01), 0x01)\n        /* \"Users/leilei/Downloads/MasterChefV2/contracts/PancakeProfile.sol\":55201:55246  _msgSender() == nftNewToken.ownerOf(_tokenId) */\n      and\n        /* \"Users/leilei/Downloads/MasterChefV2/contracts/PancakeProfile.sol\":55201:55213  _msgSender() */\n      tag_202\n        /* \"Users/leilei/Downloads/MasterChefV2/contracts/PancakeProfile.sol\":55201:55211  _msgSender */\n      tag_190\n        /* \"Users/leilei/Downloads/MasterChefV2/contracts/PancakeProfile.sol\":55201:55213  _msgSender() */\n      jump\t// in\n    tag_202:\n      sub(shl(0xa0, 0x01), 0x01)\n        /* \"Users/leilei/Downloads/MasterChefV2/contracts/PancakeProfile.sol\":55201:55246  _msgSender() == nftNewToken.ownerOf(_tokenId) */\n      and\n      eq\n        /* \"Users/leilei/Downloads/MasterChefV2/contracts/PancakeProfile.sol\":55180:55297  require(... */\n      tag_203\n      jumpi\n      0x40\n      dup1\n      mload\n      shl(0xe5, 0x461bcd)\n      dup2\n      mstore\n      0x20\n      0x04\n      dup3\n      add\n      mstore\n      0x19\n      0x24\n      dup3\n      add\n      mstore\n      shl(0x38, 0x4f6e6c79204e4654206f776e65722063616e20757064617465)\n      0x44\n      dup3\n      add\n      mstore\n      swap1\n      mload\n      swap1\n      dup2\n      swap1\n      sub\n      0x64\n      add\n      swap1\n      revert\n    tag_203:\n        /* \"Users/leilei/Downloads/MasterChefV2/contracts/PancakeProfile.sol\":55349:55360  nftNewToken */\n      dup1\n      sub(shl(0xa0, 0x01), 0x01)\n        /* \"Users/leilei/Downloads/MasterChefV2/contracts/PancakeProfile.sol\":55349:55377  nftNewToken.safeTransferFrom */\n      and\n      0x42842e0e\n        /* \"Users/leilei/Downloads/MasterChefV2/contracts/PancakeProfile.sol\":55378:55390  _msgSender() */\n      tag_204\n        /* \"Users/leilei/Downloads/MasterChefV2/contracts/PancakeProfile.sol\":55378:55388  _msgSender */\n      tag_190\n        /* \"Users/leilei/Downloads/MasterChefV2/contracts/PancakeProfile.sol\":55378:55390  _msgSender() */\n      jump\t// in\n    tag_204:\n        /* \"Users/leilei/Downloads/MasterChefV2/contracts/PancakeProfile.sol\":55349:55416  nftNewToken.safeTransferFrom(_msgSender(), address(this), _tokenId) */\n      0x40\n      dup1\n      mload\n      not(sub(shl(0xe0, 0x01), 0x01))\n      0xe0\n      dup6\n      swap1\n      shl\n      and\n      dup2\n      mstore\n      sub(shl(0xa0, 0x01), 0x01)\n      swap1\n      swap3\n      and\n      0x04\n      dup4\n      add\n      mstore\n        /* \"Users/leilei/Downloads/MasterChefV2/contracts/PancakeProfile.sol\":55400:55404  this */\n      address\n        /* \"Users/leilei/Downloads/MasterChefV2/contracts/PancakeProfile.sol\":55349:55416  nftNewToken.safeTransferFrom(_msgSender(), address(this), _tokenId) */\n      0x24\n      dup4\n      add\n      mstore\n      0x44\n      dup3\n      add\n      dup9\n      swap1\n      mstore\n      mload\n      0x64\n      dup1\n      dup4\n      add\n      swap3\n      0x00\n      swap3\n      swap2\n      swap1\n      dup3\n      swap1\n      sub\n      add\n      dup2\n      dup4\n      dup8\n      dup1\n      extcodesize\n      iszero\n        /* \"--CODEGEN--\":2:4   */\n      dup1\n      iszero\n      tag_205\n      jumpi\n        /* \"--CODEGEN--\":27:28   */\n      0x00\n        /* \"--CODEGEN--\":24:25   */\n      dup1\n        /* \"--CODEGEN--\":17:29   */\n      revert\n        /* \"--CODEGEN--\":2:4   */\n    tag_205:\n        /* \"Users/leilei/Downloads/MasterChefV2/contracts/PancakeProfile.sol\":55349:55416  nftNewToken.safeTransferFrom(_msgSender(), address(this), _tokenId) */\n      pop\n      gas\n      call\n      iszero\n        /* \"--CODEGEN--\":8:17   */\n      dup1\n        /* \"--CODEGEN--\":5:7   */\n      iszero\n      tag_207\n      jumpi\n        /* \"--CODEGEN--\":45:61   */\n      returndatasize\n        /* \"--CODEGEN--\":42:43   */\n      0x00\n        /* \"--CODEGEN--\":39:40   */\n      dup1\n        /* \"--CODEGEN--\":24:62   */\n      returndatacopy\n        /* \"--CODEGEN--\":77:93   */\n      returndatasize\n        /* \"--CODEGEN--\":74:75   */\n      0x00\n        /* \"--CODEGEN--\":67:94   */\n      revert\n        /* \"--CODEGEN--\":5:7   */\n    tag_207:\n        /* \"Users/leilei/Downloads/MasterChefV2/contracts/PancakeProfile.sol\":55349:55416  nftNewToken.safeTransferFrom(_msgSender(), address(this), _tokenId) */\n      pop\n      pop\n      pop\n      pop\n        /* \"Users/leilei/Downloads/MasterChefV2/contracts/PancakeProfile.sol\":55474:55595  cakeToken.safeTransferFrom(... */\n      tag_208\n        /* \"Users/leilei/Downloads/MasterChefV2/contracts/PancakeProfile.sol\":55514:55526  _msgSender() */\n      tag_209\n        /* \"Users/leilei/Downloads/MasterChefV2/contracts/PancakeProfile.sol\":55514:55524  _msgSender */\n      tag_190\n        /* \"Users/leilei/Downloads/MasterChefV2/contracts/PancakeProfile.sol\":55514:55526  _msgSender() */\n      jump\t// in\n    tag_209:\n        /* \"Users/leilei/Downloads/MasterChefV2/contracts/PancakeProfile.sol\":55567:55585  numberCakeToUpdate */\n      sload(0x05)\n        /* \"Users/leilei/Downloads/MasterChefV2/contracts/PancakeProfile.sol\":55474:55483  cakeToken */\n      and(sub(shl(0xa0, 0x01), 0x01), sload(0x01))\n      swap2\n        /* \"Users/leilei/Downloads/MasterChefV2/contracts/PancakeProfile.sol\":55474:55595  cakeToken.safeTransferFrom(... */\n      swap1\n        /* \"Users/leilei/Downloads/MasterChefV2/contracts/PancakeProfile.sol\":55548:55552  this */\n      address\n      swap1\n        /* \"Users/leilei/Downloads/MasterChefV2/contracts/PancakeProfile.sol\":55474:55595  cakeToken.safeTransferFrom(... */\n      0xffffffff\n        /* \"Users/leilei/Downloads/MasterChefV2/contracts/PancakeProfile.sol\":55474:55500  cakeToken.safeTransferFrom */\n      tag_210\n        /* \"Users/leilei/Downloads/MasterChefV2/contracts/PancakeProfile.sol\":55474:55595  cakeToken.safeTransferFrom(... */\n      and\n      jump\t// in\n    tag_208:\n        /* \"Users/leilei/Downloads/MasterChefV2/contracts/PancakeProfile.sol\":55689:55703  currentAddress */\n      dup3\n      sub(shl(0xa0, 0x01), 0x01)\n        /* \"Users/leilei/Downloads/MasterChefV2/contracts/PancakeProfile.sol\":55763:55795  nftCurrentToken.safeTransferFrom */\n      dup2\n      and\n      0x42842e0e\n        /* \"Users/leilei/Downloads/MasterChefV2/contracts/PancakeProfile.sol\":55817:55821  this */\n      address\n        /* \"Users/leilei/Downloads/MasterChefV2/contracts/PancakeProfile.sol\":55836:55848  _msgSender() */\n      tag_211\n        /* \"Users/leilei/Downloads/MasterChefV2/contracts/PancakeProfile.sol\":55836:55846  _msgSender */\n      tag_190\n        /* \"Users/leilei/Downloads/MasterChefV2/contracts/PancakeProfile.sol\":55836:55848  _msgSender() */\n      jump\t// in\n    tag_211:\n        /* \"Users/leilei/Downloads/MasterChefV2/contracts/PancakeProfile.sol\":55862:55876  currentTokenId */\n      dup7\n        /* \"Users/leilei/Downloads/MasterChefV2/contracts/PancakeProfile.sol\":55763:55886  nftCurrentToken.safeTransferFrom(... */\n      mload(0x40)\n      dup5\n      0xffffffff\n      and\n      0xe0\n      shl\n      dup2\n      mstore\n      0x04\n      add\n      dup1\n      dup5\n      sub(shl(0xa0, 0x01), 0x01)\n      and\n      sub(shl(0xa0, 0x01), 0x01)\n      and\n      dup2\n      mstore\n      0x20\n      add\n      dup4\n      sub(shl(0xa0, 0x01), 0x01)\n      and\n      sub(shl(0xa0, 0x01), 0x01)\n      and\n      dup2\n      mstore\n      0x20\n      add\n      dup3\n      dup2\n      mstore\n      0x20\n      add\n      swap4\n      pop\n      pop\n      pop\n      pop\n      0x00\n      mload(0x40)\n      dup1\n      dup4\n      sub\n      dup2\n      0x00\n      dup8\n      dup1\n      extcodesize\n      iszero\n        /* \"--CODEGEN--\":5:14   */\n      dup1\n        /* \"--CODEGEN--\":2:4   */\n      iszero\n      tag_212\n      jumpi\n        /* \"--CODEGEN--\":27:28   */\n      0x00\n        /* \"--CODEGEN--\":24:25   */\n      dup1\n        /* \"--CODEGEN--\":17:29   */\n      revert\n        /* \"--CODEGEN--\":2:4   */\n    tag_212:\n        /* \"Users/leilei/Downloads/MasterChefV2/contracts/PancakeProfile.sol\":55763:55886  nftCurrentToken.safeTransferFrom(... */\n      pop\n      gas\n      call\n      iszero\n        /* \"--CODEGEN--\":8:17   */\n      dup1\n        /* \"--CODEGEN--\":5:7   */\n      iszero\n      tag_214\n      jumpi\n        /* \"--CODEGEN--\":45:61   */\n      returndatasize\n        /* \"--CODEGEN--\":42:43   */\n      0x00\n        /* \"--CODEGEN--\":39:40   */\n      dup1\n        /* \"--CODEGEN--\":24:62   */\n      returndatacopy\n        /* \"--CODEGEN--\":77:93   */\n      returndatasize\n        /* \"--CODEGEN--\":74:75   */\n      0x00\n        /* \"--CODEGEN--\":67:94   */\n      revert\n        /* \"--CODEGEN--\":5:7   */\n    tag_214:\n        /* \"Users/leilei/Downloads/MasterChefV2/contracts/PancakeProfile.sol\":55763:55886  nftCurrentToken.safeTransferFrom(... */\n      pop\n      pop\n      pop\n      pop\n        /* \"Users/leilei/Downloads/MasterChefV2/contracts/PancakeProfile.sol\":55967:55978  _nftAddress */\n      dup6\n        /* \"Users/leilei/Downloads/MasterChefV2/contracts/PancakeProfile.sol\":55934:55939  users */\n      0x09\n        /* \"Users/leilei/Downloads/MasterChefV2/contracts/PancakeProfile.sol\":55934:55953  users[_msgSender()] */\n      0x00\n        /* \"Users/leilei/Downloads/MasterChefV2/contracts/PancakeProfile.sol\":55940:55952  _msgSender() */\n      tag_215\n        /* \"Users/leilei/Downloads/MasterChefV2/contracts/PancakeProfile.sol\":55940:55950  _msgSender */\n      tag_190\n        /* \"Users/leilei/Downloads/MasterChefV2/contracts/PancakeProfile.sol\":55940:55952  _msgSender() */\n      jump\t// in\n    tag_215:\n      sub(shl(0xa0, 0x01), 0x01)\n        /* \"Users/leilei/Downloads/MasterChefV2/contracts/PancakeProfile.sol\":55934:55953  users[_msgSender()] */\n      and\n      sub(shl(0xa0, 0x01), 0x01)\n      and\n      dup2\n      mstore\n      0x20\n      add\n      swap1\n      dup2\n      mstore\n      0x20\n      add\n      0x00\n      keccak256\n        /* \"Users/leilei/Downloads/MasterChefV2/contracts/PancakeProfile.sol\":55934:55964  users[_msgSender()].nftAddress */\n      0x03\n      add\n      0x00\n        /* \"Users/leilei/Downloads/MasterChefV2/contracts/PancakeProfile.sol\":55934:55978  users[_msgSender()].nftAddress = _nftAddress */\n      0x0100\n      exp\n      dup2\n      sload\n      dup2\n      sub(shl(0xa0, 0x01), 0x01)\n      mul\n      not\n      and\n      swap1\n      dup4\n      sub(shl(0xa0, 0x01), 0x01)\n      and\n      mul\n      or\n      swap1\n      sstore\n      pop\n        /* \"Users/leilei/Downloads/MasterChefV2/contracts/PancakeProfile.sol\":56018:56026  _tokenId */\n      dup5\n        /* \"Users/leilei/Downloads/MasterChefV2/contracts/PancakeProfile.sol\":55988:55993  users */\n      0x09\n        /* \"Users/leilei/Downloads/MasterChefV2/contracts/PancakeProfile.sol\":55988:56007  users[_msgSender()] */\n      0x00\n        /* \"Users/leilei/Downloads/MasterChefV2/contracts/PancakeProfile.sol\":55994:56006  _msgSender() */\n      tag_216\n        /* \"Users/leilei/Downloads/MasterChefV2/contracts/PancakeProfile.sol\":55994:56004  _msgSender */\n      tag_190\n        /* \"Users/leilei/Downloads/MasterChefV2/contracts/PancakeProfile.sol\":55994:56006  _msgSender() */\n      jump\t// in\n    tag_216:\n      sub(shl(0xa0, 0x01), 0x01)\n        /* \"Users/leilei/Downloads/MasterChefV2/contracts/PancakeProfile.sol\":55988:56007  users[_msgSender()] */\n      and\n      dup2\n      mstore\n      0x20\n      dup2\n      add\n      swap2\n      swap1\n      swap2\n      mstore\n      0x40\n      add\n      0x00\n      keccak256\n        /* \"Users/leilei/Downloads/MasterChefV2/contracts/PancakeProfile.sol\":55988:56015  users[_msgSender()].tokenId */\n      0x04\n      add\n        /* \"Users/leilei/Downloads/MasterChefV2/contracts/PancakeProfile.sol\":55988:56026  users[_msgSender()].tokenId = _tokenId */\n      sstore\n        /* \"Users/leilei/Downloads/MasterChefV2/contracts/PancakeProfile.sol\":56053:56065  _msgSender() */\n      tag_217\n        /* \"Users/leilei/Downloads/MasterChefV2/contracts/PancakeProfile.sol\":56053:56063  _msgSender */\n      tag_190\n        /* \"Users/leilei/Downloads/MasterChefV2/contracts/PancakeProfile.sol\":56053:56065  _msgSender() */\n      jump\t// in\n    tag_217:\n        /* \"Users/leilei/Downloads/MasterChefV2/contracts/PancakeProfile.sol\":56042:56089  UserUpdate(_msgSender(), _nftAddress, _tokenId) */\n      0x40\n      dup1\n      mload\n      sub(shl(0xa0, 0x01), 0x01)\n      dup10\n      dup2\n      and\n      dup3\n      mstore\n      0x20\n      dup3\n      add\n      dup10\n      swap1\n      mstore\n      dup3\n      mload\n      swap4\n      and\n      swap3\n      0xe8e88d4216f3bbc2d1a4dd55aa66fd3e0065ef03970fa056a19d018ca19d5805\n      swap3\n      swap2\n      dup2\n      swap1\n      sub\n      swap1\n      swap2\n      add\n      swap1\n      log2\n        /* \"Users/leilei/Downloads/MasterChefV2/contracts/PancakeProfile.sol\":54662:56096  function updateProfile(address _nftAddress, uint256 _tokenId) external {... */\n      pop\n      pop\n      pop\n      pop\n      pop\n      pop\n      jump\t// out\n        /* \"Users/leilei/Downloads/MasterChefV2/contracts/PancakeProfile.sol\":61067:61875  function addTeam(... */\n    tag_61:\n        /* \"Users/leilei/Downloads/MasterChefV2/contracts/PancakeProfile.sol\":50060:50101  hasRole(DEFAULT_ADMIN_ROLE, _msgSender()) */\n      tag_219\n        /* \"Users/leilei/Downloads/MasterChefV2/contracts/PancakeProfile.sol\":19902:19906  0x00 */\n      0x00\n        /* \"Users/leilei/Downloads/MasterChefV2/contracts/PancakeProfile.sol\":50088:50100  _msgSender() */\n      tag_220\n        /* \"Users/leilei/Downloads/MasterChefV2/contracts/PancakeProfile.sol\":50088:50098  _msgSender */\n      tag_190\n        /* \"Users/leilei/Downloads/MasterChefV2/contracts/PancakeProfile.sol\":50088:50100  _msgSender() */\n      jump\t// in\n    tag_220:\n        /* \"Users/leilei/Downloads/MasterChefV2/contracts/PancakeProfile.sol\":50060:50067  hasRole */\n      tag_114\n        /* \"Users/leilei/Downloads/MasterChefV2/contracts/PancakeProfile.sol\":50060:50101  hasRole(DEFAULT_ADMIN_ROLE, _msgSender()) */\n      jump\t// in\n    tag_219:\n        /* \"Users/leilei/Downloads/MasterChefV2/contracts/PancakeProfile.sol\":50039:50145  require(... */\n      tag_221\n      jumpi\n      0x40\n      dup1\n      mload\n      shl(0xe5, 0x461bcd)\n      dup2\n      mstore\n      0x20\n      0x04\n      dup3\n      add\n      mstore\n      0x12\n      0x24\n      dup3\n      add\n      mstore\n      shl(0x71, 0x2737ba103a34329036b0b4b71030b236b4b7)\n      0x44\n      dup3\n      add\n      mstore\n      swap1\n      mload\n      swap1\n      dup2\n      swap1\n      sub\n      0x64\n      add\n      swap1\n      revert\n    tag_221:\n        /* \"Users/leilei/Downloads/MasterChefV2/contracts/PancakeProfile.sol\":61241:61262  bytes memory strBytes */\n      0x60\n        /* \"Users/leilei/Downloads/MasterChefV2/contracts/PancakeProfile.sol\":61271:61280  _teamName */\n      dup5\n      dup5\n        /* \"Users/leilei/Downloads/MasterChefV2/contracts/PancakeProfile.sol\":61241:61281  bytes memory strBytes = bytes(_teamName) */\n      dup1\n      dup1\n      0x1f\n      add\n      0x20\n      dup1\n      swap2\n      div\n      mul\n      0x20\n      add\n      mload(0x40)\n      swap1\n      dup2\n      add\n      0x40\n      mstore\n      dup1\n      swap4\n      swap3\n      swap2\n      swap1\n      dup2\n      dup2\n      mstore\n      0x20\n      add\n      dup4\n      dup4\n        /* \"--CODEGEN--\":30:33   */\n      dup1\n        /* \"--CODEGEN--\":22:28   */\n      dup3\n        /* \"--CODEGEN--\":14:20   */\n      dup5\n        /* \"--CODEGEN--\":1:34   */\n      calldatacopy\n        /* \"--CODEGEN--\":99:100   */\n      0x00\n        /* \"--CODEGEN--\":81:97   */\n      swap3\n      add\n        /* \"--CODEGEN--\":74:101   */\n      swap2\n      swap1\n      swap2\n      mstore\n      pop\n      pop\n        /* \"Users/leilei/Downloads/MasterChefV2/contracts/PancakeProfile.sol\":61299:61314  strBytes.length */\n      dup3\n      mload\n        /* \"Users/leilei/Downloads/MasterChefV2/contracts/PancakeProfile.sol\":61241:61281  bytes memory strBytes = bytes(_teamName) */\n      swap3\n      swap4\n      pop\n      pop\n        /* \"Users/leilei/Downloads/MasterChefV2/contracts/PancakeProfile.sol\":61317:61319  20 */\n      0x14\n        /* \"Users/leilei/Downloads/MasterChefV2/contracts/PancakeProfile.sol\":61299:61319  strBytes.length < 20 */\n      swap1\n      swap2\n      lt\n      swap1\n      pop\n        /* \"Users/leilei/Downloads/MasterChefV2/contracts/PancakeProfile.sol\":61291:61336  require(strBytes.length < 20, \"Must be < 20\") */\n      tag_223\n      jumpi\n      0x40\n      dup1\n      mload\n      shl(0xe5, 0x461bcd)\n      dup2\n      mstore\n      0x20\n      0x04\n      dup3\n      add\n      mstore\n      0x0c\n      0x24\n      dup3\n      add\n      mstore\n      shl(0xa4, 0x04d757374206265203c20323)\n      0x44\n      dup3\n      add\n      mstore\n      swap1\n      mload\n      swap1\n      dup2\n      swap1\n      sub\n      0x64\n      add\n      swap1\n      revert\n    tag_223:\n        /* \"Users/leilei/Downloads/MasterChefV2/contracts/PancakeProfile.sol\":61372:61373  3 */\n      0x03\n        /* \"Users/leilei/Downloads/MasterChefV2/contracts/PancakeProfile.sol\":61354:61362  strBytes */\n      dup2\n        /* \"Users/leilei/Downloads/MasterChefV2/contracts/PancakeProfile.sol\":61354:61369  strBytes.length */\n      mload\n        /* \"Users/leilei/Downloads/MasterChefV2/contracts/PancakeProfile.sol\":61354:61373  strBytes.length > 3 */\n      gt\n        /* \"Users/leilei/Downloads/MasterChefV2/contracts/PancakeProfile.sol\":61346:61389  require(strBytes.length > 3, \"Must be > 3\") */\n      tag_224\n      jumpi\n      0x40\n      dup1\n      mload\n      shl(0xe5, 0x461bcd)\n      dup2\n      mstore\n      0x20\n      0x04\n      dup3\n      add\n      mstore\n      0x0b\n      0x24\n      dup3\n      add\n      mstore\n      shl(0xa8, 0x4d757374206265203e2033)\n      0x44\n      dup3\n      add\n      mstore\n      swap1\n      mload\n      swap1\n      dup2\n      swap1\n      sub\n      0x64\n      add\n      swap1\n      revert\n    tag_224:\n        /* \"Users/leilei/Downloads/MasterChefV2/contracts/PancakeProfile.sol\":61460:61483  _countTeams.increment() */\n      tag_225\n        /* \"Users/leilei/Downloads/MasterChefV2/contracts/PancakeProfile.sol\":61460:61471  _countTeams */\n      0x0a\n        /* \"Users/leilei/Downloads/MasterChefV2/contracts/PancakeProfile.sol\":61460:61481  _countTeams.increment */\n      tag_226\n        /* \"Users/leilei/Downloads/MasterChefV2/contracts/PancakeProfile.sol\":61460:61483  _countTeams.increment() */\n      jump\t// in\n    tag_225:\n        /* \"Users/leilei/Downloads/MasterChefV2/contracts/PancakeProfile.sol\":61493:61510  uint256 newTeamId */\n      0x00\n        /* \"Users/leilei/Downloads/MasterChefV2/contracts/PancakeProfile.sol\":61513:61534  _countTeams.current() */\n      tag_227\n        /* \"Users/leilei/Downloads/MasterChefV2/contracts/PancakeProfile.sol\":61513:61524  _countTeams */\n      0x0a\n        /* \"Users/leilei/Downloads/MasterChefV2/contracts/PancakeProfile.sol\":61513:61532  _countTeams.current */\n      tag_228\n        /* \"Users/leilei/Downloads/MasterChefV2/contracts/PancakeProfile.sol\":61513:61534  _countTeams.current() */\n      jump\t// in\n    tag_227:\n        /* \"Users/leilei/Downloads/MasterChefV2/contracts/PancakeProfile.sol\":61607:61790  Team({... */\n      0x40\n      dup1\n      mload\n      0xc0\n      0x20\n      0x1f\n      dup11\n      add\n      dup2\n      swap1\n      div\n      mul\n      dup3\n      add\n      dup2\n      add\n      swap1\n      swap3\n      mstore\n      0xa0\n      dup2\n      add\n      dup9\n      dup2\n      mstore\n        /* \"Users/leilei/Downloads/MasterChefV2/contracts/PancakeProfile.sol\":61493:61534  uint256 newTeamId = _countTeams.current() */\n      swap3\n      swap4\n      pop\n        /* \"Users/leilei/Downloads/MasterChefV2/contracts/PancakeProfile.sol\":61607:61790  Team({... */\n      swap2\n      dup3\n      swap2\n        /* \"Users/leilei/Downloads/MasterChefV2/contracts/PancakeProfile.sol\":61636:61645  _teamName */\n      dup10\n      swap1\n      dup10\n      swap1\n      dup2\n      swap1\n        /* \"Users/leilei/Downloads/MasterChefV2/contracts/PancakeProfile.sol\":61607:61790  Team({... */\n      dup6\n      add\n        /* \"Users/leilei/Downloads/MasterChefV2/contracts/PancakeProfile.sol\":61636:61645  _teamName */\n      dup4\n      dup3\n      dup1\n      dup3\n        /* \"Users/leilei/Downloads/MasterChefV2/contracts/PancakeProfile.sol\":61607:61790  Team({... */\n      dup5\n        /* \"--CODEGEN--\":1:34   */\n      calldatacopy\n        /* \"--CODEGEN--\":99:100   */\n      0x00\n        /* \"--CODEGEN--\":81:97   */\n      swap3\n      add\n        /* \"--CODEGEN--\":74:101   */\n      swap2\n      swap1\n      swap2\n      mstore\n      pop\n      pop\n      pop\n        /* \"Users/leilei/Downloads/MasterChefV2/contracts/PancakeProfile.sol\":61607:61790  Team({... */\n      swap1\n      dup3\n      mstore\n      pop\n      0x40\n      dup1\n      mload\n      0x20\n        /* \"--CODEGEN--\":137:141   */\n      0x1f\n        /* \"Users/leilei/Downloads/MasterChefV2/contracts/PancakeProfile.sol\":61607:61790  Team({... */\n      dup9\n      add\n      dup2\n      swap1\n      div\n      dup2\n      mul\n      dup3\n      add\n      dup2\n      add\n      swap1\n      swap3\n      mstore\n      dup7\n      dup2\n      mstore\n      swap2\n      dup2\n      add\n      swap2\n      swap1\n        /* \"Users/leilei/Downloads/MasterChefV2/contracts/PancakeProfile.sol\":61676:61692  _teamDescription */\n      dup8\n      swap1\n      dup8\n      swap1\n      dup2\n      swap1\n        /* \"Users/leilei/Downloads/MasterChefV2/contracts/PancakeProfile.sol\":61607:61790  Team({... */\n      dup5\n      add\n        /* \"Users/leilei/Downloads/MasterChefV2/contracts/PancakeProfile.sol\":61676:61692  _teamDescription */\n      dup4\n      dup3\n      dup1\n      dup3\n        /* \"Users/leilei/Downloads/MasterChefV2/contracts/PancakeProfile.sol\":61607:61790  Team({... */\n      dup5\n        /* \"--CODEGEN--\":1:34   */\n      calldatacopy\n        /* \"--CODEGEN--\":99:100   */\n      0x00\n        /* \"--CODEGEN--\":81:97   */\n      swap3\n      add\n        /* \"--CODEGEN--\":74:101   */\n      dup3\n      swap1\n      mstore\n      pop\n        /* \"Users/leilei/Downloads/MasterChefV2/contracts/PancakeProfile.sol\":61607:61790  Team({... */\n      swap4\n      dup6\n      mstore\n      pop\n      pop\n      pop\n      0x20\n      dup1\n      dup4\n      add\n      dup3\n      swap1\n      mstore\n      0x40\n      dup1\n      dup5\n      add\n      dup4\n      swap1\n      mstore\n        /* \"Users/leilei/Downloads/MasterChefV2/contracts/PancakeProfile.sol\":61775:61779  true */\n      0x01\n        /* \"Users/leilei/Downloads/MasterChefV2/contracts/PancakeProfile.sol\":61607:61790  Team({... */\n      0x60\n      swap1\n      swap5\n      add\n      swap4\n      swap1\n      swap4\n      mstore\n        /* \"Users/leilei/Downloads/MasterChefV2/contracts/PancakeProfile.sol\":61588:61604  teams[newTeamId] */\n      dup5\n      dup3\n      mstore\n        /* \"Users/leilei/Downloads/MasterChefV2/contracts/PancakeProfile.sol\":61588:61593  teams */\n      0x08\n        /* \"Users/leilei/Downloads/MasterChefV2/contracts/PancakeProfile.sol\":61588:61604  teams[newTeamId] */\n      dup2\n      mstore\n      swap2\n      swap1\n      keccak256\n        /* \"Users/leilei/Downloads/MasterChefV2/contracts/PancakeProfile.sol\":61588:61790  teams[newTeamId] = Team({... */\n      dup3\n      mload\n      dup1\n      mload\n        /* \"Users/leilei/Downloads/MasterChefV2/contracts/PancakeProfile.sol\":61588:61604  teams[newTeamId] */\n      swap2\n      swap3\n        /* \"Users/leilei/Downloads/MasterChefV2/contracts/PancakeProfile.sol\":61588:61790  teams[newTeamId] = Team({... */\n      tag_229\n      swap3\n        /* \"Users/leilei/Downloads/MasterChefV2/contracts/PancakeProfile.sol\":61588:61604  teams[newTeamId] */\n      dup5\n      swap3\n        /* \"Users/leilei/Downloads/MasterChefV2/contracts/PancakeProfile.sol\":61588:61790  teams[newTeamId] = Team({... */\n      swap1\n      swap2\n      add\n      swap1\n      tag_230\n      jump\t// in\n    tag_229:\n      pop\n      0x20\n      dup3\n      dup2\n      add\n      mload\n      dup1\n      mload\n      tag_231\n      swap3\n      0x01\n      dup6\n      add\n      swap3\n      add\n      swap1\n      tag_230\n      jump\t// in\n    tag_231:\n      pop\n      0x40\n      dup3\n      dup2\n      add\n      mload\n      0x02\n      dup4\n      add\n      sstore\n      0x60\n      dup1\n      dup5\n      add\n      mload\n      0x03\n      dup5\n      add\n      sstore\n      0x80\n      swap1\n      swap4\n      add\n      mload\n      0x04\n      swap1\n      swap3\n      add\n      dup1\n      sload\n      not(0xff)\n      and\n      swap3\n      iszero\n      iszero\n      swap3\n      swap1\n      swap3\n      or\n      swap1\n      swap2\n      sstore\n        /* \"Users/leilei/Downloads/MasterChefV2/contracts/PancakeProfile.sol\":61801:61812  numberTeams */\n      0x06\n        /* \"Users/leilei/Downloads/MasterChefV2/contracts/PancakeProfile.sol\":61801:61824  numberTeams = newTeamId */\n      dup4\n      swap1\n      sstore\n        /* \"Users/leilei/Downloads/MasterChefV2/contracts/PancakeProfile.sol\":61839:61868  TeamAdd(newTeamId, _teamName) */\n      dup1\n      mload\n      dup4\n      dup2\n      mstore\n      0x20\n      dup2\n      add\n      dup3\n      dup2\n      mstore\n      swap2\n      dup2\n      add\n      dup9\n      swap1\n      mstore\n      0x1137f48534f03e02268dec7839069a7484bc6788c43e4ed9dc38dd8a2f269bc7\n      swap3\n        /* \"Users/leilei/Downloads/MasterChefV2/contracts/PancakeProfile.sol\":61801:61824  numberTeams = newTeamId */\n      dup5\n      swap3\n        /* \"Users/leilei/Downloads/MasterChefV2/contracts/PancakeProfile.sol\":61858:61867  _teamName */\n      dup11\n      swap3\n        /* \"Users/leilei/Downloads/MasterChefV2/contracts/PancakeProfile.sol\":61839:61868  TeamAdd(newTeamId, _teamName) */\n      dup11\n      swap3\n      swap1\n      swap2\n      swap1\n      dup3\n      add\n        /* \"Users/leilei/Downloads/MasterChefV2/contracts/PancakeProfile.sol\":61858:61867  _teamName */\n      dup5\n        /* \"Users/leilei/Downloads/MasterChefV2/contracts/PancakeProfile.sol\":61839:61868  TeamAdd(newTeamId, _teamName) */\n      dup5\n      dup1\n        /* \"Users/leilei/Downloads/MasterChefV2/contracts/PancakeProfile.sol\":61858:61867  _teamName */\n      dup3\n        /* \"Users/leilei/Downloads/MasterChefV2/contracts/PancakeProfile.sol\":61839:61868  TeamAdd(newTeamId, _teamName) */\n      dup5\n        /* \"--CODEGEN--\":1:34   */\n      calldatacopy\n        /* \"--CODEGEN--\":99:100   */\n      0x00\n        /* \"--CODEGEN--\":81:97   */\n      dup4\n      dup3\n      add\n        /* \"--CODEGEN--\":74:101   */\n      mstore\n        /* \"Users/leilei/Downloads/MasterChefV2/contracts/PancakeProfile.sol\":61839:61868  TeamAdd(newTeamId, _teamName) */\n      mload(0x40)\n        /* \"--CODEGEN--\":137:141   */\n      0x1f\n        /* \"--CODEGEN--\":117:131   */\n      swap1\n      swap2\n      add\n      not(0x1f)\n        /* \"--CODEGEN--\":113:143   */\n      and\n        /* \"--CODEGEN--\":157:173   */\n      swap1\n      swap3\n      add\n        /* \"Users/leilei/Downloads/MasterChefV2/contracts/PancakeProfile.sol\":61839:61868  TeamAdd(newTeamId, _teamName) */\n      dup3\n      swap1\n      sub\n      swap7\n      pop\n      swap1\n      swap5\n      pop\n      pop\n      pop\n      pop\n      pop\n      log1\n        /* \"Users/leilei/Downloads/MasterChefV2/contracts/PancakeProfile.sol\":50155:50156  _ */\n      pop\n      pop\n        /* \"Users/leilei/Downloads/MasterChefV2/contracts/PancakeProfile.sol\":61067:61875  function addTeam(... */\n      pop\n      pop\n      pop\n      pop\n      jump\t// out\n        /* \"Users/leilei/Downloads/MasterChefV2/contracts/PancakeProfile.sol\":39667:39867  function onERC721Received(... */\n    tag_67:\n      shl(0xe1, 0x0a85bd01)\n      swap5\n      swap4\n      pop\n      pop\n      pop\n      pop\n      jump\t// out\n        /* \"Users/leilei/Downloads/MasterChefV2/contracts/PancakeProfile.sol\":57704:58101  function increaseUserPoints(... */\n    tag_70:\n        /* \"Users/leilei/Downloads/MasterChefV2/contracts/PancakeProfile.sol\":47866:47889  keccak256(\"POINT_ROLE\") */\n      0x40\n      dup1\n      mload\n      shl(0xb0, 0x504f494e545f524f4c45)\n      dup2\n      mstore\n      swap1\n      mload\n      swap1\n      dup2\n      swap1\n      sub\n      0x0a\n      add\n      swap1\n      keccak256\n        /* \"Users/leilei/Downloads/MasterChefV2/contracts/PancakeProfile.sol\":50240:50273  hasRole(POINT_ROLE, _msgSender()) */\n      tag_234\n      swap1\n        /* \"Users/leilei/Downloads/MasterChefV2/contracts/PancakeProfile.sol\":50260:50272  _msgSender() */\n      tag_220\n        /* \"Users/leilei/Downloads/MasterChefV2/contracts/PancakeProfile.sol\":50260:50270  _msgSender */\n      tag_190\n        /* \"Users/leilei/Downloads/MasterChefV2/contracts/PancakeProfile.sol\":50260:50272  _msgSender() */\n      jump\t// in\n        /* \"Users/leilei/Downloads/MasterChefV2/contracts/PancakeProfile.sol\":50240:50273  hasRole(POINT_ROLE, _msgSender()) */\n    tag_234:\n        /* \"Users/leilei/Downloads/MasterChefV2/contracts/PancakeProfile.sol\":50232:50295  require(hasRole(POINT_ROLE, _msgSender()), \"Not a point admin\") */\n      tag_236\n      jumpi\n      0x40\n      dup1\n      mload\n      shl(0xe5, 0x461bcd)\n      dup2\n      mstore\n      0x20\n      0x04\n      dup3\n      add\n      mstore\n      0x11\n      0x24\n      dup3\n      add\n      mstore\n      shl(0x79, 0x2737ba1030903837b4b73a1030b236b4b7)\n      0x44\n      dup3\n      add\n      mstore\n      swap1\n      mload\n      swap1\n      dup2\n      swap1\n      sub\n      0x64\n      add\n      swap1\n      revert\n    tag_236:\n      sub(shl(0xa0, 0x01), 0x01)\n        /* \"Users/leilei/Downloads/MasterChefV2/contracts/PancakeProfile.sol\":57946:57965  users[_userAddress] */\n      dup4\n      and\n      0x00\n      swap1\n      dup2\n      mstore\n        /* \"Users/leilei/Downloads/MasterChefV2/contracts/PancakeProfile.sol\":57946:57951  users */\n      0x09\n        /* \"Users/leilei/Downloads/MasterChefV2/contracts/PancakeProfile.sol\":57946:57965  users[_userAddress] */\n      0x20\n      mstore\n      0x40\n      swap1\n      keccak256\n        /* \"Users/leilei/Downloads/MasterChefV2/contracts/PancakeProfile.sol\":57946:57978  users[_userAddress].numberPoints */\n      0x01\n      add\n      sload\n        /* \"Users/leilei/Downloads/MasterChefV2/contracts/PancakeProfile.sol\":57946:58019  users[_userAddress].numberPoints.add(... */\n      tag_238\n      swap1\n        /* \"Users/leilei/Downloads/MasterChefV2/contracts/PancakeProfile.sol\":57996:58009  _numberPoints */\n      dup4\n        /* \"Users/leilei/Downloads/MasterChefV2/contracts/PancakeProfile.sol\":57946:58019  users[_userAddress].numberPoints.add(... */\n      0xffffffff\n        /* \"Users/leilei/Downloads/MasterChefV2/contracts/PancakeProfile.sol\":57946:57982  users[_userAddress].numberPoints.add */\n      tag_239\n        /* \"Users/leilei/Downloads/MasterChefV2/contracts/PancakeProfile.sol\":57946:58019  users[_userAddress].numberPoints.add(... */\n      and\n      jump\t// in\n    tag_238:\n      sub(shl(0xa0, 0x01), 0x01)\n        /* \"Users/leilei/Downloads/MasterChefV2/contracts/PancakeProfile.sol\":57911:57930  users[_userAddress] */\n      dup5\n      and\n      0x00\n      dup2\n      dup2\n      mstore\n        /* \"Users/leilei/Downloads/MasterChefV2/contracts/PancakeProfile.sol\":57911:57916  users */\n      0x09\n        /* \"Users/leilei/Downloads/MasterChefV2/contracts/PancakeProfile.sol\":57911:57930  users[_userAddress] */\n      0x20\n      swap1\n      dup2\n      mstore\n      0x40\n      swap2\n      dup3\n      swap1\n      keccak256\n        /* \"Users/leilei/Downloads/MasterChefV2/contracts/PancakeProfile.sol\":57911:57943  users[_userAddress].numberPoints */\n      0x01\n      add\n        /* \"Users/leilei/Downloads/MasterChefV2/contracts/PancakeProfile.sol\":57911:58019  users[_userAddress].numberPoints = users[_userAddress].numberPoints.add(... */\n      swap4\n      swap1\n      swap4\n      sstore\n        /* \"Users/leilei/Downloads/MasterChefV2/contracts/PancakeProfile.sol\":58035:58094  UserPointIncrease(_userAddress, _numberPoints, _campaignId) */\n      dup1\n      mload\n      dup6\n      dup2\n      mstore\n      swap1\n      mload\n        /* \"Users/leilei/Downloads/MasterChefV2/contracts/PancakeProfile.sol\":58082:58093  _campaignId */\n      dup5\n      swap4\n        /* \"Users/leilei/Downloads/MasterChefV2/contracts/PancakeProfile.sol\":58035:58094  UserPointIncrease(_userAddress, _numberPoints, _campaignId) */\n      0x04bc07bcb78bb21e5665cf01cd24f6a6a06e21fd20d60df8f0fa8d58c66f2934\n      swap3\n      dup3\n      swap1\n      sub\n      add\n      swap1\n      log3\n        /* \"Users/leilei/Downloads/MasterChefV2/contracts/PancakeProfile.sol\":57704:58101  function increaseUserPoints(... */\n      pop\n      pop\n      pop\n      jump\t// out\n        /* \"Users/leilei/Downloads/MasterChefV2/contracts/PancakeProfile.sol\":48091:48124  uint256 public numberCakeToUpdate */\n    tag_72:\n      sload(0x05)\n      dup2\n      jump\t// out\n        /* \"Users/leilei/Downloads/MasterChefV2/contracts/PancakeProfile.sol\":58931:59308  function increaseTeamPoints(... */\n    tag_75:\n        /* \"Users/leilei/Downloads/MasterChefV2/contracts/PancakeProfile.sol\":47866:47889  keccak256(\"POINT_ROLE\") */\n      0x40\n      dup1\n      mload\n      shl(0xb0, 0x504f494e545f524f4c45)\n      dup2\n      mstore\n      swap1\n      mload\n      swap1\n      dup2\n      swap1\n      sub\n      0x0a\n      add\n      swap1\n      keccak256\n        /* \"Users/leilei/Downloads/MasterChefV2/contracts/PancakeProfile.sol\":50240:50273  hasRole(POINT_ROLE, _msgSender()) */\n      tag_241\n      swap1\n        /* \"Users/leilei/Downloads/MasterChefV2/contracts/PancakeProfile.sol\":50260:50272  _msgSender() */\n      tag_220\n        /* \"Users/leilei/Downloads/MasterChefV2/contracts/PancakeProfile.sol\":50260:50270  _msgSender */\n      tag_190\n        /* \"Users/leilei/Downloads/MasterChefV2/contracts/PancakeProfile.sol\":50260:50272  _msgSender() */\n      jump\t// in\n        /* \"Users/leilei/Downloads/MasterChefV2/contracts/PancakeProfile.sol\":50240:50273  hasRole(POINT_ROLE, _msgSender()) */\n    tag_241:\n        /* \"Users/leilei/Downloads/MasterChefV2/contracts/PancakeProfile.sol\":50232:50295  require(hasRole(POINT_ROLE, _msgSender()), \"Not a point admin\") */\n      tag_243\n      jumpi\n      0x40\n      dup1\n      mload\n      shl(0xe5, 0x461bcd)\n      dup2\n      mstore\n      0x20\n      0x04\n      dup3\n      add\n      mstore\n      0x11\n      0x24\n      dup3\n      add\n      mstore\n      shl(0x79, 0x2737ba1030903837b4b73a1030b236b4b7)\n      0x44\n      dup3\n      add\n      mstore\n      swap1\n      mload\n      swap1\n      dup2\n      swap1\n      sub\n      0x64\n      add\n      swap1\n      revert\n    tag_243:\n        /* \"Users/leilei/Downloads/MasterChefV2/contracts/PancakeProfile.sol\":59163:59177  teams[_teamId] */\n      0x00\n      dup4\n      dup2\n      mstore\n        /* \"Users/leilei/Downloads/MasterChefV2/contracts/PancakeProfile.sol\":59163:59168  teams */\n      0x08\n        /* \"Users/leilei/Downloads/MasterChefV2/contracts/PancakeProfile.sol\":59163:59177  teams[_teamId] */\n      0x20\n      mstore\n      0x40\n      swap1\n      keccak256\n        /* \"Users/leilei/Downloads/MasterChefV2/contracts/PancakeProfile.sol\":59163:59190  teams[_teamId].numberPoints */\n      0x03\n      add\n      sload\n        /* \"Users/leilei/Downloads/MasterChefV2/contracts/PancakeProfile.sol\":59163:59231  teams[_teamId].numberPoints.add(... */\n      tag_245\n      swap1\n        /* \"Users/leilei/Downloads/MasterChefV2/contracts/PancakeProfile.sol\":59208:59221  _numberPoints */\n      dup4\n        /* \"Users/leilei/Downloads/MasterChefV2/contracts/PancakeProfile.sol\":59163:59231  teams[_teamId].numberPoints.add(... */\n      0xffffffff\n        /* \"Users/leilei/Downloads/MasterChefV2/contracts/PancakeProfile.sol\":59163:59194  teams[_teamId].numberPoints.add */\n      tag_239\n        /* \"Users/leilei/Downloads/MasterChefV2/contracts/PancakeProfile.sol\":59163:59231  teams[_teamId].numberPoints.add(... */\n      and\n      jump\t// in\n    tag_245:\n        /* \"Users/leilei/Downloads/MasterChefV2/contracts/PancakeProfile.sol\":59133:59138  teams */\n      0x08\n        /* \"Users/leilei/Downloads/MasterChefV2/contracts/PancakeProfile.sol\":59133:59147  teams[_teamId] */\n      0x00\n        /* \"Users/leilei/Downloads/MasterChefV2/contracts/PancakeProfile.sol\":59139:59146  _teamId */\n      dup6\n        /* \"Users/leilei/Downloads/MasterChefV2/contracts/PancakeProfile.sol\":59133:59147  teams[_teamId] */\n      dup2\n      mstore\n      0x20\n      add\n      swap1\n      dup2\n      mstore\n      0x20\n      add\n      0x00\n      keccak256\n        /* \"Users/leilei/Downloads/MasterChefV2/contracts/PancakeProfile.sol\":59133:59160  teams[_teamId].numberPoints */\n      0x03\n      add\n        /* \"Users/leilei/Downloads/MasterChefV2/contracts/PancakeProfile.sol\":59133:59231  teams[_teamId].numberPoints = teams[_teamId].numberPoints.add(... */\n      dup2\n      swap1\n      sstore\n      pop\n        /* \"Users/leilei/Downloads/MasterChefV2/contracts/PancakeProfile.sol\":59289:59300  _campaignId */\n      dup1\n        /* \"Users/leilei/Downloads/MasterChefV2/contracts/PancakeProfile.sol\":59265:59272  _teamId */\n      dup4\n        /* \"Users/leilei/Downloads/MasterChefV2/contracts/PancakeProfile.sol\":59247:59301  TeamPointIncrease(_teamId, _numberPoints, _campaignId) */\n      0x2056366a9d1345af9da00985231357931fb77dc7fa7bdf71058e3ca3816f9d38\n        /* \"Users/leilei/Downloads/MasterChefV2/contracts/PancakeProfile.sol\":59274:59287  _numberPoints */\n      dup5\n        /* \"Users/leilei/Downloads/MasterChefV2/contracts/PancakeProfile.sol\":59247:59301  TeamPointIncrease(_teamId, _numberPoints, _campaignId) */\n      mload(0x40)\n      dup1\n      dup3\n      dup2\n      mstore\n      0x20\n      add\n      swap2\n      pop\n      pop\n      mload(0x40)\n      dup1\n      swap2\n      sub\n      swap1\n      log3\n        /* \"Users/leilei/Downloads/MasterChefV2/contracts/PancakeProfile.sol\":58931:59308  function increaseTeamPoints(... */\n      pop\n      pop\n      pop\n      jump\t// out\n        /* \"Users/leilei/Downloads/MasterChefV2/contracts/PancakeProfile.sol\":63550:63743  function makeTeamNotJoinable(uint256 _teamId) external onlyOwner {... */\n    tag_78:\n        /* \"Users/leilei/Downloads/MasterChefV2/contracts/PancakeProfile.sol\":50060:50101  hasRole(DEFAULT_ADMIN_ROLE, _msgSender()) */\n      tag_247\n        /* \"Users/leilei/Downloads/MasterChefV2/contracts/PancakeProfile.sol\":19902:19906  0x00 */\n      0x00\n        /* \"Users/leilei/Downloads/MasterChefV2/contracts/PancakeProfile.sol\":50088:50100  _msgSender() */\n      tag_220\n        /* \"Users/leilei/Downloads/MasterChefV2/contracts/PancakeProfile.sol\":50088:50098  _msgSender */\n      tag_190\n        /* \"Users/leilei/Downloads/MasterChefV2/contracts/PancakeProfile.sol\":50088:50100  _msgSender() */\n      jump\t// in\n        /* \"Users/leilei/Downloads/MasterChefV2/contracts/PancakeProfile.sol\":50060:50101  hasRole(DEFAULT_ADMIN_ROLE, _msgSender()) */\n    tag_247:\n        /* \"Users/leilei/Downloads/MasterChefV2/contracts/PancakeProfile.sol\":50039:50145  require(... */\n      tag_249\n      jumpi\n      0x40\n      dup1\n      mload\n      shl(0xe5, 0x461bcd)\n      dup2\n      mstore\n      0x20\n      0x04\n      dup3\n      add\n      mstore\n      0x12\n      0x24\n      dup3\n      add\n      mstore\n      shl(0x71, 0x2737ba103a34329036b0b4b71030b236b4b7)\n      0x44\n      dup3\n      add\n      mstore\n      swap1\n      mload\n      swap1\n      dup2\n      swap1\n      sub\n      0x64\n      add\n      swap1\n      revert\n    tag_249:\n        /* \"Users/leilei/Downloads/MasterChefV2/contracts/PancakeProfile.sol\":63645:63656  numberTeams */\n      sload(0x06)\n        /* \"Users/leilei/Downloads/MasterChefV2/contracts/PancakeProfile.sol\":63634:63641  _teamId */\n      dup2\n        /* \"Users/leilei/Downloads/MasterChefV2/contracts/PancakeProfile.sol\":63634:63656  _teamId <= numberTeams */\n      gt\n      iszero\n        /* \"Users/leilei/Downloads/MasterChefV2/contracts/PancakeProfile.sol\":63633:63674  (_teamId <= numberTeams) && (_teamId > 0) */\n      dup1\n      iszero\n      tag_251\n      jumpi\n      pop\n        /* \"Users/leilei/Downloads/MasterChefV2/contracts/PancakeProfile.sol\":63672:63673  0 */\n      0x00\n        /* \"Users/leilei/Downloads/MasterChefV2/contracts/PancakeProfile.sol\":63662:63669  _teamId */\n      dup2\n        /* \"Users/leilei/Downloads/MasterChefV2/contracts/PancakeProfile.sol\":63662:63673  _teamId > 0 */\n      gt\n        /* \"Users/leilei/Downloads/MasterChefV2/contracts/PancakeProfile.sol\":63633:63674  (_teamId <= numberTeams) && (_teamId > 0) */\n    tag_251:\n        /* \"Users/leilei/Downloads/MasterChefV2/contracts/PancakeProfile.sol\":63625:63693  require((_teamId <= numberTeams) && (_teamId > 0), \"teamId invalid\") */\n      tag_252\n      jumpi\n      0x40\n      dup1\n      mload\n      shl(0xe5, 0x461bcd)\n      dup2\n      mstore\n      0x20\n      0x04\n      dup3\n      add\n      mstore\n      0x0e\n      0x24\n      dup3\n      add\n      mstore\n      shl(0x92, 0x1d19585b5259081a5b9d985b1a59)\n      0x44\n      dup3\n      add\n      mstore\n      swap1\n      mload\n      swap1\n      dup2\n      swap1\n      sub\n      0x64\n      add\n      swap1\n      revert\n    tag_252:\n        /* \"Users/leilei/Downloads/MasterChefV2/contracts/PancakeProfile.sol\":63731:63736  false */\n      0x00\n        /* \"Users/leilei/Downloads/MasterChefV2/contracts/PancakeProfile.sol\":63703:63717  teams[_teamId] */\n      swap1\n      dup2\n      mstore\n        /* \"Users/leilei/Downloads/MasterChefV2/contracts/PancakeProfile.sol\":63703:63708  teams */\n      0x08\n        /* \"Users/leilei/Downloads/MasterChefV2/contracts/PancakeProfile.sol\":63703:63717  teams[_teamId] */\n      0x20\n      mstore\n      0x40\n      swap1\n      keccak256\n        /* \"Users/leilei/Downloads/MasterChefV2/contracts/PancakeProfile.sol\":63703:63728  teams[_teamId].isJoinable */\n      0x04\n      add\n        /* \"Users/leilei/Downloads/MasterChefV2/contracts/PancakeProfile.sol\":63703:63736  teams[_teamId].isJoinable = false */\n      dup1\n      sload\n      not(0xff)\n      and\n      swap1\n      sstore\n        /* \"Users/leilei/Downloads/MasterChefV2/contracts/PancakeProfile.sol\":63550:63743  function makeTeamNotJoinable(uint256 _teamId) external onlyOwner {... */\n      jump\t// out\n        /* \"Users/leilei/Downloads/MasterChefV2/contracts/PancakeProfile.sol\":22530:22642  function getRoleAdmin(bytes32 role) public view returns (bytes32) {... */\n    tag_81:\n        /* \"Users/leilei/Downloads/MasterChefV2/contracts/PancakeProfile.sol\":22587:22594  bytes32 */\n      0x00\n        /* \"Users/leilei/Downloads/MasterChefV2/contracts/PancakeProfile.sol\":22613:22625  _roles[role] */\n      swap1\n      dup2\n      mstore\n      0x20\n      dup2\n      swap1\n      mstore\n      0x40\n      swap1\n      keccak256\n        /* \"Users/leilei/Downloads/MasterChefV2/contracts/PancakeProfile.sol\":22613:22635  _roles[role].adminRole */\n      0x02\n      add\n      sload\n      swap1\n        /* \"Users/leilei/Downloads/MasterChefV2/contracts/PancakeProfile.sol\":22530:22642  function getRoleAdmin(bytes32 role) public view returns (bytes32) {... */\n      jump\t// out\n        /* \"Users/leilei/Downloads/MasterChefV2/contracts/PancakeProfile.sol\":64480:64835  function updateNumberCake(... */\n    tag_84:\n        /* \"Users/leilei/Downloads/MasterChefV2/contracts/PancakeProfile.sol\":50060:50101  hasRole(DEFAULT_ADMIN_ROLE, _msgSender()) */\n      tag_255\n        /* \"Users/leilei/Downloads/MasterChefV2/contracts/PancakeProfile.sol\":19902:19906  0x00 */\n      0x00\n        /* \"Users/leilei/Downloads/MasterChefV2/contracts/PancakeProfile.sol\":50088:50100  _msgSender() */\n      tag_220\n        /* \"Users/leilei/Downloads/MasterChefV2/contracts/PancakeProfile.sol\":50088:50098  _msgSender */\n      tag_190\n        /* \"Users/leilei/Downloads/MasterChefV2/contracts/PancakeProfile.sol\":50088:50100  _msgSender() */\n      jump\t// in\n        /* \"Users/leilei/Downloads/MasterChefV2/contracts/PancakeProfile.sol\":50060:50101  hasRole(DEFAULT_ADMIN_ROLE, _msgSender()) */\n    tag_255:\n        /* \"Users/leilei/Downloads/MasterChefV2/contracts/PancakeProfile.sol\":50039:50145  require(... */\n      tag_257\n      jumpi\n      0x40\n      dup1\n      mload\n      shl(0xe5, 0x461bcd)\n      dup2\n      mstore\n      0x20\n      0x04\n      dup3\n      add\n      mstore\n      0x12\n      0x24\n      dup3\n      add\n      mstore\n      shl(0x71, 0x2737ba103a34329036b0b4b71030b236b4b7)\n      0x44\n      dup3\n      add\n      mstore\n      swap1\n      mload\n      swap1\n      dup2\n      swap1\n      sub\n      0x64\n      add\n      swap1\n      revert\n    tag_257:\n        /* \"Users/leilei/Downloads/MasterChefV2/contracts/PancakeProfile.sol\":64667:64689  numberCakeToReactivate */\n      0x03\n        /* \"Users/leilei/Downloads/MasterChefV2/contracts/PancakeProfile.sol\":64667:64718  numberCakeToReactivate = _newNumberCakeToReactivate */\n      swap3\n      swap1\n      swap3\n      sstore\n        /* \"Users/leilei/Downloads/MasterChefV2/contracts/PancakeProfile.sol\":64728:64748  numberCakeToRegister */\n      0x04\n        /* \"Users/leilei/Downloads/MasterChefV2/contracts/PancakeProfile.sol\":64728:64775  numberCakeToRegister = _newNumberCakeToRegister */\n      sstore\n        /* \"Users/leilei/Downloads/MasterChefV2/contracts/PancakeProfile.sol\":64785:64803  numberCakeToUpdate */\n      0x05\n        /* \"Users/leilei/Downloads/MasterChefV2/contracts/PancakeProfile.sol\":64785:64828  numberCakeToUpdate = _newNumberCakeToUpdate */\n      sstore\n        /* \"Users/leilei/Downloads/MasterChefV2/contracts/PancakeProfile.sol\":64480:64835  function updateNumberCake(... */\n      jump\t// out\n        /* \"Users/leilei/Downloads/MasterChefV2/contracts/PancakeProfile.sol\":22892:23149  function grantRole(bytes32 role, address account) public virtual {... */\n    tag_87:\n        /* \"Users/leilei/Downloads/MasterChefV2/contracts/PancakeProfile.sol\":22996:23002  _roles */\n      0x00\n        /* \"Users/leilei/Downloads/MasterChefV2/contracts/PancakeProfile.sol\":22996:23008  _roles[role] */\n      dup3\n      dup2\n      mstore\n      0x20\n      dup2\n      swap1\n      mstore\n      0x40\n      swap1\n      keccak256\n        /* \"Users/leilei/Downloads/MasterChefV2/contracts/PancakeProfile.sol\":22996:23018  _roles[role].adminRole */\n      0x02\n      add\n      sload\n        /* \"Users/leilei/Downloads/MasterChefV2/contracts/PancakeProfile.sol\":22988:23033  hasRole(_roles[role].adminRole, _msgSender()) */\n      tag_260\n      swap1\n        /* \"Users/leilei/Downloads/MasterChefV2/contracts/PancakeProfile.sol\":23020:23032  _msgSender() */\n      tag_220\n        /* \"Users/leilei/Downloads/MasterChefV2/contracts/PancakeProfile.sol\":23020:23030  _msgSender */\n      tag_190\n        /* \"Users/leilei/Downloads/MasterChefV2/contracts/PancakeProfile.sol\":23020:23032  _msgSender() */\n      jump\t// in\n        /* \"Users/leilei/Downloads/MasterChefV2/contracts/PancakeProfile.sol\":22988:23033  hasRole(_roles[role].adminRole, _msgSender()) */\n    tag_260:\n        /* \"Users/leilei/Downloads/MasterChefV2/contracts/PancakeProfile.sol\":22967:23106  require(... */\n      tag_262\n      jumpi\n      mload(0x40)\n      shl(0xe5, 0x461bcd)\n      dup2\n      mstore\n      0x04\n      add\n      dup1\n      dup1\n      0x20\n      add\n      dup3\n      dup2\n      sub\n      dup3\n      mstore\n      0x2f\n      dup2\n      mstore\n      0x20\n      add\n      dup1\n      data_0ba7116025f1ef6b158a2bd2238e617f30e17c9e456917d901086ca4f8ad2811\n      0x2f\n      swap2\n      codecopy\n      0x40\n      add\n      swap2\n      pop\n      pop\n      mload(0x40)\n      dup1\n      swap2\n      sub\n      swap1\n      revert\n    tag_262:\n        /* \"Users/leilei/Downloads/MasterChefV2/contracts/PancakeProfile.sol\":23117:23142  _grantRole(role, account) */\n      tag_263\n        /* \"Users/leilei/Downloads/MasterChefV2/contracts/PancakeProfile.sol\":23128:23132  role */\n      dup3\n        /* \"Users/leilei/Downloads/MasterChefV2/contracts/PancakeProfile.sol\":23134:23141  account */\n      dup3\n        /* \"Users/leilei/Downloads/MasterChefV2/contracts/PancakeProfile.sol\":23117:23127  _grantRole */\n      tag_264\n        /* \"Users/leilei/Downloads/MasterChefV2/contracts/PancakeProfile.sol\":23117:23142  _grantRole(role, account) */\n      jump\t// in\n    tag_263:\n        /* \"Users/leilei/Downloads/MasterChefV2/contracts/PancakeProfile.sol\":22892:23149  function grantRole(bytes32 role, address account) public virtual {... */\n      pop\n      pop\n      jump\t// out\n        /* \"Users/leilei/Downloads/MasterChefV2/contracts/PancakeProfile.sol\":24134:24373  function renounceRole(bytes32 role, address account) public virtual {... */\n    tag_90:\n        /* \"Users/leilei/Downloads/MasterChefV2/contracts/PancakeProfile.sol\":24244:24256  _msgSender() */\n      tag_266\n        /* \"Users/leilei/Downloads/MasterChefV2/contracts/PancakeProfile.sol\":24244:24254  _msgSender */\n      tag_190\n        /* \"Users/leilei/Downloads/MasterChefV2/contracts/PancakeProfile.sol\":24244:24256  _msgSender() */\n      jump\t// in\n    tag_266:\n      sub(shl(0xa0, 0x01), 0x01)\n        /* \"Users/leilei/Downloads/MasterChefV2/contracts/PancakeProfile.sol\":24233:24256  account == _msgSender() */\n      and\n        /* \"Users/leilei/Downloads/MasterChefV2/contracts/PancakeProfile.sol\":24233:24240  account */\n      dup2\n      sub(shl(0xa0, 0x01), 0x01)\n        /* \"Users/leilei/Downloads/MasterChefV2/contracts/PancakeProfile.sol\":24233:24256  account == _msgSender() */\n      and\n      eq\n        /* \"Users/leilei/Downloads/MasterChefV2/contracts/PancakeProfile.sol\":24212:24329  require(... */\n      tag_267\n      jumpi\n      mload(0x40)\n      shl(0xe5, 0x461bcd)\n      dup2\n      mstore\n      0x04\n      add\n      dup1\n      dup1\n      0x20\n      add\n      dup3\n      dup2\n      sub\n      dup3\n      mstore\n      0x2f\n      dup2\n      mstore\n      0x20\n      add\n      dup1\n      data_fb06fa8ff2141e8ed74502f6792273793f25f0e9d3cf15344f3f5a0d4948fd4b\n      0x2f\n      swap2\n      codecopy\n      0x40\n      add\n      swap2\n      pop\n      pop\n      mload(0x40)\n      dup1\n      swap2\n      sub\n      swap1\n      revert\n    tag_267:\n        /* \"Users/leilei/Downloads/MasterChefV2/contracts/PancakeProfile.sol\":24340:24366  _revokeRole(role, account) */\n      tag_263\n        /* \"Users/leilei/Downloads/MasterChefV2/contracts/PancakeProfile.sol\":24352:24356  role */\n      dup3\n        /* \"Users/leilei/Downloads/MasterChefV2/contracts/PancakeProfile.sol\":24358:24365  account */\n      dup3\n        /* \"Users/leilei/Downloads/MasterChefV2/contracts/PancakeProfile.sol\":24340:24351  _revokeRole */\n      tag_269\n        /* \"Users/leilei/Downloads/MasterChefV2/contracts/PancakeProfile.sol\":24340:24366  _revokeRole(role, account) */\n      jump\t// in\n        /* \"Users/leilei/Downloads/MasterChefV2/contracts/PancakeProfile.sol\":48130:48156  uint256 public numberTeams */\n    tag_92:\n      sload(0x06)\n      dup2\n      jump\t// out\n        /* \"Users/leilei/Downloads/MasterChefV2/contracts/PancakeProfile.sol\":48050:48085  uint256 public numberCakeToRegister */\n    tag_94:\n      sload(0x04)\n      dup2\n      jump\t// out\n        /* \"Users/leilei/Downloads/MasterChefV2/contracts/PancakeProfile.sol\":60749:60978  function addNftAddress(address _nftAddress) external onlyOwner {... */\n    tag_97:\n        /* \"Users/leilei/Downloads/MasterChefV2/contracts/PancakeProfile.sol\":50060:50101  hasRole(DEFAULT_ADMIN_ROLE, _msgSender()) */\n      tag_271\n        /* \"Users/leilei/Downloads/MasterChefV2/contracts/PancakeProfile.sol\":19902:19906  0x00 */\n      0x00\n        /* \"Users/leilei/Downloads/MasterChefV2/contracts/PancakeProfile.sol\":50088:50100  _msgSender() */\n      tag_220\n        /* \"Users/leilei/Downloads/MasterChefV2/contracts/PancakeProfile.sol\":50088:50098  _msgSender */\n      tag_190\n        /* \"Users/leilei/Downloads/MasterChefV2/contracts/PancakeProfile.sol\":50088:50100  _msgSender() */\n      jump\t// in\n        /* \"Users/leilei/Downloads/MasterChefV2/contracts/PancakeProfile.sol\":50060:50101  hasRole(DEFAULT_ADMIN_ROLE, _msgSender()) */\n    tag_271:\n        /* \"Users/leilei/Downloads/MasterChefV2/contracts/PancakeProfile.sol\":50039:50145  require(... */\n      tag_273\n      jumpi\n      0x40\n      dup1\n      mload\n      shl(0xe5, 0x461bcd)\n      dup2\n      mstore\n      0x20\n      0x04\n      dup3\n      add\n      mstore\n      0x12\n      0x24\n      dup3\n      add\n      mstore\n      shl(0x71, 0x2737ba103a34329036b0b4b71030b236b4b7)\n      0x44\n      dup3\n      add\n      mstore\n      swap1\n      mload\n      swap1\n      dup2\n      swap1\n      sub\n      0x64\n      add\n      swap1\n      revert\n    tag_273:\n        /* \"Users/leilei/Downloads/MasterChefV2/contracts/PancakeProfile.sol\":60843:60893  IERC721(_nftAddress).supportsInterface(0x80ac58cd) */\n      0x40\n      dup1\n      mload\n      shl(0xe0, 0x01ffc9a7)\n      dup2\n      mstore\n      shl(0xe0, 0x80ac58cd)\n      0x04\n      dup3\n      add\n      mstore\n      swap1\n      mload\n      sub(shl(0xa0, 0x01), 0x01)\n        /* \"Users/leilei/Downloads/MasterChefV2/contracts/PancakeProfile.sol\":60843:60881  IERC721(_nftAddress).supportsInterface */\n      dup4\n      and\n      swap2\n      0x01ffc9a7\n      swap2\n        /* \"Users/leilei/Downloads/MasterChefV2/contracts/PancakeProfile.sol\":60843:60893  IERC721(_nftAddress).supportsInterface(0x80ac58cd) */\n      0x24\n      dup1\n      dup4\n      add\n      swap3\n      0x20\n      swap3\n      swap2\n      swap1\n      dup3\n      swap1\n      sub\n      add\n      dup2\n        /* \"Users/leilei/Downloads/MasterChefV2/contracts/PancakeProfile.sol\":60843:60881  IERC721(_nftAddress).supportsInterface */\n      dup7\n        /* \"Users/leilei/Downloads/MasterChefV2/contracts/PancakeProfile.sol\":60843:60893  IERC721(_nftAddress).supportsInterface(0x80ac58cd) */\n      dup1\n      extcodesize\n      iszero\n        /* \"--CODEGEN--\":2:4   */\n      dup1\n      iszero\n      tag_275\n      jumpi\n        /* \"--CODEGEN--\":27:28   */\n      0x00\n        /* \"--CODEGEN--\":24:25   */\n      dup1\n        /* \"--CODEGEN--\":17:29   */\n      revert\n        /* \"--CODEGEN--\":2:4   */\n    tag_275:\n        /* \"Users/leilei/Downloads/MasterChefV2/contracts/PancakeProfile.sol\":60843:60893  IERC721(_nftAddress).supportsInterface(0x80ac58cd) */\n      pop\n      gas\n      staticcall\n      iszero\n        /* \"--CODEGEN--\":8:17   */\n      dup1\n        /* \"--CODEGEN--\":5:7   */\n      iszero\n      tag_277\n      jumpi\n        /* \"--CODEGEN--\":45:61   */\n      returndatasize\n        /* \"--CODEGEN--\":42:43   */\n      0x00\n        /* \"--CODEGEN--\":39:40   */\n      dup1\n        /* \"--CODEGEN--\":24:62   */\n      returndatacopy\n        /* \"--CODEGEN--\":77:93   */\n      returndatasize\n        /* \"--CODEGEN--\":74:75   */\n      0x00\n        /* \"--CODEGEN--\":67:94   */\n      revert\n        /* \"--CODEGEN--\":5:7   */\n    tag_277:\n        /* \"Users/leilei/Downloads/MasterChefV2/contracts/PancakeProfile.sol\":60843:60893  IERC721(_nftAddress).supportsInterface(0x80ac58cd) */\n      pop\n      pop\n      pop\n      pop\n      mload(0x40)\n      returndatasize\n        /* \"--CODEGEN--\":15:17   */\n      0x20\n        /* \"--CODEGEN--\":10:13   */\n      dup2\n        /* \"--CODEGEN--\":7:18   */\n      lt\n        /* \"--CODEGEN--\":4:6   */\n      iszero\n      tag_278\n      jumpi\n        /* \"--CODEGEN--\":31:32   */\n      0x00\n        /* \"--CODEGEN--\":28:29   */\n      dup1\n        /* \"--CODEGEN--\":21:33   */\n      revert\n        /* \"--CODEGEN--\":4:6   */\n    tag_278:\n      pop\n        /* \"Users/leilei/Downloads/MasterChefV2/contracts/PancakeProfile.sol\":60843:60893  IERC721(_nftAddress).supportsInterface(0x80ac58cd) */\n      mload\n        /* \"Users/leilei/Downloads/MasterChefV2/contracts/PancakeProfile.sol\":60822:60929  require(... */\n      tag_279\n      jumpi\n      0x40\n      dup1\n      mload\n      shl(0xe5, 0x461bcd)\n      dup2\n      mstore\n      0x20\n      0x04\n      dup3\n      add\n      mstore\n      0x0a\n      0x24\n      dup3\n      add\n      mstore\n      shl(0xb0, 0x4e6f7420455243373231)\n      0x44\n      dup3\n      add\n      mstore\n      swap1\n      mload\n      swap1\n      dup2\n      swap1\n      sub\n      0x64\n      add\n      swap1\n      revert\n    tag_279:\n        /* \"Users/leilei/Downloads/MasterChefV2/contracts/PancakeProfile.sol\":47802:47823  keccak256(\"NFT_ROLE\") */\n      0x40\n      dup1\n      mload\n      shl(0xc0, 0x4e46545f524f4c45)\n      dup2\n      mstore\n      swap1\n      mload\n      swap1\n      dup2\n      swap1\n      sub\n      0x08\n      add\n      swap1\n      keccak256\n        /* \"Users/leilei/Downloads/MasterChefV2/contracts/PancakeProfile.sol\":60939:60971  grantRole(NFT_ROLE, _nftAddress) */\n      tag_280\n      swap1\n        /* \"Users/leilei/Downloads/MasterChefV2/contracts/PancakeProfile.sol\":60959:60970  _nftAddress */\n      dup3\n        /* \"Users/leilei/Downloads/MasterChefV2/contracts/PancakeProfile.sol\":60939:60948  grantRole */\n      tag_87\n        /* \"Users/leilei/Downloads/MasterChefV2/contracts/PancakeProfile.sol\":60939:60971  grantRole(NFT_ROLE, _nftAddress) */\n      jump\t// in\n    tag_280:\n        /* \"Users/leilei/Downloads/MasterChefV2/contracts/PancakeProfile.sol\":60749:60978  function addNftAddress(address _nftAddress) external onlyOwner {... */\n      pop\n      jump\t// out\n        /* \"Users/leilei/Downloads/MasterChefV2/contracts/PancakeProfile.sol\":63829:64370  function renameTeam(... */\n    tag_106:\n        /* \"Users/leilei/Downloads/MasterChefV2/contracts/PancakeProfile.sol\":50060:50101  hasRole(DEFAULT_ADMIN_ROLE, _msgSender()) */\n      tag_282\n        /* \"Users/leilei/Downloads/MasterChefV2/contracts/PancakeProfile.sol\":19902:19906  0x00 */\n      0x00\n        /* \"Users/leilei/Downloads/MasterChefV2/contracts/PancakeProfile.sol\":50088:50100  _msgSender() */\n      tag_220\n        /* \"Users/leilei/Downloads/MasterChefV2/contracts/PancakeProfile.sol\":50088:50098  _msgSender */\n      tag_190\n        /* \"Users/leilei/Downloads/MasterChefV2/contracts/PancakeProfile.sol\":50088:50100  _msgSender() */\n      jump\t// in\n        /* \"Users/leilei/Downloads/MasterChefV2/contracts/PancakeProfile.sol\":50060:50101  hasRole(DEFAULT_ADMIN_ROLE, _msgSender()) */\n    tag_282:\n        /* \"Users/leilei/Downloads/MasterChefV2/contracts/PancakeProfile.sol\":50039:50145  require(... */\n      tag_284\n      jumpi\n      0x40\n      dup1\n      mload\n      shl(0xe5, 0x461bcd)\n      dup2\n      mstore\n      0x20\n      0x04\n      dup3\n      add\n      mstore\n      0x12\n      0x24\n      dup3\n      add\n      mstore\n      shl(0x71, 0x2737ba103a34329036b0b4b71030b236b4b7)\n      0x44\n      dup3\n      add\n      mstore\n      swap1\n      mload\n      swap1\n      dup2\n      swap1\n      sub\n      0x64\n      add\n      swap1\n      revert\n    tag_284:\n        /* \"Users/leilei/Downloads/MasterChefV2/contracts/PancakeProfile.sol\":64006:64017  numberTeams */\n      sload(0x06)\n        /* \"Users/leilei/Downloads/MasterChefV2/contracts/PancakeProfile.sol\":63995:64002  _teamId */\n      dup6\n        /* \"Users/leilei/Downloads/MasterChefV2/contracts/PancakeProfile.sol\":63995:64017  _teamId <= numberTeams */\n      gt\n      iszero\n        /* \"Users/leilei/Downloads/MasterChefV2/contracts/PancakeProfile.sol\":63994:64035  (_teamId <= numberTeams) && (_teamId > 0) */\n      dup1\n      iszero\n      tag_286\n      jumpi\n      pop\n        /* \"Users/leilei/Downloads/MasterChefV2/contracts/PancakeProfile.sol\":64033:64034  0 */\n      0x00\n        /* \"Users/leilei/Downloads/MasterChefV2/contracts/PancakeProfile.sol\":64023:64030  _teamId */\n      dup6\n        /* \"Users/leilei/Downloads/MasterChefV2/contracts/PancakeProfile.sol\":64023:64034  _teamId > 0 */\n      gt\n        /* \"Users/leilei/Downloads/MasterChefV2/contracts/PancakeProfile.sol\":63994:64035  (_teamId <= numberTeams) && (_teamId > 0) */\n    tag_286:\n        /* \"Users/leilei/Downloads/MasterChefV2/contracts/PancakeProfile.sol\":63986:64054  require((_teamId <= numberTeams) && (_teamId > 0), \"teamId invalid\") */\n      tag_287\n      jumpi\n      0x40\n      dup1\n      mload\n      shl(0xe5, 0x461bcd)\n      dup2\n      mstore\n      0x20\n      0x04\n      dup3\n      add\n      mstore\n      0x0e\n      0x24\n      dup3\n      add\n      mstore\n      shl(0x92, 0x1d19585b5259081a5b9d985b1a59)\n      0x44\n      dup3\n      add\n      mstore\n      swap1\n      mload\n      swap1\n      dup2\n      swap1\n      sub\n      0x64\n      add\n      swap1\n      revert\n    tag_287:\n        /* \"Users/leilei/Downloads/MasterChefV2/contracts/PancakeProfile.sol\":64110:64131  bytes memory strBytes */\n      0x60\n        /* \"Users/leilei/Downloads/MasterChefV2/contracts/PancakeProfile.sol\":64140:64149  _teamName */\n      dup5\n      dup5\n        /* \"Users/leilei/Downloads/MasterChefV2/contracts/PancakeProfile.sol\":64110:64150  bytes memory strBytes = bytes(_teamName) */\n      dup1\n      dup1\n      0x1f\n      add\n      0x20\n      dup1\n      swap2\n      div\n      mul\n      0x20\n      add\n      mload(0x40)\n      swap1\n      dup2\n      add\n      0x40\n      mstore\n      dup1\n      swap4\n      swap3\n      swap2\n      swap1\n      dup2\n      dup2\n      mstore\n      0x20\n      add\n      dup4\n      dup4\n        /* \"--CODEGEN--\":30:33   */\n      dup1\n        /* \"--CODEGEN--\":22:28   */\n      dup3\n        /* \"--CODEGEN--\":14:20   */\n      dup5\n        /* \"--CODEGEN--\":1:34   */\n      calldatacopy\n        /* \"--CODEGEN--\":99:100   */\n      0x00\n        /* \"--CODEGEN--\":81:97   */\n      swap3\n      add\n        /* \"--CODEGEN--\":74:101   */\n      swap2\n      swap1\n      swap2\n      mstore\n      pop\n      pop\n        /* \"Users/leilei/Downloads/MasterChefV2/contracts/PancakeProfile.sol\":64168:64183  strBytes.length */\n      dup3\n      mload\n        /* \"Users/leilei/Downloads/MasterChefV2/contracts/PancakeProfile.sol\":64110:64150  bytes memory strBytes = bytes(_teamName) */\n      swap3\n      swap4\n      pop\n      pop\n        /* \"Users/leilei/Downloads/MasterChefV2/contracts/PancakeProfile.sol\":64186:64188  20 */\n      0x14\n        /* \"Users/leilei/Downloads/MasterChefV2/contracts/PancakeProfile.sol\":64168:64188  strBytes.length < 20 */\n      swap1\n      swap2\n      lt\n      swap1\n      pop\n        /* \"Users/leilei/Downloads/MasterChefV2/contracts/PancakeProfile.sol\":64160:64205  require(strBytes.length < 20, \"Must be < 20\") */\n      tag_288\n      jumpi\n      0x40\n      dup1\n      mload\n      shl(0xe5, 0x461bcd)\n      dup2\n      mstore\n      0x20\n      0x04\n      dup3\n      add\n      mstore\n      0x0c\n      0x24\n      dup3\n      add\n      mstore\n      shl(0xa4, 0x04d757374206265203c20323)\n      0x44\n      dup3\n      add\n      mstore\n      swap1\n      mload\n      swap1\n      dup2\n      swap1\n      sub\n      0x64\n      add\n      swap1\n      revert\n    tag_288:\n        /* \"Users/leilei/Downloads/MasterChefV2/contracts/PancakeProfile.sol\":64241:64242  3 */\n      0x03\n        /* \"Users/leilei/Downloads/MasterChefV2/contracts/PancakeProfile.sol\":64223:64231  strBytes */\n      dup2\n        /* \"Users/leilei/Downloads/MasterChefV2/contracts/PancakeProfile.sol\":64223:64238  strBytes.length */\n      mload\n        /* \"Users/leilei/Downloads/MasterChefV2/contracts/PancakeProfile.sol\":64223:64242  strBytes.length > 3 */\n      gt\n        /* \"Users/leilei/Downloads/MasterChefV2/contracts/PancakeProfile.sol\":64215:64258  require(strBytes.length > 3, \"Must be > 3\") */\n      tag_289\n      jumpi\n      0x40\n      dup1\n      mload\n      shl(0xe5, 0x461bcd)\n      dup2\n      mstore\n      0x20\n      0x04\n      dup3\n      add\n      mstore\n      0x0b\n      0x24\n      dup3\n      add\n      mstore\n      shl(0xa8, 0x4d757374206265203e2033)\n      0x44\n      dup3\n      add\n      mstore\n      swap1\n      mload\n      swap1\n      dup2\n      swap1\n      sub\n      0x64\n      add\n      swap1\n      revert\n    tag_289:\n        /* \"Users/leilei/Downloads/MasterChefV2/contracts/PancakeProfile.sol\":64269:64283  teams[_teamId] */\n      0x00\n      dup7\n      dup2\n      mstore\n        /* \"Users/leilei/Downloads/MasterChefV2/contracts/PancakeProfile.sol\":64269:64274  teams */\n      0x08\n        /* \"Users/leilei/Downloads/MasterChefV2/contracts/PancakeProfile.sol\":64269:64283  teams[_teamId] */\n      0x20\n      mstore\n      0x40\n      swap1\n      keccak256\n        /* \"Users/leilei/Downloads/MasterChefV2/contracts/PancakeProfile.sol\":64269:64304  teams[_teamId].teamName = _teamName */\n      tag_290\n      swap1\n        /* \"Users/leilei/Downloads/MasterChefV2/contracts/PancakeProfile.sol\":64295:64304  _teamName */\n      dup7\n      dup7\n        /* \"Users/leilei/Downloads/MasterChefV2/contracts/PancakeProfile.sol\":64269:64304  teams[_teamId].teamName = _teamName */\n      tag_291\n      jump\t// in\n    tag_290:\n      pop\n        /* \"Users/leilei/Downloads/MasterChefV2/contracts/PancakeProfile.sol\":64314:64328  teams[_teamId] */\n      0x00\n      dup7\n      dup2\n      mstore\n        /* \"Users/leilei/Downloads/MasterChefV2/contracts/PancakeProfile.sol\":64314:64319  teams */\n      0x08\n        /* \"Users/leilei/Downloads/MasterChefV2/contracts/PancakeProfile.sol\":64314:64328  teams[_teamId] */\n      0x20\n      mstore\n      0x40\n      swap1\n      keccak256\n        /* \"Users/leilei/Downloads/MasterChefV2/contracts/PancakeProfile.sol\":64314:64363  teams[_teamId].teamDescription = _teamDescription */\n      tag_292\n      swap1\n        /* \"Users/leilei/Downloads/MasterChefV2/contracts/PancakeProfile.sol\":64314:64344  teams[_teamId].teamDescription */\n      0x01\n      add\n        /* \"Users/leilei/Downloads/MasterChefV2/contracts/PancakeProfile.sol\":64347:64363  _teamDescription */\n      dup5\n      dup5\n        /* \"Users/leilei/Downloads/MasterChefV2/contracts/PancakeProfile.sol\":64314:64363  teams[_teamId].teamDescription = _teamDescription */\n      tag_291\n      jump\t// in\n    tag_292:\n      pop\n        /* \"Users/leilei/Downloads/MasterChefV2/contracts/PancakeProfile.sol\":50155:50156  _ */\n      pop\n        /* \"Users/leilei/Downloads/MasterChefV2/contracts/PancakeProfile.sol\":63829:64370  function renameTeam(... */\n      pop\n      pop\n      pop\n      pop\n      pop\n      jump\t// out\n        /* \"Users/leilei/Downloads/MasterChefV2/contracts/PancakeProfile.sol\":47737:47760  IBEP20 public cakeToken */\n    tag_108:\n      and(sub(shl(0xa0, 0x01), 0x01), sload(0x01))\n      dup2\n      jump\t// out\n        /* \"Users/leilei/Downloads/MasterChefV2/contracts/PancakeProfile.sol\":22185:22349  function getRoleMember(bytes32 role, uint256 index)... */\n    tag_111:\n        /* \"Users/leilei/Downloads/MasterChefV2/contracts/PancakeProfile.sol\":22282:22289  address */\n      0x00\n        /* \"Users/leilei/Downloads/MasterChefV2/contracts/PancakeProfile.sol\":22312:22324  _roles[role] */\n      dup3\n      dup2\n      mstore\n      0x20\n      dup2\n      swap1\n      mstore\n      0x40\n      dup2\n      keccak256\n        /* \"Users/leilei/Downloads/MasterChefV2/contracts/PancakeProfile.sol\":22312:22342  _roles[role].members.at(index) */\n      tag_294\n      swap1\n        /* \"Users/leilei/Downloads/MasterChefV2/contracts/PancakeProfile.sol\":22336:22341  index */\n      dup4\n        /* \"Users/leilei/Downloads/MasterChefV2/contracts/PancakeProfile.sol\":22312:22342  _roles[role].members.at(index) */\n      0xffffffff\n        /* \"Users/leilei/Downloads/MasterChefV2/contracts/PancakeProfile.sol\":22312:22335  _roles[role].members.at */\n      tag_295\n        /* \"Users/leilei/Downloads/MasterChefV2/contracts/PancakeProfile.sol\":22312:22342  _roles[role].members.at(index) */\n      and\n      jump\t// in\n    tag_294:\n        /* \"Users/leilei/Downloads/MasterChefV2/contracts/PancakeProfile.sol\":22305:22342  return _roles[role].members.at(index) */\n      swap1\n      pop\n        /* \"Users/leilei/Downloads/MasterChefV2/contracts/PancakeProfile.sol\":22185:22349  function getRoleMember(bytes32 role, uint256 index)... */\n    tag_293:\n      swap3\n      swap2\n      pop\n      pop\n      jump\t// out\n        /* \"Users/leilei/Downloads/MasterChefV2/contracts/PancakeProfile.sol\":21170:21307  function hasRole(bytes32 role, address account) public view returns (bool) {... */\n    tag_114:\n        /* \"Users/leilei/Downloads/MasterChefV2/contracts/PancakeProfile.sol\":21239:21243  bool */\n      0x00\n        /* \"Users/leilei/Downloads/MasterChefV2/contracts/PancakeProfile.sol\":21262:21274  _roles[role] */\n      dup3\n      dup2\n      mstore\n      0x20\n      dup2\n      swap1\n      mstore\n      0x40\n      dup2\n      keccak256\n        /* \"Users/leilei/Downloads/MasterChefV2/contracts/PancakeProfile.sol\":21262:21300  _roles[role].members.contains(account) */\n      tag_294\n      swap1\n        /* \"Users/leilei/Downloads/MasterChefV2/contracts/PancakeProfile.sol\":21292:21299  account */\n      dup4\n        /* \"Users/leilei/Downloads/MasterChefV2/contracts/PancakeProfile.sol\":21262:21300  _roles[role].members.contains(account) */\n      0xffffffff\n        /* \"Users/leilei/Downloads/MasterChefV2/contracts/PancakeProfile.sol\":21262:21291  _roles[role].members.contains */\n      tag_298\n        /* \"Users/leilei/Downloads/MasterChefV2/contracts/PancakeProfile.sol\":21262:21300  _roles[role].members.contains(account) */\n      and\n      jump\t// in\n        /* \"Users/leilei/Downloads/MasterChefV2/contracts/PancakeProfile.sol\":64914:65495  function getUserProfile(address _userAddress)... */\n    tag_117:\n      sub(shl(0xa0, 0x01), 0x01)\n        /* \"Users/leilei/Downloads/MasterChefV2/contracts/PancakeProfile.sol\":65162:65189  hasRegistered[_userAddress] */\n      dup2\n      and\n        /* \"Users/leilei/Downloads/MasterChefV2/contracts/PancakeProfile.sol\":65020:65027  uint256 */\n      0x00\n        /* \"Users/leilei/Downloads/MasterChefV2/contracts/PancakeProfile.sol\":65162:65189  hasRegistered[_userAddress] */\n      swap1\n      dup2\n      mstore\n        /* \"Users/leilei/Downloads/MasterChefV2/contracts/PancakeProfile.sol\":65162:65175  hasRegistered */\n      0x07\n        /* \"Users/leilei/Downloads/MasterChefV2/contracts/PancakeProfile.sol\":65162:65189  hasRegistered[_userAddress] */\n      0x20\n      mstore\n      0x40\n      dup2\n      keccak256\n      sload\n        /* \"Users/leilei/Downloads/MasterChefV2/contracts/PancakeProfile.sol\":65020:65027  uint256 */\n      dup2\n      swap1\n      dup2\n      swap1\n      dup2\n      swap1\n      dup2\n      swap1\n      dup2\n      swap1\n        /* \"Users/leilei/Downloads/MasterChefV2/contracts/PancakeProfile.sol\":65162:65189  hasRegistered[_userAddress] */\n      0xff\n      and\n        /* \"Users/leilei/Downloads/MasterChefV2/contracts/PancakeProfile.sol\":65154:65208  require(hasRegistered[_userAddress], \"Not registered\") */\n      tag_300\n      jumpi\n      0x40\n      dup1\n      mload\n      shl(0xe5, 0x461bcd)\n      dup2\n      mstore\n      0x20\n      0x04\n      dup3\n      add\n      mstore\n      0x0e\n      0x24\n      dup3\n      add\n      mstore\n      shl(0x92, 0x139bdd081c9959da5cdd195c9959)\n      0x44\n      dup3\n      add\n      mstore\n      swap1\n      mload\n      swap1\n      dup2\n      swap1\n      sub\n      0x64\n      add\n      swap1\n      revert\n    tag_300:\n      pop\n      pop\n      pop\n      pop\n      sub(shl(0xa0, 0x01), 0x01)\n        /* \"Users/leilei/Downloads/MasterChefV2/contracts/PancakeProfile.sol\":65239:65258  users[_userAddress] */\n      swap3\n      dup4\n      and\n      0x00\n      swap1\n      dup2\n      mstore\n        /* \"Users/leilei/Downloads/MasterChefV2/contracts/PancakeProfile.sol\":65239:65244  users */\n      0x09\n        /* \"Users/leilei/Downloads/MasterChefV2/contracts/PancakeProfile.sol\":65239:65258  users[_userAddress] */\n      0x20\n      mstore\n      0x40\n      swap1\n      keccak256\n        /* \"Users/leilei/Downloads/MasterChefV2/contracts/PancakeProfile.sol\":65239:65265  users[_userAddress].userId */\n      dup1\n      sload\n        /* \"Users/leilei/Downloads/MasterChefV2/contracts/PancakeProfile.sol\":65279:65311  users[_userAddress].numberPoints */\n      0x01\n      dup3\n      add\n      sload\n        /* \"Users/leilei/Downloads/MasterChefV2/contracts/PancakeProfile.sol\":65325:65351  users[_userAddress].teamId */\n      0x02\n      dup4\n      add\n      sload\n        /* \"Users/leilei/Downloads/MasterChefV2/contracts/PancakeProfile.sol\":65365:65395  users[_userAddress].nftAddress */\n      0x03\n      dup5\n      add\n      sload\n        /* \"Users/leilei/Downloads/MasterChefV2/contracts/PancakeProfile.sol\":65409:65436  users[_userAddress].tokenId */\n      0x04\n      dup6\n      add\n      sload\n        /* \"Users/leilei/Downloads/MasterChefV2/contracts/PancakeProfile.sol\":65450:65478  users[_userAddress].isActive */\n      0x05\n      swap1\n      swap6\n      add\n      sload\n        /* \"Users/leilei/Downloads/MasterChefV2/contracts/PancakeProfile.sol\":65239:65265  users[_userAddress].userId */\n      swap4\n      swap9\n        /* \"Users/leilei/Downloads/MasterChefV2/contracts/PancakeProfile.sol\":65279:65311  users[_userAddress].numberPoints */\n      swap3\n      swap8\n        /* \"Users/leilei/Downloads/MasterChefV2/contracts/PancakeProfile.sol\":65325:65351  users[_userAddress].teamId */\n      swap2\n      swap7\n      pop\n        /* \"Users/leilei/Downloads/MasterChefV2/contracts/PancakeProfile.sol\":65365:65395  users[_userAddress].nftAddress */\n      and\n      swap4\n      pop\n        /* \"Users/leilei/Downloads/MasterChefV2/contracts/PancakeProfile.sol\":65450:65478  users[_userAddress].isActive */\n      0xff\n      swap1\n      swap2\n      and\n      swap1\n        /* \"Users/leilei/Downloads/MasterChefV2/contracts/PancakeProfile.sol\":64914:65495  function getUserProfile(address _userAddress)... */\n      jump\t// out\n        /* \"Users/leilei/Downloads/MasterChefV2/contracts/PancakeProfile.sol\":48163:48208  mapping(address => bool) public hasRegistered */\n    tag_120:\n      mstore(0x20, 0x07)\n      0x00\n      swap1\n      dup2\n      mstore\n      0x40\n      swap1\n      keccak256\n      sload\n      0xff\n      and\n      dup2\n      jump\t// out\n        /* \"Users/leilei/Downloads/MasterChefV2/contracts/PancakeProfile.sol\":19857:19906  bytes32 public constant DEFAULT_ADMIN_ROLE = 0x00 */\n    tag_122:\n        /* \"Users/leilei/Downloads/MasterChefV2/contracts/PancakeProfile.sol\":19902:19906  0x00 */\n      0x00\n        /* \"Users/leilei/Downloads/MasterChefV2/contracts/PancakeProfile.sol\":19857:19906  bytes32 public constant DEFAULT_ADMIN_ROLE = 0x00 */\n      dup2\n      jump\t// out\n        /* \"Users/leilei/Downloads/MasterChefV2/contracts/PancakeProfile.sol\":56200:57588  function reactivateProfile(address _nftAddress, uint256 _tokenId) external {... */\n    tag_125:\n        /* \"Users/leilei/Downloads/MasterChefV2/contracts/PancakeProfile.sol\":56293:56306  hasRegistered */\n      0x07\n        /* \"Users/leilei/Downloads/MasterChefV2/contracts/PancakeProfile.sol\":56293:56320  hasRegistered[_msgSender()] */\n      0x00\n        /* \"Users/leilei/Downloads/MasterChefV2/contracts/PancakeProfile.sol\":56307:56319  _msgSender() */\n      tag_302\n        /* \"Users/leilei/Downloads/MasterChefV2/contracts/PancakeProfile.sol\":56307:56317  _msgSender */\n      tag_190\n        /* \"Users/leilei/Downloads/MasterChefV2/contracts/PancakeProfile.sol\":56307:56319  _msgSender() */\n      jump\t// in\n    tag_302:\n      sub(shl(0xa0, 0x01), 0x01)\n        /* \"Users/leilei/Downloads/MasterChefV2/contracts/PancakeProfile.sol\":56293:56320  hasRegistered[_msgSender()] */\n      and\n      dup2\n      mstore\n      0x20\n      dup2\n      add\n      swap2\n      swap1\n      swap2\n      mstore\n      0x40\n      add\n      0x00\n      keccak256\n      sload\n      0xff\n      and\n        /* \"Users/leilei/Downloads/MasterChefV2/contracts/PancakeProfile.sol\":56285:56343  require(hasRegistered[_msgSender()], \"Has not registered\") */\n      tag_303\n      jumpi\n      0x40\n      dup1\n      mload\n      shl(0xe5, 0x461bcd)\n      dup2\n      mstore\n      0x20\n      0x04\n      dup3\n      add\n      mstore\n      0x12\n      0x24\n      dup3\n      add\n      mstore\n      shl(0x72, 0x12185cc81b9bdd081c9959da5cdd195c9959)\n      0x44\n      dup3\n      add\n      mstore\n      swap1\n      mload\n      swap1\n      dup2\n      swap1\n      sub\n      0x64\n      add\n      swap1\n      revert\n    tag_303:\n        /* \"Users/leilei/Downloads/MasterChefV2/contracts/PancakeProfile.sol\":47802:47823  keccak256(\"NFT_ROLE\") */\n      0x40\n      dup1\n      mload\n      shl(0xc0, 0x4e46545f524f4c45)\n      dup2\n      mstore\n      swap1\n      mload\n      swap1\n      dup2\n      swap1\n      sub\n      0x08\n      add\n      swap1\n      keccak256\n        /* \"Users/leilei/Downloads/MasterChefV2/contracts/PancakeProfile.sol\":56361:56391  hasRole(NFT_ROLE, _nftAddress) */\n      tag_304\n      swap1\n        /* \"Users/leilei/Downloads/MasterChefV2/contracts/PancakeProfile.sol\":56379:56390  _nftAddress */\n      dup4\n        /* \"Users/leilei/Downloads/MasterChefV2/contracts/PancakeProfile.sol\":56361:56368  hasRole */\n      tag_114\n        /* \"Users/leilei/Downloads/MasterChefV2/contracts/PancakeProfile.sol\":56361:56391  hasRole(NFT_ROLE, _nftAddress) */\n      jump\t// in\n    tag_304:\n        /* \"Users/leilei/Downloads/MasterChefV2/contracts/PancakeProfile.sol\":56353:56415  require(hasRole(NFT_ROLE, _nftAddress), \"NFT address invalid\") */\n      tag_305\n      jumpi\n      0x40\n      dup1\n      mload\n      shl(0xe5, 0x461bcd)\n      dup2\n      mstore\n      0x20\n      0x04\n      dup3\n      add\n      mstore\n      0x13\n      0x24\n      dup3\n      add\n      mstore\n      shl(0x6a, 0x139195081859191c995cdcc81a5b9d985b1a59)\n      0x44\n      dup3\n      add\n      mstore\n      swap1\n      mload\n      swap1\n      dup2\n      swap1\n      sub\n      0x64\n      add\n      swap1\n      revert\n    tag_305:\n        /* \"Users/leilei/Downloads/MasterChefV2/contracts/PancakeProfile.sol\":56434:56439  users */\n      0x09\n        /* \"Users/leilei/Downloads/MasterChefV2/contracts/PancakeProfile.sol\":56434:56453  users[_msgSender()] */\n      0x00\n        /* \"Users/leilei/Downloads/MasterChefV2/contracts/PancakeProfile.sol\":56440:56452  _msgSender() */\n      tag_306\n        /* \"Users/leilei/Downloads/MasterChefV2/contracts/PancakeProfile.sol\":56440:56450  _msgSender */\n      tag_190\n        /* \"Users/leilei/Downloads/MasterChefV2/contracts/PancakeProfile.sol\":56440:56452  _msgSender() */\n      jump\t// in\n    tag_306:\n      sub(shl(0xa0, 0x01), 0x01)\n        /* \"Users/leilei/Downloads/MasterChefV2/contracts/PancakeProfile.sol\":56434:56453  users[_msgSender()] */\n      and\n      dup2\n      mstore\n      0x20\n      dup2\n      add\n      swap2\n      swap1\n      swap2\n      mstore\n      0x40\n      add\n      0x00\n      keccak256\n        /* \"Users/leilei/Downloads/MasterChefV2/contracts/PancakeProfile.sol\":56434:56462  users[_msgSender()].isActive */\n      0x05\n      add\n      sload\n      0xff\n      and\n        /* \"Users/leilei/Downloads/MasterChefV2/contracts/PancakeProfile.sol\":56433:56462  !users[_msgSender()].isActive */\n      iszero\n        /* \"Users/leilei/Downloads/MasterChefV2/contracts/PancakeProfile.sol\":56425:56481  require(!users[_msgSender()].isActive, \"User is active\") */\n      tag_307\n      jumpi\n      0x40\n      dup1\n      mload\n      shl(0xe5, 0x461bcd)\n      dup2\n      mstore\n      0x20\n      0x04\n      dup3\n      add\n      mstore\n      0x0e\n      0x24\n      dup3\n      add\n      mstore\n      shl(0x90, 0x5573657220697320616374697665)\n      0x44\n      dup3\n      add\n      mstore\n      swap1\n      mload\n      swap1\n      dup2\n      swap1\n      sub\n      0x64\n      add\n      swap1\n      revert\n    tag_307:\n        /* \"Users/leilei/Downloads/MasterChefV2/contracts/PancakeProfile.sol\":56541:56557  IERC721 nftToken */\n      0x00\n        /* \"Users/leilei/Downloads/MasterChefV2/contracts/PancakeProfile.sol\":56568:56579  _nftAddress */\n      dup3\n        /* \"Users/leilei/Downloads/MasterChefV2/contracts/PancakeProfile.sol\":56541:56580  IERC721 nftToken = IERC721(_nftAddress) */\n      swap1\n      pop\n        /* \"Users/leilei/Downloads/MasterChefV2/contracts/PancakeProfile.sol\":56627:56635  nftToken */\n      dup1\n      sub(shl(0xa0, 0x01), 0x01)\n        /* \"Users/leilei/Downloads/MasterChefV2/contracts/PancakeProfile.sol\":56627:56643  nftToken.ownerOf */\n      and\n      0x6352211e\n        /* \"Users/leilei/Downloads/MasterChefV2/contracts/PancakeProfile.sol\":56644:56652  _tokenId */\n      dup4\n        /* \"Users/leilei/Downloads/MasterChefV2/contracts/PancakeProfile.sol\":56627:56653  nftToken.ownerOf(_tokenId) */\n      mload(0x40)\n      dup3\n      0xffffffff\n      and\n      0xe0\n      shl\n      dup2\n      mstore\n      0x04\n      add\n      dup1\n      dup3\n      dup2\n      mstore\n      0x20\n      add\n      swap2\n      pop\n      pop\n      0x20\n      mload(0x40)\n      dup1\n      dup4\n      sub\n      dup2\n      dup7\n      dup1\n      extcodesize\n      iszero\n        /* \"--CODEGEN--\":5:14   */\n      dup1\n        /* \"--CODEGEN--\":2:4   */\n      iszero\n      tag_308\n      jumpi\n        /* \"--CODEGEN--\":27:28   */\n      0x00\n        /* \"--CODEGEN--\":24:25   */\n      dup1\n        /* \"--CODEGEN--\":17:29   */\n      revert\n        /* \"--CODEGEN--\":2:4   */\n    tag_308:\n        /* \"Users/leilei/Downloads/MasterChefV2/contracts/PancakeProfile.sol\":56627:56653  nftToken.ownerOf(_tokenId) */\n      pop\n      gas\n      staticcall\n      iszero\n        /* \"--CODEGEN--\":8:17   */\n      dup1\n        /* \"--CODEGEN--\":5:7   */\n      iszero\n      tag_310\n      jumpi\n        /* \"--CODEGEN--\":45:61   */\n      returndatasize\n        /* \"--CODEGEN--\":42:43   */\n      0x00\n        /* \"--CODEGEN--\":39:40   */\n      dup1\n        /* \"--CODEGEN--\":24:62   */\n      returndatacopy\n        /* \"--CODEGEN--\":77:93   */\n      returndatasize\n        /* \"--CODEGEN--\":74:75   */\n      0x00\n        /* \"--CODEGEN--\":67:94   */\n      revert\n        /* \"--CODEGEN--\":5:7   */\n    tag_310:\n        /* \"Users/leilei/Downloads/MasterChefV2/contracts/PancakeProfile.sol\":56627:56653  nftToken.ownerOf(_tokenId) */\n      pop\n      pop\n      pop\n      pop\n      mload(0x40)\n      returndatasize\n        /* \"--CODEGEN--\":15:17   */\n      0x20\n        /* \"--CODEGEN--\":10:13   */\n      dup2\n        /* \"--CODEGEN--\":7:18   */\n      lt\n        /* \"--CODEGEN--\":4:6   */\n      iszero\n      tag_311\n      jumpi\n        /* \"--CODEGEN--\":31:32   */\n      0x00\n        /* \"--CODEGEN--\":28:29   */\n      dup1\n        /* \"--CODEGEN--\":21:33   */\n      revert\n        /* \"--CODEGEN--\":4:6   */\n    tag_311:\n      pop\n        /* \"Users/leilei/Downloads/MasterChefV2/contracts/PancakeProfile.sol\":56627:56653  nftToken.ownerOf(_tokenId) */\n      mload\n      sub(shl(0xa0, 0x01), 0x01)\n        /* \"Users/leilei/Downloads/MasterChefV2/contracts/PancakeProfile.sol\":56611:56653  _msgSender() == nftToken.ownerOf(_tokenId) */\n      and\n        /* \"Users/leilei/Downloads/MasterChefV2/contracts/PancakeProfile.sol\":56611:56623  _msgSender() */\n      tag_312\n        /* \"Users/leilei/Downloads/MasterChefV2/contracts/PancakeProfile.sol\":56611:56621  _msgSender */\n      tag_190\n        /* \"Users/leilei/Downloads/MasterChefV2/contracts/PancakeProfile.sol\":56611:56623  _msgSender() */\n      jump\t// in\n    tag_312:\n      sub(shl(0xa0, 0x01), 0x01)\n        /* \"Users/leilei/Downloads/MasterChefV2/contracts/PancakeProfile.sol\":56611:56653  _msgSender() == nftToken.ownerOf(_tokenId) */\n      and\n      eq\n        /* \"Users/leilei/Downloads/MasterChefV2/contracts/PancakeProfile.sol\":56590:56704  require(... */\n      tag_313\n      jumpi\n      0x40\n      dup1\n      mload\n      shl(0xe5, 0x461bcd)\n      dup2\n      mstore\n      0x20\n      0x04\n      dup3\n      add\n      mstore\n      0x19\n      0x24\n      dup3\n      add\n      mstore\n      shl(0x38, 0x4f6e6c79204e4654206f776e65722063616e20757064617465)\n      0x44\n      dup3\n      add\n      mstore\n      swap1\n      mload\n      swap1\n      dup2\n      swap1\n      sub\n      0x64\n      add\n      swap1\n      revert\n    tag_313:\n        /* \"Users/leilei/Downloads/MasterChefV2/contracts/PancakeProfile.sol\":56751:56876  cakeToken.safeTransferFrom(... */\n      tag_314\n        /* \"Users/leilei/Downloads/MasterChefV2/contracts/PancakeProfile.sol\":56791:56803  _msgSender() */\n      tag_315\n        /* \"Users/leilei/Downloads/MasterChefV2/contracts/PancakeProfile.sol\":56791:56801  _msgSender */\n      tag_190\n        /* \"Users/leilei/Downloads/MasterChefV2/contracts/PancakeProfile.sol\":56791:56803  _msgSender() */\n      jump\t// in\n    tag_315:\n        /* \"Users/leilei/Downloads/MasterChefV2/contracts/PancakeProfile.sol\":56844:56866  numberCakeToReactivate */\n      sload(0x03)\n        /* \"Users/leilei/Downloads/MasterChefV2/contracts/PancakeProfile.sol\":56751:56760  cakeToken */\n      and(sub(shl(0xa0, 0x01), 0x01), sload(0x01))\n      swap2\n        /* \"Users/leilei/Downloads/MasterChefV2/contracts/PancakeProfile.sol\":56751:56876  cakeToken.safeTransferFrom(... */\n      swap1\n        /* \"Users/leilei/Downloads/MasterChefV2/contracts/PancakeProfile.sol\":56825:56829  this */\n      address\n      swap1\n        /* \"Users/leilei/Downloads/MasterChefV2/contracts/PancakeProfile.sol\":56751:56876  cakeToken.safeTransferFrom(... */\n      0xffffffff\n        /* \"Users/leilei/Downloads/MasterChefV2/contracts/PancakeProfile.sol\":56751:56777  cakeToken.safeTransferFrom */\n      tag_210\n        /* \"Users/leilei/Downloads/MasterChefV2/contracts/PancakeProfile.sol\":56751:56876  cakeToken.safeTransferFrom(... */\n      and\n      jump\t// in\n    tag_314:\n        /* \"Users/leilei/Downloads/MasterChefV2/contracts/PancakeProfile.sol\":56923:56931  nftToken */\n      dup1\n      sub(shl(0xa0, 0x01), 0x01)\n        /* \"Users/leilei/Downloads/MasterChefV2/contracts/PancakeProfile.sol\":56923:56948  nftToken.safeTransferFrom */\n      and\n      0x42842e0e\n        /* \"Users/leilei/Downloads/MasterChefV2/contracts/PancakeProfile.sol\":56949:56961  _msgSender() */\n      tag_316\n        /* \"Users/leilei/Downloads/MasterChefV2/contracts/PancakeProfile.sol\":56949:56959  _msgSender */\n      tag_190\n        /* \"Users/leilei/Downloads/MasterChefV2/contracts/PancakeProfile.sol\":56949:56961  _msgSender() */\n      jump\t// in\n    tag_316:\n        /* \"Users/leilei/Downloads/MasterChefV2/contracts/PancakeProfile.sol\":56923:56987  nftToken.safeTransferFrom(_msgSender(), address(this), _tokenId) */\n      0x40\n      dup1\n      mload\n      not(sub(shl(0xe0, 0x01), 0x01))\n      0xe0\n      dup6\n      swap1\n      shl\n      and\n      dup2\n      mstore\n      sub(shl(0xa0, 0x01), 0x01)\n      swap1\n      swap3\n      and\n      0x04\n      dup4\n      add\n      mstore\n        /* \"Users/leilei/Downloads/MasterChefV2/contracts/PancakeProfile.sol\":56971:56975  this */\n      address\n        /* \"Users/leilei/Downloads/MasterChefV2/contracts/PancakeProfile.sol\":56923:56987  nftToken.safeTransferFrom(_msgSender(), address(this), _tokenId) */\n      0x24\n      dup4\n      add\n      mstore\n      0x44\n      dup3\n      add\n      dup7\n      swap1\n      mstore\n      mload\n      0x64\n      dup1\n      dup4\n      add\n      swap3\n      0x00\n      swap3\n      swap2\n      swap1\n      dup3\n      swap1\n      sub\n      add\n      dup2\n      dup4\n      dup8\n      dup1\n      extcodesize\n      iszero\n        /* \"--CODEGEN--\":2:4   */\n      dup1\n      iszero\n      tag_317\n      jumpi\n        /* \"--CODEGEN--\":27:28   */\n      0x00\n        /* \"--CODEGEN--\":24:25   */\n      dup1\n        /* \"--CODEGEN--\":17:29   */\n      revert\n        /* \"--CODEGEN--\":2:4   */\n    tag_317:\n        /* \"Users/leilei/Downloads/MasterChefV2/contracts/PancakeProfile.sol\":56923:56987  nftToken.safeTransferFrom(_msgSender(), address(this), _tokenId) */\n      pop\n      gas\n      call\n      iszero\n        /* \"--CODEGEN--\":8:17   */\n      dup1\n        /* \"--CODEGEN--\":5:7   */\n      iszero\n      tag_319\n      jumpi\n        /* \"--CODEGEN--\":45:61   */\n      returndatasize\n        /* \"--CODEGEN--\":42:43   */\n      0x00\n        /* \"--CODEGEN--\":39:40   */\n      dup1\n        /* \"--CODEGEN--\":24:62   */\n      returndatacopy\n        /* \"--CODEGEN--\":77:93   */\n      returndatasize\n        /* \"--CODEGEN--\":74:75   */\n      0x00\n        /* \"--CODEGEN--\":67:94   */\n      revert\n        /* \"--CODEGEN--\":5:7   */\n    tag_319:\n        /* \"Users/leilei/Downloads/MasterChefV2/contracts/PancakeProfile.sol\":56923:56987  nftToken.safeTransferFrom(_msgSender(), address(this), _tokenId) */\n      pop\n      pop\n      pop\n      pop\n        /* \"Users/leilei/Downloads/MasterChefV2/contracts/PancakeProfile.sol\":57037:57055  uint256 userTeamId */\n      0x00\n        /* \"Users/leilei/Downloads/MasterChefV2/contracts/PancakeProfile.sol\":57058:57063  users */\n      0x09\n        /* \"Users/leilei/Downloads/MasterChefV2/contracts/PancakeProfile.sol\":57058:57077  users[_msgSender()] */\n      0x00\n        /* \"Users/leilei/Downloads/MasterChefV2/contracts/PancakeProfile.sol\":57064:57076  _msgSender() */\n      tag_320\n        /* \"Users/leilei/Downloads/MasterChefV2/contracts/PancakeProfile.sol\":57064:57074  _msgSender */\n      tag_190\n        /* \"Users/leilei/Downloads/MasterChefV2/contracts/PancakeProfile.sol\":57064:57076  _msgSender() */\n      jump\t// in\n    tag_320:\n      sub(shl(0xa0, 0x01), 0x01)\n        /* \"Users/leilei/Downloads/MasterChefV2/contracts/PancakeProfile.sol\":57058:57077  users[_msgSender()] */\n      and\n      sub(shl(0xa0, 0x01), 0x01)\n      and\n      dup2\n      mstore\n      0x20\n      add\n      swap1\n      dup2\n      mstore\n      0x20\n      add\n      0x00\n      keccak256\n        /* \"Users/leilei/Downloads/MasterChefV2/contracts/PancakeProfile.sol\":57058:57084  users[_msgSender()].teamId */\n      0x02\n      add\n      sload\n        /* \"Users/leilei/Downloads/MasterChefV2/contracts/PancakeProfile.sol\":57037:57084  uint256 userTeamId = users[_msgSender()].teamId */\n      swap1\n      pop\n        /* \"Users/leilei/Downloads/MasterChefV2/contracts/PancakeProfile.sol\":57204:57240  teams[userTeamId].numberUsers.add(1) */\n      tag_321\n        /* \"Users/leilei/Downloads/MasterChefV2/contracts/PancakeProfile.sol\":57238:57239  1 */\n      0x01\n        /* \"Users/leilei/Downloads/MasterChefV2/contracts/PancakeProfile.sol\":57204:57209  teams */\n      0x08\n        /* \"Users/leilei/Downloads/MasterChefV2/contracts/PancakeProfile.sol\":57204:57221  teams[userTeamId] */\n      0x00\n        /* \"Users/leilei/Downloads/MasterChefV2/contracts/PancakeProfile.sol\":57210:57220  userTeamId */\n      dup5\n        /* \"Users/leilei/Downloads/MasterChefV2/contracts/PancakeProfile.sol\":57204:57221  teams[userTeamId] */\n      dup2\n      mstore\n      0x20\n      add\n      swap1\n      dup2\n      mstore\n      0x20\n      add\n      0x00\n      keccak256\n        /* \"Users/leilei/Downloads/MasterChefV2/contracts/PancakeProfile.sol\":57204:57233  teams[userTeamId].numberUsers */\n      0x02\n      add\n      sload\n        /* \"Users/leilei/Downloads/MasterChefV2/contracts/PancakeProfile.sol\":57204:57237  teams[userTeamId].numberUsers.add */\n      tag_239\n      swap1\n        /* \"Users/leilei/Downloads/MasterChefV2/contracts/PancakeProfile.sol\":57204:57240  teams[userTeamId].numberUsers.add(1) */\n      swap2\n      swap1\n      0xffffffff\n      and\n      jump\t// in\n    tag_321:\n        /* \"Users/leilei/Downloads/MasterChefV2/contracts/PancakeProfile.sol\":57172:57189  teams[userTeamId] */\n      0x00\n      dup3\n      dup2\n      mstore\n        /* \"Users/leilei/Downloads/MasterChefV2/contracts/PancakeProfile.sol\":57172:57177  teams */\n      0x08\n        /* \"Users/leilei/Downloads/MasterChefV2/contracts/PancakeProfile.sol\":57172:57189  teams[userTeamId] */\n      0x20\n      mstore\n      0x40\n      swap1\n      keccak256\n        /* \"Users/leilei/Downloads/MasterChefV2/contracts/PancakeProfile.sol\":57172:57201  teams[userTeamId].numberUsers */\n      0x02\n      swap1\n      dup2\n      add\n        /* \"Users/leilei/Downloads/MasterChefV2/contracts/PancakeProfile.sol\":57172:57240  teams[userTeamId].numberUsers = teams[userTeamId].numberUsers.add(1) */\n      swap2\n      swap1\n      swap2\n      sstore\n        /* \"Users/leilei/Downloads/MasterChefV2/contracts/PancakeProfile.sol\":57273:57293  numberActiveProfiles */\n      sload\n        /* \"Users/leilei/Downloads/MasterChefV2/contracts/PancakeProfile.sol\":57273:57300  numberActiveProfiles.add(1) */\n      tag_322\n      swap1\n        /* \"Users/leilei/Downloads/MasterChefV2/contracts/PancakeProfile.sol\":57298:57299  1 */\n      0x01\n        /* \"Users/leilei/Downloads/MasterChefV2/contracts/PancakeProfile.sol\":57273:57300  numberActiveProfiles.add(1) */\n      0xffffffff\n        /* \"Users/leilei/Downloads/MasterChefV2/contracts/PancakeProfile.sol\":57273:57297  numberActiveProfiles.add */\n      tag_239\n        /* \"Users/leilei/Downloads/MasterChefV2/contracts/PancakeProfile.sol\":57273:57300  numberActiveProfiles.add(1) */\n      and\n      jump\t// in\n    tag_322:\n        /* \"Users/leilei/Downloads/MasterChefV2/contracts/PancakeProfile.sol\":57250:57270  numberActiveProfiles */\n      0x02\n        /* \"Users/leilei/Downloads/MasterChefV2/contracts/PancakeProfile.sol\":57250:57300  numberActiveProfiles = numberActiveProfiles.add(1) */\n      sstore\n        /* \"Users/leilei/Downloads/MasterChefV2/contracts/PancakeProfile.sol\":57374:57378  true */\n      0x01\n        /* \"Users/leilei/Downloads/MasterChefV2/contracts/PancakeProfile.sol\":57343:57348  users */\n      0x09\n        /* \"Users/leilei/Downloads/MasterChefV2/contracts/PancakeProfile.sol\":57343:57362  users[_msgSender()] */\n      0x00\n        /* \"Users/leilei/Downloads/MasterChefV2/contracts/PancakeProfile.sol\":57349:57361  _msgSender() */\n      tag_323\n        /* \"Users/leilei/Downloads/MasterChefV2/contracts/PancakeProfile.sol\":57349:57359  _msgSender */\n      tag_190\n        /* \"Users/leilei/Downloads/MasterChefV2/contracts/PancakeProfile.sol\":57349:57361  _msgSender() */\n      jump\t// in\n    tag_323:\n      sub(shl(0xa0, 0x01), 0x01)\n        /* \"Users/leilei/Downloads/MasterChefV2/contracts/PancakeProfile.sol\":57343:57362  users[_msgSender()] */\n      and\n      sub(shl(0xa0, 0x01), 0x01)\n      and\n      dup2\n      mstore\n      0x20\n      add\n      swap1\n      dup2\n      mstore\n      0x20\n      add\n      0x00\n      keccak256\n        /* \"Users/leilei/Downloads/MasterChefV2/contracts/PancakeProfile.sol\":57343:57371  users[_msgSender()].isActive */\n      0x05\n      add\n      0x00\n        /* \"Users/leilei/Downloads/MasterChefV2/contracts/PancakeProfile.sol\":57343:57378  users[_msgSender()].isActive = true */\n      0x0100\n      exp\n      dup2\n      sload\n      dup2\n      0xff\n      mul\n      not\n      and\n      swap1\n      dup4\n      iszero\n      iszero\n      mul\n      or\n      swap1\n      sstore\n      pop\n        /* \"Users/leilei/Downloads/MasterChefV2/contracts/PancakeProfile.sol\":57421:57432  _nftAddress */\n      dup4\n        /* \"Users/leilei/Downloads/MasterChefV2/contracts/PancakeProfile.sol\":57388:57393  users */\n      0x09\n        /* \"Users/leilei/Downloads/MasterChefV2/contracts/PancakeProfile.sol\":57388:57407  users[_msgSender()] */\n      0x00\n        /* \"Users/leilei/Downloads/MasterChefV2/contracts/PancakeProfile.sol\":57394:57406  _msgSender() */\n      tag_324\n        /* \"Users/leilei/Downloads/MasterChefV2/contracts/PancakeProfile.sol\":57394:57404  _msgSender */\n      tag_190\n        /* \"Users/leilei/Downloads/MasterChefV2/contracts/PancakeProfile.sol\":57394:57406  _msgSender() */\n      jump\t// in\n    tag_324:\n      sub(shl(0xa0, 0x01), 0x01)\n        /* \"Users/leilei/Downloads/MasterChefV2/contracts/PancakeProfile.sol\":57388:57407  users[_msgSender()] */\n      and\n      sub(shl(0xa0, 0x01), 0x01)\n      and\n      dup2\n      mstore\n      0x20\n      add\n      swap1\n      dup2\n      mstore\n      0x20\n      add\n      0x00\n      keccak256\n        /* \"Users/leilei/Downloads/MasterChefV2/contracts/PancakeProfile.sol\":57388:57418  users[_msgSender()].nftAddress */\n      0x03\n      add\n      0x00\n        /* \"Users/leilei/Downloads/MasterChefV2/contracts/PancakeProfile.sol\":57388:57432  users[_msgSender()].nftAddress = _nftAddress */\n      0x0100\n      exp\n      dup2\n      sload\n      dup2\n      sub(shl(0xa0, 0x01), 0x01)\n      mul\n      not\n      and\n      swap1\n      dup4\n      sub(shl(0xa0, 0x01), 0x01)\n      and\n      mul\n      or\n      swap1\n      sstore\n      pop\n        /* \"Users/leilei/Downloads/MasterChefV2/contracts/PancakeProfile.sol\":57472:57480  _tokenId */\n      dup3\n        /* \"Users/leilei/Downloads/MasterChefV2/contracts/PancakeProfile.sol\":57442:57447  users */\n      0x09\n        /* \"Users/leilei/Downloads/MasterChefV2/contracts/PancakeProfile.sol\":57442:57461  users[_msgSender()] */\n      0x00\n        /* \"Users/leilei/Downloads/MasterChefV2/contracts/PancakeProfile.sol\":57448:57460  _msgSender() */\n      tag_325\n        /* \"Users/leilei/Downloads/MasterChefV2/contracts/PancakeProfile.sol\":57448:57458  _msgSender */\n      tag_190\n        /* \"Users/leilei/Downloads/MasterChefV2/contracts/PancakeProfile.sol\":57448:57460  _msgSender() */\n      jump\t// in\n    tag_325:\n      sub(shl(0xa0, 0x01), 0x01)\n        /* \"Users/leilei/Downloads/MasterChefV2/contracts/PancakeProfile.sol\":57442:57461  users[_msgSender()] */\n      and\n      dup2\n      mstore\n      0x20\n      dup2\n      add\n      swap2\n      swap1\n      swap2\n      mstore\n      0x40\n      add\n      0x00\n      keccak256\n        /* \"Users/leilei/Downloads/MasterChefV2/contracts/PancakeProfile.sol\":57442:57469  users[_msgSender()].tokenId */\n      0x04\n      add\n        /* \"Users/leilei/Downloads/MasterChefV2/contracts/PancakeProfile.sol\":57442:57480  users[_msgSender()].tokenId = _tokenId */\n      sstore\n        /* \"Users/leilei/Downloads/MasterChefV2/contracts/PancakeProfile.sol\":57533:57545  _msgSender() */\n      tag_326\n        /* \"Users/leilei/Downloads/MasterChefV2/contracts/PancakeProfile.sol\":57533:57543  _msgSender */\n      tag_190\n        /* \"Users/leilei/Downloads/MasterChefV2/contracts/PancakeProfile.sol\":57533:57545  _msgSender() */\n      jump\t// in\n    tag_326:\n        /* \"Users/leilei/Downloads/MasterChefV2/contracts/PancakeProfile.sol\":57518:57581  UserReactivate(_msgSender(), userTeamId, _nftAddress, _tokenId) */\n      0x40\n      dup1\n      mload\n      dup4\n      dup2\n      mstore\n      sub(shl(0xa0, 0x01), 0x01)\n      dup8\n      dup2\n      and\n      0x20\n      dup4\n      add\n      mstore\n      dup2\n      dup4\n      add\n      dup8\n      swap1\n      mstore\n      swap2\n      mload\n      swap3\n      swap1\n      swap2\n      and\n      swap2\n      0xdb76eea80687b6553e5d689ff9d000c0ce2c10574b39d64cacc2b4f6f54f6838\n      swap2\n      dup2\n      swap1\n      sub\n      0x60\n      add\n      swap1\n      log2\n        /* \"Users/leilei/Downloads/MasterChefV2/contracts/PancakeProfile.sol\":56200:57588  function reactivateProfile(address _nftAddress, uint256 _tokenId) external {... */\n      pop\n      pop\n      pop\n      pop\n      jump\t// out\n        /* \"Users/leilei/Downloads/MasterChefV2/contracts/PancakeProfile.sol\":59798:60226  function removeUserPointsMultiple(... */\n    tag_131:\n        /* \"Users/leilei/Downloads/MasterChefV2/contracts/PancakeProfile.sol\":47866:47889  keccak256(\"POINT_ROLE\") */\n      0x40\n      dup1\n      mload\n      shl(0xb0, 0x504f494e545f524f4c45)\n      dup2\n      mstore\n      swap1\n      mload\n      swap1\n      dup2\n      swap1\n      sub\n      0x0a\n      add\n      swap1\n      keccak256\n        /* \"Users/leilei/Downloads/MasterChefV2/contracts/PancakeProfile.sol\":50240:50273  hasRole(POINT_ROLE, _msgSender()) */\n      tag_328\n      swap1\n        /* \"Users/leilei/Downloads/MasterChefV2/contracts/PancakeProfile.sol\":50260:50272  _msgSender() */\n      tag_220\n        /* \"Users/leilei/Downloads/MasterChefV2/contracts/PancakeProfile.sol\":50260:50270  _msgSender */\n      tag_190\n        /* \"Users/leilei/Downloads/MasterChefV2/contracts/PancakeProfile.sol\":50260:50272  _msgSender() */\n      jump\t// in\n        /* \"Users/leilei/Downloads/MasterChefV2/contracts/PancakeProfile.sol\":50240:50273  hasRole(POINT_ROLE, _msgSender()) */\n    tag_328:\n        /* \"Users/leilei/Downloads/MasterChefV2/contracts/PancakeProfile.sol\":50232:50295  require(hasRole(POINT_ROLE, _msgSender()), \"Not a point admin\") */\n      tag_330\n      jumpi\n      0x40\n      dup1\n      mload\n      shl(0xe5, 0x461bcd)\n      dup2\n      mstore\n      0x20\n      0x04\n      dup3\n      add\n      mstore\n      0x11\n      0x24\n      dup3\n      add\n      mstore\n      shl(0x79, 0x2737ba1030903837b4b73a1030b236b4b7)\n      0x44\n      dup3\n      add\n      mstore\n      swap1\n      mload\n      swap1\n      dup2\n      swap1\n      sub\n      0x64\n      add\n      swap1\n      revert\n    tag_330:\n        /* \"Users/leilei/Downloads/MasterChefV2/contracts/PancakeProfile.sol\":59973:59977  1001 */\n      0x03e9\n        /* \"Users/leilei/Downloads/MasterChefV2/contracts/PancakeProfile.sol\":59949:59977  _userAddresses.length < 1001 */\n      dup3\n      lt\n        /* \"Users/leilei/Downloads/MasterChefV2/contracts/PancakeProfile.sol\":59941:60003  require(_userAddresses.length < 1001, \"Length must be < 1001\") */\n      tag_332\n      jumpi\n      0x40\n      dup1\n      mload\n      shl(0xe5, 0x461bcd)\n      dup2\n      mstore\n      0x20\n      0x04\n      dup3\n      add\n      mstore\n      0x15\n      0x24\n      dup3\n      add\n      mstore\n      shl(0x58, 0x4c656e677468206d757374206265203c2031303031)\n      0x44\n      dup3\n      add\n      mstore\n      swap1\n      mload\n      swap1\n      dup2\n      swap1\n      sub\n      0x64\n      add\n      swap1\n      revert\n    tag_332:\n        /* \"Users/leilei/Downloads/MasterChefV2/contracts/PancakeProfile.sol\":60018:60027  uint256 i */\n      0x00\n        /* \"Users/leilei/Downloads/MasterChefV2/contracts/PancakeProfile.sol\":60013:60220  for (uint256 i = 0; i < _userAddresses.length; i++) {... */\n    tag_333:\n        /* \"Users/leilei/Downloads/MasterChefV2/contracts/PancakeProfile.sol\":60033:60058  i < _userAddresses.length */\n      dup3\n      dup2\n      lt\n        /* \"Users/leilei/Downloads/MasterChefV2/contracts/PancakeProfile.sol\":60013:60220  for (uint256 i = 0; i < _userAddresses.length; i++) {... */\n      iszero\n      tag_334\n      jumpi\n        /* \"Users/leilei/Downloads/MasterChefV2/contracts/PancakeProfile.sol\":60119:60209  users[_userAddresses[i]]... */\n      tag_336\n        /* \"Users/leilei/Downloads/MasterChefV2/contracts/PancakeProfile.sol\":60195:60208  _numberPoints */\n      dup3\n        /* \"Users/leilei/Downloads/MasterChefV2/contracts/PancakeProfile.sol\":60119:60124  users */\n      0x09\n        /* \"Users/leilei/Downloads/MasterChefV2/contracts/PancakeProfile.sol\":60119:60143  users[_userAddresses[i]] */\n      0x00\n        /* \"Users/leilei/Downloads/MasterChefV2/contracts/PancakeProfile.sol\":60125:60139  _userAddresses */\n      dup8\n      dup8\n        /* \"Users/leilei/Downloads/MasterChefV2/contracts/PancakeProfile.sol\":60140:60141  i */\n      dup7\n        /* \"Users/leilei/Downloads/MasterChefV2/contracts/PancakeProfile.sol\":60125:60142  _userAddresses[i] */\n      dup2\n      dup2\n      lt\n      tag_337\n      jumpi\n      invalid\n    tag_337:\n      swap1\n      pop\n      0x20\n      mul\n      add\n      calldataload\n      sub(shl(0xa0, 0x01), 0x01)\n      and\n      sub(shl(0xa0, 0x01), 0x01)\n        /* \"Users/leilei/Downloads/MasterChefV2/contracts/PancakeProfile.sol\":60119:60143  users[_userAddresses[i]] */\n      and\n      sub(shl(0xa0, 0x01), 0x01)\n      and\n      dup2\n      mstore\n      0x20\n      add\n      swap1\n      dup2\n      mstore\n      0x20\n      add\n      0x00\n      keccak256\n        /* \"Users/leilei/Downloads/MasterChefV2/contracts/PancakeProfile.sol\":60119:60173  users[_userAddresses[i]]... */\n      0x01\n      add\n      sload\n        /* \"Users/leilei/Downloads/MasterChefV2/contracts/PancakeProfile.sol\":60119:60194  users[_userAddresses[i]]... */\n      tag_338\n      swap1\n        /* \"Users/leilei/Downloads/MasterChefV2/contracts/PancakeProfile.sol\":60119:60209  users[_userAddresses[i]]... */\n      swap2\n      swap1\n      0xffffffff\n      and\n      jump\t// in\n    tag_336:\n        /* \"Users/leilei/Downloads/MasterChefV2/contracts/PancakeProfile.sol\":60079:60084  users */\n      0x09\n        /* \"Users/leilei/Downloads/MasterChefV2/contracts/PancakeProfile.sol\":60079:60103  users[_userAddresses[i]] */\n      0x00\n        /* \"Users/leilei/Downloads/MasterChefV2/contracts/PancakeProfile.sol\":60085:60099  _userAddresses */\n      dup7\n      dup7\n        /* \"Users/leilei/Downloads/MasterChefV2/contracts/PancakeProfile.sol\":60100:60101  i */\n      dup6\n        /* \"Users/leilei/Downloads/MasterChefV2/contracts/PancakeProfile.sol\":60085:60102  _userAddresses[i] */\n      dup2\n      dup2\n      lt\n      tag_339\n      jumpi\n      invalid\n    tag_339:\n      swap1\n      pop\n      0x20\n      mul\n      add\n      calldataload\n      sub(shl(0xa0, 0x01), 0x01)\n      and\n      sub(shl(0xa0, 0x01), 0x01)\n        /* \"Users/leilei/Downloads/MasterChefV2/contracts/PancakeProfile.sol\":60079:60103  users[_userAddresses[i]] */\n      and\n      sub(shl(0xa0, 0x01), 0x01)\n      and\n      dup2\n      mstore\n      0x20\n      add\n      swap1\n      dup2\n      mstore\n      0x20\n      add\n      0x00\n      keccak256\n        /* \"Users/leilei/Downloads/MasterChefV2/contracts/PancakeProfile.sol\":60079:60116  users[_userAddresses[i]].numberPoints */\n      0x01\n      add\n        /* \"Users/leilei/Downloads/MasterChefV2/contracts/PancakeProfile.sol\":60079:60209  users[_userAddresses[i]].numberPoints = users[_userAddresses[i]]... */\n      dup2\n      swap1\n      sstore\n      pop\n        /* \"Users/leilei/Downloads/MasterChefV2/contracts/PancakeProfile.sol\":60060:60063  i++ */\n      dup1\n      dup1\n      0x01\n      add\n      swap2\n      pop\n      pop\n        /* \"Users/leilei/Downloads/MasterChefV2/contracts/PancakeProfile.sol\":60013:60220  for (uint256 i = 0; i < _userAddresses.length; i++) {... */\n      jump(tag_333)\n    tag_334:\n      pop\n        /* \"Users/leilei/Downloads/MasterChefV2/contracts/PancakeProfile.sol\":59798:60226  function removeUserPointsMultiple(... */\n      pop\n      pop\n      pop\n      jump\t// out\n        /* \"Users/leilei/Downloads/MasterChefV2/contracts/PancakeProfile.sol\":65758:66287  function getTeamProfile(uint256 _teamId)... */\n    tag_134:\n        /* \"Users/leilei/Downloads/MasterChefV2/contracts/PancakeProfile.sol\":65859:65872  string memory */\n      0x60\n        /* \"Users/leilei/Downloads/MasterChefV2/contracts/PancakeProfile.sol\":65886:65899  string memory */\n      dup1\n        /* \"Users/leilei/Downloads/MasterChefV2/contracts/PancakeProfile.sol\":65913:65920  uint256 */\n      0x00\n        /* \"Users/leilei/Downloads/MasterChefV2/contracts/PancakeProfile.sol\":65934:65941  uint256 */\n      dup1\n        /* \"Users/leilei/Downloads/MasterChefV2/contracts/PancakeProfile.sol\":65955:65959  bool */\n      0x00\n        /* \"Users/leilei/Downloads/MasterChefV2/contracts/PancakeProfile.sol\":66004:66015  numberTeams */\n      sload(0x06)\n        /* \"Users/leilei/Downloads/MasterChefV2/contracts/PancakeProfile.sol\":65993:66000  _teamId */\n      dup7\n        /* \"Users/leilei/Downloads/MasterChefV2/contracts/PancakeProfile.sol\":65993:66015  _teamId <= numberTeams */\n      gt\n      iszero\n        /* \"Users/leilei/Downloads/MasterChefV2/contracts/PancakeProfile.sol\":65992:66033  (_teamId <= numberTeams) && (_teamId > 0) */\n      dup1\n      iszero\n      tag_341\n      jumpi\n      pop\n        /* \"Users/leilei/Downloads/MasterChefV2/contracts/PancakeProfile.sol\":66031:66032  0 */\n      0x00\n        /* \"Users/leilei/Downloads/MasterChefV2/contracts/PancakeProfile.sol\":66021:66028  _teamId */\n      dup7\n        /* \"Users/leilei/Downloads/MasterChefV2/contracts/PancakeProfile.sol\":66021:66032  _teamId > 0 */\n      gt\n        /* \"Users/leilei/Downloads/MasterChefV2/contracts/PancakeProfile.sol\":65992:66033  (_teamId <= numberTeams) && (_teamId > 0) */\n    tag_341:\n        /* \"Users/leilei/Downloads/MasterChefV2/contracts/PancakeProfile.sol\":65984:66052  require((_teamId <= numberTeams) && (_teamId > 0), \"teamId invalid\") */\n      tag_342\n      jumpi\n      0x40\n      dup1\n      mload\n      shl(0xe5, 0x461bcd)\n      dup2\n      mstore\n      0x20\n      0x04\n      dup3\n      add\n      mstore\n      0x0e\n      0x24\n      dup3\n      add\n      mstore\n      shl(0x92, 0x1d19585b5259081a5b9d985b1a59)\n      0x44\n      dup3\n      add\n      mstore\n      swap1\n      mload\n      swap1\n      dup2\n      swap1\n      sub\n      0x64\n      add\n      swap1\n      revert\n    tag_342:\n        /* \"Users/leilei/Downloads/MasterChefV2/contracts/PancakeProfile.sol\":66083:66097  teams[_teamId] */\n      0x00\n      dup7\n      dup2\n      mstore\n        /* \"Users/leilei/Downloads/MasterChefV2/contracts/PancakeProfile.sol\":66083:66088  teams */\n      0x08\n        /* \"Users/leilei/Downloads/MasterChefV2/contracts/PancakeProfile.sol\":66083:66097  teams[_teamId] */\n      0x20\n      swap1\n      dup2\n      mstore\n      0x40\n      swap2\n      dup3\n      swap1\n      keccak256\n        /* \"Users/leilei/Downloads/MasterChefV2/contracts/PancakeProfile.sol\":66164:66190  teams[_teamId].numberUsers */\n      0x02\n      dup1\n      dup3\n      add\n      sload\n        /* \"Users/leilei/Downloads/MasterChefV2/contracts/PancakeProfile.sol\":66204:66231  teams[_teamId].numberPoints */\n      0x03\n      dup4\n      add\n      sload\n        /* \"Users/leilei/Downloads/MasterChefV2/contracts/PancakeProfile.sol\":66245:66270  teams[_teamId].isJoinable */\n      0x04\n      dup5\n      add\n      sload\n        /* \"Users/leilei/Downloads/MasterChefV2/contracts/PancakeProfile.sol\":66062:66280  return (... */\n      dup5\n      sload\n      dup8\n      mload\n      0x1f\n      not(0x00)\n        /* \"Users/leilei/Downloads/MasterChefV2/contracts/PancakeProfile.sol\":66120:66150  teams[_teamId].teamDescription */\n      0x01\n        /* \"Users/leilei/Downloads/MasterChefV2/contracts/PancakeProfile.sol\":66062:66280  return (... */\n      dup5\n      dup2\n      and\n      iszero\n        /* \"Users/leilei/Downloads/MasterChefV2/contracts/PancakeProfile.sol\":66245:66270  teams[_teamId].isJoinable */\n      0x0100\n        /* \"Users/leilei/Downloads/MasterChefV2/contracts/PancakeProfile.sol\":66062:66280  return (... */\n      mul\n      swap2\n      swap1\n      swap2\n      add\n      swap1\n      swap4\n      and\n      swap7\n      swap1\n      swap7\n      div\n      swap6\n      dup7\n      add\n      dup9\n      swap1\n      div\n      dup9\n      mul\n      dup2\n      add\n      dup9\n      add\n      swap1\n      swap9\n      mstore\n      dup5\n      dup9\n      mstore\n        /* \"Users/leilei/Downloads/MasterChefV2/contracts/PancakeProfile.sol\":66083:66097  teams[_teamId] */\n      swap5\n      swap7\n        /* \"Users/leilei/Downloads/MasterChefV2/contracts/PancakeProfile.sol\":66120:66150  teams[_teamId].teamDescription */\n      swap5\n      dup8\n      add\n      swap6\n        /* \"Users/leilei/Downloads/MasterChefV2/contracts/PancakeProfile.sol\":66164:66190  teams[_teamId].numberUsers */\n      swap3\n      swap5\n        /* \"Users/leilei/Downloads/MasterChefV2/contracts/PancakeProfile.sol\":66204:66231  teams[_teamId].numberPoints */\n      swap2\n      swap4\n        /* \"Users/leilei/Downloads/MasterChefV2/contracts/PancakeProfile.sol\":66245:66270  teams[_teamId].isJoinable */\n      0xff\n      swap1\n      swap2\n      and\n      swap3\n        /* \"Users/leilei/Downloads/MasterChefV2/contracts/PancakeProfile.sol\":66083:66097  teams[_teamId] */\n      dup8\n      swap2\n        /* \"Users/leilei/Downloads/MasterChefV2/contracts/PancakeProfile.sol\":66062:66280  return (... */\n      swap1\n      dup4\n      add\n        /* \"Users/leilei/Downloads/MasterChefV2/contracts/PancakeProfile.sol\":66083:66097  teams[_teamId] */\n      dup3\n        /* \"Users/leilei/Downloads/MasterChefV2/contracts/PancakeProfile.sol\":66062:66280  return (... */\n      dup3\n      dup1\n      iszero\n      tag_343\n      jumpi\n      dup1\n      0x1f\n      lt\n      tag_344\n      jumpi\n      0x0100\n      dup1\n      dup4\n      sload\n      div\n      mul\n      dup4\n      mstore\n      swap2\n      0x20\n      add\n      swap2\n      jump(tag_343)\n    tag_344:\n      dup3\n      add\n      swap2\n      swap1\n      0x00\n      mstore\n      keccak256(0x00, 0x20)\n      swap1\n    tag_345:\n      dup2\n      sload\n      dup2\n      mstore\n      swap1\n      0x01\n      add\n      swap1\n      0x20\n      add\n      dup1\n      dup4\n      gt\n      tag_345\n      jumpi\n      dup3\n      swap1\n      sub\n      0x1f\n      and\n      dup3\n      add\n      swap2\n    tag_343:\n      pop\n      pop\n      dup8\n      sload\n      0x40\n      dup1\n      mload\n      0x20\n      0x02\n      0x01\n      dup6\n      and\n      iszero\n      0x0100\n      mul\n      not(0x00)\n      add\n      swap1\n      swap5\n      and\n      swap4\n      swap1\n      swap4\n      div\n      0x1f\n      dup2\n      add\n      dup5\n      swap1\n      div\n      dup5\n      mul\n      dup3\n      add\n      dup5\n      add\n      swap1\n      swap3\n      mstore\n      dup2\n      dup2\n      mstore\n      swap6\n      swap11\n      pop\n      dup10\n      swap5\n      pop\n      swap3\n      pop\n      dup5\n      add\n      swap1\n      pop\n      dup3\n      dup3\n      dup1\n      iszero\n      tag_346\n      jumpi\n      dup1\n      0x1f\n      lt\n      tag_347\n      jumpi\n      0x0100\n      dup1\n      dup4\n      sload\n      div\n      mul\n      dup4\n      mstore\n      swap2\n      0x20\n      add\n      swap2\n      jump(tag_346)\n    tag_347:\n      dup3\n      add\n      swap2\n      swap1\n      0x00\n      mstore\n      keccak256(0x00, 0x20)\n      swap1\n    tag_348:\n      dup2\n      sload\n      dup2\n      mstore\n      swap1\n      0x01\n      add\n      swap1\n      0x20\n      add\n      dup1\n      dup4\n      gt\n      tag_348\n      jumpi\n      dup3\n      swap1\n      sub\n      0x1f\n      and\n      dup3\n      add\n      swap2\n    tag_346:\n      pop\n      swap9\n      swap16\n      swap4\n      swap15\n      pop\n      swap6\n      swap13\n      pop\n      swap4\n      swap11\n      pop\n      swap2\n      swap9\n      pop\n        /* \"Users/leilei/Downloads/MasterChefV2/contracts/PancakeProfile.sol\":65758:66287  function getTeamProfile(uint256 _teamId)... */\n      swap7\n      pop\n      pop\n      pop\n      pop\n      pop\n      pop\n      pop\n      jump\t// out\n        /* \"Users/leilei/Downloads/MasterChefV2/contracts/PancakeProfile.sol\":47966:48001  uint256 public numberActiveProfiles */\n    tag_144:\n      sload(0x02)\n      dup2\n      jump\t// out\n        /* \"Users/leilei/Downloads/MasterChefV2/contracts/PancakeProfile.sol\":47895:47959  bytes32 public constant SPECIAL_ROLE = keccak256(\"SPECIAL_ROLE\") */\n    tag_146:\n        /* \"Users/leilei/Downloads/MasterChefV2/contracts/PancakeProfile.sol\":47934:47959  keccak256(\"SPECIAL_ROLE\") */\n      0x40\n      dup1\n      mload\n      shl(0xa0, 0x5350454349414c5f524f4c45)\n      dup2\n      mstore\n      swap1\n      mload\n      swap1\n      dup2\n      swap1\n      sub\n      0x0c\n      add\n      swap1\n      keccak256\n        /* \"Users/leilei/Downloads/MasterChefV2/contracts/PancakeProfile.sol\":47895:47959  bytes32 public constant SPECIAL_ROLE = keccak256(\"SPECIAL_ROLE\") */\n      dup2\n      jump\t// out\n        /* \"Users/leilei/Downloads/MasterChefV2/contracts/PancakeProfile.sol\":53305:54562  function pauseProfile() external {... */\n    tag_148:\n        /* \"Users/leilei/Downloads/MasterChefV2/contracts/PancakeProfile.sol\":53356:53369  hasRegistered */\n      0x07\n        /* \"Users/leilei/Downloads/MasterChefV2/contracts/PancakeProfile.sol\":53356:53383  hasRegistered[_msgSender()] */\n      0x00\n        /* \"Users/leilei/Downloads/MasterChefV2/contracts/PancakeProfile.sol\":53370:53382  _msgSender() */\n      tag_350\n        /* \"Users/leilei/Downloads/MasterChefV2/contracts/PancakeProfile.sol\":53370:53380  _msgSender */\n      tag_190\n        /* \"Users/leilei/Downloads/MasterChefV2/contracts/PancakeProfile.sol\":53370:53382  _msgSender() */\n      jump\t// in\n    tag_350:\n      sub(shl(0xa0, 0x01), 0x01)\n        /* \"Users/leilei/Downloads/MasterChefV2/contracts/PancakeProfile.sol\":53356:53383  hasRegistered[_msgSender()] */\n      and\n      dup2\n      mstore\n      0x20\n      dup2\n      add\n      swap2\n      swap1\n      swap2\n      mstore\n      0x40\n      add\n      0x00\n      keccak256\n      sload\n      0xff\n      and\n        /* \"Users/leilei/Downloads/MasterChefV2/contracts/PancakeProfile.sol\":53348:53406  require(hasRegistered[_msgSender()], \"Has not registered\") */\n      tag_351\n      jumpi\n      0x40\n      dup1\n      mload\n      shl(0xe5, 0x461bcd)\n      dup2\n      mstore\n      0x20\n      0x04\n      dup3\n      add\n      mstore\n      0x12\n      0x24\n      dup3\n      add\n      mstore\n      shl(0x72, 0x12185cc81b9bdd081c9959da5cdd195c9959)\n      0x44\n      dup3\n      add\n      mstore\n      swap1\n      mload\n      swap1\n      dup2\n      swap1\n      sub\n      0x64\n      add\n      swap1\n      revert\n    tag_351:\n        /* \"Users/leilei/Downloads/MasterChefV2/contracts/PancakeProfile.sol\":53475:53480  users */\n      0x09\n        /* \"Users/leilei/Downloads/MasterChefV2/contracts/PancakeProfile.sol\":53475:53494  users[_msgSender()] */\n      0x00\n        /* \"Users/leilei/Downloads/MasterChefV2/contracts/PancakeProfile.sol\":53481:53493  _msgSender() */\n      tag_352\n        /* \"Users/leilei/Downloads/MasterChefV2/contracts/PancakeProfile.sol\":53481:53491  _msgSender */\n      tag_190\n        /* \"Users/leilei/Downloads/MasterChefV2/contracts/PancakeProfile.sol\":53481:53493  _msgSender() */\n      jump\t// in\n    tag_352:\n      sub(shl(0xa0, 0x01), 0x01)\n        /* \"Users/leilei/Downloads/MasterChefV2/contracts/PancakeProfile.sol\":53475:53494  users[_msgSender()] */\n      and\n      dup2\n      mstore\n      0x20\n      dup2\n      add\n      swap2\n      swap1\n      swap2\n      mstore\n      0x40\n      add\n      0x00\n      keccak256\n        /* \"Users/leilei/Downloads/MasterChefV2/contracts/PancakeProfile.sol\":53475:53503  users[_msgSender()].isActive */\n      0x05\n      add\n      sload\n      0xff\n      and\n        /* \"Users/leilei/Downloads/MasterChefV2/contracts/PancakeProfile.sol\":53467:53523  require(users[_msgSender()].isActive, \"User not active\") */\n      tag_353\n      jumpi\n      0x40\n      dup1\n      mload\n      shl(0xe5, 0x461bcd)\n      dup2\n      mstore\n      0x20\n      0x04\n      dup3\n      add\n      mstore\n      0x0f\n      0x24\n      dup3\n      add\n      mstore\n      shl(0x88, 0x55736572206e6f7420616374697665)\n      0x44\n      dup3\n      add\n      mstore\n      swap1\n      mload\n      swap1\n      dup2\n      swap1\n      sub\n      0x64\n      add\n      swap1\n      revert\n    tag_353:\n        /* \"Users/leilei/Downloads/MasterChefV2/contracts/PancakeProfile.sol\":53618:53623  false */\n      0x00\n        /* \"Users/leilei/Downloads/MasterChefV2/contracts/PancakeProfile.sol\":53587:53592  users */\n      0x09\n        /* \"Users/leilei/Downloads/MasterChefV2/contracts/PancakeProfile.sol\":53587:53606  users[_msgSender()] */\n      0x00\n        /* \"Users/leilei/Downloads/MasterChefV2/contracts/PancakeProfile.sol\":53593:53605  _msgSender() */\n      tag_354\n        /* \"Users/leilei/Downloads/MasterChefV2/contracts/PancakeProfile.sol\":53593:53603  _msgSender */\n      tag_190\n        /* \"Users/leilei/Downloads/MasterChefV2/contracts/PancakeProfile.sol\":53593:53605  _msgSender() */\n      jump\t// in\n    tag_354:\n      sub(shl(0xa0, 0x01), 0x01)\n        /* \"Users/leilei/Downloads/MasterChefV2/contracts/PancakeProfile.sol\":53587:53606  users[_msgSender()] */\n      and\n      dup2\n      mstore\n      0x20\n      dup2\n      add\n      swap2\n      swap1\n      swap2\n      mstore\n      0x40\n      add\n      0x00\n      swap1\n      dup2\n      keccak256\n        /* \"Users/leilei/Downloads/MasterChefV2/contracts/PancakeProfile.sol\":53587:53615  users[_msgSender()].isActive */\n      0x05\n      add\n        /* \"Users/leilei/Downloads/MasterChefV2/contracts/PancakeProfile.sol\":53587:53623  users[_msgSender()].isActive = false */\n      dup1\n      sload\n      not(0xff)\n      and\n      swap3\n      iszero\n      iszero\n      swap3\n      swap1\n      swap3\n      or\n      swap1\n      swap2\n      sstore\n        /* \"Users/leilei/Downloads/MasterChefV2/contracts/PancakeProfile.sol\":53706:53711  users */\n      0x09\n      dup2\n        /* \"Users/leilei/Downloads/MasterChefV2/contracts/PancakeProfile.sol\":53712:53724  _msgSender() */\n      tag_355\n        /* \"Users/leilei/Downloads/MasterChefV2/contracts/PancakeProfile.sol\":53712:53722  _msgSender */\n      tag_190\n        /* \"Users/leilei/Downloads/MasterChefV2/contracts/PancakeProfile.sol\":53712:53724  _msgSender() */\n      jump\t// in\n    tag_355:\n      sub(shl(0xa0, 0x01), 0x01)\n        /* \"Users/leilei/Downloads/MasterChefV2/contracts/PancakeProfile.sol\":53706:53725  users[_msgSender()] */\n      and\n      sub(shl(0xa0, 0x01), 0x01)\n      and\n      dup2\n      mstore\n      0x20\n      add\n      swap1\n      dup2\n      mstore\n      0x20\n      add\n      0x00\n      keccak256\n        /* \"Users/leilei/Downloads/MasterChefV2/contracts/PancakeProfile.sol\":53706:53732  users[_msgSender()].teamId */\n      0x02\n      add\n      sload\n        /* \"Users/leilei/Downloads/MasterChefV2/contracts/PancakeProfile.sol\":53685:53732  uint256 userTeamId = users[_msgSender()].teamId */\n      swap1\n      pop\n        /* \"Users/leilei/Downloads/MasterChefV2/contracts/PancakeProfile.sol\":53831:53867  teams[userTeamId].numberUsers.sub(1) */\n      tag_356\n        /* \"Users/leilei/Downloads/MasterChefV2/contracts/PancakeProfile.sol\":53865:53866  1 */\n      0x01\n        /* \"Users/leilei/Downloads/MasterChefV2/contracts/PancakeProfile.sol\":53831:53836  teams */\n      0x08\n        /* \"Users/leilei/Downloads/MasterChefV2/contracts/PancakeProfile.sol\":53831:53848  teams[userTeamId] */\n      0x00\n        /* \"Users/leilei/Downloads/MasterChefV2/contracts/PancakeProfile.sol\":53837:53847  userTeamId */\n      dup5\n        /* \"Users/leilei/Downloads/MasterChefV2/contracts/PancakeProfile.sol\":53831:53848  teams[userTeamId] */\n      dup2\n      mstore\n      0x20\n      add\n      swap1\n      dup2\n      mstore\n      0x20\n      add\n      0x00\n      keccak256\n        /* \"Users/leilei/Downloads/MasterChefV2/contracts/PancakeProfile.sol\":53831:53860  teams[userTeamId].numberUsers */\n      0x02\n      add\n      sload\n        /* \"Users/leilei/Downloads/MasterChefV2/contracts/PancakeProfile.sol\":53831:53864  teams[userTeamId].numberUsers.sub */\n      tag_338\n      swap1\n        /* \"Users/leilei/Downloads/MasterChefV2/contracts/PancakeProfile.sol\":53831:53867  teams[userTeamId].numberUsers.sub(1) */\n      swap2\n      swap1\n      0xffffffff\n      and\n      jump\t// in\n    tag_356:\n        /* \"Users/leilei/Downloads/MasterChefV2/contracts/PancakeProfile.sol\":53799:53816  teams[userTeamId] */\n      0x00\n      dup3\n      dup2\n      mstore\n        /* \"Users/leilei/Downloads/MasterChefV2/contracts/PancakeProfile.sol\":53799:53804  teams */\n      0x08\n        /* \"Users/leilei/Downloads/MasterChefV2/contracts/PancakeProfile.sol\":53799:53816  teams[userTeamId] */\n      0x20\n      mstore\n      0x40\n      swap1\n      keccak256\n        /* \"Users/leilei/Downloads/MasterChefV2/contracts/PancakeProfile.sol\":53799:53828  teams[userTeamId].numberUsers */\n      0x02\n      swap1\n      dup2\n      add\n        /* \"Users/leilei/Downloads/MasterChefV2/contracts/PancakeProfile.sol\":53799:53867  teams[userTeamId].numberUsers = teams[userTeamId].numberUsers.sub(1) */\n      swap2\n      swap1\n      swap2\n      sstore\n        /* \"Users/leilei/Downloads/MasterChefV2/contracts/PancakeProfile.sol\":53900:53920  numberActiveProfiles */\n      sload\n        /* \"Users/leilei/Downloads/MasterChefV2/contracts/PancakeProfile.sol\":53900:53927  numberActiveProfiles.sub(1) */\n      tag_357\n      swap1\n        /* \"Users/leilei/Downloads/MasterChefV2/contracts/PancakeProfile.sol\":53925:53926  1 */\n      0x01\n        /* \"Users/leilei/Downloads/MasterChefV2/contracts/PancakeProfile.sol\":53900:53927  numberActiveProfiles.sub(1) */\n      0xffffffff\n        /* \"Users/leilei/Downloads/MasterChefV2/contracts/PancakeProfile.sol\":53900:53924  numberActiveProfiles.sub */\n      tag_338\n        /* \"Users/leilei/Downloads/MasterChefV2/contracts/PancakeProfile.sol\":53900:53927  numberActiveProfiles.sub(1) */\n      and\n      jump\t// in\n    tag_357:\n        /* \"Users/leilei/Downloads/MasterChefV2/contracts/PancakeProfile.sol\":53877:53897  numberActiveProfiles */\n      0x02\n        /* \"Users/leilei/Downloads/MasterChefV2/contracts/PancakeProfile.sol\":53877:53927  numberActiveProfiles = numberActiveProfiles.sub(1) */\n      sstore\n        /* \"Users/leilei/Downloads/MasterChefV2/contracts/PancakeProfile.sol\":53987:54003  IERC721 nftToken */\n      0x00\n        /* \"Users/leilei/Downloads/MasterChefV2/contracts/PancakeProfile.sol\":54014:54019  users */\n      0x09\n        /* \"Users/leilei/Downloads/MasterChefV2/contracts/PancakeProfile.sol\":53987:54003  IERC721 nftToken */\n      dup2\n        /* \"Users/leilei/Downloads/MasterChefV2/contracts/PancakeProfile.sol\":54020:54032  _msgSender() */\n      tag_358\n        /* \"Users/leilei/Downloads/MasterChefV2/contracts/PancakeProfile.sol\":54020:54030  _msgSender */\n      tag_190\n        /* \"Users/leilei/Downloads/MasterChefV2/contracts/PancakeProfile.sol\":54020:54032  _msgSender() */\n      jump\t// in\n    tag_358:\n      sub(shl(0xa0, 0x01), 0x01)\n        /* \"Users/leilei/Downloads/MasterChefV2/contracts/PancakeProfile.sol\":54014:54033  users[_msgSender()] */\n      swap1\n      dup2\n      and\n      dup3\n      mstore\n      0x20\n      dup3\n      add\n      swap3\n      swap1\n      swap3\n      mstore\n      0x40\n      add\n      0x00\n      swap1\n      dup2\n      keccak256\n        /* \"Users/leilei/Downloads/MasterChefV2/contracts/PancakeProfile.sol\":54014:54044  users[_msgSender()].nftAddress */\n      0x03\n      add\n      sload\n      swap1\n      swap2\n      and\n      swap2\n      pop\n        /* \"Users/leilei/Downloads/MasterChefV2/contracts/PancakeProfile.sol\":54117:54122  users */\n      0x09\n      dup2\n        /* \"Users/leilei/Downloads/MasterChefV2/contracts/PancakeProfile.sol\":54123:54135  _msgSender() */\n      tag_359\n        /* \"Users/leilei/Downloads/MasterChefV2/contracts/PancakeProfile.sol\":54123:54133  _msgSender */\n      tag_190\n        /* \"Users/leilei/Downloads/MasterChefV2/contracts/PancakeProfile.sol\":54123:54135  _msgSender() */\n      jump\t// in\n    tag_359:\n      sub(shl(0xa0, 0x01), 0x01)\n        /* \"Users/leilei/Downloads/MasterChefV2/contracts/PancakeProfile.sol\":54117:54136  users[_msgSender()] */\n      and\n      sub(shl(0xa0, 0x01), 0x01)\n      and\n      dup2\n      mstore\n      0x20\n      add\n      swap1\n      dup2\n      mstore\n      0x20\n      add\n      0x00\n      keccak256\n        /* \"Users/leilei/Downloads/MasterChefV2/contracts/PancakeProfile.sol\":54117:54144  users[_msgSender()].tokenId */\n      0x04\n      add\n      sload\n        /* \"Users/leilei/Downloads/MasterChefV2/contracts/PancakeProfile.sol\":54091:54144  uint256 redeemedTokenId = users[_msgSender()].tokenId */\n      swap1\n      pop\n        /* \"Users/leilei/Downloads/MasterChefV2/contracts/PancakeProfile.sol\":54261:54303  0x0000000000000000000000000000000000000000 */\n      0x00\n        /* \"Users/leilei/Downloads/MasterChefV2/contracts/PancakeProfile.sol\":54207:54212  users */\n      0x09\n        /* \"Users/leilei/Downloads/MasterChefV2/contracts/PancakeProfile.sol\":54207:54226  users[_msgSender()] */\n      0x00\n        /* \"Users/leilei/Downloads/MasterChefV2/contracts/PancakeProfile.sol\":54213:54225  _msgSender() */\n      tag_360\n        /* \"Users/leilei/Downloads/MasterChefV2/contracts/PancakeProfile.sol\":54213:54223  _msgSender */\n      tag_190\n        /* \"Users/leilei/Downloads/MasterChefV2/contracts/PancakeProfile.sol\":54213:54225  _msgSender() */\n      jump\t// in\n    tag_360:\n      sub(shl(0xa0, 0x01), 0x01)\n        /* \"Users/leilei/Downloads/MasterChefV2/contracts/PancakeProfile.sol\":54207:54226  users[_msgSender()] */\n      and\n      sub(shl(0xa0, 0x01), 0x01)\n      and\n      dup2\n      mstore\n      0x20\n      add\n      swap1\n      dup2\n      mstore\n      0x20\n      add\n      0x00\n      keccak256\n        /* \"Users/leilei/Downloads/MasterChefV2/contracts/PancakeProfile.sol\":54207:54237  users[_msgSender()].nftAddress */\n      0x03\n      add\n      0x00\n        /* \"Users/leilei/Downloads/MasterChefV2/contracts/PancakeProfile.sol\":54207:54313  users[_msgSender()].nftAddress = address(... */\n      0x0100\n      exp\n      dup2\n      sload\n      dup2\n      sub(shl(0xa0, 0x01), 0x01)\n      mul\n      not\n      and\n      swap1\n      dup4\n      sub(shl(0xa0, 0x01), 0x01)\n      and\n      mul\n      or\n      swap1\n      sstore\n      pop\n        /* \"Users/leilei/Downloads/MasterChefV2/contracts/PancakeProfile.sol\":54354:54355  0 */\n      0x00\n        /* \"Users/leilei/Downloads/MasterChefV2/contracts/PancakeProfile.sol\":54324:54329  users */\n      0x09\n        /* \"Users/leilei/Downloads/MasterChefV2/contracts/PancakeProfile.sol\":54324:54343  users[_msgSender()] */\n      0x00\n        /* \"Users/leilei/Downloads/MasterChefV2/contracts/PancakeProfile.sol\":54330:54342  _msgSender() */\n      tag_361\n        /* \"Users/leilei/Downloads/MasterChefV2/contracts/PancakeProfile.sol\":54330:54340  _msgSender */\n      tag_190\n        /* \"Users/leilei/Downloads/MasterChefV2/contracts/PancakeProfile.sol\":54330:54342  _msgSender() */\n      jump\t// in\n    tag_361:\n      sub(shl(0xa0, 0x01), 0x01)\n        /* \"Users/leilei/Downloads/MasterChefV2/contracts/PancakeProfile.sol\":54324:54343  users[_msgSender()] */\n      and\n      sub(shl(0xa0, 0x01), 0x01)\n      and\n      dup2\n      mstore\n      0x20\n      add\n      swap1\n      dup2\n      mstore\n      0x20\n      add\n      0x00\n      keccak256\n        /* \"Users/leilei/Downloads/MasterChefV2/contracts/PancakeProfile.sol\":54324:54351  users[_msgSender()].tokenId */\n      0x04\n      add\n        /* \"Users/leilei/Downloads/MasterChefV2/contracts/PancakeProfile.sol\":54324:54355  users[_msgSender()].tokenId = 0 */\n      dup2\n      swap1\n      sstore\n      pop\n        /* \"Users/leilei/Downloads/MasterChefV2/contracts/PancakeProfile.sol\":54411:54419  nftToken */\n      dup2\n      sub(shl(0xa0, 0x01), 0x01)\n        /* \"Users/leilei/Downloads/MasterChefV2/contracts/PancakeProfile.sol\":54411:54436  nftToken.safeTransferFrom */\n      and\n      0x42842e0e\n        /* \"Users/leilei/Downloads/MasterChefV2/contracts/PancakeProfile.sol\":54445:54449  this */\n      address\n        /* \"Users/leilei/Downloads/MasterChefV2/contracts/PancakeProfile.sol\":54452:54464  _msgSender() */\n      tag_362\n        /* \"Users/leilei/Downloads/MasterChefV2/contracts/PancakeProfile.sol\":54452:54462  _msgSender */\n      tag_190\n        /* \"Users/leilei/Downloads/MasterChefV2/contracts/PancakeProfile.sol\":54452:54464  _msgSender() */\n      jump\t// in\n    tag_362:\n        /* \"Users/leilei/Downloads/MasterChefV2/contracts/PancakeProfile.sol\":54466:54481  redeemedTokenId */\n      dup5\n        /* \"Users/leilei/Downloads/MasterChefV2/contracts/PancakeProfile.sol\":54411:54482  nftToken.safeTransferFrom(address(this), _msgSender(), redeemedTokenId) */\n      mload(0x40)\n      dup5\n      0xffffffff\n      and\n      0xe0\n      shl\n      dup2\n      mstore\n      0x04\n      add\n      dup1\n      dup5\n      sub(shl(0xa0, 0x01), 0x01)\n      and\n      sub(shl(0xa0, 0x01), 0x01)\n      and\n      dup2\n      mstore\n      0x20\n      add\n      dup4\n      sub(shl(0xa0, 0x01), 0x01)\n      and\n      sub(shl(0xa0, 0x01), 0x01)\n      and\n      dup2\n      mstore\n      0x20\n      add\n      dup3\n      dup2\n      mstore\n      0x20\n      add\n      swap4\n      pop\n      pop\n      pop\n      pop\n      0x00\n      mload(0x40)\n      dup1\n      dup4\n      sub\n      dup2\n      0x00\n      dup8\n      dup1\n      extcodesize\n      iszero\n        /* \"--CODEGEN--\":5:14   */\n      dup1\n        /* \"--CODEGEN--\":2:4   */\n      iszero\n      tag_363\n      jumpi\n        /* \"--CODEGEN--\":27:28   */\n      0x00\n        /* \"--CODEGEN--\":24:25   */\n      dup1\n        /* \"--CODEGEN--\":17:29   */\n      revert\n        /* \"--CODEGEN--\":2:4   */\n    tag_363:\n        /* \"Users/leilei/Downloads/MasterChefV2/contracts/PancakeProfile.sol\":54411:54482  nftToken.safeTransferFrom(address(this), _msgSender(), redeemedTokenId) */\n      pop\n      gas\n      call\n      iszero\n        /* \"--CODEGEN--\":8:17   */\n      dup1\n        /* \"--CODEGEN--\":5:7   */\n      iszero\n      tag_365\n      jumpi\n        /* \"--CODEGEN--\":45:61   */\n      returndatasize\n        /* \"--CODEGEN--\":42:43   */\n      0x00\n        /* \"--CODEGEN--\":39:40   */\n      dup1\n        /* \"--CODEGEN--\":24:62   */\n      returndatacopy\n        /* \"--CODEGEN--\":77:93   */\n      returndatasize\n        /* \"--CODEGEN--\":74:75   */\n      0x00\n        /* \"--CODEGEN--\":67:94   */\n      revert\n        /* \"--CODEGEN--\":5:7   */\n    tag_365:\n        /* \"Users/leilei/Downloads/MasterChefV2/contracts/PancakeProfile.sol\":54411:54482  nftToken.safeTransferFrom(address(this), _msgSender(), redeemedTokenId) */\n      pop\n      pop\n      pop\n      pop\n        /* \"Users/leilei/Downloads/MasterChefV2/contracts/PancakeProfile.sol\":54530:54542  _msgSender() */\n      tag_366\n        /* \"Users/leilei/Downloads/MasterChefV2/contracts/PancakeProfile.sol\":54530:54540  _msgSender */\n      tag_190\n        /* \"Users/leilei/Downloads/MasterChefV2/contracts/PancakeProfile.sol\":54530:54542  _msgSender() */\n      jump\t// in\n    tag_366:\n      sub(shl(0xa0, 0x01), 0x01)\n        /* \"Users/leilei/Downloads/MasterChefV2/contracts/PancakeProfile.sol\":54520:54555  UserPause(_msgSender(), userTeamId) */\n      and\n      0xe0ed25582c4d86fd51bfe26383781fc8bbf5636813cbfdf93c440b5828c93040\n        /* \"Users/leilei/Downloads/MasterChefV2/contracts/PancakeProfile.sol\":54544:54554  userTeamId */\n      dup5\n        /* \"Users/leilei/Downloads/MasterChefV2/contracts/PancakeProfile.sol\":54520:54555  UserPause(_msgSender(), userTeamId) */\n      mload(0x40)\n      dup1\n      dup3\n      dup2\n      mstore\n      0x20\n      add\n      swap2\n      pop\n      pop\n      mload(0x40)\n      dup1\n      swap2\n      sub\n      swap1\n      log2\n        /* \"Users/leilei/Downloads/MasterChefV2/contracts/PancakeProfile.sol\":53305:54562  function pauseProfile() external {... */\n      pop\n      pop\n      pop\n      jump\t// out\n        /* \"Users/leilei/Downloads/MasterChefV2/contracts/PancakeProfile.sol\":47829:47889  bytes32 public constant POINT_ROLE = keccak256(\"POINT_ROLE\") */\n    tag_150:\n        /* \"Users/leilei/Downloads/MasterChefV2/contracts/PancakeProfile.sol\":47866:47889  keccak256(\"POINT_ROLE\") */\n      0x40\n      dup1\n      mload\n      shl(0xb0, 0x504f494e545f524f4c45)\n      dup2\n      mstore\n      swap1\n      mload\n      swap1\n      dup2\n      swap1\n      sub\n      0x0a\n      add\n      swap1\n      keccak256\n        /* \"Users/leilei/Downloads/MasterChefV2/contracts/PancakeProfile.sol\":47829:47889  bytes32 public constant POINT_ROLE = keccak256(\"POINT_ROLE\") */\n      dup2\n      jump\t// out\n        /* \"Users/leilei/Downloads/MasterChefV2/contracts/PancakeProfile.sol\":21475:21600  function getRoleMemberCount(bytes32 role) public view returns (uint256) {... */\n    tag_153:\n        /* \"Users/leilei/Downloads/MasterChefV2/contracts/PancakeProfile.sol\":21538:21545  uint256 */\n      0x00\n        /* \"Users/leilei/Downloads/MasterChefV2/contracts/PancakeProfile.sol\":21564:21576  _roles[role] */\n      dup2\n      dup2\n      mstore\n      0x20\n      dup2\n      swap1\n      mstore\n      0x40\n      dup2\n      keccak256\n        /* \"Users/leilei/Downloads/MasterChefV2/contracts/PancakeProfile.sol\":21564:21593  _roles[role].members.length() */\n      tag_293\n      swap1\n        /* \"Users/leilei/Downloads/MasterChefV2/contracts/PancakeProfile.sol\":21564:21591  _roles[role].members.length */\n      tag_369\n        /* \"Users/leilei/Downloads/MasterChefV2/contracts/PancakeProfile.sol\":21564:21593  _roles[role].members.length() */\n      jump\t// in\n        /* \"Users/leilei/Downloads/MasterChefV2/contracts/PancakeProfile.sol\":60341:60615  function removeTeamPoints(uint256 _teamId, uint256 _numberPoints)... */\n    tag_156:\n        /* \"Users/leilei/Downloads/MasterChefV2/contracts/PancakeProfile.sol\":47866:47889  keccak256(\"POINT_ROLE\") */\n      0x40\n      dup1\n      mload\n      shl(0xb0, 0x504f494e545f524f4c45)\n      dup2\n      mstore\n      swap1\n      mload\n      swap1\n      dup2\n      swap1\n      sub\n      0x0a\n      add\n      swap1\n      keccak256\n        /* \"Users/leilei/Downloads/MasterChefV2/contracts/PancakeProfile.sol\":50240:50273  hasRole(POINT_ROLE, _msgSender()) */\n      tag_371\n      swap1\n        /* \"Users/leilei/Downloads/MasterChefV2/contracts/PancakeProfile.sol\":50260:50272  _msgSender() */\n      tag_220\n        /* \"Users/leilei/Downloads/MasterChefV2/contracts/PancakeProfile.sol\":50260:50270  _msgSender */\n      tag_190\n        /* \"Users/leilei/Downloads/MasterChefV2/contracts/PancakeProfile.sol\":50260:50272  _msgSender() */\n      jump\t// in\n        /* \"Users/leilei/Downloads/MasterChefV2/contracts/PancakeProfile.sol\":50240:50273  hasRole(POINT_ROLE, _msgSender()) */\n    tag_371:\n        /* \"Users/leilei/Downloads/MasterChefV2/contracts/PancakeProfile.sol\":50232:50295  require(hasRole(POINT_ROLE, _msgSender()), \"Not a point admin\") */\n      tag_373\n      jumpi\n      0x40\n      dup1\n      mload\n      shl(0xe5, 0x461bcd)\n      dup2\n      mstore\n      0x20\n      0x04\n      dup3\n      add\n      mstore\n      0x11\n      0x24\n      dup3\n      add\n      mstore\n      shl(0x79, 0x2737ba1030903837b4b73a1030b236b4b7)\n      0x44\n      dup3\n      add\n      mstore\n      swap1\n      mload\n      swap1\n      dup2\n      swap1\n      sub\n      0x64\n      add\n      swap1\n      revert\n    tag_373:\n        /* \"Users/leilei/Downloads/MasterChefV2/contracts/PancakeProfile.sol\":60540:60554  teams[_teamId] */\n      0x00\n      dup3\n      dup2\n      mstore\n        /* \"Users/leilei/Downloads/MasterChefV2/contracts/PancakeProfile.sol\":60540:60545  teams */\n      0x08\n        /* \"Users/leilei/Downloads/MasterChefV2/contracts/PancakeProfile.sol\":60540:60554  teams[_teamId] */\n      0x20\n      mstore\n      0x40\n      swap1\n      keccak256\n        /* \"Users/leilei/Downloads/MasterChefV2/contracts/PancakeProfile.sol\":60540:60567  teams[_teamId].numberPoints */\n      0x03\n      add\n      sload\n        /* \"Users/leilei/Downloads/MasterChefV2/contracts/PancakeProfile.sol\":60540:60608  teams[_teamId].numberPoints.sub(... */\n      tag_375\n      swap1\n        /* \"Users/leilei/Downloads/MasterChefV2/contracts/PancakeProfile.sol\":60585:60598  _numberPoints */\n      dup3\n        /* \"Users/leilei/Downloads/MasterChefV2/contracts/PancakeProfile.sol\":60540:60608  teams[_teamId].numberPoints.sub(... */\n      0xffffffff\n        /* \"Users/leilei/Downloads/MasterChefV2/contracts/PancakeProfile.sol\":60540:60571  teams[_teamId].numberPoints.sub */\n      tag_338\n        /* \"Users/leilei/Downloads/MasterChefV2/contracts/PancakeProfile.sol\":60540:60608  teams[_teamId].numberPoints.sub(... */\n      and\n      jump\t// in\n    tag_375:\n        /* \"Users/leilei/Downloads/MasterChefV2/contracts/PancakeProfile.sol\":60510:60524  teams[_teamId] */\n      0x00\n      swap3\n      dup4\n      mstore\n        /* \"Users/leilei/Downloads/MasterChefV2/contracts/PancakeProfile.sol\":60510:60515  teams */\n      0x08\n        /* \"Users/leilei/Downloads/MasterChefV2/contracts/PancakeProfile.sol\":60510:60524  teams[_teamId] */\n      0x20\n      mstore\n      0x40\n      swap1\n      swap3\n      keccak256\n        /* \"Users/leilei/Downloads/MasterChefV2/contracts/PancakeProfile.sol\":60510:60537  teams[_teamId].numberPoints */\n      0x03\n      add\n        /* \"Users/leilei/Downloads/MasterChefV2/contracts/PancakeProfile.sol\":60510:60608  teams[_teamId].numberPoints = teams[_teamId].numberPoints.sub(... */\n      swap2\n      swap1\n      swap2\n      sstore\n      pop\n        /* \"Users/leilei/Downloads/MasterChefV2/contracts/PancakeProfile.sol\":60341:60615  function removeTeamPoints(uint256 _teamId, uint256 _numberPoints)... */\n      jump\t// out\n        /* \"Users/leilei/Downloads/MasterChefV2/contracts/PancakeProfile.sol\":23383:23643  function revokeRole(bytes32 role, address account) public virtual {... */\n    tag_159:\n        /* \"Users/leilei/Downloads/MasterChefV2/contracts/PancakeProfile.sol\":23488:23494  _roles */\n      0x00\n        /* \"Users/leilei/Downloads/MasterChefV2/contracts/PancakeProfile.sol\":23488:23500  _roles[role] */\n      dup3\n      dup2\n      mstore\n      0x20\n      dup2\n      swap1\n      mstore\n      0x40\n      swap1\n      keccak256\n        /* \"Users/leilei/Downloads/MasterChefV2/contracts/PancakeProfile.sol\":23488:23510  _roles[role].adminRole */\n      0x02\n      add\n      sload\n        /* \"Users/leilei/Downloads/MasterChefV2/contracts/PancakeProfile.sol\":23480:23525  hasRole(_roles[role].adminRole, _msgSender()) */\n      tag_377\n      swap1\n        /* \"Users/leilei/Downloads/MasterChefV2/contracts/PancakeProfile.sol\":23512:23524  _msgSender() */\n      tag_220\n        /* \"Users/leilei/Downloads/MasterChefV2/contracts/PancakeProfile.sol\":23512:23522  _msgSender */\n      tag_190\n        /* \"Users/leilei/Downloads/MasterChefV2/contracts/PancakeProfile.sol\":23512:23524  _msgSender() */\n      jump\t// in\n        /* \"Users/leilei/Downloads/MasterChefV2/contracts/PancakeProfile.sol\":23480:23525  hasRole(_roles[role].adminRole, _msgSender()) */\n    tag_377:\n        /* \"Users/leilei/Downloads/MasterChefV2/contracts/PancakeProfile.sol\":23459:23599  require(... */\n      tag_267\n      jumpi\n      mload(0x40)\n      shl(0xe5, 0x461bcd)\n      dup2\n      mstore\n      0x04\n      add\n      dup1\n      dup1\n      0x20\n      add\n      dup3\n      dup2\n      sub\n      dup3\n      mstore\n      0x30\n      dup2\n      mstore\n      0x20\n      add\n      dup1\n      data_64344570eab7406ca49d34d38bf2b2496dfda914405390c5057c8b0aabf798a3\n      0x30\n      swap2\n      codecopy\n      0x40\n      add\n      swap2\n      pop\n      pop\n      mload(0x40)\n      dup1\n      swap2\n      sub\n      swap1\n      revert\n        /* \"Users/leilei/Downloads/MasterChefV2/contracts/PancakeProfile.sol\":59422:59711  function removeUserPoints(address _userAddress, uint256 _numberPoints)... */\n    tag_162:\n        /* \"Users/leilei/Downloads/MasterChefV2/contracts/PancakeProfile.sol\":47866:47889  keccak256(\"POINT_ROLE\") */\n      0x40\n      dup1\n      mload\n      shl(0xb0, 0x504f494e545f524f4c45)\n      dup2\n      mstore\n      swap1\n      mload\n      swap1\n      dup2\n      swap1\n      sub\n      0x0a\n      add\n      swap1\n      keccak256\n        /* \"Users/leilei/Downloads/MasterChefV2/contracts/PancakeProfile.sol\":50240:50273  hasRole(POINT_ROLE, _msgSender()) */\n      tag_382\n      swap1\n        /* \"Users/leilei/Downloads/MasterChefV2/contracts/PancakeProfile.sol\":50260:50272  _msgSender() */\n      tag_220\n        /* \"Users/leilei/Downloads/MasterChefV2/contracts/PancakeProfile.sol\":50260:50270  _msgSender */\n      tag_190\n        /* \"Users/leilei/Downloads/MasterChefV2/contracts/PancakeProfile.sol\":50260:50272  _msgSender() */\n      jump\t// in\n        /* \"Users/leilei/Downloads/MasterChefV2/contracts/PancakeProfile.sol\":50240:50273  hasRole(POINT_ROLE, _msgSender()) */\n    tag_382:\n        /* \"Users/leilei/Downloads/MasterChefV2/contracts/PancakeProfile.sol\":50232:50295  require(hasRole(POINT_ROLE, _msgSender()), \"Not a point admin\") */\n      tag_384\n      jumpi\n      0x40\n      dup1\n      mload\n      shl(0xe5, 0x461bcd)\n      dup2\n      mstore\n      0x20\n      0x04\n      dup3\n      add\n      mstore\n      0x11\n      0x24\n      dup3\n      add\n      mstore\n      shl(0x79, 0x2737ba1030903837b4b73a1030b236b4b7)\n      0x44\n      dup3\n      add\n      mstore\n      swap1\n      mload\n      swap1\n      dup2\n      swap1\n      sub\n      0x64\n      add\n      swap1\n      revert\n    tag_384:\n      sub(shl(0xa0, 0x01), 0x01)\n        /* \"Users/leilei/Downloads/MasterChefV2/contracts/PancakeProfile.sol\":59631:59650  users[_userAddress] */\n      dup3\n      and\n      0x00\n      swap1\n      dup2\n      mstore\n        /* \"Users/leilei/Downloads/MasterChefV2/contracts/PancakeProfile.sol\":59631:59636  users */\n      0x09\n        /* \"Users/leilei/Downloads/MasterChefV2/contracts/PancakeProfile.sol\":59631:59650  users[_userAddress] */\n      0x20\n      mstore\n      0x40\n      swap1\n      keccak256\n        /* \"Users/leilei/Downloads/MasterChefV2/contracts/PancakeProfile.sol\":59631:59663  users[_userAddress].numberPoints */\n      0x01\n      add\n      sload\n        /* \"Users/leilei/Downloads/MasterChefV2/contracts/PancakeProfile.sol\":59631:59704  users[_userAddress].numberPoints.sub(... */\n      tag_386\n      swap1\n        /* \"Users/leilei/Downloads/MasterChefV2/contracts/PancakeProfile.sol\":59681:59694  _numberPoints */\n      dup3\n        /* \"Users/leilei/Downloads/MasterChefV2/contracts/PancakeProfile.sol\":59631:59704  users[_userAddress].numberPoints.sub(... */\n      0xffffffff\n        /* \"Users/leilei/Downloads/MasterChefV2/contracts/PancakeProfile.sol\":59631:59667  users[_userAddress].numberPoints.sub */\n      tag_338\n        /* \"Users/leilei/Downloads/MasterChefV2/contracts/PancakeProfile.sol\":59631:59704  users[_userAddress].numberPoints.sub(... */\n      and\n      jump\t// in\n    tag_386:\n      sub(shl(0xa0, 0x01), 0x01)\n        /* \"Users/leilei/Downloads/MasterChefV2/contracts/PancakeProfile.sol\":59596:59615  users[_userAddress] */\n      swap1\n      swap3\n      and\n      0x00\n      swap1\n      dup2\n      mstore\n        /* \"Users/leilei/Downloads/MasterChefV2/contracts/PancakeProfile.sol\":59596:59601  users */\n      0x09\n        /* \"Users/leilei/Downloads/MasterChefV2/contracts/PancakeProfile.sol\":59596:59615  users[_userAddress] */\n      0x20\n      mstore\n      0x40\n      swap1\n      keccak256\n        /* \"Users/leilei/Downloads/MasterChefV2/contracts/PancakeProfile.sol\":59596:59628  users[_userAddress].numberPoints */\n      0x01\n      add\n        /* \"Users/leilei/Downloads/MasterChefV2/contracts/PancakeProfile.sol\":59596:59704  users[_userAddress].numberPoints = users[_userAddress].numberPoints.sub(... */\n      swap2\n      swap1\n      swap2\n      sstore\n      pop\n        /* \"Users/leilei/Downloads/MasterChefV2/contracts/PancakeProfile.sol\":59422:59711  function removeUserPoints(address _userAddress, uint256 _numberPoints)... */\n      jump\t// out\n        /* \"Users/leilei/Downloads/MasterChefV2/contracts/PancakeProfile.sol\":48007:48044  uint256 public numberCakeToReactivate */\n    tag_164:\n      sload(0x03)\n      dup2\n      jump\t// out\n        /* \"Users/leilei/Downloads/MasterChefV2/contracts/PancakeProfile.sol\":58225:58814  function increaseUserPointsMultiple(... */\n    tag_170:\n        /* \"Users/leilei/Downloads/MasterChefV2/contracts/PancakeProfile.sol\":47866:47889  keccak256(\"POINT_ROLE\") */\n      0x40\n      dup1\n      mload\n      shl(0xb0, 0x504f494e545f524f4c45)\n      dup2\n      mstore\n      swap1\n      mload\n      swap1\n      dup2\n      swap1\n      sub\n      0x0a\n      add\n      swap1\n      keccak256\n        /* \"Users/leilei/Downloads/MasterChefV2/contracts/PancakeProfile.sol\":50240:50273  hasRole(POINT_ROLE, _msgSender()) */\n      tag_388\n      swap1\n        /* \"Users/leilei/Downloads/MasterChefV2/contracts/PancakeProfile.sol\":50260:50272  _msgSender() */\n      tag_220\n        /* \"Users/leilei/Downloads/MasterChefV2/contracts/PancakeProfile.sol\":50260:50270  _msgSender */\n      tag_190\n        /* \"Users/leilei/Downloads/MasterChefV2/contracts/PancakeProfile.sol\":50260:50272  _msgSender() */\n      jump\t// in\n        /* \"Users/leilei/Downloads/MasterChefV2/contracts/PancakeProfile.sol\":50240:50273  hasRole(POINT_ROLE, _msgSender()) */\n    tag_388:\n        /* \"Users/leilei/Downloads/MasterChefV2/contracts/PancakeProfile.sol\":50232:50295  require(hasRole(POINT_ROLE, _msgSender()), \"Not a point admin\") */\n      tag_390\n      jumpi\n      0x40\n      dup1\n      mload\n      shl(0xe5, 0x461bcd)\n      dup2\n      mstore\n      0x20\n      0x04\n      dup3\n      add\n      mstore\n      0x11\n      0x24\n      dup3\n      add\n      mstore\n      shl(0x79, 0x2737ba1030903837b4b73a1030b236b4b7)\n      0x44\n      dup3\n      add\n      mstore\n      swap1\n      mload\n      swap1\n      dup2\n      swap1\n      sub\n      0x64\n      add\n      swap1\n      revert\n    tag_390:\n        /* \"Users/leilei/Downloads/MasterChefV2/contracts/PancakeProfile.sol\":58431:58435  1001 */\n      0x03e9\n        /* \"Users/leilei/Downloads/MasterChefV2/contracts/PancakeProfile.sol\":58407:58435  _userAddresses.length < 1001 */\n      dup4\n      lt\n        /* \"Users/leilei/Downloads/MasterChefV2/contracts/PancakeProfile.sol\":58399:58461  require(_userAddresses.length < 1001, \"Length must be < 1001\") */\n      tag_392\n      jumpi\n      0x40\n      dup1\n      mload\n      shl(0xe5, 0x461bcd)\n      dup2\n      mstore\n      0x20\n      0x04\n      dup3\n      add\n      mstore\n      0x15\n      0x24\n      dup3\n      add\n      mstore\n      shl(0x58, 0x4c656e677468206d757374206265203c2031303031)\n      0x44\n      dup3\n      add\n      mstore\n      swap1\n      mload\n      swap1\n      dup2\n      swap1\n      sub\n      0x64\n      add\n      swap1\n      revert\n    tag_392:\n        /* \"Users/leilei/Downloads/MasterChefV2/contracts/PancakeProfile.sol\":58476:58485  uint256 i */\n      0x00\n        /* \"Users/leilei/Downloads/MasterChefV2/contracts/PancakeProfile.sol\":58471:58678  for (uint256 i = 0; i < _userAddresses.length; i++) {... */\n    tag_393:\n        /* \"Users/leilei/Downloads/MasterChefV2/contracts/PancakeProfile.sol\":58491:58516  i < _userAddresses.length */\n      dup4\n      dup2\n      lt\n        /* \"Users/leilei/Downloads/MasterChefV2/contracts/PancakeProfile.sol\":58471:58678  for (uint256 i = 0; i < _userAddresses.length; i++) {... */\n      iszero\n      tag_394\n      jumpi\n        /* \"Users/leilei/Downloads/MasterChefV2/contracts/PancakeProfile.sol\":58577:58667  users[_userAddresses[i]]... */\n      tag_396\n        /* \"Users/leilei/Downloads/MasterChefV2/contracts/PancakeProfile.sol\":58653:58666  _numberPoints */\n      dup4\n        /* \"Users/leilei/Downloads/MasterChefV2/contracts/PancakeProfile.sol\":58577:58582  users */\n      0x09\n        /* \"Users/leilei/Downloads/MasterChefV2/contracts/PancakeProfile.sol\":58577:58601  users[_userAddresses[i]] */\n      0x00\n        /* \"Users/leilei/Downloads/MasterChefV2/contracts/PancakeProfile.sol\":58583:58597  _userAddresses */\n      dup9\n      dup9\n        /* \"Users/leilei/Downloads/MasterChefV2/contracts/PancakeProfile.sol\":58598:58599  i */\n      dup7\n        /* \"Users/leilei/Downloads/MasterChefV2/contracts/PancakeProfile.sol\":58583:58600  _userAddresses[i] */\n      dup2\n      dup2\n      lt\n      tag_397\n      jumpi\n      invalid\n    tag_397:\n      swap1\n      pop\n      0x20\n      mul\n      add\n      calldataload\n      sub(shl(0xa0, 0x01), 0x01)\n      and\n      sub(shl(0xa0, 0x01), 0x01)\n        /* \"Users/leilei/Downloads/MasterChefV2/contracts/PancakeProfile.sol\":58577:58601  users[_userAddresses[i]] */\n      and\n      sub(shl(0xa0, 0x01), 0x01)\n      and\n      dup2\n      mstore\n      0x20\n      add\n      swap1\n      dup2\n      mstore\n      0x20\n      add\n      0x00\n      keccak256\n        /* \"Users/leilei/Downloads/MasterChefV2/contracts/PancakeProfile.sol\":58577:58631  users[_userAddresses[i]]... */\n      0x01\n      add\n      sload\n        /* \"Users/leilei/Downloads/MasterChefV2/contracts/PancakeProfile.sol\":58577:58652  users[_userAddresses[i]]... */\n      tag_239\n      swap1\n        /* \"Users/leilei/Downloads/MasterChefV2/contracts/PancakeProfile.sol\":58577:58667  users[_userAddresses[i]]... */\n      swap2\n      swap1\n      0xffffffff\n      and\n      jump\t// in\n    tag_396:\n        /* \"Users/leilei/Downloads/MasterChefV2/contracts/PancakeProfile.sol\":58537:58542  users */\n      0x09\n        /* \"Users/leilei/Downloads/MasterChefV2/contracts/PancakeProfile.sol\":58537:58561  users[_userAddresses[i]] */\n      0x00\n        /* \"Users/leilei/Downloads/MasterChefV2/contracts/PancakeProfile.sol\":58543:58557  _userAddresses */\n      dup8\n      dup8\n        /* \"Users/leilei/Downloads/MasterChefV2/contracts/PancakeProfile.sol\":58558:58559  i */\n      dup6\n        /* \"Users/leilei/Downloads/MasterChefV2/contracts/PancakeProfile.sol\":58543:58560  _userAddresses[i] */\n      dup2\n      dup2\n      lt\n      tag_398\n      jumpi\n      invalid\n    tag_398:\n      swap1\n      pop\n      0x20\n      mul\n      add\n      calldataload\n      sub(shl(0xa0, 0x01), 0x01)\n      and\n      sub(shl(0xa0, 0x01), 0x01)\n        /* \"Users/leilei/Downloads/MasterChefV2/contracts/PancakeProfile.sol\":58537:58561  users[_userAddresses[i]] */\n      and\n      sub(shl(0xa0, 0x01), 0x01)\n      and\n      dup2\n      mstore\n      0x20\n      add\n      swap1\n      dup2\n      mstore\n      0x20\n      add\n      0x00\n      keccak256\n        /* \"Users/leilei/Downloads/MasterChefV2/contracts/PancakeProfile.sol\":58537:58574  users[_userAddresses[i]].numberPoints */\n      0x01\n      add\n        /* \"Users/leilei/Downloads/MasterChefV2/contracts/PancakeProfile.sol\":58537:58667  users[_userAddresses[i]].numberPoints = users[_userAddresses[i]]... */\n      dup2\n      swap1\n      sstore\n      pop\n        /* \"Users/leilei/Downloads/MasterChefV2/contracts/PancakeProfile.sol\":58518:58521  i++ */\n      dup1\n      dup1\n      0x01\n      add\n      swap2\n      pop\n      pop\n        /* \"Users/leilei/Downloads/MasterChefV2/contracts/PancakeProfile.sol\":58471:58678  for (uint256 i = 0; i < _userAddresses.length; i++) {... */\n      jump(tag_393)\n    tag_394:\n      pop\n        /* \"Users/leilei/Downloads/MasterChefV2/contracts/PancakeProfile.sol\":58786:58797  _campaignId */\n      dup1\n        /* \"Users/leilei/Downloads/MasterChefV2/contracts/PancakeProfile.sol\":58692:58807  UserPointIncreaseMultiple(... */\n      0x473f8fafa9bb6f152b95565955b672a2c8b798b9c0a7c17f2e43bd4577f972de\n        /* \"Users/leilei/Downloads/MasterChefV2/contracts/PancakeProfile.sol\":58731:58745  _userAddresses */\n      dup6\n      dup6\n        /* \"Users/leilei/Downloads/MasterChefV2/contracts/PancakeProfile.sol\":58759:58772  _numberPoints */\n      dup6\n        /* \"Users/leilei/Downloads/MasterChefV2/contracts/PancakeProfile.sol\":58692:58807  UserPointIncreaseMultiple(... */\n      mload(0x40)\n      dup1\n      dup1\n      0x20\n      add\n      dup4\n      dup2\n      mstore\n      0x20\n      add\n      dup3\n      dup2\n      sub\n      dup3\n      mstore\n      dup6\n      dup6\n      dup3\n      dup2\n      dup2\n      mstore\n      0x20\n      add\n      swap3\n      pop\n      0x20\n      mul\n        /* \"--CODEGEN--\":30:33   */\n      dup1\n        /* \"--CODEGEN--\":22:28   */\n      dup3\n        /* \"--CODEGEN--\":14:20   */\n      dup5\n        /* \"--CODEGEN--\":1:34   */\n      calldatacopy\n        /* \"--CODEGEN--\":99:100   */\n      0x00\n        /* \"--CODEGEN--\":81:97   */\n      dup4\n      dup3\n      add\n        /* \"--CODEGEN--\":74:101   */\n      mstore\n        /* \"Users/leilei/Downloads/MasterChefV2/contracts/PancakeProfile.sol\":58692:58807  UserPointIncreaseMultiple(... */\n      mload(0x40)\n        /* \"--CODEGEN--\":137:141   */\n      0x1f\n        /* \"--CODEGEN--\":117:131   */\n      swap1\n      swap2\n      add\n      not(0x1f)\n        /* \"--CODEGEN--\":113:143   */\n      and\n        /* \"--CODEGEN--\":157:173   */\n      swap1\n      swap3\n      add\n        /* \"Users/leilei/Downloads/MasterChefV2/contracts/PancakeProfile.sol\":58692:58807  UserPointIncreaseMultiple(... */\n      dup3\n      swap1\n      sub\n      swap7\n      pop\n      swap1\n      swap5\n      pop\n      pop\n      pop\n      pop\n      pop\n      log2\n        /* \"Users/leilei/Downloads/MasterChefV2/contracts/PancakeProfile.sol\":58225:58814  function increaseUserPointsMultiple(... */\n      pop\n      pop\n      pop\n      pop\n      jump\t// out\n        /* \"Users/leilei/Downloads/MasterChefV2/contracts/PancakeProfile.sol\":61974:62949  function changeTeam(address _userAddress, uint256 _newTeamId)... */\n    tag_173:\n        /* \"Users/leilei/Downloads/MasterChefV2/contracts/PancakeProfile.sol\":47934:47959  keccak256(\"SPECIAL_ROLE\") */\n      0x40\n      dup1\n      mload\n      shl(0xa0, 0x5350454349414c5f524f4c45)\n      dup2\n      mstore\n      swap1\n      mload\n      swap1\n      dup2\n      swap1\n      sub\n      0x0c\n      add\n      swap1\n      keccak256\n        /* \"Users/leilei/Downloads/MasterChefV2/contracts/PancakeProfile.sol\":50394:50429  hasRole(SPECIAL_ROLE, _msgSender()) */\n      tag_400\n      swap1\n        /* \"Users/leilei/Downloads/MasterChefV2/contracts/PancakeProfile.sol\":50416:50428  _msgSender() */\n      tag_220\n        /* \"Users/leilei/Downloads/MasterChefV2/contracts/PancakeProfile.sol\":50416:50426  _msgSender */\n      tag_190\n        /* \"Users/leilei/Downloads/MasterChefV2/contracts/PancakeProfile.sol\":50416:50428  _msgSender() */\n      jump\t// in\n        /* \"Users/leilei/Downloads/MasterChefV2/contracts/PancakeProfile.sol\":50394:50429  hasRole(SPECIAL_ROLE, _msgSender()) */\n    tag_400:\n        /* \"Users/leilei/Downloads/MasterChefV2/contracts/PancakeProfile.sol\":50386:50453  require(hasRole(SPECIAL_ROLE, _msgSender()), \"Not a special admin\") */\n      tag_402\n      jumpi\n      0x40\n      dup1\n      mload\n      shl(0xe5, 0x461bcd)\n      dup2\n      mstore\n      0x20\n      0x04\n      dup3\n      add\n      mstore\n      0x13\n      0x24\n      dup3\n      add\n      mstore\n      shl(0x69, 0x2737ba10309039b832b1b4b0b61030b236b4b7)\n      0x44\n      dup3\n      add\n      mstore\n      swap1\n      mload\n      swap1\n      dup2\n      swap1\n      sub\n      0x64\n      add\n      swap1\n      revert\n    tag_402:\n      sub(shl(0xa0, 0x01), 0x01)\n        /* \"Users/leilei/Downloads/MasterChefV2/contracts/PancakeProfile.sol\":62095:62122  hasRegistered[_userAddress] */\n      dup3\n      and\n      0x00\n      swap1\n      dup2\n      mstore\n        /* \"Users/leilei/Downloads/MasterChefV2/contracts/PancakeProfile.sol\":62095:62108  hasRegistered */\n      0x07\n        /* \"Users/leilei/Downloads/MasterChefV2/contracts/PancakeProfile.sol\":62095:62122  hasRegistered[_userAddress] */\n      0x20\n      mstore\n      0x40\n      swap1\n      keccak256\n      sload\n      0xff\n      and\n        /* \"Users/leilei/Downloads/MasterChefV2/contracts/PancakeProfile.sol\":62087:62145  require(hasRegistered[_userAddress], \"User doesn't exist\") */\n      tag_404\n      jumpi\n      0x40\n      dup1\n      mload\n      shl(0xe5, 0x461bcd)\n      dup2\n      mstore\n      0x20\n      0x04\n      dup3\n      add\n      mstore\n      0x12\n      0x24\n      dup3\n      add\n      mstore\n      shl(0x72, 0x155cd95c88191bd95cdb89dd08195e1a5cdd)\n      0x44\n      dup3\n      add\n      mstore\n      swap1\n      mload\n      swap1\n      dup2\n      swap1\n      sub\n      0x64\n      add\n      swap1\n      revert\n    tag_404:\n        /* \"Users/leilei/Downloads/MasterChefV2/contracts/PancakeProfile.sol\":62191:62202  numberTeams */\n      sload(0x06)\n        /* \"Users/leilei/Downloads/MasterChefV2/contracts/PancakeProfile.sol\":62177:62187  _newTeamId */\n      dup2\n        /* \"Users/leilei/Downloads/MasterChefV2/contracts/PancakeProfile.sol\":62177:62202  _newTeamId <= numberTeams */\n      gt\n      iszero\n        /* \"Users/leilei/Downloads/MasterChefV2/contracts/PancakeProfile.sol\":62176:62223  (_newTeamId <= numberTeams) && (_newTeamId > 0) */\n      dup1\n      iszero\n      tag_405\n      jumpi\n      pop\n        /* \"Users/leilei/Downloads/MasterChefV2/contracts/PancakeProfile.sol\":62221:62222  0 */\n      0x00\n        /* \"Users/leilei/Downloads/MasterChefV2/contracts/PancakeProfile.sol\":62208:62218  _newTeamId */\n      dup2\n        /* \"Users/leilei/Downloads/MasterChefV2/contracts/PancakeProfile.sol\":62208:62222  _newTeamId > 0 */\n      gt\n        /* \"Users/leilei/Downloads/MasterChefV2/contracts/PancakeProfile.sol\":62176:62223  (_newTeamId <= numberTeams) && (_newTeamId > 0) */\n    tag_405:\n        /* \"Users/leilei/Downloads/MasterChefV2/contracts/PancakeProfile.sol\":62155:62269  require(... */\n      tag_406\n      jumpi\n      0x40\n      dup1\n      mload\n      shl(0xe5, 0x461bcd)\n      dup2\n      mstore\n      0x20\n      0x04\n      dup3\n      add\n      mstore\n      0x14\n      0x24\n      dup3\n      add\n      mstore\n      shl(0x62, 0x1d19585b525908191bd95cdb89dd08195e1a5cdd)\n      0x44\n      dup3\n      add\n      mstore\n      swap1\n      mload\n      swap1\n      dup2\n      swap1\n      sub\n      0x64\n      add\n      swap1\n      revert\n    tag_406:\n        /* \"Users/leilei/Downloads/MasterChefV2/contracts/PancakeProfile.sol\":62287:62304  teams[_newTeamId] */\n      0x00\n      dup2\n      dup2\n      mstore\n        /* \"Users/leilei/Downloads/MasterChefV2/contracts/PancakeProfile.sol\":62287:62292  teams */\n      0x08\n        /* \"Users/leilei/Downloads/MasterChefV2/contracts/PancakeProfile.sol\":62287:62304  teams[_newTeamId] */\n      0x20\n      mstore\n      0x40\n      swap1\n      keccak256\n        /* \"Users/leilei/Downloads/MasterChefV2/contracts/PancakeProfile.sol\":62287:62315  teams[_newTeamId].isJoinable */\n      0x04\n      add\n      sload\n      0xff\n      and\n        /* \"Users/leilei/Downloads/MasterChefV2/contracts/PancakeProfile.sol\":62279:62337  require(teams[_newTeamId].isJoinable, \"Team not joinable\") */\n      tag_407\n      jumpi\n      0x40\n      dup1\n      mload\n      shl(0xe5, 0x461bcd)\n      dup2\n      mstore\n      0x20\n      0x04\n      dup3\n      add\n      mstore\n      0x11\n      0x24\n      dup3\n      add\n      mstore\n      shl(0x78, 0x5465616d206e6f74206a6f696e61626c65)\n      0x44\n      dup3\n      add\n      mstore\n      swap1\n      mload\n      swap1\n      dup2\n      swap1\n      sub\n      0x64\n      add\n      swap1\n      revert\n    tag_407:\n      sub(shl(0xa0, 0x01), 0x01)\n        /* \"Users/leilei/Downloads/MasterChefV2/contracts/PancakeProfile.sol\":62368:62387  users[_userAddress] */\n      dup3\n      and\n      0x00\n      swap1\n      dup2\n      mstore\n        /* \"Users/leilei/Downloads/MasterChefV2/contracts/PancakeProfile.sol\":62368:62373  users */\n      0x09\n        /* \"Users/leilei/Downloads/MasterChefV2/contracts/PancakeProfile.sol\":62368:62387  users[_userAddress] */\n      0x20\n      mstore\n      0x40\n      swap1\n      keccak256\n        /* \"Users/leilei/Downloads/MasterChefV2/contracts/PancakeProfile.sol\":62368:62394  users[_userAddress].teamId */\n      0x02\n      add\n      sload\n        /* \"Users/leilei/Downloads/MasterChefV2/contracts/PancakeProfile.sol\":62368:62408  users[_userAddress].teamId != _newTeamId */\n      dup2\n      eq\n      iszero\n        /* \"Users/leilei/Downloads/MasterChefV2/contracts/PancakeProfile.sol\":62347:62453  require(... */\n      tag_408\n      jumpi\n      0x40\n      dup1\n      mload\n      shl(0xe5, 0x461bcd)\n      dup2\n      mstore\n      0x20\n      0x04\n      dup3\n      add\n      mstore\n      0x13\n      0x24\n      dup3\n      add\n      mstore\n      shl(0x68, 0x416c726561647920696e20746865207465616d)\n      0x44\n      dup3\n      add\n      mstore\n      swap1\n      mload\n      swap1\n      dup2\n      swap1\n      sub\n      0x64\n      add\n      swap1\n      revert\n    tag_408:\n      sub(shl(0xa0, 0x01), 0x01)\n        /* \"Users/leilei/Downloads/MasterChefV2/contracts/PancakeProfile.sol\":62510:62529  users[_userAddress] */\n      dup3\n      and\n        /* \"Users/leilei/Downloads/MasterChefV2/contracts/PancakeProfile.sol\":62490:62507  uint256 oldTeamId */\n      0x00\n        /* \"Users/leilei/Downloads/MasterChefV2/contracts/PancakeProfile.sol\":62510:62529  users[_userAddress] */\n      swap1\n      dup2\n      mstore\n        /* \"Users/leilei/Downloads/MasterChefV2/contracts/PancakeProfile.sol\":62510:62515  users */\n      0x09\n        /* \"Users/leilei/Downloads/MasterChefV2/contracts/PancakeProfile.sol\":62510:62529  users[_userAddress] */\n      0x20\n      swap1\n      dup2\n      mstore\n      0x40\n      dup1\n      dup4\n      keccak256\n        /* \"Users/leilei/Downloads/MasterChefV2/contracts/PancakeProfile.sol\":62510:62536  users[_userAddress].teamId */\n      0x02\n      swap1\n      dup2\n      add\n      sload\n        /* \"Users/leilei/Downloads/MasterChefV2/contracts/PancakeProfile.sol\":62624:62640  teams[oldTeamId] */\n      dup1\n      dup6\n      mstore\n        /* \"Users/leilei/Downloads/MasterChefV2/contracts/PancakeProfile.sol\":62624:62629  teams */\n      0x08\n        /* \"Users/leilei/Downloads/MasterChefV2/contracts/PancakeProfile.sol\":62624:62640  teams[oldTeamId] */\n      swap1\n      swap4\n      mstore\n      swap3\n      keccak256\n        /* \"Users/leilei/Downloads/MasterChefV2/contracts/PancakeProfile.sol\":62624:62652  teams[oldTeamId].numberUsers */\n      swap1\n      swap2\n      add\n      sload\n        /* \"Users/leilei/Downloads/MasterChefV2/contracts/PancakeProfile.sol\":62624:62659  teams[oldTeamId].numberUsers.sub(1) */\n      tag_409\n      swap1\n        /* \"Users/leilei/Downloads/MasterChefV2/contracts/PancakeProfile.sol\":62657:62658  1 */\n      0x01\n        /* \"Users/leilei/Downloads/MasterChefV2/contracts/PancakeProfile.sol\":62624:62659  teams[oldTeamId].numberUsers.sub(1) */\n      0xffffffff\n        /* \"Users/leilei/Downloads/MasterChefV2/contracts/PancakeProfile.sol\":62624:62656  teams[oldTeamId].numberUsers.sub */\n      tag_338\n        /* \"Users/leilei/Downloads/MasterChefV2/contracts/PancakeProfile.sol\":62624:62659  teams[oldTeamId].numberUsers.sub(1) */\n      and\n      jump\t// in\n    tag_409:\n        /* \"Users/leilei/Downloads/MasterChefV2/contracts/PancakeProfile.sol\":62593:62609  teams[oldTeamId] */\n      0x00\n      dup3\n      dup2\n      mstore\n        /* \"Users/leilei/Downloads/MasterChefV2/contracts/PancakeProfile.sol\":62593:62598  teams */\n      0x08\n        /* \"Users/leilei/Downloads/MasterChefV2/contracts/PancakeProfile.sol\":62593:62609  teams[oldTeamId] */\n      0x20\n      dup2\n      dup2\n      mstore\n      0x40\n      dup1\n      dup5\n      keccak256\n        /* \"Users/leilei/Downloads/MasterChefV2/contracts/PancakeProfile.sol\":62593:62621  teams[oldTeamId].numberUsers */\n      0x02\n      swap1\n      dup2\n      add\n        /* \"Users/leilei/Downloads/MasterChefV2/contracts/PancakeProfile.sol\":62593:62659  teams[oldTeamId].numberUsers = teams[oldTeamId].numberUsers.sub(1) */\n      swap6\n      swap1\n      swap6\n      sstore\n      sub(shl(0xa0, 0x01), 0x01)\n        /* \"Users/leilei/Downloads/MasterChefV2/contracts/PancakeProfile.sol\":62711:62730  users[_userAddress] */\n      dup9\n      and\n      dup5\n      mstore\n        /* \"Users/leilei/Downloads/MasterChefV2/contracts/PancakeProfile.sol\":62711:62716  users */\n      0x09\n        /* \"Users/leilei/Downloads/MasterChefV2/contracts/PancakeProfile.sol\":62711:62730  users[_userAddress] */\n      dup3\n      mstore\n      dup1\n      dup5\n      keccak256\n        /* \"Users/leilei/Downloads/MasterChefV2/contracts/PancakeProfile.sol\":62711:62737  users[_userAddress].teamId */\n      dup6\n      add\n        /* \"Users/leilei/Downloads/MasterChefV2/contracts/PancakeProfile.sol\":62711:62750  users[_userAddress].teamId = _newTeamId */\n      dup8\n      swap1\n      sstore\n        /* \"Users/leilei/Downloads/MasterChefV2/contracts/PancakeProfile.sol\":62839:62856  teams[_newTeamId] */\n      dup7\n      dup5\n      mstore\n      swap2\n      swap1\n      mstore\n      swap1\n      keccak256\n        /* \"Users/leilei/Downloads/MasterChefV2/contracts/PancakeProfile.sol\":62839:62868  teams[_newTeamId].numberUsers */\n      add\n      sload\n        /* \"Users/leilei/Downloads/MasterChefV2/contracts/PancakeProfile.sol\":62839:62875  teams[_newTeamId].numberUsers.add(1) */\n      tag_410\n      swap1\n        /* \"Users/leilei/Downloads/MasterChefV2/contracts/PancakeProfile.sol\":62873:62874  1 */\n      0x01\n        /* \"Users/leilei/Downloads/MasterChefV2/contracts/PancakeProfile.sol\":62839:62875  teams[_newTeamId].numberUsers.add(1) */\n      0xffffffff\n        /* \"Users/leilei/Downloads/MasterChefV2/contracts/PancakeProfile.sol\":62839:62872  teams[_newTeamId].numberUsers.add */\n      tag_239\n        /* \"Users/leilei/Downloads/MasterChefV2/contracts/PancakeProfile.sol\":62839:62875  teams[_newTeamId].numberUsers.add(1) */\n      and\n      jump\t// in\n    tag_410:\n        /* \"Users/leilei/Downloads/MasterChefV2/contracts/PancakeProfile.sol\":62807:62824  teams[_newTeamId] */\n      0x00\n      dup4\n      dup2\n      mstore\n        /* \"Users/leilei/Downloads/MasterChefV2/contracts/PancakeProfile.sol\":62807:62812  teams */\n      0x08\n        /* \"Users/leilei/Downloads/MasterChefV2/contracts/PancakeProfile.sol\":62807:62824  teams[_newTeamId] */\n      0x20\n      swap1\n      dup2\n      mstore\n      0x40\n      swap2\n      dup3\n      swap1\n      keccak256\n        /* \"Users/leilei/Downloads/MasterChefV2/contracts/PancakeProfile.sol\":62807:62836  teams[_newTeamId].numberUsers */\n      0x02\n      add\n        /* \"Users/leilei/Downloads/MasterChefV2/contracts/PancakeProfile.sol\":62807:62875  teams[_newTeamId].numberUsers = teams[_newTeamId].numberUsers.add(1) */\n      swap3\n      swap1\n      swap3\n      sstore\n        /* \"Users/leilei/Downloads/MasterChefV2/contracts/PancakeProfile.sol\":62891:62942  UserChangeTeam(_userAddress, oldTeamId, _newTeamId) */\n      dup1\n      mload\n      dup4\n      dup2\n      mstore\n      swap2\n      dup3\n      add\n      dup5\n      swap1\n      mstore\n      dup1\n      mload\n      sub(shl(0xa0, 0x01), 0x01)\n      dup7\n      and\n      swap3\n      0x74c08ece62e2369a06a4cac8609fd31e7f3ae99e0dbedbc2bfcf0b9397d9a691\n      swap3\n      swap1\n      dup3\n      swap1\n      sub\n      add\n      swap1\n      log2\n        /* \"Users/leilei/Downloads/MasterChefV2/contracts/PancakeProfile.sol\":50463:50464  _ */\n      pop\n        /* \"Users/leilei/Downloads/MasterChefV2/contracts/PancakeProfile.sol\":61974:62949  function changeTeam(address _userAddress, uint256 _newTeamId)... */\n      pop\n      pop\n      jump\t// out\n        /* \"Users/leilei/Downloads/MasterChefV2/contracts/PancakeProfile.sol\":65573:65701  function getUserStatus(address _userAddress) external view returns (bool) {... */\n    tag_176:\n      sub(shl(0xa0, 0x01), 0x01)\n        /* \"Users/leilei/Downloads/MasterChefV2/contracts/PancakeProfile.sol\":65665:65684  users[_userAddress] */\n      and\n        /* \"Users/leilei/Downloads/MasterChefV2/contracts/PancakeProfile.sol\":65641:65645  bool */\n      0x00\n        /* \"Users/leilei/Downloads/MasterChefV2/contracts/PancakeProfile.sol\":65665:65684  users[_userAddress] */\n      swap1\n      dup2\n      mstore\n        /* \"Users/leilei/Downloads/MasterChefV2/contracts/PancakeProfile.sol\":65665:65670  users */\n      0x09\n        /* \"Users/leilei/Downloads/MasterChefV2/contracts/PancakeProfile.sol\":65665:65684  users[_userAddress] */\n      0x20\n      mstore\n      0x40\n      swap1\n      keccak256\n        /* \"Users/leilei/Downloads/MasterChefV2/contracts/PancakeProfile.sol\":65665:65693  users[_userAddress].isActive */\n      0x05\n      add\n      sload\n      0xff\n      and\n      swap1\n        /* \"Users/leilei/Downloads/MasterChefV2/contracts/PancakeProfile.sol\":65573:65701  function getUserStatus(address _userAddress) external view returns (bool) {... */\n      jump\t// out\n        /* \"Users/leilei/Downloads/MasterChefV2/contracts/PancakeProfile.sol\":63263:63452  function makeTeamJoinable(uint256 _teamId) external onlyOwner {... */\n    tag_179:\n        /* \"Users/leilei/Downloads/MasterChefV2/contracts/PancakeProfile.sol\":50060:50101  hasRole(DEFAULT_ADMIN_ROLE, _msgSender()) */\n      tag_413\n        /* \"Users/leilei/Downloads/MasterChefV2/contracts/PancakeProfile.sol\":19902:19906  0x00 */\n      0x00\n        /* \"Users/leilei/Downloads/MasterChefV2/contracts/PancakeProfile.sol\":50088:50100  _msgSender() */\n      tag_220\n        /* \"Users/leilei/Downloads/MasterChefV2/contracts/PancakeProfile.sol\":50088:50098  _msgSender */\n      tag_190\n        /* \"Users/leilei/Downloads/MasterChefV2/contracts/PancakeProfile.sol\":50088:50100  _msgSender() */\n      jump\t// in\n        /* \"Users/leilei/Downloads/MasterChefV2/contracts/PancakeProfile.sol\":50060:50101  hasRole(DEFAULT_ADMIN_ROLE, _msgSender()) */\n    tag_413:\n        /* \"Users/leilei/Downloads/MasterChefV2/contracts/PancakeProfile.sol\":50039:50145  require(... */\n      tag_415\n      jumpi\n      0x40\n      dup1\n      mload\n      shl(0xe5, 0x461bcd)\n      dup2\n      mstore\n      0x20\n      0x04\n      dup3\n      add\n      mstore\n      0x12\n      0x24\n      dup3\n      add\n      mstore\n      shl(0x71, 0x2737ba103a34329036b0b4b71030b236b4b7)\n      0x44\n      dup3\n      add\n      mstore\n      swap1\n      mload\n      swap1\n      dup2\n      swap1\n      sub\n      0x64\n      add\n      swap1\n      revert\n    tag_415:\n        /* \"Users/leilei/Downloads/MasterChefV2/contracts/PancakeProfile.sol\":63355:63366  numberTeams */\n      sload(0x06)\n        /* \"Users/leilei/Downloads/MasterChefV2/contracts/PancakeProfile.sol\":63344:63351  _teamId */\n      dup2\n        /* \"Users/leilei/Downloads/MasterChefV2/contracts/PancakeProfile.sol\":63344:63366  _teamId <= numberTeams */\n      gt\n      iszero\n        /* \"Users/leilei/Downloads/MasterChefV2/contracts/PancakeProfile.sol\":63343:63384  (_teamId <= numberTeams) && (_teamId > 0) */\n      dup1\n      iszero\n      tag_417\n      jumpi\n      pop\n        /* \"Users/leilei/Downloads/MasterChefV2/contracts/PancakeProfile.sol\":63382:63383  0 */\n      0x00\n        /* \"Users/leilei/Downloads/MasterChefV2/contracts/PancakeProfile.sol\":63372:63379  _teamId */\n      dup2\n        /* \"Users/leilei/Downloads/MasterChefV2/contracts/PancakeProfile.sol\":63372:63383  _teamId > 0 */\n      gt\n        /* \"Users/leilei/Downloads/MasterChefV2/contracts/PancakeProfile.sol\":63343:63384  (_teamId <= numberTeams) && (_teamId > 0) */\n    tag_417:\n        /* \"Users/leilei/Downloads/MasterChefV2/contracts/PancakeProfile.sol\":63335:63403  require((_teamId <= numberTeams) && (_teamId > 0), \"teamId invalid\") */\n      tag_418\n      jumpi\n      0x40\n      dup1\n      mload\n      shl(0xe5, 0x461bcd)\n      dup2\n      mstore\n      0x20\n      0x04\n      dup3\n      add\n      mstore\n      0x0e\n      0x24\n      dup3\n      add\n      mstore\n      shl(0x92, 0x1d19585b5259081a5b9d985b1a59)\n      0x44\n      dup3\n      add\n      mstore\n      swap1\n      mload\n      swap1\n      dup2\n      swap1\n      sub\n      0x64\n      add\n      swap1\n      revert\n    tag_418:\n        /* \"Users/leilei/Downloads/MasterChefV2/contracts/PancakeProfile.sol\":63413:63427  teams[_teamId] */\n      0x00\n      swap1\n      dup2\n      mstore\n        /* \"Users/leilei/Downloads/MasterChefV2/contracts/PancakeProfile.sol\":63413:63418  teams */\n      0x08\n        /* \"Users/leilei/Downloads/MasterChefV2/contracts/PancakeProfile.sol\":63413:63427  teams[_teamId] */\n      0x20\n      mstore\n      0x40\n      swap1\n      keccak256\n        /* \"Users/leilei/Downloads/MasterChefV2/contracts/PancakeProfile.sol\":63413:63438  teams[_teamId].isJoinable */\n      0x04\n      add\n        /* \"Users/leilei/Downloads/MasterChefV2/contracts/PancakeProfile.sol\":63413:63445  teams[_teamId].isJoinable = true */\n      dup1\n      sload\n      not(0xff)\n      and\n        /* \"Users/leilei/Downloads/MasterChefV2/contracts/PancakeProfile.sol\":63441:63445  true */\n      0x01\n        /* \"Users/leilei/Downloads/MasterChefV2/contracts/PancakeProfile.sol\":63413:63445  teams[_teamId].isJoinable = true */\n      or\n      swap1\n      sstore\n        /* \"Users/leilei/Downloads/MasterChefV2/contracts/PancakeProfile.sol\":63263:63452  function makeTeamJoinable(uint256 _teamId) external onlyOwner {... */\n      jump\t// out\n        /* \"Users/leilei/Downloads/MasterChefV2/contracts/PancakeProfile.sol\":63047:63163  function claimFee(uint256 _amount) external onlyOwner {... */\n    tag_182:\n        /* \"Users/leilei/Downloads/MasterChefV2/contracts/PancakeProfile.sol\":50060:50101  hasRole(DEFAULT_ADMIN_ROLE, _msgSender()) */\n      tag_420\n        /* \"Users/leilei/Downloads/MasterChefV2/contracts/PancakeProfile.sol\":19902:19906  0x00 */\n      0x00\n        /* \"Users/leilei/Downloads/MasterChefV2/contracts/PancakeProfile.sol\":50088:50100  _msgSender() */\n      tag_220\n        /* \"Users/leilei/Downloads/MasterChefV2/contracts/PancakeProfile.sol\":50088:50098  _msgSender */\n      tag_190\n        /* \"Users/leilei/Downloads/MasterChefV2/contracts/PancakeProfile.sol\":50088:50100  _msgSender() */\n      jump\t// in\n        /* \"Users/leilei/Downloads/MasterChefV2/contracts/PancakeProfile.sol\":50060:50101  hasRole(DEFAULT_ADMIN_ROLE, _msgSender()) */\n    tag_420:\n        /* \"Users/leilei/Downloads/MasterChefV2/contracts/PancakeProfile.sol\":50039:50145  require(... */\n      tag_422\n      jumpi\n      0x40\n      dup1\n      mload\n      shl(0xe5, 0x461bcd)\n      dup2\n      mstore\n      0x20\n      0x04\n      dup3\n      add\n      mstore\n      0x12\n      0x24\n      dup3\n      add\n      mstore\n      shl(0x71, 0x2737ba103a34329036b0b4b71030b236b4b7)\n      0x44\n      dup3\n      add\n      mstore\n      swap1\n      mload\n      swap1\n      dup2\n      swap1\n      sub\n      0x64\n      add\n      swap1\n      revert\n    tag_422:\n        /* \"Users/leilei/Downloads/MasterChefV2/contracts/PancakeProfile.sol\":63111:63156  cakeToken.safeTransfer(_msgSender(), _amount) */\n      tag_280\n        /* \"Users/leilei/Downloads/MasterChefV2/contracts/PancakeProfile.sol\":63134:63146  _msgSender() */\n      tag_425\n        /* \"Users/leilei/Downloads/MasterChefV2/contracts/PancakeProfile.sol\":63134:63144  _msgSender */\n      tag_190\n        /* \"Users/leilei/Downloads/MasterChefV2/contracts/PancakeProfile.sol\":63134:63146  _msgSender() */\n      jump\t// in\n    tag_425:\n        /* \"Users/leilei/Downloads/MasterChefV2/contracts/PancakeProfile.sol\":63111:63120  cakeToken */\n      and(sub(shl(0xa0, 0x01), 0x01), sload(0x01))\n      swap1\n        /* \"Users/leilei/Downloads/MasterChefV2/contracts/PancakeProfile.sol\":63148:63155  _amount */\n      dup4\n        /* \"Users/leilei/Downloads/MasterChefV2/contracts/PancakeProfile.sol\":63111:63156  cakeToken.safeTransfer(_msgSender(), _amount) */\n      0xffffffff\n        /* \"Users/leilei/Downloads/MasterChefV2/contracts/PancakeProfile.sol\":63111:63133  cakeToken.safeTransfer */\n      tag_426\n        /* \"Users/leilei/Downloads/MasterChefV2/contracts/PancakeProfile.sol\":63111:63156  cakeToken.safeTransfer(_msgSender(), _amount) */\n      and\n      jump\t// in\n        /* \"Users/leilei/Downloads/MasterChefV2/contracts/PancakeProfile.sol\":47767:47823  bytes32 public constant NFT_ROLE = keccak256(\"NFT_ROLE\") */\n    tag_184:\n        /* \"Users/leilei/Downloads/MasterChefV2/contracts/PancakeProfile.sol\":47802:47823  keccak256(\"NFT_ROLE\") */\n      0x40\n      dup1\n      mload\n      shl(0xc0, 0x4e46545f524f4c45)\n      dup2\n      mstore\n      swap1\n      mload\n      swap1\n      dup2\n      swap1\n      sub\n      0x08\n      add\n      swap1\n      keccak256\n        /* \"Users/leilei/Downloads/MasterChefV2/contracts/PancakeProfile.sol\":47767:47823  bytes32 public constant NFT_ROLE = keccak256(\"NFT_ROLE\") */\n      dup2\n      jump\t// out\n        /* \"Users/leilei/Downloads/MasterChefV2/contracts/PancakeProfile.sol\":51406:53185  function createProfile(... */\n    tag_187:\n        /* \"Users/leilei/Downloads/MasterChefV2/contracts/PancakeProfile.sol\":51543:51556  hasRegistered */\n      0x07\n        /* \"Users/leilei/Downloads/MasterChefV2/contracts/PancakeProfile.sol\":51543:51570  hasRegistered[_msgSender()] */\n      0x00\n        /* \"Users/leilei/Downloads/MasterChefV2/contracts/PancakeProfile.sol\":51557:51569  _msgSender() */\n      tag_428\n        /* \"Users/leilei/Downloads/MasterChefV2/contracts/PancakeProfile.sol\":51557:51567  _msgSender */\n      tag_190\n        /* \"Users/leilei/Downloads/MasterChefV2/contracts/PancakeProfile.sol\":51557:51569  _msgSender() */\n      jump\t// in\n    tag_428:\n      sub(shl(0xa0, 0x01), 0x01)\n        /* \"Users/leilei/Downloads/MasterChefV2/contracts/PancakeProfile.sol\":51543:51570  hasRegistered[_msgSender()] */\n      and\n      dup2\n      mstore\n      0x20\n      dup2\n      add\n      swap2\n      swap1\n      swap2\n      mstore\n      0x40\n      add\n      0x00\n      keccak256\n      sload\n      0xff\n      and\n        /* \"Users/leilei/Downloads/MasterChefV2/contracts/PancakeProfile.sol\":51542:51570  !hasRegistered[_msgSender()] */\n      iszero\n        /* \"Users/leilei/Downloads/MasterChefV2/contracts/PancakeProfile.sol\":51534:51593  require(!hasRegistered[_msgSender()], \"Already registered\") */\n      tag_429\n      jumpi\n      0x40\n      dup1\n      mload\n      shl(0xe5, 0x461bcd)\n      dup2\n      mstore\n      0x20\n      0x04\n      dup3\n      add\n      mstore\n      0x12\n      0x24\n      dup3\n      add\n      mstore\n      shl(0x72, 0x105b1c9958591e481c9959da5cdd195c9959)\n      0x44\n      dup3\n      add\n      mstore\n      swap1\n      mload\n      swap1\n      dup2\n      swap1\n      sub\n      0x64\n      add\n      swap1\n      revert\n    tag_429:\n        /* \"Users/leilei/Downloads/MasterChefV2/contracts/PancakeProfile.sol\":51623:51634  numberTeams */\n      sload(0x06)\n        /* \"Users/leilei/Downloads/MasterChefV2/contracts/PancakeProfile.sol\":51612:51619  _teamId */\n      dup4\n        /* \"Users/leilei/Downloads/MasterChefV2/contracts/PancakeProfile.sol\":51612:51634  _teamId <= numberTeams */\n      gt\n      iszero\n        /* \"Users/leilei/Downloads/MasterChefV2/contracts/PancakeProfile.sol\":51611:51652  (_teamId <= numberTeams) && (_teamId > 0) */\n      dup1\n      iszero\n      tag_430\n      jumpi\n      pop\n        /* \"Users/leilei/Downloads/MasterChefV2/contracts/PancakeProfile.sol\":51650:51651  0 */\n      0x00\n        /* \"Users/leilei/Downloads/MasterChefV2/contracts/PancakeProfile.sol\":51640:51647  _teamId */\n      dup4\n        /* \"Users/leilei/Downloads/MasterChefV2/contracts/PancakeProfile.sol\":51640:51651  _teamId > 0 */\n      gt\n        /* \"Users/leilei/Downloads/MasterChefV2/contracts/PancakeProfile.sol\":51611:51652  (_teamId <= numberTeams) && (_teamId > 0) */\n    tag_430:\n        /* \"Users/leilei/Downloads/MasterChefV2/contracts/PancakeProfile.sol\":51603:51671  require((_teamId <= numberTeams) && (_teamId > 0), \"Invalid teamId\") */\n      tag_431\n      jumpi\n      0x40\n      dup1\n      mload\n      shl(0xe5, 0x461bcd)\n      dup2\n      mstore\n      0x20\n      0x04\n      dup3\n      add\n      mstore\n      0x0e\n      0x24\n      dup3\n      add\n      mstore\n      shl(0x92, 0x125b9d985b1a59081d19585b5259)\n      0x44\n      dup3\n      add\n      mstore\n      swap1\n      mload\n      swap1\n      dup2\n      swap1\n      sub\n      0x64\n      add\n      swap1\n      revert\n    tag_431:\n        /* \"Users/leilei/Downloads/MasterChefV2/contracts/PancakeProfile.sol\":51689:51703  teams[_teamId] */\n      0x00\n      dup4\n      dup2\n      mstore\n        /* \"Users/leilei/Downloads/MasterChefV2/contracts/PancakeProfile.sol\":51689:51694  teams */\n      0x08\n        /* \"Users/leilei/Downloads/MasterChefV2/contracts/PancakeProfile.sol\":51689:51703  teams[_teamId] */\n      0x20\n      mstore\n      0x40\n      swap1\n      keccak256\n        /* \"Users/leilei/Downloads/MasterChefV2/contracts/PancakeProfile.sol\":51689:51714  teams[_teamId].isJoinable */\n      0x04\n      add\n      sload\n      0xff\n      and\n        /* \"Users/leilei/Downloads/MasterChefV2/contracts/PancakeProfile.sol\":51681:51736  require(teams[_teamId].isJoinable, \"Team not joinable\") */\n      tag_432\n      jumpi\n      0x40\n      dup1\n      mload\n      shl(0xe5, 0x461bcd)\n      dup2\n      mstore\n      0x20\n      0x04\n      dup3\n      add\n      mstore\n      0x11\n      0x24\n      dup3\n      add\n      mstore\n      shl(0x78, 0x5465616d206e6f74206a6f696e61626c65)\n      0x44\n      dup3\n      add\n      mstore\n      swap1\n      mload\n      swap1\n      dup2\n      swap1\n      sub\n      0x64\n      add\n      swap1\n      revert\n    tag_432:\n        /* \"Users/leilei/Downloads/MasterChefV2/contracts/PancakeProfile.sol\":47802:47823  keccak256(\"NFT_ROLE\") */\n      0x40\n      dup1\n      mload\n      shl(0xc0, 0x4e46545f524f4c45)\n      dup2\n      mstore\n      swap1\n      mload\n      swap1\n      dup2\n      swap1\n      sub\n      0x08\n      add\n      swap1\n      keccak256\n        /* \"Users/leilei/Downloads/MasterChefV2/contracts/PancakeProfile.sol\":51754:51784  hasRole(NFT_ROLE, _nftAddress) */\n      tag_433\n      swap1\n        /* \"Users/leilei/Downloads/MasterChefV2/contracts/PancakeProfile.sol\":51772:51783  _nftAddress */\n      dup4\n        /* \"Users/leilei/Downloads/MasterChefV2/contracts/PancakeProfile.sol\":51754:51761  hasRole */\n      tag_114\n        /* \"Users/leilei/Downloads/MasterChefV2/contracts/PancakeProfile.sol\":51754:51784  hasRole(NFT_ROLE, _nftAddress) */\n      jump\t// in\n    tag_433:\n        /* \"Users/leilei/Downloads/MasterChefV2/contracts/PancakeProfile.sol\":51746:51808  require(hasRole(NFT_ROLE, _nftAddress), \"NFT address invalid\") */\n      tag_434\n      jumpi\n      0x40\n      dup1\n      mload\n      shl(0xe5, 0x461bcd)\n      dup2\n      mstore\n      0x20\n      0x04\n      dup3\n      add\n      mstore\n      0x13\n      0x24\n      dup3\n      add\n      mstore\n      shl(0x6a, 0x139195081859191c995cdcc81a5b9d985b1a59)\n      0x44\n      dup3\n      add\n      mstore\n      swap1\n      mload\n      swap1\n      dup2\n      swap1\n      sub\n      0x64\n      add\n      swap1\n      revert\n    tag_434:\n        /* \"Users/leilei/Downloads/MasterChefV2/contracts/PancakeProfile.sol\":51878:51894  IERC721 nftToken */\n      0x00\n        /* \"Users/leilei/Downloads/MasterChefV2/contracts/PancakeProfile.sol\":51905:51916  _nftAddress */\n      dup3\n        /* \"Users/leilei/Downloads/MasterChefV2/contracts/PancakeProfile.sol\":51878:51917  IERC721 nftToken = IERC721(_nftAddress) */\n      swap1\n      pop\n        /* \"Users/leilei/Downloads/MasterChefV2/contracts/PancakeProfile.sol\":51965:51973  nftToken */\n      dup1\n      sub(shl(0xa0, 0x01), 0x01)\n        /* \"Users/leilei/Downloads/MasterChefV2/contracts/PancakeProfile.sol\":51965:51981  nftToken.ownerOf */\n      and\n      0x6352211e\n        /* \"Users/leilei/Downloads/MasterChefV2/contracts/PancakeProfile.sol\":51982:51990  _tokenId */\n      dup4\n        /* \"Users/leilei/Downloads/MasterChefV2/contracts/PancakeProfile.sol\":51965:51991  nftToken.ownerOf(_tokenId) */\n      mload(0x40)\n      dup3\n      0xffffffff\n      and\n      0xe0\n      shl\n      dup2\n      mstore\n      0x04\n      add\n      dup1\n      dup3\n      dup2\n      mstore\n      0x20\n      add\n      swap2\n      pop\n      pop\n      0x20\n      mload(0x40)\n      dup1\n      dup4\n      sub\n      dup2\n      dup7\n      dup1\n      extcodesize\n      iszero\n        /* \"--CODEGEN--\":5:14   */\n      dup1\n        /* \"--CODEGEN--\":2:4   */\n      iszero\n      tag_435\n      jumpi\n        /* \"--CODEGEN--\":27:28   */\n      0x00\n        /* \"--CODEGEN--\":24:25   */\n      dup1\n        /* \"--CODEGEN--\":17:29   */\n      revert\n        /* \"--CODEGEN--\":2:4   */\n    tag_435:\n        /* \"Users/leilei/Downloads/MasterChefV2/contracts/PancakeProfile.sol\":51965:51991  nftToken.ownerOf(_tokenId) */\n      pop\n      gas\n      staticcall\n      iszero\n        /* \"--CODEGEN--\":8:17   */\n      dup1\n        /* \"--CODEGEN--\":5:7   */\n      iszero\n      tag_437\n      jumpi\n        /* \"--CODEGEN--\":45:61   */\n      returndatasize\n        /* \"--CODEGEN--\":42:43   */\n      0x00\n        /* \"--CODEGEN--\":39:40   */\n      dup1\n        /* \"--CODEGEN--\":24:62   */\n      returndatacopy\n        /* \"--CODEGEN--\":77:93   */\n      returndatasize\n        /* \"--CODEGEN--\":74:75   */\n      0x00\n        /* \"--CODEGEN--\":67:94   */\n      revert\n        /* \"--CODEGEN--\":5:7   */\n    tag_437:\n        /* \"Users/leilei/Downloads/MasterChefV2/contracts/PancakeProfile.sol\":51965:51991  nftToken.ownerOf(_tokenId) */\n      pop\n      pop\n      pop\n      pop\n      mload(0x40)\n      returndatasize\n        /* \"--CODEGEN--\":15:17   */\n      0x20\n        /* \"--CODEGEN--\":10:13   */\n      dup2\n        /* \"--CODEGEN--\":7:18   */\n      lt\n        /* \"--CODEGEN--\":4:6   */\n      iszero\n      tag_438\n      jumpi\n        /* \"--CODEGEN--\":31:32   */\n      0x00\n        /* \"--CODEGEN--\":28:29   */\n      dup1\n        /* \"--CODEGEN--\":21:33   */\n      revert\n        /* \"--CODEGEN--\":4:6   */\n    tag_438:\n      pop\n        /* \"Users/leilei/Downloads/MasterChefV2/contracts/PancakeProfile.sol\":51965:51991  nftToken.ownerOf(_tokenId) */\n      mload\n      sub(shl(0xa0, 0x01), 0x01)\n        /* \"Users/leilei/Downloads/MasterChefV2/contracts/PancakeProfile.sol\":51949:51991  _msgSender() == nftToken.ownerOf(_tokenId) */\n      and\n        /* \"Users/leilei/Downloads/MasterChefV2/contracts/PancakeProfile.sol\":51949:51961  _msgSender() */\n      tag_439\n        /* \"Users/leilei/Downloads/MasterChefV2/contracts/PancakeProfile.sol\":51949:51959  _msgSender */\n      tag_190\n        /* \"Users/leilei/Downloads/MasterChefV2/contracts/PancakeProfile.sol\":51949:51961  _msgSender() */\n      jump\t// in\n    tag_439:\n      sub(shl(0xa0, 0x01), 0x01)\n        /* \"Users/leilei/Downloads/MasterChefV2/contracts/PancakeProfile.sol\":51949:51991  _msgSender() == nftToken.ownerOf(_tokenId) */\n      and\n      eq\n        /* \"Users/leilei/Downloads/MasterChefV2/contracts/PancakeProfile.sol\":51928:52044  require(... */\n      tag_440\n      jumpi\n      0x40\n      dup1\n      mload\n      shl(0xe5, 0x461bcd)\n      dup2\n      mstore\n      0x20\n      0x04\n      dup3\n      add\n      mstore\n      0x1b\n      0x24\n      dup3\n      add\n      mstore\n      0x4f6e6c79204e4654206f776e65722063616e2072656769737465720000000000\n      0x44\n      dup3\n      add\n      mstore\n      swap1\n      mload\n      swap1\n      dup2\n      swap1\n      sub\n      0x64\n      add\n      swap1\n      revert\n    tag_440:\n        /* \"Users/leilei/Downloads/MasterChefV2/contracts/PancakeProfile.sol\":52096:52104  nftToken */\n      dup1\n      sub(shl(0xa0, 0x01), 0x01)\n        /* \"Users/leilei/Downloads/MasterChefV2/contracts/PancakeProfile.sol\":52096:52121  nftToken.safeTransferFrom */\n      and\n      0x42842e0e\n        /* \"Users/leilei/Downloads/MasterChefV2/contracts/PancakeProfile.sol\":52122:52134  _msgSender() */\n      tag_441\n        /* \"Users/leilei/Downloads/MasterChefV2/contracts/PancakeProfile.sol\":52122:52132  _msgSender */\n      tag_190\n        /* \"Users/leilei/Downloads/MasterChefV2/contracts/PancakeProfile.sol\":52122:52134  _msgSender() */\n      jump\t// in\n    tag_441:\n        /* \"Users/leilei/Downloads/MasterChefV2/contracts/PancakeProfile.sol\":52096:52160  nftToken.safeTransferFrom(_msgSender(), address(this), _tokenId) */\n      0x40\n      dup1\n      mload\n      not(sub(shl(0xe0, 0x01), 0x01))\n      0xe0\n      dup6\n      swap1\n      shl\n      and\n      dup2\n      mstore\n      sub(shl(0xa0, 0x01), 0x01)\n      swap1\n      swap3\n      and\n      0x04\n      dup4\n      add\n      mstore\n        /* \"Users/leilei/Downloads/MasterChefV2/contracts/PancakeProfile.sol\":52144:52148  this */\n      address\n        /* \"Users/leilei/Downloads/MasterChefV2/contracts/PancakeProfile.sol\":52096:52160  nftToken.safeTransferFrom(_msgSender(), address(this), _tokenId) */\n      0x24\n      dup4\n      add\n      mstore\n      0x44\n      dup3\n      add\n      dup7\n      swap1\n      mstore\n      mload\n      0x64\n      dup1\n      dup4\n      add\n      swap3\n      0x00\n      swap3\n      swap2\n      swap1\n      dup3\n      swap1\n      sub\n      add\n      dup2\n      dup4\n      dup8\n      dup1\n      extcodesize\n      iszero\n        /* \"--CODEGEN--\":2:4   */\n      dup1\n      iszero\n      tag_442\n      jumpi\n        /* \"--CODEGEN--\":27:28   */\n      0x00\n        /* \"--CODEGEN--\":24:25   */\n      dup1\n        /* \"--CODEGEN--\":17:29   */\n      revert\n        /* \"--CODEGEN--\":2:4   */\n    tag_442:\n        /* \"Users/leilei/Downloads/MasterChefV2/contracts/PancakeProfile.sol\":52096:52160  nftToken.safeTransferFrom(_msgSender(), address(this), _tokenId) */\n      pop\n      gas\n      call\n      iszero\n        /* \"--CODEGEN--\":8:17   */\n      dup1\n        /* \"--CODEGEN--\":5:7   */\n      iszero\n      tag_444\n      jumpi\n        /* \"--CODEGEN--\":45:61   */\n      returndatasize\n        /* \"--CODEGEN--\":42:43   */\n      0x00\n        /* \"--CODEGEN--\":39:40   */\n      dup1\n        /* \"--CODEGEN--\":24:62   */\n      returndatacopy\n        /* \"--CODEGEN--\":77:93   */\n      returndatasize\n        /* \"--CODEGEN--\":74:75   */\n      0x00\n        /* \"--CODEGEN--\":67:94   */\n      revert\n        /* \"--CODEGEN--\":5:7   */\n    tag_444:\n        /* \"Users/leilei/Downloads/MasterChefV2/contracts/PancakeProfile.sol\":52096:52160  nftToken.safeTransferFrom(_msgSender(), address(this), _tokenId) */\n      pop\n      pop\n      pop\n      pop\n        /* \"Users/leilei/Downloads/MasterChefV2/contracts/PancakeProfile.sol\":52220:52343  cakeToken.safeTransferFrom(... */\n      tag_445\n        /* \"Users/leilei/Downloads/MasterChefV2/contracts/PancakeProfile.sol\":52260:52272  _msgSender() */\n      tag_446\n        /* \"Users/leilei/Downloads/MasterChefV2/contracts/PancakeProfile.sol\":52260:52270  _msgSender */\n      tag_190\n        /* \"Users/leilei/Downloads/MasterChefV2/contracts/PancakeProfile.sol\":52260:52272  _msgSender() */\n      jump\t// in\n    tag_446:\n        /* \"Users/leilei/Downloads/MasterChefV2/contracts/PancakeProfile.sol\":52313:52333  numberCakeToRegister */\n      sload(0x04)\n        /* \"Users/leilei/Downloads/MasterChefV2/contracts/PancakeProfile.sol\":52220:52229  cakeToken */\n      and(sub(shl(0xa0, 0x01), 0x01), sload(0x01))\n      swap2\n        /* \"Users/leilei/Downloads/MasterChefV2/contracts/PancakeProfile.sol\":52220:52343  cakeToken.safeTransferFrom(... */\n      swap1\n        /* \"Users/leilei/Downloads/MasterChefV2/contracts/PancakeProfile.sol\":52294:52298  this */\n      address\n      swap1\n        /* \"Users/leilei/Downloads/MasterChefV2/contracts/PancakeProfile.sol\":52220:52343  cakeToken.safeTransferFrom(... */\n      0xffffffff\n        /* \"Users/leilei/Downloads/MasterChefV2/contracts/PancakeProfile.sol\":52220:52246  cakeToken.safeTransferFrom */\n      tag_210\n        /* \"Users/leilei/Downloads/MasterChefV2/contracts/PancakeProfile.sol\":52220:52343  cakeToken.safeTransferFrom(... */\n      and\n      jump\t// in\n    tag_445:\n        /* \"Users/leilei/Downloads/MasterChefV2/contracts/PancakeProfile.sol\":52414:52437  _countUsers.increment() */\n      tag_447\n        /* \"Users/leilei/Downloads/MasterChefV2/contracts/PancakeProfile.sol\":52414:52425  _countUsers */\n      0x0b\n        /* \"Users/leilei/Downloads/MasterChefV2/contracts/PancakeProfile.sol\":52414:52435  _countUsers.increment */\n      tag_226\n        /* \"Users/leilei/Downloads/MasterChefV2/contracts/PancakeProfile.sol\":52414:52437  _countUsers.increment() */\n      jump\t// in\n    tag_447:\n        /* \"Users/leilei/Downloads/MasterChefV2/contracts/PancakeProfile.sol\":52447:52464  uint256 newUserId */\n      0x00\n        /* \"Users/leilei/Downloads/MasterChefV2/contracts/PancakeProfile.sol\":52467:52488  _countUsers.current() */\n      tag_448\n        /* \"Users/leilei/Downloads/MasterChefV2/contracts/PancakeProfile.sol\":52467:52478  _countUsers */\n      0x0b\n        /* \"Users/leilei/Downloads/MasterChefV2/contracts/PancakeProfile.sol\":52467:52486  _countUsers.current */\n      tag_228\n        /* \"Users/leilei/Downloads/MasterChefV2/contracts/PancakeProfile.sol\":52467:52488  _countUsers.current() */\n      jump\t// in\n    tag_448:\n        /* \"Users/leilei/Downloads/MasterChefV2/contracts/PancakeProfile.sol\":52447:52488  uint256 newUserId = _countUsers.current() */\n      swap1\n      pop\n        /* \"Users/leilei/Downloads/MasterChefV2/contracts/PancakeProfile.sol\":52569:52770  User({... */\n      mload(0x40)\n      dup1\n      0xc0\n      add\n      0x40\n      mstore\n      dup1\n        /* \"Users/leilei/Downloads/MasterChefV2/contracts/PancakeProfile.sol\":52596:52605  newUserId */\n      dup3\n        /* \"Users/leilei/Downloads/MasterChefV2/contracts/PancakeProfile.sol\":52569:52770  User({... */\n      dup2\n      mstore\n      0x20\n      add\n        /* \"Users/leilei/Downloads/MasterChefV2/contracts/PancakeProfile.sol\":52633:52634  0 */\n      0x00\n        /* \"Users/leilei/Downloads/MasterChefV2/contracts/PancakeProfile.sol\":52569:52770  User({... */\n      dup2\n      mstore\n      0x20\n      add\n        /* \"Users/leilei/Downloads/MasterChefV2/contracts/PancakeProfile.sol\":52656:52663  _teamId */\n      dup7\n        /* \"Users/leilei/Downloads/MasterChefV2/contracts/PancakeProfile.sol\":52569:52770  User({... */\n      dup2\n      mstore\n      0x20\n      add\n        /* \"Users/leilei/Downloads/MasterChefV2/contracts/PancakeProfile.sol\":52689:52700  _nftAddress */\n      dup6\n      sub(shl(0xa0, 0x01), 0x01)\n        /* \"Users/leilei/Downloads/MasterChefV2/contracts/PancakeProfile.sol\":52569:52770  User({... */\n      and\n      dup2\n      mstore\n      0x20\n      add\n        /* \"Users/leilei/Downloads/MasterChefV2/contracts/PancakeProfile.sol\":52723:52731  _tokenId */\n      dup5\n        /* \"Users/leilei/Downloads/MasterChefV2/contracts/PancakeProfile.sol\":52569:52770  User({... */\n      dup2\n      mstore\n      0x20\n      add\n        /* \"Users/leilei/Downloads/MasterChefV2/contracts/PancakeProfile.sol\":52755:52759  true */\n      0x01\n        /* \"Users/leilei/Downloads/MasterChefV2/contracts/PancakeProfile.sol\":52569:52770  User({... */\n      iszero\n      iszero\n      dup2\n      mstore\n      pop\n        /* \"Users/leilei/Downloads/MasterChefV2/contracts/PancakeProfile.sol\":52547:52552  users */\n      0x09\n        /* \"Users/leilei/Downloads/MasterChefV2/contracts/PancakeProfile.sol\":52547:52566  users[_msgSender()] */\n      0x00\n        /* \"Users/leilei/Downloads/MasterChefV2/contracts/PancakeProfile.sol\":52553:52565  _msgSender() */\n      tag_449\n        /* \"Users/leilei/Downloads/MasterChefV2/contracts/PancakeProfile.sol\":52553:52563  _msgSender */\n      tag_190\n        /* \"Users/leilei/Downloads/MasterChefV2/contracts/PancakeProfile.sol\":52553:52565  _msgSender() */\n      jump\t// in\n    tag_449:\n      sub(shl(0xa0, 0x01), 0x01)\n        /* \"Users/leilei/Downloads/MasterChefV2/contracts/PancakeProfile.sol\":52547:52566  users[_msgSender()] */\n      swap1\n      dup2\n      and\n      dup3\n      mstore\n      0x20\n      dup1\n      dup4\n      add\n      swap4\n      swap1\n      swap4\n      mstore\n      0x40\n      swap2\n      dup3\n      add\n      0x00\n      swap1\n      dup2\n      keccak256\n        /* \"Users/leilei/Downloads/MasterChefV2/contracts/PancakeProfile.sol\":52547:52770  users[_msgSender()] = User({... */\n      dup6\n      mload\n      dup2\n      sstore\n      swap4\n      dup6\n      add\n      mload\n      0x01\n      dup1\n      dup7\n      add\n      swap2\n      swap1\n      swap2\n      sstore\n      swap3\n      dup6\n      add\n      mload\n      0x02\n      dup6\n      add\n      sstore\n      0x60\n      dup6\n      add\n      mload\n      0x03\n      dup6\n      add\n      dup1\n      sload\n      not(sub(shl(0xa0, 0x01), 0x01))\n      and\n      swap2\n      swap1\n      swap4\n      and\n      or\n      swap1\n      swap2\n      sstore\n      0x80\n      dup5\n      add\n      mload\n      0x04\n      dup5\n      add\n      sstore\n      0xa0\n      swap1\n      swap4\n      add\n      mload\n      0x05\n      swap1\n      swap3\n      add\n      dup1\n      sload\n      not(0xff)\n      and\n      swap3\n      iszero\n      iszero\n      swap3\n      swap1\n      swap3\n      or\n      swap1\n      swap2\n      sstore\n      swap1\n        /* \"Users/leilei/Downloads/MasterChefV2/contracts/PancakeProfile.sol\":52819:52832  hasRegistered */\n      0x07\n      swap1\n        /* \"Users/leilei/Downloads/MasterChefV2/contracts/PancakeProfile.sol\":52833:52845  _msgSender() */\n      tag_450\n        /* \"Users/leilei/Downloads/MasterChefV2/contracts/PancakeProfile.sol\":52833:52843  _msgSender */\n      tag_190\n        /* \"Users/leilei/Downloads/MasterChefV2/contracts/PancakeProfile.sol\":52833:52845  _msgSender() */\n      jump\t// in\n    tag_450:\n      sub(shl(0xa0, 0x01), 0x01)\n        /* \"Users/leilei/Downloads/MasterChefV2/contracts/PancakeProfile.sol\":52819:52846  hasRegistered[_msgSender()] */\n      and\n      dup2\n      mstore\n      0x20\n      dup2\n      add\n      swap2\n      swap1\n      swap2\n      mstore\n      0x40\n      add\n      0x00\n      keccak256\n        /* \"Users/leilei/Downloads/MasterChefV2/contracts/PancakeProfile.sol\":52819:52853  hasRegistered[_msgSender()] = true */\n      dup1\n      sload\n      not(0xff)\n      and\n      swap2\n      iszero\n      iszero\n      swap2\n      swap1\n      swap2\n      or\n      swap1\n      sstore\n        /* \"Users/leilei/Downloads/MasterChefV2/contracts/PancakeProfile.sol\":52931:52951  numberActiveProfiles */\n      sload(0x02)\n        /* \"Users/leilei/Downloads/MasterChefV2/contracts/PancakeProfile.sol\":52931:52958  numberActiveProfiles.add(1) */\n      tag_451\n      swap1\n      0x01\n        /* \"Users/leilei/Downloads/MasterChefV2/contracts/PancakeProfile.sol\":52931:52955  numberActiveProfiles.add */\n      tag_239\n        /* \"Users/leilei/Downloads/MasterChefV2/contracts/PancakeProfile.sol\":52931:52958  numberActiveProfiles.add(1) */\n      jump\t// in\n    tag_451:\n        /* \"Users/leilei/Downloads/MasterChefV2/contracts/PancakeProfile.sol\":52908:52928  numberActiveProfiles */\n      0x02\n        /* \"Users/leilei/Downloads/MasterChefV2/contracts/PancakeProfile.sol\":52908:52958  numberActiveProfiles = numberActiveProfiles.add(1) */\n      swap1\n      dup2\n      sstore\n        /* \"Users/leilei/Downloads/MasterChefV2/contracts/PancakeProfile.sol\":53051:53065  teams[_teamId] */\n      0x00\n      dup7\n      dup2\n      mstore\n        /* \"Users/leilei/Downloads/MasterChefV2/contracts/PancakeProfile.sol\":53051:53056  teams */\n      0x08\n        /* \"Users/leilei/Downloads/MasterChefV2/contracts/PancakeProfile.sol\":53051:53065  teams[_teamId] */\n      0x20\n      mstore\n      0x40\n      swap1\n      keccak256\n        /* \"Users/leilei/Downloads/MasterChefV2/contracts/PancakeProfile.sol\":53051:53077  teams[_teamId].numberUsers */\n      add\n      sload\n        /* \"Users/leilei/Downloads/MasterChefV2/contracts/PancakeProfile.sol\":53051:53084  teams[_teamId].numberUsers.add(1) */\n      tag_452\n      swap1\n        /* \"Users/leilei/Downloads/MasterChefV2/contracts/PancakeProfile.sol\":53082:53083  1 */\n      0x01\n        /* \"Users/leilei/Downloads/MasterChefV2/contracts/PancakeProfile.sol\":53051:53084  teams[_teamId].numberUsers.add(1) */\n      0xffffffff\n        /* \"Users/leilei/Downloads/MasterChefV2/contracts/PancakeProfile.sol\":53051:53081  teams[_teamId].numberUsers.add */\n      tag_239\n        /* \"Users/leilei/Downloads/MasterChefV2/contracts/PancakeProfile.sol\":53051:53084  teams[_teamId].numberUsers.add(1) */\n      and\n      jump\t// in\n    tag_452:\n        /* \"Users/leilei/Downloads/MasterChefV2/contracts/PancakeProfile.sol\":53022:53036  teams[_teamId] */\n      0x00\n      dup7\n      dup2\n      mstore\n        /* \"Users/leilei/Downloads/MasterChefV2/contracts/PancakeProfile.sol\":53022:53027  teams */\n      0x08\n        /* \"Users/leilei/Downloads/MasterChefV2/contracts/PancakeProfile.sol\":53022:53036  teams[_teamId] */\n      0x20\n      mstore\n      0x40\n      swap1\n      keccak256\n        /* \"Users/leilei/Downloads/MasterChefV2/contracts/PancakeProfile.sol\":53022:53048  teams[_teamId].numberUsers */\n      0x02\n      add\n        /* \"Users/leilei/Downloads/MasterChefV2/contracts/PancakeProfile.sol\":53022:53084  teams[_teamId].numberUsers = teams[_teamId].numberUsers.add(1) */\n      sstore\n        /* \"Users/leilei/Downloads/MasterChefV2/contracts/PancakeProfile.sol\":53133:53145  _msgSender() */\n      tag_453\n        /* \"Users/leilei/Downloads/MasterChefV2/contracts/PancakeProfile.sol\":53133:53143  _msgSender */\n      tag_190\n        /* \"Users/leilei/Downloads/MasterChefV2/contracts/PancakeProfile.sol\":53133:53145  _msgSender() */\n      jump\t// in\n    tag_453:\n        /* \"Users/leilei/Downloads/MasterChefV2/contracts/PancakeProfile.sol\":53125:53178  UserNew(_msgSender(), _teamId, _nftAddress, _tokenId) */\n      0x40\n      dup1\n      mload\n      dup8\n      dup2\n      mstore\n      sub(shl(0xa0, 0x01), 0x01)\n      dup8\n      dup2\n      and\n      0x20\n      dup4\n      add\n      mstore\n      dup2\n      dup4\n      add\n      dup8\n      swap1\n      mstore\n      swap2\n      mload\n      swap3\n      swap1\n      swap2\n      and\n      swap2\n      0x628915737ae1dae037b128d0892692746d4e63e2f72632781c0a08f7168b1be8\n      swap2\n      dup2\n      swap1\n      sub\n      0x60\n      add\n      swap1\n      log2\n        /* \"Users/leilei/Downloads/MasterChefV2/contracts/PancakeProfile.sol\":51406:53185  function createProfile(... */\n      pop\n      pop\n      pop\n      pop\n      pop\n      jump\t// out\n        /* \"Users/leilei/Downloads/MasterChefV2/contracts/PancakeProfile.sol\":17861:17965  function _msgSender() internal view virtual returns (address payable) {... */\n    tag_190:\n        /* \"Users/leilei/Downloads/MasterChefV2/contracts/PancakeProfile.sol\":17948:17958  msg.sender */\n      caller\n        /* \"Users/leilei/Downloads/MasterChefV2/contracts/PancakeProfile.sol\":17861:17965  function _msgSender() internal view virtual returns (address payable) {... */\n    tag_454:\n      swap1\n      jump\t// out\n        /* \"Users/leilei/Downloads/MasterChefV2/contracts/PancakeProfile.sol\":43950:44225  function safeTransferFrom(... */\n    tag_210:\n        /* \"Users/leilei/Downloads/MasterChefV2/contracts/PancakeProfile.sol\":44140:44208  abi.encodeWithSelector(token.transferFrom.selector, from, to, value) */\n      0x40\n      dup1\n      mload\n      sub(shl(0xa0, 0x01), 0x01)\n      dup1\n      dup7\n      and\n      0x24\n      dup4\n      add\n      mstore\n      dup5\n      and\n      0x44\n      dup3\n      add\n      mstore\n      0x64\n      dup1\n      dup3\n      add\n      dup5\n      swap1\n      mstore\n      dup3\n      mload\n        /* \"--CODEGEN--\":26:47   */\n      dup1\n      dup4\n      sub\n        /* \"--CODEGEN--\":22:54   */\n      swap1\n      swap2\n      add\n        /* \"--CODEGEN--\":6:55   */\n      dup2\n      mstore\n        /* \"Users/leilei/Downloads/MasterChefV2/contracts/PancakeProfile.sol\":44140:44208  abi.encodeWithSelector(token.transferFrom.selector, from, to, value) */\n      0x84\n      swap1\n      swap2\n      add\n      swap1\n      swap2\n      mstore\n      0x20\n        /* \"--CODEGEN--\":25:43   */\n      dup2\n      add\n        /* \"--CODEGEN--\":61:78   */\n      dup1\n      mload\n      sub(shl(0xe0, 0x01), 0x01)\n        /* \"--CODEGEN--\":182:197   */\n      and\n      shl(0xe0, 0x23b872dd)\n        /* \"--CODEGEN--\":179:208   */\n      or\n        /* \"--CODEGEN--\":160:209   */\n      swap1\n      mstore\n        /* \"Users/leilei/Downloads/MasterChefV2/contracts/PancakeProfile.sol\":44088:44218  _callOptionalReturn(... */\n      tag_334\n      swap1\n        /* \"Users/leilei/Downloads/MasterChefV2/contracts/PancakeProfile.sol\":44121:44126  token */\n      dup6\n      swap1\n        /* \"Users/leilei/Downloads/MasterChefV2/contracts/PancakeProfile.sol\":44088:44107  _callOptionalReturn */\n      tag_457\n        /* \"Users/leilei/Downloads/MasterChefV2/contracts/PancakeProfile.sol\":44088:44218  _callOptionalReturn(... */\n      jump\t// in\n        /* \"Users/leilei/Downloads/MasterChefV2/contracts/PancakeProfile.sol\":32288:32466  function increment(Counter storage counter) internal {... */\n    tag_226:\n        /* \"Users/leilei/Downloads/MasterChefV2/contracts/PancakeProfile.sol\":32440:32459  counter._value += 1 */\n      dup1\n      sload\n        /* \"Users/leilei/Downloads/MasterChefV2/contracts/PancakeProfile.sol\":32458:32459  1 */\n      0x01\n        /* \"Users/leilei/Downloads/MasterChefV2/contracts/PancakeProfile.sol\":32440:32459  counter._value += 1 */\n      add\n      swap1\n      sstore\n        /* \"Users/leilei/Downloads/MasterChefV2/contracts/PancakeProfile.sol\":32288:32466  function increment(Counter storage counter) internal {... */\n      jump\t// out\n        /* \"Users/leilei/Downloads/MasterChefV2/contracts/PancakeProfile.sol\":32170:32282  function current(Counter storage counter) internal view returns (uint256) {... */\n    tag_228:\n        /* \"Users/leilei/Downloads/MasterChefV2/contracts/PancakeProfile.sol\":32261:32275  counter._value */\n      sload\n      swap1\n        /* \"Users/leilei/Downloads/MasterChefV2/contracts/PancakeProfile.sol\":32170:32282  function current(Counter storage counter) internal view returns (uint256) {... */\n      jump\t// out\n        /* \"Users/leilei/Downloads/MasterChefV2/contracts/PancakeProfile.sol\":26658:26834  function add(uint256 a, uint256 b) internal pure returns (uint256) {... */\n    tag_239:\n        /* \"Users/leilei/Downloads/MasterChefV2/contracts/PancakeProfile.sol\":26716:26723  uint256 */\n      0x00\n        /* \"Users/leilei/Downloads/MasterChefV2/contracts/PancakeProfile.sol\":26747:26752  a + b */\n      dup3\n      dup3\n      add\n        /* \"Users/leilei/Downloads/MasterChefV2/contracts/PancakeProfile.sol\":26770:26776  c >= a */\n      dup4\n      dup2\n      lt\n      iszero\n        /* \"Users/leilei/Downloads/MasterChefV2/contracts/PancakeProfile.sol\":26762:26808  require(c >= a, \"SafeMath: addition overflow\") */\n      tag_294\n      jumpi\n      0x40\n      dup1\n      mload\n      shl(0xe5, 0x461bcd)\n      dup2\n      mstore\n      0x20\n      0x04\n      dup3\n      add\n      mstore\n      0x1b\n      0x24\n      dup3\n      add\n      mstore\n      0x536166654d6174683a206164646974696f6e206f766572666c6f770000000000\n      0x44\n      dup3\n      add\n      mstore\n      swap1\n      mload\n      swap1\n      dup2\n      swap1\n      sub\n      0x64\n      add\n      swap1\n      revert\n        /* \"Users/leilei/Downloads/MasterChefV2/contracts/PancakeProfile.sol\":25375:25559  function _grantRole(bytes32 role, address account) private {... */\n    tag_264:\n        /* \"Users/leilei/Downloads/MasterChefV2/contracts/PancakeProfile.sol\":25448:25454  _roles */\n      0x00\n        /* \"Users/leilei/Downloads/MasterChefV2/contracts/PancakeProfile.sol\":25448:25460  _roles[role] */\n      dup3\n      dup2\n      mstore\n      0x20\n      dup2\n      swap1\n      mstore\n      0x40\n      swap1\n      keccak256\n        /* \"Users/leilei/Downloads/MasterChefV2/contracts/PancakeProfile.sol\":25448:25481  _roles[role].members.add(account) */\n      tag_463\n      swap1\n        /* \"Users/leilei/Downloads/MasterChefV2/contracts/PancakeProfile.sol\":25473:25480  account */\n      dup3\n        /* \"Users/leilei/Downloads/MasterChefV2/contracts/PancakeProfile.sol\":25448:25481  _roles[role].members.add(account) */\n      0xffffffff\n        /* \"Users/leilei/Downloads/MasterChefV2/contracts/PancakeProfile.sol\":25448:25472  _roles[role].members.add */\n      tag_464\n        /* \"Users/leilei/Downloads/MasterChefV2/contracts/PancakeProfile.sol\":25448:25481  _roles[role].members.add(account) */\n      and\n      jump\t// in\n    tag_463:\n        /* \"Users/leilei/Downloads/MasterChefV2/contracts/PancakeProfile.sol\":25444:25553  if (_roles[role].members.add(account)) {... */\n      iszero\n      tag_263\n      jumpi\n        /* \"Users/leilei/Downloads/MasterChefV2/contracts/PancakeProfile.sol\":25529:25541  _msgSender() */\n      tag_466\n        /* \"Users/leilei/Downloads/MasterChefV2/contracts/PancakeProfile.sol\":25529:25539  _msgSender */\n      tag_190\n        /* \"Users/leilei/Downloads/MasterChefV2/contracts/PancakeProfile.sol\":25529:25541  _msgSender() */\n      jump\t// in\n    tag_466:\n      sub(shl(0xa0, 0x01), 0x01)\n        /* \"Users/leilei/Downloads/MasterChefV2/contracts/PancakeProfile.sol\":25502:25542  RoleGranted(role, account, _msgSender()) */\n      and\n        /* \"Users/leilei/Downloads/MasterChefV2/contracts/PancakeProfile.sol\":25520:25527  account */\n      dup2\n      sub(shl(0xa0, 0x01), 0x01)\n        /* \"Users/leilei/Downloads/MasterChefV2/contracts/PancakeProfile.sol\":25502:25542  RoleGranted(role, account, _msgSender()) */\n      and\n        /* \"Users/leilei/Downloads/MasterChefV2/contracts/PancakeProfile.sol\":25514:25518  role */\n      dup4\n        /* \"Users/leilei/Downloads/MasterChefV2/contracts/PancakeProfile.sol\":25502:25542  RoleGranted(role, account, _msgSender()) */\n      0x2f8788117e7eff1d82e926ec794901d17c78024a50270940304540a733656f0d\n      mload(0x40)\n      mload(0x40)\n      dup1\n      swap2\n      sub\n      swap1\n      log4\n        /* \"Users/leilei/Downloads/MasterChefV2/contracts/PancakeProfile.sol\":25375:25559  function _grantRole(bytes32 role, address account) private {... */\n      pop\n      pop\n      jump\t// out\n        /* \"Users/leilei/Downloads/MasterChefV2/contracts/PancakeProfile.sol\":25565:25753  function _revokeRole(bytes32 role, address account) private {... */\n    tag_269:\n        /* \"Users/leilei/Downloads/MasterChefV2/contracts/PancakeProfile.sol\":25639:25645  _roles */\n      0x00\n        /* \"Users/leilei/Downloads/MasterChefV2/contracts/PancakeProfile.sol\":25639:25651  _roles[role] */\n      dup3\n      dup2\n      mstore\n      0x20\n      dup2\n      swap1\n      mstore\n      0x40\n      swap1\n      keccak256\n        /* \"Users/leilei/Downloads/MasterChefV2/contracts/PancakeProfile.sol\":25639:25675  _roles[role].members.remove(account) */\n      tag_468\n      swap1\n        /* \"Users/leilei/Downloads/MasterChefV2/contracts/PancakeProfile.sol\":25667:25674  account */\n      dup3\n        /* \"Users/leilei/Downloads/MasterChefV2/contracts/PancakeProfile.sol\":25639:25675  _roles[role].members.remove(account) */\n      0xffffffff\n        /* \"Users/leilei/Downloads/MasterChefV2/contracts/PancakeProfile.sol\":25639:25666  _roles[role].members.remove */\n      tag_469\n        /* \"Users/leilei/Downloads/MasterChefV2/contracts/PancakeProfile.sol\":25639:25675  _roles[role].members.remove(account) */\n      and\n      jump\t// in\n    tag_468:\n        /* \"Users/leilei/Downloads/MasterChefV2/contracts/PancakeProfile.sol\":25635:25747  if (_roles[role].members.remove(account)) {... */\n      iszero\n      tag_263\n      jumpi\n        /* \"Users/leilei/Downloads/MasterChefV2/contracts/PancakeProfile.sol\":25723:25735  _msgSender() */\n      tag_471\n        /* \"Users/leilei/Downloads/MasterChefV2/contracts/PancakeProfile.sol\":25723:25733  _msgSender */\n      tag_190\n        /* \"Users/leilei/Downloads/MasterChefV2/contracts/PancakeProfile.sol\":25723:25735  _msgSender() */\n      jump\t// in\n    tag_471:\n      sub(shl(0xa0, 0x01), 0x01)\n        /* \"Users/leilei/Downloads/MasterChefV2/contracts/PancakeProfile.sol\":25696:25736  RoleRevoked(role, account, _msgSender()) */\n      and\n        /* \"Users/leilei/Downloads/MasterChefV2/contracts/PancakeProfile.sol\":25714:25721  account */\n      dup2\n      sub(shl(0xa0, 0x01), 0x01)\n        /* \"Users/leilei/Downloads/MasterChefV2/contracts/PancakeProfile.sol\":25696:25736  RoleRevoked(role, account, _msgSender()) */\n      and\n        /* \"Users/leilei/Downloads/MasterChefV2/contracts/PancakeProfile.sol\":25708:25712  role */\n      dup4\n        /* \"Users/leilei/Downloads/MasterChefV2/contracts/PancakeProfile.sol\":25696:25736  RoleRevoked(role, account, _msgSender()) */\n      0xf6391f5c32d9c69d2a47ea670b442974b53935d1edc7fd64eb21e047a839171b\n      mload(0x40)\n      mload(0x40)\n      dup1\n      swap2\n      sub\n      swap1\n      log4\n        /* \"Users/leilei/Downloads/MasterChefV2/contracts/PancakeProfile.sol\":25565:25753  function _revokeRole(bytes32 role, address account) private {... */\n      pop\n      pop\n      jump\t// out\n        /* \"Users/leilei/Downloads/MasterChefV2/contracts/PancakeProfile.sol\":8068:8243  function at(AddressSet storage set, uint256 index)... */\n    tag_295:\n        /* \"Users/leilei/Downloads/MasterChefV2/contracts/PancakeProfile.sol\":8166:8173  address */\n      0x00\n        /* \"Users/leilei/Downloads/MasterChefV2/contracts/PancakeProfile.sol\":8212:8234  _at(set._inner, index) */\n      tag_294\n        /* \"Users/leilei/Downloads/MasterChefV2/contracts/PancakeProfile.sol\":8216:8219  set */\n      dup4\n        /* \"Users/leilei/Downloads/MasterChefV2/contracts/PancakeProfile.sol\":8228:8233  index */\n      dup4\n        /* \"Users/leilei/Downloads/MasterChefV2/contracts/PancakeProfile.sol\":8212:8215  _at */\n      tag_474\n        /* \"Users/leilei/Downloads/MasterChefV2/contracts/PancakeProfile.sol\":8212:8234  _at(set._inner, index) */\n      jump\t// in\n        /* \"Users/leilei/Downloads/MasterChefV2/contracts/PancakeProfile.sol\":7346:7530  function contains(AddressSet storage set, address value)... */\n    tag_298:\n        /* \"Users/leilei/Downloads/MasterChefV2/contracts/PancakeProfile.sol\":7450:7454  bool */\n      0x00\n        /* \"Users/leilei/Downloads/MasterChefV2/contracts/PancakeProfile.sol\":7477:7523  _contains(set._inner, bytes32(uint256(value))) */\n      tag_294\n        /* \"Users/leilei/Downloads/MasterChefV2/contracts/PancakeProfile.sol\":7487:7490  set */\n      dup4\n      sub(shl(0xa0, 0x01), 0x01)\n        /* \"Users/leilei/Downloads/MasterChefV2/contracts/PancakeProfile.sol\":7507:7521  uint256(value) */\n      dup5\n      and\n        /* \"Users/leilei/Downloads/MasterChefV2/contracts/PancakeProfile.sol\":7477:7486  _contains */\n      tag_477\n        /* \"Users/leilei/Downloads/MasterChefV2/contracts/PancakeProfile.sol\":7477:7523  _contains(set._inner, bytes32(uint256(value))) */\n      jump\t// in\n        /* \"Users/leilei/Downloads/MasterChefV2/contracts/PancakeProfile.sol\":27105:27239  function sub(uint256 a, uint256 b) internal pure returns (uint256) {... */\n    tag_338:\n        /* \"Users/leilei/Downloads/MasterChefV2/contracts/PancakeProfile.sol\":27163:27170  uint256 */\n      0x00\n        /* \"Users/leilei/Downloads/MasterChefV2/contracts/PancakeProfile.sol\":27189:27232  sub(a, b, \"SafeMath: subtraction overflow\") */\n      tag_294\n        /* \"Users/leilei/Downloads/MasterChefV2/contracts/PancakeProfile.sol\":27193:27194  a */\n      dup4\n        /* \"Users/leilei/Downloads/MasterChefV2/contracts/PancakeProfile.sol\":27196:27197  b */\n      dup4\n        /* \"Users/leilei/Downloads/MasterChefV2/contracts/PancakeProfile.sol\":27189:27232  sub(a, b, \"SafeMath: subtraction overflow\") */\n      mload(0x40)\n      dup1\n      0x40\n      add\n      0x40\n      mstore\n      dup1\n      0x1e\n      dup2\n      mstore\n      0x20\n      add\n      0x536166654d6174683a207375627472616374696f6e206f766572666c6f770000\n      dup2\n      mstore\n      pop\n        /* \"Users/leilei/Downloads/MasterChefV2/contracts/PancakeProfile.sol\":27189:27192  sub */\n      tag_480\n        /* \"Users/leilei/Downloads/MasterChefV2/contracts/PancakeProfile.sol\":27189:27232  sub(a, b, \"SafeMath: subtraction overflow\") */\n      jump\t// in\n        /* \"Users/leilei/Downloads/MasterChefV2/contracts/PancakeProfile.sol\":7611:7726  function length(AddressSet storage set) internal view returns (uint256) {... */\n    tag_369:\n        /* \"Users/leilei/Downloads/MasterChefV2/contracts/PancakeProfile.sol\":7674:7681  uint256 */\n      0x00\n        /* \"Users/leilei/Downloads/MasterChefV2/contracts/PancakeProfile.sol\":7700:7719  _length(set._inner) */\n      tag_293\n        /* \"Users/leilei/Downloads/MasterChefV2/contracts/PancakeProfile.sol\":7708:7711  set */\n      dup3\n        /* \"Users/leilei/Downloads/MasterChefV2/contracts/PancakeProfile.sol\":7700:7707  _length */\n      tag_228\n        /* \"Users/leilei/Downloads/MasterChefV2/contracts/PancakeProfile.sol\":7700:7719  _length(set._inner) */\n      jump\t// in\n        /* \"Users/leilei/Downloads/MasterChefV2/contracts/PancakeProfile.sol\":43705:43944  function safeTransfer(... */\n    tag_426:\n        /* \"Users/leilei/Downloads/MasterChefV2/contracts/PancakeProfile.sol\":43869:43927  abi.encodeWithSelector(token.transfer.selector, to, value) */\n      0x40\n      dup1\n      mload\n      sub(shl(0xa0, 0x01), 0x01)\n      dup5\n      and\n      0x24\n      dup3\n      add\n      mstore\n      0x44\n      dup1\n      dup3\n      add\n      dup5\n      swap1\n      mstore\n      dup3\n      mload\n        /* \"--CODEGEN--\":26:47   */\n      dup1\n      dup4\n      sub\n        /* \"--CODEGEN--\":22:54   */\n      swap1\n      swap2\n      add\n        /* \"--CODEGEN--\":6:55   */\n      dup2\n      mstore\n        /* \"Users/leilei/Downloads/MasterChefV2/contracts/PancakeProfile.sol\":43869:43927  abi.encodeWithSelector(token.transfer.selector, to, value) */\n      0x64\n      swap1\n      swap2\n      add\n      swap1\n      swap2\n      mstore\n      0x20\n        /* \"--CODEGEN--\":25:43   */\n      dup2\n      add\n        /* \"--CODEGEN--\":61:78   */\n      dup1\n      mload\n      sub(shl(0xe0, 0x01), 0x01)\n        /* \"--CODEGEN--\":182:197   */\n      and\n      shl(0xe0, 0xa9059cbb)\n        /* \"--CODEGEN--\":179:208   */\n      or\n        /* \"--CODEGEN--\":160:209   */\n      swap1\n      mstore\n        /* \"Users/leilei/Downloads/MasterChefV2/contracts/PancakeProfile.sol\":43817:43937  _callOptionalReturn(... */\n      tag_485\n      swap1\n        /* \"Users/leilei/Downloads/MasterChefV2/contracts/PancakeProfile.sol\":43850:43855  token */\n      dup5\n      swap1\n        /* \"Users/leilei/Downloads/MasterChefV2/contracts/PancakeProfile.sol\":43817:43836  _callOptionalReturn */\n      tag_457\n        /* \"Users/leilei/Downloads/MasterChefV2/contracts/PancakeProfile.sol\":43817:43937  _callOptionalReturn(... */\n      jump\t// in\n    tag_485:\n        /* \"Users/leilei/Downloads/MasterChefV2/contracts/PancakeProfile.sol\":43705:43944  function safeTransfer(... */\n      pop\n      pop\n      pop\n      jump\t// out\n        /* \"Users/leilei/Downloads/MasterChefV2/contracts/PancakeProfile.sol\":46503:47370  function _callOptionalReturn(IBEP20 token, bytes memory data) private {... */\n    tag_457:\n        /* \"Users/leilei/Downloads/MasterChefV2/contracts/PancakeProfile.sol\":46922:46945  bytes memory returndata */\n      0x60\n        /* \"Users/leilei/Downloads/MasterChefV2/contracts/PancakeProfile.sol\":46960:47075  address(token).functionCall(... */\n      tag_487\n        /* \"Users/leilei/Downloads/MasterChefV2/contracts/PancakeProfile.sol\":47005:47009  data */\n      dup3\n        /* \"Users/leilei/Downloads/MasterChefV2/contracts/PancakeProfile.sol\":46960:47075  address(token).functionCall(... */\n      mload(0x40)\n      dup1\n      0x40\n      add\n      0x40\n      mstore\n      dup1\n      0x20\n      dup2\n      mstore\n      0x20\n      add\n      0x5361666542455032303a206c6f772d6c6576656c2063616c6c206661696c6564\n      dup2\n      mstore\n      pop\n        /* \"Users/leilei/Downloads/MasterChefV2/contracts/PancakeProfile.sol\":46968:46973  token */\n      dup6\n      sub(shl(0xa0, 0x01), 0x01)\n        /* \"Users/leilei/Downloads/MasterChefV2/contracts/PancakeProfile.sol\":46960:46987  address(token).functionCall */\n      and\n      tag_488\n      swap1\n        /* \"Users/leilei/Downloads/MasterChefV2/contracts/PancakeProfile.sol\":46960:47075  address(token).functionCall(... */\n      swap3\n      swap2\n      swap1\n      0xffffffff\n      and\n      jump\t// in\n    tag_487:\n        /* \"Users/leilei/Downloads/MasterChefV2/contracts/PancakeProfile.sol\":47089:47106  returndata.length */\n      dup1\n      mload\n        /* \"Users/leilei/Downloads/MasterChefV2/contracts/PancakeProfile.sol\":46922:47075  bytes memory returndata =... */\n      swap1\n      swap2\n      pop\n        /* \"Users/leilei/Downloads/MasterChefV2/contracts/PancakeProfile.sol\":47089:47110  returndata.length > 0 */\n      iszero\n        /* \"Users/leilei/Downloads/MasterChefV2/contracts/PancakeProfile.sol\":47085:47364  if (returndata.length > 0) {... */\n      tag_485\n      jumpi\n        /* \"Users/leilei/Downloads/MasterChefV2/contracts/PancakeProfile.sol\":47258:47268  returndata */\n      dup1\n        /* \"Users/leilei/Downloads/MasterChefV2/contracts/PancakeProfile.sol\":47247:47277  abi.decode(returndata, (bool)) */\n      dup1\n      0x20\n      add\n      swap1\n      mload\n        /* \"--CODEGEN--\":15:17   */\n      0x20\n        /* \"--CODEGEN--\":10:13   */\n      dup2\n        /* \"--CODEGEN--\":7:18   */\n      lt\n        /* \"--CODEGEN--\":4:6   */\n      iszero\n      tag_490\n      jumpi\n        /* \"--CODEGEN--\":31:32   */\n      0x00\n        /* \"--CODEGEN--\":28:29   */\n      dup1\n        /* \"--CODEGEN--\":21:33   */\n      revert\n        /* \"--CODEGEN--\":4:6   */\n    tag_490:\n      pop\n        /* \"Users/leilei/Downloads/MasterChefV2/contracts/PancakeProfile.sol\":47247:47277  abi.decode(returndata, (bool)) */\n      mload\n        /* \"Users/leilei/Downloads/MasterChefV2/contracts/PancakeProfile.sol\":47222:47353  require(... */\n      tag_485\n      jumpi\n      mload(0x40)\n      shl(0xe5, 0x461bcd)\n      dup2\n      mstore\n      0x04\n      add\n      dup1\n      dup1\n      0x20\n      add\n      dup3\n      dup2\n      sub\n      dup3\n      mstore\n      0x2a\n      dup2\n      mstore\n      0x20\n      add\n      dup1\n      data_21c3364d55537bf20eb8f05374e9f53f47299e1883c412f1f1135f398f2c2082\n      0x2a\n      swap2\n      codecopy\n      0x40\n      add\n      swap2\n      pop\n      pop\n      mload(0x40)\n      dup1\n      swap2\n      sub\n      swap1\n      revert\n        /* \"Users/leilei/Downloads/MasterChefV2/contracts/PancakeProfile.sol\":6769:6930  function add(AddressSet storage set, address value)... */\n    tag_464:\n        /* \"Users/leilei/Downloads/MasterChefV2/contracts/PancakeProfile.sol\":6855:6859  bool */\n      0x00\n        /* \"Users/leilei/Downloads/MasterChefV2/contracts/PancakeProfile.sol\":6882:6923  _add(set._inner, bytes32(uint256(value))) */\n      tag_294\n        /* \"Users/leilei/Downloads/MasterChefV2/contracts/PancakeProfile.sol\":6887:6890  set */\n      dup4\n      sub(shl(0xa0, 0x01), 0x01)\n        /* \"Users/leilei/Downloads/MasterChefV2/contracts/PancakeProfile.sol\":6907:6921  uint256(value) */\n      dup5\n      and\n        /* \"Users/leilei/Downloads/MasterChefV2/contracts/PancakeProfile.sol\":6882:6886  _add */\n      tag_494\n        /* \"Users/leilei/Downloads/MasterChefV2/contracts/PancakeProfile.sol\":6882:6923  _add(set._inner, bytes32(uint256(value))) */\n      jump\t// in\n        /* \"Users/leilei/Downloads/MasterChefV2/contracts/PancakeProfile.sol\":7098:7265  function remove(AddressSet storage set, address value)... */\n    tag_469:\n        /* \"Users/leilei/Downloads/MasterChefV2/contracts/PancakeProfile.sol\":7187:7191  bool */\n      0x00\n        /* \"Users/leilei/Downloads/MasterChefV2/contracts/PancakeProfile.sol\":7214:7258  _remove(set._inner, bytes32(uint256(value))) */\n      tag_294\n        /* \"Users/leilei/Downloads/MasterChefV2/contracts/PancakeProfile.sol\":7222:7225  set */\n      dup4\n      sub(shl(0xa0, 0x01), 0x01)\n        /* \"Users/leilei/Downloads/MasterChefV2/contracts/PancakeProfile.sol\":7242:7256  uint256(value) */\n      dup5\n      and\n        /* \"Users/leilei/Downloads/MasterChefV2/contracts/PancakeProfile.sol\":7214:7221  _remove */\n      tag_497\n        /* \"Users/leilei/Downloads/MasterChefV2/contracts/PancakeProfile.sol\":7214:7258  _remove(set._inner, bytes32(uint256(value))) */\n      jump\t// in\n        /* \"Users/leilei/Downloads/MasterChefV2/contracts/PancakeProfile.sol\":4624:4887  function _at(Set storage set, uint256 index)... */\n    tag_474:\n        /* \"Users/leilei/Downloads/MasterChefV2/contracts/PancakeProfile.sol\":4759:4777  set._values.length */\n      dup2\n      sload\n        /* \"Users/leilei/Downloads/MasterChefV2/contracts/PancakeProfile.sol\":4715:4722  bytes32 */\n      0x00\n      swap1\n        /* \"Users/leilei/Downloads/MasterChefV2/contracts/PancakeProfile.sol\":4759:4785  set._values.length > index */\n      dup3\n      lt\n        /* \"Users/leilei/Downloads/MasterChefV2/contracts/PancakeProfile.sol\":4738:4845  require(... */\n      tag_499\n      jumpi\n      mload(0x40)\n      shl(0xe5, 0x461bcd)\n      dup2\n      mstore\n      0x04\n      add\n      dup1\n      dup1\n      0x20\n      add\n      dup3\n      dup2\n      sub\n      dup3\n      mstore\n      0x22\n      dup2\n      mstore\n      0x20\n      add\n      dup1\n      data_045d6834e6193a687012a3ad777f612279e549b6945364d9d2324f48610d3cbb\n      0x22\n      swap2\n      codecopy\n      0x40\n      add\n      swap2\n      pop\n      pop\n      mload(0x40)\n      dup1\n      swap2\n      sub\n      swap1\n      revert\n    tag_499:\n        /* \"Users/leilei/Downloads/MasterChefV2/contracts/PancakeProfile.sol\":4862:4865  set */\n      dup3\n        /* \"Users/leilei/Downloads/MasterChefV2/contracts/PancakeProfile.sol\":4862:4873  set._values */\n      0x00\n      add\n        /* \"Users/leilei/Downloads/MasterChefV2/contracts/PancakeProfile.sol\":4874:4879  index */\n      dup3\n        /* \"Users/leilei/Downloads/MasterChefV2/contracts/PancakeProfile.sol\":4862:4880  set._values[index] */\n      dup2\n      sload\n      dup2\n      lt\n      tag_500\n      jumpi\n      invalid\n    tag_500:\n      swap1\n      0x00\n      mstore\n      keccak256(0x00, 0x20)\n      add\n      sload\n        /* \"Users/leilei/Downloads/MasterChefV2/contracts/PancakeProfile.sol\":4855:4880  return set._values[index] */\n      swap1\n      pop\n        /* \"Users/leilei/Downloads/MasterChefV2/contracts/PancakeProfile.sol\":4624:4887  function _at(Set storage set, uint256 index)... */\n      swap3\n      swap2\n      pop\n      pop\n      jump\t// out\n        /* \"Users/leilei/Downloads/MasterChefV2/contracts/PancakeProfile.sol\":3939:4094  function _contains(Set storage set, bytes32 value)... */\n    tag_477:\n        /* \"Users/leilei/Downloads/MasterChefV2/contracts/PancakeProfile.sol\":4036:4040  bool */\n      0x00\n        /* \"Users/leilei/Downloads/MasterChefV2/contracts/PancakeProfile.sol\":4063:4082  set._indexes[value] */\n      swap1\n      dup2\n      mstore\n        /* \"Users/leilei/Downloads/MasterChefV2/contracts/PancakeProfile.sol\":4063:4075  set._indexes */\n      0x01\n      swap2\n      swap1\n      swap2\n      add\n        /* \"Users/leilei/Downloads/MasterChefV2/contracts/PancakeProfile.sol\":4063:4082  set._indexes[value] */\n      0x20\n      mstore\n      0x40\n      swap1\n      keccak256\n      sload\n        /* \"Users/leilei/Downloads/MasterChefV2/contracts/PancakeProfile.sol\":4063:4087  set._indexes[value] != 0 */\n      iszero\n      iszero\n      swap1\n        /* \"Users/leilei/Downloads/MasterChefV2/contracts/PancakeProfile.sol\":3939:4094  function _contains(Set storage set, bytes32 value)... */\n      jump\t// out\n        /* \"Users/leilei/Downloads/MasterChefV2/contracts/PancakeProfile.sol\":27530:27747  function sub(... */\n    tag_480:\n        /* \"Users/leilei/Downloads/MasterChefV2/contracts/PancakeProfile.sol\":27646:27653  uint256 */\n      0x00\n        /* \"Users/leilei/Downloads/MasterChefV2/contracts/PancakeProfile.sol\":27681:27693  errorMessage */\n      dup2\n        /* \"Users/leilei/Downloads/MasterChefV2/contracts/PancakeProfile.sol\":27673:27679  b <= a */\n      dup5\n      dup5\n      gt\n      iszero\n        /* \"Users/leilei/Downloads/MasterChefV2/contracts/PancakeProfile.sol\":27665:27694  require(b <= a, errorMessage) */\n      tag_504\n      jumpi\n      mload(0x40)\n      shl(0xe5, 0x461bcd)\n      dup2\n      mstore\n      0x04\n      add\n      dup1\n      dup1\n      0x20\n      add\n      dup3\n      dup2\n      sub\n      dup3\n      mstore\n      dup4\n      dup2\n      dup2\n      mload\n      dup2\n      mstore\n      0x20\n      add\n      swap2\n      pop\n      dup1\n      mload\n      swap1\n      0x20\n      add\n      swap1\n      dup1\n      dup4\n      dup4\n        /* \"--CODEGEN--\":23:24   */\n      0x00\n        /* \"--CODEGEN--\":8:108   */\n    tag_505:\n        /* \"--CODEGEN--\":33:36   */\n      dup4\n        /* \"--CODEGEN--\":30:31   */\n      dup2\n        /* \"--CODEGEN--\":27:37   */\n      lt\n        /* \"--CODEGEN--\":8:108   */\n      iszero\n      tag_507\n      jumpi\n        /* \"--CODEGEN--\":90:101   */\n      dup2\n      dup2\n      add\n        /* \"--CODEGEN--\":84:102   */\n      mload\n        /* \"--CODEGEN--\":71:82   */\n      dup4\n      dup3\n      add\n        /* \"--CODEGEN--\":64:103   */\n      mstore\n        /* \"--CODEGEN--\":52:54   */\n      0x20\n        /* \"--CODEGEN--\":45:55   */\n      add\n        /* \"--CODEGEN--\":8:108   */\n      jump(tag_505)\n    tag_507:\n        /* \"--CODEGEN--\":12:26   */\n      pop\n        /* \"Users/leilei/Downloads/MasterChefV2/contracts/PancakeProfile.sol\":27665:27694  require(b <= a, errorMessage) */\n      pop\n      pop\n      pop\n      swap1\n      pop\n      swap1\n      dup2\n      add\n      swap1\n      0x1f\n      and\n      dup1\n      iszero\n      tag_508\n      jumpi\n      dup1\n      dup3\n      sub\n      dup1\n      mload\n      0x01\n      dup4\n      0x20\n      sub\n      0x0100\n      exp\n      sub\n      not\n      and\n      dup2\n      mstore\n      0x20\n      add\n      swap2\n      pop\n    tag_508:\n      pop\n      swap3\n      pop\n      pop\n      pop\n      mload(0x40)\n      dup1\n      swap2\n      sub\n      swap1\n      revert\n    tag_504:\n      pop\n      pop\n        /* \"Users/leilei/Downloads/MasterChefV2/contracts/PancakeProfile.sol\":27716:27721  a - b */\n      dup2\n      dup4\n      sub\n        /* \"Users/leilei/Downloads/MasterChefV2/contracts/PancakeProfile.sol\":27530:27747  function sub(... */\n    tag_503:\n      swap4\n      swap3\n      pop\n      pop\n      pop\n      jump\t// out\n        /* \"Users/leilei/Downloads/MasterChefV2/contracts/PancakeProfile.sol\":13592:13815  function functionCall(... */\n    tag_488:\n        /* \"Users/leilei/Downloads/MasterChefV2/contracts/PancakeProfile.sol\":13725:13737  bytes memory */\n      0x60\n        /* \"Users/leilei/Downloads/MasterChefV2/contracts/PancakeProfile.sol\":13756:13808  functionCallWithValue(target, data, 0, errorMessage) */\n      tag_511\n        /* \"Users/leilei/Downloads/MasterChefV2/contracts/PancakeProfile.sol\":13778:13784  target */\n      dup5\n        /* \"Users/leilei/Downloads/MasterChefV2/contracts/PancakeProfile.sol\":13786:13790  data */\n      dup5\n        /* \"Users/leilei/Downloads/MasterChefV2/contracts/PancakeProfile.sol\":13792:13793  0 */\n      0x00\n        /* \"Users/leilei/Downloads/MasterChefV2/contracts/PancakeProfile.sol\":13795:13807  errorMessage */\n      dup6\n        /* \"Users/leilei/Downloads/MasterChefV2/contracts/PancakeProfile.sol\":13756:13777  functionCallWithValue */\n      tag_512\n        /* \"Users/leilei/Downloads/MasterChefV2/contracts/PancakeProfile.sol\":13756:13808  functionCallWithValue(target, data, 0, errorMessage) */\n      jump\t// in\n    tag_511:\n        /* \"Users/leilei/Downloads/MasterChefV2/contracts/PancakeProfile.sol\":13749:13808  return functionCallWithValue(target, data, 0, errorMessage) */\n      swap5\n        /* \"Users/leilei/Downloads/MasterChefV2/contracts/PancakeProfile.sol\":13592:13815  function functionCall(... */\n      swap4\n      pop\n      pop\n      pop\n      pop\n      jump\t// out\n        /* \"Users/leilei/Downloads/MasterChefV2/contracts/PancakeProfile.sol\":1762:2166  function _add(Set storage set, bytes32 value) private returns (bool) {... */\n    tag_494:\n        /* \"Users/leilei/Downloads/MasterChefV2/contracts/PancakeProfile.sol\":1825:1829  bool */\n      0x00\n        /* \"Users/leilei/Downloads/MasterChefV2/contracts/PancakeProfile.sol\":1846:1867  _contains(set, value) */\n      tag_514\n        /* \"Users/leilei/Downloads/MasterChefV2/contracts/PancakeProfile.sol\":1856:1859  set */\n      dup4\n        /* \"Users/leilei/Downloads/MasterChefV2/contracts/PancakeProfile.sol\":1861:1866  value */\n      dup4\n        /* \"Users/leilei/Downloads/MasterChefV2/contracts/PancakeProfile.sol\":1846:1855  _contains */\n      tag_477\n        /* \"Users/leilei/Downloads/MasterChefV2/contracts/PancakeProfile.sol\":1846:1867  _contains(set, value) */\n      jump\t// in\n    tag_514:\n        /* \"Users/leilei/Downloads/MasterChefV2/contracts/PancakeProfile.sol\":1841:2160  if (!_contains(set, value)) {... */\n      tag_515\n      jumpi\n      pop\n        /* \"--CODEGEN--\":27:37   */\n      dup2\n      sload\n        /* \"--CODEGEN--\":39:40   */\n      0x01\n        /* \"--CODEGEN--\":23:41   */\n      dup2\n      dup2\n      add\n        /* \"--CODEGEN--\":45:68   */\n      dup5\n      sstore\n        /* \"Users/leilei/Downloads/MasterChefV2/contracts/PancakeProfile.sol\":1883:1894  set._values */\n      0x00\n        /* \"Users/leilei/Downloads/MasterChefV2/contracts/PancakeProfile.sol\":1883:1906  set._values.push(value) */\n      dup5\n      dup2\n      mstore\n      0x20\n      dup1\n      dup3\n      keccak256\n      swap1\n      swap4\n      add\n      dup5\n      swap1\n      sstore\n        /* \"Users/leilei/Downloads/MasterChefV2/contracts/PancakeProfile.sol\":2063:2081  set._values.length */\n      dup5\n      sload\n        /* \"Users/leilei/Downloads/MasterChefV2/contracts/PancakeProfile.sol\":2041:2060  set._indexes[value] */\n      dup5\n      dup3\n      mstore\n        /* \"Users/leilei/Downloads/MasterChefV2/contracts/PancakeProfile.sol\":2041:2053  set._indexes */\n      dup3\n      dup7\n      add\n        /* \"Users/leilei/Downloads/MasterChefV2/contracts/PancakeProfile.sol\":2041:2060  set._indexes[value] */\n      swap1\n      swap4\n      mstore\n      0x40\n      swap1\n      keccak256\n        /* \"Users/leilei/Downloads/MasterChefV2/contracts/PancakeProfile.sol\":2041:2081  set._indexes[value] = set._values.length */\n      swap2\n      swap1\n      swap2\n      sstore\n        /* \"Users/leilei/Downloads/MasterChefV2/contracts/PancakeProfile.sol\":2095:2106  return true */\n      jump(tag_293)\n        /* \"Users/leilei/Downloads/MasterChefV2/contracts/PancakeProfile.sol\":1841:2160  if (!_contains(set, value)) {... */\n    tag_515:\n      pop\n        /* \"Users/leilei/Downloads/MasterChefV2/contracts/PancakeProfile.sol\":2144:2149  false */\n      0x00\n        /* \"Users/leilei/Downloads/MasterChefV2/contracts/PancakeProfile.sol\":2137:2149  return false */\n      jump(tag_293)\n        /* \"Users/leilei/Downloads/MasterChefV2/contracts/PancakeProfile.sol\":2334:3858  function _remove(Set storage set, bytes32 value) private returns (bool) {... */\n    tag_497:\n        /* \"Users/leilei/Downloads/MasterChefV2/contracts/PancakeProfile.sol\":2400:2404  bool */\n      0x00\n        /* \"Users/leilei/Downloads/MasterChefV2/contracts/PancakeProfile.sol\":2537:2556  set._indexes[value] */\n      dup2\n      dup2\n      mstore\n        /* \"Users/leilei/Downloads/MasterChefV2/contracts/PancakeProfile.sol\":2537:2549  set._indexes */\n      0x01\n      dup4\n      add\n        /* \"Users/leilei/Downloads/MasterChefV2/contracts/PancakeProfile.sol\":2537:2556  set._indexes[value] */\n      0x20\n      mstore\n      0x40\n      dup2\n      keccak256\n      sload\n        /* \"Users/leilei/Downloads/MasterChefV2/contracts/PancakeProfile.sol\":2571:2586  valueIndex != 0 */\n      dup1\n      iszero\n        /* \"Users/leilei/Downloads/MasterChefV2/contracts/PancakeProfile.sol\":2567:3852  if (valueIndex != 0) {... */\n      tag_519\n      jumpi\n        /* \"Users/leilei/Downloads/MasterChefV2/contracts/PancakeProfile.sol\":3012:3030  set._values.length */\n      dup4\n      sload\n      not(0x00)\n        /* \"Users/leilei/Downloads/MasterChefV2/contracts/PancakeProfile.sol\":2964:2978  valueIndex - 1 */\n      dup1\n      dup4\n      add\n      swap2\n        /* \"Users/leilei/Downloads/MasterChefV2/contracts/PancakeProfile.sol\":3012:3034  set._values.length - 1 */\n      swap1\n      dup2\n      add\n      swap1\n        /* \"Users/leilei/Downloads/MasterChefV2/contracts/PancakeProfile.sol\":2940:2961  uint256 toDeleteIndex */\n      0x00\n      swap1\n        /* \"Users/leilei/Downloads/MasterChefV2/contracts/PancakeProfile.sol\":3012:3015  set */\n      dup8\n      swap1\n        /* \"Users/leilei/Downloads/MasterChefV2/contracts/PancakeProfile.sol\":3012:3034  set._values.length - 1 */\n      dup4\n      swap1\n        /* \"Users/leilei/Downloads/MasterChefV2/contracts/PancakeProfile.sol\":3294:3316  set._values[lastIndex] */\n      dup2\n      lt\n      tag_520\n      jumpi\n      invalid\n    tag_520:\n      swap1\n      0x00\n      mstore\n      keccak256(0x00, 0x20)\n      add\n      sload\n        /* \"Users/leilei/Downloads/MasterChefV2/contracts/PancakeProfile.sol\":3274:3316  bytes32 lastvalue = set._values[lastIndex] */\n      swap1\n      pop\n        /* \"Users/leilei/Downloads/MasterChefV2/contracts/PancakeProfile.sol\":3437:3446  lastvalue */\n      dup1\n        /* \"Users/leilei/Downloads/MasterChefV2/contracts/PancakeProfile.sol\":3408:3411  set */\n      dup8\n        /* \"Users/leilei/Downloads/MasterChefV2/contracts/PancakeProfile.sol\":3408:3419  set._values */\n      0x00\n      add\n        /* \"Users/leilei/Downloads/MasterChefV2/contracts/PancakeProfile.sol\":3420:3433  toDeleteIndex */\n      dup5\n        /* \"Users/leilei/Downloads/MasterChefV2/contracts/PancakeProfile.sol\":3408:3434  set._values[toDeleteIndex] */\n      dup2\n      sload\n      dup2\n      lt\n      tag_522\n      jumpi\n      invalid\n    tag_522:\n      0x00\n      swap2\n      dup3\n      mstore\n      0x20\n      dup1\n      dup4\n      keccak256\n      swap1\n      swap2\n      add\n        /* \"Users/leilei/Downloads/MasterChefV2/contracts/PancakeProfile.sol\":3408:3446  set._values[toDeleteIndex] = lastvalue */\n      swap3\n      swap1\n      swap3\n      sstore\n        /* \"Users/leilei/Downloads/MasterChefV2/contracts/PancakeProfile.sol\":3512:3535  set._indexes[lastvalue] */\n      dup3\n      dup2\n      mstore\n        /* \"Users/leilei/Downloads/MasterChefV2/contracts/PancakeProfile.sol\":3554:3555  1 */\n      0x01\n        /* \"Users/leilei/Downloads/MasterChefV2/contracts/PancakeProfile.sol\":3512:3524  set._indexes */\n      dup10\n      dup2\n      add\n        /* \"Users/leilei/Downloads/MasterChefV2/contracts/PancakeProfile.sol\":3512:3535  set._indexes[lastvalue] */\n      swap1\n      swap3\n      mstore\n      0x40\n      swap1\n      keccak256\n        /* \"Users/leilei/Downloads/MasterChefV2/contracts/PancakeProfile.sol\":3538:3555  toDeleteIndex + 1 */\n      swap1\n      dup5\n      add\n        /* \"Users/leilei/Downloads/MasterChefV2/contracts/PancakeProfile.sol\":3512:3555  set._indexes[lastvalue] = toDeleteIndex + 1 */\n      swap1\n      sstore\n        /* \"Users/leilei/Downloads/MasterChefV2/contracts/PancakeProfile.sol\":3661:3678  set._values.pop() */\n      dup7\n      sload\n        /* \"Users/leilei/Downloads/MasterChefV2/contracts/PancakeProfile.sol\":3512:3515  set */\n      dup8\n      swap1\n        /* \"Users/leilei/Downloads/MasterChefV2/contracts/PancakeProfile.sol\":3661:3678  set._values.pop() */\n      dup1\n      tag_524\n      jumpi\n      invalid\n    tag_524:\n      0x01\n      swap1\n      sub\n      dup2\n      dup2\n      swap1\n      0x00\n      mstore\n      keccak256(0x00, 0x20)\n      add\n      0x00\n      swap1\n      sstore\n      swap1\n      sstore\n        /* \"Users/leilei/Downloads/MasterChefV2/contracts/PancakeProfile.sol\":3753:3756  set */\n      dup7\n        /* \"Users/leilei/Downloads/MasterChefV2/contracts/PancakeProfile.sol\":3753:3765  set._indexes */\n      0x01\n      add\n        /* \"Users/leilei/Downloads/MasterChefV2/contracts/PancakeProfile.sol\":3753:3772  set._indexes[value] */\n      0x00\n        /* \"Users/leilei/Downloads/MasterChefV2/contracts/PancakeProfile.sol\":3766:3771  value */\n      dup8\n        /* \"Users/leilei/Downloads/MasterChefV2/contracts/PancakeProfile.sol\":3753:3772  set._indexes[value] */\n      dup2\n      mstore\n      0x20\n      add\n      swap1\n      dup2\n      mstore\n      0x20\n      add\n      0x00\n      keccak256\n        /* \"Users/leilei/Downloads/MasterChefV2/contracts/PancakeProfile.sol\":3746:3772  delete set._indexes[value] */\n      0x00\n      swap1\n      sstore\n        /* \"Users/leilei/Downloads/MasterChefV2/contracts/PancakeProfile.sol\":3794:3798  true */\n      0x01\n        /* \"Users/leilei/Downloads/MasterChefV2/contracts/PancakeProfile.sol\":3787:3798  return true */\n      swap5\n      pop\n      pop\n      pop\n      pop\n      pop\n      jump(tag_293)\n        /* \"Users/leilei/Downloads/MasterChefV2/contracts/PancakeProfile.sol\":2567:3852  if (valueIndex != 0) {... */\n    tag_519:\n        /* \"Users/leilei/Downloads/MasterChefV2/contracts/PancakeProfile.sol\":3836:3841  false */\n      0x00\n        /* \"Users/leilei/Downloads/MasterChefV2/contracts/PancakeProfile.sol\":3829:3841  return false */\n      swap2\n      pop\n      pop\n      jump(tag_293)\n        /* \"Users/leilei/Downloads/MasterChefV2/contracts/PancakeProfile.sol\":14769:15374  function functionCallWithValue(... */\n    tag_512:\n        /* \"Users/leilei/Downloads/MasterChefV2/contracts/PancakeProfile.sol\":14934:14946  bytes memory */\n      0x60\n        /* \"Users/leilei/Downloads/MasterChefV2/contracts/PancakeProfile.sol\":15004:15009  value */\n      dup3\n        /* \"Users/leilei/Downloads/MasterChefV2/contracts/PancakeProfile.sol\":14979:15000  address(this).balance */\n      selfbalance\n        /* \"Users/leilei/Downloads/MasterChefV2/contracts/PancakeProfile.sol\":14979:15009  address(this).balance >= value */\n      lt\n      iszero\n        /* \"Users/leilei/Downloads/MasterChefV2/contracts/PancakeProfile.sol\":14958:15073  require(... */\n      tag_528\n      jumpi\n      mload(0x40)\n      shl(0xe5, 0x461bcd)\n      dup2\n      mstore\n      0x04\n      add\n      dup1\n      dup1\n      0x20\n      add\n      dup3\n      dup2\n      sub\n      dup3\n      mstore\n      0x26\n      dup2\n      mstore\n      0x20\n      add\n      dup1\n      data_565f1a77334fc4792800921178c71e4521acffab18ff9e7885b49377ee80ab4c\n      0x26\n      swap2\n      codecopy\n      0x40\n      add\n      swap2\n      pop\n      pop\n      mload(0x40)\n      dup1\n      swap2\n      sub\n      swap1\n      revert\n    tag_528:\n        /* \"Users/leilei/Downloads/MasterChefV2/contracts/PancakeProfile.sol\":15091:15109  isContract(target) */\n      tag_529\n        /* \"Users/leilei/Downloads/MasterChefV2/contracts/PancakeProfile.sol\":15102:15108  target */\n      dup6\n        /* \"Users/leilei/Downloads/MasterChefV2/contracts/PancakeProfile.sol\":15091:15101  isContract */\n      tag_530\n        /* \"Users/leilei/Downloads/MasterChefV2/contracts/PancakeProfile.sol\":15091:15109  isContract(target) */\n      jump\t// in\n    tag_529:\n        /* \"Users/leilei/Downloads/MasterChefV2/contracts/PancakeProfile.sol\":15083:15143  require(isContract(target), \"Address: call to non-contract\") */\n      tag_531\n      jumpi\n      0x40\n      dup1\n      mload\n      shl(0xe5, 0x461bcd)\n      dup2\n      mstore\n      0x20\n      0x04\n      dup3\n      add\n      mstore\n      0x1d\n      0x24\n      dup3\n      add\n      mstore\n      0x416464726573733a2063616c6c20746f206e6f6e2d636f6e7472616374000000\n      0x44\n      dup3\n      add\n      mstore\n      swap1\n      mload\n      swap1\n      dup2\n      swap1\n      sub\n      0x64\n      add\n      swap1\n      revert\n    tag_531:\n        /* \"Users/leilei/Downloads/MasterChefV2/contracts/PancakeProfile.sol\":15214:15226  bool success */\n      0x00\n        /* \"Users/leilei/Downloads/MasterChefV2/contracts/PancakeProfile.sol\":15228:15251  bytes memory returndata */\n      0x60\n        /* \"Users/leilei/Downloads/MasterChefV2/contracts/PancakeProfile.sol\":15267:15273  target */\n      dup7\n      sub(shl(0xa0, 0x01), 0x01)\n        /* \"Users/leilei/Downloads/MasterChefV2/contracts/PancakeProfile.sol\":15267:15278  target.call */\n      and\n        /* \"Users/leilei/Downloads/MasterChefV2/contracts/PancakeProfile.sol\":15286:15291  value */\n      dup6\n        /* \"Users/leilei/Downloads/MasterChefV2/contracts/PancakeProfile.sol\":15293:15297  data */\n      dup8\n        /* \"Users/leilei/Downloads/MasterChefV2/contracts/PancakeProfile.sol\":15267:15298  target.call{value: value}(data) */\n      mload(0x40)\n      dup1\n      dup3\n      dup1\n      mload\n      swap1\n      0x20\n      add\n      swap1\n      dup1\n      dup4\n      dup4\n        /* \"--CODEGEN--\":36:189   */\n    tag_532:\n        /* \"--CODEGEN--\":66:68   */\n      0x20\n        /* \"--CODEGEN--\":61:64   */\n      dup4\n        /* \"--CODEGEN--\":58:69   */\n      lt\n        /* \"--CODEGEN--\":36:189   */\n      tag_534\n      jumpi\n        /* \"--CODEGEN--\":176:186   */\n      dup1\n      mload\n        /* \"--CODEGEN--\":164:187   */\n      dup3\n      mstore\n      not(0x1f)\n        /* \"--CODEGEN--\":139:151   */\n      swap1\n      swap3\n      add\n      swap2\n        /* \"--CODEGEN--\":98:100   */\n      0x20\n        /* \"--CODEGEN--\":89:101   */\n      swap2\n      dup3\n      add\n      swap2\n        /* \"--CODEGEN--\":114:126   */\n      add\n        /* \"--CODEGEN--\":36:189   */\n      jump(tag_532)\n    tag_534:\n        /* \"--CODEGEN--\":274:275   */\n      0x01\n        /* \"--CODEGEN--\":267:270   */\n      dup4\n        /* \"--CODEGEN--\":263:265   */\n      0x20\n        /* \"--CODEGEN--\":259:271   */\n      sub\n        /* \"--CODEGEN--\":254:257   */\n      0x0100\n        /* \"--CODEGEN--\":250:272   */\n      exp\n        /* \"--CODEGEN--\":246:276   */\n      sub\n        /* \"--CODEGEN--\":315:319   */\n      dup1\n        /* \"--CODEGEN--\":311:320   */\n      not\n        /* \"--CODEGEN--\":305:308   */\n      dup3\n        /* \"--CODEGEN--\":299:309   */\n      mload\n        /* \"--CODEGEN--\":295:321   */\n      and\n        /* \"--CODEGEN--\":356:360   */\n      dup2\n        /* \"--CODEGEN--\":350:353   */\n      dup5\n        /* \"--CODEGEN--\":344:354   */\n      mload\n        /* \"--CODEGEN--\":340:361   */\n      and\n        /* \"--CODEGEN--\":389:396   */\n      dup1\n        /* \"--CODEGEN--\":380:387   */\n      dup3\n        /* \"--CODEGEN--\":377:397   */\n      or\n        /* \"--CODEGEN--\":372:375   */\n      dup6\n        /* \"--CODEGEN--\":365:398   */\n      mstore\n        /* \"--CODEGEN--\":3:402   */\n      pop\n      pop\n      pop\n        /* \"Users/leilei/Downloads/MasterChefV2/contracts/PancakeProfile.sol\":15267:15298  target.call{value: value}(data) */\n      pop\n      pop\n      pop\n      swap1\n      pop\n      add\n      swap2\n      pop\n      pop\n      0x00\n      mload(0x40)\n      dup1\n      dup4\n      sub\n      dup2\n      dup6\n      dup8\n      gas\n      call\n      swap3\n      pop\n      pop\n      pop\n      returndatasize\n        /* \"--CODEGEN--\":12:13   */\n      dup1\n        /* \"--CODEGEN--\":19:20   */\n      0x00\n        /* \"--CODEGEN--\":14:41   */\n      dup2\n      eq\n      tag_537\n      jumpi\n        /* \"--CODEGEN--\":67:71   */\n      0x40\n        /* \"--CODEGEN--\":61:72   */\n      mload\n        /* \"--CODEGEN--\":56:72   */\n      swap2\n      pop\n        /* \"--CODEGEN--\":134:138   */\n      0x1f\n        /* \"--CODEGEN--\":130:139   */\n      not\n        /* \"--CODEGEN--\":123:127   */\n      0x3f\n        /* \"--CODEGEN--\":105:121   */\n      returndatasize\n        /* \"--CODEGEN--\":101:128   */\n      add\n        /* \"--CODEGEN--\":97:140   */\n      and\n        /* \"--CODEGEN--\":94:95   */\n      dup3\n        /* \"--CODEGEN--\":90:141   */\n      add\n        /* \"--CODEGEN--\":84:88   */\n      0x40\n        /* \"--CODEGEN--\":77:142   */\n      mstore\n        /* \"--CODEGEN--\":157:173   */\n      returndatasize\n        /* \"--CODEGEN--\":154:155   */\n      dup3\n        /* \"--CODEGEN--\":147:174   */\n      mstore\n        /* \"--CODEGEN--\":211:227   */\n      returndatasize\n        /* \"--CODEGEN--\":208:209   */\n      0x00\n        /* \"--CODEGEN--\":201:205   */\n      0x20\n        /* \"--CODEGEN--\":198:199   */\n      dup5\n        /* \"--CODEGEN--\":194:206   */\n      add\n        /* \"--CODEGEN--\":179:228   */\n      returndatacopy\n        /* \"--CODEGEN--\":5:233   */\n      jump(tag_536)\n        /* \"--CODEGEN--\":14:41   */\n    tag_537:\n        /* \"--CODEGEN--\":32:36   */\n      0x60\n        /* \"--CODEGEN--\":27:36   */\n      swap2\n      pop\n        /* \"--CODEGEN--\":5:233   */\n    tag_536:\n      pop\n        /* \"Users/leilei/Downloads/MasterChefV2/contracts/PancakeProfile.sol\":15213:15298  (bool success, bytes memory returndata) =... */\n      swap2\n      pop\n      swap2\n      pop\n        /* \"Users/leilei/Downloads/MasterChefV2/contracts/PancakeProfile.sol\":15315:15367  _verifyCallResult(success, returndata, errorMessage) */\n      tag_538\n        /* \"Users/leilei/Downloads/MasterChefV2/contracts/PancakeProfile.sol\":15333:15340  success */\n      dup3\n        /* \"Users/leilei/Downloads/MasterChefV2/contracts/PancakeProfile.sol\":15342:15352  returndata */\n      dup3\n        /* \"Users/leilei/Downloads/MasterChefV2/contracts/PancakeProfile.sol\":15354:15366  errorMessage */\n      dup7\n        /* \"Users/leilei/Downloads/MasterChefV2/contracts/PancakeProfile.sol\":15315:15332  _verifyCallResult */\n      tag_539\n        /* \"Users/leilei/Downloads/MasterChefV2/contracts/PancakeProfile.sol\":15315:15367  _verifyCallResult(success, returndata, errorMessage) */\n      jump\t// in\n    tag_538:\n        /* \"Users/leilei/Downloads/MasterChefV2/contracts/PancakeProfile.sol\":15308:15367  return _verifyCallResult(success, returndata, errorMessage) */\n      swap8\n        /* \"Users/leilei/Downloads/MasterChefV2/contracts/PancakeProfile.sol\":14769:15374  function functionCallWithValue(... */\n      swap7\n      pop\n      pop\n      pop\n      pop\n      pop\n      pop\n      pop\n      jump\t// out\n        /* \"Users/leilei/Downloads/MasterChefV2/contracts/PancakeProfile.sol\":10629:11062  function isContract(address account) internal view returns (bool) {... */\n    tag_530:\n        /* \"Users/leilei/Downloads/MasterChefV2/contracts/PancakeProfile.sol\":11001:11021  extcodesize(account) */\n      extcodesize\n        /* \"Users/leilei/Downloads/MasterChefV2/contracts/PancakeProfile.sol\":11047:11055  size > 0 */\n      iszero\n      iszero\n      swap1\n        /* \"Users/leilei/Downloads/MasterChefV2/contracts/PancakeProfile.sol\":10629:11062  function isContract(address account) internal view returns (bool) {... */\n      jump\t// out\n        /* \"Users/leilei/Downloads/MasterChefV2/contracts/PancakeProfile.sol\":16486:17242  function _verifyCallResult(... */\n    tag_539:\n        /* \"Users/leilei/Downloads/MasterChefV2/contracts/PancakeProfile.sol\":16632:16644  bytes memory */\n      0x60\n        /* \"Users/leilei/Downloads/MasterChefV2/contracts/PancakeProfile.sol\":16660:16667  success */\n      dup4\n        /* \"Users/leilei/Downloads/MasterChefV2/contracts/PancakeProfile.sol\":16656:17236  if (success) {... */\n      iszero\n      tag_542\n      jumpi\n      pop\n        /* \"Users/leilei/Downloads/MasterChefV2/contracts/PancakeProfile.sol\":16690:16700  returndata */\n      dup2\n        /* \"Users/leilei/Downloads/MasterChefV2/contracts/PancakeProfile.sol\":16683:16700  return returndata */\n      jump(tag_503)\n        /* \"Users/leilei/Downloads/MasterChefV2/contracts/PancakeProfile.sol\":16656:17236  if (success) {... */\n    tag_542:\n        /* \"Users/leilei/Downloads/MasterChefV2/contracts/PancakeProfile.sol\":16801:16818  returndata.length */\n      dup3\n      mload\n        /* \"Users/leilei/Downloads/MasterChefV2/contracts/PancakeProfile.sol\":16801:16822  returndata.length > 0 */\n      iszero\n        /* \"Users/leilei/Downloads/MasterChefV2/contracts/PancakeProfile.sol\":16797:17226  if (returndata.length > 0) {... */\n      tag_544\n      jumpi\n        /* \"Users/leilei/Downloads/MasterChefV2/contracts/PancakeProfile.sol\":17059:17069  returndata */\n      dup3\n        /* \"Users/leilei/Downloads/MasterChefV2/contracts/PancakeProfile.sol\":17053:17070  mload(returndata) */\n      mload\n        /* \"Users/leilei/Downloads/MasterChefV2/contracts/PancakeProfile.sol\":17119:17134  returndata_size */\n      dup1\n        /* \"Users/leilei/Downloads/MasterChefV2/contracts/PancakeProfile.sol\":17106:17116  returndata */\n      dup5\n        /* \"Users/leilei/Downloads/MasterChefV2/contracts/PancakeProfile.sol\":17102:17104  32 */\n      0x20\n        /* \"Users/leilei/Downloads/MasterChefV2/contracts/PancakeProfile.sol\":17098:17117  add(32, returndata) */\n      add\n        /* \"Users/leilei/Downloads/MasterChefV2/contracts/PancakeProfile.sol\":17091:17135  revert(add(32, returndata), returndata_size) */\n      revert\n        /* \"Users/leilei/Downloads/MasterChefV2/contracts/PancakeProfile.sol\":17008:17153  {... */\n    tag_544:\n        /* \"Users/leilei/Downloads/MasterChefV2/contracts/PancakeProfile.sol\":17191:17211  revert(errorMessage) */\n      mload(0x40)\n      shl(0xe5, 0x461bcd)\n      dup2\n      mstore\n      0x20\n      0x04\n      dup3\n      add\n      dup2\n      dup2\n      mstore\n      dup5\n      mload\n      0x24\n      dup5\n      add\n      mstore\n      dup5\n      mload\n        /* \"Users/leilei/Downloads/MasterChefV2/contracts/PancakeProfile.sol\":17198:17210  errorMessage */\n      dup6\n      swap4\n        /* \"Users/leilei/Downloads/MasterChefV2/contracts/PancakeProfile.sol\":17191:17211  revert(errorMessage) */\n      swap2\n      swap3\n      dup4\n      swap3\n      0x44\n      add\n      swap2\n      swap1\n      dup6\n      add\n      swap1\n      dup1\n      dup4\n      dup4\n      0x00\n        /* \"--CODEGEN--\":27:37   */\n      dup4\n      iszero\n        /* \"--CODEGEN--\":8:108   */\n      tag_507\n      jumpi\n        /* \"--CODEGEN--\":90:101   */\n      dup2\n      dup2\n      add\n        /* \"--CODEGEN--\":84:102   */\n      mload\n        /* \"--CODEGEN--\":71:82   */\n      dup4\n      dup3\n      add\n        /* \"--CODEGEN--\":64:103   */\n      mstore\n        /* \"--CODEGEN--\":52:54   */\n      0x20\n        /* \"--CODEGEN--\":45:55   */\n      add\n        /* \"--CODEGEN--\":8:108   */\n      jump(tag_505)\n        /* \"Users/leilei/Downloads/MasterChefV2/contracts/PancakeProfile.sol\":47570:66289  contract PancakeProfile is AccessControl, ERC721Holder {... */\n    tag_230:\n      dup3\n      dup1\n      sload\n      0x01\n      dup2\n      0x01\n      and\n      iszero\n      0x0100\n      mul\n      sub\n      and\n      0x02\n      swap1\n      div\n      swap1\n      0x00\n      mstore\n      keccak256(0x00, 0x20)\n      swap1\n      0x1f\n      add\n      0x20\n      swap1\n      div\n      dup2\n      add\n      swap3\n      dup3\n      0x1f\n      lt\n      tag_551\n      jumpi\n      dup1\n      mload\n      not(0xff)\n      and\n      dup4\n      dup1\n      add\n      or\n      dup6\n      sstore\n      jump(tag_553)\n    tag_551:\n      dup3\n      dup1\n      add\n      0x01\n      add\n      dup6\n      sstore\n      dup3\n      iszero\n      tag_553\n      jumpi\n      swap2\n      dup3\n      add\n    tag_552:\n      dup3\n      dup2\n      gt\n      iszero\n      tag_553\n      jumpi\n      dup3\n      mload\n      dup3\n      sstore\n      swap2\n      0x20\n      add\n      swap2\n      swap1\n      0x01\n      add\n      swap1\n      jump(tag_552)\n    tag_553:\n      pop\n      tag_554\n      swap3\n      swap2\n      pop\n      tag_555\n      jump\t// in\n    tag_554:\n      pop\n      swap1\n      jump\t// out\n    tag_291:\n      dup3\n      dup1\n      sload\n      0x01\n      dup2\n      0x01\n      and\n      iszero\n      0x0100\n      mul\n      sub\n      and\n      0x02\n      swap1\n      div\n      swap1\n      0x00\n      mstore\n      keccak256(0x00, 0x20)\n      swap1\n      0x1f\n      add\n      0x20\n      swap1\n      div\n      dup2\n      add\n      swap3\n      dup3\n      0x1f\n      lt\n      tag_557\n      jumpi\n      dup3\n      dup1\n      add\n      not(0xff)\n      dup3\n      calldataload\n      and\n      or\n      dup6\n      sstore\n      jump(tag_553)\n    tag_557:\n      dup3\n      dup1\n      add\n      0x01\n      add\n      dup6\n      sstore\n      dup3\n      iszero\n      tag_553\n      jumpi\n      swap2\n      dup3\n      add\n    tag_558:\n      dup3\n      dup2\n      gt\n      iszero\n      tag_553\n      jumpi\n      dup3\n      calldataload\n      dup3\n      sstore\n      swap2\n      0x20\n      add\n      swap2\n      swap1\n      0x01\n      add\n      swap1\n      jump(tag_558)\n    tag_555:\n      tag_454\n      swap2\n      swap1\n    tag_562:\n      dup1\n      dup3\n      gt\n      iszero\n      tag_554\n      jumpi\n      0x00\n      dup2\n      sstore\n      0x01\n      add\n      jump(tag_562)\n    stop\n    data_045d6834e6193a687012a3ad777f612279e549b6945364d9d2324f48610d3cbb 456e756d657261626c655365743a20696e646578206f7574206f6620626f756e6473\n    data_0ba7116025f1ef6b158a2bd2238e617f30e17c9e456917d901086ca4f8ad2811 416363657373436f6e74726f6c3a2073656e646572206d75737420626520616e2061646d696e20746f206772616e74\n    data_21c3364d55537bf20eb8f05374e9f53f47299e1883c412f1f1135f398f2c2082 5361666542455032303a204245503230206f7065726174696f6e20646964206e6f742073756363656564\n    data_565f1a77334fc4792800921178c71e4521acffab18ff9e7885b49377ee80ab4c 416464726573733a20696e73756666696369656e742062616c616e636520666f722063616c6c\n    data_64344570eab7406ca49d34d38bf2b2496dfda914405390c5057c8b0aabf798a3 416363657373436f6e74726f6c3a2073656e646572206d75737420626520616e2061646d696e20746f207265766f6b65\n    data_fb06fa8ff2141e8ed74502f6792273793f25f0e9d3cf15344f3f5a0d4948fd4b 416363657373436f6e74726f6c3a2063616e206f6e6c792072656e6f756e636520726f6c657320666f722073656c66\n\n    auxdata: 0xa2646970667358221220a0c41ad03786c0b4320f43bc17643eb7921bd90d32c1b98a201a5a80b765493064736f6c63430006040033\n}\n",
				"bytecode": {
					"linkReferences": {},
					"object": "60806040523480156200001157600080fd5b5060405162003e2238038062003e22833981810160405260808110156200003757600080fd5b50805160208201516040830151606090930151600180546001600160a01b0319166001600160a01b0385161790556003829055600484905560058190559192909162000097600062000088620000a1565b6001600160e01b03620000a516565b50505050620001d9565b3390565b620000ba82826001600160e01b03620000be16565b5050565b600082815260208181526040909120620000e3918390620035cc62000140821b17901c565b15620000ba57620000fc6001600160e01b03620000a116565b6001600160a01b0316816001600160a01b0316837f2f8788117e7eff1d82e926ec794901d17c78024a50270940304540a733656f0d60405160405180910390a45050565b600062000160836001600160a01b0384166001600160e01b036200016916565b90505b92915050565b60006200018083836001600160e01b03620001c116565b620001b85750815460018181018455600084815260208082209093018490558454848252828601909352604090209190915562000163565b50600062000163565b60009081526001919091016020526040902054151590565b613c3980620001e96000396000f3fe608060405234801561001057600080fd5b50600436106102485760003560e01c8063a217fddf1161013b578063d547741f116100b8578063ea0d5dcd1161007c578063ea0d5dcd14610a68578063ebc4ffc714610a8e578063f667526a14610aab578063f684f33c14610ac8578063fd825f5814610ad057610248565b8063d547741f14610968578063da83fe4a14610994578063da95006d146109c0578063e2fa2ff3146109c8578063e5020a6214610a3c57610248565b8063bf051c13116100ff578063bf051c1314610910578063c1694a2f14610918578063c9bed94814610920578063ca15c87314610928578063d1d0954c1461094557610248565b8063a217fddf14610755578063a40601ee1461075d578063a56bd1de14610789578063aee2f47f146107f7578063be4f9bd61461090857610248565b806336568abe116101c95780638904bf2f1161018d5780638904bf2f146106455780639010d07c1461066957806391d148541461068c578063987ee156146106cc578063a0d035261461072f57610248565b806336568abe1461051e5780633dd452d61461054a57806349b2cff5146105525780635da3c2401461055a5780635db345661461058057610248565b80631e47a476116102105780631e47a47614610466578063218188d71461048f578063248a9ca3146104ac5780632daa72d4146104c95780632f2ff15d146104f257610248565b80630a82697b1461024d5780630d4fb8031461027b578063150b7a02146103395780631bdc17f61461041a5780631d0c02b91461044c575b600080fd5b6102796004803603604081101561026357600080fd5b506001600160a01b038135169060200135610b02565b005b6102796004803603604081101561029157600080fd5b810190602081018135600160201b8111156102ab57600080fd5b8201836020820111156102bd57600080fd5b803590602001918460018302840111600160201b831117156102de57600080fd5b919390929091602081019035600160201b8111156102fb57600080fd5b82018360208201111561030d57600080fd5b803590602001918460018302840111600160201b8311171561032e57600080fd5b509092509050610fab565b6103fd6004803603608081101561034f57600080fd5b6001600160a01b03823581169260208101359091169160408201359190810190608081016060820135600160201b81111561038957600080fd5b82018360208201111561039b57600080fd5b803590602001918460018302840111600160201b831117156103bc57600080fd5b91908080601f016020809104026020016040519081016040528093929190818152602001838380828437600092019190915250929550611254945050505050565b604080516001600160e01b03199092168252519081900360200190f35b6102796004803603606081101561043057600080fd5b506001600160a01b038135169060208101359060400135611264565b610454611359565b60408051918252519081900360200190f35b6102796004803603606081101561047c57600080fd5b508035906020810135906040013561135f565b610279600480360360208110156104a557600080fd5b5035611449565b610454600480360360208110156104c257600080fd5b503561150b565b610279600480360360608110156104df57600080fd5b5080359060208101359060400135611520565b6102796004803603604081101561050857600080fd5b50803590602001356001600160a01b0316611581565b6102796004803603604081101561053457600080fd5b50803590602001356001600160a01b03166115e8565b610454611649565b61045461164f565b6102796004803603602081101561057057600080fd5b50356001600160a01b0316611655565b6102796004803603606081101561059657600080fd5b81359190810190604081016020820135600160201b8111156105b757600080fd5b8201836020820111156105c957600080fd5b803590602001918460018302840111600160201b831117156105ea57600080fd5b919390929091602081019035600160201b81111561060757600080fd5b82018360208201111561061957600080fd5b803590602001918460018302840111600160201b8311171561063a57600080fd5b509092509050611789565b61064d611936565b604080516001600160a01b039092168252519081900360200190f35b61064d6004803603604081101561067f57600080fd5b5080359060200135611945565b6106b8600480360360408110156106a257600080fd5b50803590602001356001600160a01b031661196c565b604080519115158252519081900360200190f35b6106f2600480360360208110156106e257600080fd5b50356001600160a01b031661198a565b604080519687526020870195909552858501939093526001600160a01b0390911660608501526080840152151560a0830152519081900360c00190f35b6106b86004803603602081101561074557600080fd5b50356001600160a01b0316611a3d565b610454611a52565b6102796004803603604081101561077357600080fd5b506001600160a01b038135169060200135611a57565b6102796004803603604081101561079f57600080fd5b810190602081018135600160201b8111156107b957600080fd5b8201836020820111156107cb57600080fd5b803590602001918460208302840111600160201b831117156107ec57600080fd5b919350915035611ed7565b6108146004803603602081101561080d57600080fd5b5035612050565b6040805190810184905260608101839052811515608082015260a08082528651908201528551819060208083019160c08401918a019080838360005b83811015610868578181015183820152602001610850565b50505050905090810190601f1680156108955780820380516001836020036101000a031916815260200191505b50838103825287518152875160209182019189019080838360005b838110156108c85781810151838201526020016108b0565b50505050905090810190601f1680156108f55780820380516001836020036101000a031916815260200191505b5097505050505050505060405180910390f35b610454612209565b61045461220f565b610279612233565b6104546125a8565b6104546004803603602081101561093e57600080fd5b50356125ca565b6102796004803603604081101561095b57600080fd5b50803590602001356125e1565b6102796004803603604081101561097e57600080fd5b50803590602001356001600160a01b031661268c565b610279600480360360408110156109aa57600080fd5b506001600160a01b0381351690602001356126e5565b6104546127a4565b610279600480360360608110156109de57600080fd5b810190602081018135600160201b8111156109f857600080fd5b820183602082011115610a0a57600080fd5b803590602001918460208302840111600160201b83111715610a2b57600080fd5b9193509150803590602001356127aa565b61027960048036036040811015610a5257600080fd5b506001600160a01b038135169060200135612990565b6106b860048036036020811015610a7e57600080fd5b50356001600160a01b0316612c6c565b61027960048036036020811015610aa457600080fd5b5035612c8d565b61027960048036036020811015610ac157600080fd5b5035612d52565b610454612dc9565b61027960048036036060811015610ae657600080fd5b508035906001600160a01b036020820135169060400135612de9565b60076000610b0e6132b2565b6001600160a01b0316815260208101919091526040016000205460ff16610b71576040805162461bcd60e51b815260206004820152601260248201527112185cc81b9bdd081c9959da5cdd195c995960721b604482015290519081900360640190fd5b60408051674e46545f524f4c4560c01b81529051908190036008019020610b98908361196c565b610bdf576040805162461bcd60e51b8152602060048201526013602482015272139195081859191c995cdcc81a5b9d985b1a59606a1b604482015290519081900360640190fd5b60096000610beb6132b2565b6001600160a01b0316815260208101919091526040016000206005015460ff16610c4e576040805162461bcd60e51b815260206004820152600f60248201526e55736572206e6f742061637469766560881b604482015290519081900360640190fd5b600060096000610c5c6132b2565b6001600160a01b03908116825260208201929092526040016000908120600301549091169150600981610c8d6132b2565b6001600160a01b03166001600160a01b031681526020019081526020016000206004015490506000849050806001600160a01b0316636352211e856040518263ffffffff1660e01b81526004018082815260200191505060206040518083038186803b158015610cfc57600080fd5b505afa158015610d10573d6000803e3d6000fd5b505050506040513d6020811015610d2657600080fd5b50516001600160a01b0316610d396132b2565b6001600160a01b031614610d90576040805162461bcd60e51b81526020600482015260196024820152784f6e6c79204e4654206f776e65722063616e2075706461746560381b604482015290519081900360640190fd5b806001600160a01b03166342842e0e610da76132b2565b604080516001600160e01b031960e085901b1681526001600160a01b0390921660048301523060248301526044820188905251606480830192600092919082900301818387803b158015610dfa57600080fd5b505af1158015610e0e573d6000803e3d6000fd5b50505050610e3b610e1d6132b2565b6005546001546001600160a01b03169190309063ffffffff6132b716565b826001600160a01b0381166342842e0e30610e546132b2565b866040518463ffffffff1660e01b815260040180846001600160a01b03166001600160a01b03168152602001836001600160a01b03166001600160a01b031681526020018281526020019350505050600060405180830381600087803b158015610ebd57600080fd5b505af1158015610ed1573d6000803e3d6000fd5b505050508560096000610ee26132b2565b6001600160a01b03166001600160a01b0316815260200190815260200160002060030160006101000a8154816001600160a01b0302191690836001600160a01b031602179055508460096000610f366132b2565b6001600160a01b03168152602081019190915260400160002060040155610f5b6132b2565b604080516001600160a01b0389811682526020820189905282519316927fe8e88d4216f3bbc2d1a4dd55aa66fd3e0065ef03970fa056a19d018ca19d5805929181900390910190a2505050505050565b610fbd6000610fb86132b2565b61196c565b611003576040805162461bcd60e51b81526020600482015260126024820152712737ba103a34329036b0b4b71030b236b4b760711b604482015290519081900360640190fd5b606084848080601f0160208091040260200160405190810160405280939291908181526020018383808284376000920191909152505082519293505060149091109050611086576040805162461bcd60e51b815260206004820152600c60248201526b04d757374206265203c2032360a41b604482015290519081900360640190fd5b60038151116110ca576040805162461bcd60e51b815260206004820152600b60248201526a4d757374206265203e203360a81b604482015290519081900360640190fd5b6110d4600a613311565b60006110e0600a61331a565b6040805160c06020601f8a01819004028201810190925260a081018881529293509182918990899081908501838280828437600092019190915250505090825250604080516020601f880181900481028201810190925286815291810191908790879081908401838280828437600092018290525093855250505060208083018290526040808401839052600160609094019390935284825260088152919020825180519192611195928492909101906139fd565b5060208281015180516111ae92600185019201906139fd565b50604082810151600283015560608084015160038401556080909301516004909201805460ff19169215159290921790915560068390558051838152602081018281529181018890527f1137f48534f03e02268dec7839069a7484bc6788c43e4ed9dc38dd8a2f269bc79284928a928a929091908201848480828437600083820152604051601f909101601f1916909201829003965090945050505050a1505050505050565b630a85bd0160e11b949350505050565b6040805169504f494e545f524f4c4560b01b8152905190819003600a01902061128f90610fb86132b2565b6112d4576040805162461bcd60e51b81526020600482015260116024820152702737ba1030903837b4b73a1030b236b4b760791b604482015290519081900360640190fd5b6001600160a01b038316600090815260096020526040902060010154611300908363ffffffff61331e16565b6001600160a01b038416600081815260096020908152604091829020600101939093558051858152905184937f04bc07bcb78bb21e5665cf01cd24f6a6a06e21fd20d60df8f0fa8d58c66f2934928290030190a3505050565b60055481565b6040805169504f494e545f524f4c4560b01b8152905190819003600a01902061138a90610fb86132b2565b6113cf576040805162461bcd60e51b81526020600482015260116024820152702737ba1030903837b4b73a1030b236b4b760791b604482015290519081900360640190fd5b6000838152600860205260409020600301546113f1908363ffffffff61331e16565b600860008581526020019081526020016000206003018190555080837f2056366a9d1345af9da00985231357931fb77dc7fa7bdf71058e3ca3816f9d38846040518082815260200191505060405180910390a3505050565b6114566000610fb86132b2565b61149c576040805162461bcd60e51b81526020600482015260126024820152712737ba103a34329036b0b4b71030b236b4b760711b604482015290519081900360640190fd5b60065481111580156114ae5750600081115b6114f0576040805162461bcd60e51b815260206004820152600e60248201526d1d19585b5259081a5b9d985b1a5960921b604482015290519081900360640190fd5b6000908152600860205260409020600401805460ff19169055565b60009081526020819052604090206002015490565b61152d6000610fb86132b2565b611573576040805162461bcd60e51b81526020600482015260126024820152712737ba103a34329036b0b4b71030b236b4b760711b604482015290519081900360640190fd5b600392909255600455600555565b60008281526020819052604090206002015461159f90610fb86132b2565b6115da5760405162461bcd60e51b815260040180806020018281038252602f815260200180613b26602f913960400191505060405180910390fd5b6115e48282613378565b5050565b6115f06132b2565b6001600160a01b0316816001600160a01b03161461163f5760405162461bcd60e51b815260040180806020018281038252602f815260200180613bd5602f913960400191505060405180910390fd5b6115e482826133e7565b60065481565b60045481565b6116626000610fb86132b2565b6116a8576040805162461bcd60e51b81526020600482015260126024820152712737ba103a34329036b0b4b71030b236b4b760711b604482015290519081900360640190fd5b604080516301ffc9a760e01b81526380ac58cd60e01b600482015290516001600160a01b038316916301ffc9a7916024808301926020929190829003018186803b1580156116f557600080fd5b505afa158015611709573d6000803e3d6000fd5b505050506040513d602081101561171f57600080fd5b505161175f576040805162461bcd60e51b815260206004820152600a6024820152694e6f742045524337323160b01b604482015290519081900360640190fd5b60408051674e46545f524f4c4560c01b815290519081900360080190206117869082611581565b50565b6117966000610fb86132b2565b6117dc576040805162461bcd60e51b81526020600482015260126024820152712737ba103a34329036b0b4b71030b236b4b760711b604482015290519081900360640190fd5b60065485111580156117ee5750600085115b611830576040805162461bcd60e51b815260206004820152600e60248201526d1d19585b5259081a5b9d985b1a5960921b604482015290519081900360640190fd5b606084848080601f01602080910402602001604051908101604052809392919081815260200183838082843760009201919091525050825192935050601490911090506118b3576040805162461bcd60e51b815260206004820152600c60248201526b04d757374206265203c2032360a41b604482015290519081900360640190fd5b60038151116118f7576040805162461bcd60e51b815260206004820152600b60248201526a4d757374206265203e203360a81b604482015290519081900360640190fd5b6000868152600860205260409020611910908686613a7b565b50600086815260086020526040902061192d906001018484613a7b565b50505050505050565b6001546001600160a01b031681565b6000828152602081905260408120611963908363ffffffff61345616565b90505b92915050565b6000828152602081905260408120611963908363ffffffff61346216565b6001600160a01b0381166000908152600760205260408120548190819081908190819060ff166119f2576040805162461bcd60e51b815260206004820152600e60248201526d139bdd081c9959da5cdd195c995960921b604482015290519081900360640190fd5b505050506001600160a01b039283166000908152600960205260409020805460018201546002830154600384015460048501546005909501549398929791965016935060ff90911690565b60076020526000908152604090205460ff1681565b600081565b60076000611a636132b2565b6001600160a01b0316815260208101919091526040016000205460ff16611ac6576040805162461bcd60e51b815260206004820152601260248201527112185cc81b9bdd081c9959da5cdd195c995960721b604482015290519081900360640190fd5b60408051674e46545f524f4c4560c01b81529051908190036008019020611aed908361196c565b611b34576040805162461bcd60e51b8152602060048201526013602482015272139195081859191c995cdcc81a5b9d985b1a59606a1b604482015290519081900360640190fd5b60096000611b406132b2565b6001600160a01b0316815260208101919091526040016000206005015460ff1615611ba3576040805162461bcd60e51b815260206004820152600e60248201526d557365722069732061637469766560901b604482015290519081900360640190fd5b6000829050806001600160a01b0316636352211e836040518263ffffffff1660e01b81526004018082815260200191505060206040518083038186803b158015611bec57600080fd5b505afa158015611c00573d6000803e3d6000fd5b505050506040513d6020811015611c1657600080fd5b50516001600160a01b0316611c296132b2565b6001600160a01b031614611c80576040805162461bcd60e51b81526020600482015260196024820152784f6e6c79204e4654206f776e65722063616e2075706461746560381b604482015290519081900360640190fd5b611ca9611c8b6132b2565b6003546001546001600160a01b03169190309063ffffffff6132b716565b806001600160a01b03166342842e0e611cc06132b2565b604080516001600160e01b031960e085901b1681526001600160a01b0390921660048301523060248301526044820186905251606480830192600092919082900301818387803b158015611d1357600080fd5b505af1158015611d27573d6000803e3d6000fd5b50505050600060096000611d396132b2565b6001600160a01b03166001600160a01b03168152602001908152602001600020600201549050611d896001600860008481526020019081526020016000206002015461331e90919063ffffffff16565b600082815260086020526040902060029081019190915554611db290600163ffffffff61331e16565b600255600160096000611dc36132b2565b6001600160a01b03166001600160a01b0316815260200190815260200160002060050160006101000a81548160ff0219169083151502179055508360096000611e0a6132b2565b6001600160a01b03166001600160a01b0316815260200190815260200160002060030160006101000a8154816001600160a01b0302191690836001600160a01b031602179055508260096000611e5e6132b2565b6001600160a01b03168152602081019190915260400160002060040155611e836132b2565b604080518381526001600160a01b038781166020830152818301879052915192909116917fdb76eea80687b6553e5d689ff9d000c0ce2c10574b39d64cacc2b4f6f54f68389181900360600190a250505050565b6040805169504f494e545f524f4c4560b01b8152905190819003600a019020611f0290610fb86132b2565b611f47576040805162461bcd60e51b81526020600482015260116024820152702737ba1030903837b4b73a1030b236b4b760791b604482015290519081900360640190fd5b6103e98210611f95576040805162461bcd60e51b81526020600482015260156024820152744c656e677468206d757374206265203c203130303160581b604482015290519081900360640190fd5b60005b8281101561204a57611ff68260096000878786818110611fb457fe5b905060200201356001600160a01b03166001600160a01b03166001600160a01b031681526020019081526020016000206001015461347790919063ffffffff16565b6009600086868581811061200657fe5b905060200201356001600160a01b03166001600160a01b03166001600160a01b03168152602001908152602001600020600101819055508080600101915050611f98565b50505050565b6060806000806000600654861115801561206a5750600086115b6120ac576040805162461bcd60e51b815260206004820152600e60248201526d1d19585b5259081a5b9d985b1a5960921b604482015290519081900360640190fd5b6000868152600860209081526040918290206002808201546003830154600484015484548751601f6000196001848116156101000291909101909316969096049586018890048802810188019098528488529496948701959294919360ff909116928791908301828280156121625780601f1061213757610100808354040283529160200191612162565b820191906000526020600020905b81548152906001019060200180831161214557829003601f168201915b5050875460408051602060026001851615610100026000190190941693909304601f8101849004840282018401909252818152959a50899450925084019050828280156121f05780601f106121c5576101008083540402835291602001916121f0565b820191906000526020600020905b8154815290600101906020018083116121d357829003601f168201915b50989f939e50959c50939a509198509650505050505050565b60025481565b604080516b5350454349414c5f524f4c4560a01b8152905190819003600c01902081565b6007600061223f6132b2565b6001600160a01b0316815260208101919091526040016000205460ff166122a2576040805162461bcd60e51b815260206004820152601260248201527112185cc81b9bdd081c9959da5cdd195c995960721b604482015290519081900360640190fd5b600960006122ae6132b2565b6001600160a01b0316815260208101919091526040016000206005015460ff16612311576040805162461bcd60e51b815260206004820152600f60248201526e55736572206e6f742061637469766560881b604482015290519081900360640190fd5b60006009600061231f6132b2565b6001600160a01b0316815260208101919091526040016000908120600501805460ff1916921515929092179091556009816123586132b2565b6001600160a01b03166001600160a01b031681526020019081526020016000206002015490506123a86001600860008481526020019081526020016000206002015461347790919063ffffffff16565b6000828152600860205260409020600290810191909155546123d190600163ffffffff61347716565b60025560006009816123e16132b2565b6001600160a01b039081168252602082019290925260400160009081206003015490911691506009816124126132b2565b6001600160a01b03166001600160a01b031681526020019081526020016000206004015490506000600960006124466132b2565b6001600160a01b03166001600160a01b0316815260200190815260200160002060030160006101000a8154816001600160a01b0302191690836001600160a01b0316021790555060006009600061249b6132b2565b6001600160a01b03166001600160a01b0316815260200190815260200160002060040181905550816001600160a01b03166342842e0e306124da6132b2565b846040518463ffffffff1660e01b815260040180846001600160a01b03166001600160a01b03168152602001836001600160a01b03166001600160a01b031681526020018281526020019350505050600060405180830381600087803b15801561254357600080fd5b505af1158015612557573d6000803e3d6000fd5b505050506125636132b2565b6001600160a01b03167fe0ed25582c4d86fd51bfe26383781fc8bbf5636813cbfdf93c440b5828c93040846040518082815260200191505060405180910390a2505050565b6040805169504f494e545f524f4c4560b01b8152905190819003600a01902081565b6000818152602081905260408120611966906134b9565b6040805169504f494e545f524f4c4560b01b8152905190819003600a01902061260c90610fb86132b2565b612651576040805162461bcd60e51b81526020600482015260116024820152702737ba1030903837b4b73a1030b236b4b760791b604482015290519081900360640190fd5b600082815260086020526040902060030154612673908263ffffffff61347716565b6000928352600860205260409092206003019190915550565b6000828152602081905260409020600201546126aa90610fb86132b2565b61163f5760405162461bcd60e51b8152600401808060200182810382526030815260200180613ba56030913960400191505060405180910390fd5b6040805169504f494e545f524f4c4560b01b8152905190819003600a01902061271090610fb86132b2565b612755576040805162461bcd60e51b81526020600482015260116024820152702737ba1030903837b4b73a1030b236b4b760791b604482015290519081900360640190fd5b6001600160a01b038216600090815260096020526040902060010154612781908263ffffffff61347716565b6001600160a01b0390921660009081526009602052604090206001019190915550565b60035481565b6040805169504f494e545f524f4c4560b01b8152905190819003600a0190206127d590610fb86132b2565b61281a576040805162461bcd60e51b81526020600482015260116024820152702737ba1030903837b4b73a1030b236b4b760791b604482015290519081900360640190fd5b6103e98310612868576040805162461bcd60e51b81526020600482015260156024820152744c656e677468206d757374206265203c203130303160581b604482015290519081900360640190fd5b60005b8381101561291d576128c9836009600088888681811061288757fe5b905060200201356001600160a01b03166001600160a01b03166001600160a01b031681526020019081526020016000206001015461331e90919063ffffffff16565b600960008787858181106128d957fe5b905060200201356001600160a01b03166001600160a01b03166001600160a01b0316815260200190815260200160002060010181905550808060010191505061286b565b50807f473f8fafa9bb6f152b95565955b672a2c8b798b9c0a7c17f2e43bd4577f972de85858560405180806020018381526020018281038252858582818152602001925060200280828437600083820152604051601f909101601f1916909201829003965090945050505050a250505050565b604080516b5350454349414c5f524f4c4560a01b8152905190819003600c0190206129bd90610fb86132b2565b612a04576040805162461bcd60e51b81526020600482015260136024820152722737ba10309039b832b1b4b0b61030b236b4b760691b604482015290519081900360640190fd5b6001600160a01b03821660009081526007602052604090205460ff16612a66576040805162461bcd60e51b8152602060048201526012602482015271155cd95c88191bd95cdb89dd08195e1a5cdd60721b604482015290519081900360640190fd5b6006548111158015612a785750600081115b612ac0576040805162461bcd60e51b81526020600482015260146024820152731d19585b525908191bd95cdb89dd08195e1a5cdd60621b604482015290519081900360640190fd5b60008181526008602052604090206004015460ff16612b1a576040805162461bcd60e51b81526020600482015260116024820152705465616d206e6f74206a6f696e61626c6560781b604482015290519081900360640190fd5b6001600160a01b038216600090815260096020526040902060020154811415612b80576040805162461bcd60e51b8152602060048201526013602482015272416c726561647920696e20746865207465616d60681b604482015290519081900360640190fd5b6001600160a01b03821660009081526009602090815260408083206002908101548085526008909352922090910154612bc090600163ffffffff61347716565b60008281526008602081815260408084206002908101959095556001600160a01b038816845260098252808420850187905586845291905290200154612c0d90600163ffffffff61331e16565b60008381526008602090815260409182902060020192909255805183815291820184905280516001600160a01b038616927f74c08ece62e2369a06a4cac8609fd31e7f3ae99e0dbedbc2bfcf0b9397d9a69192908290030190a2505050565b6001600160a01b031660009081526009602052604090206005015460ff1690565b612c9a6000610fb86132b2565b612ce0576040805162461bcd60e51b81526020600482015260126024820152712737ba103a34329036b0b4b71030b236b4b760711b604482015290519081900360640190fd5b6006548111158015612cf25750600081115b612d34576040805162461bcd60e51b815260206004820152600e60248201526d1d19585b5259081a5b9d985b1a5960921b604482015290519081900360640190fd5b6000908152600860205260409020600401805460ff19166001179055565b612d5f6000610fb86132b2565b612da5576040805162461bcd60e51b81526020600482015260126024820152712737ba103a34329036b0b4b71030b236b4b760711b604482015290519081900360640190fd5b611786612db06132b2565b6001546001600160a01b0316908363ffffffff6134c416565b60408051674e46545f524f4c4560c01b8152905190819003600801902081565b60076000612df56132b2565b6001600160a01b0316815260208101919091526040016000205460ff1615612e59576040805162461bcd60e51b8152602060048201526012602482015271105b1c9958591e481c9959da5cdd195c995960721b604482015290519081900360640190fd5b6006548311158015612e6b5750600083115b612ead576040805162461bcd60e51b815260206004820152600e60248201526d125b9d985b1a59081d19585b525960921b604482015290519081900360640190fd5b60008381526008602052604090206004015460ff16612f07576040805162461bcd60e51b81526020600482015260116024820152705465616d206e6f74206a6f696e61626c6560781b604482015290519081900360640190fd5b60408051674e46545f524f4c4560c01b81529051908190036008019020612f2e908361196c565b612f75576040805162461bcd60e51b8152602060048201526013602482015272139195081859191c995cdcc81a5b9d985b1a59606a1b604482015290519081900360640190fd5b6000829050806001600160a01b0316636352211e836040518263ffffffff1660e01b81526004018082815260200191505060206040518083038186803b158015612fbe57600080fd5b505afa158015612fd2573d6000803e3d6000fd5b505050506040513d6020811015612fe857600080fd5b50516001600160a01b0316612ffb6132b2565b6001600160a01b031614613056576040805162461bcd60e51b815260206004820152601b60248201527f4f6e6c79204e4654206f776e65722063616e2072656769737465720000000000604482015290519081900360640190fd5b806001600160a01b03166342842e0e61306d6132b2565b604080516001600160e01b031960e085901b1681526001600160a01b0390921660048301523060248301526044820186905251606480830192600092919082900301818387803b1580156130c057600080fd5b505af11580156130d4573d6000803e3d6000fd5b505050506131016130e36132b2565b6004546001546001600160a01b03169190309063ffffffff6132b716565b61310b600b613311565b6000613117600b61331a565b90506040518060c0016040528082815260200160008152602001868152602001856001600160a01b03168152602001848152602001600115158152506009600061315f6132b2565b6001600160a01b03908116825260208083019390935260409182016000908120855181559385015160018086019190915592850151600285015560608501516003850180546001600160a01b03191691909316179091556080840151600484015560a0909301516005909201805460ff191692151592909217909155906007906131e76132b2565b6001600160a01b031681526020810191909152604001600020805460ff191691151591909117905560025461321d90600161331e565b60029081556000868152600860205260409020015461324390600163ffffffff61331e16565b60008681526008602052604090206002015561325d6132b2565b604080518781526001600160a01b038781166020830152818301879052915192909116917f628915737ae1dae037b128d0892692746d4e63e2f72632781c0a08f7168b1be89181900360600190a25050505050565b335b90565b604080516001600160a01b0380861660248301528416604482015260648082018490528251808303909101815260849091019091526020810180516001600160e01b03166323b872dd60e01b17905261204a90859061351b565b80546001019055565b5490565b600082820183811015611963576040805162461bcd60e51b815260206004820152601b60248201527f536166654d6174683a206164646974696f6e206f766572666c6f770000000000604482015290519081900360640190fd5b6000828152602081905260409020613396908263ffffffff6135cc16565b156115e4576133a36132b2565b6001600160a01b0316816001600160a01b0316837f2f8788117e7eff1d82e926ec794901d17c78024a50270940304540a733656f0d60405160405180910390a45050565b6000828152602081905260409020613405908263ffffffff6135e116565b156115e4576134126132b2565b6001600160a01b0316816001600160a01b0316837ff6391f5c32d9c69d2a47ea670b442974b53935d1edc7fd64eb21e047a839171b60405160405180910390a45050565b600061196383836135f6565b6000611963836001600160a01b03841661365a565b600061196383836040518060400160405280601e81526020017f536166654d6174683a207375627472616374696f6e206f766572666c6f770000815250613672565b60006119668261331a565b604080516001600160a01b038416602482015260448082018490528251808303909101815260649091019091526020810180516001600160e01b031663a9059cbb60e01b17905261351690849061351b565b505050565b6060613570826040518060400160405280602081526020017f5361666542455032303a206c6f772d6c6576656c2063616c6c206661696c6564815250856001600160a01b031661370e9092919063ffffffff16565b8051909150156135165780806020019051602081101561358f57600080fd5b50516135165760405162461bcd60e51b815260040180806020018281038252602a815260200180613b55602a913960400191505060405180910390fd5b6000611963836001600160a01b038416613725565b6000611963836001600160a01b03841661376f565b815460009082106136385760405162461bcd60e51b8152600401808060200182810382526022815260200180613b046022913960400191505060405180910390fd5b82600001828154811061364757fe5b9060005260206000200154905092915050565b60009081526001919091016020526040902054151590565b600081848411156137015760405162461bcd60e51b81526004018080602001828103825283818151815260200191508051906020019080838360005b838110156136c65781810151838201526020016136ae565b50505050905090810190601f1680156136f35780820380516001836020036101000a031916815260200191505b509250505060405180910390fd5b50508183035b9392505050565b606061371d8484600085613835565b949350505050565b6000613731838361365a565b61376757508154600181810184556000848152602080822090930184905584548482528286019093526040902091909155611966565b506000611966565b6000818152600183016020526040812054801561382b57835460001980830191908101906000908790839081106137a257fe5b90600052602060002001549050808760000184815481106137bf57fe5b6000918252602080832090910192909255828152600189810190925260409020908401905586548790806137ef57fe5b60019003818190600052602060002001600090559055866001016000878152602001908152602001600020600090556001945050505050611966565b6000915050611966565b6060824710156138765760405162461bcd60e51b8152600401808060200182810382526026815260200180613b7f6026913960400191505060405180910390fd5b61387f85613991565b6138d0576040805162461bcd60e51b815260206004820152601d60248201527f416464726573733a2063616c6c20746f206e6f6e2d636f6e7472616374000000604482015290519081900360640190fd5b60006060866001600160a01b031685876040518082805190602001908083835b6020831061390f5780518252601f1990920191602091820191016138f0565b6001836020036101000a03801982511681845116808217855250505050505090500191505060006040518083038185875af1925050503d8060008114613971576040519150601f19603f3d011682016040523d82523d6000602084013e613976565b606091505b5091509150613986828286613997565b979650505050505050565b3b151590565b606083156139a6575081613707565b8251156139b65782518084602001fd5b60405162461bcd60e51b81526020600482018181528451602484015284518593919283926044019190850190808383600083156136c65781810151838201526020016136ae565b828054600181600116156101000203166002900490600052602060002090601f016020900481019282601f10613a3e57805160ff1916838001178555613a6b565b82800160010185558215613a6b579182015b82811115613a6b578251825591602001919060010190613a50565b50613a77929150613ae9565b5090565b828054600181600116156101000203166002900490600052602060002090601f016020900481019282601f10613abc5782800160ff19823516178555613a6b565b82800160010185558215613a6b579182015b82811115613a6b578235825591602001919060010190613ace565b6132b491905b80821115613a775760008155600101613aef56fe456e756d657261626c655365743a20696e646578206f7574206f6620626f756e6473416363657373436f6e74726f6c3a2073656e646572206d75737420626520616e2061646d696e20746f206772616e745361666542455032303a204245503230206f7065726174696f6e20646964206e6f742073756363656564416464726573733a20696e73756666696369656e742062616c616e636520666f722063616c6c416363657373436f6e74726f6c3a2073656e646572206d75737420626520616e2061646d696e20746f207265766f6b65416363657373436f6e74726f6c3a2063616e206f6e6c792072656e6f756e636520726f6c657320666f722073656c66a2646970667358221220a0c41ad03786c0b4320f43bc17643eb7921bd90d32c1b98a201a5a80b765493064736f6c63430006040033",
					"opcodes": "PUSH1 0x80 PUSH1 0x40 MSTORE CALLVALUE DUP1 ISZERO PUSH3 0x11 JUMPI PUSH1 0x0 DUP1 REVERT JUMPDEST POP PUSH1 0x40 MLOAD PUSH3 0x3E22 CODESIZE SUB DUP1 PUSH3 0x3E22 DUP4 CODECOPY DUP2 DUP2 ADD PUSH1 0x40 MSTORE PUSH1 0x80 DUP2 LT ISZERO PUSH3 0x37 JUMPI PUSH1 0x0 DUP1 REVERT JUMPDEST POP DUP1 MLOAD PUSH1 0x20 DUP3 ADD MLOAD PUSH1 0x40 DUP4 ADD MLOAD PUSH1 0x60 SWAP1 SWAP4 ADD MLOAD PUSH1 0x1 DUP1 SLOAD PUSH1 0x1 PUSH1 0x1 PUSH1 0xA0 SHL SUB NOT AND PUSH1 0x1 PUSH1 0x1 PUSH1 0xA0 SHL SUB DUP6 AND OR SWAP1 SSTORE PUSH1 0x3 DUP3 SWAP1 SSTORE PUSH1 0x4 DUP5 SWAP1 SSTORE PUSH1 0x5 DUP2 SWAP1 SSTORE SWAP2 SWAP3 SWAP1 SWAP2 PUSH3 0x97 PUSH1 0x0 PUSH3 0x88 PUSH3 0xA1 JUMP JUMPDEST PUSH1 0x1 PUSH1 0x1 PUSH1 0xE0 SHL SUB PUSH3 0xA5 AND JUMP JUMPDEST POP POP POP POP PUSH3 0x1D9 JUMP JUMPDEST CALLER SWAP1 JUMP JUMPDEST PUSH3 0xBA DUP3 DUP3 PUSH1 0x1 PUSH1 0x1 PUSH1 0xE0 SHL SUB PUSH3 0xBE AND JUMP JUMPDEST POP POP JUMP JUMPDEST PUSH1 0x0 DUP3 DUP2 MSTORE PUSH1 0x20 DUP2 DUP2 MSTORE PUSH1 0x40 SWAP1 SWAP2 KECCAK256 PUSH3 0xE3 SWAP2 DUP4 SWAP1 PUSH3 0x35CC PUSH3 0x140 DUP3 SHL OR SWAP1 SHR JUMP JUMPDEST ISZERO PUSH3 0xBA JUMPI PUSH3 0xFC PUSH1 0x1 PUSH1 0x1 PUSH1 0xE0 SHL SUB PUSH3 0xA1 AND JUMP JUMPDEST PUSH1 0x1 PUSH1 0x1 PUSH1 0xA0 SHL SUB AND DUP2 PUSH1 0x1 PUSH1 0x1 PUSH1 0xA0 SHL SUB AND DUP4 PUSH32 0x2F8788117E7EFF1D82E926EC794901D17C78024A50270940304540A733656F0D PUSH1 0x40 MLOAD PUSH1 0x40 MLOAD DUP1 SWAP2 SUB SWAP1 LOG4 POP POP JUMP JUMPDEST PUSH1 0x0 PUSH3 0x160 DUP4 PUSH1 0x1 PUSH1 0x1 PUSH1 0xA0 SHL SUB DUP5 AND PUSH1 0x1 PUSH1 0x1 PUSH1 0xE0 SHL SUB PUSH3 0x169 AND JUMP JUMPDEST SWAP1 POP JUMPDEST SWAP3 SWAP2 POP POP JUMP JUMPDEST PUSH1 0x0 PUSH3 0x180 DUP4 DUP4 PUSH1 0x1 PUSH1 0x1 PUSH1 0xE0 SHL SUB PUSH3 0x1C1 AND JUMP JUMPDEST PUSH3 0x1B8 JUMPI POP DUP2 SLOAD PUSH1 0x1 DUP2 DUP2 ADD DUP5 SSTORE PUSH1 0x0 DUP5 DUP2 MSTORE PUSH1 0x20 DUP1 DUP3 KECCAK256 SWAP1 SWAP4 ADD DUP5 SWAP1 SSTORE DUP5 SLOAD DUP5 DUP3 MSTORE DUP3 DUP7 ADD SWAP1 SWAP4 MSTORE PUSH1 0x40 SWAP1 KECCAK256 SWAP2 SWAP1 SWAP2 SSTORE PUSH3 0x163 JUMP JUMPDEST POP PUSH1 0x0 PUSH3 0x163 JUMP JUMPDEST PUSH1 0x0 SWAP1 DUP2 MSTORE PUSH1 0x1 SWAP2 SWAP1 SWAP2 ADD PUSH1 0x20 MSTORE PUSH1 0x40 SWAP1 KECCAK256 SLOAD ISZERO ISZERO SWAP1 JUMP JUMPDEST PUSH2 0x3C39 DUP1 PUSH3 0x1E9 PUSH1 0x0 CODECOPY PUSH1 0x0 RETURN INVALID PUSH1 0x80 PUSH1 0x40 MSTORE CALLVALUE DUP1 ISZERO PUSH2 0x10 JUMPI PUSH1 0x0 DUP1 REVERT JUMPDEST POP PUSH1 0x4 CALLDATASIZE LT PUSH2 0x248 JUMPI PUSH1 0x0 CALLDATALOAD PUSH1 0xE0 SHR DUP1 PUSH4 0xA217FDDF GT PUSH2 0x13B JUMPI DUP1 PUSH4 0xD547741F GT PUSH2 0xB8 JUMPI DUP1 PUSH4 0xEA0D5DCD GT PUSH2 0x7C JUMPI DUP1 PUSH4 0xEA0D5DCD EQ PUSH2 0xA68 JUMPI DUP1 PUSH4 0xEBC4FFC7 EQ PUSH2 0xA8E JUMPI DUP1 PUSH4 0xF667526A EQ PUSH2 0xAAB JUMPI DUP1 PUSH4 0xF684F33C EQ PUSH2 0xAC8 JUMPI DUP1 PUSH4 0xFD825F58 EQ PUSH2 0xAD0 JUMPI PUSH2 0x248 JUMP JUMPDEST DUP1 PUSH4 0xD547741F EQ PUSH2 0x968 JUMPI DUP1 PUSH4 0xDA83FE4A EQ PUSH2 0x994 JUMPI DUP1 PUSH4 0xDA95006D EQ PUSH2 0x9C0 JUMPI DUP1 PUSH4 0xE2FA2FF3 EQ PUSH2 0x9C8 JUMPI DUP1 PUSH4 0xE5020A62 EQ PUSH2 0xA3C JUMPI PUSH2 0x248 JUMP JUMPDEST DUP1 PUSH4 0xBF051C13 GT PUSH2 0xFF JUMPI DUP1 PUSH4 0xBF051C13 EQ PUSH2 0x910 JUMPI DUP1 PUSH4 0xC1694A2F EQ PUSH2 0x918 JUMPI DUP1 PUSH4 0xC9BED948 EQ PUSH2 0x920 JUMPI DUP1 PUSH4 0xCA15C873 EQ PUSH2 0x928 JUMPI DUP1 PUSH4 0xD1D0954C EQ PUSH2 0x945 JUMPI PUSH2 0x248 JUMP JUMPDEST DUP1 PUSH4 0xA217FDDF EQ PUSH2 0x755 JUMPI DUP1 PUSH4 0xA40601EE EQ PUSH2 0x75D JUMPI DUP1 PUSH4 0xA56BD1DE EQ PUSH2 0x789 JUMPI DUP1 PUSH4 0xAEE2F47F EQ PUSH2 0x7F7 JUMPI DUP1 PUSH4 0xBE4F9BD6 EQ PUSH2 0x908 JUMPI PUSH2 0x248 JUMP JUMPDEST DUP1 PUSH4 0x36568ABE GT PUSH2 0x1C9 JUMPI DUP1 PUSH4 0x8904BF2F GT PUSH2 0x18D JUMPI DUP1 PUSH4 0x8904BF2F EQ PUSH2 0x645 JUMPI DUP1 PUSH4 0x9010D07C EQ PUSH2 0x669 JUMPI DUP1 PUSH4 0x91D14854 EQ PUSH2 0x68C JUMPI DUP1 PUSH4 0x987EE156 EQ PUSH2 0x6CC JUMPI DUP1 PUSH4 0xA0D03526 EQ PUSH2 0x72F JUMPI PUSH2 0x248 JUMP JUMPDEST DUP1 PUSH4 0x36568ABE EQ PUSH2 0x51E JUMPI DUP1 PUSH4 0x3DD452D6 EQ PUSH2 0x54A JUMPI DUP1 PUSH4 0x49B2CFF5 EQ PUSH2 0x552 JUMPI DUP1 PUSH4 0x5DA3C240 EQ PUSH2 0x55A JUMPI DUP1 PUSH4 0x5DB34566 EQ PUSH2 0x580 JUMPI PUSH2 0x248 JUMP JUMPDEST DUP1 PUSH4 0x1E47A476 GT PUSH2 0x210 JUMPI DUP1 PUSH4 0x1E47A476 EQ PUSH2 0x466 JUMPI DUP1 PUSH4 0x218188D7 EQ PUSH2 0x48F JUMPI DUP1 PUSH4 0x248A9CA3 EQ PUSH2 0x4AC JUMPI DUP1 PUSH4 0x2DAA72D4 EQ PUSH2 0x4C9 JUMPI DUP1 PUSH4 0x2F2FF15D EQ PUSH2 0x4F2 JUMPI PUSH2 0x248 JUMP JUMPDEST DUP1 PUSH4 0xA82697B EQ PUSH2 0x24D JUMPI DUP1 PUSH4 0xD4FB803 EQ PUSH2 0x27B JUMPI DUP1 PUSH4 0x150B7A02 EQ PUSH2 0x339 JUMPI DUP1 PUSH4 0x1BDC17F6 EQ PUSH2 0x41A JUMPI DUP1 PUSH4 0x1D0C02B9 EQ PUSH2 0x44C JUMPI JUMPDEST PUSH1 0x0 DUP1 REVERT JUMPDEST PUSH2 0x279 PUSH1 0x4 DUP1 CALLDATASIZE SUB PUSH1 0x40 DUP2 LT ISZERO PUSH2 0x263 JUMPI PUSH1 0x0 DUP1 REVERT JUMPDEST POP PUSH1 0x1 PUSH1 0x1 PUSH1 0xA0 SHL SUB DUP2 CALLDATALOAD AND SWAP1 PUSH1 0x20 ADD CALLDATALOAD PUSH2 0xB02 JUMP JUMPDEST STOP JUMPDEST PUSH2 0x279 PUSH1 0x4 DUP1 CALLDATASIZE SUB PUSH1 0x40 DUP2 LT ISZERO PUSH2 0x291 JUMPI PUSH1 0x0 DUP1 REVERT JUMPDEST DUP2 ADD SWAP1 PUSH1 0x20 DUP2 ADD DUP2 CALLDATALOAD PUSH1 0x1 PUSH1 0x20 SHL DUP2 GT ISZERO PUSH2 0x2AB JUMPI PUSH1 0x0 DUP1 REVERT JUMPDEST DUP3 ADD DUP4 PUSH1 0x20 DUP3 ADD GT ISZERO PUSH2 0x2BD JUMPI PUSH1 0x0 DUP1 REVERT JUMPDEST DUP1 CALLDATALOAD SWAP1 PUSH1 0x20 ADD SWAP2 DUP5 PUSH1 0x1 DUP4 MUL DUP5 ADD GT PUSH1 0x1 PUSH1 0x20 SHL DUP4 GT OR ISZERO PUSH2 0x2DE JUMPI PUSH1 0x0 DUP1 REVERT JUMPDEST SWAP2 SWAP4 SWAP1 SWAP3 SWAP1 SWAP2 PUSH1 0x20 DUP2 ADD SWAP1 CALLDATALOAD PUSH1 0x1 PUSH1 0x20 SHL DUP2 GT ISZERO PUSH2 0x2FB JUMPI PUSH1 0x0 DUP1 REVERT JUMPDEST DUP3 ADD DUP4 PUSH1 0x20 DUP3 ADD GT ISZERO PUSH2 0x30D JUMPI PUSH1 0x0 DUP1 REVERT JUMPDEST DUP1 CALLDATALOAD SWAP1 PUSH1 0x20 ADD SWAP2 DUP5 PUSH1 0x1 DUP4 MUL DUP5 ADD GT PUSH1 0x1 PUSH1 0x20 SHL DUP4 GT OR ISZERO PUSH2 0x32E JUMPI PUSH1 0x0 DUP1 REVERT JUMPDEST POP SWAP1 SWAP3 POP SWAP1 POP PUSH2 0xFAB JUMP JUMPDEST PUSH2 0x3FD PUSH1 0x4 DUP1 CALLDATASIZE SUB PUSH1 0x80 DUP2 LT ISZERO PUSH2 0x34F JUMPI PUSH1 0x0 DUP1 REVERT JUMPDEST PUSH1 0x1 PUSH1 0x1 PUSH1 0xA0 SHL SUB DUP3 CALLDATALOAD DUP2 AND SWAP3 PUSH1 0x20 DUP2 ADD CALLDATALOAD SWAP1 SWAP2 AND SWAP2 PUSH1 0x40 DUP3 ADD CALLDATALOAD SWAP2 SWAP1 DUP2 ADD SWAP1 PUSH1 0x80 DUP2 ADD PUSH1 0x60 DUP3 ADD CALLDATALOAD PUSH1 0x1 PUSH1 0x20 SHL DUP2 GT ISZERO PUSH2 0x389 JUMPI PUSH1 0x0 DUP1 REVERT JUMPDEST DUP3 ADD DUP4 PUSH1 0x20 DUP3 ADD GT ISZERO PUSH2 0x39B JUMPI PUSH1 0x0 DUP1 REVERT JUMPDEST DUP1 CALLDATALOAD SWAP1 PUSH1 0x20 ADD SWAP2 DUP5 PUSH1 0x1 DUP4 MUL DUP5 ADD GT PUSH1 0x1 PUSH1 0x20 SHL DUP4 GT OR ISZERO PUSH2 0x3BC JUMPI PUSH1 0x0 DUP1 REVERT JUMPDEST SWAP2 SWAP1 DUP1 DUP1 PUSH1 0x1F ADD PUSH1 0x20 DUP1 SWAP2 DIV MUL PUSH1 0x20 ADD PUSH1 0x40 MLOAD SWAP1 DUP2 ADD PUSH1 0x40 MSTORE DUP1 SWAP4 SWAP3 SWAP2 SWAP1 DUP2 DUP2 MSTORE PUSH1 0x20 ADD DUP4 DUP4 DUP1 DUP3 DUP5 CALLDATACOPY PUSH1 0x0 SWAP3 ADD SWAP2 SWAP1 SWAP2 MSTORE POP SWAP3 SWAP6 POP PUSH2 0x1254 SWAP5 POP POP POP POP POP JUMP JUMPDEST PUSH1 0x40 DUP1 MLOAD PUSH1 0x1 PUSH1 0x1 PUSH1 0xE0 SHL SUB NOT SWAP1 SWAP3 AND DUP3 MSTORE MLOAD SWAP1 DUP2 SWAP1 SUB PUSH1 0x20 ADD SWAP1 RETURN JUMPDEST PUSH2 0x279 PUSH1 0x4 DUP1 CALLDATASIZE SUB PUSH1 0x60 DUP2 LT ISZERO PUSH2 0x430 JUMPI PUSH1 0x0 DUP1 REVERT JUMPDEST POP PUSH1 0x1 PUSH1 0x1 PUSH1 0xA0 SHL SUB DUP2 CALLDATALOAD AND SWAP1 PUSH1 0x20 DUP2 ADD CALLDATALOAD SWAP1 PUSH1 0x40 ADD CALLDATALOAD PUSH2 0x1264 JUMP JUMPDEST PUSH2 0x454 PUSH2 0x1359 JUMP JUMPDEST PUSH1 0x40 DUP1 MLOAD SWAP2 DUP3 MSTORE MLOAD SWAP1 DUP2 SWAP1 SUB PUSH1 0x20 ADD SWAP1 RETURN JUMPDEST PUSH2 0x279 PUSH1 0x4 DUP1 CALLDATASIZE SUB PUSH1 0x60 DUP2 LT ISZERO PUSH2 0x47C JUMPI PUSH1 0x0 DUP1 REVERT JUMPDEST POP DUP1 CALLDATALOAD SWAP1 PUSH1 0x20 DUP2 ADD CALLDATALOAD SWAP1 PUSH1 0x40 ADD CALLDATALOAD PUSH2 0x135F JUMP JUMPDEST PUSH2 0x279 PUSH1 0x4 DUP1 CALLDATASIZE SUB PUSH1 0x20 DUP2 LT ISZERO PUSH2 0x4A5 JUMPI PUSH1 0x0 DUP1 REVERT JUMPDEST POP CALLDATALOAD PUSH2 0x1449 JUMP JUMPDEST PUSH2 0x454 PUSH1 0x4 DUP1 CALLDATASIZE SUB PUSH1 0x20 DUP2 LT ISZERO PUSH2 0x4C2 JUMPI PUSH1 0x0 DUP1 REVERT JUMPDEST POP CALLDATALOAD PUSH2 0x150B JUMP JUMPDEST PUSH2 0x279 PUSH1 0x4 DUP1 CALLDATASIZE SUB PUSH1 0x60 DUP2 LT ISZERO PUSH2 0x4DF JUMPI PUSH1 0x0 DUP1 REVERT JUMPDEST POP DUP1 CALLDATALOAD SWAP1 PUSH1 0x20 DUP2 ADD CALLDATALOAD SWAP1 PUSH1 0x40 ADD CALLDATALOAD PUSH2 0x1520 JUMP JUMPDEST PUSH2 0x279 PUSH1 0x4 DUP1 CALLDATASIZE SUB PUSH1 0x40 DUP2 LT ISZERO PUSH2 0x508 JUMPI PUSH1 0x0 DUP1 REVERT JUMPDEST POP DUP1 CALLDATALOAD SWAP1 PUSH1 0x20 ADD CALLDATALOAD PUSH1 0x1 PUSH1 0x1 PUSH1 0xA0 SHL SUB AND PUSH2 0x1581 JUMP JUMPDEST PUSH2 0x279 PUSH1 0x4 DUP1 CALLDATASIZE SUB PUSH1 0x40 DUP2 LT ISZERO PUSH2 0x534 JUMPI PUSH1 0x0 DUP1 REVERT JUMPDEST POP DUP1 CALLDATALOAD SWAP1 PUSH1 0x20 ADD CALLDATALOAD PUSH1 0x1 PUSH1 0x1 PUSH1 0xA0 SHL SUB AND PUSH2 0x15E8 JUMP JUMPDEST PUSH2 0x454 PUSH2 0x1649 JUMP JUMPDEST PUSH2 0x454 PUSH2 0x164F JUMP JUMPDEST PUSH2 0x279 PUSH1 0x4 DUP1 CALLDATASIZE SUB PUSH1 0x20 DUP2 LT ISZERO PUSH2 0x570 JUMPI PUSH1 0x0 DUP1 REVERT JUMPDEST POP CALLDATALOAD PUSH1 0x1 PUSH1 0x1 PUSH1 0xA0 SHL SUB AND PUSH2 0x1655 JUMP JUMPDEST PUSH2 0x279 PUSH1 0x4 DUP1 CALLDATASIZE SUB PUSH1 0x60 DUP2 LT ISZERO PUSH2 0x596 JUMPI PUSH1 0x0 DUP1 REVERT JUMPDEST DUP2 CALLDATALOAD SWAP2 SWAP1 DUP2 ADD SWAP1 PUSH1 0x40 DUP2 ADD PUSH1 0x20 DUP3 ADD CALLDATALOAD PUSH1 0x1 PUSH1 0x20 SHL DUP2 GT ISZERO PUSH2 0x5B7 JUMPI PUSH1 0x0 DUP1 REVERT JUMPDEST DUP3 ADD DUP4 PUSH1 0x20 DUP3 ADD GT ISZERO PUSH2 0x5C9 JUMPI PUSH1 0x0 DUP1 REVERT JUMPDEST DUP1 CALLDATALOAD SWAP1 PUSH1 0x20 ADD SWAP2 DUP5 PUSH1 0x1 DUP4 MUL DUP5 ADD GT PUSH1 0x1 PUSH1 0x20 SHL DUP4 GT OR ISZERO PUSH2 0x5EA JUMPI PUSH1 0x0 DUP1 REVERT JUMPDEST SWAP2 SWAP4 SWAP1 SWAP3 SWAP1 SWAP2 PUSH1 0x20 DUP2 ADD SWAP1 CALLDATALOAD PUSH1 0x1 PUSH1 0x20 SHL DUP2 GT ISZERO PUSH2 0x607 JUMPI PUSH1 0x0 DUP1 REVERT JUMPDEST DUP3 ADD DUP4 PUSH1 0x20 DUP3 ADD GT ISZERO PUSH2 0x619 JUMPI PUSH1 0x0 DUP1 REVERT JUMPDEST DUP1 CALLDATALOAD SWAP1 PUSH1 0x20 ADD SWAP2 DUP5 PUSH1 0x1 DUP4 MUL DUP5 ADD GT PUSH1 0x1 PUSH1 0x20 SHL DUP4 GT OR ISZERO PUSH2 0x63A JUMPI PUSH1 0x0 DUP1 REVERT JUMPDEST POP SWAP1 SWAP3 POP SWAP1 POP PUSH2 0x1789 JUMP JUMPDEST PUSH2 0x64D PUSH2 0x1936 JUMP JUMPDEST PUSH1 0x40 DUP1 MLOAD PUSH1 0x1 PUSH1 0x1 PUSH1 0xA0 SHL SUB SWAP1 SWAP3 AND DUP3 MSTORE MLOAD SWAP1 DUP2 SWAP1 SUB PUSH1 0x20 ADD SWAP1 RETURN JUMPDEST PUSH2 0x64D PUSH1 0x4 DUP1 CALLDATASIZE SUB PUSH1 0x40 DUP2 LT ISZERO PUSH2 0x67F JUMPI PUSH1 0x0 DUP1 REVERT JUMPDEST POP DUP1 CALLDATALOAD SWAP1 PUSH1 0x20 ADD CALLDATALOAD PUSH2 0x1945 JUMP JUMPDEST PUSH2 0x6B8 PUSH1 0x4 DUP1 CALLDATASIZE SUB PUSH1 0x40 DUP2 LT ISZERO PUSH2 0x6A2 JUMPI PUSH1 0x0 DUP1 REVERT JUMPDEST POP DUP1 CALLDATALOAD SWAP1 PUSH1 0x20 ADD CALLDATALOAD PUSH1 0x1 PUSH1 0x1 PUSH1 0xA0 SHL SUB AND PUSH2 0x196C JUMP JUMPDEST PUSH1 0x40 DUP1 MLOAD SWAP2 ISZERO ISZERO DUP3 MSTORE MLOAD SWAP1 DUP2 SWAP1 SUB PUSH1 0x20 ADD SWAP1 RETURN JUMPDEST PUSH2 0x6F2 PUSH1 0x4 DUP1 CALLDATASIZE SUB PUSH1 0x20 DUP2 LT ISZERO PUSH2 0x6E2 JUMPI PUSH1 0x0 DUP1 REVERT JUMPDEST POP CALLDATALOAD PUSH1 0x1 PUSH1 0x1 PUSH1 0xA0 SHL SUB AND PUSH2 0x198A JUMP JUMPDEST PUSH1 0x40 DUP1 MLOAD SWAP7 DUP8 MSTORE PUSH1 0x20 DUP8 ADD SWAP6 SWAP1 SWAP6 MSTORE DUP6 DUP6 ADD SWAP4 SWAP1 SWAP4 MSTORE PUSH1 0x1 PUSH1 0x1 PUSH1 0xA0 SHL SUB SWAP1 SWAP2 AND PUSH1 0x60 DUP6 ADD MSTORE PUSH1 0x80 DUP5 ADD MSTORE ISZERO ISZERO PUSH1 0xA0 DUP4 ADD MSTORE MLOAD SWAP1 DUP2 SWAP1 SUB PUSH1 0xC0 ADD SWAP1 RETURN JUMPDEST PUSH2 0x6B8 PUSH1 0x4 DUP1 CALLDATASIZE SUB PUSH1 0x20 DUP2 LT ISZERO PUSH2 0x745 JUMPI PUSH1 0x0 DUP1 REVERT JUMPDEST POP CALLDATALOAD PUSH1 0x1 PUSH1 0x1 PUSH1 0xA0 SHL SUB AND PUSH2 0x1A3D JUMP JUMPDEST PUSH2 0x454 PUSH2 0x1A52 JUMP JUMPDEST PUSH2 0x279 PUSH1 0x4 DUP1 CALLDATASIZE SUB PUSH1 0x40 DUP2 LT ISZERO PUSH2 0x773 JUMPI PUSH1 0x0 DUP1 REVERT JUMPDEST POP PUSH1 0x1 PUSH1 0x1 PUSH1 0xA0 SHL SUB DUP2 CALLDATALOAD AND SWAP1 PUSH1 0x20 ADD CALLDATALOAD PUSH2 0x1A57 JUMP JUMPDEST PUSH2 0x279 PUSH1 0x4 DUP1 CALLDATASIZE SUB PUSH1 0x40 DUP2 LT ISZERO PUSH2 0x79F JUMPI PUSH1 0x0 DUP1 REVERT JUMPDEST DUP2 ADD SWAP1 PUSH1 0x20 DUP2 ADD DUP2 CALLDATALOAD PUSH1 0x1 PUSH1 0x20 SHL DUP2 GT ISZERO PUSH2 0x7B9 JUMPI PUSH1 0x0 DUP1 REVERT JUMPDEST DUP3 ADD DUP4 PUSH1 0x20 DUP3 ADD GT ISZERO PUSH2 0x7CB JUMPI PUSH1 0x0 DUP1 REVERT JUMPDEST DUP1 CALLDATALOAD SWAP1 PUSH1 0x20 ADD SWAP2 DUP5 PUSH1 0x20 DUP4 MUL DUP5 ADD GT PUSH1 0x1 PUSH1 0x20 SHL DUP4 GT OR ISZERO PUSH2 0x7EC JUMPI PUSH1 0x0 DUP1 REVERT JUMPDEST SWAP2 SWAP4 POP SWAP2 POP CALLDATALOAD PUSH2 0x1ED7 JUMP JUMPDEST PUSH2 0x814 PUSH1 0x4 DUP1 CALLDATASIZE SUB PUSH1 0x20 DUP2 LT ISZERO PUSH2 0x80D JUMPI PUSH1 0x0 DUP1 REVERT JUMPDEST POP CALLDATALOAD PUSH2 0x2050 JUMP JUMPDEST PUSH1 0x40 DUP1 MLOAD SWAP1 DUP2 ADD DUP5 SWAP1 MSTORE PUSH1 0x60 DUP2 ADD DUP4 SWAP1 MSTORE DUP2 ISZERO ISZERO PUSH1 0x80 DUP3 ADD MSTORE PUSH1 0xA0 DUP1 DUP3 MSTORE DUP7 MLOAD SWAP1 DUP3 ADD MSTORE DUP6 MLOAD DUP2 SWAP1 PUSH1 0x20 DUP1 DUP4 ADD SWAP2 PUSH1 0xC0 DUP5 ADD SWAP2 DUP11 ADD SWAP1 DUP1 DUP4 DUP4 PUSH1 0x0 JUMPDEST DUP4 DUP2 LT ISZERO PUSH2 0x868 JUMPI DUP2 DUP2 ADD MLOAD DUP4 DUP3 ADD MSTORE PUSH1 0x20 ADD PUSH2 0x850 JUMP JUMPDEST POP POP POP POP SWAP1 POP SWAP1 DUP2 ADD SWAP1 PUSH1 0x1F AND DUP1 ISZERO PUSH2 0x895 JUMPI DUP1 DUP3 SUB DUP1 MLOAD PUSH1 0x1 DUP4 PUSH1 0x20 SUB PUSH2 0x100 EXP SUB NOT AND DUP2 MSTORE PUSH1 0x20 ADD SWAP2 POP JUMPDEST POP DUP4 DUP2 SUB DUP3 MSTORE DUP8 MLOAD DUP2 MSTORE DUP8 MLOAD PUSH1 0x20 SWAP2 DUP3 ADD SWAP2 DUP10 ADD SWAP1 DUP1 DUP4 DUP4 PUSH1 0x0 JUMPDEST DUP4 DUP2 LT ISZERO PUSH2 0x8C8 JUMPI DUP2 DUP2 ADD MLOAD DUP4 DUP3 ADD MSTORE PUSH1 0x20 ADD PUSH2 0x8B0 JUMP JUMPDEST POP POP POP POP SWAP1 POP SWAP1 DUP2 ADD SWAP1 PUSH1 0x1F AND DUP1 ISZERO PUSH2 0x8F5 JUMPI DUP1 DUP3 SUB DUP1 MLOAD PUSH1 0x1 DUP4 PUSH1 0x20 SUB PUSH2 0x100 EXP SUB NOT AND DUP2 MSTORE PUSH1 0x20 ADD SWAP2 POP JUMPDEST POP SWAP8 POP POP POP POP POP POP POP POP PUSH1 0x40 MLOAD DUP1 SWAP2 SUB SWAP1 RETURN JUMPDEST PUSH2 0x454 PUSH2 0x2209 JUMP JUMPDEST PUSH2 0x454 PUSH2 0x220F JUMP JUMPDEST PUSH2 0x279 PUSH2 0x2233 JUMP JUMPDEST PUSH2 0x454 PUSH2 0x25A8 JUMP JUMPDEST PUSH2 0x454 PUSH1 0x4 DUP1 CALLDATASIZE SUB PUSH1 0x20 DUP2 LT ISZERO PUSH2 0x93E JUMPI PUSH1 0x0 DUP1 REVERT JUMPDEST POP CALLDATALOAD PUSH2 0x25CA JUMP JUMPDEST PUSH2 0x279 PUSH1 0x4 DUP1 CALLDATASIZE SUB PUSH1 0x40 DUP2 LT ISZERO PUSH2 0x95B JUMPI PUSH1 0x0 DUP1 REVERT JUMPDEST POP DUP1 CALLDATALOAD SWAP1 PUSH1 0x20 ADD CALLDATALOAD PUSH2 0x25E1 JUMP JUMPDEST PUSH2 0x279 PUSH1 0x4 DUP1 CALLDATASIZE SUB PUSH1 0x40 DUP2 LT ISZERO PUSH2 0x97E JUMPI PUSH1 0x0 DUP1 REVERT JUMPDEST POP DUP1 CALLDATALOAD SWAP1 PUSH1 0x20 ADD CALLDATALOAD PUSH1 0x1 PUSH1 0x1 PUSH1 0xA0 SHL SUB AND PUSH2 0x268C JUMP JUMPDEST PUSH2 0x279 PUSH1 0x4 DUP1 CALLDATASIZE SUB PUSH1 0x40 DUP2 LT ISZERO PUSH2 0x9AA JUMPI PUSH1 0x0 DUP1 REVERT JUMPDEST POP PUSH1 0x1 PUSH1 0x1 PUSH1 0xA0 SHL SUB DUP2 CALLDATALOAD AND SWAP1 PUSH1 0x20 ADD CALLDATALOAD PUSH2 0x26E5 JUMP JUMPDEST PUSH2 0x454 PUSH2 0x27A4 JUMP JUMPDEST PUSH2 0x279 PUSH1 0x4 DUP1 CALLDATASIZE SUB PUSH1 0x60 DUP2 LT ISZERO PUSH2 0x9DE JUMPI PUSH1 0x0 DUP1 REVERT JUMPDEST DUP2 ADD SWAP1 PUSH1 0x20 DUP2 ADD DUP2 CALLDATALOAD PUSH1 0x1 PUSH1 0x20 SHL DUP2 GT ISZERO PUSH2 0x9F8 JUMPI PUSH1 0x0 DUP1 REVERT JUMPDEST DUP3 ADD DUP4 PUSH1 0x20 DUP3 ADD GT ISZERO PUSH2 0xA0A JUMPI PUSH1 0x0 DUP1 REVERT JUMPDEST DUP1 CALLDATALOAD SWAP1 PUSH1 0x20 ADD SWAP2 DUP5 PUSH1 0x20 DUP4 MUL DUP5 ADD GT PUSH1 0x1 PUSH1 0x20 SHL DUP4 GT OR ISZERO PUSH2 0xA2B JUMPI PUSH1 0x0 DUP1 REVERT JUMPDEST SWAP2 SWAP4 POP SWAP2 POP DUP1 CALLDATALOAD SWAP1 PUSH1 0x20 ADD CALLDATALOAD PUSH2 0x27AA JUMP JUMPDEST PUSH2 0x279 PUSH1 0x4 DUP1 CALLDATASIZE SUB PUSH1 0x40 DUP2 LT ISZERO PUSH2 0xA52 JUMPI PUSH1 0x0 DUP1 REVERT JUMPDEST POP PUSH1 0x1 PUSH1 0x1 PUSH1 0xA0 SHL SUB DUP2 CALLDATALOAD AND SWAP1 PUSH1 0x20 ADD CALLDATALOAD PUSH2 0x2990 JUMP JUMPDEST PUSH2 0x6B8 PUSH1 0x4 DUP1 CALLDATASIZE SUB PUSH1 0x20 DUP2 LT ISZERO PUSH2 0xA7E JUMPI PUSH1 0x0 DUP1 REVERT JUMPDEST POP CALLDATALOAD PUSH1 0x1 PUSH1 0x1 PUSH1 0xA0 SHL SUB AND PUSH2 0x2C6C JUMP JUMPDEST PUSH2 0x279 PUSH1 0x4 DUP1 CALLDATASIZE SUB PUSH1 0x20 DUP2 LT ISZERO PUSH2 0xAA4 JUMPI PUSH1 0x0 DUP1 REVERT JUMPDEST POP CALLDATALOAD PUSH2 0x2C8D JUMP JUMPDEST PUSH2 0x279 PUSH1 0x4 DUP1 CALLDATASIZE SUB PUSH1 0x20 DUP2 LT ISZERO PUSH2 0xAC1 JUMPI PUSH1 0x0 DUP1 REVERT JUMPDEST POP CALLDATALOAD PUSH2 0x2D52 JUMP JUMPDEST PUSH2 0x454 PUSH2 0x2DC9 JUMP JUMPDEST PUSH2 0x279 PUSH1 0x4 DUP1 CALLDATASIZE SUB PUSH1 0x60 DUP2 LT ISZERO PUSH2 0xAE6 JUMPI PUSH1 0x0 DUP1 REVERT JUMPDEST POP DUP1 CALLDATALOAD SWAP1 PUSH1 0x1 PUSH1 0x1 PUSH1 0xA0 SHL SUB PUSH1 0x20 DUP3 ADD CALLDATALOAD AND SWAP1 PUSH1 0x40 ADD CALLDATALOAD PUSH2 0x2DE9 JUMP JUMPDEST PUSH1 0x7 PUSH1 0x0 PUSH2 0xB0E PUSH2 0x32B2 JUMP JUMPDEST PUSH1 0x1 PUSH1 0x1 PUSH1 0xA0 SHL SUB AND DUP2 MSTORE PUSH1 0x20 DUP2 ADD SWAP2 SWAP1 SWAP2 MSTORE PUSH1 0x40 ADD PUSH1 0x0 KECCAK256 SLOAD PUSH1 0xFF AND PUSH2 0xB71 JUMPI PUSH1 0x40 DUP1 MLOAD PUSH3 0x461BCD PUSH1 0xE5 SHL DUP2 MSTORE PUSH1 0x20 PUSH1 0x4 DUP3 ADD MSTORE PUSH1 0x12 PUSH1 0x24 DUP3 ADD MSTORE PUSH18 0x12185CC81B9BDD081C9959DA5CDD195C9959 PUSH1 0x72 SHL PUSH1 0x44 DUP3 ADD MSTORE SWAP1 MLOAD SWAP1 DUP2 SWAP1 SUB PUSH1 0x64 ADD SWAP1 REVERT JUMPDEST PUSH1 0x40 DUP1 MLOAD PUSH8 0x4E46545F524F4C45 PUSH1 0xC0 SHL DUP2 MSTORE SWAP1 MLOAD SWAP1 DUP2 SWAP1 SUB PUSH1 0x8 ADD SWAP1 KECCAK256 PUSH2 0xB98 SWAP1 DUP4 PUSH2 0x196C JUMP JUMPDEST PUSH2 0xBDF JUMPI PUSH1 0x40 DUP1 MLOAD PUSH3 0x461BCD PUSH1 0xE5 SHL DUP2 MSTORE PUSH1 0x20 PUSH1 0x4 DUP3 ADD MSTORE PUSH1 0x13 PUSH1 0x24 DUP3 ADD MSTORE PUSH19 0x139195081859191C995CDCC81A5B9D985B1A59 PUSH1 0x6A SHL PUSH1 0x44 DUP3 ADD MSTORE SWAP1 MLOAD SWAP1 DUP2 SWAP1 SUB PUSH1 0x64 ADD SWAP1 REVERT JUMPDEST PUSH1 0x9 PUSH1 0x0 PUSH2 0xBEB PUSH2 0x32B2 JUMP JUMPDEST PUSH1 0x1 PUSH1 0x1 PUSH1 0xA0 SHL SUB AND DUP2 MSTORE PUSH1 0x20 DUP2 ADD SWAP2 SWAP1 SWAP2 MSTORE PUSH1 0x40 ADD PUSH1 0x0 KECCAK256 PUSH1 0x5 ADD SLOAD PUSH1 0xFF AND PUSH2 0xC4E JUMPI PUSH1 0x40 DUP1 MLOAD PUSH3 0x461BCD PUSH1 0xE5 SHL DUP2 MSTORE PUSH1 0x20 PUSH1 0x4 DUP3 ADD MSTORE PUSH1 0xF PUSH1 0x24 DUP3 ADD MSTORE PUSH15 0x55736572206E6F7420616374697665 PUSH1 0x88 SHL PUSH1 0x44 DUP3 ADD MSTORE SWAP1 MLOAD SWAP1 DUP2 SWAP1 SUB PUSH1 0x64 ADD SWAP1 REVERT JUMPDEST PUSH1 0x0 PUSH1 0x9 PUSH1 0x0 PUSH2 0xC5C PUSH2 0x32B2 JUMP JUMPDEST PUSH1 0x1 PUSH1 0x1 PUSH1 0xA0 SHL SUB SWAP1 DUP2 AND DUP3 MSTORE PUSH1 0x20 DUP3 ADD SWAP3 SWAP1 SWAP3 MSTORE PUSH1 0x40 ADD PUSH1 0x0 SWAP1 DUP2 KECCAK256 PUSH1 0x3 ADD SLOAD SWAP1 SWAP2 AND SWAP2 POP PUSH1 0x9 DUP2 PUSH2 0xC8D PUSH2 0x32B2 JUMP JUMPDEST PUSH1 0x1 PUSH1 0x1 PUSH1 0xA0 SHL SUB AND PUSH1 0x1 PUSH1 0x1 PUSH1 0xA0 SHL SUB AND DUP2 MSTORE PUSH1 0x20 ADD SWAP1 DUP2 MSTORE PUSH1 0x20 ADD PUSH1 0x0 KECCAK256 PUSH1 0x4 ADD SLOAD SWAP1 POP PUSH1 0x0 DUP5 SWAP1 POP DUP1 PUSH1 0x1 PUSH1 0x1 PUSH1 0xA0 SHL SUB AND PUSH4 0x6352211E DUP6 PUSH1 0x40 MLOAD DUP3 PUSH4 0xFFFFFFFF AND PUSH1 0xE0 SHL DUP2 MSTORE PUSH1 0x4 ADD DUP1 DUP3 DUP2 MSTORE PUSH1 0x20 ADD SWAP2 POP POP PUSH1 0x20 PUSH1 0x40 MLOAD DUP1 DUP4 SUB DUP2 DUP7 DUP1 EXTCODESIZE ISZERO DUP1 ISZERO PUSH2 0xCFC JUMPI PUSH1 0x0 DUP1 REVERT JUMPDEST POP GAS STATICCALL ISZERO DUP1 ISZERO PUSH2 0xD10 JUMPI RETURNDATASIZE PUSH1 0x0 DUP1 RETURNDATACOPY RETURNDATASIZE PUSH1 0x0 REVERT JUMPDEST POP POP POP POP PUSH1 0x40 MLOAD RETURNDATASIZE PUSH1 0x20 DUP2 LT ISZERO PUSH2 0xD26 JUMPI PUSH1 0x0 DUP1 REVERT JUMPDEST POP MLOAD PUSH1 0x1 PUSH1 0x1 PUSH1 0xA0 SHL SUB AND PUSH2 0xD39 PUSH2 0x32B2 JUMP JUMPDEST PUSH1 0x1 PUSH1 0x1 PUSH1 0xA0 SHL SUB AND EQ PUSH2 0xD90 JUMPI PUSH1 0x40 DUP1 MLOAD PUSH3 0x461BCD PUSH1 0xE5 SHL DUP2 MSTORE PUSH1 0x20 PUSH1 0x4 DUP3 ADD MSTORE PUSH1 0x19 PUSH1 0x24 DUP3 ADD MSTORE PUSH25 0x4F6E6C79204E4654206F776E65722063616E20757064617465 PUSH1 0x38 SHL PUSH1 0x44 DUP3 ADD MSTORE SWAP1 MLOAD SWAP1 DUP2 SWAP1 SUB PUSH1 0x64 ADD SWAP1 REVERT JUMPDEST DUP1 PUSH1 0x1 PUSH1 0x1 PUSH1 0xA0 SHL SUB AND PUSH4 0x42842E0E PUSH2 0xDA7 PUSH2 0x32B2 JUMP JUMPDEST PUSH1 0x40 DUP1 MLOAD PUSH1 0x1 PUSH1 0x1 PUSH1 0xE0 SHL SUB NOT PUSH1 0xE0 DUP6 SWAP1 SHL AND DUP2 MSTORE PUSH1 0x1 PUSH1 0x1 PUSH1 0xA0 SHL SUB SWAP1 SWAP3 AND PUSH1 0x4 DUP4 ADD MSTORE ADDRESS PUSH1 0x24 DUP4 ADD MSTORE PUSH1 0x44 DUP3 ADD DUP9 SWAP1 MSTORE MLOAD PUSH1 0x64 DUP1 DUP4 ADD SWAP3 PUSH1 0x0 SWAP3 SWAP2 SWAP1 DUP3 SWAP1 SUB ADD DUP2 DUP4 DUP8 DUP1 EXTCODESIZE ISZERO DUP1 ISZERO PUSH2 0xDFA JUMPI PUSH1 0x0 DUP1 REVERT JUMPDEST POP GAS CALL ISZERO DUP1 ISZERO PUSH2 0xE0E JUMPI RETURNDATASIZE PUSH1 0x0 DUP1 RETURNDATACOPY RETURNDATASIZE PUSH1 0x0 REVERT JUMPDEST POP POP POP POP PUSH2 0xE3B PUSH2 0xE1D PUSH2 0x32B2 JUMP JUMPDEST PUSH1 0x5 SLOAD PUSH1 0x1 SLOAD PUSH1 0x1 PUSH1 0x1 PUSH1 0xA0 SHL SUB AND SWAP2 SWAP1 ADDRESS SWAP1 PUSH4 0xFFFFFFFF PUSH2 0x32B7 AND JUMP JUMPDEST DUP3 PUSH1 0x1 PUSH1 0x1 PUSH1 0xA0 SHL SUB DUP2 AND PUSH4 0x42842E0E ADDRESS PUSH2 0xE54 PUSH2 0x32B2 JUMP JUMPDEST DUP7 PUSH1 0x40 MLOAD DUP5 PUSH4 0xFFFFFFFF AND PUSH1 0xE0 SHL DUP2 MSTORE PUSH1 0x4 ADD DUP1 DUP5 PUSH1 0x1 PUSH1 0x1 PUSH1 0xA0 SHL SUB AND PUSH1 0x1 PUSH1 0x1 PUSH1 0xA0 SHL SUB AND DUP2 MSTORE PUSH1 0x20 ADD DUP4 PUSH1 0x1 PUSH1 0x1 PUSH1 0xA0 SHL SUB AND PUSH1 0x1 PUSH1 0x1 PUSH1 0xA0 SHL SUB AND DUP2 MSTORE PUSH1 0x20 ADD DUP3 DUP2 MSTORE PUSH1 0x20 ADD SWAP4 POP POP POP POP PUSH1 0x0 PUSH1 0x40 MLOAD DUP1 DUP4 SUB DUP2 PUSH1 0x0 DUP8 DUP1 EXTCODESIZE ISZERO DUP1 ISZERO PUSH2 0xEBD JUMPI PUSH1 0x0 DUP1 REVERT JUMPDEST POP GAS CALL ISZERO DUP1 ISZERO PUSH2 0xED1 JUMPI RETURNDATASIZE PUSH1 0x0 DUP1 RETURNDATACOPY RETURNDATASIZE PUSH1 0x0 REVERT JUMPDEST POP POP POP POP DUP6 PUSH1 0x9 PUSH1 0x0 PUSH2 0xEE2 PUSH2 0x32B2 JUMP JUMPDEST PUSH1 0x1 PUSH1 0x1 PUSH1 0xA0 SHL SUB AND PUSH1 0x1 PUSH1 0x1 PUSH1 0xA0 SHL SUB AND DUP2 MSTORE PUSH1 0x20 ADD SWAP1 DUP2 MSTORE PUSH1 0x20 ADD PUSH1 0x0 KECCAK256 PUSH1 0x3 ADD PUSH1 0x0 PUSH2 0x100 EXP DUP2 SLOAD DUP2 PUSH1 0x1 PUSH1 0x1 PUSH1 0xA0 SHL SUB MUL NOT AND SWAP1 DUP4 PUSH1 0x1 PUSH1 0x1 PUSH1 0xA0 SHL SUB AND MUL OR SWAP1 SSTORE POP DUP5 PUSH1 0x9 PUSH1 0x0 PUSH2 0xF36 PUSH2 0x32B2 JUMP JUMPDEST PUSH1 0x1 PUSH1 0x1 PUSH1 0xA0 SHL SUB AND DUP2 MSTORE PUSH1 0x20 DUP2 ADD SWAP2 SWAP1 SWAP2 MSTORE PUSH1 0x40 ADD PUSH1 0x0 KECCAK256 PUSH1 0x4 ADD SSTORE PUSH2 0xF5B PUSH2 0x32B2 JUMP JUMPDEST PUSH1 0x40 DUP1 MLOAD PUSH1 0x1 PUSH1 0x1 PUSH1 0xA0 SHL SUB DUP10 DUP2 AND DUP3 MSTORE PUSH1 0x20 DUP3 ADD DUP10 SWAP1 MSTORE DUP3 MLOAD SWAP4 AND SWAP3 PUSH32 0xE8E88D4216F3BBC2D1A4DD55AA66FD3E0065EF03970FA056A19D018CA19D5805 SWAP3 SWAP2 DUP2 SWAP1 SUB SWAP1 SWAP2 ADD SWAP1 LOG2 POP POP POP POP POP POP JUMP JUMPDEST PUSH2 0xFBD PUSH1 0x0 PUSH2 0xFB8 PUSH2 0x32B2 JUMP JUMPDEST PUSH2 0x196C JUMP JUMPDEST PUSH2 0x1003 JUMPI PUSH1 0x40 DUP1 MLOAD PUSH3 0x461BCD PUSH1 0xE5 SHL DUP2 MSTORE PUSH1 0x20 PUSH1 0x4 DUP3 ADD MSTORE PUSH1 0x12 PUSH1 0x24 DUP3 ADD MSTORE PUSH18 0x2737BA103A34329036B0B4B71030B236B4B7 PUSH1 0x71 SHL PUSH1 0x44 DUP3 ADD MSTORE SWAP1 MLOAD SWAP1 DUP2 SWAP1 SUB PUSH1 0x64 ADD SWAP1 REVERT JUMPDEST PUSH1 0x60 DUP5 DUP5 DUP1 DUP1 PUSH1 0x1F ADD PUSH1 0x20 DUP1 SWAP2 DIV MUL PUSH1 0x20 ADD PUSH1 0x40 MLOAD SWAP1 DUP2 ADD PUSH1 0x40 MSTORE DUP1 SWAP4 SWAP3 SWAP2 SWAP1 DUP2 DUP2 MSTORE PUSH1 0x20 ADD DUP4 DUP4 DUP1 DUP3 DUP5 CALLDATACOPY PUSH1 0x0 SWAP3 ADD SWAP2 SWAP1 SWAP2 MSTORE POP POP DUP3 MLOAD SWAP3 SWAP4 POP POP PUSH1 0x14 SWAP1 SWAP2 LT SWAP1 POP PUSH2 0x1086 JUMPI PUSH1 0x40 DUP1 MLOAD PUSH3 0x461BCD PUSH1 0xE5 SHL DUP2 MSTORE PUSH1 0x20 PUSH1 0x4 DUP3 ADD MSTORE PUSH1 0xC PUSH1 0x24 DUP3 ADD MSTORE PUSH12 0x4D757374206265203C20323 PUSH1 0xA4 SHL PUSH1 0x44 DUP3 ADD MSTORE SWAP1 MLOAD SWAP1 DUP2 SWAP1 SUB PUSH1 0x64 ADD SWAP1 REVERT JUMPDEST PUSH1 0x3 DUP2 MLOAD GT PUSH2 0x10CA JUMPI PUSH1 0x40 DUP1 MLOAD PUSH3 0x461BCD PUSH1 0xE5 SHL DUP2 MSTORE PUSH1 0x20 PUSH1 0x4 DUP3 ADD MSTORE PUSH1 0xB PUSH1 0x24 DUP3 ADD MSTORE PUSH11 0x4D757374206265203E2033 PUSH1 0xA8 SHL PUSH1 0x44 DUP3 ADD MSTORE SWAP1 MLOAD SWAP1 DUP2 SWAP1 SUB PUSH1 0x64 ADD SWAP1 REVERT JUMPDEST PUSH2 0x10D4 PUSH1 0xA PUSH2 0x3311 JUMP JUMPDEST PUSH1 0x0 PUSH2 0x10E0 PUSH1 0xA PUSH2 0x331A JUMP JUMPDEST PUSH1 0x40 DUP1 MLOAD PUSH1 0xC0 PUSH1 0x20 PUSH1 0x1F DUP11 ADD DUP2 SWAP1 DIV MUL DUP3 ADD DUP2 ADD SWAP1 SWAP3 MSTORE PUSH1 0xA0 DUP2 ADD DUP9 DUP2 MSTORE SWAP3 SWAP4 POP SWAP2 DUP3 SWAP2 DUP10 SWAP1 DUP10 SWAP1 DUP2 SWAP1 DUP6 ADD DUP4 DUP3 DUP1 DUP3 DUP5 CALLDATACOPY PUSH1 0x0 SWAP3 ADD SWAP2 SWAP1 SWAP2 MSTORE POP POP POP SWAP1 DUP3 MSTORE POP PUSH1 0x40 DUP1 MLOAD PUSH1 0x20 PUSH1 0x1F DUP9 ADD DUP2 SWAP1 DIV DUP2 MUL DUP3 ADD DUP2 ADD SWAP1 SWAP3 MSTORE DUP7 DUP2 MSTORE SWAP2 DUP2 ADD SWAP2 SWAP1 DUP8 SWAP1 DUP8 SWAP1 DUP2 SWAP1 DUP5 ADD DUP4 DUP3 DUP1 DUP3 DUP5 CALLDATACOPY PUSH1 0x0 SWAP3 ADD DUP3 SWAP1 MSTORE POP SWAP4 DUP6 MSTORE POP POP POP PUSH1 0x20 DUP1 DUP4 ADD DUP3 SWAP1 MSTORE PUSH1 0x40 DUP1 DUP5 ADD DUP4 SWAP1 MSTORE PUSH1 0x1 PUSH1 0x60 SWAP1 SWAP5 ADD SWAP4 SWAP1 SWAP4 MSTORE DUP5 DUP3 MSTORE PUSH1 0x8 DUP2 MSTORE SWAP2 SWAP1 KECCAK256 DUP3 MLOAD DUP1 MLOAD SWAP2 SWAP3 PUSH2 0x1195 SWAP3 DUP5 SWAP3 SWAP1 SWAP2 ADD SWAP1 PUSH2 0x39FD JUMP JUMPDEST POP PUSH1 0x20 DUP3 DUP2 ADD MLOAD DUP1 MLOAD PUSH2 0x11AE SWAP3 PUSH1 0x1 DUP6 ADD SWAP3 ADD SWAP1 PUSH2 0x39FD JUMP JUMPDEST POP PUSH1 0x40 DUP3 DUP2 ADD MLOAD PUSH1 0x2 DUP4 ADD SSTORE PUSH1 0x60 DUP1 DUP5 ADD MLOAD PUSH1 0x3 DUP5 ADD SSTORE PUSH1 0x80 SWAP1 SWAP4 ADD MLOAD PUSH1 0x4 SWAP1 SWAP3 ADD DUP1 SLOAD PUSH1 0xFF NOT AND SWAP3 ISZERO ISZERO SWAP3 SWAP1 SWAP3 OR SWAP1 SWAP2 SSTORE PUSH1 0x6 DUP4 SWAP1 SSTORE DUP1 MLOAD DUP4 DUP2 MSTORE PUSH1 0x20 DUP2 ADD DUP3 DUP2 MSTORE SWAP2 DUP2 ADD DUP9 SWAP1 MSTORE PUSH32 0x1137F48534F03E02268DEC7839069A7484BC6788C43E4ED9DC38DD8A2F269BC7 SWAP3 DUP5 SWAP3 DUP11 SWAP3 DUP11 SWAP3 SWAP1 SWAP2 SWAP1 DUP3 ADD DUP5 DUP5 DUP1 DUP3 DUP5 CALLDATACOPY PUSH1 0x0 DUP4 DUP3 ADD MSTORE PUSH1 0x40 MLOAD PUSH1 0x1F SWAP1 SWAP2 ADD PUSH1 0x1F NOT AND SWAP1 SWAP3 ADD DUP3 SWAP1 SUB SWAP7 POP SWAP1 SWAP5 POP POP POP POP POP LOG1 POP POP POP POP POP POP JUMP JUMPDEST PUSH4 0xA85BD01 PUSH1 0xE1 SHL SWAP5 SWAP4 POP POP POP POP JUMP JUMPDEST PUSH1 0x40 DUP1 MLOAD PUSH10 0x504F494E545F524F4C45 PUSH1 0xB0 SHL DUP2 MSTORE SWAP1 MLOAD SWAP1 DUP2 SWAP1 SUB PUSH1 0xA ADD SWAP1 KECCAK256 PUSH2 0x128F SWAP1 PUSH2 0xFB8 PUSH2 0x32B2 JUMP JUMPDEST PUSH2 0x12D4 JUMPI PUSH1 0x40 DUP1 MLOAD PUSH3 0x461BCD PUSH1 0xE5 SHL DUP2 MSTORE PUSH1 0x20 PUSH1 0x4 DUP3 ADD MSTORE PUSH1 0x11 PUSH1 0x24 DUP3 ADD MSTORE PUSH17 0x2737BA1030903837B4B73A1030B236B4B7 PUSH1 0x79 SHL PUSH1 0x44 DUP3 ADD MSTORE SWAP1 MLOAD SWAP1 DUP2 SWAP1 SUB PUSH1 0x64 ADD SWAP1 REVERT JUMPDEST PUSH1 0x1 PUSH1 0x1 PUSH1 0xA0 SHL SUB DUP4 AND PUSH1 0x0 SWAP1 DUP2 MSTORE PUSH1 0x9 PUSH1 0x20 MSTORE PUSH1 0x40 SWAP1 KECCAK256 PUSH1 0x1 ADD SLOAD PUSH2 0x1300 SWAP1 DUP4 PUSH4 0xFFFFFFFF PUSH2 0x331E AND JUMP JUMPDEST PUSH1 0x1 PUSH1 0x1 PUSH1 0xA0 SHL SUB DUP5 AND PUSH1 0x0 DUP2 DUP2 MSTORE PUSH1 0x9 PUSH1 0x20 SWAP1 DUP2 MSTORE PUSH1 0x40 SWAP2 DUP3 SWAP1 KECCAK256 PUSH1 0x1 ADD SWAP4 SWAP1 SWAP4 SSTORE DUP1 MLOAD DUP6 DUP2 MSTORE SWAP1 MLOAD DUP5 SWAP4 PUSH32 0x4BC07BCB78BB21E5665CF01CD24F6A6A06E21FD20D60DF8F0FA8D58C66F2934 SWAP3 DUP3 SWAP1 SUB ADD SWAP1 LOG3 POP POP POP JUMP JUMPDEST PUSH1 0x5 SLOAD DUP2 JUMP JUMPDEST PUSH1 0x40 DUP1 MLOAD PUSH10 0x504F494E545F524F4C45 PUSH1 0xB0 SHL DUP2 MSTORE SWAP1 MLOAD SWAP1 DUP2 SWAP1 SUB PUSH1 0xA ADD SWAP1 KECCAK256 PUSH2 0x138A SWAP1 PUSH2 0xFB8 PUSH2 0x32B2 JUMP JUMPDEST PUSH2 0x13CF JUMPI PUSH1 0x40 DUP1 MLOAD PUSH3 0x461BCD PUSH1 0xE5 SHL DUP2 MSTORE PUSH1 0x20 PUSH1 0x4 DUP3 ADD MSTORE PUSH1 0x11 PUSH1 0x24 DUP3 ADD MSTORE PUSH17 0x2737BA1030903837B4B73A1030B236B4B7 PUSH1 0x79 SHL PUSH1 0x44 DUP3 ADD MSTORE SWAP1 MLOAD SWAP1 DUP2 SWAP1 SUB PUSH1 0x64 ADD SWAP1 REVERT JUMPDEST PUSH1 0x0 DUP4 DUP2 MSTORE PUSH1 0x8 PUSH1 0x20 MSTORE PUSH1 0x40 SWAP1 KECCAK256 PUSH1 0x3 ADD SLOAD PUSH2 0x13F1 SWAP1 DUP4 PUSH4 0xFFFFFFFF PUSH2 0x331E AND JUMP JUMPDEST PUSH1 0x8 PUSH1 0x0 DUP6 DUP2 MSTORE PUSH1 0x20 ADD SWAP1 DUP2 MSTORE PUSH1 0x20 ADD PUSH1 0x0 KECCAK256 PUSH1 0x3 ADD DUP2 SWAP1 SSTORE POP DUP1 DUP4 PUSH32 0x2056366A9D1345AF9DA00985231357931FB77DC7FA7BDF71058E3CA3816F9D38 DUP5 PUSH1 0x40 MLOAD DUP1 DUP3 DUP2 MSTORE PUSH1 0x20 ADD SWAP2 POP POP PUSH1 0x40 MLOAD DUP1 SWAP2 SUB SWAP1 LOG3 POP POP POP JUMP JUMPDEST PUSH2 0x1456 PUSH1 0x0 PUSH2 0xFB8 PUSH2 0x32B2 JUMP JUMPDEST PUSH2 0x149C JUMPI PUSH1 0x40 DUP1 MLOAD PUSH3 0x461BCD PUSH1 0xE5 SHL DUP2 MSTORE PUSH1 0x20 PUSH1 0x4 DUP3 ADD MSTORE PUSH1 0x12 PUSH1 0x24 DUP3 ADD MSTORE PUSH18 0x2737BA103A34329036B0B4B71030B236B4B7 PUSH1 0x71 SHL PUSH1 0x44 DUP3 ADD MSTORE SWAP1 MLOAD SWAP1 DUP2 SWAP1 SUB PUSH1 0x64 ADD SWAP1 REVERT JUMPDEST PUSH1 0x6 SLOAD DUP2 GT ISZERO DUP1 ISZERO PUSH2 0x14AE JUMPI POP PUSH1 0x0 DUP2 GT JUMPDEST PUSH2 0x14F0 JUMPI PUSH1 0x40 DUP1 MLOAD PUSH3 0x461BCD PUSH1 0xE5 SHL DUP2 MSTORE PUSH1 0x20 PUSH1 0x4 DUP3 ADD MSTORE PUSH1 0xE PUSH1 0x24 DUP3 ADD MSTORE PUSH14 0x1D19585B5259081A5B9D985B1A59 PUSH1 0x92 SHL PUSH1 0x44 DUP3 ADD MSTORE SWAP1 MLOAD SWAP1 DUP2 SWAP1 SUB PUSH1 0x64 ADD SWAP1 REVERT JUMPDEST PUSH1 0x0 SWAP1 DUP2 MSTORE PUSH1 0x8 PUSH1 0x20 MSTORE PUSH1 0x40 SWAP1 KECCAK256 PUSH1 0x4 ADD DUP1 SLOAD PUSH1 0xFF NOT AND SWAP1 SSTORE JUMP JUMPDEST PUSH1 0x0 SWAP1 DUP2 MSTORE PUSH1 0x20 DUP2 SWAP1 MSTORE PUSH1 0x40 SWAP1 KECCAK256 PUSH1 0x2 ADD SLOAD SWAP1 JUMP JUMPDEST PUSH2 0x152D PUSH1 0x0 PUSH2 0xFB8 PUSH2 0x32B2 JUMP JUMPDEST PUSH2 0x1573 JUMPI PUSH1 0x40 DUP1 MLOAD PUSH3 0x461BCD PUSH1 0xE5 SHL DUP2 MSTORE PUSH1 0x20 PUSH1 0x4 DUP3 ADD MSTORE PUSH1 0x12 PUSH1 0x24 DUP3 ADD MSTORE PUSH18 0x2737BA103A34329036B0B4B71030B236B4B7 PUSH1 0x71 SHL PUSH1 0x44 DUP3 ADD MSTORE SWAP1 MLOAD SWAP1 DUP2 SWAP1 SUB PUSH1 0x64 ADD SWAP1 REVERT JUMPDEST PUSH1 0x3 SWAP3 SWAP1 SWAP3 SSTORE PUSH1 0x4 SSTORE PUSH1 0x5 SSTORE JUMP JUMPDEST PUSH1 0x0 DUP3 DUP2 MSTORE PUSH1 0x20 DUP2 SWAP1 MSTORE PUSH1 0x40 SWAP1 KECCAK256 PUSH1 0x2 ADD SLOAD PUSH2 0x159F SWAP1 PUSH2 0xFB8 PUSH2 0x32B2 JUMP JUMPDEST PUSH2 0x15DA JUMPI PUSH1 0x40 MLOAD PUSH3 0x461BCD PUSH1 0xE5 SHL DUP2 MSTORE PUSH1 0x4 ADD DUP1 DUP1 PUSH1 0x20 ADD DUP3 DUP2 SUB DUP3 MSTORE PUSH1 0x2F DUP2 MSTORE PUSH1 0x20 ADD DUP1 PUSH2 0x3B26 PUSH1 0x2F SWAP2 CODECOPY PUSH1 0x40 ADD SWAP2 POP POP PUSH1 0x40 MLOAD DUP1 SWAP2 SUB SWAP1 REVERT JUMPDEST PUSH2 0x15E4 DUP3 DUP3 PUSH2 0x3378 JUMP JUMPDEST POP POP JUMP JUMPDEST PUSH2 0x15F0 PUSH2 0x32B2 JUMP JUMPDEST PUSH1 0x1 PUSH1 0x1 PUSH1 0xA0 SHL SUB AND DUP2 PUSH1 0x1 PUSH1 0x1 PUSH1 0xA0 SHL SUB AND EQ PUSH2 0x163F JUMPI PUSH1 0x40 MLOAD PUSH3 0x461BCD PUSH1 0xE5 SHL DUP2 MSTORE PUSH1 0x4 ADD DUP1 DUP1 PUSH1 0x20 ADD DUP3 DUP2 SUB DUP3 MSTORE PUSH1 0x2F DUP2 MSTORE PUSH1 0x20 ADD DUP1 PUSH2 0x3BD5 PUSH1 0x2F SWAP2 CODECOPY PUSH1 0x40 ADD SWAP2 POP POP PUSH1 0x40 MLOAD DUP1 SWAP2 SUB SWAP1 REVERT JUMPDEST PUSH2 0x15E4 DUP3 DUP3 PUSH2 0x33E7 JUMP JUMPDEST PUSH1 0x6 SLOAD DUP2 JUMP JUMPDEST PUSH1 0x4 SLOAD DUP2 JUMP JUMPDEST PUSH2 0x1662 PUSH1 0x0 PUSH2 0xFB8 PUSH2 0x32B2 JUMP JUMPDEST PUSH2 0x16A8 JUMPI PUSH1 0x40 DUP1 MLOAD PUSH3 0x461BCD PUSH1 0xE5 SHL DUP2 MSTORE PUSH1 0x20 PUSH1 0x4 DUP3 ADD MSTORE PUSH1 0x12 PUSH1 0x24 DUP3 ADD MSTORE PUSH18 0x2737BA103A34329036B0B4B71030B236B4B7 PUSH1 0x71 SHL PUSH1 0x44 DUP3 ADD MSTORE SWAP1 MLOAD SWAP1 DUP2 SWAP1 SUB PUSH1 0x64 ADD SWAP1 REVERT JUMPDEST PUSH1 0x40 DUP1 MLOAD PUSH4 0x1FFC9A7 PUSH1 0xE0 SHL DUP2 MSTORE PUSH4 0x80AC58CD PUSH1 0xE0 SHL PUSH1 0x4 DUP3 ADD MSTORE SWAP1 MLOAD PUSH1 0x1 PUSH1 0x1 PUSH1 0xA0 SHL SUB DUP4 AND SWAP2 PUSH4 0x1FFC9A7 SWAP2 PUSH1 0x24 DUP1 DUP4 ADD SWAP3 PUSH1 0x20 SWAP3 SWAP2 SWAP1 DUP3 SWAP1 SUB ADD DUP2 DUP7 DUP1 EXTCODESIZE ISZERO DUP1 ISZERO PUSH2 0x16F5 JUMPI PUSH1 0x0 DUP1 REVERT JUMPDEST POP GAS STATICCALL ISZERO DUP1 ISZERO PUSH2 0x1709 JUMPI RETURNDATASIZE PUSH1 0x0 DUP1 RETURNDATACOPY RETURNDATASIZE PUSH1 0x0 REVERT JUMPDEST POP POP POP POP PUSH1 0x40 MLOAD RETURNDATASIZE PUSH1 0x20 DUP2 LT ISZERO PUSH2 0x171F JUMPI PUSH1 0x0 DUP1 REVERT JUMPDEST POP MLOAD PUSH2 0x175F JUMPI PUSH1 0x40 DUP1 MLOAD PUSH3 0x461BCD PUSH1 0xE5 SHL DUP2 MSTORE PUSH1 0x20 PUSH1 0x4 DUP3 ADD MSTORE PUSH1 0xA PUSH1 0x24 DUP3 ADD MSTORE PUSH10 0x4E6F7420455243373231 PUSH1 0xB0 SHL PUSH1 0x44 DUP3 ADD MSTORE SWAP1 MLOAD SWAP1 DUP2 SWAP1 SUB PUSH1 0x64 ADD SWAP1 REVERT JUMPDEST PUSH1 0x40 DUP1 MLOAD PUSH8 0x4E46545F524F4C45 PUSH1 0xC0 SHL DUP2 MSTORE SWAP1 MLOAD SWAP1 DUP2 SWAP1 SUB PUSH1 0x8 ADD SWAP1 KECCAK256 PUSH2 0x1786 SWAP1 DUP3 PUSH2 0x1581 JUMP JUMPDEST POP JUMP JUMPDEST PUSH2 0x1796 PUSH1 0x0 PUSH2 0xFB8 PUSH2 0x32B2 JUMP JUMPDEST PUSH2 0x17DC JUMPI PUSH1 0x40 DUP1 MLOAD PUSH3 0x461BCD PUSH1 0xE5 SHL DUP2 MSTORE PUSH1 0x20 PUSH1 0x4 DUP3 ADD MSTORE PUSH1 0x12 PUSH1 0x24 DUP3 ADD MSTORE PUSH18 0x2737BA103A34329036B0B4B71030B236B4B7 PUSH1 0x71 SHL PUSH1 0x44 DUP3 ADD MSTORE SWAP1 MLOAD SWAP1 DUP2 SWAP1 SUB PUSH1 0x64 ADD SWAP1 REVERT JUMPDEST PUSH1 0x6 SLOAD DUP6 GT ISZERO DUP1 ISZERO PUSH2 0x17EE JUMPI POP PUSH1 0x0 DUP6 GT JUMPDEST PUSH2 0x1830 JUMPI PUSH1 0x40 DUP1 MLOAD PUSH3 0x461BCD PUSH1 0xE5 SHL DUP2 MSTORE PUSH1 0x20 PUSH1 0x4 DUP3 ADD MSTORE PUSH1 0xE PUSH1 0x24 DUP3 ADD MSTORE PUSH14 0x1D19585B5259081A5B9D985B1A59 PUSH1 0x92 SHL PUSH1 0x44 DUP3 ADD MSTORE SWAP1 MLOAD SWAP1 DUP2 SWAP1 SUB PUSH1 0x64 ADD SWAP1 REVERT JUMPDEST PUSH1 0x60 DUP5 DUP5 DUP1 DUP1 PUSH1 0x1F ADD PUSH1 0x20 DUP1 SWAP2 DIV MUL PUSH1 0x20 ADD PUSH1 0x40 MLOAD SWAP1 DUP2 ADD PUSH1 0x40 MSTORE DUP1 SWAP4 SWAP3 SWAP2 SWAP1 DUP2 DUP2 MSTORE PUSH1 0x20 ADD DUP4 DUP4 DUP1 DUP3 DUP5 CALLDATACOPY PUSH1 0x0 SWAP3 ADD SWAP2 SWAP1 SWAP2 MSTORE POP POP DUP3 MLOAD SWAP3 SWAP4 POP POP PUSH1 0x14 SWAP1 SWAP2 LT SWAP1 POP PUSH2 0x18B3 JUMPI PUSH1 0x40 DUP1 MLOAD PUSH3 0x461BCD PUSH1 0xE5 SHL DUP2 MSTORE PUSH1 0x20 PUSH1 0x4 DUP3 ADD MSTORE PUSH1 0xC PUSH1 0x24 DUP3 ADD MSTORE PUSH12 0x4D757374206265203C20323 PUSH1 0xA4 SHL PUSH1 0x44 DUP3 ADD MSTORE SWAP1 MLOAD SWAP1 DUP2 SWAP1 SUB PUSH1 0x64 ADD SWAP1 REVERT JUMPDEST PUSH1 0x3 DUP2 MLOAD GT PUSH2 0x18F7 JUMPI PUSH1 0x40 DUP1 MLOAD PUSH3 0x461BCD PUSH1 0xE5 SHL DUP2 MSTORE PUSH1 0x20 PUSH1 0x4 DUP3 ADD MSTORE PUSH1 0xB PUSH1 0x24 DUP3 ADD MSTORE PUSH11 0x4D757374206265203E2033 PUSH1 0xA8 SHL PUSH1 0x44 DUP3 ADD MSTORE SWAP1 MLOAD SWAP1 DUP2 SWAP1 SUB PUSH1 0x64 ADD SWAP1 REVERT JUMPDEST PUSH1 0x0 DUP7 DUP2 MSTORE PUSH1 0x8 PUSH1 0x20 MSTORE PUSH1 0x40 SWAP1 KECCAK256 PUSH2 0x1910 SWAP1 DUP7 DUP7 PUSH2 0x3A7B JUMP JUMPDEST POP PUSH1 0x0 DUP7 DUP2 MSTORE PUSH1 0x8 PUSH1 0x20 MSTORE PUSH1 0x40 SWAP1 KECCAK256 PUSH2 0x192D SWAP1 PUSH1 0x1 ADD DUP5 DUP5 PUSH2 0x3A7B JUMP JUMPDEST POP POP POP POP POP POP POP JUMP JUMPDEST PUSH1 0x1 SLOAD PUSH1 0x1 PUSH1 0x1 PUSH1 0xA0 SHL SUB AND DUP2 JUMP JUMPDEST PUSH1 0x0 DUP3 DUP2 MSTORE PUSH1 0x20 DUP2 SWAP1 MSTORE PUSH1 0x40 DUP2 KECCAK256 PUSH2 0x1963 SWAP1 DUP4 PUSH4 0xFFFFFFFF PUSH2 0x3456 AND JUMP JUMPDEST SWAP1 POP JUMPDEST SWAP3 SWAP2 POP POP JUMP JUMPDEST PUSH1 0x0 DUP3 DUP2 MSTORE PUSH1 0x20 DUP2 SWAP1 MSTORE PUSH1 0x40 DUP2 KECCAK256 PUSH2 0x1963 SWAP1 DUP4 PUSH4 0xFFFFFFFF PUSH2 0x3462 AND JUMP JUMPDEST PUSH1 0x1 PUSH1 0x1 PUSH1 0xA0 SHL SUB DUP2 AND PUSH1 0x0 SWAP1 DUP2 MSTORE PUSH1 0x7 PUSH1 0x20 MSTORE PUSH1 0x40 DUP2 KECCAK256 SLOAD DUP2 SWAP1 DUP2 SWAP1 DUP2 SWAP1 DUP2 SWAP1 DUP2 SWAP1 PUSH1 0xFF AND PUSH2 0x19F2 JUMPI PUSH1 0x40 DUP1 MLOAD PUSH3 0x461BCD PUSH1 0xE5 SHL DUP2 MSTORE PUSH1 0x20 PUSH1 0x4 DUP3 ADD MSTORE PUSH1 0xE PUSH1 0x24 DUP3 ADD MSTORE PUSH14 0x139BDD081C9959DA5CDD195C9959 PUSH1 0x92 SHL PUSH1 0x44 DUP3 ADD MSTORE SWAP1 MLOAD SWAP1 DUP2 SWAP1 SUB PUSH1 0x64 ADD SWAP1 REVERT JUMPDEST POP POP POP POP PUSH1 0x1 PUSH1 0x1 PUSH1 0xA0 SHL SUB SWAP3 DUP4 AND PUSH1 0x0 SWAP1 DUP2 MSTORE PUSH1 0x9 PUSH1 0x20 MSTORE PUSH1 0x40 SWAP1 KECCAK256 DUP1 SLOAD PUSH1 0x1 DUP3 ADD SLOAD PUSH1 0x2 DUP4 ADD SLOAD PUSH1 0x3 DUP5 ADD SLOAD PUSH1 0x4 DUP6 ADD SLOAD PUSH1 0x5 SWAP1 SWAP6 ADD SLOAD SWAP4 SWAP9 SWAP3 SWAP8 SWAP2 SWAP7 POP AND SWAP4 POP PUSH1 0xFF SWAP1 SWAP2 AND SWAP1 JUMP JUMPDEST PUSH1 0x7 PUSH1 0x20 MSTORE PUSH1 0x0 SWAP1 DUP2 MSTORE PUSH1 0x40 SWAP1 KECCAK256 SLOAD PUSH1 0xFF AND DUP2 JUMP JUMPDEST PUSH1 0x0 DUP2 JUMP JUMPDEST PUSH1 0x7 PUSH1 0x0 PUSH2 0x1A63 PUSH2 0x32B2 JUMP JUMPDEST PUSH1 0x1 PUSH1 0x1 PUSH1 0xA0 SHL SUB AND DUP2 MSTORE PUSH1 0x20 DUP2 ADD SWAP2 SWAP1 SWAP2 MSTORE PUSH1 0x40 ADD PUSH1 0x0 KECCAK256 SLOAD PUSH1 0xFF AND PUSH2 0x1AC6 JUMPI PUSH1 0x40 DUP1 MLOAD PUSH3 0x461BCD PUSH1 0xE5 SHL DUP2 MSTORE PUSH1 0x20 PUSH1 0x4 DUP3 ADD MSTORE PUSH1 0x12 PUSH1 0x24 DUP3 ADD MSTORE PUSH18 0x12185CC81B9BDD081C9959DA5CDD195C9959 PUSH1 0x72 SHL PUSH1 0x44 DUP3 ADD MSTORE SWAP1 MLOAD SWAP1 DUP2 SWAP1 SUB PUSH1 0x64 ADD SWAP1 REVERT JUMPDEST PUSH1 0x40 DUP1 MLOAD PUSH8 0x4E46545F524F4C45 PUSH1 0xC0 SHL DUP2 MSTORE SWAP1 MLOAD SWAP1 DUP2 SWAP1 SUB PUSH1 0x8 ADD SWAP1 KECCAK256 PUSH2 0x1AED SWAP1 DUP4 PUSH2 0x196C JUMP JUMPDEST PUSH2 0x1B34 JUMPI PUSH1 0x40 DUP1 MLOAD PUSH3 0x461BCD PUSH1 0xE5 SHL DUP2 MSTORE PUSH1 0x20 PUSH1 0x4 DUP3 ADD MSTORE PUSH1 0x13 PUSH1 0x24 DUP3 ADD MSTORE PUSH19 0x139195081859191C995CDCC81A5B9D985B1A59 PUSH1 0x6A SHL PUSH1 0x44 DUP3 ADD MSTORE SWAP1 MLOAD SWAP1 DUP2 SWAP1 SUB PUSH1 0x64 ADD SWAP1 REVERT JUMPDEST PUSH1 0x9 PUSH1 0x0 PUSH2 0x1B40 PUSH2 0x32B2 JUMP JUMPDEST PUSH1 0x1 PUSH1 0x1 PUSH1 0xA0 SHL SUB AND DUP2 MSTORE PUSH1 0x20 DUP2 ADD SWAP2 SWAP1 SWAP2 MSTORE PUSH1 0x40 ADD PUSH1 0x0 KECCAK256 PUSH1 0x5 ADD SLOAD PUSH1 0xFF AND ISZERO PUSH2 0x1BA3 JUMPI PUSH1 0x40 DUP1 MLOAD PUSH3 0x461BCD PUSH1 0xE5 SHL DUP2 MSTORE PUSH1 0x20 PUSH1 0x4 DUP3 ADD MSTORE PUSH1 0xE PUSH1 0x24 DUP3 ADD MSTORE PUSH14 0x5573657220697320616374697665 PUSH1 0x90 SHL PUSH1 0x44 DUP3 ADD MSTORE SWAP1 MLOAD SWAP1 DUP2 SWAP1 SUB PUSH1 0x64 ADD SWAP1 REVERT JUMPDEST PUSH1 0x0 DUP3 SWAP1 POP DUP1 PUSH1 0x1 PUSH1 0x1 PUSH1 0xA0 SHL SUB AND PUSH4 0x6352211E DUP4 PUSH1 0x40 MLOAD DUP3 PUSH4 0xFFFFFFFF AND PUSH1 0xE0 SHL DUP2 MSTORE PUSH1 0x4 ADD DUP1 DUP3 DUP2 MSTORE PUSH1 0x20 ADD SWAP2 POP POP PUSH1 0x20 PUSH1 0x40 MLOAD DUP1 DUP4 SUB DUP2 DUP7 DUP1 EXTCODESIZE ISZERO DUP1 ISZERO PUSH2 0x1BEC JUMPI PUSH1 0x0 DUP1 REVERT JUMPDEST POP GAS STATICCALL ISZERO DUP1 ISZERO PUSH2 0x1C00 JUMPI RETURNDATASIZE PUSH1 0x0 DUP1 RETURNDATACOPY RETURNDATASIZE PUSH1 0x0 REVERT JUMPDEST POP POP POP POP PUSH1 0x40 MLOAD RETURNDATASIZE PUSH1 0x20 DUP2 LT ISZERO PUSH2 0x1C16 JUMPI PUSH1 0x0 DUP1 REVERT JUMPDEST POP MLOAD PUSH1 0x1 PUSH1 0x1 PUSH1 0xA0 SHL SUB AND PUSH2 0x1C29 PUSH2 0x32B2 JUMP JUMPDEST PUSH1 0x1 PUSH1 0x1 PUSH1 0xA0 SHL SUB AND EQ PUSH2 0x1C80 JUMPI PUSH1 0x40 DUP1 MLOAD PUSH3 0x461BCD PUSH1 0xE5 SHL DUP2 MSTORE PUSH1 0x20 PUSH1 0x4 DUP3 ADD MSTORE PUSH1 0x19 PUSH1 0x24 DUP3 ADD MSTORE PUSH25 0x4F6E6C79204E4654206F776E65722063616E20757064617465 PUSH1 0x38 SHL PUSH1 0x44 DUP3 ADD MSTORE SWAP1 MLOAD SWAP1 DUP2 SWAP1 SUB PUSH1 0x64 ADD SWAP1 REVERT JUMPDEST PUSH2 0x1CA9 PUSH2 0x1C8B PUSH2 0x32B2 JUMP JUMPDEST PUSH1 0x3 SLOAD PUSH1 0x1 SLOAD PUSH1 0x1 PUSH1 0x1 PUSH1 0xA0 SHL SUB AND SWAP2 SWAP1 ADDRESS SWAP1 PUSH4 0xFFFFFFFF PUSH2 0x32B7 AND JUMP JUMPDEST DUP1 PUSH1 0x1 PUSH1 0x1 PUSH1 0xA0 SHL SUB AND PUSH4 0x42842E0E PUSH2 0x1CC0 PUSH2 0x32B2 JUMP JUMPDEST PUSH1 0x40 DUP1 MLOAD PUSH1 0x1 PUSH1 0x1 PUSH1 0xE0 SHL SUB NOT PUSH1 0xE0 DUP6 SWAP1 SHL AND DUP2 MSTORE PUSH1 0x1 PUSH1 0x1 PUSH1 0xA0 SHL SUB SWAP1 SWAP3 AND PUSH1 0x4 DUP4 ADD MSTORE ADDRESS PUSH1 0x24 DUP4 ADD MSTORE PUSH1 0x44 DUP3 ADD DUP7 SWAP1 MSTORE MLOAD PUSH1 0x64 DUP1 DUP4 ADD SWAP3 PUSH1 0x0 SWAP3 SWAP2 SWAP1 DUP3 SWAP1 SUB ADD DUP2 DUP4 DUP8 DUP1 EXTCODESIZE ISZERO DUP1 ISZERO PUSH2 0x1D13 JUMPI PUSH1 0x0 DUP1 REVERT JUMPDEST POP GAS CALL ISZERO DUP1 ISZERO PUSH2 0x1D27 JUMPI RETURNDATASIZE PUSH1 0x0 DUP1 RETURNDATACOPY RETURNDATASIZE PUSH1 0x0 REVERT JUMPDEST POP POP POP POP PUSH1 0x0 PUSH1 0x9 PUSH1 0x0 PUSH2 0x1D39 PUSH2 0x32B2 JUMP JUMPDEST PUSH1 0x1 PUSH1 0x1 PUSH1 0xA0 SHL SUB AND PUSH1 0x1 PUSH1 0x1 PUSH1 0xA0 SHL SUB AND DUP2 MSTORE PUSH1 0x20 ADD SWAP1 DUP2 MSTORE PUSH1 0x20 ADD PUSH1 0x0 KECCAK256 PUSH1 0x2 ADD SLOAD SWAP1 POP PUSH2 0x1D89 PUSH1 0x1 PUSH1 0x8 PUSH1 0x0 DUP5 DUP2 MSTORE PUSH1 0x20 ADD SWAP1 DUP2 MSTORE PUSH1 0x20 ADD PUSH1 0x0 KECCAK256 PUSH1 0x2 ADD SLOAD PUSH2 0x331E SWAP1 SWAP2 SWAP1 PUSH4 0xFFFFFFFF AND JUMP JUMPDEST PUSH1 0x0 DUP3 DUP2 MSTORE PUSH1 0x8 PUSH1 0x20 MSTORE PUSH1 0x40 SWAP1 KECCAK256 PUSH1 0x2 SWAP1 DUP2 ADD SWAP2 SWAP1 SWAP2 SSTORE SLOAD PUSH2 0x1DB2 SWAP1 PUSH1 0x1 PUSH4 0xFFFFFFFF PUSH2 0x331E AND JUMP JUMPDEST PUSH1 0x2 SSTORE PUSH1 0x1 PUSH1 0x9 PUSH1 0x0 PUSH2 0x1DC3 PUSH2 0x32B2 JUMP JUMPDEST PUSH1 0x1 PUSH1 0x1 PUSH1 0xA0 SHL SUB AND PUSH1 0x1 PUSH1 0x1 PUSH1 0xA0 SHL SUB AND DUP2 MSTORE PUSH1 0x20 ADD SWAP1 DUP2 MSTORE PUSH1 0x20 ADD PUSH1 0x0 KECCAK256 PUSH1 0x5 ADD PUSH1 0x0 PUSH2 0x100 EXP DUP2 SLOAD DUP2 PUSH1 0xFF MUL NOT AND SWAP1 DUP4 ISZERO ISZERO MUL OR SWAP1 SSTORE POP DUP4 PUSH1 0x9 PUSH1 0x0 PUSH2 0x1E0A PUSH2 0x32B2 JUMP JUMPDEST PUSH1 0x1 PUSH1 0x1 PUSH1 0xA0 SHL SUB AND PUSH1 0x1 PUSH1 0x1 PUSH1 0xA0 SHL SUB AND DUP2 MSTORE PUSH1 0x20 ADD SWAP1 DUP2 MSTORE PUSH1 0x20 ADD PUSH1 0x0 KECCAK256 PUSH1 0x3 ADD PUSH1 0x0 PUSH2 0x100 EXP DUP2 SLOAD DUP2 PUSH1 0x1 PUSH1 0x1 PUSH1 0xA0 SHL SUB MUL NOT AND SWAP1 DUP4 PUSH1 0x1 PUSH1 0x1 PUSH1 0xA0 SHL SUB AND MUL OR SWAP1 SSTORE POP DUP3 PUSH1 0x9 PUSH1 0x0 PUSH2 0x1E5E PUSH2 0x32B2 JUMP JUMPDEST PUSH1 0x1 PUSH1 0x1 PUSH1 0xA0 SHL SUB AND DUP2 MSTORE PUSH1 0x20 DUP2 ADD SWAP2 SWAP1 SWAP2 MSTORE PUSH1 0x40 ADD PUSH1 0x0 KECCAK256 PUSH1 0x4 ADD SSTORE PUSH2 0x1E83 PUSH2 0x32B2 JUMP JUMPDEST PUSH1 0x40 DUP1 MLOAD DUP4 DUP2 MSTORE PUSH1 0x1 PUSH1 0x1 PUSH1 0xA0 SHL SUB DUP8 DUP2 AND PUSH1 0x20 DUP4 ADD MSTORE DUP2 DUP4 ADD DUP8 SWAP1 MSTORE SWAP2 MLOAD SWAP3 SWAP1 SWAP2 AND SWAP2 PUSH32 0xDB76EEA80687B6553E5D689FF9D000C0CE2C10574B39D64CACC2B4F6F54F6838 SWAP2 DUP2 SWAP1 SUB PUSH1 0x60 ADD SWAP1 LOG2 POP POP POP POP JUMP JUMPDEST PUSH1 0x40 DUP1 MLOAD PUSH10 0x504F494E545F524F4C45 PUSH1 0xB0 SHL DUP2 MSTORE SWAP1 MLOAD SWAP1 DUP2 SWAP1 SUB PUSH1 0xA ADD SWAP1 KECCAK256 PUSH2 0x1F02 SWAP1 PUSH2 0xFB8 PUSH2 0x32B2 JUMP JUMPDEST PUSH2 0x1F47 JUMPI PUSH1 0x40 DUP1 MLOAD PUSH3 0x461BCD PUSH1 0xE5 SHL DUP2 MSTORE PUSH1 0x20 PUSH1 0x4 DUP3 ADD MSTORE PUSH1 0x11 PUSH1 0x24 DUP3 ADD MSTORE PUSH17 0x2737BA1030903837B4B73A1030B236B4B7 PUSH1 0x79 SHL PUSH1 0x44 DUP3 ADD MSTORE SWAP1 MLOAD SWAP1 DUP2 SWAP1 SUB PUSH1 0x64 ADD SWAP1 REVERT JUMPDEST PUSH2 0x3E9 DUP3 LT PUSH2 0x1F95 JUMPI PUSH1 0x40 DUP1 MLOAD PUSH3 0x461BCD PUSH1 0xE5 SHL DUP2 MSTORE PUSH1 0x20 PUSH1 0x4 DUP3 ADD MSTORE PUSH1 0x15 PUSH1 0x24 DUP3 ADD MSTORE PUSH21 0x4C656E677468206D757374206265203C2031303031 PUSH1 0x58 SHL PUSH1 0x44 DUP3 ADD MSTORE SWAP1 MLOAD SWAP1 DUP2 SWAP1 SUB PUSH1 0x64 ADD SWAP1 REVERT JUMPDEST PUSH1 0x0 JUMPDEST DUP3 DUP2 LT ISZERO PUSH2 0x204A JUMPI PUSH2 0x1FF6 DUP3 PUSH1 0x9 PUSH1 0x0 DUP8 DUP8 DUP7 DUP2 DUP2 LT PUSH2 0x1FB4 JUMPI INVALID JUMPDEST SWAP1 POP PUSH1 0x20 MUL ADD CALLDATALOAD PUSH1 0x1 PUSH1 0x1 PUSH1 0xA0 SHL SUB AND PUSH1 0x1 PUSH1 0x1 PUSH1 0xA0 SHL SUB AND PUSH1 0x1 PUSH1 0x1 PUSH1 0xA0 SHL SUB AND DUP2 MSTORE PUSH1 0x20 ADD SWAP1 DUP2 MSTORE PUSH1 0x20 ADD PUSH1 0x0 KECCAK256 PUSH1 0x1 ADD SLOAD PUSH2 0x3477 SWAP1 SWAP2 SWAP1 PUSH4 0xFFFFFFFF AND JUMP JUMPDEST PUSH1 0x9 PUSH1 0x0 DUP7 DUP7 DUP6 DUP2 DUP2 LT PUSH2 0x2006 JUMPI INVALID JUMPDEST SWAP1 POP PUSH1 0x20 MUL ADD CALLDATALOAD PUSH1 0x1 PUSH1 0x1 PUSH1 0xA0 SHL SUB AND PUSH1 0x1 PUSH1 0x1 PUSH1 0xA0 SHL SUB AND PUSH1 0x1 PUSH1 0x1 PUSH1 0xA0 SHL SUB AND DUP2 MSTORE PUSH1 0x20 ADD SWAP1 DUP2 MSTORE PUSH1 0x20 ADD PUSH1 0x0 KECCAK256 PUSH1 0x1 ADD DUP2 SWAP1 SSTORE POP DUP1 DUP1 PUSH1 0x1 ADD SWAP2 POP POP PUSH2 0x1F98 JUMP JUMPDEST POP POP POP POP JUMP JUMPDEST PUSH1 0x60 DUP1 PUSH1 0x0 DUP1 PUSH1 0x0 PUSH1 0x6 SLOAD DUP7 GT ISZERO DUP1 ISZERO PUSH2 0x206A JUMPI POP PUSH1 0x0 DUP7 GT JUMPDEST PUSH2 0x20AC JUMPI PUSH1 0x40 DUP1 MLOAD PUSH3 0x461BCD PUSH1 0xE5 SHL DUP2 MSTORE PUSH1 0x20 PUSH1 0x4 DUP3 ADD MSTORE PUSH1 0xE PUSH1 0x24 DUP3 ADD MSTORE PUSH14 0x1D19585B5259081A5B9D985B1A59 PUSH1 0x92 SHL PUSH1 0x44 DUP3 ADD MSTORE SWAP1 MLOAD SWAP1 DUP2 SWAP1 SUB PUSH1 0x64 ADD SWAP1 REVERT JUMPDEST PUSH1 0x0 DUP7 DUP2 MSTORE PUSH1 0x8 PUSH1 0x20 SWAP1 DUP2 MSTORE PUSH1 0x40 SWAP2 DUP3 SWAP1 KECCAK256 PUSH1 0x2 DUP1 DUP3 ADD SLOAD PUSH1 0x3 DUP4 ADD SLOAD PUSH1 0x4 DUP5 ADD SLOAD DUP5 SLOAD DUP8 MLOAD PUSH1 0x1F PUSH1 0x0 NOT PUSH1 0x1 DUP5 DUP2 AND ISZERO PUSH2 0x100 MUL SWAP2 SWAP1 SWAP2 ADD SWAP1 SWAP4 AND SWAP7 SWAP1 SWAP7 DIV SWAP6 DUP7 ADD DUP9 SWAP1 DIV DUP9 MUL DUP2 ADD DUP9 ADD SWAP1 SWAP9 MSTORE DUP5 DUP9 MSTORE SWAP5 SWAP7 SWAP5 DUP8 ADD SWAP6 SWAP3 SWAP5 SWAP2 SWAP4 PUSH1 0xFF SWAP1 SWAP2 AND SWAP3 DUP8 SWAP2 SWAP1 DUP4 ADD DUP3 DUP3 DUP1 ISZERO PUSH2 0x2162 JUMPI DUP1 PUSH1 0x1F LT PUSH2 0x2137 JUMPI PUSH2 0x100 DUP1 DUP4 SLOAD DIV MUL DUP4 MSTORE SWAP2 PUSH1 0x20 ADD SWAP2 PUSH2 0x2162 JUMP JUMPDEST DUP3 ADD SWAP2 SWAP1 PUSH1 0x0 MSTORE PUSH1 0x20 PUSH1 0x0 KECCAK256 SWAP1 JUMPDEST DUP2 SLOAD DUP2 MSTORE SWAP1 PUSH1 0x1 ADD SWAP1 PUSH1 0x20 ADD DUP1 DUP4 GT PUSH2 0x2145 JUMPI DUP3 SWAP1 SUB PUSH1 0x1F AND DUP3 ADD SWAP2 JUMPDEST POP POP DUP8 SLOAD PUSH1 0x40 DUP1 MLOAD PUSH1 0x20 PUSH1 0x2 PUSH1 0x1 DUP6 AND ISZERO PUSH2 0x100 MUL PUSH1 0x0 NOT ADD SWAP1 SWAP5 AND SWAP4 SWAP1 SWAP4 DIV PUSH1 0x1F DUP2 ADD DUP5 SWAP1 DIV DUP5 MUL DUP3 ADD DUP5 ADD SWAP1 SWAP3 MSTORE DUP2 DUP2 MSTORE SWAP6 SWAP11 POP DUP10 SWAP5 POP SWAP3 POP DUP5 ADD SWAP1 POP DUP3 DUP3 DUP1 ISZERO PUSH2 0x21F0 JUMPI DUP1 PUSH1 0x1F LT PUSH2 0x21C5 JUMPI PUSH2 0x100 DUP1 DUP4 SLOAD DIV MUL DUP4 MSTORE SWAP2 PUSH1 0x20 ADD SWAP2 PUSH2 0x21F0 JUMP JUMPDEST DUP3 ADD SWAP2 SWAP1 PUSH1 0x0 MSTORE PUSH1 0x20 PUSH1 0x0 KECCAK256 SWAP1 JUMPDEST DUP2 SLOAD DUP2 MSTORE SWAP1 PUSH1 0x1 ADD SWAP1 PUSH1 0x20 ADD DUP1 DUP4 GT PUSH2 0x21D3 JUMPI DUP3 SWAP1 SUB PUSH1 0x1F AND DUP3 ADD SWAP2 JUMPDEST POP SWAP9 SWAP16 SWAP4 SWAP15 POP SWAP6 SWAP13 POP SWAP4 SWAP11 POP SWAP2 SWAP9 POP SWAP7 POP POP POP POP POP POP POP JUMP JUMPDEST PUSH1 0x2 SLOAD DUP2 JUMP JUMPDEST PUSH1 0x40 DUP1 MLOAD PUSH12 0x5350454349414C5F524F4C45 PUSH1 0xA0 SHL DUP2 MSTORE SWAP1 MLOAD SWAP1 DUP2 SWAP1 SUB PUSH1 0xC ADD SWAP1 KECCAK256 DUP2 JUMP JUMPDEST PUSH1 0x7 PUSH1 0x0 PUSH2 0x223F PUSH2 0x32B2 JUMP JUMPDEST PUSH1 0x1 PUSH1 0x1 PUSH1 0xA0 SHL SUB AND DUP2 MSTORE PUSH1 0x20 DUP2 ADD SWAP2 SWAP1 SWAP2 MSTORE PUSH1 0x40 ADD PUSH1 0x0 KECCAK256 SLOAD PUSH1 0xFF AND PUSH2 0x22A2 JUMPI PUSH1 0x40 DUP1 MLOAD PUSH3 0x461BCD PUSH1 0xE5 SHL DUP2 MSTORE PUSH1 0x20 PUSH1 0x4 DUP3 ADD MSTORE PUSH1 0x12 PUSH1 0x24 DUP3 ADD MSTORE PUSH18 0x12185CC81B9BDD081C9959DA5CDD195C9959 PUSH1 0x72 SHL PUSH1 0x44 DUP3 ADD MSTORE SWAP1 MLOAD SWAP1 DUP2 SWAP1 SUB PUSH1 0x64 ADD SWAP1 REVERT JUMPDEST PUSH1 0x9 PUSH1 0x0 PUSH2 0x22AE PUSH2 0x32B2 JUMP JUMPDEST PUSH1 0x1 PUSH1 0x1 PUSH1 0xA0 SHL SUB AND DUP2 MSTORE PUSH1 0x20 DUP2 ADD SWAP2 SWAP1 SWAP2 MSTORE PUSH1 0x40 ADD PUSH1 0x0 KECCAK256 PUSH1 0x5 ADD SLOAD PUSH1 0xFF AND PUSH2 0x2311 JUMPI PUSH1 0x40 DUP1 MLOAD PUSH3 0x461BCD PUSH1 0xE5 SHL DUP2 MSTORE PUSH1 0x20 PUSH1 0x4 DUP3 ADD MSTORE PUSH1 0xF PUSH1 0x24 DUP3 ADD MSTORE PUSH15 0x55736572206E6F7420616374697665 PUSH1 0x88 SHL PUSH1 0x44 DUP3 ADD MSTORE SWAP1 MLOAD SWAP1 DUP2 SWAP1 SUB PUSH1 0x64 ADD SWAP1 REVERT JUMPDEST PUSH1 0x0 PUSH1 0x9 PUSH1 0x0 PUSH2 0x231F PUSH2 0x32B2 JUMP JUMPDEST PUSH1 0x1 PUSH1 0x1 PUSH1 0xA0 SHL SUB AND DUP2 MSTORE PUSH1 0x20 DUP2 ADD SWAP2 SWAP1 SWAP2 MSTORE PUSH1 0x40 ADD PUSH1 0x0 SWAP1 DUP2 KECCAK256 PUSH1 0x5 ADD DUP1 SLOAD PUSH1 0xFF NOT AND SWAP3 ISZERO ISZERO SWAP3 SWAP1 SWAP3 OR SWAP1 SWAP2 SSTORE PUSH1 0x9 DUP2 PUSH2 0x2358 PUSH2 0x32B2 JUMP JUMPDEST PUSH1 0x1 PUSH1 0x1 PUSH1 0xA0 SHL SUB AND PUSH1 0x1 PUSH1 0x1 PUSH1 0xA0 SHL SUB AND DUP2 MSTORE PUSH1 0x20 ADD SWAP1 DUP2 MSTORE PUSH1 0x20 ADD PUSH1 0x0 KECCAK256 PUSH1 0x2 ADD SLOAD SWAP1 POP PUSH2 0x23A8 PUSH1 0x1 PUSH1 0x8 PUSH1 0x0 DUP5 DUP2 MSTORE PUSH1 0x20 ADD SWAP1 DUP2 MSTORE PUSH1 0x20 ADD PUSH1 0x0 KECCAK256 PUSH1 0x2 ADD SLOAD PUSH2 0x3477 SWAP1 SWAP2 SWAP1 PUSH4 0xFFFFFFFF AND JUMP JUMPDEST PUSH1 0x0 DUP3 DUP2 MSTORE PUSH1 0x8 PUSH1 0x20 MSTORE PUSH1 0x40 SWAP1 KECCAK256 PUSH1 0x2 SWAP1 DUP2 ADD SWAP2 SWAP1 SWAP2 SSTORE SLOAD PUSH2 0x23D1 SWAP1 PUSH1 0x1 PUSH4 0xFFFFFFFF PUSH2 0x3477 AND JUMP JUMPDEST PUSH1 0x2 SSTORE PUSH1 0x0 PUSH1 0x9 DUP2 PUSH2 0x23E1 PUSH2 0x32B2 JUMP JUMPDEST PUSH1 0x1 PUSH1 0x1 PUSH1 0xA0 SHL SUB SWAP1 DUP2 AND DUP3 MSTORE PUSH1 0x20 DUP3 ADD SWAP3 SWAP1 SWAP3 MSTORE PUSH1 0x40 ADD PUSH1 0x0 SWAP1 DUP2 KECCAK256 PUSH1 0x3 ADD SLOAD SWAP1 SWAP2 AND SWAP2 POP PUSH1 0x9 DUP2 PUSH2 0x2412 PUSH2 0x32B2 JUMP JUMPDEST PUSH1 0x1 PUSH1 0x1 PUSH1 0xA0 SHL SUB AND PUSH1 0x1 PUSH1 0x1 PUSH1 0xA0 SHL SUB AND DUP2 MSTORE PUSH1 0x20 ADD SWAP1 DUP2 MSTORE PUSH1 0x20 ADD PUSH1 0x0 KECCAK256 PUSH1 0x4 ADD SLOAD SWAP1 POP PUSH1 0x0 PUSH1 0x9 PUSH1 0x0 PUSH2 0x2446 PUSH2 0x32B2 JUMP JUMPDEST PUSH1 0x1 PUSH1 0x1 PUSH1 0xA0 SHL SUB AND PUSH1 0x1 PUSH1 0x1 PUSH1 0xA0 SHL SUB AND DUP2 MSTORE PUSH1 0x20 ADD SWAP1 DUP2 MSTORE PUSH1 0x20 ADD PUSH1 0x0 KECCAK256 PUSH1 0x3 ADD PUSH1 0x0 PUSH2 0x100 EXP DUP2 SLOAD DUP2 PUSH1 0x1 PUSH1 0x1 PUSH1 0xA0 SHL SUB MUL NOT AND SWAP1 DUP4 PUSH1 0x1 PUSH1 0x1 PUSH1 0xA0 SHL SUB AND MUL OR SWAP1 SSTORE POP PUSH1 0x0 PUSH1 0x9 PUSH1 0x0 PUSH2 0x249B PUSH2 0x32B2 JUMP JUMPDEST PUSH1 0x1 PUSH1 0x1 PUSH1 0xA0 SHL SUB AND PUSH1 0x1 PUSH1 0x1 PUSH1 0xA0 SHL SUB AND DUP2 MSTORE PUSH1 0x20 ADD SWAP1 DUP2 MSTORE PUSH1 0x20 ADD PUSH1 0x0 KECCAK256 PUSH1 0x4 ADD DUP2 SWAP1 SSTORE POP DUP2 PUSH1 0x1 PUSH1 0x1 PUSH1 0xA0 SHL SUB AND PUSH4 0x42842E0E ADDRESS PUSH2 0x24DA PUSH2 0x32B2 JUMP JUMPDEST DUP5 PUSH1 0x40 MLOAD DUP5 PUSH4 0xFFFFFFFF AND PUSH1 0xE0 SHL DUP2 MSTORE PUSH1 0x4 ADD DUP1 DUP5 PUSH1 0x1 PUSH1 0x1 PUSH1 0xA0 SHL SUB AND PUSH1 0x1 PUSH1 0x1 PUSH1 0xA0 SHL SUB AND DUP2 MSTORE PUSH1 0x20 ADD DUP4 PUSH1 0x1 PUSH1 0x1 PUSH1 0xA0 SHL SUB AND PUSH1 0x1 PUSH1 0x1 PUSH1 0xA0 SHL SUB AND DUP2 MSTORE PUSH1 0x20 ADD DUP3 DUP2 MSTORE PUSH1 0x20 ADD SWAP4 POP POP POP POP PUSH1 0x0 PUSH1 0x40 MLOAD DUP1 DUP4 SUB DUP2 PUSH1 0x0 DUP8 DUP1 EXTCODESIZE ISZERO DUP1 ISZERO PUSH2 0x2543 JUMPI PUSH1 0x0 DUP1 REVERT JUMPDEST POP GAS CALL ISZERO DUP1 ISZERO PUSH2 0x2557 JUMPI RETURNDATASIZE PUSH1 0x0 DUP1 RETURNDATACOPY RETURNDATASIZE PUSH1 0x0 REVERT JUMPDEST POP POP POP POP PUSH2 0x2563 PUSH2 0x32B2 JUMP JUMPDEST PUSH1 0x1 PUSH1 0x1 PUSH1 0xA0 SHL SUB AND PUSH32 0xE0ED25582C4D86FD51BFE26383781FC8BBF5636813CBFDF93C440B5828C93040 DUP5 PUSH1 0x40 MLOAD DUP1 DUP3 DUP2 MSTORE PUSH1 0x20 ADD SWAP2 POP POP PUSH1 0x40 MLOAD DUP1 SWAP2 SUB SWAP1 LOG2 POP POP POP JUMP JUMPDEST PUSH1 0x40 DUP1 MLOAD PUSH10 0x504F494E545F524F4C45 PUSH1 0xB0 SHL DUP2 MSTORE SWAP1 MLOAD SWAP1 DUP2 SWAP1 SUB PUSH1 0xA ADD SWAP1 KECCAK256 DUP2 JUMP JUMPDEST PUSH1 0x0 DUP2 DUP2 MSTORE PUSH1 0x20 DUP2 SWAP1 MSTORE PUSH1 0x40 DUP2 KECCAK256 PUSH2 0x1966 SWAP1 PUSH2 0x34B9 JUMP JUMPDEST PUSH1 0x40 DUP1 MLOAD PUSH10 0x504F494E545F524F4C45 PUSH1 0xB0 SHL DUP2 MSTORE SWAP1 MLOAD SWAP1 DUP2 SWAP1 SUB PUSH1 0xA ADD SWAP1 KECCAK256 PUSH2 0x260C SWAP1 PUSH2 0xFB8 PUSH2 0x32B2 JUMP JUMPDEST PUSH2 0x2651 JUMPI PUSH1 0x40 DUP1 MLOAD PUSH3 0x461BCD PUSH1 0xE5 SHL DUP2 MSTORE PUSH1 0x20 PUSH1 0x4 DUP3 ADD MSTORE PUSH1 0x11 PUSH1 0x24 DUP3 ADD MSTORE PUSH17 0x2737BA1030903837B4B73A1030B236B4B7 PUSH1 0x79 SHL PUSH1 0x44 DUP3 ADD MSTORE SWAP1 MLOAD SWAP1 DUP2 SWAP1 SUB PUSH1 0x64 ADD SWAP1 REVERT JUMPDEST PUSH1 0x0 DUP3 DUP2 MSTORE PUSH1 0x8 PUSH1 0x20 MSTORE PUSH1 0x40 SWAP1 KECCAK256 PUSH1 0x3 ADD SLOAD PUSH2 0x2673 SWAP1 DUP3 PUSH4 0xFFFFFFFF PUSH2 0x3477 AND JUMP JUMPDEST PUSH1 0x0 SWAP3 DUP4 MSTORE PUSH1 0x8 PUSH1 0x20 MSTORE PUSH1 0x40 SWAP1 SWAP3 KECCAK256 PUSH1 0x3 ADD SWAP2 SWAP1 SWAP2 SSTORE POP JUMP JUMPDEST PUSH1 0x0 DUP3 DUP2 MSTORE PUSH1 0x20 DUP2 SWAP1 MSTORE PUSH1 0x40 SWAP1 KECCAK256 PUSH1 0x2 ADD SLOAD PUSH2 0x26AA SWAP1 PUSH2 0xFB8 PUSH2 0x32B2 JUMP JUMPDEST PUSH2 0x163F JUMPI PUSH1 0x40 MLOAD PUSH3 0x461BCD PUSH1 0xE5 SHL DUP2 MSTORE PUSH1 0x4 ADD DUP1 DUP1 PUSH1 0x20 ADD DUP3 DUP2 SUB DUP3 MSTORE PUSH1 0x30 DUP2 MSTORE PUSH1 0x20 ADD DUP1 PUSH2 0x3BA5 PUSH1 0x30 SWAP2 CODECOPY PUSH1 0x40 ADD SWAP2 POP POP PUSH1 0x40 MLOAD DUP1 SWAP2 SUB SWAP1 REVERT JUMPDEST PUSH1 0x40 DUP1 MLOAD PUSH10 0x504F494E545F524F4C45 PUSH1 0xB0 SHL DUP2 MSTORE SWAP1 MLOAD SWAP1 DUP2 SWAP1 SUB PUSH1 0xA ADD SWAP1 KECCAK256 PUSH2 0x2710 SWAP1 PUSH2 0xFB8 PUSH2 0x32B2 JUMP JUMPDEST PUSH2 0x2755 JUMPI PUSH1 0x40 DUP1 MLOAD PUSH3 0x461BCD PUSH1 0xE5 SHL DUP2 MSTORE PUSH1 0x20 PUSH1 0x4 DUP3 ADD MSTORE PUSH1 0x11 PUSH1 0x24 DUP3 ADD MSTORE PUSH17 0x2737BA1030903837B4B73A1030B236B4B7 PUSH1 0x79 SHL PUSH1 0x44 DUP3 ADD MSTORE SWAP1 MLOAD SWAP1 DUP2 SWAP1 SUB PUSH1 0x64 ADD SWAP1 REVERT JUMPDEST PUSH1 0x1 PUSH1 0x1 PUSH1 0xA0 SHL SUB DUP3 AND PUSH1 0x0 SWAP1 DUP2 MSTORE PUSH1 0x9 PUSH1 0x20 MSTORE PUSH1 0x40 SWAP1 KECCAK256 PUSH1 0x1 ADD SLOAD PUSH2 0x2781 SWAP1 DUP3 PUSH4 0xFFFFFFFF PUSH2 0x3477 AND JUMP JUMPDEST PUSH1 0x1 PUSH1 0x1 PUSH1 0xA0 SHL SUB SWAP1 SWAP3 AND PUSH1 0x0 SWAP1 DUP2 MSTORE PUSH1 0x9 PUSH1 0x20 MSTORE PUSH1 0x40 SWAP1 KECCAK256 PUSH1 0x1 ADD SWAP2 SWAP1 SWAP2 SSTORE POP JUMP JUMPDEST PUSH1 0x3 SLOAD DUP2 JUMP JUMPDEST PUSH1 0x40 DUP1 MLOAD PUSH10 0x504F494E545F524F4C45 PUSH1 0xB0 SHL DUP2 MSTORE SWAP1 MLOAD SWAP1 DUP2 SWAP1 SUB PUSH1 0xA ADD SWAP1 KECCAK256 PUSH2 0x27D5 SWAP1 PUSH2 0xFB8 PUSH2 0x32B2 JUMP JUMPDEST PUSH2 0x281A JUMPI PUSH1 0x40 DUP1 MLOAD PUSH3 0x461BCD PUSH1 0xE5 SHL DUP2 MSTORE PUSH1 0x20 PUSH1 0x4 DUP3 ADD MSTORE PUSH1 0x11 PUSH1 0x24 DUP3 ADD MSTORE PUSH17 0x2737BA1030903837B4B73A1030B236B4B7 PUSH1 0x79 SHL PUSH1 0x44 DUP3 ADD MSTORE SWAP1 MLOAD SWAP1 DUP2 SWAP1 SUB PUSH1 0x64 ADD SWAP1 REVERT JUMPDEST PUSH2 0x3E9 DUP4 LT PUSH2 0x2868 JUMPI PUSH1 0x40 DUP1 MLOAD PUSH3 0x461BCD PUSH1 0xE5 SHL DUP2 MSTORE PUSH1 0x20 PUSH1 0x4 DUP3 ADD MSTORE PUSH1 0x15 PUSH1 0x24 DUP3 ADD MSTORE PUSH21 0x4C656E677468206D757374206265203C2031303031 PUSH1 0x58 SHL PUSH1 0x44 DUP3 ADD MSTORE SWAP1 MLOAD SWAP1 DUP2 SWAP1 SUB PUSH1 0x64 ADD SWAP1 REVERT JUMPDEST PUSH1 0x0 JUMPDEST DUP4 DUP2 LT ISZERO PUSH2 0x291D JUMPI PUSH2 0x28C9 DUP4 PUSH1 0x9 PUSH1 0x0 DUP9 DUP9 DUP7 DUP2 DUP2 LT PUSH2 0x2887 JUMPI INVALID JUMPDEST SWAP1 POP PUSH1 0x20 MUL ADD CALLDATALOAD PUSH1 0x1 PUSH1 0x1 PUSH1 0xA0 SHL SUB AND PUSH1 0x1 PUSH1 0x1 PUSH1 0xA0 SHL SUB AND PUSH1 0x1 PUSH1 0x1 PUSH1 0xA0 SHL SUB AND DUP2 MSTORE PUSH1 0x20 ADD SWAP1 DUP2 MSTORE PUSH1 0x20 ADD PUSH1 0x0 KECCAK256 PUSH1 0x1 ADD SLOAD PUSH2 0x331E SWAP1 SWAP2 SWAP1 PUSH4 0xFFFFFFFF AND JUMP JUMPDEST PUSH1 0x9 PUSH1 0x0 DUP8 DUP8 DUP6 DUP2 DUP2 LT PUSH2 0x28D9 JUMPI INVALID JUMPDEST SWAP1 POP PUSH1 0x20 MUL ADD CALLDATALOAD PUSH1 0x1 PUSH1 0x1 PUSH1 0xA0 SHL SUB AND PUSH1 0x1 PUSH1 0x1 PUSH1 0xA0 SHL SUB AND PUSH1 0x1 PUSH1 0x1 PUSH1 0xA0 SHL SUB AND DUP2 MSTORE PUSH1 0x20 ADD SWAP1 DUP2 MSTORE PUSH1 0x20 ADD PUSH1 0x0 KECCAK256 PUSH1 0x1 ADD DUP2 SWAP1 SSTORE POP DUP1 DUP1 PUSH1 0x1 ADD SWAP2 POP POP PUSH2 0x286B JUMP JUMPDEST POP DUP1 PUSH32 0x473F8FAFA9BB6F152B95565955B672A2C8B798B9C0A7C17F2E43BD4577F972DE DUP6 DUP6 DUP6 PUSH1 0x40 MLOAD DUP1 DUP1 PUSH1 0x20 ADD DUP4 DUP2 MSTORE PUSH1 0x20 ADD DUP3 DUP2 SUB DUP3 MSTORE DUP6 DUP6 DUP3 DUP2 DUP2 MSTORE PUSH1 0x20 ADD SWAP3 POP PUSH1 0x20 MUL DUP1 DUP3 DUP5 CALLDATACOPY PUSH1 0x0 DUP4 DUP3 ADD MSTORE PUSH1 0x40 MLOAD PUSH1 0x1F SWAP1 SWAP2 ADD PUSH1 0x1F NOT AND SWAP1 SWAP3 ADD DUP3 SWAP1 SUB SWAP7 POP SWAP1 SWAP5 POP POP POP POP POP LOG2 POP POP POP POP JUMP JUMPDEST PUSH1 0x40 DUP1 MLOAD PUSH12 0x5350454349414C5F524F4C45 PUSH1 0xA0 SHL DUP2 MSTORE SWAP1 MLOAD SWAP1 DUP2 SWAP1 SUB PUSH1 0xC ADD SWAP1 KECCAK256 PUSH2 0x29BD SWAP1 PUSH2 0xFB8 PUSH2 0x32B2 JUMP JUMPDEST PUSH2 0x2A04 JUMPI PUSH1 0x40 DUP1 MLOAD PUSH3 0x461BCD PUSH1 0xE5 SHL DUP2 MSTORE PUSH1 0x20 PUSH1 0x4 DUP3 ADD MSTORE PUSH1 0x13 PUSH1 0x24 DUP3 ADD MSTORE PUSH19 0x2737BA10309039B832B1B4B0B61030B236B4B7 PUSH1 0x69 SHL PUSH1 0x44 DUP3 ADD MSTORE SWAP1 MLOAD SWAP1 DUP2 SWAP1 SUB PUSH1 0x64 ADD SWAP1 REVERT JUMPDEST PUSH1 0x1 PUSH1 0x1 PUSH1 0xA0 SHL SUB DUP3 AND PUSH1 0x0 SWAP1 DUP2 MSTORE PUSH1 0x7 PUSH1 0x20 MSTORE PUSH1 0x40 SWAP1 KECCAK256 SLOAD PUSH1 0xFF AND PUSH2 0x2A66 JUMPI PUSH1 0x40 DUP1 MLOAD PUSH3 0x461BCD PUSH1 0xE5 SHL DUP2 MSTORE PUSH1 0x20 PUSH1 0x4 DUP3 ADD MSTORE PUSH1 0x12 PUSH1 0x24 DUP3 ADD MSTORE PUSH18 0x155CD95C88191BD95CDB89DD08195E1A5CDD PUSH1 0x72 SHL PUSH1 0x44 DUP3 ADD MSTORE SWAP1 MLOAD SWAP1 DUP2 SWAP1 SUB PUSH1 0x64 ADD SWAP1 REVERT JUMPDEST PUSH1 0x6 SLOAD DUP2 GT ISZERO DUP1 ISZERO PUSH2 0x2A78 JUMPI POP PUSH1 0x0 DUP2 GT JUMPDEST PUSH2 0x2AC0 JUMPI PUSH1 0x40 DUP1 MLOAD PUSH3 0x461BCD PUSH1 0xE5 SHL DUP2 MSTORE PUSH1 0x20 PUSH1 0x4 DUP3 ADD MSTORE PUSH1 0x14 PUSH1 0x24 DUP3 ADD MSTORE PUSH20 0x1D19585B525908191BD95CDB89DD08195E1A5CDD PUSH1 0x62 SHL PUSH1 0x44 DUP3 ADD MSTORE SWAP1 MLOAD SWAP1 DUP2 SWAP1 SUB PUSH1 0x64 ADD SWAP1 REVERT JUMPDEST PUSH1 0x0 DUP2 DUP2 MSTORE PUSH1 0x8 PUSH1 0x20 MSTORE PUSH1 0x40 SWAP1 KECCAK256 PUSH1 0x4 ADD SLOAD PUSH1 0xFF AND PUSH2 0x2B1A JUMPI PUSH1 0x40 DUP1 MLOAD PUSH3 0x461BCD PUSH1 0xE5 SHL DUP2 MSTORE PUSH1 0x20 PUSH1 0x4 DUP3 ADD MSTORE PUSH1 0x11 PUSH1 0x24 DUP3 ADD MSTORE PUSH17 0x5465616D206E6F74206A6F696E61626C65 PUSH1 0x78 SHL PUSH1 0x44 DUP3 ADD MSTORE SWAP1 MLOAD SWAP1 DUP2 SWAP1 SUB PUSH1 0x64 ADD SWAP1 REVERT JUMPDEST PUSH1 0x1 PUSH1 0x1 PUSH1 0xA0 SHL SUB DUP3 AND PUSH1 0x0 SWAP1 DUP2 MSTORE PUSH1 0x9 PUSH1 0x20 MSTORE PUSH1 0x40 SWAP1 KECCAK256 PUSH1 0x2 ADD SLOAD DUP2 EQ ISZERO PUSH2 0x2B80 JUMPI PUSH1 0x40 DUP1 MLOAD PUSH3 0x461BCD PUSH1 0xE5 SHL DUP2 MSTORE PUSH1 0x20 PUSH1 0x4 DUP3 ADD MSTORE PUSH1 0x13 PUSH1 0x24 DUP3 ADD MSTORE PUSH19 0x416C726561647920696E20746865207465616D PUSH1 0x68 SHL PUSH1 0x44 DUP3 ADD MSTORE SWAP1 MLOAD SWAP1 DUP2 SWAP1 SUB PUSH1 0x64 ADD SWAP1 REVERT JUMPDEST PUSH1 0x1 PUSH1 0x1 PUSH1 0xA0 SHL SUB DUP3 AND PUSH1 0x0 SWAP1 DUP2 MSTORE PUSH1 0x9 PUSH1 0x20 SWAP1 DUP2 MSTORE PUSH1 0x40 DUP1 DUP4 KECCAK256 PUSH1 0x2 SWAP1 DUP2 ADD SLOAD DUP1 DUP6 MSTORE PUSH1 0x8 SWAP1 SWAP4 MSTORE SWAP3 KECCAK256 SWAP1 SWAP2 ADD SLOAD PUSH2 0x2BC0 SWAP1 PUSH1 0x1 PUSH4 0xFFFFFFFF PUSH2 0x3477 AND JUMP JUMPDEST PUSH1 0x0 DUP3 DUP2 MSTORE PUSH1 0x8 PUSH1 0x20 DUP2 DUP2 MSTORE PUSH1 0x40 DUP1 DUP5 KECCAK256 PUSH1 0x2 SWAP1 DUP2 ADD SWAP6 SWAP1 SWAP6 SSTORE PUSH1 0x1 PUSH1 0x1 PUSH1 0xA0 SHL SUB DUP9 AND DUP5 MSTORE PUSH1 0x9 DUP3 MSTORE DUP1 DUP5 KECCAK256 DUP6 ADD DUP8 SWAP1 SSTORE DUP7 DUP5 MSTORE SWAP2 SWAP1 MSTORE SWAP1 KECCAK256 ADD SLOAD PUSH2 0x2C0D SWAP1 PUSH1 0x1 PUSH4 0xFFFFFFFF PUSH2 0x331E AND JUMP JUMPDEST PUSH1 0x0 DUP4 DUP2 MSTORE PUSH1 0x8 PUSH1 0x20 SWAP1 DUP2 MSTORE PUSH1 0x40 SWAP2 DUP3 SWAP1 KECCAK256 PUSH1 0x2 ADD SWAP3 SWAP1 SWAP3 SSTORE DUP1 MLOAD DUP4 DUP2 MSTORE SWAP2 DUP3 ADD DUP5 SWAP1 MSTORE DUP1 MLOAD PUSH1 0x1 PUSH1 0x1 PUSH1 0xA0 SHL SUB DUP7 AND SWAP3 PUSH32 0x74C08ECE62E2369A06A4CAC8609FD31E7F3AE99E0DBEDBC2BFCF0B9397D9A691 SWAP3 SWAP1 DUP3 SWAP1 SUB ADD SWAP1 LOG2 POP POP POP JUMP JUMPDEST PUSH1 0x1 PUSH1 0x1 PUSH1 0xA0 SHL SUB AND PUSH1 0x0 SWAP1 DUP2 MSTORE PUSH1 0x9 PUSH1 0x20 MSTORE PUSH1 0x40 SWAP1 KECCAK256 PUSH1 0x5 ADD SLOAD PUSH1 0xFF AND SWAP1 JUMP JUMPDEST PUSH2 0x2C9A PUSH1 0x0 PUSH2 0xFB8 PUSH2 0x32B2 JUMP JUMPDEST PUSH2 0x2CE0 JUMPI PUSH1 0x40 DUP1 MLOAD PUSH3 0x461BCD PUSH1 0xE5 SHL DUP2 MSTORE PUSH1 0x20 PUSH1 0x4 DUP3 ADD MSTORE PUSH1 0x12 PUSH1 0x24 DUP3 ADD MSTORE PUSH18 0x2737BA103A34329036B0B4B71030B236B4B7 PUSH1 0x71 SHL PUSH1 0x44 DUP3 ADD MSTORE SWAP1 MLOAD SWAP1 DUP2 SWAP1 SUB PUSH1 0x64 ADD SWAP1 REVERT JUMPDEST PUSH1 0x6 SLOAD DUP2 GT ISZERO DUP1 ISZERO PUSH2 0x2CF2 JUMPI POP PUSH1 0x0 DUP2 GT JUMPDEST PUSH2 0x2D34 JUMPI PUSH1 0x40 DUP1 MLOAD PUSH3 0x461BCD PUSH1 0xE5 SHL DUP2 MSTORE PUSH1 0x20 PUSH1 0x4 DUP3 ADD MSTORE PUSH1 0xE PUSH1 0x24 DUP3 ADD MSTORE PUSH14 0x1D19585B5259081A5B9D985B1A59 PUSH1 0x92 SHL PUSH1 0x44 DUP3 ADD MSTORE SWAP1 MLOAD SWAP1 DUP2 SWAP1 SUB PUSH1 0x64 ADD SWAP1 REVERT JUMPDEST PUSH1 0x0 SWAP1 DUP2 MSTORE PUSH1 0x8 PUSH1 0x20 MSTORE PUSH1 0x40 SWAP1 KECCAK256 PUSH1 0x4 ADD DUP1 SLOAD PUSH1 0xFF NOT AND PUSH1 0x1 OR SWAP1 SSTORE JUMP JUMPDEST PUSH2 0x2D5F PUSH1 0x0 PUSH2 0xFB8 PUSH2 0x32B2 JUMP JUMPDEST PUSH2 0x2DA5 JUMPI PUSH1 0x40 DUP1 MLOAD PUSH3 0x461BCD PUSH1 0xE5 SHL DUP2 MSTORE PUSH1 0x20 PUSH1 0x4 DUP3 ADD MSTORE PUSH1 0x12 PUSH1 0x24 DUP3 ADD MSTORE PUSH18 0x2737BA103A34329036B0B4B71030B236B4B7 PUSH1 0x71 SHL PUSH1 0x44 DUP3 ADD MSTORE SWAP1 MLOAD SWAP1 DUP2 SWAP1 SUB PUSH1 0x64 ADD SWAP1 REVERT JUMPDEST PUSH2 0x1786 PUSH2 0x2DB0 PUSH2 0x32B2 JUMP JUMPDEST PUSH1 0x1 SLOAD PUSH1 0x1 PUSH1 0x1 PUSH1 0xA0 SHL SUB AND SWAP1 DUP4 PUSH4 0xFFFFFFFF PUSH2 0x34C4 AND JUMP JUMPDEST PUSH1 0x40 DUP1 MLOAD PUSH8 0x4E46545F524F4C45 PUSH1 0xC0 SHL DUP2 MSTORE SWAP1 MLOAD SWAP1 DUP2 SWAP1 SUB PUSH1 0x8 ADD SWAP1 KECCAK256 DUP2 JUMP JUMPDEST PUSH1 0x7 PUSH1 0x0 PUSH2 0x2DF5 PUSH2 0x32B2 JUMP JUMPDEST PUSH1 0x1 PUSH1 0x1 PUSH1 0xA0 SHL SUB AND DUP2 MSTORE PUSH1 0x20 DUP2 ADD SWAP2 SWAP1 SWAP2 MSTORE PUSH1 0x40 ADD PUSH1 0x0 KECCAK256 SLOAD PUSH1 0xFF AND ISZERO PUSH2 0x2E59 JUMPI PUSH1 0x40 DUP1 MLOAD PUSH3 0x461BCD PUSH1 0xE5 SHL DUP2 MSTORE PUSH1 0x20 PUSH1 0x4 DUP3 ADD MSTORE PUSH1 0x12 PUSH1 0x24 DUP3 ADD MSTORE PUSH18 0x105B1C9958591E481C9959DA5CDD195C9959 PUSH1 0x72 SHL PUSH1 0x44 DUP3 ADD MSTORE SWAP1 MLOAD SWAP1 DUP2 SWAP1 SUB PUSH1 0x64 ADD SWAP1 REVERT JUMPDEST PUSH1 0x6 SLOAD DUP4 GT ISZERO DUP1 ISZERO PUSH2 0x2E6B JUMPI POP PUSH1 0x0 DUP4 GT JUMPDEST PUSH2 0x2EAD JUMPI PUSH1 0x40 DUP1 MLOAD PUSH3 0x461BCD PUSH1 0xE5 SHL DUP2 MSTORE PUSH1 0x20 PUSH1 0x4 DUP3 ADD MSTORE PUSH1 0xE PUSH1 0x24 DUP3 ADD MSTORE PUSH14 0x125B9D985B1A59081D19585B5259 PUSH1 0x92 SHL PUSH1 0x44 DUP3 ADD MSTORE SWAP1 MLOAD SWAP1 DUP2 SWAP1 SUB PUSH1 0x64 ADD SWAP1 REVERT JUMPDEST PUSH1 0x0 DUP4 DUP2 MSTORE PUSH1 0x8 PUSH1 0x20 MSTORE PUSH1 0x40 SWAP1 KECCAK256 PUSH1 0x4 ADD SLOAD PUSH1 0xFF AND PUSH2 0x2F07 JUMPI PUSH1 0x40 DUP1 MLOAD PUSH3 0x461BCD PUSH1 0xE5 SHL DUP2 MSTORE PUSH1 0x20 PUSH1 0x4 DUP3 ADD MSTORE PUSH1 0x11 PUSH1 0x24 DUP3 ADD MSTORE PUSH17 0x5465616D206E6F74206A6F696E61626C65 PUSH1 0x78 SHL PUSH1 0x44 DUP3 ADD MSTORE SWAP1 MLOAD SWAP1 DUP2 SWAP1 SUB PUSH1 0x64 ADD SWAP1 REVERT JUMPDEST PUSH1 0x40 DUP1 MLOAD PUSH8 0x4E46545F524F4C45 PUSH1 0xC0 SHL DUP2 MSTORE SWAP1 MLOAD SWAP1 DUP2 SWAP1 SUB PUSH1 0x8 ADD SWAP1 KECCAK256 PUSH2 0x2F2E SWAP1 DUP4 PUSH2 0x196C JUMP JUMPDEST PUSH2 0x2F75 JUMPI PUSH1 0x40 DUP1 MLOAD PUSH3 0x461BCD PUSH1 0xE5 SHL DUP2 MSTORE PUSH1 0x20 PUSH1 0x4 DUP3 ADD MSTORE PUSH1 0x13 PUSH1 0x24 DUP3 ADD MSTORE PUSH19 0x139195081859191C995CDCC81A5B9D985B1A59 PUSH1 0x6A SHL PUSH1 0x44 DUP3 ADD MSTORE SWAP1 MLOAD SWAP1 DUP2 SWAP1 SUB PUSH1 0x64 ADD SWAP1 REVERT JUMPDEST PUSH1 0x0 DUP3 SWAP1 POP DUP1 PUSH1 0x1 PUSH1 0x1 PUSH1 0xA0 SHL SUB AND PUSH4 0x6352211E DUP4 PUSH1 0x40 MLOAD DUP3 PUSH4 0xFFFFFFFF AND PUSH1 0xE0 SHL DUP2 MSTORE PUSH1 0x4 ADD DUP1 DUP3 DUP2 MSTORE PUSH1 0x20 ADD SWAP2 POP POP PUSH1 0x20 PUSH1 0x40 MLOAD DUP1 DUP4 SUB DUP2 DUP7 DUP1 EXTCODESIZE ISZERO DUP1 ISZERO PUSH2 0x2FBE JUMPI PUSH1 0x0 DUP1 REVERT JUMPDEST POP GAS STATICCALL ISZERO DUP1 ISZERO PUSH2 0x2FD2 JUMPI RETURNDATASIZE PUSH1 0x0 DUP1 RETURNDATACOPY RETURNDATASIZE PUSH1 0x0 REVERT JUMPDEST POP POP POP POP PUSH1 0x40 MLOAD RETURNDATASIZE PUSH1 0x20 DUP2 LT ISZERO PUSH2 0x2FE8 JUMPI PUSH1 0x0 DUP1 REVERT JUMPDEST POP MLOAD PUSH1 0x1 PUSH1 0x1 PUSH1 0xA0 SHL SUB AND PUSH2 0x2FFB PUSH2 0x32B2 JUMP JUMPDEST PUSH1 0x1 PUSH1 0x1 PUSH1 0xA0 SHL SUB AND EQ PUSH2 0x3056 JUMPI PUSH1 0x40 DUP1 MLOAD PUSH3 0x461BCD PUSH1 0xE5 SHL DUP2 MSTORE PUSH1 0x20 PUSH1 0x4 DUP3 ADD MSTORE PUSH1 0x1B PUSH1 0x24 DUP3 ADD MSTORE PUSH32 0x4F6E6C79204E4654206F776E65722063616E2072656769737465720000000000 PUSH1 0x44 DUP3 ADD MSTORE SWAP1 MLOAD SWAP1 DUP2 SWAP1 SUB PUSH1 0x64 ADD SWAP1 REVERT JUMPDEST DUP1 PUSH1 0x1 PUSH1 0x1 PUSH1 0xA0 SHL SUB AND PUSH4 0x42842E0E PUSH2 0x306D PUSH2 0x32B2 JUMP JUMPDEST PUSH1 0x40 DUP1 MLOAD PUSH1 0x1 PUSH1 0x1 PUSH1 0xE0 SHL SUB NOT PUSH1 0xE0 DUP6 SWAP1 SHL AND DUP2 MSTORE PUSH1 0x1 PUSH1 0x1 PUSH1 0xA0 SHL SUB SWAP1 SWAP3 AND PUSH1 0x4 DUP4 ADD MSTORE ADDRESS PUSH1 0x24 DUP4 ADD MSTORE PUSH1 0x44 DUP3 ADD DUP7 SWAP1 MSTORE MLOAD PUSH1 0x64 DUP1 DUP4 ADD SWAP3 PUSH1 0x0 SWAP3 SWAP2 SWAP1 DUP3 SWAP1 SUB ADD DUP2 DUP4 DUP8 DUP1 EXTCODESIZE ISZERO DUP1 ISZERO PUSH2 0x30C0 JUMPI PUSH1 0x0 DUP1 REVERT JUMPDEST POP GAS CALL ISZERO DUP1 ISZERO PUSH2 0x30D4 JUMPI RETURNDATASIZE PUSH1 0x0 DUP1 RETURNDATACOPY RETURNDATASIZE PUSH1 0x0 REVERT JUMPDEST POP POP POP POP PUSH2 0x3101 PUSH2 0x30E3 PUSH2 0x32B2 JUMP JUMPDEST PUSH1 0x4 SLOAD PUSH1 0x1 SLOAD PUSH1 0x1 PUSH1 0x1 PUSH1 0xA0 SHL SUB AND SWAP2 SWAP1 ADDRESS SWAP1 PUSH4 0xFFFFFFFF PUSH2 0x32B7 AND JUMP JUMPDEST PUSH2 0x310B PUSH1 0xB PUSH2 0x3311 JUMP JUMPDEST PUSH1 0x0 PUSH2 0x3117 PUSH1 0xB PUSH2 0x331A JUMP JUMPDEST SWAP1 POP PUSH1 0x40 MLOAD DUP1 PUSH1 0xC0 ADD PUSH1 0x40 MSTORE DUP1 DUP3 DUP2 MSTORE PUSH1 0x20 ADD PUSH1 0x0 DUP2 MSTORE PUSH1 0x20 ADD DUP7 DUP2 MSTORE PUSH1 0x20 ADD DUP6 PUSH1 0x1 PUSH1 0x1 PUSH1 0xA0 SHL SUB AND DUP2 MSTORE PUSH1 0x20 ADD DUP5 DUP2 MSTORE PUSH1 0x20 ADD PUSH1 0x1 ISZERO ISZERO DUP2 MSTORE POP PUSH1 0x9 PUSH1 0x0 PUSH2 0x315F PUSH2 0x32B2 JUMP JUMPDEST PUSH1 0x1 PUSH1 0x1 PUSH1 0xA0 SHL SUB SWAP1 DUP2 AND DUP3 MSTORE PUSH1 0x20 DUP1 DUP4 ADD SWAP4 SWAP1 SWAP4 MSTORE PUSH1 0x40 SWAP2 DUP3 ADD PUSH1 0x0 SWAP1 DUP2 KECCAK256 DUP6 MLOAD DUP2 SSTORE SWAP4 DUP6 ADD MLOAD PUSH1 0x1 DUP1 DUP7 ADD SWAP2 SWAP1 SWAP2 SSTORE SWAP3 DUP6 ADD MLOAD PUSH1 0x2 DUP6 ADD SSTORE PUSH1 0x60 DUP6 ADD MLOAD PUSH1 0x3 DUP6 ADD DUP1 SLOAD PUSH1 0x1 PUSH1 0x1 PUSH1 0xA0 SHL SUB NOT AND SWAP2 SWAP1 SWAP4 AND OR SWAP1 SWAP2 SSTORE PUSH1 0x80 DUP5 ADD MLOAD PUSH1 0x4 DUP5 ADD SSTORE PUSH1 0xA0 SWAP1 SWAP4 ADD MLOAD PUSH1 0x5 SWAP1 SWAP3 ADD DUP1 SLOAD PUSH1 0xFF NOT AND SWAP3 ISZERO ISZERO SWAP3 SWAP1 SWAP3 OR SWAP1 SWAP2 SSTORE SWAP1 PUSH1 0x7 SWAP1 PUSH2 0x31E7 PUSH2 0x32B2 JUMP JUMPDEST PUSH1 0x1 PUSH1 0x1 PUSH1 0xA0 SHL SUB AND DUP2 MSTORE PUSH1 0x20 DUP2 ADD SWAP2 SWAP1 SWAP2 MSTORE PUSH1 0x40 ADD PUSH1 0x0 KECCAK256 DUP1 SLOAD PUSH1 0xFF NOT AND SWAP2 ISZERO ISZERO SWAP2 SWAP1 SWAP2 OR SWAP1 SSTORE PUSH1 0x2 SLOAD PUSH2 0x321D SWAP1 PUSH1 0x1 PUSH2 0x331E JUMP JUMPDEST PUSH1 0x2 SWAP1 DUP2 SSTORE PUSH1 0x0 DUP7 DUP2 MSTORE PUSH1 0x8 PUSH1 0x20 MSTORE PUSH1 0x40 SWAP1 KECCAK256 ADD SLOAD PUSH2 0x3243 SWAP1 PUSH1 0x1 PUSH4 0xFFFFFFFF PUSH2 0x331E AND JUMP JUMPDEST PUSH1 0x0 DUP7 DUP2 MSTORE PUSH1 0x8 PUSH1 0x20 MSTORE PUSH1 0x40 SWAP1 KECCAK256 PUSH1 0x2 ADD SSTORE PUSH2 0x325D PUSH2 0x32B2 JUMP JUMPDEST PUSH1 0x40 DUP1 MLOAD DUP8 DUP2 MSTORE PUSH1 0x1 PUSH1 0x1 PUSH1 0xA0 SHL SUB DUP8 DUP2 AND PUSH1 0x20 DUP4 ADD MSTORE DUP2 DUP4 ADD DUP8 SWAP1 MSTORE SWAP2 MLOAD SWAP3 SWAP1 SWAP2 AND SWAP2 PUSH32 0x628915737AE1DAE037B128D0892692746D4E63E2F72632781C0A08F7168B1BE8 SWAP2 DUP2 SWAP1 SUB PUSH1 0x60 ADD SWAP1 LOG2 POP POP POP POP POP JUMP JUMPDEST CALLER JUMPDEST SWAP1 JUMP JUMPDEST PUSH1 0x40 DUP1 MLOAD PUSH1 0x1 PUSH1 0x1 PUSH1 0xA0 SHL SUB DUP1 DUP7 AND PUSH1 0x24 DUP4 ADD MSTORE DUP5 AND PUSH1 0x44 DUP3 ADD MSTORE PUSH1 0x64 DUP1 DUP3 ADD DUP5 SWAP1 MSTORE DUP3 MLOAD DUP1 DUP4 SUB SWAP1 SWAP2 ADD DUP2 MSTORE PUSH1 0x84 SWAP1 SWAP2 ADD SWAP1 SWAP2 MSTORE PUSH1 0x20 DUP2 ADD DUP1 MLOAD PUSH1 0x1 PUSH1 0x1 PUSH1 0xE0 SHL SUB AND PUSH4 0x23B872DD PUSH1 0xE0 SHL OR SWAP1 MSTORE PUSH2 0x204A SWAP1 DUP6 SWAP1 PUSH2 0x351B JUMP JUMPDEST DUP1 SLOAD PUSH1 0x1 ADD SWAP1 SSTORE JUMP JUMPDEST SLOAD SWAP1 JUMP JUMPDEST PUSH1 0x0 DUP3 DUP3 ADD DUP4 DUP2 LT ISZERO PUSH2 0x1963 JUMPI PUSH1 0x40 DUP1 MLOAD PUSH3 0x461BCD PUSH1 0xE5 SHL DUP2 MSTORE PUSH1 0x20 PUSH1 0x4 DUP3 ADD MSTORE PUSH1 0x1B PUSH1 0x24 DUP3 ADD MSTORE PUSH32 0x536166654D6174683A206164646974696F6E206F766572666C6F770000000000 PUSH1 0x44 DUP3 ADD MSTORE SWAP1 MLOAD SWAP1 DUP2 SWAP1 SUB PUSH1 0x64 ADD SWAP1 REVERT JUMPDEST PUSH1 0x0 DUP3 DUP2 MSTORE PUSH1 0x20 DUP2 SWAP1 MSTORE PUSH1 0x40 SWAP1 KECCAK256 PUSH2 0x3396 SWAP1 DUP3 PUSH4 0xFFFFFFFF PUSH2 0x35CC AND JUMP JUMPDEST ISZERO PUSH2 0x15E4 JUMPI PUSH2 0x33A3 PUSH2 0x32B2 JUMP JUMPDEST PUSH1 0x1 PUSH1 0x1 PUSH1 0xA0 SHL SUB AND DUP2 PUSH1 0x1 PUSH1 0x1 PUSH1 0xA0 SHL SUB AND DUP4 PUSH32 0x2F8788117E7EFF1D82E926EC794901D17C78024A50270940304540A733656F0D PUSH1 0x40 MLOAD PUSH1 0x40 MLOAD DUP1 SWAP2 SUB SWAP1 LOG4 POP POP JUMP JUMPDEST PUSH1 0x0 DUP3 DUP2 MSTORE PUSH1 0x20 DUP2 SWAP1 MSTORE PUSH1 0x40 SWAP1 KECCAK256 PUSH2 0x3405 SWAP1 DUP3 PUSH4 0xFFFFFFFF PUSH2 0x35E1 AND JUMP JUMPDEST ISZERO PUSH2 0x15E4 JUMPI PUSH2 0x3412 PUSH2 0x32B2 JUMP JUMPDEST PUSH1 0x1 PUSH1 0x1 PUSH1 0xA0 SHL SUB AND DUP2 PUSH1 0x1 PUSH1 0x1 PUSH1 0xA0 SHL SUB AND DUP4 PUSH32 0xF6391F5C32D9C69D2A47EA670B442974B53935D1EDC7FD64EB21E047A839171B PUSH1 0x40 MLOAD PUSH1 0x40 MLOAD DUP1 SWAP2 SUB SWAP1 LOG4 POP POP JUMP JUMPDEST PUSH1 0x0 PUSH2 0x1963 DUP4 DUP4 PUSH2 0x35F6 JUMP JUMPDEST PUSH1 0x0 PUSH2 0x1963 DUP4 PUSH1 0x1 PUSH1 0x1 PUSH1 0xA0 SHL SUB DUP5 AND PUSH2 0x365A JUMP JUMPDEST PUSH1 0x0 PUSH2 0x1963 DUP4 DUP4 PUSH1 0x40 MLOAD DUP1 PUSH1 0x40 ADD PUSH1 0x40 MSTORE DUP1 PUSH1 0x1E DUP2 MSTORE PUSH1 0x20 ADD PUSH32 0x536166654D6174683A207375627472616374696F6E206F766572666C6F770000 DUP2 MSTORE POP PUSH2 0x3672 JUMP JUMPDEST PUSH1 0x0 PUSH2 0x1966 DUP3 PUSH2 0x331A JUMP JUMPDEST PUSH1 0x40 DUP1 MLOAD PUSH1 0x1 PUSH1 0x1 PUSH1 0xA0 SHL SUB DUP5 AND PUSH1 0x24 DUP3 ADD MSTORE PUSH1 0x44 DUP1 DUP3 ADD DUP5 SWAP1 MSTORE DUP3 MLOAD DUP1 DUP4 SUB SWAP1 SWAP2 ADD DUP2 MSTORE PUSH1 0x64 SWAP1 SWAP2 ADD SWAP1 SWAP2 MSTORE PUSH1 0x20 DUP2 ADD DUP1 MLOAD PUSH1 0x1 PUSH1 0x1 PUSH1 0xE0 SHL SUB AND PUSH4 0xA9059CBB PUSH1 0xE0 SHL OR SWAP1 MSTORE PUSH2 0x3516 SWAP1 DUP5 SWAP1 PUSH2 0x351B JUMP JUMPDEST POP POP POP JUMP JUMPDEST PUSH1 0x60 PUSH2 0x3570 DUP3 PUSH1 0x40 MLOAD DUP1 PUSH1 0x40 ADD PUSH1 0x40 MSTORE DUP1 PUSH1 0x20 DUP2 MSTORE PUSH1 0x20 ADD PUSH32 0x5361666542455032303A206C6F772D6C6576656C2063616C6C206661696C6564 DUP2 MSTORE POP DUP6 PUSH1 0x1 PUSH1 0x1 PUSH1 0xA0 SHL SUB AND PUSH2 0x370E SWAP1 SWAP3 SWAP2 SWAP1 PUSH4 0xFFFFFFFF AND JUMP JUMPDEST DUP1 MLOAD SWAP1 SWAP2 POP ISZERO PUSH2 0x3516 JUMPI DUP1 DUP1 PUSH1 0x20 ADD SWAP1 MLOAD PUSH1 0x20 DUP2 LT ISZERO PUSH2 0x358F JUMPI PUSH1 0x0 DUP1 REVERT JUMPDEST POP MLOAD PUSH2 0x3516 JUMPI PUSH1 0x40 MLOAD PUSH3 0x461BCD PUSH1 0xE5 SHL DUP2 MSTORE PUSH1 0x4 ADD DUP1 DUP1 PUSH1 0x20 ADD DUP3 DUP2 SUB DUP3 MSTORE PUSH1 0x2A DUP2 MSTORE PUSH1 0x20 ADD DUP1 PUSH2 0x3B55 PUSH1 0x2A SWAP2 CODECOPY PUSH1 0x40 ADD SWAP2 POP POP PUSH1 0x40 MLOAD DUP1 SWAP2 SUB SWAP1 REVERT JUMPDEST PUSH1 0x0 PUSH2 0x1963 DUP4 PUSH1 0x1 PUSH1 0x1 PUSH1 0xA0 SHL SUB DUP5 AND PUSH2 0x3725 JUMP JUMPDEST PUSH1 0x0 PUSH2 0x1963 DUP4 PUSH1 0x1 PUSH1 0x1 PUSH1 0xA0 SHL SUB DUP5 AND PUSH2 0x376F JUMP JUMPDEST DUP2 SLOAD PUSH1 0x0 SWAP1 DUP3 LT PUSH2 0x3638 JUMPI PUSH1 0x40 MLOAD PUSH3 0x461BCD PUSH1 0xE5 SHL DUP2 MSTORE PUSH1 0x4 ADD DUP1 DUP1 PUSH1 0x20 ADD DUP3 DUP2 SUB DUP3 MSTORE PUSH1 0x22 DUP2 MSTORE PUSH1 0x20 ADD DUP1 PUSH2 0x3B04 PUSH1 0x22 SWAP2 CODECOPY PUSH1 0x40 ADD SWAP2 POP POP PUSH1 0x40 MLOAD DUP1 SWAP2 SUB SWAP1 REVERT JUMPDEST DUP3 PUSH1 0x0 ADD DUP3 DUP2 SLOAD DUP2 LT PUSH2 0x3647 JUMPI INVALID JUMPDEST SWAP1 PUSH1 0x0 MSTORE PUSH1 0x20 PUSH1 0x0 KECCAK256 ADD SLOAD SWAP1 POP SWAP3 SWAP2 POP POP JUMP JUMPDEST PUSH1 0x0 SWAP1 DUP2 MSTORE PUSH1 0x1 SWAP2 SWAP1 SWAP2 ADD PUSH1 0x20 MSTORE PUSH1 0x40 SWAP1 KECCAK256 SLOAD ISZERO ISZERO SWAP1 JUMP JUMPDEST PUSH1 0x0 DUP2 DUP5 DUP5 GT ISZERO PUSH2 0x3701 JUMPI PUSH1 0x40 MLOAD PUSH3 0x461BCD PUSH1 0xE5 SHL DUP2 MSTORE PUSH1 0x4 ADD DUP1 DUP1 PUSH1 0x20 ADD DUP3 DUP2 SUB DUP3 MSTORE DUP4 DUP2 DUP2 MLOAD DUP2 MSTORE PUSH1 0x20 ADD SWAP2 POP DUP1 MLOAD SWAP1 PUSH1 0x20 ADD SWAP1 DUP1 DUP4 DUP4 PUSH1 0x0 JUMPDEST DUP4 DUP2 LT ISZERO PUSH2 0x36C6 JUMPI DUP2 DUP2 ADD MLOAD DUP4 DUP3 ADD MSTORE PUSH1 0x20 ADD PUSH2 0x36AE JUMP JUMPDEST POP POP POP POP SWAP1 POP SWAP1 DUP2 ADD SWAP1 PUSH1 0x1F AND DUP1 ISZERO PUSH2 0x36F3 JUMPI DUP1 DUP3 SUB DUP1 MLOAD PUSH1 0x1 DUP4 PUSH1 0x20 SUB PUSH2 0x100 EXP SUB NOT AND DUP2 MSTORE PUSH1 0x20 ADD SWAP2 POP JUMPDEST POP SWAP3 POP POP POP PUSH1 0x40 MLOAD DUP1 SWAP2 SUB SWAP1 REVERT JUMPDEST POP POP DUP2 DUP4 SUB JUMPDEST SWAP4 SWAP3 POP POP POP JUMP JUMPDEST PUSH1 0x60 PUSH2 0x371D DUP5 DUP5 PUSH1 0x0 DUP6 PUSH2 0x3835 JUMP JUMPDEST SWAP5 SWAP4 POP POP POP POP JUMP JUMPDEST PUSH1 0x0 PUSH2 0x3731 DUP4 DUP4 PUSH2 0x365A JUMP JUMPDEST PUSH2 0x3767 JUMPI POP DUP2 SLOAD PUSH1 0x1 DUP2 DUP2 ADD DUP5 SSTORE PUSH1 0x0 DUP5 DUP2 MSTORE PUSH1 0x20 DUP1 DUP3 KECCAK256 SWAP1 SWAP4 ADD DUP5 SWAP1 SSTORE DUP5 SLOAD DUP5 DUP3 MSTORE DUP3 DUP7 ADD SWAP1 SWAP4 MSTORE PUSH1 0x40 SWAP1 KECCAK256 SWAP2 SWAP1 SWAP2 SSTORE PUSH2 0x1966 JUMP JUMPDEST POP PUSH1 0x0 PUSH2 0x1966 JUMP JUMPDEST PUSH1 0x0 DUP2 DUP2 MSTORE PUSH1 0x1 DUP4 ADD PUSH1 0x20 MSTORE PUSH1 0x40 DUP2 KECCAK256 SLOAD DUP1 ISZERO PUSH2 0x382B JUMPI DUP4 SLOAD PUSH1 0x0 NOT DUP1 DUP4 ADD SWAP2 SWAP1 DUP2 ADD SWAP1 PUSH1 0x0 SWAP1 DUP8 SWAP1 DUP4 SWAP1 DUP2 LT PUSH2 0x37A2 JUMPI INVALID JUMPDEST SWAP1 PUSH1 0x0 MSTORE PUSH1 0x20 PUSH1 0x0 KECCAK256 ADD SLOAD SWAP1 POP DUP1 DUP8 PUSH1 0x0 ADD DUP5 DUP2 SLOAD DUP2 LT PUSH2 0x37BF JUMPI INVALID JUMPDEST PUSH1 0x0 SWAP2 DUP3 MSTORE PUSH1 0x20 DUP1 DUP4 KECCAK256 SWAP1 SWAP2 ADD SWAP3 SWAP1 SWAP3 SSTORE DUP3 DUP2 MSTORE PUSH1 0x1 DUP10 DUP2 ADD SWAP1 SWAP3 MSTORE PUSH1 0x40 SWAP1 KECCAK256 SWAP1 DUP5 ADD SWAP1 SSTORE DUP7 SLOAD DUP8 SWAP1 DUP1 PUSH2 0x37EF JUMPI INVALID JUMPDEST PUSH1 0x1 SWAP1 SUB DUP2 DUP2 SWAP1 PUSH1 0x0 MSTORE PUSH1 0x20 PUSH1 0x0 KECCAK256 ADD PUSH1 0x0 SWAP1 SSTORE SWAP1 SSTORE DUP7 PUSH1 0x1 ADD PUSH1 0x0 DUP8 DUP2 MSTORE PUSH1 0x20 ADD SWAP1 DUP2 MSTORE PUSH1 0x20 ADD PUSH1 0x0 KECCAK256 PUSH1 0x0 SWAP1 SSTORE PUSH1 0x1 SWAP5 POP POP POP POP POP PUSH2 0x1966 JUMP JUMPDEST PUSH1 0x0 SWAP2 POP POP PUSH2 0x1966 JUMP JUMPDEST PUSH1 0x60 DUP3 SELFBALANCE LT ISZERO PUSH2 0x3876 JUMPI PUSH1 0x40 MLOAD PUSH3 0x461BCD PUSH1 0xE5 SHL DUP2 MSTORE PUSH1 0x4 ADD DUP1 DUP1 PUSH1 0x20 ADD DUP3 DUP2 SUB DUP3 MSTORE PUSH1 0x26 DUP2 MSTORE PUSH1 0x20 ADD DUP1 PUSH2 0x3B7F PUSH1 0x26 SWAP2 CODECOPY PUSH1 0x40 ADD SWAP2 POP POP PUSH1 0x40 MLOAD DUP1 SWAP2 SUB SWAP1 REVERT JUMPDEST PUSH2 0x387F DUP6 PUSH2 0x3991 JUMP JUMPDEST PUSH2 0x38D0 JUMPI PUSH1 0x40 DUP1 MLOAD PUSH3 0x461BCD PUSH1 0xE5 SHL DUP2 MSTORE PUSH1 0x20 PUSH1 0x4 DUP3 ADD MSTORE PUSH1 0x1D PUSH1 0x24 DUP3 ADD MSTORE PUSH32 0x416464726573733A2063616C6C20746F206E6F6E2D636F6E7472616374000000 PUSH1 0x44 DUP3 ADD MSTORE SWAP1 MLOAD SWAP1 DUP2 SWAP1 SUB PUSH1 0x64 ADD SWAP1 REVERT JUMPDEST PUSH1 0x0 PUSH1 0x60 DUP7 PUSH1 0x1 PUSH1 0x1 PUSH1 0xA0 SHL SUB AND DUP6 DUP8 PUSH1 0x40 MLOAD DUP1 DUP3 DUP1 MLOAD SWAP1 PUSH1 0x20 ADD SWAP1 DUP1 DUP4 DUP4 JUMPDEST PUSH1 0x20 DUP4 LT PUSH2 0x390F JUMPI DUP1 MLOAD DUP3 MSTORE PUSH1 0x1F NOT SWAP1 SWAP3 ADD SWAP2 PUSH1 0x20 SWAP2 DUP3 ADD SWAP2 ADD PUSH2 0x38F0 JUMP JUMPDEST PUSH1 0x1 DUP4 PUSH1 0x20 SUB PUSH2 0x100 EXP SUB DUP1 NOT DUP3 MLOAD AND DUP2 DUP5 MLOAD AND DUP1 DUP3 OR DUP6 MSTORE POP POP POP POP POP POP SWAP1 POP ADD SWAP2 POP POP PUSH1 0x0 PUSH1 0x40 MLOAD DUP1 DUP4 SUB DUP2 DUP6 DUP8 GAS CALL SWAP3 POP POP POP RETURNDATASIZE DUP1 PUSH1 0x0 DUP2 EQ PUSH2 0x3971 JUMPI PUSH1 0x40 MLOAD SWAP2 POP PUSH1 0x1F NOT PUSH1 0x3F RETURNDATASIZE ADD AND DUP3 ADD PUSH1 0x40 MSTORE RETURNDATASIZE DUP3 MSTORE RETURNDATASIZE PUSH1 0x0 PUSH1 0x20 DUP5 ADD RETURNDATACOPY PUSH2 0x3976 JUMP JUMPDEST PUSH1 0x60 SWAP2 POP JUMPDEST POP SWAP2 POP SWAP2 POP PUSH2 0x3986 DUP3 DUP3 DUP7 PUSH2 0x3997 JUMP JUMPDEST SWAP8 SWAP7 POP POP POP POP POP POP POP JUMP JUMPDEST EXTCODESIZE ISZERO ISZERO SWAP1 JUMP JUMPDEST PUSH1 0x60 DUP4 ISZERO PUSH2 0x39A6 JUMPI POP DUP2 PUSH2 0x3707 JUMP JUMPDEST DUP3 MLOAD ISZERO PUSH2 0x39B6 JUMPI DUP3 MLOAD DUP1 DUP5 PUSH1 0x20 ADD REVERT JUMPDEST PUSH1 0x40 MLOAD PUSH3 0x461BCD PUSH1 0xE5 SHL DUP2 MSTORE PUSH1 0x20 PUSH1 0x4 DUP3 ADD DUP2 DUP2 MSTORE DUP5 MLOAD PUSH1 0x24 DUP5 ADD MSTORE DUP5 MLOAD DUP6 SWAP4 SWAP2 SWAP3 DUP4 SWAP3 PUSH1 0x44 ADD SWAP2 SWAP1 DUP6 ADD SWAP1 DUP1 DUP4 DUP4 PUSH1 0x0 DUP4 ISZERO PUSH2 0x36C6 JUMPI DUP2 DUP2 ADD MLOAD DUP4 DUP3 ADD MSTORE PUSH1 0x20 ADD PUSH2 0x36AE JUMP JUMPDEST DUP3 DUP1 SLOAD PUSH1 0x1 DUP2 PUSH1 0x1 AND ISZERO PUSH2 0x100 MUL SUB AND PUSH1 0x2 SWAP1 DIV SWAP1 PUSH1 0x0 MSTORE PUSH1 0x20 PUSH1 0x0 KECCAK256 SWAP1 PUSH1 0x1F ADD PUSH1 0x20 SWAP1 DIV DUP2 ADD SWAP3 DUP3 PUSH1 0x1F LT PUSH2 0x3A3E JUMPI DUP1 MLOAD PUSH1 0xFF NOT AND DUP4 DUP1 ADD OR DUP6 SSTORE PUSH2 0x3A6B JUMP JUMPDEST DUP3 DUP1 ADD PUSH1 0x1 ADD DUP6 SSTORE DUP3 ISZERO PUSH2 0x3A6B JUMPI SWAP2 DUP3 ADD JUMPDEST DUP3 DUP2 GT ISZERO PUSH2 0x3A6B JUMPI DUP3 MLOAD DUP3 SSTORE SWAP2 PUSH1 0x20 ADD SWAP2 SWAP1 PUSH1 0x1 ADD SWAP1 PUSH2 0x3A50 JUMP JUMPDEST POP PUSH2 0x3A77 SWAP3 SWAP2 POP PUSH2 0x3AE9 JUMP JUMPDEST POP SWAP1 JUMP JUMPDEST DUP3 DUP1 SLOAD PUSH1 0x1 DUP2 PUSH1 0x1 AND ISZERO PUSH2 0x100 MUL SUB AND PUSH1 0x2 SWAP1 DIV SWAP1 PUSH1 0x0 MSTORE PUSH1 0x20 PUSH1 0x0 KECCAK256 SWAP1 PUSH1 0x1F ADD PUSH1 0x20 SWAP1 DIV DUP2 ADD SWAP3 DUP3 PUSH1 0x1F LT PUSH2 0x3ABC JUMPI DUP3 DUP1 ADD PUSH1 0xFF NOT DUP3 CALLDATALOAD AND OR DUP6 SSTORE PUSH2 0x3A6B JUMP JUMPDEST DUP3 DUP1 ADD PUSH1 0x1 ADD DUP6 SSTORE DUP3 ISZERO PUSH2 0x3A6B JUMPI SWAP2 DUP3 ADD JUMPDEST DUP3 DUP2 GT ISZERO PUSH2 0x3A6B JUMPI DUP3 CALLDATALOAD DUP3 SSTORE SWAP2 PUSH1 0x20 ADD SWAP2 SWAP1 PUSH1 0x1 ADD SWAP1 PUSH2 0x3ACE JUMP JUMPDEST PUSH2 0x32B4 SWAP2 SWAP1 JUMPDEST DUP1 DUP3 GT ISZERO PUSH2 0x3A77 JUMPI PUSH1 0x0 DUP2 SSTORE PUSH1 0x1 ADD PUSH2 0x3AEF JUMP INVALID GASLIMIT PUSH15 0x756D657261626C655365743A20696E PUSH5 0x6578206F75 PUSH21 0x206F6620626F756E6473416363657373436F6E7472 PUSH16 0x6C3A2073656E646572206D7573742062 PUSH6 0x20616E206164 PUSH14 0x696E20746F206772616E74536166 PUSH6 0x42455032303A KECCAK256 TIMESTAMP GASLIMIT POP ORIGIN ADDRESS KECCAK256 PUSH16 0x7065726174696F6E20646964206E6F74 KECCAK256 PUSH20 0x756363656564416464726573733A20696E737566 PUSH7 0x696369656E7420 PUSH3 0x616C61 PUSH15 0x636520666F722063616C6C41636365 PUSH20 0x73436F6E74726F6C3A2073656E646572206D7573 PUSH21 0x20626520616E2061646D696E20746F207265766F6B PUSH6 0x416363657373 NUMBER PUSH16 0x6E74726F6C3A2063616E206F6E6C7920 PUSH19 0x656E6F756E636520726F6C657320666F722073 PUSH6 0x6C66A2646970 PUSH7 0x7358221220A0C4 BYTE 0xD0 CALLDATACOPY DUP7 0xC0 0xB4 ORIGIN 0xF NUMBER 0xBC OR PUSH5 0x3EB7921BD9 0xD ORIGIN 0xC1 0xB9 DUP11 KECCAK256 BYTE GAS DUP1 0xB7 PUSH6 0x493064736F6C PUSH4 0x43000604 STOP CALLER "
				},
				"gasEstimates": {
					"creation": {
						"codeDepositCost": "3083400",
						"executionCost": "infinite",
						"totalCost": "infinite"
					},
					"external": {
						"DEFAULT_ADMIN_ROLE()": "244",
						"NFT_ROLE()": "392",
						"POINT_ROLE()": "371",
						"SPECIAL_ROLE()": "327",
						"addNftAddress(address)": "infinite",
						"addTeam(string,string)": "infinite",
						"cakeToken()": "1082",
						"changeTeam(address,uint256)": "infinite",
						"claimFee(uint256)": "infinite",
						"createProfile(uint256,address,uint256)": "infinite",
						"getRoleAdmin(bytes32)": "1205",
						"getRoleMember(bytes32,uint256)": "infinite",
						"getRoleMemberCount(bytes32)": "infinite",
						"getTeamProfile(uint256)": "infinite",
						"getUserProfile(address)": "6421",
						"getUserStatus(address)": "1204",
						"grantRole(bytes32,address)": "infinite",
						"hasRegistered(address)": "1269",
						"hasRole(bytes32,address)": "infinite",
						"increaseTeamPoints(uint256,uint256,uint256)": "infinite",
						"increaseUserPoints(address,uint256,uint256)": "infinite",
						"increaseUserPointsMultiple(address[],uint256,uint256)": "infinite",
						"makeTeamJoinable(uint256)": "infinite",
						"makeTeamNotJoinable(uint256)": "infinite",
						"numberActiveProfiles()": "1132",
						"numberCakeToReactivate()": "1087",
						"numberCakeToRegister()": "1088",
						"numberCakeToUpdate()": "1133",
						"numberTeams()": "1066",
						"onERC721Received(address,address,uint256,bytes)": "infinite",
						"pauseProfile()": "infinite",
						"reactivateProfile(address,uint256)": "infinite",
						"removeTeamPoints(uint256,uint256)": "infinite",
						"removeUserPoints(address,uint256)": "infinite",
						"removeUserPointsMultiple(address[],uint256)": "infinite",
						"renameTeam(uint256,string,string)": "infinite",
						"renounceRole(bytes32,address)": "infinite",
						"revokeRole(bytes32,address)": "infinite",
						"updateNumberCake(uint256,uint256,uint256)": "infinite",
						"updateProfile(address,uint256)": "infinite"
					}
				},
				"methodIdentifiers": {
					"DEFAULT_ADMIN_ROLE()": "a217fddf",
					"NFT_ROLE()": "f684f33c",
					"POINT_ROLE()": "c9bed948",
					"SPECIAL_ROLE()": "bf051c13",
					"addNftAddress(address)": "5da3c240",
					"addTeam(string,string)": "0d4fb803",
					"cakeToken()": "8904bf2f",
					"changeTeam(address,uint256)": "e5020a62",
					"claimFee(uint256)": "f667526a",
					"createProfile(uint256,address,uint256)": "fd825f58",
					"getRoleAdmin(bytes32)": "248a9ca3",
					"getRoleMember(bytes32,uint256)": "9010d07c",
					"getRoleMemberCount(bytes32)": "ca15c873",
					"getTeamProfile(uint256)": "aee2f47f",
					"getUserProfile(address)": "987ee156",
					"getUserStatus(address)": "ea0d5dcd",
					"grantRole(bytes32,address)": "2f2ff15d",
					"hasRegistered(address)": "a0d03526",
					"hasRole(bytes32,address)": "91d14854",
					"increaseTeamPoints(uint256,uint256,uint256)": "1e47a476",
					"increaseUserPoints(address,uint256,uint256)": "1bdc17f6",
					"increaseUserPointsMultiple(address[],uint256,uint256)": "e2fa2ff3",
					"makeTeamJoinable(uint256)": "ebc4ffc7",
					"makeTeamNotJoinable(uint256)": "218188d7",
					"numberActiveProfiles()": "be4f9bd6",
					"numberCakeToReactivate()": "da95006d",
					"numberCakeToRegister()": "49b2cff5",
					"numberCakeToUpdate()": "1d0c02b9",
					"numberTeams()": "3dd452d6",
					"onERC721Received(address,address,uint256,bytes)": "150b7a02",
					"pauseProfile()": "c1694a2f",
					"reactivateProfile(address,uint256)": "a40601ee",
					"removeTeamPoints(uint256,uint256)": "d1d0954c",
					"removeUserPoints(address,uint256)": "da83fe4a",
					"removeUserPointsMultiple(address[],uint256)": "a56bd1de",
					"renameTeam(uint256,string,string)": "5db34566",
					"renounceRole(bytes32,address)": "36568abe",
					"revokeRole(bytes32,address)": "d547741f",
					"updateNumberCake(uint256,uint256,uint256)": "2daa72d4",
					"updateProfile(address,uint256)": "0a82697b"
				}
			},
			"storageLayout": {
				"storage": [
					{
						"astId": 763,
						"contract": "Users/leilei/Downloads/MasterChefV2/contracts/PancakeProfile.sol:PancakeProfile",
						"label": "_roles",
						"offset": 0,
						"slot": "0",
						"type": "t_mapping(t_bytes32,t_struct(RoleData)759_storage)"
					},
					{
						"astId": 1759,
						"contract": "Users/leilei/Downloads/MasterChefV2/contracts/PancakeProfile.sol:PancakeProfile",
						"label": "cakeToken",
						"offset": 0,
						"slot": "1",
						"type": "t_contract(IBEP20)1533"
					},
					{
						"astId": 1776,
						"contract": "Users/leilei/Downloads/MasterChefV2/contracts/PancakeProfile.sol:PancakeProfile",
						"label": "numberActiveProfiles",
						"offset": 0,
						"slot": "2",
						"type": "t_uint256"
					},
					{
						"astId": 1778,
						"contract": "Users/leilei/Downloads/MasterChefV2/contracts/PancakeProfile.sol:PancakeProfile",
						"label": "numberCakeToReactivate",
						"offset": 0,
						"slot": "3",
						"type": "t_uint256"
					},
					{
						"astId": 1780,
						"contract": "Users/leilei/Downloads/MasterChefV2/contracts/PancakeProfile.sol:PancakeProfile",
						"label": "numberCakeToRegister",
						"offset": 0,
						"slot": "4",
						"type": "t_uint256"
					},
					{
						"astId": 1782,
						"contract": "Users/leilei/Downloads/MasterChefV2/contracts/PancakeProfile.sol:PancakeProfile",
						"label": "numberCakeToUpdate",
						"offset": 0,
						"slot": "5",
						"type": "t_uint256"
					},
					{
						"astId": 1784,
						"contract": "Users/leilei/Downloads/MasterChefV2/contracts/PancakeProfile.sol:PancakeProfile",
						"label": "numberTeams",
						"offset": 0,
						"slot": "6",
						"type": "t_uint256"
					},
					{
						"astId": 1788,
						"contract": "Users/leilei/Downloads/MasterChefV2/contracts/PancakeProfile.sol:PancakeProfile",
						"label": "hasRegistered",
						"offset": 0,
						"slot": "7",
						"type": "t_mapping(t_address,t_bool)"
					},
					{
						"astId": 1792,
						"contract": "Users/leilei/Downloads/MasterChefV2/contracts/PancakeProfile.sol:PancakeProfile",
						"label": "teams",
						"offset": 0,
						"slot": "8",
						"type": "t_mapping(t_uint256,t_struct(Team)1923_storage)"
					},
					{
						"astId": 1796,
						"contract": "Users/leilei/Downloads/MasterChefV2/contracts/PancakeProfile.sol:PancakeProfile",
						"label": "users",
						"offset": 0,
						"slot": "9",
						"type": "t_mapping(t_address,t_struct(User)1936_storage)"
					},
					{
						"astId": 1798,
						"contract": "Users/leilei/Downloads/MasterChefV2/contracts/PancakeProfile.sol:PancakeProfile",
						"label": "_countTeams",
						"offset": 0,
						"slot": "10",
						"type": "t_struct(Counter)1226_storage"
					},
					{
						"astId": 1800,
						"contract": "Users/leilei/Downloads/MasterChefV2/contracts/PancakeProfile.sol:PancakeProfile",
						"label": "_countUsers",
						"offset": 0,
						"slot": "11",
						"type": "t_struct(Counter)1226_storage"
					}
				],
				"types": {
					"t_address": {
						"encoding": "inplace",
						"label": "address",
						"numberOfBytes": "20"
					},
					"t_array(t_bytes32)dyn_storage": {
						"base": "t_bytes32",
						"encoding": "dynamic_array",
						"label": "bytes32[]",
						"numberOfBytes": "32"
					},
					"t_bool": {
						"encoding": "inplace",
						"label": "bool",
						"numberOfBytes": "1"
					},
					"t_bytes32": {
						"encoding": "inplace",
						"label": "bytes32",
						"numberOfBytes": "32"
					},
					"t_contract(IBEP20)1533": {
						"encoding": "inplace",
						"label": "contract IBEP20",
						"numberOfBytes": "20"
					},
					"t_mapping(t_address,t_bool)": {
						"encoding": "mapping",
						"key": "t_address",
						"label": "mapping(address => bool)",
						"numberOfBytes": "32",
						"value": "t_bool"
					},
					"t_mapping(t_address,t_struct(User)1936_storage)": {
						"encoding": "mapping",
						"key": "t_address",
						"label": "mapping(address => struct PancakeProfile.User)",
						"numberOfBytes": "32",
						"value": "t_struct(User)1936_storage"
					},
					"t_mapping(t_bytes32,t_struct(RoleData)759_storage)": {
						"encoding": "mapping",
						"key": "t_bytes32",
						"label": "mapping(bytes32 => struct AccessControl.RoleData)",
						"numberOfBytes": "32",
						"value": "t_struct(RoleData)759_storage"
					},
					"t_mapping(t_bytes32,t_uint256)": {
						"encoding": "mapping",
						"key": "t_bytes32",
						"label": "mapping(bytes32 => uint256)",
						"numberOfBytes": "32",
						"value": "t_uint256"
					},
					"t_mapping(t_uint256,t_struct(Team)1923_storage)": {
						"encoding": "mapping",
						"key": "t_uint256",
						"label": "mapping(uint256 => struct PancakeProfile.Team)",
						"numberOfBytes": "32",
						"value": "t_struct(Team)1923_storage"
					},
					"t_string_storage": {
						"encoding": "bytes",
						"label": "string",
						"numberOfBytes": "32"
					},
					"t_struct(AddressSet)275_storage": {
						"encoding": "inplace",
						"label": "struct EnumerableSet.AddressSet",
						"members": [
							{
								"astId": 274,
								"contract": "Users/leilei/Downloads/MasterChefV2/contracts/PancakeProfile.sol:PancakeProfile",
								"label": "_inner",
								"offset": 0,
								"slot": "0",
								"type": "t_struct(Set)10_storage"
							}
						],
						"numberOfBytes": "64"
					},
					"t_struct(Counter)1226_storage": {
						"encoding": "inplace",
						"label": "struct Counters.Counter",
						"members": [
							{
								"astId": 1225,
								"contract": "Users/leilei/Downloads/MasterChefV2/contracts/PancakeProfile.sol:PancakeProfile",
								"label": "_value",
								"offset": 0,
								"slot": "0",
								"type": "t_uint256"
							}
						],
						"numberOfBytes": "32"
					},
					"t_struct(RoleData)759_storage": {
						"encoding": "inplace",
						"label": "struct AccessControl.RoleData",
						"members": [
							{
								"astId": 756,
								"contract": "Users/leilei/Downloads/MasterChefV2/contracts/PancakeProfile.sol:PancakeProfile",
								"label": "members",
								"offset": 0,
								"slot": "0",
								"type": "t_struct(AddressSet)275_storage"
							},
							{
								"astId": 758,
								"contract": "Users/leilei/Downloads/MasterChefV2/contracts/PancakeProfile.sol:PancakeProfile",
								"label": "adminRole",
								"offset": 0,
								"slot": "2",
								"type": "t_bytes32"
							}
						],
						"numberOfBytes": "96"
					},
					"t_struct(Set)10_storage": {
						"encoding": "inplace",
						"label": "struct EnumerableSet.Set",
						"members": [
							{
								"astId": 5,
								"contract": "Users/leilei/Downloads/MasterChefV2/contracts/PancakeProfile.sol:PancakeProfile",
								"label": "_values",
								"offset": 0,
								"slot": "0",
								"type": "t_array(t_bytes32)dyn_storage"
							},
							{
								"astId": 9,
								"contract": "Users/leilei/Downloads/MasterChefV2/contracts/PancakeProfile.sol:PancakeProfile",
								"label": "_indexes",
								"offset": 0,
								"slot": "1",
								"type": "t_mapping(t_bytes32,t_uint256)"
							}
						],
						"numberOfBytes": "64"
					},
					"t_struct(Team)1923_storage": {
						"encoding": "inplace",
						"label": "struct PancakeProfile.Team",
						"members": [
							{
								"astId": 1914,
								"contract": "Users/leilei/Downloads/MasterChefV2/contracts/PancakeProfile.sol:PancakeProfile",
								"label": "teamName",
								"offset": 0,
								"slot": "0",
								"type": "t_string_storage"
							},
							{
								"astId": 1916,
								"contract": "Users/leilei/Downloads/MasterChefV2/contracts/PancakeProfile.sol:PancakeProfile",
								"label": "teamDescription",
								"offset": 0,
								"slot": "1",
								"type": "t_string_storage"
							},
							{
								"astId": 1918,
								"contract": "Users/leilei/Downloads/MasterChefV2/contracts/PancakeProfile.sol:PancakeProfile",
								"label": "numberUsers",
								"offset": 0,
								"slot": "2",
								"type": "t_uint256"
							},
							{
								"astId": 1920,
								"contract": "Users/leilei/Downloads/MasterChefV2/contracts/PancakeProfile.sol:PancakeProfile",
								"label": "numberPoints",
								"offset": 0,
								"slot": "3",
								"type": "t_uint256"
							},
							{
								"astId": 1922,
								"contract": "Users/leilei/Downloads/MasterChefV2/contracts/PancakeProfile.sol:PancakeProfile",
								"label": "isJoinable",
								"offset": 0,
								"slot": "4",
								"type": "t_bool"
							}
						],
						"numberOfBytes": "160"
					},
					"t_struct(User)1936_storage": {
						"encoding": "inplace",
						"label": "struct PancakeProfile.User",
						"members": [
							{
								"astId": 1925,
								"contract": "Users/leilei/Downloads/MasterChefV2/contracts/PancakeProfile.sol:PancakeProfile",
								"label": "userId",
								"offset": 0,
								"slot": "0",
								"type": "t_uint256"
							},
							{
								"astId": 1927,
								"contract": "Users/leilei/Downloads/MasterChefV2/contracts/PancakeProfile.sol:PancakeProfile",
								"label": "numberPoints",
								"offset": 0,
								"slot": "1",
								"type": "t_uint256"
							},
							{
								"astId": 1929,
								"contract": "Users/leilei/Downloads/MasterChefV2/contracts/PancakeProfile.sol:PancakeProfile",
								"label": "teamId",
								"offset": 0,
								"slot": "2",
								"type": "t_uint256"
							},
							{
								"astId": 1931,
								"contract": "Users/leilei/Downloads/MasterChefV2/contracts/PancakeProfile.sol:PancakeProfile",
								"label": "nftAddress",
								"offset": 0,
								"slot": "3",
								"type": "t_address"
							},
							{
								"astId": 1933,
								"contract": "Users/leilei/Downloads/MasterChefV2/contracts/PancakeProfile.sol:PancakeProfile",
								"label": "tokenId",
								"offset": 0,
								"slot": "4",
								"type": "t_uint256"
							},
							{
								"astId": 1935,
								"contract": "Users/leilei/Downloads/MasterChefV2/contracts/PancakeProfile.sol:PancakeProfile",
								"label": "isActive",
								"offset": 0,
								"slot": "5",
								"type": "t_bool"
							}
						],
						"numberOfBytes": "192"
					},
					"t_uint256": {
						"encoding": "inplace",
						"label": "uint256",
						"numberOfBytes": "32"
					}
				}
			},
			"userdoc": {
				"methods": {}
			}
		}
	}
}