{
	"Users/leilei/Downloads/MasterChefV2/contracts/CakeToken.sol": {
		"BEP20": {
			"abi": [
				{
					"inputs": [
						{
							"internalType": "string",
							"name": "name",
							"type": "string"
						},
						{
							"internalType": "string",
							"name": "symbol",
							"type": "string"
						}
					],
					"stateMutability": "nonpayable",
					"type": "constructor"
				},
				{
					"anonymous": false,
					"inputs": [
						{
							"indexed": true,
							"internalType": "address",
							"name": "owner",
							"type": "address"
						},
						{
							"indexed": true,
							"internalType": "address",
							"name": "spender",
							"type": "address"
						},
						{
							"indexed": false,
							"internalType": "uint256",
							"name": "value",
							"type": "uint256"
						}
					],
					"name": "Approval",
					"type": "event"
				},
				{
					"anonymous": false,
					"inputs": [
						{
							"indexed": true,
							"internalType": "address",
							"name": "previousOwner",
							"type": "address"
						},
						{
							"indexed": true,
							"internalType": "address",
							"name": "newOwner",
							"type": "address"
						}
					],
					"name": "OwnershipTransferred",
					"type": "event"
				},
				{
					"anonymous": false,
					"inputs": [
						{
							"indexed": true,
							"internalType": "address",
							"name": "from",
							"type": "address"
						},
						{
							"indexed": true,
							"internalType": "address",
							"name": "to",
							"type": "address"
						},
						{
							"indexed": false,
							"internalType": "uint256",
							"name": "value",
							"type": "uint256"
						}
					],
					"name": "Transfer",
					"type": "event"
				},
				{
					"inputs": [
						{
							"internalType": "address",
							"name": "owner",
							"type": "address"
						},
						{
							"internalType": "address",
							"name": "spender",
							"type": "address"
						}
					],
					"name": "allowance",
					"outputs": [
						{
							"internalType": "uint256",
							"name": "",
							"type": "uint256"
						}
					],
					"stateMutability": "view",
					"type": "function"
				},
				{
					"inputs": [
						{
							"internalType": "address",
							"name": "spender",
							"type": "address"
						},
						{
							"internalType": "uint256",
							"name": "amount",
							"type": "uint256"
						}
					],
					"name": "approve",
					"outputs": [
						{
							"internalType": "bool",
							"name": "",
							"type": "bool"
						}
					],
					"stateMutability": "nonpayable",
					"type": "function"
				},
				{
					"inputs": [
						{
							"internalType": "address",
							"name": "account",
							"type": "address"
						}
					],
					"name": "balanceOf",
					"outputs": [
						{
							"internalType": "uint256",
							"name": "",
							"type": "uint256"
						}
					],
					"stateMutability": "view",
					"type": "function"
				},
				{
					"inputs": [],
					"name": "decimals",
					"outputs": [
						{
							"internalType": "uint8",
							"name": "",
							"type": "uint8"
						}
					],
					"stateMutability": "view",
					"type": "function"
				},
				{
					"inputs": [
						{
							"internalType": "address",
							"name": "spender",
							"type": "address"
						},
						{
							"internalType": "uint256",
							"name": "subtractedValue",
							"type": "uint256"
						}
					],
					"name": "decreaseAllowance",
					"outputs": [
						{
							"internalType": "bool",
							"name": "",
							"type": "bool"
						}
					],
					"stateMutability": "nonpayable",
					"type": "function"
				},
				{
					"inputs": [],
					"name": "getOwner",
					"outputs": [
						{
							"internalType": "address",
							"name": "",
							"type": "address"
						}
					],
					"stateMutability": "view",
					"type": "function"
				},
				{
					"inputs": [
						{
							"internalType": "address",
							"name": "spender",
							"type": "address"
						},
						{
							"internalType": "uint256",
							"name": "addedValue",
							"type": "uint256"
						}
					],
					"name": "increaseAllowance",
					"outputs": [
						{
							"internalType": "bool",
							"name": "",
							"type": "bool"
						}
					],
					"stateMutability": "nonpayable",
					"type": "function"
				},
				{
					"inputs": [
						{
							"internalType": "uint256",
							"name": "amount",
							"type": "uint256"
						}
					],
					"name": "mint",
					"outputs": [
						{
							"internalType": "bool",
							"name": "",
							"type": "bool"
						}
					],
					"stateMutability": "nonpayable",
					"type": "function"
				},
				{
					"inputs": [],
					"name": "name",
					"outputs": [
						{
							"internalType": "string",
							"name": "",
							"type": "string"
						}
					],
					"stateMutability": "view",
					"type": "function"
				},
				{
					"inputs": [],
					"name": "owner",
					"outputs": [
						{
							"internalType": "address",
							"name": "",
							"type": "address"
						}
					],
					"stateMutability": "view",
					"type": "function"
				},
				{
					"inputs": [],
					"name": "renounceOwnership",
					"outputs": [],
					"stateMutability": "nonpayable",
					"type": "function"
				},
				{
					"inputs": [],
					"name": "symbol",
					"outputs": [
						{
							"internalType": "string",
							"name": "",
							"type": "string"
						}
					],
					"stateMutability": "view",
					"type": "function"
				},
				{
					"inputs": [],
					"name": "totalSupply",
					"outputs": [
						{
							"internalType": "uint256",
							"name": "",
							"type": "uint256"
						}
					],
					"stateMutability": "view",
					"type": "function"
				},
				{
					"inputs": [
						{
							"internalType": "address",
							"name": "recipient",
							"type": "address"
						},
						{
							"internalType": "uint256",
							"name": "amount",
							"type": "uint256"
						}
					],
					"name": "transfer",
					"outputs": [
						{
							"internalType": "bool",
							"name": "",
							"type": "bool"
						}
					],
					"stateMutability": "nonpayable",
					"type": "function"
				},
				{
					"inputs": [
						{
							"internalType": "address",
							"name": "sender",
							"type": "address"
						},
						{
							"internalType": "address",
							"name": "recipient",
							"type": "address"
						},
						{
							"internalType": "uint256",
							"name": "amount",
							"type": "uint256"
						}
					],
					"name": "transferFrom",
					"outputs": [
						{
							"internalType": "bool",
							"name": "",
							"type": "bool"
						}
					],
					"stateMutability": "nonpayable",
					"type": "function"
				},
				{
					"inputs": [
						{
							"internalType": "address",
							"name": "newOwner",
							"type": "address"
						}
					],
					"name": "transferOwnership",
					"outputs": [],
					"stateMutability": "nonpayable",
					"type": "function"
				}
			],
			"devdoc": {
				"details": "Implementation of the {IBEP20} interface. This implementation is agnostic to the way tokens are created. This means that a supply mechanism has to be added in a derived contract using {_mint}. For a generic mechanism see {BEP20PresetMinterPauser}. TIP: For a detailed writeup see our guide https://forum.zeppelin.solutions/t/how-to-implement-BEP20-supply-mechanisms/226[How to implement supply mechanisms]. We have followed general OpenZeppelin guidelines: functions revert instead of returning `false` on failure. This behavior is nonetheless conventional and does not conflict with the expectations of BEP20 applications. Additionally, an {Approval} event is emitted on calls to {transferFrom}. This allows applications to reconstruct the allowance for all accounts just by listening to said events. Other implementations of the EIP may not emit these events, as it isn't required by the specification. Finally, the non-standard {decreaseAllowance} and {increaseAllowance} functions have been added to mitigate the well-known issues around setting allowances. See {IBEP20-approve}.",
				"kind": "dev",
				"methods": {
					"allowance(address,address)": {
						"details": "See {BEP20-allowance}."
					},
					"approve(address,uint256)": {
						"details": "See {BEP20-approve}. Requirements: - `spender` cannot be the zero address."
					},
					"balanceOf(address)": {
						"details": "See {BEP20-balanceOf}."
					},
					"constructor": {
						"details": "Sets the values for {name} and {symbol}, initializes {decimals} with a default value of 18. To select a different value for {decimals}, use {_setupDecimals}. All three of these values are immutable: they can only be set once during construction."
					},
					"decimals()": {
						"details": "Returns the token decimals."
					},
					"decreaseAllowance(address,uint256)": {
						"details": "Atomically decreases the allowance granted to `spender` by the caller. This is an alternative to {approve} that can be used as a mitigation for problems described in {BEP20-approve}. Emits an {Approval} event indicating the updated allowance. Requirements: - `spender` cannot be the zero address. - `spender` must have allowance for the caller of at least `subtractedValue`."
					},
					"getOwner()": {
						"details": "Returns the bep token owner."
					},
					"increaseAllowance(address,uint256)": {
						"details": "Atomically increases the allowance granted to `spender` by the caller. This is an alternative to {approve} that can be used as a mitigation for problems described in {BEP20-approve}. Emits an {Approval} event indicating the updated allowance. Requirements: - `spender` cannot be the zero address."
					},
					"mint(uint256)": {
						"details": "Creates `amount` tokens and assigns them to `msg.sender`, increasing the total supply. Requirements - `msg.sender` must be the token owner"
					},
					"name()": {
						"details": "Returns the token name."
					},
					"owner()": {
						"details": "Returns the address of the current owner."
					},
					"renounceOwnership()": {
						"details": "Leaves the contract without owner. It will not be possible to call `onlyOwner` functions anymore. Can only be called by the current owner. NOTE: Renouncing ownership will leave the contract without an owner, thereby removing any functionality that is only available to the owner."
					},
					"symbol()": {
						"details": "Returns the token symbol."
					},
					"totalSupply()": {
						"details": "See {BEP20-totalSupply}."
					},
					"transfer(address,uint256)": {
						"details": "See {BEP20-transfer}. Requirements: - `recipient` cannot be the zero address. - the caller must have a balance of at least `amount`."
					},
					"transferFrom(address,address,uint256)": {
						"details": "See {BEP20-transferFrom}. Emits an {Approval} event indicating the updated allowance. This is not required by the EIP. See the note at the beginning of {BEP20}; Requirements: - `sender` and `recipient` cannot be the zero address. - `sender` must have a balance of at least `amount`. - the caller must have allowance for `sender`'s tokens of at least `amount`."
					},
					"transferOwnership(address)": {
						"details": "Transfers ownership of the contract to a new account (`newOwner`). Can only be called by the current owner."
					}
				},
				"version": 1
			},
			"evm": {
				"assembly": "    /* \"Users/leilei/Downloads/MasterChefV2/contracts/CakeToken.sol\":19627:28251  contract BEP20 is Context, IBEP20, Ownable {... */\n  mstore(0x40, 0x80)\n    /* \"Users/leilei/Downloads/MasterChefV2/contracts/CakeToken.sol\":20301:20441  constructor(string memory name, string memory symbol) public {... */\n  callvalue\n  dup1\n  iszero\n  tag_1\n  jumpi\n  0x00\n  dup1\n  revert\ntag_1:\n  pop\n  mload(0x40)\n  sub(codesize, bytecodeSize)\n  dup1\n  bytecodeSize\n  dup4\n  codecopy\n  dup2\n  dup2\n  add\n  0x40\n  mstore\n  0x40\n  dup2\n  lt\n  iszero\n  tag_2\n  jumpi\n  0x00\n  dup1\n  revert\ntag_2:\n  dup2\n  add\n  swap1\n  dup1\n  dup1\n  mload\n  mload(0x40)\n  swap4\n  swap3\n  swap2\n  swap1\n  dup5\n  0x0100000000\n  dup3\n  gt\n  iszero\n  tag_3\n  jumpi\n  0x00\n  dup1\n  revert\ntag_3:\n  dup4\n  dup3\n  add\n  swap2\n  pop\n  0x20\n  dup3\n  add\n  dup6\n  dup2\n  gt\n  iszero\n  tag_4\n  jumpi\n  0x00\n  dup1\n  revert\ntag_4:\n  dup3\n  mload\n  dup7\n  0x01\n  dup3\n  mul\n  dup4\n  add\n  gt\n  0x0100000000\n  dup3\n  gt\n  or\n  iszero\n  tag_5\n  jumpi\n  0x00\n  dup1\n  revert\ntag_5:\n  dup1\n  dup4\n  mstore\n  0x20\n  dup4\n  add\n  swap3\n  pop\n  pop\n  pop\n  swap1\n  dup1\n  mload\n  swap1\n  0x20\n  add\n  swap1\n  dup1\n  dup4\n  dup4\n  0x00\ntag_6:\n  dup4\n  dup2\n  lt\n  iszero\n  tag_8\n  jumpi\n  dup1\n  dup3\n  add\n  mload\n  dup2\n  dup5\n  add\n  mstore\n  0x20\n  dup2\n  add\n  swap1\n  pop\n  jump(tag_6)\ntag_8:\n  pop\n  pop\n  pop\n  pop\n  swap1\n  pop\n  swap1\n  dup2\n  add\n  swap1\n  0x1f\n  and\n  dup1\n  iszero\n  tag_9\n  jumpi\n  dup1\n  dup3\n  sub\n  dup1\n  mload\n  0x01\n  dup4\n  0x20\n  sub\n  0x0100\n  exp\n  sub\n  not\n  and\n  dup2\n  mstore\n  0x20\n  add\n  swap2\n  pop\ntag_9:\n  pop\n  0x40\n  mstore\n  0x20\n  add\n  dup1\n  mload\n  mload(0x40)\n  swap4\n  swap3\n  swap2\n  swap1\n  dup5\n  0x0100000000\n  dup3\n  gt\n  iszero\n  tag_10\n  jumpi\n  0x00\n  dup1\n  revert\ntag_10:\n  dup4\n  dup3\n  add\n  swap2\n  pop\n  0x20\n  dup3\n  add\n  dup6\n  dup2\n  gt\n  iszero\n  tag_11\n  jumpi\n  0x00\n  dup1\n  revert\ntag_11:\n  dup3\n  mload\n  dup7\n  0x01\n  dup3\n  mul\n  dup4\n  add\n  gt\n  0x0100000000\n  dup3\n  gt\n  or\n  iszero\n  tag_12\n  jumpi\n  0x00\n  dup1\n  revert\ntag_12:\n  dup1\n  dup4\n  mstore\n  0x20\n  dup4\n  add\n  swap3\n  pop\n  pop\n  pop\n  swap1\n  dup1\n  mload\n  swap1\n  0x20\n  add\n  swap1\n  dup1\n  dup4\n  dup4\n  0x00\ntag_13:\n  dup4\n  dup2\n  lt\n  iszero\n  tag_15\n  jumpi\n  dup1\n  dup3\n  add\n  mload\n  dup2\n  dup5\n  add\n  mstore\n  0x20\n  dup2\n  add\n  swap1\n  pop\n  jump(tag_13)\ntag_15:\n  pop\n  pop\n  pop\n  pop\n  swap1\n  pop\n  swap1\n  dup2\n  add\n  swap1\n  0x1f\n  and\n  dup1\n  iszero\n  tag_16\n  jumpi\n  dup1\n  dup3\n  sub\n  dup1\n  mload\n  0x01\n  dup4\n  0x20\n  sub\n  0x0100\n  exp\n  sub\n  not\n  and\n  dup2\n  mstore\n  0x20\n  add\n  swap2\n  pop\ntag_16:\n  pop\n  0x40\n  mstore\n  pop\n  pop\n  pop\n    /* \"Users/leilei/Downloads/MasterChefV2/contracts/CakeToken.sol\":1913:1930  address msgSender */\n  0x00\n    /* \"Users/leilei/Downloads/MasterChefV2/contracts/CakeToken.sol\":1933:1945  _msgSender() */\n  tag_22\n    /* \"Users/leilei/Downloads/MasterChefV2/contracts/CakeToken.sol\":1933:1943  _msgSender */\n  shl(0x20, tag_23)\n    /* \"Users/leilei/Downloads/MasterChefV2/contracts/CakeToken.sol\":1933:1945  _msgSender() */\n  0x20\n  shr\n  jump\t// in\ntag_22:\n    /* \"Users/leilei/Downloads/MasterChefV2/contracts/CakeToken.sol\":1913:1945  address msgSender = _msgSender() */\n  swap1\n  pop\n    /* \"Users/leilei/Downloads/MasterChefV2/contracts/CakeToken.sol\":1964:1973  msgSender */\n  dup1\n    /* \"Users/leilei/Downloads/MasterChefV2/contracts/CakeToken.sol\":1955:1961  _owner */\n  0x00\n  dup1\n    /* \"Users/leilei/Downloads/MasterChefV2/contracts/CakeToken.sol\":1955:1973  _owner = msgSender */\n  0x0100\n  exp\n  dup2\n  sload\n  dup2\n  0xffffffffffffffffffffffffffffffffffffffff\n  mul\n  not\n  and\n  swap1\n  dup4\n  0xffffffffffffffffffffffffffffffffffffffff\n  and\n  mul\n  or\n  swap1\n  sstore\n  pop\n    /* \"Users/leilei/Downloads/MasterChefV2/contracts/CakeToken.sol\":2021:2030  msgSender */\n  dup1\n    /* \"Users/leilei/Downloads/MasterChefV2/contracts/CakeToken.sol\":1988:2031  OwnershipTransferred(address(0), msgSender) */\n  0xffffffffffffffffffffffffffffffffffffffff\n  and\n    /* \"Users/leilei/Downloads/MasterChefV2/contracts/CakeToken.sol\":2017:2018  0 */\n  0x00\n    /* \"Users/leilei/Downloads/MasterChefV2/contracts/CakeToken.sol\":1988:2031  OwnershipTransferred(address(0), msgSender) */\n  0xffffffffffffffffffffffffffffffffffffffff\n  and\n  0x8be0079c531659141344cd1fd0a4f28419497f9722a3daafe3b4186f6b6457e0\n  mload(0x40)\n  mload(0x40)\n  dup1\n  swap2\n  sub\n  swap1\n  log3\n    /* \"Users/leilei/Downloads/MasterChefV2/contracts/CakeToken.sol\":1880:2038  constructor() internal {... */\n  pop\n    /* \"Users/leilei/Downloads/MasterChefV2/contracts/CakeToken.sol\":20380:20384  name */\n  dup2\n    /* \"Users/leilei/Downloads/MasterChefV2/contracts/CakeToken.sol\":20372:20377  _name */\n  0x04\n    /* \"Users/leilei/Downloads/MasterChefV2/contracts/CakeToken.sol\":20372:20384  _name = name */\n  swap1\n  dup1\n  mload\n  swap1\n  0x20\n  add\n  swap1\n  tag_25\n  swap3\n  swap2\n  swap1\n  tag_26\n  jump\t// in\ntag_25:\n  pop\n    /* \"Users/leilei/Downloads/MasterChefV2/contracts/CakeToken.sol\":20404:20410  symbol */\n  dup1\n    /* \"Users/leilei/Downloads/MasterChefV2/contracts/CakeToken.sol\":20394:20401  _symbol */\n  0x05\n    /* \"Users/leilei/Downloads/MasterChefV2/contracts/CakeToken.sol\":20394:20410  _symbol = symbol */\n  swap1\n  dup1\n  mload\n  swap1\n  0x20\n  add\n  swap1\n  tag_27\n  swap3\n  swap2\n  swap1\n  tag_26\n  jump\t// in\ntag_27:\n  pop\n    /* \"Users/leilei/Downloads/MasterChefV2/contracts/CakeToken.sol\":20432:20434  18 */\n  0x12\n    /* \"Users/leilei/Downloads/MasterChefV2/contracts/CakeToken.sol\":20420:20429  _decimals */\n  0x06\n  0x00\n    /* \"Users/leilei/Downloads/MasterChefV2/contracts/CakeToken.sol\":20420:20434  _decimals = 18 */\n  0x0100\n  exp\n  dup2\n  sload\n  dup2\n  0xff\n  mul\n  not\n  and\n  swap1\n  dup4\n  0xff\n  and\n  mul\n  or\n  swap1\n  sstore\n  pop\n    /* \"Users/leilei/Downloads/MasterChefV2/contracts/CakeToken.sol\":20301:20441  constructor(string memory name, string memory symbol) public {... */\n  pop\n  pop\n    /* \"Users/leilei/Downloads/MasterChefV2/contracts/CakeToken.sol\":19627:28251  contract BEP20 is Context, IBEP20, Ownable {... */\n  jump(tag_28)\n    /* \"Users/leilei/Downloads/MasterChefV2/contracts/CakeToken.sol\":804:900  function _msgSender() internal view returns (address payable) {... */\ntag_23:\n    /* \"Users/leilei/Downloads/MasterChefV2/contracts/CakeToken.sol\":849:864  address payable */\n  0x00\n    /* \"Users/leilei/Downloads/MasterChefV2/contracts/CakeToken.sol\":883:893  msg.sender */\n  caller\n    /* \"Users/leilei/Downloads/MasterChefV2/contracts/CakeToken.sol\":876:893  return msg.sender */\n  swap1\n  pop\n    /* \"Users/leilei/Downloads/MasterChefV2/contracts/CakeToken.sol\":804:900  function _msgSender() internal view returns (address payable) {... */\n  swap1\n  jump\t// out\n    /* \"Users/leilei/Downloads/MasterChefV2/contracts/CakeToken.sol\":19627:28251  contract BEP20 is Context, IBEP20, Ownable {... */\ntag_26:\n  dup3\n  dup1\n  sload\n  0x01\n  dup2\n  0x01\n  and\n  iszero\n  0x0100\n  mul\n  sub\n  and\n  0x02\n  swap1\n  div\n  swap1\n  0x00\n  mstore\n  keccak256(0x00, 0x20)\n  swap1\n  0x1f\n  add\n  0x20\n  swap1\n  div\n  dup2\n  add\n  swap3\n  dup3\n  0x1f\n  lt\n  tag_31\n  jumpi\n  dup1\n  mload\n  not(0xff)\n  and\n  dup4\n  dup1\n  add\n  or\n  dup6\n  sstore\n  jump(tag_30)\ntag_31:\n  dup3\n  dup1\n  add\n  0x01\n  add\n  dup6\n  sstore\n  dup3\n  iszero\n  tag_30\n  jumpi\n  swap2\n  dup3\n  add\ntag_32:\n  dup3\n  dup2\n  gt\n  iszero\n  tag_33\n  jumpi\n  dup3\n  mload\n  dup3\n  sstore\n  swap2\n  0x20\n  add\n  swap2\n  swap1\n  0x01\n  add\n  swap1\n  jump(tag_32)\ntag_33:\ntag_30:\n  pop\n  swap1\n  pop\n  tag_34\n  swap2\n  swap1\n  tag_35\n  jump\t// in\ntag_34:\n  pop\n  swap1\n  jump\t// out\ntag_35:\ntag_36:\n  dup1\n  dup3\n  gt\n  iszero\n  tag_37\n  jumpi\n  0x00\n  dup2\n  0x00\n  swap1\n  sstore\n  pop\n  0x01\n  add\n  jump(tag_36)\ntag_37:\n  pop\n  swap1\n  jump\t// out\ntag_28:\n  dataSize(sub_0)\n  dup1\n  dataOffset(sub_0)\n  0x00\n  codecopy\n  0x00\n  return\nstop\n\nsub_0: assembly {\n        /* \"Users/leilei/Downloads/MasterChefV2/contracts/CakeToken.sol\":19627:28251  contract BEP20 is Context, IBEP20, Ownable {... */\n      mstore(0x40, 0x80)\n      callvalue\n      dup1\n      iszero\n      tag_1\n      jumpi\n      0x00\n      dup1\n      revert\n    tag_1:\n      pop\n      jumpi(tag_2, lt(calldatasize, 0x04))\n      shr(0xe0, calldataload(0x00))\n      dup1\n      0x893d20e8\n      gt\n      tag_19\n      jumpi\n      dup1\n      0xa457c2d7\n      gt\n      tag_20\n      jumpi\n      dup1\n      0xa457c2d7\n      eq\n      tag_15\n      jumpi\n      dup1\n      0xa9059cbb\n      eq\n      tag_16\n      jumpi\n      dup1\n      0xdd62ed3e\n      eq\n      tag_17\n      jumpi\n      dup1\n      0xf2fde38b\n      eq\n      tag_18\n      jumpi\n      jump(tag_2)\n    tag_20:\n      dup1\n      0x893d20e8\n      eq\n      tag_11\n      jumpi\n      dup1\n      0x8da5cb5b\n      eq\n      tag_12\n      jumpi\n      dup1\n      0x95d89b41\n      eq\n      tag_13\n      jumpi\n      dup1\n      0xa0712d68\n      eq\n      tag_14\n      jumpi\n      jump(tag_2)\n    tag_19:\n      dup1\n      0x313ce567\n      gt\n      tag_21\n      jumpi\n      dup1\n      0x313ce567\n      eq\n      tag_7\n      jumpi\n      dup1\n      0x39509351\n      eq\n      tag_8\n      jumpi\n      dup1\n      0x70a08231\n      eq\n      tag_9\n      jumpi\n      dup1\n      0x715018a6\n      eq\n      tag_10\n      jumpi\n      jump(tag_2)\n    tag_21:\n      dup1\n      0x06fdde03\n      eq\n      tag_3\n      jumpi\n      dup1\n      0x095ea7b3\n      eq\n      tag_4\n      jumpi\n      dup1\n      0x18160ddd\n      eq\n      tag_5\n      jumpi\n      dup1\n      0x23b872dd\n      eq\n      tag_6\n      jumpi\n    tag_2:\n      0x00\n      dup1\n      revert\n        /* \"Users/leilei/Downloads/MasterChefV2/contracts/CakeToken.sol\":20654:20744  function name() public override view returns (string memory) {... */\n    tag_3:\n      tag_22\n      tag_23\n      jump\t// in\n    tag_22:\n      mload(0x40)\n      dup1\n      dup1\n      0x20\n      add\n      dup3\n      dup2\n      sub\n      dup3\n      mstore\n      dup4\n      dup2\n      dup2\n      mload\n      dup2\n      mstore\n      0x20\n      add\n      swap2\n      pop\n      dup1\n      mload\n      swap1\n      0x20\n      add\n      swap1\n      dup1\n      dup4\n      dup4\n      0x00\n    tag_24:\n      dup4\n      dup2\n      lt\n      iszero\n      tag_26\n      jumpi\n      dup1\n      dup3\n      add\n      mload\n      dup2\n      dup5\n      add\n      mstore\n      0x20\n      dup2\n      add\n      swap1\n      pop\n      jump(tag_24)\n    tag_26:\n      pop\n      pop\n      pop\n      pop\n      swap1\n      pop\n      swap1\n      dup2\n      add\n      swap1\n      0x1f\n      and\n      dup1\n      iszero\n      tag_27\n      jumpi\n      dup1\n      dup3\n      sub\n      dup1\n      mload\n      0x01\n      dup4\n      0x20\n      sub\n      0x0100\n      exp\n      sub\n      not\n      and\n      dup2\n      mstore\n      0x20\n      add\n      swap2\n      pop\n    tag_27:\n      pop\n      swap3\n      pop\n      pop\n      pop\n      mload(0x40)\n      dup1\n      swap2\n      sub\n      swap1\n      return\n        /* \"Users/leilei/Downloads/MasterChefV2/contracts/CakeToken.sol\":22082:22240  function approve(address spender, uint256 amount) public override returns (bool) {... */\n    tag_4:\n      tag_28\n      0x04\n      dup1\n      calldatasize\n      sub\n      0x40\n      dup2\n      lt\n      iszero\n      tag_29\n      jumpi\n      0x00\n      dup1\n      revert\n    tag_29:\n      dup2\n      add\n      swap1\n      dup1\n      dup1\n      calldataload\n      0xffffffffffffffffffffffffffffffffffffffff\n      and\n      swap1\n      0x20\n      add\n      swap1\n      swap3\n      swap2\n      swap1\n      dup1\n      calldataload\n      swap1\n      0x20\n      add\n      swap1\n      swap3\n      swap2\n      swap1\n      pop\n      pop\n      pop\n      tag_30\n      jump\t// in\n    tag_28:\n      mload(0x40)\n      dup1\n      dup3\n      iszero\n      iszero\n      dup2\n      mstore\n      0x20\n      add\n      swap2\n      pop\n      pop\n      mload(0x40)\n      dup1\n      swap2\n      sub\n      swap1\n      return\n        /* \"Users/leilei/Downloads/MasterChefV2/contracts/CakeToken.sol\":21109:21207  function totalSupply() public override view returns (uint256) {... */\n    tag_5:\n      tag_31\n      tag_32\n      jump\t// in\n    tag_31:\n      mload(0x40)\n      dup1\n      dup3\n      dup2\n      mstore\n      0x20\n      add\n      swap2\n      pop\n      pop\n      mload(0x40)\n      dup1\n      swap2\n      sub\n      swap1\n      return\n        /* \"Users/leilei/Downloads/MasterChefV2/contracts/CakeToken.sol\":22697:23082  function transferFrom(... */\n    tag_6:\n      tag_33\n      0x04\n      dup1\n      calldatasize\n      sub\n      0x60\n      dup2\n      lt\n      iszero\n      tag_34\n      jumpi\n      0x00\n      dup1\n      revert\n    tag_34:\n      dup2\n      add\n      swap1\n      dup1\n      dup1\n      calldataload\n      0xffffffffffffffffffffffffffffffffffffffff\n      and\n      swap1\n      0x20\n      add\n      swap1\n      swap3\n      swap2\n      swap1\n      dup1\n      calldataload\n      0xffffffffffffffffffffffffffffffffffffffff\n      and\n      swap1\n      0x20\n      add\n      swap1\n      swap3\n      swap2\n      swap1\n      dup1\n      calldataload\n      swap1\n      0x20\n      add\n      swap1\n      swap3\n      swap2\n      swap1\n      pop\n      pop\n      pop\n      tag_35\n      jump\t// in\n    tag_33:\n      mload(0x40)\n      dup1\n      dup3\n      iszero\n      iszero\n      dup2\n      mstore\n      0x20\n      add\n      swap2\n      pop\n      pop\n      mload(0x40)\n      dup1\n      swap2\n      sub\n      swap1\n      return\n        /* \"Users/leilei/Downloads/MasterChefV2/contracts/CakeToken.sol\":20806:20896  function decimals() public override view returns (uint8) {... */\n    tag_7:\n      tag_36\n      tag_37\n      jump\t// in\n    tag_36:\n      mload(0x40)\n      dup1\n      dup3\n      0xff\n      and\n      dup2\n      mstore\n      0x20\n      add\n      swap2\n      pop\n      pop\n      mload(0x40)\n      dup1\n      swap2\n      sub\n      swap1\n      return\n        /* \"Users/leilei/Downloads/MasterChefV2/contracts/CakeToken.sol\":23476:23683  function increaseAllowance(address spender, uint256 addedValue) public returns (bool) {... */\n    tag_8:\n      tag_38\n      0x04\n      dup1\n      calldatasize\n      sub\n      0x40\n      dup2\n      lt\n      iszero\n      tag_39\n      jumpi\n      0x00\n      dup1\n      revert\n    tag_39:\n      dup2\n      add\n      swap1\n      dup1\n      dup1\n      calldataload\n      0xffffffffffffffffffffffffffffffffffffffff\n      and\n      swap1\n      0x20\n      add\n      swap1\n      swap3\n      swap2\n      swap1\n      dup1\n      calldataload\n      swap1\n      0x20\n      add\n      swap1\n      swap3\n      swap2\n      swap1\n      pop\n      pop\n      pop\n      tag_40\n      jump\t// in\n    tag_38:\n      mload(0x40)\n      dup1\n      dup3\n      iszero\n      iszero\n      dup2\n      mstore\n      0x20\n      add\n      swap2\n      pop\n      pop\n      mload(0x40)\n      dup1\n      swap2\n      sub\n      swap1\n      return\n        /* \"Users/leilei/Downloads/MasterChefV2/contracts/CakeToken.sol\":21264:21381  function balanceOf(address account) public override view returns (uint256) {... */\n    tag_9:\n      tag_41\n      0x04\n      dup1\n      calldatasize\n      sub\n      0x20\n      dup2\n      lt\n      iszero\n      tag_42\n      jumpi\n      0x00\n      dup1\n      revert\n    tag_42:\n      dup2\n      add\n      swap1\n      dup1\n      dup1\n      calldataload\n      0xffffffffffffffffffffffffffffffffffffffff\n      and\n      swap1\n      0x20\n      add\n      swap1\n      swap3\n      swap2\n      swap1\n      pop\n      pop\n      pop\n      tag_43\n      jump\t// in\n    tag_41:\n      mload(0x40)\n      dup1\n      dup3\n      dup2\n      mstore\n      0x20\n      add\n      swap2\n      pop\n      pop\n      mload(0x40)\n      dup1\n      swap2\n      sub\n      swap1\n      return\n        /* \"Users/leilei/Downloads/MasterChefV2/contracts/CakeToken.sol\":2737:2874  function renounceOwnership() public onlyOwner {... */\n    tag_10:\n      tag_44\n      tag_45\n      jump\t// in\n    tag_44:\n      stop\n        /* \"Users/leilei/Downloads/MasterChefV2/contracts/CakeToken.sol\":20504:20596  function getOwner() external override view returns (address) {... */\n    tag_11:\n      tag_46\n      tag_47\n      jump\t// in\n    tag_46:\n      mload(0x40)\n      dup1\n      dup3\n      0xffffffffffffffffffffffffffffffffffffffff\n      and\n      dup2\n      mstore\n      0x20\n      add\n      swap2\n      pop\n      pop\n      mload(0x40)\n      dup1\n      swap2\n      sub\n      swap1\n      return\n        /* \"Users/leilei/Downloads/MasterChefV2/contracts/CakeToken.sol\":2114:2191  function owner() public view returns (address) {... */\n    tag_12:\n      tag_48\n      tag_49\n      jump\t// in\n    tag_48:\n      mload(0x40)\n      dup1\n      dup3\n      0xffffffffffffffffffffffffffffffffffffffff\n      and\n      dup2\n      mstore\n      0x20\n      add\n      swap2\n      pop\n      pop\n      mload(0x40)\n      dup1\n      swap2\n      sub\n      swap1\n      return\n        /* \"Users/leilei/Downloads/MasterChefV2/contracts/CakeToken.sol\":20956:21050  function symbol() public override view returns (string memory) {... */\n    tag_13:\n      tag_50\n      tag_51\n      jump\t// in\n    tag_50:\n      mload(0x40)\n      dup1\n      dup1\n      0x20\n      add\n      dup3\n      dup2\n      sub\n      dup3\n      mstore\n      dup4\n      dup2\n      dup2\n      mload\n      dup2\n      mstore\n      0x20\n      add\n      swap2\n      pop\n      dup1\n      mload\n      swap1\n      0x20\n      add\n      swap1\n      dup1\n      dup4\n      dup4\n      0x00\n    tag_52:\n      dup4\n      dup2\n      lt\n      iszero\n      tag_54\n      jumpi\n      dup1\n      dup3\n      add\n      mload\n      dup2\n      dup5\n      add\n      mstore\n      0x20\n      dup2\n      add\n      swap1\n      pop\n      jump(tag_52)\n    tag_54:\n      pop\n      pop\n      pop\n      pop\n      swap1\n      pop\n      swap1\n      dup2\n      add\n      swap1\n      0x1f\n      and\n      dup1\n      iszero\n      tag_55\n      jumpi\n      dup1\n      dup3\n      sub\n      dup1\n      mload\n      0x01\n      dup4\n      0x20\n      sub\n      0x0100\n      exp\n      sub\n      not\n      and\n      dup2\n      mstore\n      0x20\n      add\n      swap2\n      pop\n    tag_55:\n      pop\n      swap3\n      pop\n      pop\n      pop\n      mload(0x40)\n      dup1\n      swap2\n      sub\n      swap1\n      return\n        /* \"Users/leilei/Downloads/MasterChefV2/contracts/CakeToken.sol\":24681:24808  function mint(uint256 amount) public onlyOwner returns (bool) {... */\n    tag_14:\n      tag_56\n      0x04\n      dup1\n      calldatasize\n      sub\n      0x20\n      dup2\n      lt\n      iszero\n      tag_57\n      jumpi\n      0x00\n      dup1\n      revert\n    tag_57:\n      dup2\n      add\n      swap1\n      dup1\n      dup1\n      calldataload\n      swap1\n      0x20\n      add\n      swap1\n      swap3\n      swap2\n      swap1\n      pop\n      pop\n      pop\n      tag_58\n      jump\t// in\n    tag_56:\n      mload(0x40)\n      dup1\n      dup3\n      iszero\n      iszero\n      dup2\n      mstore\n      0x20\n      add\n      swap2\n      pop\n      pop\n      mload(0x40)\n      dup1\n      swap2\n      sub\n      swap1\n      return\n        /* \"Users/leilei/Downloads/MasterChefV2/contracts/CakeToken.sol\":24169:24473  function decreaseAllowance(address spender, uint256 subtractedValue) public returns (bool) {... */\n    tag_15:\n      tag_59\n      0x04\n      dup1\n      calldatasize\n      sub\n      0x40\n      dup2\n      lt\n      iszero\n      tag_60\n      jumpi\n      0x00\n      dup1\n      revert\n    tag_60:\n      dup2\n      add\n      swap1\n      dup1\n      dup1\n      calldataload\n      0xffffffffffffffffffffffffffffffffffffffff\n      and\n      swap1\n      0x20\n      add\n      swap1\n      swap3\n      swap2\n      swap1\n      dup1\n      calldataload\n      swap1\n      0x20\n      add\n      swap1\n      swap3\n      swap2\n      swap1\n      pop\n      pop\n      pop\n      tag_61\n      jump\t// in\n    tag_59:\n      mload(0x40)\n      dup1\n      dup3\n      iszero\n      iszero\n      dup2\n      mstore\n      0x20\n      add\n      swap2\n      pop\n      pop\n      mload(0x40)\n      dup1\n      swap2\n      sub\n      swap1\n      return\n        /* \"Users/leilei/Downloads/MasterChefV2/contracts/CakeToken.sol\":21583:21747  function transfer(address recipient, uint256 amount) public override returns (bool) {... */\n    tag_16:\n      tag_62\n      0x04\n      dup1\n      calldatasize\n      sub\n      0x40\n      dup2\n      lt\n      iszero\n      tag_63\n      jumpi\n      0x00\n      dup1\n      revert\n    tag_63:\n      dup2\n      add\n      swap1\n      dup1\n      dup1\n      calldataload\n      0xffffffffffffffffffffffffffffffffffffffff\n      and\n      swap1\n      0x20\n      add\n      swap1\n      swap3\n      swap2\n      swap1\n      dup1\n      calldataload\n      swap1\n      0x20\n      add\n      swap1\n      swap3\n      swap2\n      swap1\n      pop\n      pop\n      pop\n      tag_64\n      jump\t// in\n    tag_62:\n      mload(0x40)\n      dup1\n      dup3\n      iszero\n      iszero\n      dup2\n      mstore\n      0x20\n      add\n      swap2\n      pop\n      pop\n      mload(0x40)\n      dup1\n      swap2\n      sub\n      swap1\n      return\n        /* \"Users/leilei/Downloads/MasterChefV2/contracts/CakeToken.sol\":21804:21945  function allowance(address owner, address spender) public override view returns (uint256) {... */\n    tag_17:\n      tag_65\n      0x04\n      dup1\n      calldatasize\n      sub\n      0x40\n      dup2\n      lt\n      iszero\n      tag_66\n      jumpi\n      0x00\n      dup1\n      revert\n    tag_66:\n      dup2\n      add\n      swap1\n      dup1\n      dup1\n      calldataload\n      0xffffffffffffffffffffffffffffffffffffffff\n      and\n      swap1\n      0x20\n      add\n      swap1\n      swap3\n      swap2\n      swap1\n      dup1\n      calldataload\n      0xffffffffffffffffffffffffffffffffffffffff\n      and\n      swap1\n      0x20\n      add\n      swap1\n      swap3\n      swap2\n      swap1\n      pop\n      pop\n      pop\n      tag_67\n      jump\t// in\n    tag_65:\n      mload(0x40)\n      dup1\n      dup3\n      dup2\n      mstore\n      0x20\n      add\n      swap2\n      pop\n      pop\n      mload(0x40)\n      dup1\n      swap2\n      sub\n      swap1\n      return\n        /* \"Users/leilei/Downloads/MasterChefV2/contracts/CakeToken.sol\":3023:3130  function transferOwnership(address newOwner) public onlyOwner {... */\n    tag_18:\n      tag_68\n      0x04\n      dup1\n      calldatasize\n      sub\n      0x20\n      dup2\n      lt\n      iszero\n      tag_69\n      jumpi\n      0x00\n      dup1\n      revert\n    tag_69:\n      dup2\n      add\n      swap1\n      dup1\n      dup1\n      calldataload\n      0xffffffffffffffffffffffffffffffffffffffff\n      and\n      swap1\n      0x20\n      add\n      swap1\n      swap3\n      swap2\n      swap1\n      pop\n      pop\n      pop\n      tag_70\n      jump\t// in\n    tag_68:\n      stop\n        /* \"Users/leilei/Downloads/MasterChefV2/contracts/CakeToken.sol\":20654:20744  function name() public override view returns (string memory) {... */\n    tag_23:\n        /* \"Users/leilei/Downloads/MasterChefV2/contracts/CakeToken.sol\":20700:20713  string memory */\n      0x60\n        /* \"Users/leilei/Downloads/MasterChefV2/contracts/CakeToken.sol\":20732:20737  _name */\n      0x04\n        /* \"Users/leilei/Downloads/MasterChefV2/contracts/CakeToken.sol\":20725:20737  return _name */\n      dup1\n      sload\n      0x01\n      dup2\n      0x01\n      and\n      iszero\n      0x0100\n      mul\n      sub\n      and\n      0x02\n      swap1\n      div\n      dup1\n      0x1f\n      add\n      0x20\n      dup1\n      swap2\n      div\n      mul\n      0x20\n      add\n      mload(0x40)\n      swap1\n      dup2\n      add\n      0x40\n      mstore\n      dup1\n      swap3\n      swap2\n      swap1\n      dup2\n      dup2\n      mstore\n      0x20\n      add\n      dup3\n      dup1\n      sload\n      0x01\n      dup2\n      0x01\n      and\n      iszero\n      0x0100\n      mul\n      sub\n      and\n      0x02\n      swap1\n      div\n      dup1\n      iszero\n      tag_72\n      jumpi\n      dup1\n      0x1f\n      lt\n      tag_73\n      jumpi\n      0x0100\n      dup1\n      dup4\n      sload\n      div\n      mul\n      dup4\n      mstore\n      swap2\n      0x20\n      add\n      swap2\n      jump(tag_72)\n    tag_73:\n      dup3\n      add\n      swap2\n      swap1\n      0x00\n      mstore\n      keccak256(0x00, 0x20)\n      swap1\n    tag_74:\n      dup2\n      sload\n      dup2\n      mstore\n      swap1\n      0x01\n      add\n      swap1\n      0x20\n      add\n      dup1\n      dup4\n      gt\n      tag_74\n      jumpi\n      dup3\n      swap1\n      sub\n      0x1f\n      and\n      dup3\n      add\n      swap2\n    tag_72:\n      pop\n      pop\n      pop\n      pop\n      pop\n      swap1\n      pop\n        /* \"Users/leilei/Downloads/MasterChefV2/contracts/CakeToken.sol\":20654:20744  function name() public override view returns (string memory) {... */\n      swap1\n      jump\t// out\n        /* \"Users/leilei/Downloads/MasterChefV2/contracts/CakeToken.sol\":22082:22240  function approve(address spender, uint256 amount) public override returns (bool) {... */\n    tag_30:\n        /* \"Users/leilei/Downloads/MasterChefV2/contracts/CakeToken.sol\":22157:22161  bool */\n      0x00\n        /* \"Users/leilei/Downloads/MasterChefV2/contracts/CakeToken.sol\":22173:22212  _approve(_msgSender(), spender, amount) */\n      tag_76\n        /* \"Users/leilei/Downloads/MasterChefV2/contracts/CakeToken.sol\":22182:22194  _msgSender() */\n      tag_77\n        /* \"Users/leilei/Downloads/MasterChefV2/contracts/CakeToken.sol\":22182:22192  _msgSender */\n      tag_78\n        /* \"Users/leilei/Downloads/MasterChefV2/contracts/CakeToken.sol\":22182:22194  _msgSender() */\n      jump\t// in\n    tag_77:\n        /* \"Users/leilei/Downloads/MasterChefV2/contracts/CakeToken.sol\":22196:22203  spender */\n      dup5\n        /* \"Users/leilei/Downloads/MasterChefV2/contracts/CakeToken.sol\":22205:22211  amount */\n      dup5\n        /* \"Users/leilei/Downloads/MasterChefV2/contracts/CakeToken.sol\":22173:22181  _approve */\n      tag_79\n        /* \"Users/leilei/Downloads/MasterChefV2/contracts/CakeToken.sol\":22173:22212  _approve(_msgSender(), spender, amount) */\n      jump\t// in\n    tag_76:\n        /* \"Users/leilei/Downloads/MasterChefV2/contracts/CakeToken.sol\":22229:22233  true */\n      0x01\n        /* \"Users/leilei/Downloads/MasterChefV2/contracts/CakeToken.sol\":22222:22233  return true */\n      swap1\n      pop\n        /* \"Users/leilei/Downloads/MasterChefV2/contracts/CakeToken.sol\":22082:22240  function approve(address spender, uint256 amount) public override returns (bool) {... */\n      swap3\n      swap2\n      pop\n      pop\n      jump\t// out\n        /* \"Users/leilei/Downloads/MasterChefV2/contracts/CakeToken.sol\":21109:21207  function totalSupply() public override view returns (uint256) {... */\n    tag_32:\n        /* \"Users/leilei/Downloads/MasterChefV2/contracts/CakeToken.sol\":21162:21169  uint256 */\n      0x00\n        /* \"Users/leilei/Downloads/MasterChefV2/contracts/CakeToken.sol\":21188:21200  _totalSupply */\n      sload(0x03)\n        /* \"Users/leilei/Downloads/MasterChefV2/contracts/CakeToken.sol\":21181:21200  return _totalSupply */\n      swap1\n      pop\n        /* \"Users/leilei/Downloads/MasterChefV2/contracts/CakeToken.sol\":21109:21207  function totalSupply() public override view returns (uint256) {... */\n      swap1\n      jump\t// out\n        /* \"Users/leilei/Downloads/MasterChefV2/contracts/CakeToken.sol\":22697:23082  function transferFrom(... */\n    tag_35:\n        /* \"Users/leilei/Downloads/MasterChefV2/contracts/CakeToken.sol\":22825:22829  bool */\n      0x00\n        /* \"Users/leilei/Downloads/MasterChefV2/contracts/CakeToken.sol\":22841:22877  _transfer(sender, recipient, amount) */\n      tag_82\n        /* \"Users/leilei/Downloads/MasterChefV2/contracts/CakeToken.sol\":22851:22857  sender */\n      dup5\n        /* \"Users/leilei/Downloads/MasterChefV2/contracts/CakeToken.sol\":22859:22868  recipient */\n      dup5\n        /* \"Users/leilei/Downloads/MasterChefV2/contracts/CakeToken.sol\":22870:22876  amount */\n      dup5\n        /* \"Users/leilei/Downloads/MasterChefV2/contracts/CakeToken.sol\":22841:22850  _transfer */\n      tag_83\n        /* \"Users/leilei/Downloads/MasterChefV2/contracts/CakeToken.sol\":22841:22877  _transfer(sender, recipient, amount) */\n      jump\t// in\n    tag_82:\n        /* \"Users/leilei/Downloads/MasterChefV2/contracts/CakeToken.sol\":22887:23054  _approve(... */\n      tag_84\n        /* \"Users/leilei/Downloads/MasterChefV2/contracts/CakeToken.sol\":22909:22915  sender */\n      dup5\n        /* \"Users/leilei/Downloads/MasterChefV2/contracts/CakeToken.sol\":22929:22941  _msgSender() */\n      tag_85\n        /* \"Users/leilei/Downloads/MasterChefV2/contracts/CakeToken.sol\":22929:22939  _msgSender */\n      tag_78\n        /* \"Users/leilei/Downloads/MasterChefV2/contracts/CakeToken.sol\":22929:22941  _msgSender() */\n      jump\t// in\n    tag_85:\n        /* \"Users/leilei/Downloads/MasterChefV2/contracts/CakeToken.sol\":22955:23044  _allowances[sender][_msgSender()].sub(amount, 'BEP20: transfer amount exceeds allowance') */\n      tag_86\n        /* \"Users/leilei/Downloads/MasterChefV2/contracts/CakeToken.sol\":22993:22999  amount */\n      dup6\n        /* \"Users/leilei/Downloads/MasterChefV2/contracts/CakeToken.sol\":22955:23044  _allowances[sender][_msgSender()].sub(amount, 'BEP20: transfer amount exceeds allowance') */\n      mload(0x40)\n      dup1\n      0x60\n      add\n      0x40\n      mstore\n      dup1\n      0x28\n      dup2\n      mstore\n      0x20\n      add\n      data_4f3506f4ba71c79c3cbd442a3afeb30e9b27af2d84e116a4385b34e267d2287e\n      0x28\n      swap2\n      codecopy\n        /* \"Users/leilei/Downloads/MasterChefV2/contracts/CakeToken.sol\":22955:22966  _allowances */\n      0x02\n        /* \"Users/leilei/Downloads/MasterChefV2/contracts/CakeToken.sol\":22955:22974  _allowances[sender] */\n      0x00\n        /* \"Users/leilei/Downloads/MasterChefV2/contracts/CakeToken.sol\":22967:22973  sender */\n      dup12\n        /* \"Users/leilei/Downloads/MasterChefV2/contracts/CakeToken.sol\":22955:22974  _allowances[sender] */\n      0xffffffffffffffffffffffffffffffffffffffff\n      and\n      0xffffffffffffffffffffffffffffffffffffffff\n      and\n      dup2\n      mstore\n      0x20\n      add\n      swap1\n      dup2\n      mstore\n      0x20\n      add\n      0x00\n      keccak256\n        /* \"Users/leilei/Downloads/MasterChefV2/contracts/CakeToken.sol\":22955:22988  _allowances[sender][_msgSender()] */\n      0x00\n        /* \"Users/leilei/Downloads/MasterChefV2/contracts/CakeToken.sol\":22975:22987  _msgSender() */\n      tag_87\n        /* \"Users/leilei/Downloads/MasterChefV2/contracts/CakeToken.sol\":22975:22985  _msgSender */\n      tag_78\n        /* \"Users/leilei/Downloads/MasterChefV2/contracts/CakeToken.sol\":22975:22987  _msgSender() */\n      jump\t// in\n    tag_87:\n        /* \"Users/leilei/Downloads/MasterChefV2/contracts/CakeToken.sol\":22955:22988  _allowances[sender][_msgSender()] */\n      0xffffffffffffffffffffffffffffffffffffffff\n      and\n      0xffffffffffffffffffffffffffffffffffffffff\n      and\n      dup2\n      mstore\n      0x20\n      add\n      swap1\n      dup2\n      mstore\n      0x20\n      add\n      0x00\n      keccak256\n      sload\n        /* \"Users/leilei/Downloads/MasterChefV2/contracts/CakeToken.sol\":22955:22992  _allowances[sender][_msgSender()].sub */\n      tag_88\n      swap1\n        /* \"Users/leilei/Downloads/MasterChefV2/contracts/CakeToken.sol\":22955:23044  _allowances[sender][_msgSender()].sub(amount, 'BEP20: transfer amount exceeds allowance') */\n      swap3\n      swap2\n      swap1\n      0xffffffff\n      and\n      jump\t// in\n    tag_86:\n        /* \"Users/leilei/Downloads/MasterChefV2/contracts/CakeToken.sol\":22887:22895  _approve */\n      tag_79\n        /* \"Users/leilei/Downloads/MasterChefV2/contracts/CakeToken.sol\":22887:23054  _approve(... */\n      jump\t// in\n    tag_84:\n        /* \"Users/leilei/Downloads/MasterChefV2/contracts/CakeToken.sol\":23071:23075  true */\n      0x01\n        /* \"Users/leilei/Downloads/MasterChefV2/contracts/CakeToken.sol\":23064:23075  return true */\n      swap1\n      pop\n        /* \"Users/leilei/Downloads/MasterChefV2/contracts/CakeToken.sol\":22697:23082  function transferFrom(... */\n      swap4\n      swap3\n      pop\n      pop\n      pop\n      jump\t// out\n        /* \"Users/leilei/Downloads/MasterChefV2/contracts/CakeToken.sol\":20806:20896  function decimals() public override view returns (uint8) {... */\n    tag_37:\n        /* \"Users/leilei/Downloads/MasterChefV2/contracts/CakeToken.sol\":20856:20861  uint8 */\n      0x00\n        /* \"Users/leilei/Downloads/MasterChefV2/contracts/CakeToken.sol\":20880:20889  _decimals */\n      0x06\n      0x00\n      swap1\n      sload\n      swap1\n      0x0100\n      exp\n      swap1\n      div\n      0xff\n      and\n        /* \"Users/leilei/Downloads/MasterChefV2/contracts/CakeToken.sol\":20873:20889  return _decimals */\n      swap1\n      pop\n        /* \"Users/leilei/Downloads/MasterChefV2/contracts/CakeToken.sol\":20806:20896  function decimals() public override view returns (uint8) {... */\n      swap1\n      jump\t// out\n        /* \"Users/leilei/Downloads/MasterChefV2/contracts/CakeToken.sol\":23476:23683  function increaseAllowance(address spender, uint256 addedValue) public returns (bool) {... */\n    tag_40:\n        /* \"Users/leilei/Downloads/MasterChefV2/contracts/CakeToken.sol\":23556:23560  bool */\n      0x00\n        /* \"Users/leilei/Downloads/MasterChefV2/contracts/CakeToken.sol\":23572:23655  _approve(_msgSender(), spender, _allowances[_msgSender()][spender].add(addedValue)) */\n      tag_91\n        /* \"Users/leilei/Downloads/MasterChefV2/contracts/CakeToken.sol\":23581:23593  _msgSender() */\n      tag_92\n        /* \"Users/leilei/Downloads/MasterChefV2/contracts/CakeToken.sol\":23581:23591  _msgSender */\n      tag_78\n        /* \"Users/leilei/Downloads/MasterChefV2/contracts/CakeToken.sol\":23581:23593  _msgSender() */\n      jump\t// in\n    tag_92:\n        /* \"Users/leilei/Downloads/MasterChefV2/contracts/CakeToken.sol\":23595:23602  spender */\n      dup5\n        /* \"Users/leilei/Downloads/MasterChefV2/contracts/CakeToken.sol\":23604:23654  _allowances[_msgSender()][spender].add(addedValue) */\n      tag_93\n        /* \"Users/leilei/Downloads/MasterChefV2/contracts/CakeToken.sol\":23643:23653  addedValue */\n      dup6\n        /* \"Users/leilei/Downloads/MasterChefV2/contracts/CakeToken.sol\":23604:23615  _allowances */\n      0x02\n        /* \"Users/leilei/Downloads/MasterChefV2/contracts/CakeToken.sol\":23604:23629  _allowances[_msgSender()] */\n      0x00\n        /* \"Users/leilei/Downloads/MasterChefV2/contracts/CakeToken.sol\":23616:23628  _msgSender() */\n      tag_94\n        /* \"Users/leilei/Downloads/MasterChefV2/contracts/CakeToken.sol\":23616:23626  _msgSender */\n      tag_78\n        /* \"Users/leilei/Downloads/MasterChefV2/contracts/CakeToken.sol\":23616:23628  _msgSender() */\n      jump\t// in\n    tag_94:\n        /* \"Users/leilei/Downloads/MasterChefV2/contracts/CakeToken.sol\":23604:23629  _allowances[_msgSender()] */\n      0xffffffffffffffffffffffffffffffffffffffff\n      and\n      0xffffffffffffffffffffffffffffffffffffffff\n      and\n      dup2\n      mstore\n      0x20\n      add\n      swap1\n      dup2\n      mstore\n      0x20\n      add\n      0x00\n      keccak256\n        /* \"Users/leilei/Downloads/MasterChefV2/contracts/CakeToken.sol\":23604:23638  _allowances[_msgSender()][spender] */\n      0x00\n        /* \"Users/leilei/Downloads/MasterChefV2/contracts/CakeToken.sol\":23630:23637  spender */\n      dup10\n        /* \"Users/leilei/Downloads/MasterChefV2/contracts/CakeToken.sol\":23604:23638  _allowances[_msgSender()][spender] */\n      0xffffffffffffffffffffffffffffffffffffffff\n      and\n      0xffffffffffffffffffffffffffffffffffffffff\n      and\n      dup2\n      mstore\n      0x20\n      add\n      swap1\n      dup2\n      mstore\n      0x20\n      add\n      0x00\n      keccak256\n      sload\n        /* \"Users/leilei/Downloads/MasterChefV2/contracts/CakeToken.sol\":23604:23642  _allowances[_msgSender()][spender].add */\n      tag_95\n      swap1\n        /* \"Users/leilei/Downloads/MasterChefV2/contracts/CakeToken.sol\":23604:23654  _allowances[_msgSender()][spender].add(addedValue) */\n      swap2\n      swap1\n      0xffffffff\n      and\n      jump\t// in\n    tag_93:\n        /* \"Users/leilei/Downloads/MasterChefV2/contracts/CakeToken.sol\":23572:23580  _approve */\n      tag_79\n        /* \"Users/leilei/Downloads/MasterChefV2/contracts/CakeToken.sol\":23572:23655  _approve(_msgSender(), spender, _allowances[_msgSender()][spender].add(addedValue)) */\n      jump\t// in\n    tag_91:\n        /* \"Users/leilei/Downloads/MasterChefV2/contracts/CakeToken.sol\":23672:23676  true */\n      0x01\n        /* \"Users/leilei/Downloads/MasterChefV2/contracts/CakeToken.sol\":23665:23676  return true */\n      swap1\n      pop\n        /* \"Users/leilei/Downloads/MasterChefV2/contracts/CakeToken.sol\":23476:23683  function increaseAllowance(address spender, uint256 addedValue) public returns (bool) {... */\n      swap3\n      swap2\n      pop\n      pop\n      jump\t// out\n        /* \"Users/leilei/Downloads/MasterChefV2/contracts/CakeToken.sol\":21264:21381  function balanceOf(address account) public override view returns (uint256) {... */\n    tag_43:\n        /* \"Users/leilei/Downloads/MasterChefV2/contracts/CakeToken.sol\":21330:21337  uint256 */\n      0x00\n        /* \"Users/leilei/Downloads/MasterChefV2/contracts/CakeToken.sol\":21356:21365  _balances */\n      0x01\n        /* \"Users/leilei/Downloads/MasterChefV2/contracts/CakeToken.sol\":21356:21374  _balances[account] */\n      0x00\n        /* \"Users/leilei/Downloads/MasterChefV2/contracts/CakeToken.sol\":21366:21373  account */\n      dup4\n        /* \"Users/leilei/Downloads/MasterChefV2/contracts/CakeToken.sol\":21356:21374  _balances[account] */\n      0xffffffffffffffffffffffffffffffffffffffff\n      and\n      0xffffffffffffffffffffffffffffffffffffffff\n      and\n      dup2\n      mstore\n      0x20\n      add\n      swap1\n      dup2\n      mstore\n      0x20\n      add\n      0x00\n      keccak256\n      sload\n        /* \"Users/leilei/Downloads/MasterChefV2/contracts/CakeToken.sol\":21349:21374  return _balances[account] */\n      swap1\n      pop\n        /* \"Users/leilei/Downloads/MasterChefV2/contracts/CakeToken.sol\":21264:21381  function balanceOf(address account) public override view returns (uint256) {... */\n      swap2\n      swap1\n      pop\n      jump\t// out\n        /* \"Users/leilei/Downloads/MasterChefV2/contracts/CakeToken.sol\":2737:2874  function renounceOwnership() public onlyOwner {... */\n    tag_45:\n        /* \"Users/leilei/Downloads/MasterChefV2/contracts/CakeToken.sol\":2328:2340  _msgSender() */\n      tag_98\n        /* \"Users/leilei/Downloads/MasterChefV2/contracts/CakeToken.sol\":2328:2338  _msgSender */\n      tag_78\n        /* \"Users/leilei/Downloads/MasterChefV2/contracts/CakeToken.sol\":2328:2340  _msgSender() */\n      jump\t// in\n    tag_98:\n        /* \"Users/leilei/Downloads/MasterChefV2/contracts/CakeToken.sol\":2318:2340  _owner == _msgSender() */\n      0xffffffffffffffffffffffffffffffffffffffff\n      and\n        /* \"Users/leilei/Downloads/MasterChefV2/contracts/CakeToken.sol\":2318:2324  _owner */\n      0x00\n      dup1\n      sload\n      swap1\n      0x0100\n      exp\n      swap1\n      div\n      0xffffffffffffffffffffffffffffffffffffffff\n      and\n        /* \"Users/leilei/Downloads/MasterChefV2/contracts/CakeToken.sol\":2318:2340  _owner == _msgSender() */\n      0xffffffffffffffffffffffffffffffffffffffff\n      and\n      eq\n        /* \"Users/leilei/Downloads/MasterChefV2/contracts/CakeToken.sol\":2310:2377  require(_owner == _msgSender(), 'Ownable: caller is not the owner') */\n      tag_99\n      jumpi\n      mload(0x40)\n      0x08c379a000000000000000000000000000000000000000000000000000000000\n      dup2\n      mstore\n      0x04\n      add\n      dup1\n      dup1\n      0x20\n      add\n      dup3\n      dup2\n      sub\n      dup3\n      mstore\n      0x20\n      dup2\n      mstore\n      0x20\n      add\n      dup1\n      0x4f776e61626c653a2063616c6c6572206973206e6f7420746865206f776e6572\n      dup2\n      mstore\n      pop\n      0x20\n      add\n      swap2\n      pop\n      pop\n      mload(0x40)\n      dup1\n      swap2\n      sub\n      swap1\n      revert\n    tag_99:\n        /* \"Users/leilei/Downloads/MasterChefV2/contracts/CakeToken.sol\":2835:2836  0 */\n      0x00\n        /* \"Users/leilei/Downloads/MasterChefV2/contracts/CakeToken.sol\":2798:2838  OwnershipTransferred(_owner, address(0)) */\n      0xffffffffffffffffffffffffffffffffffffffff\n      and\n        /* \"Users/leilei/Downloads/MasterChefV2/contracts/CakeToken.sol\":2819:2825  _owner */\n      0x00\n      dup1\n      sload\n      swap1\n      0x0100\n      exp\n      swap1\n      div\n      0xffffffffffffffffffffffffffffffffffffffff\n      and\n        /* \"Users/leilei/Downloads/MasterChefV2/contracts/CakeToken.sol\":2798:2838  OwnershipTransferred(_owner, address(0)) */\n      0xffffffffffffffffffffffffffffffffffffffff\n      and\n      0x8be0079c531659141344cd1fd0a4f28419497f9722a3daafe3b4186f6b6457e0\n      mload(0x40)\n      mload(0x40)\n      dup1\n      swap2\n      sub\n      swap1\n      log3\n        /* \"Users/leilei/Downloads/MasterChefV2/contracts/CakeToken.sol\":2865:2866  0 */\n      0x00\n        /* \"Users/leilei/Downloads/MasterChefV2/contracts/CakeToken.sol\":2848:2854  _owner */\n      dup1\n      0x00\n        /* \"Users/leilei/Downloads/MasterChefV2/contracts/CakeToken.sol\":2848:2867  _owner = address(0) */\n      0x0100\n      exp\n      dup2\n      sload\n      dup2\n      0xffffffffffffffffffffffffffffffffffffffff\n      mul\n      not\n      and\n      swap1\n      dup4\n      0xffffffffffffffffffffffffffffffffffffffff\n      and\n      mul\n      or\n      swap1\n      sstore\n      pop\n        /* \"Users/leilei/Downloads/MasterChefV2/contracts/CakeToken.sol\":2737:2874  function renounceOwnership() public onlyOwner {... */\n      jump\t// out\n        /* \"Users/leilei/Downloads/MasterChefV2/contracts/CakeToken.sol\":20504:20596  function getOwner() external override view returns (address) {... */\n    tag_47:\n        /* \"Users/leilei/Downloads/MasterChefV2/contracts/CakeToken.sol\":20556:20563  address */\n      0x00\n        /* \"Users/leilei/Downloads/MasterChefV2/contracts/CakeToken.sol\":20582:20589  owner() */\n      tag_102\n        /* \"Users/leilei/Downloads/MasterChefV2/contracts/CakeToken.sol\":20582:20587  owner */\n      tag_49\n        /* \"Users/leilei/Downloads/MasterChefV2/contracts/CakeToken.sol\":20582:20589  owner() */\n      jump\t// in\n    tag_102:\n        /* \"Users/leilei/Downloads/MasterChefV2/contracts/CakeToken.sol\":20575:20589  return owner() */\n      swap1\n      pop\n        /* \"Users/leilei/Downloads/MasterChefV2/contracts/CakeToken.sol\":20504:20596  function getOwner() external override view returns (address) {... */\n      swap1\n      jump\t// out\n        /* \"Users/leilei/Downloads/MasterChefV2/contracts/CakeToken.sol\":2114:2191  function owner() public view returns (address) {... */\n    tag_49:\n        /* \"Users/leilei/Downloads/MasterChefV2/contracts/CakeToken.sol\":2152:2159  address */\n      0x00\n        /* \"Users/leilei/Downloads/MasterChefV2/contracts/CakeToken.sol\":2178:2184  _owner */\n      dup1\n      0x00\n      swap1\n      sload\n      swap1\n      0x0100\n      exp\n      swap1\n      div\n      0xffffffffffffffffffffffffffffffffffffffff\n      and\n        /* \"Users/leilei/Downloads/MasterChefV2/contracts/CakeToken.sol\":2171:2184  return _owner */\n      swap1\n      pop\n        /* \"Users/leilei/Downloads/MasterChefV2/contracts/CakeToken.sol\":2114:2191  function owner() public view returns (address) {... */\n      swap1\n      jump\t// out\n        /* \"Users/leilei/Downloads/MasterChefV2/contracts/CakeToken.sol\":20956:21050  function symbol() public override view returns (string memory) {... */\n    tag_51:\n        /* \"Users/leilei/Downloads/MasterChefV2/contracts/CakeToken.sol\":21004:21017  string memory */\n      0x60\n        /* \"Users/leilei/Downloads/MasterChefV2/contracts/CakeToken.sol\":21036:21043  _symbol */\n      0x05\n        /* \"Users/leilei/Downloads/MasterChefV2/contracts/CakeToken.sol\":21029:21043  return _symbol */\n      dup1\n      sload\n      0x01\n      dup2\n      0x01\n      and\n      iszero\n      0x0100\n      mul\n      sub\n      and\n      0x02\n      swap1\n      div\n      dup1\n      0x1f\n      add\n      0x20\n      dup1\n      swap2\n      div\n      mul\n      0x20\n      add\n      mload(0x40)\n      swap1\n      dup2\n      add\n      0x40\n      mstore\n      dup1\n      swap3\n      swap2\n      swap1\n      dup2\n      dup2\n      mstore\n      0x20\n      add\n      dup3\n      dup1\n      sload\n      0x01\n      dup2\n      0x01\n      and\n      iszero\n      0x0100\n      mul\n      sub\n      and\n      0x02\n      swap1\n      div\n      dup1\n      iszero\n      tag_105\n      jumpi\n      dup1\n      0x1f\n      lt\n      tag_106\n      jumpi\n      0x0100\n      dup1\n      dup4\n      sload\n      div\n      mul\n      dup4\n      mstore\n      swap2\n      0x20\n      add\n      swap2\n      jump(tag_105)\n    tag_106:\n      dup3\n      add\n      swap2\n      swap1\n      0x00\n      mstore\n      keccak256(0x00, 0x20)\n      swap1\n    tag_107:\n      dup2\n      sload\n      dup2\n      mstore\n      swap1\n      0x01\n      add\n      swap1\n      0x20\n      add\n      dup1\n      dup4\n      gt\n      tag_107\n      jumpi\n      dup3\n      swap1\n      sub\n      0x1f\n      and\n      dup3\n      add\n      swap2\n    tag_105:\n      pop\n      pop\n      pop\n      pop\n      pop\n      swap1\n      pop\n        /* \"Users/leilei/Downloads/MasterChefV2/contracts/CakeToken.sol\":20956:21050  function symbol() public override view returns (string memory) {... */\n      swap1\n      jump\t// out\n        /* \"Users/leilei/Downloads/MasterChefV2/contracts/CakeToken.sol\":24681:24808  function mint(uint256 amount) public onlyOwner returns (bool) {... */\n    tag_58:\n        /* \"Users/leilei/Downloads/MasterChefV2/contracts/CakeToken.sol\":24737:24741  bool */\n      0x00\n        /* \"Users/leilei/Downloads/MasterChefV2/contracts/CakeToken.sol\":2328:2340  _msgSender() */\n      tag_109\n        /* \"Users/leilei/Downloads/MasterChefV2/contracts/CakeToken.sol\":2328:2338  _msgSender */\n      tag_78\n        /* \"Users/leilei/Downloads/MasterChefV2/contracts/CakeToken.sol\":2328:2340  _msgSender() */\n      jump\t// in\n    tag_109:\n        /* \"Users/leilei/Downloads/MasterChefV2/contracts/CakeToken.sol\":2318:2340  _owner == _msgSender() */\n      0xffffffffffffffffffffffffffffffffffffffff\n      and\n        /* \"Users/leilei/Downloads/MasterChefV2/contracts/CakeToken.sol\":2318:2324  _owner */\n      0x00\n      dup1\n      sload\n      swap1\n      0x0100\n      exp\n      swap1\n      div\n      0xffffffffffffffffffffffffffffffffffffffff\n      and\n        /* \"Users/leilei/Downloads/MasterChefV2/contracts/CakeToken.sol\":2318:2340  _owner == _msgSender() */\n      0xffffffffffffffffffffffffffffffffffffffff\n      and\n      eq\n        /* \"Users/leilei/Downloads/MasterChefV2/contracts/CakeToken.sol\":2310:2377  require(_owner == _msgSender(), 'Ownable: caller is not the owner') */\n      tag_110\n      jumpi\n      mload(0x40)\n      0x08c379a000000000000000000000000000000000000000000000000000000000\n      dup2\n      mstore\n      0x04\n      add\n      dup1\n      dup1\n      0x20\n      add\n      dup3\n      dup2\n      sub\n      dup3\n      mstore\n      0x20\n      dup2\n      mstore\n      0x20\n      add\n      dup1\n      0x4f776e61626c653a2063616c6c6572206973206e6f7420746865206f776e6572\n      dup2\n      mstore\n      pop\n      0x20\n      add\n      swap2\n      pop\n      pop\n      mload(0x40)\n      dup1\n      swap2\n      sub\n      swap1\n      revert\n    tag_110:\n        /* \"Users/leilei/Downloads/MasterChefV2/contracts/CakeToken.sol\":24753:24780  _mint(_msgSender(), amount) */\n      tag_112\n        /* \"Users/leilei/Downloads/MasterChefV2/contracts/CakeToken.sol\":24759:24771  _msgSender() */\n      tag_113\n        /* \"Users/leilei/Downloads/MasterChefV2/contracts/CakeToken.sol\":24759:24769  _msgSender */\n      tag_78\n        /* \"Users/leilei/Downloads/MasterChefV2/contracts/CakeToken.sol\":24759:24771  _msgSender() */\n      jump\t// in\n    tag_113:\n        /* \"Users/leilei/Downloads/MasterChefV2/contracts/CakeToken.sol\":24773:24779  amount */\n      dup4\n        /* \"Users/leilei/Downloads/MasterChefV2/contracts/CakeToken.sol\":24753:24758  _mint */\n      tag_114\n        /* \"Users/leilei/Downloads/MasterChefV2/contracts/CakeToken.sol\":24753:24780  _mint(_msgSender(), amount) */\n      jump\t// in\n    tag_112:\n        /* \"Users/leilei/Downloads/MasterChefV2/contracts/CakeToken.sol\":24797:24801  true */\n      0x01\n        /* \"Users/leilei/Downloads/MasterChefV2/contracts/CakeToken.sol\":24790:24801  return true */\n      swap1\n      pop\n        /* \"Users/leilei/Downloads/MasterChefV2/contracts/CakeToken.sol\":24681:24808  function mint(uint256 amount) public onlyOwner returns (bool) {... */\n      swap2\n      swap1\n      pop\n      jump\t// out\n        /* \"Users/leilei/Downloads/MasterChefV2/contracts/CakeToken.sol\":24169:24473  function decreaseAllowance(address spender, uint256 subtractedValue) public returns (bool) {... */\n    tag_61:\n        /* \"Users/leilei/Downloads/MasterChefV2/contracts/CakeToken.sol\":24254:24258  bool */\n      0x00\n        /* \"Users/leilei/Downloads/MasterChefV2/contracts/CakeToken.sol\":24270:24445  _approve(... */\n      tag_116\n        /* \"Users/leilei/Downloads/MasterChefV2/contracts/CakeToken.sol\":24292:24304  _msgSender() */\n      tag_117\n        /* \"Users/leilei/Downloads/MasterChefV2/contracts/CakeToken.sol\":24292:24302  _msgSender */\n      tag_78\n        /* \"Users/leilei/Downloads/MasterChefV2/contracts/CakeToken.sol\":24292:24304  _msgSender() */\n      jump\t// in\n    tag_117:\n        /* \"Users/leilei/Downloads/MasterChefV2/contracts/CakeToken.sol\":24318:24325  spender */\n      dup5\n        /* \"Users/leilei/Downloads/MasterChefV2/contracts/CakeToken.sol\":24339:24435  _allowances[_msgSender()][spender].sub(subtractedValue, 'BEP20: decreased allowance below zero') */\n      tag_118\n        /* \"Users/leilei/Downloads/MasterChefV2/contracts/CakeToken.sol\":24378:24393  subtractedValue */\n      dup6\n        /* \"Users/leilei/Downloads/MasterChefV2/contracts/CakeToken.sol\":24339:24435  _allowances[_msgSender()][spender].sub(subtractedValue, 'BEP20: decreased allowance below zero') */\n      mload(0x40)\n      dup1\n      0x60\n      add\n      0x40\n      mstore\n      dup1\n      0x25\n      dup2\n      mstore\n      0x20\n      add\n      data_b7060b3538dcd3ddc8a941c91636a8115a1aa46914747fd9809d543bbb46cd22\n      0x25\n      swap2\n      codecopy\n        /* \"Users/leilei/Downloads/MasterChefV2/contracts/CakeToken.sol\":24339:24350  _allowances */\n      0x02\n        /* \"Users/leilei/Downloads/MasterChefV2/contracts/CakeToken.sol\":24339:24364  _allowances[_msgSender()] */\n      0x00\n        /* \"Users/leilei/Downloads/MasterChefV2/contracts/CakeToken.sol\":24351:24363  _msgSender() */\n      tag_119\n        /* \"Users/leilei/Downloads/MasterChefV2/contracts/CakeToken.sol\":24351:24361  _msgSender */\n      tag_78\n        /* \"Users/leilei/Downloads/MasterChefV2/contracts/CakeToken.sol\":24351:24363  _msgSender() */\n      jump\t// in\n    tag_119:\n        /* \"Users/leilei/Downloads/MasterChefV2/contracts/CakeToken.sol\":24339:24364  _allowances[_msgSender()] */\n      0xffffffffffffffffffffffffffffffffffffffff\n      and\n      0xffffffffffffffffffffffffffffffffffffffff\n      and\n      dup2\n      mstore\n      0x20\n      add\n      swap1\n      dup2\n      mstore\n      0x20\n      add\n      0x00\n      keccak256\n        /* \"Users/leilei/Downloads/MasterChefV2/contracts/CakeToken.sol\":24339:24373  _allowances[_msgSender()][spender] */\n      0x00\n        /* \"Users/leilei/Downloads/MasterChefV2/contracts/CakeToken.sol\":24365:24372  spender */\n      dup11\n        /* \"Users/leilei/Downloads/MasterChefV2/contracts/CakeToken.sol\":24339:24373  _allowances[_msgSender()][spender] */\n      0xffffffffffffffffffffffffffffffffffffffff\n      and\n      0xffffffffffffffffffffffffffffffffffffffff\n      and\n      dup2\n      mstore\n      0x20\n      add\n      swap1\n      dup2\n      mstore\n      0x20\n      add\n      0x00\n      keccak256\n      sload\n        /* \"Users/leilei/Downloads/MasterChefV2/contracts/CakeToken.sol\":24339:24377  _allowances[_msgSender()][spender].sub */\n      tag_88\n      swap1\n        /* \"Users/leilei/Downloads/MasterChefV2/contracts/CakeToken.sol\":24339:24435  _allowances[_msgSender()][spender].sub(subtractedValue, 'BEP20: decreased allowance below zero') */\n      swap3\n      swap2\n      swap1\n      0xffffffff\n      and\n      jump\t// in\n    tag_118:\n        /* \"Users/leilei/Downloads/MasterChefV2/contracts/CakeToken.sol\":24270:24278  _approve */\n      tag_79\n        /* \"Users/leilei/Downloads/MasterChefV2/contracts/CakeToken.sol\":24270:24445  _approve(... */\n      jump\t// in\n    tag_116:\n        /* \"Users/leilei/Downloads/MasterChefV2/contracts/CakeToken.sol\":24462:24466  true */\n      0x01\n        /* \"Users/leilei/Downloads/MasterChefV2/contracts/CakeToken.sol\":24455:24466  return true */\n      swap1\n      pop\n        /* \"Users/leilei/Downloads/MasterChefV2/contracts/CakeToken.sol\":24169:24473  function decreaseAllowance(address spender, uint256 subtractedValue) public returns (bool) {... */\n      swap3\n      swap2\n      pop\n      pop\n      jump\t// out\n        /* \"Users/leilei/Downloads/MasterChefV2/contracts/CakeToken.sol\":21583:21747  function transfer(address recipient, uint256 amount) public override returns (bool) {... */\n    tag_64:\n        /* \"Users/leilei/Downloads/MasterChefV2/contracts/CakeToken.sol\":21661:21665  bool */\n      0x00\n        /* \"Users/leilei/Downloads/MasterChefV2/contracts/CakeToken.sol\":21677:21719  _transfer(_msgSender(), recipient, amount) */\n      tag_121\n        /* \"Users/leilei/Downloads/MasterChefV2/contracts/CakeToken.sol\":21687:21699  _msgSender() */\n      tag_122\n        /* \"Users/leilei/Downloads/MasterChefV2/contracts/CakeToken.sol\":21687:21697  _msgSender */\n      tag_78\n        /* \"Users/leilei/Downloads/MasterChefV2/contracts/CakeToken.sol\":21687:21699  _msgSender() */\n      jump\t// in\n    tag_122:\n        /* \"Users/leilei/Downloads/MasterChefV2/contracts/CakeToken.sol\":21701:21710  recipient */\n      dup5\n        /* \"Users/leilei/Downloads/MasterChefV2/contracts/CakeToken.sol\":21712:21718  amount */\n      dup5\n        /* \"Users/leilei/Downloads/MasterChefV2/contracts/CakeToken.sol\":21677:21686  _transfer */\n      tag_83\n        /* \"Users/leilei/Downloads/MasterChefV2/contracts/CakeToken.sol\":21677:21719  _transfer(_msgSender(), recipient, amount) */\n      jump\t// in\n    tag_121:\n        /* \"Users/leilei/Downloads/MasterChefV2/contracts/CakeToken.sol\":21736:21740  true */\n      0x01\n        /* \"Users/leilei/Downloads/MasterChefV2/contracts/CakeToken.sol\":21729:21740  return true */\n      swap1\n      pop\n        /* \"Users/leilei/Downloads/MasterChefV2/contracts/CakeToken.sol\":21583:21747  function transfer(address recipient, uint256 amount) public override returns (bool) {... */\n      swap3\n      swap2\n      pop\n      pop\n      jump\t// out\n        /* \"Users/leilei/Downloads/MasterChefV2/contracts/CakeToken.sol\":21804:21945  function allowance(address owner, address spender) public override view returns (uint256) {... */\n    tag_67:\n        /* \"Users/leilei/Downloads/MasterChefV2/contracts/CakeToken.sol\":21885:21892  uint256 */\n      0x00\n        /* \"Users/leilei/Downloads/MasterChefV2/contracts/CakeToken.sol\":21911:21922  _allowances */\n      0x02\n        /* \"Users/leilei/Downloads/MasterChefV2/contracts/CakeToken.sol\":21911:21929  _allowances[owner] */\n      0x00\n        /* \"Users/leilei/Downloads/MasterChefV2/contracts/CakeToken.sol\":21923:21928  owner */\n      dup5\n        /* \"Users/leilei/Downloads/MasterChefV2/contracts/CakeToken.sol\":21911:21929  _allowances[owner] */\n      0xffffffffffffffffffffffffffffffffffffffff\n      and\n      0xffffffffffffffffffffffffffffffffffffffff\n      and\n      dup2\n      mstore\n      0x20\n      add\n      swap1\n      dup2\n      mstore\n      0x20\n      add\n      0x00\n      keccak256\n        /* \"Users/leilei/Downloads/MasterChefV2/contracts/CakeToken.sol\":21911:21938  _allowances[owner][spender] */\n      0x00\n        /* \"Users/leilei/Downloads/MasterChefV2/contracts/CakeToken.sol\":21930:21937  spender */\n      dup4\n        /* \"Users/leilei/Downloads/MasterChefV2/contracts/CakeToken.sol\":21911:21938  _allowances[owner][spender] */\n      0xffffffffffffffffffffffffffffffffffffffff\n      and\n      0xffffffffffffffffffffffffffffffffffffffff\n      and\n      dup2\n      mstore\n      0x20\n      add\n      swap1\n      dup2\n      mstore\n      0x20\n      add\n      0x00\n      keccak256\n      sload\n        /* \"Users/leilei/Downloads/MasterChefV2/contracts/CakeToken.sol\":21904:21938  return _allowances[owner][spender] */\n      swap1\n      pop\n        /* \"Users/leilei/Downloads/MasterChefV2/contracts/CakeToken.sol\":21804:21945  function allowance(address owner, address spender) public override view returns (uint256) {... */\n      swap3\n      swap2\n      pop\n      pop\n      jump\t// out\n        /* \"Users/leilei/Downloads/MasterChefV2/contracts/CakeToken.sol\":3023:3130  function transferOwnership(address newOwner) public onlyOwner {... */\n    tag_70:\n        /* \"Users/leilei/Downloads/MasterChefV2/contracts/CakeToken.sol\":2328:2340  _msgSender() */\n      tag_125\n        /* \"Users/leilei/Downloads/MasterChefV2/contracts/CakeToken.sol\":2328:2338  _msgSender */\n      tag_78\n        /* \"Users/leilei/Downloads/MasterChefV2/contracts/CakeToken.sol\":2328:2340  _msgSender() */\n      jump\t// in\n    tag_125:\n        /* \"Users/leilei/Downloads/MasterChefV2/contracts/CakeToken.sol\":2318:2340  _owner == _msgSender() */\n      0xffffffffffffffffffffffffffffffffffffffff\n      and\n        /* \"Users/leilei/Downloads/MasterChefV2/contracts/CakeToken.sol\":2318:2324  _owner */\n      0x00\n      dup1\n      sload\n      swap1\n      0x0100\n      exp\n      swap1\n      div\n      0xffffffffffffffffffffffffffffffffffffffff\n      and\n        /* \"Users/leilei/Downloads/MasterChefV2/contracts/CakeToken.sol\":2318:2340  _owner == _msgSender() */\n      0xffffffffffffffffffffffffffffffffffffffff\n      and\n      eq\n        /* \"Users/leilei/Downloads/MasterChefV2/contracts/CakeToken.sol\":2310:2377  require(_owner == _msgSender(), 'Ownable: caller is not the owner') */\n      tag_126\n      jumpi\n      mload(0x40)\n      0x08c379a000000000000000000000000000000000000000000000000000000000\n      dup2\n      mstore\n      0x04\n      add\n      dup1\n      dup1\n      0x20\n      add\n      dup3\n      dup2\n      sub\n      dup3\n      mstore\n      0x20\n      dup2\n      mstore\n      0x20\n      add\n      dup1\n      0x4f776e61626c653a2063616c6c6572206973206e6f7420746865206f776e6572\n      dup2\n      mstore\n      pop\n      0x20\n      add\n      swap2\n      pop\n      pop\n      mload(0x40)\n      dup1\n      swap2\n      sub\n      swap1\n      revert\n    tag_126:\n        /* \"Users/leilei/Downloads/MasterChefV2/contracts/CakeToken.sol\":3095:3123  _transferOwnership(newOwner) */\n      tag_128\n        /* \"Users/leilei/Downloads/MasterChefV2/contracts/CakeToken.sol\":3114:3122  newOwner */\n      dup2\n        /* \"Users/leilei/Downloads/MasterChefV2/contracts/CakeToken.sol\":3095:3113  _transferOwnership */\n      tag_129\n        /* \"Users/leilei/Downloads/MasterChefV2/contracts/CakeToken.sol\":3095:3123  _transferOwnership(newOwner) */\n      jump\t// in\n    tag_128:\n        /* \"Users/leilei/Downloads/MasterChefV2/contracts/CakeToken.sol\":3023:3130  function transferOwnership(address newOwner) public onlyOwner {... */\n      pop\n      jump\t// out\n        /* \"Users/leilei/Downloads/MasterChefV2/contracts/CakeToken.sol\":804:900  function _msgSender() internal view returns (address payable) {... */\n    tag_78:\n        /* \"Users/leilei/Downloads/MasterChefV2/contracts/CakeToken.sol\":849:864  address payable */\n      0x00\n        /* \"Users/leilei/Downloads/MasterChefV2/contracts/CakeToken.sol\":883:893  msg.sender */\n      caller\n        /* \"Users/leilei/Downloads/MasterChefV2/contracts/CakeToken.sol\":876:893  return msg.sender */\n      swap1\n      pop\n        /* \"Users/leilei/Downloads/MasterChefV2/contracts/CakeToken.sol\":804:900  function _msgSender() internal view returns (address payable) {... */\n      swap1\n      jump\t// out\n        /* \"Users/leilei/Downloads/MasterChefV2/contracts/CakeToken.sol\":27434:27796  function _approve(... */\n    tag_79:\n        /* \"Users/leilei/Downloads/MasterChefV2/contracts/CakeToken.sol\":27574:27575  0 */\n      0x00\n        /* \"Users/leilei/Downloads/MasterChefV2/contracts/CakeToken.sol\":27557:27576  owner != address(0) */\n      0xffffffffffffffffffffffffffffffffffffffff\n      and\n        /* \"Users/leilei/Downloads/MasterChefV2/contracts/CakeToken.sol\":27557:27562  owner */\n      dup4\n        /* \"Users/leilei/Downloads/MasterChefV2/contracts/CakeToken.sol\":27557:27576  owner != address(0) */\n      0xffffffffffffffffffffffffffffffffffffffff\n      and\n      eq\n      iszero\n        /* \"Users/leilei/Downloads/MasterChefV2/contracts/CakeToken.sol\":27549:27617  require(owner != address(0), 'BEP20: approve from the zero address') */\n      tag_132\n      jumpi\n      mload(0x40)\n      0x08c379a000000000000000000000000000000000000000000000000000000000\n      dup2\n      mstore\n      0x04\n      add\n      dup1\n      dup1\n      0x20\n      add\n      dup3\n      dup2\n      sub\n      dup3\n      mstore\n      0x24\n      dup2\n      mstore\n      0x20\n      add\n      dup1\n      data_1441cfbef485de93bedecc35b3d10fa2992db382c4c9c583a6e423a140abe4a4\n      0x24\n      swap2\n      codecopy\n      0x40\n      add\n      swap2\n      pop\n      pop\n      mload(0x40)\n      dup1\n      swap2\n      sub\n      swap1\n      revert\n    tag_132:\n        /* \"Users/leilei/Downloads/MasterChefV2/contracts/CakeToken.sol\":27654:27655  0 */\n      0x00\n        /* \"Users/leilei/Downloads/MasterChefV2/contracts/CakeToken.sol\":27635:27656  spender != address(0) */\n      0xffffffffffffffffffffffffffffffffffffffff\n      and\n        /* \"Users/leilei/Downloads/MasterChefV2/contracts/CakeToken.sol\":27635:27642  spender */\n      dup3\n        /* \"Users/leilei/Downloads/MasterChefV2/contracts/CakeToken.sol\":27635:27656  spender != address(0) */\n      0xffffffffffffffffffffffffffffffffffffffff\n      and\n      eq\n      iszero\n        /* \"Users/leilei/Downloads/MasterChefV2/contracts/CakeToken.sol\":27627:27695  require(spender != address(0), 'BEP20: approve to the zero address') */\n      tag_133\n      jumpi\n      mload(0x40)\n      0x08c379a000000000000000000000000000000000000000000000000000000000\n      dup2\n      mstore\n      0x04\n      add\n      dup1\n      dup1\n      0x20\n      add\n      dup3\n      dup2\n      sub\n      dup3\n      mstore\n      0x22\n      dup2\n      mstore\n      0x20\n      add\n      dup1\n      data_f10e7571e18b354270dee950932fb6a745efc79414b2b2556185a4ed6a1af0d5\n      0x22\n      swap2\n      codecopy\n      0x40\n      add\n      swap2\n      pop\n      pop\n      mload(0x40)\n      dup1\n      swap2\n      sub\n      swap1\n      revert\n    tag_133:\n        /* \"Users/leilei/Downloads/MasterChefV2/contracts/CakeToken.sol\":27736:27742  amount */\n      dup1\n        /* \"Users/leilei/Downloads/MasterChefV2/contracts/CakeToken.sol\":27706:27717  _allowances */\n      0x02\n        /* \"Users/leilei/Downloads/MasterChefV2/contracts/CakeToken.sol\":27706:27724  _allowances[owner] */\n      0x00\n        /* \"Users/leilei/Downloads/MasterChefV2/contracts/CakeToken.sol\":27718:27723  owner */\n      dup6\n        /* \"Users/leilei/Downloads/MasterChefV2/contracts/CakeToken.sol\":27706:27724  _allowances[owner] */\n      0xffffffffffffffffffffffffffffffffffffffff\n      and\n      0xffffffffffffffffffffffffffffffffffffffff\n      and\n      dup2\n      mstore\n      0x20\n      add\n      swap1\n      dup2\n      mstore\n      0x20\n      add\n      0x00\n      keccak256\n        /* \"Users/leilei/Downloads/MasterChefV2/contracts/CakeToken.sol\":27706:27733  _allowances[owner][spender] */\n      0x00\n        /* \"Users/leilei/Downloads/MasterChefV2/contracts/CakeToken.sol\":27725:27732  spender */\n      dup5\n        /* \"Users/leilei/Downloads/MasterChefV2/contracts/CakeToken.sol\":27706:27733  _allowances[owner][spender] */\n      0xffffffffffffffffffffffffffffffffffffffff\n      and\n      0xffffffffffffffffffffffffffffffffffffffff\n      and\n      dup2\n      mstore\n      0x20\n      add\n      swap1\n      dup2\n      mstore\n      0x20\n      add\n      0x00\n      keccak256\n        /* \"Users/leilei/Downloads/MasterChefV2/contracts/CakeToken.sol\":27706:27742  _allowances[owner][spender] = amount */\n      dup2\n      swap1\n      sstore\n      pop\n        /* \"Users/leilei/Downloads/MasterChefV2/contracts/CakeToken.sol\":27773:27780  spender */\n      dup2\n        /* \"Users/leilei/Downloads/MasterChefV2/contracts/CakeToken.sol\":27757:27789  Approval(owner, spender, amount) */\n      0xffffffffffffffffffffffffffffffffffffffff\n      and\n        /* \"Users/leilei/Downloads/MasterChefV2/contracts/CakeToken.sol\":27766:27771  owner */\n      dup4\n        /* \"Users/leilei/Downloads/MasterChefV2/contracts/CakeToken.sol\":27757:27789  Approval(owner, spender, amount) */\n      0xffffffffffffffffffffffffffffffffffffffff\n      and\n      0x8c5be1e5ebec7d5bd14f71427d1e84f3dd0314c0f7b2291e5b200ac8c7c3b925\n        /* \"Users/leilei/Downloads/MasterChefV2/contracts/CakeToken.sol\":27782:27788  amount */\n      dup4\n        /* \"Users/leilei/Downloads/MasterChefV2/contracts/CakeToken.sol\":27757:27789  Approval(owner, spender, amount) */\n      mload(0x40)\n      dup1\n      dup3\n      dup2\n      mstore\n      0x20\n      add\n      swap2\n      pop\n      pop\n      mload(0x40)\n      dup1\n      swap2\n      sub\n      swap1\n      log3\n        /* \"Users/leilei/Downloads/MasterChefV2/contracts/CakeToken.sol\":27434:27796  function _approve(... */\n      pop\n      pop\n      pop\n      jump\t// out\n        /* \"Users/leilei/Downloads/MasterChefV2/contracts/CakeToken.sol\":25282:25776  function _transfer(... */\n    tag_83:\n        /* \"Users/leilei/Downloads/MasterChefV2/contracts/CakeToken.sol\":25427:25428  0 */\n      0x00\n        /* \"Users/leilei/Downloads/MasterChefV2/contracts/CakeToken.sol\":25409:25429  sender != address(0) */\n      0xffffffffffffffffffffffffffffffffffffffff\n      and\n        /* \"Users/leilei/Downloads/MasterChefV2/contracts/CakeToken.sol\":25409:25415  sender */\n      dup4\n        /* \"Users/leilei/Downloads/MasterChefV2/contracts/CakeToken.sol\":25409:25429  sender != address(0) */\n      0xffffffffffffffffffffffffffffffffffffffff\n      and\n      eq\n      iszero\n        /* \"Users/leilei/Downloads/MasterChefV2/contracts/CakeToken.sol\":25401:25471  require(sender != address(0), 'BEP20: transfer from the zero address') */\n      tag_135\n      jumpi\n      mload(0x40)\n      0x08c379a000000000000000000000000000000000000000000000000000000000\n      dup2\n      mstore\n      0x04\n      add\n      dup1\n      dup1\n      0x20\n      add\n      dup3\n      dup2\n      sub\n      dup3\n      mstore\n      0x25\n      dup2\n      mstore\n      0x20\n      add\n      dup1\n      data_0d26cf302d50b28de74be656b11d67092b32131e5712d1bcf08c4e976dacda57\n      0x25\n      swap2\n      codecopy\n      0x40\n      add\n      swap2\n      pop\n      pop\n      mload(0x40)\n      dup1\n      swap2\n      sub\n      swap1\n      revert\n    tag_135:\n        /* \"Users/leilei/Downloads/MasterChefV2/contracts/CakeToken.sol\":25510:25511  0 */\n      0x00\n        /* \"Users/leilei/Downloads/MasterChefV2/contracts/CakeToken.sol\":25489:25512  recipient != address(0) */\n      0xffffffffffffffffffffffffffffffffffffffff\n      and\n        /* \"Users/leilei/Downloads/MasterChefV2/contracts/CakeToken.sol\":25489:25498  recipient */\n      dup3\n        /* \"Users/leilei/Downloads/MasterChefV2/contracts/CakeToken.sol\":25489:25512  recipient != address(0) */\n      0xffffffffffffffffffffffffffffffffffffffff\n      and\n      eq\n      iszero\n        /* \"Users/leilei/Downloads/MasterChefV2/contracts/CakeToken.sol\":25481:25552  require(recipient != address(0), 'BEP20: transfer to the zero address') */\n      tag_136\n      jumpi\n      mload(0x40)\n      0x08c379a000000000000000000000000000000000000000000000000000000000\n      dup2\n      mstore\n      0x04\n      add\n      dup1\n      dup1\n      0x20\n      add\n      dup3\n      dup2\n      sub\n      dup3\n      mstore\n      0x23\n      dup2\n      mstore\n      0x20\n      add\n      dup1\n      data_ade9efcb59e42e439ffe61509b352b1af56d64ccb68d80b039b7b69578f371d2\n      0x23\n      swap2\n      codecopy\n      0x40\n      add\n      swap2\n      pop\n      pop\n      mload(0x40)\n      dup1\n      swap2\n      sub\n      swap1\n      revert\n    tag_136:\n        /* \"Users/leilei/Downloads/MasterChefV2/contracts/CakeToken.sol\":25583:25654  _balances[sender].sub(amount, 'BEP20: transfer amount exceeds balance') */\n      tag_137\n        /* \"Users/leilei/Downloads/MasterChefV2/contracts/CakeToken.sol\":25605:25611  amount */\n      dup2\n        /* \"Users/leilei/Downloads/MasterChefV2/contracts/CakeToken.sol\":25583:25654  _balances[sender].sub(amount, 'BEP20: transfer amount exceeds balance') */\n      mload(0x40)\n      dup1\n      0x60\n      add\n      0x40\n      mstore\n      dup1\n      0x26\n      dup2\n      mstore\n      0x20\n      add\n      data_a91efd7a65ef5b4ae4d6568d674798b78a5a89184dd296c100513251c22d3e73\n      0x26\n      swap2\n      codecopy\n        /* \"Users/leilei/Downloads/MasterChefV2/contracts/CakeToken.sol\":25583:25592  _balances */\n      0x01\n        /* \"Users/leilei/Downloads/MasterChefV2/contracts/CakeToken.sol\":25583:25600  _balances[sender] */\n      0x00\n        /* \"Users/leilei/Downloads/MasterChefV2/contracts/CakeToken.sol\":25593:25599  sender */\n      dup8\n        /* \"Users/leilei/Downloads/MasterChefV2/contracts/CakeToken.sol\":25583:25600  _balances[sender] */\n      0xffffffffffffffffffffffffffffffffffffffff\n      and\n      0xffffffffffffffffffffffffffffffffffffffff\n      and\n      dup2\n      mstore\n      0x20\n      add\n      swap1\n      dup2\n      mstore\n      0x20\n      add\n      0x00\n      keccak256\n      sload\n        /* \"Users/leilei/Downloads/MasterChefV2/contracts/CakeToken.sol\":25583:25604  _balances[sender].sub */\n      tag_88\n      swap1\n        /* \"Users/leilei/Downloads/MasterChefV2/contracts/CakeToken.sol\":25583:25654  _balances[sender].sub(amount, 'BEP20: transfer amount exceeds balance') */\n      swap3\n      swap2\n      swap1\n      0xffffffff\n      and\n      jump\t// in\n    tag_137:\n        /* \"Users/leilei/Downloads/MasterChefV2/contracts/CakeToken.sol\":25563:25572  _balances */\n      0x01\n        /* \"Users/leilei/Downloads/MasterChefV2/contracts/CakeToken.sol\":25563:25580  _balances[sender] */\n      0x00\n        /* \"Users/leilei/Downloads/MasterChefV2/contracts/CakeToken.sol\":25573:25579  sender */\n      dup6\n        /* \"Users/leilei/Downloads/MasterChefV2/contracts/CakeToken.sol\":25563:25580  _balances[sender] */\n      0xffffffffffffffffffffffffffffffffffffffff\n      and\n      0xffffffffffffffffffffffffffffffffffffffff\n      and\n      dup2\n      mstore\n      0x20\n      add\n      swap1\n      dup2\n      mstore\n      0x20\n      add\n      0x00\n      keccak256\n        /* \"Users/leilei/Downloads/MasterChefV2/contracts/CakeToken.sol\":25563:25654  _balances[sender] = _balances[sender].sub(amount, 'BEP20: transfer amount exceeds balance') */\n      dup2\n      swap1\n      sstore\n      pop\n        /* \"Users/leilei/Downloads/MasterChefV2/contracts/CakeToken.sol\":25687:25719  _balances[recipient].add(amount) */\n      tag_138\n        /* \"Users/leilei/Downloads/MasterChefV2/contracts/CakeToken.sol\":25712:25718  amount */\n      dup2\n        /* \"Users/leilei/Downloads/MasterChefV2/contracts/CakeToken.sol\":25687:25696  _balances */\n      0x01\n        /* \"Users/leilei/Downloads/MasterChefV2/contracts/CakeToken.sol\":25687:25707  _balances[recipient] */\n      0x00\n        /* \"Users/leilei/Downloads/MasterChefV2/contracts/CakeToken.sol\":25697:25706  recipient */\n      dup6\n        /* \"Users/leilei/Downloads/MasterChefV2/contracts/CakeToken.sol\":25687:25707  _balances[recipient] */\n      0xffffffffffffffffffffffffffffffffffffffff\n      and\n      0xffffffffffffffffffffffffffffffffffffffff\n      and\n      dup2\n      mstore\n      0x20\n      add\n      swap1\n      dup2\n      mstore\n      0x20\n      add\n      0x00\n      keccak256\n      sload\n        /* \"Users/leilei/Downloads/MasterChefV2/contracts/CakeToken.sol\":25687:25711  _balances[recipient].add */\n      tag_95\n      swap1\n        /* \"Users/leilei/Downloads/MasterChefV2/contracts/CakeToken.sol\":25687:25719  _balances[recipient].add(amount) */\n      swap2\n      swap1\n      0xffffffff\n      and\n      jump\t// in\n    tag_138:\n        /* \"Users/leilei/Downloads/MasterChefV2/contracts/CakeToken.sol\":25664:25673  _balances */\n      0x01\n        /* \"Users/leilei/Downloads/MasterChefV2/contracts/CakeToken.sol\":25664:25684  _balances[recipient] */\n      0x00\n        /* \"Users/leilei/Downloads/MasterChefV2/contracts/CakeToken.sol\":25674:25683  recipient */\n      dup5\n        /* \"Users/leilei/Downloads/MasterChefV2/contracts/CakeToken.sol\":25664:25684  _balances[recipient] */\n      0xffffffffffffffffffffffffffffffffffffffff\n      and\n      0xffffffffffffffffffffffffffffffffffffffff\n      and\n      dup2\n      mstore\n      0x20\n      add\n      swap1\n      dup2\n      mstore\n      0x20\n      add\n      0x00\n      keccak256\n        /* \"Users/leilei/Downloads/MasterChefV2/contracts/CakeToken.sol\":25664:25719  _balances[recipient] = _balances[recipient].add(amount) */\n      dup2\n      swap1\n      sstore\n      pop\n        /* \"Users/leilei/Downloads/MasterChefV2/contracts/CakeToken.sol\":25751:25760  recipient */\n      dup2\n        /* \"Users/leilei/Downloads/MasterChefV2/contracts/CakeToken.sol\":25734:25769  Transfer(sender, recipient, amount) */\n      0xffffffffffffffffffffffffffffffffffffffff\n      and\n        /* \"Users/leilei/Downloads/MasterChefV2/contracts/CakeToken.sol\":25743:25749  sender */\n      dup4\n        /* \"Users/leilei/Downloads/MasterChefV2/contracts/CakeToken.sol\":25734:25769  Transfer(sender, recipient, amount) */\n      0xffffffffffffffffffffffffffffffffffffffff\n      and\n      0xddf252ad1be2c89b69c2b068fc378daa952ba7f163c4a11628f55a4df523b3ef\n        /* \"Users/leilei/Downloads/MasterChefV2/contracts/CakeToken.sol\":25762:25768  amount */\n      dup4\n        /* \"Users/leilei/Downloads/MasterChefV2/contracts/CakeToken.sol\":25734:25769  Transfer(sender, recipient, amount) */\n      mload(0x40)\n      dup1\n      dup3\n      dup2\n      mstore\n      0x20\n      add\n      swap2\n      pop\n      pop\n      mload(0x40)\n      dup1\n      swap2\n      sub\n      swap1\n      log3\n        /* \"Users/leilei/Downloads/MasterChefV2/contracts/CakeToken.sol\":25282:25776  function _transfer(... */\n      pop\n      pop\n      pop\n      jump\t// out\n        /* \"Users/leilei/Downloads/MasterChefV2/contracts/CakeToken.sol\":8210:8427  function sub(... */\n    tag_88:\n        /* \"Users/leilei/Downloads/MasterChefV2/contracts/CakeToken.sol\":8326:8333  uint256 */\n      0x00\n        /* \"Users/leilei/Downloads/MasterChefV2/contracts/CakeToken.sol\":8358:8359  a */\n      dup4\n        /* \"Users/leilei/Downloads/MasterChefV2/contracts/CakeToken.sol\":8353:8354  b */\n      dup4\n        /* \"Users/leilei/Downloads/MasterChefV2/contracts/CakeToken.sol\":8353:8359  b <= a */\n      gt\n      iszero\n        /* \"Users/leilei/Downloads/MasterChefV2/contracts/CakeToken.sol\":8361:8373  errorMessage */\n      dup3\n        /* \"Users/leilei/Downloads/MasterChefV2/contracts/CakeToken.sol\":8345:8374  require(b <= a, errorMessage) */\n      swap1\n      tag_140\n      jumpi\n      mload(0x40)\n      0x08c379a000000000000000000000000000000000000000000000000000000000\n      dup2\n      mstore\n      0x04\n      add\n      dup1\n      dup1\n      0x20\n      add\n      dup3\n      dup2\n      sub\n      dup3\n      mstore\n      dup4\n      dup2\n      dup2\n      mload\n      dup2\n      mstore\n      0x20\n      add\n      swap2\n      pop\n      dup1\n      mload\n      swap1\n      0x20\n      add\n      swap1\n      dup1\n      dup4\n      dup4\n      0x00\n    tag_141:\n      dup4\n      dup2\n      lt\n      iszero\n      tag_143\n      jumpi\n      dup1\n      dup3\n      add\n      mload\n      dup2\n      dup5\n      add\n      mstore\n      0x20\n      dup2\n      add\n      swap1\n      pop\n      jump(tag_141)\n    tag_143:\n      pop\n      pop\n      pop\n      pop\n      swap1\n      pop\n      swap1\n      dup2\n      add\n      swap1\n      0x1f\n      and\n      dup1\n      iszero\n      tag_144\n      jumpi\n      dup1\n      dup3\n      sub\n      dup1\n      mload\n      0x01\n      dup4\n      0x20\n      sub\n      0x0100\n      exp\n      sub\n      not\n      and\n      dup2\n      mstore\n      0x20\n      add\n      swap2\n      pop\n    tag_144:\n      pop\n      swap3\n      pop\n      pop\n      pop\n      mload(0x40)\n      dup1\n      swap2\n      sub\n      swap1\n      revert\n    tag_140:\n      pop\n        /* \"Users/leilei/Downloads/MasterChefV2/contracts/CakeToken.sol\":8384:8393  uint256 c */\n      0x00\n        /* \"Users/leilei/Downloads/MasterChefV2/contracts/CakeToken.sol\":8400:8401  b */\n      dup4\n        /* \"Users/leilei/Downloads/MasterChefV2/contracts/CakeToken.sol\":8396:8397  a */\n      dup6\n        /* \"Users/leilei/Downloads/MasterChefV2/contracts/CakeToken.sol\":8396:8401  a - b */\n      sub\n        /* \"Users/leilei/Downloads/MasterChefV2/contracts/CakeToken.sol\":8384:8401  uint256 c = a - b */\n      swap1\n      pop\n        /* \"Users/leilei/Downloads/MasterChefV2/contracts/CakeToken.sol\":8419:8420  c */\n      dup1\n        /* \"Users/leilei/Downloads/MasterChefV2/contracts/CakeToken.sol\":8412:8420  return c */\n      swap2\n      pop\n      pop\n        /* \"Users/leilei/Downloads/MasterChefV2/contracts/CakeToken.sol\":8210:8427  function sub(... */\n      swap4\n      swap3\n      pop\n      pop\n      pop\n      jump\t// out\n        /* \"Users/leilei/Downloads/MasterChefV2/contracts/CakeToken.sol\":7338:7514  function add(uint256 a, uint256 b) internal pure returns (uint256) {... */\n    tag_95:\n        /* \"Users/leilei/Downloads/MasterChefV2/contracts/CakeToken.sol\":7396:7403  uint256 */\n      0x00\n        /* \"Users/leilei/Downloads/MasterChefV2/contracts/CakeToken.sol\":7415:7424  uint256 c */\n      dup1\n        /* \"Users/leilei/Downloads/MasterChefV2/contracts/CakeToken.sol\":7431:7432  b */\n      dup3\n        /* \"Users/leilei/Downloads/MasterChefV2/contracts/CakeToken.sol\":7427:7428  a */\n      dup5\n        /* \"Users/leilei/Downloads/MasterChefV2/contracts/CakeToken.sol\":7427:7432  a + b */\n      add\n        /* \"Users/leilei/Downloads/MasterChefV2/contracts/CakeToken.sol\":7415:7432  uint256 c = a + b */\n      swap1\n      pop\n        /* \"Users/leilei/Downloads/MasterChefV2/contracts/CakeToken.sol\":7455:7456  a */\n      dup4\n        /* \"Users/leilei/Downloads/MasterChefV2/contracts/CakeToken.sol\":7450:7451  c */\n      dup2\n        /* \"Users/leilei/Downloads/MasterChefV2/contracts/CakeToken.sol\":7450:7456  c >= a */\n      lt\n      iszero\n        /* \"Users/leilei/Downloads/MasterChefV2/contracts/CakeToken.sol\":7442:7488  require(c >= a, 'SafeMath: addition overflow') */\n      tag_146\n      jumpi\n      mload(0x40)\n      0x08c379a000000000000000000000000000000000000000000000000000000000\n      dup2\n      mstore\n      0x04\n      add\n      dup1\n      dup1\n      0x20\n      add\n      dup3\n      dup2\n      sub\n      dup3\n      mstore\n      0x1b\n      dup2\n      mstore\n      0x20\n      add\n      dup1\n      0x536166654d6174683a206164646974696f6e206f766572666c6f770000000000\n      dup2\n      mstore\n      pop\n      0x20\n      add\n      swap2\n      pop\n      pop\n      mload(0x40)\n      dup1\n      swap2\n      sub\n      swap1\n      revert\n    tag_146:\n        /* \"Users/leilei/Downloads/MasterChefV2/contracts/CakeToken.sol\":7506:7507  c */\n      dup1\n        /* \"Users/leilei/Downloads/MasterChefV2/contracts/CakeToken.sol\":7499:7507  return c */\n      swap2\n      pop\n      pop\n        /* \"Users/leilei/Downloads/MasterChefV2/contracts/CakeToken.sol\":7338:7514  function add(uint256 a, uint256 b) internal pure returns (uint256) {... */\n      swap3\n      swap2\n      pop\n      pop\n      jump\t// out\n        /* \"Users/leilei/Downloads/MasterChefV2/contracts/CakeToken.sol\":26046:26348  function _mint(address account, uint256 amount) internal {... */\n    tag_114:\n        /* \"Users/leilei/Downloads/MasterChefV2/contracts/CakeToken.sol\":26140:26141  0 */\n      0x00\n        /* \"Users/leilei/Downloads/MasterChefV2/contracts/CakeToken.sol\":26121:26142  account != address(0) */\n      0xffffffffffffffffffffffffffffffffffffffff\n      and\n        /* \"Users/leilei/Downloads/MasterChefV2/contracts/CakeToken.sol\":26121:26128  account */\n      dup3\n        /* \"Users/leilei/Downloads/MasterChefV2/contracts/CakeToken.sol\":26121:26142  account != address(0) */\n      0xffffffffffffffffffffffffffffffffffffffff\n      and\n      eq\n      iszero\n        /* \"Users/leilei/Downloads/MasterChefV2/contracts/CakeToken.sol\":26113:26178  require(account != address(0), 'BEP20: mint to the zero address') */\n      tag_148\n      jumpi\n      mload(0x40)\n      0x08c379a000000000000000000000000000000000000000000000000000000000\n      dup2\n      mstore\n      0x04\n      add\n      dup1\n      dup1\n      0x20\n      add\n      dup3\n      dup2\n      sub\n      dup3\n      mstore\n      0x1f\n      dup2\n      mstore\n      0x20\n      add\n      dup1\n      0x42455032303a206d696e7420746f20746865207a65726f206164647265737300\n      dup2\n      mstore\n      pop\n      0x20\n      add\n      swap2\n      pop\n      pop\n      mload(0x40)\n      dup1\n      swap2\n      sub\n      swap1\n      revert\n    tag_148:\n        /* \"Users/leilei/Downloads/MasterChefV2/contracts/CakeToken.sol\":26204:26228  _totalSupply.add(amount) */\n      tag_149\n        /* \"Users/leilei/Downloads/MasterChefV2/contracts/CakeToken.sol\":26221:26227  amount */\n      dup2\n        /* \"Users/leilei/Downloads/MasterChefV2/contracts/CakeToken.sol\":26204:26216  _totalSupply */\n      sload(0x03)\n        /* \"Users/leilei/Downloads/MasterChefV2/contracts/CakeToken.sol\":26204:26220  _totalSupply.add */\n      tag_95\n      swap1\n        /* \"Users/leilei/Downloads/MasterChefV2/contracts/CakeToken.sol\":26204:26228  _totalSupply.add(amount) */\n      swap2\n      swap1\n      0xffffffff\n      and\n      jump\t// in\n    tag_149:\n        /* \"Users/leilei/Downloads/MasterChefV2/contracts/CakeToken.sol\":26189:26201  _totalSupply */\n      0x03\n        /* \"Users/leilei/Downloads/MasterChefV2/contracts/CakeToken.sol\":26189:26228  _totalSupply = _totalSupply.add(amount) */\n      dup2\n      swap1\n      sstore\n      pop\n        /* \"Users/leilei/Downloads/MasterChefV2/contracts/CakeToken.sol\":26259:26289  _balances[account].add(amount) */\n      tag_150\n        /* \"Users/leilei/Downloads/MasterChefV2/contracts/CakeToken.sol\":26282:26288  amount */\n      dup2\n        /* \"Users/leilei/Downloads/MasterChefV2/contracts/CakeToken.sol\":26259:26268  _balances */\n      0x01\n        /* \"Users/leilei/Downloads/MasterChefV2/contracts/CakeToken.sol\":26259:26277  _balances[account] */\n      0x00\n        /* \"Users/leilei/Downloads/MasterChefV2/contracts/CakeToken.sol\":26269:26276  account */\n      dup6\n        /* \"Users/leilei/Downloads/MasterChefV2/contracts/CakeToken.sol\":26259:26277  _balances[account] */\n      0xffffffffffffffffffffffffffffffffffffffff\n      and\n      0xffffffffffffffffffffffffffffffffffffffff\n      and\n      dup2\n      mstore\n      0x20\n      add\n      swap1\n      dup2\n      mstore\n      0x20\n      add\n      0x00\n      keccak256\n      sload\n        /* \"Users/leilei/Downloads/MasterChefV2/contracts/CakeToken.sol\":26259:26281  _balances[account].add */\n      tag_95\n      swap1\n        /* \"Users/leilei/Downloads/MasterChefV2/contracts/CakeToken.sol\":26259:26289  _balances[account].add(amount) */\n      swap2\n      swap1\n      0xffffffff\n      and\n      jump\t// in\n    tag_150:\n        /* \"Users/leilei/Downloads/MasterChefV2/contracts/CakeToken.sol\":26238:26247  _balances */\n      0x01\n        /* \"Users/leilei/Downloads/MasterChefV2/contracts/CakeToken.sol\":26238:26256  _balances[account] */\n      0x00\n        /* \"Users/leilei/Downloads/MasterChefV2/contracts/CakeToken.sol\":26248:26255  account */\n      dup5\n        /* \"Users/leilei/Downloads/MasterChefV2/contracts/CakeToken.sol\":26238:26256  _balances[account] */\n      0xffffffffffffffffffffffffffffffffffffffff\n      and\n      0xffffffffffffffffffffffffffffffffffffffff\n      and\n      dup2\n      mstore\n      0x20\n      add\n      swap1\n      dup2\n      mstore\n      0x20\n      add\n      0x00\n      keccak256\n        /* \"Users/leilei/Downloads/MasterChefV2/contracts/CakeToken.sol\":26238:26289  _balances[account] = _balances[account].add(amount) */\n      dup2\n      swap1\n      sstore\n      pop\n        /* \"Users/leilei/Downloads/MasterChefV2/contracts/CakeToken.sol\":26325:26332  account */\n      dup2\n        /* \"Users/leilei/Downloads/MasterChefV2/contracts/CakeToken.sol\":26304:26341  Transfer(address(0), account, amount) */\n      0xffffffffffffffffffffffffffffffffffffffff\n      and\n        /* \"Users/leilei/Downloads/MasterChefV2/contracts/CakeToken.sol\":26321:26322  0 */\n      0x00\n        /* \"Users/leilei/Downloads/MasterChefV2/contracts/CakeToken.sol\":26304:26341  Transfer(address(0), account, amount) */\n      0xffffffffffffffffffffffffffffffffffffffff\n      and\n      0xddf252ad1be2c89b69c2b068fc378daa952ba7f163c4a11628f55a4df523b3ef\n        /* \"Users/leilei/Downloads/MasterChefV2/contracts/CakeToken.sol\":26334:26340  amount */\n      dup4\n        /* \"Users/leilei/Downloads/MasterChefV2/contracts/CakeToken.sol\":26304:26341  Transfer(address(0), account, amount) */\n      mload(0x40)\n      dup1\n      dup3\n      dup2\n      mstore\n      0x20\n      add\n      swap2\n      pop\n      pop\n      mload(0x40)\n      dup1\n      swap2\n      sub\n      swap1\n      log3\n        /* \"Users/leilei/Downloads/MasterChefV2/contracts/CakeToken.sol\":26046:26348  function _mint(address account, uint256 amount) internal {... */\n      pop\n      pop\n      jump\t// out\n        /* \"Users/leilei/Downloads/MasterChefV2/contracts/CakeToken.sol\":3231:3456  function _transferOwnership(address newOwner) internal {... */\n    tag_129:\n        /* \"Users/leilei/Downloads/MasterChefV2/contracts/CakeToken.sol\":3324:3325  0 */\n      0x00\n        /* \"Users/leilei/Downloads/MasterChefV2/contracts/CakeToken.sol\":3304:3326  newOwner != address(0) */\n      0xffffffffffffffffffffffffffffffffffffffff\n      and\n        /* \"Users/leilei/Downloads/MasterChefV2/contracts/CakeToken.sol\":3304:3312  newOwner */\n      dup2\n        /* \"Users/leilei/Downloads/MasterChefV2/contracts/CakeToken.sol\":3304:3326  newOwner != address(0) */\n      0xffffffffffffffffffffffffffffffffffffffff\n      and\n      eq\n      iszero\n        /* \"Users/leilei/Downloads/MasterChefV2/contracts/CakeToken.sol\":3296:3369  require(newOwner != address(0), 'Ownable: new owner is the zero address') */\n      tag_152\n      jumpi\n      mload(0x40)\n      0x08c379a000000000000000000000000000000000000000000000000000000000\n      dup2\n      mstore\n      0x04\n      add\n      dup1\n      dup1\n      0x20\n      add\n      dup3\n      dup2\n      sub\n      dup3\n      mstore\n      0x26\n      dup2\n      mstore\n      0x20\n      add\n      dup1\n      data_245f15ff17f551913a7a18385165551503906a406f905ac1c2437281a7cd0cfe\n      0x26\n      swap2\n      codecopy\n      0x40\n      add\n      swap2\n      pop\n      pop\n      mload(0x40)\n      dup1\n      swap2\n      sub\n      swap1\n      revert\n    tag_152:\n        /* \"Users/leilei/Downloads/MasterChefV2/contracts/CakeToken.sol\":3413:3421  newOwner */\n      dup1\n        /* \"Users/leilei/Downloads/MasterChefV2/contracts/CakeToken.sol\":3384:3422  OwnershipTransferred(_owner, newOwner) */\n      0xffffffffffffffffffffffffffffffffffffffff\n      and\n        /* \"Users/leilei/Downloads/MasterChefV2/contracts/CakeToken.sol\":3405:3411  _owner */\n      0x00\n      dup1\n      sload\n      swap1\n      0x0100\n      exp\n      swap1\n      div\n      0xffffffffffffffffffffffffffffffffffffffff\n      and\n        /* \"Users/leilei/Downloads/MasterChefV2/contracts/CakeToken.sol\":3384:3422  OwnershipTransferred(_owner, newOwner) */\n      0xffffffffffffffffffffffffffffffffffffffff\n      and\n      0x8be0079c531659141344cd1fd0a4f28419497f9722a3daafe3b4186f6b6457e0\n      mload(0x40)\n      mload(0x40)\n      dup1\n      swap2\n      sub\n      swap1\n      log3\n        /* \"Users/leilei/Downloads/MasterChefV2/contracts/CakeToken.sol\":3441:3449  newOwner */\n      dup1\n        /* \"Users/leilei/Downloads/MasterChefV2/contracts/CakeToken.sol\":3432:3438  _owner */\n      0x00\n      dup1\n        /* \"Users/leilei/Downloads/MasterChefV2/contracts/CakeToken.sol\":3432:3449  _owner = newOwner */\n      0x0100\n      exp\n      dup2\n      sload\n      dup2\n      0xffffffffffffffffffffffffffffffffffffffff\n      mul\n      not\n      and\n      swap1\n      dup4\n      0xffffffffffffffffffffffffffffffffffffffff\n      and\n      mul\n      or\n      swap1\n      sstore\n      pop\n        /* \"Users/leilei/Downloads/MasterChefV2/contracts/CakeToken.sol\":3231:3456  function _transferOwnership(address newOwner) internal {... */\n      pop\n      jump\t// out\n    stop\n    data_0d26cf302d50b28de74be656b11d67092b32131e5712d1bcf08c4e976dacda57 42455032303a207472616e736665722066726f6d20746865207a65726f2061646472657373\n    data_1441cfbef485de93bedecc35b3d10fa2992db382c4c9c583a6e423a140abe4a4 42455032303a20617070726f76652066726f6d20746865207a65726f2061646472657373\n    data_245f15ff17f551913a7a18385165551503906a406f905ac1c2437281a7cd0cfe 4f776e61626c653a206e6577206f776e657220697320746865207a65726f2061646472657373\n    data_4f3506f4ba71c79c3cbd442a3afeb30e9b27af2d84e116a4385b34e267d2287e 42455032303a207472616e7366657220616d6f756e74206578636565647320616c6c6f77616e6365\n    data_a91efd7a65ef5b4ae4d6568d674798b78a5a89184dd296c100513251c22d3e73 42455032303a207472616e7366657220616d6f756e7420657863656564732062616c616e6365\n    data_ade9efcb59e42e439ffe61509b352b1af56d64ccb68d80b039b7b69578f371d2 42455032303a207472616e7366657220746f20746865207a65726f2061646472657373\n    data_b7060b3538dcd3ddc8a941c91636a8115a1aa46914747fd9809d543bbb46cd22 42455032303a2064656372656173656420616c6c6f77616e63652062656c6f77207a65726f\n    data_f10e7571e18b354270dee950932fb6a745efc79414b2b2556185a4ed6a1af0d5 42455032303a20617070726f766520746f20746865207a65726f2061646472657373\n\n    auxdata: 0xa26469706673582212201271b1acc3acf9d3da7756b03e88d349a9a1a7853d1de1e338de24dd969539a564736f6c634300060c0033\n}\n",
				"bytecode": {
					"linkReferences": {},
					"object": "60806040523480156200001157600080fd5b5060405162001c3f38038062001c3f833981810160405260408110156200003757600080fd5b81019080805160405193929190846401000000008211156200005857600080fd5b838201915060208201858111156200006f57600080fd5b82518660018202830111640100000000821117156200008d57600080fd5b8083526020830192505050908051906020019080838360005b83811015620000c3578082015181840152602081019050620000a6565b50505050905090810190601f168015620000f15780820380516001836020036101000a031916815260200191505b50604052602001805160405193929190846401000000008211156200011557600080fd5b838201915060208201858111156200012c57600080fd5b82518660018202830111640100000000821117156200014a57600080fd5b8083526020830192505050908051906020019080838360005b838110156200018057808201518184015260208101905062000163565b50505050905090810190601f168015620001ae5780820380516001836020036101000a031916815260200191505b506040525050506000620001c7620002bb60201b60201c565b9050806000806101000a81548173ffffffffffffffffffffffffffffffffffffffff021916908373ffffffffffffffffffffffffffffffffffffffff1602179055508073ffffffffffffffffffffffffffffffffffffffff16600073ffffffffffffffffffffffffffffffffffffffff167f8be0079c531659141344cd1fd0a4f28419497f9722a3daafe3b4186f6b6457e060405160405180910390a35081600490805190602001906200027d929190620002c3565b50806005908051906020019062000296929190620002c3565b506012600660006101000a81548160ff021916908360ff160217905550505062000369565b600033905090565b828054600181600116156101000203166002900490600052602060002090601f016020900481019282601f106200030657805160ff191683800117855562000337565b8280016001018555821562000337579182015b828111156200033657825182559160200191906001019062000319565b5b5090506200034691906200034a565b5090565b5b80821115620003655760008160009055506001016200034b565b5090565b6118c680620003796000396000f3fe608060405234801561001057600080fd5b50600436106101005760003560e01c8063893d20e811610097578063a457c2d711610066578063a457c2d7146104a4578063a9059cbb14610508578063dd62ed3e1461056c578063f2fde38b146105e457610100565b8063893d20e8146103755780638da5cb5b146103a957806395d89b41146103dd578063a0712d681461046057610100565b8063313ce567116100d3578063313ce5671461028e57806339509351146102af57806370a0823114610313578063715018a61461036b57610100565b806306fdde0314610105578063095ea7b31461018857806318160ddd146101ec57806323b872dd1461020a575b600080fd5b61010d610628565b6040518080602001828103825283818151815260200191508051906020019080838360005b8381101561014d578082015181840152602081019050610132565b50505050905090810190601f16801561017a5780820380516001836020036101000a031916815260200191505b509250505060405180910390f35b6101d46004803603604081101561019e57600080fd5b81019080803573ffffffffffffffffffffffffffffffffffffffff169060200190929190803590602001909291905050506106ca565b60405180821515815260200191505060405180910390f35b6101f46106e8565b6040518082815260200191505060405180910390f35b6102766004803603606081101561022057600080fd5b81019080803573ffffffffffffffffffffffffffffffffffffffff169060200190929190803573ffffffffffffffffffffffffffffffffffffffff169060200190929190803590602001909291905050506106f2565b60405180821515815260200191505060405180910390f35b6102966107cb565b604051808260ff16815260200191505060405180910390f35b6102fb600480360360408110156102c557600080fd5b81019080803573ffffffffffffffffffffffffffffffffffffffff169060200190929190803590602001909291905050506107e2565b60405180821515815260200191505060405180910390f35b6103556004803603602081101561032957600080fd5b81019080803573ffffffffffffffffffffffffffffffffffffffff169060200190929190505050610895565b6040518082815260200191505060405180910390f35b6103736108de565b005b61037d610a64565b604051808273ffffffffffffffffffffffffffffffffffffffff16815260200191505060405180910390f35b6103b1610a73565b604051808273ffffffffffffffffffffffffffffffffffffffff16815260200191505060405180910390f35b6103e5610a9c565b6040518080602001828103825283818151815260200191508051906020019080838360005b8381101561042557808201518184015260208101905061040a565b50505050905090810190601f1680156104525780820380516001836020036101000a031916815260200191505b509250505060405180910390f35b61048c6004803603602081101561047657600080fd5b8101908080359060200190929190505050610b3e565b60405180821515815260200191505060405180910390f35b6104f0600480360360408110156104ba57600080fd5b81019080803573ffffffffffffffffffffffffffffffffffffffff16906020019092919080359060200190929190505050610c22565b60405180821515815260200191505060405180910390f35b6105546004803603604081101561051e57600080fd5b81019080803573ffffffffffffffffffffffffffffffffffffffff16906020019092919080359060200190929190505050610cef565b60405180821515815260200191505060405180910390f35b6105ce6004803603604081101561058257600080fd5b81019080803573ffffffffffffffffffffffffffffffffffffffff169060200190929190803573ffffffffffffffffffffffffffffffffffffffff169060200190929190505050610d0d565b6040518082815260200191505060405180910390f35b610626600480360360208110156105fa57600080fd5b81019080803573ffffffffffffffffffffffffffffffffffffffff169060200190929190505050610d94565b005b606060048054600181600116156101000203166002900480601f0160208091040260200160405190810160405280929190818152602001828054600181600116156101000203166002900480156106c05780601f10610695576101008083540402835291602001916106c0565b820191906000526020600020905b8154815290600101906020018083116106a357829003601f168201915b5050505050905090565b60006106de6106d7610e68565b8484610e70565b6001905092915050565b6000600354905090565b60006106ff848484611067565b6107c08461070b610e68565b6107bb856040518060600160405280602881526020016117d960289139600260008b73ffffffffffffffffffffffffffffffffffffffff1673ffffffffffffffffffffffffffffffffffffffff1681526020019081526020016000206000610771610e68565b73ffffffffffffffffffffffffffffffffffffffff1673ffffffffffffffffffffffffffffffffffffffff168152602001908152602001600020546113219092919063ffffffff16565b610e70565b600190509392505050565b6000600660009054906101000a900460ff16905090565b600061088b6107ef610e68565b846108868560026000610800610e68565b73ffffffffffffffffffffffffffffffffffffffff1673ffffffffffffffffffffffffffffffffffffffff16815260200190815260200160002060008973ffffffffffffffffffffffffffffffffffffffff1673ffffffffffffffffffffffffffffffffffffffff168152602001908152602001600020546113e190919063ffffffff16565b610e70565b6001905092915050565b6000600160008373ffffffffffffffffffffffffffffffffffffffff1673ffffffffffffffffffffffffffffffffffffffff168152602001908152602001600020549050919050565b6108e6610e68565b73ffffffffffffffffffffffffffffffffffffffff1660008054906101000a900473ffffffffffffffffffffffffffffffffffffffff1673ffffffffffffffffffffffffffffffffffffffff16146109a6576040517f08c379a00000000000000000000000000000000000000000000000000000000081526004018080602001828103825260208152602001807f4f776e61626c653a2063616c6c6572206973206e6f7420746865206f776e657281525060200191505060405180910390fd5b600073ffffffffffffffffffffffffffffffffffffffff1660008054906101000a900473ffffffffffffffffffffffffffffffffffffffff1673ffffffffffffffffffffffffffffffffffffffff167f8be0079c531659141344cd1fd0a4f28419497f9722a3daafe3b4186f6b6457e060405160405180910390a360008060006101000a81548173ffffffffffffffffffffffffffffffffffffffff021916908373ffffffffffffffffffffffffffffffffffffffff160217905550565b6000610a6e610a73565b905090565b60008060009054906101000a900473ffffffffffffffffffffffffffffffffffffffff16905090565b606060058054600181600116156101000203166002900480601f016020809104026020016040519081016040528092919081815260200182805460018160011615610100020316600290048015610b345780601f10610b0957610100808354040283529160200191610b34565b820191906000526020600020905b815481529060010190602001808311610b1757829003601f168201915b5050505050905090565b6000610b48610e68565b73ffffffffffffffffffffffffffffffffffffffff1660008054906101000a900473ffffffffffffffffffffffffffffffffffffffff1673ffffffffffffffffffffffffffffffffffffffff1614610c08576040517f08c379a00000000000000000000000000000000000000000000000000000000081526004018080602001828103825260208152602001807f4f776e61626c653a2063616c6c6572206973206e6f7420746865206f776e657281525060200191505060405180910390fd5b610c19610c13610e68565b83611469565b60019050919050565b6000610ce5610c2f610e68565b84610ce08560405180606001604052806025815260200161184a6025913960026000610c59610e68565b73ffffffffffffffffffffffffffffffffffffffff1673ffffffffffffffffffffffffffffffffffffffff16815260200190815260200160002060008a73ffffffffffffffffffffffffffffffffffffffff1673ffffffffffffffffffffffffffffffffffffffff168152602001908152602001600020546113219092919063ffffffff16565b610e70565b6001905092915050565b6000610d03610cfc610e68565b8484611067565b6001905092915050565b6000600260008473ffffffffffffffffffffffffffffffffffffffff1673ffffffffffffffffffffffffffffffffffffffff16815260200190815260200160002060008373ffffffffffffffffffffffffffffffffffffffff1673ffffffffffffffffffffffffffffffffffffffff16815260200190815260200160002054905092915050565b610d9c610e68565b73ffffffffffffffffffffffffffffffffffffffff1660008054906101000a900473ffffffffffffffffffffffffffffffffffffffff1673ffffffffffffffffffffffffffffffffffffffff1614610e5c576040517f08c379a00000000000000000000000000000000000000000000000000000000081526004018080602001828103825260208152602001807f4f776e61626c653a2063616c6c6572206973206e6f7420746865206f776e657281525060200191505060405180910390fd5b610e6581611626565b50565b600033905090565b600073ffffffffffffffffffffffffffffffffffffffff168373ffffffffffffffffffffffffffffffffffffffff161415610ef6576040517f08c379a000000000000000000000000000000000000000000000000000000000815260040180806020018281038252602481526020018061178f6024913960400191505060405180910390fd5b600073ffffffffffffffffffffffffffffffffffffffff168273ffffffffffffffffffffffffffffffffffffffff161415610f7c576040517f08c379a000000000000000000000000000000000000000000000000000000000815260040180806020018281038252602281526020018061186f6022913960400191505060405180910390fd5b80600260008573ffffffffffffffffffffffffffffffffffffffff1673ffffffffffffffffffffffffffffffffffffffff16815260200190815260200160002060008473ffffffffffffffffffffffffffffffffffffffff1673ffffffffffffffffffffffffffffffffffffffff168152602001908152602001600020819055508173ffffffffffffffffffffffffffffffffffffffff168373ffffffffffffffffffffffffffffffffffffffff167f8c5be1e5ebec7d5bd14f71427d1e84f3dd0314c0f7b2291e5b200ac8c7c3b925836040518082815260200191505060405180910390a3505050565b600073ffffffffffffffffffffffffffffffffffffffff168373ffffffffffffffffffffffffffffffffffffffff1614156110ed576040517f08c379a000000000000000000000000000000000000000000000000000000000815260040180806020018281038252602581526020018061176a6025913960400191505060405180910390fd5b600073ffffffffffffffffffffffffffffffffffffffff168273ffffffffffffffffffffffffffffffffffffffff161415611173576040517f08c379a00000000000000000000000000000000000000000000000000000000081526004018080602001828103825260238152602001806118276023913960400191505060405180910390fd5b6111df8160405180606001604052806026815260200161180160269139600160008773ffffffffffffffffffffffffffffffffffffffff1673ffffffffffffffffffffffffffffffffffffffff168152602001908152602001600020546113219092919063ffffffff16565b600160008573ffffffffffffffffffffffffffffffffffffffff1673ffffffffffffffffffffffffffffffffffffffff1681526020019081526020016000208190555061127481600160008573ffffffffffffffffffffffffffffffffffffffff1673ffffffffffffffffffffffffffffffffffffffff168152602001908152602001600020546113e190919063ffffffff16565b600160008473ffffffffffffffffffffffffffffffffffffffff1673ffffffffffffffffffffffffffffffffffffffff168152602001908152602001600020819055508173ffffffffffffffffffffffffffffffffffffffff168373ffffffffffffffffffffffffffffffffffffffff167fddf252ad1be2c89b69c2b068fc378daa952ba7f163c4a11628f55a4df523b3ef836040518082815260200191505060405180910390a3505050565b60008383111582906113ce576040517f08c379a00000000000000000000000000000000000000000000000000000000081526004018080602001828103825283818151815260200191508051906020019080838360005b83811015611393578082015181840152602081019050611378565b50505050905090810190601f1680156113c05780820380516001836020036101000a031916815260200191505b509250505060405180910390fd5b5060008385039050809150509392505050565b60008082840190508381101561145f576040517f08c379a000000000000000000000000000000000000000000000000000000000815260040180806020018281038252601b8152602001807f536166654d6174683a206164646974696f6e206f766572666c6f77000000000081525060200191505060405180910390fd5b8091505092915050565b600073ffffffffffffffffffffffffffffffffffffffff168273ffffffffffffffffffffffffffffffffffffffff16141561150c576040517f08c379a000000000000000000000000000000000000000000000000000000000815260040180806020018281038252601f8152602001807f42455032303a206d696e7420746f20746865207a65726f20616464726573730081525060200191505060405180910390fd5b611521816003546113e190919063ffffffff16565b60038190555061157981600160008573ffffffffffffffffffffffffffffffffffffffff1673ffffffffffffffffffffffffffffffffffffffff168152602001908152602001600020546113e190919063ffffffff16565b600160008473ffffffffffffffffffffffffffffffffffffffff1673ffffffffffffffffffffffffffffffffffffffff168152602001908152602001600020819055508173ffffffffffffffffffffffffffffffffffffffff16600073ffffffffffffffffffffffffffffffffffffffff167fddf252ad1be2c89b69c2b068fc378daa952ba7f163c4a11628f55a4df523b3ef836040518082815260200191505060405180910390a35050565b600073ffffffffffffffffffffffffffffffffffffffff168173ffffffffffffffffffffffffffffffffffffffff1614156116ac576040517f08c379a00000000000000000000000000000000000000000000000000000000081526004018080602001828103825260268152602001806117b36026913960400191505060405180910390fd5b8073ffffffffffffffffffffffffffffffffffffffff1660008054906101000a900473ffffffffffffffffffffffffffffffffffffffff1673ffffffffffffffffffffffffffffffffffffffff167f8be0079c531659141344cd1fd0a4f28419497f9722a3daafe3b4186f6b6457e060405160405180910390a3806000806101000a81548173ffffffffffffffffffffffffffffffffffffffff021916908373ffffffffffffffffffffffffffffffffffffffff1602179055505056fe42455032303a207472616e736665722066726f6d20746865207a65726f206164647265737342455032303a20617070726f76652066726f6d20746865207a65726f20616464726573734f776e61626c653a206e6577206f776e657220697320746865207a65726f206164647265737342455032303a207472616e7366657220616d6f756e74206578636565647320616c6c6f77616e636542455032303a207472616e7366657220616d6f756e7420657863656564732062616c616e636542455032303a207472616e7366657220746f20746865207a65726f206164647265737342455032303a2064656372656173656420616c6c6f77616e63652062656c6f77207a65726f42455032303a20617070726f766520746f20746865207a65726f2061646472657373a26469706673582212201271b1acc3acf9d3da7756b03e88d349a9a1a7853d1de1e338de24dd969539a564736f6c634300060c0033",
					"opcodes": "PUSH1 0x80 PUSH1 0x40 MSTORE CALLVALUE DUP1 ISZERO PUSH3 0x11 JUMPI PUSH1 0x0 DUP1 REVERT JUMPDEST POP PUSH1 0x40 MLOAD PUSH3 0x1C3F CODESIZE SUB DUP1 PUSH3 0x1C3F DUP4 CODECOPY DUP2 DUP2 ADD PUSH1 0x40 MSTORE PUSH1 0x40 DUP2 LT ISZERO PUSH3 0x37 JUMPI PUSH1 0x0 DUP1 REVERT JUMPDEST DUP2 ADD SWAP1 DUP1 DUP1 MLOAD PUSH1 0x40 MLOAD SWAP4 SWAP3 SWAP2 SWAP1 DUP5 PUSH5 0x100000000 DUP3 GT ISZERO PUSH3 0x58 JUMPI PUSH1 0x0 DUP1 REVERT JUMPDEST DUP4 DUP3 ADD SWAP2 POP PUSH1 0x20 DUP3 ADD DUP6 DUP2 GT ISZERO PUSH3 0x6F JUMPI PUSH1 0x0 DUP1 REVERT JUMPDEST DUP3 MLOAD DUP7 PUSH1 0x1 DUP3 MUL DUP4 ADD GT PUSH5 0x100000000 DUP3 GT OR ISZERO PUSH3 0x8D JUMPI PUSH1 0x0 DUP1 REVERT JUMPDEST DUP1 DUP4 MSTORE PUSH1 0x20 DUP4 ADD SWAP3 POP POP POP SWAP1 DUP1 MLOAD SWAP1 PUSH1 0x20 ADD SWAP1 DUP1 DUP4 DUP4 PUSH1 0x0 JUMPDEST DUP4 DUP2 LT ISZERO PUSH3 0xC3 JUMPI DUP1 DUP3 ADD MLOAD DUP2 DUP5 ADD MSTORE PUSH1 0x20 DUP2 ADD SWAP1 POP PUSH3 0xA6 JUMP JUMPDEST POP POP POP POP SWAP1 POP SWAP1 DUP2 ADD SWAP1 PUSH1 0x1F AND DUP1 ISZERO PUSH3 0xF1 JUMPI DUP1 DUP3 SUB DUP1 MLOAD PUSH1 0x1 DUP4 PUSH1 0x20 SUB PUSH2 0x100 EXP SUB NOT AND DUP2 MSTORE PUSH1 0x20 ADD SWAP2 POP JUMPDEST POP PUSH1 0x40 MSTORE PUSH1 0x20 ADD DUP1 MLOAD PUSH1 0x40 MLOAD SWAP4 SWAP3 SWAP2 SWAP1 DUP5 PUSH5 0x100000000 DUP3 GT ISZERO PUSH3 0x115 JUMPI PUSH1 0x0 DUP1 REVERT JUMPDEST DUP4 DUP3 ADD SWAP2 POP PUSH1 0x20 DUP3 ADD DUP6 DUP2 GT ISZERO PUSH3 0x12C JUMPI PUSH1 0x0 DUP1 REVERT JUMPDEST DUP3 MLOAD DUP7 PUSH1 0x1 DUP3 MUL DUP4 ADD GT PUSH5 0x100000000 DUP3 GT OR ISZERO PUSH3 0x14A JUMPI PUSH1 0x0 DUP1 REVERT JUMPDEST DUP1 DUP4 MSTORE PUSH1 0x20 DUP4 ADD SWAP3 POP POP POP SWAP1 DUP1 MLOAD SWAP1 PUSH1 0x20 ADD SWAP1 DUP1 DUP4 DUP4 PUSH1 0x0 JUMPDEST DUP4 DUP2 LT ISZERO PUSH3 0x180 JUMPI DUP1 DUP3 ADD MLOAD DUP2 DUP5 ADD MSTORE PUSH1 0x20 DUP2 ADD SWAP1 POP PUSH3 0x163 JUMP JUMPDEST POP POP POP POP SWAP1 POP SWAP1 DUP2 ADD SWAP1 PUSH1 0x1F AND DUP1 ISZERO PUSH3 0x1AE JUMPI DUP1 DUP3 SUB DUP1 MLOAD PUSH1 0x1 DUP4 PUSH1 0x20 SUB PUSH2 0x100 EXP SUB NOT AND DUP2 MSTORE PUSH1 0x20 ADD SWAP2 POP JUMPDEST POP PUSH1 0x40 MSTORE POP POP POP PUSH1 0x0 PUSH3 0x1C7 PUSH3 0x2BB PUSH1 0x20 SHL PUSH1 0x20 SHR JUMP JUMPDEST SWAP1 POP DUP1 PUSH1 0x0 DUP1 PUSH2 0x100 EXP DUP2 SLOAD DUP2 PUSH20 0xFFFFFFFFFFFFFFFFFFFFFFFFFFFFFFFFFFFFFFFF MUL NOT AND SWAP1 DUP4 PUSH20 0xFFFFFFFFFFFFFFFFFFFFFFFFFFFFFFFFFFFFFFFF AND MUL OR SWAP1 SSTORE POP DUP1 PUSH20 0xFFFFFFFFFFFFFFFFFFFFFFFFFFFFFFFFFFFFFFFF AND PUSH1 0x0 PUSH20 0xFFFFFFFFFFFFFFFFFFFFFFFFFFFFFFFFFFFFFFFF AND PUSH32 0x8BE0079C531659141344CD1FD0A4F28419497F9722A3DAAFE3B4186F6B6457E0 PUSH1 0x40 MLOAD PUSH1 0x40 MLOAD DUP1 SWAP2 SUB SWAP1 LOG3 POP DUP2 PUSH1 0x4 SWAP1 DUP1 MLOAD SWAP1 PUSH1 0x20 ADD SWAP1 PUSH3 0x27D SWAP3 SWAP2 SWAP1 PUSH3 0x2C3 JUMP JUMPDEST POP DUP1 PUSH1 0x5 SWAP1 DUP1 MLOAD SWAP1 PUSH1 0x20 ADD SWAP1 PUSH3 0x296 SWAP3 SWAP2 SWAP1 PUSH3 0x2C3 JUMP JUMPDEST POP PUSH1 0x12 PUSH1 0x6 PUSH1 0x0 PUSH2 0x100 EXP DUP2 SLOAD DUP2 PUSH1 0xFF MUL NOT AND SWAP1 DUP4 PUSH1 0xFF AND MUL OR SWAP1 SSTORE POP POP POP PUSH3 0x369 JUMP JUMPDEST PUSH1 0x0 CALLER SWAP1 POP SWAP1 JUMP JUMPDEST DUP3 DUP1 SLOAD PUSH1 0x1 DUP2 PUSH1 0x1 AND ISZERO PUSH2 0x100 MUL SUB AND PUSH1 0x2 SWAP1 DIV SWAP1 PUSH1 0x0 MSTORE PUSH1 0x20 PUSH1 0x0 KECCAK256 SWAP1 PUSH1 0x1F ADD PUSH1 0x20 SWAP1 DIV DUP2 ADD SWAP3 DUP3 PUSH1 0x1F LT PUSH3 0x306 JUMPI DUP1 MLOAD PUSH1 0xFF NOT AND DUP4 DUP1 ADD OR DUP6 SSTORE PUSH3 0x337 JUMP JUMPDEST DUP3 DUP1 ADD PUSH1 0x1 ADD DUP6 SSTORE DUP3 ISZERO PUSH3 0x337 JUMPI SWAP2 DUP3 ADD JUMPDEST DUP3 DUP2 GT ISZERO PUSH3 0x336 JUMPI DUP3 MLOAD DUP3 SSTORE SWAP2 PUSH1 0x20 ADD SWAP2 SWAP1 PUSH1 0x1 ADD SWAP1 PUSH3 0x319 JUMP JUMPDEST JUMPDEST POP SWAP1 POP PUSH3 0x346 SWAP2 SWAP1 PUSH3 0x34A JUMP JUMPDEST POP SWAP1 JUMP JUMPDEST JUMPDEST DUP1 DUP3 GT ISZERO PUSH3 0x365 JUMPI PUSH1 0x0 DUP2 PUSH1 0x0 SWAP1 SSTORE POP PUSH1 0x1 ADD PUSH3 0x34B JUMP JUMPDEST POP SWAP1 JUMP JUMPDEST PUSH2 0x18C6 DUP1 PUSH3 0x379 PUSH1 0x0 CODECOPY PUSH1 0x0 RETURN INVALID PUSH1 0x80 PUSH1 0x40 MSTORE CALLVALUE DUP1 ISZERO PUSH2 0x10 JUMPI PUSH1 0x0 DUP1 REVERT JUMPDEST POP PUSH1 0x4 CALLDATASIZE LT PUSH2 0x100 JUMPI PUSH1 0x0 CALLDATALOAD PUSH1 0xE0 SHR DUP1 PUSH4 0x893D20E8 GT PUSH2 0x97 JUMPI DUP1 PUSH4 0xA457C2D7 GT PUSH2 0x66 JUMPI DUP1 PUSH4 0xA457C2D7 EQ PUSH2 0x4A4 JUMPI DUP1 PUSH4 0xA9059CBB EQ PUSH2 0x508 JUMPI DUP1 PUSH4 0xDD62ED3E EQ PUSH2 0x56C JUMPI DUP1 PUSH4 0xF2FDE38B EQ PUSH2 0x5E4 JUMPI PUSH2 0x100 JUMP JUMPDEST DUP1 PUSH4 0x893D20E8 EQ PUSH2 0x375 JUMPI DUP1 PUSH4 0x8DA5CB5B EQ PUSH2 0x3A9 JUMPI DUP1 PUSH4 0x95D89B41 EQ PUSH2 0x3DD JUMPI DUP1 PUSH4 0xA0712D68 EQ PUSH2 0x460 JUMPI PUSH2 0x100 JUMP JUMPDEST DUP1 PUSH4 0x313CE567 GT PUSH2 0xD3 JUMPI DUP1 PUSH4 0x313CE567 EQ PUSH2 0x28E JUMPI DUP1 PUSH4 0x39509351 EQ PUSH2 0x2AF JUMPI DUP1 PUSH4 0x70A08231 EQ PUSH2 0x313 JUMPI DUP1 PUSH4 0x715018A6 EQ PUSH2 0x36B JUMPI PUSH2 0x100 JUMP JUMPDEST DUP1 PUSH4 0x6FDDE03 EQ PUSH2 0x105 JUMPI DUP1 PUSH4 0x95EA7B3 EQ PUSH2 0x188 JUMPI DUP1 PUSH4 0x18160DDD EQ PUSH2 0x1EC JUMPI DUP1 PUSH4 0x23B872DD EQ PUSH2 0x20A JUMPI JUMPDEST PUSH1 0x0 DUP1 REVERT JUMPDEST PUSH2 0x10D PUSH2 0x628 JUMP JUMPDEST PUSH1 0x40 MLOAD DUP1 DUP1 PUSH1 0x20 ADD DUP3 DUP2 SUB DUP3 MSTORE DUP4 DUP2 DUP2 MLOAD DUP2 MSTORE PUSH1 0x20 ADD SWAP2 POP DUP1 MLOAD SWAP1 PUSH1 0x20 ADD SWAP1 DUP1 DUP4 DUP4 PUSH1 0x0 JUMPDEST DUP4 DUP2 LT ISZERO PUSH2 0x14D JUMPI DUP1 DUP3 ADD MLOAD DUP2 DUP5 ADD MSTORE PUSH1 0x20 DUP2 ADD SWAP1 POP PUSH2 0x132 JUMP JUMPDEST POP POP POP POP SWAP1 POP SWAP1 DUP2 ADD SWAP1 PUSH1 0x1F AND DUP1 ISZERO PUSH2 0x17A JUMPI DUP1 DUP3 SUB DUP1 MLOAD PUSH1 0x1 DUP4 PUSH1 0x20 SUB PUSH2 0x100 EXP SUB NOT AND DUP2 MSTORE PUSH1 0x20 ADD SWAP2 POP JUMPDEST POP SWAP3 POP POP POP PUSH1 0x40 MLOAD DUP1 SWAP2 SUB SWAP1 RETURN JUMPDEST PUSH2 0x1D4 PUSH1 0x4 DUP1 CALLDATASIZE SUB PUSH1 0x40 DUP2 LT ISZERO PUSH2 0x19E JUMPI PUSH1 0x0 DUP1 REVERT JUMPDEST DUP2 ADD SWAP1 DUP1 DUP1 CALLDATALOAD PUSH20 0xFFFFFFFFFFFFFFFFFFFFFFFFFFFFFFFFFFFFFFFF AND SWAP1 PUSH1 0x20 ADD SWAP1 SWAP3 SWAP2 SWAP1 DUP1 CALLDATALOAD SWAP1 PUSH1 0x20 ADD SWAP1 SWAP3 SWAP2 SWAP1 POP POP POP PUSH2 0x6CA JUMP JUMPDEST PUSH1 0x40 MLOAD DUP1 DUP3 ISZERO ISZERO DUP2 MSTORE PUSH1 0x20 ADD SWAP2 POP POP PUSH1 0x40 MLOAD DUP1 SWAP2 SUB SWAP1 RETURN JUMPDEST PUSH2 0x1F4 PUSH2 0x6E8 JUMP JUMPDEST PUSH1 0x40 MLOAD DUP1 DUP3 DUP2 MSTORE PUSH1 0x20 ADD SWAP2 POP POP PUSH1 0x40 MLOAD DUP1 SWAP2 SUB SWAP1 RETURN JUMPDEST PUSH2 0x276 PUSH1 0x4 DUP1 CALLDATASIZE SUB PUSH1 0x60 DUP2 LT ISZERO PUSH2 0x220 JUMPI PUSH1 0x0 DUP1 REVERT JUMPDEST DUP2 ADD SWAP1 DUP1 DUP1 CALLDATALOAD PUSH20 0xFFFFFFFFFFFFFFFFFFFFFFFFFFFFFFFFFFFFFFFF AND SWAP1 PUSH1 0x20 ADD SWAP1 SWAP3 SWAP2 SWAP1 DUP1 CALLDATALOAD PUSH20 0xFFFFFFFFFFFFFFFFFFFFFFFFFFFFFFFFFFFFFFFF AND SWAP1 PUSH1 0x20 ADD SWAP1 SWAP3 SWAP2 SWAP1 DUP1 CALLDATALOAD SWAP1 PUSH1 0x20 ADD SWAP1 SWAP3 SWAP2 SWAP1 POP POP POP PUSH2 0x6F2 JUMP JUMPDEST PUSH1 0x40 MLOAD DUP1 DUP3 ISZERO ISZERO DUP2 MSTORE PUSH1 0x20 ADD SWAP2 POP POP PUSH1 0x40 MLOAD DUP1 SWAP2 SUB SWAP1 RETURN JUMPDEST PUSH2 0x296 PUSH2 0x7CB JUMP JUMPDEST PUSH1 0x40 MLOAD DUP1 DUP3 PUSH1 0xFF AND DUP2 MSTORE PUSH1 0x20 ADD SWAP2 POP POP PUSH1 0x40 MLOAD DUP1 SWAP2 SUB SWAP1 RETURN JUMPDEST PUSH2 0x2FB PUSH1 0x4 DUP1 CALLDATASIZE SUB PUSH1 0x40 DUP2 LT ISZERO PUSH2 0x2C5 JUMPI PUSH1 0x0 DUP1 REVERT JUMPDEST DUP2 ADD SWAP1 DUP1 DUP1 CALLDATALOAD PUSH20 0xFFFFFFFFFFFFFFFFFFFFFFFFFFFFFFFFFFFFFFFF AND SWAP1 PUSH1 0x20 ADD SWAP1 SWAP3 SWAP2 SWAP1 DUP1 CALLDATALOAD SWAP1 PUSH1 0x20 ADD SWAP1 SWAP3 SWAP2 SWAP1 POP POP POP PUSH2 0x7E2 JUMP JUMPDEST PUSH1 0x40 MLOAD DUP1 DUP3 ISZERO ISZERO DUP2 MSTORE PUSH1 0x20 ADD SWAP2 POP POP PUSH1 0x40 MLOAD DUP1 SWAP2 SUB SWAP1 RETURN JUMPDEST PUSH2 0x355 PUSH1 0x4 DUP1 CALLDATASIZE SUB PUSH1 0x20 DUP2 LT ISZERO PUSH2 0x329 JUMPI PUSH1 0x0 DUP1 REVERT JUMPDEST DUP2 ADD SWAP1 DUP1 DUP1 CALLDATALOAD PUSH20 0xFFFFFFFFFFFFFFFFFFFFFFFFFFFFFFFFFFFFFFFF AND SWAP1 PUSH1 0x20 ADD SWAP1 SWAP3 SWAP2 SWAP1 POP POP POP PUSH2 0x895 JUMP JUMPDEST PUSH1 0x40 MLOAD DUP1 DUP3 DUP2 MSTORE PUSH1 0x20 ADD SWAP2 POP POP PUSH1 0x40 MLOAD DUP1 SWAP2 SUB SWAP1 RETURN JUMPDEST PUSH2 0x373 PUSH2 0x8DE JUMP JUMPDEST STOP JUMPDEST PUSH2 0x37D PUSH2 0xA64 JUMP JUMPDEST PUSH1 0x40 MLOAD DUP1 DUP3 PUSH20 0xFFFFFFFFFFFFFFFFFFFFFFFFFFFFFFFFFFFFFFFF AND DUP2 MSTORE PUSH1 0x20 ADD SWAP2 POP POP PUSH1 0x40 MLOAD DUP1 SWAP2 SUB SWAP1 RETURN JUMPDEST PUSH2 0x3B1 PUSH2 0xA73 JUMP JUMPDEST PUSH1 0x40 MLOAD DUP1 DUP3 PUSH20 0xFFFFFFFFFFFFFFFFFFFFFFFFFFFFFFFFFFFFFFFF AND DUP2 MSTORE PUSH1 0x20 ADD SWAP2 POP POP PUSH1 0x40 MLOAD DUP1 SWAP2 SUB SWAP1 RETURN JUMPDEST PUSH2 0x3E5 PUSH2 0xA9C JUMP JUMPDEST PUSH1 0x40 MLOAD DUP1 DUP1 PUSH1 0x20 ADD DUP3 DUP2 SUB DUP3 MSTORE DUP4 DUP2 DUP2 MLOAD DUP2 MSTORE PUSH1 0x20 ADD SWAP2 POP DUP1 MLOAD SWAP1 PUSH1 0x20 ADD SWAP1 DUP1 DUP4 DUP4 PUSH1 0x0 JUMPDEST DUP4 DUP2 LT ISZERO PUSH2 0x425 JUMPI DUP1 DUP3 ADD MLOAD DUP2 DUP5 ADD MSTORE PUSH1 0x20 DUP2 ADD SWAP1 POP PUSH2 0x40A JUMP JUMPDEST POP POP POP POP SWAP1 POP SWAP1 DUP2 ADD SWAP1 PUSH1 0x1F AND DUP1 ISZERO PUSH2 0x452 JUMPI DUP1 DUP3 SUB DUP1 MLOAD PUSH1 0x1 DUP4 PUSH1 0x20 SUB PUSH2 0x100 EXP SUB NOT AND DUP2 MSTORE PUSH1 0x20 ADD SWAP2 POP JUMPDEST POP SWAP3 POP POP POP PUSH1 0x40 MLOAD DUP1 SWAP2 SUB SWAP1 RETURN JUMPDEST PUSH2 0x48C PUSH1 0x4 DUP1 CALLDATASIZE SUB PUSH1 0x20 DUP2 LT ISZERO PUSH2 0x476 JUMPI PUSH1 0x0 DUP1 REVERT JUMPDEST DUP2 ADD SWAP1 DUP1 DUP1 CALLDATALOAD SWAP1 PUSH1 0x20 ADD SWAP1 SWAP3 SWAP2 SWAP1 POP POP POP PUSH2 0xB3E JUMP JUMPDEST PUSH1 0x40 MLOAD DUP1 DUP3 ISZERO ISZERO DUP2 MSTORE PUSH1 0x20 ADD SWAP2 POP POP PUSH1 0x40 MLOAD DUP1 SWAP2 SUB SWAP1 RETURN JUMPDEST PUSH2 0x4F0 PUSH1 0x4 DUP1 CALLDATASIZE SUB PUSH1 0x40 DUP2 LT ISZERO PUSH2 0x4BA JUMPI PUSH1 0x0 DUP1 REVERT JUMPDEST DUP2 ADD SWAP1 DUP1 DUP1 CALLDATALOAD PUSH20 0xFFFFFFFFFFFFFFFFFFFFFFFFFFFFFFFFFFFFFFFF AND SWAP1 PUSH1 0x20 ADD SWAP1 SWAP3 SWAP2 SWAP1 DUP1 CALLDATALOAD SWAP1 PUSH1 0x20 ADD SWAP1 SWAP3 SWAP2 SWAP1 POP POP POP PUSH2 0xC22 JUMP JUMPDEST PUSH1 0x40 MLOAD DUP1 DUP3 ISZERO ISZERO DUP2 MSTORE PUSH1 0x20 ADD SWAP2 POP POP PUSH1 0x40 MLOAD DUP1 SWAP2 SUB SWAP1 RETURN JUMPDEST PUSH2 0x554 PUSH1 0x4 DUP1 CALLDATASIZE SUB PUSH1 0x40 DUP2 LT ISZERO PUSH2 0x51E JUMPI PUSH1 0x0 DUP1 REVERT JUMPDEST DUP2 ADD SWAP1 DUP1 DUP1 CALLDATALOAD PUSH20 0xFFFFFFFFFFFFFFFFFFFFFFFFFFFFFFFFFFFFFFFF AND SWAP1 PUSH1 0x20 ADD SWAP1 SWAP3 SWAP2 SWAP1 DUP1 CALLDATALOAD SWAP1 PUSH1 0x20 ADD SWAP1 SWAP3 SWAP2 SWAP1 POP POP POP PUSH2 0xCEF JUMP JUMPDEST PUSH1 0x40 MLOAD DUP1 DUP3 ISZERO ISZERO DUP2 MSTORE PUSH1 0x20 ADD SWAP2 POP POP PUSH1 0x40 MLOAD DUP1 SWAP2 SUB SWAP1 RETURN JUMPDEST PUSH2 0x5CE PUSH1 0x4 DUP1 CALLDATASIZE SUB PUSH1 0x40 DUP2 LT ISZERO PUSH2 0x582 JUMPI PUSH1 0x0 DUP1 REVERT JUMPDEST DUP2 ADD SWAP1 DUP1 DUP1 CALLDATALOAD PUSH20 0xFFFFFFFFFFFFFFFFFFFFFFFFFFFFFFFFFFFFFFFF AND SWAP1 PUSH1 0x20 ADD SWAP1 SWAP3 SWAP2 SWAP1 DUP1 CALLDATALOAD PUSH20 0xFFFFFFFFFFFFFFFFFFFFFFFFFFFFFFFFFFFFFFFF AND SWAP1 PUSH1 0x20 ADD SWAP1 SWAP3 SWAP2 SWAP1 POP POP POP PUSH2 0xD0D JUMP JUMPDEST PUSH1 0x40 MLOAD DUP1 DUP3 DUP2 MSTORE PUSH1 0x20 ADD SWAP2 POP POP PUSH1 0x40 MLOAD DUP1 SWAP2 SUB SWAP1 RETURN JUMPDEST PUSH2 0x626 PUSH1 0x4 DUP1 CALLDATASIZE SUB PUSH1 0x20 DUP2 LT ISZERO PUSH2 0x5FA JUMPI PUSH1 0x0 DUP1 REVERT JUMPDEST DUP2 ADD SWAP1 DUP1 DUP1 CALLDATALOAD PUSH20 0xFFFFFFFFFFFFFFFFFFFFFFFFFFFFFFFFFFFFFFFF AND SWAP1 PUSH1 0x20 ADD SWAP1 SWAP3 SWAP2 SWAP1 POP POP POP PUSH2 0xD94 JUMP JUMPDEST STOP JUMPDEST PUSH1 0x60 PUSH1 0x4 DUP1 SLOAD PUSH1 0x1 DUP2 PUSH1 0x1 AND ISZERO PUSH2 0x100 MUL SUB AND PUSH1 0x2 SWAP1 DIV DUP1 PUSH1 0x1F ADD PUSH1 0x20 DUP1 SWAP2 DIV MUL PUSH1 0x20 ADD PUSH1 0x40 MLOAD SWAP1 DUP2 ADD PUSH1 0x40 MSTORE DUP1 SWAP3 SWAP2 SWAP1 DUP2 DUP2 MSTORE PUSH1 0x20 ADD DUP3 DUP1 SLOAD PUSH1 0x1 DUP2 PUSH1 0x1 AND ISZERO PUSH2 0x100 MUL SUB AND PUSH1 0x2 SWAP1 DIV DUP1 ISZERO PUSH2 0x6C0 JUMPI DUP1 PUSH1 0x1F LT PUSH2 0x695 JUMPI PUSH2 0x100 DUP1 DUP4 SLOAD DIV MUL DUP4 MSTORE SWAP2 PUSH1 0x20 ADD SWAP2 PUSH2 0x6C0 JUMP JUMPDEST DUP3 ADD SWAP2 SWAP1 PUSH1 0x0 MSTORE PUSH1 0x20 PUSH1 0x0 KECCAK256 SWAP1 JUMPDEST DUP2 SLOAD DUP2 MSTORE SWAP1 PUSH1 0x1 ADD SWAP1 PUSH1 0x20 ADD DUP1 DUP4 GT PUSH2 0x6A3 JUMPI DUP3 SWAP1 SUB PUSH1 0x1F AND DUP3 ADD SWAP2 JUMPDEST POP POP POP POP POP SWAP1 POP SWAP1 JUMP JUMPDEST PUSH1 0x0 PUSH2 0x6DE PUSH2 0x6D7 PUSH2 0xE68 JUMP JUMPDEST DUP5 DUP5 PUSH2 0xE70 JUMP JUMPDEST PUSH1 0x1 SWAP1 POP SWAP3 SWAP2 POP POP JUMP JUMPDEST PUSH1 0x0 PUSH1 0x3 SLOAD SWAP1 POP SWAP1 JUMP JUMPDEST PUSH1 0x0 PUSH2 0x6FF DUP5 DUP5 DUP5 PUSH2 0x1067 JUMP JUMPDEST PUSH2 0x7C0 DUP5 PUSH2 0x70B PUSH2 0xE68 JUMP JUMPDEST PUSH2 0x7BB DUP6 PUSH1 0x40 MLOAD DUP1 PUSH1 0x60 ADD PUSH1 0x40 MSTORE DUP1 PUSH1 0x28 DUP2 MSTORE PUSH1 0x20 ADD PUSH2 0x17D9 PUSH1 0x28 SWAP2 CODECOPY PUSH1 0x2 PUSH1 0x0 DUP12 PUSH20 0xFFFFFFFFFFFFFFFFFFFFFFFFFFFFFFFFFFFFFFFF AND PUSH20 0xFFFFFFFFFFFFFFFFFFFFFFFFFFFFFFFFFFFFFFFF AND DUP2 MSTORE PUSH1 0x20 ADD SWAP1 DUP2 MSTORE PUSH1 0x20 ADD PUSH1 0x0 KECCAK256 PUSH1 0x0 PUSH2 0x771 PUSH2 0xE68 JUMP JUMPDEST PUSH20 0xFFFFFFFFFFFFFFFFFFFFFFFFFFFFFFFFFFFFFFFF AND PUSH20 0xFFFFFFFFFFFFFFFFFFFFFFFFFFFFFFFFFFFFFFFF AND DUP2 MSTORE PUSH1 0x20 ADD SWAP1 DUP2 MSTORE PUSH1 0x20 ADD PUSH1 0x0 KECCAK256 SLOAD PUSH2 0x1321 SWAP1 SWAP3 SWAP2 SWAP1 PUSH4 0xFFFFFFFF AND JUMP JUMPDEST PUSH2 0xE70 JUMP JUMPDEST PUSH1 0x1 SWAP1 POP SWAP4 SWAP3 POP POP POP JUMP JUMPDEST PUSH1 0x0 PUSH1 0x6 PUSH1 0x0 SWAP1 SLOAD SWAP1 PUSH2 0x100 EXP SWAP1 DIV PUSH1 0xFF AND SWAP1 POP SWAP1 JUMP JUMPDEST PUSH1 0x0 PUSH2 0x88B PUSH2 0x7EF PUSH2 0xE68 JUMP JUMPDEST DUP5 PUSH2 0x886 DUP6 PUSH1 0x2 PUSH1 0x0 PUSH2 0x800 PUSH2 0xE68 JUMP JUMPDEST PUSH20 0xFFFFFFFFFFFFFFFFFFFFFFFFFFFFFFFFFFFFFFFF AND PUSH20 0xFFFFFFFFFFFFFFFFFFFFFFFFFFFFFFFFFFFFFFFF AND DUP2 MSTORE PUSH1 0x20 ADD SWAP1 DUP2 MSTORE PUSH1 0x20 ADD PUSH1 0x0 KECCAK256 PUSH1 0x0 DUP10 PUSH20 0xFFFFFFFFFFFFFFFFFFFFFFFFFFFFFFFFFFFFFFFF AND PUSH20 0xFFFFFFFFFFFFFFFFFFFFFFFFFFFFFFFFFFFFFFFF AND DUP2 MSTORE PUSH1 0x20 ADD SWAP1 DUP2 MSTORE PUSH1 0x20 ADD PUSH1 0x0 KECCAK256 SLOAD PUSH2 0x13E1 SWAP1 SWAP2 SWAP1 PUSH4 0xFFFFFFFF AND JUMP JUMPDEST PUSH2 0xE70 JUMP JUMPDEST PUSH1 0x1 SWAP1 POP SWAP3 SWAP2 POP POP JUMP JUMPDEST PUSH1 0x0 PUSH1 0x1 PUSH1 0x0 DUP4 PUSH20 0xFFFFFFFFFFFFFFFFFFFFFFFFFFFFFFFFFFFFFFFF AND PUSH20 0xFFFFFFFFFFFFFFFFFFFFFFFFFFFFFFFFFFFFFFFF AND DUP2 MSTORE PUSH1 0x20 ADD SWAP1 DUP2 MSTORE PUSH1 0x20 ADD PUSH1 0x0 KECCAK256 SLOAD SWAP1 POP SWAP2 SWAP1 POP JUMP JUMPDEST PUSH2 0x8E6 PUSH2 0xE68 JUMP JUMPDEST PUSH20 0xFFFFFFFFFFFFFFFFFFFFFFFFFFFFFFFFFFFFFFFF AND PUSH1 0x0 DUP1 SLOAD SWAP1 PUSH2 0x100 EXP SWAP1 DIV PUSH20 0xFFFFFFFFFFFFFFFFFFFFFFFFFFFFFFFFFFFFFFFF AND PUSH20 0xFFFFFFFFFFFFFFFFFFFFFFFFFFFFFFFFFFFFFFFF AND EQ PUSH2 0x9A6 JUMPI PUSH1 0x40 MLOAD PUSH32 0x8C379A000000000000000000000000000000000000000000000000000000000 DUP2 MSTORE PUSH1 0x4 ADD DUP1 DUP1 PUSH1 0x20 ADD DUP3 DUP2 SUB DUP3 MSTORE PUSH1 0x20 DUP2 MSTORE PUSH1 0x20 ADD DUP1 PUSH32 0x4F776E61626C653A2063616C6C6572206973206E6F7420746865206F776E6572 DUP2 MSTORE POP PUSH1 0x20 ADD SWAP2 POP POP PUSH1 0x40 MLOAD DUP1 SWAP2 SUB SWAP1 REVERT JUMPDEST PUSH1 0x0 PUSH20 0xFFFFFFFFFFFFFFFFFFFFFFFFFFFFFFFFFFFFFFFF AND PUSH1 0x0 DUP1 SLOAD SWAP1 PUSH2 0x100 EXP SWAP1 DIV PUSH20 0xFFFFFFFFFFFFFFFFFFFFFFFFFFFFFFFFFFFFFFFF AND PUSH20 0xFFFFFFFFFFFFFFFFFFFFFFFFFFFFFFFFFFFFFFFF AND PUSH32 0x8BE0079C531659141344CD1FD0A4F28419497F9722A3DAAFE3B4186F6B6457E0 PUSH1 0x40 MLOAD PUSH1 0x40 MLOAD DUP1 SWAP2 SUB SWAP1 LOG3 PUSH1 0x0 DUP1 PUSH1 0x0 PUSH2 0x100 EXP DUP2 SLOAD DUP2 PUSH20 0xFFFFFFFFFFFFFFFFFFFFFFFFFFFFFFFFFFFFFFFF MUL NOT AND SWAP1 DUP4 PUSH20 0xFFFFFFFFFFFFFFFFFFFFFFFFFFFFFFFFFFFFFFFF AND MUL OR SWAP1 SSTORE POP JUMP JUMPDEST PUSH1 0x0 PUSH2 0xA6E PUSH2 0xA73 JUMP JUMPDEST SWAP1 POP SWAP1 JUMP JUMPDEST PUSH1 0x0 DUP1 PUSH1 0x0 SWAP1 SLOAD SWAP1 PUSH2 0x100 EXP SWAP1 DIV PUSH20 0xFFFFFFFFFFFFFFFFFFFFFFFFFFFFFFFFFFFFFFFF AND SWAP1 POP SWAP1 JUMP JUMPDEST PUSH1 0x60 PUSH1 0x5 DUP1 SLOAD PUSH1 0x1 DUP2 PUSH1 0x1 AND ISZERO PUSH2 0x100 MUL SUB AND PUSH1 0x2 SWAP1 DIV DUP1 PUSH1 0x1F ADD PUSH1 0x20 DUP1 SWAP2 DIV MUL PUSH1 0x20 ADD PUSH1 0x40 MLOAD SWAP1 DUP2 ADD PUSH1 0x40 MSTORE DUP1 SWAP3 SWAP2 SWAP1 DUP2 DUP2 MSTORE PUSH1 0x20 ADD DUP3 DUP1 SLOAD PUSH1 0x1 DUP2 PUSH1 0x1 AND ISZERO PUSH2 0x100 MUL SUB AND PUSH1 0x2 SWAP1 DIV DUP1 ISZERO PUSH2 0xB34 JUMPI DUP1 PUSH1 0x1F LT PUSH2 0xB09 JUMPI PUSH2 0x100 DUP1 DUP4 SLOAD DIV MUL DUP4 MSTORE SWAP2 PUSH1 0x20 ADD SWAP2 PUSH2 0xB34 JUMP JUMPDEST DUP3 ADD SWAP2 SWAP1 PUSH1 0x0 MSTORE PUSH1 0x20 PUSH1 0x0 KECCAK256 SWAP1 JUMPDEST DUP2 SLOAD DUP2 MSTORE SWAP1 PUSH1 0x1 ADD SWAP1 PUSH1 0x20 ADD DUP1 DUP4 GT PUSH2 0xB17 JUMPI DUP3 SWAP1 SUB PUSH1 0x1F AND DUP3 ADD SWAP2 JUMPDEST POP POP POP POP POP SWAP1 POP SWAP1 JUMP JUMPDEST PUSH1 0x0 PUSH2 0xB48 PUSH2 0xE68 JUMP JUMPDEST PUSH20 0xFFFFFFFFFFFFFFFFFFFFFFFFFFFFFFFFFFFFFFFF AND PUSH1 0x0 DUP1 SLOAD SWAP1 PUSH2 0x100 EXP SWAP1 DIV PUSH20 0xFFFFFFFFFFFFFFFFFFFFFFFFFFFFFFFFFFFFFFFF AND PUSH20 0xFFFFFFFFFFFFFFFFFFFFFFFFFFFFFFFFFFFFFFFF AND EQ PUSH2 0xC08 JUMPI PUSH1 0x40 MLOAD PUSH32 0x8C379A000000000000000000000000000000000000000000000000000000000 DUP2 MSTORE PUSH1 0x4 ADD DUP1 DUP1 PUSH1 0x20 ADD DUP3 DUP2 SUB DUP3 MSTORE PUSH1 0x20 DUP2 MSTORE PUSH1 0x20 ADD DUP1 PUSH32 0x4F776E61626C653A2063616C6C6572206973206E6F7420746865206F776E6572 DUP2 MSTORE POP PUSH1 0x20 ADD SWAP2 POP POP PUSH1 0x40 MLOAD DUP1 SWAP2 SUB SWAP1 REVERT JUMPDEST PUSH2 0xC19 PUSH2 0xC13 PUSH2 0xE68 JUMP JUMPDEST DUP4 PUSH2 0x1469 JUMP JUMPDEST PUSH1 0x1 SWAP1 POP SWAP2 SWAP1 POP JUMP JUMPDEST PUSH1 0x0 PUSH2 0xCE5 PUSH2 0xC2F PUSH2 0xE68 JUMP JUMPDEST DUP5 PUSH2 0xCE0 DUP6 PUSH1 0x40 MLOAD DUP1 PUSH1 0x60 ADD PUSH1 0x40 MSTORE DUP1 PUSH1 0x25 DUP2 MSTORE PUSH1 0x20 ADD PUSH2 0x184A PUSH1 0x25 SWAP2 CODECOPY PUSH1 0x2 PUSH1 0x0 PUSH2 0xC59 PUSH2 0xE68 JUMP JUMPDEST PUSH20 0xFFFFFFFFFFFFFFFFFFFFFFFFFFFFFFFFFFFFFFFF AND PUSH20 0xFFFFFFFFFFFFFFFFFFFFFFFFFFFFFFFFFFFFFFFF AND DUP2 MSTORE PUSH1 0x20 ADD SWAP1 DUP2 MSTORE PUSH1 0x20 ADD PUSH1 0x0 KECCAK256 PUSH1 0x0 DUP11 PUSH20 0xFFFFFFFFFFFFFFFFFFFFFFFFFFFFFFFFFFFFFFFF AND PUSH20 0xFFFFFFFFFFFFFFFFFFFFFFFFFFFFFFFFFFFFFFFF AND DUP2 MSTORE PUSH1 0x20 ADD SWAP1 DUP2 MSTORE PUSH1 0x20 ADD PUSH1 0x0 KECCAK256 SLOAD PUSH2 0x1321 SWAP1 SWAP3 SWAP2 SWAP1 PUSH4 0xFFFFFFFF AND JUMP JUMPDEST PUSH2 0xE70 JUMP JUMPDEST PUSH1 0x1 SWAP1 POP SWAP3 SWAP2 POP POP JUMP JUMPDEST PUSH1 0x0 PUSH2 0xD03 PUSH2 0xCFC PUSH2 0xE68 JUMP JUMPDEST DUP5 DUP5 PUSH2 0x1067 JUMP JUMPDEST PUSH1 0x1 SWAP1 POP SWAP3 SWAP2 POP POP JUMP JUMPDEST PUSH1 0x0 PUSH1 0x2 PUSH1 0x0 DUP5 PUSH20 0xFFFFFFFFFFFFFFFFFFFFFFFFFFFFFFFFFFFFFFFF AND PUSH20 0xFFFFFFFFFFFFFFFFFFFFFFFFFFFFFFFFFFFFFFFF AND DUP2 MSTORE PUSH1 0x20 ADD SWAP1 DUP2 MSTORE PUSH1 0x20 ADD PUSH1 0x0 KECCAK256 PUSH1 0x0 DUP4 PUSH20 0xFFFFFFFFFFFFFFFFFFFFFFFFFFFFFFFFFFFFFFFF AND PUSH20 0xFFFFFFFFFFFFFFFFFFFFFFFFFFFFFFFFFFFFFFFF AND DUP2 MSTORE PUSH1 0x20 ADD SWAP1 DUP2 MSTORE PUSH1 0x20 ADD PUSH1 0x0 KECCAK256 SLOAD SWAP1 POP SWAP3 SWAP2 POP POP JUMP JUMPDEST PUSH2 0xD9C PUSH2 0xE68 JUMP JUMPDEST PUSH20 0xFFFFFFFFFFFFFFFFFFFFFFFFFFFFFFFFFFFFFFFF AND PUSH1 0x0 DUP1 SLOAD SWAP1 PUSH2 0x100 EXP SWAP1 DIV PUSH20 0xFFFFFFFFFFFFFFFFFFFFFFFFFFFFFFFFFFFFFFFF AND PUSH20 0xFFFFFFFFFFFFFFFFFFFFFFFFFFFFFFFFFFFFFFFF AND EQ PUSH2 0xE5C JUMPI PUSH1 0x40 MLOAD PUSH32 0x8C379A000000000000000000000000000000000000000000000000000000000 DUP2 MSTORE PUSH1 0x4 ADD DUP1 DUP1 PUSH1 0x20 ADD DUP3 DUP2 SUB DUP3 MSTORE PUSH1 0x20 DUP2 MSTORE PUSH1 0x20 ADD DUP1 PUSH32 0x4F776E61626C653A2063616C6C6572206973206E6F7420746865206F776E6572 DUP2 MSTORE POP PUSH1 0x20 ADD SWAP2 POP POP PUSH1 0x40 MLOAD DUP1 SWAP2 SUB SWAP1 REVERT JUMPDEST PUSH2 0xE65 DUP2 PUSH2 0x1626 JUMP JUMPDEST POP JUMP JUMPDEST PUSH1 0x0 CALLER SWAP1 POP SWAP1 JUMP JUMPDEST PUSH1 0x0 PUSH20 0xFFFFFFFFFFFFFFFFFFFFFFFFFFFFFFFFFFFFFFFF AND DUP4 PUSH20 0xFFFFFFFFFFFFFFFFFFFFFFFFFFFFFFFFFFFFFFFF AND EQ ISZERO PUSH2 0xEF6 JUMPI PUSH1 0x40 MLOAD PUSH32 0x8C379A000000000000000000000000000000000000000000000000000000000 DUP2 MSTORE PUSH1 0x4 ADD DUP1 DUP1 PUSH1 0x20 ADD DUP3 DUP2 SUB DUP3 MSTORE PUSH1 0x24 DUP2 MSTORE PUSH1 0x20 ADD DUP1 PUSH2 0x178F PUSH1 0x24 SWAP2 CODECOPY PUSH1 0x40 ADD SWAP2 POP POP PUSH1 0x40 MLOAD DUP1 SWAP2 SUB SWAP1 REVERT JUMPDEST PUSH1 0x0 PUSH20 0xFFFFFFFFFFFFFFFFFFFFFFFFFFFFFFFFFFFFFFFF AND DUP3 PUSH20 0xFFFFFFFFFFFFFFFFFFFFFFFFFFFFFFFFFFFFFFFF AND EQ ISZERO PUSH2 0xF7C JUMPI PUSH1 0x40 MLOAD PUSH32 0x8C379A000000000000000000000000000000000000000000000000000000000 DUP2 MSTORE PUSH1 0x4 ADD DUP1 DUP1 PUSH1 0x20 ADD DUP3 DUP2 SUB DUP3 MSTORE PUSH1 0x22 DUP2 MSTORE PUSH1 0x20 ADD DUP1 PUSH2 0x186F PUSH1 0x22 SWAP2 CODECOPY PUSH1 0x40 ADD SWAP2 POP POP PUSH1 0x40 MLOAD DUP1 SWAP2 SUB SWAP1 REVERT JUMPDEST DUP1 PUSH1 0x2 PUSH1 0x0 DUP6 PUSH20 0xFFFFFFFFFFFFFFFFFFFFFFFFFFFFFFFFFFFFFFFF AND PUSH20 0xFFFFFFFFFFFFFFFFFFFFFFFFFFFFFFFFFFFFFFFF AND DUP2 MSTORE PUSH1 0x20 ADD SWAP1 DUP2 MSTORE PUSH1 0x20 ADD PUSH1 0x0 KECCAK256 PUSH1 0x0 DUP5 PUSH20 0xFFFFFFFFFFFFFFFFFFFFFFFFFFFFFFFFFFFFFFFF AND PUSH20 0xFFFFFFFFFFFFFFFFFFFFFFFFFFFFFFFFFFFFFFFF AND DUP2 MSTORE PUSH1 0x20 ADD SWAP1 DUP2 MSTORE PUSH1 0x20 ADD PUSH1 0x0 KECCAK256 DUP2 SWAP1 SSTORE POP DUP2 PUSH20 0xFFFFFFFFFFFFFFFFFFFFFFFFFFFFFFFFFFFFFFFF AND DUP4 PUSH20 0xFFFFFFFFFFFFFFFFFFFFFFFFFFFFFFFFFFFFFFFF AND PUSH32 0x8C5BE1E5EBEC7D5BD14F71427D1E84F3DD0314C0F7B2291E5B200AC8C7C3B925 DUP4 PUSH1 0x40 MLOAD DUP1 DUP3 DUP2 MSTORE PUSH1 0x20 ADD SWAP2 POP POP PUSH1 0x40 MLOAD DUP1 SWAP2 SUB SWAP1 LOG3 POP POP POP JUMP JUMPDEST PUSH1 0x0 PUSH20 0xFFFFFFFFFFFFFFFFFFFFFFFFFFFFFFFFFFFFFFFF AND DUP4 PUSH20 0xFFFFFFFFFFFFFFFFFFFFFFFFFFFFFFFFFFFFFFFF AND EQ ISZERO PUSH2 0x10ED JUMPI PUSH1 0x40 MLOAD PUSH32 0x8C379A000000000000000000000000000000000000000000000000000000000 DUP2 MSTORE PUSH1 0x4 ADD DUP1 DUP1 PUSH1 0x20 ADD DUP3 DUP2 SUB DUP3 MSTORE PUSH1 0x25 DUP2 MSTORE PUSH1 0x20 ADD DUP1 PUSH2 0x176A PUSH1 0x25 SWAP2 CODECOPY PUSH1 0x40 ADD SWAP2 POP POP PUSH1 0x40 MLOAD DUP1 SWAP2 SUB SWAP1 REVERT JUMPDEST PUSH1 0x0 PUSH20 0xFFFFFFFFFFFFFFFFFFFFFFFFFFFFFFFFFFFFFFFF AND DUP3 PUSH20 0xFFFFFFFFFFFFFFFFFFFFFFFFFFFFFFFFFFFFFFFF AND EQ ISZERO PUSH2 0x1173 JUMPI PUSH1 0x40 MLOAD PUSH32 0x8C379A000000000000000000000000000000000000000000000000000000000 DUP2 MSTORE PUSH1 0x4 ADD DUP1 DUP1 PUSH1 0x20 ADD DUP3 DUP2 SUB DUP3 MSTORE PUSH1 0x23 DUP2 MSTORE PUSH1 0x20 ADD DUP1 PUSH2 0x1827 PUSH1 0x23 SWAP2 CODECOPY PUSH1 0x40 ADD SWAP2 POP POP PUSH1 0x40 MLOAD DUP1 SWAP2 SUB SWAP1 REVERT JUMPDEST PUSH2 0x11DF DUP2 PUSH1 0x40 MLOAD DUP1 PUSH1 0x60 ADD PUSH1 0x40 MSTORE DUP1 PUSH1 0x26 DUP2 MSTORE PUSH1 0x20 ADD PUSH2 0x1801 PUSH1 0x26 SWAP2 CODECOPY PUSH1 0x1 PUSH1 0x0 DUP8 PUSH20 0xFFFFFFFFFFFFFFFFFFFFFFFFFFFFFFFFFFFFFFFF AND PUSH20 0xFFFFFFFFFFFFFFFFFFFFFFFFFFFFFFFFFFFFFFFF AND DUP2 MSTORE PUSH1 0x20 ADD SWAP1 DUP2 MSTORE PUSH1 0x20 ADD PUSH1 0x0 KECCAK256 SLOAD PUSH2 0x1321 SWAP1 SWAP3 SWAP2 SWAP1 PUSH4 0xFFFFFFFF AND JUMP JUMPDEST PUSH1 0x1 PUSH1 0x0 DUP6 PUSH20 0xFFFFFFFFFFFFFFFFFFFFFFFFFFFFFFFFFFFFFFFF AND PUSH20 0xFFFFFFFFFFFFFFFFFFFFFFFFFFFFFFFFFFFFFFFF AND DUP2 MSTORE PUSH1 0x20 ADD SWAP1 DUP2 MSTORE PUSH1 0x20 ADD PUSH1 0x0 KECCAK256 DUP2 SWAP1 SSTORE POP PUSH2 0x1274 DUP2 PUSH1 0x1 PUSH1 0x0 DUP6 PUSH20 0xFFFFFFFFFFFFFFFFFFFFFFFFFFFFFFFFFFFFFFFF AND PUSH20 0xFFFFFFFFFFFFFFFFFFFFFFFFFFFFFFFFFFFFFFFF AND DUP2 MSTORE PUSH1 0x20 ADD SWAP1 DUP2 MSTORE PUSH1 0x20 ADD PUSH1 0x0 KECCAK256 SLOAD PUSH2 0x13E1 SWAP1 SWAP2 SWAP1 PUSH4 0xFFFFFFFF AND JUMP JUMPDEST PUSH1 0x1 PUSH1 0x0 DUP5 PUSH20 0xFFFFFFFFFFFFFFFFFFFFFFFFFFFFFFFFFFFFFFFF AND PUSH20 0xFFFFFFFFFFFFFFFFFFFFFFFFFFFFFFFFFFFFFFFF AND DUP2 MSTORE PUSH1 0x20 ADD SWAP1 DUP2 MSTORE PUSH1 0x20 ADD PUSH1 0x0 KECCAK256 DUP2 SWAP1 SSTORE POP DUP2 PUSH20 0xFFFFFFFFFFFFFFFFFFFFFFFFFFFFFFFFFFFFFFFF AND DUP4 PUSH20 0xFFFFFFFFFFFFFFFFFFFFFFFFFFFFFFFFFFFFFFFF AND PUSH32 0xDDF252AD1BE2C89B69C2B068FC378DAA952BA7F163C4A11628F55A4DF523B3EF DUP4 PUSH1 0x40 MLOAD DUP1 DUP3 DUP2 MSTORE PUSH1 0x20 ADD SWAP2 POP POP PUSH1 0x40 MLOAD DUP1 SWAP2 SUB SWAP1 LOG3 POP POP POP JUMP JUMPDEST PUSH1 0x0 DUP4 DUP4 GT ISZERO DUP3 SWAP1 PUSH2 0x13CE JUMPI PUSH1 0x40 MLOAD PUSH32 0x8C379A000000000000000000000000000000000000000000000000000000000 DUP2 MSTORE PUSH1 0x4 ADD DUP1 DUP1 PUSH1 0x20 ADD DUP3 DUP2 SUB DUP3 MSTORE DUP4 DUP2 DUP2 MLOAD DUP2 MSTORE PUSH1 0x20 ADD SWAP2 POP DUP1 MLOAD SWAP1 PUSH1 0x20 ADD SWAP1 DUP1 DUP4 DUP4 PUSH1 0x0 JUMPDEST DUP4 DUP2 LT ISZERO PUSH2 0x1393 JUMPI DUP1 DUP3 ADD MLOAD DUP2 DUP5 ADD MSTORE PUSH1 0x20 DUP2 ADD SWAP1 POP PUSH2 0x1378 JUMP JUMPDEST POP POP POP POP SWAP1 POP SWAP1 DUP2 ADD SWAP1 PUSH1 0x1F AND DUP1 ISZERO PUSH2 0x13C0 JUMPI DUP1 DUP3 SUB DUP1 MLOAD PUSH1 0x1 DUP4 PUSH1 0x20 SUB PUSH2 0x100 EXP SUB NOT AND DUP2 MSTORE PUSH1 0x20 ADD SWAP2 POP JUMPDEST POP SWAP3 POP POP POP PUSH1 0x40 MLOAD DUP1 SWAP2 SUB SWAP1 REVERT JUMPDEST POP PUSH1 0x0 DUP4 DUP6 SUB SWAP1 POP DUP1 SWAP2 POP POP SWAP4 SWAP3 POP POP POP JUMP JUMPDEST PUSH1 0x0 DUP1 DUP3 DUP5 ADD SWAP1 POP DUP4 DUP2 LT ISZERO PUSH2 0x145F JUMPI PUSH1 0x40 MLOAD PUSH32 0x8C379A000000000000000000000000000000000000000000000000000000000 DUP2 MSTORE PUSH1 0x4 ADD DUP1 DUP1 PUSH1 0x20 ADD DUP3 DUP2 SUB DUP3 MSTORE PUSH1 0x1B DUP2 MSTORE PUSH1 0x20 ADD DUP1 PUSH32 0x536166654D6174683A206164646974696F6E206F766572666C6F770000000000 DUP2 MSTORE POP PUSH1 0x20 ADD SWAP2 POP POP PUSH1 0x40 MLOAD DUP1 SWAP2 SUB SWAP1 REVERT JUMPDEST DUP1 SWAP2 POP POP SWAP3 SWAP2 POP POP JUMP JUMPDEST PUSH1 0x0 PUSH20 0xFFFFFFFFFFFFFFFFFFFFFFFFFFFFFFFFFFFFFFFF AND DUP3 PUSH20 0xFFFFFFFFFFFFFFFFFFFFFFFFFFFFFFFFFFFFFFFF AND EQ ISZERO PUSH2 0x150C JUMPI PUSH1 0x40 MLOAD PUSH32 0x8C379A000000000000000000000000000000000000000000000000000000000 DUP2 MSTORE PUSH1 0x4 ADD DUP1 DUP1 PUSH1 0x20 ADD DUP3 DUP2 SUB DUP3 MSTORE PUSH1 0x1F DUP2 MSTORE PUSH1 0x20 ADD DUP1 PUSH32 0x42455032303A206D696E7420746F20746865207A65726F206164647265737300 DUP2 MSTORE POP PUSH1 0x20 ADD SWAP2 POP POP PUSH1 0x40 MLOAD DUP1 SWAP2 SUB SWAP1 REVERT JUMPDEST PUSH2 0x1521 DUP2 PUSH1 0x3 SLOAD PUSH2 0x13E1 SWAP1 SWAP2 SWAP1 PUSH4 0xFFFFFFFF AND JUMP JUMPDEST PUSH1 0x3 DUP2 SWAP1 SSTORE POP PUSH2 0x1579 DUP2 PUSH1 0x1 PUSH1 0x0 DUP6 PUSH20 0xFFFFFFFFFFFFFFFFFFFFFFFFFFFFFFFFFFFFFFFF AND PUSH20 0xFFFFFFFFFFFFFFFFFFFFFFFFFFFFFFFFFFFFFFFF AND DUP2 MSTORE PUSH1 0x20 ADD SWAP1 DUP2 MSTORE PUSH1 0x20 ADD PUSH1 0x0 KECCAK256 SLOAD PUSH2 0x13E1 SWAP1 SWAP2 SWAP1 PUSH4 0xFFFFFFFF AND JUMP JUMPDEST PUSH1 0x1 PUSH1 0x0 DUP5 PUSH20 0xFFFFFFFFFFFFFFFFFFFFFFFFFFFFFFFFFFFFFFFF AND PUSH20 0xFFFFFFFFFFFFFFFFFFFFFFFFFFFFFFFFFFFFFFFF AND DUP2 MSTORE PUSH1 0x20 ADD SWAP1 DUP2 MSTORE PUSH1 0x20 ADD PUSH1 0x0 KECCAK256 DUP2 SWAP1 SSTORE POP DUP2 PUSH20 0xFFFFFFFFFFFFFFFFFFFFFFFFFFFFFFFFFFFFFFFF AND PUSH1 0x0 PUSH20 0xFFFFFFFFFFFFFFFFFFFFFFFFFFFFFFFFFFFFFFFF AND PUSH32 0xDDF252AD1BE2C89B69C2B068FC378DAA952BA7F163C4A11628F55A4DF523B3EF DUP4 PUSH1 0x40 MLOAD DUP1 DUP3 DUP2 MSTORE PUSH1 0x20 ADD SWAP2 POP POP PUSH1 0x40 MLOAD DUP1 SWAP2 SUB SWAP1 LOG3 POP POP JUMP JUMPDEST PUSH1 0x0 PUSH20 0xFFFFFFFFFFFFFFFFFFFFFFFFFFFFFFFFFFFFFFFF AND DUP2 PUSH20 0xFFFFFFFFFFFFFFFFFFFFFFFFFFFFFFFFFFFFFFFF AND EQ ISZERO PUSH2 0x16AC JUMPI PUSH1 0x40 MLOAD PUSH32 0x8C379A000000000000000000000000000000000000000000000000000000000 DUP2 MSTORE PUSH1 0x4 ADD DUP1 DUP1 PUSH1 0x20 ADD DUP3 DUP2 SUB DUP3 MSTORE PUSH1 0x26 DUP2 MSTORE PUSH1 0x20 ADD DUP1 PUSH2 0x17B3 PUSH1 0x26 SWAP2 CODECOPY PUSH1 0x40 ADD SWAP2 POP POP PUSH1 0x40 MLOAD DUP1 SWAP2 SUB SWAP1 REVERT JUMPDEST DUP1 PUSH20 0xFFFFFFFFFFFFFFFFFFFFFFFFFFFFFFFFFFFFFFFF AND PUSH1 0x0 DUP1 SLOAD SWAP1 PUSH2 0x100 EXP SWAP1 DIV PUSH20 0xFFFFFFFFFFFFFFFFFFFFFFFFFFFFFFFFFFFFFFFF AND PUSH20 0xFFFFFFFFFFFFFFFFFFFFFFFFFFFFFFFFFFFFFFFF AND PUSH32 0x8BE0079C531659141344CD1FD0A4F28419497F9722A3DAAFE3B4186F6B6457E0 PUSH1 0x40 MLOAD PUSH1 0x40 MLOAD DUP1 SWAP2 SUB SWAP1 LOG3 DUP1 PUSH1 0x0 DUP1 PUSH2 0x100 EXP DUP2 SLOAD DUP2 PUSH20 0xFFFFFFFFFFFFFFFFFFFFFFFFFFFFFFFFFFFFFFFF MUL NOT AND SWAP1 DUP4 PUSH20 0xFFFFFFFFFFFFFFFFFFFFFFFFFFFFFFFFFFFFFFFF AND MUL OR SWAP1 SSTORE POP POP JUMP INVALID TIMESTAMP GASLIMIT POP ORIGIN ADDRESS GASPRICE KECCAK256 PUSH21 0x72616E736665722066726F6D20746865207A65726F KECCAK256 PUSH2 0x6464 PUSH19 0x65737342455032303A20617070726F76652066 PUSH19 0x6F6D20746865207A65726F2061646472657373 0x4F PUSH24 0x6E61626C653A206E6577206F776E65722069732074686520 PUSH27 0x65726F206164647265737342455032303A207472616E7366657220 PUSH2 0x6D6F PUSH22 0x6E74206578636565647320616C6C6F77616E63654245 POP ORIGIN ADDRESS GASPRICE KECCAK256 PUSH21 0x72616E7366657220616D6F756E7420657863656564 PUSH20 0x2062616C616E636542455032303A207472616E73 PUSH7 0x657220746F2074 PUSH9 0x65207A65726F206164 PUSH5 0x7265737342 GASLIMIT POP ORIGIN ADDRESS GASPRICE KECCAK256 PUSH5 0x6563726561 PUSH20 0x656420616C6C6F77616E63652062656C6F77207A PUSH6 0x726F42455032 ADDRESS GASPRICE KECCAK256 PUSH2 0x7070 PUSH19 0x6F766520746F20746865207A65726F20616464 PUSH19 0x657373A26469706673582212201271B1ACC3AC 0xF9 0xD3 0xDA PUSH24 0x56B03E88D349A9A1A7853D1DE1E338DE24DD969539A56473 PUSH16 0x6C634300060C00330000000000000000 "
				},
				"gasEstimates": {
					"creation": {
						"codeDepositCost": "1268400",
						"executionCost": "infinite",
						"totalCost": "infinite"
					},
					"external": {
						"allowance(address,address)": "1387",
						"approve(address,uint256)": "infinite",
						"balanceOf(address)": "1263",
						"decimals()": "1078",
						"decreaseAllowance(address,uint256)": "infinite",
						"getOwner()": "1113",
						"increaseAllowance(address,uint256)": "infinite",
						"mint(uint256)": "infinite",
						"name()": "infinite",
						"owner()": "1100",
						"renounceOwnership()": "24380",
						"symbol()": "infinite",
						"totalSupply()": "1081",
						"transfer(address,uint256)": "infinite",
						"transferFrom(address,address,uint256)": "infinite",
						"transferOwnership(address)": "infinite"
					},
					"internal": {
						"_approve(address,address,uint256)": "infinite",
						"_burn(address,uint256)": "infinite",
						"_burnFrom(address,uint256)": "infinite",
						"_mint(address,uint256)": "infinite",
						"_transfer(address,address,uint256)": "infinite"
					}
				},
				"methodIdentifiers": {
					"allowance(address,address)": "dd62ed3e",
					"approve(address,uint256)": "095ea7b3",
					"balanceOf(address)": "70a08231",
					"decimals()": "313ce567",
					"decreaseAllowance(address,uint256)": "a457c2d7",
					"getOwner()": "893d20e8",
					"increaseAllowance(address,uint256)": "39509351",
					"mint(uint256)": "a0712d68",
					"name()": "06fdde03",
					"owner()": "8da5cb5b",
					"renounceOwnership()": "715018a6",
					"symbol()": "95d89b41",
					"totalSupply()": "18160ddd",
					"transfer(address,uint256)": "a9059cbb",
					"transferFrom(address,address,uint256)": "23b872dd",
					"transferOwnership(address)": "f2fde38b"
				}
			},
			"storageLayout": {
				"storage": [
					{
						"astId": 31,
						"contract": "Users/leilei/Downloads/MasterChefV2/contracts/CakeToken.sol:BEP20",
						"label": "_owner",
						"offset": 0,
						"slot": "0",
						"type": "t_address"
					},
					{
						"astId": 728,
						"contract": "Users/leilei/Downloads/MasterChefV2/contracts/CakeToken.sol:BEP20",
						"label": "_balances",
						"offset": 0,
						"slot": "1",
						"type": "t_mapping(t_address,t_uint256)"
					},
					{
						"astId": 734,
						"contract": "Users/leilei/Downloads/MasterChefV2/contracts/CakeToken.sol:BEP20",
						"label": "_allowances",
						"offset": 0,
						"slot": "2",
						"type": "t_mapping(t_address,t_mapping(t_address,t_uint256))"
					},
					{
						"astId": 736,
						"contract": "Users/leilei/Downloads/MasterChefV2/contracts/CakeToken.sol:BEP20",
						"label": "_totalSupply",
						"offset": 0,
						"slot": "3",
						"type": "t_uint256"
					},
					{
						"astId": 738,
						"contract": "Users/leilei/Downloads/MasterChefV2/contracts/CakeToken.sol:BEP20",
						"label": "_name",
						"offset": 0,
						"slot": "4",
						"type": "t_string_storage"
					},
					{
						"astId": 740,
						"contract": "Users/leilei/Downloads/MasterChefV2/contracts/CakeToken.sol:BEP20",
						"label": "_symbol",
						"offset": 0,
						"slot": "5",
						"type": "t_string_storage"
					},
					{
						"astId": 742,
						"contract": "Users/leilei/Downloads/MasterChefV2/contracts/CakeToken.sol:BEP20",
						"label": "_decimals",
						"offset": 0,
						"slot": "6",
						"type": "t_uint8"
					}
				],
				"types": {
					"t_address": {
						"encoding": "inplace",
						"label": "address",
						"numberOfBytes": "20"
					},
					"t_mapping(t_address,t_mapping(t_address,t_uint256))": {
						"encoding": "mapping",
						"key": "t_address",
						"label": "mapping(address => mapping(address => uint256))",
						"numberOfBytes": "32",
						"value": "t_mapping(t_address,t_uint256)"
					},
					"t_mapping(t_address,t_uint256)": {
						"encoding": "mapping",
						"key": "t_address",
						"label": "mapping(address => uint256)",
						"numberOfBytes": "32",
						"value": "t_uint256"
					},
					"t_string_storage": {
						"encoding": "bytes",
						"label": "string",
						"numberOfBytes": "32"
					},
					"t_uint256": {
						"encoding": "inplace",
						"label": "uint256",
						"numberOfBytes": "32"
					},
					"t_uint8": {
						"encoding": "inplace",
						"label": "uint8",
						"numberOfBytes": "1"
					}
				}
			},
			"userdoc": {
				"kind": "user",
				"methods": {},
				"version": 1
			}
		}
	}
}