{
	"Users/leilei/Downloads/MasterChefV2/contracts/pointCenterIfo.sol": {
		"PointCenterIFO": {
			"abi": [
				{
					"inputs": [
						{
							"internalType": "address",
							"name": "_pancakeProfileAddress",
							"type": "address"
						},
						{
							"internalType": "uint256",
							"name": "_maxViewLength",
							"type": "uint256"
						}
					],
					"stateMutability": "nonpayable",
					"type": "constructor"
				},
				{
					"anonymous": false,
					"inputs": [
						{
							"indexed": true,
							"internalType": "address",
							"name": "contractAddress",
							"type": "address"
						},
						{
							"indexed": false,
							"internalType": "uint256",
							"name": "thresholdToClaim",
							"type": "uint256"
						},
						{
							"indexed": true,
							"internalType": "uint256",
							"name": "campaignId",
							"type": "uint256"
						},
						{
							"indexed": false,
							"internalType": "uint256",
							"name": "numberPoints",
							"type": "uint256"
						}
					],
					"name": "IFOAdd",
					"type": "event"
				},
				{
					"anonymous": false,
					"inputs": [
						{
							"indexed": true,
							"internalType": "address",
							"name": "previousOwner",
							"type": "address"
						},
						{
							"indexed": true,
							"internalType": "address",
							"name": "newOwner",
							"type": "address"
						}
					],
					"name": "OwnershipTransferred",
					"type": "event"
				},
				{
					"inputs": [
						{
							"internalType": "address",
							"name": "_contractAddress",
							"type": "address"
						},
						{
							"internalType": "uint256",
							"name": "_thresholdToClaim",
							"type": "uint256"
						},
						{
							"internalType": "uint256",
							"name": "_campaignId",
							"type": "uint256"
						},
						{
							"internalType": "uint256",
							"name": "_numberPoints",
							"type": "uint256"
						}
					],
					"name": "addIFOAddress",
					"outputs": [],
					"stateMutability": "nonpayable",
					"type": "function"
				},
				{
					"inputs": [
						{
							"internalType": "address",
							"name": "_userAddress",
							"type": "address"
						},
						{
							"internalType": "address",
							"name": "_contractAddress",
							"type": "address"
						}
					],
					"name": "checkClaimStatus",
					"outputs": [
						{
							"internalType": "bool",
							"name": "",
							"type": "bool"
						}
					],
					"stateMutability": "view",
					"type": "function"
				},
				{
					"inputs": [
						{
							"internalType": "address",
							"name": "_userAddress",
							"type": "address"
						},
						{
							"internalType": "address[]",
							"name": "_contractAddresses",
							"type": "address[]"
						}
					],
					"name": "checkClaimStatuses",
					"outputs": [
						{
							"internalType": "bool[]",
							"name": "",
							"type": "bool[]"
						}
					],
					"stateMutability": "view",
					"type": "function"
				},
				{
					"inputs": [
						{
							"internalType": "address",
							"name": "_contractAddress",
							"type": "address"
						}
					],
					"name": "getPoints",
					"outputs": [],
					"stateMutability": "nonpayable",
					"type": "function"
				},
				{
					"inputs": [
						{
							"internalType": "address",
							"name": "",
							"type": "address"
						}
					],
					"name": "ifos",
					"outputs": [
						{
							"internalType": "uint256",
							"name": "thresholdToClaim",
							"type": "uint256"
						},
						{
							"internalType": "uint256",
							"name": "campaignId",
							"type": "uint256"
						},
						{
							"internalType": "uint256",
							"name": "numberPoints",
							"type": "uint256"
						}
					],
					"stateMutability": "view",
					"type": "function"
				},
				{
					"inputs": [],
					"name": "maxViewLength",
					"outputs": [
						{
							"internalType": "uint256",
							"name": "",
							"type": "uint256"
						}
					],
					"stateMutability": "view",
					"type": "function"
				},
				{
					"inputs": [],
					"name": "owner",
					"outputs": [
						{
							"internalType": "address",
							"name": "",
							"type": "address"
						}
					],
					"stateMutability": "view",
					"type": "function"
				},
				{
					"inputs": [],
					"name": "renounceOwnership",
					"outputs": [],
					"stateMutability": "nonpayable",
					"type": "function"
				},
				{
					"inputs": [
						{
							"internalType": "address",
							"name": "newOwner",
							"type": "address"
						}
					],
					"name": "transferOwnership",
					"outputs": [],
					"stateMutability": "nonpayable",
					"type": "function"
				},
				{
					"inputs": [
						{
							"internalType": "uint256",
							"name": "_newMaxViewLength",
							"type": "uint256"
						}
					],
					"name": "updateMaxViewLength",
					"outputs": [],
					"stateMutability": "nonpayable",
					"type": "function"
				}
			],
			"devdoc": {
				"details": "It is a contract for users to collect points for IFOs they participated in.",
				"kind": "dev",
				"methods": {
					"owner()": {
						"details": "Returns the address of the current owner."
					},
					"renounceOwnership()": {
						"details": "Leaves the contract without owner. It will not be possible to call `onlyOwner` functions anymore. Can only be called by the current owner. NOTE: Renouncing ownership will leave the contract without an owner, thereby removing any functionality that is only available to the owner."
					},
					"transferOwnership(address)": {
						"details": "Transfers ownership of the contract to a new account (`newOwner`). Can only be called by the current owner."
					}
				},
				"title": "PointCenterIFO.",
				"version": 1
			},
			"evm": {
				"assembly": "    /* \"Users/leilei/Downloads/MasterChefV2/contracts/pointCenterIfo.sol\":35405:40039  contract PointCenterIFO is Ownable {... */\n  mstore(0x40, 0x80)\n    /* \"Users/leilei/Downloads/MasterChefV2/contracts/pointCenterIfo.sol\":35909:36097  constructor(address _pancakeProfileAddress, uint256 _maxViewLength) public {... */\n  callvalue\n  dup1\n  iszero\n  tag_1\n  jumpi\n  0x00\n  dup1\n  revert\ntag_1:\n  pop\n  mload(0x40)\n  sub(codesize, bytecodeSize)\n  dup1\n  bytecodeSize\n  dup4\n  codecopy\n  dup2\n  dup2\n  add\n  0x40\n  mstore\n  0x40\n  dup2\n  lt\n  iszero\n  tag_2\n  jumpi\n  0x00\n  dup1\n  revert\ntag_2:\n  pop\n  dup1\n  mload\n  0x20\n  swap1\n  swap2\n  add\n  mload\n    /* \"Users/leilei/Downloads/MasterChefV2/contracts/pointCenterIfo.sol\":1952:1969  address msgSender */\n  0x00\n    /* \"Users/leilei/Downloads/MasterChefV2/contracts/pointCenterIfo.sol\":1972:1984  _msgSender() */\n  tag_6\n    /* \"Users/leilei/Downloads/MasterChefV2/contracts/pointCenterIfo.sol\":1972:1982  _msgSender */\n  tag_7\n    /* \"Users/leilei/Downloads/MasterChefV2/contracts/pointCenterIfo.sol\":1972:1984  _msgSender() */\n  jump\t// in\ntag_6:\n    /* \"Users/leilei/Downloads/MasterChefV2/contracts/pointCenterIfo.sol\":1994:2000  _owner */\n  0x00\n    /* \"Users/leilei/Downloads/MasterChefV2/contracts/pointCenterIfo.sol\":1994:2012  _owner = msgSender */\n  dup1\n  sload\n  not(sub(shl(0xa0, 0x01), 0x01))\n  and\n  sub(shl(0xa0, 0x01), 0x01)\n  dup4\n  and\n  swap1\n  dup2\n  or\n  dup3\n  sstore\n    /* \"Users/leilei/Downloads/MasterChefV2/contracts/pointCenterIfo.sol\":2027:2070  OwnershipTransferred(address(0), msgSender) */\n  mload(0x40)\n    /* \"Users/leilei/Downloads/MasterChefV2/contracts/pointCenterIfo.sol\":1994:2012  _owner = msgSender */\n  swap3\n  swap4\n  pop\n  swap2\n    /* \"Users/leilei/Downloads/MasterChefV2/contracts/pointCenterIfo.sol\":2027:2070  OwnershipTransferred(address(0), msgSender) */\n  0x8be0079c531659141344cd1fd0a4f28419497f9722a3daafe3b4186f6b6457e0\n  swap1\n    /* \"Users/leilei/Downloads/MasterChefV2/contracts/pointCenterIfo.sol\":1994:2000  _owner */\n  dup3\n  swap1\n    /* \"Users/leilei/Downloads/MasterChefV2/contracts/pointCenterIfo.sol\":2027:2070  OwnershipTransferred(address(0), msgSender) */\n  log3\n  pop\n    /* \"Users/leilei/Downloads/MasterChefV2/contracts/pointCenterIfo.sol\":35994:36008  pancakeProfile */\n  0x01\n    /* \"Users/leilei/Downloads/MasterChefV2/contracts/pointCenterIfo.sol\":35994:36050  pancakeProfile = IPancakeProfile(_pancakeProfileAddress) */\n  dup1\n  sload\n  not(sub(shl(0xa0, 0x01), 0x01))\n  and\n  sub(shl(0xa0, 0x01), 0x01)\n  swap4\n  swap1\n  swap4\n  and\n  swap3\n  swap1\n  swap3\n  or\n  swap1\n  swap2\n  sstore\n    /* \"Users/leilei/Downloads/MasterChefV2/contracts/pointCenterIfo.sol\":36060:36073  maxViewLength */\n  0x02\n    /* \"Users/leilei/Downloads/MasterChefV2/contracts/pointCenterIfo.sol\":36060:36090  maxViewLength = _maxViewLength */\n  sstore\n    /* \"Users/leilei/Downloads/MasterChefV2/contracts/pointCenterIfo.sol\":35405:40039  contract PointCenterIFO is Ownable {... */\n  jump(tag_9)\n    /* \"Users/leilei/Downloads/MasterChefV2/contracts/pointCenterIfo.sol\":714:818  function _msgSender() internal view virtual returns (address payable) {... */\ntag_7:\n    /* \"Users/leilei/Downloads/MasterChefV2/contracts/pointCenterIfo.sol\":801:811  msg.sender */\n  caller\n    /* \"Users/leilei/Downloads/MasterChefV2/contracts/pointCenterIfo.sol\":714:818  function _msgSender() internal view virtual returns (address payable) {... */\n  swap1\n  jump\t// out\n    /* \"Users/leilei/Downloads/MasterChefV2/contracts/pointCenterIfo.sol\":35405:40039  contract PointCenterIFO is Ownable {... */\ntag_9:\n  dataSize(sub_0)\n  dup1\n  dataOffset(sub_0)\n  0x00\n  codecopy\n  0x00\n  return\nstop\n\nsub_0: assembly {\n        /* \"Users/leilei/Downloads/MasterChefV2/contracts/pointCenterIfo.sol\":35405:40039  contract PointCenterIFO is Ownable {... */\n      mstore(0x40, 0x80)\n      callvalue\n      dup1\n      iszero\n      tag_1\n      jumpi\n      0x00\n      dup1\n      revert\n    tag_1:\n      pop\n      jumpi(tag_2, lt(calldatasize, 0x04))\n      shr(0xe0, calldataload(0x00))\n      dup1\n      0xa789fa30\n      gt\n      tag_13\n      jumpi\n      dup1\n      0xa789fa30\n      eq\n      tag_8\n      jumpi\n      dup1\n      0xc105fa39\n      eq\n      tag_9\n      jumpi\n      dup1\n      0xee204abb\n      eq\n      tag_10\n      jumpi\n      dup1\n      0xf2fde38b\n      eq\n      tag_11\n      jumpi\n      dup1\n      0xf6fed429\n      eq\n      tag_12\n      jumpi\n      jump(tag_2)\n    tag_13:\n      dup1\n      0x2b253913\n      eq\n      tag_3\n      jumpi\n      dup1\n      0x3154782f\n      eq\n      tag_4\n      jumpi\n      dup1\n      0x715018a6\n      eq\n      tag_5\n      jumpi\n      dup1\n      0x740bd4ac\n      eq\n      tag_6\n      jumpi\n      dup1\n      0x8da5cb5b\n      eq\n      tag_7\n      jumpi\n    tag_2:\n      0x00\n      dup1\n      revert\n        /* \"Users/leilei/Downloads/MasterChefV2/contracts/pointCenterIfo.sol\":37461:38011  function addIFOAddress(... */\n    tag_3:\n      tag_14\n      0x04\n      dup1\n      calldatasize\n      sub\n      0x80\n      dup2\n      lt\n      iszero\n      tag_15\n      jumpi\n      0x00\n      dup1\n      revert\n    tag_15:\n      pop\n      sub(shl(0xa0, 0x01), 0x01)\n      dup2\n      calldataload\n      and\n      swap1\n      0x20\n      dup2\n      add\n      calldataload\n      swap1\n      0x40\n      dup2\n      add\n      calldataload\n      swap1\n      0x60\n      add\n      calldataload\n      tag_16\n      jump\t// in\n    tag_14:\n      stop\n        /* \"Users/leilei/Downloads/MasterChefV2/contracts/pointCenterIfo.sol\":35518:35554  mapping(address => IFOs) public ifos */\n    tag_4:\n      tag_17\n      0x04\n      dup1\n      calldatasize\n      sub\n      0x20\n      dup2\n      lt\n      iszero\n      tag_18\n      jumpi\n      0x00\n      dup1\n      revert\n    tag_18:\n      pop\n      calldataload\n      sub(shl(0xa0, 0x01), 0x01)\n      and\n      tag_19\n      jump\t// in\n    tag_17:\n      0x40\n      dup1\n      mload\n      swap4\n      dup5\n      mstore\n      0x20\n      dup5\n      add\n      swap3\n      swap1\n      swap3\n      mstore\n      dup3\n      dup3\n      add\n      mstore\n      mload\n      swap1\n      dup2\n      swap1\n      sub\n      0x60\n      add\n      swap1\n      return\n        /* \"Users/leilei/Downloads/MasterChefV2/contracts/pointCenterIfo.sol\":2776:2921  function renounceOwnership() public virtual onlyOwner {... */\n    tag_5:\n      tag_14\n      tag_21\n      jump\t// in\n        /* \"Users/leilei/Downloads/MasterChefV2/contracts/pointCenterIfo.sol\":38388:38983  function checkClaimStatuses(... */\n    tag_6:\n      tag_22\n      0x04\n      dup1\n      calldatasize\n      sub\n      0x40\n      dup2\n      lt\n      iszero\n      tag_23\n      jumpi\n      0x00\n      dup1\n      revert\n    tag_23:\n      sub(shl(0xa0, 0x01), 0x01)\n      dup3\n      calldataload\n      and\n      swap2\n      swap1\n      dup2\n      add\n      swap1\n      0x40\n      dup2\n      add\n      0x20\n      dup3\n      add\n      calldataload\n      0x0100000000\n      dup2\n      gt\n      iszero\n      tag_24\n      jumpi\n      0x00\n      dup1\n      revert\n    tag_24:\n      dup3\n      add\n      dup4\n      0x20\n      dup3\n      add\n      gt\n      iszero\n      tag_25\n      jumpi\n      0x00\n      dup1\n      revert\n    tag_25:\n      dup1\n      calldataload\n      swap1\n      0x20\n      add\n      swap2\n      dup5\n      0x20\n      dup4\n      mul\n      dup5\n      add\n      gt\n      0x0100000000\n      dup4\n      gt\n      or\n      iszero\n      tag_26\n      jumpi\n      0x00\n      dup1\n      revert\n    tag_26:\n      swap2\n      swap1\n      dup1\n      dup1\n      0x20\n      mul\n      0x20\n      add\n      mload(0x40)\n      swap1\n      dup2\n      add\n      0x40\n      mstore\n      dup1\n      swap4\n      swap3\n      swap2\n      swap1\n      dup2\n      dup2\n      mstore\n      0x20\n      add\n      dup4\n      dup4\n      0x20\n      mul\n      dup1\n      dup3\n      dup5\n      calldatacopy\n      0x00\n      swap3\n      add\n      swap2\n      swap1\n      swap2\n      mstore\n      pop\n      swap3\n      swap6\n      pop\n      tag_27\n      swap5\n      pop\n      pop\n      pop\n      pop\n      pop\n      jump\t// in\n    tag_22:\n      0x40\n      dup1\n      mload\n      0x20\n      dup1\n      dup3\n      mstore\n      dup4\n      mload\n      dup2\n      dup4\n      add\n      mstore\n      dup4\n      mload\n      swap2\n      swap3\n      dup4\n      swap3\n      swap1\n      dup4\n      add\n      swap2\n      dup6\n      dup2\n      add\n      swap2\n      mul\n      dup1\n      dup4\n      dup4\n      0x00\n    tag_28:\n      dup4\n      dup2\n      lt\n      iszero\n      tag_30\n      jumpi\n      dup2\n      dup2\n      add\n      mload\n      dup4\n      dup3\n      add\n      mstore\n      0x20\n      add\n      jump(tag_28)\n    tag_30:\n      pop\n      pop\n      pop\n      pop\n      swap1\n      pop\n      add\n      swap3\n      pop\n      pop\n      pop\n      mload(0x40)\n      dup1\n      swap2\n      sub\n      swap1\n      return\n        /* \"Users/leilei/Downloads/MasterChefV2/contracts/pointCenterIfo.sol\":2153:2230  function owner() public view returns (address) {... */\n    tag_7:\n      tag_31\n      tag_32\n      jump\t// in\n    tag_31:\n      0x40\n      dup1\n      mload\n      sub(shl(0xa0, 0x01), 0x01)\n      swap1\n      swap3\n      and\n      dup3\n      mstore\n      mload\n      swap1\n      dup2\n      swap1\n      sub\n      0x20\n      add\n      swap1\n      return\n        /* \"Users/leilei/Downloads/MasterChefV2/contracts/pointCenterIfo.sol\":38017:38142  function updateMaxViewLength(uint256 _newMaxViewLength) external onlyOwner {... */\n    tag_8:\n      tag_14\n      0x04\n      dup1\n      calldatasize\n      sub\n      0x20\n      dup2\n      lt\n      iszero\n      tag_34\n      jumpi\n      0x00\n      dup1\n      revert\n    tag_34:\n      pop\n      calldataload\n      tag_35\n      jump\t// in\n        /* \"Users/leilei/Downloads/MasterChefV2/contracts/pointCenterIfo.sol\":38148:38382  function checkClaimStatus(address _userAddress, address _contractAddress)... */\n    tag_9:\n      tag_36\n      0x04\n      dup1\n      calldatasize\n      sub\n      0x40\n      dup2\n      lt\n      iszero\n      tag_37\n      jumpi\n      0x00\n      dup1\n      revert\n    tag_37:\n      pop\n      sub(shl(0xa0, 0x01), 0x01)\n      dup2\n      calldataload\n      dup2\n      and\n      swap2\n      0x20\n      add\n      calldataload\n      and\n      tag_38\n      jump\t// in\n    tag_36:\n      0x40\n      dup1\n      mload\n      swap2\n      iszero\n      iszero\n      dup3\n      mstore\n      mload\n      swap1\n      dup2\n      swap1\n      sub\n      0x20\n      add\n      swap1\n      return\n        /* \"Users/leilei/Downloads/MasterChefV2/contracts/pointCenterIfo.sol\":36103:37455  function getPoints(address _contractAddress) external {... */\n    tag_10:\n      tag_14\n      0x04\n      dup1\n      calldatasize\n      sub\n      0x20\n      dup2\n      lt\n      iszero\n      tag_40\n      jumpi\n      0x00\n      dup1\n      revert\n    tag_40:\n      pop\n      calldataload\n      sub(shl(0xa0, 0x01), 0x01)\n      and\n      tag_41\n      jump\t// in\n        /* \"Users/leilei/Downloads/MasterChefV2/contracts/pointCenterIfo.sol\":3070:3344  function transferOwnership(address newOwner) public virtual onlyOwner {... */\n    tag_11:\n      tag_14\n      0x04\n      dup1\n      calldatasize\n      sub\n      0x20\n      dup2\n      lt\n      iszero\n      tag_43\n      jumpi\n      0x00\n      dup1\n      revert\n    tag_43:\n      pop\n      calldataload\n      sub(shl(0xa0, 0x01), 0x01)\n      and\n      tag_44\n      jump\t// in\n        /* \"Users/leilei/Downloads/MasterChefV2/contracts/pointCenterIfo.sol\":35483:35511  uint256 public maxViewLength */\n    tag_12:\n      tag_45\n      tag_46\n      jump\t// in\n    tag_45:\n      0x40\n      dup1\n      mload\n      swap2\n      dup3\n      mstore\n      mload\n      swap1\n      dup2\n      swap1\n      sub\n      0x20\n      add\n      swap1\n      return\n        /* \"Users/leilei/Downloads/MasterChefV2/contracts/pointCenterIfo.sol\":37461:38011  function addIFOAddress(... */\n    tag_16:\n        /* \"Users/leilei/Downloads/MasterChefV2/contracts/pointCenterIfo.sol\":2367:2379  _msgSender() */\n      tag_48\n        /* \"Users/leilei/Downloads/MasterChefV2/contracts/pointCenterIfo.sol\":2367:2377  _msgSender */\n      tag_49\n        /* \"Users/leilei/Downloads/MasterChefV2/contracts/pointCenterIfo.sol\":2367:2379  _msgSender() */\n      jump\t// in\n    tag_48:\n        /* \"Users/leilei/Downloads/MasterChefV2/contracts/pointCenterIfo.sol\":2357:2363  _owner */\n      sload(0x00)\n      sub(shl(0xa0, 0x01), 0x01)\n      swap1\n      dup2\n      and\n        /* \"Users/leilei/Downloads/MasterChefV2/contracts/pointCenterIfo.sol\":2357:2379  _owner == _msgSender() */\n      swap2\n      and\n      eq\n        /* \"Users/leilei/Downloads/MasterChefV2/contracts/pointCenterIfo.sol\":2349:2416  require(_owner == _msgSender(), \"Ownable: caller is not the owner\") */\n      tag_50\n      jumpi\n      0x40\n      dup1\n      mload\n      shl(0xe5, 0x461bcd)\n      dup2\n      mstore\n      0x20\n      0x04\n      dup3\n      add\n      dup2\n      swap1\n      mstore\n      0x24\n      dup3\n      add\n      mstore\n      0x00\n      dup1\n      mload\n      0x20\n      data_9924ebdf1add33d25d4ef888e16131f0a5687b0580a36c21b5c301a6c462effe\n      dup4\n      codecopy\n      dup2\n      mload\n      swap2\n      mstore\n      0x44\n      dup3\n      add\n      mstore\n      swap1\n      mload\n      swap1\n      dup2\n      swap1\n      sub\n      0x64\n      add\n      swap1\n      revert\n    tag_50:\n        /* \"Users/leilei/Downloads/MasterChefV2/contracts/pointCenterIfo.sol\":37716:37859  IFOs({... */\n      0x40\n      dup1\n      mload\n      0x60\n      dup2\n      add\n      dup3\n      mstore\n      dup5\n      dup2\n      mstore\n      0x20\n      dup1\n      dup3\n      add\n      dup6\n      dup2\n      mstore\n      dup3\n      dup5\n      add\n      dup6\n      dup2\n      mstore\n      sub(shl(0xa0, 0x01), 0x01)\n        /* \"Users/leilei/Downloads/MasterChefV2/contracts/pointCenterIfo.sol\":37691:37713  ifos[_contractAddress] */\n      dup10\n      and\n      0x00\n      dup2\n      dup2\n      mstore\n        /* \"Users/leilei/Downloads/MasterChefV2/contracts/pointCenterIfo.sol\":37691:37695  ifos */\n      0x03\n        /* \"Users/leilei/Downloads/MasterChefV2/contracts/pointCenterIfo.sol\":37691:37713  ifos[_contractAddress] */\n      dup6\n      mstore\n      dup7\n      swap1\n      keccak256\n        /* \"Users/leilei/Downloads/MasterChefV2/contracts/pointCenterIfo.sol\":37691:37859  ifos[_contractAddress] = IFOs({... */\n      swap5\n      mload\n      dup6\n      sstore\n      swap2\n      mload\n      0x01\n      dup6\n      add\n      sstore\n      mload\n      0x02\n      swap1\n      swap4\n      add\n      swap3\n      swap1\n      swap3\n      sstore\n        /* \"Users/leilei/Downloads/MasterChefV2/contracts/pointCenterIfo.sol\":37875:38004  IFOAdd(... */\n      dup3\n      mload\n      dup7\n      dup2\n      mstore\n      swap1\n      dup2\n      add\n      dup5\n      swap1\n      mstore\n      dup3\n      mload\n        /* \"Users/leilei/Downloads/MasterChefV2/contracts/pointCenterIfo.sol\":37796:37807  _campaignId */\n      dup6\n      swap4\n        /* \"Users/leilei/Downloads/MasterChefV2/contracts/pointCenterIfo.sol\":37875:38004  IFOAdd(... */\n      0xc13d7e8dc4239b494c7af2a1fcb43c88a89af1833e5afc01239fa2a0ed1dd74a\n      swap3\n      dup3\n      swap1\n      sub\n      add\n      swap1\n      log3\n        /* \"Users/leilei/Downloads/MasterChefV2/contracts/pointCenterIfo.sol\":37461:38011  function addIFOAddress(... */\n      pop\n      pop\n      pop\n      pop\n      jump\t// out\n        /* \"Users/leilei/Downloads/MasterChefV2/contracts/pointCenterIfo.sol\":35518:35554  mapping(address => IFOs) public ifos */\n    tag_19:\n      mstore(0x20, 0x03)\n      0x00\n      swap1\n      dup2\n      mstore\n      0x40\n      swap1\n      keccak256\n      dup1\n      sload\n      0x01\n      dup3\n      add\n      sload\n      0x02\n      swap1\n      swap3\n      add\n      sload\n      swap1\n      swap2\n      swap1\n      dup4\n      jump\t// out\n        /* \"Users/leilei/Downloads/MasterChefV2/contracts/pointCenterIfo.sol\":2776:2921  function renounceOwnership() public virtual onlyOwner {... */\n    tag_21:\n        /* \"Users/leilei/Downloads/MasterChefV2/contracts/pointCenterIfo.sol\":2367:2379  _msgSender() */\n      tag_53\n        /* \"Users/leilei/Downloads/MasterChefV2/contracts/pointCenterIfo.sol\":2367:2377  _msgSender */\n      tag_49\n        /* \"Users/leilei/Downloads/MasterChefV2/contracts/pointCenterIfo.sol\":2367:2379  _msgSender() */\n      jump\t// in\n    tag_53:\n        /* \"Users/leilei/Downloads/MasterChefV2/contracts/pointCenterIfo.sol\":2357:2363  _owner */\n      sload(0x00)\n      sub(shl(0xa0, 0x01), 0x01)\n      swap1\n      dup2\n      and\n        /* \"Users/leilei/Downloads/MasterChefV2/contracts/pointCenterIfo.sol\":2357:2379  _owner == _msgSender() */\n      swap2\n      and\n      eq\n        /* \"Users/leilei/Downloads/MasterChefV2/contracts/pointCenterIfo.sol\":2349:2416  require(_owner == _msgSender(), \"Ownable: caller is not the owner\") */\n      tag_54\n      jumpi\n      0x40\n      dup1\n      mload\n      shl(0xe5, 0x461bcd)\n      dup2\n      mstore\n      0x20\n      0x04\n      dup3\n      add\n      dup2\n      swap1\n      mstore\n      0x24\n      dup3\n      add\n      mstore\n      0x00\n      dup1\n      mload\n      0x20\n      data_9924ebdf1add33d25d4ef888e16131f0a5687b0580a36c21b5c301a6c462effe\n      dup4\n      codecopy\n      dup2\n      mload\n      swap2\n      mstore\n      0x44\n      dup3\n      add\n      mstore\n      swap1\n      mload\n      swap1\n      dup2\n      swap1\n      sub\n      0x64\n      add\n      swap1\n      revert\n    tag_54:\n        /* \"Users/leilei/Downloads/MasterChefV2/contracts/pointCenterIfo.sol\":2882:2883  0 */\n      0x00\n        /* \"Users/leilei/Downloads/MasterChefV2/contracts/pointCenterIfo.sol\":2866:2872  _owner */\n      dup1\n      sload\n        /* \"Users/leilei/Downloads/MasterChefV2/contracts/pointCenterIfo.sol\":2845:2885  OwnershipTransferred(_owner, address(0)) */\n      mload(0x40)\n      sub(shl(0xa0, 0x01), 0x01)\n        /* \"Users/leilei/Downloads/MasterChefV2/contracts/pointCenterIfo.sol\":2866:2872  _owner */\n      swap1\n      swap2\n      and\n      swap1\n        /* \"Users/leilei/Downloads/MasterChefV2/contracts/pointCenterIfo.sol\":2845:2885  OwnershipTransferred(_owner, address(0)) */\n      0x8be0079c531659141344cd1fd0a4f28419497f9722a3daafe3b4186f6b6457e0\n      swap1\n        /* \"Users/leilei/Downloads/MasterChefV2/contracts/pointCenterIfo.sol\":2882:2883  0 */\n      dup4\n      swap1\n        /* \"Users/leilei/Downloads/MasterChefV2/contracts/pointCenterIfo.sol\":2845:2885  OwnershipTransferred(_owner, address(0)) */\n      log3\n        /* \"Users/leilei/Downloads/MasterChefV2/contracts/pointCenterIfo.sol\":2912:2913  0 */\n      0x00\n        /* \"Users/leilei/Downloads/MasterChefV2/contracts/pointCenterIfo.sol\":2895:2914  _owner = address(0) */\n      dup1\n      sload\n      not(sub(shl(0xa0, 0x01), 0x01))\n      and\n      swap1\n      sstore\n        /* \"Users/leilei/Downloads/MasterChefV2/contracts/pointCenterIfo.sol\":2776:2921  function renounceOwnership() public virtual onlyOwner {... */\n      jump\t// out\n        /* \"Users/leilei/Downloads/MasterChefV2/contracts/pointCenterIfo.sol\":38388:38983  function checkClaimStatuses(... */\n    tag_27:\n        /* \"Users/leilei/Downloads/MasterChefV2/contracts/pointCenterIfo.sol\":38520:38533  bool[] memory */\n      0x60\n        /* \"Users/leilei/Downloads/MasterChefV2/contracts/pointCenterIfo.sol\":38545:38568  bool[] memory responses */\n      dup1\n        /* \"Users/leilei/Downloads/MasterChefV2/contracts/pointCenterIfo.sol\":38582:38600  _contractAddresses */\n      dup3\n        /* \"Users/leilei/Downloads/MasterChefV2/contracts/pointCenterIfo.sol\":38582:38607  _contractAddresses.length */\n      mload\n        /* \"Users/leilei/Downloads/MasterChefV2/contracts/pointCenterIfo.sol\":38571:38608  new bool[](_contractAddresses.length) */\n      0xffffffffffffffff\n      dup2\n      gt\n      dup1\n      iszero\n      tag_57\n      jumpi\n      0x00\n      dup1\n      revert\n    tag_57:\n      pop\n      mload(0x40)\n      swap1\n      dup1\n      dup3\n      mstore\n      dup1\n      0x20\n      mul\n      0x20\n      add\n      dup3\n      add\n      0x40\n      mstore\n      dup1\n      iszero\n      tag_58\n      jumpi\n      dup2\n      0x20\n      add\n      0x20\n      dup3\n      mul\n      dup1\n      calldatasize\n      dup4\n      calldatacopy\n      add\n      swap1\n      pop\n    tag_58:\n      pop\n        /* \"Users/leilei/Downloads/MasterChefV2/contracts/pointCenterIfo.sol\":38545:38608  bool[] memory responses = new bool[](_contractAddresses.length) */\n      swap1\n      pop\n        /* \"Users/leilei/Downloads/MasterChefV2/contracts/pointCenterIfo.sol\":38669:38682  maxViewLength */\n      sload(0x02)\n        /* \"Users/leilei/Downloads/MasterChefV2/contracts/pointCenterIfo.sol\":38640:38658  _contractAddresses */\n      dup4\n        /* \"Users/leilei/Downloads/MasterChefV2/contracts/pointCenterIfo.sol\":38640:38665  _contractAddresses.length */\n      mload\n        /* \"Users/leilei/Downloads/MasterChefV2/contracts/pointCenterIfo.sol\":38640:38682  _contractAddresses.length <= maxViewLength */\n      gt\n      iszero\n        /* \"Users/leilei/Downloads/MasterChefV2/contracts/pointCenterIfo.sol\":38619:38739  require(... */\n      tag_59\n      jumpi\n      0x40\n      dup1\n      mload\n      shl(0xe5, 0x461bcd)\n      dup2\n      mstore\n      0x20\n      0x04\n      dup3\n      add\n      mstore\n      0x1f\n      0x24\n      dup3\n      add\n      mstore\n      0x4c656e677468206d757374206265203c3d206d6178566965774c656e67746800\n      0x44\n      dup3\n      add\n      mstore\n      swap1\n      mload\n      swap1\n      dup2\n      swap1\n      sub\n      0x64\n      add\n      swap1\n      revert\n    tag_59:\n        /* \"Users/leilei/Downloads/MasterChefV2/contracts/pointCenterIfo.sol\":38755:38764  uint256 i */\n      0x00\n        /* \"Users/leilei/Downloads/MasterChefV2/contracts/pointCenterIfo.sol\":38750:38950  for (uint256 i = 0; i < _contractAddresses.length; i++) {... */\n    tag_60:\n        /* \"Users/leilei/Downloads/MasterChefV2/contracts/pointCenterIfo.sol\":38774:38792  _contractAddresses */\n      dup4\n        /* \"Users/leilei/Downloads/MasterChefV2/contracts/pointCenterIfo.sol\":38774:38799  _contractAddresses.length */\n      mload\n        /* \"Users/leilei/Downloads/MasterChefV2/contracts/pointCenterIfo.sol\":38770:38771  i */\n      dup2\n        /* \"Users/leilei/Downloads/MasterChefV2/contracts/pointCenterIfo.sol\":38770:38799  i < _contractAddresses.length */\n      lt\n        /* \"Users/leilei/Downloads/MasterChefV2/contracts/pointCenterIfo.sol\":38750:38950  for (uint256 i = 0; i < _contractAddresses.length; i++) {... */\n      iszero\n      tag_61\n      jumpi\n        /* \"Users/leilei/Downloads/MasterChefV2/contracts/pointCenterIfo.sol\":38820:38831  bool status */\n      0x00\n        /* \"Users/leilei/Downloads/MasterChefV2/contracts/pointCenterIfo.sol\":38850:38904  _checkClaimStatus(_userAddress, _contractAddresses[i]) */\n      tag_63\n        /* \"Users/leilei/Downloads/MasterChefV2/contracts/pointCenterIfo.sol\":38868:38880  _userAddress */\n      dup7\n        /* \"Users/leilei/Downloads/MasterChefV2/contracts/pointCenterIfo.sol\":38882:38900  _contractAddresses */\n      dup7\n        /* \"Users/leilei/Downloads/MasterChefV2/contracts/pointCenterIfo.sol\":38901:38902  i */\n      dup5\n        /* \"Users/leilei/Downloads/MasterChefV2/contracts/pointCenterIfo.sol\":38882:38903  _contractAddresses[i] */\n      dup2\n      mload\n      dup2\n      lt\n      tag_64\n      jumpi\n      invalid\n    tag_64:\n      0x20\n      mul\n      0x20\n      add\n      add\n      mload\n        /* \"Users/leilei/Downloads/MasterChefV2/contracts/pointCenterIfo.sol\":38850:38867  _checkClaimStatus */\n      tag_65\n        /* \"Users/leilei/Downloads/MasterChefV2/contracts/pointCenterIfo.sol\":38850:38904  _checkClaimStatus(_userAddress, _contractAddresses[i]) */\n      jump\t// in\n    tag_63:\n        /* \"Users/leilei/Downloads/MasterChefV2/contracts/pointCenterIfo.sol\":38820:38904  bool status =... */\n      swap1\n      pop\n        /* \"Users/leilei/Downloads/MasterChefV2/contracts/pointCenterIfo.sol\":38933:38939  status */\n      dup1\n        /* \"Users/leilei/Downloads/MasterChefV2/contracts/pointCenterIfo.sol\":38918:38927  responses */\n      dup4\n        /* \"Users/leilei/Downloads/MasterChefV2/contracts/pointCenterIfo.sol\":38928:38929  i */\n      dup4\n        /* \"Users/leilei/Downloads/MasterChefV2/contracts/pointCenterIfo.sol\":38918:38930  responses[i] */\n      dup2\n      mload\n      dup2\n      lt\n      tag_66\n      jumpi\n      invalid\n    tag_66:\n        /* \"Users/leilei/Downloads/MasterChefV2/contracts/pointCenterIfo.sol\":38918:38939  responses[i] = status */\n      swap2\n      iszero\n      iszero\n        /* \"Users/leilei/Downloads/MasterChefV2/contracts/pointCenterIfo.sol\":38918:38930  responses[i] */\n      0x20\n      swap3\n      dup4\n      mul\n      swap2\n      swap1\n      swap2\n      add\n      swap1\n      swap2\n      add\n        /* \"Users/leilei/Downloads/MasterChefV2/contracts/pointCenterIfo.sol\":38918:38939  responses[i] = status */\n      mstore\n      pop\n        /* \"Users/leilei/Downloads/MasterChefV2/contracts/pointCenterIfo.sol\":38801:38804  i++ */\n      0x01\n      add\n        /* \"Users/leilei/Downloads/MasterChefV2/contracts/pointCenterIfo.sol\":38750:38950  for (uint256 i = 0; i < _contractAddresses.length; i++) {... */\n      jump(tag_60)\n    tag_61:\n      pop\n        /* \"Users/leilei/Downloads/MasterChefV2/contracts/pointCenterIfo.sol\":38967:38976  responses */\n      swap1\n      pop\n        /* \"Users/leilei/Downloads/MasterChefV2/contracts/pointCenterIfo.sol\":38388:38983  function checkClaimStatuses(... */\n    tag_56:\n      swap3\n      swap2\n      pop\n      pop\n      jump\t// out\n        /* \"Users/leilei/Downloads/MasterChefV2/contracts/pointCenterIfo.sol\":2153:2230  function owner() public view returns (address) {... */\n    tag_32:\n        /* \"Users/leilei/Downloads/MasterChefV2/contracts/pointCenterIfo.sol\":2191:2198  address */\n      0x00\n        /* \"Users/leilei/Downloads/MasterChefV2/contracts/pointCenterIfo.sol\":2217:2223  _owner */\n      sload\n      sub(shl(0xa0, 0x01), 0x01)\n      and\n        /* \"Users/leilei/Downloads/MasterChefV2/contracts/pointCenterIfo.sol\":2153:2230  function owner() public view returns (address) {... */\n      swap1\n      jump\t// out\n        /* \"Users/leilei/Downloads/MasterChefV2/contracts/pointCenterIfo.sol\":38017:38142  function updateMaxViewLength(uint256 _newMaxViewLength) external onlyOwner {... */\n    tag_35:\n        /* \"Users/leilei/Downloads/MasterChefV2/contracts/pointCenterIfo.sol\":2367:2379  _msgSender() */\n      tag_69\n        /* \"Users/leilei/Downloads/MasterChefV2/contracts/pointCenterIfo.sol\":2367:2377  _msgSender */\n      tag_49\n        /* \"Users/leilei/Downloads/MasterChefV2/contracts/pointCenterIfo.sol\":2367:2379  _msgSender() */\n      jump\t// in\n    tag_69:\n        /* \"Users/leilei/Downloads/MasterChefV2/contracts/pointCenterIfo.sol\":2357:2363  _owner */\n      sload(0x00)\n      sub(shl(0xa0, 0x01), 0x01)\n      swap1\n      dup2\n      and\n        /* \"Users/leilei/Downloads/MasterChefV2/contracts/pointCenterIfo.sol\":2357:2379  _owner == _msgSender() */\n      swap2\n      and\n      eq\n        /* \"Users/leilei/Downloads/MasterChefV2/contracts/pointCenterIfo.sol\":2349:2416  require(_owner == _msgSender(), \"Ownable: caller is not the owner\") */\n      tag_70\n      jumpi\n      0x40\n      dup1\n      mload\n      shl(0xe5, 0x461bcd)\n      dup2\n      mstore\n      0x20\n      0x04\n      dup3\n      add\n      dup2\n      swap1\n      mstore\n      0x24\n      dup3\n      add\n      mstore\n      0x00\n      dup1\n      mload\n      0x20\n      data_9924ebdf1add33d25d4ef888e16131f0a5687b0580a36c21b5c301a6c462effe\n      dup4\n      codecopy\n      dup2\n      mload\n      swap2\n      mstore\n      0x44\n      dup3\n      add\n      mstore\n      swap1\n      mload\n      swap1\n      dup2\n      swap1\n      sub\n      0x64\n      add\n      swap1\n      revert\n    tag_70:\n        /* \"Users/leilei/Downloads/MasterChefV2/contracts/pointCenterIfo.sol\":38102:38115  maxViewLength */\n      0x02\n        /* \"Users/leilei/Downloads/MasterChefV2/contracts/pointCenterIfo.sol\":38102:38135  maxViewLength = _newMaxViewLength */\n      sstore\n        /* \"Users/leilei/Downloads/MasterChefV2/contracts/pointCenterIfo.sol\":38017:38142  function updateMaxViewLength(uint256 _newMaxViewLength) external onlyOwner {... */\n      jump\t// out\n        /* \"Users/leilei/Downloads/MasterChefV2/contracts/pointCenterIfo.sol\":38148:38382  function checkClaimStatus(address _userAddress, address _contractAddress)... */\n    tag_38:\n        /* \"Users/leilei/Downloads/MasterChefV2/contracts/pointCenterIfo.sol\":38269:38273  bool */\n      0x00\n        /* \"Users/leilei/Downloads/MasterChefV2/contracts/pointCenterIfo.sol\":38289:38300  bool status */\n      dup1\n        /* \"Users/leilei/Downloads/MasterChefV2/contracts/pointCenterIfo.sol\":38303:38352  _checkClaimStatus(_userAddress, _contractAddress) */\n      tag_73\n        /* \"Users/leilei/Downloads/MasterChefV2/contracts/pointCenterIfo.sol\":38321:38333  _userAddress */\n      dup5\n        /* \"Users/leilei/Downloads/MasterChefV2/contracts/pointCenterIfo.sol\":38335:38351  _contractAddress */\n      dup5\n        /* \"Users/leilei/Downloads/MasterChefV2/contracts/pointCenterIfo.sol\":38303:38320  _checkClaimStatus */\n      tag_65\n        /* \"Users/leilei/Downloads/MasterChefV2/contracts/pointCenterIfo.sol\":38303:38352  _checkClaimStatus(_userAddress, _contractAddress) */\n      jump\t// in\n    tag_73:\n        /* \"Users/leilei/Downloads/MasterChefV2/contracts/pointCenterIfo.sol\":38289:38352  bool status = _checkClaimStatus(_userAddress, _contractAddress) */\n      swap5\n        /* \"Users/leilei/Downloads/MasterChefV2/contracts/pointCenterIfo.sol\":38148:38382  function checkClaimStatus(address _userAddress, address _contractAddress)... */\n      swap4\n      pop\n      pop\n      pop\n      pop\n      jump\t// out\n        /* \"Users/leilei/Downloads/MasterChefV2/contracts/pointCenterIfo.sol\":36103:37455  function getPoints(address _contractAddress) external {... */\n    tag_41:\n        /* \"Users/leilei/Downloads/MasterChefV2/contracts/pointCenterIfo.sol\":36167:36188  address senderAddress */\n      0x00\n        /* \"Users/leilei/Downloads/MasterChefV2/contracts/pointCenterIfo.sol\":36191:36203  _msgSender() */\n      tag_75\n        /* \"Users/leilei/Downloads/MasterChefV2/contracts/pointCenterIfo.sol\":36191:36201  _msgSender */\n      tag_49\n        /* \"Users/leilei/Downloads/MasterChefV2/contracts/pointCenterIfo.sol\":36191:36203  _msgSender() */\n      jump\t// in\n    tag_75:\n      sub(shl(0xa0, 0x01), 0x01)\n        /* \"Users/leilei/Downloads/MasterChefV2/contracts/pointCenterIfo.sol\":36272:36294  ifos[_contractAddress] */\n      dup4\n      and\n        /* \"Users/leilei/Downloads/MasterChefV2/contracts/pointCenterIfo.sol\":36308:36309  0 */\n      0x00\n        /* \"Users/leilei/Downloads/MasterChefV2/contracts/pointCenterIfo.sol\":36272:36294  ifos[_contractAddress] */\n      swap1\n      dup2\n      mstore\n        /* \"Users/leilei/Downloads/MasterChefV2/contracts/pointCenterIfo.sol\":36272:36276  ifos */\n      0x03\n        /* \"Users/leilei/Downloads/MasterChefV2/contracts/pointCenterIfo.sol\":36272:36294  ifos[_contractAddress] */\n      0x20\n      mstore\n      0x40\n      swap1\n      keccak256\n        /* \"Users/leilei/Downloads/MasterChefV2/contracts/pointCenterIfo.sol\":36272:36305  ifos[_contractAddress].campaignId */\n      0x01\n      add\n      sload\n        /* \"Users/leilei/Downloads/MasterChefV2/contracts/pointCenterIfo.sol\":36167:36203  address senderAddress = _msgSender() */\n      swap1\n      swap2\n      pop\n        /* \"Users/leilei/Downloads/MasterChefV2/contracts/pointCenterIfo.sol\":36272:36309  ifos[_contractAddress].campaignId > 0 */\n      iszero\n      dup1\n      iszero\n      swap1\n        /* \"Users/leilei/Downloads/MasterChefV2/contracts/pointCenterIfo.sol\":36271:36371  (ifos[_contractAddress].campaignId > 0) &&... */\n      tag_76\n      jumpi\n      pop\n      sub(shl(0xa0, 0x01), 0x01)\n        /* \"Users/leilei/Downloads/MasterChefV2/contracts/pointCenterIfo.sol\":36331:36353  ifos[_contractAddress] */\n      dup3\n      and\n        /* \"Users/leilei/Downloads/MasterChefV2/contracts/pointCenterIfo.sol\":36369:36370  0 */\n      0x00\n        /* \"Users/leilei/Downloads/MasterChefV2/contracts/pointCenterIfo.sol\":36331:36353  ifos[_contractAddress] */\n      swap1\n      dup2\n      mstore\n        /* \"Users/leilei/Downloads/MasterChefV2/contracts/pointCenterIfo.sol\":36331:36335  ifos */\n      0x03\n        /* \"Users/leilei/Downloads/MasterChefV2/contracts/pointCenterIfo.sol\":36331:36353  ifos[_contractAddress] */\n      0x20\n      mstore\n      0x40\n      swap1\n      keccak256\n        /* \"Users/leilei/Downloads/MasterChefV2/contracts/pointCenterIfo.sol\":36331:36366  ifos[_contractAddress].numberPoints */\n      0x02\n      add\n      sload\n        /* \"Users/leilei/Downloads/MasterChefV2/contracts/pointCenterIfo.sol\":36331:36370  ifos[_contractAddress].numberPoints > 0 */\n      iszero\n      iszero\n        /* \"Users/leilei/Downloads/MasterChefV2/contracts/pointCenterIfo.sol\":36271:36371  (ifos[_contractAddress].campaignId > 0) &&... */\n    tag_76:\n        /* \"Users/leilei/Downloads/MasterChefV2/contracts/pointCenterIfo.sol\":36250:36406  require(... */\n      tag_77\n      jumpi\n      0x40\n      dup1\n      mload\n      shl(0xe5, 0x461bcd)\n      dup2\n      mstore\n      0x20\n      0x04\n      dup3\n      add\n      mstore\n      0x09\n      0x24\n      dup3\n      add\n      mstore\n      shl(0xba, 0x1b9bdd081d985b1a59)\n      0x44\n      dup3\n      add\n      mstore\n      swap1\n      mload\n      swap1\n      dup2\n      swap1\n      sub\n      0x64\n      add\n      swap1\n      revert\n    tag_77:\n      sub(shl(0xa0, 0x01), 0x01)\n        /* \"Users/leilei/Downloads/MasterChefV2/contracts/pointCenterIfo.sol\":36477:36498  _users[senderAddress] */\n      dup1\n      dup3\n      and\n      0x00\n      swap1\n      dup2\n      mstore\n        /* \"Users/leilei/Downloads/MasterChefV2/contracts/pointCenterIfo.sol\":36477:36483  _users */\n      0x04\n        /* \"Users/leilei/Downloads/MasterChefV2/contracts/pointCenterIfo.sol\":36477:36498  _users[senderAddress] */\n      0x20\n      swap1\n      dup2\n      mstore\n      0x40\n      dup1\n      dup4\n      keccak256\n        /* \"Users/leilei/Downloads/MasterChefV2/contracts/pointCenterIfo.sol\":36477:36516  _users[senderAddress][_contractAddress] */\n      swap4\n      dup7\n      and\n      dup4\n      mstore\n      swap3\n      swap1\n      mstore\n      keccak256\n      sload\n      0xff\n      and\n        /* \"Users/leilei/Downloads/MasterChefV2/contracts/pointCenterIfo.sol\":36476:36516  !_users[senderAddress][_contractAddress] */\n      iszero\n        /* \"Users/leilei/Downloads/MasterChefV2/contracts/pointCenterIfo.sol\":36455:36566  require(... */\n      tag_78\n      jumpi\n      0x40\n      dup1\n      mload\n      shl(0xe5, 0x461bcd)\n      dup2\n      mstore\n      0x20\n      0x04\n      dup3\n      add\n      mstore\n      0x18\n      0x24\n      dup3\n      add\n      mstore\n      0x68617320636c61696d656420666f7220746869732049464f0000000000000000\n      0x44\n      dup3\n      add\n      mstore\n      swap1\n      mload\n      swap1\n      dup2\n      swap1\n      sub\n      0x64\n      add\n      swap1\n      revert\n    tag_78:\n        /* \"Users/leilei/Downloads/MasterChefV2/contracts/pointCenterIfo.sol\":36633:36647  pancakeProfile */\n      sload(0x01)\n        /* \"Users/leilei/Downloads/MasterChefV2/contracts/pointCenterIfo.sol\":36633:36676  pancakeProfile.getUserStatus(senderAddress) */\n      0x40\n      dup1\n      mload\n      shl(0xe0, 0xea0d5dcd)\n      dup2\n      mstore\n      sub(shl(0xa0, 0x01), 0x01)\n      dup5\n      dup2\n      and\n      0x04\n      dup4\n      add\n      mstore\n      swap2\n      mload\n        /* \"Users/leilei/Downloads/MasterChefV2/contracts/pointCenterIfo.sol\":36613:36630  bool isUserActive */\n      0x00\n      swap4\n        /* \"Users/leilei/Downloads/MasterChefV2/contracts/pointCenterIfo.sol\":36633:36647  pancakeProfile */\n      swap3\n      swap1\n      swap3\n      and\n      swap2\n        /* \"Users/leilei/Downloads/MasterChefV2/contracts/pointCenterIfo.sol\":36633:36661  pancakeProfile.getUserStatus */\n      0xea0d5dcd\n      swap2\n        /* \"Users/leilei/Downloads/MasterChefV2/contracts/pointCenterIfo.sol\":36633:36676  pancakeProfile.getUserStatus(senderAddress) */\n      0x24\n      dup1\n      dup3\n      add\n      swap3\n      0x20\n      swap3\n      swap1\n      swap2\n      swap1\n      dup3\n      swap1\n      sub\n      add\n      dup2\n        /* \"Users/leilei/Downloads/MasterChefV2/contracts/pointCenterIfo.sol\":36633:36647  pancakeProfile */\n      dup7\n        /* \"Users/leilei/Downloads/MasterChefV2/contracts/pointCenterIfo.sol\":36633:36676  pancakeProfile.getUserStatus(senderAddress) */\n      dup1\n      extcodesize\n      iszero\n      dup1\n      iszero\n      tag_79\n      jumpi\n      0x00\n      dup1\n      revert\n    tag_79:\n      pop\n      gas\n      staticcall\n      iszero\n      dup1\n      iszero\n      tag_81\n      jumpi\n      returndatasize\n      0x00\n      dup1\n      returndatacopy\n      revert(0x00, returndatasize)\n    tag_81:\n      pop\n      pop\n      pop\n      pop\n      mload(0x40)\n      returndatasize\n      0x20\n      dup2\n      lt\n      iszero\n      tag_82\n      jumpi\n      0x00\n      dup1\n      revert\n    tag_82:\n      pop\n      mload\n      swap1\n      pop\n      dup1\n        /* \"Users/leilei/Downloads/MasterChefV2/contracts/pointCenterIfo.sol\":36686:36721  require(isUserActive, \"not active\") */\n      tag_83\n      jumpi\n      0x40\n      dup1\n      mload\n      shl(0xe5, 0x461bcd)\n      dup2\n      mstore\n      0x20\n      0x04\n      dup3\n      add\n      mstore\n      0x0a\n      0x24\n      dup3\n      add\n      mstore\n      shl(0xb0, 0x6e6f7420616374697665)\n      0x44\n      dup3\n      add\n      mstore\n      swap1\n      mload\n      swap1\n      dup2\n      swap1\n      sub\n      0x64\n      add\n      swap1\n      revert\n    tag_83:\n        /* \"Users/leilei/Downloads/MasterChefV2/contracts/pointCenterIfo.sol\":36768:36782  IFO currentIfo */\n      0x00\n        /* \"Users/leilei/Downloads/MasterChefV2/contracts/pointCenterIfo.sol\":36789:36805  _contractAddress */\n      dup4\n        /* \"Users/leilei/Downloads/MasterChefV2/contracts/pointCenterIfo.sol\":36768:36806  IFO currentIfo = IFO(_contractAddress) */\n      swap1\n      pop\n        /* \"Users/leilei/Downloads/MasterChefV2/contracts/pointCenterIfo.sol\":36817:36835  uint256 amountUser */\n      0x00\n        /* \"Users/leilei/Downloads/MasterChefV2/contracts/pointCenterIfo.sol\":36845:36864  bool hasUserClaimed */\n      dup1\n        /* \"Users/leilei/Downloads/MasterChefV2/contracts/pointCenterIfo.sol\":36932:36942  currentIfo */\n      dup3\n      sub(shl(0xa0, 0x01), 0x01)\n        /* \"Users/leilei/Downloads/MasterChefV2/contracts/pointCenterIfo.sol\":36932:36951  currentIfo.userInfo */\n      and\n      0x1959a002\n        /* \"Users/leilei/Downloads/MasterChefV2/contracts/pointCenterIfo.sol\":36952:36965  senderAddress */\n      dup7\n        /* \"Users/leilei/Downloads/MasterChefV2/contracts/pointCenterIfo.sol\":36932:36966  currentIfo.userInfo(senderAddress) */\n      mload(0x40)\n      dup3\n      0xffffffff\n      and\n      0xe0\n      shl\n      dup2\n      mstore\n      0x04\n      add\n      dup1\n      dup3\n      sub(shl(0xa0, 0x01), 0x01)\n      and\n      dup2\n      mstore\n      0x20\n      add\n      swap2\n      pop\n      pop\n      0x40\n      dup1\n      mload\n      dup1\n      dup4\n      sub\n      dup2\n      dup7\n      dup1\n      extcodesize\n      iszero\n      dup1\n      iszero\n      tag_84\n      jumpi\n      0x00\n      dup1\n      revert\n    tag_84:\n      pop\n      gas\n      staticcall\n      iszero\n      dup1\n      iszero\n      tag_86\n      jumpi\n      returndatasize\n      0x00\n      dup1\n      returndatacopy\n      revert(0x00, returndatasize)\n    tag_86:\n      pop\n      pop\n      pop\n      pop\n      mload(0x40)\n      returndatasize\n      0x40\n      dup2\n      lt\n      iszero\n      tag_87\n      jumpi\n      0x00\n      dup1\n      revert\n    tag_87:\n      pop\n      dup1\n      mload\n      0x20\n      swap1\n      swap2\n      add\n      mload\n      swap1\n      swap3\n      pop\n      swap1\n      pop\n      dup1\n        /* \"Users/leilei/Downloads/MasterChefV2/contracts/pointCenterIfo.sol\":36977:37019  require(hasUserClaimed, \"has not claimed\") */\n      tag_88\n      jumpi\n      0x40\n      dup1\n      mload\n      shl(0xe5, 0x461bcd)\n      dup2\n      mstore\n      0x20\n      0x04\n      dup3\n      add\n      mstore\n      0x0f\n      0x24\n      dup3\n      add\n      mstore\n      shl(0x8a, 0x1a185cc81b9bdd0818db185a5b5959)\n      0x44\n      dup3\n      add\n      mstore\n      swap1\n      mload\n      swap1\n      dup2\n      swap1\n      sub\n      0x64\n      add\n      swap1\n      revert\n    tag_88:\n      sub(shl(0xa0, 0x01), 0x01)\n        /* \"Users/leilei/Downloads/MasterChefV2/contracts/pointCenterIfo.sol\":37063:37085  ifos[_contractAddress] */\n      dup7\n      and\n      0x00\n      swap1\n      dup2\n      mstore\n        /* \"Users/leilei/Downloads/MasterChefV2/contracts/pointCenterIfo.sol\":37063:37067  ifos */\n      0x03\n        /* \"Users/leilei/Downloads/MasterChefV2/contracts/pointCenterIfo.sol\":37063:37085  ifos[_contractAddress] */\n      0x20\n      mstore\n      0x40\n      swap1\n      keccak256\n        /* \"Users/leilei/Downloads/MasterChefV2/contracts/pointCenterIfo.sol\":37063:37102  ifos[_contractAddress].thresholdToClaim */\n      sload\n        /* \"Users/leilei/Downloads/MasterChefV2/contracts/pointCenterIfo.sol\":37050:37102  amountUser > ifos[_contractAddress].thresholdToClaim */\n      dup3\n      gt\n        /* \"Users/leilei/Downloads/MasterChefV2/contracts/pointCenterIfo.sol\":37029:37137  require(... */\n      tag_89\n      jumpi\n      0x40\n      dup1\n      mload\n      shl(0xe5, 0x461bcd)\n      dup2\n      mstore\n      0x20\n      0x04\n      dup3\n      add\n      mstore\n      0x09\n      0x24\n      dup3\n      add\n      mstore\n      shl(0xba, 0x1d1bdbc81cdb585b1b)\n      0x44\n      dup3\n      add\n      mstore\n      swap1\n      mload\n      swap1\n      dup2\n      swap1\n      sub\n      0x64\n      add\n      swap1\n      revert\n    tag_89:\n      sub(shl(0xa0, 0x01), 0x01)\n        /* \"Users/leilei/Downloads/MasterChefV2/contracts/pointCenterIfo.sol\":37180:37201  _users[senderAddress] */\n      dup1\n      dup7\n      and\n      0x00\n      dup2\n      dup2\n      mstore\n        /* \"Users/leilei/Downloads/MasterChefV2/contracts/pointCenterIfo.sol\":37180:37186  _users */\n      0x04\n        /* \"Users/leilei/Downloads/MasterChefV2/contracts/pointCenterIfo.sol\":37180:37201  _users[senderAddress] */\n      0x20\n      dup2\n      dup2\n      mstore\n      0x40\n      dup1\n      dup5\n      keccak256\n        /* \"Users/leilei/Downloads/MasterChefV2/contracts/pointCenterIfo.sol\":37180:37219  _users[senderAddress][_contractAddress] */\n      dup13\n      dup8\n      and\n      dup6\n      mstore\n      dup3\n      mstore\n      dup1\n      dup5\n      keccak256\n        /* \"Users/leilei/Downloads/MasterChefV2/contracts/pointCenterIfo.sol\":37180:37226  _users[senderAddress][_contractAddress] = true */\n      dup1\n      sload\n      not(0xff)\n      and\n        /* \"Users/leilei/Downloads/MasterChefV2/contracts/pointCenterIfo.sol\":37222:37226  true */\n      0x01\n        /* \"Users/leilei/Downloads/MasterChefV2/contracts/pointCenterIfo.sol\":37180:37226  _users[senderAddress][_contractAddress] = true */\n      swap1\n      dup2\n      or\n      swap1\n      swap2\n      sstore\n        /* \"Users/leilei/Downloads/MasterChefV2/contracts/pointCenterIfo.sol\":37282:37296  pancakeProfile */\n      dup1\n      sload\n        /* \"Users/leilei/Downloads/MasterChefV2/contracts/pointCenterIfo.sol\":37356:37360  ifos */\n      0x03\n        /* \"Users/leilei/Downloads/MasterChefV2/contracts/pointCenterIfo.sol\":37356:37378  ifos[_contractAddress] */\n      swap1\n      swap4\n      mstore\n      dup2\n      dup6\n      keccak256\n        /* \"Users/leilei/Downloads/MasterChefV2/contracts/pointCenterIfo.sol\":37356:37391  ifos[_contractAddress].numberPoints */\n      0x02\n      dup2\n      add\n      sload\n        /* \"Users/leilei/Downloads/MasterChefV2/contracts/pointCenterIfo.sol\":37405:37438  ifos[_contractAddress].campaignId */\n      swap2\n      add\n      sload\n        /* \"Users/leilei/Downloads/MasterChefV2/contracts/pointCenterIfo.sol\":37282:37448  pancakeProfile.increaseUserPoints(... */\n      dup3\n      mload\n      shl(0xe1, 0x0dee0bfb)\n      dup2\n      mstore\n      swap5\n      dup6\n      add\n      swap7\n      swap1\n      swap7\n      mstore\n      0x24\n      dup5\n      add\n      mstore\n      0x44\n      dup4\n      add\n      swap5\n      swap1\n      swap5\n      mstore\n      swap3\n      mload\n        /* \"Users/leilei/Downloads/MasterChefV2/contracts/pointCenterIfo.sol\":37282:37296  pancakeProfile */\n      swap3\n      swap1\n      swap4\n      and\n      swap3\n        /* \"Users/leilei/Downloads/MasterChefV2/contracts/pointCenterIfo.sol\":37282:37315  pancakeProfile.increaseUserPoints */\n      0x1bdc17f6\n      swap3\n        /* \"Users/leilei/Downloads/MasterChefV2/contracts/pointCenterIfo.sol\":37282:37448  pancakeProfile.increaseUserPoints(... */\n      0x64\n      dup1\n      dup4\n      add\n      swap4\n        /* \"Users/leilei/Downloads/MasterChefV2/contracts/pointCenterIfo.sol\":37180:37201  _users[senderAddress] */\n      swap3\n        /* \"Users/leilei/Downloads/MasterChefV2/contracts/pointCenterIfo.sol\":37282:37448  pancakeProfile.increaseUserPoints(... */\n      dup3\n      swap1\n      sub\n      add\n      dup2\n        /* \"Users/leilei/Downloads/MasterChefV2/contracts/pointCenterIfo.sol\":37180:37201  _users[senderAddress] */\n      dup4\n        /* \"Users/leilei/Downloads/MasterChefV2/contracts/pointCenterIfo.sol\":37282:37296  pancakeProfile */\n      dup8\n        /* \"Users/leilei/Downloads/MasterChefV2/contracts/pointCenterIfo.sol\":37282:37448  pancakeProfile.increaseUserPoints(... */\n      dup1\n      extcodesize\n      iszero\n      dup1\n      iszero\n      tag_90\n      jumpi\n      0x00\n      dup1\n      revert\n    tag_90:\n      pop\n      gas\n      call\n      iszero\n      dup1\n      iszero\n      tag_92\n      jumpi\n      returndatasize\n      0x00\n      dup1\n      returndatacopy\n      revert(0x00, returndatasize)\n    tag_92:\n      pop\n      pop\n      pop\n      pop\n        /* \"Users/leilei/Downloads/MasterChefV2/contracts/pointCenterIfo.sol\":36103:37455  function getPoints(address _contractAddress) external {... */\n      pop\n      pop\n      pop\n      pop\n      pop\n      pop\n      jump\t// out\n        /* \"Users/leilei/Downloads/MasterChefV2/contracts/pointCenterIfo.sol\":3070:3344  function transferOwnership(address newOwner) public virtual onlyOwner {... */\n    tag_44:\n        /* \"Users/leilei/Downloads/MasterChefV2/contracts/pointCenterIfo.sol\":2367:2379  _msgSender() */\n      tag_94\n        /* \"Users/leilei/Downloads/MasterChefV2/contracts/pointCenterIfo.sol\":2367:2377  _msgSender */\n      tag_49\n        /* \"Users/leilei/Downloads/MasterChefV2/contracts/pointCenterIfo.sol\":2367:2379  _msgSender() */\n      jump\t// in\n    tag_94:\n        /* \"Users/leilei/Downloads/MasterChefV2/contracts/pointCenterIfo.sol\":2357:2363  _owner */\n      sload(0x00)\n      sub(shl(0xa0, 0x01), 0x01)\n      swap1\n      dup2\n      and\n        /* \"Users/leilei/Downloads/MasterChefV2/contracts/pointCenterIfo.sol\":2357:2379  _owner == _msgSender() */\n      swap2\n      and\n      eq\n        /* \"Users/leilei/Downloads/MasterChefV2/contracts/pointCenterIfo.sol\":2349:2416  require(_owner == _msgSender(), \"Ownable: caller is not the owner\") */\n      tag_95\n      jumpi\n      0x40\n      dup1\n      mload\n      shl(0xe5, 0x461bcd)\n      dup2\n      mstore\n      0x20\n      0x04\n      dup3\n      add\n      dup2\n      swap1\n      mstore\n      0x24\n      dup3\n      add\n      mstore\n      0x00\n      dup1\n      mload\n      0x20\n      data_9924ebdf1add33d25d4ef888e16131f0a5687b0580a36c21b5c301a6c462effe\n      dup4\n      codecopy\n      dup2\n      mload\n      swap2\n      mstore\n      0x44\n      dup3\n      add\n      mstore\n      swap1\n      mload\n      swap1\n      dup2\n      swap1\n      sub\n      0x64\n      add\n      swap1\n      revert\n    tag_95:\n      sub(shl(0xa0, 0x01), 0x01)\n        /* \"Users/leilei/Downloads/MasterChefV2/contracts/pointCenterIfo.sol\":3171:3193  newOwner != address(0) */\n      dup2\n      and\n        /* \"Users/leilei/Downloads/MasterChefV2/contracts/pointCenterIfo.sol\":3150:3257  require(... */\n      tag_97\n      jumpi\n      mload(0x40)\n      shl(0xe5, 0x461bcd)\n      dup2\n      mstore\n      0x04\n      add\n      dup1\n      dup1\n      0x20\n      add\n      dup3\n      dup2\n      sub\n      dup3\n      mstore\n      0x26\n      dup2\n      mstore\n      0x20\n      add\n      dup1\n      data_245f15ff17f551913a7a18385165551503906a406f905ac1c2437281a7cd0cfe\n      0x26\n      swap2\n      codecopy\n      0x40\n      add\n      swap2\n      pop\n      pop\n      mload(0x40)\n      dup1\n      swap2\n      sub\n      swap1\n      revert\n    tag_97:\n        /* \"Users/leilei/Downloads/MasterChefV2/contracts/pointCenterIfo.sol\":3293:3299  _owner */\n      0x00\n      dup1\n      sload\n        /* \"Users/leilei/Downloads/MasterChefV2/contracts/pointCenterIfo.sol\":3272:3310  OwnershipTransferred(_owner, newOwner) */\n      mload(0x40)\n      sub(shl(0xa0, 0x01), 0x01)\n      dup1\n      dup6\n      and\n      swap4\n        /* \"Users/leilei/Downloads/MasterChefV2/contracts/pointCenterIfo.sol\":3293:3299  _owner */\n      swap3\n      and\n      swap2\n        /* \"Users/leilei/Downloads/MasterChefV2/contracts/pointCenterIfo.sol\":3272:3310  OwnershipTransferred(_owner, newOwner) */\n      0x8be0079c531659141344cd1fd0a4f28419497f9722a3daafe3b4186f6b6457e0\n      swap2\n      log3\n        /* \"Users/leilei/Downloads/MasterChefV2/contracts/pointCenterIfo.sol\":3320:3326  _owner */\n      0x00\n        /* \"Users/leilei/Downloads/MasterChefV2/contracts/pointCenterIfo.sol\":3320:3337  _owner = newOwner */\n      dup1\n      sload\n      not(sub(shl(0xa0, 0x01), 0x01))\n      and\n      sub(shl(0xa0, 0x01), 0x01)\n      swap3\n      swap1\n      swap3\n      and\n      swap2\n      swap1\n      swap2\n      or\n      swap1\n      sstore\n        /* \"Users/leilei/Downloads/MasterChefV2/contracts/pointCenterIfo.sol\":3070:3344  function transferOwnership(address newOwner) public virtual onlyOwner {... */\n      jump\t// out\n        /* \"Users/leilei/Downloads/MasterChefV2/contracts/pointCenterIfo.sol\":35483:35511  uint256 public maxViewLength */\n    tag_46:\n      sload(0x02)\n      dup2\n      jump\t// out\n        /* \"Users/leilei/Downloads/MasterChefV2/contracts/pointCenterIfo.sol\":714:818  function _msgSender() internal view virtual returns (address payable) {... */\n    tag_49:\n        /* \"Users/leilei/Downloads/MasterChefV2/contracts/pointCenterIfo.sol\":801:811  msg.sender */\n      caller\n        /* \"Users/leilei/Downloads/MasterChefV2/contracts/pointCenterIfo.sol\":714:818  function _msgSender() internal view virtual returns (address payable) {... */\n      swap1\n      jump\t// out\n        /* \"Users/leilei/Downloads/MasterChefV2/contracts/pointCenterIfo.sol\":38989:40037  function _checkClaimStatus(address _userAddress, address _contractAddress)... */\n    tag_65:\n        /* \"Users/leilei/Downloads/MasterChefV2/contracts/pointCenterIfo.sol\":39110:39114  bool */\n      0x00\n        /* \"Users/leilei/Downloads/MasterChefV2/contracts/pointCenterIfo.sol\":39130:39144  IFO currentIfo */\n      dup1\n        /* \"Users/leilei/Downloads/MasterChefV2/contracts/pointCenterIfo.sol\":39151:39167  _contractAddress */\n      dup3\n        /* \"Users/leilei/Downloads/MasterChefV2/contracts/pointCenterIfo.sol\":39130:39168  IFO currentIfo = IFO(_contractAddress) */\n      swap1\n      pop\n        /* \"Users/leilei/Downloads/MasterChefV2/contracts/pointCenterIfo.sol\":39179:39197  uint256 amountUser */\n      0x00\n        /* \"Users/leilei/Downloads/MasterChefV2/contracts/pointCenterIfo.sol\":39207:39226  bool hasUserClaimed */\n      dup1\n        /* \"Users/leilei/Downloads/MasterChefV2/contracts/pointCenterIfo.sol\":39294:39304  currentIfo */\n      dup3\n      sub(shl(0xa0, 0x01), 0x01)\n        /* \"Users/leilei/Downloads/MasterChefV2/contracts/pointCenterIfo.sol\":39294:39313  currentIfo.userInfo */\n      and\n      0x1959a002\n        /* \"Users/leilei/Downloads/MasterChefV2/contracts/pointCenterIfo.sol\":39314:39326  _userAddress */\n      dup8\n        /* \"Users/leilei/Downloads/MasterChefV2/contracts/pointCenterIfo.sol\":39294:39327  currentIfo.userInfo(_userAddress) */\n      mload(0x40)\n      dup3\n      0xffffffff\n      and\n      0xe0\n      shl\n      dup2\n      mstore\n      0x04\n      add\n      dup1\n      dup3\n      sub(shl(0xa0, 0x01), 0x01)\n      and\n      dup2\n      mstore\n      0x20\n      add\n      swap2\n      pop\n      pop\n      0x40\n      dup1\n      mload\n      dup1\n      dup4\n      sub\n      dup2\n      dup7\n      dup1\n      extcodesize\n      iszero\n      dup1\n      iszero\n      tag_100\n      jumpi\n      0x00\n      dup1\n      revert\n    tag_100:\n      pop\n      gas\n      staticcall\n      iszero\n      dup1\n      iszero\n      tag_102\n      jumpi\n      returndatasize\n      0x00\n      dup1\n      returndatacopy\n      revert(0x00, returndatasize)\n    tag_102:\n      pop\n      pop\n      pop\n      pop\n      mload(0x40)\n      returndatasize\n      0x40\n      dup2\n      lt\n      iszero\n      tag_103\n      jumpi\n      0x00\n      dup1\n      revert\n    tag_103:\n      pop\n      dup1\n      mload\n      0x20\n      swap1\n      swap2\n      add\n      mload\n      swap1\n      swap3\n      pop\n      swap1\n      pop\n        /* \"Users/leilei/Downloads/MasterChefV2/contracts/pointCenterIfo.sol\":39356:39371  !hasUserClaimed */\n      dup1\n      iszero\n      dup1\n        /* \"Users/leilei/Downloads/MasterChefV2/contracts/pointCenterIfo.sol\":39355:39442  (!hasUserClaimed) ||... */\n      tag_104\n      jumpi\n      pop\n      sub(shl(0xa0, 0x01), 0x01)\n        /* \"Users/leilei/Downloads/MasterChefV2/contracts/pointCenterIfo.sol\":39402:39424  ifos[_contractAddress] */\n      dup6\n      and\n      0x00\n      swap1\n      dup2\n      mstore\n        /* \"Users/leilei/Downloads/MasterChefV2/contracts/pointCenterIfo.sol\":39402:39406  ifos */\n      0x03\n        /* \"Users/leilei/Downloads/MasterChefV2/contracts/pointCenterIfo.sol\":39402:39424  ifos[_contractAddress] */\n      0x20\n      mstore\n      0x40\n      swap1\n      keccak256\n        /* \"Users/leilei/Downloads/MasterChefV2/contracts/pointCenterIfo.sol\":39402:39441  ifos[_contractAddress].thresholdToClaim */\n      sload\n        /* \"Users/leilei/Downloads/MasterChefV2/contracts/pointCenterIfo.sol\":39389:39441  amountUser < ifos[_contractAddress].thresholdToClaim */\n      dup3\n      lt\n        /* \"Users/leilei/Downloads/MasterChefV2/contracts/pointCenterIfo.sol\":39355:39442  (!hasUserClaimed) ||... */\n    tag_104:\n        /* \"Users/leilei/Downloads/MasterChefV2/contracts/pointCenterIfo.sol\":39338:40031  if (... */\n      iszero\n      tag_105\n      jumpi\n        /* \"Users/leilei/Downloads/MasterChefV2/contracts/pointCenterIfo.sol\":39553:39558  false */\n      0x00\n        /* \"Users/leilei/Downloads/MasterChefV2/contracts/pointCenterIfo.sol\":39546:39558  return false */\n      swap4\n      pop\n      pop\n      pop\n      pop\n      jump(tag_56)\n        /* \"Users/leilei/Downloads/MasterChefV2/contracts/pointCenterIfo.sol\":39338:40031  if (... */\n    tag_105:\n      sub(shl(0xa0, 0x01), 0x01)\n        /* \"Users/leilei/Downloads/MasterChefV2/contracts/pointCenterIfo.sol\":39579:39599  _users[_userAddress] */\n      dup1\n      dup8\n      and\n      0x00\n      swap1\n      dup2\n      mstore\n        /* \"Users/leilei/Downloads/MasterChefV2/contracts/pointCenterIfo.sol\":39579:39585  _users */\n      0x04\n        /* \"Users/leilei/Downloads/MasterChefV2/contracts/pointCenterIfo.sol\":39579:39599  _users[_userAddress] */\n      0x20\n      swap1\n      dup2\n      mstore\n      0x40\n      dup1\n      dup4\n      keccak256\n        /* \"Users/leilei/Downloads/MasterChefV2/contracts/pointCenterIfo.sol\":39579:39617  _users[_userAddress][_contractAddress] */\n      swap4\n      dup10\n      and\n      dup4\n      mstore\n      swap3\n      swap1\n      mstore\n      keccak256\n      sload\n      0xff\n      and\n        /* \"Users/leilei/Downloads/MasterChefV2/contracts/pointCenterIfo.sol\":39575:40031  if (_users[_userAddress][_contractAddress]) {... */\n      iszero\n      tag_107\n      jumpi\n        /* \"Users/leilei/Downloads/MasterChefV2/contracts/pointCenterIfo.sol\":39712:39717  false */\n      0x00\n        /* \"Users/leilei/Downloads/MasterChefV2/contracts/pointCenterIfo.sol\":39705:39717  return false */\n      swap4\n      pop\n      pop\n      pop\n      pop\n      jump(tag_56)\n        /* \"Users/leilei/Downloads/MasterChefV2/contracts/pointCenterIfo.sol\":39575:40031  if (_users[_userAddress][_contractAddress]) {... */\n    tag_107:\n      sub(shl(0xa0, 0x01), 0x01)\n        /* \"Users/leilei/Downloads/MasterChefV2/contracts/pointCenterIfo.sol\":39818:39840  ifos[_contractAddress] */\n      dup6\n      and\n      0x00\n      swap1\n      dup2\n      mstore\n        /* \"Users/leilei/Downloads/MasterChefV2/contracts/pointCenterIfo.sol\":39818:39822  ifos */\n      0x03\n        /* \"Users/leilei/Downloads/MasterChefV2/contracts/pointCenterIfo.sol\":39818:39840  ifos[_contractAddress] */\n      0x20\n      mstore\n      0x40\n      swap1\n      keccak256\n        /* \"Users/leilei/Downloads/MasterChefV2/contracts/pointCenterIfo.sol\":39854:39855  1 */\n      0x01\n        /* \"Users/leilei/Downloads/MasterChefV2/contracts/pointCenterIfo.sol\":39818:39851  ifos[_contractAddress].campaignId */\n      swap1\n      dup2\n      add\n      sload\n        /* \"Users/leilei/Downloads/MasterChefV2/contracts/pointCenterIfo.sol\":39818:39855  ifos[_contractAddress].campaignId < 1 */\n      lt\n      dup1\n        /* \"Users/leilei/Downloads/MasterChefV2/contracts/pointCenterIfo.sol\":39817:39913  (ifos[_contractAddress].campaignId < 1) ||... */\n      tag_109\n      jumpi\n      pop\n      sub(shl(0xa0, 0x01), 0x01)\n        /* \"Users/leilei/Downloads/MasterChefV2/contracts/pointCenterIfo.sol\":39873:39895  ifos[_contractAddress] */\n      dup6\n      and\n      0x00\n      swap1\n      dup2\n      mstore\n        /* \"Users/leilei/Downloads/MasterChefV2/contracts/pointCenterIfo.sol\":39873:39877  ifos */\n      0x03\n        /* \"Users/leilei/Downloads/MasterChefV2/contracts/pointCenterIfo.sol\":39873:39895  ifos[_contractAddress] */\n      0x20\n      mstore\n      0x40\n      swap1\n      keccak256\n        /* \"Users/leilei/Downloads/MasterChefV2/contracts/pointCenterIfo.sol\":39873:39908  ifos[_contractAddress].numberPoints */\n      0x02\n      add\n      sload\n        /* \"Users/leilei/Downloads/MasterChefV2/contracts/pointCenterIfo.sol\":39911:39912  1 */\n      0x01\n      gt\n        /* \"Users/leilei/Downloads/MasterChefV2/contracts/pointCenterIfo.sol\":39817:39913  (ifos[_contractAddress].campaignId < 1) ||... */\n    tag_109:\n        /* \"Users/leilei/Downloads/MasterChefV2/contracts/pointCenterIfo.sol\":39734:40031  if (... */\n      iszero\n      tag_110\n      jumpi\n        /* \"Users/leilei/Downloads/MasterChefV2/contracts/pointCenterIfo.sol\":39945:39950  false */\n      0x00\n        /* \"Users/leilei/Downloads/MasterChefV2/contracts/pointCenterIfo.sol\":39938:39950  return false */\n      swap4\n      pop\n      pop\n      pop\n      pop\n      jump(tag_56)\n        /* \"Users/leilei/Downloads/MasterChefV2/contracts/pointCenterIfo.sol\":39734:40031  if (... */\n    tag_110:\n        /* \"Users/leilei/Downloads/MasterChefV2/contracts/pointCenterIfo.sol\":40016:40020  true */\n      0x01\n        /* \"Users/leilei/Downloads/MasterChefV2/contracts/pointCenterIfo.sol\":40009:40020  return true */\n      swap4\n      pop\n      pop\n      pop\n      pop\n      jump(tag_56)\n    stop\n    data_245f15ff17f551913a7a18385165551503906a406f905ac1c2437281a7cd0cfe 4f776e61626c653a206e6577206f776e657220697320746865207a65726f2061646472657373\n    data_9924ebdf1add33d25d4ef888e16131f0a5687b0580a36c21b5c301a6c462effe 4f776e61626c653a2063616c6c6572206973206e6f7420746865206f776e6572\n\n    auxdata: 0xa26469706673582212207e26344071e3f3faa790542505557487a5d0a27bf4642ed27f4ce033d126ca2d64736f6c634300060c0033\n}\n",
				"bytecode": {
					"linkReferences": {},
					"object": "608060405234801561001057600080fd5b50604051610d77380380610d778339818101604052604081101561003357600080fd5b50805160209091015160006100466100b9565b600080546001600160a01b0319166001600160a01b0383169081178255604051929350917f8be0079c531659141344cd1fd0a4f28419497f9722a3daafe3b4186f6b6457e0908290a350600180546001600160a01b0319166001600160a01b0393909316929092179091556002556100bd565b3390565b610cab806100cc6000396000f3fe608060405234801561001057600080fd5b506004361061009e5760003560e01c8063a789fa3011610066578063a789fa3014610250578063c105fa391461026d578063ee204abb146102af578063f2fde38b146102d5578063f6fed429146102fb5761009e565b80632b253913146100a35780633154782f146100dd578063715018a614610121578063740bd4ac146101295780638da5cb5b1461022c575b600080fd5b6100db600480360360808110156100b957600080fd5b506001600160a01b038135169060208101359060408101359060600135610315565b005b610103600480360360208110156100f357600080fd5b50356001600160a01b03166103f0565b60408051938452602084019290925282820152519081900360600190f35b6100db610411565b6101dc6004803603604081101561013f57600080fd5b6001600160a01b03823516919081019060408101602082013564010000000081111561016a57600080fd5b82018360208201111561017c57600080fd5b8035906020019184602083028401116401000000008311171561019e57600080fd5b9190808060200260200160405190810160405280939291908181526020018383602002808284376000920191909152509295506104b3945050505050565b60408051602080825283518183015283519192839290830191858101910280838360005b83811015610218578181015183820152602001610200565b505050509050019250505060405180910390f35b6102346105b0565b604080516001600160a01b039092168252519081900360200190f35b6100db6004803603602081101561026657600080fd5b50356105bf565b61029b6004803603604081101561028357600080fd5b506001600160a01b038135811691602001351661061c565b604080519115158252519081900360200190f35b6100db600480360360208110156102c557600080fd5b50356001600160a01b0316610631565b6100db600480360360208110156102eb57600080fd5b50356001600160a01b03166109cf565b610303610ac7565b60408051918252519081900360200190f35b61031d610acd565b6000546001600160a01b0390811691161461036d576040805162461bcd60e51b81526020600482018190526024820152600080516020610c56833981519152604482015290519081900360640190fd5b6040805160608101825284815260208082018581528284018581526001600160a01b0389166000818152600385528690209451855591516001850155516002909301929092558251868152908101849052825185937fc13d7e8dc4239b494c7af2a1fcb43c88a89af1833e5afc01239fa2a0ed1dd74a928290030190a350505050565b60036020526000908152604090208054600182015460029092015490919083565b610419610acd565b6000546001600160a01b03908116911614610469576040805162461bcd60e51b81526020600482018190526024820152600080516020610c56833981519152604482015290519081900360640190fd5b600080546040516001600160a01b03909116907f8be0079c531659141344cd1fd0a4f28419497f9722a3daafe3b4186f6b6457e0908390a3600080546001600160a01b0319169055565b606080825167ffffffffffffffff811180156104ce57600080fd5b506040519080825280602002602001820160405280156104f8578160200160208202803683370190505b50905060025483511115610553576040805162461bcd60e51b815260206004820152601f60248201527f4c656e677468206d757374206265203c3d206d6178566965774c656e67746800604482015290519081900360640190fd5b60005b83518110156105a657600061057e8686848151811061057157fe5b6020026020010151610ad1565b90508083838151811061058d57fe5b9115156020928302919091019091015250600101610556565b5090505b92915050565b6000546001600160a01b031690565b6105c7610acd565b6000546001600160a01b03908116911614610617576040805162461bcd60e51b81526020600482018190526024820152600080516020610c56833981519152604482015290519081900360640190fd5b600255565b6000806106298484610ad1565b949350505050565b600061063b610acd565b6001600160a01b0383166000908152600360205260409020600101549091501580159061068257506001600160a01b03821660009081526003602052604090206002015415155b6106bf576040805162461bcd60e51b81526020600482015260096024820152681b9bdd081d985b1a5960ba1b604482015290519081900360640190fd5b6001600160a01b0380821660009081526004602090815260408083209386168352929052205460ff161561073a576040805162461bcd60e51b815260206004820152601860248201527f68617320636c61696d656420666f7220746869732049464f0000000000000000604482015290519081900360640190fd5b6001546040805163ea0d5dcd60e01b81526001600160a01b0384811660048301529151600093929092169163ea0d5dcd91602480820192602092909190829003018186803b15801561078b57600080fd5b505afa15801561079f573d6000803e3d6000fd5b505050506040513d60208110156107b557600080fd5b50519050806107f8576040805162461bcd60e51b815260206004820152600a6024820152696e6f742061637469766560b01b604482015290519081900360640190fd5b6000839050600080826001600160a01b0316631959a002866040518263ffffffff1660e01b815260040180826001600160a01b03168152602001915050604080518083038186803b15801561084c57600080fd5b505afa158015610860573d6000803e3d6000fd5b505050506040513d604081101561087657600080fd5b5080516020909101519092509050806108c8576040805162461bcd60e51b815260206004820152600f60248201526e1a185cc81b9bdd0818db185a5b5959608a1b604482015290519081900360640190fd5b6001600160a01b0386166000908152600360205260409020548211610920576040805162461bcd60e51b81526020600482015260096024820152681d1bdbc81cdb585b1b60ba1b604482015290519081900360640190fd5b6001600160a01b0380861660008181526004602081815260408084208c871685528252808420805460ff191660019081179091558054600390935281852060028101549101548251630dee0bfb60e11b8152948501969096526024840152604483019490945292519290931692631bdc17f6926064808301939282900301818387803b1580156109af57600080fd5b505af11580156109c3573d6000803e3d6000fd5b50505050505050505050565b6109d7610acd565b6000546001600160a01b03908116911614610a27576040805162461bcd60e51b81526020600482018190526024820152600080516020610c56833981519152604482015290519081900360640190fd5b6001600160a01b038116610a6c5760405162461bcd60e51b8152600401808060200182810382526026815260200180610c306026913960400191505060405180910390fd5b600080546040516001600160a01b03808516939216917f8be0079c531659141344cd1fd0a4f28419497f9722a3daafe3b4186f6b6457e091a3600080546001600160a01b0319166001600160a01b0392909216919091179055565b60025481565b3390565b600080829050600080826001600160a01b0316631959a002876040518263ffffffff1660e01b815260040180826001600160a01b03168152602001915050604080518083038186803b158015610b2657600080fd5b505afa158015610b3a573d6000803e3d6000fd5b505050506040513d6040811015610b5057600080fd5b5080516020909101519092509050801580610b8257506001600160a01b03851660009081526003602052604090205482105b15610b9357600093505050506105aa565b6001600160a01b0380871660009081526004602090815260408083209389168352929052205460ff1615610bcd57600093505050506105aa565b6001600160a01b03851660009081526003602052604090206001908101541080610c1257506001600160a01b0385166000908152600360205260409020600201546001115b15610c2357600093505050506105aa565b600193505050506105aa56fe4f776e61626c653a206e6577206f776e657220697320746865207a65726f20616464726573734f776e61626c653a2063616c6c6572206973206e6f7420746865206f776e6572a26469706673582212207e26344071e3f3faa790542505557487a5d0a27bf4642ed27f4ce033d126ca2d64736f6c634300060c0033",
					"opcodes": "PUSH1 0x80 PUSH1 0x40 MSTORE CALLVALUE DUP1 ISZERO PUSH2 0x10 JUMPI PUSH1 0x0 DUP1 REVERT JUMPDEST POP PUSH1 0x40 MLOAD PUSH2 0xD77 CODESIZE SUB DUP1 PUSH2 0xD77 DUP4 CODECOPY DUP2 DUP2 ADD PUSH1 0x40 MSTORE PUSH1 0x40 DUP2 LT ISZERO PUSH2 0x33 JUMPI PUSH1 0x0 DUP1 REVERT JUMPDEST POP DUP1 MLOAD PUSH1 0x20 SWAP1 SWAP2 ADD MLOAD PUSH1 0x0 PUSH2 0x46 PUSH2 0xB9 JUMP JUMPDEST PUSH1 0x0 DUP1 SLOAD PUSH1 0x1 PUSH1 0x1 PUSH1 0xA0 SHL SUB NOT AND PUSH1 0x1 PUSH1 0x1 PUSH1 0xA0 SHL SUB DUP4 AND SWAP1 DUP2 OR DUP3 SSTORE PUSH1 0x40 MLOAD SWAP3 SWAP4 POP SWAP2 PUSH32 0x8BE0079C531659141344CD1FD0A4F28419497F9722A3DAAFE3B4186F6B6457E0 SWAP1 DUP3 SWAP1 LOG3 POP PUSH1 0x1 DUP1 SLOAD PUSH1 0x1 PUSH1 0x1 PUSH1 0xA0 SHL SUB NOT AND PUSH1 0x1 PUSH1 0x1 PUSH1 0xA0 SHL SUB SWAP4 SWAP1 SWAP4 AND SWAP3 SWAP1 SWAP3 OR SWAP1 SWAP2 SSTORE PUSH1 0x2 SSTORE PUSH2 0xBD JUMP JUMPDEST CALLER SWAP1 JUMP JUMPDEST PUSH2 0xCAB DUP1 PUSH2 0xCC PUSH1 0x0 CODECOPY PUSH1 0x0 RETURN INVALID PUSH1 0x80 PUSH1 0x40 MSTORE CALLVALUE DUP1 ISZERO PUSH2 0x10 JUMPI PUSH1 0x0 DUP1 REVERT JUMPDEST POP PUSH1 0x4 CALLDATASIZE LT PUSH2 0x9E JUMPI PUSH1 0x0 CALLDATALOAD PUSH1 0xE0 SHR DUP1 PUSH4 0xA789FA30 GT PUSH2 0x66 JUMPI DUP1 PUSH4 0xA789FA30 EQ PUSH2 0x250 JUMPI DUP1 PUSH4 0xC105FA39 EQ PUSH2 0x26D JUMPI DUP1 PUSH4 0xEE204ABB EQ PUSH2 0x2AF JUMPI DUP1 PUSH4 0xF2FDE38B EQ PUSH2 0x2D5 JUMPI DUP1 PUSH4 0xF6FED429 EQ PUSH2 0x2FB JUMPI PUSH2 0x9E JUMP JUMPDEST DUP1 PUSH4 0x2B253913 EQ PUSH2 0xA3 JUMPI DUP1 PUSH4 0x3154782F EQ PUSH2 0xDD JUMPI DUP1 PUSH4 0x715018A6 EQ PUSH2 0x121 JUMPI DUP1 PUSH4 0x740BD4AC EQ PUSH2 0x129 JUMPI DUP1 PUSH4 0x8DA5CB5B EQ PUSH2 0x22C JUMPI JUMPDEST PUSH1 0x0 DUP1 REVERT JUMPDEST PUSH2 0xDB PUSH1 0x4 DUP1 CALLDATASIZE SUB PUSH1 0x80 DUP2 LT ISZERO PUSH2 0xB9 JUMPI PUSH1 0x0 DUP1 REVERT JUMPDEST POP PUSH1 0x1 PUSH1 0x1 PUSH1 0xA0 SHL SUB DUP2 CALLDATALOAD AND SWAP1 PUSH1 0x20 DUP2 ADD CALLDATALOAD SWAP1 PUSH1 0x40 DUP2 ADD CALLDATALOAD SWAP1 PUSH1 0x60 ADD CALLDATALOAD PUSH2 0x315 JUMP JUMPDEST STOP JUMPDEST PUSH2 0x103 PUSH1 0x4 DUP1 CALLDATASIZE SUB PUSH1 0x20 DUP2 LT ISZERO PUSH2 0xF3 JUMPI PUSH1 0x0 DUP1 REVERT JUMPDEST POP CALLDATALOAD PUSH1 0x1 PUSH1 0x1 PUSH1 0xA0 SHL SUB AND PUSH2 0x3F0 JUMP JUMPDEST PUSH1 0x40 DUP1 MLOAD SWAP4 DUP5 MSTORE PUSH1 0x20 DUP5 ADD SWAP3 SWAP1 SWAP3 MSTORE DUP3 DUP3 ADD MSTORE MLOAD SWAP1 DUP2 SWAP1 SUB PUSH1 0x60 ADD SWAP1 RETURN JUMPDEST PUSH2 0xDB PUSH2 0x411 JUMP JUMPDEST PUSH2 0x1DC PUSH1 0x4 DUP1 CALLDATASIZE SUB PUSH1 0x40 DUP2 LT ISZERO PUSH2 0x13F JUMPI PUSH1 0x0 DUP1 REVERT JUMPDEST PUSH1 0x1 PUSH1 0x1 PUSH1 0xA0 SHL SUB DUP3 CALLDATALOAD AND SWAP2 SWAP1 DUP2 ADD SWAP1 PUSH1 0x40 DUP2 ADD PUSH1 0x20 DUP3 ADD CALLDATALOAD PUSH5 0x100000000 DUP2 GT ISZERO PUSH2 0x16A JUMPI PUSH1 0x0 DUP1 REVERT JUMPDEST DUP3 ADD DUP4 PUSH1 0x20 DUP3 ADD GT ISZERO PUSH2 0x17C JUMPI PUSH1 0x0 DUP1 REVERT JUMPDEST DUP1 CALLDATALOAD SWAP1 PUSH1 0x20 ADD SWAP2 DUP5 PUSH1 0x20 DUP4 MUL DUP5 ADD GT PUSH5 0x100000000 DUP4 GT OR ISZERO PUSH2 0x19E JUMPI PUSH1 0x0 DUP1 REVERT JUMPDEST SWAP2 SWAP1 DUP1 DUP1 PUSH1 0x20 MUL PUSH1 0x20 ADD PUSH1 0x40 MLOAD SWAP1 DUP2 ADD PUSH1 0x40 MSTORE DUP1 SWAP4 SWAP3 SWAP2 SWAP1 DUP2 DUP2 MSTORE PUSH1 0x20 ADD DUP4 DUP4 PUSH1 0x20 MUL DUP1 DUP3 DUP5 CALLDATACOPY PUSH1 0x0 SWAP3 ADD SWAP2 SWAP1 SWAP2 MSTORE POP SWAP3 SWAP6 POP PUSH2 0x4B3 SWAP5 POP POP POP POP POP JUMP JUMPDEST PUSH1 0x40 DUP1 MLOAD PUSH1 0x20 DUP1 DUP3 MSTORE DUP4 MLOAD DUP2 DUP4 ADD MSTORE DUP4 MLOAD SWAP2 SWAP3 DUP4 SWAP3 SWAP1 DUP4 ADD SWAP2 DUP6 DUP2 ADD SWAP2 MUL DUP1 DUP4 DUP4 PUSH1 0x0 JUMPDEST DUP4 DUP2 LT ISZERO PUSH2 0x218 JUMPI DUP2 DUP2 ADD MLOAD DUP4 DUP3 ADD MSTORE PUSH1 0x20 ADD PUSH2 0x200 JUMP JUMPDEST POP POP POP POP SWAP1 POP ADD SWAP3 POP POP POP PUSH1 0x40 MLOAD DUP1 SWAP2 SUB SWAP1 RETURN JUMPDEST PUSH2 0x234 PUSH2 0x5B0 JUMP JUMPDEST PUSH1 0x40 DUP1 MLOAD PUSH1 0x1 PUSH1 0x1 PUSH1 0xA0 SHL SUB SWAP1 SWAP3 AND DUP3 MSTORE MLOAD SWAP1 DUP2 SWAP1 SUB PUSH1 0x20 ADD SWAP1 RETURN JUMPDEST PUSH2 0xDB PUSH1 0x4 DUP1 CALLDATASIZE SUB PUSH1 0x20 DUP2 LT ISZERO PUSH2 0x266 JUMPI PUSH1 0x0 DUP1 REVERT JUMPDEST POP CALLDATALOAD PUSH2 0x5BF JUMP JUMPDEST PUSH2 0x29B PUSH1 0x4 DUP1 CALLDATASIZE SUB PUSH1 0x40 DUP2 LT ISZERO PUSH2 0x283 JUMPI PUSH1 0x0 DUP1 REVERT JUMPDEST POP PUSH1 0x1 PUSH1 0x1 PUSH1 0xA0 SHL SUB DUP2 CALLDATALOAD DUP2 AND SWAP2 PUSH1 0x20 ADD CALLDATALOAD AND PUSH2 0x61C JUMP JUMPDEST PUSH1 0x40 DUP1 MLOAD SWAP2 ISZERO ISZERO DUP3 MSTORE MLOAD SWAP1 DUP2 SWAP1 SUB PUSH1 0x20 ADD SWAP1 RETURN JUMPDEST PUSH2 0xDB PUSH1 0x4 DUP1 CALLDATASIZE SUB PUSH1 0x20 DUP2 LT ISZERO PUSH2 0x2C5 JUMPI PUSH1 0x0 DUP1 REVERT JUMPDEST POP CALLDATALOAD PUSH1 0x1 PUSH1 0x1 PUSH1 0xA0 SHL SUB AND PUSH2 0x631 JUMP JUMPDEST PUSH2 0xDB PUSH1 0x4 DUP1 CALLDATASIZE SUB PUSH1 0x20 DUP2 LT ISZERO PUSH2 0x2EB JUMPI PUSH1 0x0 DUP1 REVERT JUMPDEST POP CALLDATALOAD PUSH1 0x1 PUSH1 0x1 PUSH1 0xA0 SHL SUB AND PUSH2 0x9CF JUMP JUMPDEST PUSH2 0x303 PUSH2 0xAC7 JUMP JUMPDEST PUSH1 0x40 DUP1 MLOAD SWAP2 DUP3 MSTORE MLOAD SWAP1 DUP2 SWAP1 SUB PUSH1 0x20 ADD SWAP1 RETURN JUMPDEST PUSH2 0x31D PUSH2 0xACD JUMP JUMPDEST PUSH1 0x0 SLOAD PUSH1 0x1 PUSH1 0x1 PUSH1 0xA0 SHL SUB SWAP1 DUP2 AND SWAP2 AND EQ PUSH2 0x36D JUMPI PUSH1 0x40 DUP1 MLOAD PUSH3 0x461BCD PUSH1 0xE5 SHL DUP2 MSTORE PUSH1 0x20 PUSH1 0x4 DUP3 ADD DUP2 SWAP1 MSTORE PUSH1 0x24 DUP3 ADD MSTORE PUSH1 0x0 DUP1 MLOAD PUSH1 0x20 PUSH2 0xC56 DUP4 CODECOPY DUP2 MLOAD SWAP2 MSTORE PUSH1 0x44 DUP3 ADD MSTORE SWAP1 MLOAD SWAP1 DUP2 SWAP1 SUB PUSH1 0x64 ADD SWAP1 REVERT JUMPDEST PUSH1 0x40 DUP1 MLOAD PUSH1 0x60 DUP2 ADD DUP3 MSTORE DUP5 DUP2 MSTORE PUSH1 0x20 DUP1 DUP3 ADD DUP6 DUP2 MSTORE DUP3 DUP5 ADD DUP6 DUP2 MSTORE PUSH1 0x1 PUSH1 0x1 PUSH1 0xA0 SHL SUB DUP10 AND PUSH1 0x0 DUP2 DUP2 MSTORE PUSH1 0x3 DUP6 MSTORE DUP7 SWAP1 KECCAK256 SWAP5 MLOAD DUP6 SSTORE SWAP2 MLOAD PUSH1 0x1 DUP6 ADD SSTORE MLOAD PUSH1 0x2 SWAP1 SWAP4 ADD SWAP3 SWAP1 SWAP3 SSTORE DUP3 MLOAD DUP7 DUP2 MSTORE SWAP1 DUP2 ADD DUP5 SWAP1 MSTORE DUP3 MLOAD DUP6 SWAP4 PUSH32 0xC13D7E8DC4239B494C7AF2A1FCB43C88A89AF1833E5AFC01239FA2A0ED1DD74A SWAP3 DUP3 SWAP1 SUB ADD SWAP1 LOG3 POP POP POP POP JUMP JUMPDEST PUSH1 0x3 PUSH1 0x20 MSTORE PUSH1 0x0 SWAP1 DUP2 MSTORE PUSH1 0x40 SWAP1 KECCAK256 DUP1 SLOAD PUSH1 0x1 DUP3 ADD SLOAD PUSH1 0x2 SWAP1 SWAP3 ADD SLOAD SWAP1 SWAP2 SWAP1 DUP4 JUMP JUMPDEST PUSH2 0x419 PUSH2 0xACD JUMP JUMPDEST PUSH1 0x0 SLOAD PUSH1 0x1 PUSH1 0x1 PUSH1 0xA0 SHL SUB SWAP1 DUP2 AND SWAP2 AND EQ PUSH2 0x469 JUMPI PUSH1 0x40 DUP1 MLOAD PUSH3 0x461BCD PUSH1 0xE5 SHL DUP2 MSTORE PUSH1 0x20 PUSH1 0x4 DUP3 ADD DUP2 SWAP1 MSTORE PUSH1 0x24 DUP3 ADD MSTORE PUSH1 0x0 DUP1 MLOAD PUSH1 0x20 PUSH2 0xC56 DUP4 CODECOPY DUP2 MLOAD SWAP2 MSTORE PUSH1 0x44 DUP3 ADD MSTORE SWAP1 MLOAD SWAP1 DUP2 SWAP1 SUB PUSH1 0x64 ADD SWAP1 REVERT JUMPDEST PUSH1 0x0 DUP1 SLOAD PUSH1 0x40 MLOAD PUSH1 0x1 PUSH1 0x1 PUSH1 0xA0 SHL SUB SWAP1 SWAP2 AND SWAP1 PUSH32 0x8BE0079C531659141344CD1FD0A4F28419497F9722A3DAAFE3B4186F6B6457E0 SWAP1 DUP4 SWAP1 LOG3 PUSH1 0x0 DUP1 SLOAD PUSH1 0x1 PUSH1 0x1 PUSH1 0xA0 SHL SUB NOT AND SWAP1 SSTORE JUMP JUMPDEST PUSH1 0x60 DUP1 DUP3 MLOAD PUSH8 0xFFFFFFFFFFFFFFFF DUP2 GT DUP1 ISZERO PUSH2 0x4CE JUMPI PUSH1 0x0 DUP1 REVERT JUMPDEST POP PUSH1 0x40 MLOAD SWAP1 DUP1 DUP3 MSTORE DUP1 PUSH1 0x20 MUL PUSH1 0x20 ADD DUP3 ADD PUSH1 0x40 MSTORE DUP1 ISZERO PUSH2 0x4F8 JUMPI DUP2 PUSH1 0x20 ADD PUSH1 0x20 DUP3 MUL DUP1 CALLDATASIZE DUP4 CALLDATACOPY ADD SWAP1 POP JUMPDEST POP SWAP1 POP PUSH1 0x2 SLOAD DUP4 MLOAD GT ISZERO PUSH2 0x553 JUMPI PUSH1 0x40 DUP1 MLOAD PUSH3 0x461BCD PUSH1 0xE5 SHL DUP2 MSTORE PUSH1 0x20 PUSH1 0x4 DUP3 ADD MSTORE PUSH1 0x1F PUSH1 0x24 DUP3 ADD MSTORE PUSH32 0x4C656E677468206D757374206265203C3D206D6178566965774C656E67746800 PUSH1 0x44 DUP3 ADD MSTORE SWAP1 MLOAD SWAP1 DUP2 SWAP1 SUB PUSH1 0x64 ADD SWAP1 REVERT JUMPDEST PUSH1 0x0 JUMPDEST DUP4 MLOAD DUP2 LT ISZERO PUSH2 0x5A6 JUMPI PUSH1 0x0 PUSH2 0x57E DUP7 DUP7 DUP5 DUP2 MLOAD DUP2 LT PUSH2 0x571 JUMPI INVALID JUMPDEST PUSH1 0x20 MUL PUSH1 0x20 ADD ADD MLOAD PUSH2 0xAD1 JUMP JUMPDEST SWAP1 POP DUP1 DUP4 DUP4 DUP2 MLOAD DUP2 LT PUSH2 0x58D JUMPI INVALID JUMPDEST SWAP2 ISZERO ISZERO PUSH1 0x20 SWAP3 DUP4 MUL SWAP2 SWAP1 SWAP2 ADD SWAP1 SWAP2 ADD MSTORE POP PUSH1 0x1 ADD PUSH2 0x556 JUMP JUMPDEST POP SWAP1 POP JUMPDEST SWAP3 SWAP2 POP POP JUMP JUMPDEST PUSH1 0x0 SLOAD PUSH1 0x1 PUSH1 0x1 PUSH1 0xA0 SHL SUB AND SWAP1 JUMP JUMPDEST PUSH2 0x5C7 PUSH2 0xACD JUMP JUMPDEST PUSH1 0x0 SLOAD PUSH1 0x1 PUSH1 0x1 PUSH1 0xA0 SHL SUB SWAP1 DUP2 AND SWAP2 AND EQ PUSH2 0x617 JUMPI PUSH1 0x40 DUP1 MLOAD PUSH3 0x461BCD PUSH1 0xE5 SHL DUP2 MSTORE PUSH1 0x20 PUSH1 0x4 DUP3 ADD DUP2 SWAP1 MSTORE PUSH1 0x24 DUP3 ADD MSTORE PUSH1 0x0 DUP1 MLOAD PUSH1 0x20 PUSH2 0xC56 DUP4 CODECOPY DUP2 MLOAD SWAP2 MSTORE PUSH1 0x44 DUP3 ADD MSTORE SWAP1 MLOAD SWAP1 DUP2 SWAP1 SUB PUSH1 0x64 ADD SWAP1 REVERT JUMPDEST PUSH1 0x2 SSTORE JUMP JUMPDEST PUSH1 0x0 DUP1 PUSH2 0x629 DUP5 DUP5 PUSH2 0xAD1 JUMP JUMPDEST SWAP5 SWAP4 POP POP POP POP JUMP JUMPDEST PUSH1 0x0 PUSH2 0x63B PUSH2 0xACD JUMP JUMPDEST PUSH1 0x1 PUSH1 0x1 PUSH1 0xA0 SHL SUB DUP4 AND PUSH1 0x0 SWAP1 DUP2 MSTORE PUSH1 0x3 PUSH1 0x20 MSTORE PUSH1 0x40 SWAP1 KECCAK256 PUSH1 0x1 ADD SLOAD SWAP1 SWAP2 POP ISZERO DUP1 ISZERO SWAP1 PUSH2 0x682 JUMPI POP PUSH1 0x1 PUSH1 0x1 PUSH1 0xA0 SHL SUB DUP3 AND PUSH1 0x0 SWAP1 DUP2 MSTORE PUSH1 0x3 PUSH1 0x20 MSTORE PUSH1 0x40 SWAP1 KECCAK256 PUSH1 0x2 ADD SLOAD ISZERO ISZERO JUMPDEST PUSH2 0x6BF JUMPI PUSH1 0x40 DUP1 MLOAD PUSH3 0x461BCD PUSH1 0xE5 SHL DUP2 MSTORE PUSH1 0x20 PUSH1 0x4 DUP3 ADD MSTORE PUSH1 0x9 PUSH1 0x24 DUP3 ADD MSTORE PUSH9 0x1B9BDD081D985B1A59 PUSH1 0xBA SHL PUSH1 0x44 DUP3 ADD MSTORE SWAP1 MLOAD SWAP1 DUP2 SWAP1 SUB PUSH1 0x64 ADD SWAP1 REVERT JUMPDEST PUSH1 0x1 PUSH1 0x1 PUSH1 0xA0 SHL SUB DUP1 DUP3 AND PUSH1 0x0 SWAP1 DUP2 MSTORE PUSH1 0x4 PUSH1 0x20 SWAP1 DUP2 MSTORE PUSH1 0x40 DUP1 DUP4 KECCAK256 SWAP4 DUP7 AND DUP4 MSTORE SWAP3 SWAP1 MSTORE KECCAK256 SLOAD PUSH1 0xFF AND ISZERO PUSH2 0x73A JUMPI PUSH1 0x40 DUP1 MLOAD PUSH3 0x461BCD PUSH1 0xE5 SHL DUP2 MSTORE PUSH1 0x20 PUSH1 0x4 DUP3 ADD MSTORE PUSH1 0x18 PUSH1 0x24 DUP3 ADD MSTORE PUSH32 0x68617320636C61696D656420666F7220746869732049464F0000000000000000 PUSH1 0x44 DUP3 ADD MSTORE SWAP1 MLOAD SWAP1 DUP2 SWAP1 SUB PUSH1 0x64 ADD SWAP1 REVERT JUMPDEST PUSH1 0x1 SLOAD PUSH1 0x40 DUP1 MLOAD PUSH4 0xEA0D5DCD PUSH1 0xE0 SHL DUP2 MSTORE PUSH1 0x1 PUSH1 0x1 PUSH1 0xA0 SHL SUB DUP5 DUP2 AND PUSH1 0x4 DUP4 ADD MSTORE SWAP2 MLOAD PUSH1 0x0 SWAP4 SWAP3 SWAP1 SWAP3 AND SWAP2 PUSH4 0xEA0D5DCD SWAP2 PUSH1 0x24 DUP1 DUP3 ADD SWAP3 PUSH1 0x20 SWAP3 SWAP1 SWAP2 SWAP1 DUP3 SWAP1 SUB ADD DUP2 DUP7 DUP1 EXTCODESIZE ISZERO DUP1 ISZERO PUSH2 0x78B JUMPI PUSH1 0x0 DUP1 REVERT JUMPDEST POP GAS STATICCALL ISZERO DUP1 ISZERO PUSH2 0x79F JUMPI RETURNDATASIZE PUSH1 0x0 DUP1 RETURNDATACOPY RETURNDATASIZE PUSH1 0x0 REVERT JUMPDEST POP POP POP POP PUSH1 0x40 MLOAD RETURNDATASIZE PUSH1 0x20 DUP2 LT ISZERO PUSH2 0x7B5 JUMPI PUSH1 0x0 DUP1 REVERT JUMPDEST POP MLOAD SWAP1 POP DUP1 PUSH2 0x7F8 JUMPI PUSH1 0x40 DUP1 MLOAD PUSH3 0x461BCD PUSH1 0xE5 SHL DUP2 MSTORE PUSH1 0x20 PUSH1 0x4 DUP3 ADD MSTORE PUSH1 0xA PUSH1 0x24 DUP3 ADD MSTORE PUSH10 0x6E6F7420616374697665 PUSH1 0xB0 SHL PUSH1 0x44 DUP3 ADD MSTORE SWAP1 MLOAD SWAP1 DUP2 SWAP1 SUB PUSH1 0x64 ADD SWAP1 REVERT JUMPDEST PUSH1 0x0 DUP4 SWAP1 POP PUSH1 0x0 DUP1 DUP3 PUSH1 0x1 PUSH1 0x1 PUSH1 0xA0 SHL SUB AND PUSH4 0x1959A002 DUP7 PUSH1 0x40 MLOAD DUP3 PUSH4 0xFFFFFFFF AND PUSH1 0xE0 SHL DUP2 MSTORE PUSH1 0x4 ADD DUP1 DUP3 PUSH1 0x1 PUSH1 0x1 PUSH1 0xA0 SHL SUB AND DUP2 MSTORE PUSH1 0x20 ADD SWAP2 POP POP PUSH1 0x40 DUP1 MLOAD DUP1 DUP4 SUB DUP2 DUP7 DUP1 EXTCODESIZE ISZERO DUP1 ISZERO PUSH2 0x84C JUMPI PUSH1 0x0 DUP1 REVERT JUMPDEST POP GAS STATICCALL ISZERO DUP1 ISZERO PUSH2 0x860 JUMPI RETURNDATASIZE PUSH1 0x0 DUP1 RETURNDATACOPY RETURNDATASIZE PUSH1 0x0 REVERT JUMPDEST POP POP POP POP PUSH1 0x40 MLOAD RETURNDATASIZE PUSH1 0x40 DUP2 LT ISZERO PUSH2 0x876 JUMPI PUSH1 0x0 DUP1 REVERT JUMPDEST POP DUP1 MLOAD PUSH1 0x20 SWAP1 SWAP2 ADD MLOAD SWAP1 SWAP3 POP SWAP1 POP DUP1 PUSH2 0x8C8 JUMPI PUSH1 0x40 DUP1 MLOAD PUSH3 0x461BCD PUSH1 0xE5 SHL DUP2 MSTORE PUSH1 0x20 PUSH1 0x4 DUP3 ADD MSTORE PUSH1 0xF PUSH1 0x24 DUP3 ADD MSTORE PUSH15 0x1A185CC81B9BDD0818DB185A5B5959 PUSH1 0x8A SHL PUSH1 0x44 DUP3 ADD MSTORE SWAP1 MLOAD SWAP1 DUP2 SWAP1 SUB PUSH1 0x64 ADD SWAP1 REVERT JUMPDEST PUSH1 0x1 PUSH1 0x1 PUSH1 0xA0 SHL SUB DUP7 AND PUSH1 0x0 SWAP1 DUP2 MSTORE PUSH1 0x3 PUSH1 0x20 MSTORE PUSH1 0x40 SWAP1 KECCAK256 SLOAD DUP3 GT PUSH2 0x920 JUMPI PUSH1 0x40 DUP1 MLOAD PUSH3 0x461BCD PUSH1 0xE5 SHL DUP2 MSTORE PUSH1 0x20 PUSH1 0x4 DUP3 ADD MSTORE PUSH1 0x9 PUSH1 0x24 DUP3 ADD MSTORE PUSH9 0x1D1BDBC81CDB585B1B PUSH1 0xBA SHL PUSH1 0x44 DUP3 ADD MSTORE SWAP1 MLOAD SWAP1 DUP2 SWAP1 SUB PUSH1 0x64 ADD SWAP1 REVERT JUMPDEST PUSH1 0x1 PUSH1 0x1 PUSH1 0xA0 SHL SUB DUP1 DUP7 AND PUSH1 0x0 DUP2 DUP2 MSTORE PUSH1 0x4 PUSH1 0x20 DUP2 DUP2 MSTORE PUSH1 0x40 DUP1 DUP5 KECCAK256 DUP13 DUP8 AND DUP6 MSTORE DUP3 MSTORE DUP1 DUP5 KECCAK256 DUP1 SLOAD PUSH1 0xFF NOT AND PUSH1 0x1 SWAP1 DUP2 OR SWAP1 SWAP2 SSTORE DUP1 SLOAD PUSH1 0x3 SWAP1 SWAP4 MSTORE DUP2 DUP6 KECCAK256 PUSH1 0x2 DUP2 ADD SLOAD SWAP2 ADD SLOAD DUP3 MLOAD PUSH4 0xDEE0BFB PUSH1 0xE1 SHL DUP2 MSTORE SWAP5 DUP6 ADD SWAP7 SWAP1 SWAP7 MSTORE PUSH1 0x24 DUP5 ADD MSTORE PUSH1 0x44 DUP4 ADD SWAP5 SWAP1 SWAP5 MSTORE SWAP3 MLOAD SWAP3 SWAP1 SWAP4 AND SWAP3 PUSH4 0x1BDC17F6 SWAP3 PUSH1 0x64 DUP1 DUP4 ADD SWAP4 SWAP3 DUP3 SWAP1 SUB ADD DUP2 DUP4 DUP8 DUP1 EXTCODESIZE ISZERO DUP1 ISZERO PUSH2 0x9AF JUMPI PUSH1 0x0 DUP1 REVERT JUMPDEST POP GAS CALL ISZERO DUP1 ISZERO PUSH2 0x9C3 JUMPI RETURNDATASIZE PUSH1 0x0 DUP1 RETURNDATACOPY RETURNDATASIZE PUSH1 0x0 REVERT JUMPDEST POP POP POP POP POP POP POP POP POP POP JUMP JUMPDEST PUSH2 0x9D7 PUSH2 0xACD JUMP JUMPDEST PUSH1 0x0 SLOAD PUSH1 0x1 PUSH1 0x1 PUSH1 0xA0 SHL SUB SWAP1 DUP2 AND SWAP2 AND EQ PUSH2 0xA27 JUMPI PUSH1 0x40 DUP1 MLOAD PUSH3 0x461BCD PUSH1 0xE5 SHL DUP2 MSTORE PUSH1 0x20 PUSH1 0x4 DUP3 ADD DUP2 SWAP1 MSTORE PUSH1 0x24 DUP3 ADD MSTORE PUSH1 0x0 DUP1 MLOAD PUSH1 0x20 PUSH2 0xC56 DUP4 CODECOPY DUP2 MLOAD SWAP2 MSTORE PUSH1 0x44 DUP3 ADD MSTORE SWAP1 MLOAD SWAP1 DUP2 SWAP1 SUB PUSH1 0x64 ADD SWAP1 REVERT JUMPDEST PUSH1 0x1 PUSH1 0x1 PUSH1 0xA0 SHL SUB DUP2 AND PUSH2 0xA6C JUMPI PUSH1 0x40 MLOAD PUSH3 0x461BCD PUSH1 0xE5 SHL DUP2 MSTORE PUSH1 0x4 ADD DUP1 DUP1 PUSH1 0x20 ADD DUP3 DUP2 SUB DUP3 MSTORE PUSH1 0x26 DUP2 MSTORE PUSH1 0x20 ADD DUP1 PUSH2 0xC30 PUSH1 0x26 SWAP2 CODECOPY PUSH1 0x40 ADD SWAP2 POP POP PUSH1 0x40 MLOAD DUP1 SWAP2 SUB SWAP1 REVERT JUMPDEST PUSH1 0x0 DUP1 SLOAD PUSH1 0x40 MLOAD PUSH1 0x1 PUSH1 0x1 PUSH1 0xA0 SHL SUB DUP1 DUP6 AND SWAP4 SWAP3 AND SWAP2 PUSH32 0x8BE0079C531659141344CD1FD0A4F28419497F9722A3DAAFE3B4186F6B6457E0 SWAP2 LOG3 PUSH1 0x0 DUP1 SLOAD PUSH1 0x1 PUSH1 0x1 PUSH1 0xA0 SHL SUB NOT AND PUSH1 0x1 PUSH1 0x1 PUSH1 0xA0 SHL SUB SWAP3 SWAP1 SWAP3 AND SWAP2 SWAP1 SWAP2 OR SWAP1 SSTORE JUMP JUMPDEST PUSH1 0x2 SLOAD DUP2 JUMP JUMPDEST CALLER SWAP1 JUMP JUMPDEST PUSH1 0x0 DUP1 DUP3 SWAP1 POP PUSH1 0x0 DUP1 DUP3 PUSH1 0x1 PUSH1 0x1 PUSH1 0xA0 SHL SUB AND PUSH4 0x1959A002 DUP8 PUSH1 0x40 MLOAD DUP3 PUSH4 0xFFFFFFFF AND PUSH1 0xE0 SHL DUP2 MSTORE PUSH1 0x4 ADD DUP1 DUP3 PUSH1 0x1 PUSH1 0x1 PUSH1 0xA0 SHL SUB AND DUP2 MSTORE PUSH1 0x20 ADD SWAP2 POP POP PUSH1 0x40 DUP1 MLOAD DUP1 DUP4 SUB DUP2 DUP7 DUP1 EXTCODESIZE ISZERO DUP1 ISZERO PUSH2 0xB26 JUMPI PUSH1 0x0 DUP1 REVERT JUMPDEST POP GAS STATICCALL ISZERO DUP1 ISZERO PUSH2 0xB3A JUMPI RETURNDATASIZE PUSH1 0x0 DUP1 RETURNDATACOPY RETURNDATASIZE PUSH1 0x0 REVERT JUMPDEST POP POP POP POP PUSH1 0x40 MLOAD RETURNDATASIZE PUSH1 0x40 DUP2 LT ISZERO PUSH2 0xB50 JUMPI PUSH1 0x0 DUP1 REVERT JUMPDEST POP DUP1 MLOAD PUSH1 0x20 SWAP1 SWAP2 ADD MLOAD SWAP1 SWAP3 POP SWAP1 POP DUP1 ISZERO DUP1 PUSH2 0xB82 JUMPI POP PUSH1 0x1 PUSH1 0x1 PUSH1 0xA0 SHL SUB DUP6 AND PUSH1 0x0 SWAP1 DUP2 MSTORE PUSH1 0x3 PUSH1 0x20 MSTORE PUSH1 0x40 SWAP1 KECCAK256 SLOAD DUP3 LT JUMPDEST ISZERO PUSH2 0xB93 JUMPI PUSH1 0x0 SWAP4 POP POP POP POP PUSH2 0x5AA JUMP JUMPDEST PUSH1 0x1 PUSH1 0x1 PUSH1 0xA0 SHL SUB DUP1 DUP8 AND PUSH1 0x0 SWAP1 DUP2 MSTORE PUSH1 0x4 PUSH1 0x20 SWAP1 DUP2 MSTORE PUSH1 0x40 DUP1 DUP4 KECCAK256 SWAP4 DUP10 AND DUP4 MSTORE SWAP3 SWAP1 MSTORE KECCAK256 SLOAD PUSH1 0xFF AND ISZERO PUSH2 0xBCD JUMPI PUSH1 0x0 SWAP4 POP POP POP POP PUSH2 0x5AA JUMP JUMPDEST PUSH1 0x1 PUSH1 0x1 PUSH1 0xA0 SHL SUB DUP6 AND PUSH1 0x0 SWAP1 DUP2 MSTORE PUSH1 0x3 PUSH1 0x20 MSTORE PUSH1 0x40 SWAP1 KECCAK256 PUSH1 0x1 SWAP1 DUP2 ADD SLOAD LT DUP1 PUSH2 0xC12 JUMPI POP PUSH1 0x1 PUSH1 0x1 PUSH1 0xA0 SHL SUB DUP6 AND PUSH1 0x0 SWAP1 DUP2 MSTORE PUSH1 0x3 PUSH1 0x20 MSTORE PUSH1 0x40 SWAP1 KECCAK256 PUSH1 0x2 ADD SLOAD PUSH1 0x1 GT JUMPDEST ISZERO PUSH2 0xC23 JUMPI PUSH1 0x0 SWAP4 POP POP POP POP PUSH2 0x5AA JUMP JUMPDEST PUSH1 0x1 SWAP4 POP POP POP POP PUSH2 0x5AA JUMP INVALID 0x4F PUSH24 0x6E61626C653A206E6577206F776E65722069732074686520 PUSH27 0x65726F20616464726573734F776E61626C653A2063616C6C657220 PUSH10 0x73206E6F742074686520 PUSH16 0x776E6572A26469706673582212207E26 CALLVALUE BLOCKHASH PUSH18 0xE3F3FAA790542505557487A5D0A27BF4642E 0xD2 PUSH32 0x4CE033D126CA2D64736F6C634300060C00330000000000000000000000000000 "
				},
				"gasEstimates": {
					"creation": {
						"codeDepositCost": "648600",
						"executionCost": "infinite",
						"totalCost": "infinite"
					},
					"external": {
						"addIFOAddress(address,uint256,uint256,uint256)": "infinite",
						"checkClaimStatus(address,address)": "infinite",
						"checkClaimStatuses(address,address[])": "infinite",
						"getPoints(address)": "infinite",
						"ifos(address)": "2819",
						"maxViewLength()": "1086",
						"owner()": "1126",
						"renounceOwnership()": "infinite",
						"transferOwnership(address)": "infinite",
						"updateMaxViewLength(uint256)": "infinite"
					},
					"internal": {
						"_checkClaimStatus(address,address)": "infinite"
					}
				},
				"methodIdentifiers": {
					"addIFOAddress(address,uint256,uint256,uint256)": "2b253913",
					"checkClaimStatus(address,address)": "c105fa39",
					"checkClaimStatuses(address,address[])": "740bd4ac",
					"getPoints(address)": "ee204abb",
					"ifos(address)": "3154782f",
					"maxViewLength()": "f6fed429",
					"owner()": "8da5cb5b",
					"renounceOwnership()": "715018a6",
					"transferOwnership(address)": "f2fde38b",
					"updateMaxViewLength(uint256)": "a789fa30"
				}
			},
			"storageLayout": {
				"storage": [
					{
						"astId": 28,
						"contract": "Users/leilei/Downloads/MasterChefV2/contracts/pointCenterIfo.sol:PointCenterIFO",
						"label": "_owner",
						"offset": 0,
						"slot": "0",
						"type": "t_address"
					},
					{
						"astId": 1637,
						"contract": "Users/leilei/Downloads/MasterChefV2/contracts/pointCenterIfo.sol:PointCenterIFO",
						"label": "pancakeProfile",
						"offset": 0,
						"slot": "1",
						"type": "t_contract(IPancakeProfile)1631"
					},
					{
						"astId": 1639,
						"contract": "Users/leilei/Downloads/MasterChefV2/contracts/pointCenterIfo.sol:PointCenterIFO",
						"label": "maxViewLength",
						"offset": 0,
						"slot": "2",
						"type": "t_uint256"
					},
					{
						"astId": 1643,
						"contract": "Users/leilei/Downloads/MasterChefV2/contracts/pointCenterIfo.sol:PointCenterIFO",
						"label": "ifos",
						"offset": 0,
						"slot": "3",
						"type": "t_mapping(t_address,t_struct(IFOs)1666_storage)"
					},
					{
						"astId": 1649,
						"contract": "Users/leilei/Downloads/MasterChefV2/contracts/pointCenterIfo.sol:PointCenterIFO",
						"label": "_users",
						"offset": 0,
						"slot": "4",
						"type": "t_mapping(t_address,t_mapping(t_address,t_bool))"
					}
				],
				"types": {
					"t_address": {
						"encoding": "inplace",
						"label": "address",
						"numberOfBytes": "20"
					},
					"t_bool": {
						"encoding": "inplace",
						"label": "bool",
						"numberOfBytes": "1"
					},
					"t_contract(IPancakeProfile)1631": {
						"encoding": "inplace",
						"label": "contract IPancakeProfile",
						"numberOfBytes": "20"
					},
					"t_mapping(t_address,t_bool)": {
						"encoding": "mapping",
						"key": "t_address",
						"label": "mapping(address => bool)",
						"numberOfBytes": "32",
						"value": "t_bool"
					},
					"t_mapping(t_address,t_mapping(t_address,t_bool))": {
						"encoding": "mapping",
						"key": "t_address",
						"label": "mapping(address => mapping(address => bool))",
						"numberOfBytes": "32",
						"value": "t_mapping(t_address,t_bool)"
					},
					"t_mapping(t_address,t_struct(IFOs)1666_storage)": {
						"encoding": "mapping",
						"key": "t_address",
						"label": "mapping(address => struct PointCenterIFO.IFOs)",
						"numberOfBytes": "32",
						"value": "t_struct(IFOs)1666_storage"
					},
					"t_struct(IFOs)1666_storage": {
						"encoding": "inplace",
						"label": "struct PointCenterIFO.IFOs",
						"members": [
							{
								"astId": 1661,
								"contract": "Users/leilei/Downloads/MasterChefV2/contracts/pointCenterIfo.sol:PointCenterIFO",
								"label": "thresholdToClaim",
								"offset": 0,
								"slot": "0",
								"type": "t_uint256"
							},
							{
								"astId": 1663,
								"contract": "Users/leilei/Downloads/MasterChefV2/contracts/pointCenterIfo.sol:PointCenterIFO",
								"label": "campaignId",
								"offset": 0,
								"slot": "1",
								"type": "t_uint256"
							},
							{
								"astId": 1665,
								"contract": "Users/leilei/Downloads/MasterChefV2/contracts/pointCenterIfo.sol:PointCenterIFO",
								"label": "numberPoints",
								"offset": 0,
								"slot": "2",
								"type": "t_uint256"
							}
						],
						"numberOfBytes": "96"
					},
					"t_uint256": {
						"encoding": "inplace",
						"label": "uint256",
						"numberOfBytes": "32"
					}
				}
			},
			"userdoc": {
				"kind": "user",
				"methods": {},
				"version": 1
			}
		}
	}
}