{
	"Users/leilei/Downloads/MasterChefV2/contracts/pointCenterIfo.sol": {
		"IFO": {
			"abi": [
				{
					"inputs": [
						{
							"internalType": "contract IBEP20",
							"name": "_lpToken",
							"type": "address"
						},
						{
							"internalType": "contract IBEP20",
							"name": "_offeringToken",
							"type": "address"
						},
						{
							"internalType": "uint256",
							"name": "_startBlock",
							"type": "uint256"
						},
						{
							"internalType": "uint256",
							"name": "_endBlock",
							"type": "uint256"
						},
						{
							"internalType": "uint256",
							"name": "_offeringAmount",
							"type": "uint256"
						},
						{
							"internalType": "uint256",
							"name": "_raisingAmount",
							"type": "uint256"
						},
						{
							"internalType": "address",
							"name": "_adminAddress",
							"type": "address"
						}
					],
					"stateMutability": "nonpayable",
					"type": "constructor"
				},
				{
					"anonymous": false,
					"inputs": [
						{
							"indexed": true,
							"internalType": "address",
							"name": "user",
							"type": "address"
						},
						{
							"indexed": false,
							"internalType": "uint256",
							"name": "amount",
							"type": "uint256"
						}
					],
					"name": "Deposit",
					"type": "event"
				},
				{
					"anonymous": false,
					"inputs": [
						{
							"indexed": true,
							"internalType": "address",
							"name": "user",
							"type": "address"
						},
						{
							"indexed": false,
							"internalType": "uint256",
							"name": "offeringAmount",
							"type": "uint256"
						},
						{
							"indexed": false,
							"internalType": "uint256",
							"name": "excessAmount",
							"type": "uint256"
						}
					],
					"name": "Harvest",
					"type": "event"
				},
				{
					"inputs": [
						{
							"internalType": "uint256",
							"name": "",
							"type": "uint256"
						}
					],
					"name": "addressList",
					"outputs": [
						{
							"internalType": "address",
							"name": "",
							"type": "address"
						}
					],
					"stateMutability": "view",
					"type": "function"
				},
				{
					"inputs": [],
					"name": "adminAddress",
					"outputs": [
						{
							"internalType": "address",
							"name": "",
							"type": "address"
						}
					],
					"stateMutability": "view",
					"type": "function"
				},
				{
					"inputs": [
						{
							"internalType": "uint256",
							"name": "_amount",
							"type": "uint256"
						}
					],
					"name": "deposit",
					"outputs": [],
					"stateMutability": "nonpayable",
					"type": "function"
				},
				{
					"inputs": [],
					"name": "endBlock",
					"outputs": [
						{
							"internalType": "uint256",
							"name": "",
							"type": "uint256"
						}
					],
					"stateMutability": "view",
					"type": "function"
				},
				{
					"inputs": [
						{
							"internalType": "uint256",
							"name": "_lpAmount",
							"type": "uint256"
						},
						{
							"internalType": "uint256",
							"name": "_offerAmount",
							"type": "uint256"
						}
					],
					"name": "finalWithdraw",
					"outputs": [],
					"stateMutability": "nonpayable",
					"type": "function"
				},
				{
					"inputs": [],
					"name": "getAddressListLength",
					"outputs": [
						{
							"internalType": "uint256",
							"name": "",
							"type": "uint256"
						}
					],
					"stateMutability": "view",
					"type": "function"
				},
				{
					"inputs": [
						{
							"internalType": "address",
							"name": "_user",
							"type": "address"
						}
					],
					"name": "getOfferingAmount",
					"outputs": [
						{
							"internalType": "uint256",
							"name": "",
							"type": "uint256"
						}
					],
					"stateMutability": "view",
					"type": "function"
				},
				{
					"inputs": [
						{
							"internalType": "address",
							"name": "_user",
							"type": "address"
						}
					],
					"name": "getRefundingAmount",
					"outputs": [
						{
							"internalType": "uint256",
							"name": "",
							"type": "uint256"
						}
					],
					"stateMutability": "view",
					"type": "function"
				},
				{
					"inputs": [
						{
							"internalType": "address",
							"name": "_user",
							"type": "address"
						}
					],
					"name": "getUserAllocation",
					"outputs": [
						{
							"internalType": "uint256",
							"name": "",
							"type": "uint256"
						}
					],
					"stateMutability": "view",
					"type": "function"
				},
				{
					"inputs": [],
					"name": "harvest",
					"outputs": [],
					"stateMutability": "nonpayable",
					"type": "function"
				},
				{
					"inputs": [
						{
							"internalType": "address",
							"name": "_user",
							"type": "address"
						}
					],
					"name": "hasHarvest",
					"outputs": [
						{
							"internalType": "bool",
							"name": "",
							"type": "bool"
						}
					],
					"stateMutability": "view",
					"type": "function"
				},
				{
					"inputs": [],
					"name": "lpToken",
					"outputs": [
						{
							"internalType": "contract IBEP20",
							"name": "",
							"type": "address"
						}
					],
					"stateMutability": "view",
					"type": "function"
				},
				{
					"inputs": [],
					"name": "offeringAmount",
					"outputs": [
						{
							"internalType": "uint256",
							"name": "",
							"type": "uint256"
						}
					],
					"stateMutability": "view",
					"type": "function"
				},
				{
					"inputs": [],
					"name": "offeringToken",
					"outputs": [
						{
							"internalType": "contract IBEP20",
							"name": "",
							"type": "address"
						}
					],
					"stateMutability": "view",
					"type": "function"
				},
				{
					"inputs": [],
					"name": "raisingAmount",
					"outputs": [
						{
							"internalType": "uint256",
							"name": "",
							"type": "uint256"
						}
					],
					"stateMutability": "view",
					"type": "function"
				},
				{
					"inputs": [
						{
							"internalType": "uint256",
							"name": "_offerAmount",
							"type": "uint256"
						}
					],
					"name": "setOfferingAmount",
					"outputs": [],
					"stateMutability": "nonpayable",
					"type": "function"
				},
				{
					"inputs": [
						{
							"internalType": "uint256",
							"name": "_raisingAmount",
							"type": "uint256"
						}
					],
					"name": "setRaisingAmount",
					"outputs": [],
					"stateMutability": "nonpayable",
					"type": "function"
				},
				{
					"inputs": [],
					"name": "startBlock",
					"outputs": [
						{
							"internalType": "uint256",
							"name": "",
							"type": "uint256"
						}
					],
					"stateMutability": "view",
					"type": "function"
				},
				{
					"inputs": [],
					"name": "totalAmount",
					"outputs": [
						{
							"internalType": "uint256",
							"name": "",
							"type": "uint256"
						}
					],
					"stateMutability": "view",
					"type": "function"
				},
				{
					"inputs": [
						{
							"internalType": "address",
							"name": "",
							"type": "address"
						}
					],
					"name": "userInfo",
					"outputs": [
						{
							"internalType": "uint256",
							"name": "amount",
							"type": "uint256"
						},
						{
							"internalType": "bool",
							"name": "claimed",
							"type": "bool"
						}
					],
					"stateMutability": "view",
					"type": "function"
				}
			],
			"devdoc": {
				"kind": "dev",
				"methods": {},
				"version": 1
			},
			"evm": {
				"assembly": "    /* \"Users/leilei/Downloads/MasterChefV2/contracts/pointCenterIfo.sol\":25941:31214  contract IFO is ReentrancyGuard {... */\n  mstore(0x40, 0x80)\n    /* \"Users/leilei/Downloads/MasterChefV2/contracts/pointCenterIfo.sol\":27087:27604  constructor(... */\n  callvalue\n  dup1\n  iszero\n  tag_1\n  jumpi\n  0x00\n  dup1\n  revert\ntag_1:\n  pop\n  mload(0x40)\n  sub(codesize, bytecodeSize)\n  dup1\n  bytecodeSize\n  dup4\n  codecopy\n  dup2\n  dup2\n  add\n  0x40\n  mstore\n  0xe0\n  dup2\n  lt\n  iszero\n  tag_2\n  jumpi\n  0x00\n  dup1\n  revert\ntag_2:\n  pop\n  dup1\n  mload\n  0x20\n  dup3\n  add\n  mload\n  0x40\n  dup4\n  add\n  mload\n  0x60\n  dup5\n  add\n  mload\n  0x80\n  dup6\n  add\n  mload\n  0xa0\n  dup7\n  add\n  mload\n  0xc0\n  swap1\n  swap7\n  add\n  mload\n    /* \"Users/leilei/Downloads/MasterChefV2/contracts/pointCenterIfo.sol\":24915:24916  1 */\n  0x01\n    /* \"Users/leilei/Downloads/MasterChefV2/contracts/pointCenterIfo.sol\":25029:25036  _status */\n  0x00\n    /* \"Users/leilei/Downloads/MasterChefV2/contracts/pointCenterIfo.sol\":25029:25051  _status = _NOT_ENTERED */\n  dup2\n  dup2\n  sstore\n    /* \"Users/leilei/Downloads/MasterChefV2/contracts/pointCenterIfo.sol\":27330:27337  lpToken */\n  0x02\n    /* \"Users/leilei/Downloads/MasterChefV2/contracts/pointCenterIfo.sol\":27330:27348  lpToken = _lpToken */\n  dup1\n  sload\n  sub(shl(0xa0, 0x01), 0x01)\n  swap10\n  dup11\n  and\n  not(sub(shl(0xa0, 0x01), 0x01))\n  swap2\n  dup3\n  and\n  or\n  swap1\n  swap2\n  sstore\n    /* \"Users/leilei/Downloads/MasterChefV2/contracts/pointCenterIfo.sol\":27358:27371  offeringToken */\n  0x03\n    /* \"Users/leilei/Downloads/MasterChefV2/contracts/pointCenterIfo.sol\":27358:27388  offeringToken = _offeringToken */\n  dup1\n  sload\n  swap9\n  dup11\n  and\n  swap9\n  dup3\n  and\n  swap9\n  swap1\n  swap9\n  or\n  swap1\n  swap8\n  sstore\n    /* \"Users/leilei/Downloads/MasterChefV2/contracts/pointCenterIfo.sol\":27398:27408  startBlock */\n  0x04\n    /* \"Users/leilei/Downloads/MasterChefV2/contracts/pointCenterIfo.sol\":27398:27422  startBlock = _startBlock */\n  swap6\n  swap1\n  swap6\n  sstore\n    /* \"Users/leilei/Downloads/MasterChefV2/contracts/pointCenterIfo.sol\":27432:27440  endBlock */\n  0x05\n    /* \"Users/leilei/Downloads/MasterChefV2/contracts/pointCenterIfo.sol\":27432:27452  endBlock = _endBlock */\n  swap4\n  swap1\n  swap4\n  sstore\n    /* \"Users/leilei/Downloads/MasterChefV2/contracts/pointCenterIfo.sol\":27462:27476  offeringAmount */\n  0x07\n    /* \"Users/leilei/Downloads/MasterChefV2/contracts/pointCenterIfo.sol\":27462:27494  offeringAmount = _offeringAmount */\n  swap2\n  swap1\n  swap2\n  sstore\n    /* \"Users/leilei/Downloads/MasterChefV2/contracts/pointCenterIfo.sol\":27504:27517  raisingAmount */\n  0x06\n    /* \"Users/leilei/Downloads/MasterChefV2/contracts/pointCenterIfo.sol\":27504:27534  raisingAmount = _raisingAmount */\n  swap6\n  swap1\n  swap6\n  sstore\n    /* \"Users/leilei/Downloads/MasterChefV2/contracts/pointCenterIfo.sol\":27544:27555  totalAmount */\n  0x08\n    /* \"Users/leilei/Downloads/MasterChefV2/contracts/pointCenterIfo.sol\":27544:27559  totalAmount = 0 */\n  swap2\n  swap1\n  swap2\n  sstore\n    /* \"Users/leilei/Downloads/MasterChefV2/contracts/pointCenterIfo.sol\":27569:27597  adminAddress = _adminAddress */\n  dup1\n  sload\n  swap3\n  swap1\n  swap4\n  and\n  swap2\n  and\n  or\n  swap1\n  sstore\n    /* \"Users/leilei/Downloads/MasterChefV2/contracts/pointCenterIfo.sol\":25941:31214  contract IFO is ReentrancyGuard {... */\n  dataSize(sub_0)\n  dup1\n  dataOffset(sub_0)\n  0x00\n  codecopy\n  0x00\n  return\nstop\n\nsub_0: assembly {\n        /* \"Users/leilei/Downloads/MasterChefV2/contracts/pointCenterIfo.sol\":25941:31214  contract IFO is ReentrancyGuard {... */\n      mstore(0x40, 0x80)\n      callvalue\n      dup1\n      iszero\n      tag_1\n      jumpi\n      0x00\n      dup1\n      revert\n    tag_1:\n      pop\n      jumpi(tag_2, lt(calldatasize, 0x04))\n      shr(0xe0, calldataload(0x00))\n      dup1\n      0x87e97bc6\n      gt\n      tag_23\n      jumpi\n      dup1\n      0xb810fb43\n      gt\n      tag_24\n      jumpi\n      dup1\n      0xb810fb43\n      eq\n      tag_18\n      jumpi\n      dup1\n      0xb920ade2\n      eq\n      tag_19\n      jumpi\n      dup1\n      0xe1af9a95\n      eq\n      tag_20\n      jumpi\n      dup1\n      0xfc00358e\n      eq\n      tag_21\n      jumpi\n      dup1\n      0xfc6f9468\n      eq\n      tag_22\n      jumpi\n      jump(tag_2)\n    tag_24:\n      dup1\n      0x87e97bc6\n      eq\n      tag_13\n      jumpi\n      dup1\n      0x9c0a7669\n      eq\n      tag_14\n      jumpi\n      dup1\n      0x9f1b5248\n      eq\n      tag_15\n      jumpi\n      dup1\n      0xb6b55f25\n      eq\n      tag_16\n      jumpi\n      dup1\n      0xb7813607\n      eq\n      tag_17\n      jumpi\n      jump(tag_2)\n    tag_23:\n      dup1\n      0x4225c32f\n      gt\n      tag_25\n      jumpi\n      dup1\n      0x4225c32f\n      eq\n      tag_8\n      jumpi\n      dup1\n      0x4641257d\n      eq\n      tag_9\n      jumpi\n      dup1\n      0x48cd4cb1\n      eq\n      tag_10\n      jumpi\n      dup1\n      0x5fcbd285\n      eq\n      tag_11\n      jumpi\n      dup1\n      0x64ce9fff\n      eq\n      tag_12\n      jumpi\n      jump(tag_2)\n    tag_25:\n      dup1\n      0x083c6323\n      eq\n      tag_3\n      jumpi\n      dup1\n      0x1959a002\n      eq\n      tag_4\n      jumpi\n      dup1\n      0x1a39d8ef\n      eq\n      tag_5\n      jumpi\n      dup1\n      0x27d1b1a2\n      eq\n      tag_6\n      jumpi\n      dup1\n      0x2f5105f8\n      eq\n      tag_7\n      jumpi\n    tag_2:\n      0x00\n      dup1\n      revert\n        /* \"Users/leilei/Downloads/MasterChefV2/contracts/pointCenterIfo.sol\":26478:26501  uint256 public endBlock */\n    tag_3:\n      tag_26\n      tag_27\n      jump\t// in\n    tag_26:\n      0x40\n      dup1\n      mload\n      swap2\n      dup3\n      mstore\n      mload\n      swap1\n      dup2\n      swap1\n      sub\n      0x20\n      add\n      swap1\n      return\n        /* \"Users/leilei/Downloads/MasterChefV2/contracts/pointCenterIfo.sol\":26805:26849  mapping(address => UserInfo) public userInfo */\n    tag_4:\n      tag_28\n      0x04\n      dup1\n      calldatasize\n      sub\n      0x20\n      dup2\n      lt\n      iszero\n      tag_29\n      jumpi\n      0x00\n      dup1\n      revert\n    tag_29:\n      pop\n      calldataload\n      sub(shl(0xa0, 0x01), 0x01)\n      and\n      tag_30\n      jump\t// in\n    tag_28:\n      0x40\n      dup1\n      mload\n      swap3\n      dup4\n      mstore\n      swap1\n      iszero\n      iszero\n      0x20\n      dup4\n      add\n      mstore\n      dup1\n      mload\n      swap2\n      dup3\n      swap1\n      sub\n      add\n      swap1\n      return\n        /* \"Users/leilei/Downloads/MasterChefV2/contracts/pointCenterIfo.sol\":26748:26774  uint256 public totalAmount */\n    tag_5:\n      tag_26\n      tag_32\n      jump\t// in\n        /* \"Users/leilei/Downloads/MasterChefV2/contracts/pointCenterIfo.sol\":27715:27877  function setOfferingAmount(uint256 _offerAmount) public onlyAdmin {... */\n    tag_6:\n      tag_33\n      0x04\n      dup1\n      calldatasize\n      sub\n      0x20\n      dup2\n      lt\n      iszero\n      tag_34\n      jumpi\n      0x00\n      dup1\n      revert\n    tag_34:\n      pop\n      calldataload\n      tag_35\n      jump\t// in\n    tag_33:\n      stop\n        /* \"Users/leilei/Downloads/MasterChefV2/contracts/pointCenterIfo.sol\":30273:30606  function getRefundingAmount(address _user) public view returns (uint256) {... */\n    tag_7:\n      tag_26\n      0x04\n      dup1\n      calldatasize\n      sub\n      0x20\n      dup2\n      lt\n      iszero\n      tag_37\n      jumpi\n      0x00\n      dup1\n      revert\n    tag_37:\n      pop\n      calldataload\n      sub(shl(0xa0, 0x01), 0x01)\n      and\n      tag_38\n      jump\t// in\n        /* \"Users/leilei/Downloads/MasterChefV2/contracts/pointCenterIfo.sol\":27883:28047  function setRaisingAmount(uint256 _raisingAmount) public onlyAdmin {... */\n    tag_8:\n      tag_33\n      0x04\n      dup1\n      calldatasize\n      sub\n      0x20\n      dup2\n      lt\n      iszero\n      tag_40\n      jumpi\n      0x00\n      dup1\n      revert\n    tag_40:\n      pop\n      calldataload\n      tag_41\n      jump\t// in\n        /* \"Users/leilei/Downloads/MasterChefV2/contracts/pointCenterIfo.sol\":28637:29358  function harvest() public nonReentrant {... */\n    tag_9:\n      tag_33\n      tag_43\n      jump\t// in\n        /* \"Users/leilei/Downloads/MasterChefV2/contracts/pointCenterIfo.sol\":26409:26434  uint256 public startBlock */\n    tag_10:\n      tag_26\n      tag_45\n      jump\t// in\n        /* \"Users/leilei/Downloads/MasterChefV2/contracts/pointCenterIfo.sol\":26283:26304  IBEP20 public lpToken */\n    tag_11:\n      tag_46\n      tag_47\n      jump\t// in\n    tag_46:\n      0x40\n      dup1\n      mload\n      sub(shl(0xa0, 0x01), 0x01)\n      swap1\n      swap3\n      and\n      dup3\n      mstore\n      mload\n      swap1\n      dup2\n      swap1\n      sub\n      0x20\n      add\n      swap1\n      return\n        /* \"Users/leilei/Downloads/MasterChefV2/contracts/pointCenterIfo.sol\":29364:29475  function hasHarvest(address _user) external view returns (bool) {... */\n    tag_12:\n      tag_48\n      0x04\n      dup1\n      calldatasize\n      sub\n      0x20\n      dup2\n      lt\n      iszero\n      tag_49\n      jumpi\n      0x00\n      dup1\n      revert\n    tag_49:\n      pop\n      calldataload\n      sub(shl(0xa0, 0x01), 0x01)\n      and\n      tag_50\n      jump\t// in\n    tag_48:\n      0x40\n      dup1\n      mload\n      swap2\n      iszero\n      iszero\n      dup3\n      mstore\n      mload\n      swap1\n      dup2\n      swap1\n      sub\n      0x20\n      add\n      swap1\n      return\n        /* \"Users/leilei/Downloads/MasterChefV2/contracts/pointCenterIfo.sol\":29780:30212  function getOfferingAmount(address _user) public view returns (uint256) {... */\n    tag_13:\n      tag_26\n      0x04\n      dup1\n      calldatasize\n      sub\n      0x20\n      dup2\n      lt\n      iszero\n      tag_52\n      jumpi\n      0x00\n      dup1\n      revert\n    tag_52:\n      pop\n      calldataload\n      sub(shl(0xa0, 0x01), 0x01)\n      and\n      tag_53\n      jump\t// in\n        /* \"Users/leilei/Downloads/MasterChefV2/contracts/pointCenterIfo.sol\":26563:26591  uint256 public raisingAmount */\n    tag_14:\n      tag_26\n      tag_55\n      jump\t// in\n        /* \"Users/leilei/Downloads/MasterChefV2/contracts/pointCenterIfo.sol\":30724:31212  function finalWithdraw(uint256 _lpAmount, uint256 _offerAmount)... */\n    tag_15:\n      tag_33\n      0x04\n      dup1\n      calldatasize\n      sub\n      0x40\n      dup2\n      lt\n      iszero\n      tag_57\n      jumpi\n      0x00\n      dup1\n      revert\n    tag_57:\n      pop\n      dup1\n      calldataload\n      swap1\n      0x20\n      add\n      calldataload\n      tag_58\n      jump\t// in\n        /* \"Users/leilei/Downloads/MasterChefV2/contracts/pointCenterIfo.sol\":28053:28631  function deposit(uint256 _amount) public {... */\n    tag_16:\n      tag_33\n      0x04\n      dup1\n      calldatasize\n      sub\n      0x20\n      dup2\n      lt\n      iszero\n      tag_60\n      jumpi\n      0x00\n      dup1\n      revert\n    tag_60:\n      pop\n      calldataload\n      tag_61\n      jump\t// in\n        /* \"Users/leilei/Downloads/MasterChefV2/contracts/pointCenterIfo.sol\":26336:26363  IBEP20 public offeringToken */\n    tag_17:\n      tag_46\n      tag_63\n      jump\t// in\n        /* \"Users/leilei/Downloads/MasterChefV2/contracts/pointCenterIfo.sol\":26876:26904  address[] public addressList */\n    tag_18:\n      tag_46\n      0x04\n      dup1\n      calldatasize\n      sub\n      0x20\n      dup2\n      lt\n      iszero\n      tag_65\n      jumpi\n      0x00\n      dup1\n      revert\n    tag_65:\n      pop\n      calldataload\n      tag_66\n      jump\t// in\n        /* \"Users/leilei/Downloads/MasterChefV2/contracts/pointCenterIfo.sol\":29572:29726  function getUserAllocation(address _user) public view returns (uint256) {... */\n    tag_19:\n      tag_26\n      0x04\n      dup1\n      calldatasize\n      sub\n      0x20\n      dup2\n      lt\n      iszero\n      tag_68\n      jumpi\n      0x00\n      dup1\n      revert\n    tag_68:\n      pop\n      calldataload\n      sub(shl(0xa0, 0x01), 0x01)\n      and\n      tag_69\n      jump\t// in\n        /* \"Users/leilei/Downloads/MasterChefV2/contracts/pointCenterIfo.sol\":26650:26679  uint256 public offeringAmount */\n    tag_20:\n      tag_26\n      tag_71\n      jump\t// in\n        /* \"Users/leilei/Downloads/MasterChefV2/contracts/pointCenterIfo.sol\":30612:30718  function getAddressListLength() external view returns (uint256) {... */\n    tag_21:\n      tag_26\n      tag_73\n      jump\t// in\n        /* \"Users/leilei/Downloads/MasterChefV2/contracts/pointCenterIfo.sol\":26225:26252  address public adminAddress */\n    tag_22:\n      tag_46\n      tag_75\n      jump\t// in\n        /* \"Users/leilei/Downloads/MasterChefV2/contracts/pointCenterIfo.sol\":26478:26501  uint256 public endBlock */\n    tag_27:\n      sload(0x05)\n      dup2\n      jump\t// out\n        /* \"Users/leilei/Downloads/MasterChefV2/contracts/pointCenterIfo.sol\":26805:26849  mapping(address => UserInfo) public userInfo */\n    tag_30:\n      mstore(0x20, 0x09)\n      0x00\n      swap1\n      dup2\n      mstore\n      0x40\n      swap1\n      keccak256\n      dup1\n      sload\n      0x01\n      swap1\n      swap2\n      add\n      sload\n      0xff\n      and\n      dup3\n      jump\t// out\n        /* \"Users/leilei/Downloads/MasterChefV2/contracts/pointCenterIfo.sol\":26748:26774  uint256 public totalAmount */\n    tag_32:\n      sload(0x08)\n      dup2\n      jump\t// out\n        /* \"Users/leilei/Downloads/MasterChefV2/contracts/pointCenterIfo.sol\":27715:27877  function setOfferingAmount(uint256 _offerAmount) public onlyAdmin {... */\n    tag_35:\n        /* \"Users/leilei/Downloads/MasterChefV2/contracts/pointCenterIfo.sol\":27663:27675  adminAddress */\n      and(sub(shl(0xa0, 0x01), 0x01), sload(0x01))\n        /* \"Users/leilei/Downloads/MasterChefV2/contracts/pointCenterIfo.sol\":27649:27659  msg.sender */\n      caller\n        /* \"Users/leilei/Downloads/MasterChefV2/contracts/pointCenterIfo.sol\":27649:27675  msg.sender == adminAddress */\n      eq\n        /* \"Users/leilei/Downloads/MasterChefV2/contracts/pointCenterIfo.sol\":27641:27691  require(msg.sender == adminAddress, \"admin: wut?\") */\n      tag_77\n      jumpi\n      0x40\n      dup1\n      mload\n      shl(0xe5, 0x461bcd)\n      dup2\n      mstore\n      0x20\n      0x04\n      dup3\n      add\n      mstore\n      0x0b\n      0x24\n      dup3\n      add\n      mstore\n      shl(0xa8, 0x61646d696e3a207775743f)\n      0x44\n      dup3\n      add\n      mstore\n      swap1\n      mload\n      swap1\n      dup2\n      swap1\n      sub\n      0x64\n      add\n      swap1\n      revert\n    tag_77:\n        /* \"Users/leilei/Downloads/MasterChefV2/contracts/pointCenterIfo.sol\":27814:27824  startBlock */\n      sload(0x04)\n        /* \"Users/leilei/Downloads/MasterChefV2/contracts/pointCenterIfo.sol\":27799:27811  block.number */\n      number\n        /* \"Users/leilei/Downloads/MasterChefV2/contracts/pointCenterIfo.sol\":27799:27824  block.number < startBlock */\n      lt\n        /* \"Users/leilei/Downloads/MasterChefV2/contracts/pointCenterIfo.sol\":27791:27831  require(block.number < startBlock, \"no\") */\n      tag_79\n      jumpi\n      0x40\n      dup1\n      mload\n      shl(0xe5, 0x461bcd)\n      dup2\n      mstore\n      0x20\n      0x04\n      dup3\n      add\n      mstore\n      0x02\n      0x24\n      dup3\n      add\n      mstore\n      shl(0xf0, 0x6e6f)\n      0x44\n      dup3\n      add\n      mstore\n      swap1\n      mload\n      swap1\n      dup2\n      swap1\n      sub\n      0x64\n      add\n      swap1\n      revert\n    tag_79:\n        /* \"Users/leilei/Downloads/MasterChefV2/contracts/pointCenterIfo.sol\":27841:27855  offeringAmount */\n      0x07\n        /* \"Users/leilei/Downloads/MasterChefV2/contracts/pointCenterIfo.sol\":27841:27870  offeringAmount = _offerAmount */\n      sstore\n        /* \"Users/leilei/Downloads/MasterChefV2/contracts/pointCenterIfo.sol\":27715:27877  function setOfferingAmount(uint256 _offerAmount) public onlyAdmin {... */\n      jump\t// out\n        /* \"Users/leilei/Downloads/MasterChefV2/contracts/pointCenterIfo.sol\":30273:30606  function getRefundingAmount(address _user) public view returns (uint256) {... */\n    tag_38:\n        /* \"Users/leilei/Downloads/MasterChefV2/contracts/pointCenterIfo.sol\":30337:30344  uint256 */\n      0x00\n        /* \"Users/leilei/Downloads/MasterChefV2/contracts/pointCenterIfo.sol\":30375:30388  raisingAmount */\n      sload(0x06)\n        /* \"Users/leilei/Downloads/MasterChefV2/contracts/pointCenterIfo.sol\":30360:30371  totalAmount */\n      sload(0x08)\n        /* \"Users/leilei/Downloads/MasterChefV2/contracts/pointCenterIfo.sol\":30360:30388  totalAmount <= raisingAmount */\n      gt\n        /* \"Users/leilei/Downloads/MasterChefV2/contracts/pointCenterIfo.sol\":30356:30423  if (totalAmount <= raisingAmount) {... */\n      tag_81\n      jumpi\n      pop\n        /* \"Users/leilei/Downloads/MasterChefV2/contracts/pointCenterIfo.sol\":30411:30412  0 */\n      0x00\n        /* \"Users/leilei/Downloads/MasterChefV2/contracts/pointCenterIfo.sol\":30404:30412  return 0 */\n      jump(tag_80)\n        /* \"Users/leilei/Downloads/MasterChefV2/contracts/pointCenterIfo.sol\":30356:30423  if (totalAmount <= raisingAmount) {... */\n    tag_81:\n        /* \"Users/leilei/Downloads/MasterChefV2/contracts/pointCenterIfo.sol\":30432:30450  uint256 allocation */\n      0x00\n        /* \"Users/leilei/Downloads/MasterChefV2/contracts/pointCenterIfo.sol\":30453:30477  getUserAllocation(_user) */\n      tag_82\n        /* \"Users/leilei/Downloads/MasterChefV2/contracts/pointCenterIfo.sol\":30471:30476  _user */\n      dup4\n        /* \"Users/leilei/Downloads/MasterChefV2/contracts/pointCenterIfo.sol\":30453:30470  getUserAllocation */\n      tag_69\n        /* \"Users/leilei/Downloads/MasterChefV2/contracts/pointCenterIfo.sol\":30453:30477  getUserAllocation(_user) */\n      jump\t// in\n    tag_82:\n        /* \"Users/leilei/Downloads/MasterChefV2/contracts/pointCenterIfo.sol\":30432:30477  uint256 allocation = getUserAllocation(_user) */\n      swap1\n      pop\n        /* \"Users/leilei/Downloads/MasterChefV2/contracts/pointCenterIfo.sol\":30487:30504  uint256 payAmount */\n      0x00\n        /* \"Users/leilei/Downloads/MasterChefV2/contracts/pointCenterIfo.sol\":30507:30545  raisingAmount.mul(allocation).div(1e6) */\n      tag_83\n        /* \"Users/leilei/Downloads/MasterChefV2/contracts/pointCenterIfo.sol\":30541:30544  1e6 */\n      0x0f4240\n        /* \"Users/leilei/Downloads/MasterChefV2/contracts/pointCenterIfo.sol\":30507:30536  raisingAmount.mul(allocation) */\n      tag_84\n        /* \"Users/leilei/Downloads/MasterChefV2/contracts/pointCenterIfo.sol\":30525:30535  allocation */\n      dup5\n        /* \"Users/leilei/Downloads/MasterChefV2/contracts/pointCenterIfo.sol\":30507:30520  raisingAmount */\n      sload(0x06)\n        /* \"Users/leilei/Downloads/MasterChefV2/contracts/pointCenterIfo.sol\":30507:30524  raisingAmount.mul */\n      tag_85\n      swap1\n        /* \"Users/leilei/Downloads/MasterChefV2/contracts/pointCenterIfo.sol\":30507:30536  raisingAmount.mul(allocation) */\n      swap2\n      swap1\n      0xffffffff\n      and\n      jump\t// in\n    tag_84:\n        /* \"Users/leilei/Downloads/MasterChefV2/contracts/pointCenterIfo.sol\":30507:30540  raisingAmount.mul(allocation).div */\n      swap1\n      tag_86\n        /* \"Users/leilei/Downloads/MasterChefV2/contracts/pointCenterIfo.sol\":30507:30545  raisingAmount.mul(allocation).div(1e6) */\n      jump\t// in\n    tag_83:\n      sub(shl(0xa0, 0x01), 0x01)\n        /* \"Users/leilei/Downloads/MasterChefV2/contracts/pointCenterIfo.sol\":30562:30577  userInfo[_user] */\n      dup6\n      and\n      0x00\n      swap1\n      dup2\n      mstore\n        /* \"Users/leilei/Downloads/MasterChefV2/contracts/pointCenterIfo.sol\":30562:30570  userInfo */\n      0x09\n        /* \"Users/leilei/Downloads/MasterChefV2/contracts/pointCenterIfo.sol\":30562:30577  userInfo[_user] */\n      0x20\n      mstore\n      0x40\n      swap1\n      keccak256\n        /* \"Users/leilei/Downloads/MasterChefV2/contracts/pointCenterIfo.sol\":30562:30584  userInfo[_user].amount */\n      sload\n        /* \"Users/leilei/Downloads/MasterChefV2/contracts/pointCenterIfo.sol\":30487:30545  uint256 payAmount = raisingAmount.mul(allocation).div(1e6) */\n      swap1\n      swap2\n      pop\n        /* \"Users/leilei/Downloads/MasterChefV2/contracts/pointCenterIfo.sol\":30562:30599  userInfo[_user].amount.sub(payAmount) */\n      tag_87\n      swap1\n        /* \"Users/leilei/Downloads/MasterChefV2/contracts/pointCenterIfo.sol\":30487:30545  uint256 payAmount = raisingAmount.mul(allocation).div(1e6) */\n      dup3\n        /* \"Users/leilei/Downloads/MasterChefV2/contracts/pointCenterIfo.sol\":30562:30588  userInfo[_user].amount.sub */\n      tag_88\n        /* \"Users/leilei/Downloads/MasterChefV2/contracts/pointCenterIfo.sol\":30562:30599  userInfo[_user].amount.sub(payAmount) */\n      jump\t// in\n    tag_87:\n        /* \"Users/leilei/Downloads/MasterChefV2/contracts/pointCenterIfo.sol\":30555:30599  return userInfo[_user].amount.sub(payAmount) */\n      swap3\n      pop\n      pop\n      pop\n        /* \"Users/leilei/Downloads/MasterChefV2/contracts/pointCenterIfo.sol\":30273:30606  function getRefundingAmount(address _user) public view returns (uint256) {... */\n    tag_80:\n      swap2\n      swap1\n      pop\n      jump\t// out\n        /* \"Users/leilei/Downloads/MasterChefV2/contracts/pointCenterIfo.sol\":27883:28047  function setRaisingAmount(uint256 _raisingAmount) public onlyAdmin {... */\n    tag_41:\n        /* \"Users/leilei/Downloads/MasterChefV2/contracts/pointCenterIfo.sol\":27663:27675  adminAddress */\n      and(sub(shl(0xa0, 0x01), 0x01), sload(0x01))\n        /* \"Users/leilei/Downloads/MasterChefV2/contracts/pointCenterIfo.sol\":27649:27659  msg.sender */\n      caller\n        /* \"Users/leilei/Downloads/MasterChefV2/contracts/pointCenterIfo.sol\":27649:27675  msg.sender == adminAddress */\n      eq\n        /* \"Users/leilei/Downloads/MasterChefV2/contracts/pointCenterIfo.sol\":27641:27691  require(msg.sender == adminAddress, \"admin: wut?\") */\n      tag_90\n      jumpi\n      0x40\n      dup1\n      mload\n      shl(0xe5, 0x461bcd)\n      dup2\n      mstore\n      0x20\n      0x04\n      dup3\n      add\n      mstore\n      0x0b\n      0x24\n      dup3\n      add\n      mstore\n      shl(0xa8, 0x61646d696e3a207775743f)\n      0x44\n      dup3\n      add\n      mstore\n      swap1\n      mload\n      swap1\n      dup2\n      swap1\n      sub\n      0x64\n      add\n      swap1\n      revert\n    tag_90:\n        /* \"Users/leilei/Downloads/MasterChefV2/contracts/pointCenterIfo.sol\":27983:27993  startBlock */\n      sload(0x04)\n        /* \"Users/leilei/Downloads/MasterChefV2/contracts/pointCenterIfo.sol\":27968:27980  block.number */\n      number\n        /* \"Users/leilei/Downloads/MasterChefV2/contracts/pointCenterIfo.sol\":27968:27993  block.number < startBlock */\n      lt\n        /* \"Users/leilei/Downloads/MasterChefV2/contracts/pointCenterIfo.sol\":27960:28000  require(block.number < startBlock, \"no\") */\n      tag_92\n      jumpi\n      0x40\n      dup1\n      mload\n      shl(0xe5, 0x461bcd)\n      dup2\n      mstore\n      0x20\n      0x04\n      dup3\n      add\n      mstore\n      0x02\n      0x24\n      dup3\n      add\n      mstore\n      shl(0xf0, 0x6e6f)\n      0x44\n      dup3\n      add\n      mstore\n      swap1\n      mload\n      swap1\n      dup2\n      swap1\n      sub\n      0x64\n      add\n      swap1\n      revert\n    tag_92:\n        /* \"Users/leilei/Downloads/MasterChefV2/contracts/pointCenterIfo.sol\":28010:28023  raisingAmount */\n      0x06\n        /* \"Users/leilei/Downloads/MasterChefV2/contracts/pointCenterIfo.sol\":28010:28040  raisingAmount = _raisingAmount */\n      sstore\n        /* \"Users/leilei/Downloads/MasterChefV2/contracts/pointCenterIfo.sol\":27883:28047  function setRaisingAmount(uint256 _raisingAmount) public onlyAdmin {... */\n      jump\t// out\n        /* \"Users/leilei/Downloads/MasterChefV2/contracts/pointCenterIfo.sol\":28637:29358  function harvest() public nonReentrant {... */\n    tag_43:\n        /* \"Users/leilei/Downloads/MasterChefV2/contracts/pointCenterIfo.sol\":24958:24959  2 */\n      0x02\n        /* \"Users/leilei/Downloads/MasterChefV2/contracts/pointCenterIfo.sol\":25546:25553  _status */\n      sload(0x00)\n        /* \"Users/leilei/Downloads/MasterChefV2/contracts/pointCenterIfo.sol\":25546:25565  _status != _ENTERED */\n      eq\n      iszero\n        /* \"Users/leilei/Downloads/MasterChefV2/contracts/pointCenterIfo.sol\":25538:25601  require(_status != _ENTERED, \"ReentrancyGuard: reentrant call\") */\n      tag_94\n      jumpi\n      0x40\n      dup1\n      mload\n      shl(0xe5, 0x461bcd)\n      dup2\n      mstore\n      0x20\n      0x04\n      dup3\n      add\n      mstore\n      0x1f\n      0x24\n      dup3\n      add\n      mstore\n      0x5265656e7472616e637947756172643a207265656e7472616e742063616c6c00\n      0x44\n      dup3\n      add\n      mstore\n      swap1\n      mload\n      swap1\n      dup2\n      swap1\n      sub\n      0x64\n      add\n      swap1\n      revert\n    tag_94:\n        /* \"Users/leilei/Downloads/MasterChefV2/contracts/pointCenterIfo.sol\":24958:24959  2 */\n      0x02\n        /* \"Users/leilei/Downloads/MasterChefV2/contracts/pointCenterIfo.sol\":25676:25683  _status */\n      0x00\n        /* \"Users/leilei/Downloads/MasterChefV2/contracts/pointCenterIfo.sol\":25676:25694  _status = _ENTERED */\n      sstore\n        /* \"Users/leilei/Downloads/MasterChefV2/contracts/pointCenterIfo.sol\":28709:28717  endBlock */\n      sload(0x05)\n        /* \"Users/leilei/Downloads/MasterChefV2/contracts/pointCenterIfo.sol\":28694:28706  block.number */\n      number\n        /* \"Users/leilei/Downloads/MasterChefV2/contracts/pointCenterIfo.sol\":28694:28717  block.number > endBlock */\n      gt\n        /* \"Users/leilei/Downloads/MasterChefV2/contracts/pointCenterIfo.sol\":28686:28738  require(block.number > endBlock, \"not harvest time\") */\n      tag_96\n      jumpi\n      0x40\n      dup1\n      mload\n      shl(0xe5, 0x461bcd)\n      dup2\n      mstore\n      0x20\n      0x04\n      dup3\n      add\n      mstore\n      0x10\n      0x24\n      dup3\n      add\n      mstore\n      shl(0x80, 0x6e6f7420686172766573742074696d65)\n      0x44\n      dup3\n      add\n      mstore\n      swap1\n      mload\n      swap1\n      dup2\n      swap1\n      sub\n      0x64\n      add\n      swap1\n      revert\n    tag_96:\n        /* \"Users/leilei/Downloads/MasterChefV2/contracts/pointCenterIfo.sol\":28765:28775  msg.sender */\n      caller\n        /* \"Users/leilei/Downloads/MasterChefV2/contracts/pointCenterIfo.sol\":28786:28787  0 */\n      0x00\n        /* \"Users/leilei/Downloads/MasterChefV2/contracts/pointCenterIfo.sol\":28756:28776  userInfo[msg.sender] */\n      swap1\n      dup2\n      mstore\n        /* \"Users/leilei/Downloads/MasterChefV2/contracts/pointCenterIfo.sol\":28756:28764  userInfo */\n      0x09\n        /* \"Users/leilei/Downloads/MasterChefV2/contracts/pointCenterIfo.sol\":28756:28776  userInfo[msg.sender] */\n      0x20\n      mstore\n      0x40\n      swap1\n      keccak256\n        /* \"Users/leilei/Downloads/MasterChefV2/contracts/pointCenterIfo.sol\":28756:28783  userInfo[msg.sender].amount */\n      sload\n        /* \"Users/leilei/Downloads/MasterChefV2/contracts/pointCenterIfo.sol\":28748:28814  require(userInfo[msg.sender].amount > 0, \"have you participated?\") */\n      tag_97\n      jumpi\n      0x40\n      dup1\n      mload\n      shl(0xe5, 0x461bcd)\n      dup2\n      mstore\n      0x20\n      0x04\n      dup3\n      add\n      mstore\n      0x16\n      0x24\n      dup3\n      add\n      mstore\n      shl(0x50, 0x6861766520796f75207061727469636970617465643f)\n      0x44\n      dup3\n      add\n      mstore\n      swap1\n      mload\n      swap1\n      dup2\n      swap1\n      sub\n      0x64\n      add\n      swap1\n      revert\n    tag_97:\n        /* \"Users/leilei/Downloads/MasterChefV2/contracts/pointCenterIfo.sol\":28842:28852  msg.sender */\n      caller\n        /* \"Users/leilei/Downloads/MasterChefV2/contracts/pointCenterIfo.sol\":28833:28853  userInfo[msg.sender] */\n      0x00\n      swap1\n      dup2\n      mstore\n        /* \"Users/leilei/Downloads/MasterChefV2/contracts/pointCenterIfo.sol\":28833:28841  userInfo */\n      0x09\n        /* \"Users/leilei/Downloads/MasterChefV2/contracts/pointCenterIfo.sol\":28833:28853  userInfo[msg.sender] */\n      0x20\n      mstore\n      0x40\n      swap1\n      keccak256\n        /* \"Users/leilei/Downloads/MasterChefV2/contracts/pointCenterIfo.sol\":28833:28861  userInfo[msg.sender].claimed */\n      0x01\n      add\n      sload\n      0xff\n      and\n        /* \"Users/leilei/Downloads/MasterChefV2/contracts/pointCenterIfo.sol\":28832:28861  !userInfo[msg.sender].claimed */\n      iszero\n        /* \"Users/leilei/Downloads/MasterChefV2/contracts/pointCenterIfo.sol\":28824:28884  require(!userInfo[msg.sender].claimed, \"nothing to harvest\") */\n      tag_98\n      jumpi\n      0x40\n      dup1\n      mload\n      shl(0xe5, 0x461bcd)\n      dup2\n      mstore\n      0x20\n      0x04\n      dup3\n      add\n      mstore\n      0x12\n      0x24\n      dup3\n      add\n      mstore\n      shl(0x72, 0x1b9bdd1a1a5b99c81d1bc81a185c9d995cdd)\n      0x44\n      dup3\n      add\n      mstore\n      swap1\n      mload\n      swap1\n      dup2\n      swap1\n      sub\n      0x64\n      add\n      swap1\n      revert\n    tag_98:\n        /* \"Users/leilei/Downloads/MasterChefV2/contracts/pointCenterIfo.sol\":28894:28921  uint256 offeringTokenAmount */\n      0x00\n        /* \"Users/leilei/Downloads/MasterChefV2/contracts/pointCenterIfo.sol\":28924:28953  getOfferingAmount(msg.sender) */\n      tag_99\n        /* \"Users/leilei/Downloads/MasterChefV2/contracts/pointCenterIfo.sol\":28942:28952  msg.sender */\n      caller\n        /* \"Users/leilei/Downloads/MasterChefV2/contracts/pointCenterIfo.sol\":28924:28941  getOfferingAmount */\n      tag_53\n        /* \"Users/leilei/Downloads/MasterChefV2/contracts/pointCenterIfo.sol\":28924:28953  getOfferingAmount(msg.sender) */\n      jump\t// in\n    tag_99:\n        /* \"Users/leilei/Downloads/MasterChefV2/contracts/pointCenterIfo.sol\":28894:28953  uint256 offeringTokenAmount = getOfferingAmount(msg.sender) */\n      swap1\n      pop\n        /* \"Users/leilei/Downloads/MasterChefV2/contracts/pointCenterIfo.sol\":28963:28991  uint256 refundingTokenAmount */\n      0x00\n        /* \"Users/leilei/Downloads/MasterChefV2/contracts/pointCenterIfo.sol\":28994:29024  getRefundingAmount(msg.sender) */\n      tag_100\n        /* \"Users/leilei/Downloads/MasterChefV2/contracts/pointCenterIfo.sol\":29013:29023  msg.sender */\n      caller\n        /* \"Users/leilei/Downloads/MasterChefV2/contracts/pointCenterIfo.sol\":28994:29012  getRefundingAmount */\n      tag_38\n        /* \"Users/leilei/Downloads/MasterChefV2/contracts/pointCenterIfo.sol\":28994:29024  getRefundingAmount(msg.sender) */\n      jump\t// in\n    tag_100:\n        /* \"Users/leilei/Downloads/MasterChefV2/contracts/pointCenterIfo.sol\":29034:29047  offeringToken */\n      sload(0x03)\n        /* \"Users/leilei/Downloads/MasterChefV2/contracts/pointCenterIfo.sol\":28963:29024  uint256 refundingTokenAmount = getRefundingAmount(msg.sender) */\n      swap1\n      swap2\n      pop\n        /* \"Users/leilei/Downloads/MasterChefV2/contracts/pointCenterIfo.sol\":29034:29102  offeringToken.safeTransfer(address(msg.sender), offeringTokenAmount) */\n      tag_101\n      swap1\n      sub(shl(0xa0, 0x01), 0x01)\n        /* \"Users/leilei/Downloads/MasterChefV2/contracts/pointCenterIfo.sol\":29034:29047  offeringToken */\n      and\n        /* \"Users/leilei/Downloads/MasterChefV2/contracts/pointCenterIfo.sol\":29069:29079  msg.sender */\n      caller\n        /* \"Users/leilei/Downloads/MasterChefV2/contracts/pointCenterIfo.sol\":29082:29101  offeringTokenAmount */\n      dup5\n        /* \"Users/leilei/Downloads/MasterChefV2/contracts/pointCenterIfo.sol\":29034:29060  offeringToken.safeTransfer */\n      tag_102\n        /* \"Users/leilei/Downloads/MasterChefV2/contracts/pointCenterIfo.sol\":29034:29102  offeringToken.safeTransfer(address(msg.sender), offeringTokenAmount) */\n      jump\t// in\n    tag_101:\n        /* \"Users/leilei/Downloads/MasterChefV2/contracts/pointCenterIfo.sol\":29116:29140  refundingTokenAmount > 0 */\n      dup1\n      iszero\n        /* \"Users/leilei/Downloads/MasterChefV2/contracts/pointCenterIfo.sol\":29112:29230  if (refundingTokenAmount > 0) {... */\n      tag_104\n      jumpi\n        /* \"Users/leilei/Downloads/MasterChefV2/contracts/pointCenterIfo.sol\":29156:29163  lpToken */\n      sload(0x02)\n        /* \"Users/leilei/Downloads/MasterChefV2/contracts/pointCenterIfo.sol\":29156:29219  lpToken.safeTransfer(address(msg.sender), refundingTokenAmount) */\n      tag_104\n      swap1\n      sub(shl(0xa0, 0x01), 0x01)\n        /* \"Users/leilei/Downloads/MasterChefV2/contracts/pointCenterIfo.sol\":29156:29163  lpToken */\n      and\n        /* \"Users/leilei/Downloads/MasterChefV2/contracts/pointCenterIfo.sol\":29185:29195  msg.sender */\n      caller\n        /* \"Users/leilei/Downloads/MasterChefV2/contracts/pointCenterIfo.sol\":29198:29218  refundingTokenAmount */\n      dup4\n        /* \"Users/leilei/Downloads/MasterChefV2/contracts/pointCenterIfo.sol\":29156:29176  lpToken.safeTransfer */\n      tag_102\n        /* \"Users/leilei/Downloads/MasterChefV2/contracts/pointCenterIfo.sol\":29156:29219  lpToken.safeTransfer(address(msg.sender), refundingTokenAmount) */\n      jump\t// in\n    tag_104:\n        /* \"Users/leilei/Downloads/MasterChefV2/contracts/pointCenterIfo.sol\":29248:29258  msg.sender */\n      caller\n        /* \"Users/leilei/Downloads/MasterChefV2/contracts/pointCenterIfo.sol\":29239:29259  userInfo[msg.sender] */\n      0x00\n      dup2\n      dup2\n      mstore\n        /* \"Users/leilei/Downloads/MasterChefV2/contracts/pointCenterIfo.sol\":29239:29247  userInfo */\n      0x09\n        /* \"Users/leilei/Downloads/MasterChefV2/contracts/pointCenterIfo.sol\":29239:29259  userInfo[msg.sender] */\n      0x20\n      swap1\n      dup2\n      mstore\n      0x40\n      swap2\n      dup3\n      swap1\n      keccak256\n        /* \"Users/leilei/Downloads/MasterChefV2/contracts/pointCenterIfo.sol\":29270:29274  true */\n      0x01\n        /* \"Users/leilei/Downloads/MasterChefV2/contracts/pointCenterIfo.sol\":29239:29267  userInfo[msg.sender].claimed */\n      swap1\n      dup2\n      add\n        /* \"Users/leilei/Downloads/MasterChefV2/contracts/pointCenterIfo.sol\":29239:29274  userInfo[msg.sender].claimed = true */\n      dup1\n      sload\n      not(0xff)\n      and\n      swap1\n      swap2\n      or\n      swap1\n      sstore\n        /* \"Users/leilei/Downloads/MasterChefV2/contracts/pointCenterIfo.sol\":29289:29351  Harvest(msg.sender, offeringTokenAmount, refundingTokenAmount) */\n      dup2\n      mload\n      dup6\n      dup2\n      mstore\n      swap1\n      dup2\n      add\n      dup5\n      swap1\n      mstore\n      dup2\n      mload\n      0x71bab65ced2e5750775a0613be067df48ef06cf92a496ebf7663ae0660924954\n      swap3\n      swap2\n      dup2\n      swap1\n      sub\n      swap1\n      swap2\n      add\n      swap1\n      log2\n      pop\n      pop\n        /* \"Users/leilei/Downloads/MasterChefV2/contracts/pointCenterIfo.sol\":24915:24916  1 */\n      0x01\n        /* \"Users/leilei/Downloads/MasterChefV2/contracts/pointCenterIfo.sol\":25849:25856  _status */\n      0x00\n        /* \"Users/leilei/Downloads/MasterChefV2/contracts/pointCenterIfo.sol\":25849:25871  _status = _NOT_ENTERED */\n      sstore\n        /* \"Users/leilei/Downloads/MasterChefV2/contracts/pointCenterIfo.sol\":28637:29358  function harvest() public nonReentrant {... */\n      jump\t// out\n        /* \"Users/leilei/Downloads/MasterChefV2/contracts/pointCenterIfo.sol\":26409:26434  uint256 public startBlock */\n    tag_45:\n      sload(0x04)\n      dup2\n      jump\t// out\n        /* \"Users/leilei/Downloads/MasterChefV2/contracts/pointCenterIfo.sol\":26283:26304  IBEP20 public lpToken */\n    tag_47:\n      and(sub(shl(0xa0, 0x01), 0x01), sload(0x02))\n      dup2\n      jump\t// out\n        /* \"Users/leilei/Downloads/MasterChefV2/contracts/pointCenterIfo.sol\":29364:29475  function hasHarvest(address _user) external view returns (bool) {... */\n    tag_50:\n      sub(shl(0xa0, 0x01), 0x01)\n        /* \"Users/leilei/Downloads/MasterChefV2/contracts/pointCenterIfo.sol\":29445:29460  userInfo[_user] */\n      and\n        /* \"Users/leilei/Downloads/MasterChefV2/contracts/pointCenterIfo.sol\":29422:29426  bool */\n      0x00\n        /* \"Users/leilei/Downloads/MasterChefV2/contracts/pointCenterIfo.sol\":29445:29460  userInfo[_user] */\n      swap1\n      dup2\n      mstore\n        /* \"Users/leilei/Downloads/MasterChefV2/contracts/pointCenterIfo.sol\":29445:29453  userInfo */\n      0x09\n        /* \"Users/leilei/Downloads/MasterChefV2/contracts/pointCenterIfo.sol\":29445:29460  userInfo[_user] */\n      0x20\n      mstore\n      0x40\n      swap1\n      keccak256\n        /* \"Users/leilei/Downloads/MasterChefV2/contracts/pointCenterIfo.sol\":29445:29468  userInfo[_user].claimed */\n      0x01\n      add\n      sload\n      0xff\n      and\n      swap1\n        /* \"Users/leilei/Downloads/MasterChefV2/contracts/pointCenterIfo.sol\":29364:29475  function hasHarvest(address _user) external view returns (bool) {... */\n      jump\t// out\n        /* \"Users/leilei/Downloads/MasterChefV2/contracts/pointCenterIfo.sol\":29780:30212  function getOfferingAmount(address _user) public view returns (uint256) {... */\n    tag_53:\n        /* \"Users/leilei/Downloads/MasterChefV2/contracts/pointCenterIfo.sol\":29843:29850  uint256 */\n      0x00\n        /* \"Users/leilei/Downloads/MasterChefV2/contracts/pointCenterIfo.sol\":29880:29893  raisingAmount */\n      sload(0x06)\n        /* \"Users/leilei/Downloads/MasterChefV2/contracts/pointCenterIfo.sol\":29866:29877  totalAmount */\n      sload(0x08)\n        /* \"Users/leilei/Downloads/MasterChefV2/contracts/pointCenterIfo.sol\":29866:29893  totalAmount > raisingAmount */\n      gt\n        /* \"Users/leilei/Downloads/MasterChefV2/contracts/pointCenterIfo.sol\":29862:30206  if (totalAmount > raisingAmount) {... */\n      iszero\n      tag_107\n      jumpi\n        /* \"Users/leilei/Downloads/MasterChefV2/contracts/pointCenterIfo.sol\":29909:29927  uint256 allocation */\n      0x00\n        /* \"Users/leilei/Downloads/MasterChefV2/contracts/pointCenterIfo.sol\":29930:29954  getUserAllocation(_user) */\n      tag_108\n        /* \"Users/leilei/Downloads/MasterChefV2/contracts/pointCenterIfo.sol\":29948:29953  _user */\n      dup4\n        /* \"Users/leilei/Downloads/MasterChefV2/contracts/pointCenterIfo.sol\":29930:29947  getUserAllocation */\n      tag_69\n        /* \"Users/leilei/Downloads/MasterChefV2/contracts/pointCenterIfo.sol\":29930:29954  getUserAllocation(_user) */\n      jump\t// in\n    tag_108:\n        /* \"Users/leilei/Downloads/MasterChefV2/contracts/pointCenterIfo.sol\":29909:29954  uint256 allocation = getUserAllocation(_user) */\n      swap1\n      pop\n        /* \"Users/leilei/Downloads/MasterChefV2/contracts/pointCenterIfo.sol\":29975:30014  offeringAmount.mul(allocation).div(1e6) */\n      tag_109\n        /* \"Users/leilei/Downloads/MasterChefV2/contracts/pointCenterIfo.sol\":30010:30013  1e6 */\n      0x0f4240\n        /* \"Users/leilei/Downloads/MasterChefV2/contracts/pointCenterIfo.sol\":29975:30005  offeringAmount.mul(allocation) */\n      tag_84\n        /* \"Users/leilei/Downloads/MasterChefV2/contracts/pointCenterIfo.sol\":29994:30004  allocation */\n      dup4\n        /* \"Users/leilei/Downloads/MasterChefV2/contracts/pointCenterIfo.sol\":29975:29989  offeringAmount */\n      sload(0x07)\n        /* \"Users/leilei/Downloads/MasterChefV2/contracts/pointCenterIfo.sol\":29975:29993  offeringAmount.mul */\n      tag_85\n      swap1\n        /* \"Users/leilei/Downloads/MasterChefV2/contracts/pointCenterIfo.sol\":29975:30005  offeringAmount.mul(allocation) */\n      swap2\n      swap1\n      0xffffffff\n      and\n      jump\t// in\n        /* \"Users/leilei/Downloads/MasterChefV2/contracts/pointCenterIfo.sol\":29975:30014  offeringAmount.mul(allocation).div(1e6) */\n    tag_109:\n        /* \"Users/leilei/Downloads/MasterChefV2/contracts/pointCenterIfo.sol\":29968:30014  return offeringAmount.mul(allocation).div(1e6) */\n      swap2\n      pop\n      pop\n      jump(tag_80)\n        /* \"Users/leilei/Downloads/MasterChefV2/contracts/pointCenterIfo.sol\":29862:30206  if (totalAmount > raisingAmount) {... */\n    tag_107:\n        /* \"Users/leilei/Downloads/MasterChefV2/contracts/pointCenterIfo.sol\":30181:30194  raisingAmount */\n      sload(0x06)\n        /* \"Users/leilei/Downloads/MasterChefV2/contracts/pointCenterIfo.sol\":30161:30175  offeringAmount */\n      sload(0x07)\n      sub(shl(0xa0, 0x01), 0x01)\n        /* \"Users/leilei/Downloads/MasterChefV2/contracts/pointCenterIfo.sol\":30134:30149  userInfo[_user] */\n      dup5\n      and\n      0x00\n      swap1\n      dup2\n      mstore\n        /* \"Users/leilei/Downloads/MasterChefV2/contracts/pointCenterIfo.sol\":30134:30142  userInfo */\n      0x09\n        /* \"Users/leilei/Downloads/MasterChefV2/contracts/pointCenterIfo.sol\":30134:30149  userInfo[_user] */\n      0x20\n      mstore\n      0x40\n      swap1\n      keccak256\n        /* \"Users/leilei/Downloads/MasterChefV2/contracts/pointCenterIfo.sol\":30134:30156  userInfo[_user].amount */\n      sload\n        /* \"Users/leilei/Downloads/MasterChefV2/contracts/pointCenterIfo.sol\":30134:30195  userInfo[_user].amount.mul(offeringAmount).div(raisingAmount) */\n      tag_112\n      swap3\n        /* \"Users/leilei/Downloads/MasterChefV2/contracts/pointCenterIfo.sol\":30181:30194  raisingAmount */\n      swap2\n        /* \"Users/leilei/Downloads/MasterChefV2/contracts/pointCenterIfo.sol\":30134:30176  userInfo[_user].amount.mul(offeringAmount) */\n      tag_84\n      swap2\n        /* \"Users/leilei/Downloads/MasterChefV2/contracts/pointCenterIfo.sol\":30134:30156  userInfo[_user].amount */\n      swap1\n        /* \"Users/leilei/Downloads/MasterChefV2/contracts/pointCenterIfo.sol\":30134:30160  userInfo[_user].amount.mul */\n      tag_85\n        /* \"Users/leilei/Downloads/MasterChefV2/contracts/pointCenterIfo.sol\":30134:30176  userInfo[_user].amount.mul(offeringAmount) */\n      jump\t// in\n        /* \"Users/leilei/Downloads/MasterChefV2/contracts/pointCenterIfo.sol\":30134:30195  userInfo[_user].amount.mul(offeringAmount).div(raisingAmount) */\n    tag_112:\n        /* \"Users/leilei/Downloads/MasterChefV2/contracts/pointCenterIfo.sol\":30111:30195  return... */\n      swap1\n      pop\n      jump(tag_80)\n        /* \"Users/leilei/Downloads/MasterChefV2/contracts/pointCenterIfo.sol\":26563:26591  uint256 public raisingAmount */\n    tag_55:\n      sload(0x06)\n      dup2\n      jump\t// out\n        /* \"Users/leilei/Downloads/MasterChefV2/contracts/pointCenterIfo.sol\":30724:31212  function finalWithdraw(uint256 _lpAmount, uint256 _offerAmount)... */\n    tag_58:\n        /* \"Users/leilei/Downloads/MasterChefV2/contracts/pointCenterIfo.sol\":27663:27675  adminAddress */\n      and(sub(shl(0xa0, 0x01), 0x01), sload(0x01))\n        /* \"Users/leilei/Downloads/MasterChefV2/contracts/pointCenterIfo.sol\":27649:27659  msg.sender */\n      caller\n        /* \"Users/leilei/Downloads/MasterChefV2/contracts/pointCenterIfo.sol\":27649:27675  msg.sender == adminAddress */\n      eq\n        /* \"Users/leilei/Downloads/MasterChefV2/contracts/pointCenterIfo.sol\":27641:27691  require(msg.sender == adminAddress, \"admin: wut?\") */\n      tag_115\n      jumpi\n      0x40\n      dup1\n      mload\n      shl(0xe5, 0x461bcd)\n      dup2\n      mstore\n      0x20\n      0x04\n      dup3\n      add\n      mstore\n      0x0b\n      0x24\n      dup3\n      add\n      mstore\n      shl(0xa8, 0x61646d696e3a207775743f)\n      0x44\n      dup3\n      add\n      mstore\n      swap1\n      mload\n      swap1\n      dup2\n      swap1\n      sub\n      0x64\n      add\n      swap1\n      revert\n    tag_115:\n        /* \"Users/leilei/Downloads/MasterChefV2/contracts/pointCenterIfo.sol\":30868:30875  lpToken */\n      sload(0x02)\n        /* \"Users/leilei/Downloads/MasterChefV2/contracts/pointCenterIfo.sol\":30868:30900  lpToken.balanceOf(address(this)) */\n      0x40\n      dup1\n      mload\n      shl(0xe0, 0x70a08231)\n      dup2\n      mstore\n        /* \"Users/leilei/Downloads/MasterChefV2/contracts/pointCenterIfo.sol\":30894:30898  this */\n      address\n        /* \"Users/leilei/Downloads/MasterChefV2/contracts/pointCenterIfo.sol\":30868:30900  lpToken.balanceOf(address(this)) */\n      0x04\n      dup3\n      add\n      mstore\n      swap1\n      mload\n      sub(shl(0xa0, 0x01), 0x01)\n        /* \"Users/leilei/Downloads/MasterChefV2/contracts/pointCenterIfo.sol\":30868:30875  lpToken */\n      swap1\n      swap3\n      and\n      swap2\n        /* \"Users/leilei/Downloads/MasterChefV2/contracts/pointCenterIfo.sol\":30868:30885  lpToken.balanceOf */\n      0x70a08231\n      swap2\n        /* \"Users/leilei/Downloads/MasterChefV2/contracts/pointCenterIfo.sol\":30868:30900  lpToken.balanceOf(address(this)) */\n      0x24\n      dup1\n      dup3\n      add\n      swap3\n      0x20\n      swap3\n      swap1\n      swap2\n      swap1\n      dup3\n      swap1\n      sub\n      add\n      dup2\n        /* \"Users/leilei/Downloads/MasterChefV2/contracts/pointCenterIfo.sol\":30868:30875  lpToken */\n      dup7\n        /* \"Users/leilei/Downloads/MasterChefV2/contracts/pointCenterIfo.sol\":30868:30900  lpToken.balanceOf(address(this)) */\n      dup1\n      extcodesize\n      iszero\n      dup1\n      iszero\n      tag_117\n      jumpi\n      0x00\n      dup1\n      revert\n    tag_117:\n      pop\n      gas\n      staticcall\n      iszero\n      dup1\n      iszero\n      tag_119\n      jumpi\n      returndatasize\n      0x00\n      dup1\n      returndatacopy\n      revert(0x00, returndatasize)\n    tag_119:\n      pop\n      pop\n      pop\n      pop\n      mload(0x40)\n      returndatasize\n      0x20\n      dup2\n      lt\n      iszero\n      tag_120\n      jumpi\n      0x00\n      dup1\n      revert\n    tag_120:\n      pop\n      mload\n        /* \"Users/leilei/Downloads/MasterChefV2/contracts/pointCenterIfo.sol\":30856:30900  _lpAmount < lpToken.balanceOf(address(this)) */\n      dup3\n      lt\n        /* \"Users/leilei/Downloads/MasterChefV2/contracts/pointCenterIfo.sol\":30835:30944  require(... */\n      tag_121\n      jumpi\n      0x40\n      dup1\n      mload\n      shl(0xe5, 0x461bcd)\n      dup2\n      mstore\n      0x20\n      0x04\n      dup3\n      add\n      mstore\n      0x12\n      0x24\n      dup3\n      add\n      mstore\n      shl(0x74, 0x06e6f7420656e6f75676820746f6b656e203)\n      0x44\n      dup3\n      add\n      mstore\n      swap1\n      mload\n      swap1\n      dup2\n      swap1\n      sub\n      0x64\n      add\n      swap1\n      revert\n    tag_121:\n        /* \"Users/leilei/Downloads/MasterChefV2/contracts/pointCenterIfo.sol\":30990:31003  offeringToken */\n      sload(0x03)\n        /* \"Users/leilei/Downloads/MasterChefV2/contracts/pointCenterIfo.sol\":30990:31028  offeringToken.balanceOf(address(this)) */\n      0x40\n      dup1\n      mload\n      shl(0xe0, 0x70a08231)\n      dup2\n      mstore\n        /* \"Users/leilei/Downloads/MasterChefV2/contracts/pointCenterIfo.sol\":31022:31026  this */\n      address\n        /* \"Users/leilei/Downloads/MasterChefV2/contracts/pointCenterIfo.sol\":30990:31028  offeringToken.balanceOf(address(this)) */\n      0x04\n      dup3\n      add\n      mstore\n      swap1\n      mload\n      sub(shl(0xa0, 0x01), 0x01)\n        /* \"Users/leilei/Downloads/MasterChefV2/contracts/pointCenterIfo.sol\":30990:31003  offeringToken */\n      swap1\n      swap3\n      and\n      swap2\n        /* \"Users/leilei/Downloads/MasterChefV2/contracts/pointCenterIfo.sol\":30990:31013  offeringToken.balanceOf */\n      0x70a08231\n      swap2\n        /* \"Users/leilei/Downloads/MasterChefV2/contracts/pointCenterIfo.sol\":30990:31028  offeringToken.balanceOf(address(this)) */\n      0x24\n      dup1\n      dup3\n      add\n      swap3\n      0x20\n      swap3\n      swap1\n      swap2\n      swap1\n      dup3\n      swap1\n      sub\n      add\n      dup2\n        /* \"Users/leilei/Downloads/MasterChefV2/contracts/pointCenterIfo.sol\":30990:31003  offeringToken */\n      dup7\n        /* \"Users/leilei/Downloads/MasterChefV2/contracts/pointCenterIfo.sol\":30990:31028  offeringToken.balanceOf(address(this)) */\n      dup1\n      extcodesize\n      iszero\n      dup1\n      iszero\n      tag_122\n      jumpi\n      0x00\n      dup1\n      revert\n    tag_122:\n      pop\n      gas\n      staticcall\n      iszero\n      dup1\n      iszero\n      tag_124\n      jumpi\n      returndatasize\n      0x00\n      dup1\n      returndatacopy\n      revert(0x00, returndatasize)\n    tag_124:\n      pop\n      pop\n      pop\n      pop\n      mload(0x40)\n      returndatasize\n      0x20\n      dup2\n      lt\n      iszero\n      tag_125\n      jumpi\n      0x00\n      dup1\n      revert\n    tag_125:\n      pop\n      mload\n        /* \"Users/leilei/Downloads/MasterChefV2/contracts/pointCenterIfo.sol\":30975:31028  _offerAmount < offeringToken.balanceOf(address(this)) */\n      dup2\n      lt\n        /* \"Users/leilei/Downloads/MasterChefV2/contracts/pointCenterIfo.sol\":30954:31072  require(... */\n      tag_126\n      jumpi\n      0x40\n      dup1\n      mload\n      shl(0xe5, 0x461bcd)\n      dup2\n      mstore\n      0x20\n      0x04\n      dup3\n      add\n      mstore\n      0x12\n      0x24\n      dup3\n      add\n      mstore\n      shl(0x70, 0x6e6f7420656e6f75676820746f6b656e2031)\n      0x44\n      dup3\n      add\n      mstore\n      swap1\n      mload\n      swap1\n      dup2\n      swap1\n      sub\n      0x64\n      add\n      swap1\n      revert\n    tag_126:\n        /* \"Users/leilei/Downloads/MasterChefV2/contracts/pointCenterIfo.sol\":31082:31089  lpToken */\n      sload(0x02)\n        /* \"Users/leilei/Downloads/MasterChefV2/contracts/pointCenterIfo.sol\":31082:31134  lpToken.safeTransfer(address(msg.sender), _lpAmount) */\n      tag_127\n      swap1\n      sub(shl(0xa0, 0x01), 0x01)\n        /* \"Users/leilei/Downloads/MasterChefV2/contracts/pointCenterIfo.sol\":31082:31089  lpToken */\n      and\n        /* \"Users/leilei/Downloads/MasterChefV2/contracts/pointCenterIfo.sol\":31111:31121  msg.sender */\n      caller\n        /* \"Users/leilei/Downloads/MasterChefV2/contracts/pointCenterIfo.sol\":31124:31133  _lpAmount */\n      dup5\n        /* \"Users/leilei/Downloads/MasterChefV2/contracts/pointCenterIfo.sol\":31082:31102  lpToken.safeTransfer */\n      tag_102\n        /* \"Users/leilei/Downloads/MasterChefV2/contracts/pointCenterIfo.sol\":31082:31134  lpToken.safeTransfer(address(msg.sender), _lpAmount) */\n      jump\t// in\n    tag_127:\n        /* \"Users/leilei/Downloads/MasterChefV2/contracts/pointCenterIfo.sol\":31144:31157  offeringToken */\n      sload(0x03)\n        /* \"Users/leilei/Downloads/MasterChefV2/contracts/pointCenterIfo.sol\":31144:31205  offeringToken.safeTransfer(address(msg.sender), _offerAmount) */\n      tag_128\n      swap1\n      sub(shl(0xa0, 0x01), 0x01)\n        /* \"Users/leilei/Downloads/MasterChefV2/contracts/pointCenterIfo.sol\":31144:31157  offeringToken */\n      and\n        /* \"Users/leilei/Downloads/MasterChefV2/contracts/pointCenterIfo.sol\":31179:31189  msg.sender */\n      caller\n        /* \"Users/leilei/Downloads/MasterChefV2/contracts/pointCenterIfo.sol\":31192:31204  _offerAmount */\n      dup4\n        /* \"Users/leilei/Downloads/MasterChefV2/contracts/pointCenterIfo.sol\":31144:31170  offeringToken.safeTransfer */\n      tag_102\n        /* \"Users/leilei/Downloads/MasterChefV2/contracts/pointCenterIfo.sol\":31144:31205  offeringToken.safeTransfer(address(msg.sender), _offerAmount) */\n      jump\t// in\n    tag_128:\n        /* \"Users/leilei/Downloads/MasterChefV2/contracts/pointCenterIfo.sol\":30724:31212  function finalWithdraw(uint256 _lpAmount, uint256 _offerAmount)... */\n      pop\n      pop\n      jump\t// out\n        /* \"Users/leilei/Downloads/MasterChefV2/contracts/pointCenterIfo.sol\":28053:28631  function deposit(uint256 _amount) public {... */\n    tag_61:\n        /* \"Users/leilei/Downloads/MasterChefV2/contracts/pointCenterIfo.sol\":28140:28150  startBlock */\n      sload(0x04)\n        /* \"Users/leilei/Downloads/MasterChefV2/contracts/pointCenterIfo.sol\":28125:28137  block.number */\n      number\n        /* \"Users/leilei/Downloads/MasterChefV2/contracts/pointCenterIfo.sol\":28125:28150  block.number > startBlock */\n      gt\n        /* \"Users/leilei/Downloads/MasterChefV2/contracts/pointCenterIfo.sol\":28125:28177  block.number > startBlock && block.number < endBlock */\n      dup1\n      iszero\n      tag_130\n      jumpi\n      pop\n        /* \"Users/leilei/Downloads/MasterChefV2/contracts/pointCenterIfo.sol\":28169:28177  endBlock */\n      sload(0x05)\n        /* \"Users/leilei/Downloads/MasterChefV2/contracts/pointCenterIfo.sol\":28154:28166  block.number */\n      number\n        /* \"Users/leilei/Downloads/MasterChefV2/contracts/pointCenterIfo.sol\":28154:28177  block.number < endBlock */\n      lt\n        /* \"Users/leilei/Downloads/MasterChefV2/contracts/pointCenterIfo.sol\":28125:28177  block.number > startBlock && block.number < endBlock */\n    tag_130:\n        /* \"Users/leilei/Downloads/MasterChefV2/contracts/pointCenterIfo.sol\":28104:28215  require(... */\n      tag_131\n      jumpi\n      0x40\n      dup1\n      mload\n      shl(0xe5, 0x461bcd)\n      dup2\n      mstore\n      0x20\n      0x04\n      dup3\n      add\n      mstore\n      0x0c\n      0x24\n      dup3\n      add\n      mstore\n      shl(0xa0, 0x6e6f742069666f2074696d65)\n      0x44\n      dup3\n      add\n      mstore\n      swap1\n      mload\n      swap1\n      dup2\n      swap1\n      sub\n      0x64\n      add\n      swap1\n      revert\n    tag_131:\n        /* \"Users/leilei/Downloads/MasterChefV2/contracts/pointCenterIfo.sol\":28243:28244  0 */\n      0x00\n        /* \"Users/leilei/Downloads/MasterChefV2/contracts/pointCenterIfo.sol\":28233:28240  _amount */\n      dup2\n        /* \"Users/leilei/Downloads/MasterChefV2/contracts/pointCenterIfo.sol\":28233:28244  _amount > 0 */\n      gt\n        /* \"Users/leilei/Downloads/MasterChefV2/contracts/pointCenterIfo.sol\":28225:28265  require(_amount > 0, \"need _amount > 0\") */\n      tag_132\n      jumpi\n      0x40\n      dup1\n      mload\n      shl(0xe5, 0x461bcd)\n      dup2\n      mstore\n      0x20\n      0x04\n      dup3\n      add\n      mstore\n      0x10\n      0x24\n      dup3\n      add\n      mstore\n      shl(0x84, 0x06e656564205f616d6f756e74203e203)\n      0x44\n      dup3\n      add\n      mstore\n      swap1\n      mload\n      swap1\n      dup2\n      swap1\n      sub\n      0x64\n      add\n      swap1\n      revert\n    tag_132:\n        /* \"Users/leilei/Downloads/MasterChefV2/contracts/pointCenterIfo.sol\":28275:28282  lpToken */\n      sload(0x02)\n        /* \"Users/leilei/Downloads/MasterChefV2/contracts/pointCenterIfo.sol\":28275:28344  lpToken.safeTransferFrom(address(msg.sender), address(this), _amount) */\n      tag_133\n      swap1\n      sub(shl(0xa0, 0x01), 0x01)\n        /* \"Users/leilei/Downloads/MasterChefV2/contracts/pointCenterIfo.sol\":28275:28282  lpToken */\n      and\n        /* \"Users/leilei/Downloads/MasterChefV2/contracts/pointCenterIfo.sol\":28308:28318  msg.sender */\n      caller\n        /* \"Users/leilei/Downloads/MasterChefV2/contracts/pointCenterIfo.sol\":28329:28333  this */\n      address\n        /* \"Users/leilei/Downloads/MasterChefV2/contracts/pointCenterIfo.sol\":28336:28343  _amount */\n      dup5\n        /* \"Users/leilei/Downloads/MasterChefV2/contracts/pointCenterIfo.sol\":28275:28299  lpToken.safeTransferFrom */\n      tag_134\n        /* \"Users/leilei/Downloads/MasterChefV2/contracts/pointCenterIfo.sol\":28275:28344  lpToken.safeTransferFrom(address(msg.sender), address(this), _amount) */\n      jump\t// in\n    tag_133:\n        /* \"Users/leilei/Downloads/MasterChefV2/contracts/pointCenterIfo.sol\":28367:28377  msg.sender */\n      caller\n        /* \"Users/leilei/Downloads/MasterChefV2/contracts/pointCenterIfo.sol\":28358:28378  userInfo[msg.sender] */\n      0x00\n      swap1\n      dup2\n      mstore\n        /* \"Users/leilei/Downloads/MasterChefV2/contracts/pointCenterIfo.sol\":28358:28366  userInfo */\n      0x09\n        /* \"Users/leilei/Downloads/MasterChefV2/contracts/pointCenterIfo.sol\":28358:28378  userInfo[msg.sender] */\n      0x20\n      mstore\n      0x40\n      swap1\n      keccak256\n        /* \"Users/leilei/Downloads/MasterChefV2/contracts/pointCenterIfo.sol\":28358:28385  userInfo[msg.sender].amount */\n      sload\n        /* \"Users/leilei/Downloads/MasterChefV2/contracts/pointCenterIfo.sol\":28354:28454  if (userInfo[msg.sender].amount == 0) {... */\n      tag_135\n      jumpi\n        /* \"Users/leilei/Downloads/MasterChefV2/contracts/pointCenterIfo.sol\":28406:28417  addressList */\n      0x0a\n        /* \"Users/leilei/Downloads/MasterChefV2/contracts/pointCenterIfo.sol\":28406:28443  addressList.push(address(msg.sender)) */\n      dup1\n      sload\n      0x01\n      dup2\n      add\n      dup3\n      sstore\n      0x00\n      swap2\n      swap1\n      swap2\n      mstore\n      0xc65a7bb8d6351c1cf70c95a316cc6a92839c986682d98bc35f958f4883f9d2a8\n      add\n      dup1\n      sload\n      not(sub(shl(0xa0, 0x01), 0x01))\n      and\n        /* \"Users/leilei/Downloads/MasterChefV2/contracts/pointCenterIfo.sol\":28431:28441  msg.sender */\n      caller\n        /* \"Users/leilei/Downloads/MasterChefV2/contracts/pointCenterIfo.sol\":28406:28443  addressList.push(address(msg.sender)) */\n      or\n      swap1\n      sstore\n        /* \"Users/leilei/Downloads/MasterChefV2/contracts/pointCenterIfo.sol\":28354:28454  if (userInfo[msg.sender].amount == 0) {... */\n    tag_135:\n        /* \"Users/leilei/Downloads/MasterChefV2/contracts/pointCenterIfo.sol\":28502:28512  msg.sender */\n      caller\n        /* \"Users/leilei/Downloads/MasterChefV2/contracts/pointCenterIfo.sol\":28493:28513  userInfo[msg.sender] */\n      0x00\n      swap1\n      dup2\n      mstore\n        /* \"Users/leilei/Downloads/MasterChefV2/contracts/pointCenterIfo.sol\":28493:28501  userInfo */\n      0x09\n        /* \"Users/leilei/Downloads/MasterChefV2/contracts/pointCenterIfo.sol\":28493:28513  userInfo[msg.sender] */\n      0x20\n      mstore\n      0x40\n      swap1\n      keccak256\n        /* \"Users/leilei/Downloads/MasterChefV2/contracts/pointCenterIfo.sol\":28493:28520  userInfo[msg.sender].amount */\n      sload\n        /* \"Users/leilei/Downloads/MasterChefV2/contracts/pointCenterIfo.sol\":28493:28533  userInfo[msg.sender].amount.add(_amount) */\n      tag_137\n      swap1\n        /* \"Users/leilei/Downloads/MasterChefV2/contracts/pointCenterIfo.sol\":28525:28532  _amount */\n      dup3\n        /* \"Users/leilei/Downloads/MasterChefV2/contracts/pointCenterIfo.sol\":28493:28524  userInfo[msg.sender].amount.add */\n      tag_138\n        /* \"Users/leilei/Downloads/MasterChefV2/contracts/pointCenterIfo.sol\":28493:28533  userInfo[msg.sender].amount.add(_amount) */\n      jump\t// in\n    tag_137:\n        /* \"Users/leilei/Downloads/MasterChefV2/contracts/pointCenterIfo.sol\":28472:28482  msg.sender */\n      caller\n        /* \"Users/leilei/Downloads/MasterChefV2/contracts/pointCenterIfo.sol\":28463:28483  userInfo[msg.sender] */\n      0x00\n      swap1\n      dup2\n      mstore\n        /* \"Users/leilei/Downloads/MasterChefV2/contracts/pointCenterIfo.sol\":28463:28471  userInfo */\n      0x09\n        /* \"Users/leilei/Downloads/MasterChefV2/contracts/pointCenterIfo.sol\":28463:28483  userInfo[msg.sender] */\n      0x20\n      mstore\n      0x40\n      swap1\n      keccak256\n        /* \"Users/leilei/Downloads/MasterChefV2/contracts/pointCenterIfo.sol\":28463:28533  userInfo[msg.sender].amount = userInfo[msg.sender].amount.add(_amount) */\n      sstore\n        /* \"Users/leilei/Downloads/MasterChefV2/contracts/pointCenterIfo.sol\":28557:28568  totalAmount */\n      sload(0x08)\n        /* \"Users/leilei/Downloads/MasterChefV2/contracts/pointCenterIfo.sol\":28557:28581  totalAmount.add(_amount) */\n      tag_139\n      swap1\n        /* \"Users/leilei/Downloads/MasterChefV2/contracts/pointCenterIfo.sol\":28573:28580  _amount */\n      dup3\n        /* \"Users/leilei/Downloads/MasterChefV2/contracts/pointCenterIfo.sol\":28557:28572  totalAmount.add */\n      tag_138\n        /* \"Users/leilei/Downloads/MasterChefV2/contracts/pointCenterIfo.sol\":28557:28581  totalAmount.add(_amount) */\n      jump\t// in\n    tag_139:\n        /* \"Users/leilei/Downloads/MasterChefV2/contracts/pointCenterIfo.sol\":28543:28554  totalAmount */\n      0x08\n        /* \"Users/leilei/Downloads/MasterChefV2/contracts/pointCenterIfo.sol\":28543:28581  totalAmount = totalAmount.add(_amount) */\n      sstore\n        /* \"Users/leilei/Downloads/MasterChefV2/contracts/pointCenterIfo.sol\":28596:28624  Deposit(msg.sender, _amount) */\n      0x40\n      dup1\n      mload\n      dup3\n      dup2\n      mstore\n      swap1\n      mload\n        /* \"Users/leilei/Downloads/MasterChefV2/contracts/pointCenterIfo.sol\":28604:28614  msg.sender */\n      caller\n      swap2\n        /* \"Users/leilei/Downloads/MasterChefV2/contracts/pointCenterIfo.sol\":28596:28624  Deposit(msg.sender, _amount) */\n      0xe1fffcc4923d04b559f4d29a8bfc6cda04eb5b0d3c460751c2402c5c5cc9109c\n      swap2\n      swap1\n      dup2\n      swap1\n      sub\n      0x20\n      add\n      swap1\n      log2\n        /* \"Users/leilei/Downloads/MasterChefV2/contracts/pointCenterIfo.sol\":28053:28631  function deposit(uint256 _amount) public {... */\n      pop\n      jump\t// out\n        /* \"Users/leilei/Downloads/MasterChefV2/contracts/pointCenterIfo.sol\":26336:26363  IBEP20 public offeringToken */\n    tag_63:\n      and(sub(shl(0xa0, 0x01), 0x01), sload(0x03))\n      dup2\n      jump\t// out\n        /* \"Users/leilei/Downloads/MasterChefV2/contracts/pointCenterIfo.sol\":26876:26904  address[] public addressList */\n    tag_66:\n      0x0a\n      dup2\n      dup2\n      sload\n      dup2\n      lt\n      tag_140\n      jumpi\n      invalid\n    tag_140:\n      0x00\n      swap2\n      dup3\n      mstore\n      0x20\n      swap1\n      swap2\n      keccak256\n      add\n      sload\n      sub(shl(0xa0, 0x01), 0x01)\n      and\n      swap1\n      pop\n      dup2\n      jump\t// out\n        /* \"Users/leilei/Downloads/MasterChefV2/contracts/pointCenterIfo.sol\":29572:29726  function getUserAllocation(address _user) public view returns (uint256) {... */\n    tag_69:\n        /* \"Users/leilei/Downloads/MasterChefV2/contracts/pointCenterIfo.sol\":29698:29709  totalAmount */\n      sload(0x08)\n      sub(shl(0xa0, 0x01), 0x01)\n        /* \"Users/leilei/Downloads/MasterChefV2/contracts/pointCenterIfo.sol\":29661:29676  userInfo[_user] */\n      dup3\n      and\n        /* \"Users/leilei/Downloads/MasterChefV2/contracts/pointCenterIfo.sol\":29635:29642  uint256 */\n      0x00\n        /* \"Users/leilei/Downloads/MasterChefV2/contracts/pointCenterIfo.sol\":29661:29676  userInfo[_user] */\n      swap1\n      dup2\n      mstore\n        /* \"Users/leilei/Downloads/MasterChefV2/contracts/pointCenterIfo.sol\":29661:29669  userInfo */\n      0x09\n        /* \"Users/leilei/Downloads/MasterChefV2/contracts/pointCenterIfo.sol\":29661:29676  userInfo[_user] */\n      0x20\n      mstore\n      0x40\n      dup2\n      keccak256\n        /* \"Users/leilei/Downloads/MasterChefV2/contracts/pointCenterIfo.sol\":29661:29683  userInfo[_user].amount */\n      sload\n        /* \"Users/leilei/Downloads/MasterChefV2/contracts/pointCenterIfo.sol\":29635:29642  uint256 */\n      swap1\n      swap2\n        /* \"Users/leilei/Downloads/MasterChefV2/contracts/pointCenterIfo.sol\":29661:29719  userInfo[_user].amount.mul(1e12).div(totalAmount).div(1e6) */\n      tag_143\n      swap2\n        /* \"Users/leilei/Downloads/MasterChefV2/contracts/pointCenterIfo.sol\":29715:29718  1e6 */\n      0x0f4240\n      swap2\n        /* \"Users/leilei/Downloads/MasterChefV2/contracts/pointCenterIfo.sol\":29661:29710  userInfo[_user].amount.mul(1e12).div(totalAmount) */\n      tag_84\n      swap2\n      dup3\n      swap1\n        /* \"Users/leilei/Downloads/MasterChefV2/contracts/pointCenterIfo.sol\":29688:29692  1e12 */\n      0xe8d4a51000\n        /* \"Users/leilei/Downloads/MasterChefV2/contracts/pointCenterIfo.sol\":29661:29687  userInfo[_user].amount.mul */\n      tag_85\n        /* \"Users/leilei/Downloads/MasterChefV2/contracts/pointCenterIfo.sol\":29661:29693  userInfo[_user].amount.mul(1e12) */\n      jump\t// in\n        /* \"Users/leilei/Downloads/MasterChefV2/contracts/pointCenterIfo.sol\":29661:29719  userInfo[_user].amount.mul(1e12).div(totalAmount).div(1e6) */\n    tag_143:\n        /* \"Users/leilei/Downloads/MasterChefV2/contracts/pointCenterIfo.sol\":29654:29719  return userInfo[_user].amount.mul(1e12).div(totalAmount).div(1e6) */\n      swap3\n        /* \"Users/leilei/Downloads/MasterChefV2/contracts/pointCenterIfo.sol\":29572:29726  function getUserAllocation(address _user) public view returns (uint256) {... */\n      swap2\n      pop\n      pop\n      jump\t// out\n        /* \"Users/leilei/Downloads/MasterChefV2/contracts/pointCenterIfo.sol\":26650:26679  uint256 public offeringAmount */\n    tag_71:\n      sload(0x07)\n      dup2\n      jump\t// out\n        /* \"Users/leilei/Downloads/MasterChefV2/contracts/pointCenterIfo.sol\":30612:30718  function getAddressListLength() external view returns (uint256) {... */\n    tag_73:\n        /* \"Users/leilei/Downloads/MasterChefV2/contracts/pointCenterIfo.sol\":30693:30704  addressList */\n      0x0a\n        /* \"Users/leilei/Downloads/MasterChefV2/contracts/pointCenterIfo.sol\":30693:30711  addressList.length */\n      sload\n        /* \"Users/leilei/Downloads/MasterChefV2/contracts/pointCenterIfo.sol\":30612:30718  function getAddressListLength() external view returns (uint256) {... */\n      swap1\n      jump\t// out\n        /* \"Users/leilei/Downloads/MasterChefV2/contracts/pointCenterIfo.sol\":26225:26252  address public adminAddress */\n    tag_75:\n      and(sub(shl(0xa0, 0x01), 0x01), sload(0x01))\n      dup2\n      jump\t// out\n        /* \"Users/leilei/Downloads/MasterChefV2/contracts/pointCenterIfo.sol\":5594:6053  function mul(uint256 a, uint256 b) internal pure returns (uint256) {... */\n    tag_85:\n        /* \"Users/leilei/Downloads/MasterChefV2/contracts/pointCenterIfo.sol\":5652:5659  uint256 */\n      0x00\n        /* \"Users/leilei/Downloads/MasterChefV2/contracts/pointCenterIfo.sol\":5893:5899  a == 0 */\n      dup3\n        /* \"Users/leilei/Downloads/MasterChefV2/contracts/pointCenterIfo.sol\":5889:5934  if (a == 0) {... */\n      tag_148\n      jumpi\n      pop\n        /* \"Users/leilei/Downloads/MasterChefV2/contracts/pointCenterIfo.sol\":5922:5923  0 */\n      0x00\n        /* \"Users/leilei/Downloads/MasterChefV2/contracts/pointCenterIfo.sol\":5915:5923  return 0 */\n      jump(tag_143)\n        /* \"Users/leilei/Downloads/MasterChefV2/contracts/pointCenterIfo.sol\":5889:5934  if (a == 0) {... */\n    tag_148:\n        /* \"Users/leilei/Downloads/MasterChefV2/contracts/pointCenterIfo.sol\":5956:5961  a * b */\n      dup3\n      dup3\n      mul\n        /* \"Users/leilei/Downloads/MasterChefV2/contracts/pointCenterIfo.sol\":5960:5961  b */\n      dup3\n        /* \"Users/leilei/Downloads/MasterChefV2/contracts/pointCenterIfo.sol\":5956:5957  a */\n      dup5\n        /* \"Users/leilei/Downloads/MasterChefV2/contracts/pointCenterIfo.sol\":5956:5961  a * b */\n      dup3\n        /* \"Users/leilei/Downloads/MasterChefV2/contracts/pointCenterIfo.sol\":5956:5957  a */\n      dup2\n        /* \"Users/leilei/Downloads/MasterChefV2/contracts/pointCenterIfo.sol\":5979:5984  c / a */\n      tag_149\n      jumpi\n      invalid\n    tag_149:\n      div\n        /* \"Users/leilei/Downloads/MasterChefV2/contracts/pointCenterIfo.sol\":5979:5989  c / a == b */\n      eq\n        /* \"Users/leilei/Downloads/MasterChefV2/contracts/pointCenterIfo.sol\":5971:6027  require(c / a == b, \"SafeMath: multiplication overflow\") */\n      tag_150\n      jumpi\n      mload(0x40)\n      shl(0xe5, 0x461bcd)\n      dup2\n      mstore\n      0x04\n      add\n      dup1\n      dup1\n      0x20\n      add\n      dup3\n      dup2\n      sub\n      dup3\n      mstore\n      0x21\n      dup2\n      mstore\n      0x20\n      add\n      dup1\n      data_9113bb53c2876a3805b2c9242029423fc540a728243ce887ab24c82cf119fba3\n      0x21\n      swap2\n      codecopy\n      0x40\n      add\n      swap2\n      pop\n      pop\n      mload(0x40)\n      dup1\n      swap2\n      sub\n      swap1\n      revert\n    tag_150:\n        /* \"Users/leilei/Downloads/MasterChefV2/contracts/pointCenterIfo.sol\":6045:6046  c */\n      swap4\n        /* \"Users/leilei/Downloads/MasterChefV2/contracts/pointCenterIfo.sol\":5594:6053  function mul(uint256 a, uint256 b) internal pure returns (uint256) {... */\n      swap3\n      pop\n      pop\n      pop\n      jump\t// out\n        /* \"Users/leilei/Downloads/MasterChefV2/contracts/pointCenterIfo.sol\":6515:6645  function div(uint256 a, uint256 b) internal pure returns (uint256) {... */\n    tag_86:\n        /* \"Users/leilei/Downloads/MasterChefV2/contracts/pointCenterIfo.sol\":6573:6580  uint256 */\n      0x00\n        /* \"Users/leilei/Downloads/MasterChefV2/contracts/pointCenterIfo.sol\":6599:6638  div(a, b, \"SafeMath: division by zero\") */\n      tag_150\n        /* \"Users/leilei/Downloads/MasterChefV2/contracts/pointCenterIfo.sol\":6603:6604  a */\n      dup4\n        /* \"Users/leilei/Downloads/MasterChefV2/contracts/pointCenterIfo.sol\":6606:6607  b */\n      dup4\n        /* \"Users/leilei/Downloads/MasterChefV2/contracts/pointCenterIfo.sol\":6599:6638  div(a, b, \"SafeMath: division by zero\") */\n      mload(0x40)\n      dup1\n      0x40\n      add\n      0x40\n      mstore\n      dup1\n      0x1a\n      dup2\n      mstore\n      0x20\n      add\n      0x536166654d6174683a206469766973696f6e206279207a65726f000000000000\n      dup2\n      mstore\n      pop\n        /* \"Users/leilei/Downloads/MasterChefV2/contracts/pointCenterIfo.sol\":6599:6602  div */\n      tag_153\n        /* \"Users/leilei/Downloads/MasterChefV2/contracts/pointCenterIfo.sol\":6599:6638  div(a, b, \"SafeMath: division by zero\") */\n      jump\t// in\n        /* \"Users/leilei/Downloads/MasterChefV2/contracts/pointCenterIfo.sol\":4705:4839  function sub(uint256 a, uint256 b) internal pure returns (uint256) {... */\n    tag_88:\n        /* \"Users/leilei/Downloads/MasterChefV2/contracts/pointCenterIfo.sol\":4763:4770  uint256 */\n      0x00\n        /* \"Users/leilei/Downloads/MasterChefV2/contracts/pointCenterIfo.sol\":4789:4832  sub(a, b, \"SafeMath: subtraction overflow\") */\n      tag_150\n        /* \"Users/leilei/Downloads/MasterChefV2/contracts/pointCenterIfo.sol\":4793:4794  a */\n      dup4\n        /* \"Users/leilei/Downloads/MasterChefV2/contracts/pointCenterIfo.sol\":4796:4797  b */\n      dup4\n        /* \"Users/leilei/Downloads/MasterChefV2/contracts/pointCenterIfo.sol\":4789:4832  sub(a, b, \"SafeMath: subtraction overflow\") */\n      mload(0x40)\n      dup1\n      0x40\n      add\n      0x40\n      mstore\n      dup1\n      0x1e\n      dup2\n      mstore\n      0x20\n      add\n      0x536166654d6174683a207375627472616374696f6e206f766572666c6f770000\n      dup2\n      mstore\n      pop\n        /* \"Users/leilei/Downloads/MasterChefV2/contracts/pointCenterIfo.sol\":4789:4792  sub */\n      tag_156\n        /* \"Users/leilei/Downloads/MasterChefV2/contracts/pointCenterIfo.sol\":4789:4832  sub(a, b, \"SafeMath: subtraction overflow\") */\n      jump\t// in\n        /* \"Users/leilei/Downloads/MasterChefV2/contracts/pointCenterIfo.sol\":19575:19814  function safeTransfer(... */\n    tag_102:\n        /* \"Users/leilei/Downloads/MasterChefV2/contracts/pointCenterIfo.sol\":19739:19797  abi.encodeWithSelector(token.transfer.selector, to, value) */\n      0x40\n      dup1\n      mload\n      sub(shl(0xa0, 0x01), 0x01)\n      dup5\n      and\n      0x24\n      dup3\n      add\n      mstore\n      0x44\n      dup1\n      dup3\n      add\n      dup5\n      swap1\n      mstore\n      dup3\n      mload\n      dup1\n      dup4\n      sub\n      swap1\n      swap2\n      add\n      dup2\n      mstore\n      0x64\n      swap1\n      swap2\n      add\n      swap1\n      swap2\n      mstore\n      0x20\n      dup2\n      add\n      dup1\n      mload\n      sub(shl(0xe0, 0x01), 0x01)\n      and\n      shl(0xe0, 0xa9059cbb)\n      or\n      swap1\n      mstore\n        /* \"Users/leilei/Downloads/MasterChefV2/contracts/pointCenterIfo.sol\":19687:19807  _callOptionalReturn(... */\n      tag_158\n      swap1\n        /* \"Users/leilei/Downloads/MasterChefV2/contracts/pointCenterIfo.sol\":19720:19725  token */\n      dup5\n      swap1\n        /* \"Users/leilei/Downloads/MasterChefV2/contracts/pointCenterIfo.sol\":19687:19706  _callOptionalReturn */\n      tag_159\n        /* \"Users/leilei/Downloads/MasterChefV2/contracts/pointCenterIfo.sol\":19687:19807  _callOptionalReturn(... */\n      jump\t// in\n    tag_158:\n        /* \"Users/leilei/Downloads/MasterChefV2/contracts/pointCenterIfo.sol\":19575:19814  function safeTransfer(... */\n      pop\n      pop\n      pop\n      jump\t// out\n        /* \"Users/leilei/Downloads/MasterChefV2/contracts/pointCenterIfo.sol\":19820:20095  function safeTransferFrom(... */\n    tag_134:\n        /* \"Users/leilei/Downloads/MasterChefV2/contracts/pointCenterIfo.sol\":20010:20078  abi.encodeWithSelector(token.transferFrom.selector, from, to, value) */\n      0x40\n      dup1\n      mload\n      sub(shl(0xa0, 0x01), 0x01)\n      dup1\n      dup7\n      and\n      0x24\n      dup4\n      add\n      mstore\n      dup5\n      and\n      0x44\n      dup3\n      add\n      mstore\n      0x64\n      dup1\n      dup3\n      add\n      dup5\n      swap1\n      mstore\n      dup3\n      mload\n      dup1\n      dup4\n      sub\n      swap1\n      swap2\n      add\n      dup2\n      mstore\n      0x84\n      swap1\n      swap2\n      add\n      swap1\n      swap2\n      mstore\n      0x20\n      dup2\n      add\n      dup1\n      mload\n      sub(shl(0xe0, 0x01), 0x01)\n      and\n      shl(0xe0, 0x23b872dd)\n      or\n      swap1\n      mstore\n        /* \"Users/leilei/Downloads/MasterChefV2/contracts/pointCenterIfo.sol\":19958:20088  _callOptionalReturn(... */\n      tag_161\n      swap1\n        /* \"Users/leilei/Downloads/MasterChefV2/contracts/pointCenterIfo.sol\":19991:19996  token */\n      dup6\n      swap1\n        /* \"Users/leilei/Downloads/MasterChefV2/contracts/pointCenterIfo.sol\":19958:19977  _callOptionalReturn */\n      tag_159\n        /* \"Users/leilei/Downloads/MasterChefV2/contracts/pointCenterIfo.sol\":19958:20088  _callOptionalReturn(... */\n      jump\t// in\n    tag_161:\n        /* \"Users/leilei/Downloads/MasterChefV2/contracts/pointCenterIfo.sol\":19820:20095  function safeTransferFrom(... */\n      pop\n      pop\n      pop\n      pop\n      jump\t// out\n        /* \"Users/leilei/Downloads/MasterChefV2/contracts/pointCenterIfo.sol\":4258:4434  function add(uint256 a, uint256 b) internal pure returns (uint256) {... */\n    tag_138:\n        /* \"Users/leilei/Downloads/MasterChefV2/contracts/pointCenterIfo.sol\":4316:4323  uint256 */\n      0x00\n        /* \"Users/leilei/Downloads/MasterChefV2/contracts/pointCenterIfo.sol\":4347:4352  a + b */\n      dup3\n      dup3\n      add\n        /* \"Users/leilei/Downloads/MasterChefV2/contracts/pointCenterIfo.sol\":4370:4376  c >= a */\n      dup4\n      dup2\n      lt\n      iszero\n        /* \"Users/leilei/Downloads/MasterChefV2/contracts/pointCenterIfo.sol\":4362:4408  require(c >= a, \"SafeMath: addition overflow\") */\n      tag_150\n      jumpi\n      0x40\n      dup1\n      mload\n      shl(0xe5, 0x461bcd)\n      dup2\n      mstore\n      0x20\n      0x04\n      dup3\n      add\n      mstore\n      0x1b\n      0x24\n      dup3\n      add\n      mstore\n      0x536166654d6174683a206164646974696f6e206f766572666c6f770000000000\n      0x44\n      dup3\n      add\n      mstore\n      swap1\n      mload\n      swap1\n      dup2\n      swap1\n      sub\n      0x64\n      add\n      swap1\n      revert\n        /* \"Users/leilei/Downloads/MasterChefV2/contracts/pointCenterIfo.sol\":7127:7429  function div(... */\n    tag_153:\n        /* \"Users/leilei/Downloads/MasterChefV2/contracts/pointCenterIfo.sol\":7243:7250  uint256 */\n      0x00\n        /* \"Users/leilei/Downloads/MasterChefV2/contracts/pointCenterIfo.sol\":7277:7289  errorMessage */\n      dup2\n        /* \"Users/leilei/Downloads/MasterChefV2/contracts/pointCenterIfo.sol\":7270:7275  b > 0 */\n      dup4\n        /* \"Users/leilei/Downloads/MasterChefV2/contracts/pointCenterIfo.sol\":7262:7290  require(b > 0, errorMessage) */\n      tag_165\n      jumpi\n      mload(0x40)\n      shl(0xe5, 0x461bcd)\n      dup2\n      mstore\n      0x04\n      add\n      dup1\n      dup1\n      0x20\n      add\n      dup3\n      dup2\n      sub\n      dup3\n      mstore\n      dup4\n      dup2\n      dup2\n      mload\n      dup2\n      mstore\n      0x20\n      add\n      swap2\n      pop\n      dup1\n      mload\n      swap1\n      0x20\n      add\n      swap1\n      dup1\n      dup4\n      dup4\n      0x00\n    tag_166:\n      dup4\n      dup2\n      lt\n      iszero\n      tag_168\n      jumpi\n      dup2\n      dup2\n      add\n      mload\n      dup4\n      dup3\n      add\n      mstore\n      0x20\n      add\n      jump(tag_166)\n    tag_168:\n      pop\n      pop\n      pop\n      pop\n      swap1\n      pop\n      swap1\n      dup2\n      add\n      swap1\n      0x1f\n      and\n      dup1\n      iszero\n      tag_169\n      jumpi\n      dup1\n      dup3\n      sub\n      dup1\n      mload\n      0x01\n      dup4\n      0x20\n      sub\n      0x0100\n      exp\n      sub\n      not\n      and\n      dup2\n      mstore\n      0x20\n      add\n      swap2\n      pop\n    tag_169:\n      pop\n      swap3\n      pop\n      pop\n      pop\n      mload(0x40)\n      dup1\n      swap2\n      sub\n      swap1\n      revert\n    tag_165:\n      pop\n        /* \"Users/leilei/Downloads/MasterChefV2/contracts/pointCenterIfo.sol\":7300:7309  uint256 c */\n      0x00\n        /* \"Users/leilei/Downloads/MasterChefV2/contracts/pointCenterIfo.sol\":7316:7317  b */\n      dup4\n        /* \"Users/leilei/Downloads/MasterChefV2/contracts/pointCenterIfo.sol\":7312:7313  a */\n      dup6\n        /* \"Users/leilei/Downloads/MasterChefV2/contracts/pointCenterIfo.sol\":7312:7317  a / b */\n      dup2\n      tag_170\n      jumpi\n      invalid\n    tag_170:\n      div\n      swap6\n        /* \"Users/leilei/Downloads/MasterChefV2/contracts/pointCenterIfo.sol\":7127:7429  function div(... */\n      swap5\n      pop\n      pop\n      pop\n      pop\n      pop\n      jump\t// out\n        /* \"Users/leilei/Downloads/MasterChefV2/contracts/pointCenterIfo.sol\":5130:5347  function sub(... */\n    tag_156:\n        /* \"Users/leilei/Downloads/MasterChefV2/contracts/pointCenterIfo.sol\":5246:5253  uint256 */\n      0x00\n        /* \"Users/leilei/Downloads/MasterChefV2/contracts/pointCenterIfo.sol\":5281:5293  errorMessage */\n      dup2\n        /* \"Users/leilei/Downloads/MasterChefV2/contracts/pointCenterIfo.sol\":5273:5279  b <= a */\n      dup5\n      dup5\n      gt\n      iszero\n        /* \"Users/leilei/Downloads/MasterChefV2/contracts/pointCenterIfo.sol\":5265:5294  require(b <= a, errorMessage) */\n      tag_172\n      jumpi\n      mload(0x40)\n      shl(0xe5, 0x461bcd)\n      dup2\n      mstore\n      0x20\n      0x04\n      dup3\n      add\n      dup2\n      dup2\n      mstore\n      dup4\n      mload\n      0x24\n      dup5\n      add\n      mstore\n      dup4\n      mload\n      swap1\n      swap3\n      dup4\n      swap3\n      0x44\n      swap1\n      swap2\n      add\n      swap2\n      swap1\n      dup6\n      add\n      swap1\n      dup1\n      dup4\n      dup4\n      0x00\n      dup4\n      iszero\n      tag_168\n      jumpi\n      dup2\n      dup2\n      add\n      mload\n      dup4\n      dup3\n      add\n      mstore\n      0x20\n      add\n      jump(tag_166)\n    tag_172:\n      pop\n      pop\n      pop\n        /* \"Users/leilei/Downloads/MasterChefV2/contracts/pointCenterIfo.sol\":5316:5321  a - b */\n      swap1\n      sub\n      swap1\n        /* \"Users/leilei/Downloads/MasterChefV2/contracts/pointCenterIfo.sol\":5130:5347  function sub(... */\n      jump\t// out\n        /* \"Users/leilei/Downloads/MasterChefV2/contracts/pointCenterIfo.sol\":22373:23240  function _callOptionalReturn(IBEP20 token, bytes memory data) private {... */\n    tag_159:\n        /* \"Users/leilei/Downloads/MasterChefV2/contracts/pointCenterIfo.sol\":22792:22815  bytes memory returndata */\n      0x60\n        /* \"Users/leilei/Downloads/MasterChefV2/contracts/pointCenterIfo.sol\":22830:22945  address(token).functionCall(... */\n      tag_178\n        /* \"Users/leilei/Downloads/MasterChefV2/contracts/pointCenterIfo.sol\":22875:22879  data */\n      dup3\n        /* \"Users/leilei/Downloads/MasterChefV2/contracts/pointCenterIfo.sol\":22830:22945  address(token).functionCall(... */\n      mload(0x40)\n      dup1\n      0x40\n      add\n      0x40\n      mstore\n      dup1\n      0x20\n      dup2\n      mstore\n      0x20\n      add\n      0x5361666542455032303a206c6f772d6c6576656c2063616c6c206661696c6564\n      dup2\n      mstore\n      pop\n        /* \"Users/leilei/Downloads/MasterChefV2/contracts/pointCenterIfo.sol\":22838:22843  token */\n      dup6\n      sub(shl(0xa0, 0x01), 0x01)\n        /* \"Users/leilei/Downloads/MasterChefV2/contracts/pointCenterIfo.sol\":22830:22857  address(token).functionCall */\n      and\n      tag_179\n      swap1\n        /* \"Users/leilei/Downloads/MasterChefV2/contracts/pointCenterIfo.sol\":22830:22945  address(token).functionCall(... */\n      swap3\n      swap2\n      swap1\n      0xffffffff\n      and\n      jump\t// in\n    tag_178:\n        /* \"Users/leilei/Downloads/MasterChefV2/contracts/pointCenterIfo.sol\":22959:22976  returndata.length */\n      dup1\n      mload\n        /* \"Users/leilei/Downloads/MasterChefV2/contracts/pointCenterIfo.sol\":22792:22945  bytes memory returndata =... */\n      swap1\n      swap2\n      pop\n        /* \"Users/leilei/Downloads/MasterChefV2/contracts/pointCenterIfo.sol\":22959:22980  returndata.length > 0 */\n      iszero\n        /* \"Users/leilei/Downloads/MasterChefV2/contracts/pointCenterIfo.sol\":22955:23234  if (returndata.length > 0) {... */\n      tag_158\n      jumpi\n        /* \"Users/leilei/Downloads/MasterChefV2/contracts/pointCenterIfo.sol\":23128:23138  returndata */\n      dup1\n        /* \"Users/leilei/Downloads/MasterChefV2/contracts/pointCenterIfo.sol\":23117:23147  abi.decode(returndata, (bool)) */\n      dup1\n      0x20\n      add\n      swap1\n      mload\n      0x20\n      dup2\n      lt\n      iszero\n      tag_181\n      jumpi\n      0x00\n      dup1\n      revert\n    tag_181:\n      pop\n      mload\n        /* \"Users/leilei/Downloads/MasterChefV2/contracts/pointCenterIfo.sol\":23092:23223  require(... */\n      tag_158\n      jumpi\n      mload(0x40)\n      shl(0xe5, 0x461bcd)\n      dup2\n      mstore\n      0x04\n      add\n      dup1\n      dup1\n      0x20\n      add\n      dup3\n      dup2\n      sub\n      dup3\n      mstore\n      0x2a\n      dup2\n      mstore\n      0x20\n      add\n      dup1\n      data_21c3364d55537bf20eb8f05374e9f53f47299e1883c412f1f1135f398f2c2082\n      0x2a\n      swap2\n      codecopy\n      0x40\n      add\n      swap2\n      pop\n      pop\n      mload(0x40)\n      dup1\n      swap2\n      sub\n      swap1\n      revert\n        /* \"Users/leilei/Downloads/MasterChefV2/contracts/pointCenterIfo.sol\":16349:16573  function functionCall(... */\n    tag_179:\n        /* \"Users/leilei/Downloads/MasterChefV2/contracts/pointCenterIfo.sol\":16482:16494  bytes memory */\n      0x60\n        /* \"Users/leilei/Downloads/MasterChefV2/contracts/pointCenterIfo.sol\":16513:16566  _functionCallWithValue(target, data, 0, errorMessage) */\n      tag_184\n        /* \"Users/leilei/Downloads/MasterChefV2/contracts/pointCenterIfo.sol\":16536:16542  target */\n      dup5\n        /* \"Users/leilei/Downloads/MasterChefV2/contracts/pointCenterIfo.sol\":16544:16548  data */\n      dup5\n        /* \"Users/leilei/Downloads/MasterChefV2/contracts/pointCenterIfo.sol\":16550:16551  0 */\n      0x00\n        /* \"Users/leilei/Downloads/MasterChefV2/contracts/pointCenterIfo.sol\":16553:16565  errorMessage */\n      dup6\n        /* \"Users/leilei/Downloads/MasterChefV2/contracts/pointCenterIfo.sol\":16513:16535  _functionCallWithValue */\n      tag_185\n        /* \"Users/leilei/Downloads/MasterChefV2/contracts/pointCenterIfo.sol\":16513:16566  _functionCallWithValue(target, data, 0, errorMessage) */\n      jump\t// in\n    tag_184:\n        /* \"Users/leilei/Downloads/MasterChefV2/contracts/pointCenterIfo.sol\":16506:16566  return _functionCallWithValue(target, data, 0, errorMessage) */\n      swap5\n        /* \"Users/leilei/Downloads/MasterChefV2/contracts/pointCenterIfo.sol\":16349:16573  function functionCall(... */\n      swap4\n      pop\n      pop\n      pop\n      pop\n      jump\t// out\n        /* \"Users/leilei/Downloads/MasterChefV2/contracts/pointCenterIfo.sol\":17918:18924  function _functionCallWithValue(... */\n    tag_185:\n        /* \"Users/leilei/Downloads/MasterChefV2/contracts/pointCenterIfo.sol\":18086:18098  bytes memory */\n      0x60\n        /* \"Users/leilei/Downloads/MasterChefV2/contracts/pointCenterIfo.sol\":18118:18136  isContract(target) */\n      tag_187\n        /* \"Users/leilei/Downloads/MasterChefV2/contracts/pointCenterIfo.sol\":18129:18135  target */\n      dup6\n        /* \"Users/leilei/Downloads/MasterChefV2/contracts/pointCenterIfo.sol\":18118:18128  isContract */\n      tag_188\n        /* \"Users/leilei/Downloads/MasterChefV2/contracts/pointCenterIfo.sol\":18118:18136  isContract(target) */\n      jump\t// in\n    tag_187:\n        /* \"Users/leilei/Downloads/MasterChefV2/contracts/pointCenterIfo.sol\":18110:18170  require(isContract(target), \"Address: call to non-contract\") */\n      tag_189\n      jumpi\n      0x40\n      dup1\n      mload\n      shl(0xe5, 0x461bcd)\n      dup2\n      mstore\n      0x20\n      0x04\n      dup3\n      add\n      mstore\n      0x1d\n      0x24\n      dup3\n      add\n      mstore\n      0x416464726573733a2063616c6c20746f206e6f6e2d636f6e7472616374000000\n      0x44\n      dup3\n      add\n      mstore\n      swap1\n      mload\n      swap1\n      dup2\n      swap1\n      sub\n      0x64\n      add\n      swap1\n      revert\n    tag_189:\n        /* \"Users/leilei/Downloads/MasterChefV2/contracts/pointCenterIfo.sol\":18241:18253  bool success */\n      0x00\n        /* \"Users/leilei/Downloads/MasterChefV2/contracts/pointCenterIfo.sol\":18255:18278  bytes memory returndata */\n      0x60\n        /* \"Users/leilei/Downloads/MasterChefV2/contracts/pointCenterIfo.sol\":18294:18300  target */\n      dup7\n      sub(shl(0xa0, 0x01), 0x01)\n        /* \"Users/leilei/Downloads/MasterChefV2/contracts/pointCenterIfo.sol\":18294:18305  target.call */\n      and\n        /* \"Users/leilei/Downloads/MasterChefV2/contracts/pointCenterIfo.sol\":18313:18321  weiValue */\n      dup6\n        /* \"Users/leilei/Downloads/MasterChefV2/contracts/pointCenterIfo.sol\":18323:18327  data */\n      dup8\n        /* \"Users/leilei/Downloads/MasterChefV2/contracts/pointCenterIfo.sol\":18294:18328  target.call{value: weiValue}(data) */\n      mload(0x40)\n      dup1\n      dup3\n      dup1\n      mload\n      swap1\n      0x20\n      add\n      swap1\n      dup1\n      dup4\n      dup4\n    tag_190:\n      0x20\n      dup4\n      lt\n      tag_192\n      jumpi\n      dup1\n      mload\n      dup3\n      mstore\n      not(0x1f)\n      swap1\n      swap3\n      add\n      swap2\n      0x20\n      swap2\n      dup3\n      add\n      swap2\n      add\n      jump(tag_190)\n    tag_192:\n      0x01\n      dup4\n      0x20\n      sub\n      0x0100\n      exp\n      sub\n      dup1\n      not\n      dup3\n      mload\n      and\n      dup2\n      dup5\n      mload\n      and\n      dup1\n      dup3\n      or\n      dup6\n      mstore\n      pop\n      pop\n      pop\n      pop\n      pop\n      pop\n      swap1\n      pop\n      add\n      swap2\n      pop\n      pop\n      0x00\n      mload(0x40)\n      dup1\n      dup4\n      sub\n      dup2\n      dup6\n      dup8\n      gas\n      call\n      swap3\n      pop\n      pop\n      pop\n      returndatasize\n      dup1\n      0x00\n      dup2\n      eq\n      tag_195\n      jumpi\n      mload(0x40)\n      swap2\n      pop\n      and(add(returndatasize, 0x3f), not(0x1f))\n      dup3\n      add\n      0x40\n      mstore\n      returndatasize\n      dup3\n      mstore\n      returndatasize\n      0x00\n      0x20\n      dup5\n      add\n      returndatacopy\n      jump(tag_194)\n    tag_195:\n      0x60\n      swap2\n      pop\n    tag_194:\n      pop\n        /* \"Users/leilei/Downloads/MasterChefV2/contracts/pointCenterIfo.sol\":18240:18328  (bool success, bytes memory returndata) =... */\n      swap2\n      pop\n      swap2\n      pop\n        /* \"Users/leilei/Downloads/MasterChefV2/contracts/pointCenterIfo.sol\":18342:18349  success */\n      dup2\n        /* \"Users/leilei/Downloads/MasterChefV2/contracts/pointCenterIfo.sol\":18338:18918  if (success) {... */\n      iszero\n      tag_196\n      jumpi\n        /* \"Users/leilei/Downloads/MasterChefV2/contracts/pointCenterIfo.sol\":18372:18382  returndata */\n      swap2\n      pop\n        /* \"Users/leilei/Downloads/MasterChefV2/contracts/pointCenterIfo.sol\":18365:18382  return returndata */\n      tag_184\n      swap1\n      pop\n      jump\n        /* \"Users/leilei/Downloads/MasterChefV2/contracts/pointCenterIfo.sol\":18338:18918  if (success) {... */\n    tag_196:\n        /* \"Users/leilei/Downloads/MasterChefV2/contracts/pointCenterIfo.sol\":18483:18500  returndata.length */\n      dup1\n      mload\n        /* \"Users/leilei/Downloads/MasterChefV2/contracts/pointCenterIfo.sol\":18483:18504  returndata.length > 0 */\n      iszero\n        /* \"Users/leilei/Downloads/MasterChefV2/contracts/pointCenterIfo.sol\":18479:18908  if (returndata.length > 0) {... */\n      tag_198\n      jumpi\n        /* \"Users/leilei/Downloads/MasterChefV2/contracts/pointCenterIfo.sol\":18741:18751  returndata */\n      dup1\n        /* \"Users/leilei/Downloads/MasterChefV2/contracts/pointCenterIfo.sol\":18735:18752  mload(returndata) */\n      mload\n        /* \"Users/leilei/Downloads/MasterChefV2/contracts/pointCenterIfo.sol\":18801:18816  returndata_size */\n      dup1\n        /* \"Users/leilei/Downloads/MasterChefV2/contracts/pointCenterIfo.sol\":18788:18798  returndata */\n      dup3\n        /* \"Users/leilei/Downloads/MasterChefV2/contracts/pointCenterIfo.sol\":18784:18786  32 */\n      0x20\n        /* \"Users/leilei/Downloads/MasterChefV2/contracts/pointCenterIfo.sol\":18780:18799  add(32, returndata) */\n      add\n        /* \"Users/leilei/Downloads/MasterChefV2/contracts/pointCenterIfo.sol\":18773:18817  revert(add(32, returndata), returndata_size) */\n      revert\n        /* \"Users/leilei/Downloads/MasterChefV2/contracts/pointCenterIfo.sol\":18690:18835  {... */\n    tag_198:\n        /* \"Users/leilei/Downloads/MasterChefV2/contracts/pointCenterIfo.sol\":18873:18893  revert(errorMessage) */\n      mload(0x40)\n      shl(0xe5, 0x461bcd)\n      dup2\n      mstore\n      0x20\n      0x04\n      dup3\n      add\n      dup2\n      dup2\n      mstore\n      dup7\n      mload\n      0x24\n      dup5\n      add\n      mstore\n      dup7\n      mload\n        /* \"Users/leilei/Downloads/MasterChefV2/contracts/pointCenterIfo.sol\":18880:18892  errorMessage */\n      dup8\n      swap4\n        /* \"Users/leilei/Downloads/MasterChefV2/contracts/pointCenterIfo.sol\":18873:18893  revert(errorMessage) */\n      swap2\n      swap3\n      dup4\n      swap3\n      0x44\n      add\n      swap2\n      swap1\n      dup6\n      add\n      swap1\n      dup1\n      dup4\n      dup4\n      0x00\n      dup4\n      iszero\n      tag_168\n      jumpi\n      dup2\n      dup2\n      add\n      mload\n      dup4\n      dup3\n      add\n      mstore\n      0x20\n      add\n      jump(tag_166)\n        /* \"Users/leilei/Downloads/MasterChefV2/contracts/pointCenterIfo.sol\":13177:13819  function isContract(address account) internal view returns (bool) {... */\n    tag_188:\n        /* \"Users/leilei/Downloads/MasterChefV2/contracts/pointCenterIfo.sol\":13237:13241  bool */\n      0x00\n        /* \"Users/leilei/Downloads/MasterChefV2/contracts/pointCenterIfo.sol\":13722:13742  extcodehash(account) */\n      dup2\n      extcodehash\n        /* \"Users/leilei/Downloads/MasterChefV2/contracts/pointCenterIfo.sol\":13555:13621  0xc5d2460186f7233c927e7db2dcc703c0e500b653ca82273b7bfad8045d85a470 */\n      0xc5d2460186f7233c927e7db2dcc703c0e500b653ca82273b7bfad8045d85a470\n        /* \"Users/leilei/Downloads/MasterChefV2/contracts/pointCenterIfo.sol\":13769:13792  codehash != accountHash */\n      dup2\n      dup2\n      eq\n      dup1\n      iszero\n      swap1\n        /* \"Users/leilei/Downloads/MasterChefV2/contracts/pointCenterIfo.sol\":13769:13811  codehash != accountHash && codehash != 0x0 */\n      tag_87\n      jumpi\n      pop\n      pop\n        /* \"Users/leilei/Downloads/MasterChefV2/contracts/pointCenterIfo.sol\":13796:13811  codehash != 0x0 */\n      iszero\n      iszero\n      swap3\n        /* \"Users/leilei/Downloads/MasterChefV2/contracts/pointCenterIfo.sol\":13177:13819  function isContract(address account) internal view returns (bool) {... */\n      swap2\n      pop\n      pop\n      jump\t// out\n    stop\n    data_21c3364d55537bf20eb8f05374e9f53f47299e1883c412f1f1135f398f2c2082 5361666542455032303a204245503230206f7065726174696f6e20646964206e6f742073756363656564\n    data_9113bb53c2876a3805b2c9242029423fc540a728243ce887ab24c82cf119fba3 536166654d6174683a206d756c7469706c69636174696f6e206f766572666c6f77\n\n    auxdata: 0xa26469706673582212200c56ca58fc24041fe7814048bc89d6da758670b1e3442d4ee92385e6ee663eae64736f6c634300060c0033\n}\n",
				"bytecode": {
					"linkReferences": {},
					"object": "608060405234801561001057600080fd5b50604051611257380380611257833981810160405260e081101561003357600080fd5b508051602082015160408301516060840151608085015160a086015160c09096015160016000818155600280546001600160a01b03998a166001600160a01b03199182161790915560038054988a16988216989098179097556004959095556005939093556007919091556006959095556008919091558054929093169116179055611193806100c46000396000f3fe608060405234801561001057600080fd5b506004361061012c5760003560e01c806387e97bc6116100ad578063b810fb4311610071578063b810fb43146102d8578063b920ade2146102f5578063e1af9a951461031b578063fc00358e14610323578063fc6f94681461032b5761012c565b806387e97bc6146102625780639c0a7669146102885780639f1b524814610290578063b6b55f25146102b3578063b7813607146102d05761012c565b80634225c32f116100f45780634225c32f146101d75780634641257d146101f457806348cd4cb1146101fc5780635fcbd2851461020457806364ce9fff146102285761012c565b8063083c6323146101315780631959a0021461014b5780631a39d8ef1461018a57806327d1b1a2146101925780632f5105f8146101b1575b600080fd5b610139610333565b60408051918252519081900360200190f35b6101716004803603602081101561016157600080fd5b50356001600160a01b0316610339565b6040805192835290151560208301528051918290030190f35b610139610355565b6101af600480360360208110156101a857600080fd5b503561035b565b005b610139600480360360208110156101c757600080fd5b50356001600160a01b03166103e8565b6101af600480360360208110156101ed57600080fd5b503561045e565b6101af6104eb565b6101396106fb565b61020c610701565b604080516001600160a01b039092168252519081900360200190f35b61024e6004803603602081101561023e57600080fd5b50356001600160a01b0316610710565b604080519115158252519081900360200190f35b6101396004803603602081101561027857600080fd5b50356001600160a01b0316610731565b6101396107a5565b6101af600480360360408110156102a657600080fd5b50803590602001356107ab565b6101af600480360360208110156102c957600080fd5b50356109a8565b61020c610b24565b61020c600480360360208110156102ee57600080fd5b5035610b33565b6101396004803603602081101561030b57600080fd5b50356001600160a01b0316610b5a565b610139610b98565b610139610b9e565b61020c610ba4565b60055481565b6009602052600090815260409020805460019091015460ff1682565b60085481565b6001546001600160a01b031633146103a8576040805162461bcd60e51b815260206004820152600b60248201526a61646d696e3a207775743f60a81b604482015290519081900360640190fd5b60045443106103e3576040805162461bcd60e51b81526020600482015260026024820152616e6f60f01b604482015290519081900360640190fd5b600755565b6000600654600854116103fd57506000610459565b600061040883610b5a565b9050600061042e620f424061042884600654610bb390919063ffffffff16565b90610c13565b6001600160a01b0385166000908152600960205260409020549091506104549082610c55565b925050505b919050565b6001546001600160a01b031633146104ab576040805162461bcd60e51b815260206004820152600b60248201526a61646d696e3a207775743f60a81b604482015290519081900360640190fd5b60045443106104e6576040805162461bcd60e51b81526020600482015260026024820152616e6f60f01b604482015290519081900360640190fd5b600655565b60026000541415610543576040805162461bcd60e51b815260206004820152601f60248201527f5265656e7472616e637947756172643a207265656e7472616e742063616c6c00604482015290519081900360640190fd5b60026000556005544311610591576040805162461bcd60e51b815260206004820152601060248201526f6e6f7420686172766573742074696d6560801b604482015290519081900360640190fd5b336000908152600960205260409020546105eb576040805162461bcd60e51b81526020600482015260166024820152756861766520796f75207061727469636970617465643f60501b604482015290519081900360640190fd5b3360009081526009602052604090206001015460ff1615610648576040805162461bcd60e51b81526020600482015260126024820152711b9bdd1a1a5b99c81d1bc81a185c9d995cdd60721b604482015290519081900360640190fd5b600061065333610731565b90506000610660336103e8565b60035490915061067a906001600160a01b03163384610c97565b801561069757600254610697906001600160a01b03163383610c97565b336000818152600960209081526040918290206001908101805460ff19169091179055815185815290810184905281517f71bab65ced2e5750775a0613be067df48ef06cf92a496ebf7663ae0660924954929181900390910190a250506001600055565b60045481565b6002546001600160a01b031681565b6001600160a01b031660009081526009602052604090206001015460ff1690565b6000600654600854111561077057600061074a83610b5a565b9050610768620f424061042883600754610bb390919063ffffffff16565b915050610459565b6006546007546001600160a01b03841660009081526009602052604090205461079e92916104289190610bb3565b9050610459565b60065481565b6001546001600160a01b031633146107f8576040805162461bcd60e51b815260206004820152600b60248201526a61646d696e3a207775743f60a81b604482015290519081900360640190fd5b600254604080516370a0823160e01b815230600482015290516001600160a01b03909216916370a0823191602480820192602092909190829003018186803b15801561084357600080fd5b505afa158015610857573d6000803e3d6000fd5b505050506040513d602081101561086d57600080fd5b505182106108b7576040805162461bcd60e51b815260206004820152601260248201527106e6f7420656e6f75676820746f6b656e20360741b604482015290519081900360640190fd5b600354604080516370a0823160e01b815230600482015290516001600160a01b03909216916370a0823191602480820192602092909190829003018186803b15801561090257600080fd5b505afa158015610916573d6000803e3d6000fd5b505050506040513d602081101561092c57600080fd5b50518110610976576040805162461bcd60e51b81526020600482015260126024820152716e6f7420656e6f75676820746f6b656e203160701b604482015290519081900360640190fd5b60025461098d906001600160a01b03163384610c97565b6003546109a4906001600160a01b03163383610c97565b5050565b600454431180156109ba575060055443105b6109fa576040805162461bcd60e51b815260206004820152600c60248201526b6e6f742069666f2074696d6560a01b604482015290519081900360640190fd5b60008111610a42576040805162461bcd60e51b815260206004820152601060248201526f06e656564205f616d6f756e74203e20360841b604482015290519081900360640190fd5b600254610a5a906001600160a01b0316333084610cee565b33600090815260096020526040902054610ab157600a80546001810182556000919091527fc65a7bb8d6351c1cf70c95a316cc6a92839c986682d98bc35f958f4883f9d2a80180546001600160a01b031916331790555b33600090815260096020526040902054610acb9082610d4e565b33600090815260096020526040902055600854610ae89082610d4e565b60085560408051828152905133917fe1fffcc4923d04b559f4d29a8bfc6cda04eb5b0d3c460751c2402c5c5cc9109c919081900360200190a250565b6003546001600160a01b031681565b600a8181548110610b4057fe5b6000918252602090912001546001600160a01b0316905081565b6008546001600160a01b0382166000908152600960205260408120549091610b9291620f42409161042891829064e8d4a51000610bb3565b92915050565b60075481565b600a5490565b6001546001600160a01b031681565b600082610bc257506000610b92565b82820282848281610bcf57fe5b0414610c0c5760405162461bcd60e51b815260040180806020018281038252602181526020018061113d6021913960400191505060405180910390fd5b9392505050565b6000610c0c83836040518060400160405280601a81526020017f536166654d6174683a206469766973696f6e206279207a65726f000000000000815250610da8565b6000610c0c83836040518060400160405280601e81526020017f536166654d6174683a207375627472616374696f6e206f766572666c6f770000815250610e4a565b604080516001600160a01b038416602482015260448082018490528251808303909101815260649091019091526020810180516001600160e01b031663a9059cbb60e01b179052610ce9908490610ea4565b505050565b604080516001600160a01b0380861660248301528416604482015260648082018490528251808303909101815260849091019091526020810180516001600160e01b03166323b872dd60e01b179052610d48908590610ea4565b50505050565b600082820183811015610c0c576040805162461bcd60e51b815260206004820152601b60248201527f536166654d6174683a206164646974696f6e206f766572666c6f770000000000604482015290519081900360640190fd5b60008183610e345760405162461bcd60e51b81526004018080602001828103825283818151815260200191508051906020019080838360005b83811015610df9578181015183820152602001610de1565b50505050905090810190601f168015610e265780820380516001836020036101000a031916815260200191505b509250505060405180910390fd5b506000838581610e4057fe5b0495945050505050565b60008184841115610e9c5760405162461bcd60e51b8152602060048201818152835160248401528351909283926044909101919085019080838360008315610df9578181015183820152602001610de1565b505050900390565b6060610ef9826040518060400160405280602081526020017f5361666542455032303a206c6f772d6c6576656c2063616c6c206661696c6564815250856001600160a01b0316610f559092919063ffffffff16565b805190915015610ce957808060200190516020811015610f1857600080fd5b5051610ce95760405162461bcd60e51b815260040180806020018281038252602a815260200180611113602a913960400191505060405180910390fd5b6060610f648484600085610f6c565b949350505050565b6060610f77856110d9565b610fc8576040805162461bcd60e51b815260206004820152601d60248201527f416464726573733a2063616c6c20746f206e6f6e2d636f6e7472616374000000604482015290519081900360640190fd5b60006060866001600160a01b031685876040518082805190602001908083835b602083106110075780518252601f199092019160209182019101610fe8565b6001836020036101000a03801982511681845116808217855250505050505090500191505060006040518083038185875af1925050503d8060008114611069576040519150601f19603f3d011682016040523d82523d6000602084013e61106e565b606091505b50915091508115611082579150610f649050565b8051156110925780518082602001fd5b60405162461bcd60e51b8152602060048201818152865160248401528651879391928392604401919085019080838360008315610df9578181015183820152602001610de1565b6000813f7fc5d2460186f7233c927e7db2dcc703c0e500b653ca82273b7bfad8045d85a47081811480159061045457505015159291505056fe5361666542455032303a204245503230206f7065726174696f6e20646964206e6f742073756363656564536166654d6174683a206d756c7469706c69636174696f6e206f766572666c6f77a26469706673582212200c56ca58fc24041fe7814048bc89d6da758670b1e3442d4ee92385e6ee663eae64736f6c634300060c0033",
					"opcodes": "PUSH1 0x80 PUSH1 0x40 MSTORE CALLVALUE DUP1 ISZERO PUSH2 0x10 JUMPI PUSH1 0x0 DUP1 REVERT JUMPDEST POP PUSH1 0x40 MLOAD PUSH2 0x1257 CODESIZE SUB DUP1 PUSH2 0x1257 DUP4 CODECOPY DUP2 DUP2 ADD PUSH1 0x40 MSTORE PUSH1 0xE0 DUP2 LT ISZERO PUSH2 0x33 JUMPI PUSH1 0x0 DUP1 REVERT JUMPDEST POP DUP1 MLOAD PUSH1 0x20 DUP3 ADD MLOAD PUSH1 0x40 DUP4 ADD MLOAD PUSH1 0x60 DUP5 ADD MLOAD PUSH1 0x80 DUP6 ADD MLOAD PUSH1 0xA0 DUP7 ADD MLOAD PUSH1 0xC0 SWAP1 SWAP7 ADD MLOAD PUSH1 0x1 PUSH1 0x0 DUP2 DUP2 SSTORE PUSH1 0x2 DUP1 SLOAD PUSH1 0x1 PUSH1 0x1 PUSH1 0xA0 SHL SUB SWAP10 DUP11 AND PUSH1 0x1 PUSH1 0x1 PUSH1 0xA0 SHL SUB NOT SWAP2 DUP3 AND OR SWAP1 SWAP2 SSTORE PUSH1 0x3 DUP1 SLOAD SWAP9 DUP11 AND SWAP9 DUP3 AND SWAP9 SWAP1 SWAP9 OR SWAP1 SWAP8 SSTORE PUSH1 0x4 SWAP6 SWAP1 SWAP6 SSTORE PUSH1 0x5 SWAP4 SWAP1 SWAP4 SSTORE PUSH1 0x7 SWAP2 SWAP1 SWAP2 SSTORE PUSH1 0x6 SWAP6 SWAP1 SWAP6 SSTORE PUSH1 0x8 SWAP2 SWAP1 SWAP2 SSTORE DUP1 SLOAD SWAP3 SWAP1 SWAP4 AND SWAP2 AND OR SWAP1 SSTORE PUSH2 0x1193 DUP1 PUSH2 0xC4 PUSH1 0x0 CODECOPY PUSH1 0x0 RETURN INVALID PUSH1 0x80 PUSH1 0x40 MSTORE CALLVALUE DUP1 ISZERO PUSH2 0x10 JUMPI PUSH1 0x0 DUP1 REVERT JUMPDEST POP PUSH1 0x4 CALLDATASIZE LT PUSH2 0x12C JUMPI PUSH1 0x0 CALLDATALOAD PUSH1 0xE0 SHR DUP1 PUSH4 0x87E97BC6 GT PUSH2 0xAD JUMPI DUP1 PUSH4 0xB810FB43 GT PUSH2 0x71 JUMPI DUP1 PUSH4 0xB810FB43 EQ PUSH2 0x2D8 JUMPI DUP1 PUSH4 0xB920ADE2 EQ PUSH2 0x2F5 JUMPI DUP1 PUSH4 0xE1AF9A95 EQ PUSH2 0x31B JUMPI DUP1 PUSH4 0xFC00358E EQ PUSH2 0x323 JUMPI DUP1 PUSH4 0xFC6F9468 EQ PUSH2 0x32B JUMPI PUSH2 0x12C JUMP JUMPDEST DUP1 PUSH4 0x87E97BC6 EQ PUSH2 0x262 JUMPI DUP1 PUSH4 0x9C0A7669 EQ PUSH2 0x288 JUMPI DUP1 PUSH4 0x9F1B5248 EQ PUSH2 0x290 JUMPI DUP1 PUSH4 0xB6B55F25 EQ PUSH2 0x2B3 JUMPI DUP1 PUSH4 0xB7813607 EQ PUSH2 0x2D0 JUMPI PUSH2 0x12C JUMP JUMPDEST DUP1 PUSH4 0x4225C32F GT PUSH2 0xF4 JUMPI DUP1 PUSH4 0x4225C32F EQ PUSH2 0x1D7 JUMPI DUP1 PUSH4 0x4641257D EQ PUSH2 0x1F4 JUMPI DUP1 PUSH4 0x48CD4CB1 EQ PUSH2 0x1FC JUMPI DUP1 PUSH4 0x5FCBD285 EQ PUSH2 0x204 JUMPI DUP1 PUSH4 0x64CE9FFF EQ PUSH2 0x228 JUMPI PUSH2 0x12C JUMP JUMPDEST DUP1 PUSH4 0x83C6323 EQ PUSH2 0x131 JUMPI DUP1 PUSH4 0x1959A002 EQ PUSH2 0x14B JUMPI DUP1 PUSH4 0x1A39D8EF EQ PUSH2 0x18A JUMPI DUP1 PUSH4 0x27D1B1A2 EQ PUSH2 0x192 JUMPI DUP1 PUSH4 0x2F5105F8 EQ PUSH2 0x1B1 JUMPI JUMPDEST PUSH1 0x0 DUP1 REVERT JUMPDEST PUSH2 0x139 PUSH2 0x333 JUMP JUMPDEST PUSH1 0x40 DUP1 MLOAD SWAP2 DUP3 MSTORE MLOAD SWAP1 DUP2 SWAP1 SUB PUSH1 0x20 ADD SWAP1 RETURN JUMPDEST PUSH2 0x171 PUSH1 0x4 DUP1 CALLDATASIZE SUB PUSH1 0x20 DUP2 LT ISZERO PUSH2 0x161 JUMPI PUSH1 0x0 DUP1 REVERT JUMPDEST POP CALLDATALOAD PUSH1 0x1 PUSH1 0x1 PUSH1 0xA0 SHL SUB AND PUSH2 0x339 JUMP JUMPDEST PUSH1 0x40 DUP1 MLOAD SWAP3 DUP4 MSTORE SWAP1 ISZERO ISZERO PUSH1 0x20 DUP4 ADD MSTORE DUP1 MLOAD SWAP2 DUP3 SWAP1 SUB ADD SWAP1 RETURN JUMPDEST PUSH2 0x139 PUSH2 0x355 JUMP JUMPDEST PUSH2 0x1AF PUSH1 0x4 DUP1 CALLDATASIZE SUB PUSH1 0x20 DUP2 LT ISZERO PUSH2 0x1A8 JUMPI PUSH1 0x0 DUP1 REVERT JUMPDEST POP CALLDATALOAD PUSH2 0x35B JUMP JUMPDEST STOP JUMPDEST PUSH2 0x139 PUSH1 0x4 DUP1 CALLDATASIZE SUB PUSH1 0x20 DUP2 LT ISZERO PUSH2 0x1C7 JUMPI PUSH1 0x0 DUP1 REVERT JUMPDEST POP CALLDATALOAD PUSH1 0x1 PUSH1 0x1 PUSH1 0xA0 SHL SUB AND PUSH2 0x3E8 JUMP JUMPDEST PUSH2 0x1AF PUSH1 0x4 DUP1 CALLDATASIZE SUB PUSH1 0x20 DUP2 LT ISZERO PUSH2 0x1ED JUMPI PUSH1 0x0 DUP1 REVERT JUMPDEST POP CALLDATALOAD PUSH2 0x45E JUMP JUMPDEST PUSH2 0x1AF PUSH2 0x4EB JUMP JUMPDEST PUSH2 0x139 PUSH2 0x6FB JUMP JUMPDEST PUSH2 0x20C PUSH2 0x701 JUMP JUMPDEST PUSH1 0x40 DUP1 MLOAD PUSH1 0x1 PUSH1 0x1 PUSH1 0xA0 SHL SUB SWAP1 SWAP3 AND DUP3 MSTORE MLOAD SWAP1 DUP2 SWAP1 SUB PUSH1 0x20 ADD SWAP1 RETURN JUMPDEST PUSH2 0x24E PUSH1 0x4 DUP1 CALLDATASIZE SUB PUSH1 0x20 DUP2 LT ISZERO PUSH2 0x23E JUMPI PUSH1 0x0 DUP1 REVERT JUMPDEST POP CALLDATALOAD PUSH1 0x1 PUSH1 0x1 PUSH1 0xA0 SHL SUB AND PUSH2 0x710 JUMP JUMPDEST PUSH1 0x40 DUP1 MLOAD SWAP2 ISZERO ISZERO DUP3 MSTORE MLOAD SWAP1 DUP2 SWAP1 SUB PUSH1 0x20 ADD SWAP1 RETURN JUMPDEST PUSH2 0x139 PUSH1 0x4 DUP1 CALLDATASIZE SUB PUSH1 0x20 DUP2 LT ISZERO PUSH2 0x278 JUMPI PUSH1 0x0 DUP1 REVERT JUMPDEST POP CALLDATALOAD PUSH1 0x1 PUSH1 0x1 PUSH1 0xA0 SHL SUB AND PUSH2 0x731 JUMP JUMPDEST PUSH2 0x139 PUSH2 0x7A5 JUMP JUMPDEST PUSH2 0x1AF PUSH1 0x4 DUP1 CALLDATASIZE SUB PUSH1 0x40 DUP2 LT ISZERO PUSH2 0x2A6 JUMPI PUSH1 0x0 DUP1 REVERT JUMPDEST POP DUP1 CALLDATALOAD SWAP1 PUSH1 0x20 ADD CALLDATALOAD PUSH2 0x7AB JUMP JUMPDEST PUSH2 0x1AF PUSH1 0x4 DUP1 CALLDATASIZE SUB PUSH1 0x20 DUP2 LT ISZERO PUSH2 0x2C9 JUMPI PUSH1 0x0 DUP1 REVERT JUMPDEST POP CALLDATALOAD PUSH2 0x9A8 JUMP JUMPDEST PUSH2 0x20C PUSH2 0xB24 JUMP JUMPDEST PUSH2 0x20C PUSH1 0x4 DUP1 CALLDATASIZE SUB PUSH1 0x20 DUP2 LT ISZERO PUSH2 0x2EE JUMPI PUSH1 0x0 DUP1 REVERT JUMPDEST POP CALLDATALOAD PUSH2 0xB33 JUMP JUMPDEST PUSH2 0x139 PUSH1 0x4 DUP1 CALLDATASIZE SUB PUSH1 0x20 DUP2 LT ISZERO PUSH2 0x30B JUMPI PUSH1 0x0 DUP1 REVERT JUMPDEST POP CALLDATALOAD PUSH1 0x1 PUSH1 0x1 PUSH1 0xA0 SHL SUB AND PUSH2 0xB5A JUMP JUMPDEST PUSH2 0x139 PUSH2 0xB98 JUMP JUMPDEST PUSH2 0x139 PUSH2 0xB9E JUMP JUMPDEST PUSH2 0x20C PUSH2 0xBA4 JUMP JUMPDEST PUSH1 0x5 SLOAD DUP2 JUMP JUMPDEST PUSH1 0x9 PUSH1 0x20 MSTORE PUSH1 0x0 SWAP1 DUP2 MSTORE PUSH1 0x40 SWAP1 KECCAK256 DUP1 SLOAD PUSH1 0x1 SWAP1 SWAP2 ADD SLOAD PUSH1 0xFF AND DUP3 JUMP JUMPDEST PUSH1 0x8 SLOAD DUP2 JUMP JUMPDEST PUSH1 0x1 SLOAD PUSH1 0x1 PUSH1 0x1 PUSH1 0xA0 SHL SUB AND CALLER EQ PUSH2 0x3A8 JUMPI PUSH1 0x40 DUP1 MLOAD PUSH3 0x461BCD PUSH1 0xE5 SHL DUP2 MSTORE PUSH1 0x20 PUSH1 0x4 DUP3 ADD MSTORE PUSH1 0xB PUSH1 0x24 DUP3 ADD MSTORE PUSH11 0x61646D696E3A207775743F PUSH1 0xA8 SHL PUSH1 0x44 DUP3 ADD MSTORE SWAP1 MLOAD SWAP1 DUP2 SWAP1 SUB PUSH1 0x64 ADD SWAP1 REVERT JUMPDEST PUSH1 0x4 SLOAD NUMBER LT PUSH2 0x3E3 JUMPI PUSH1 0x40 DUP1 MLOAD PUSH3 0x461BCD PUSH1 0xE5 SHL DUP2 MSTORE PUSH1 0x20 PUSH1 0x4 DUP3 ADD MSTORE PUSH1 0x2 PUSH1 0x24 DUP3 ADD MSTORE PUSH2 0x6E6F PUSH1 0xF0 SHL PUSH1 0x44 DUP3 ADD MSTORE SWAP1 MLOAD SWAP1 DUP2 SWAP1 SUB PUSH1 0x64 ADD SWAP1 REVERT JUMPDEST PUSH1 0x7 SSTORE JUMP JUMPDEST PUSH1 0x0 PUSH1 0x6 SLOAD PUSH1 0x8 SLOAD GT PUSH2 0x3FD JUMPI POP PUSH1 0x0 PUSH2 0x459 JUMP JUMPDEST PUSH1 0x0 PUSH2 0x408 DUP4 PUSH2 0xB5A JUMP JUMPDEST SWAP1 POP PUSH1 0x0 PUSH2 0x42E PUSH3 0xF4240 PUSH2 0x428 DUP5 PUSH1 0x6 SLOAD PUSH2 0xBB3 SWAP1 SWAP2 SWAP1 PUSH4 0xFFFFFFFF AND JUMP JUMPDEST SWAP1 PUSH2 0xC13 JUMP JUMPDEST PUSH1 0x1 PUSH1 0x1 PUSH1 0xA0 SHL SUB DUP6 AND PUSH1 0x0 SWAP1 DUP2 MSTORE PUSH1 0x9 PUSH1 0x20 MSTORE PUSH1 0x40 SWAP1 KECCAK256 SLOAD SWAP1 SWAP2 POP PUSH2 0x454 SWAP1 DUP3 PUSH2 0xC55 JUMP JUMPDEST SWAP3 POP POP POP JUMPDEST SWAP2 SWAP1 POP JUMP JUMPDEST PUSH1 0x1 SLOAD PUSH1 0x1 PUSH1 0x1 PUSH1 0xA0 SHL SUB AND CALLER EQ PUSH2 0x4AB JUMPI PUSH1 0x40 DUP1 MLOAD PUSH3 0x461BCD PUSH1 0xE5 SHL DUP2 MSTORE PUSH1 0x20 PUSH1 0x4 DUP3 ADD MSTORE PUSH1 0xB PUSH1 0x24 DUP3 ADD MSTORE PUSH11 0x61646D696E3A207775743F PUSH1 0xA8 SHL PUSH1 0x44 DUP3 ADD MSTORE SWAP1 MLOAD SWAP1 DUP2 SWAP1 SUB PUSH1 0x64 ADD SWAP1 REVERT JUMPDEST PUSH1 0x4 SLOAD NUMBER LT PUSH2 0x4E6 JUMPI PUSH1 0x40 DUP1 MLOAD PUSH3 0x461BCD PUSH1 0xE5 SHL DUP2 MSTORE PUSH1 0x20 PUSH1 0x4 DUP3 ADD MSTORE PUSH1 0x2 PUSH1 0x24 DUP3 ADD MSTORE PUSH2 0x6E6F PUSH1 0xF0 SHL PUSH1 0x44 DUP3 ADD MSTORE SWAP1 MLOAD SWAP1 DUP2 SWAP1 SUB PUSH1 0x64 ADD SWAP1 REVERT JUMPDEST PUSH1 0x6 SSTORE JUMP JUMPDEST PUSH1 0x2 PUSH1 0x0 SLOAD EQ ISZERO PUSH2 0x543 JUMPI PUSH1 0x40 DUP1 MLOAD PUSH3 0x461BCD PUSH1 0xE5 SHL DUP2 MSTORE PUSH1 0x20 PUSH1 0x4 DUP3 ADD MSTORE PUSH1 0x1F PUSH1 0x24 DUP3 ADD MSTORE PUSH32 0x5265656E7472616E637947756172643A207265656E7472616E742063616C6C00 PUSH1 0x44 DUP3 ADD MSTORE SWAP1 MLOAD SWAP1 DUP2 SWAP1 SUB PUSH1 0x64 ADD SWAP1 REVERT JUMPDEST PUSH1 0x2 PUSH1 0x0 SSTORE PUSH1 0x5 SLOAD NUMBER GT PUSH2 0x591 JUMPI PUSH1 0x40 DUP1 MLOAD PUSH3 0x461BCD PUSH1 0xE5 SHL DUP2 MSTORE PUSH1 0x20 PUSH1 0x4 DUP3 ADD MSTORE PUSH1 0x10 PUSH1 0x24 DUP3 ADD MSTORE PUSH16 0x6E6F7420686172766573742074696D65 PUSH1 0x80 SHL PUSH1 0x44 DUP3 ADD MSTORE SWAP1 MLOAD SWAP1 DUP2 SWAP1 SUB PUSH1 0x64 ADD SWAP1 REVERT JUMPDEST CALLER PUSH1 0x0 SWAP1 DUP2 MSTORE PUSH1 0x9 PUSH1 0x20 MSTORE PUSH1 0x40 SWAP1 KECCAK256 SLOAD PUSH2 0x5EB JUMPI PUSH1 0x40 DUP1 MLOAD PUSH3 0x461BCD PUSH1 0xE5 SHL DUP2 MSTORE PUSH1 0x20 PUSH1 0x4 DUP3 ADD MSTORE PUSH1 0x16 PUSH1 0x24 DUP3 ADD MSTORE PUSH22 0x6861766520796F75207061727469636970617465643F PUSH1 0x50 SHL PUSH1 0x44 DUP3 ADD MSTORE SWAP1 MLOAD SWAP1 DUP2 SWAP1 SUB PUSH1 0x64 ADD SWAP1 REVERT JUMPDEST CALLER PUSH1 0x0 SWAP1 DUP2 MSTORE PUSH1 0x9 PUSH1 0x20 MSTORE PUSH1 0x40 SWAP1 KECCAK256 PUSH1 0x1 ADD SLOAD PUSH1 0xFF AND ISZERO PUSH2 0x648 JUMPI PUSH1 0x40 DUP1 MLOAD PUSH3 0x461BCD PUSH1 0xE5 SHL DUP2 MSTORE PUSH1 0x20 PUSH1 0x4 DUP3 ADD MSTORE PUSH1 0x12 PUSH1 0x24 DUP3 ADD MSTORE PUSH18 0x1B9BDD1A1A5B99C81D1BC81A185C9D995CDD PUSH1 0x72 SHL PUSH1 0x44 DUP3 ADD MSTORE SWAP1 MLOAD SWAP1 DUP2 SWAP1 SUB PUSH1 0x64 ADD SWAP1 REVERT JUMPDEST PUSH1 0x0 PUSH2 0x653 CALLER PUSH2 0x731 JUMP JUMPDEST SWAP1 POP PUSH1 0x0 PUSH2 0x660 CALLER PUSH2 0x3E8 JUMP JUMPDEST PUSH1 0x3 SLOAD SWAP1 SWAP2 POP PUSH2 0x67A SWAP1 PUSH1 0x1 PUSH1 0x1 PUSH1 0xA0 SHL SUB AND CALLER DUP5 PUSH2 0xC97 JUMP JUMPDEST DUP1 ISZERO PUSH2 0x697 JUMPI PUSH1 0x2 SLOAD PUSH2 0x697 SWAP1 PUSH1 0x1 PUSH1 0x1 PUSH1 0xA0 SHL SUB AND CALLER DUP4 PUSH2 0xC97 JUMP JUMPDEST CALLER PUSH1 0x0 DUP2 DUP2 MSTORE PUSH1 0x9 PUSH1 0x20 SWAP1 DUP2 MSTORE PUSH1 0x40 SWAP2 DUP3 SWAP1 KECCAK256 PUSH1 0x1 SWAP1 DUP2 ADD DUP1 SLOAD PUSH1 0xFF NOT AND SWAP1 SWAP2 OR SWAP1 SSTORE DUP2 MLOAD DUP6 DUP2 MSTORE SWAP1 DUP2 ADD DUP5 SWAP1 MSTORE DUP2 MLOAD PUSH32 0x71BAB65CED2E5750775A0613BE067DF48EF06CF92A496EBF7663AE0660924954 SWAP3 SWAP2 DUP2 SWAP1 SUB SWAP1 SWAP2 ADD SWAP1 LOG2 POP POP PUSH1 0x1 PUSH1 0x0 SSTORE JUMP JUMPDEST PUSH1 0x4 SLOAD DUP2 JUMP JUMPDEST PUSH1 0x2 SLOAD PUSH1 0x1 PUSH1 0x1 PUSH1 0xA0 SHL SUB AND DUP2 JUMP JUMPDEST PUSH1 0x1 PUSH1 0x1 PUSH1 0xA0 SHL SUB AND PUSH1 0x0 SWAP1 DUP2 MSTORE PUSH1 0x9 PUSH1 0x20 MSTORE PUSH1 0x40 SWAP1 KECCAK256 PUSH1 0x1 ADD SLOAD PUSH1 0xFF AND SWAP1 JUMP JUMPDEST PUSH1 0x0 PUSH1 0x6 SLOAD PUSH1 0x8 SLOAD GT ISZERO PUSH2 0x770 JUMPI PUSH1 0x0 PUSH2 0x74A DUP4 PUSH2 0xB5A JUMP JUMPDEST SWAP1 POP PUSH2 0x768 PUSH3 0xF4240 PUSH2 0x428 DUP4 PUSH1 0x7 SLOAD PUSH2 0xBB3 SWAP1 SWAP2 SWAP1 PUSH4 0xFFFFFFFF AND JUMP JUMPDEST SWAP2 POP POP PUSH2 0x459 JUMP JUMPDEST PUSH1 0x6 SLOAD PUSH1 0x7 SLOAD PUSH1 0x1 PUSH1 0x1 PUSH1 0xA0 SHL SUB DUP5 AND PUSH1 0x0 SWAP1 DUP2 MSTORE PUSH1 0x9 PUSH1 0x20 MSTORE PUSH1 0x40 SWAP1 KECCAK256 SLOAD PUSH2 0x79E SWAP3 SWAP2 PUSH2 0x428 SWAP2 SWAP1 PUSH2 0xBB3 JUMP JUMPDEST SWAP1 POP PUSH2 0x459 JUMP JUMPDEST PUSH1 0x6 SLOAD DUP2 JUMP JUMPDEST PUSH1 0x1 SLOAD PUSH1 0x1 PUSH1 0x1 PUSH1 0xA0 SHL SUB AND CALLER EQ PUSH2 0x7F8 JUMPI PUSH1 0x40 DUP1 MLOAD PUSH3 0x461BCD PUSH1 0xE5 SHL DUP2 MSTORE PUSH1 0x20 PUSH1 0x4 DUP3 ADD MSTORE PUSH1 0xB PUSH1 0x24 DUP3 ADD MSTORE PUSH11 0x61646D696E3A207775743F PUSH1 0xA8 SHL PUSH1 0x44 DUP3 ADD MSTORE SWAP1 MLOAD SWAP1 DUP2 SWAP1 SUB PUSH1 0x64 ADD SWAP1 REVERT JUMPDEST PUSH1 0x2 SLOAD PUSH1 0x40 DUP1 MLOAD PUSH4 0x70A08231 PUSH1 0xE0 SHL DUP2 MSTORE ADDRESS PUSH1 0x4 DUP3 ADD MSTORE SWAP1 MLOAD PUSH1 0x1 PUSH1 0x1 PUSH1 0xA0 SHL SUB SWAP1 SWAP3 AND SWAP2 PUSH4 0x70A08231 SWAP2 PUSH1 0x24 DUP1 DUP3 ADD SWAP3 PUSH1 0x20 SWAP3 SWAP1 SWAP2 SWAP1 DUP3 SWAP1 SUB ADD DUP2 DUP7 DUP1 EXTCODESIZE ISZERO DUP1 ISZERO PUSH2 0x843 JUMPI PUSH1 0x0 DUP1 REVERT JUMPDEST POP GAS STATICCALL ISZERO DUP1 ISZERO PUSH2 0x857 JUMPI RETURNDATASIZE PUSH1 0x0 DUP1 RETURNDATACOPY RETURNDATASIZE PUSH1 0x0 REVERT JUMPDEST POP POP POP POP PUSH1 0x40 MLOAD RETURNDATASIZE PUSH1 0x20 DUP2 LT ISZERO PUSH2 0x86D JUMPI PUSH1 0x0 DUP1 REVERT JUMPDEST POP MLOAD DUP3 LT PUSH2 0x8B7 JUMPI PUSH1 0x40 DUP1 MLOAD PUSH3 0x461BCD PUSH1 0xE5 SHL DUP2 MSTORE PUSH1 0x20 PUSH1 0x4 DUP3 ADD MSTORE PUSH1 0x12 PUSH1 0x24 DUP3 ADD MSTORE PUSH18 0x6E6F7420656E6F75676820746F6B656E203 PUSH1 0x74 SHL PUSH1 0x44 DUP3 ADD MSTORE SWAP1 MLOAD SWAP1 DUP2 SWAP1 SUB PUSH1 0x64 ADD SWAP1 REVERT JUMPDEST PUSH1 0x3 SLOAD PUSH1 0x40 DUP1 MLOAD PUSH4 0x70A08231 PUSH1 0xE0 SHL DUP2 MSTORE ADDRESS PUSH1 0x4 DUP3 ADD MSTORE SWAP1 MLOAD PUSH1 0x1 PUSH1 0x1 PUSH1 0xA0 SHL SUB SWAP1 SWAP3 AND SWAP2 PUSH4 0x70A08231 SWAP2 PUSH1 0x24 DUP1 DUP3 ADD SWAP3 PUSH1 0x20 SWAP3 SWAP1 SWAP2 SWAP1 DUP3 SWAP1 SUB ADD DUP2 DUP7 DUP1 EXTCODESIZE ISZERO DUP1 ISZERO PUSH2 0x902 JUMPI PUSH1 0x0 DUP1 REVERT JUMPDEST POP GAS STATICCALL ISZERO DUP1 ISZERO PUSH2 0x916 JUMPI RETURNDATASIZE PUSH1 0x0 DUP1 RETURNDATACOPY RETURNDATASIZE PUSH1 0x0 REVERT JUMPDEST POP POP POP POP PUSH1 0x40 MLOAD RETURNDATASIZE PUSH1 0x20 DUP2 LT ISZERO PUSH2 0x92C JUMPI PUSH1 0x0 DUP1 REVERT JUMPDEST POP MLOAD DUP2 LT PUSH2 0x976 JUMPI PUSH1 0x40 DUP1 MLOAD PUSH3 0x461BCD PUSH1 0xE5 SHL DUP2 MSTORE PUSH1 0x20 PUSH1 0x4 DUP3 ADD MSTORE PUSH1 0x12 PUSH1 0x24 DUP3 ADD MSTORE PUSH18 0x6E6F7420656E6F75676820746F6B656E2031 PUSH1 0x70 SHL PUSH1 0x44 DUP3 ADD MSTORE SWAP1 MLOAD SWAP1 DUP2 SWAP1 SUB PUSH1 0x64 ADD SWAP1 REVERT JUMPDEST PUSH1 0x2 SLOAD PUSH2 0x98D SWAP1 PUSH1 0x1 PUSH1 0x1 PUSH1 0xA0 SHL SUB AND CALLER DUP5 PUSH2 0xC97 JUMP JUMPDEST PUSH1 0x3 SLOAD PUSH2 0x9A4 SWAP1 PUSH1 0x1 PUSH1 0x1 PUSH1 0xA0 SHL SUB AND CALLER DUP4 PUSH2 0xC97 JUMP JUMPDEST POP POP JUMP JUMPDEST PUSH1 0x4 SLOAD NUMBER GT DUP1 ISZERO PUSH2 0x9BA JUMPI POP PUSH1 0x5 SLOAD NUMBER LT JUMPDEST PUSH2 0x9FA JUMPI PUSH1 0x40 DUP1 MLOAD PUSH3 0x461BCD PUSH1 0xE5 SHL DUP2 MSTORE PUSH1 0x20 PUSH1 0x4 DUP3 ADD MSTORE PUSH1 0xC PUSH1 0x24 DUP3 ADD MSTORE PUSH12 0x6E6F742069666F2074696D65 PUSH1 0xA0 SHL PUSH1 0x44 DUP3 ADD MSTORE SWAP1 MLOAD SWAP1 DUP2 SWAP1 SUB PUSH1 0x64 ADD SWAP1 REVERT JUMPDEST PUSH1 0x0 DUP2 GT PUSH2 0xA42 JUMPI PUSH1 0x40 DUP1 MLOAD PUSH3 0x461BCD PUSH1 0xE5 SHL DUP2 MSTORE PUSH1 0x20 PUSH1 0x4 DUP3 ADD MSTORE PUSH1 0x10 PUSH1 0x24 DUP3 ADD MSTORE PUSH16 0x6E656564205F616D6F756E74203E203 PUSH1 0x84 SHL PUSH1 0x44 DUP3 ADD MSTORE SWAP1 MLOAD SWAP1 DUP2 SWAP1 SUB PUSH1 0x64 ADD SWAP1 REVERT JUMPDEST PUSH1 0x2 SLOAD PUSH2 0xA5A SWAP1 PUSH1 0x1 PUSH1 0x1 PUSH1 0xA0 SHL SUB AND CALLER ADDRESS DUP5 PUSH2 0xCEE JUMP JUMPDEST CALLER PUSH1 0x0 SWAP1 DUP2 MSTORE PUSH1 0x9 PUSH1 0x20 MSTORE PUSH1 0x40 SWAP1 KECCAK256 SLOAD PUSH2 0xAB1 JUMPI PUSH1 0xA DUP1 SLOAD PUSH1 0x1 DUP2 ADD DUP3 SSTORE PUSH1 0x0 SWAP2 SWAP1 SWAP2 MSTORE PUSH32 0xC65A7BB8D6351C1CF70C95A316CC6A92839C986682D98BC35F958F4883F9D2A8 ADD DUP1 SLOAD PUSH1 0x1 PUSH1 0x1 PUSH1 0xA0 SHL SUB NOT AND CALLER OR SWAP1 SSTORE JUMPDEST CALLER PUSH1 0x0 SWAP1 DUP2 MSTORE PUSH1 0x9 PUSH1 0x20 MSTORE PUSH1 0x40 SWAP1 KECCAK256 SLOAD PUSH2 0xACB SWAP1 DUP3 PUSH2 0xD4E JUMP JUMPDEST CALLER PUSH1 0x0 SWAP1 DUP2 MSTORE PUSH1 0x9 PUSH1 0x20 MSTORE PUSH1 0x40 SWAP1 KECCAK256 SSTORE PUSH1 0x8 SLOAD PUSH2 0xAE8 SWAP1 DUP3 PUSH2 0xD4E JUMP JUMPDEST PUSH1 0x8 SSTORE PUSH1 0x40 DUP1 MLOAD DUP3 DUP2 MSTORE SWAP1 MLOAD CALLER SWAP2 PUSH32 0xE1FFFCC4923D04B559F4D29A8BFC6CDA04EB5B0D3C460751C2402C5C5CC9109C SWAP2 SWAP1 DUP2 SWAP1 SUB PUSH1 0x20 ADD SWAP1 LOG2 POP JUMP JUMPDEST PUSH1 0x3 SLOAD PUSH1 0x1 PUSH1 0x1 PUSH1 0xA0 SHL SUB AND DUP2 JUMP JUMPDEST PUSH1 0xA DUP2 DUP2 SLOAD DUP2 LT PUSH2 0xB40 JUMPI INVALID JUMPDEST PUSH1 0x0 SWAP2 DUP3 MSTORE PUSH1 0x20 SWAP1 SWAP2 KECCAK256 ADD SLOAD PUSH1 0x1 PUSH1 0x1 PUSH1 0xA0 SHL SUB AND SWAP1 POP DUP2 JUMP JUMPDEST PUSH1 0x8 SLOAD PUSH1 0x1 PUSH1 0x1 PUSH1 0xA0 SHL SUB DUP3 AND PUSH1 0x0 SWAP1 DUP2 MSTORE PUSH1 0x9 PUSH1 0x20 MSTORE PUSH1 0x40 DUP2 KECCAK256 SLOAD SWAP1 SWAP2 PUSH2 0xB92 SWAP2 PUSH3 0xF4240 SWAP2 PUSH2 0x428 SWAP2 DUP3 SWAP1 PUSH5 0xE8D4A51000 PUSH2 0xBB3 JUMP JUMPDEST SWAP3 SWAP2 POP POP JUMP JUMPDEST PUSH1 0x7 SLOAD DUP2 JUMP JUMPDEST PUSH1 0xA SLOAD SWAP1 JUMP JUMPDEST PUSH1 0x1 SLOAD PUSH1 0x1 PUSH1 0x1 PUSH1 0xA0 SHL SUB AND DUP2 JUMP JUMPDEST PUSH1 0x0 DUP3 PUSH2 0xBC2 JUMPI POP PUSH1 0x0 PUSH2 0xB92 JUMP JUMPDEST DUP3 DUP3 MUL DUP3 DUP5 DUP3 DUP2 PUSH2 0xBCF JUMPI INVALID JUMPDEST DIV EQ PUSH2 0xC0C JUMPI PUSH1 0x40 MLOAD PUSH3 0x461BCD PUSH1 0xE5 SHL DUP2 MSTORE PUSH1 0x4 ADD DUP1 DUP1 PUSH1 0x20 ADD DUP3 DUP2 SUB DUP3 MSTORE PUSH1 0x21 DUP2 MSTORE PUSH1 0x20 ADD DUP1 PUSH2 0x113D PUSH1 0x21 SWAP2 CODECOPY PUSH1 0x40 ADD SWAP2 POP POP PUSH1 0x40 MLOAD DUP1 SWAP2 SUB SWAP1 REVERT JUMPDEST SWAP4 SWAP3 POP POP POP JUMP JUMPDEST PUSH1 0x0 PUSH2 0xC0C DUP4 DUP4 PUSH1 0x40 MLOAD DUP1 PUSH1 0x40 ADD PUSH1 0x40 MSTORE DUP1 PUSH1 0x1A DUP2 MSTORE PUSH1 0x20 ADD PUSH32 0x536166654D6174683A206469766973696F6E206279207A65726F000000000000 DUP2 MSTORE POP PUSH2 0xDA8 JUMP JUMPDEST PUSH1 0x0 PUSH2 0xC0C DUP4 DUP4 PUSH1 0x40 MLOAD DUP1 PUSH1 0x40 ADD PUSH1 0x40 MSTORE DUP1 PUSH1 0x1E DUP2 MSTORE PUSH1 0x20 ADD PUSH32 0x536166654D6174683A207375627472616374696F6E206F766572666C6F770000 DUP2 MSTORE POP PUSH2 0xE4A JUMP JUMPDEST PUSH1 0x40 DUP1 MLOAD PUSH1 0x1 PUSH1 0x1 PUSH1 0xA0 SHL SUB DUP5 AND PUSH1 0x24 DUP3 ADD MSTORE PUSH1 0x44 DUP1 DUP3 ADD DUP5 SWAP1 MSTORE DUP3 MLOAD DUP1 DUP4 SUB SWAP1 SWAP2 ADD DUP2 MSTORE PUSH1 0x64 SWAP1 SWAP2 ADD SWAP1 SWAP2 MSTORE PUSH1 0x20 DUP2 ADD DUP1 MLOAD PUSH1 0x1 PUSH1 0x1 PUSH1 0xE0 SHL SUB AND PUSH4 0xA9059CBB PUSH1 0xE0 SHL OR SWAP1 MSTORE PUSH2 0xCE9 SWAP1 DUP5 SWAP1 PUSH2 0xEA4 JUMP JUMPDEST POP POP POP JUMP JUMPDEST PUSH1 0x40 DUP1 MLOAD PUSH1 0x1 PUSH1 0x1 PUSH1 0xA0 SHL SUB DUP1 DUP7 AND PUSH1 0x24 DUP4 ADD MSTORE DUP5 AND PUSH1 0x44 DUP3 ADD MSTORE PUSH1 0x64 DUP1 DUP3 ADD DUP5 SWAP1 MSTORE DUP3 MLOAD DUP1 DUP4 SUB SWAP1 SWAP2 ADD DUP2 MSTORE PUSH1 0x84 SWAP1 SWAP2 ADD SWAP1 SWAP2 MSTORE PUSH1 0x20 DUP2 ADD DUP1 MLOAD PUSH1 0x1 PUSH1 0x1 PUSH1 0xE0 SHL SUB AND PUSH4 0x23B872DD PUSH1 0xE0 SHL OR SWAP1 MSTORE PUSH2 0xD48 SWAP1 DUP6 SWAP1 PUSH2 0xEA4 JUMP JUMPDEST POP POP POP POP JUMP JUMPDEST PUSH1 0x0 DUP3 DUP3 ADD DUP4 DUP2 LT ISZERO PUSH2 0xC0C JUMPI PUSH1 0x40 DUP1 MLOAD PUSH3 0x461BCD PUSH1 0xE5 SHL DUP2 MSTORE PUSH1 0x20 PUSH1 0x4 DUP3 ADD MSTORE PUSH1 0x1B PUSH1 0x24 DUP3 ADD MSTORE PUSH32 0x536166654D6174683A206164646974696F6E206F766572666C6F770000000000 PUSH1 0x44 DUP3 ADD MSTORE SWAP1 MLOAD SWAP1 DUP2 SWAP1 SUB PUSH1 0x64 ADD SWAP1 REVERT JUMPDEST PUSH1 0x0 DUP2 DUP4 PUSH2 0xE34 JUMPI PUSH1 0x40 MLOAD PUSH3 0x461BCD PUSH1 0xE5 SHL DUP2 MSTORE PUSH1 0x4 ADD DUP1 DUP1 PUSH1 0x20 ADD DUP3 DUP2 SUB DUP3 MSTORE DUP4 DUP2 DUP2 MLOAD DUP2 MSTORE PUSH1 0x20 ADD SWAP2 POP DUP1 MLOAD SWAP1 PUSH1 0x20 ADD SWAP1 DUP1 DUP4 DUP4 PUSH1 0x0 JUMPDEST DUP4 DUP2 LT ISZERO PUSH2 0xDF9 JUMPI DUP2 DUP2 ADD MLOAD DUP4 DUP3 ADD MSTORE PUSH1 0x20 ADD PUSH2 0xDE1 JUMP JUMPDEST POP POP POP POP SWAP1 POP SWAP1 DUP2 ADD SWAP1 PUSH1 0x1F AND DUP1 ISZERO PUSH2 0xE26 JUMPI DUP1 DUP3 SUB DUP1 MLOAD PUSH1 0x1 DUP4 PUSH1 0x20 SUB PUSH2 0x100 EXP SUB NOT AND DUP2 MSTORE PUSH1 0x20 ADD SWAP2 POP JUMPDEST POP SWAP3 POP POP POP PUSH1 0x40 MLOAD DUP1 SWAP2 SUB SWAP1 REVERT JUMPDEST POP PUSH1 0x0 DUP4 DUP6 DUP2 PUSH2 0xE40 JUMPI INVALID JUMPDEST DIV SWAP6 SWAP5 POP POP POP POP POP JUMP JUMPDEST PUSH1 0x0 DUP2 DUP5 DUP5 GT ISZERO PUSH2 0xE9C JUMPI PUSH1 0x40 MLOAD PUSH3 0x461BCD PUSH1 0xE5 SHL DUP2 MSTORE PUSH1 0x20 PUSH1 0x4 DUP3 ADD DUP2 DUP2 MSTORE DUP4 MLOAD PUSH1 0x24 DUP5 ADD MSTORE DUP4 MLOAD SWAP1 SWAP3 DUP4 SWAP3 PUSH1 0x44 SWAP1 SWAP2 ADD SWAP2 SWAP1 DUP6 ADD SWAP1 DUP1 DUP4 DUP4 PUSH1 0x0 DUP4 ISZERO PUSH2 0xDF9 JUMPI DUP2 DUP2 ADD MLOAD DUP4 DUP3 ADD MSTORE PUSH1 0x20 ADD PUSH2 0xDE1 JUMP JUMPDEST POP POP POP SWAP1 SUB SWAP1 JUMP JUMPDEST PUSH1 0x60 PUSH2 0xEF9 DUP3 PUSH1 0x40 MLOAD DUP1 PUSH1 0x40 ADD PUSH1 0x40 MSTORE DUP1 PUSH1 0x20 DUP2 MSTORE PUSH1 0x20 ADD PUSH32 0x5361666542455032303A206C6F772D6C6576656C2063616C6C206661696C6564 DUP2 MSTORE POP DUP6 PUSH1 0x1 PUSH1 0x1 PUSH1 0xA0 SHL SUB AND PUSH2 0xF55 SWAP1 SWAP3 SWAP2 SWAP1 PUSH4 0xFFFFFFFF AND JUMP JUMPDEST DUP1 MLOAD SWAP1 SWAP2 POP ISZERO PUSH2 0xCE9 JUMPI DUP1 DUP1 PUSH1 0x20 ADD SWAP1 MLOAD PUSH1 0x20 DUP2 LT ISZERO PUSH2 0xF18 JUMPI PUSH1 0x0 DUP1 REVERT JUMPDEST POP MLOAD PUSH2 0xCE9 JUMPI PUSH1 0x40 MLOAD PUSH3 0x461BCD PUSH1 0xE5 SHL DUP2 MSTORE PUSH1 0x4 ADD DUP1 DUP1 PUSH1 0x20 ADD DUP3 DUP2 SUB DUP3 MSTORE PUSH1 0x2A DUP2 MSTORE PUSH1 0x20 ADD DUP1 PUSH2 0x1113 PUSH1 0x2A SWAP2 CODECOPY PUSH1 0x40 ADD SWAP2 POP POP PUSH1 0x40 MLOAD DUP1 SWAP2 SUB SWAP1 REVERT JUMPDEST PUSH1 0x60 PUSH2 0xF64 DUP5 DUP5 PUSH1 0x0 DUP6 PUSH2 0xF6C JUMP JUMPDEST SWAP5 SWAP4 POP POP POP POP JUMP JUMPDEST PUSH1 0x60 PUSH2 0xF77 DUP6 PUSH2 0x10D9 JUMP JUMPDEST PUSH2 0xFC8 JUMPI PUSH1 0x40 DUP1 MLOAD PUSH3 0x461BCD PUSH1 0xE5 SHL DUP2 MSTORE PUSH1 0x20 PUSH1 0x4 DUP3 ADD MSTORE PUSH1 0x1D PUSH1 0x24 DUP3 ADD MSTORE PUSH32 0x416464726573733A2063616C6C20746F206E6F6E2D636F6E7472616374000000 PUSH1 0x44 DUP3 ADD MSTORE SWAP1 MLOAD SWAP1 DUP2 SWAP1 SUB PUSH1 0x64 ADD SWAP1 REVERT JUMPDEST PUSH1 0x0 PUSH1 0x60 DUP7 PUSH1 0x1 PUSH1 0x1 PUSH1 0xA0 SHL SUB AND DUP6 DUP8 PUSH1 0x40 MLOAD DUP1 DUP3 DUP1 MLOAD SWAP1 PUSH1 0x20 ADD SWAP1 DUP1 DUP4 DUP4 JUMPDEST PUSH1 0x20 DUP4 LT PUSH2 0x1007 JUMPI DUP1 MLOAD DUP3 MSTORE PUSH1 0x1F NOT SWAP1 SWAP3 ADD SWAP2 PUSH1 0x20 SWAP2 DUP3 ADD SWAP2 ADD PUSH2 0xFE8 JUMP JUMPDEST PUSH1 0x1 DUP4 PUSH1 0x20 SUB PUSH2 0x100 EXP SUB DUP1 NOT DUP3 MLOAD AND DUP2 DUP5 MLOAD AND DUP1 DUP3 OR DUP6 MSTORE POP POP POP POP POP POP SWAP1 POP ADD SWAP2 POP POP PUSH1 0x0 PUSH1 0x40 MLOAD DUP1 DUP4 SUB DUP2 DUP6 DUP8 GAS CALL SWAP3 POP POP POP RETURNDATASIZE DUP1 PUSH1 0x0 DUP2 EQ PUSH2 0x1069 JUMPI PUSH1 0x40 MLOAD SWAP2 POP PUSH1 0x1F NOT PUSH1 0x3F RETURNDATASIZE ADD AND DUP3 ADD PUSH1 0x40 MSTORE RETURNDATASIZE DUP3 MSTORE RETURNDATASIZE PUSH1 0x0 PUSH1 0x20 DUP5 ADD RETURNDATACOPY PUSH2 0x106E JUMP JUMPDEST PUSH1 0x60 SWAP2 POP JUMPDEST POP SWAP2 POP SWAP2 POP DUP2 ISZERO PUSH2 0x1082 JUMPI SWAP2 POP PUSH2 0xF64 SWAP1 POP JUMP JUMPDEST DUP1 MLOAD ISZERO PUSH2 0x1092 JUMPI DUP1 MLOAD DUP1 DUP3 PUSH1 0x20 ADD REVERT JUMPDEST PUSH1 0x40 MLOAD PUSH3 0x461BCD PUSH1 0xE5 SHL DUP2 MSTORE PUSH1 0x20 PUSH1 0x4 DUP3 ADD DUP2 DUP2 MSTORE DUP7 MLOAD PUSH1 0x24 DUP5 ADD MSTORE DUP7 MLOAD DUP8 SWAP4 SWAP2 SWAP3 DUP4 SWAP3 PUSH1 0x44 ADD SWAP2 SWAP1 DUP6 ADD SWAP1 DUP1 DUP4 DUP4 PUSH1 0x0 DUP4 ISZERO PUSH2 0xDF9 JUMPI DUP2 DUP2 ADD MLOAD DUP4 DUP3 ADD MSTORE PUSH1 0x20 ADD PUSH2 0xDE1 JUMP JUMPDEST PUSH1 0x0 DUP2 EXTCODEHASH PUSH32 0xC5D2460186F7233C927E7DB2DCC703C0E500B653CA82273B7BFAD8045D85A470 DUP2 DUP2 EQ DUP1 ISZERO SWAP1 PUSH2 0x454 JUMPI POP POP ISZERO ISZERO SWAP3 SWAP2 POP POP JUMP INVALID MSTORE8 PUSH2 0x6665 TIMESTAMP GASLIMIT POP ORIGIN ADDRESS GASPRICE KECCAK256 TIMESTAMP GASLIMIT POP ORIGIN ADDRESS KECCAK256 PUSH16 0x7065726174696F6E20646964206E6F74 KECCAK256 PUSH20 0x756363656564536166654D6174683A206D756C74 PUSH10 0x706C69636174696F6E20 PUSH16 0x766572666C6F77A26469706673582212 KECCAK256 0xC JUMP 0xCA PC 0xFC 0x24 DIV 0x1F 0xE7 DUP2 BLOCKHASH 0x48 0xBC DUP10 0xD6 0xDA PUSH22 0x8670B1E3442D4EE92385E6EE663EAE64736F6C634300 MOD 0xC STOP CALLER "
				},
				"gasEstimates": {
					"creation": {
						"codeDepositCost": "899800",
						"executionCost": "infinite",
						"totalCost": "infinite"
					},
					"external": {
						"addressList(uint256)": "1992",
						"adminAddress()": "1147",
						"deposit(uint256)": "infinite",
						"endBlock()": "1022",
						"finalWithdraw(uint256,uint256)": "infinite",
						"getAddressListLength()": "1086",
						"getOfferingAmount(address)": "infinite",
						"getRefundingAmount(address)": "infinite",
						"getUserAllocation(address)": "infinite",
						"harvest()": "infinite",
						"hasHarvest(address)": "1271",
						"lpToken()": "1126",
						"offeringAmount()": "1064",
						"offeringToken()": "1148",
						"raisingAmount()": "1043",
						"setOfferingAmount(uint256)": "21941",
						"setRaisingAmount(uint256)": "21874",
						"startBlock()": "1065",
						"totalAmount()": "1066",
						"userInfo(address)": "2015"
					}
				},
				"methodIdentifiers": {
					"addressList(uint256)": "b810fb43",
					"adminAddress()": "fc6f9468",
					"deposit(uint256)": "b6b55f25",
					"endBlock()": "083c6323",
					"finalWithdraw(uint256,uint256)": "9f1b5248",
					"getAddressListLength()": "fc00358e",
					"getOfferingAmount(address)": "87e97bc6",
					"getRefundingAmount(address)": "2f5105f8",
					"getUserAllocation(address)": "b920ade2",
					"harvest()": "4641257d",
					"hasHarvest(address)": "64ce9fff",
					"lpToken()": "5fcbd285",
					"offeringAmount()": "e1af9a95",
					"offeringToken()": "b7813607",
					"raisingAmount()": "9c0a7669",
					"setOfferingAmount(uint256)": "27d1b1a2",
					"setRaisingAmount(uint256)": "4225c32f",
					"startBlock()": "48cd4cb1",
					"totalAmount()": "1a39d8ef",
					"userInfo(address)": "1959a002"
				}
			},
			"storageLayout": {
				"storage": [
					{
						"astId": 919,
						"contract": "Users/leilei/Downloads/MasterChefV2/contracts/pointCenterIfo.sol:IFO",
						"label": "_status",
						"offset": 0,
						"slot": "0",
						"type": "t_uint256"
					},
					{
						"astId": 964,
						"contract": "Users/leilei/Downloads/MasterChefV2/contracts/pointCenterIfo.sol:IFO",
						"label": "adminAddress",
						"offset": 0,
						"slot": "1",
						"type": "t_address"
					},
					{
						"astId": 966,
						"contract": "Users/leilei/Downloads/MasterChefV2/contracts/pointCenterIfo.sol:IFO",
						"label": "lpToken",
						"offset": 0,
						"slot": "2",
						"type": "t_contract(IBEP20)497"
					},
					{
						"astId": 968,
						"contract": "Users/leilei/Downloads/MasterChefV2/contracts/pointCenterIfo.sol:IFO",
						"label": "offeringToken",
						"offset": 0,
						"slot": "3",
						"type": "t_contract(IBEP20)497"
					},
					{
						"astId": 970,
						"contract": "Users/leilei/Downloads/MasterChefV2/contracts/pointCenterIfo.sol:IFO",
						"label": "startBlock",
						"offset": 0,
						"slot": "4",
						"type": "t_uint256"
					},
					{
						"astId": 972,
						"contract": "Users/leilei/Downloads/MasterChefV2/contracts/pointCenterIfo.sol:IFO",
						"label": "endBlock",
						"offset": 0,
						"slot": "5",
						"type": "t_uint256"
					},
					{
						"astId": 974,
						"contract": "Users/leilei/Downloads/MasterChefV2/contracts/pointCenterIfo.sol:IFO",
						"label": "raisingAmount",
						"offset": 0,
						"slot": "6",
						"type": "t_uint256"
					},
					{
						"astId": 976,
						"contract": "Users/leilei/Downloads/MasterChefV2/contracts/pointCenterIfo.sol:IFO",
						"label": "offeringAmount",
						"offset": 0,
						"slot": "7",
						"type": "t_uint256"
					},
					{
						"astId": 978,
						"contract": "Users/leilei/Downloads/MasterChefV2/contracts/pointCenterIfo.sol:IFO",
						"label": "totalAmount",
						"offset": 0,
						"slot": "8",
						"type": "t_uint256"
					},
					{
						"astId": 982,
						"contract": "Users/leilei/Downloads/MasterChefV2/contracts/pointCenterIfo.sol:IFO",
						"label": "userInfo",
						"offset": 0,
						"slot": "9",
						"type": "t_mapping(t_address,t_struct(UserInfo)962_storage)"
					},
					{
						"astId": 985,
						"contract": "Users/leilei/Downloads/MasterChefV2/contracts/pointCenterIfo.sol:IFO",
						"label": "addressList",
						"offset": 0,
						"slot": "10",
						"type": "t_array(t_address)dyn_storage"
					}
				],
				"types": {
					"t_address": {
						"encoding": "inplace",
						"label": "address",
						"numberOfBytes": "20"
					},
					"t_array(t_address)dyn_storage": {
						"base": "t_address",
						"encoding": "dynamic_array",
						"label": "address[]",
						"numberOfBytes": "32"
					},
					"t_bool": {
						"encoding": "inplace",
						"label": "bool",
						"numberOfBytes": "1"
					},
					"t_contract(IBEP20)497": {
						"encoding": "inplace",
						"label": "contract IBEP20",
						"numberOfBytes": "20"
					},
					"t_mapping(t_address,t_struct(UserInfo)962_storage)": {
						"encoding": "mapping",
						"key": "t_address",
						"label": "mapping(address => struct IFO.UserInfo)",
						"numberOfBytes": "32",
						"value": "t_struct(UserInfo)962_storage"
					},
					"t_struct(UserInfo)962_storage": {
						"encoding": "inplace",
						"label": "struct IFO.UserInfo",
						"members": [
							{
								"astId": 959,
								"contract": "Users/leilei/Downloads/MasterChefV2/contracts/pointCenterIfo.sol:IFO",
								"label": "amount",
								"offset": 0,
								"slot": "0",
								"type": "t_uint256"
							},
							{
								"astId": 961,
								"contract": "Users/leilei/Downloads/MasterChefV2/contracts/pointCenterIfo.sol:IFO",
								"label": "claimed",
								"offset": 0,
								"slot": "1",
								"type": "t_bool"
							}
						],
						"numberOfBytes": "64"
					},
					"t_uint256": {
						"encoding": "inplace",
						"label": "uint256",
						"numberOfBytes": "32"
					}
				}
			},
			"userdoc": {
				"kind": "user",
				"methods": {},
				"version": 1
			}
		}
	}
}