{
	"Users/leilei/Downloads/MasterChefV2/contracts/PancakeBunnies.sol": {
		"PancakeBunnies": {
			"abi": [
				{
					"inputs": [
						{
							"internalType": "string",
							"name": "_baseURI",
							"type": "string"
						}
					],
					"stateMutability": "nonpayable",
					"type": "constructor"
				},
				{
					"anonymous": false,
					"inputs": [
						{
							"indexed": true,
							"internalType": "address",
							"name": "owner",
							"type": "address"
						},
						{
							"indexed": true,
							"internalType": "address",
							"name": "approved",
							"type": "address"
						},
						{
							"indexed": true,
							"internalType": "uint256",
							"name": "tokenId",
							"type": "uint256"
						}
					],
					"name": "Approval",
					"type": "event"
				},
				{
					"anonymous": false,
					"inputs": [
						{
							"indexed": true,
							"internalType": "address",
							"name": "owner",
							"type": "address"
						},
						{
							"indexed": true,
							"internalType": "address",
							"name": "operator",
							"type": "address"
						},
						{
							"indexed": false,
							"internalType": "bool",
							"name": "approved",
							"type": "bool"
						}
					],
					"name": "ApprovalForAll",
					"type": "event"
				},
				{
					"anonymous": false,
					"inputs": [
						{
							"indexed": true,
							"internalType": "address",
							"name": "previousOwner",
							"type": "address"
						},
						{
							"indexed": true,
							"internalType": "address",
							"name": "newOwner",
							"type": "address"
						}
					],
					"name": "OwnershipTransferred",
					"type": "event"
				},
				{
					"anonymous": false,
					"inputs": [
						{
							"indexed": true,
							"internalType": "address",
							"name": "from",
							"type": "address"
						},
						{
							"indexed": true,
							"internalType": "address",
							"name": "to",
							"type": "address"
						},
						{
							"indexed": true,
							"internalType": "uint256",
							"name": "tokenId",
							"type": "uint256"
						}
					],
					"name": "Transfer",
					"type": "event"
				},
				{
					"inputs": [
						{
							"internalType": "address",
							"name": "to",
							"type": "address"
						},
						{
							"internalType": "uint256",
							"name": "tokenId",
							"type": "uint256"
						}
					],
					"name": "approve",
					"outputs": [],
					"stateMutability": "nonpayable",
					"type": "function"
				},
				{
					"inputs": [
						{
							"internalType": "address",
							"name": "owner",
							"type": "address"
						}
					],
					"name": "balanceOf",
					"outputs": [
						{
							"internalType": "uint256",
							"name": "",
							"type": "uint256"
						}
					],
					"stateMutability": "view",
					"type": "function"
				},
				{
					"inputs": [],
					"name": "baseURI",
					"outputs": [
						{
							"internalType": "string",
							"name": "",
							"type": "string"
						}
					],
					"stateMutability": "view",
					"type": "function"
				},
				{
					"inputs": [
						{
							"internalType": "uint8",
							"name": "",
							"type": "uint8"
						}
					],
					"name": "bunnyBurnCount",
					"outputs": [
						{
							"internalType": "uint256",
							"name": "",
							"type": "uint256"
						}
					],
					"stateMutability": "view",
					"type": "function"
				},
				{
					"inputs": [
						{
							"internalType": "uint8",
							"name": "",
							"type": "uint8"
						}
					],
					"name": "bunnyCount",
					"outputs": [
						{
							"internalType": "uint256",
							"name": "",
							"type": "uint256"
						}
					],
					"stateMutability": "view",
					"type": "function"
				},
				{
					"inputs": [
						{
							"internalType": "uint256",
							"name": "_tokenId",
							"type": "uint256"
						}
					],
					"name": "burn",
					"outputs": [],
					"stateMutability": "nonpayable",
					"type": "function"
				},
				{
					"inputs": [
						{
							"internalType": "uint256",
							"name": "tokenId",
							"type": "uint256"
						}
					],
					"name": "getApproved",
					"outputs": [
						{
							"internalType": "address",
							"name": "",
							"type": "address"
						}
					],
					"stateMutability": "view",
					"type": "function"
				},
				{
					"inputs": [
						{
							"internalType": "uint256",
							"name": "_tokenId",
							"type": "uint256"
						}
					],
					"name": "getBunnyId",
					"outputs": [
						{
							"internalType": "uint8",
							"name": "",
							"type": "uint8"
						}
					],
					"stateMutability": "view",
					"type": "function"
				},
				{
					"inputs": [
						{
							"internalType": "uint8",
							"name": "_bunnyId",
							"type": "uint8"
						}
					],
					"name": "getBunnyName",
					"outputs": [
						{
							"internalType": "string",
							"name": "",
							"type": "string"
						}
					],
					"stateMutability": "view",
					"type": "function"
				},
				{
					"inputs": [
						{
							"internalType": "uint256",
							"name": "_tokenId",
							"type": "uint256"
						}
					],
					"name": "getBunnyNameOfTokenId",
					"outputs": [
						{
							"internalType": "string",
							"name": "",
							"type": "string"
						}
					],
					"stateMutability": "view",
					"type": "function"
				},
				{
					"inputs": [
						{
							"internalType": "address",
							"name": "owner",
							"type": "address"
						},
						{
							"internalType": "address",
							"name": "operator",
							"type": "address"
						}
					],
					"name": "isApprovedForAll",
					"outputs": [
						{
							"internalType": "bool",
							"name": "",
							"type": "bool"
						}
					],
					"stateMutability": "view",
					"type": "function"
				},
				{
					"inputs": [
						{
							"internalType": "address",
							"name": "_to",
							"type": "address"
						},
						{
							"internalType": "string",
							"name": "_tokenURI",
							"type": "string"
						},
						{
							"internalType": "uint8",
							"name": "_bunnyId",
							"type": "uint8"
						}
					],
					"name": "mint",
					"outputs": [
						{
							"internalType": "uint256",
							"name": "",
							"type": "uint256"
						}
					],
					"stateMutability": "nonpayable",
					"type": "function"
				},
				{
					"inputs": [],
					"name": "name",
					"outputs": [
						{
							"internalType": "string",
							"name": "",
							"type": "string"
						}
					],
					"stateMutability": "view",
					"type": "function"
				},
				{
					"inputs": [],
					"name": "owner",
					"outputs": [
						{
							"internalType": "address",
							"name": "",
							"type": "address"
						}
					],
					"stateMutability": "view",
					"type": "function"
				},
				{
					"inputs": [
						{
							"internalType": "uint256",
							"name": "tokenId",
							"type": "uint256"
						}
					],
					"name": "ownerOf",
					"outputs": [
						{
							"internalType": "address",
							"name": "",
							"type": "address"
						}
					],
					"stateMutability": "view",
					"type": "function"
				},
				{
					"inputs": [],
					"name": "renounceOwnership",
					"outputs": [],
					"stateMutability": "nonpayable",
					"type": "function"
				},
				{
					"inputs": [
						{
							"internalType": "address",
							"name": "from",
							"type": "address"
						},
						{
							"internalType": "address",
							"name": "to",
							"type": "address"
						},
						{
							"internalType": "uint256",
							"name": "tokenId",
							"type": "uint256"
						}
					],
					"name": "safeTransferFrom",
					"outputs": [],
					"stateMutability": "nonpayable",
					"type": "function"
				},
				{
					"inputs": [
						{
							"internalType": "address",
							"name": "from",
							"type": "address"
						},
						{
							"internalType": "address",
							"name": "to",
							"type": "address"
						},
						{
							"internalType": "uint256",
							"name": "tokenId",
							"type": "uint256"
						},
						{
							"internalType": "bytes",
							"name": "_data",
							"type": "bytes"
						}
					],
					"name": "safeTransferFrom",
					"outputs": [],
					"stateMutability": "nonpayable",
					"type": "function"
				},
				{
					"inputs": [
						{
							"internalType": "address",
							"name": "operator",
							"type": "address"
						},
						{
							"internalType": "bool",
							"name": "approved",
							"type": "bool"
						}
					],
					"name": "setApprovalForAll",
					"outputs": [],
					"stateMutability": "nonpayable",
					"type": "function"
				},
				{
					"inputs": [
						{
							"internalType": "uint8",
							"name": "_bunnyId",
							"type": "uint8"
						},
						{
							"internalType": "string",
							"name": "_name",
							"type": "string"
						}
					],
					"name": "setBunnyName",
					"outputs": [],
					"stateMutability": "nonpayable",
					"type": "function"
				},
				{
					"inputs": [
						{
							"internalType": "bytes4",
							"name": "interfaceId",
							"type": "bytes4"
						}
					],
					"name": "supportsInterface",
					"outputs": [
						{
							"internalType": "bool",
							"name": "",
							"type": "bool"
						}
					],
					"stateMutability": "view",
					"type": "function"
				},
				{
					"inputs": [],
					"name": "symbol",
					"outputs": [
						{
							"internalType": "string",
							"name": "",
							"type": "string"
						}
					],
					"stateMutability": "view",
					"type": "function"
				},
				{
					"inputs": [
						{
							"internalType": "uint256",
							"name": "index",
							"type": "uint256"
						}
					],
					"name": "tokenByIndex",
					"outputs": [
						{
							"internalType": "uint256",
							"name": "",
							"type": "uint256"
						}
					],
					"stateMutability": "view",
					"type": "function"
				},
				{
					"inputs": [
						{
							"internalType": "address",
							"name": "owner",
							"type": "address"
						},
						{
							"internalType": "uint256",
							"name": "index",
							"type": "uint256"
						}
					],
					"name": "tokenOfOwnerByIndex",
					"outputs": [
						{
							"internalType": "uint256",
							"name": "",
							"type": "uint256"
						}
					],
					"stateMutability": "view",
					"type": "function"
				},
				{
					"inputs": [
						{
							"internalType": "uint256",
							"name": "tokenId",
							"type": "uint256"
						}
					],
					"name": "tokenURI",
					"outputs": [
						{
							"internalType": "string",
							"name": "",
							"type": "string"
						}
					],
					"stateMutability": "view",
					"type": "function"
				},
				{
					"inputs": [],
					"name": "totalSupply",
					"outputs": [
						{
							"internalType": "uint256",
							"name": "",
							"type": "uint256"
						}
					],
					"stateMutability": "view",
					"type": "function"
				},
				{
					"inputs": [
						{
							"internalType": "address",
							"name": "from",
							"type": "address"
						},
						{
							"internalType": "address",
							"name": "to",
							"type": "address"
						},
						{
							"internalType": "uint256",
							"name": "tokenId",
							"type": "uint256"
						}
					],
					"name": "transferFrom",
					"outputs": [],
					"stateMutability": "nonpayable",
					"type": "function"
				},
				{
					"inputs": [
						{
							"internalType": "address",
							"name": "newOwner",
							"type": "address"
						}
					],
					"name": "transferOwnership",
					"outputs": [],
					"stateMutability": "nonpayable",
					"type": "function"
				}
			],
			"devdoc": {
				"methods": {
					"approve(address,uint256)": {
						"details": "See {IERC721-approve}."
					},
					"balanceOf(address)": {
						"details": "See {IERC721-balanceOf}."
					},
					"baseURI()": {
						"details": "Returns the base URI set via {_setBaseURI}. This will be automatically added as a prefix in {tokenURI} to each token's URI, or to the token ID if no specific URI is set for that token ID."
					},
					"burn(uint256)": {
						"details": "Burn a NFT token. Callable by owner only."
					},
					"getApproved(uint256)": {
						"details": "See {IERC721-getApproved}."
					},
					"getBunnyId(uint256)": {
						"details": "Get bunnyId for a specific tokenId."
					},
					"getBunnyName(uint8)": {
						"details": "Get the associated bunnyName for a specific bunnyId."
					},
					"getBunnyNameOfTokenId(uint256)": {
						"details": "Get the associated bunnyName for a unique tokenId."
					},
					"isApprovedForAll(address,address)": {
						"details": "See {IERC721-isApprovedForAll}."
					},
					"mint(address,string,uint8)": {
						"details": "Mint NFTs. Only the owner can call it."
					},
					"name()": {
						"details": "See {IERC721Metadata-name}."
					},
					"owner()": {
						"details": "Returns the address of the current owner."
					},
					"ownerOf(uint256)": {
						"details": "See {IERC721-ownerOf}."
					},
					"renounceOwnership()": {
						"details": "Leaves the contract without owner. It will not be possible to call `onlyOwner` functions anymore. Can only be called by the current owner.     * NOTE: Renouncing ownership will leave the contract without an owner, thereby removing any functionality that is only available to the owner."
					},
					"safeTransferFrom(address,address,uint256)": {
						"details": "See {IERC721-safeTransferFrom}."
					},
					"safeTransferFrom(address,address,uint256,bytes)": {
						"details": "See {IERC721-safeTransferFrom}."
					},
					"setApprovalForAll(address,bool)": {
						"details": "See {IERC721-setApprovalForAll}."
					},
					"setBunnyName(uint8,string)": {
						"details": "Set a unique name for each bunnyId. It is supposed to be called once."
					},
					"supportsInterface(bytes4)": {
						"details": "See {IERC165-supportsInterface}.     * Time complexity O(1), guaranteed to always use less than 30 000 gas."
					},
					"symbol()": {
						"details": "See {IERC721Metadata-symbol}."
					},
					"tokenByIndex(uint256)": {
						"details": "See {IERC721Enumerable-tokenByIndex}."
					},
					"tokenOfOwnerByIndex(address,uint256)": {
						"details": "See {IERC721Enumerable-tokenOfOwnerByIndex}."
					},
					"tokenURI(uint256)": {
						"details": "See {IERC721Metadata-tokenURI}."
					},
					"totalSupply()": {
						"details": "See {IERC721Enumerable-totalSupply}."
					},
					"transferFrom(address,address,uint256)": {
						"details": "See {IERC721-transferFrom}."
					},
					"transferOwnership(address)": {
						"details": "Transfers ownership of the contract to a new account (`newOwner`). Can only be called by the current owner."
					}
				}
			},
			"evm": {
				"assembly": "    /* \"Users/leilei/Downloads/MasterChefV2/contracts/PancakeBunnies.sol\":61684:64145  contract PancakeBunnies is ERC721, Ownable {... */\n  mstore(0x40, 0x80)\n    /* \"Users/leilei/Downloads/MasterChefV2/contracts/PancakeBunnies.sol\":62249:62362  constructor(string memory _baseURI) public ERC721(\"Pancake Bunnies\", \"PB\") {... */\n  callvalue\n    /* \"--CODEGEN--\":5:14   */\n  dup1\n    /* \"--CODEGEN--\":2:4   */\n  iszero\n  tag_1\n  jumpi\n    /* \"--CODEGEN--\":27:28   */\n  0x00\n    /* \"--CODEGEN--\":24:25   */\n  dup1\n    /* \"--CODEGEN--\":17:29   */\n  revert\n    /* \"--CODEGEN--\":2:4   */\ntag_1:\n    /* \"Users/leilei/Downloads/MasterChefV2/contracts/PancakeBunnies.sol\":62249:62362  constructor(string memory _baseURI) public ERC721(\"Pancake Bunnies\", \"PB\") {... */\n  pop\n  mload(0x40)\n  sub(codesize, bytecodeSize)\n  dup1\n  bytecodeSize\n  dup4\n  codecopy\n  dup2\n  dup2\n  add\n  0x40\n  mstore\n    /* \"--CODEGEN--\":15:17   */\n  0x20\n    /* \"--CODEGEN--\":10:13   */\n  dup2\n    /* \"--CODEGEN--\":7:18   */\n  lt\n    /* \"--CODEGEN--\":4:6   */\n  iszero\n  tag_2\n  jumpi\n    /* \"--CODEGEN--\":31:32   */\n  0x00\n    /* \"--CODEGEN--\":28:29   */\n  dup1\n    /* \"--CODEGEN--\":21:33   */\n  revert\n    /* \"--CODEGEN--\":4:6   */\ntag_2:\n    /* \"Users/leilei/Downloads/MasterChefV2/contracts/PancakeBunnies.sol\":62249:62362  constructor(string memory _baseURI) public ERC721(\"Pancake Bunnies\", \"PB\") {... */\n  dup2\n  add\n  swap1\n  dup1\n  dup1\n  mload\n  mload(0x40)\n  swap4\n  swap3\n  swap2\n  swap1\n  dup5\n    /* \"--CODEGEN--\":19:30   */\n  0x0100000000\n    /* \"--CODEGEN--\":14:17   */\n  dup3\n    /* \"--CODEGEN--\":11:31   */\n  gt\n    /* \"--CODEGEN--\":8:10   */\n  iszero\n  tag_3\n  jumpi\n    /* \"--CODEGEN--\":44:45   */\n  0x00\n    /* \"--CODEGEN--\":41:42   */\n  dup1\n    /* \"--CODEGEN--\":34:46   */\n  revert\n    /* \"--CODEGEN--\":8:10   */\ntag_3:\n    /* \"--CODEGEN--\":62:83   */\n  swap1\n  dup4\n  add\n  swap1\n    /* \"--CODEGEN--\":123:127   */\n  0x20\n    /* \"--CODEGEN--\":114:128   */\n  dup3\n  add\n    /* \"--CODEGEN--\":138:169   */\n  dup6\n  dup2\n  gt\n    /* \"--CODEGEN--\":135:137   */\n  iszero\n  tag_4\n  jumpi\n    /* \"--CODEGEN--\":182:183   */\n  0x00\n    /* \"--CODEGEN--\":179:180   */\n  dup1\n    /* \"--CODEGEN--\":172:184   */\n  revert\n    /* \"--CODEGEN--\":135:137   */\ntag_4:\n    /* \"--CODEGEN--\":213:223   */\n  dup3\n  mload\n    /* \"--CODEGEN--\":261:272   */\n  0x0100000000\n    /* \"--CODEGEN--\":244:273   */\n  dup2\n  gt\n    /* \"--CODEGEN--\":285:328   */\n  dup3\n  dup3\n  add\n    /* \"--CODEGEN--\":282:340   */\n  dup9\n  lt\n    /* \"--CODEGEN--\":233:348   */\n  or\n    /* \"--CODEGEN--\":230:232   */\n  iszero\n  tag_5\n  jumpi\n    /* \"--CODEGEN--\":361:362   */\n  0x00\n    /* \"--CODEGEN--\":358:359   */\n  dup1\n    /* \"--CODEGEN--\":351:363   */\n  revert\n    /* \"--CODEGEN--\":230:232   */\ntag_5:\n    /* \"--CODEGEN--\":372:397   */\n  dup3\n  mstore\n  pop\n    /* \"Users/leilei/Downloads/MasterChefV2/contracts/PancakeBunnies.sol\":62249:62362  constructor(string memory _baseURI) public ERC721(\"Pancake Bunnies\", \"PB\") {... */\n  dup2\n  mload\n    /* \"--CODEGEN--\":420:424   */\n  0x20\n    /* \"--CODEGEN--\":411:425   */\n  swap2\n  dup3\n  add\n  swap3\n    /* \"Users/leilei/Downloads/MasterChefV2/contracts/PancakeBunnies.sol\":62249:62362  constructor(string memory _baseURI) public ERC721(\"Pancake Bunnies\", \"PB\") {... */\n  swap1\n  swap2\n  add\n  swap1\n  dup1\n    /* \"--CODEGEN--\":411:425   */\n  dup4\n    /* \"Users/leilei/Downloads/MasterChefV2/contracts/PancakeBunnies.sol\":62249:62362  constructor(string memory _baseURI) public ERC721(\"Pancake Bunnies\", \"PB\") {... */\n  dup4\n    /* \"--CODEGEN--\":23:24   */\n  0x00\n    /* \"--CODEGEN--\":8:108   */\ntag_6:\n    /* \"--CODEGEN--\":33:36   */\n  dup4\n    /* \"--CODEGEN--\":30:31   */\n  dup2\n    /* \"--CODEGEN--\":27:37   */\n  lt\n    /* \"--CODEGEN--\":8:108   */\n  iszero\n  tag_8\n  jumpi\n    /* \"--CODEGEN--\":90:101   */\n  dup2\n  dup2\n  add\n    /* \"--CODEGEN--\":84:102   */\n  mload\n    /* \"--CODEGEN--\":71:82   */\n  dup4\n  dup3\n  add\n    /* \"--CODEGEN--\":64:103   */\n  mstore\n    /* \"--CODEGEN--\":52:54   */\n  0x20\n    /* \"--CODEGEN--\":45:55   */\n  add\n    /* \"--CODEGEN--\":8:108   */\n  jump(tag_6)\ntag_8:\n    /* \"--CODEGEN--\":12:26   */\n  pop\n    /* \"Users/leilei/Downloads/MasterChefV2/contracts/PancakeBunnies.sol\":62249:62362  constructor(string memory _baseURI) public ERC721(\"Pancake Bunnies\", \"PB\") {... */\n  pop\n  pop\n  pop\n  swap1\n  pop\n  swap1\n  dup2\n  add\n  swap1\n  0x1f\n  and\n  dup1\n  iszero\n  tag_9\n  jumpi\n  dup1\n  dup3\n  sub\n  dup1\n  mload\n  0x01\n  dup4\n  0x20\n  sub\n  0x0100\n  exp\n  sub\n  not\n  and\n  dup2\n  mstore\n  0x20\n  add\n  swap2\n  pop\ntag_9:\n  pop\n  0x40\n    /* \"Users/leilei/Downloads/MasterChefV2/contracts/PancakeBunnies.sol\":48437:48806  constructor (string memory name_, string memory symbol_) public {... */\n  dup2\n  dup2\n  add\n  dup2\n  mstore\n  0x0f\n  dup3\n  mstore\n  shl(0x88, 0x50616e63616b652042756e6e696573)\n  0x20\n  dup1\n  dup5\n  add\n  swap2\n  swap1\n  swap2\n  mstore\n  dup2\n  mload\n  dup1\n  dup4\n  add\n  swap1\n  swap3\n  mstore\n  0x02\n  dup3\n  mstore\n  shl(0xf1, 0x2821)\n  swap1\n  dup3\n  add\n  mstore\n    /* \"Users/leilei/Downloads/MasterChefV2/contracts/PancakeBunnies.sol\":62249:62362  constructor(string memory _baseURI) public ERC721(\"Pancake Bunnies\", \"PB\") {... */\n  swap1\n  swap4\n  pop\n    /* \"Users/leilei/Downloads/MasterChefV2/contracts/PancakeBunnies.sol\":48437:48806  constructor (string memory name_, string memory symbol_) public {... */\n  swap2\n  pop\n    /* \"Users/leilei/Downloads/MasterChefV2/contracts/PancakeBunnies.sol\":18724:18764  _registerInterface(_INTERFACE_ID_ERC165) */\n  tag_15\n  swap1\n  pop\n  shl(0xe0, 0x01ffc9a7)\n  sub(shl(0xe0, 0x01), 0x01)\n    /* \"Users/leilei/Downloads/MasterChefV2/contracts/PancakeBunnies.sol\":18724:18742  _registerInterface */\n  tag_16\n    /* \"Users/leilei/Downloads/MasterChefV2/contracts/PancakeBunnies.sol\":18724:18764  _registerInterface(_INTERFACE_ID_ERC165) */\n  and\n  jump\t// in\ntag_15:\n    /* \"Users/leilei/Downloads/MasterChefV2/contracts/PancakeBunnies.sol\":48511:48524  _name = name_ */\n  dup2\n  mload\n  tag_18\n  swap1\n    /* \"Users/leilei/Downloads/MasterChefV2/contracts/PancakeBunnies.sol\":48511:48516  _name */\n  0x06\n  swap1\n    /* \"Users/leilei/Downloads/MasterChefV2/contracts/PancakeBunnies.sol\":48511:48524  _name = name_ */\n  0x20\n  dup6\n  add\n  swap1\n  tag_19\n  jump\t// in\ntag_18:\n  pop\n    /* \"Users/leilei/Downloads/MasterChefV2/contracts/PancakeBunnies.sol\":48534:48551  _symbol = symbol_ */\n  dup1\n  mload\n  tag_20\n  swap1\n    /* \"Users/leilei/Downloads/MasterChefV2/contracts/PancakeBunnies.sol\":48534:48541  _symbol */\n  0x07\n  swap1\n    /* \"Users/leilei/Downloads/MasterChefV2/contracts/PancakeBunnies.sol\":48534:48551  _symbol = symbol_ */\n  0x20\n  dup5\n  add\n  swap1\n  tag_19\n  jump\t// in\ntag_20:\n  pop\n    /* \"Users/leilei/Downloads/MasterChefV2/contracts/PancakeBunnies.sol\":48639:48679  _registerInterface(_INTERFACE_ID_ERC721) */\n  tag_21\n  shl(0xe0, 0x80ac58cd)\n  sub(shl(0xe0, 0x01), 0x01)\n    /* \"Users/leilei/Downloads/MasterChefV2/contracts/PancakeBunnies.sol\":48639:48657  _registerInterface */\n  tag_16\n    /* \"Users/leilei/Downloads/MasterChefV2/contracts/PancakeBunnies.sol\":48639:48679  _registerInterface(_INTERFACE_ID_ERC721) */\n  and\n  jump\t// in\ntag_21:\n    /* \"Users/leilei/Downloads/MasterChefV2/contracts/PancakeBunnies.sol\":48689:48738  _registerInterface(_INTERFACE_ID_ERC721_METADATA) */\n  tag_22\n  shl(0xe0, 0x5b5e139f)\n  sub(shl(0xe0, 0x01), 0x01)\n    /* \"Users/leilei/Downloads/MasterChefV2/contracts/PancakeBunnies.sol\":48689:48707  _registerInterface */\n  tag_16\n    /* \"Users/leilei/Downloads/MasterChefV2/contracts/PancakeBunnies.sol\":48689:48738  _registerInterface(_INTERFACE_ID_ERC721_METADATA) */\n  and\n  jump\t// in\ntag_22:\n    /* \"Users/leilei/Downloads/MasterChefV2/contracts/PancakeBunnies.sol\":48748:48799  _registerInterface(_INTERFACE_ID_ERC721_ENUMERABLE) */\n  tag_23\n  shl(0xe0, 0x780e9d63)\n  sub(shl(0xe0, 0x01), 0x01)\n    /* \"Users/leilei/Downloads/MasterChefV2/contracts/PancakeBunnies.sol\":48748:48766  _registerInterface */\n  tag_16\n    /* \"Users/leilei/Downloads/MasterChefV2/contracts/PancakeBunnies.sol\":48748:48799  _registerInterface(_INTERFACE_ID_ERC721_ENUMERABLE) */\n  and\n  jump\t// in\ntag_23:\n  pop\n    /* \"Users/leilei/Downloads/MasterChefV2/contracts/PancakeBunnies.sol\":1898:1915  address msgSender */\n  0x00\n  swap1\n  pop\n    /* \"Users/leilei/Downloads/MasterChefV2/contracts/PancakeBunnies.sol\":1918:1930  _msgSender() */\n  tag_25\n  sub(shl(0xe0, 0x01), 0x01)\n    /* \"Users/leilei/Downloads/MasterChefV2/contracts/PancakeBunnies.sol\":1918:1928  _msgSender */\n  tag_26\n    /* \"Users/leilei/Downloads/MasterChefV2/contracts/PancakeBunnies.sol\":1918:1930  _msgSender() */\n  and\n  jump\t// in\ntag_25:\n    /* \"Users/leilei/Downloads/MasterChefV2/contracts/PancakeBunnies.sol\":1940:1946  _owner */\n  0x0a\n    /* \"Users/leilei/Downloads/MasterChefV2/contracts/PancakeBunnies.sol\":1940:1958  _owner = msgSender */\n  dup1\n  sload\n  not(sub(shl(0xa0, 0x01), 0x01))\n  and\n  sub(shl(0xa0, 0x01), 0x01)\n  dup4\n  and\n  swap1\n  dup2\n  or\n  swap1\n  swap2\n  sstore\n    /* \"Users/leilei/Downloads/MasterChefV2/contracts/PancakeBunnies.sol\":1973:2016  OwnershipTransferred(address(0), msgSender) */\n  mload(0x40)\n    /* \"Users/leilei/Downloads/MasterChefV2/contracts/PancakeBunnies.sol\":1940:1958  _owner = msgSender */\n  swap2\n  swap3\n  pop\n  swap1\n  0x00\n  swap1\n    /* \"Users/leilei/Downloads/MasterChefV2/contracts/PancakeBunnies.sol\":1973:2016  OwnershipTransferred(address(0), msgSender) */\n  0x8be0079c531659141344cd1fd0a4f28419497f9722a3daafe3b4186f6b6457e0\n  swap1\n  dup3\n  swap1\n  log3\n  pop\n    /* \"Users/leilei/Downloads/MasterChefV2/contracts/PancakeBunnies.sol\":62334:62355  _setBaseURI(_baseURI) */\n  tag_28\n    /* \"Users/leilei/Downloads/MasterChefV2/contracts/PancakeBunnies.sol\":62346:62354  _baseURI */\n  dup2\n  sub(shl(0xe0, 0x01), 0x01)\n    /* \"Users/leilei/Downloads/MasterChefV2/contracts/PancakeBunnies.sol\":62334:62345  _setBaseURI */\n  tag_29\n    /* \"Users/leilei/Downloads/MasterChefV2/contracts/PancakeBunnies.sol\":62334:62355  _setBaseURI(_baseURI) */\n  and\n  jump\t// in\ntag_28:\n    /* \"Users/leilei/Downloads/MasterChefV2/contracts/PancakeBunnies.sol\":62249:62362  constructor(string memory _baseURI) public ERC721(\"Pancake Bunnies\", \"PB\") {... */\n  pop\n    /* \"Users/leilei/Downloads/MasterChefV2/contracts/PancakeBunnies.sol\":61684:64145  contract PancakeBunnies is ERC721, Ownable {... */\n  jump(tag_30)\n    /* \"Users/leilei/Downloads/MasterChefV2/contracts/PancakeBunnies.sol\":19455:19653  function _registerInterface(bytes4 interfaceId) internal virtual {... */\ntag_16:\n  not(sub(shl(0xe0, 0x01), 0x01))\n    /* \"Users/leilei/Downloads/MasterChefV2/contracts/PancakeBunnies.sol\":19538:19563  interfaceId != 0xffffffff */\n  dup1\n  dup3\n  and\n  eq\n  iszero\n    /* \"Users/leilei/Downloads/MasterChefV2/contracts/PancakeBunnies.sol\":19530:19596  require(interfaceId != 0xffffffff, \"ERC165: invalid interface id\") */\n  tag_32\n  jumpi\n  0x40\n  dup1\n  mload\n  shl(0xe5, 0x461bcd)\n  dup2\n  mstore\n  0x20\n  0x04\n  dup3\n  add\n  mstore\n  0x1c\n  0x24\n  dup3\n  add\n  mstore\n  0x4552433136353a20696e76616c696420696e7465726661636520696400000000\n  0x44\n  dup3\n  add\n  mstore\n  swap1\n  mload\n  swap1\n  dup2\n  swap1\n  sub\n  0x64\n  add\n  swap1\n  revert\ntag_32:\n  not(sub(shl(0xe0, 0x01), 0x01))\n    /* \"Users/leilei/Downloads/MasterChefV2/contracts/PancakeBunnies.sol\":19606:19639  _supportedInterfaces[interfaceId] */\n  and\n    /* \"Users/leilei/Downloads/MasterChefV2/contracts/PancakeBunnies.sol\":19606:19626  _supportedInterfaces */\n  0x00\n    /* \"Users/leilei/Downloads/MasterChefV2/contracts/PancakeBunnies.sol\":19606:19639  _supportedInterfaces[interfaceId] */\n  swap1\n  dup2\n  mstore\n  0x20\n  dup2\n  swap1\n  mstore\n  0x40\n  swap1\n  keccak256\n    /* \"Users/leilei/Downloads/MasterChefV2/contracts/PancakeBunnies.sol\":19606:19646  _supportedInterfaces[interfaceId] = true */\n  dup1\n  sload\n  not(0xff)\n  and\n    /* \"Users/leilei/Downloads/MasterChefV2/contracts/PancakeBunnies.sol\":19642:19646  true */\n  0x01\n    /* \"Users/leilei/Downloads/MasterChefV2/contracts/PancakeBunnies.sol\":19606:19646  _supportedInterfaces[interfaceId] = true */\n  or\n  swap1\n  sstore\n    /* \"Users/leilei/Downloads/MasterChefV2/contracts/PancakeBunnies.sol\":19455:19653  function _registerInterface(bytes4 interfaceId) internal virtual {... */\n  jump\t// out\n    /* \"Users/leilei/Downloads/MasterChefV2/contracts/PancakeBunnies.sol\":681:785  function _msgSender() internal view virtual returns (address payable) {... */\ntag_26:\n    /* \"Users/leilei/Downloads/MasterChefV2/contracts/PancakeBunnies.sol\":768:778  msg.sender */\n  caller\n    /* \"Users/leilei/Downloads/MasterChefV2/contracts/PancakeBunnies.sol\":681:785  function _msgSender() internal view virtual returns (address payable) {... */\ntag_33:\n  swap1\n  jump\t// out\n    /* \"Users/leilei/Downloads/MasterChefV2/contracts/PancakeBunnies.sol\":59524:59622  function _setBaseURI(string memory baseURI_) internal virtual {... */\ntag_29:\n    /* \"Users/leilei/Downloads/MasterChefV2/contracts/PancakeBunnies.sol\":59596:59615  _baseURI = baseURI_ */\n  dup1\n  mload\n  tag_35\n  swap1\n    /* \"Users/leilei/Downloads/MasterChefV2/contracts/PancakeBunnies.sol\":59596:59604  _baseURI */\n  0x09\n  swap1\n    /* \"Users/leilei/Downloads/MasterChefV2/contracts/PancakeBunnies.sol\":59596:59615  _baseURI = baseURI_ */\n  0x20\n  dup5\n  add\n  swap1\n  tag_19\n  jump\t// in\ntag_35:\n  pop\n    /* \"Users/leilei/Downloads/MasterChefV2/contracts/PancakeBunnies.sol\":59524:59622  function _setBaseURI(string memory baseURI_) internal virtual {... */\n  pop\n  jump\t// out\n    /* \"Users/leilei/Downloads/MasterChefV2/contracts/PancakeBunnies.sol\":61684:64145  contract PancakeBunnies is ERC721, Ownable {... */\ntag_19:\n  dup3\n  dup1\n  sload\n  0x01\n  dup2\n  0x01\n  and\n  iszero\n  0x0100\n  mul\n  sub\n  and\n  0x02\n  swap1\n  div\n  swap1\n  0x00\n  mstore\n  keccak256(0x00, 0x20)\n  swap1\n  0x1f\n  add\n  0x20\n  swap1\n  div\n  dup2\n  add\n  swap3\n  dup3\n  0x1f\n  lt\n  tag_37\n  jumpi\n  dup1\n  mload\n  not(0xff)\n  and\n  dup4\n  dup1\n  add\n  or\n  dup6\n  sstore\n  jump(tag_39)\ntag_37:\n  dup3\n  dup1\n  add\n  0x01\n  add\n  dup6\n  sstore\n  dup3\n  iszero\n  tag_39\n  jumpi\n  swap2\n  dup3\n  add\ntag_38:\n  dup3\n  dup2\n  gt\n  iszero\n  tag_39\n  jumpi\n  dup3\n  mload\n  dup3\n  sstore\n  swap2\n  0x20\n  add\n  swap2\n  swap1\n  0x01\n  add\n  swap1\n  jump(tag_38)\ntag_39:\n  pop\n  tag_40\n  swap3\n  swap2\n  pop\n  tag_41\n  jump\t// in\ntag_40:\n  pop\n  swap1\n  jump\t// out\ntag_41:\n  tag_33\n  swap2\n  swap1\ntag_43:\n  dup1\n  dup3\n  gt\n  iszero\n  tag_40\n  jumpi\n  0x00\n  dup2\n  sstore\n  0x01\n  add\n  jump(tag_43)\ntag_30:\n  dataSize(sub_0)\n  dup1\n  dataOffset(sub_0)\n  0x00\n  codecopy\n  0x00\n  return\nstop\n\nsub_0: assembly {\n        /* \"Users/leilei/Downloads/MasterChefV2/contracts/PancakeBunnies.sol\":61684:64145  contract PancakeBunnies is ERC721, Ownable {... */\n      mstore(0x40, 0x80)\n      callvalue\n        /* \"--CODEGEN--\":5:14   */\n      dup1\n        /* \"--CODEGEN--\":2:4   */\n      iszero\n      tag_1\n      jumpi\n        /* \"--CODEGEN--\":27:28   */\n      0x00\n        /* \"--CODEGEN--\":24:25   */\n      dup1\n        /* \"--CODEGEN--\":17:29   */\n      revert\n        /* \"--CODEGEN--\":2:4   */\n    tag_1:\n        /* \"Users/leilei/Downloads/MasterChefV2/contracts/PancakeBunnies.sol\":61684:64145  contract PancakeBunnies is ERC721, Ownable {... */\n      pop\n      jumpi(tag_2, lt(calldatasize, 0x04))\n      shr(0xe0, calldataload(0x00))\n      dup1\n      0x6a4b8883\n      gt\n      tag_31\n      jumpi\n      dup1\n      0xa22cb465\n      gt\n      tag_32\n      jumpi\n      dup1\n      0xc87b56dd\n      gt\n      tag_33\n      jumpi\n      dup1\n      0xc87b56dd\n      eq\n      tag_27\n      jumpi\n      dup1\n      0xd76a3cfe\n      eq\n      tag_28\n      jumpi\n      dup1\n      0xe985e9c5\n      eq\n      tag_29\n      jumpi\n      dup1\n      0xf2fde38b\n      eq\n      tag_30\n      jumpi\n      jump(tag_2)\n    tag_33:\n      dup1\n      0xa22cb465\n      eq\n      tag_24\n      jumpi\n      dup1\n      0xb88d4fde\n      eq\n      tag_25\n      jumpi\n      dup1\n      0xc72c6883\n      eq\n      tag_26\n      jumpi\n      jump(tag_2)\n    tag_32:\n      dup1\n      0x715018a6\n      gt\n      tag_34\n      jumpi\n      dup1\n      0x715018a6\n      eq\n      tag_20\n      jumpi\n      dup1\n      0x8da5cb5b\n      eq\n      tag_21\n      jumpi\n      dup1\n      0x95d89b41\n      eq\n      tag_22\n      jumpi\n      dup1\n      0xa0411c54\n      eq\n      tag_23\n      jumpi\n      jump(tag_2)\n    tag_34:\n      dup1\n      0x6a4b8883\n      eq\n      tag_17\n      jumpi\n      dup1\n      0x6c0360eb\n      eq\n      tag_18\n      jumpi\n      dup1\n      0x70a08231\n      eq\n      tag_19\n      jumpi\n      jump(tag_2)\n    tag_31:\n      dup1\n      0x2e2b0842\n      gt\n      tag_35\n      jumpi\n      dup1\n      0x42966c68\n      gt\n      tag_36\n      jumpi\n      dup1\n      0x42966c68\n      eq\n      tag_13\n      jumpi\n      dup1\n      0x4f6ccce7\n      eq\n      tag_14\n      jumpi\n      dup1\n      0x5d71dca3\n      eq\n      tag_15\n      jumpi\n      dup1\n      0x6352211e\n      eq\n      tag_16\n      jumpi\n      jump(tag_2)\n    tag_36:\n      dup1\n      0x2e2b0842\n      eq\n      tag_10\n      jumpi\n      dup1\n      0x2f745c59\n      eq\n      tag_11\n      jumpi\n      dup1\n      0x42842e0e\n      eq\n      tag_12\n      jumpi\n      jump(tag_2)\n    tag_35:\n      dup1\n      0x095ea7b3\n      gt\n      tag_37\n      jumpi\n      dup1\n      0x095ea7b3\n      eq\n      tag_6\n      jumpi\n      dup1\n      0x18160ddd\n      eq\n      tag_7\n      jumpi\n      dup1\n      0x1b881e67\n      eq\n      tag_8\n      jumpi\n      dup1\n      0x23b872dd\n      eq\n      tag_9\n      jumpi\n      jump(tag_2)\n    tag_37:\n      dup1\n      0x01ffc9a7\n      eq\n      tag_3\n      jumpi\n      dup1\n      0x06fdde03\n      eq\n      tag_4\n      jumpi\n      dup1\n      0x081812fc\n      eq\n      tag_5\n      jumpi\n    tag_2:\n        /* \"--CODEGEN--\":12:13   */\n      0x00\n        /* \"--CODEGEN--\":9:10   */\n      dup1\n        /* \"--CODEGEN--\":2:14   */\n      revert\n        /* \"Users/leilei/Downloads/MasterChefV2/contracts/PancakeBunnies.sol\":18921:19061  function supportsInterface(bytes4 interfaceId) public view override returns (bool) {... */\n    tag_3:\n      tag_38\n      0x04\n      dup1\n      calldatasize\n      sub\n        /* \"--CODEGEN--\":15:17   */\n      0x20\n        /* \"--CODEGEN--\":10:13   */\n      dup2\n        /* \"--CODEGEN--\":7:18   */\n      lt\n        /* \"--CODEGEN--\":4:6   */\n      iszero\n      tag_39\n      jumpi\n        /* \"--CODEGEN--\":31:32   */\n      0x00\n        /* \"--CODEGEN--\":28:29   */\n      dup1\n        /* \"--CODEGEN--\":21:33   */\n      revert\n        /* \"--CODEGEN--\":4:6   */\n    tag_39:\n      pop\n        /* \"Users/leilei/Downloads/MasterChefV2/contracts/PancakeBunnies.sol\":18921:19061  function supportsInterface(bytes4 interfaceId) public view override returns (bool) {... */\n      calldataload\n      not(sub(shl(0xe0, 0x01), 0x01))\n      and\n      tag_40\n      jump\t// in\n    tag_38:\n      0x40\n      dup1\n      mload\n      swap2\n      iszero\n      iszero\n      dup3\n      mstore\n      mload\n      swap1\n      dup2\n      swap1\n      sub\n      0x20\n      add\n      swap1\n      return\n        /* \"Users/leilei/Downloads/MasterChefV2/contracts/PancakeBunnies.sol\":49362:49452  function name() public view override returns (string memory) {... */\n    tag_4:\n      tag_41\n      tag_42\n      jump\t// in\n    tag_41:\n      0x40\n      dup1\n      mload\n      0x20\n      dup1\n      dup3\n      mstore\n      dup4\n      mload\n      dup2\n      dup4\n      add\n      mstore\n      dup4\n      mload\n      swap2\n      swap3\n      dup4\n      swap3\n      swap1\n      dup4\n      add\n      swap2\n      dup6\n      add\n      swap1\n      dup1\n      dup4\n      dup4\n      0x00\n        /* \"--CODEGEN--\":8:108   */\n    tag_43:\n        /* \"--CODEGEN--\":33:36   */\n      dup4\n        /* \"--CODEGEN--\":30:31   */\n      dup2\n        /* \"--CODEGEN--\":27:37   */\n      lt\n        /* \"--CODEGEN--\":8:108   */\n      iszero\n      tag_45\n      jumpi\n        /* \"--CODEGEN--\":90:101   */\n      dup2\n      dup2\n      add\n        /* \"--CODEGEN--\":84:102   */\n      mload\n        /* \"--CODEGEN--\":71:82   */\n      dup4\n      dup3\n      add\n        /* \"--CODEGEN--\":64:103   */\n      mstore\n        /* \"--CODEGEN--\":52:54   */\n      0x20\n        /* \"--CODEGEN--\":45:55   */\n      add\n        /* \"--CODEGEN--\":8:108   */\n      jump(tag_43)\n    tag_45:\n        /* \"--CODEGEN--\":12:26   */\n      pop\n        /* \"Users/leilei/Downloads/MasterChefV2/contracts/PancakeBunnies.sol\":49362:49452  function name() public view override returns (string memory) {... */\n      pop\n      pop\n      pop\n      swap1\n      pop\n      swap1\n      dup2\n      add\n      swap1\n      0x1f\n      and\n      dup1\n      iszero\n      tag_46\n      jumpi\n      dup1\n      dup3\n      sub\n      dup1\n      mload\n      0x01\n      dup4\n      0x20\n      sub\n      0x0100\n      exp\n      sub\n      not\n      and\n      dup2\n      mstore\n      0x20\n      add\n      swap2\n      pop\n    tag_46:\n      pop\n      swap3\n      pop\n      pop\n      pop\n      mload(0x40)\n      dup1\n      swap2\n      sub\n      swap1\n      return\n        /* \"Users/leilei/Downloads/MasterChefV2/contracts/PancakeBunnies.sol\":51969:52178  function getApproved(uint256 tokenId) public view override returns (address) {... */\n    tag_5:\n      tag_47\n      0x04\n      dup1\n      calldatasize\n      sub\n        /* \"--CODEGEN--\":15:17   */\n      0x20\n        /* \"--CODEGEN--\":10:13   */\n      dup2\n        /* \"--CODEGEN--\":7:18   */\n      lt\n        /* \"--CODEGEN--\":4:6   */\n      iszero\n      tag_48\n      jumpi\n        /* \"--CODEGEN--\":31:32   */\n      0x00\n        /* \"--CODEGEN--\":28:29   */\n      dup1\n        /* \"--CODEGEN--\":21:33   */\n      revert\n        /* \"--CODEGEN--\":4:6   */\n    tag_48:\n      pop\n        /* \"Users/leilei/Downloads/MasterChefV2/contracts/PancakeBunnies.sol\":51969:52178  function getApproved(uint256 tokenId) public view override returns (address) {... */\n      calldataload\n      tag_49\n      jump\t// in\n    tag_47:\n      0x40\n      dup1\n      mload\n      sub(shl(0xa0, 0x01), 0x01)\n      swap1\n      swap3\n      and\n      dup3\n      mstore\n      mload\n      swap1\n      dup2\n      swap1\n      sub\n      0x20\n      add\n      swap1\n      return\n        /* \"Users/leilei/Downloads/MasterChefV2/contracts/PancakeBunnies.sol\":51527:51908  function approve(address to, uint256 tokenId) public virtual override {... */\n    tag_6:\n      tag_50\n      0x04\n      dup1\n      calldatasize\n      sub\n        /* \"--CODEGEN--\":15:17   */\n      0x40\n        /* \"--CODEGEN--\":10:13   */\n      dup2\n        /* \"--CODEGEN--\":7:18   */\n      lt\n        /* \"--CODEGEN--\":4:6   */\n      iszero\n      tag_51\n      jumpi\n        /* \"--CODEGEN--\":31:32   */\n      0x00\n        /* \"--CODEGEN--\":28:29   */\n      dup1\n        /* \"--CODEGEN--\":21:33   */\n      revert\n        /* \"--CODEGEN--\":4:6   */\n    tag_51:\n      pop\n      sub(shl(0xa0, 0x01), 0x01)\n        /* \"Users/leilei/Downloads/MasterChefV2/contracts/PancakeBunnies.sol\":51527:51908  function approve(address to, uint256 tokenId) public virtual override {... */\n      dup2\n      calldataload\n      and\n      swap1\n      0x20\n      add\n      calldataload\n      tag_52\n      jump\t// in\n    tag_50:\n      stop\n        /* \"Users/leilei/Downloads/MasterChefV2/contracts/PancakeBunnies.sol\":51037:51237  function totalSupply() public view override returns (uint256) {... */\n    tag_7:\n      tag_53\n      tag_54\n      jump\t// in\n    tag_53:\n      0x40\n      dup1\n      mload\n      swap2\n      dup3\n      mstore\n      mload\n      swap1\n      dup2\n      swap1\n      sub\n      0x20\n      add\n      swap1\n      return\n        /* \"Users/leilei/Downloads/MasterChefV2/contracts/PancakeBunnies.sol\":62629:62777  function getBunnyName(uint8 _bunnyId)... */\n    tag_8:\n      tag_41\n      0x04\n      dup1\n      calldatasize\n      sub\n        /* \"--CODEGEN--\":15:17   */\n      0x20\n        /* \"--CODEGEN--\":10:13   */\n      dup2\n        /* \"--CODEGEN--\":7:18   */\n      lt\n        /* \"--CODEGEN--\":4:6   */\n      iszero\n      tag_56\n      jumpi\n        /* \"--CODEGEN--\":31:32   */\n      0x00\n        /* \"--CODEGEN--\":28:29   */\n      dup1\n        /* \"--CODEGEN--\":21:33   */\n      revert\n        /* \"--CODEGEN--\":4:6   */\n    tag_56:\n      pop\n        /* \"Users/leilei/Downloads/MasterChefV2/contracts/PancakeBunnies.sol\":62629:62777  function getBunnyName(uint8 _bunnyId)... */\n      calldataload\n      0xff\n      and\n      tag_57\n      jump\t// in\n        /* \"Users/leilei/Downloads/MasterChefV2/contracts/PancakeBunnies.sol\":52817:53117  function transferFrom(address from, address to, uint256 tokenId) public virtual override {... */\n    tag_9:\n      tag_50\n      0x04\n      dup1\n      calldatasize\n      sub\n        /* \"--CODEGEN--\":15:17   */\n      0x60\n        /* \"--CODEGEN--\":10:13   */\n      dup2\n        /* \"--CODEGEN--\":7:18   */\n      lt\n        /* \"--CODEGEN--\":4:6   */\n      iszero\n      tag_63\n      jumpi\n        /* \"--CODEGEN--\":31:32   */\n      0x00\n        /* \"--CODEGEN--\":28:29   */\n      dup1\n        /* \"--CODEGEN--\":21:33   */\n      revert\n        /* \"--CODEGEN--\":4:6   */\n    tag_63:\n      pop\n      sub(shl(0xa0, 0x01), 0x01)\n        /* \"Users/leilei/Downloads/MasterChefV2/contracts/PancakeBunnies.sol\":52817:53117  function transferFrom(address from, address to, uint256 tokenId) public virtual override {... */\n      dup2\n      calldataload\n      dup2\n      and\n      swap2\n      0x20\n      dup2\n      add\n      calldataload\n      swap1\n      swap2\n      and\n      swap1\n      0x40\n      add\n      calldataload\n      tag_64\n      jump\t// in\n        /* \"Users/leilei/Downloads/MasterChefV2/contracts/PancakeBunnies.sol\":62862:63064  function getBunnyNameOfTokenId(uint256 _tokenId)... */\n    tag_10:\n      tag_41\n      0x04\n      dup1\n      calldatasize\n      sub\n        /* \"--CODEGEN--\":15:17   */\n      0x20\n        /* \"--CODEGEN--\":10:13   */\n      dup2\n        /* \"--CODEGEN--\":7:18   */\n      lt\n        /* \"--CODEGEN--\":4:6   */\n      iszero\n      tag_66\n      jumpi\n        /* \"--CODEGEN--\":31:32   */\n      0x00\n        /* \"--CODEGEN--\":28:29   */\n      dup1\n        /* \"--CODEGEN--\":21:33   */\n      revert\n        /* \"--CODEGEN--\":4:6   */\n    tag_66:\n      pop\n        /* \"Users/leilei/Downloads/MasterChefV2/contracts/PancakeBunnies.sol\":62862:63064  function getBunnyNameOfTokenId(uint256 _tokenId)... */\n      calldataload\n      tag_67\n      jump\t// in\n        /* \"Users/leilei/Downloads/MasterChefV2/contracts/PancakeBunnies.sol\":50814:50966  function tokenOfOwnerByIndex(address owner, uint256 index) public view override returns (uint256) {... */\n    tag_11:\n      tag_53\n      0x04\n      dup1\n      calldatasize\n      sub\n        /* \"--CODEGEN--\":15:17   */\n      0x40\n        /* \"--CODEGEN--\":10:13   */\n      dup2\n        /* \"--CODEGEN--\":7:18   */\n      lt\n        /* \"--CODEGEN--\":4:6   */\n      iszero\n      tag_73\n      jumpi\n        /* \"--CODEGEN--\":31:32   */\n      0x00\n        /* \"--CODEGEN--\":28:29   */\n      dup1\n        /* \"--CODEGEN--\":21:33   */\n      revert\n        /* \"--CODEGEN--\":4:6   */\n    tag_73:\n      pop\n      sub(shl(0xa0, 0x01), 0x01)\n        /* \"Users/leilei/Downloads/MasterChefV2/contracts/PancakeBunnies.sol\":50814:50966  function tokenOfOwnerByIndex(address owner, uint256 index) public view override returns (uint256) {... */\n      dup2\n      calldataload\n      and\n      swap1\n      0x20\n      add\n      calldataload\n      tag_74\n      jump\t// in\n        /* \"Users/leilei/Downloads/MasterChefV2/contracts/PancakeBunnies.sol\":53183:53332  function safeTransferFrom(address from, address to, uint256 tokenId) public virtual override {... */\n    tag_12:\n      tag_50\n      0x04\n      dup1\n      calldatasize\n      sub\n        /* \"--CODEGEN--\":15:17   */\n      0x60\n        /* \"--CODEGEN--\":10:13   */\n      dup2\n        /* \"--CODEGEN--\":7:18   */\n      lt\n        /* \"--CODEGEN--\":4:6   */\n      iszero\n      tag_76\n      jumpi\n        /* \"--CODEGEN--\":31:32   */\n      0x00\n        /* \"--CODEGEN--\":28:29   */\n      dup1\n        /* \"--CODEGEN--\":21:33   */\n      revert\n        /* \"--CODEGEN--\":4:6   */\n    tag_76:\n      pop\n      sub(shl(0xa0, 0x01), 0x01)\n        /* \"Users/leilei/Downloads/MasterChefV2/contracts/PancakeBunnies.sol\":53183:53332  function safeTransferFrom(address from, address to, uint256 tokenId) public virtual override {... */\n      dup2\n      calldataload\n      dup2\n      and\n      swap2\n      0x20\n      dup2\n      add\n      calldataload\n      swap1\n      swap2\n      and\n      swap1\n      0x40\n      add\n      calldataload\n      tag_77\n      jump\t// in\n        /* \"Users/leilei/Downloads/MasterChefV2/contracts/PancakeBunnies.sol\":63867:64143  function burn(uint256 _tokenId) external onlyOwner {... */\n    tag_13:\n      tag_50\n      0x04\n      dup1\n      calldatasize\n      sub\n        /* \"--CODEGEN--\":15:17   */\n      0x20\n        /* \"--CODEGEN--\":10:13   */\n      dup2\n        /* \"--CODEGEN--\":7:18   */\n      lt\n        /* \"--CODEGEN--\":4:6   */\n      iszero\n      tag_79\n      jumpi\n        /* \"--CODEGEN--\":31:32   */\n      0x00\n        /* \"--CODEGEN--\":28:29   */\n      dup1\n        /* \"--CODEGEN--\":21:33   */\n      revert\n        /* \"--CODEGEN--\":4:6   */\n    tag_79:\n      pop\n        /* \"Users/leilei/Downloads/MasterChefV2/contracts/PancakeBunnies.sol\":63867:64143  function burn(uint256 _tokenId) external onlyOwner {... */\n      calldataload\n      tag_80\n      jump\t// in\n        /* \"Users/leilei/Downloads/MasterChefV2/contracts/PancakeBunnies.sol\":51309:51470  function tokenByIndex(uint256 index) public view override returns (uint256) {... */\n    tag_14:\n      tag_53\n      0x04\n      dup1\n      calldatasize\n      sub\n        /* \"--CODEGEN--\":15:17   */\n      0x20\n        /* \"--CODEGEN--\":10:13   */\n      dup2\n        /* \"--CODEGEN--\":7:18   */\n      lt\n        /* \"--CODEGEN--\":4:6   */\n      iszero\n      tag_82\n      jumpi\n        /* \"--CODEGEN--\":31:32   */\n      0x00\n        /* \"--CODEGEN--\":28:29   */\n      dup1\n        /* \"--CODEGEN--\":21:33   */\n      revert\n        /* \"--CODEGEN--\":4:6   */\n    tag_82:\n      pop\n        /* \"Users/leilei/Downloads/MasterChefV2/contracts/PancakeBunnies.sol\":51309:51470  function tokenByIndex(uint256 index) public view override returns (uint256) {... */\n      calldataload\n      tag_83\n      jump\t// in\n        /* \"Users/leilei/Downloads/MasterChefV2/contracts/PancakeBunnies.sol\":63646:63791  function setBunnyName(uint8 _bunnyId, string calldata _name)... */\n    tag_15:\n      tag_50\n      0x04\n      dup1\n      calldatasize\n      sub\n        /* \"--CODEGEN--\":15:17   */\n      0x40\n        /* \"--CODEGEN--\":10:13   */\n      dup2\n        /* \"--CODEGEN--\":7:18   */\n      lt\n        /* \"--CODEGEN--\":4:6   */\n      iszero\n      tag_85\n      jumpi\n        /* \"--CODEGEN--\":31:32   */\n      0x00\n        /* \"--CODEGEN--\":28:29   */\n      dup1\n        /* \"--CODEGEN--\":21:33   */\n      revert\n        /* \"--CODEGEN--\":4:6   */\n    tag_85:\n        /* \"Users/leilei/Downloads/MasterChefV2/contracts/PancakeBunnies.sol\":63646:63791  function setBunnyName(uint8 _bunnyId, string calldata _name)... */\n      0xff\n      dup3\n      calldataload\n      and\n      swap2\n      swap1\n      dup2\n      add\n      swap1\n      0x40\n      dup2\n      add\n      0x20\n      dup3\n      add\n      calldataload\n        /* \"--CODEGEN--\":27:38   */\n      0x0100000000\n        /* \"--CODEGEN--\":11:39   */\n      dup2\n      gt\n        /* \"--CODEGEN--\":8:10   */\n      iszero\n      tag_86\n      jumpi\n        /* \"--CODEGEN--\":52:53   */\n      0x00\n        /* \"--CODEGEN--\":49:50   */\n      dup1\n        /* \"--CODEGEN--\":42:54   */\n      revert\n        /* \"--CODEGEN--\":8:10   */\n    tag_86:\n        /* \"Users/leilei/Downloads/MasterChefV2/contracts/PancakeBunnies.sol\":63646:63791  function setBunnyName(uint8 _bunnyId, string calldata _name)... */\n      dup3\n      add\n        /* \"--CODEGEN--\":41:50   */\n      dup4\n        /* \"--CODEGEN--\":34:38   */\n      0x20\n        /* \"--CODEGEN--\":18:32   */\n      dup3\n        /* \"--CODEGEN--\":14:39   */\n      add\n        /* \"--CODEGEN--\":11:51   */\n      gt\n        /* \"--CODEGEN--\":8:10   */\n      iszero\n      tag_87\n      jumpi\n        /* \"--CODEGEN--\":64:65   */\n      0x00\n        /* \"--CODEGEN--\":61:62   */\n      dup1\n        /* \"--CODEGEN--\":54:66   */\n      revert\n        /* \"--CODEGEN--\":8:10   */\n    tag_87:\n        /* \"Users/leilei/Downloads/MasterChefV2/contracts/PancakeBunnies.sol\":63646:63791  function setBunnyName(uint8 _bunnyId, string calldata _name)... */\n      dup1\n      calldataload\n      swap1\n      0x20\n      add\n      swap2\n        /* \"--CODEGEN--\":100:109   */\n      dup5\n        /* \"--CODEGEN--\":95:96   */\n      0x01\n        /* \"--CODEGEN--\":81:93   */\n      dup4\n        /* \"--CODEGEN--\":77:97   */\n      mul\n        /* \"--CODEGEN--\":67:75   */\n      dup5\n        /* \"--CODEGEN--\":63:98   */\n      add\n        /* \"--CODEGEN--\":60:110   */\n      gt\n        /* \"--CODEGEN--\":39:50   */\n      0x0100000000\n        /* \"--CODEGEN--\":25:37   */\n      dup4\n        /* \"--CODEGEN--\":22:51   */\n      gt\n        /* \"--CODEGEN--\":11:118   */\n      or\n        /* \"--CODEGEN--\":8:10   */\n      iszero\n      tag_88\n      jumpi\n        /* \"--CODEGEN--\":131:132   */\n      0x00\n        /* \"--CODEGEN--\":128:129   */\n      dup1\n        /* \"--CODEGEN--\":121:133   */\n      revert\n        /* \"--CODEGEN--\":8:10   */\n    tag_88:\n      pop\n        /* \"Users/leilei/Downloads/MasterChefV2/contracts/PancakeBunnies.sol\":63646:63791  function setBunnyName(uint8 _bunnyId, string calldata _name)... */\n      swap1\n      swap3\n      pop\n      swap1\n      pop\n      tag_89\n      jump\t// in\n        /* \"Users/leilei/Downloads/MasterChefV2/contracts/PancakeBunnies.sol\":49133:49300  function ownerOf(uint256 tokenId) public view override returns (address) {... */\n    tag_16:\n      tag_47\n      0x04\n      dup1\n      calldatasize\n      sub\n        /* \"--CODEGEN--\":15:17   */\n      0x20\n        /* \"--CODEGEN--\":10:13   */\n      dup2\n        /* \"--CODEGEN--\":7:18   */\n      lt\n        /* \"--CODEGEN--\":4:6   */\n      iszero\n      tag_91\n      jumpi\n        /* \"--CODEGEN--\":31:32   */\n      0x00\n        /* \"--CODEGEN--\":28:29   */\n      dup1\n        /* \"--CODEGEN--\":21:33   */\n      revert\n        /* \"--CODEGEN--\":4:6   */\n    tag_91:\n      pop\n        /* \"Users/leilei/Downloads/MasterChefV2/contracts/PancakeBunnies.sol\":49133:49300  function ownerOf(uint256 tokenId) public view override returns (address) {... */\n      calldataload\n      tag_92\n      jump\t// in\n        /* \"Users/leilei/Downloads/MasterChefV2/contracts/PancakeBunnies.sol\":63137:63542  function mint(... */\n    tag_17:\n      tag_53\n      0x04\n      dup1\n      calldatasize\n      sub\n        /* \"--CODEGEN--\":15:17   */\n      0x60\n        /* \"--CODEGEN--\":10:13   */\n      dup2\n        /* \"--CODEGEN--\":7:18   */\n      lt\n        /* \"--CODEGEN--\":4:6   */\n      iszero\n      tag_94\n      jumpi\n        /* \"--CODEGEN--\":31:32   */\n      0x00\n        /* \"--CODEGEN--\":28:29   */\n      dup1\n        /* \"--CODEGEN--\":21:33   */\n      revert\n        /* \"--CODEGEN--\":4:6   */\n    tag_94:\n      sub(shl(0xa0, 0x01), 0x01)\n        /* \"Users/leilei/Downloads/MasterChefV2/contracts/PancakeBunnies.sol\":63137:63542  function mint(... */\n      dup3\n      calldataload\n      and\n      swap2\n      swap1\n      dup2\n      add\n      swap1\n      0x40\n      dup2\n      add\n      0x20\n      dup3\n      add\n      calldataload\n        /* \"--CODEGEN--\":27:38   */\n      0x0100000000\n        /* \"--CODEGEN--\":11:39   */\n      dup2\n      gt\n        /* \"--CODEGEN--\":8:10   */\n      iszero\n      tag_95\n      jumpi\n        /* \"--CODEGEN--\":52:53   */\n      0x00\n        /* \"--CODEGEN--\":49:50   */\n      dup1\n        /* \"--CODEGEN--\":42:54   */\n      revert\n        /* \"--CODEGEN--\":8:10   */\n    tag_95:\n        /* \"Users/leilei/Downloads/MasterChefV2/contracts/PancakeBunnies.sol\":63137:63542  function mint(... */\n      dup3\n      add\n        /* \"--CODEGEN--\":41:50   */\n      dup4\n        /* \"--CODEGEN--\":34:38   */\n      0x20\n        /* \"--CODEGEN--\":18:32   */\n      dup3\n        /* \"--CODEGEN--\":14:39   */\n      add\n        /* \"--CODEGEN--\":11:51   */\n      gt\n        /* \"--CODEGEN--\":8:10   */\n      iszero\n      tag_96\n      jumpi\n        /* \"--CODEGEN--\":64:65   */\n      0x00\n        /* \"--CODEGEN--\":61:62   */\n      dup1\n        /* \"--CODEGEN--\":54:66   */\n      revert\n        /* \"--CODEGEN--\":8:10   */\n    tag_96:\n        /* \"Users/leilei/Downloads/MasterChefV2/contracts/PancakeBunnies.sol\":63137:63542  function mint(... */\n      dup1\n      calldataload\n      swap1\n      0x20\n      add\n      swap2\n        /* \"--CODEGEN--\":100:109   */\n      dup5\n        /* \"--CODEGEN--\":95:96   */\n      0x01\n        /* \"--CODEGEN--\":81:93   */\n      dup4\n        /* \"--CODEGEN--\":77:97   */\n      mul\n        /* \"--CODEGEN--\":67:75   */\n      dup5\n        /* \"--CODEGEN--\":63:98   */\n      add\n        /* \"--CODEGEN--\":60:110   */\n      gt\n        /* \"--CODEGEN--\":39:50   */\n      0x0100000000\n        /* \"--CODEGEN--\":25:37   */\n      dup4\n        /* \"--CODEGEN--\":22:51   */\n      gt\n        /* \"--CODEGEN--\":11:118   */\n      or\n        /* \"--CODEGEN--\":8:10   */\n      iszero\n      tag_97\n      jumpi\n        /* \"--CODEGEN--\":131:132   */\n      0x00\n        /* \"--CODEGEN--\":128:129   */\n      dup1\n        /* \"--CODEGEN--\":121:133   */\n      revert\n        /* \"--CODEGEN--\":8:10   */\n    tag_97:\n        /* \"Users/leilei/Downloads/MasterChefV2/contracts/PancakeBunnies.sol\":63137:63542  function mint(... */\n      swap2\n      swap4\n      pop\n      swap2\n      pop\n      calldataload\n      0xff\n      and\n      tag_98\n      jump\t// in\n        /* \"Users/leilei/Downloads/MasterChefV2/contracts/PancakeBunnies.sol\":50648:50735  function baseURI() public view returns (string memory) {... */\n    tag_18:\n      tag_41\n      tag_100\n      jump\t// in\n        /* \"Users/leilei/Downloads/MasterChefV2/contracts/PancakeBunnies.sol\":48865:49076  function balanceOf(address owner) public view override returns (uint256) {... */\n    tag_19:\n      tag_53\n      0x04\n      dup1\n      calldatasize\n      sub\n        /* \"--CODEGEN--\":15:17   */\n      0x20\n        /* \"--CODEGEN--\":10:13   */\n      dup2\n        /* \"--CODEGEN--\":7:18   */\n      lt\n        /* \"--CODEGEN--\":4:6   */\n      iszero\n      tag_106\n      jumpi\n        /* \"--CODEGEN--\":31:32   */\n      0x00\n        /* \"--CODEGEN--\":28:29   */\n      dup1\n        /* \"--CODEGEN--\":21:33   */\n      revert\n        /* \"--CODEGEN--\":4:6   */\n    tag_106:\n      pop\n        /* \"Users/leilei/Downloads/MasterChefV2/contracts/PancakeBunnies.sol\":48865:49076  function balanceOf(address owner) public view override returns (uint256) {... */\n      calldataload\n      sub(shl(0xa0, 0x01), 0x01)\n      and\n      tag_107\n      jump\t// in\n        /* \"Users/leilei/Downloads/MasterChefV2/contracts/PancakeBunnies.sol\":2722:2867  function renounceOwnership() public virtual onlyOwner {... */\n    tag_20:\n      tag_50\n      tag_109\n      jump\t// in\n        /* \"Users/leilei/Downloads/MasterChefV2/contracts/PancakeBunnies.sol\":2099:2176  function owner() public view returns (address) {... */\n    tag_21:\n      tag_47\n      tag_111\n      jump\t// in\n        /* \"Users/leilei/Downloads/MasterChefV2/contracts/PancakeBunnies.sol\":49516:49610  function symbol() public view override returns (string memory) {... */\n    tag_22:\n      tag_41\n      tag_113\n      jump\t// in\n        /* \"Users/leilei/Downloads/MasterChefV2/contracts/PancakeBunnies.sol\":61819:61862  mapping(uint8 => uint256) public bunnyCount */\n    tag_23:\n      tag_53\n      0x04\n      dup1\n      calldatasize\n      sub\n        /* \"--CODEGEN--\":15:17   */\n      0x20\n        /* \"--CODEGEN--\":10:13   */\n      dup2\n        /* \"--CODEGEN--\":7:18   */\n      lt\n        /* \"--CODEGEN--\":4:6   */\n      iszero\n      tag_119\n      jumpi\n        /* \"--CODEGEN--\":31:32   */\n      0x00\n        /* \"--CODEGEN--\":28:29   */\n      dup1\n        /* \"--CODEGEN--\":21:33   */\n      revert\n        /* \"--CODEGEN--\":4:6   */\n    tag_119:\n      pop\n        /* \"Users/leilei/Downloads/MasterChefV2/contracts/PancakeBunnies.sol\":61819:61862  mapping(uint8 => uint256) public bunnyCount */\n      calldataload\n      0xff\n      and\n      tag_120\n      jump\t// in\n        /* \"Users/leilei/Downloads/MasterChefV2/contracts/PancakeBunnies.sol\":52245:52535  function setApprovalForAll(address operator, bool approved) public virtual override {... */\n    tag_24:\n      tag_50\n      0x04\n      dup1\n      calldatasize\n      sub\n        /* \"--CODEGEN--\":15:17   */\n      0x40\n        /* \"--CODEGEN--\":10:13   */\n      dup2\n        /* \"--CODEGEN--\":7:18   */\n      lt\n        /* \"--CODEGEN--\":4:6   */\n      iszero\n      tag_122\n      jumpi\n        /* \"--CODEGEN--\":31:32   */\n      0x00\n        /* \"--CODEGEN--\":28:29   */\n      dup1\n        /* \"--CODEGEN--\":21:33   */\n      revert\n        /* \"--CODEGEN--\":4:6   */\n    tag_122:\n      pop\n      sub(shl(0xa0, 0x01), 0x01)\n        /* \"Users/leilei/Downloads/MasterChefV2/contracts/PancakeBunnies.sol\":52245:52535  function setApprovalForAll(address operator, bool approved) public virtual override {... */\n      dup2\n      calldataload\n      and\n      swap1\n      0x20\n      add\n      calldataload\n      iszero\n      iszero\n      tag_123\n      jump\t// in\n        /* \"Users/leilei/Downloads/MasterChefV2/contracts/PancakeBunnies.sol\":53398:53680  function safeTransferFrom(address from, address to, uint256 tokenId, bytes memory _data) public virtual override {... */\n    tag_25:\n      tag_50\n      0x04\n      dup1\n      calldatasize\n      sub\n        /* \"--CODEGEN--\":15:18   */\n      0x80\n        /* \"--CODEGEN--\":10:13   */\n      dup2\n        /* \"--CODEGEN--\":7:19   */\n      lt\n        /* \"--CODEGEN--\":4:6   */\n      iszero\n      tag_125\n      jumpi\n        /* \"--CODEGEN--\":32:33   */\n      0x00\n        /* \"--CODEGEN--\":29:30   */\n      dup1\n        /* \"--CODEGEN--\":22:34   */\n      revert\n        /* \"--CODEGEN--\":4:6   */\n    tag_125:\n      sub(shl(0xa0, 0x01), 0x01)\n        /* \"Users/leilei/Downloads/MasterChefV2/contracts/PancakeBunnies.sol\":53398:53680  function safeTransferFrom(address from, address to, uint256 tokenId, bytes memory _data) public virtual override {... */\n      dup3\n      calldataload\n      dup2\n      and\n      swap3\n      0x20\n      dup2\n      add\n      calldataload\n      swap1\n      swap2\n      and\n      swap2\n      0x40\n      dup3\n      add\n      calldataload\n      swap2\n      swap1\n      dup2\n      add\n      swap1\n      0x80\n      dup2\n      add\n      0x60\n      dup3\n      add\n      calldataload\n        /* \"--CODEGEN--\":27:38   */\n      0x0100000000\n        /* \"--CODEGEN--\":11:39   */\n      dup2\n      gt\n        /* \"--CODEGEN--\":8:10   */\n      iszero\n      tag_126\n      jumpi\n        /* \"--CODEGEN--\":52:53   */\n      0x00\n        /* \"--CODEGEN--\":49:50   */\n      dup1\n        /* \"--CODEGEN--\":42:54   */\n      revert\n        /* \"--CODEGEN--\":8:10   */\n    tag_126:\n        /* \"Users/leilei/Downloads/MasterChefV2/contracts/PancakeBunnies.sol\":53398:53680  function safeTransferFrom(address from, address to, uint256 tokenId, bytes memory _data) public virtual override {... */\n      dup3\n      add\n        /* \"--CODEGEN--\":41:50   */\n      dup4\n        /* \"--CODEGEN--\":34:38   */\n      0x20\n        /* \"--CODEGEN--\":18:32   */\n      dup3\n        /* \"--CODEGEN--\":14:39   */\n      add\n        /* \"--CODEGEN--\":11:51   */\n      gt\n        /* \"--CODEGEN--\":8:10   */\n      iszero\n      tag_127\n      jumpi\n        /* \"--CODEGEN--\":64:65   */\n      0x00\n        /* \"--CODEGEN--\":61:62   */\n      dup1\n        /* \"--CODEGEN--\":54:66   */\n      revert\n        /* \"--CODEGEN--\":8:10   */\n    tag_127:\n        /* \"Users/leilei/Downloads/MasterChefV2/contracts/PancakeBunnies.sol\":53398:53680  function safeTransferFrom(address from, address to, uint256 tokenId, bytes memory _data) public virtual override {... */\n      dup1\n      calldataload\n      swap1\n      0x20\n      add\n      swap2\n        /* \"--CODEGEN--\":100:109   */\n      dup5\n        /* \"--CODEGEN--\":95:96   */\n      0x01\n        /* \"--CODEGEN--\":81:93   */\n      dup4\n        /* \"--CODEGEN--\":77:97   */\n      mul\n        /* \"--CODEGEN--\":67:75   */\n      dup5\n        /* \"--CODEGEN--\":63:98   */\n      add\n        /* \"--CODEGEN--\":60:110   */\n      gt\n        /* \"--CODEGEN--\":39:50   */\n      0x0100000000\n        /* \"--CODEGEN--\":25:37   */\n      dup4\n        /* \"--CODEGEN--\":22:51   */\n      gt\n        /* \"--CODEGEN--\":11:118   */\n      or\n        /* \"--CODEGEN--\":8:10   */\n      iszero\n      tag_128\n      jumpi\n        /* \"--CODEGEN--\":131:132   */\n      0x00\n        /* \"--CODEGEN--\":128:129   */\n      dup1\n        /* \"--CODEGEN--\":121:133   */\n      revert\n        /* \"--CODEGEN--\":8:10   */\n    tag_128:\n        /* \"Users/leilei/Downloads/MasterChefV2/contracts/PancakeBunnies.sol\":53398:53680  function safeTransferFrom(address from, address to, uint256 tokenId, bytes memory _data) public virtual override {... */\n      swap2\n      swap1\n      dup1\n      dup1\n      0x1f\n      add\n      0x20\n      dup1\n      swap2\n      div\n      mul\n      0x20\n      add\n      mload(0x40)\n      swap1\n      dup2\n      add\n      0x40\n      mstore\n      dup1\n      swap4\n      swap3\n      swap2\n      swap1\n      dup2\n      dup2\n      mstore\n      0x20\n      add\n      dup4\n      dup4\n        /* \"--CODEGEN--\":30:33   */\n      dup1\n        /* \"--CODEGEN--\":22:28   */\n      dup3\n        /* \"--CODEGEN--\":14:20   */\n      dup5\n        /* \"--CODEGEN--\":1:34   */\n      calldatacopy\n        /* \"--CODEGEN--\":99:100   */\n      0x00\n        /* \"--CODEGEN--\":81:97   */\n      swap3\n      add\n        /* \"--CODEGEN--\":74:101   */\n      swap2\n      swap1\n      swap2\n      mstore\n      pop\n        /* \"Users/leilei/Downloads/MasterChefV2/contracts/PancakeBunnies.sol\":53398:53680  function safeTransferFrom(address from, address to, uint256 tokenId, bytes memory _data) public virtual override {... */\n      swap3\n      swap6\n      pop\n      tag_129\n      swap5\n      pop\n      pop\n      pop\n      pop\n      pop\n      jump\t// in\n        /* \"Users/leilei/Downloads/MasterChefV2/contracts/PancakeBunnies.sol\":62432:62542  function getBunnyId(uint256 _tokenId) external view returns (uint8) {... */\n    tag_26:\n      tag_130\n      0x04\n      dup1\n      calldatasize\n      sub\n        /* \"--CODEGEN--\":15:17   */\n      0x20\n        /* \"--CODEGEN--\":10:13   */\n      dup2\n        /* \"--CODEGEN--\":7:18   */\n      lt\n        /* \"--CODEGEN--\":4:6   */\n      iszero\n      tag_131\n      jumpi\n        /* \"--CODEGEN--\":31:32   */\n      0x00\n        /* \"--CODEGEN--\":28:29   */\n      dup1\n        /* \"--CODEGEN--\":21:33   */\n      revert\n        /* \"--CODEGEN--\":4:6   */\n    tag_131:\n      pop\n        /* \"Users/leilei/Downloads/MasterChefV2/contracts/PancakeBunnies.sol\":62432:62542  function getBunnyId(uint256 _tokenId) external view returns (uint8) {... */\n      calldataload\n      tag_132\n      jump\t// in\n    tag_130:\n      0x40\n      dup1\n      mload\n      0xff\n      swap1\n      swap3\n      and\n      dup3\n      mstore\n      mload\n      swap1\n      dup2\n      swap1\n      sub\n      0x20\n      add\n      swap1\n      return\n        /* \"Users/leilei/Downloads/MasterChefV2/contracts/PancakeBunnies.sol\":49676:50416  function tokenURI(uint256 tokenId) public view override returns (string memory) {... */\n    tag_27:\n      tag_41\n      0x04\n      dup1\n      calldatasize\n      sub\n        /* \"--CODEGEN--\":15:17   */\n      0x20\n        /* \"--CODEGEN--\":10:13   */\n      dup2\n        /* \"--CODEGEN--\":7:18   */\n      lt\n        /* \"--CODEGEN--\":4:6   */\n      iszero\n      tag_134\n      jumpi\n        /* \"--CODEGEN--\":31:32   */\n      0x00\n        /* \"--CODEGEN--\":28:29   */\n      dup1\n        /* \"--CODEGEN--\":21:33   */\n      revert\n        /* \"--CODEGEN--\":4:6   */\n    tag_134:\n      pop\n        /* \"Users/leilei/Downloads/MasterChefV2/contracts/PancakeBunnies.sol\":49676:50416  function tokenURI(uint256 tokenId) public view override returns (string memory) {... */\n      calldataload\n      tag_135\n      jump\t// in\n        /* \"Users/leilei/Downloads/MasterChefV2/contracts/PancakeBunnies.sol\":61919:61966  mapping(uint8 => uint256) public bunnyBurnCount */\n    tag_28:\n      tag_53\n      0x04\n      dup1\n      calldatasize\n      sub\n        /* \"--CODEGEN--\":15:17   */\n      0x20\n        /* \"--CODEGEN--\":10:13   */\n      dup2\n        /* \"--CODEGEN--\":7:18   */\n      lt\n        /* \"--CODEGEN--\":4:6   */\n      iszero\n      tag_141\n      jumpi\n        /* \"--CODEGEN--\":31:32   */\n      0x00\n        /* \"--CODEGEN--\":28:29   */\n      dup1\n        /* \"--CODEGEN--\":21:33   */\n      revert\n        /* \"--CODEGEN--\":4:6   */\n    tag_141:\n      pop\n        /* \"Users/leilei/Downloads/MasterChefV2/contracts/PancakeBunnies.sol\":61919:61966  mapping(uint8 => uint256) public bunnyBurnCount */\n      calldataload\n      0xff\n      and\n      tag_142\n      jump\t// in\n        /* \"Users/leilei/Downloads/MasterChefV2/contracts/PancakeBunnies.sol\":52601:52755  function isApprovedForAll(address owner, address operator) public view override returns (bool) {... */\n    tag_29:\n      tag_38\n      0x04\n      dup1\n      calldatasize\n      sub\n        /* \"--CODEGEN--\":15:17   */\n      0x40\n        /* \"--CODEGEN--\":10:13   */\n      dup2\n        /* \"--CODEGEN--\":7:18   */\n      lt\n        /* \"--CODEGEN--\":4:6   */\n      iszero\n      tag_144\n      jumpi\n        /* \"--CODEGEN--\":31:32   */\n      0x00\n        /* \"--CODEGEN--\":28:29   */\n      dup1\n        /* \"--CODEGEN--\":21:33   */\n      revert\n        /* \"--CODEGEN--\":4:6   */\n    tag_144:\n      pop\n      sub(shl(0xa0, 0x01), 0x01)\n        /* \"Users/leilei/Downloads/MasterChefV2/contracts/PancakeBunnies.sol\":52601:52755  function isApprovedForAll(address owner, address operator) public view override returns (bool) {... */\n      dup2\n      calldataload\n      dup2\n      and\n      swap2\n      0x20\n      add\n      calldataload\n      and\n      tag_145\n      jump\t// in\n        /* \"Users/leilei/Downloads/MasterChefV2/contracts/PancakeBunnies.sol\":3016:3256  function transferOwnership(address newOwner) public virtual onlyOwner {... */\n    tag_30:\n      tag_50\n      0x04\n      dup1\n      calldatasize\n      sub\n        /* \"--CODEGEN--\":15:17   */\n      0x20\n        /* \"--CODEGEN--\":10:13   */\n      dup2\n        /* \"--CODEGEN--\":7:18   */\n      lt\n        /* \"--CODEGEN--\":4:6   */\n      iszero\n      tag_147\n      jumpi\n        /* \"--CODEGEN--\":31:32   */\n      0x00\n        /* \"--CODEGEN--\":28:29   */\n      dup1\n        /* \"--CODEGEN--\":21:33   */\n      revert\n        /* \"--CODEGEN--\":4:6   */\n    tag_147:\n      pop\n        /* \"Users/leilei/Downloads/MasterChefV2/contracts/PancakeBunnies.sol\":3016:3256  function transferOwnership(address newOwner) public virtual onlyOwner {... */\n      calldataload\n      sub(shl(0xa0, 0x01), 0x01)\n      and\n      tag_148\n      jump\t// in\n        /* \"Users/leilei/Downloads/MasterChefV2/contracts/PancakeBunnies.sol\":18921:19061  function supportsInterface(bytes4 interfaceId) public view override returns (bool) {... */\n    tag_40:\n      not(sub(shl(0xe0, 0x01), 0x01))\n        /* \"Users/leilei/Downloads/MasterChefV2/contracts/PancakeBunnies.sol\":19021:19054  _supportedInterfaces[interfaceId] */\n      dup2\n      and\n        /* \"Users/leilei/Downloads/MasterChefV2/contracts/PancakeBunnies.sol\":18998:19002  bool */\n      0x00\n        /* \"Users/leilei/Downloads/MasterChefV2/contracts/PancakeBunnies.sol\":19021:19054  _supportedInterfaces[interfaceId] */\n      swap1\n      dup2\n      mstore\n      0x20\n      dup2\n      swap1\n      mstore\n      0x40\n      swap1\n      keccak256\n      sload\n      0xff\n      and\n        /* \"Users/leilei/Downloads/MasterChefV2/contracts/PancakeBunnies.sol\":18921:19061  function supportsInterface(bytes4 interfaceId) public view override returns (bool) {... */\n    tag_149:\n      swap2\n      swap1\n      pop\n      jump\t// out\n        /* \"Users/leilei/Downloads/MasterChefV2/contracts/PancakeBunnies.sol\":49362:49452  function name() public view override returns (string memory) {... */\n    tag_42:\n        /* \"Users/leilei/Downloads/MasterChefV2/contracts/PancakeBunnies.sol\":49440:49445  _name */\n      0x06\n        /* \"Users/leilei/Downloads/MasterChefV2/contracts/PancakeBunnies.sol\":49433:49445  return _name */\n      dup1\n      sload\n      0x40\n      dup1\n      mload\n      0x20\n      0x1f\n      0x02\n      not(0x00)\n      0x0100\n      0x01\n      dup9\n      and\n      iszero\n      mul\n      add\n      swap1\n      swap6\n      and\n      swap5\n      swap1\n      swap5\n      div\n      swap4\n      dup5\n      add\n      dup2\n      swap1\n      div\n      dup2\n      mul\n      dup3\n      add\n      dup2\n      add\n      swap1\n      swap3\n      mstore\n      dup3\n      dup2\n      mstore\n        /* \"Users/leilei/Downloads/MasterChefV2/contracts/PancakeBunnies.sol\":49408:49421  string memory */\n      0x60\n      swap4\n        /* \"Users/leilei/Downloads/MasterChefV2/contracts/PancakeBunnies.sol\":49433:49445  return _name */\n      swap1\n      swap3\n        /* \"Users/leilei/Downloads/MasterChefV2/contracts/PancakeBunnies.sol\":49440:49445  _name */\n      swap1\n      swap2\n        /* \"Users/leilei/Downloads/MasterChefV2/contracts/PancakeBunnies.sol\":49433:49445  return _name */\n      dup4\n      add\n        /* \"Users/leilei/Downloads/MasterChefV2/contracts/PancakeBunnies.sol\":49440:49445  _name */\n      dup3\n        /* \"Users/leilei/Downloads/MasterChefV2/contracts/PancakeBunnies.sol\":49433:49445  return _name */\n      dup3\n      dup1\n      iszero\n      tag_151\n      jumpi\n      dup1\n      0x1f\n      lt\n      tag_152\n      jumpi\n      0x0100\n      dup1\n      dup4\n      sload\n      div\n      mul\n      dup4\n      mstore\n      swap2\n      0x20\n      add\n      swap2\n      jump(tag_151)\n    tag_152:\n      dup3\n      add\n      swap2\n      swap1\n      0x00\n      mstore\n      keccak256(0x00, 0x20)\n      swap1\n    tag_153:\n      dup2\n      sload\n      dup2\n      mstore\n      swap1\n      0x01\n      add\n      swap1\n      0x20\n      add\n      dup1\n      dup4\n      gt\n      tag_153\n      jumpi\n      dup3\n      swap1\n      sub\n      0x1f\n      and\n      dup3\n      add\n      swap2\n    tag_151:\n      pop\n      pop\n      pop\n      pop\n      pop\n      swap1\n      pop\n        /* \"Users/leilei/Downloads/MasterChefV2/contracts/PancakeBunnies.sol\":49362:49452  function name() public view override returns (string memory) {... */\n    tag_150:\n      swap1\n      jump\t// out\n        /* \"Users/leilei/Downloads/MasterChefV2/contracts/PancakeBunnies.sol\":51969:52178  function getApproved(uint256 tokenId) public view override returns (address) {... */\n    tag_49:\n        /* \"Users/leilei/Downloads/MasterChefV2/contracts/PancakeBunnies.sol\":52037:52044  address */\n      0x00\n        /* \"Users/leilei/Downloads/MasterChefV2/contracts/PancakeBunnies.sol\":52064:52080  _exists(tokenId) */\n      tag_155\n        /* \"Users/leilei/Downloads/MasterChefV2/contracts/PancakeBunnies.sol\":52072:52079  tokenId */\n      dup3\n        /* \"Users/leilei/Downloads/MasterChefV2/contracts/PancakeBunnies.sol\":52064:52071  _exists */\n      tag_156\n        /* \"Users/leilei/Downloads/MasterChefV2/contracts/PancakeBunnies.sol\":52064:52080  _exists(tokenId) */\n      jump\t// in\n    tag_155:\n        /* \"Users/leilei/Downloads/MasterChefV2/contracts/PancakeBunnies.sol\":52056:52129  require(_exists(tokenId), \"ERC721: approved query for nonexistent token\") */\n      tag_157\n      jumpi\n      mload(0x40)\n      shl(0xe5, 0x461bcd)\n      dup2\n      mstore\n      0x04\n      add\n      dup1\n      dup1\n      0x20\n      add\n      dup3\n      dup2\n      sub\n      dup3\n      mstore\n      0x2c\n      dup2\n      mstore\n      0x20\n      add\n      dup1\n      data_9291e0f44949204f2e9b40e6be090924979d6047b2365868f4e9f027722eb89d\n      0x2c\n      swap2\n      codecopy\n      0x40\n      add\n      swap2\n      pop\n      pop\n      mload(0x40)\n      dup1\n      swap2\n      sub\n      swap1\n      revert\n    tag_157:\n      pop\n        /* \"Users/leilei/Downloads/MasterChefV2/contracts/PancakeBunnies.sol\":52147:52171  _tokenApprovals[tokenId] */\n      0x00\n      swap1\n      dup2\n      mstore\n        /* \"Users/leilei/Downloads/MasterChefV2/contracts/PancakeBunnies.sol\":52147:52162  _tokenApprovals */\n      0x04\n        /* \"Users/leilei/Downloads/MasterChefV2/contracts/PancakeBunnies.sol\":52147:52171  _tokenApprovals[tokenId] */\n      0x20\n      mstore\n      0x40\n      swap1\n      keccak256\n      sload\n      sub(shl(0xa0, 0x01), 0x01)\n      and\n      swap1\n        /* \"Users/leilei/Downloads/MasterChefV2/contracts/PancakeBunnies.sol\":51969:52178  function getApproved(uint256 tokenId) public view override returns (address) {... */\n      jump\t// out\n        /* \"Users/leilei/Downloads/MasterChefV2/contracts/PancakeBunnies.sol\":51527:51908  function approve(address to, uint256 tokenId) public virtual override {... */\n    tag_52:\n        /* \"Users/leilei/Downloads/MasterChefV2/contracts/PancakeBunnies.sol\":51607:51620  address owner */\n      0x00\n        /* \"Users/leilei/Downloads/MasterChefV2/contracts/PancakeBunnies.sol\":51623:51639  ownerOf(tokenId) */\n      tag_159\n        /* \"Users/leilei/Downloads/MasterChefV2/contracts/PancakeBunnies.sol\":51631:51638  tokenId */\n      dup3\n        /* \"Users/leilei/Downloads/MasterChefV2/contracts/PancakeBunnies.sol\":51623:51630  ownerOf */\n      tag_92\n        /* \"Users/leilei/Downloads/MasterChefV2/contracts/PancakeBunnies.sol\":51623:51639  ownerOf(tokenId) */\n      jump\t// in\n    tag_159:\n        /* \"Users/leilei/Downloads/MasterChefV2/contracts/PancakeBunnies.sol\":51607:51639  address owner = ownerOf(tokenId) */\n      swap1\n      pop\n        /* \"Users/leilei/Downloads/MasterChefV2/contracts/PancakeBunnies.sol\":51663:51668  owner */\n      dup1\n      sub(shl(0xa0, 0x01), 0x01)\n        /* \"Users/leilei/Downloads/MasterChefV2/contracts/PancakeBunnies.sol\":51657:51668  to != owner */\n      and\n        /* \"Users/leilei/Downloads/MasterChefV2/contracts/PancakeBunnies.sol\":51657:51659  to */\n      dup4\n      sub(shl(0xa0, 0x01), 0x01)\n        /* \"Users/leilei/Downloads/MasterChefV2/contracts/PancakeBunnies.sol\":51657:51668  to != owner */\n      and\n      eq\n      iszero\n        /* \"Users/leilei/Downloads/MasterChefV2/contracts/PancakeBunnies.sol\":51649:51706  require(to != owner, \"ERC721: approval to current owner\") */\n      tag_160\n      jumpi\n      mload(0x40)\n      shl(0xe5, 0x461bcd)\n      dup2\n      mstore\n      0x04\n      add\n      dup1\n      dup1\n      0x20\n      add\n      dup3\n      dup2\n      sub\n      dup3\n      mstore\n      0x21\n      dup2\n      mstore\n      0x20\n      add\n      dup1\n      data_b51b4875eede07862961e8f9365c6749f5fe55c6ee5d7a9e42b6912ad0b15942\n      0x21\n      swap2\n      codecopy\n      0x40\n      add\n      swap2\n      pop\n      pop\n      mload(0x40)\n      dup1\n      swap2\n      sub\n      swap1\n      revert\n    tag_160:\n        /* \"Users/leilei/Downloads/MasterChefV2/contracts/PancakeBunnies.sol\":51741:51746  owner */\n      dup1\n      sub(shl(0xa0, 0x01), 0x01)\n        /* \"Users/leilei/Downloads/MasterChefV2/contracts/PancakeBunnies.sol\":51725:51746  _msgSender() == owner */\n      and\n        /* \"Users/leilei/Downloads/MasterChefV2/contracts/PancakeBunnies.sol\":51725:51737  _msgSender() */\n      tag_161\n        /* \"Users/leilei/Downloads/MasterChefV2/contracts/PancakeBunnies.sol\":51725:51735  _msgSender */\n      tag_162\n        /* \"Users/leilei/Downloads/MasterChefV2/contracts/PancakeBunnies.sol\":51725:51737  _msgSender() */\n      jump\t// in\n    tag_161:\n      sub(shl(0xa0, 0x01), 0x01)\n        /* \"Users/leilei/Downloads/MasterChefV2/contracts/PancakeBunnies.sol\":51725:51746  _msgSender() == owner */\n      and\n      eq\n        /* \"Users/leilei/Downloads/MasterChefV2/contracts/PancakeBunnies.sol\":51725:51787  _msgSender() == owner || isApprovedForAll(owner, _msgSender()) */\n      dup1\n      tag_164\n      jumpi\n      pop\n        /* \"Users/leilei/Downloads/MasterChefV2/contracts/PancakeBunnies.sol\":51750:51787  isApprovedForAll(owner, _msgSender()) */\n      tag_164\n        /* \"Users/leilei/Downloads/MasterChefV2/contracts/PancakeBunnies.sol\":51767:51772  owner */\n      dup2\n        /* \"Users/leilei/Downloads/MasterChefV2/contracts/PancakeBunnies.sol\":51774:51786  _msgSender() */\n      tag_165\n        /* \"Users/leilei/Downloads/MasterChefV2/contracts/PancakeBunnies.sol\":51774:51784  _msgSender */\n      tag_162\n        /* \"Users/leilei/Downloads/MasterChefV2/contracts/PancakeBunnies.sol\":51774:51786  _msgSender() */\n      jump\t// in\n    tag_165:\n        /* \"Users/leilei/Downloads/MasterChefV2/contracts/PancakeBunnies.sol\":51750:51766  isApprovedForAll */\n      tag_145\n        /* \"Users/leilei/Downloads/MasterChefV2/contracts/PancakeBunnies.sol\":51750:51787  isApprovedForAll(owner, _msgSender()) */\n      jump\t// in\n    tag_164:\n        /* \"Users/leilei/Downloads/MasterChefV2/contracts/PancakeBunnies.sol\":51717:51869  require(_msgSender() == owner || isApprovedForAll(owner, _msgSender()),... */\n      tag_166\n      jumpi\n      mload(0x40)\n      shl(0xe5, 0x461bcd)\n      dup2\n      mstore\n      0x04\n      add\n      dup1\n      dup1\n      0x20\n      add\n      dup3\n      dup2\n      sub\n      dup3\n      mstore\n      0x38\n      dup2\n      mstore\n      0x20\n      add\n      dup1\n      data_6d83cef3e0cb19b8320a9c5feb26b56bbb08f152a8e61b12eca3302d8d68b23d\n      0x38\n      swap2\n      codecopy\n      0x40\n      add\n      swap2\n      pop\n      pop\n      mload(0x40)\n      dup1\n      swap2\n      sub\n      swap1\n      revert\n    tag_166:\n        /* \"Users/leilei/Downloads/MasterChefV2/contracts/PancakeBunnies.sol\":51880:51901  _approve(to, tokenId) */\n      tag_167\n        /* \"Users/leilei/Downloads/MasterChefV2/contracts/PancakeBunnies.sol\":51889:51891  to */\n      dup4\n        /* \"Users/leilei/Downloads/MasterChefV2/contracts/PancakeBunnies.sol\":51893:51900  tokenId */\n      dup4\n        /* \"Users/leilei/Downloads/MasterChefV2/contracts/PancakeBunnies.sol\":51880:51888  _approve */\n      tag_168\n        /* \"Users/leilei/Downloads/MasterChefV2/contracts/PancakeBunnies.sol\":51880:51901  _approve(to, tokenId) */\n      jump\t// in\n    tag_167:\n        /* \"Users/leilei/Downloads/MasterChefV2/contracts/PancakeBunnies.sol\":51527:51908  function approve(address to, uint256 tokenId) public virtual override {... */\n      pop\n      pop\n      pop\n      jump\t// out\n        /* \"Users/leilei/Downloads/MasterChefV2/contracts/PancakeBunnies.sol\":51037:51237  function totalSupply() public view override returns (uint256) {... */\n    tag_54:\n        /* \"Users/leilei/Downloads/MasterChefV2/contracts/PancakeBunnies.sol\":51090:51097  uint256 */\n      0x00\n        /* \"Users/leilei/Downloads/MasterChefV2/contracts/PancakeBunnies.sol\":51209:51230  _tokenOwners.length() */\n      tag_170\n        /* \"Users/leilei/Downloads/MasterChefV2/contracts/PancakeBunnies.sol\":51209:51221  _tokenOwners */\n      0x02\n        /* \"Users/leilei/Downloads/MasterChefV2/contracts/PancakeBunnies.sol\":51209:51228  _tokenOwners.length */\n      tag_171\n        /* \"Users/leilei/Downloads/MasterChefV2/contracts/PancakeBunnies.sol\":51209:51230  _tokenOwners.length() */\n      jump\t// in\n    tag_170:\n        /* \"Users/leilei/Downloads/MasterChefV2/contracts/PancakeBunnies.sol\":51202:51230  return _tokenOwners.length() */\n      swap1\n      pop\n        /* \"Users/leilei/Downloads/MasterChefV2/contracts/PancakeBunnies.sol\":51037:51237  function totalSupply() public view override returns (uint256) {... */\n      swap1\n      jump\t// out\n        /* \"Users/leilei/Downloads/MasterChefV2/contracts/PancakeBunnies.sol\":62629:62777  function getBunnyName(uint8 _bunnyId)... */\n    tag_57:\n        /* \"Users/leilei/Downloads/MasterChefV2/contracts/PancakeBunnies.sol\":62750:62770  bunnyNames[_bunnyId] */\n      0xff\n      dup2\n      and\n      0x00\n      swap1\n      dup2\n      mstore\n        /* \"Users/leilei/Downloads/MasterChefV2/contracts/PancakeBunnies.sol\":62750:62760  bunnyNames */\n      0x0f\n        /* \"Users/leilei/Downloads/MasterChefV2/contracts/PancakeBunnies.sol\":62750:62770  bunnyNames[_bunnyId] */\n      0x20\n      swap1\n      dup2\n      mstore\n      0x40\n      swap2\n      dup3\n      swap1\n      keccak256\n        /* \"Users/leilei/Downloads/MasterChefV2/contracts/PancakeBunnies.sol\":62743:62770  return bunnyNames[_bunnyId] */\n      dup1\n      sload\n      dup4\n      mload\n      0x1f\n      0x02\n      not(0x00)\n      0x0100\n      0x01\n      dup7\n      and\n      iszero\n      mul\n      add\n      swap1\n      swap4\n      and\n      swap3\n      swap1\n      swap3\n      div\n      swap2\n      dup3\n      add\n      dup5\n      swap1\n      div\n      dup5\n      mul\n      dup2\n      add\n      dup5\n      add\n      swap1\n      swap5\n      mstore\n      dup1\n      dup5\n      mstore\n        /* \"Users/leilei/Downloads/MasterChefV2/contracts/PancakeBunnies.sol\":62714:62727  string memory */\n      0x60\n      swap4\n        /* \"Users/leilei/Downloads/MasterChefV2/contracts/PancakeBunnies.sol\":62743:62770  return bunnyNames[_bunnyId] */\n      swap3\n      dup4\n      add\n        /* \"Users/leilei/Downloads/MasterChefV2/contracts/PancakeBunnies.sol\":62750:62770  bunnyNames[_bunnyId] */\n      dup3\n        /* \"Users/leilei/Downloads/MasterChefV2/contracts/PancakeBunnies.sol\":62743:62770  return bunnyNames[_bunnyId] */\n      dup3\n      dup1\n      iszero\n      tag_173\n      jumpi\n      dup1\n      0x1f\n      lt\n      tag_174\n      jumpi\n      0x0100\n      dup1\n      dup4\n      sload\n      div\n      mul\n      dup4\n      mstore\n      swap2\n      0x20\n      add\n      swap2\n      jump(tag_173)\n    tag_174:\n      dup3\n      add\n      swap2\n      swap1\n      0x00\n      mstore\n      keccak256(0x00, 0x20)\n      swap1\n    tag_175:\n      dup2\n      sload\n      dup2\n      mstore\n      swap1\n      0x01\n      add\n      swap1\n      0x20\n      add\n      dup1\n      dup4\n      gt\n      tag_175\n      jumpi\n      dup3\n      swap1\n      sub\n      0x1f\n      and\n      dup3\n      add\n      swap2\n    tag_173:\n      pop\n      pop\n      pop\n      pop\n      pop\n      swap1\n      pop\n        /* \"Users/leilei/Downloads/MasterChefV2/contracts/PancakeBunnies.sol\":62629:62777  function getBunnyName(uint8 _bunnyId)... */\n      swap2\n      swap1\n      pop\n      jump\t// out\n        /* \"Users/leilei/Downloads/MasterChefV2/contracts/PancakeBunnies.sol\":52817:53117  function transferFrom(address from, address to, uint256 tokenId) public virtual override {... */\n    tag_64:\n        /* \"Users/leilei/Downloads/MasterChefV2/contracts/PancakeBunnies.sol\":52976:53017  _isApprovedOrOwner(_msgSender(), tokenId) */\n      tag_177\n        /* \"Users/leilei/Downloads/MasterChefV2/contracts/PancakeBunnies.sol\":52995:53007  _msgSender() */\n      tag_178\n        /* \"Users/leilei/Downloads/MasterChefV2/contracts/PancakeBunnies.sol\":52995:53005  _msgSender */\n      tag_162\n        /* \"Users/leilei/Downloads/MasterChefV2/contracts/PancakeBunnies.sol\":52995:53007  _msgSender() */\n      jump\t// in\n    tag_178:\n        /* \"Users/leilei/Downloads/MasterChefV2/contracts/PancakeBunnies.sol\":53009:53016  tokenId */\n      dup3\n        /* \"Users/leilei/Downloads/MasterChefV2/contracts/PancakeBunnies.sol\":52976:52994  _isApprovedOrOwner */\n      tag_179\n        /* \"Users/leilei/Downloads/MasterChefV2/contracts/PancakeBunnies.sol\":52976:53017  _isApprovedOrOwner(_msgSender(), tokenId) */\n      jump\t// in\n    tag_177:\n        /* \"Users/leilei/Downloads/MasterChefV2/contracts/PancakeBunnies.sol\":52968:53071  require(_isApprovedOrOwner(_msgSender(), tokenId), \"ERC721: transfer caller is not owner nor approved\") */\n      tag_180\n      jumpi\n      mload(0x40)\n      shl(0xe5, 0x461bcd)\n      dup2\n      mstore\n      0x04\n      add\n      dup1\n      dup1\n      0x20\n      add\n      dup3\n      dup2\n      sub\n      dup3\n      mstore\n      0x31\n      dup2\n      mstore\n      0x20\n      add\n      dup1\n      data_c8682f3ad98807db59a6ec6bb812b72fed0a66e3150fa8239699ee83885247f2\n      0x31\n      swap2\n      codecopy\n      0x40\n      add\n      swap2\n      pop\n      pop\n      mload(0x40)\n      dup1\n      swap2\n      sub\n      swap1\n      revert\n    tag_180:\n        /* \"Users/leilei/Downloads/MasterChefV2/contracts/PancakeBunnies.sol\":53082:53110  _transfer(from, to, tokenId) */\n      tag_167\n        /* \"Users/leilei/Downloads/MasterChefV2/contracts/PancakeBunnies.sol\":53092:53096  from */\n      dup4\n        /* \"Users/leilei/Downloads/MasterChefV2/contracts/PancakeBunnies.sol\":53098:53100  to */\n      dup4\n        /* \"Users/leilei/Downloads/MasterChefV2/contracts/PancakeBunnies.sol\":53102:53109  tokenId */\n      dup4\n        /* \"Users/leilei/Downloads/MasterChefV2/contracts/PancakeBunnies.sol\":53082:53091  _transfer */\n      tag_182\n        /* \"Users/leilei/Downloads/MasterChefV2/contracts/PancakeBunnies.sol\":53082:53110  _transfer(from, to, tokenId) */\n      jump\t// in\n        /* \"Users/leilei/Downloads/MasterChefV2/contracts/PancakeBunnies.sol\":62862:63064  function getBunnyNameOfTokenId(uint256 _tokenId)... */\n    tag_67:\n        /* \"Users/leilei/Downloads/MasterChefV2/contracts/PancakeBunnies.sol\":62987:63000  uint8 bunnyId */\n      0x00\n        /* \"Users/leilei/Downloads/MasterChefV2/contracts/PancakeBunnies.sol\":63003:63021  bunnyIds[_tokenId] */\n      dup2\n      dup2\n      mstore\n        /* \"Users/leilei/Downloads/MasterChefV2/contracts/PancakeBunnies.sol\":63003:63011  bunnyIds */\n      0x0e\n        /* \"Users/leilei/Downloads/MasterChefV2/contracts/PancakeBunnies.sol\":63003:63021  bunnyIds[_tokenId] */\n      0x20\n      swap1\n      dup2\n      mstore\n      0x40\n      dup1\n      dup4\n      keccak256\n      sload\n      0xff\n      and\n        /* \"Users/leilei/Downloads/MasterChefV2/contracts/PancakeBunnies.sol\":63038:63057  bunnyNames[bunnyId] */\n      dup1\n      dup5\n      mstore\n        /* \"Users/leilei/Downloads/MasterChefV2/contracts/PancakeBunnies.sol\":63038:63048  bunnyNames */\n      0x0f\n        /* \"Users/leilei/Downloads/MasterChefV2/contracts/PancakeBunnies.sol\":63038:63057  bunnyNames[bunnyId] */\n      dup4\n      mstore\n      swap3\n      dup2\n      swap1\n      keccak256\n        /* \"Users/leilei/Downloads/MasterChefV2/contracts/PancakeBunnies.sol\":63031:63057  return bunnyNames[bunnyId] */\n      dup1\n      sload\n      dup3\n      mload\n      0x1f\n      0x02\n      not(0x00)\n        /* \"Users/leilei/Downloads/MasterChefV2/contracts/PancakeBunnies.sol\":63003:63021  bunnyIds[_tokenId] */\n      0x01\n        /* \"Users/leilei/Downloads/MasterChefV2/contracts/PancakeBunnies.sol\":63031:63057  return bunnyNames[bunnyId] */\n      dup6\n      and\n      iszero\n        /* \"Users/leilei/Downloads/MasterChefV2/contracts/PancakeBunnies.sol\":63003:63021  bunnyIds[_tokenId] */\n      0x0100\n        /* \"Users/leilei/Downloads/MasterChefV2/contracts/PancakeBunnies.sol\":63031:63057  return bunnyNames[bunnyId] */\n      mul\n      add\n      swap1\n      swap4\n      and\n      swap3\n      swap1\n      swap3\n      div\n      swap2\n      dup3\n      add\n      dup6\n      swap1\n      div\n      dup6\n      mul\n      dup2\n      add\n      dup6\n      add\n      swap1\n      swap4\n      mstore\n      dup1\n      dup4\n      mstore\n        /* \"Users/leilei/Downloads/MasterChefV2/contracts/PancakeBunnies.sol\":62958:62971  string memory */\n      0x60\n      swap5\n        /* \"Users/leilei/Downloads/MasterChefV2/contracts/PancakeBunnies.sol\":63003:63021  bunnyIds[_tokenId] */\n      swap4\n        /* \"Users/leilei/Downloads/MasterChefV2/contracts/PancakeBunnies.sol\":63031:63057  return bunnyNames[bunnyId] */\n      dup4\n      add\n        /* \"Users/leilei/Downloads/MasterChefV2/contracts/PancakeBunnies.sol\":63038:63057  bunnyNames[bunnyId] */\n      dup3\n        /* \"Users/leilei/Downloads/MasterChefV2/contracts/PancakeBunnies.sol\":63031:63057  return bunnyNames[bunnyId] */\n      dup3\n      dup1\n      iszero\n      tag_184\n      jumpi\n      dup1\n      0x1f\n      lt\n      tag_185\n      jumpi\n      0x0100\n      dup1\n      dup4\n      sload\n      div\n      mul\n      dup4\n      mstore\n      swap2\n      0x20\n      add\n      swap2\n      jump(tag_184)\n    tag_185:\n      dup3\n      add\n      swap2\n      swap1\n      0x00\n      mstore\n      keccak256(0x00, 0x20)\n      swap1\n    tag_186:\n      dup2\n      sload\n      dup2\n      mstore\n      swap1\n      0x01\n      add\n      swap1\n      0x20\n      add\n      dup1\n      dup4\n      gt\n      tag_186\n      jumpi\n      dup3\n      swap1\n      sub\n      0x1f\n      and\n      dup3\n      add\n      swap2\n    tag_184:\n      pop\n      pop\n      pop\n      pop\n      pop\n      swap2\n      pop\n      pop\n        /* \"Users/leilei/Downloads/MasterChefV2/contracts/PancakeBunnies.sol\":62862:63064  function getBunnyNameOfTokenId(uint256 _tokenId)... */\n      swap2\n      swap1\n      pop\n      jump\t// out\n        /* \"Users/leilei/Downloads/MasterChefV2/contracts/PancakeBunnies.sol\":50814:50966  function tokenOfOwnerByIndex(address owner, uint256 index) public view override returns (uint256) {... */\n    tag_74:\n      sub(shl(0xa0, 0x01), 0x01)\n        /* \"Users/leilei/Downloads/MasterChefV2/contracts/PancakeBunnies.sol\":50929:50949  _holderTokens[owner] */\n      dup3\n      and\n        /* \"Users/leilei/Downloads/MasterChefV2/contracts/PancakeBunnies.sol\":50903:50910  uint256 */\n      0x00\n        /* \"Users/leilei/Downloads/MasterChefV2/contracts/PancakeBunnies.sol\":50929:50949  _holderTokens[owner] */\n      swap1\n      dup2\n      mstore\n        /* \"Users/leilei/Downloads/MasterChefV2/contracts/PancakeBunnies.sol\":50929:50942  _holderTokens */\n      0x01\n        /* \"Users/leilei/Downloads/MasterChefV2/contracts/PancakeBunnies.sol\":50929:50949  _holderTokens[owner] */\n      0x20\n      mstore\n      0x40\n      dup2\n      keccak256\n        /* \"Users/leilei/Downloads/MasterChefV2/contracts/PancakeBunnies.sol\":50929:50959  _holderTokens[owner].at(index) */\n      tag_188\n      swap1\n        /* \"Users/leilei/Downloads/MasterChefV2/contracts/PancakeBunnies.sol\":50953:50958  index */\n      dup4\n        /* \"Users/leilei/Downloads/MasterChefV2/contracts/PancakeBunnies.sol\":50929:50959  _holderTokens[owner].at(index) */\n      0xffffffff\n        /* \"Users/leilei/Downloads/MasterChefV2/contracts/PancakeBunnies.sol\":50929:50952  _holderTokens[owner].at */\n      tag_189\n        /* \"Users/leilei/Downloads/MasterChefV2/contracts/PancakeBunnies.sol\":50929:50959  _holderTokens[owner].at(index) */\n      and\n      jump\t// in\n    tag_188:\n        /* \"Users/leilei/Downloads/MasterChefV2/contracts/PancakeBunnies.sol\":50922:50959  return _holderTokens[owner].at(index) */\n      swap1\n      pop\n        /* \"Users/leilei/Downloads/MasterChefV2/contracts/PancakeBunnies.sol\":50814:50966  function tokenOfOwnerByIndex(address owner, uint256 index) public view override returns (uint256) {... */\n    tag_187:\n      swap3\n      swap2\n      pop\n      pop\n      jump\t// out\n        /* \"Users/leilei/Downloads/MasterChefV2/contracts/PancakeBunnies.sol\":53183:53332  function safeTransferFrom(address from, address to, uint256 tokenId) public virtual override {... */\n    tag_77:\n        /* \"Users/leilei/Downloads/MasterChefV2/contracts/PancakeBunnies.sol\":53286:53325  safeTransferFrom(from, to, tokenId, \"\") */\n      tag_167\n        /* \"Users/leilei/Downloads/MasterChefV2/contracts/PancakeBunnies.sol\":53303:53307  from */\n      dup4\n        /* \"Users/leilei/Downloads/MasterChefV2/contracts/PancakeBunnies.sol\":53309:53311  to */\n      dup4\n        /* \"Users/leilei/Downloads/MasterChefV2/contracts/PancakeBunnies.sol\":53313:53320  tokenId */\n      dup4\n        /* \"Users/leilei/Downloads/MasterChefV2/contracts/PancakeBunnies.sol\":53286:53325  safeTransferFrom(from, to, tokenId, \"\") */\n      mload(0x40)\n      dup1\n      0x20\n      add\n      0x40\n      mstore\n      dup1\n      0x00\n      dup2\n      mstore\n      pop\n        /* \"Users/leilei/Downloads/MasterChefV2/contracts/PancakeBunnies.sol\":53286:53302  safeTransferFrom */\n      tag_129\n        /* \"Users/leilei/Downloads/MasterChefV2/contracts/PancakeBunnies.sol\":53286:53325  safeTransferFrom(from, to, tokenId, \"\") */\n      jump\t// in\n        /* \"Users/leilei/Downloads/MasterChefV2/contracts/PancakeBunnies.sol\":63867:64143  function burn(uint256 _tokenId) external onlyOwner {... */\n    tag_80:\n        /* \"Users/leilei/Downloads/MasterChefV2/contracts/PancakeBunnies.sol\":2313:2325  _msgSender() */\n      tag_193\n        /* \"Users/leilei/Downloads/MasterChefV2/contracts/PancakeBunnies.sol\":2313:2323  _msgSender */\n      tag_162\n        /* \"Users/leilei/Downloads/MasterChefV2/contracts/PancakeBunnies.sol\":2313:2325  _msgSender() */\n      jump\t// in\n    tag_193:\n        /* \"Users/leilei/Downloads/MasterChefV2/contracts/PancakeBunnies.sol\":2303:2309  _owner */\n      sload(0x0a)\n      sub(shl(0xa0, 0x01), 0x01)\n      swap1\n      dup2\n      and\n        /* \"Users/leilei/Downloads/MasterChefV2/contracts/PancakeBunnies.sol\":2303:2325  _owner == _msgSender() */\n      swap2\n      and\n      eq\n        /* \"Users/leilei/Downloads/MasterChefV2/contracts/PancakeBunnies.sol\":2295:2362  require(_owner == _msgSender(), \"Ownable: caller is not the owner\") */\n      tag_194\n      jumpi\n      0x40\n      dup1\n      mload\n      shl(0xe5, 0x461bcd)\n      dup2\n      mstore\n      0x20\n      0x04\n      dup3\n      add\n      dup2\n      swap1\n      mstore\n      0x24\n      dup3\n      add\n      mstore\n      0x00\n      dup1\n      mload\n      0x20\n      data_9924ebdf1add33d25d4ef888e16131f0a5687b0580a36c21b5c301a6c462effe\n      dup4\n      codecopy\n      dup2\n      mload\n      swap2\n      mstore\n      0x44\n      dup3\n      add\n      mstore\n      swap1\n      mload\n      swap1\n      dup2\n      swap1\n      sub\n      0x64\n      add\n      swap1\n      revert\n    tag_194:\n        /* \"Users/leilei/Downloads/MasterChefV2/contracts/PancakeBunnies.sol\":63928:63946  uint8 bunnyIdBurnt */\n      0x00\n        /* \"Users/leilei/Downloads/MasterChefV2/contracts/PancakeBunnies.sol\":63949:63967  bunnyIds[_tokenId] */\n      dup2\n      dup2\n      mstore\n        /* \"Users/leilei/Downloads/MasterChefV2/contracts/PancakeBunnies.sol\":63949:63957  bunnyIds */\n      0x0e\n        /* \"Users/leilei/Downloads/MasterChefV2/contracts/PancakeBunnies.sol\":63949:63967  bunnyIds[_tokenId] */\n      0x20\n      swap1\n      dup2\n      mstore\n      0x40\n      dup1\n      dup4\n      keccak256\n      sload\n      0xff\n      and\n        /* \"Users/leilei/Downloads/MasterChefV2/contracts/PancakeBunnies.sol\":64004:64028  bunnyCount[bunnyIdBurnt] */\n      dup1\n      dup5\n      mstore\n        /* \"Users/leilei/Downloads/MasterChefV2/contracts/PancakeBunnies.sol\":64004:64014  bunnyCount */\n      0x0b\n        /* \"Users/leilei/Downloads/MasterChefV2/contracts/PancakeBunnies.sol\":64004:64028  bunnyCount[bunnyIdBurnt] */\n      swap1\n      swap3\n      mstore\n      swap1\n      swap2\n      keccak256\n      sload\n        /* \"Users/leilei/Downloads/MasterChefV2/contracts/PancakeBunnies.sol\":64004:64035  bunnyCount[bunnyIdBurnt].sub(1) */\n      tag_196\n      swap1\n        /* \"Users/leilei/Downloads/MasterChefV2/contracts/PancakeBunnies.sol\":63949:63967  bunnyIds[_tokenId] */\n      0x01\n        /* \"Users/leilei/Downloads/MasterChefV2/contracts/PancakeBunnies.sol\":64004:64035  bunnyCount[bunnyIdBurnt].sub(1) */\n      0xffffffff\n        /* \"Users/leilei/Downloads/MasterChefV2/contracts/PancakeBunnies.sol\":64004:64032  bunnyCount[bunnyIdBurnt].sub */\n      tag_197\n        /* \"Users/leilei/Downloads/MasterChefV2/contracts/PancakeBunnies.sol\":64004:64035  bunnyCount[bunnyIdBurnt].sub(1) */\n      and\n      jump\t// in\n    tag_196:\n        /* \"Users/leilei/Downloads/MasterChefV2/contracts/PancakeBunnies.sol\":63977:64001  bunnyCount[bunnyIdBurnt] */\n      0xff\n      dup3\n      and\n      0x00\n      swap1\n      dup2\n      mstore\n        /* \"Users/leilei/Downloads/MasterChefV2/contracts/PancakeBunnies.sol\":63977:63987  bunnyCount */\n      0x0b\n        /* \"Users/leilei/Downloads/MasterChefV2/contracts/PancakeBunnies.sol\":63977:64001  bunnyCount[bunnyIdBurnt] */\n      0x20\n      swap1\n      dup2\n      mstore\n      0x40\n      dup1\n      dup4\n      keccak256\n        /* \"Users/leilei/Downloads/MasterChefV2/contracts/PancakeBunnies.sol\":63977:64035  bunnyCount[bunnyIdBurnt] = bunnyCount[bunnyIdBurnt].sub(1) */\n      swap4\n      swap1\n      swap4\n      sstore\n        /* \"Users/leilei/Downloads/MasterChefV2/contracts/PancakeBunnies.sol\":64076:64090  bunnyBurnCount */\n      0x0c\n        /* \"Users/leilei/Downloads/MasterChefV2/contracts/PancakeBunnies.sol\":64076:64104  bunnyBurnCount[bunnyIdBurnt] */\n      swap1\n      mstore\n      keccak256\n      sload\n        /* \"Users/leilei/Downloads/MasterChefV2/contracts/PancakeBunnies.sol\":64076:64111  bunnyBurnCount[bunnyIdBurnt].add(1) */\n      tag_198\n      swap1\n        /* \"Users/leilei/Downloads/MasterChefV2/contracts/PancakeBunnies.sol\":64109:64110  1 */\n      0x01\n        /* \"Users/leilei/Downloads/MasterChefV2/contracts/PancakeBunnies.sol\":64076:64111  bunnyBurnCount[bunnyIdBurnt].add(1) */\n      0xffffffff\n        /* \"Users/leilei/Downloads/MasterChefV2/contracts/PancakeBunnies.sol\":64076:64108  bunnyBurnCount[bunnyIdBurnt].add */\n      tag_199\n        /* \"Users/leilei/Downloads/MasterChefV2/contracts/PancakeBunnies.sol\":64076:64111  bunnyBurnCount[bunnyIdBurnt].add(1) */\n      and\n      jump\t// in\n    tag_198:\n        /* \"Users/leilei/Downloads/MasterChefV2/contracts/PancakeBunnies.sol\":64045:64073  bunnyBurnCount[bunnyIdBurnt] */\n      0xff\n      dup3\n      and\n      0x00\n      swap1\n      dup2\n      mstore\n        /* \"Users/leilei/Downloads/MasterChefV2/contracts/PancakeBunnies.sol\":64045:64059  bunnyBurnCount */\n      0x0c\n        /* \"Users/leilei/Downloads/MasterChefV2/contracts/PancakeBunnies.sol\":64045:64073  bunnyBurnCount[bunnyIdBurnt] */\n      0x20\n      mstore\n      0x40\n      swap1\n      keccak256\n        /* \"Users/leilei/Downloads/MasterChefV2/contracts/PancakeBunnies.sol\":64045:64111  bunnyBurnCount[bunnyIdBurnt] = bunnyBurnCount[bunnyIdBurnt].add(1) */\n      sstore\n        /* \"Users/leilei/Downloads/MasterChefV2/contracts/PancakeBunnies.sol\":64121:64136  _burn(_tokenId) */\n      tag_200\n        /* \"Users/leilei/Downloads/MasterChefV2/contracts/PancakeBunnies.sol\":64127:64135  _tokenId */\n      dup3\n        /* \"Users/leilei/Downloads/MasterChefV2/contracts/PancakeBunnies.sol\":64121:64126  _burn */\n      tag_201\n        /* \"Users/leilei/Downloads/MasterChefV2/contracts/PancakeBunnies.sol\":64121:64136  _burn(_tokenId) */\n      jump\t// in\n    tag_200:\n        /* \"Users/leilei/Downloads/MasterChefV2/contracts/PancakeBunnies.sol\":2372:2373  _ */\n      pop\n        /* \"Users/leilei/Downloads/MasterChefV2/contracts/PancakeBunnies.sol\":63867:64143  function burn(uint256 _tokenId) external onlyOwner {... */\n      pop\n      jump\t// out\n        /* \"Users/leilei/Downloads/MasterChefV2/contracts/PancakeBunnies.sol\":51309:51470  function tokenByIndex(uint256 index) public view override returns (uint256) {... */\n    tag_83:\n        /* \"Users/leilei/Downloads/MasterChefV2/contracts/PancakeBunnies.sol\":51376:51383  uint256 */\n      0x00\n      dup1\n        /* \"Users/leilei/Downloads/MasterChefV2/contracts/PancakeBunnies.sol\":51417:51439  _tokenOwners.at(index) */\n      tag_203\n        /* \"Users/leilei/Downloads/MasterChefV2/contracts/PancakeBunnies.sol\":51417:51429  _tokenOwners */\n      0x02\n        /* \"Users/leilei/Downloads/MasterChefV2/contracts/PancakeBunnies.sol\":51433:51438  index */\n      dup5\n        /* \"Users/leilei/Downloads/MasterChefV2/contracts/PancakeBunnies.sol\":51417:51439  _tokenOwners.at(index) */\n      0xffffffff\n        /* \"Users/leilei/Downloads/MasterChefV2/contracts/PancakeBunnies.sol\":51417:51432  _tokenOwners.at */\n      tag_204\n        /* \"Users/leilei/Downloads/MasterChefV2/contracts/PancakeBunnies.sol\":51417:51439  _tokenOwners.at(index) */\n      and\n      jump\t// in\n    tag_203:\n      pop\n        /* \"Users/leilei/Downloads/MasterChefV2/contracts/PancakeBunnies.sol\":51395:51439  (uint256 tokenId, ) = _tokenOwners.at(index) */\n      swap4\n        /* \"Users/leilei/Downloads/MasterChefV2/contracts/PancakeBunnies.sol\":51309:51470  function tokenByIndex(uint256 index) public view override returns (uint256) {... */\n      swap3\n      pop\n      pop\n      pop\n      jump\t// out\n        /* \"Users/leilei/Downloads/MasterChefV2/contracts/PancakeBunnies.sol\":63646:63791  function setBunnyName(uint8 _bunnyId, string calldata _name)... */\n    tag_89:\n        /* \"Users/leilei/Downloads/MasterChefV2/contracts/PancakeBunnies.sol\":2313:2325  _msgSender() */\n      tag_206\n        /* \"Users/leilei/Downloads/MasterChefV2/contracts/PancakeBunnies.sol\":2313:2323  _msgSender */\n      tag_162\n        /* \"Users/leilei/Downloads/MasterChefV2/contracts/PancakeBunnies.sol\":2313:2325  _msgSender() */\n      jump\t// in\n    tag_206:\n        /* \"Users/leilei/Downloads/MasterChefV2/contracts/PancakeBunnies.sol\":2303:2309  _owner */\n      sload(0x0a)\n      sub(shl(0xa0, 0x01), 0x01)\n      swap1\n      dup2\n      and\n        /* \"Users/leilei/Downloads/MasterChefV2/contracts/PancakeBunnies.sol\":2303:2325  _owner == _msgSender() */\n      swap2\n      and\n      eq\n        /* \"Users/leilei/Downloads/MasterChefV2/contracts/PancakeBunnies.sol\":2295:2362  require(_owner == _msgSender(), \"Ownable: caller is not the owner\") */\n      tag_207\n      jumpi\n      0x40\n      dup1\n      mload\n      shl(0xe5, 0x461bcd)\n      dup2\n      mstore\n      0x20\n      0x04\n      dup3\n      add\n      dup2\n      swap1\n      mstore\n      0x24\n      dup3\n      add\n      mstore\n      0x00\n      dup1\n      mload\n      0x20\n      data_9924ebdf1add33d25d4ef888e16131f0a5687b0580a36c21b5c301a6c462effe\n      dup4\n      codecopy\n      dup2\n      mload\n      swap2\n      mstore\n      0x44\n      dup3\n      add\n      mstore\n      swap1\n      mload\n      swap1\n      dup2\n      swap1\n      sub\n      0x64\n      add\n      swap1\n      revert\n    tag_207:\n        /* \"Users/leilei/Downloads/MasterChefV2/contracts/PancakeBunnies.sol\":63756:63776  bunnyNames[_bunnyId] */\n      0xff\n      dup4\n      and\n      0x00\n      swap1\n      dup2\n      mstore\n        /* \"Users/leilei/Downloads/MasterChefV2/contracts/PancakeBunnies.sol\":63756:63766  bunnyNames */\n      0x0f\n        /* \"Users/leilei/Downloads/MasterChefV2/contracts/PancakeBunnies.sol\":63756:63776  bunnyNames[_bunnyId] */\n      0x20\n      mstore\n      0x40\n      swap1\n      keccak256\n        /* \"Users/leilei/Downloads/MasterChefV2/contracts/PancakeBunnies.sol\":63756:63784  bunnyNames[_bunnyId] = _name */\n      tag_209\n      swap1\n        /* \"Users/leilei/Downloads/MasterChefV2/contracts/PancakeBunnies.sol\":63779:63784  _name */\n      dup4\n      dup4\n        /* \"Users/leilei/Downloads/MasterChefV2/contracts/PancakeBunnies.sol\":63756:63784  bunnyNames[_bunnyId] = _name */\n      tag_210\n      jump\t// in\n    tag_209:\n      pop\n        /* \"Users/leilei/Downloads/MasterChefV2/contracts/PancakeBunnies.sol\":63646:63791  function setBunnyName(uint8 _bunnyId, string calldata _name)... */\n      pop\n      pop\n      pop\n      jump\t// out\n        /* \"Users/leilei/Downloads/MasterChefV2/contracts/PancakeBunnies.sol\":49133:49300  function ownerOf(uint256 tokenId) public view override returns (address) {... */\n    tag_92:\n        /* \"Users/leilei/Downloads/MasterChefV2/contracts/PancakeBunnies.sol\":49197:49204  address */\n      0x00\n        /* \"Users/leilei/Downloads/MasterChefV2/contracts/PancakeBunnies.sol\":49223:49293  _tokenOwners.get(tokenId, \"ERC721: owner query for nonexistent token\") */\n      tag_187\n        /* \"Users/leilei/Downloads/MasterChefV2/contracts/PancakeBunnies.sol\":49240:49247  tokenId */\n      dup3\n        /* \"Users/leilei/Downloads/MasterChefV2/contracts/PancakeBunnies.sol\":49223:49293  _tokenOwners.get(tokenId, \"ERC721: owner query for nonexistent token\") */\n      mload(0x40)\n      dup1\n      0x60\n      add\n      0x40\n      mstore\n      dup1\n      0x29\n      dup2\n      mstore\n      0x20\n      add\n      data_7481f3df2a424c0755a1ad2356614e9a5a358d461ea2eae1f89cb21cbad00397\n      0x29\n      swap2\n      codecopy\n        /* \"Users/leilei/Downloads/MasterChefV2/contracts/PancakeBunnies.sol\":49223:49235  _tokenOwners */\n      0x02\n      swap2\n        /* \"Users/leilei/Downloads/MasterChefV2/contracts/PancakeBunnies.sol\":49223:49293  _tokenOwners.get(tokenId, \"ERC721: owner query for nonexistent token\") */\n      swap1\n      0xffffffff\n        /* \"Users/leilei/Downloads/MasterChefV2/contracts/PancakeBunnies.sol\":49223:49239  _tokenOwners.get */\n      tag_213\n        /* \"Users/leilei/Downloads/MasterChefV2/contracts/PancakeBunnies.sol\":49223:49293  _tokenOwners.get(tokenId, \"ERC721: owner query for nonexistent token\") */\n      and\n      jump\t// in\n        /* \"Users/leilei/Downloads/MasterChefV2/contracts/PancakeBunnies.sol\":63137:63542  function mint(... */\n    tag_98:\n        /* \"Users/leilei/Downloads/MasterChefV2/contracts/PancakeBunnies.sol\":63265:63272  uint256 */\n      0x00\n        /* \"Users/leilei/Downloads/MasterChefV2/contracts/PancakeBunnies.sol\":2313:2325  _msgSender() */\n      tag_215\n        /* \"Users/leilei/Downloads/MasterChefV2/contracts/PancakeBunnies.sol\":2313:2323  _msgSender */\n      tag_162\n        /* \"Users/leilei/Downloads/MasterChefV2/contracts/PancakeBunnies.sol\":2313:2325  _msgSender() */\n      jump\t// in\n    tag_215:\n        /* \"Users/leilei/Downloads/MasterChefV2/contracts/PancakeBunnies.sol\":2303:2309  _owner */\n      sload(0x0a)\n      sub(shl(0xa0, 0x01), 0x01)\n      swap1\n      dup2\n      and\n        /* \"Users/leilei/Downloads/MasterChefV2/contracts/PancakeBunnies.sol\":2303:2325  _owner == _msgSender() */\n      swap2\n      and\n      eq\n        /* \"Users/leilei/Downloads/MasterChefV2/contracts/PancakeBunnies.sol\":2295:2362  require(_owner == _msgSender(), \"Ownable: caller is not the owner\") */\n      tag_216\n      jumpi\n      0x40\n      dup1\n      mload\n      shl(0xe5, 0x461bcd)\n      dup2\n      mstore\n      0x20\n      0x04\n      dup3\n      add\n      dup2\n      swap1\n      mstore\n      0x24\n      dup3\n      add\n      mstore\n      0x00\n      dup1\n      mload\n      0x20\n      data_9924ebdf1add33d25d4ef888e16131f0a5687b0580a36c21b5c301a6c462effe\n      dup4\n      codecopy\n      dup2\n      mload\n      swap2\n      mstore\n      0x44\n      dup3\n      add\n      mstore\n      swap1\n      mload\n      swap1\n      dup2\n      swap1\n      sub\n      0x64\n      add\n      swap1\n      revert\n    tag_216:\n        /* \"Users/leilei/Downloads/MasterChefV2/contracts/PancakeBunnies.sol\":63284:63297  uint256 newId */\n      0x00\n        /* \"Users/leilei/Downloads/MasterChefV2/contracts/PancakeBunnies.sol\":63300:63319  _tokenIds.current() */\n      tag_218\n        /* \"Users/leilei/Downloads/MasterChefV2/contracts/PancakeBunnies.sol\":63300:63309  _tokenIds */\n      0x0d\n        /* \"Users/leilei/Downloads/MasterChefV2/contracts/PancakeBunnies.sol\":63300:63317  _tokenIds.current */\n      tag_219\n        /* \"Users/leilei/Downloads/MasterChefV2/contracts/PancakeBunnies.sol\":63300:63319  _tokenIds.current() */\n      jump\t// in\n    tag_218:\n        /* \"Users/leilei/Downloads/MasterChefV2/contracts/PancakeBunnies.sol\":63284:63319  uint256 newId = _tokenIds.current() */\n      swap1\n      pop\n        /* \"Users/leilei/Downloads/MasterChefV2/contracts/PancakeBunnies.sol\":63329:63350  _tokenIds.increment() */\n      tag_220\n        /* \"Users/leilei/Downloads/MasterChefV2/contracts/PancakeBunnies.sol\":63329:63338  _tokenIds */\n      0x0d\n        /* \"Users/leilei/Downloads/MasterChefV2/contracts/PancakeBunnies.sol\":63329:63348  _tokenIds.increment */\n      tag_221\n        /* \"Users/leilei/Downloads/MasterChefV2/contracts/PancakeBunnies.sol\":63329:63350  _tokenIds.increment() */\n      jump\t// in\n    tag_220:\n        /* \"Users/leilei/Downloads/MasterChefV2/contracts/PancakeBunnies.sol\":63360:63375  bunnyIds[newId] */\n      0x00\n      dup2\n      dup2\n      mstore\n        /* \"Users/leilei/Downloads/MasterChefV2/contracts/PancakeBunnies.sol\":63360:63368  bunnyIds */\n      0x0e\n        /* \"Users/leilei/Downloads/MasterChefV2/contracts/PancakeBunnies.sol\":63360:63375  bunnyIds[newId] */\n      0x20\n      swap1\n      dup2\n      mstore\n      0x40\n      dup1\n      dup4\n      keccak256\n        /* \"Users/leilei/Downloads/MasterChefV2/contracts/PancakeBunnies.sol\":63360:63386  bunnyIds[newId] = _bunnyId */\n      dup1\n      sload\n      not(0xff)\n      and\n      0xff\n      dup9\n      and\n      swap1\n      dup2\n      or\n      swap1\n      swap2\n      sstore\n        /* \"Users/leilei/Downloads/MasterChefV2/contracts/PancakeBunnies.sol\":63419:63439  bunnyCount[_bunnyId] */\n      dup4\n      mstore\n        /* \"Users/leilei/Downloads/MasterChefV2/contracts/PancakeBunnies.sol\":63419:63429  bunnyCount */\n      0x0b\n        /* \"Users/leilei/Downloads/MasterChefV2/contracts/PancakeBunnies.sol\":63419:63439  bunnyCount[_bunnyId] */\n      swap1\n      swap2\n      mstore\n      swap1\n      keccak256\n      sload\n        /* \"Users/leilei/Downloads/MasterChefV2/contracts/PancakeBunnies.sol\":63419:63446  bunnyCount[_bunnyId].add(1) */\n      tag_222\n      swap1\n      0x01\n        /* \"Users/leilei/Downloads/MasterChefV2/contracts/PancakeBunnies.sol\":63419:63443  bunnyCount[_bunnyId].add */\n      tag_199\n        /* \"Users/leilei/Downloads/MasterChefV2/contracts/PancakeBunnies.sol\":63419:63446  bunnyCount[_bunnyId].add(1) */\n      jump\t// in\n    tag_222:\n        /* \"Users/leilei/Downloads/MasterChefV2/contracts/PancakeBunnies.sol\":63396:63416  bunnyCount[_bunnyId] */\n      0xff\n      dup5\n      and\n      0x00\n      swap1\n      dup2\n      mstore\n        /* \"Users/leilei/Downloads/MasterChefV2/contracts/PancakeBunnies.sol\":63396:63406  bunnyCount */\n      0x0b\n        /* \"Users/leilei/Downloads/MasterChefV2/contracts/PancakeBunnies.sol\":63396:63416  bunnyCount[_bunnyId] */\n      0x20\n      mstore\n      0x40\n      swap1\n      keccak256\n        /* \"Users/leilei/Downloads/MasterChefV2/contracts/PancakeBunnies.sol\":63396:63446  bunnyCount[_bunnyId] = bunnyCount[_bunnyId].add(1) */\n      sstore\n        /* \"Users/leilei/Downloads/MasterChefV2/contracts/PancakeBunnies.sol\":63456:63473  _mint(_to, newId) */\n      tag_223\n        /* \"Users/leilei/Downloads/MasterChefV2/contracts/PancakeBunnies.sol\":63462:63465  _to */\n      dup7\n        /* \"Users/leilei/Downloads/MasterChefV2/contracts/PancakeBunnies.sol\":63467:63472  newId */\n      dup3\n        /* \"Users/leilei/Downloads/MasterChefV2/contracts/PancakeBunnies.sol\":63456:63461  _mint */\n      tag_224\n        /* \"Users/leilei/Downloads/MasterChefV2/contracts/PancakeBunnies.sol\":63456:63473  _mint(_to, newId) */\n      jump\t// in\n    tag_223:\n        /* \"Users/leilei/Downloads/MasterChefV2/contracts/PancakeBunnies.sol\":63483:63513  _setTokenURI(newId, _tokenURI) */\n      tag_225\n        /* \"Users/leilei/Downloads/MasterChefV2/contracts/PancakeBunnies.sol\":63496:63501  newId */\n      dup2\n        /* \"Users/leilei/Downloads/MasterChefV2/contracts/PancakeBunnies.sol\":63503:63512  _tokenURI */\n      dup7\n      dup7\n        /* \"Users/leilei/Downloads/MasterChefV2/contracts/PancakeBunnies.sol\":63483:63513  _setTokenURI(newId, _tokenURI) */\n      dup1\n      dup1\n      0x1f\n      add\n      0x20\n      dup1\n      swap2\n      div\n      mul\n      0x20\n      add\n      mload(0x40)\n      swap1\n      dup2\n      add\n      0x40\n      mstore\n      dup1\n      swap4\n      swap3\n      swap2\n      swap1\n      dup2\n      dup2\n      mstore\n      0x20\n      add\n      dup4\n      dup4\n        /* \"--CODEGEN--\":30:33   */\n      dup1\n        /* \"--CODEGEN--\":22:28   */\n      dup3\n        /* \"--CODEGEN--\":14:20   */\n      dup5\n        /* \"--CODEGEN--\":1:34   */\n      calldatacopy\n        /* \"--CODEGEN--\":99:100   */\n      0x00\n        /* \"--CODEGEN--\":81:97   */\n      swap3\n      add\n        /* \"--CODEGEN--\":74:101   */\n      swap2\n      swap1\n      swap2\n      mstore\n      pop\n        /* \"Users/leilei/Downloads/MasterChefV2/contracts/PancakeBunnies.sol\":63483:63495  _setTokenURI */\n      tag_226\n      swap3\n      pop\n      pop\n      pop\n        /* \"Users/leilei/Downloads/MasterChefV2/contracts/PancakeBunnies.sol\":63483:63513  _setTokenURI(newId, _tokenURI) */\n      jump\t// in\n    tag_225:\n        /* \"Users/leilei/Downloads/MasterChefV2/contracts/PancakeBunnies.sol\":63530:63535  newId */\n      swap1\n      pop\n        /* \"Users/leilei/Downloads/MasterChefV2/contracts/PancakeBunnies.sol\":2372:2373  _ */\n    tag_217:\n        /* \"Users/leilei/Downloads/MasterChefV2/contracts/PancakeBunnies.sol\":63137:63542  function mint(... */\n      swap5\n      swap4\n      pop\n      pop\n      pop\n      pop\n      jump\t// out\n        /* \"Users/leilei/Downloads/MasterChefV2/contracts/PancakeBunnies.sol\":50648:50735  function baseURI() public view returns (string memory) {... */\n    tag_100:\n        /* \"Users/leilei/Downloads/MasterChefV2/contracts/PancakeBunnies.sol\":50720:50728  _baseURI */\n      0x09\n        /* \"Users/leilei/Downloads/MasterChefV2/contracts/PancakeBunnies.sol\":50713:50728  return _baseURI */\n      dup1\n      sload\n      0x40\n      dup1\n      mload\n      0x20\n      0x1f\n      0x02\n      not(0x00)\n      0x0100\n      0x01\n      dup9\n      and\n      iszero\n      mul\n      add\n      swap1\n      swap6\n      and\n      swap5\n      swap1\n      swap5\n      div\n      swap4\n      dup5\n      add\n      dup2\n      swap1\n      div\n      dup2\n      mul\n      dup3\n      add\n      dup2\n      add\n      swap1\n      swap3\n      mstore\n      dup3\n      dup2\n      mstore\n        /* \"Users/leilei/Downloads/MasterChefV2/contracts/PancakeBunnies.sol\":50688:50701  string memory */\n      0x60\n      swap4\n        /* \"Users/leilei/Downloads/MasterChefV2/contracts/PancakeBunnies.sol\":50713:50728  return _baseURI */\n      swap1\n      swap3\n        /* \"Users/leilei/Downloads/MasterChefV2/contracts/PancakeBunnies.sol\":50720:50728  _baseURI */\n      swap1\n      swap2\n        /* \"Users/leilei/Downloads/MasterChefV2/contracts/PancakeBunnies.sol\":50713:50728  return _baseURI */\n      dup4\n      add\n        /* \"Users/leilei/Downloads/MasterChefV2/contracts/PancakeBunnies.sol\":50720:50728  _baseURI */\n      dup3\n        /* \"Users/leilei/Downloads/MasterChefV2/contracts/PancakeBunnies.sol\":50713:50728  return _baseURI */\n      dup3\n      dup1\n      iszero\n      tag_151\n      jumpi\n      dup1\n      0x1f\n      lt\n      tag_152\n      jumpi\n      0x0100\n      dup1\n      dup4\n      sload\n      div\n      mul\n      dup4\n      mstore\n      swap2\n      0x20\n      add\n      swap2\n      jump(tag_151)\n        /* \"Users/leilei/Downloads/MasterChefV2/contracts/PancakeBunnies.sol\":48865:49076  function balanceOf(address owner) public view override returns (uint256) {... */\n    tag_107:\n        /* \"Users/leilei/Downloads/MasterChefV2/contracts/PancakeBunnies.sol\":48929:48936  uint256 */\n      0x00\n      sub(shl(0xa0, 0x01), 0x01)\n        /* \"Users/leilei/Downloads/MasterChefV2/contracts/PancakeBunnies.sol\":48956:48975  owner != address(0) */\n      dup3\n      and\n        /* \"Users/leilei/Downloads/MasterChefV2/contracts/PancakeBunnies.sol\":48948:49022  require(owner != address(0), \"ERC721: balance query for the zero address\") */\n      tag_232\n      jumpi\n      mload(0x40)\n      shl(0xe5, 0x461bcd)\n      dup2\n      mstore\n      0x04\n      add\n      dup1\n      dup1\n      0x20\n      add\n      dup3\n      dup2\n      sub\n      dup3\n      mstore\n      0x2a\n      dup2\n      mstore\n      0x20\n      add\n      dup1\n      data_7395d4d3901c50cdfcab223d072f9aa36241df5d883e62cbf147ee1b05a9e6ba\n      0x2a\n      swap2\n      codecopy\n      0x40\n      add\n      swap2\n      pop\n      pop\n      mload(0x40)\n      dup1\n      swap2\n      sub\n      swap1\n      revert\n    tag_232:\n      sub(shl(0xa0, 0x01), 0x01)\n        /* \"Users/leilei/Downloads/MasterChefV2/contracts/PancakeBunnies.sol\":49040:49060  _holderTokens[owner] */\n      dup3\n      and\n      0x00\n      swap1\n      dup2\n      mstore\n        /* \"Users/leilei/Downloads/MasterChefV2/contracts/PancakeBunnies.sol\":49040:49053  _holderTokens */\n      0x01\n        /* \"Users/leilei/Downloads/MasterChefV2/contracts/PancakeBunnies.sol\":49040:49060  _holderTokens[owner] */\n      0x20\n      mstore\n      0x40\n      swap1\n      keccak256\n        /* \"Users/leilei/Downloads/MasterChefV2/contracts/PancakeBunnies.sol\":49040:49069  _holderTokens[owner].length() */\n      tag_187\n      swap1\n        /* \"Users/leilei/Downloads/MasterChefV2/contracts/PancakeBunnies.sol\":49040:49067  _holderTokens[owner].length */\n      tag_171\n        /* \"Users/leilei/Downloads/MasterChefV2/contracts/PancakeBunnies.sol\":49040:49069  _holderTokens[owner].length() */\n      jump\t// in\n        /* \"Users/leilei/Downloads/MasterChefV2/contracts/PancakeBunnies.sol\":2722:2867  function renounceOwnership() public virtual onlyOwner {... */\n    tag_109:\n        /* \"Users/leilei/Downloads/MasterChefV2/contracts/PancakeBunnies.sol\":2313:2325  _msgSender() */\n      tag_236\n        /* \"Users/leilei/Downloads/MasterChefV2/contracts/PancakeBunnies.sol\":2313:2323  _msgSender */\n      tag_162\n        /* \"Users/leilei/Downloads/MasterChefV2/contracts/PancakeBunnies.sol\":2313:2325  _msgSender() */\n      jump\t// in\n    tag_236:\n        /* \"Users/leilei/Downloads/MasterChefV2/contracts/PancakeBunnies.sol\":2303:2309  _owner */\n      sload(0x0a)\n      sub(shl(0xa0, 0x01), 0x01)\n      swap1\n      dup2\n      and\n        /* \"Users/leilei/Downloads/MasterChefV2/contracts/PancakeBunnies.sol\":2303:2325  _owner == _msgSender() */\n      swap2\n      and\n      eq\n        /* \"Users/leilei/Downloads/MasterChefV2/contracts/PancakeBunnies.sol\":2295:2362  require(_owner == _msgSender(), \"Ownable: caller is not the owner\") */\n      tag_237\n      jumpi\n      0x40\n      dup1\n      mload\n      shl(0xe5, 0x461bcd)\n      dup2\n      mstore\n      0x20\n      0x04\n      dup3\n      add\n      dup2\n      swap1\n      mstore\n      0x24\n      dup3\n      add\n      mstore\n      0x00\n      dup1\n      mload\n      0x20\n      data_9924ebdf1add33d25d4ef888e16131f0a5687b0580a36c21b5c301a6c462effe\n      dup4\n      codecopy\n      dup2\n      mload\n      swap2\n      mstore\n      0x44\n      dup3\n      add\n      mstore\n      swap1\n      mload\n      swap1\n      dup2\n      swap1\n      sub\n      0x64\n      add\n      swap1\n      revert\n    tag_237:\n        /* \"Users/leilei/Downloads/MasterChefV2/contracts/PancakeBunnies.sol\":2812:2818  _owner */\n      sload(0x0a)\n        /* \"Users/leilei/Downloads/MasterChefV2/contracts/PancakeBunnies.sol\":2791:2831  OwnershipTransferred(_owner, address(0)) */\n      mload(0x40)\n        /* \"Users/leilei/Downloads/MasterChefV2/contracts/PancakeBunnies.sol\":2828:2829  0 */\n      0x00\n      swap2\n      sub(shl(0xa0, 0x01), 0x01)\n        /* \"Users/leilei/Downloads/MasterChefV2/contracts/PancakeBunnies.sol\":2812:2818  _owner */\n      and\n      swap1\n        /* \"Users/leilei/Downloads/MasterChefV2/contracts/PancakeBunnies.sol\":2791:2831  OwnershipTransferred(_owner, address(0)) */\n      0x8be0079c531659141344cd1fd0a4f28419497f9722a3daafe3b4186f6b6457e0\n      swap1\n        /* \"Users/leilei/Downloads/MasterChefV2/contracts/PancakeBunnies.sol\":2828:2829  0 */\n      dup4\n      swap1\n        /* \"Users/leilei/Downloads/MasterChefV2/contracts/PancakeBunnies.sol\":2791:2831  OwnershipTransferred(_owner, address(0)) */\n      log3\n        /* \"Users/leilei/Downloads/MasterChefV2/contracts/PancakeBunnies.sol\":2841:2847  _owner */\n      0x0a\n        /* \"Users/leilei/Downloads/MasterChefV2/contracts/PancakeBunnies.sol\":2841:2860  _owner = address(0) */\n      dup1\n      sload\n      not(sub(shl(0xa0, 0x01), 0x01))\n      and\n      swap1\n      sstore\n        /* \"Users/leilei/Downloads/MasterChefV2/contracts/PancakeBunnies.sol\":2722:2867  function renounceOwnership() public virtual onlyOwner {... */\n      jump\t// out\n        /* \"Users/leilei/Downloads/MasterChefV2/contracts/PancakeBunnies.sol\":2099:2176  function owner() public view returns (address) {... */\n    tag_111:\n        /* \"Users/leilei/Downloads/MasterChefV2/contracts/PancakeBunnies.sol\":2163:2169  _owner */\n      and(sub(shl(0xa0, 0x01), 0x01), sload(0x0a))\n        /* \"Users/leilei/Downloads/MasterChefV2/contracts/PancakeBunnies.sol\":2099:2176  function owner() public view returns (address) {... */\n      swap1\n      jump\t// out\n        /* \"Users/leilei/Downloads/MasterChefV2/contracts/PancakeBunnies.sol\":49516:49610  function symbol() public view override returns (string memory) {... */\n    tag_113:\n        /* \"Users/leilei/Downloads/MasterChefV2/contracts/PancakeBunnies.sol\":49596:49603  _symbol */\n      0x07\n        /* \"Users/leilei/Downloads/MasterChefV2/contracts/PancakeBunnies.sol\":49589:49603  return _symbol */\n      dup1\n      sload\n      0x40\n      dup1\n      mload\n      0x20\n      0x1f\n      0x02\n      not(0x00)\n      0x0100\n      0x01\n      dup9\n      and\n      iszero\n      mul\n      add\n      swap1\n      swap6\n      and\n      swap5\n      swap1\n      swap5\n      div\n      swap4\n      dup5\n      add\n      dup2\n      swap1\n      div\n      dup2\n      mul\n      dup3\n      add\n      dup2\n      add\n      swap1\n      swap3\n      mstore\n      dup3\n      dup2\n      mstore\n        /* \"Users/leilei/Downloads/MasterChefV2/contracts/PancakeBunnies.sol\":49564:49577  string memory */\n      0x60\n      swap4\n        /* \"Users/leilei/Downloads/MasterChefV2/contracts/PancakeBunnies.sol\":49589:49603  return _symbol */\n      swap1\n      swap3\n        /* \"Users/leilei/Downloads/MasterChefV2/contracts/PancakeBunnies.sol\":49596:49603  _symbol */\n      swap1\n      swap2\n        /* \"Users/leilei/Downloads/MasterChefV2/contracts/PancakeBunnies.sol\":49589:49603  return _symbol */\n      dup4\n      add\n        /* \"Users/leilei/Downloads/MasterChefV2/contracts/PancakeBunnies.sol\":49596:49603  _symbol */\n      dup3\n        /* \"Users/leilei/Downloads/MasterChefV2/contracts/PancakeBunnies.sol\":49589:49603  return _symbol */\n      dup3\n      dup1\n      iszero\n      tag_151\n      jumpi\n      dup1\n      0x1f\n      lt\n      tag_152\n      jumpi\n      0x0100\n      dup1\n      dup4\n      sload\n      div\n      mul\n      dup4\n      mstore\n      swap2\n      0x20\n      add\n      swap2\n      jump(tag_151)\n        /* \"Users/leilei/Downloads/MasterChefV2/contracts/PancakeBunnies.sol\":61819:61862  mapping(uint8 => uint256) public bunnyCount */\n    tag_120:\n      mstore(0x20, 0x0b)\n      0x00\n      swap1\n      dup2\n      mstore\n      0x40\n      swap1\n      keccak256\n      sload\n      dup2\n      jump\t// out\n        /* \"Users/leilei/Downloads/MasterChefV2/contracts/PancakeBunnies.sol\":52245:52535  function setApprovalForAll(address operator, bool approved) public virtual override {... */\n    tag_123:\n        /* \"Users/leilei/Downloads/MasterChefV2/contracts/PancakeBunnies.sol\":52359:52371  _msgSender() */\n      tag_245\n        /* \"Users/leilei/Downloads/MasterChefV2/contracts/PancakeBunnies.sol\":52359:52369  _msgSender */\n      tag_162\n        /* \"Users/leilei/Downloads/MasterChefV2/contracts/PancakeBunnies.sol\":52359:52371  _msgSender() */\n      jump\t// in\n    tag_245:\n      sub(shl(0xa0, 0x01), 0x01)\n        /* \"Users/leilei/Downloads/MasterChefV2/contracts/PancakeBunnies.sol\":52347:52371  operator != _msgSender() */\n      and\n        /* \"Users/leilei/Downloads/MasterChefV2/contracts/PancakeBunnies.sol\":52347:52355  operator */\n      dup3\n      sub(shl(0xa0, 0x01), 0x01)\n        /* \"Users/leilei/Downloads/MasterChefV2/contracts/PancakeBunnies.sol\":52347:52371  operator != _msgSender() */\n      and\n      eq\n      iszero\n        /* \"Users/leilei/Downloads/MasterChefV2/contracts/PancakeBunnies.sol\":52339:52401  require(operator != _msgSender(), \"ERC721: approve to caller\") */\n      tag_246\n      jumpi\n      0x40\n      dup1\n      mload\n      shl(0xe5, 0x461bcd)\n      dup2\n      mstore\n      0x20\n      0x04\n      dup3\n      add\n      mstore\n      0x19\n      0x24\n      dup3\n      add\n      mstore\n      0x4552433732313a20617070726f766520746f2063616c6c657200000000000000\n      0x44\n      dup3\n      add\n      mstore\n      swap1\n      mload\n      swap1\n      dup2\n      swap1\n      sub\n      0x64\n      add\n      swap1\n      revert\n    tag_246:\n        /* \"Users/leilei/Downloads/MasterChefV2/contracts/PancakeBunnies.sol\":52457:52465  approved */\n      dup1\n        /* \"Users/leilei/Downloads/MasterChefV2/contracts/PancakeBunnies.sol\":52412:52430  _operatorApprovals */\n      0x05\n        /* \"Users/leilei/Downloads/MasterChefV2/contracts/PancakeBunnies.sol\":52412:52444  _operatorApprovals[_msgSender()] */\n      0x00\n        /* \"Users/leilei/Downloads/MasterChefV2/contracts/PancakeBunnies.sol\":52431:52443  _msgSender() */\n      tag_247\n        /* \"Users/leilei/Downloads/MasterChefV2/contracts/PancakeBunnies.sol\":52431:52441  _msgSender */\n      tag_162\n        /* \"Users/leilei/Downloads/MasterChefV2/contracts/PancakeBunnies.sol\":52431:52443  _msgSender() */\n      jump\t// in\n    tag_247:\n      sub(shl(0xa0, 0x01), 0x01)\n        /* \"Users/leilei/Downloads/MasterChefV2/contracts/PancakeBunnies.sol\":52412:52444  _operatorApprovals[_msgSender()] */\n      swap1\n      dup2\n      and\n      dup3\n      mstore\n      0x20\n      dup1\n      dup4\n      add\n      swap4\n      swap1\n      swap4\n      mstore\n      0x40\n      swap2\n      dup3\n      add\n      0x00\n      swap1\n      dup2\n      keccak256\n        /* \"Users/leilei/Downloads/MasterChefV2/contracts/PancakeBunnies.sol\":52412:52454  _operatorApprovals[_msgSender()][operator] */\n      swap2\n      dup8\n      and\n      dup1\n      dup3\n      mstore\n      swap2\n      swap1\n      swap4\n      mstore\n      swap2\n      keccak256\n        /* \"Users/leilei/Downloads/MasterChefV2/contracts/PancakeBunnies.sol\":52412:52465  _operatorApprovals[_msgSender()][operator] = approved */\n      dup1\n      sload\n      not(0xff)\n      and\n      swap3\n      iszero\n      iszero\n      swap3\n      swap1\n      swap3\n      or\n      swap1\n      swap2\n      sstore\n        /* \"Users/leilei/Downloads/MasterChefV2/contracts/PancakeBunnies.sol\":52495:52507  _msgSender() */\n      tag_248\n        /* \"Users/leilei/Downloads/MasterChefV2/contracts/PancakeBunnies.sol\":52495:52505  _msgSender */\n      tag_162\n        /* \"Users/leilei/Downloads/MasterChefV2/contracts/PancakeBunnies.sol\":52495:52507  _msgSender() */\n      jump\t// in\n    tag_248:\n        /* \"Users/leilei/Downloads/MasterChefV2/contracts/PancakeBunnies.sol\":52480:52528  ApprovalForAll(_msgSender(), operator, approved) */\n      0x40\n      dup1\n      mload\n      dup5\n      iszero\n      iszero\n      dup2\n      mstore\n      swap1\n      mload\n      sub(shl(0xa0, 0x01), 0x01)\n      swap3\n      swap1\n      swap3\n      and\n      swap2\n      0x17307eab39ab6107e8899845ad3d59bd9653f200f220920489ca2b5937696c31\n      swap2\n      dup2\n      swap1\n      sub\n      0x20\n      add\n      swap1\n      log3\n        /* \"Users/leilei/Downloads/MasterChefV2/contracts/PancakeBunnies.sol\":52245:52535  function setApprovalForAll(address operator, bool approved) public virtual override {... */\n      pop\n      pop\n      jump\t// out\n        /* \"Users/leilei/Downloads/MasterChefV2/contracts/PancakeBunnies.sol\":53398:53680  function safeTransferFrom(address from, address to, uint256 tokenId, bytes memory _data) public virtual override {... */\n    tag_129:\n        /* \"Users/leilei/Downloads/MasterChefV2/contracts/PancakeBunnies.sol\":53529:53570  _isApprovedOrOwner(_msgSender(), tokenId) */\n      tag_250\n        /* \"Users/leilei/Downloads/MasterChefV2/contracts/PancakeBunnies.sol\":53548:53560  _msgSender() */\n      tag_251\n        /* \"Users/leilei/Downloads/MasterChefV2/contracts/PancakeBunnies.sol\":53548:53558  _msgSender */\n      tag_162\n        /* \"Users/leilei/Downloads/MasterChefV2/contracts/PancakeBunnies.sol\":53548:53560  _msgSender() */\n      jump\t// in\n    tag_251:\n        /* \"Users/leilei/Downloads/MasterChefV2/contracts/PancakeBunnies.sol\":53562:53569  tokenId */\n      dup4\n        /* \"Users/leilei/Downloads/MasterChefV2/contracts/PancakeBunnies.sol\":53529:53547  _isApprovedOrOwner */\n      tag_179\n        /* \"Users/leilei/Downloads/MasterChefV2/contracts/PancakeBunnies.sol\":53529:53570  _isApprovedOrOwner(_msgSender(), tokenId) */\n      jump\t// in\n    tag_250:\n        /* \"Users/leilei/Downloads/MasterChefV2/contracts/PancakeBunnies.sol\":53521:53624  require(_isApprovedOrOwner(_msgSender(), tokenId), \"ERC721: transfer caller is not owner nor approved\") */\n      tag_252\n      jumpi\n      mload(0x40)\n      shl(0xe5, 0x461bcd)\n      dup2\n      mstore\n      0x04\n      add\n      dup1\n      dup1\n      0x20\n      add\n      dup3\n      dup2\n      sub\n      dup3\n      mstore\n      0x31\n      dup2\n      mstore\n      0x20\n      add\n      dup1\n      data_c8682f3ad98807db59a6ec6bb812b72fed0a66e3150fa8239699ee83885247f2\n      0x31\n      swap2\n      codecopy\n      0x40\n      add\n      swap2\n      pop\n      pop\n      mload(0x40)\n      dup1\n      swap2\n      sub\n      swap1\n      revert\n    tag_252:\n        /* \"Users/leilei/Downloads/MasterChefV2/contracts/PancakeBunnies.sol\":53634:53673  _safeTransfer(from, to, tokenId, _data) */\n      tag_209\n        /* \"Users/leilei/Downloads/MasterChefV2/contracts/PancakeBunnies.sol\":53648:53652  from */\n      dup5\n        /* \"Users/leilei/Downloads/MasterChefV2/contracts/PancakeBunnies.sol\":53654:53656  to */\n      dup5\n        /* \"Users/leilei/Downloads/MasterChefV2/contracts/PancakeBunnies.sol\":53658:53665  tokenId */\n      dup5\n        /* \"Users/leilei/Downloads/MasterChefV2/contracts/PancakeBunnies.sol\":53667:53672  _data */\n      dup5\n        /* \"Users/leilei/Downloads/MasterChefV2/contracts/PancakeBunnies.sol\":53634:53647  _safeTransfer */\n      tag_254\n        /* \"Users/leilei/Downloads/MasterChefV2/contracts/PancakeBunnies.sol\":53634:53673  _safeTransfer(from, to, tokenId, _data) */\n      jump\t// in\n        /* \"Users/leilei/Downloads/MasterChefV2/contracts/PancakeBunnies.sol\":62432:62542  function getBunnyId(uint256 _tokenId) external view returns (uint8) {... */\n    tag_132:\n        /* \"Users/leilei/Downloads/MasterChefV2/contracts/PancakeBunnies.sol\":62493:62498  uint8 */\n      0x00\n        /* \"Users/leilei/Downloads/MasterChefV2/contracts/PancakeBunnies.sol\":62517:62535  bunnyIds[_tokenId] */\n      swap1\n      dup2\n      mstore\n        /* \"Users/leilei/Downloads/MasterChefV2/contracts/PancakeBunnies.sol\":62517:62525  bunnyIds */\n      0x0e\n        /* \"Users/leilei/Downloads/MasterChefV2/contracts/PancakeBunnies.sol\":62517:62535  bunnyIds[_tokenId] */\n      0x20\n      mstore\n      0x40\n      swap1\n      keccak256\n      sload\n      0xff\n      and\n      swap1\n        /* \"Users/leilei/Downloads/MasterChefV2/contracts/PancakeBunnies.sol\":62432:62542  function getBunnyId(uint256 _tokenId) external view returns (uint8) {... */\n      jump\t// out\n        /* \"Users/leilei/Downloads/MasterChefV2/contracts/PancakeBunnies.sol\":49676:50416  function tokenURI(uint256 tokenId) public view override returns (string memory) {... */\n    tag_135:\n        /* \"Users/leilei/Downloads/MasterChefV2/contracts/PancakeBunnies.sol\":49741:49754  string memory */\n      0x60\n        /* \"Users/leilei/Downloads/MasterChefV2/contracts/PancakeBunnies.sol\":49774:49790  _exists(tokenId) */\n      tag_257\n        /* \"Users/leilei/Downloads/MasterChefV2/contracts/PancakeBunnies.sol\":49782:49789  tokenId */\n      dup3\n        /* \"Users/leilei/Downloads/MasterChefV2/contracts/PancakeBunnies.sol\":49774:49781  _exists */\n      tag_156\n        /* \"Users/leilei/Downloads/MasterChefV2/contracts/PancakeBunnies.sol\":49774:49790  _exists(tokenId) */\n      jump\t// in\n    tag_257:\n        /* \"Users/leilei/Downloads/MasterChefV2/contracts/PancakeBunnies.sol\":49766:49842  require(_exists(tokenId), \"ERC721Metadata: URI query for nonexistent token\") */\n      tag_258\n      jumpi\n      mload(0x40)\n      shl(0xe5, 0x461bcd)\n      dup2\n      mstore\n      0x04\n      add\n      dup1\n      dup1\n      0x20\n      add\n      dup3\n      dup2\n      sub\n      dup3\n      mstore\n      0x2f\n      dup2\n      mstore\n      0x20\n      add\n      dup1\n      data_a2d45c0fba603d40d82d590051761ca952d1ab9d78cca6d0d464d7b6e961a9cb\n      0x2f\n      swap2\n      codecopy\n      0x40\n      add\n      swap2\n      pop\n      pop\n      mload(0x40)\n      dup1\n      swap2\n      sub\n      swap1\n      revert\n    tag_258:\n        /* \"Users/leilei/Downloads/MasterChefV2/contracts/PancakeBunnies.sol\":49879:49898  _tokenURIs[tokenId] */\n      0x00\n      dup3\n      dup2\n      mstore\n        /* \"Users/leilei/Downloads/MasterChefV2/contracts/PancakeBunnies.sol\":49879:49889  _tokenURIs */\n      0x08\n        /* \"Users/leilei/Downloads/MasterChefV2/contracts/PancakeBunnies.sol\":49879:49898  _tokenURIs[tokenId] */\n      0x20\n      swap1\n      dup2\n      mstore\n      0x40\n      swap2\n      dup3\n      swap1\n      keccak256\n        /* \"Users/leilei/Downloads/MasterChefV2/contracts/PancakeBunnies.sol\":49853:49898  string memory _tokenURI = _tokenURIs[tokenId] */\n      dup1\n      sload\n      dup4\n      mload\n      0x1f\n      0x02\n      not(0x00)\n      0x0100\n      0x01\n      dup7\n      and\n      iszero\n      mul\n      add\n      swap1\n      swap4\n      and\n      swap3\n      swap1\n      swap3\n      div\n      swap2\n      dup3\n      add\n      dup5\n      swap1\n      div\n      dup5\n      mul\n      dup2\n      add\n      dup5\n      add\n      swap1\n      swap5\n      mstore\n      dup1\n      dup5\n      mstore\n        /* \"Users/leilei/Downloads/MasterChefV2/contracts/PancakeBunnies.sol\":49853:49876  string memory _tokenURI */\n      0x60\n      swap4\n        /* \"Users/leilei/Downloads/MasterChefV2/contracts/PancakeBunnies.sol\":49853:49898  string memory _tokenURI = _tokenURIs[tokenId] */\n      swap3\n      dup4\n      add\n        /* \"Users/leilei/Downloads/MasterChefV2/contracts/PancakeBunnies.sol\":49879:49898  _tokenURIs[tokenId] */\n      dup3\n        /* \"Users/leilei/Downloads/MasterChefV2/contracts/PancakeBunnies.sol\":49853:49898  string memory _tokenURI = _tokenURIs[tokenId] */\n      dup3\n      dup1\n      iszero\n      tag_259\n      jumpi\n      dup1\n      0x1f\n      lt\n      tag_260\n      jumpi\n      0x0100\n      dup1\n      dup4\n      sload\n      div\n      mul\n      dup4\n      mstore\n      swap2\n      0x20\n      add\n      swap2\n      jump(tag_259)\n    tag_260:\n      dup3\n      add\n      swap2\n      swap1\n      0x00\n      mstore\n      keccak256(0x00, 0x20)\n      swap1\n    tag_261:\n      dup2\n      sload\n      dup2\n      mstore\n      swap1\n      0x01\n      add\n      swap1\n      0x20\n      add\n      dup1\n      dup4\n      gt\n      tag_261\n      jumpi\n      dup3\n      swap1\n      sub\n      0x1f\n      and\n      dup3\n      add\n      swap2\n    tag_259:\n      pop\n      pop\n        /* \"Users/leilei/Downloads/MasterChefV2/contracts/PancakeBunnies.sol\":49977:49985  _baseURI */\n      0x09\n        /* \"Users/leilei/Downloads/MasterChefV2/contracts/PancakeBunnies.sol\":49971:49993  bytes(_baseURI).length */\n      sload\n        /* \"Users/leilei/Downloads/MasterChefV2/contracts/PancakeBunnies.sol\":49853:49898  string memory _tokenURI = _tokenURIs[tokenId] */\n      swap4\n      swap5\n      pop\n      pop\n      pop\n      pop\n        /* \"Users/leilei/Downloads/MasterChefV2/contracts/PancakeBunnies.sol\":49971:49993  bytes(_baseURI).length */\n      0x02\n      not(0x00)\n      0x0100\n      0x01\n      dup5\n      and\n      iszero\n      mul\n      add\n      swap1\n      swap2\n      and\n      div\n        /* \"Users/leilei/Downloads/MasterChefV2/contracts/PancakeBunnies.sol\":49967:50041  if (bytes(_baseURI).length == 0) {... */\n      tag_262\n      jumpi\n        /* \"Users/leilei/Downloads/MasterChefV2/contracts/PancakeBunnies.sol\":50021:50030  _tokenURI */\n      swap1\n      pop\n        /* \"Users/leilei/Downloads/MasterChefV2/contracts/PancakeBunnies.sol\":50014:50030  return _tokenURI */\n      jump(tag_149)\n        /* \"Users/leilei/Downloads/MasterChefV2/contracts/PancakeBunnies.sol\":49967:50041  if (bytes(_baseURI).length == 0) {... */\n    tag_262:\n        /* \"Users/leilei/Downloads/MasterChefV2/contracts/PancakeBunnies.sol\":50143:50166  bytes(_tokenURI).length */\n      dup1\n      mload\n        /* \"Users/leilei/Downloads/MasterChefV2/contracts/PancakeBunnies.sol\":50143:50170  bytes(_tokenURI).length > 0 */\n      iszero\n        /* \"Users/leilei/Downloads/MasterChefV2/contracts/PancakeBunnies.sol\":50139:50249  if (bytes(_tokenURI).length > 0) {... */\n      tag_263\n      jumpi\n        /* \"Users/leilei/Downloads/MasterChefV2/contracts/PancakeBunnies.sol\":50217:50225  _baseURI */\n      0x09\n        /* \"Users/leilei/Downloads/MasterChefV2/contracts/PancakeBunnies.sol\":50227:50236  _tokenURI */\n      dup2\n        /* \"Users/leilei/Downloads/MasterChefV2/contracts/PancakeBunnies.sol\":50200:50237  abi.encodePacked(_baseURI, _tokenURI) */\n      add(0x20, mload(0x40))\n      dup1\n      dup4\n      dup1\n      sload\n      0x01\n      dup2\n      0x01\n      and\n      iszero\n      0x0100\n      mul\n      sub\n      and\n      0x02\n      swap1\n      div\n      dup1\n      iszero\n      tag_264\n      jumpi\n      dup1\n      0x1f\n      lt\n      tag_265\n      jumpi\n      0x0100\n      dup1\n      dup4\n      sload\n      div\n      mul\n      dup4\n      mstore\n      swap2\n      dup3\n      add\n      swap2\n      jump(tag_264)\n    tag_265:\n      dup3\n      add\n      swap2\n      swap1\n      0x00\n      mstore\n      keccak256(0x00, 0x20)\n      swap1\n    tag_266:\n      dup2\n      sload\n      dup2\n      mstore\n      swap1\n      0x01\n      add\n      swap1\n      0x20\n      add\n      dup1\n      dup4\n      gt\n      tag_266\n      jumpi\n    tag_264:\n      pop\n      pop\n      dup3\n      mload\n      0x20\n      dup5\n      add\n      swap1\n      dup1\n      dup4\n      dup4\n        /* \"--CODEGEN--\":36:189   */\n    tag_267:\n        /* \"--CODEGEN--\":66:68   */\n      0x20\n        /* \"--CODEGEN--\":61:64   */\n      dup4\n        /* \"--CODEGEN--\":58:69   */\n      lt\n        /* \"--CODEGEN--\":36:189   */\n      tag_269\n      jumpi\n        /* \"--CODEGEN--\":176:186   */\n      dup1\n      mload\n        /* \"--CODEGEN--\":164:187   */\n      dup3\n      mstore\n      not(0x1f)\n        /* \"--CODEGEN--\":139:151   */\n      swap1\n      swap3\n      add\n      swap2\n        /* \"--CODEGEN--\":98:100   */\n      0x20\n        /* \"--CODEGEN--\":89:101   */\n      swap2\n      dup3\n      add\n      swap2\n        /* \"--CODEGEN--\":114:126   */\n      add\n        /* \"--CODEGEN--\":36:189   */\n      jump(tag_267)\n    tag_269:\n        /* \"--CODEGEN--\":274:275   */\n      0x01\n        /* \"--CODEGEN--\":267:270   */\n      dup4\n        /* \"--CODEGEN--\":263:265   */\n      0x20\n        /* \"--CODEGEN--\":259:271   */\n      sub\n        /* \"--CODEGEN--\":254:257   */\n      0x0100\n        /* \"--CODEGEN--\":250:272   */\n      exp\n        /* \"--CODEGEN--\":246:276   */\n      sub\n        /* \"--CODEGEN--\":315:319   */\n      dup1\n        /* \"--CODEGEN--\":311:320   */\n      not\n        /* \"--CODEGEN--\":305:308   */\n      dup3\n        /* \"--CODEGEN--\":299:309   */\n      mload\n        /* \"--CODEGEN--\":295:321   */\n      and\n        /* \"--CODEGEN--\":356:360   */\n      dup2\n        /* \"--CODEGEN--\":350:353   */\n      dup5\n        /* \"--CODEGEN--\":344:354   */\n      mload\n        /* \"--CODEGEN--\":340:361   */\n      and\n        /* \"--CODEGEN--\":389:396   */\n      dup1\n        /* \"--CODEGEN--\":380:387   */\n      dup3\n        /* \"--CODEGEN--\":377:397   */\n      or\n        /* \"--CODEGEN--\":372:375   */\n      dup6\n        /* \"--CODEGEN--\":365:398   */\n      mstore\n        /* \"--CODEGEN--\":3:402   */\n      pop\n      pop\n      pop\n        /* \"Users/leilei/Downloads/MasterChefV2/contracts/PancakeBunnies.sol\":50200:50237  abi.encodePacked(_baseURI, _tokenURI) */\n      pop\n      pop\n      pop\n      swap1\n      pop\n      add\n      swap3\n      pop\n      pop\n      pop\n      mload(0x40)\n        /* \"--CODEGEN--\":49:53   */\n      0x20\n        /* \"--CODEGEN--\":39:46   */\n      dup2\n        /* \"--CODEGEN--\":30:37   */\n      dup4\n        /* \"--CODEGEN--\":26:47   */\n      sub\n        /* \"--CODEGEN--\":22:54   */\n      sub\n        /* \"--CODEGEN--\":13:20   */\n      dup2\n        /* \"--CODEGEN--\":6:55   */\n      mstore\n        /* \"Users/leilei/Downloads/MasterChefV2/contracts/PancakeBunnies.sol\":50200:50237  abi.encodePacked(_baseURI, _tokenURI) */\n      swap1\n      0x40\n      mstore\n        /* \"Users/leilei/Downloads/MasterChefV2/contracts/PancakeBunnies.sol\":50186:50238  return string(abi.encodePacked(_baseURI, _tokenURI)) */\n      swap2\n      pop\n      pop\n      jump(tag_149)\n        /* \"Users/leilei/Downloads/MasterChefV2/contracts/PancakeBunnies.sol\":50139:50249  if (bytes(_tokenURI).length > 0) {... */\n    tag_263:\n        /* \"Users/leilei/Downloads/MasterChefV2/contracts/PancakeBunnies.sol\":50379:50387  _baseURI */\n      0x09\n        /* \"Users/leilei/Downloads/MasterChefV2/contracts/PancakeBunnies.sol\":50389:50407  tokenId.toString() */\n      tag_270\n        /* \"Users/leilei/Downloads/MasterChefV2/contracts/PancakeBunnies.sol\":50389:50396  tokenId */\n      dup5\n        /* \"Users/leilei/Downloads/MasterChefV2/contracts/PancakeBunnies.sol\":50389:50405  tokenId.toString */\n      tag_271\n        /* \"Users/leilei/Downloads/MasterChefV2/contracts/PancakeBunnies.sol\":50389:50407  tokenId.toString() */\n      jump\t// in\n    tag_270:\n        /* \"Users/leilei/Downloads/MasterChefV2/contracts/PancakeBunnies.sol\":50362:50408  abi.encodePacked(_baseURI, tokenId.toString()) */\n      add(0x20, mload(0x40))\n      dup1\n      dup4\n      dup1\n      sload\n      0x01\n      dup2\n      0x01\n      and\n      iszero\n      0x0100\n      mul\n      sub\n      and\n      0x02\n      swap1\n      div\n      dup1\n      iszero\n      tag_272\n      jumpi\n      dup1\n      0x1f\n      lt\n      tag_273\n      jumpi\n      0x0100\n      dup1\n      dup4\n      sload\n      div\n      mul\n      dup4\n      mstore\n      swap2\n      dup3\n      add\n      swap2\n      jump(tag_272)\n    tag_273:\n      dup3\n      add\n      swap2\n      swap1\n      0x00\n      mstore\n      keccak256(0x00, 0x20)\n      swap1\n    tag_274:\n      dup2\n      sload\n      dup2\n      mstore\n      swap1\n      0x01\n      add\n      swap1\n      0x20\n      add\n      dup1\n      dup4\n      gt\n      tag_274\n      jumpi\n    tag_272:\n      pop\n      pop\n      dup3\n      mload\n      0x20\n      dup5\n      add\n      swap1\n      dup1\n      dup4\n      dup4\n        /* \"--CODEGEN--\":36:189   */\n    tag_275:\n        /* \"--CODEGEN--\":66:68   */\n      0x20\n        /* \"--CODEGEN--\":61:64   */\n      dup4\n        /* \"--CODEGEN--\":58:69   */\n      lt\n        /* \"--CODEGEN--\":36:189   */\n      tag_277\n      jumpi\n        /* \"--CODEGEN--\":176:186   */\n      dup1\n      mload\n        /* \"--CODEGEN--\":164:187   */\n      dup3\n      mstore\n      not(0x1f)\n        /* \"--CODEGEN--\":139:151   */\n      swap1\n      swap3\n      add\n      swap2\n        /* \"--CODEGEN--\":98:100   */\n      0x20\n        /* \"--CODEGEN--\":89:101   */\n      swap2\n      dup3\n      add\n      swap2\n        /* \"--CODEGEN--\":114:126   */\n      add\n        /* \"--CODEGEN--\":36:189   */\n      jump(tag_275)\n    tag_277:\n        /* \"--CODEGEN--\":274:275   */\n      0x01\n        /* \"--CODEGEN--\":267:270   */\n      dup4\n        /* \"--CODEGEN--\":263:265   */\n      0x20\n        /* \"--CODEGEN--\":259:271   */\n      sub\n        /* \"--CODEGEN--\":254:257   */\n      0x0100\n        /* \"--CODEGEN--\":250:272   */\n      exp\n        /* \"--CODEGEN--\":246:276   */\n      sub\n        /* \"--CODEGEN--\":315:319   */\n      dup1\n        /* \"--CODEGEN--\":311:320   */\n      not\n        /* \"--CODEGEN--\":305:308   */\n      dup3\n        /* \"--CODEGEN--\":299:309   */\n      mload\n        /* \"--CODEGEN--\":295:321   */\n      and\n        /* \"--CODEGEN--\":356:360   */\n      dup2\n        /* \"--CODEGEN--\":350:353   */\n      dup5\n        /* \"--CODEGEN--\":344:354   */\n      mload\n        /* \"--CODEGEN--\":340:361   */\n      and\n        /* \"--CODEGEN--\":389:396   */\n      dup1\n        /* \"--CODEGEN--\":380:387   */\n      dup3\n        /* \"--CODEGEN--\":377:397   */\n      or\n        /* \"--CODEGEN--\":372:375   */\n      dup6\n        /* \"--CODEGEN--\":365:398   */\n      mstore\n        /* \"--CODEGEN--\":3:402   */\n      pop\n      pop\n      pop\n        /* \"Users/leilei/Downloads/MasterChefV2/contracts/PancakeBunnies.sol\":50362:50408  abi.encodePacked(_baseURI, tokenId.toString()) */\n      pop\n      pop\n      pop\n      swap1\n      pop\n      add\n      swap3\n      pop\n      pop\n      pop\n      mload(0x40)\n        /* \"--CODEGEN--\":49:53   */\n      0x20\n        /* \"--CODEGEN--\":39:46   */\n      dup2\n        /* \"--CODEGEN--\":30:37   */\n      dup4\n        /* \"--CODEGEN--\":26:47   */\n      sub\n        /* \"--CODEGEN--\":22:54   */\n      sub\n        /* \"--CODEGEN--\":13:20   */\n      dup2\n        /* \"--CODEGEN--\":6:55   */\n      mstore\n        /* \"Users/leilei/Downloads/MasterChefV2/contracts/PancakeBunnies.sol\":50362:50408  abi.encodePacked(_baseURI, tokenId.toString()) */\n      swap1\n      0x40\n      mstore\n        /* \"Users/leilei/Downloads/MasterChefV2/contracts/PancakeBunnies.sol\":50348:50409  return string(abi.encodePacked(_baseURI, tokenId.toString())) */\n      swap2\n      pop\n      pop\n        /* \"Users/leilei/Downloads/MasterChefV2/contracts/PancakeBunnies.sol\":49676:50416  function tokenURI(uint256 tokenId) public view override returns (string memory) {... */\n      swap2\n      swap1\n      pop\n      jump\t// out\n        /* \"Users/leilei/Downloads/MasterChefV2/contracts/PancakeBunnies.sol\":61919:61966  mapping(uint8 => uint256) public bunnyBurnCount */\n    tag_142:\n      mstore(0x20, 0x0c)\n      0x00\n      swap1\n      dup2\n      mstore\n      0x40\n      swap1\n      keccak256\n      sload\n      dup2\n      jump\t// out\n        /* \"Users/leilei/Downloads/MasterChefV2/contracts/PancakeBunnies.sol\":52601:52755  function isApprovedForAll(address owner, address operator) public view override returns (bool) {... */\n    tag_145:\n      sub(shl(0xa0, 0x01), 0x01)\n        /* \"Users/leilei/Downloads/MasterChefV2/contracts/PancakeBunnies.sol\":52713:52738  _operatorApprovals[owner] */\n      swap2\n      dup3\n      and\n        /* \"Users/leilei/Downloads/MasterChefV2/contracts/PancakeBunnies.sol\":52690:52694  bool */\n      0x00\n        /* \"Users/leilei/Downloads/MasterChefV2/contracts/PancakeBunnies.sol\":52713:52738  _operatorApprovals[owner] */\n      swap1\n      dup2\n      mstore\n        /* \"Users/leilei/Downloads/MasterChefV2/contracts/PancakeBunnies.sol\":52713:52731  _operatorApprovals */\n      0x05\n        /* \"Users/leilei/Downloads/MasterChefV2/contracts/PancakeBunnies.sol\":52713:52738  _operatorApprovals[owner] */\n      0x20\n      swap1\n      dup2\n      mstore\n      0x40\n      dup1\n      dup4\n      keccak256\n        /* \"Users/leilei/Downloads/MasterChefV2/contracts/PancakeBunnies.sol\":52713:52748  _operatorApprovals[owner][operator] */\n      swap4\n      swap1\n      swap5\n      and\n      dup3\n      mstore\n      swap2\n      swap1\n      swap2\n      mstore\n      keccak256\n      sload\n      0xff\n      and\n      swap1\n        /* \"Users/leilei/Downloads/MasterChefV2/contracts/PancakeBunnies.sol\":52601:52755  function isApprovedForAll(address owner, address operator) public view override returns (bool) {... */\n      jump\t// out\n        /* \"Users/leilei/Downloads/MasterChefV2/contracts/PancakeBunnies.sol\":3016:3256  function transferOwnership(address newOwner) public virtual onlyOwner {... */\n    tag_148:\n        /* \"Users/leilei/Downloads/MasterChefV2/contracts/PancakeBunnies.sol\":2313:2325  _msgSender() */\n      tag_280\n        /* \"Users/leilei/Downloads/MasterChefV2/contracts/PancakeBunnies.sol\":2313:2323  _msgSender */\n      tag_162\n        /* \"Users/leilei/Downloads/MasterChefV2/contracts/PancakeBunnies.sol\":2313:2325  _msgSender() */\n      jump\t// in\n    tag_280:\n        /* \"Users/leilei/Downloads/MasterChefV2/contracts/PancakeBunnies.sol\":2303:2309  _owner */\n      sload(0x0a)\n      sub(shl(0xa0, 0x01), 0x01)\n      swap1\n      dup2\n      and\n        /* \"Users/leilei/Downloads/MasterChefV2/contracts/PancakeBunnies.sol\":2303:2325  _owner == _msgSender() */\n      swap2\n      and\n      eq\n        /* \"Users/leilei/Downloads/MasterChefV2/contracts/PancakeBunnies.sol\":2295:2362  require(_owner == _msgSender(), \"Ownable: caller is not the owner\") */\n      tag_281\n      jumpi\n      0x40\n      dup1\n      mload\n      shl(0xe5, 0x461bcd)\n      dup2\n      mstore\n      0x20\n      0x04\n      dup3\n      add\n      dup2\n      swap1\n      mstore\n      0x24\n      dup3\n      add\n      mstore\n      0x00\n      dup1\n      mload\n      0x20\n      data_9924ebdf1add33d25d4ef888e16131f0a5687b0580a36c21b5c301a6c462effe\n      dup4\n      codecopy\n      dup2\n      mload\n      swap2\n      mstore\n      0x44\n      dup3\n      add\n      mstore\n      swap1\n      mload\n      swap1\n      dup2\n      swap1\n      sub\n      0x64\n      add\n      swap1\n      revert\n    tag_281:\n      sub(shl(0xa0, 0x01), 0x01)\n        /* \"Users/leilei/Downloads/MasterChefV2/contracts/PancakeBunnies.sol\":3104:3126  newOwner != address(0) */\n      dup2\n      and\n        /* \"Users/leilei/Downloads/MasterChefV2/contracts/PancakeBunnies.sol\":3096:3169  require(newOwner != address(0), \"Ownable: new owner is the zero address\") */\n      tag_283\n      jumpi\n      mload(0x40)\n      shl(0xe5, 0x461bcd)\n      dup2\n      mstore\n      0x04\n      add\n      dup1\n      dup1\n      0x20\n      add\n      dup3\n      dup2\n      sub\n      dup3\n      mstore\n      0x26\n      dup2\n      mstore\n      0x20\n      add\n      dup1\n      data_245f15ff17f551913a7a18385165551503906a406f905ac1c2437281a7cd0cfe\n      0x26\n      swap2\n      codecopy\n      0x40\n      add\n      swap2\n      pop\n      pop\n      mload(0x40)\n      dup1\n      swap2\n      sub\n      swap1\n      revert\n    tag_283:\n        /* \"Users/leilei/Downloads/MasterChefV2/contracts/PancakeBunnies.sol\":3205:3211  _owner */\n      sload(0x0a)\n        /* \"Users/leilei/Downloads/MasterChefV2/contracts/PancakeBunnies.sol\":3184:3222  OwnershipTransferred(_owner, newOwner) */\n      mload(0x40)\n      sub(shl(0xa0, 0x01), 0x01)\n      dup1\n      dup5\n      and\n      swap3\n        /* \"Users/leilei/Downloads/MasterChefV2/contracts/PancakeBunnies.sol\":3205:3211  _owner */\n      and\n      swap1\n        /* \"Users/leilei/Downloads/MasterChefV2/contracts/PancakeBunnies.sol\":3184:3222  OwnershipTransferred(_owner, newOwner) */\n      0x8be0079c531659141344cd1fd0a4f28419497f9722a3daafe3b4186f6b6457e0\n      swap1\n        /* \"Users/leilei/Downloads/MasterChefV2/contracts/PancakeBunnies.sol\":3205:3211  _owner */\n      0x00\n      swap1\n        /* \"Users/leilei/Downloads/MasterChefV2/contracts/PancakeBunnies.sol\":3184:3222  OwnershipTransferred(_owner, newOwner) */\n      log3\n        /* \"Users/leilei/Downloads/MasterChefV2/contracts/PancakeBunnies.sol\":3232:3238  _owner */\n      0x0a\n        /* \"Users/leilei/Downloads/MasterChefV2/contracts/PancakeBunnies.sol\":3232:3249  _owner = newOwner */\n      dup1\n      sload\n      not(sub(shl(0xa0, 0x01), 0x01))\n      and\n      sub(shl(0xa0, 0x01), 0x01)\n      swap3\n      swap1\n      swap3\n      and\n      swap2\n      swap1\n      swap2\n      or\n      swap1\n      sstore\n        /* \"Users/leilei/Downloads/MasterChefV2/contracts/PancakeBunnies.sol\":3016:3256  function transferOwnership(address newOwner) public virtual onlyOwner {... */\n      jump\t// out\n        /* \"Users/leilei/Downloads/MasterChefV2/contracts/PancakeBunnies.sol\":55114:55231  function _exists(uint256 tokenId) internal view returns (bool) {... */\n    tag_156:\n        /* \"Users/leilei/Downloads/MasterChefV2/contracts/PancakeBunnies.sol\":55171:55175  bool */\n      0x00\n        /* \"Users/leilei/Downloads/MasterChefV2/contracts/PancakeBunnies.sol\":55194:55224  _tokenOwners.contains(tokenId) */\n      tag_187\n        /* \"Users/leilei/Downloads/MasterChefV2/contracts/PancakeBunnies.sol\":55194:55206  _tokenOwners */\n      0x02\n        /* \"Users/leilei/Downloads/MasterChefV2/contracts/PancakeBunnies.sol\":55216:55223  tokenId */\n      dup4\n        /* \"Users/leilei/Downloads/MasterChefV2/contracts/PancakeBunnies.sol\":55194:55224  _tokenOwners.contains(tokenId) */\n      0xffffffff\n        /* \"Users/leilei/Downloads/MasterChefV2/contracts/PancakeBunnies.sol\":55194:55215  _tokenOwners.contains */\n      tag_286\n        /* \"Users/leilei/Downloads/MasterChefV2/contracts/PancakeBunnies.sol\":55194:55224  _tokenOwners.contains(tokenId) */\n      and\n      jump\t// in\n        /* \"Users/leilei/Downloads/MasterChefV2/contracts/PancakeBunnies.sol\":681:785  function _msgSender() internal view virtual returns (address payable) {... */\n    tag_162:\n        /* \"Users/leilei/Downloads/MasterChefV2/contracts/PancakeBunnies.sol\":768:778  msg.sender */\n      caller\n        /* \"Users/leilei/Downloads/MasterChefV2/contracts/PancakeBunnies.sol\":681:785  function _msgSender() internal view virtual returns (address payable) {... */\n      swap1\n      jump\t// out\n        /* \"Users/leilei/Downloads/MasterChefV2/contracts/PancakeBunnies.sol\":60770:60925  function _approve(address to, uint256 tokenId) private {... */\n    tag_168:\n        /* \"Users/leilei/Downloads/MasterChefV2/contracts/PancakeBunnies.sol\":60835:60859  _tokenApprovals[tokenId] */\n      0x00\n      dup2\n      dup2\n      mstore\n        /* \"Users/leilei/Downloads/MasterChefV2/contracts/PancakeBunnies.sol\":60835:60850  _tokenApprovals */\n      0x04\n        /* \"Users/leilei/Downloads/MasterChefV2/contracts/PancakeBunnies.sol\":60835:60859  _tokenApprovals[tokenId] */\n      0x20\n      mstore\n      0x40\n      swap1\n      keccak256\n        /* \"Users/leilei/Downloads/MasterChefV2/contracts/PancakeBunnies.sol\":60835:60864  _tokenApprovals[tokenId] = to */\n      dup1\n      sload\n      not(sub(shl(0xa0, 0x01), 0x01))\n      and\n      sub(shl(0xa0, 0x01), 0x01)\n      dup5\n      and\n      swap1\n      dup2\n      or\n      swap1\n      swap2\n      sstore\n        /* \"Users/leilei/Downloads/MasterChefV2/contracts/PancakeBunnies.sol\":60835:60859  _tokenApprovals[tokenId] */\n      dup2\n      swap1\n        /* \"Users/leilei/Downloads/MasterChefV2/contracts/PancakeBunnies.sol\":60888:60904  ownerOf(tokenId) */\n      tag_289\n        /* \"Users/leilei/Downloads/MasterChefV2/contracts/PancakeBunnies.sol\":60835:60859  _tokenApprovals[tokenId] */\n      dup3\n        /* \"Users/leilei/Downloads/MasterChefV2/contracts/PancakeBunnies.sol\":60888:60895  ownerOf */\n      tag_92\n        /* \"Users/leilei/Downloads/MasterChefV2/contracts/PancakeBunnies.sol\":60888:60904  ownerOf(tokenId) */\n      jump\t// in\n    tag_289:\n      sub(shl(0xa0, 0x01), 0x01)\n        /* \"Users/leilei/Downloads/MasterChefV2/contracts/PancakeBunnies.sol\":60879:60918  Approval(ownerOf(tokenId), to, tokenId) */\n      and\n      0x8c5be1e5ebec7d5bd14f71427d1e84f3dd0314c0f7b2291e5b200ac8c7c3b925\n      mload(0x40)\n      mload(0x40)\n      dup1\n      swap2\n      sub\n      swap1\n      log4\n        /* \"Users/leilei/Downloads/MasterChefV2/contracts/PancakeBunnies.sol\":60770:60925  function _approve(address to, uint256 tokenId) private {... */\n      pop\n      pop\n      jump\t// out\n        /* \"Users/leilei/Downloads/MasterChefV2/contracts/PancakeBunnies.sol\":42950:43071  function length(UintToAddressMap storage map) internal view returns (uint256) {... */\n    tag_171:\n        /* \"Users/leilei/Downloads/MasterChefV2/contracts/PancakeBunnies.sol\":43019:43026  uint256 */\n      0x00\n        /* \"Users/leilei/Downloads/MasterChefV2/contracts/PancakeBunnies.sol\":43045:43064  _length(map._inner) */\n      tag_187\n        /* \"Users/leilei/Downloads/MasterChefV2/contracts/PancakeBunnies.sol\":43053:43056  map */\n      dup3\n        /* \"Users/leilei/Downloads/MasterChefV2/contracts/PancakeBunnies.sol\":43045:43052  _length */\n      tag_219\n        /* \"Users/leilei/Downloads/MasterChefV2/contracts/PancakeBunnies.sol\":43045:43064  _length(map._inner) */\n      jump\t// in\n        /* \"Users/leilei/Downloads/MasterChefV2/contracts/PancakeBunnies.sol\":55389:55718  function _isApprovedOrOwner(address spender, uint256 tokenId) internal view returns (bool) {... */\n    tag_179:\n        /* \"Users/leilei/Downloads/MasterChefV2/contracts/PancakeBunnies.sol\":55474:55478  bool */\n      0x00\n        /* \"Users/leilei/Downloads/MasterChefV2/contracts/PancakeBunnies.sol\":55498:55514  _exists(tokenId) */\n      tag_294\n        /* \"Users/leilei/Downloads/MasterChefV2/contracts/PancakeBunnies.sol\":55506:55513  tokenId */\n      dup3\n        /* \"Users/leilei/Downloads/MasterChefV2/contracts/PancakeBunnies.sol\":55498:55505  _exists */\n      tag_156\n        /* \"Users/leilei/Downloads/MasterChefV2/contracts/PancakeBunnies.sol\":55498:55514  _exists(tokenId) */\n      jump\t// in\n    tag_294:\n        /* \"Users/leilei/Downloads/MasterChefV2/contracts/PancakeBunnies.sol\":55490:55563  require(_exists(tokenId), \"ERC721: operator query for nonexistent token\") */\n      tag_295\n      jumpi\n      mload(0x40)\n      shl(0xe5, 0x461bcd)\n      dup2\n      mstore\n      0x04\n      add\n      dup1\n      dup1\n      0x20\n      add\n      dup3\n      dup2\n      sub\n      dup3\n      mstore\n      0x2c\n      dup2\n      mstore\n      0x20\n      add\n      dup1\n      data_5797d1ccb08b83980dd0c07ea40d8f6a64d35fff736a19bdd17522954cb0899c\n      0x2c\n      swap2\n      codecopy\n      0x40\n      add\n      swap2\n      pop\n      pop\n      mload(0x40)\n      dup1\n      swap2\n      sub\n      swap1\n      revert\n    tag_295:\n        /* \"Users/leilei/Downloads/MasterChefV2/contracts/PancakeBunnies.sol\":55573:55586  address owner */\n      0x00\n        /* \"Users/leilei/Downloads/MasterChefV2/contracts/PancakeBunnies.sol\":55589:55605  ownerOf(tokenId) */\n      tag_296\n        /* \"Users/leilei/Downloads/MasterChefV2/contracts/PancakeBunnies.sol\":55597:55604  tokenId */\n      dup4\n        /* \"Users/leilei/Downloads/MasterChefV2/contracts/PancakeBunnies.sol\":55589:55596  ownerOf */\n      tag_92\n        /* \"Users/leilei/Downloads/MasterChefV2/contracts/PancakeBunnies.sol\":55589:55605  ownerOf(tokenId) */\n      jump\t// in\n    tag_296:\n        /* \"Users/leilei/Downloads/MasterChefV2/contracts/PancakeBunnies.sol\":55573:55605  address owner = ownerOf(tokenId) */\n      swap1\n      pop\n        /* \"Users/leilei/Downloads/MasterChefV2/contracts/PancakeBunnies.sol\":55634:55639  owner */\n      dup1\n      sub(shl(0xa0, 0x01), 0x01)\n        /* \"Users/leilei/Downloads/MasterChefV2/contracts/PancakeBunnies.sol\":55623:55639  spender == owner */\n      and\n        /* \"Users/leilei/Downloads/MasterChefV2/contracts/PancakeBunnies.sol\":55623:55630  spender */\n      dup5\n      sub(shl(0xa0, 0x01), 0x01)\n        /* \"Users/leilei/Downloads/MasterChefV2/contracts/PancakeBunnies.sol\":55623:55639  spender == owner */\n      and\n      eq\n        /* \"Users/leilei/Downloads/MasterChefV2/contracts/PancakeBunnies.sol\":55623:55674  spender == owner || getApproved(tokenId) == spender */\n      dup1\n      tag_297\n      jumpi\n      pop\n        /* \"Users/leilei/Downloads/MasterChefV2/contracts/PancakeBunnies.sol\":55667:55674  spender */\n      dup4\n      sub(shl(0xa0, 0x01), 0x01)\n        /* \"Users/leilei/Downloads/MasterChefV2/contracts/PancakeBunnies.sol\":55643:55674  getApproved(tokenId) == spender */\n      and\n        /* \"Users/leilei/Downloads/MasterChefV2/contracts/PancakeBunnies.sol\":55643:55663  getApproved(tokenId) */\n      tag_298\n        /* \"Users/leilei/Downloads/MasterChefV2/contracts/PancakeBunnies.sol\":55655:55662  tokenId */\n      dup5\n        /* \"Users/leilei/Downloads/MasterChefV2/contracts/PancakeBunnies.sol\":55643:55654  getApproved */\n      tag_49\n        /* \"Users/leilei/Downloads/MasterChefV2/contracts/PancakeBunnies.sol\":55643:55663  getApproved(tokenId) */\n      jump\t// in\n    tag_298:\n      sub(shl(0xa0, 0x01), 0x01)\n        /* \"Users/leilei/Downloads/MasterChefV2/contracts/PancakeBunnies.sol\":55643:55674  getApproved(tokenId) == spender */\n      and\n      eq\n        /* \"Users/leilei/Downloads/MasterChefV2/contracts/PancakeBunnies.sol\":55623:55674  spender == owner || getApproved(tokenId) == spender */\n    tag_297:\n        /* \"Users/leilei/Downloads/MasterChefV2/contracts/PancakeBunnies.sol\":55623:55710  spender == owner || getApproved(tokenId) == spender || isApprovedForAll(owner, spender) */\n      dup1\n      tag_217\n      jumpi\n      pop\n        /* \"Users/leilei/Downloads/MasterChefV2/contracts/PancakeBunnies.sol\":55678:55710  isApprovedForAll(owner, spender) */\n      tag_217\n        /* \"Users/leilei/Downloads/MasterChefV2/contracts/PancakeBunnies.sol\":55695:55700  owner */\n      dup2\n        /* \"Users/leilei/Downloads/MasterChefV2/contracts/PancakeBunnies.sol\":55702:55709  spender */\n      dup6\n        /* \"Users/leilei/Downloads/MasterChefV2/contracts/PancakeBunnies.sol\":55678:55694  isApprovedForAll */\n      tag_145\n        /* \"Users/leilei/Downloads/MasterChefV2/contracts/PancakeBunnies.sol\":55678:55710  isApprovedForAll(owner, spender) */\n      jump\t// in\n        /* \"Users/leilei/Downloads/MasterChefV2/contracts/PancakeBunnies.sol\":58383:58942  function _transfer(address from, address to, uint256 tokenId) internal virtual {... */\n    tag_182:\n        /* \"Users/leilei/Downloads/MasterChefV2/contracts/PancakeBunnies.sol\":58500:58504  from */\n      dup3\n      sub(shl(0xa0, 0x01), 0x01)\n        /* \"Users/leilei/Downloads/MasterChefV2/contracts/PancakeBunnies.sol\":58480:58504  ownerOf(tokenId) == from */\n      and\n        /* \"Users/leilei/Downloads/MasterChefV2/contracts/PancakeBunnies.sol\":58480:58496  ownerOf(tokenId) */\n      tag_302\n        /* \"Users/leilei/Downloads/MasterChefV2/contracts/PancakeBunnies.sol\":58488:58495  tokenId */\n      dup3\n        /* \"Users/leilei/Downloads/MasterChefV2/contracts/PancakeBunnies.sol\":58480:58487  ownerOf */\n      tag_92\n        /* \"Users/leilei/Downloads/MasterChefV2/contracts/PancakeBunnies.sol\":58480:58496  ownerOf(tokenId) */\n      jump\t// in\n    tag_302:\n      sub(shl(0xa0, 0x01), 0x01)\n        /* \"Users/leilei/Downloads/MasterChefV2/contracts/PancakeBunnies.sol\":58480:58504  ownerOf(tokenId) == from */\n      and\n      eq\n        /* \"Users/leilei/Downloads/MasterChefV2/contracts/PancakeBunnies.sol\":58472:58550  require(ownerOf(tokenId) == from, \"ERC721: transfer of token that is not own\") */\n      tag_303\n      jumpi\n      mload(0x40)\n      shl(0xe5, 0x461bcd)\n      dup2\n      mstore\n      0x04\n      add\n      dup1\n      dup1\n      0x20\n      add\n      dup3\n      dup2\n      sub\n      dup3\n      mstore\n      0x29\n      dup2\n      mstore\n      0x20\n      add\n      dup1\n      data_a01073130a885d6c1c1af6ac75fc3b1c4f9403c235362962bbf528e2bd87d950\n      0x29\n      swap2\n      codecopy\n      0x40\n      add\n      swap2\n      pop\n      pop\n      mload(0x40)\n      dup1\n      swap2\n      sub\n      swap1\n      revert\n    tag_303:\n      sub(shl(0xa0, 0x01), 0x01)\n        /* \"Users/leilei/Downloads/MasterChefV2/contracts/PancakeBunnies.sol\":58568:58584  to != address(0) */\n      dup3\n      and\n        /* \"Users/leilei/Downloads/MasterChefV2/contracts/PancakeBunnies.sol\":58560:58625  require(to != address(0), \"ERC721: transfer to the zero address\") */\n      tag_304\n      jumpi\n      mload(0x40)\n      shl(0xe5, 0x461bcd)\n      dup2\n      mstore\n      0x04\n      add\n      dup1\n      dup1\n      0x20\n      add\n      dup3\n      dup2\n      sub\n      dup3\n      mstore\n      0x24\n      dup2\n      mstore\n      0x20\n      add\n      dup1\n      data_455fea98ea03c32d7dd1a6f1426917d80529bf47b3ccbde74e7206e889e709f4\n      0x24\n      swap2\n      codecopy\n      0x40\n      add\n      swap2\n      pop\n      pop\n      mload(0x40)\n      dup1\n      swap2\n      sub\n      swap1\n      revert\n    tag_304:\n        /* \"Users/leilei/Downloads/MasterChefV2/contracts/PancakeBunnies.sol\":58636:58675  _beforeTokenTransfer(from, to, tokenId) */\n      tag_305\n        /* \"Users/leilei/Downloads/MasterChefV2/contracts/PancakeBunnies.sol\":58657:58661  from */\n      dup4\n        /* \"Users/leilei/Downloads/MasterChefV2/contracts/PancakeBunnies.sol\":58663:58665  to */\n      dup4\n        /* \"Users/leilei/Downloads/MasterChefV2/contracts/PancakeBunnies.sol\":58667:58674  tokenId */\n      dup4\n        /* \"Users/leilei/Downloads/MasterChefV2/contracts/PancakeBunnies.sol\":58636:58656  _beforeTokenTransfer */\n      tag_167\n        /* \"Users/leilei/Downloads/MasterChefV2/contracts/PancakeBunnies.sol\":58636:58675  _beforeTokenTransfer(from, to, tokenId) */\n      jump\t// in\n    tag_305:\n        /* \"Users/leilei/Downloads/MasterChefV2/contracts/PancakeBunnies.sol\":58737:58766  _approve(address(0), tokenId) */\n      tag_307\n        /* \"Users/leilei/Downloads/MasterChefV2/contracts/PancakeBunnies.sol\":58754:58755  0 */\n      0x00\n        /* \"Users/leilei/Downloads/MasterChefV2/contracts/PancakeBunnies.sol\":58758:58765  tokenId */\n      dup3\n        /* \"Users/leilei/Downloads/MasterChefV2/contracts/PancakeBunnies.sol\":58737:58745  _approve */\n      tag_168\n        /* \"Users/leilei/Downloads/MasterChefV2/contracts/PancakeBunnies.sol\":58737:58766  _approve(address(0), tokenId) */\n      jump\t// in\n    tag_307:\n      sub(shl(0xa0, 0x01), 0x01)\n        /* \"Users/leilei/Downloads/MasterChefV2/contracts/PancakeBunnies.sol\":58777:58796  _holderTokens[from] */\n      dup4\n      and\n      0x00\n      swap1\n      dup2\n      mstore\n        /* \"Users/leilei/Downloads/MasterChefV2/contracts/PancakeBunnies.sol\":58777:58790  _holderTokens */\n      0x01\n        /* \"Users/leilei/Downloads/MasterChefV2/contracts/PancakeBunnies.sol\":58777:58796  _holderTokens[from] */\n      0x20\n      mstore\n      0x40\n      swap1\n      keccak256\n        /* \"Users/leilei/Downloads/MasterChefV2/contracts/PancakeBunnies.sol\":58777:58812  _holderTokens[from].remove(tokenId) */\n      tag_308\n      swap1\n        /* \"Users/leilei/Downloads/MasterChefV2/contracts/PancakeBunnies.sol\":58804:58811  tokenId */\n      dup3\n        /* \"Users/leilei/Downloads/MasterChefV2/contracts/PancakeBunnies.sol\":58777:58812  _holderTokens[from].remove(tokenId) */\n      0xffffffff\n        /* \"Users/leilei/Downloads/MasterChefV2/contracts/PancakeBunnies.sol\":58777:58803  _holderTokens[from].remove */\n      tag_309\n        /* \"Users/leilei/Downloads/MasterChefV2/contracts/PancakeBunnies.sol\":58777:58812  _holderTokens[from].remove(tokenId) */\n      and\n      jump\t// in\n    tag_308:\n      pop\n      sub(shl(0xa0, 0x01), 0x01)\n        /* \"Users/leilei/Downloads/MasterChefV2/contracts/PancakeBunnies.sol\":58822:58839  _holderTokens[to] */\n      dup3\n      and\n      0x00\n      swap1\n      dup2\n      mstore\n        /* \"Users/leilei/Downloads/MasterChefV2/contracts/PancakeBunnies.sol\":58822:58835  _holderTokens */\n      0x01\n        /* \"Users/leilei/Downloads/MasterChefV2/contracts/PancakeBunnies.sol\":58822:58839  _holderTokens[to] */\n      0x20\n      mstore\n      0x40\n      swap1\n      keccak256\n        /* \"Users/leilei/Downloads/MasterChefV2/contracts/PancakeBunnies.sol\":58822:58852  _holderTokens[to].add(tokenId) */\n      tag_310\n      swap1\n        /* \"Users/leilei/Downloads/MasterChefV2/contracts/PancakeBunnies.sol\":58844:58851  tokenId */\n      dup3\n        /* \"Users/leilei/Downloads/MasterChefV2/contracts/PancakeBunnies.sol\":58822:58852  _holderTokens[to].add(tokenId) */\n      0xffffffff\n        /* \"Users/leilei/Downloads/MasterChefV2/contracts/PancakeBunnies.sol\":58822:58843  _holderTokens[to].add */\n      tag_311\n        /* \"Users/leilei/Downloads/MasterChefV2/contracts/PancakeBunnies.sol\":58822:58852  _holderTokens[to].add(tokenId) */\n      and\n      jump\t// in\n    tag_310:\n      pop\n        /* \"Users/leilei/Downloads/MasterChefV2/contracts/PancakeBunnies.sol\":58863:58892  _tokenOwners.set(tokenId, to) */\n      tag_312\n        /* \"Users/leilei/Downloads/MasterChefV2/contracts/PancakeBunnies.sol\":58863:58875  _tokenOwners */\n      0x02\n        /* \"Users/leilei/Downloads/MasterChefV2/contracts/PancakeBunnies.sol\":58880:58887  tokenId */\n      dup3\n        /* \"Users/leilei/Downloads/MasterChefV2/contracts/PancakeBunnies.sol\":58889:58891  to */\n      dup5\n        /* \"Users/leilei/Downloads/MasterChefV2/contracts/PancakeBunnies.sol\":58863:58892  _tokenOwners.set(tokenId, to) */\n      0xffffffff\n        /* \"Users/leilei/Downloads/MasterChefV2/contracts/PancakeBunnies.sol\":58863:58879  _tokenOwners.set */\n      tag_313\n        /* \"Users/leilei/Downloads/MasterChefV2/contracts/PancakeBunnies.sol\":58863:58892  _tokenOwners.set(tokenId, to) */\n      and\n      jump\t// in\n    tag_312:\n      pop\n        /* \"Users/leilei/Downloads/MasterChefV2/contracts/PancakeBunnies.sol\":58927:58934  tokenId */\n      dup1\n        /* \"Users/leilei/Downloads/MasterChefV2/contracts/PancakeBunnies.sol\":58923:58925  to */\n      dup3\n      sub(shl(0xa0, 0x01), 0x01)\n        /* \"Users/leilei/Downloads/MasterChefV2/contracts/PancakeBunnies.sol\":58908:58935  Transfer(from, to, tokenId) */\n      and\n        /* \"Users/leilei/Downloads/MasterChefV2/contracts/PancakeBunnies.sol\":58917:58921  from */\n      dup5\n      sub(shl(0xa0, 0x01), 0x01)\n        /* \"Users/leilei/Downloads/MasterChefV2/contracts/PancakeBunnies.sol\":58908:58935  Transfer(from, to, tokenId) */\n      and\n      0xddf252ad1be2c89b69c2b068fc378daa952ba7f163c4a11628f55a4df523b3ef\n      mload(0x40)\n      mload(0x40)\n      dup1\n      swap2\n      sub\n      swap1\n      log4\n        /* \"Users/leilei/Downloads/MasterChefV2/contracts/PancakeBunnies.sol\":58383:58942  function _transfer(address from, address to, uint256 tokenId) internal virtual {... */\n      pop\n      pop\n      pop\n      jump\t// out\n        /* \"Users/leilei/Downloads/MasterChefV2/contracts/PancakeBunnies.sol\":35755:35890  function at(UintSet storage set, uint256 index) internal view returns (uint256) {... */\n    tag_189:\n        /* \"Users/leilei/Downloads/MasterChefV2/contracts/PancakeBunnies.sol\":35826:35833  uint256 */\n      0x00\n        /* \"Users/leilei/Downloads/MasterChefV2/contracts/PancakeBunnies.sol\":35860:35882  _at(set._inner, index) */\n      tag_188\n        /* \"Users/leilei/Downloads/MasterChefV2/contracts/PancakeBunnies.sol\":35864:35867  set */\n      dup4\n        /* \"Users/leilei/Downloads/MasterChefV2/contracts/PancakeBunnies.sol\":35876:35881  index */\n      dup4\n        /* \"Users/leilei/Downloads/MasterChefV2/contracts/PancakeBunnies.sol\":35860:35863  _at */\n      tag_316\n        /* \"Users/leilei/Downloads/MasterChefV2/contracts/PancakeBunnies.sol\":35860:35882  _at(set._inner, index) */\n      jump\t// in\n        /* \"Users/leilei/Downloads/MasterChefV2/contracts/PancakeBunnies.sol\":4608:4742  function sub(uint256 a, uint256 b) internal pure returns (uint256) {... */\n    tag_197:\n        /* \"Users/leilei/Downloads/MasterChefV2/contracts/PancakeBunnies.sol\":4666:4673  uint256 */\n      0x00\n        /* \"Users/leilei/Downloads/MasterChefV2/contracts/PancakeBunnies.sol\":4692:4735  sub(a, b, \"SafeMath: subtraction overflow\") */\n      tag_188\n        /* \"Users/leilei/Downloads/MasterChefV2/contracts/PancakeBunnies.sol\":4696:4697  a */\n      dup4\n        /* \"Users/leilei/Downloads/MasterChefV2/contracts/PancakeBunnies.sol\":4699:4700  b */\n      dup4\n        /* \"Users/leilei/Downloads/MasterChefV2/contracts/PancakeBunnies.sol\":4692:4735  sub(a, b, \"SafeMath: subtraction overflow\") */\n      mload(0x40)\n      dup1\n      0x40\n      add\n      0x40\n      mstore\n      dup1\n      0x1e\n      dup2\n      mstore\n      0x20\n      add\n      0x536166654d6174683a207375627472616374696f6e206f766572666c6f770000\n      dup2\n      mstore\n      pop\n        /* \"Users/leilei/Downloads/MasterChefV2/contracts/PancakeBunnies.sol\":4692:4695  sub */\n      tag_319\n        /* \"Users/leilei/Downloads/MasterChefV2/contracts/PancakeBunnies.sol\":4692:4735  sub(a, b, \"SafeMath: subtraction overflow\") */\n      jump\t// in\n        /* \"Users/leilei/Downloads/MasterChefV2/contracts/PancakeBunnies.sol\":4161:4337  function add(uint256 a, uint256 b) internal pure returns (uint256) {... */\n    tag_199:\n        /* \"Users/leilei/Downloads/MasterChefV2/contracts/PancakeBunnies.sol\":4219:4226  uint256 */\n      0x00\n        /* \"Users/leilei/Downloads/MasterChefV2/contracts/PancakeBunnies.sol\":4250:4255  a + b */\n      dup3\n      dup3\n      add\n        /* \"Users/leilei/Downloads/MasterChefV2/contracts/PancakeBunnies.sol\":4273:4279  c >= a */\n      dup4\n      dup2\n      lt\n      iszero\n        /* \"Users/leilei/Downloads/MasterChefV2/contracts/PancakeBunnies.sol\":4265:4311  require(c >= a, \"SafeMath: addition overflow\") */\n      tag_188\n      jumpi\n      0x40\n      dup1\n      mload\n      shl(0xe5, 0x461bcd)\n      dup2\n      mstore\n      0x20\n      0x04\n      dup3\n      add\n      mstore\n      0x1b\n      0x24\n      dup3\n      add\n      mstore\n      0x536166654d6174683a206164646974696f6e206f766572666c6f770000000000\n      0x44\n      dup3\n      add\n      mstore\n      swap1\n      mload\n      swap1\n      dup2\n      swap1\n      sub\n      0x64\n      add\n      swap1\n      revert\n        /* \"Users/leilei/Downloads/MasterChefV2/contracts/PancakeBunnies.sol\":57557:58059  function _burn(uint256 tokenId) internal virtual {... */\n    tag_201:\n        /* \"Users/leilei/Downloads/MasterChefV2/contracts/PancakeBunnies.sol\":57616:57629  address owner */\n      0x00\n        /* \"Users/leilei/Downloads/MasterChefV2/contracts/PancakeBunnies.sol\":57632:57648  ownerOf(tokenId) */\n      tag_323\n        /* \"Users/leilei/Downloads/MasterChefV2/contracts/PancakeBunnies.sol\":57640:57647  tokenId */\n      dup3\n        /* \"Users/leilei/Downloads/MasterChefV2/contracts/PancakeBunnies.sol\":57632:57639  ownerOf */\n      tag_92\n        /* \"Users/leilei/Downloads/MasterChefV2/contracts/PancakeBunnies.sol\":57632:57648  ownerOf(tokenId) */\n      jump\t// in\n    tag_323:\n        /* \"Users/leilei/Downloads/MasterChefV2/contracts/PancakeBunnies.sol\":57616:57648  address owner = ownerOf(tokenId) */\n      swap1\n      pop\n        /* \"Users/leilei/Downloads/MasterChefV2/contracts/PancakeBunnies.sol\":57659:57707  _beforeTokenTransfer(owner, address(0), tokenId) */\n      tag_324\n        /* \"Users/leilei/Downloads/MasterChefV2/contracts/PancakeBunnies.sol\":57680:57685  owner */\n      dup2\n        /* \"Users/leilei/Downloads/MasterChefV2/contracts/PancakeBunnies.sol\":57695:57696  0 */\n      0x00\n        /* \"Users/leilei/Downloads/MasterChefV2/contracts/PancakeBunnies.sol\":57699:57706  tokenId */\n      dup5\n        /* \"Users/leilei/Downloads/MasterChefV2/contracts/PancakeBunnies.sol\":57659:57679  _beforeTokenTransfer */\n      tag_167\n        /* \"Users/leilei/Downloads/MasterChefV2/contracts/PancakeBunnies.sol\":57659:57707  _beforeTokenTransfer(owner, address(0), tokenId) */\n      jump\t// in\n    tag_324:\n        /* \"Users/leilei/Downloads/MasterChefV2/contracts/PancakeBunnies.sol\":57745:57774  _approve(address(0), tokenId) */\n      tag_325\n        /* \"Users/leilei/Downloads/MasterChefV2/contracts/PancakeBunnies.sol\":57762:57763  0 */\n      0x00\n        /* \"Users/leilei/Downloads/MasterChefV2/contracts/PancakeBunnies.sol\":57766:57773  tokenId */\n      dup4\n        /* \"Users/leilei/Downloads/MasterChefV2/contracts/PancakeBunnies.sol\":57745:57753  _approve */\n      tag_168\n        /* \"Users/leilei/Downloads/MasterChefV2/contracts/PancakeBunnies.sol\":57745:57774  _approve(address(0), tokenId) */\n      jump\t// in\n    tag_325:\n        /* \"Users/leilei/Downloads/MasterChefV2/contracts/PancakeBunnies.sol\":57830:57849  _tokenURIs[tokenId] */\n      0x00\n      dup3\n      dup2\n      mstore\n        /* \"Users/leilei/Downloads/MasterChefV2/contracts/PancakeBunnies.sol\":57830:57840  _tokenURIs */\n      0x08\n        /* \"Users/leilei/Downloads/MasterChefV2/contracts/PancakeBunnies.sol\":57830:57849  _tokenURIs[tokenId] */\n      0x20\n      mstore\n      0x40\n      swap1\n      keccak256\n        /* \"Users/leilei/Downloads/MasterChefV2/contracts/PancakeBunnies.sol\":57824:57857  bytes(_tokenURIs[tokenId]).length */\n      sload\n      0x02\n      not(0x00)\n      0x0100\n      0x01\n      dup5\n      and\n      iszero\n      mul\n      add\n      swap1\n      swap2\n      and\n      div\n        /* \"Users/leilei/Downloads/MasterChefV2/contracts/PancakeBunnies.sol\":57824:57862  bytes(_tokenURIs[tokenId]).length != 0 */\n      iszero\n        /* \"Users/leilei/Downloads/MasterChefV2/contracts/PancakeBunnies.sol\":57820:57915  if (bytes(_tokenURIs[tokenId]).length != 0) {... */\n      tag_327\n      jumpi\n        /* \"Users/leilei/Downloads/MasterChefV2/contracts/PancakeBunnies.sol\":57885:57904  _tokenURIs[tokenId] */\n      0x00\n      dup3\n      dup2\n      mstore\n        /* \"Users/leilei/Downloads/MasterChefV2/contracts/PancakeBunnies.sol\":57885:57895  _tokenURIs */\n      0x08\n        /* \"Users/leilei/Downloads/MasterChefV2/contracts/PancakeBunnies.sol\":57885:57904  _tokenURIs[tokenId] */\n      0x20\n      mstore\n      0x40\n      dup2\n      keccak256\n        /* \"Users/leilei/Downloads/MasterChefV2/contracts/PancakeBunnies.sol\":57878:57904  delete _tokenURIs[tokenId] */\n      tag_327\n      swap2\n      tag_328\n      jump\t// in\n    tag_327:\n      sub(shl(0xa0, 0x01), 0x01)\n        /* \"Users/leilei/Downloads/MasterChefV2/contracts/PancakeBunnies.sol\":57925:57945  _holderTokens[owner] */\n      dup2\n      and\n      0x00\n      swap1\n      dup2\n      mstore\n        /* \"Users/leilei/Downloads/MasterChefV2/contracts/PancakeBunnies.sol\":57925:57938  _holderTokens */\n      0x01\n        /* \"Users/leilei/Downloads/MasterChefV2/contracts/PancakeBunnies.sol\":57925:57945  _holderTokens[owner] */\n      0x20\n      mstore\n      0x40\n      swap1\n      keccak256\n        /* \"Users/leilei/Downloads/MasterChefV2/contracts/PancakeBunnies.sol\":57925:57961  _holderTokens[owner].remove(tokenId) */\n      tag_329\n      swap1\n        /* \"Users/leilei/Downloads/MasterChefV2/contracts/PancakeBunnies.sol\":57953:57960  tokenId */\n      dup4\n        /* \"Users/leilei/Downloads/MasterChefV2/contracts/PancakeBunnies.sol\":57925:57961  _holderTokens[owner].remove(tokenId) */\n      0xffffffff\n        /* \"Users/leilei/Downloads/MasterChefV2/contracts/PancakeBunnies.sol\":57925:57952  _holderTokens[owner].remove */\n      tag_309\n        /* \"Users/leilei/Downloads/MasterChefV2/contracts/PancakeBunnies.sol\":57925:57961  _holderTokens[owner].remove(tokenId) */\n      and\n      jump\t// in\n    tag_329:\n      pop\n        /* \"Users/leilei/Downloads/MasterChefV2/contracts/PancakeBunnies.sol\":57972:58000  _tokenOwners.remove(tokenId) */\n      tag_330\n        /* \"Users/leilei/Downloads/MasterChefV2/contracts/PancakeBunnies.sol\":57972:57984  _tokenOwners */\n      0x02\n        /* \"Users/leilei/Downloads/MasterChefV2/contracts/PancakeBunnies.sol\":57992:57999  tokenId */\n      dup4\n        /* \"Users/leilei/Downloads/MasterChefV2/contracts/PancakeBunnies.sol\":57972:58000  _tokenOwners.remove(tokenId) */\n      0xffffffff\n        /* \"Users/leilei/Downloads/MasterChefV2/contracts/PancakeBunnies.sol\":57972:57991  _tokenOwners.remove */\n      tag_331\n        /* \"Users/leilei/Downloads/MasterChefV2/contracts/PancakeBunnies.sol\":57972:58000  _tokenOwners.remove(tokenId) */\n      and\n      jump\t// in\n    tag_330:\n      pop\n        /* \"Users/leilei/Downloads/MasterChefV2/contracts/PancakeBunnies.sol\":58016:58052  Transfer(owner, address(0), tokenId) */\n      mload(0x40)\n        /* \"Users/leilei/Downloads/MasterChefV2/contracts/PancakeBunnies.sol\":58044:58051  tokenId */\n      dup3\n      swap1\n        /* \"Users/leilei/Downloads/MasterChefV2/contracts/PancakeBunnies.sol\":58040:58041  0 */\n      0x00\n      swap1\n      sub(shl(0xa0, 0x01), 0x01)\n        /* \"Users/leilei/Downloads/MasterChefV2/contracts/PancakeBunnies.sol\":58016:58052  Transfer(owner, address(0), tokenId) */\n      dup5\n      and\n      swap1\n      0xddf252ad1be2c89b69c2b068fc378daa952ba7f163c4a11628f55a4df523b3ef\n      swap1\n        /* \"Users/leilei/Downloads/MasterChefV2/contracts/PancakeBunnies.sol\":58040:58041  0 */\n      dup4\n      swap1\n        /* \"Users/leilei/Downloads/MasterChefV2/contracts/PancakeBunnies.sol\":58016:58052  Transfer(owner, address(0), tokenId) */\n      log4\n        /* \"Users/leilei/Downloads/MasterChefV2/contracts/PancakeBunnies.sol\":57557:58059  function _burn(uint256 tokenId) internal virtual {... */\n      pop\n      pop\n      jump\t// out\n        /* \"Users/leilei/Downloads/MasterChefV2/contracts/PancakeBunnies.sol\":43399:43623  function at(UintToAddressMap storage map, uint256 index) internal view returns (uint256, address) {... */\n    tag_204:\n        /* \"Users/leilei/Downloads/MasterChefV2/contracts/PancakeBunnies.sol\":43479:43486  uint256 */\n      0x00\n      dup1\n      dup1\n      dup1\n        /* \"Users/leilei/Downloads/MasterChefV2/contracts/PancakeBunnies.sol\":43538:43560  _at(map._inner, index) */\n      tag_333\n        /* \"Users/leilei/Downloads/MasterChefV2/contracts/PancakeBunnies.sol\":43542:43545  map */\n      dup7\n        /* \"Users/leilei/Downloads/MasterChefV2/contracts/PancakeBunnies.sol\":43554:43559  index */\n      dup7\n        /* \"Users/leilei/Downloads/MasterChefV2/contracts/PancakeBunnies.sol\":43538:43541  _at */\n      tag_334\n        /* \"Users/leilei/Downloads/MasterChefV2/contracts/PancakeBunnies.sol\":43538:43560  _at(map._inner, index) */\n      jump\t// in\n    tag_333:\n        /* \"Users/leilei/Downloads/MasterChefV2/contracts/PancakeBunnies.sol\":43507:43560  (bytes32 key, bytes32 value) = _at(map._inner, index) */\n      swap1\n      swap8\n      swap1\n      swap7\n      pop\n        /* \"Users/leilei/Downloads/MasterChefV2/contracts/PancakeBunnies.sol\":43399:43623  function at(UintToAddressMap storage map, uint256 index) internal view returns (uint256, address) {... */\n      swap5\n      pop\n      pop\n      pop\n      pop\n      pop\n      jump\t// out\n        /* \"Users/leilei/Downloads/MasterChefV2/contracts/PancakeBunnies.sol\":44042:44244  function get(UintToAddressMap storage map, uint256 key, string memory errorMessage) internal view returns (address) {... */\n    tag_213:\n        /* \"Users/leilei/Downloads/MasterChefV2/contracts/PancakeBunnies.sol\":44149:44156  address */\n      0x00\n        /* \"Users/leilei/Downloads/MasterChefV2/contracts/PancakeBunnies.sol\":44191:44235  _get(map._inner, bytes32(key), errorMessage) */\n      tag_336\n        /* \"Users/leilei/Downloads/MasterChefV2/contracts/PancakeBunnies.sol\":44196:44199  map */\n      dup5\n        /* \"Users/leilei/Downloads/MasterChefV2/contracts/PancakeBunnies.sol\":44216:44219  key */\n      dup5\n        /* \"Users/leilei/Downloads/MasterChefV2/contracts/PancakeBunnies.sol\":44222:44234  errorMessage */\n      dup5\n        /* \"Users/leilei/Downloads/MasterChefV2/contracts/PancakeBunnies.sol\":44191:44195  _get */\n      tag_337\n        /* \"Users/leilei/Downloads/MasterChefV2/contracts/PancakeBunnies.sol\":44191:44235  _get(map._inner, bytes32(key), errorMessage) */\n      jump\t// in\n    tag_336:\n        /* \"Users/leilei/Downloads/MasterChefV2/contracts/PancakeBunnies.sol\":44183:44236  uint256(_get(map._inner, bytes32(key), errorMessage)) */\n      swap1\n      pop\n        /* \"Users/leilei/Downloads/MasterChefV2/contracts/PancakeBunnies.sol\":44042:44244  function get(UintToAddressMap storage map, uint256 key, string memory errorMessage) internal view returns (address) {... */\n    tag_335:\n      swap4\n      swap3\n      pop\n      pop\n      pop\n      jump\t// out\n        /* \"Users/leilei/Downloads/MasterChefV2/contracts/PancakeBunnies.sol\":9584:9696  function current(Counter storage counter) internal view returns (uint256) {... */\n    tag_219:\n        /* \"Users/leilei/Downloads/MasterChefV2/contracts/PancakeBunnies.sol\":9675:9689  counter._value */\n      sload\n      swap1\n        /* \"Users/leilei/Downloads/MasterChefV2/contracts/PancakeBunnies.sol\":9584:9696  function current(Counter storage counter) internal view returns (uint256) {... */\n      jump\t// out\n        /* \"Users/leilei/Downloads/MasterChefV2/contracts/PancakeBunnies.sol\":9702:9880  function increment(Counter storage counter) internal {... */\n    tag_221:\n        /* \"Users/leilei/Downloads/MasterChefV2/contracts/PancakeBunnies.sol\":9854:9873  counter._value += 1 */\n      dup1\n      sload\n        /* \"Users/leilei/Downloads/MasterChefV2/contracts/PancakeBunnies.sol\":9872:9873  1 */\n      0x01\n        /* \"Users/leilei/Downloads/MasterChefV2/contracts/PancakeBunnies.sol\":9854:9873  counter._value += 1 */\n      add\n      swap1\n      sstore\n        /* \"Users/leilei/Downloads/MasterChefV2/contracts/PancakeBunnies.sol\":9702:9880  function increment(Counter storage counter) internal {... */\n      jump\t// out\n        /* \"Users/leilei/Downloads/MasterChefV2/contracts/PancakeBunnies.sol\":56947:57340  function _mint(address to, uint256 tokenId) internal virtual {... */\n    tag_224:\n      sub(shl(0xa0, 0x01), 0x01)\n        /* \"Users/leilei/Downloads/MasterChefV2/contracts/PancakeBunnies.sol\":57026:57042  to != address(0) */\n      dup3\n      and\n        /* \"Users/leilei/Downloads/MasterChefV2/contracts/PancakeBunnies.sol\":57018:57079  require(to != address(0), \"ERC721: mint to the zero address\") */\n      tag_341\n      jumpi\n      0x40\n      dup1\n      mload\n      shl(0xe5, 0x461bcd)\n      dup2\n      mstore\n      0x20\n      0x04\n      dup3\n      add\n      dup2\n      swap1\n      mstore\n      0x24\n      dup3\n      add\n      mstore\n      0x4552433732313a206d696e7420746f20746865207a65726f2061646472657373\n      0x44\n      dup3\n      add\n      mstore\n      swap1\n      mload\n      swap1\n      dup2\n      swap1\n      sub\n      0x64\n      add\n      swap1\n      revert\n    tag_341:\n        /* \"Users/leilei/Downloads/MasterChefV2/contracts/PancakeBunnies.sol\":57098:57114  _exists(tokenId) */\n      tag_342\n        /* \"Users/leilei/Downloads/MasterChefV2/contracts/PancakeBunnies.sol\":57106:57113  tokenId */\n      dup2\n        /* \"Users/leilei/Downloads/MasterChefV2/contracts/PancakeBunnies.sol\":57098:57105  _exists */\n      tag_156\n        /* \"Users/leilei/Downloads/MasterChefV2/contracts/PancakeBunnies.sol\":57098:57114  _exists(tokenId) */\n      jump\t// in\n    tag_342:\n        /* \"Users/leilei/Downloads/MasterChefV2/contracts/PancakeBunnies.sol\":57097:57114  !_exists(tokenId) */\n      iszero\n        /* \"Users/leilei/Downloads/MasterChefV2/contracts/PancakeBunnies.sol\":57089:57147  require(!_exists(tokenId), \"ERC721: token already minted\") */\n      tag_343\n      jumpi\n      0x40\n      dup1\n      mload\n      shl(0xe5, 0x461bcd)\n      dup2\n      mstore\n      0x20\n      0x04\n      dup3\n      add\n      mstore\n      0x1c\n      0x24\n      dup3\n      add\n      mstore\n      0x4552433732313a20746f6b656e20616c7265616479206d696e74656400000000\n      0x44\n      dup3\n      add\n      mstore\n      swap1\n      mload\n      swap1\n      dup2\n      swap1\n      sub\n      0x64\n      add\n      swap1\n      revert\n    tag_343:\n        /* \"Users/leilei/Downloads/MasterChefV2/contracts/PancakeBunnies.sol\":57158:57203  _beforeTokenTransfer(address(0), to, tokenId) */\n      tag_344\n        /* \"Users/leilei/Downloads/MasterChefV2/contracts/PancakeBunnies.sol\":57187:57188  0 */\n      0x00\n        /* \"Users/leilei/Downloads/MasterChefV2/contracts/PancakeBunnies.sol\":57191:57193  to */\n      dup4\n        /* \"Users/leilei/Downloads/MasterChefV2/contracts/PancakeBunnies.sol\":57195:57202  tokenId */\n      dup4\n        /* \"Users/leilei/Downloads/MasterChefV2/contracts/PancakeBunnies.sol\":57158:57178  _beforeTokenTransfer */\n      tag_167\n        /* \"Users/leilei/Downloads/MasterChefV2/contracts/PancakeBunnies.sol\":57158:57203  _beforeTokenTransfer(address(0), to, tokenId) */\n      jump\t// in\n    tag_344:\n      sub(shl(0xa0, 0x01), 0x01)\n        /* \"Users/leilei/Downloads/MasterChefV2/contracts/PancakeBunnies.sol\":57214:57231  _holderTokens[to] */\n      dup3\n      and\n      0x00\n      swap1\n      dup2\n      mstore\n        /* \"Users/leilei/Downloads/MasterChefV2/contracts/PancakeBunnies.sol\":57214:57227  _holderTokens */\n      0x01\n        /* \"Users/leilei/Downloads/MasterChefV2/contracts/PancakeBunnies.sol\":57214:57231  _holderTokens[to] */\n      0x20\n      mstore\n      0x40\n      swap1\n      keccak256\n        /* \"Users/leilei/Downloads/MasterChefV2/contracts/PancakeBunnies.sol\":57214:57244  _holderTokens[to].add(tokenId) */\n      tag_345\n      swap1\n        /* \"Users/leilei/Downloads/MasterChefV2/contracts/PancakeBunnies.sol\":57236:57243  tokenId */\n      dup3\n        /* \"Users/leilei/Downloads/MasterChefV2/contracts/PancakeBunnies.sol\":57214:57244  _holderTokens[to].add(tokenId) */\n      0xffffffff\n        /* \"Users/leilei/Downloads/MasterChefV2/contracts/PancakeBunnies.sol\":57214:57235  _holderTokens[to].add */\n      tag_311\n        /* \"Users/leilei/Downloads/MasterChefV2/contracts/PancakeBunnies.sol\":57214:57244  _holderTokens[to].add(tokenId) */\n      and\n      jump\t// in\n    tag_345:\n      pop\n        /* \"Users/leilei/Downloads/MasterChefV2/contracts/PancakeBunnies.sol\":57255:57284  _tokenOwners.set(tokenId, to) */\n      tag_346\n        /* \"Users/leilei/Downloads/MasterChefV2/contracts/PancakeBunnies.sol\":57255:57267  _tokenOwners */\n      0x02\n        /* \"Users/leilei/Downloads/MasterChefV2/contracts/PancakeBunnies.sol\":57272:57279  tokenId */\n      dup3\n        /* \"Users/leilei/Downloads/MasterChefV2/contracts/PancakeBunnies.sol\":57281:57283  to */\n      dup5\n        /* \"Users/leilei/Downloads/MasterChefV2/contracts/PancakeBunnies.sol\":57255:57284  _tokenOwners.set(tokenId, to) */\n      0xffffffff\n        /* \"Users/leilei/Downloads/MasterChefV2/contracts/PancakeBunnies.sol\":57255:57271  _tokenOwners.set */\n      tag_313\n        /* \"Users/leilei/Downloads/MasterChefV2/contracts/PancakeBunnies.sol\":57255:57284  _tokenOwners.set(tokenId, to) */\n      and\n      jump\t// in\n    tag_346:\n      pop\n        /* \"Users/leilei/Downloads/MasterChefV2/contracts/PancakeBunnies.sol\":57300:57333  Transfer(address(0), to, tokenId) */\n      mload(0x40)\n        /* \"Users/leilei/Downloads/MasterChefV2/contracts/PancakeBunnies.sol\":57325:57332  tokenId */\n      dup2\n      swap1\n      sub(shl(0xa0, 0x01), 0x01)\n        /* \"Users/leilei/Downloads/MasterChefV2/contracts/PancakeBunnies.sol\":57300:57333  Transfer(address(0), to, tokenId) */\n      dup5\n      and\n      swap1\n        /* \"Users/leilei/Downloads/MasterChefV2/contracts/PancakeBunnies.sol\":57317:57318  0 */\n      0x00\n      swap1\n        /* \"Users/leilei/Downloads/MasterChefV2/contracts/PancakeBunnies.sol\":57300:57333  Transfer(address(0), to, tokenId) */\n      0xddf252ad1be2c89b69c2b068fc378daa952ba7f163c4a11628f55a4df523b3ef\n      swap1\n        /* \"Users/leilei/Downloads/MasterChefV2/contracts/PancakeBunnies.sol\":57317:57318  0 */\n      dup3\n      swap1\n        /* \"Users/leilei/Downloads/MasterChefV2/contracts/PancakeBunnies.sol\":57300:57333  Transfer(address(0), to, tokenId) */\n      log4\n        /* \"Users/leilei/Downloads/MasterChefV2/contracts/PancakeBunnies.sol\":56947:57340  function _mint(address to, uint256 tokenId) internal virtual {... */\n      pop\n      pop\n      jump\t// out\n        /* \"Users/leilei/Downloads/MasterChefV2/contracts/PancakeBunnies.sol\":59089:59301  function _setTokenURI(uint256 tokenId, string memory _tokenURI) internal virtual {... */\n    tag_226:\n        /* \"Users/leilei/Downloads/MasterChefV2/contracts/PancakeBunnies.sol\":59188:59204  _exists(tokenId) */\n      tag_348\n        /* \"Users/leilei/Downloads/MasterChefV2/contracts/PancakeBunnies.sol\":59196:59203  tokenId */\n      dup3\n        /* \"Users/leilei/Downloads/MasterChefV2/contracts/PancakeBunnies.sol\":59188:59195  _exists */\n      tag_156\n        /* \"Users/leilei/Downloads/MasterChefV2/contracts/PancakeBunnies.sol\":59188:59204  _exists(tokenId) */\n      jump\t// in\n    tag_348:\n        /* \"Users/leilei/Downloads/MasterChefV2/contracts/PancakeBunnies.sol\":59180:59253  require(_exists(tokenId), \"ERC721Metadata: URI set of nonexistent token\") */\n      tag_349\n      jumpi\n      mload(0x40)\n      shl(0xe5, 0x461bcd)\n      dup2\n      mstore\n      0x04\n      add\n      dup1\n      dup1\n      0x20\n      add\n      dup3\n      dup2\n      sub\n      dup3\n      mstore\n      0x2c\n      dup2\n      mstore\n      0x20\n      add\n      dup1\n      data_94be4a260caaeac1b145f03ffa2e70bc612b64982d04f24073aaf3a5f9009978\n      0x2c\n      swap2\n      codecopy\n      0x40\n      add\n      swap2\n      pop\n      pop\n      mload(0x40)\n      dup1\n      swap2\n      sub\n      swap1\n      revert\n    tag_349:\n        /* \"Users/leilei/Downloads/MasterChefV2/contracts/PancakeBunnies.sol\":59263:59282  _tokenURIs[tokenId] */\n      0x00\n      dup3\n      dup2\n      mstore\n        /* \"Users/leilei/Downloads/MasterChefV2/contracts/PancakeBunnies.sol\":59263:59273  _tokenURIs */\n      0x08\n        /* \"Users/leilei/Downloads/MasterChefV2/contracts/PancakeBunnies.sol\":59263:59282  _tokenURIs[tokenId] */\n      0x20\n      swap1\n      dup2\n      mstore\n      0x40\n      swap1\n      swap2\n      keccak256\n        /* \"Users/leilei/Downloads/MasterChefV2/contracts/PancakeBunnies.sol\":59263:59294  _tokenURIs[tokenId] = _tokenURI */\n      dup3\n      mload\n      tag_167\n      swap3\n      dup5\n      add\n      swap1\n      tag_351\n      jump\t// in\n        /* \"Users/leilei/Downloads/MasterChefV2/contracts/PancakeBunnies.sol\":54542:54811  function _safeTransfer(address from, address to, uint256 tokenId, bytes memory _data) internal virtual {... */\n    tag_254:\n        /* \"Users/leilei/Downloads/MasterChefV2/contracts/PancakeBunnies.sol\":54655:54683  _transfer(from, to, tokenId) */\n      tag_356\n        /* \"Users/leilei/Downloads/MasterChefV2/contracts/PancakeBunnies.sol\":54665:54669  from */\n      dup5\n        /* \"Users/leilei/Downloads/MasterChefV2/contracts/PancakeBunnies.sol\":54671:54673  to */\n      dup5\n        /* \"Users/leilei/Downloads/MasterChefV2/contracts/PancakeBunnies.sol\":54675:54682  tokenId */\n      dup5\n        /* \"Users/leilei/Downloads/MasterChefV2/contracts/PancakeBunnies.sol\":54655:54664  _transfer */\n      tag_182\n        /* \"Users/leilei/Downloads/MasterChefV2/contracts/PancakeBunnies.sol\":54655:54683  _transfer(from, to, tokenId) */\n      jump\t// in\n    tag_356:\n        /* \"Users/leilei/Downloads/MasterChefV2/contracts/PancakeBunnies.sol\":54701:54749  _checkOnERC721Received(from, to, tokenId, _data) */\n      tag_357\n        /* \"Users/leilei/Downloads/MasterChefV2/contracts/PancakeBunnies.sol\":54724:54728  from */\n      dup5\n        /* \"Users/leilei/Downloads/MasterChefV2/contracts/PancakeBunnies.sol\":54730:54732  to */\n      dup5\n        /* \"Users/leilei/Downloads/MasterChefV2/contracts/PancakeBunnies.sol\":54734:54741  tokenId */\n      dup5\n        /* \"Users/leilei/Downloads/MasterChefV2/contracts/PancakeBunnies.sol\":54743:54748  _data */\n      dup5\n        /* \"Users/leilei/Downloads/MasterChefV2/contracts/PancakeBunnies.sol\":54701:54723  _checkOnERC721Received */\n      tag_358\n        /* \"Users/leilei/Downloads/MasterChefV2/contracts/PancakeBunnies.sol\":54701:54749  _checkOnERC721Received(from, to, tokenId, _data) */\n      jump\t// in\n    tag_357:\n        /* \"Users/leilei/Downloads/MasterChefV2/contracts/PancakeBunnies.sol\":54693:54804  require(_checkOnERC721Received(from, to, tokenId, _data), \"ERC721: transfer to non ERC721Receiver implementer\") */\n      tag_209\n      jumpi\n      mload(0x40)\n      shl(0xe5, 0x461bcd)\n      dup2\n      mstore\n      0x04\n      add\n      dup1\n      dup1\n      0x20\n      add\n      dup3\n      dup2\n      sub\n      dup3\n      mstore\n      0x32\n      dup2\n      mstore\n      0x20\n      add\n      dup1\n      data_1e766a06da43a53d0f4c380e06e5a342e14d5af1bf8501996c844905530ca84e\n      0x32\n      swap2\n      codecopy\n      0x40\n      add\n      swap2\n      pop\n      pop\n      mload(0x40)\n      dup1\n      swap2\n      sub\n      swap1\n      revert\n        /* \"Users/leilei/Downloads/MasterChefV2/contracts/PancakeBunnies.sol\":44477:45200  function toString(uint256 value) internal pure returns (string memory) {... */\n    tag_271:\n        /* \"Users/leilei/Downloads/MasterChefV2/contracts/PancakeBunnies.sol\":44533:44546  string memory */\n      0x60\n        /* \"Users/leilei/Downloads/MasterChefV2/contracts/PancakeBunnies.sol\":44750:44760  value == 0 */\n      dup2\n        /* \"Users/leilei/Downloads/MasterChefV2/contracts/PancakeBunnies.sol\":44746:44797  if (value == 0) {... */\n      tag_361\n      jumpi\n      pop\n        /* \"Users/leilei/Downloads/MasterChefV2/contracts/PancakeBunnies.sol\":44776:44786  return \"0\" */\n      0x40\n      dup1\n      mload\n      dup1\n      dup3\n      add\n      swap1\n      swap2\n      mstore\n      0x01\n      dup2\n      mstore\n      shl(0xfc, 0x03)\n      0x20\n      dup3\n      add\n      mstore\n      jump(tag_149)\n        /* \"Users/leilei/Downloads/MasterChefV2/contracts/PancakeBunnies.sol\":44746:44797  if (value == 0) {... */\n    tag_361:\n        /* \"Users/leilei/Downloads/MasterChefV2/contracts/PancakeBunnies.sol\":44821:44826  value */\n      dup2\n        /* \"Users/leilei/Downloads/MasterChefV2/contracts/PancakeBunnies.sol\":44806:44818  uint256 temp */\n      0x00\n        /* \"Users/leilei/Downloads/MasterChefV2/contracts/PancakeBunnies.sol\":44860:44935  while (temp != 0) {... */\n    tag_362:\n        /* \"Users/leilei/Downloads/MasterChefV2/contracts/PancakeBunnies.sol\":44867:44876  temp != 0 */\n      dup2\n      iszero\n        /* \"Users/leilei/Downloads/MasterChefV2/contracts/PancakeBunnies.sol\":44860:44935  while (temp != 0) {... */\n      tag_363\n      jumpi\n        /* \"Users/leilei/Downloads/MasterChefV2/contracts/PancakeBunnies.sol\":44892:44900  digits++ */\n      0x01\n      add\n        /* \"Users/leilei/Downloads/MasterChefV2/contracts/PancakeBunnies.sol\":44922:44924  10 */\n      0x0a\n        /* \"Users/leilei/Downloads/MasterChefV2/contracts/PancakeBunnies.sol\":44914:44924  temp /= 10 */\n      dup3\n      div\n      swap2\n      pop\n        /* \"Users/leilei/Downloads/MasterChefV2/contracts/PancakeBunnies.sol\":44860:44935  while (temp != 0) {... */\n      jump(tag_362)\n    tag_363:\n        /* \"Users/leilei/Downloads/MasterChefV2/contracts/PancakeBunnies.sol\":44944:44963  bytes memory buffer */\n      0x60\n        /* \"Users/leilei/Downloads/MasterChefV2/contracts/PancakeBunnies.sol\":44976:44982  digits */\n      dup2\n        /* \"Users/leilei/Downloads/MasterChefV2/contracts/PancakeBunnies.sol\":44966:44983  new bytes(digits) */\n      mload(0x40)\n      swap1\n      dup1\n      dup3\n      mstore\n      dup1\n      0x1f\n      add\n      not(0x1f)\n      and\n      0x20\n      add\n      dup3\n      add\n      0x40\n      mstore\n      dup1\n      iszero\n      tag_365\n      jumpi\n      0x20\n      dup3\n      add\n        /* \"--CODEGEN--\":21:27   */\n      dup2\n      dup1\n        /* \"--CODEGEN--\":108:122   */\n      calldatasize\n        /* \"Users/leilei/Downloads/MasterChefV2/contracts/PancakeBunnies.sol\":44966:44983  new bytes(digits) */\n      dup4\n        /* \"--CODEGEN--\":87:129   */\n      calldatacopy\n        /* \"--CODEGEN--\":143:160   */\n      add\n      swap1\n      pop\n        /* \"Users/leilei/Downloads/MasterChefV2/contracts/PancakeBunnies.sol\":44966:44983  new bytes(digits) */\n    tag_365:\n      pop\n        /* \"Users/leilei/Downloads/MasterChefV2/contracts/PancakeBunnies.sol\":45036:45041  value */\n      dup6\n      swap4\n      pop\n        /* \"Users/leilei/Downloads/MasterChefV2/contracts/PancakeBunnies.sol\":44944:44983  bytes memory buffer = new bytes(digits) */\n      swap1\n      pop\n      not(0x00)\n        /* \"Users/leilei/Downloads/MasterChefV2/contracts/PancakeBunnies.sol\":45009:45019  digits - 1 */\n      dup3\n      add\n        /* \"Users/leilei/Downloads/MasterChefV2/contracts/PancakeBunnies.sol\":45051:45163  while (temp != 0) {... */\n    tag_366:\n        /* \"Users/leilei/Downloads/MasterChefV2/contracts/PancakeBunnies.sol\":45058:45067  temp != 0 */\n      dup4\n      iszero\n        /* \"Users/leilei/Downloads/MasterChefV2/contracts/PancakeBunnies.sol\":45051:45163  while (temp != 0) {... */\n      tag_367\n      jumpi\n        /* \"Users/leilei/Downloads/MasterChefV2/contracts/PancakeBunnies.sol\":45124:45126  10 */\n      0x0a\n        /* \"Users/leilei/Downloads/MasterChefV2/contracts/PancakeBunnies.sol\":45117:45121  temp */\n      dup5\n        /* \"Users/leilei/Downloads/MasterChefV2/contracts/PancakeBunnies.sol\":45117:45126  temp % 10 */\n      mod\n        /* \"Users/leilei/Downloads/MasterChefV2/contracts/PancakeBunnies.sol\":45112:45114  48 */\n      0x30\n        /* \"Users/leilei/Downloads/MasterChefV2/contracts/PancakeBunnies.sol\":45112:45126  48 + temp % 10 */\n      add\n        /* \"Users/leilei/Downloads/MasterChefV2/contracts/PancakeBunnies.sol\":45101:45128  byte(uint8(48 + temp % 10)) */\n      0xf8\n      shl\n        /* \"Users/leilei/Downloads/MasterChefV2/contracts/PancakeBunnies.sol\":45083:45089  buffer */\n      dup3\n        /* \"Users/leilei/Downloads/MasterChefV2/contracts/PancakeBunnies.sol\":45090:45097  index-- */\n      dup3\n      dup1\n      0x01\n      swap1\n      sub\n      swap4\n      pop\n        /* \"Users/leilei/Downloads/MasterChefV2/contracts/PancakeBunnies.sol\":45083:45098  buffer[index--] */\n      dup2\n      mload\n      dup2\n      lt\n      tag_369\n      jumpi\n      invalid\n    tag_369:\n      0x20\n      add\n      add\n        /* \"Users/leilei/Downloads/MasterChefV2/contracts/PancakeBunnies.sol\":45083:45128  buffer[index--] = byte(uint8(48 + temp % 10)) */\n      swap1\n      not(sub(shl(0xf8, 0x01), 0x01))\n      and\n      swap1\n      dup2\n      0x00\n      byte\n      swap1\n      mstore8\n      pop\n        /* \"Users/leilei/Downloads/MasterChefV2/contracts/PancakeBunnies.sol\":45150:45152  10 */\n      0x0a\n        /* \"Users/leilei/Downloads/MasterChefV2/contracts/PancakeBunnies.sol\":45142:45152  temp /= 10 */\n      dup5\n      div\n      swap4\n      pop\n        /* \"Users/leilei/Downloads/MasterChefV2/contracts/PancakeBunnies.sol\":45051:45163  while (temp != 0) {... */\n      jump(tag_366)\n    tag_367:\n      pop\n        /* \"Users/leilei/Downloads/MasterChefV2/contracts/PancakeBunnies.sol\":45186:45192  buffer */\n      swap5\n        /* \"Users/leilei/Downloads/MasterChefV2/contracts/PancakeBunnies.sol\":44477:45200  function toString(uint256 value) internal pure returns (string memory) {... */\n      swap4\n      pop\n      pop\n      pop\n      pop\n      jump\t// out\n        /* \"Users/leilei/Downloads/MasterChefV2/contracts/PancakeBunnies.sol\":42718:42867  function contains(UintToAddressMap storage map, uint256 key) internal view returns (bool) {... */\n    tag_286:\n        /* \"Users/leilei/Downloads/MasterChefV2/contracts/PancakeBunnies.sol\":42802:42806  bool */\n      0x00\n        /* \"Users/leilei/Downloads/MasterChefV2/contracts/PancakeBunnies.sol\":42825:42860  _contains(map._inner, bytes32(key)) */\n      tag_188\n        /* \"Users/leilei/Downloads/MasterChefV2/contracts/PancakeBunnies.sol\":42835:42838  map */\n      dup4\n        /* \"Users/leilei/Downloads/MasterChefV2/contracts/PancakeBunnies.sol\":42855:42858  key */\n      dup4\n        /* \"Users/leilei/Downloads/MasterChefV2/contracts/PancakeBunnies.sol\":42825:42834  _contains */\n      tag_373\n        /* \"Users/leilei/Downloads/MasterChefV2/contracts/PancakeBunnies.sol\":42825:42860  _contains(map._inner, bytes32(key)) */\n      jump\t// in\n        /* \"Users/leilei/Downloads/MasterChefV2/contracts/PancakeBunnies.sol\":34870:35005  function remove(UintSet storage set, uint256 value) internal returns (bool) {... */\n    tag_309:\n        /* \"Users/leilei/Downloads/MasterChefV2/contracts/PancakeBunnies.sol\":34940:34944  bool */\n      0x00\n        /* \"Users/leilei/Downloads/MasterChefV2/contracts/PancakeBunnies.sol\":34963:34998  _remove(set._inner, bytes32(value)) */\n      tag_188\n        /* \"Users/leilei/Downloads/MasterChefV2/contracts/PancakeBunnies.sol\":34971:34974  set */\n      dup4\n        /* \"Users/leilei/Downloads/MasterChefV2/contracts/PancakeBunnies.sol\":34991:34996  value */\n      dup4\n        /* \"Users/leilei/Downloads/MasterChefV2/contracts/PancakeBunnies.sol\":34963:34970  _remove */\n      tag_378\n        /* \"Users/leilei/Downloads/MasterChefV2/contracts/PancakeBunnies.sol\":34963:34998  _remove(set._inner, bytes32(value)) */\n      jump\t// in\n        /* \"Users/leilei/Downloads/MasterChefV2/contracts/PancakeBunnies.sol\":34573:34702  function add(UintSet storage set, uint256 value) internal returns (bool) {... */\n    tag_311:\n        /* \"Users/leilei/Downloads/MasterChefV2/contracts/PancakeBunnies.sol\":34640:34644  bool */\n      0x00\n        /* \"Users/leilei/Downloads/MasterChefV2/contracts/PancakeBunnies.sol\":34663:34695  _add(set._inner, bytes32(value)) */\n      tag_188\n        /* \"Users/leilei/Downloads/MasterChefV2/contracts/PancakeBunnies.sol\":34668:34671  set */\n      dup4\n        /* \"Users/leilei/Downloads/MasterChefV2/contracts/PancakeBunnies.sol\":34688:34693  value */\n      dup4\n        /* \"Users/leilei/Downloads/MasterChefV2/contracts/PancakeBunnies.sol\":34663:34667  _add */\n      tag_381\n        /* \"Users/leilei/Downloads/MasterChefV2/contracts/PancakeBunnies.sol\":34663:34695  _add(set._inner, bytes32(value)) */\n      jump\t// in\n        /* \"Users/leilei/Downloads/MasterChefV2/contracts/PancakeBunnies.sol\":42166:42340  function set(UintToAddressMap storage map, uint256 key, address value) internal returns (bool) {... */\n    tag_313:\n        /* \"Users/leilei/Downloads/MasterChefV2/contracts/PancakeBunnies.sol\":42255:42259  bool */\n      0x00\n        /* \"Users/leilei/Downloads/MasterChefV2/contracts/PancakeBunnies.sol\":42278:42333  _set(map._inner, bytes32(key), bytes32(uint256(value))) */\n      tag_336\n        /* \"Users/leilei/Downloads/MasterChefV2/contracts/PancakeBunnies.sol\":42283:42286  map */\n      dup5\n        /* \"Users/leilei/Downloads/MasterChefV2/contracts/PancakeBunnies.sol\":42303:42306  key */\n      dup5\n      sub(shl(0xa0, 0x01), 0x01)\n        /* \"Users/leilei/Downloads/MasterChefV2/contracts/PancakeBunnies.sol\":42317:42331  uint256(value) */\n      dup6\n      and\n        /* \"Users/leilei/Downloads/MasterChefV2/contracts/PancakeBunnies.sol\":42278:42282  _set */\n      tag_384\n        /* \"Users/leilei/Downloads/MasterChefV2/contracts/PancakeBunnies.sol\":42278:42333  _set(map._inner, bytes32(key), bytes32(uint256(value))) */\n      jump\t// in\n        /* \"Users/leilei/Downloads/MasterChefV2/contracts/PancakeBunnies.sol\":30993:31194  function _at(Set storage set, uint256 index) private view returns (bytes32) {... */\n    tag_316:\n        /* \"Users/leilei/Downloads/MasterChefV2/contracts/PancakeBunnies.sol\":31087:31105  set._values.length */\n      dup2\n      sload\n        /* \"Users/leilei/Downloads/MasterChefV2/contracts/PancakeBunnies.sol\":31060:31067  bytes32 */\n      0x00\n      swap1\n        /* \"Users/leilei/Downloads/MasterChefV2/contracts/PancakeBunnies.sol\":31087:31113  set._values.length > index */\n      dup3\n      lt\n        /* \"Users/leilei/Downloads/MasterChefV2/contracts/PancakeBunnies.sol\":31079:31152  require(set._values.length > index, \"EnumerableSet: index out of bounds\") */\n      tag_386\n      jumpi\n      mload(0x40)\n      shl(0xe5, 0x461bcd)\n      dup2\n      mstore\n      0x04\n      add\n      dup1\n      dup1\n      0x20\n      add\n      dup3\n      dup2\n      sub\n      dup3\n      mstore\n      0x22\n      dup2\n      mstore\n      0x20\n      add\n      dup1\n      data_045d6834e6193a687012a3ad777f612279e549b6945364d9d2324f48610d3cbb\n      0x22\n      swap2\n      codecopy\n      0x40\n      add\n      swap2\n      pop\n      pop\n      mload(0x40)\n      dup1\n      swap2\n      sub\n      swap1\n      revert\n    tag_386:\n        /* \"Users/leilei/Downloads/MasterChefV2/contracts/PancakeBunnies.sol\":31169:31172  set */\n      dup3\n        /* \"Users/leilei/Downloads/MasterChefV2/contracts/PancakeBunnies.sol\":31169:31180  set._values */\n      0x00\n      add\n        /* \"Users/leilei/Downloads/MasterChefV2/contracts/PancakeBunnies.sol\":31181:31186  index */\n      dup3\n        /* \"Users/leilei/Downloads/MasterChefV2/contracts/PancakeBunnies.sol\":31169:31187  set._values[index] */\n      dup2\n      sload\n      dup2\n      lt\n      tag_387\n      jumpi\n      invalid\n    tag_387:\n      swap1\n      0x00\n      mstore\n      keccak256(0x00, 0x20)\n      add\n      sload\n        /* \"Users/leilei/Downloads/MasterChefV2/contracts/PancakeBunnies.sol\":31162:31187  return set._values[index] */\n      swap1\n      pop\n        /* \"Users/leilei/Downloads/MasterChefV2/contracts/PancakeBunnies.sol\":30993:31194  function _at(Set storage set, uint256 index) private view returns (bytes32) {... */\n      swap3\n      swap2\n      pop\n      pop\n      jump\t// out\n        /* \"Users/leilei/Downloads/MasterChefV2/contracts/PancakeBunnies.sol\":5033:5220  function sub(uint256 a, uint256 b, string memory errorMessage) internal pure returns (uint256) {... */\n    tag_319:\n        /* \"Users/leilei/Downloads/MasterChefV2/contracts/PancakeBunnies.sol\":5119:5126  uint256 */\n      0x00\n        /* \"Users/leilei/Downloads/MasterChefV2/contracts/PancakeBunnies.sol\":5154:5166  errorMessage */\n      dup2\n        /* \"Users/leilei/Downloads/MasterChefV2/contracts/PancakeBunnies.sol\":5146:5152  b <= a */\n      dup5\n      dup5\n      gt\n      iszero\n        /* \"Users/leilei/Downloads/MasterChefV2/contracts/PancakeBunnies.sol\":5138:5167  require(b <= a, errorMessage) */\n      tag_390\n      jumpi\n      mload(0x40)\n      shl(0xe5, 0x461bcd)\n      dup2\n      mstore\n      0x04\n      add\n      dup1\n      dup1\n      0x20\n      add\n      dup3\n      dup2\n      sub\n      dup3\n      mstore\n      dup4\n      dup2\n      dup2\n      mload\n      dup2\n      mstore\n      0x20\n      add\n      swap2\n      pop\n      dup1\n      mload\n      swap1\n      0x20\n      add\n      swap1\n      dup1\n      dup4\n      dup4\n        /* \"--CODEGEN--\":23:24   */\n      0x00\n        /* \"--CODEGEN--\":8:108   */\n    tag_391:\n        /* \"--CODEGEN--\":33:36   */\n      dup4\n        /* \"--CODEGEN--\":30:31   */\n      dup2\n        /* \"--CODEGEN--\":27:37   */\n      lt\n        /* \"--CODEGEN--\":8:108   */\n      iszero\n      tag_393\n      jumpi\n        /* \"--CODEGEN--\":90:101   */\n      dup2\n      dup2\n      add\n        /* \"--CODEGEN--\":84:102   */\n      mload\n        /* \"--CODEGEN--\":71:82   */\n      dup4\n      dup3\n      add\n        /* \"--CODEGEN--\":64:103   */\n      mstore\n        /* \"--CODEGEN--\":52:54   */\n      0x20\n        /* \"--CODEGEN--\":45:55   */\n      add\n        /* \"--CODEGEN--\":8:108   */\n      jump(tag_391)\n    tag_393:\n        /* \"--CODEGEN--\":12:26   */\n      pop\n        /* \"Users/leilei/Downloads/MasterChefV2/contracts/PancakeBunnies.sol\":5138:5167  require(b <= a, errorMessage) */\n      pop\n      pop\n      pop\n      swap1\n      pop\n      swap1\n      dup2\n      add\n      swap1\n      0x1f\n      and\n      dup1\n      iszero\n      tag_394\n      jumpi\n      dup1\n      dup3\n      sub\n      dup1\n      mload\n      0x01\n      dup4\n      0x20\n      sub\n      0x0100\n      exp\n      sub\n      not\n      and\n      dup2\n      mstore\n      0x20\n      add\n      swap2\n      pop\n    tag_394:\n      pop\n      swap3\n      pop\n      pop\n      pop\n      mload(0x40)\n      dup1\n      swap2\n      sub\n      swap1\n      revert\n    tag_390:\n      pop\n      pop\n      pop\n        /* \"Users/leilei/Downloads/MasterChefV2/contracts/PancakeBunnies.sol\":5189:5194  a - b */\n      swap1\n      sub\n      swap1\n        /* \"Users/leilei/Downloads/MasterChefV2/contracts/PancakeBunnies.sol\":5033:5220  function sub(uint256 a, uint256 b, string memory errorMessage) internal pure returns (uint256) {... */\n      jump\t// out\n        /* \"Users/leilei/Downloads/MasterChefV2/contracts/PancakeBunnies.sol\":42499:42639  function remove(UintToAddressMap storage map, uint256 key) internal returns (bool) {... */\n    tag_331:\n        /* \"Users/leilei/Downloads/MasterChefV2/contracts/PancakeBunnies.sol\":42576:42580  bool */\n      0x00\n        /* \"Users/leilei/Downloads/MasterChefV2/contracts/PancakeBunnies.sol\":42599:42632  _remove(map._inner, bytes32(key)) */\n      tag_188\n        /* \"Users/leilei/Downloads/MasterChefV2/contracts/PancakeBunnies.sol\":42607:42610  map */\n      dup4\n        /* \"Users/leilei/Downloads/MasterChefV2/contracts/PancakeBunnies.sol\":42627:42630  key */\n      dup4\n        /* \"Users/leilei/Downloads/MasterChefV2/contracts/PancakeBunnies.sol\":42599:42606  _remove */\n      tag_397\n        /* \"Users/leilei/Downloads/MasterChefV2/contracts/PancakeBunnies.sol\":42599:42632  _remove(map._inner, bytes32(key)) */\n      jump\t// in\n        /* \"Users/leilei/Downloads/MasterChefV2/contracts/PancakeBunnies.sol\":40861:41135  function _at(Map storage map, uint256 index) private view returns (bytes32, bytes32) {... */\n    tag_334:\n        /* \"Users/leilei/Downloads/MasterChefV2/contracts/PancakeBunnies.sol\":40964:40983  map._entries.length */\n      dup2\n      sload\n        /* \"Users/leilei/Downloads/MasterChefV2/contracts/PancakeBunnies.sol\":40928:40935  bytes32 */\n      0x00\n      swap1\n      dup2\n      swap1\n        /* \"Users/leilei/Downloads/MasterChefV2/contracts/PancakeBunnies.sol\":40964:40991  map._entries.length > index */\n      dup4\n      lt\n        /* \"Users/leilei/Downloads/MasterChefV2/contracts/PancakeBunnies.sol\":40956:41030  require(map._entries.length > index, \"EnumerableMap: index out of bounds\") */\n      tag_399\n      jumpi\n      mload(0x40)\n      shl(0xe5, 0x461bcd)\n      dup2\n      mstore\n      0x04\n      add\n      dup1\n      dup1\n      0x20\n      add\n      dup3\n      dup2\n      sub\n      dup3\n      mstore\n      0x22\n      dup2\n      mstore\n      0x20\n      add\n      dup1\n      data_86631030b9066a18616a068fc09fce83d18af4765cb1d2166fa475228f4db155\n      0x22\n      swap2\n      codecopy\n      0x40\n      add\n      swap2\n      pop\n      pop\n      mload(0x40)\n      dup1\n      swap2\n      sub\n      swap1\n      revert\n    tag_399:\n        /* \"Users/leilei/Downloads/MasterChefV2/contracts/PancakeBunnies.sol\":41041:41063  MapEntry storage entry */\n      0x00\n        /* \"Users/leilei/Downloads/MasterChefV2/contracts/PancakeBunnies.sol\":41066:41069  map */\n      dup5\n        /* \"Users/leilei/Downloads/MasterChefV2/contracts/PancakeBunnies.sol\":41066:41078  map._entries */\n      0x00\n      add\n        /* \"Users/leilei/Downloads/MasterChefV2/contracts/PancakeBunnies.sol\":41079:41084  index */\n      dup5\n        /* \"Users/leilei/Downloads/MasterChefV2/contracts/PancakeBunnies.sol\":41066:41085  map._entries[index] */\n      dup2\n      sload\n      dup2\n      lt\n      tag_400\n      jumpi\n      invalid\n    tag_400:\n      swap1\n      0x00\n      mstore\n      keccak256(0x00, 0x20)\n      swap1\n      0x02\n      mul\n      add\n        /* \"Users/leilei/Downloads/MasterChefV2/contracts/PancakeBunnies.sol\":41041:41085  MapEntry storage entry = map._entries[index] */\n      swap1\n      pop\n        /* \"Users/leilei/Downloads/MasterChefV2/contracts/PancakeBunnies.sol\":41103:41108  entry */\n      dup1\n        /* \"Users/leilei/Downloads/MasterChefV2/contracts/PancakeBunnies.sol\":41103:41113  entry._key */\n      0x00\n      add\n      sload\n        /* \"Users/leilei/Downloads/MasterChefV2/contracts/PancakeBunnies.sol\":41115:41120  entry */\n      dup2\n        /* \"Users/leilei/Downloads/MasterChefV2/contracts/PancakeBunnies.sol\":41115:41127  entry._value */\n      0x01\n      add\n      sload\n        /* \"Users/leilei/Downloads/MasterChefV2/contracts/PancakeBunnies.sol\":41095:41128  return (entry._key, entry._value) */\n      swap3\n      pop\n      swap3\n      pop\n      pop\n        /* \"Users/leilei/Downloads/MasterChefV2/contracts/PancakeBunnies.sol\":40861:41135  function _at(Map storage map, uint256 index) private view returns (bytes32, bytes32) {... */\n      swap3\n      pop\n      swap3\n      swap1\n      pop\n      jump\t// out\n        /* \"Users/leilei/Downloads/MasterChefV2/contracts/PancakeBunnies.sol\":41542:41857  function _get(Map storage map, bytes32 key, string memory errorMessage) private view returns (bytes32) {... */\n    tag_337:\n        /* \"Users/leilei/Downloads/MasterChefV2/contracts/PancakeBunnies.sol\":41636:41643  bytes32 */\n      0x00\n        /* \"Users/leilei/Downloads/MasterChefV2/contracts/PancakeBunnies.sol\":41674:41691  map._indexes[key] */\n      dup3\n      dup2\n      mstore\n        /* \"Users/leilei/Downloads/MasterChefV2/contracts/PancakeBunnies.sol\":41674:41686  map._indexes */\n      0x01\n      dup5\n      add\n        /* \"Users/leilei/Downloads/MasterChefV2/contracts/PancakeBunnies.sol\":41674:41691  map._indexes[key] */\n      0x20\n      mstore\n      0x40\n      dup2\n      keccak256\n      sload\n        /* \"Users/leilei/Downloads/MasterChefV2/contracts/PancakeBunnies.sol\":41724:41736  errorMessage */\n      dup3\n        /* \"Users/leilei/Downloads/MasterChefV2/contracts/PancakeBunnies.sol\":41709:41722  keyIndex != 0 */\n      dup2\n        /* \"Users/leilei/Downloads/MasterChefV2/contracts/PancakeBunnies.sol\":41701:41737  require(keyIndex != 0, errorMessage) */\n      tag_403\n      jumpi\n      mload(0x40)\n      shl(0xe5, 0x461bcd)\n      dup2\n      mstore\n      0x20\n      0x04\n      dup3\n      add\n      dup2\n      dup2\n      mstore\n      dup4\n      mload\n      0x24\n      dup5\n      add\n      mstore\n      dup4\n      mload\n      swap1\n      swap3\n      dup4\n      swap3\n      0x44\n      swap1\n      swap2\n      add\n      swap2\n      swap1\n      dup6\n      add\n      swap1\n      dup1\n      dup4\n      dup4\n      0x00\n        /* \"--CODEGEN--\":27:37   */\n      dup4\n      iszero\n        /* \"--CODEGEN--\":8:108   */\n      tag_393\n      jumpi\n        /* \"--CODEGEN--\":90:101   */\n      dup2\n      dup2\n      add\n        /* \"--CODEGEN--\":84:102   */\n      mload\n        /* \"--CODEGEN--\":71:82   */\n      dup4\n      dup3\n      add\n        /* \"--CODEGEN--\":64:103   */\n      mstore\n        /* \"--CODEGEN--\":52:54   */\n      0x20\n        /* \"--CODEGEN--\":45:55   */\n      add\n        /* \"--CODEGEN--\":8:108   */\n      jump(tag_391)\n        /* \"Users/leilei/Downloads/MasterChefV2/contracts/PancakeBunnies.sol\":41701:41737  require(keyIndex != 0, errorMessage) */\n    tag_403:\n      pop\n        /* \"Users/leilei/Downloads/MasterChefV2/contracts/PancakeBunnies.sol\":41790:41793  map */\n      dup5\n        /* \"Users/leilei/Downloads/MasterChefV2/contracts/PancakeBunnies.sol\":41790:41802  map._entries */\n      0x00\n      add\n        /* \"Users/leilei/Downloads/MasterChefV2/contracts/PancakeBunnies.sol\":41814:41815  1 */\n      0x01\n        /* \"Users/leilei/Downloads/MasterChefV2/contracts/PancakeBunnies.sol\":41803:41811  keyIndex */\n      dup3\n        /* \"Users/leilei/Downloads/MasterChefV2/contracts/PancakeBunnies.sol\":41803:41815  keyIndex - 1 */\n      sub\n        /* \"Users/leilei/Downloads/MasterChefV2/contracts/PancakeBunnies.sol\":41790:41816  map._entries[keyIndex - 1] */\n      dup2\n      sload\n      dup2\n      lt\n      tag_408\n      jumpi\n      invalid\n    tag_408:\n      swap1\n      0x00\n      mstore\n      keccak256(0x00, 0x20)\n      swap1\n      0x02\n      mul\n      add\n        /* \"Users/leilei/Downloads/MasterChefV2/contracts/PancakeBunnies.sol\":41790:41823  map._entries[keyIndex - 1]._value */\n      0x01\n      add\n      sload\n        /* \"Users/leilei/Downloads/MasterChefV2/contracts/PancakeBunnies.sol\":41783:41823  return map._entries[keyIndex - 1]._value */\n      swap2\n      pop\n      pop\n        /* \"Users/leilei/Downloads/MasterChefV2/contracts/PancakeBunnies.sol\":41542:41857  function _get(Map storage map, bytes32 key, string memory errorMessage) private view returns (bytes32) {... */\n      swap4\n      swap3\n      pop\n      pop\n      pop\n      jump\t// out\n        /* \"Users/leilei/Downloads/MasterChefV2/contracts/PancakeBunnies.sol\":60175:60764  function _checkOnERC721Received(address from, address to, uint256 tokenId, bytes memory _data)... */\n    tag_358:\n        /* \"Users/leilei/Downloads/MasterChefV2/contracts/PancakeBunnies.sol\":60295:60299  bool */\n      0x00\n        /* \"Users/leilei/Downloads/MasterChefV2/contracts/PancakeBunnies.sol\":60320:60335  to.isContract() */\n      tag_412\n        /* \"Users/leilei/Downloads/MasterChefV2/contracts/PancakeBunnies.sol\":60320:60322  to */\n      dup5\n      sub(shl(0xa0, 0x01), 0x01)\n        /* \"Users/leilei/Downloads/MasterChefV2/contracts/PancakeBunnies.sol\":60320:60333  to.isContract */\n      and\n      tag_413\n        /* \"Users/leilei/Downloads/MasterChefV2/contracts/PancakeBunnies.sol\":60320:60335  to.isContract() */\n      jump\t// in\n    tag_412:\n        /* \"Users/leilei/Downloads/MasterChefV2/contracts/PancakeBunnies.sol\":60315:60373  if (!to.isContract()) {... */\n      tag_414\n      jumpi\n      pop\n        /* \"Users/leilei/Downloads/MasterChefV2/contracts/PancakeBunnies.sol\":60358:60362  true */\n      0x01\n        /* \"Users/leilei/Downloads/MasterChefV2/contracts/PancakeBunnies.sol\":60351:60362  return true */\n      jump(tag_217)\n        /* \"Users/leilei/Downloads/MasterChefV2/contracts/PancakeBunnies.sol\":60315:60373  if (!to.isContract()) {... */\n    tag_414:\n        /* \"Users/leilei/Downloads/MasterChefV2/contracts/PancakeBunnies.sol\":60382:60405  bytes memory returndata */\n      0x60\n        /* \"Users/leilei/Downloads/MasterChefV2/contracts/PancakeBunnies.sol\":60408:60654  to.functionCall(abi.encodeWithSelector(... */\n      tag_415\n      shl(0xe1, 0x0a85bd01)\n        /* \"Users/leilei/Downloads/MasterChefV2/contracts/PancakeBunnies.sol\":60519:60531  _msgSender() */\n      tag_416\n        /* \"Users/leilei/Downloads/MasterChefV2/contracts/PancakeBunnies.sol\":60519:60529  _msgSender */\n      tag_162\n        /* \"Users/leilei/Downloads/MasterChefV2/contracts/PancakeBunnies.sol\":60519:60531  _msgSender() */\n      jump\t// in\n    tag_416:\n        /* \"Users/leilei/Downloads/MasterChefV2/contracts/PancakeBunnies.sol\":60545:60549  from */\n      dup9\n        /* \"Users/leilei/Downloads/MasterChefV2/contracts/PancakeBunnies.sol\":60563:60570  tokenId */\n      dup8\n        /* \"Users/leilei/Downloads/MasterChefV2/contracts/PancakeBunnies.sol\":60584:60589  _data */\n      dup8\n        /* \"Users/leilei/Downloads/MasterChefV2/contracts/PancakeBunnies.sol\":60424:60599  abi.encodeWithSelector(... */\n      add(0x24, mload(0x40))\n      dup1\n      dup6\n      sub(shl(0xa0, 0x01), 0x01)\n      and\n      sub(shl(0xa0, 0x01), 0x01)\n      and\n      dup2\n      mstore\n      0x20\n      add\n      dup5\n      sub(shl(0xa0, 0x01), 0x01)\n      and\n      sub(shl(0xa0, 0x01), 0x01)\n      and\n      dup2\n      mstore\n      0x20\n      add\n      dup4\n      dup2\n      mstore\n      0x20\n      add\n      dup1\n      0x20\n      add\n      dup3\n      dup2\n      sub\n      dup3\n      mstore\n      dup4\n      dup2\n      dup2\n      mload\n      dup2\n      mstore\n      0x20\n      add\n      swap2\n      pop\n      dup1\n      mload\n      swap1\n      0x20\n      add\n      swap1\n      dup1\n      dup4\n      dup4\n        /* \"--CODEGEN--\":23:24   */\n      0x00\n        /* \"--CODEGEN--\":8:108   */\n    tag_417:\n        /* \"--CODEGEN--\":33:36   */\n      dup4\n        /* \"--CODEGEN--\":30:31   */\n      dup2\n        /* \"--CODEGEN--\":27:37   */\n      lt\n        /* \"--CODEGEN--\":8:108   */\n      iszero\n      tag_419\n      jumpi\n        /* \"--CODEGEN--\":90:101   */\n      dup2\n      dup2\n      add\n        /* \"--CODEGEN--\":84:102   */\n      mload\n        /* \"--CODEGEN--\":71:82   */\n      dup4\n      dup3\n      add\n        /* \"--CODEGEN--\":64:103   */\n      mstore\n        /* \"--CODEGEN--\":52:54   */\n      0x20\n        /* \"--CODEGEN--\":45:55   */\n      add\n        /* \"--CODEGEN--\":8:108   */\n      jump(tag_417)\n    tag_419:\n        /* \"--CODEGEN--\":12:26   */\n      pop\n        /* \"Users/leilei/Downloads/MasterChefV2/contracts/PancakeBunnies.sol\":60424:60599  abi.encodeWithSelector(... */\n      pop\n      pop\n      pop\n      swap1\n      pop\n      swap1\n      dup2\n      add\n      swap1\n      0x1f\n      and\n      dup1\n      iszero\n      tag_420\n      jumpi\n      dup1\n      dup3\n      sub\n      dup1\n      mload\n      0x01\n      dup4\n      0x20\n      sub\n      0x0100\n      exp\n      sub\n      not\n      and\n      dup2\n      mstore\n      0x20\n      add\n      swap2\n      pop\n    tag_420:\n      pop\n      swap6\n      pop\n      pop\n      pop\n      pop\n      pop\n      pop\n      mload(0x40)\n        /* \"--CODEGEN--\":49:53   */\n      0x20\n        /* \"--CODEGEN--\":39:46   */\n      dup2\n        /* \"--CODEGEN--\":30:37   */\n      dup4\n        /* \"--CODEGEN--\":26:47   */\n      sub\n        /* \"--CODEGEN--\":22:54   */\n      sub\n        /* \"--CODEGEN--\":13:20   */\n      dup2\n        /* \"--CODEGEN--\":6:55   */\n      mstore\n        /* \"Users/leilei/Downloads/MasterChefV2/contracts/PancakeBunnies.sol\":60424:60599  abi.encodeWithSelector(... */\n      swap1\n      0x40\n      mstore\n      swap1\n      not(sub(shl(0xe0, 0x01), 0x01))\n      and\n        /* \"--CODEGEN--\":38:42   */\n      0x20\n        /* \"--CODEGEN--\":29:36   */\n      dup3\n        /* \"--CODEGEN--\":25:43   */\n      add\n        /* \"--CODEGEN--\":67:77   */\n      dup1\n        /* \"--CODEGEN--\":61:78   */\n      mload\n      sub(shl(0xe0, 0x01), 0x01)\n        /* \"--CODEGEN--\":199:207   */\n      dup4\n        /* \"--CODEGEN--\":192:196   */\n      dup2\n        /* \"--CODEGEN--\":186:190   */\n      dup4\n        /* \"--CODEGEN--\":182:197   */\n      and\n        /* \"--CODEGEN--\":179:208   */\n      or\n        /* \"--CODEGEN--\":167:177   */\n      dup4\n        /* \"--CODEGEN--\":160:209   */\n      mstore\n        /* \"--CODEGEN--\":0:215   */\n      pop\n      pop\n      pop\n        /* \"Users/leilei/Downloads/MasterChefV2/contracts/PancakeBunnies.sol\":60424:60599  abi.encodeWithSelector(... */\n      pop\n        /* \"Users/leilei/Downloads/MasterChefV2/contracts/PancakeBunnies.sol\":60408:60654  to.functionCall(abi.encodeWithSelector(... */\n      mload(0x40)\n      dup1\n      0x60\n      add\n      0x40\n      mstore\n      dup1\n      0x32\n      dup2\n      mstore\n      0x20\n      add\n      data_1e766a06da43a53d0f4c380e06e5a342e14d5af1bf8501996c844905530ca84e\n      0x32\n      swap2\n      codecopy\n      sub(shl(0xa0, 0x01), 0x01)\n        /* \"Users/leilei/Downloads/MasterChefV2/contracts/PancakeBunnies.sol\":60408:60423  to.functionCall */\n      dup9\n      and\n      swap2\n        /* \"Users/leilei/Downloads/MasterChefV2/contracts/PancakeBunnies.sol\":60408:60654  to.functionCall(abi.encodeWithSelector(... */\n      swap1\n      0xffffffff\n        /* \"Users/leilei/Downloads/MasterChefV2/contracts/PancakeBunnies.sol\":60408:60423  to.functionCall */\n      tag_421\n        /* \"Users/leilei/Downloads/MasterChefV2/contracts/PancakeBunnies.sol\":60408:60654  to.functionCall(abi.encodeWithSelector(... */\n      and\n      jump\t// in\n    tag_415:\n        /* \"Users/leilei/Downloads/MasterChefV2/contracts/PancakeBunnies.sol\":60382:60654  bytes memory returndata = to.functionCall(abi.encodeWithSelector(... */\n      swap1\n      pop\n        /* \"Users/leilei/Downloads/MasterChefV2/contracts/PancakeBunnies.sol\":60664:60677  bytes4 retval */\n      0x00\n        /* \"Users/leilei/Downloads/MasterChefV2/contracts/PancakeBunnies.sol\":60691:60701  returndata */\n      dup2\n        /* \"Users/leilei/Downloads/MasterChefV2/contracts/PancakeBunnies.sol\":60680:60712  abi.decode(returndata, (bytes4)) */\n      dup1\n      0x20\n      add\n      swap1\n      mload\n        /* \"--CODEGEN--\":15:17   */\n      0x20\n        /* \"--CODEGEN--\":10:13   */\n      dup2\n        /* \"--CODEGEN--\":7:18   */\n      lt\n        /* \"--CODEGEN--\":4:6   */\n      iszero\n      tag_422\n      jumpi\n        /* \"--CODEGEN--\":31:32   */\n      0x00\n        /* \"--CODEGEN--\":28:29   */\n      dup1\n        /* \"--CODEGEN--\":21:33   */\n      revert\n        /* \"--CODEGEN--\":4:6   */\n    tag_422:\n      pop\n        /* \"Users/leilei/Downloads/MasterChefV2/contracts/PancakeBunnies.sol\":60680:60712  abi.decode(returndata, (bytes4)) */\n      mload\n      not(sub(shl(0xe0, 0x01), 0x01))\n        /* \"Users/leilei/Downloads/MasterChefV2/contracts/PancakeBunnies.sol\":60730:60756  retval == _ERC721_RECEIVED */\n      and\n      shl(0xe1, 0x0a85bd01)\n      eq\n      swap3\n      pop\n      pop\n      pop\n        /* \"Users/leilei/Downloads/MasterChefV2/contracts/PancakeBunnies.sol\":60175:60764  function _checkOnERC721Received(address from, address to, uint256 tokenId, bytes memory _data)... */\n      swap5\n      swap4\n      pop\n      pop\n      pop\n      pop\n      jump\t// out\n        /* \"Users/leilei/Downloads/MasterChefV2/contracts/PancakeBunnies.sol\":40197:40320  function _contains(Map storage map, bytes32 key) private view returns (bool) {... */\n    tag_373:\n        /* \"Users/leilei/Downloads/MasterChefV2/contracts/PancakeBunnies.sol\":40268:40272  bool */\n      0x00\n        /* \"Users/leilei/Downloads/MasterChefV2/contracts/PancakeBunnies.sol\":40291:40308  map._indexes[key] */\n      swap1\n      dup2\n      mstore\n        /* \"Users/leilei/Downloads/MasterChefV2/contracts/PancakeBunnies.sol\":40291:40303  map._indexes */\n      0x01\n      swap2\n      swap1\n      swap2\n      add\n        /* \"Users/leilei/Downloads/MasterChefV2/contracts/PancakeBunnies.sol\":40291:40308  map._indexes[key] */\n      0x20\n      mstore\n      0x40\n      swap1\n      keccak256\n      sload\n        /* \"Users/leilei/Downloads/MasterChefV2/contracts/PancakeBunnies.sol\":40291:40313  map._indexes[key] != 0 */\n      iszero\n      iszero\n      swap1\n        /* \"Users/leilei/Downloads/MasterChefV2/contracts/PancakeBunnies.sol\":40197:40320  function _contains(Map storage map, bytes32 key) private view returns (bool) {... */\n      jump\t// out\n        /* \"Users/leilei/Downloads/MasterChefV2/contracts/PancakeBunnies.sol\":28753:30265  function _remove(Set storage set, bytes32 value) private returns (bool) {... */\n    tag_378:\n        /* \"Users/leilei/Downloads/MasterChefV2/contracts/PancakeBunnies.sol\":28819:28823  bool */\n      0x00\n        /* \"Users/leilei/Downloads/MasterChefV2/contracts/PancakeBunnies.sol\":28956:28975  set._indexes[value] */\n      dup2\n      dup2\n      mstore\n        /* \"Users/leilei/Downloads/MasterChefV2/contracts/PancakeBunnies.sol\":28956:28968  set._indexes */\n      0x01\n      dup4\n      add\n        /* \"Users/leilei/Downloads/MasterChefV2/contracts/PancakeBunnies.sol\":28956:28975  set._indexes[value] */\n      0x20\n      mstore\n      0x40\n      dup2\n      keccak256\n      sload\n        /* \"Users/leilei/Downloads/MasterChefV2/contracts/PancakeBunnies.sol\":28990:29005  valueIndex != 0 */\n      dup1\n      iszero\n        /* \"Users/leilei/Downloads/MasterChefV2/contracts/PancakeBunnies.sol\":28986:30259  if (valueIndex != 0) { // Equivalent to contains(set, value)... */\n      tag_425\n      jumpi\n        /* \"Users/leilei/Downloads/MasterChefV2/contracts/PancakeBunnies.sol\":29419:29437  set._values.length */\n      dup4\n      sload\n      not(0x00)\n        /* \"Users/leilei/Downloads/MasterChefV2/contracts/PancakeBunnies.sol\":29371:29385  valueIndex - 1 */\n      dup1\n      dup4\n      add\n      swap2\n        /* \"Users/leilei/Downloads/MasterChefV2/contracts/PancakeBunnies.sol\":29419:29441  set._values.length - 1 */\n      swap1\n      dup2\n      add\n      swap1\n        /* \"Users/leilei/Downloads/MasterChefV2/contracts/PancakeBunnies.sol\":29347:29368  uint256 toDeleteIndex */\n      0x00\n      swap1\n        /* \"Users/leilei/Downloads/MasterChefV2/contracts/PancakeBunnies.sol\":29419:29422  set */\n      dup8\n      swap1\n        /* \"Users/leilei/Downloads/MasterChefV2/contracts/PancakeBunnies.sol\":29419:29441  set._values.length - 1 */\n      dup4\n      swap1\n        /* \"Users/leilei/Downloads/MasterChefV2/contracts/PancakeBunnies.sol\":29701:29723  set._values[lastIndex] */\n      dup2\n      lt\n      tag_426\n      jumpi\n      invalid\n    tag_426:\n      swap1\n      0x00\n      mstore\n      keccak256(0x00, 0x20)\n      add\n      sload\n        /* \"Users/leilei/Downloads/MasterChefV2/contracts/PancakeBunnies.sol\":29681:29723  bytes32 lastvalue = set._values[lastIndex] */\n      swap1\n      pop\n        /* \"Users/leilei/Downloads/MasterChefV2/contracts/PancakeBunnies.sol\":29844:29853  lastvalue */\n      dup1\n        /* \"Users/leilei/Downloads/MasterChefV2/contracts/PancakeBunnies.sol\":29815:29818  set */\n      dup8\n        /* \"Users/leilei/Downloads/MasterChefV2/contracts/PancakeBunnies.sol\":29815:29826  set._values */\n      0x00\n      add\n        /* \"Users/leilei/Downloads/MasterChefV2/contracts/PancakeBunnies.sol\":29827:29840  toDeleteIndex */\n      dup5\n        /* \"Users/leilei/Downloads/MasterChefV2/contracts/PancakeBunnies.sol\":29815:29841  set._values[toDeleteIndex] */\n      dup2\n      sload\n      dup2\n      lt\n      tag_428\n      jumpi\n      invalid\n    tag_428:\n      0x00\n      swap2\n      dup3\n      mstore\n      0x20\n      dup1\n      dup4\n      keccak256\n      swap1\n      swap2\n      add\n        /* \"Users/leilei/Downloads/MasterChefV2/contracts/PancakeBunnies.sol\":29815:29853  set._values[toDeleteIndex] = lastvalue */\n      swap3\n      swap1\n      swap3\n      sstore\n        /* \"Users/leilei/Downloads/MasterChefV2/contracts/PancakeBunnies.sol\":29919:29942  set._indexes[lastvalue] */\n      dup3\n      dup2\n      mstore\n        /* \"Users/leilei/Downloads/MasterChefV2/contracts/PancakeBunnies.sol\":29961:29962  1 */\n      0x01\n        /* \"Users/leilei/Downloads/MasterChefV2/contracts/PancakeBunnies.sol\":29919:29931  set._indexes */\n      dup10\n      dup2\n      add\n        /* \"Users/leilei/Downloads/MasterChefV2/contracts/PancakeBunnies.sol\":29919:29942  set._indexes[lastvalue] */\n      swap1\n      swap3\n      mstore\n      0x40\n      swap1\n      keccak256\n        /* \"Users/leilei/Downloads/MasterChefV2/contracts/PancakeBunnies.sol\":29945:29962  toDeleteIndex + 1 */\n      swap1\n      dup5\n      add\n        /* \"Users/leilei/Downloads/MasterChefV2/contracts/PancakeBunnies.sol\":29919:29962  set._indexes[lastvalue] = toDeleteIndex + 1 */\n      swap1\n      sstore\n        /* \"Users/leilei/Downloads/MasterChefV2/contracts/PancakeBunnies.sol\":30068:30085  set._values.pop() */\n      dup7\n      sload\n        /* \"Users/leilei/Downloads/MasterChefV2/contracts/PancakeBunnies.sol\":29919:29922  set */\n      dup8\n      swap1\n        /* \"Users/leilei/Downloads/MasterChefV2/contracts/PancakeBunnies.sol\":30068:30085  set._values.pop() */\n      dup1\n      tag_430\n      jumpi\n      invalid\n    tag_430:\n      0x01\n      swap1\n      sub\n      dup2\n      dup2\n      swap1\n      0x00\n      mstore\n      keccak256(0x00, 0x20)\n      add\n      0x00\n      swap1\n      sstore\n      swap1\n      sstore\n        /* \"Users/leilei/Downloads/MasterChefV2/contracts/PancakeBunnies.sol\":30160:30163  set */\n      dup7\n        /* \"Users/leilei/Downloads/MasterChefV2/contracts/PancakeBunnies.sol\":30160:30172  set._indexes */\n      0x01\n      add\n        /* \"Users/leilei/Downloads/MasterChefV2/contracts/PancakeBunnies.sol\":30160:30179  set._indexes[value] */\n      0x00\n        /* \"Users/leilei/Downloads/MasterChefV2/contracts/PancakeBunnies.sol\":30173:30178  value */\n      dup8\n        /* \"Users/leilei/Downloads/MasterChefV2/contracts/PancakeBunnies.sol\":30160:30179  set._indexes[value] */\n      dup2\n      mstore\n      0x20\n      add\n      swap1\n      dup2\n      mstore\n      0x20\n      add\n      0x00\n      keccak256\n        /* \"Users/leilei/Downloads/MasterChefV2/contracts/PancakeBunnies.sol\":30153:30179  delete set._indexes[value] */\n      0x00\n      swap1\n      sstore\n        /* \"Users/leilei/Downloads/MasterChefV2/contracts/PancakeBunnies.sol\":30201:30205  true */\n      0x01\n        /* \"Users/leilei/Downloads/MasterChefV2/contracts/PancakeBunnies.sol\":30194:30205  return true */\n      swap5\n      pop\n      pop\n      pop\n      pop\n      pop\n      jump(tag_187)\n        /* \"Users/leilei/Downloads/MasterChefV2/contracts/PancakeBunnies.sol\":28986:30259  if (valueIndex != 0) { // Equivalent to contains(set, value)... */\n    tag_425:\n        /* \"Users/leilei/Downloads/MasterChefV2/contracts/PancakeBunnies.sol\":30243:30248  false */\n      0x00\n        /* \"Users/leilei/Downloads/MasterChefV2/contracts/PancakeBunnies.sol\":30236:30248  return false */\n      swap2\n      pop\n      pop\n      jump(tag_187)\n        /* \"Users/leilei/Downloads/MasterChefV2/contracts/PancakeBunnies.sol\":28181:28585  function _add(Set storage set, bytes32 value) private returns (bool) {... */\n    tag_381:\n        /* \"Users/leilei/Downloads/MasterChefV2/contracts/PancakeBunnies.sol\":28244:28248  bool */\n      0x00\n        /* \"Users/leilei/Downloads/MasterChefV2/contracts/PancakeBunnies.sol\":28265:28286  _contains(set, value) */\n      tag_434\n        /* \"Users/leilei/Downloads/MasterChefV2/contracts/PancakeBunnies.sol\":28275:28278  set */\n      dup4\n        /* \"Users/leilei/Downloads/MasterChefV2/contracts/PancakeBunnies.sol\":28280:28285  value */\n      dup4\n        /* \"Users/leilei/Downloads/MasterChefV2/contracts/PancakeBunnies.sol\":28265:28274  _contains */\n      tag_373\n        /* \"Users/leilei/Downloads/MasterChefV2/contracts/PancakeBunnies.sol\":28265:28286  _contains(set, value) */\n      jump\t// in\n    tag_434:\n        /* \"Users/leilei/Downloads/MasterChefV2/contracts/PancakeBunnies.sol\":28260:28579  if (!_contains(set, value)) {... */\n      tag_436\n      jumpi\n      pop\n        /* \"--CODEGEN--\":27:37   */\n      dup2\n      sload\n        /* \"--CODEGEN--\":39:40   */\n      0x01\n        /* \"--CODEGEN--\":23:41   */\n      dup2\n      dup2\n      add\n        /* \"--CODEGEN--\":45:68   */\n      dup5\n      sstore\n        /* \"Users/leilei/Downloads/MasterChefV2/contracts/PancakeBunnies.sol\":28302:28313  set._values */\n      0x00\n        /* \"Users/leilei/Downloads/MasterChefV2/contracts/PancakeBunnies.sol\":28302:28325  set._values.push(value) */\n      dup5\n      dup2\n      mstore\n      0x20\n      dup1\n      dup3\n      keccak256\n      swap1\n      swap4\n      add\n      dup5\n      swap1\n      sstore\n        /* \"Users/leilei/Downloads/MasterChefV2/contracts/PancakeBunnies.sol\":28482:28500  set._values.length */\n      dup5\n      sload\n        /* \"Users/leilei/Downloads/MasterChefV2/contracts/PancakeBunnies.sol\":28460:28479  set._indexes[value] */\n      dup5\n      dup3\n      mstore\n        /* \"Users/leilei/Downloads/MasterChefV2/contracts/PancakeBunnies.sol\":28460:28472  set._indexes */\n      dup3\n      dup7\n      add\n        /* \"Users/leilei/Downloads/MasterChefV2/contracts/PancakeBunnies.sol\":28460:28479  set._indexes[value] */\n      swap1\n      swap4\n      mstore\n      0x40\n      swap1\n      keccak256\n        /* \"Users/leilei/Downloads/MasterChefV2/contracts/PancakeBunnies.sol\":28460:28500  set._indexes[value] = set._values.length */\n      swap2\n      swap1\n      swap2\n      sstore\n        /* \"Users/leilei/Downloads/MasterChefV2/contracts/PancakeBunnies.sol\":28514:28525  return true */\n      jump(tag_187)\n        /* \"Users/leilei/Downloads/MasterChefV2/contracts/PancakeBunnies.sol\":28260:28579  if (!_contains(set, value)) {... */\n    tag_436:\n      pop\n        /* \"Users/leilei/Downloads/MasterChefV2/contracts/PancakeBunnies.sol\":28563:28568  false */\n      0x00\n        /* \"Users/leilei/Downloads/MasterChefV2/contracts/PancakeBunnies.sol\":28556:28568  return false */\n      jump(tag_187)\n        /* \"Users/leilei/Downloads/MasterChefV2/contracts/PancakeBunnies.sol\":37755:38433  function _set(Map storage map, bytes32 key, bytes32 value) private returns (bool) {... */\n    tag_384:\n        /* \"Users/leilei/Downloads/MasterChefV2/contracts/PancakeBunnies.sol\":37831:37835  bool */\n      0x00\n        /* \"Users/leilei/Downloads/MasterChefV2/contracts/PancakeBunnies.sol\":37964:37981  map._indexes[key] */\n      dup3\n      dup2\n      mstore\n        /* \"Users/leilei/Downloads/MasterChefV2/contracts/PancakeBunnies.sol\":37964:37976  map._indexes */\n      0x01\n      dup5\n      add\n        /* \"Users/leilei/Downloads/MasterChefV2/contracts/PancakeBunnies.sol\":37964:37981  map._indexes[key] */\n      0x20\n      mstore\n      0x40\n      dup2\n      keccak256\n      sload\n        /* \"Users/leilei/Downloads/MasterChefV2/contracts/PancakeBunnies.sol\":37996:38009  keyIndex == 0 */\n      dup1\n        /* \"Users/leilei/Downloads/MasterChefV2/contracts/PancakeBunnies.sol\":37992:38427  if (keyIndex == 0) { // Equivalent to !contains(map, key)... */\n      tag_440\n      jumpi\n      pop\n      pop\n        /* \"Users/leilei/Downloads/MasterChefV2/contracts/PancakeBunnies.sol\":38080:38118  MapEntry({ _key: key, _value: value }) */\n      0x40\n      dup1\n      mload\n      dup1\n      dup3\n      add\n      dup3\n      mstore\n      dup4\n      dup2\n      mstore\n      0x20\n      dup1\n      dup3\n      add\n      dup5\n      dup2\n      mstore\n        /* \"--CODEGEN--\":27:37   */\n      dup7\n      sload\n        /* \"--CODEGEN--\":39:40   */\n      0x01\n        /* \"--CODEGEN--\":23:41   */\n      dup2\n      dup2\n      add\n        /* \"--CODEGEN--\":45:68   */\n      dup10\n      sstore\n        /* \"Users/leilei/Downloads/MasterChefV2/contracts/PancakeBunnies.sol\":38062:38074  map._entries */\n      0x00\n        /* \"Users/leilei/Downloads/MasterChefV2/contracts/PancakeBunnies.sol\":38062:38119  map._entries.push(MapEntry({ _key: key, _value: value })) */\n      dup10\n      dup2\n      mstore\n      dup5\n      dup2\n      keccak256\n      swap6\n      mload\n      0x02\n      swap1\n      swap4\n      mul\n      swap1\n      swap6\n      add\n      swap2\n      dup3\n      sstore\n      swap2\n      mload\n      swap1\n      dup3\n      add\n      sstore\n        /* \"Users/leilei/Downloads/MasterChefV2/contracts/PancakeBunnies.sol\":38274:38293  map._entries.length */\n      dup7\n      sload\n        /* \"Users/leilei/Downloads/MasterChefV2/contracts/PancakeBunnies.sol\":38254:38271  map._indexes[key] */\n      dup7\n      dup5\n      mstore\n        /* \"Users/leilei/Downloads/MasterChefV2/contracts/PancakeBunnies.sol\":38254:38266  map._indexes */\n      dup2\n      dup9\n      add\n        /* \"Users/leilei/Downloads/MasterChefV2/contracts/PancakeBunnies.sol\":38254:38271  map._indexes[key] */\n      swap1\n      swap3\n      mstore\n      swap3\n      swap1\n      swap2\n      keccak256\n        /* \"Users/leilei/Downloads/MasterChefV2/contracts/PancakeBunnies.sol\":38254:38293  map._indexes[key] = map._entries.length */\n      sstore\n        /* \"Users/leilei/Downloads/MasterChefV2/contracts/PancakeBunnies.sol\":38307:38318  return true */\n      jump(tag_335)\n        /* \"Users/leilei/Downloads/MasterChefV2/contracts/PancakeBunnies.sol\":37992:38427  if (keyIndex == 0) { // Equivalent to !contains(map, key)... */\n    tag_440:\n        /* \"Users/leilei/Downloads/MasterChefV2/contracts/PancakeBunnies.sol\":38385:38390  value */\n      dup3\n        /* \"Users/leilei/Downloads/MasterChefV2/contracts/PancakeBunnies.sol\":38349:38352  map */\n      dup6\n        /* \"Users/leilei/Downloads/MasterChefV2/contracts/PancakeBunnies.sol\":38349:38361  map._entries */\n      0x00\n      add\n        /* \"Users/leilei/Downloads/MasterChefV2/contracts/PancakeBunnies.sol\":38373:38374  1 */\n      0x01\n        /* \"Users/leilei/Downloads/MasterChefV2/contracts/PancakeBunnies.sol\":38362:38370  keyIndex */\n      dup4\n        /* \"Users/leilei/Downloads/MasterChefV2/contracts/PancakeBunnies.sol\":38362:38374  keyIndex - 1 */\n      sub\n        /* \"Users/leilei/Downloads/MasterChefV2/contracts/PancakeBunnies.sol\":38349:38375  map._entries[keyIndex - 1] */\n      dup2\n      sload\n      dup2\n      lt\n      tag_443\n      jumpi\n      invalid\n    tag_443:\n      swap1\n      0x00\n      mstore\n      keccak256(0x00, 0x20)\n      swap1\n      0x02\n      mul\n      add\n        /* \"Users/leilei/Downloads/MasterChefV2/contracts/PancakeBunnies.sol\":38349:38382  map._entries[keyIndex - 1]._value */\n      0x01\n      add\n        /* \"Users/leilei/Downloads/MasterChefV2/contracts/PancakeBunnies.sol\":38349:38390  map._entries[keyIndex - 1]._value = value */\n      dup2\n      swap1\n      sstore\n      pop\n        /* \"Users/leilei/Downloads/MasterChefV2/contracts/PancakeBunnies.sol\":38411:38416  false */\n      0x00\n        /* \"Users/leilei/Downloads/MasterChefV2/contracts/PancakeBunnies.sol\":38404:38416  return false */\n      swap2\n      pop\n      pop\n      jump(tag_335)\n        /* \"Users/leilei/Downloads/MasterChefV2/contracts/PancakeBunnies.sol\":38601:40118  function _remove(Map storage map, bytes32 key) private returns (bool) {... */\n    tag_397:\n        /* \"Users/leilei/Downloads/MasterChefV2/contracts/PancakeBunnies.sol\":38665:38669  bool */\n      0x00\n        /* \"Users/leilei/Downloads/MasterChefV2/contracts/PancakeBunnies.sol\":38798:38815  map._indexes[key] */\n      dup2\n      dup2\n      mstore\n        /* \"Users/leilei/Downloads/MasterChefV2/contracts/PancakeBunnies.sol\":38798:38810  map._indexes */\n      0x01\n      dup4\n      add\n        /* \"Users/leilei/Downloads/MasterChefV2/contracts/PancakeBunnies.sol\":38798:38815  map._indexes[key] */\n      0x20\n      mstore\n      0x40\n      dup2\n      keccak256\n      sload\n        /* \"Users/leilei/Downloads/MasterChefV2/contracts/PancakeBunnies.sol\":38830:38843  keyIndex != 0 */\n      dup1\n      iszero\n        /* \"Users/leilei/Downloads/MasterChefV2/contracts/PancakeBunnies.sol\":38826:40112  if (keyIndex != 0) { // Equivalent to contains(map, key)... */\n      tag_425\n      jumpi\n        /* \"Users/leilei/Downloads/MasterChefV2/contracts/PancakeBunnies.sol\":39256:39275  map._entries.length */\n      dup4\n      sload\n      not(0x00)\n        /* \"Users/leilei/Downloads/MasterChefV2/contracts/PancakeBunnies.sol\":39210:39222  keyIndex - 1 */\n      dup1\n      dup4\n      add\n      swap2\n        /* \"Users/leilei/Downloads/MasterChefV2/contracts/PancakeBunnies.sol\":39256:39279  map._entries.length - 1 */\n      swap1\n      dup2\n      add\n      swap1\n        /* \"Users/leilei/Downloads/MasterChefV2/contracts/PancakeBunnies.sol\":39186:39207  uint256 toDeleteIndex */\n      0x00\n      swap1\n        /* \"Users/leilei/Downloads/MasterChefV2/contracts/PancakeBunnies.sol\":39256:39259  map */\n      dup8\n      swap1\n        /* \"Users/leilei/Downloads/MasterChefV2/contracts/PancakeBunnies.sol\":39256:39279  map._entries.length - 1 */\n      dup4\n      swap1\n        /* \"Users/leilei/Downloads/MasterChefV2/contracts/PancakeBunnies.sol\":39548:39571  map._entries[lastIndex] */\n      dup2\n      lt\n      tag_447\n      jumpi\n      invalid\n    tag_447:\n      swap1\n      0x00\n      mstore\n      keccak256(0x00, 0x20)\n      swap1\n      0x02\n      mul\n      add\n        /* \"Users/leilei/Downloads/MasterChefV2/contracts/PancakeBunnies.sol\":39519:39571  MapEntry storage lastEntry = map._entries[lastIndex] */\n      swap1\n      pop\n        /* \"Users/leilei/Downloads/MasterChefV2/contracts/PancakeBunnies.sol\":39693:39702  lastEntry */\n      dup1\n        /* \"Users/leilei/Downloads/MasterChefV2/contracts/PancakeBunnies.sol\":39663:39666  map */\n      dup8\n        /* \"Users/leilei/Downloads/MasterChefV2/contracts/PancakeBunnies.sol\":39663:39675  map._entries */\n      0x00\n      add\n        /* \"Users/leilei/Downloads/MasterChefV2/contracts/PancakeBunnies.sol\":39676:39689  toDeleteIndex */\n      dup5\n        /* \"Users/leilei/Downloads/MasterChefV2/contracts/PancakeBunnies.sol\":39663:39690  map._entries[toDeleteIndex] */\n      dup2\n      sload\n      dup2\n      lt\n      tag_449\n      jumpi\n      invalid\n    tag_449:\n      0x00\n      swap2\n      dup3\n      mstore\n      0x20\n      dup1\n      dup4\n      keccak256\n        /* \"Users/leilei/Downloads/MasterChefV2/contracts/PancakeBunnies.sol\":39663:39702  map._entries[toDeleteIndex] = lastEntry */\n      dup5\n      sload\n        /* \"Users/leilei/Downloads/MasterChefV2/contracts/PancakeBunnies.sol\":39663:39690  map._entries[toDeleteIndex] */\n      0x02\n      swap1\n      swap4\n      mul\n      add\n        /* \"Users/leilei/Downloads/MasterChefV2/contracts/PancakeBunnies.sol\":39663:39702  map._entries[toDeleteIndex] = lastEntry */\n      swap2\n      dup3\n      sstore\n      0x01\n      swap4\n      dup5\n      add\n      sload\n      swap2\n      dup5\n      add\n      swap2\n      swap1\n      swap2\n      sstore\n        /* \"Users/leilei/Downloads/MasterChefV2/contracts/PancakeBunnies.sol\":39781:39795  lastEntry._key */\n      dup4\n      sload\n        /* \"Users/leilei/Downloads/MasterChefV2/contracts/PancakeBunnies.sol\":39768:39796  map._indexes[lastEntry._key] */\n      dup3\n      mstore\n        /* \"Users/leilei/Downloads/MasterChefV2/contracts/PancakeBunnies.sol\":39768:39780  map._indexes */\n      dup10\n      dup4\n      add\n        /* \"Users/leilei/Downloads/MasterChefV2/contracts/PancakeBunnies.sol\":39768:39796  map._indexes[lastEntry._key] */\n      swap1\n      mstore\n      0x40\n      swap1\n      keccak256\n        /* \"Users/leilei/Downloads/MasterChefV2/contracts/PancakeBunnies.sol\":39799:39816  toDeleteIndex + 1 */\n      swap1\n      dup5\n      add\n        /* \"Users/leilei/Downloads/MasterChefV2/contracts/PancakeBunnies.sol\":39768:39816  map._indexes[lastEntry._key] = toDeleteIndex + 1 */\n      swap1\n      sstore\n        /* \"Users/leilei/Downloads/MasterChefV2/contracts/PancakeBunnies.sol\":39922:39940  map._entries.pop() */\n      dup7\n      sload\n        /* \"Users/leilei/Downloads/MasterChefV2/contracts/PancakeBunnies.sol\":39768:39771  map */\n      dup8\n      swap1\n        /* \"Users/leilei/Downloads/MasterChefV2/contracts/PancakeBunnies.sol\":39922:39940  map._entries.pop() */\n      dup1\n      tag_451\n      jumpi\n      invalid\n    tag_451:\n      0x00\n      dup3\n      dup2\n      mstore\n      0x20\n      dup1\n      dup3\n      keccak256\n      0x02\n      not(0x00)\n      swap1\n      swap5\n      add\n      swap4\n      dup5\n      mul\n      add\n      dup3\n      dup2\n      sstore\n      0x01\n      swap1\n      dup2\n      add\n      dup4\n      swap1\n      sstore\n      swap3\n      swap1\n      swap4\n      sstore\n        /* \"Users/leilei/Downloads/MasterChefV2/contracts/PancakeBunnies.sol\":40015:40032  map._indexes[key] */\n      dup9\n      dup2\n      mstore\n        /* \"Users/leilei/Downloads/MasterChefV2/contracts/PancakeBunnies.sol\":40015:40027  map._indexes */\n      dup10\n      dup3\n      add\n        /* \"Users/leilei/Downloads/MasterChefV2/contracts/PancakeBunnies.sol\":40015:40032  map._indexes[key] */\n      swap1\n      swap3\n      mstore\n      0x40\n      dup3\n      keccak256\n        /* \"Users/leilei/Downloads/MasterChefV2/contracts/PancakeBunnies.sol\":40008:40032  delete map._indexes[key] */\n      swap2\n      swap1\n      swap2\n      sstore\n        /* \"Users/leilei/Downloads/MasterChefV2/contracts/PancakeBunnies.sol\":39922:39940  map._entries.pop() */\n      swap5\n      pop\n        /* \"Users/leilei/Downloads/MasterChefV2/contracts/PancakeBunnies.sol\":40047:40058  return true */\n      tag_187\n      swap4\n      pop\n      pop\n      pop\n      pop\n      jump\n        /* \"Users/leilei/Downloads/MasterChefV2/contracts/PancakeBunnies.sol\":20402:20815  function isContract(address account) internal view returns (bool) {... */\n    tag_413:\n        /* \"Users/leilei/Downloads/MasterChefV2/contracts/PancakeBunnies.sol\":20762:20782  extcodesize(account) */\n      extcodesize\n        /* \"Users/leilei/Downloads/MasterChefV2/contracts/PancakeBunnies.sol\":20800:20808  size > 0 */\n      iszero\n      iszero\n      swap1\n        /* \"Users/leilei/Downloads/MasterChefV2/contracts/PancakeBunnies.sol\":20402:20815  function isContract(address account) internal view returns (bool) {... */\n      jump\t// out\n        /* \"Users/leilei/Downloads/MasterChefV2/contracts/PancakeBunnies.sol\":23257:23450  function functionCall(address target, bytes memory data, string memory errorMessage) internal returns (bytes memory) {... */\n    tag_421:\n        /* \"Users/leilei/Downloads/MasterChefV2/contracts/PancakeBunnies.sol\":23360:23372  bytes memory */\n      0x60\n        /* \"Users/leilei/Downloads/MasterChefV2/contracts/PancakeBunnies.sol\":23391:23443  functionCallWithValue(target, data, 0, errorMessage) */\n      tag_336\n        /* \"Users/leilei/Downloads/MasterChefV2/contracts/PancakeBunnies.sol\":23413:23419  target */\n      dup5\n        /* \"Users/leilei/Downloads/MasterChefV2/contracts/PancakeBunnies.sol\":23421:23425  data */\n      dup5\n        /* \"Users/leilei/Downloads/MasterChefV2/contracts/PancakeBunnies.sol\":23427:23428  0 */\n      0x00\n        /* \"Users/leilei/Downloads/MasterChefV2/contracts/PancakeBunnies.sol\":23430:23442  errorMessage */\n      dup6\n        /* \"Users/leilei/Downloads/MasterChefV2/contracts/PancakeBunnies.sol\":23360:23372  bytes memory */\n      dup6\n        /* \"Users/leilei/Downloads/MasterChefV2/contracts/PancakeBunnies.sol\":24534:24552  isContract(target) */\n      tag_461\n        /* \"Users/leilei/Downloads/MasterChefV2/contracts/PancakeBunnies.sol\":24545:24551  target */\n      dup6\n        /* \"Users/leilei/Downloads/MasterChefV2/contracts/PancakeBunnies.sol\":24534:24544  isContract */\n      tag_413\n        /* \"Users/leilei/Downloads/MasterChefV2/contracts/PancakeBunnies.sol\":24534:24552  isContract(target) */\n      jump\t// in\n    tag_461:\n        /* \"Users/leilei/Downloads/MasterChefV2/contracts/PancakeBunnies.sol\":24526:24586  require(isContract(target), \"Address: call to non-contract\") */\n      tag_462\n      jumpi\n      0x40\n      dup1\n      mload\n      shl(0xe5, 0x461bcd)\n      dup2\n      mstore\n      0x20\n      0x04\n      dup3\n      add\n      mstore\n      0x1d\n      0x24\n      dup3\n      add\n      mstore\n      0x416464726573733a2063616c6c20746f206e6f6e2d636f6e7472616374000000\n      0x44\n      dup3\n      add\n      mstore\n      swap1\n      mload\n      swap1\n      dup2\n      swap1\n      sub\n      0x64\n      add\n      swap1\n      revert\n    tag_462:\n        /* \"Users/leilei/Downloads/MasterChefV2/contracts/PancakeBunnies.sol\":24657:24669  bool success */\n      0x00\n        /* \"Users/leilei/Downloads/MasterChefV2/contracts/PancakeBunnies.sol\":24671:24694  bytes memory returndata */\n      0x60\n        /* \"Users/leilei/Downloads/MasterChefV2/contracts/PancakeBunnies.sol\":24698:24704  target */\n      dup7\n      sub(shl(0xa0, 0x01), 0x01)\n        /* \"Users/leilei/Downloads/MasterChefV2/contracts/PancakeBunnies.sol\":24698:24709  target.call */\n      and\n        /* \"Users/leilei/Downloads/MasterChefV2/contracts/PancakeBunnies.sol\":24718:24723  value */\n      dup6\n        /* \"Users/leilei/Downloads/MasterChefV2/contracts/PancakeBunnies.sol\":24726:24730  data */\n      dup8\n        /* \"Users/leilei/Downloads/MasterChefV2/contracts/PancakeBunnies.sol\":24698:24731  target.call{ value: value }(data) */\n      mload(0x40)\n      dup1\n      dup3\n      dup1\n      mload\n      swap1\n      0x20\n      add\n      swap1\n      dup1\n      dup4\n      dup4\n        /* \"--CODEGEN--\":36:189   */\n    tag_463:\n        /* \"--CODEGEN--\":66:68   */\n      0x20\n        /* \"--CODEGEN--\":61:64   */\n      dup4\n        /* \"--CODEGEN--\":58:69   */\n      lt\n        /* \"--CODEGEN--\":36:189   */\n      tag_465\n      jumpi\n        /* \"--CODEGEN--\":176:186   */\n      dup1\n      mload\n        /* \"--CODEGEN--\":164:187   */\n      dup3\n      mstore\n      not(0x1f)\n        /* \"--CODEGEN--\":139:151   */\n      swap1\n      swap3\n      add\n      swap2\n        /* \"--CODEGEN--\":98:100   */\n      0x20\n        /* \"--CODEGEN--\":89:101   */\n      swap2\n      dup3\n      add\n      swap2\n        /* \"--CODEGEN--\":114:126   */\n      add\n        /* \"--CODEGEN--\":36:189   */\n      jump(tag_463)\n    tag_465:\n        /* \"--CODEGEN--\":274:275   */\n      0x01\n        /* \"--CODEGEN--\":267:270   */\n      dup4\n        /* \"--CODEGEN--\":263:265   */\n      0x20\n        /* \"--CODEGEN--\":259:271   */\n      sub\n        /* \"--CODEGEN--\":254:257   */\n      0x0100\n        /* \"--CODEGEN--\":250:272   */\n      exp\n        /* \"--CODEGEN--\":246:276   */\n      sub\n        /* \"--CODEGEN--\":315:319   */\n      dup1\n        /* \"--CODEGEN--\":311:320   */\n      not\n        /* \"--CODEGEN--\":305:308   */\n      dup3\n        /* \"--CODEGEN--\":299:309   */\n      mload\n        /* \"--CODEGEN--\":295:321   */\n      and\n        /* \"--CODEGEN--\":356:360   */\n      dup2\n        /* \"--CODEGEN--\":350:353   */\n      dup5\n        /* \"--CODEGEN--\":344:354   */\n      mload\n        /* \"--CODEGEN--\":340:361   */\n      and\n        /* \"--CODEGEN--\":389:396   */\n      dup1\n        /* \"--CODEGEN--\":380:387   */\n      dup3\n        /* \"--CODEGEN--\":377:397   */\n      or\n        /* \"--CODEGEN--\":372:375   */\n      dup6\n        /* \"--CODEGEN--\":365:398   */\n      mstore\n        /* \"--CODEGEN--\":3:402   */\n      pop\n      pop\n      pop\n        /* \"Users/leilei/Downloads/MasterChefV2/contracts/PancakeBunnies.sol\":24698:24731  target.call{ value: value }(data) */\n      pop\n      pop\n      pop\n      swap1\n      pop\n      add\n      swap2\n      pop\n      pop\n      0x00\n      mload(0x40)\n      dup1\n      dup4\n      sub\n      dup2\n      dup6\n      dup8\n      gas\n      call\n      swap3\n      pop\n      pop\n      pop\n      returndatasize\n        /* \"--CODEGEN--\":12:13   */\n      dup1\n        /* \"--CODEGEN--\":19:20   */\n      0x00\n        /* \"--CODEGEN--\":14:41   */\n      dup2\n      eq\n      tag_468\n      jumpi\n        /* \"--CODEGEN--\":67:71   */\n      0x40\n        /* \"--CODEGEN--\":61:72   */\n      mload\n        /* \"--CODEGEN--\":56:72   */\n      swap2\n      pop\n        /* \"--CODEGEN--\":134:138   */\n      0x1f\n        /* \"--CODEGEN--\":130:139   */\n      not\n        /* \"--CODEGEN--\":123:127   */\n      0x3f\n        /* \"--CODEGEN--\":105:121   */\n      returndatasize\n        /* \"--CODEGEN--\":101:128   */\n      add\n        /* \"--CODEGEN--\":97:140   */\n      and\n        /* \"--CODEGEN--\":94:95   */\n      dup3\n        /* \"--CODEGEN--\":90:141   */\n      add\n        /* \"--CODEGEN--\":84:88   */\n      0x40\n        /* \"--CODEGEN--\":77:142   */\n      mstore\n        /* \"--CODEGEN--\":157:173   */\n      returndatasize\n        /* \"--CODEGEN--\":154:155   */\n      dup3\n        /* \"--CODEGEN--\":147:174   */\n      mstore\n        /* \"--CODEGEN--\":211:227   */\n      returndatasize\n        /* \"--CODEGEN--\":208:209   */\n      0x00\n        /* \"--CODEGEN--\":201:205   */\n      0x20\n        /* \"--CODEGEN--\":198:199   */\n      dup5\n        /* \"--CODEGEN--\":194:206   */\n      add\n        /* \"--CODEGEN--\":179:228   */\n      returndatacopy\n        /* \"--CODEGEN--\":5:233   */\n      jump(tag_467)\n        /* \"--CODEGEN--\":14:41   */\n    tag_468:\n        /* \"--CODEGEN--\":32:36   */\n      0x60\n        /* \"--CODEGEN--\":27:36   */\n      swap2\n      pop\n        /* \"--CODEGEN--\":5:233   */\n    tag_467:\n      pop\n        /* \"Users/leilei/Downloads/MasterChefV2/contracts/PancakeBunnies.sol\":24656:24731  (bool success, bytes memory returndata) = target.call{ value: value }(data) */\n      swap2\n      pop\n      swap2\n      pop\n        /* \"Users/leilei/Downloads/MasterChefV2/contracts/PancakeBunnies.sol\":24748:24800  _verifyCallResult(success, returndata, errorMessage) */\n      tag_469\n        /* \"Users/leilei/Downloads/MasterChefV2/contracts/PancakeBunnies.sol\":24766:24773  success */\n      dup3\n        /* \"Users/leilei/Downloads/MasterChefV2/contracts/PancakeBunnies.sol\":24775:24785  returndata */\n      dup3\n        /* \"Users/leilei/Downloads/MasterChefV2/contracts/PancakeBunnies.sol\":24787:24799  errorMessage */\n      dup7\n        /* \"Users/leilei/Downloads/MasterChefV2/contracts/PancakeBunnies.sol\":24748:24765  _verifyCallResult */\n      tag_470\n        /* \"Users/leilei/Downloads/MasterChefV2/contracts/PancakeBunnies.sol\":24748:24800  _verifyCallResult(success, returndata, errorMessage) */\n      jump\t// in\n    tag_469:\n        /* \"Users/leilei/Downloads/MasterChefV2/contracts/PancakeBunnies.sol\":24741:24800  return _verifyCallResult(success, returndata, errorMessage) */\n      swap8\n        /* \"Users/leilei/Downloads/MasterChefV2/contracts/PancakeBunnies.sol\":24284:24807  function functionCallWithValue(address target, bytes memory data, uint256 value, string memory errorMessage) internal returns (bytes memory) {... */\n      swap7\n      pop\n      pop\n      pop\n      pop\n      pop\n      pop\n      pop\n      jump\t// out\n        /* \"Users/leilei/Downloads/MasterChefV2/contracts/PancakeBunnies.sol\":25787:26512  function _verifyCallResult(bool success, bytes memory returndata, string memory errorMessage) private pure returns(bytes memory) {... */\n    tag_470:\n        /* \"Users/leilei/Downloads/MasterChefV2/contracts/PancakeBunnies.sol\":25902:25914  bytes memory */\n      0x60\n        /* \"Users/leilei/Downloads/MasterChefV2/contracts/PancakeBunnies.sol\":25930:25937  success */\n      dup4\n        /* \"Users/leilei/Downloads/MasterChefV2/contracts/PancakeBunnies.sol\":25926:26506  if (success) {... */\n      iszero\n      tag_472\n      jumpi\n      pop\n        /* \"Users/leilei/Downloads/MasterChefV2/contracts/PancakeBunnies.sol\":25960:25970  returndata */\n      dup2\n        /* \"Users/leilei/Downloads/MasterChefV2/contracts/PancakeBunnies.sol\":25953:25970  return returndata */\n      jump(tag_335)\n        /* \"Users/leilei/Downloads/MasterChefV2/contracts/PancakeBunnies.sol\":25926:26506  if (success) {... */\n    tag_472:\n        /* \"Users/leilei/Downloads/MasterChefV2/contracts/PancakeBunnies.sol\":26071:26088  returndata.length */\n      dup3\n      mload\n        /* \"Users/leilei/Downloads/MasterChefV2/contracts/PancakeBunnies.sol\":26071:26092  returndata.length > 0 */\n      iszero\n        /* \"Users/leilei/Downloads/MasterChefV2/contracts/PancakeBunnies.sol\":26067:26496  if (returndata.length > 0) {... */\n      tag_474\n      jumpi\n        /* \"Users/leilei/Downloads/MasterChefV2/contracts/PancakeBunnies.sol\":26329:26339  returndata */\n      dup3\n        /* \"Users/leilei/Downloads/MasterChefV2/contracts/PancakeBunnies.sol\":26323:26340  mload(returndata) */\n      mload\n        /* \"Users/leilei/Downloads/MasterChefV2/contracts/PancakeBunnies.sol\":26389:26404  returndata_size */\n      dup1\n        /* \"Users/leilei/Downloads/MasterChefV2/contracts/PancakeBunnies.sol\":26376:26386  returndata */\n      dup5\n        /* \"Users/leilei/Downloads/MasterChefV2/contracts/PancakeBunnies.sol\":26372:26374  32 */\n      0x20\n        /* \"Users/leilei/Downloads/MasterChefV2/contracts/PancakeBunnies.sol\":26368:26387  add(32, returndata) */\n      add\n        /* \"Users/leilei/Downloads/MasterChefV2/contracts/PancakeBunnies.sol\":26361:26405  revert(add(32, returndata), returndata_size) */\n      revert\n        /* \"Users/leilei/Downloads/MasterChefV2/contracts/PancakeBunnies.sol\":26278:26423  {... */\n    tag_474:\n        /* \"Users/leilei/Downloads/MasterChefV2/contracts/PancakeBunnies.sol\":26461:26481  revert(errorMessage) */\n      mload(0x40)\n      shl(0xe5, 0x461bcd)\n      dup2\n      mstore\n      0x20\n      0x04\n      dup3\n      add\n      dup2\n      dup2\n      mstore\n      dup5\n      mload\n      0x24\n      dup5\n      add\n      mstore\n      dup5\n      mload\n        /* \"Users/leilei/Downloads/MasterChefV2/contracts/PancakeBunnies.sol\":26468:26480  errorMessage */\n      dup6\n      swap4\n        /* \"Users/leilei/Downloads/MasterChefV2/contracts/PancakeBunnies.sol\":26461:26481  revert(errorMessage) */\n      swap2\n      swap3\n      dup4\n      swap3\n      0x44\n      add\n      swap2\n      swap1\n      dup6\n      add\n      swap1\n      dup1\n      dup4\n      dup4\n      0x00\n        /* \"--CODEGEN--\":27:37   */\n      dup4\n      iszero\n        /* \"--CODEGEN--\":8:108   */\n      tag_393\n      jumpi\n        /* \"--CODEGEN--\":90:101   */\n      dup2\n      dup2\n      add\n        /* \"--CODEGEN--\":84:102   */\n      mload\n        /* \"--CODEGEN--\":71:82   */\n      dup4\n      dup3\n      add\n        /* \"--CODEGEN--\":64:103   */\n      mstore\n        /* \"--CODEGEN--\":52:54   */\n      0x20\n        /* \"--CODEGEN--\":45:55   */\n      add\n        /* \"--CODEGEN--\":8:108   */\n      jump(tag_391)\n        /* \"Users/leilei/Downloads/MasterChefV2/contracts/PancakeBunnies.sol\":61684:64145  contract PancakeBunnies is ERC721, Ownable {... */\n    tag_210:\n      dup3\n      dup1\n      sload\n      0x01\n      dup2\n      0x01\n      and\n      iszero\n      0x0100\n      mul\n      sub\n      and\n      0x02\n      swap1\n      div\n      swap1\n      0x00\n      mstore\n      keccak256(0x00, 0x20)\n      swap1\n      0x1f\n      add\n      0x20\n      swap1\n      div\n      dup2\n      add\n      swap3\n      dup3\n      0x1f\n      lt\n      tag_481\n      jumpi\n      dup3\n      dup1\n      add\n      not(0xff)\n      dup3\n      calldataload\n      and\n      or\n      dup6\n      sstore\n      jump(tag_483)\n    tag_481:\n      dup3\n      dup1\n      add\n      0x01\n      add\n      dup6\n      sstore\n      dup3\n      iszero\n      tag_483\n      jumpi\n      swap2\n      dup3\n      add\n    tag_482:\n      dup3\n      dup2\n      gt\n      iszero\n      tag_483\n      jumpi\n      dup3\n      calldataload\n      dup3\n      sstore\n      swap2\n      0x20\n      add\n      swap2\n      swap1\n      0x01\n      add\n      swap1\n      jump(tag_482)\n    tag_483:\n      pop\n      tag_484\n      swap3\n      swap2\n      pop\n      tag_485\n      jump\t// in\n    tag_484:\n      pop\n      swap1\n      jump\t// out\n    tag_328:\n      pop\n      dup1\n      sload\n      0x01\n      dup2\n      0x01\n      and\n      iszero\n      0x0100\n      mul\n      sub\n      and\n      0x02\n      swap1\n      div\n      0x00\n      dup3\n      sstore\n      dup1\n      0x1f\n      lt\n      tag_487\n      jumpi\n      pop\n      jump(tag_488)\n    tag_487:\n      0x1f\n      add\n      0x20\n      swap1\n      div\n      swap1\n      0x00\n      mstore\n      keccak256(0x00, 0x20)\n      swap1\n      dup2\n      add\n      swap1\n      tag_488\n      swap2\n      swap1\n      tag_485\n      jump\t// in\n    tag_488:\n      pop\n      jump\t// out\n    tag_351:\n      dup3\n      dup1\n      sload\n      0x01\n      dup2\n      0x01\n      and\n      iszero\n      0x0100\n      mul\n      sub\n      and\n      0x02\n      swap1\n      div\n      swap1\n      0x00\n      mstore\n      keccak256(0x00, 0x20)\n      swap1\n      0x1f\n      add\n      0x20\n      swap1\n      div\n      dup2\n      add\n      swap3\n      dup3\n      0x1f\n      lt\n      tag_490\n      jumpi\n      dup1\n      mload\n      not(0xff)\n      and\n      dup4\n      dup1\n      add\n      or\n      dup6\n      sstore\n      jump(tag_483)\n    tag_490:\n      dup3\n      dup1\n      add\n      0x01\n      add\n      dup6\n      sstore\n      dup3\n      iszero\n      tag_483\n      jumpi\n      swap2\n      dup3\n      add\n    tag_491:\n      dup3\n      dup2\n      gt\n      iszero\n      tag_483\n      jumpi\n      dup3\n      mload\n      dup3\n      sstore\n      swap2\n      0x20\n      add\n      swap2\n      swap1\n      0x01\n      add\n      swap1\n      jump(tag_491)\n    tag_485:\n      tag_150\n      swap2\n      swap1\n    tag_495:\n      dup1\n      dup3\n      gt\n      iszero\n      tag_484\n      jumpi\n      0x00\n      dup2\n      sstore\n      0x01\n      add\n      jump(tag_495)\n    stop\n    data_045d6834e6193a687012a3ad777f612279e549b6945364d9d2324f48610d3cbb 456e756d657261626c655365743a20696e646578206f7574206f6620626f756e6473\n    data_1e766a06da43a53d0f4c380e06e5a342e14d5af1bf8501996c844905530ca84e 4552433732313a207472616e7366657220746f206e6f6e20455243373231526563656976657220696d706c656d656e746572\n    data_245f15ff17f551913a7a18385165551503906a406f905ac1c2437281a7cd0cfe 4f776e61626c653a206e6577206f776e657220697320746865207a65726f2061646472657373\n    data_455fea98ea03c32d7dd1a6f1426917d80529bf47b3ccbde74e7206e889e709f4 4552433732313a207472616e7366657220746f20746865207a65726f2061646472657373\n    data_565f1a77334fc4792800921178c71e4521acffab18ff9e7885b49377ee80ab4c 416464726573733a20696e73756666696369656e742062616c616e636520666f722063616c6c\n    data_5797d1ccb08b83980dd0c07ea40d8f6a64d35fff736a19bdd17522954cb0899c 4552433732313a206f70657261746f7220717565727920666f72206e6f6e6578697374656e7420746f6b656e\n    data_6d83cef3e0cb19b8320a9c5feb26b56bbb08f152a8e61b12eca3302d8d68b23d 4552433732313a20617070726f76652063616c6c6572206973206e6f74206f776e6572206e6f7220617070726f76656420666f7220616c6c\n    data_7395d4d3901c50cdfcab223d072f9aa36241df5d883e62cbf147ee1b05a9e6ba 4552433732313a2062616c616e636520717565727920666f7220746865207a65726f2061646472657373\n    data_7481f3df2a424c0755a1ad2356614e9a5a358d461ea2eae1f89cb21cbad00397 4552433732313a206f776e657220717565727920666f72206e6f6e6578697374656e7420746f6b656e\n    data_86631030b9066a18616a068fc09fce83d18af4765cb1d2166fa475228f4db155 456e756d657261626c654d61703a20696e646578206f7574206f6620626f756e6473\n    data_9291e0f44949204f2e9b40e6be090924979d6047b2365868f4e9f027722eb89d 4552433732313a20617070726f76656420717565727920666f72206e6f6e6578697374656e7420746f6b656e\n    data_94be4a260caaeac1b145f03ffa2e70bc612b64982d04f24073aaf3a5f9009978 4552433732314d657461646174613a2055524920736574206f66206e6f6e6578697374656e7420746f6b656e\n    data_9924ebdf1add33d25d4ef888e16131f0a5687b0580a36c21b5c301a6c462effe 4f776e61626c653a2063616c6c6572206973206e6f7420746865206f776e6572\n    data_a01073130a885d6c1c1af6ac75fc3b1c4f9403c235362962bbf528e2bd87d950 4552433732313a207472616e73666572206f6620746f6b656e2074686174206973206e6f74206f776e\n    data_a2d45c0fba603d40d82d590051761ca952d1ab9d78cca6d0d464d7b6e961a9cb 4552433732314d657461646174613a2055524920717565727920666f72206e6f6e6578697374656e7420746f6b656e\n    data_b51b4875eede07862961e8f9365c6749f5fe55c6ee5d7a9e42b6912ad0b15942 4552433732313a20617070726f76616c20746f2063757272656e74206f776e6572\n    data_c8682f3ad98807db59a6ec6bb812b72fed0a66e3150fa8239699ee83885247f2 4552433732313a207472616e736665722063616c6c6572206973206e6f74206f776e6572206e6f7220617070726f766564\n\n    auxdata: 0xa26469706673582212202c9ade1b9eed406dcb8d624d7542ebcc9450696be333d58c8dc6a43f6037de1a64736f6c63430006040033\n}\n",
				"bytecode": {
					"linkReferences": {},
					"object": "60806040523480156200001157600080fd5b5060405162002bd838038062002bd8833981810160405260208110156200003757600080fd5b81019080805160405193929190846401000000008211156200005857600080fd5b9083019060208201858111156200006e57600080fd5b82516401000000008111828201881017156200008957600080fd5b82525081516020918201929091019080838360005b83811015620000b85781810151838201526020016200009e565b50505050905090810190601f168015620000e65780820380516001836020036101000a031916815260200191505b5060408181018152600f82526e50616e63616b652042756e6e69657360881b60208084019190915281518083019092526002825261282160f11b9082015290935091506200014690506301ffc9a760e01b6001600160e01b036200024416565b81516200015b906006906020850190620002e7565b50805162000171906007906020840190620002e7565b506200018d6380ac58cd60e01b6001600160e01b036200024416565b620001a8635b5e139f60e01b6001600160e01b036200024416565b620001c363780e9d6360e01b6001600160e01b036200024416565b5060009050620001db6001600160e01b03620002c916565b600a80546001600160a01b0319166001600160a01b038316908117909155604051919250906000907f8be0079c531659141344cd1fd0a4f28419497f9722a3daafe3b4186f6b6457e0908290a3506200023d816001600160e01b03620002ce16565b5062000389565b6001600160e01b03198082161415620002a4576040805162461bcd60e51b815260206004820152601c60248201527f4552433136353a20696e76616c696420696e7465726661636520696400000000604482015290519081900360640190fd5b6001600160e01b0319166000908152602081905260409020805460ff19166001179055565b335b90565b8051620002e3906009906020840190620002e7565b5050565b828054600181600116156101000203166002900490600052602060002090601f016020900481019282601f106200032a57805160ff19168380011785556200035a565b828001600101855582156200035a579182015b828111156200035a5782518255916020019190600101906200033d565b50620003689291506200036c565b5090565b620002cb91905b8082111562000368576000815560010162000373565b61283f80620003996000396000f3fe608060405234801561001057600080fd5b50600436106101c45760003560e01c80636a4b8883116100f9578063a22cb46511610097578063c87b56dd11610071578063c87b56dd146106b8578063d76a3cfe146106d5578063e985e9c5146106f5578063f2fde38b14610723576101c4565b8063a22cb46514610591578063b88d4fde146105bf578063c72c688314610685576101c4565b8063715018a6116100d3578063715018a6146105595780638da5cb5b1461056157806395d89b4114610569578063a0411c5414610571576101c4565b80636a4b8883146104a85780636c0360eb1461052b57806370a0823114610533576101c4565b80632e2b08421161016657806342966c681161014057806342966c68146103d75780634f6ccce7146103f45780635d71dca3146104115780636352211e1461048b576101c4565b80632e2b0842146103585780632f745c591461037557806342842e0e146103a1576101c4565b8063095ea7b3116101a2578063095ea7b3146102ba57806318160ddd146102e85780631b881e671461030257806323b872dd14610322576101c4565b806301ffc9a7146101c957806306fdde0314610204578063081812fc14610281575b600080fd5b6101f0600480360360208110156101df57600080fd5b50356001600160e01b031916610749565b604080519115158252519081900360200190f35b61020c61076c565b6040805160208082528351818301528351919283929083019185019080838360005b8381101561024657818101518382015260200161022e565b50505050905090810190601f1680156102735780820380516001836020036101000a031916815260200191505b509250505060405180910390f35b61029e6004803603602081101561029757600080fd5b5035610803565b604080516001600160a01b039092168252519081900360200190f35b6102e6600480360360408110156102d057600080fd5b506001600160a01b038135169060200135610865565b005b6102f0610940565b60408051918252519081900360200190f35b61020c6004803603602081101561031857600080fd5b503560ff16610951565b6102e66004803603606081101561033857600080fd5b506001600160a01b038135811691602081013590911690604001356109f6565b61020c6004803603602081101561036e57600080fd5b5035610a4d565b6102f06004803603604081101561038b57600080fd5b506001600160a01b038135169060200135610afd565b6102e6600480360360608110156103b757600080fd5b506001600160a01b03813581169160208101359091169060400135610b2e565b6102e6600480360360208110156103ed57600080fd5b5035610b49565b6102f06004803603602081101561040a57600080fd5b5035610c23565b6102e66004803603604081101561042757600080fd5b60ff823516919081019060408101602082013564010000000081111561044c57600080fd5b82018360208201111561045e57600080fd5b8035906020019184600183028401116401000000008311171561048057600080fd5b509092509050610c3f565b61029e600480360360208110156104a157600080fd5b5035610cba565b6102f0600480360360608110156104be57600080fd5b6001600160a01b0382351691908101906040810160208201356401000000008111156104e957600080fd5b8201836020820111156104fb57600080fd5b8035906020019184600183028401116401000000008311171561051d57600080fd5b91935091503560ff16610ce8565b61020c610df8565b6102f06004803603602081101561054957600080fd5b50356001600160a01b0316610e59565b6102e6610ec1565b61029e610f63565b61020c610f72565b6102f06004803603602081101561058757600080fd5b503560ff16610fd3565b6102e6600480360360408110156105a757600080fd5b506001600160a01b0381351690602001351515610fe5565b6102e6600480360360808110156105d557600080fd5b6001600160a01b0382358116926020810135909116916040820135919081019060808101606082013564010000000081111561061057600080fd5b82018360208201111561062257600080fd5b8035906020019184600183028401116401000000008311171561064457600080fd5b91908080601f0160208091040260200160405190810160405280939291908181526020018383808284376000920191909152509295506110ea945050505050565b6106a26004803603602081101561069b57600080fd5b5035611142565b6040805160ff9092168252519081900360200190f35b61020c600480360360208110156106ce57600080fd5b5035611157565b6102f0600480360360208110156106eb57600080fd5b503560ff166113fe565b6101f06004803603604081101561070b57600080fd5b506001600160a01b0381358116916020013516611410565b6102e66004803603602081101561073957600080fd5b50356001600160a01b031661143e565b6001600160e01b0319811660009081526020819052604090205460ff165b919050565b60068054604080516020601f60026000196101006001881615020190951694909404938401819004810282018101909252828152606093909290918301828280156107f85780601f106107cd576101008083540402835291602001916107f8565b820191906000526020600020905b8154815290600101906020018083116107db57829003601f168201915b505050505090505b90565b600061080e82611537565b6108495760405162461bcd60e51b815260040180806020018281038252602c8152602001806126e8602c913960400191505060405180910390fd5b506000908152600460205260409020546001600160a01b031690565b600061087082610cba565b9050806001600160a01b0316836001600160a01b031614156108c35760405162461bcd60e51b81526004018080602001828103825260218152602001806127b86021913960400191505060405180910390fd5b806001600160a01b03166108d561154a565b6001600160a01b031614806108f657506108f6816108f161154a565b611410565b6109315760405162461bcd60e51b815260040180806020018281038252603881526020018061263b6038913960400191505060405180910390fd5b61093b838361154e565b505050565b600061094c60026115bc565b905090565b60ff81166000908152600f602090815260409182902080548351601f60026000196101006001861615020190931692909204918201849004840281018401909452808452606093928301828280156109ea5780601f106109bf576101008083540402835291602001916109ea565b820191906000526020600020905b8154815290600101906020018083116109cd57829003601f168201915b50505050509050919050565b610a07610a0161154a565b826115c7565b610a425760405162461bcd60e51b81526004018080602001828103825260318152602001806127d96031913960400191505060405180910390fd5b61093b838383611663565b6000818152600e602090815260408083205460ff16808452600f83529281902080548251601f6002600019600185161561010002019093169290920491820185900485028101850190935280835260609493830182828015610af05780601f10610ac557610100808354040283529160200191610af0565b820191906000526020600020905b815481529060010190602001808311610ad357829003601f168201915b5050505050915050919050565b6001600160a01b0382166000908152600160205260408120610b25908363ffffffff6117c116565b90505b92915050565b61093b838383604051806020016040528060008152506110ea565b610b5161154a565b600a546001600160a01b03908116911614610ba1576040805162461bcd60e51b81526020600482018190526024820152600080516020612740833981519152604482015290519081900360640190fd5b6000818152600e602090815260408083205460ff16808452600b90925290912054610bd390600163ffffffff6117cd16565b60ff82166000908152600b6020908152604080832093909355600c90522054610c0390600163ffffffff61180f16565b60ff82166000908152600c6020526040902055610c1f82611869565b5050565b600080610c3760028463ffffffff61194216565b509392505050565b610c4761154a565b600a546001600160a01b03908116911614610c97576040805162461bcd60e51b81526020600482018190526024820152600080516020612740833981519152604482015290519081900360640190fd5b60ff83166000908152600f60205260409020610cb4908383612423565b50505050565b6000610b288260405180606001604052806029815260200161269d602991396002919063ffffffff61195e16565b6000610cf261154a565b600a546001600160a01b03908116911614610d42576040805162461bcd60e51b81526020600482018190526024820152600080516020612740833981519152604482015290519081900360640190fd5b6000610d4e600d611975565b9050610d5a600d611979565b6000818152600e60209081526040808320805460ff191660ff88169081179091558352600b909152902054610d9090600161180f565b60ff84166000908152600b6020526040902055610dad8682611982565b610ded8186868080601f016020809104026020016040519081016040528093929190818152602001838380828437600092019190915250611abc92505050565b90505b949350505050565b60098054604080516020601f60026000196101006001881615020190951694909404938401819004810282018101909252828152606093909290918301828280156107f85780601f106107cd576101008083540402835291602001916107f8565b60006001600160a01b038216610ea05760405162461bcd60e51b815260040180806020018281038252602a815260200180612673602a913960400191505060405180910390fd5b6001600160a01b0382166000908152600160205260409020610b28906115bc565b610ec961154a565b600a546001600160a01b03908116911614610f19576040805162461bcd60e51b81526020600482018190526024820152600080516020612740833981519152604482015290519081900360640190fd5b600a546040516000916001600160a01b0316907f8be0079c531659141344cd1fd0a4f28419497f9722a3daafe3b4186f6b6457e0908390a3600a80546001600160a01b0319169055565b600a546001600160a01b031690565b60078054604080516020601f60026000196101006001881615020190951694909404938401819004810282018101909252828152606093909290918301828280156107f85780601f106107cd576101008083540402835291602001916107f8565b600b6020526000908152604090205481565b610fed61154a565b6001600160a01b0316826001600160a01b03161415611053576040805162461bcd60e51b815260206004820152601960248201527f4552433732313a20617070726f766520746f2063616c6c657200000000000000604482015290519081900360640190fd5b806005600061106061154a565b6001600160a01b03908116825260208083019390935260409182016000908120918716808252919093529120805460ff1916921515929092179091556110a461154a565b60408051841515815290516001600160a01b0392909216917f17307eab39ab6107e8899845ad3d59bd9653f200f220920489ca2b5937696c319181900360200190a35050565b6110fb6110f561154a565b836115c7565b6111365760405162461bcd60e51b81526004018080602001828103825260318152602001806127d96031913960400191505060405180910390fd5b610cb484848484611b1f565b6000908152600e602052604090205460ff1690565b606061116282611537565b61119d5760405162461bcd60e51b815260040180806020018281038252602f815260200180612789602f913960400191505060405180910390fd5b60008281526008602090815260409182902080548351601f60026000196101006001861615020190931692909204918201849004840281018401909452808452606093928301828280156112325780601f1061120757610100808354040283529160200191611232565b820191906000526020600020905b81548152906001019060200180831161121557829003601f168201915b50506009549394505050506002600019610100600184161502019091160461125b579050610767565b80511561132c5760098160405160200180838054600181600116156101000203166002900480156112c35780601f106112a15761010080835404028352918201916112c3565b820191906000526020600020905b8154815290600101906020018083116112af575b5050825160208401908083835b602083106112ef5780518252601f1990920191602091820191016112d0565b6001836020036101000a03801982511681845116808217855250505050505090500192505050604051602081830303815290604052915050610767565b600961133784611b71565b60405160200180838054600181600116156101000203166002900480156113955780601f10611373576101008083540402835291820191611395565b820191906000526020600020905b815481529060010190602001808311611381575b5050825160208401908083835b602083106113c15780518252601f1990920191602091820191016113a2565b6001836020036101000a03801982511681845116808217855250505050505090500192505050604051602081830303815290604052915050919050565b600c6020526000908152604090205481565b6001600160a01b03918216600090815260056020908152604080832093909416825291909152205460ff1690565b61144661154a565b600a546001600160a01b03908116911614611496576040805162461bcd60e51b81526020600482018190526024820152600080516020612740833981519152604482015290519081900360640190fd5b6001600160a01b0381166114db5760405162461bcd60e51b81526004018080602001828103825260268152602001806125c56026913960400191505060405180910390fd5b600a546040516001600160a01b038084169216907f8be0079c531659141344cd1fd0a4f28419497f9722a3daafe3b4186f6b6457e090600090a3600a80546001600160a01b0319166001600160a01b0392909216919091179055565b6000610b2860028363ffffffff611c3516565b3390565b600081815260046020526040902080546001600160a01b0319166001600160a01b038416908117909155819061158382610cba565b6001600160a01b03167f8c5be1e5ebec7d5bd14f71427d1e84f3dd0314c0f7b2291e5b200ac8c7c3b92560405160405180910390a45050565b6000610b2882611975565b60006115d282611537565b61160d5760405162461bcd60e51b815260040180806020018281038252602c81526020018061260f602c913960400191505060405180910390fd5b600061161883610cba565b9050806001600160a01b0316846001600160a01b031614806116535750836001600160a01b031661164884610803565b6001600160a01b0316145b80610df05750610df08185611410565b826001600160a01b031661167682610cba565b6001600160a01b0316146116bb5760405162461bcd60e51b81526004018080602001828103825260298152602001806127606029913960400191505060405180910390fd5b6001600160a01b0382166117005760405162461bcd60e51b81526004018080602001828103825260248152602001806125eb6024913960400191505060405180910390fd5b61170b83838361093b565b61171660008261154e565b6001600160a01b038316600090815260016020526040902061173e908263ffffffff611c4116565b506001600160a01b0382166000908152600160205260409020611767908263ffffffff611c4d16565b5061177a6002828463ffffffff611c5916565b5080826001600160a01b0316846001600160a01b03167fddf252ad1be2c89b69c2b068fc378daa952ba7f163c4a11628f55a4df523b3ef60405160405180910390a4505050565b6000610b258383611c6f565b6000610b2583836040518060400160405280601e81526020017f536166654d6174683a207375627472616374696f6e206f766572666c6f770000815250611cd3565b600082820183811015610b25576040805162461bcd60e51b815260206004820152601b60248201527f536166654d6174683a206164646974696f6e206f766572666c6f770000000000604482015290519081900360640190fd5b600061187482610cba565b90506118828160008461093b565b61188d60008361154e565b60008281526008602052604090205460026000196101006001841615020190911604156118cb5760008281526008602052604081206118cb916124a1565b6001600160a01b03811660009081526001602052604090206118f3908363ffffffff611c4116565b5061190560028363ffffffff611d6a16565b5060405182906000906001600160a01b038416907fddf252ad1be2c89b69c2b068fc378daa952ba7f163c4a11628f55a4df523b3ef908390a45050565b60008080806119518686611d76565b9097909650945050505050565b600061196b848484611df1565b90505b9392505050565b5490565b80546001019055565b6001600160a01b0382166119dd576040805162461bcd60e51b815260206004820181905260248201527f4552433732313a206d696e7420746f20746865207a65726f2061646472657373604482015290519081900360640190fd5b6119e681611537565b15611a38576040805162461bcd60e51b815260206004820152601c60248201527f4552433732313a20746f6b656e20616c7265616479206d696e74656400000000604482015290519081900360640190fd5b611a446000838361093b565b6001600160a01b0382166000908152600160205260409020611a6c908263ffffffff611c4d16565b50611a7f6002828463ffffffff611c5916565b5060405181906001600160a01b038416906000907fddf252ad1be2c89b69c2b068fc378daa952ba7f163c4a11628f55a4df523b3ef908290a45050565b611ac582611537565b611b005760405162461bcd60e51b815260040180806020018281038252602c815260200180612714602c913960400191505060405180910390fd5b6000828152600860209081526040909120825161093b928401906124e8565b611b2a848484611663565b611b3684848484611e7e565b610cb45760405162461bcd60e51b81526004018080602001828103825260328152602001806125936032913960400191505060405180910390fd5b606081611b9657506040805180820190915260018152600360fc1b6020820152610767565b8160005b8115611bae57600101600a82049150611b9a565b6060816040519080825280601f01601f191660200182016040528015611bdb576020820181803683370190505b50859350905060001982015b8315611c2c57600a840660300160f81b82828060019003935081518110611c0a57fe5b60200101906001600160f81b031916908160001a905350600a84049350611be7565b50949350505050565b6000610b258383611ffe565b6000610b258383612016565b6000610b2583836120dc565b600061196b84846001600160a01b038516612126565b81546000908210611cb15760405162461bcd60e51b81526004018080602001828103825260228152602001806125716022913960400191505060405180910390fd5b826000018281548110611cc057fe5b9060005260206000200154905092915050565b60008184841115611d625760405162461bcd60e51b81526004018080602001828103825283818151815260200191508051906020019080838360005b83811015611d27578181015183820152602001611d0f565b50505050905090810190601f168015611d545780820380516001836020036101000a031916815260200191505b509250505060405180910390fd5b505050900390565b6000610b2583836121bd565b815460009081908310611dba5760405162461bcd60e51b81526004018080602001828103825260228152602001806126c66022913960400191505060405180910390fd5b6000846000018481548110611dcb57fe5b906000526020600020906002020190508060000154816001015492509250509250929050565b60008281526001840160205260408120548281611e4f5760405162461bcd60e51b8152602060048201818152835160248401528351909283926044909101919085019080838360008315611d27578181015183820152602001611d0f565b50846000016001820381548110611e6257fe5b9060005260206000209060020201600101549150509392505050565b6000611e92846001600160a01b0316612291565b611e9e57506001610df0565b6060611fc4630a85bd0160e11b611eb361154a565b88878760405160240180856001600160a01b03166001600160a01b03168152602001846001600160a01b03166001600160a01b0316815260200183815260200180602001828103825283818151815260200191508051906020019080838360005b83811015611f2c578181015183820152602001611f14565b50505050905090810190601f168015611f595780820380516001836020036101000a031916815260200191505b5095505050505050604051602081830303815290604052906001600160e01b0319166020820180516001600160e01b038381831617835250505050604051806060016040528060328152602001612593603291396001600160a01b038816919063ffffffff61229716565b90506000818060200190516020811015611fdd57600080fd5b50516001600160e01b031916630a85bd0160e11b1492505050949350505050565b60009081526001919091016020526040902054151590565b600081815260018301602052604081205480156120d2578354600019808301919081019060009087908390811061204957fe5b906000526020600020015490508087600001848154811061206657fe5b60009182526020808320909101929092558281526001898101909252604090209084019055865487908061209657fe5b60019003818190600052602060002001600090559055866001016000878152602001908152602001600020600090556001945050505050610b28565b6000915050610b28565b60006120e88383611ffe565b61211e57508154600181810184556000848152602080822090930184905584548482528286019093526040902091909155610b28565b506000610b28565b60008281526001840160205260408120548061218b57505060408051808201825283815260208082018481528654600181810189556000898152848120955160029093029095019182559151908201558654868452818801909252929091205561196e565b8285600001600183038154811061219e57fe5b906000526020600020906002020160010181905550600091505061196e565b600081815260018301602052604081205480156120d257835460001980830191908101906000908790839081106121f057fe5b906000526020600020906002020190508087600001848154811061221057fe5b60009182526020808320845460029093020191825560019384015491840191909155835482528983019052604090209084019055865487908061224f57fe5b6000828152602080822060026000199094019384020182815560019081018390559290935588815289820190925260408220919091559450610b289350505050565b3b151590565b606061196b8484600085856122ab85612291565b6122fc576040805162461bcd60e51b815260206004820152601d60248201527f416464726573733a2063616c6c20746f206e6f6e2d636f6e7472616374000000604482015290519081900360640190fd5b60006060866001600160a01b031685876040518082805190602001908083835b6020831061233b5780518252601f19909201916020918201910161231c565b6001836020036101000a03801982511681845116808217855250505050505090500191505060006040518083038185875af1925050503d806000811461239d576040519150601f19603f3d011682016040523d82523d6000602084013e6123a2565b606091505b50915091506123b28282866123bd565b979650505050505050565b606083156123cc57508161196e565b8251156123dc5782518084602001fd5b60405162461bcd60e51b8152602060048201818152845160248401528451859391928392604401919085019080838360008315611d27578181015183820152602001611d0f565b828054600181600116156101000203166002900490600052602060002090601f016020900481019282601f106124645782800160ff19823516178555612491565b82800160010185558215612491579182015b82811115612491578235825591602001919060010190612476565b5061249d929150612556565b5090565b50805460018160011615610100020316600290046000825580601f106124c757506124e5565b601f0160209004906000526020600020908101906124e59190612556565b50565b828054600181600116156101000203166002900490600052602060002090601f016020900481019282601f1061252957805160ff1916838001178555612491565b82800160010185558215612491579182015b8281111561249157825182559160200191906001019061253b565b61080091905b8082111561249d576000815560010161255c56fe456e756d657261626c655365743a20696e646578206f7574206f6620626f756e64734552433732313a207472616e7366657220746f206e6f6e20455243373231526563656976657220696d706c656d656e7465724f776e61626c653a206e6577206f776e657220697320746865207a65726f20616464726573734552433732313a207472616e7366657220746f20746865207a65726f20616464726573734552433732313a206f70657261746f7220717565727920666f72206e6f6e6578697374656e7420746f6b656e4552433732313a20617070726f76652063616c6c6572206973206e6f74206f776e6572206e6f7220617070726f76656420666f7220616c6c4552433732313a2062616c616e636520717565727920666f7220746865207a65726f20616464726573734552433732313a206f776e657220717565727920666f72206e6f6e6578697374656e7420746f6b656e456e756d657261626c654d61703a20696e646578206f7574206f6620626f756e64734552433732313a20617070726f76656420717565727920666f72206e6f6e6578697374656e7420746f6b656e4552433732314d657461646174613a2055524920736574206f66206e6f6e6578697374656e7420746f6b656e4f776e61626c653a2063616c6c6572206973206e6f7420746865206f776e65724552433732313a207472616e73666572206f6620746f6b656e2074686174206973206e6f74206f776e4552433732314d657461646174613a2055524920717565727920666f72206e6f6e6578697374656e7420746f6b656e4552433732313a20617070726f76616c20746f2063757272656e74206f776e65724552433732313a207472616e736665722063616c6c6572206973206e6f74206f776e6572206e6f7220617070726f766564a26469706673582212202c9ade1b9eed406dcb8d624d7542ebcc9450696be333d58c8dc6a43f6037de1a64736f6c63430006040033",
					"opcodes": "PUSH1 0x80 PUSH1 0x40 MSTORE CALLVALUE DUP1 ISZERO PUSH3 0x11 JUMPI PUSH1 0x0 DUP1 REVERT JUMPDEST POP PUSH1 0x40 MLOAD PUSH3 0x2BD8 CODESIZE SUB DUP1 PUSH3 0x2BD8 DUP4 CODECOPY DUP2 DUP2 ADD PUSH1 0x40 MSTORE PUSH1 0x20 DUP2 LT ISZERO PUSH3 0x37 JUMPI PUSH1 0x0 DUP1 REVERT JUMPDEST DUP2 ADD SWAP1 DUP1 DUP1 MLOAD PUSH1 0x40 MLOAD SWAP4 SWAP3 SWAP2 SWAP1 DUP5 PUSH5 0x100000000 DUP3 GT ISZERO PUSH3 0x58 JUMPI PUSH1 0x0 DUP1 REVERT JUMPDEST SWAP1 DUP4 ADD SWAP1 PUSH1 0x20 DUP3 ADD DUP6 DUP2 GT ISZERO PUSH3 0x6E JUMPI PUSH1 0x0 DUP1 REVERT JUMPDEST DUP3 MLOAD PUSH5 0x100000000 DUP2 GT DUP3 DUP3 ADD DUP9 LT OR ISZERO PUSH3 0x89 JUMPI PUSH1 0x0 DUP1 REVERT JUMPDEST DUP3 MSTORE POP DUP2 MLOAD PUSH1 0x20 SWAP2 DUP3 ADD SWAP3 SWAP1 SWAP2 ADD SWAP1 DUP1 DUP4 DUP4 PUSH1 0x0 JUMPDEST DUP4 DUP2 LT ISZERO PUSH3 0xB8 JUMPI DUP2 DUP2 ADD MLOAD DUP4 DUP3 ADD MSTORE PUSH1 0x20 ADD PUSH3 0x9E JUMP JUMPDEST POP POP POP POP SWAP1 POP SWAP1 DUP2 ADD SWAP1 PUSH1 0x1F AND DUP1 ISZERO PUSH3 0xE6 JUMPI DUP1 DUP3 SUB DUP1 MLOAD PUSH1 0x1 DUP4 PUSH1 0x20 SUB PUSH2 0x100 EXP SUB NOT AND DUP2 MSTORE PUSH1 0x20 ADD SWAP2 POP JUMPDEST POP PUSH1 0x40 DUP2 DUP2 ADD DUP2 MSTORE PUSH1 0xF DUP3 MSTORE PUSH15 0x50616E63616B652042756E6E696573 PUSH1 0x88 SHL PUSH1 0x20 DUP1 DUP5 ADD SWAP2 SWAP1 SWAP2 MSTORE DUP2 MLOAD DUP1 DUP4 ADD SWAP1 SWAP3 MSTORE PUSH1 0x2 DUP3 MSTORE PUSH2 0x2821 PUSH1 0xF1 SHL SWAP1 DUP3 ADD MSTORE SWAP1 SWAP4 POP SWAP2 POP PUSH3 0x146 SWAP1 POP PUSH4 0x1FFC9A7 PUSH1 0xE0 SHL PUSH1 0x1 PUSH1 0x1 PUSH1 0xE0 SHL SUB PUSH3 0x244 AND JUMP JUMPDEST DUP2 MLOAD PUSH3 0x15B SWAP1 PUSH1 0x6 SWAP1 PUSH1 0x20 DUP6 ADD SWAP1 PUSH3 0x2E7 JUMP JUMPDEST POP DUP1 MLOAD PUSH3 0x171 SWAP1 PUSH1 0x7 SWAP1 PUSH1 0x20 DUP5 ADD SWAP1 PUSH3 0x2E7 JUMP JUMPDEST POP PUSH3 0x18D PUSH4 0x80AC58CD PUSH1 0xE0 SHL PUSH1 0x1 PUSH1 0x1 PUSH1 0xE0 SHL SUB PUSH3 0x244 AND JUMP JUMPDEST PUSH3 0x1A8 PUSH4 0x5B5E139F PUSH1 0xE0 SHL PUSH1 0x1 PUSH1 0x1 PUSH1 0xE0 SHL SUB PUSH3 0x244 AND JUMP JUMPDEST PUSH3 0x1C3 PUSH4 0x780E9D63 PUSH1 0xE0 SHL PUSH1 0x1 PUSH1 0x1 PUSH1 0xE0 SHL SUB PUSH3 0x244 AND JUMP JUMPDEST POP PUSH1 0x0 SWAP1 POP PUSH3 0x1DB PUSH1 0x1 PUSH1 0x1 PUSH1 0xE0 SHL SUB PUSH3 0x2C9 AND JUMP JUMPDEST PUSH1 0xA DUP1 SLOAD PUSH1 0x1 PUSH1 0x1 PUSH1 0xA0 SHL SUB NOT AND PUSH1 0x1 PUSH1 0x1 PUSH1 0xA0 SHL SUB DUP4 AND SWAP1 DUP2 OR SWAP1 SWAP2 SSTORE PUSH1 0x40 MLOAD SWAP2 SWAP3 POP SWAP1 PUSH1 0x0 SWAP1 PUSH32 0x8BE0079C531659141344CD1FD0A4F28419497F9722A3DAAFE3B4186F6B6457E0 SWAP1 DUP3 SWAP1 LOG3 POP PUSH3 0x23D DUP2 PUSH1 0x1 PUSH1 0x1 PUSH1 0xE0 SHL SUB PUSH3 0x2CE AND JUMP JUMPDEST POP PUSH3 0x389 JUMP JUMPDEST PUSH1 0x1 PUSH1 0x1 PUSH1 0xE0 SHL SUB NOT DUP1 DUP3 AND EQ ISZERO PUSH3 0x2A4 JUMPI PUSH1 0x40 DUP1 MLOAD PUSH3 0x461BCD PUSH1 0xE5 SHL DUP2 MSTORE PUSH1 0x20 PUSH1 0x4 DUP3 ADD MSTORE PUSH1 0x1C PUSH1 0x24 DUP3 ADD MSTORE PUSH32 0x4552433136353A20696E76616C696420696E7465726661636520696400000000 PUSH1 0x44 DUP3 ADD MSTORE SWAP1 MLOAD SWAP1 DUP2 SWAP1 SUB PUSH1 0x64 ADD SWAP1 REVERT JUMPDEST PUSH1 0x1 PUSH1 0x1 PUSH1 0xE0 SHL SUB NOT AND PUSH1 0x0 SWAP1 DUP2 MSTORE PUSH1 0x20 DUP2 SWAP1 MSTORE PUSH1 0x40 SWAP1 KECCAK256 DUP1 SLOAD PUSH1 0xFF NOT AND PUSH1 0x1 OR SWAP1 SSTORE JUMP JUMPDEST CALLER JUMPDEST SWAP1 JUMP JUMPDEST DUP1 MLOAD PUSH3 0x2E3 SWAP1 PUSH1 0x9 SWAP1 PUSH1 0x20 DUP5 ADD SWAP1 PUSH3 0x2E7 JUMP JUMPDEST POP POP JUMP JUMPDEST DUP3 DUP1 SLOAD PUSH1 0x1 DUP2 PUSH1 0x1 AND ISZERO PUSH2 0x100 MUL SUB AND PUSH1 0x2 SWAP1 DIV SWAP1 PUSH1 0x0 MSTORE PUSH1 0x20 PUSH1 0x0 KECCAK256 SWAP1 PUSH1 0x1F ADD PUSH1 0x20 SWAP1 DIV DUP2 ADD SWAP3 DUP3 PUSH1 0x1F LT PUSH3 0x32A JUMPI DUP1 MLOAD PUSH1 0xFF NOT AND DUP4 DUP1 ADD OR DUP6 SSTORE PUSH3 0x35A JUMP JUMPDEST DUP3 DUP1 ADD PUSH1 0x1 ADD DUP6 SSTORE DUP3 ISZERO PUSH3 0x35A JUMPI SWAP2 DUP3 ADD JUMPDEST DUP3 DUP2 GT ISZERO PUSH3 0x35A JUMPI DUP3 MLOAD DUP3 SSTORE SWAP2 PUSH1 0x20 ADD SWAP2 SWAP1 PUSH1 0x1 ADD SWAP1 PUSH3 0x33D JUMP JUMPDEST POP PUSH3 0x368 SWAP3 SWAP2 POP PUSH3 0x36C JUMP JUMPDEST POP SWAP1 JUMP JUMPDEST PUSH3 0x2CB SWAP2 SWAP1 JUMPDEST DUP1 DUP3 GT ISZERO PUSH3 0x368 JUMPI PUSH1 0x0 DUP2 SSTORE PUSH1 0x1 ADD PUSH3 0x373 JUMP JUMPDEST PUSH2 0x283F DUP1 PUSH3 0x399 PUSH1 0x0 CODECOPY PUSH1 0x0 RETURN INVALID PUSH1 0x80 PUSH1 0x40 MSTORE CALLVALUE DUP1 ISZERO PUSH2 0x10 JUMPI PUSH1 0x0 DUP1 REVERT JUMPDEST POP PUSH1 0x4 CALLDATASIZE LT PUSH2 0x1C4 JUMPI PUSH1 0x0 CALLDATALOAD PUSH1 0xE0 SHR DUP1 PUSH4 0x6A4B8883 GT PUSH2 0xF9 JUMPI DUP1 PUSH4 0xA22CB465 GT PUSH2 0x97 JUMPI DUP1 PUSH4 0xC87B56DD GT PUSH2 0x71 JUMPI DUP1 PUSH4 0xC87B56DD EQ PUSH2 0x6B8 JUMPI DUP1 PUSH4 0xD76A3CFE EQ PUSH2 0x6D5 JUMPI DUP1 PUSH4 0xE985E9C5 EQ PUSH2 0x6F5 JUMPI DUP1 PUSH4 0xF2FDE38B EQ PUSH2 0x723 JUMPI PUSH2 0x1C4 JUMP JUMPDEST DUP1 PUSH4 0xA22CB465 EQ PUSH2 0x591 JUMPI DUP1 PUSH4 0xB88D4FDE EQ PUSH2 0x5BF JUMPI DUP1 PUSH4 0xC72C6883 EQ PUSH2 0x685 JUMPI PUSH2 0x1C4 JUMP JUMPDEST DUP1 PUSH4 0x715018A6 GT PUSH2 0xD3 JUMPI DUP1 PUSH4 0x715018A6 EQ PUSH2 0x559 JUMPI DUP1 PUSH4 0x8DA5CB5B EQ PUSH2 0x561 JUMPI DUP1 PUSH4 0x95D89B41 EQ PUSH2 0x569 JUMPI DUP1 PUSH4 0xA0411C54 EQ PUSH2 0x571 JUMPI PUSH2 0x1C4 JUMP JUMPDEST DUP1 PUSH4 0x6A4B8883 EQ PUSH2 0x4A8 JUMPI DUP1 PUSH4 0x6C0360EB EQ PUSH2 0x52B JUMPI DUP1 PUSH4 0x70A08231 EQ PUSH2 0x533 JUMPI PUSH2 0x1C4 JUMP JUMPDEST DUP1 PUSH4 0x2E2B0842 GT PUSH2 0x166 JUMPI DUP1 PUSH4 0x42966C68 GT PUSH2 0x140 JUMPI DUP1 PUSH4 0x42966C68 EQ PUSH2 0x3D7 JUMPI DUP1 PUSH4 0x4F6CCCE7 EQ PUSH2 0x3F4 JUMPI DUP1 PUSH4 0x5D71DCA3 EQ PUSH2 0x411 JUMPI DUP1 PUSH4 0x6352211E EQ PUSH2 0x48B JUMPI PUSH2 0x1C4 JUMP JUMPDEST DUP1 PUSH4 0x2E2B0842 EQ PUSH2 0x358 JUMPI DUP1 PUSH4 0x2F745C59 EQ PUSH2 0x375 JUMPI DUP1 PUSH4 0x42842E0E EQ PUSH2 0x3A1 JUMPI PUSH2 0x1C4 JUMP JUMPDEST DUP1 PUSH4 0x95EA7B3 GT PUSH2 0x1A2 JUMPI DUP1 PUSH4 0x95EA7B3 EQ PUSH2 0x2BA JUMPI DUP1 PUSH4 0x18160DDD EQ PUSH2 0x2E8 JUMPI DUP1 PUSH4 0x1B881E67 EQ PUSH2 0x302 JUMPI DUP1 PUSH4 0x23B872DD EQ PUSH2 0x322 JUMPI PUSH2 0x1C4 JUMP JUMPDEST DUP1 PUSH4 0x1FFC9A7 EQ PUSH2 0x1C9 JUMPI DUP1 PUSH4 0x6FDDE03 EQ PUSH2 0x204 JUMPI DUP1 PUSH4 0x81812FC EQ PUSH2 0x281 JUMPI JUMPDEST PUSH1 0x0 DUP1 REVERT JUMPDEST PUSH2 0x1F0 PUSH1 0x4 DUP1 CALLDATASIZE SUB PUSH1 0x20 DUP2 LT ISZERO PUSH2 0x1DF JUMPI PUSH1 0x0 DUP1 REVERT JUMPDEST POP CALLDATALOAD PUSH1 0x1 PUSH1 0x1 PUSH1 0xE0 SHL SUB NOT AND PUSH2 0x749 JUMP JUMPDEST PUSH1 0x40 DUP1 MLOAD SWAP2 ISZERO ISZERO DUP3 MSTORE MLOAD SWAP1 DUP2 SWAP1 SUB PUSH1 0x20 ADD SWAP1 RETURN JUMPDEST PUSH2 0x20C PUSH2 0x76C JUMP JUMPDEST PUSH1 0x40 DUP1 MLOAD PUSH1 0x20 DUP1 DUP3 MSTORE DUP4 MLOAD DUP2 DUP4 ADD MSTORE DUP4 MLOAD SWAP2 SWAP3 DUP4 SWAP3 SWAP1 DUP4 ADD SWAP2 DUP6 ADD SWAP1 DUP1 DUP4 DUP4 PUSH1 0x0 JUMPDEST DUP4 DUP2 LT ISZERO PUSH2 0x246 JUMPI DUP2 DUP2 ADD MLOAD DUP4 DUP3 ADD MSTORE PUSH1 0x20 ADD PUSH2 0x22E JUMP JUMPDEST POP POP POP POP SWAP1 POP SWAP1 DUP2 ADD SWAP1 PUSH1 0x1F AND DUP1 ISZERO PUSH2 0x273 JUMPI DUP1 DUP3 SUB DUP1 MLOAD PUSH1 0x1 DUP4 PUSH1 0x20 SUB PUSH2 0x100 EXP SUB NOT AND DUP2 MSTORE PUSH1 0x20 ADD SWAP2 POP JUMPDEST POP SWAP3 POP POP POP PUSH1 0x40 MLOAD DUP1 SWAP2 SUB SWAP1 RETURN JUMPDEST PUSH2 0x29E PUSH1 0x4 DUP1 CALLDATASIZE SUB PUSH1 0x20 DUP2 LT ISZERO PUSH2 0x297 JUMPI PUSH1 0x0 DUP1 REVERT JUMPDEST POP CALLDATALOAD PUSH2 0x803 JUMP JUMPDEST PUSH1 0x40 DUP1 MLOAD PUSH1 0x1 PUSH1 0x1 PUSH1 0xA0 SHL SUB SWAP1 SWAP3 AND DUP3 MSTORE MLOAD SWAP1 DUP2 SWAP1 SUB PUSH1 0x20 ADD SWAP1 RETURN JUMPDEST PUSH2 0x2E6 PUSH1 0x4 DUP1 CALLDATASIZE SUB PUSH1 0x40 DUP2 LT ISZERO PUSH2 0x2D0 JUMPI PUSH1 0x0 DUP1 REVERT JUMPDEST POP PUSH1 0x1 PUSH1 0x1 PUSH1 0xA0 SHL SUB DUP2 CALLDATALOAD AND SWAP1 PUSH1 0x20 ADD CALLDATALOAD PUSH2 0x865 JUMP JUMPDEST STOP JUMPDEST PUSH2 0x2F0 PUSH2 0x940 JUMP JUMPDEST PUSH1 0x40 DUP1 MLOAD SWAP2 DUP3 MSTORE MLOAD SWAP1 DUP2 SWAP1 SUB PUSH1 0x20 ADD SWAP1 RETURN JUMPDEST PUSH2 0x20C PUSH1 0x4 DUP1 CALLDATASIZE SUB PUSH1 0x20 DUP2 LT ISZERO PUSH2 0x318 JUMPI PUSH1 0x0 DUP1 REVERT JUMPDEST POP CALLDATALOAD PUSH1 0xFF AND PUSH2 0x951 JUMP JUMPDEST PUSH2 0x2E6 PUSH1 0x4 DUP1 CALLDATASIZE SUB PUSH1 0x60 DUP2 LT ISZERO PUSH2 0x338 JUMPI PUSH1 0x0 DUP1 REVERT JUMPDEST POP PUSH1 0x1 PUSH1 0x1 PUSH1 0xA0 SHL SUB DUP2 CALLDATALOAD DUP2 AND SWAP2 PUSH1 0x20 DUP2 ADD CALLDATALOAD SWAP1 SWAP2 AND SWAP1 PUSH1 0x40 ADD CALLDATALOAD PUSH2 0x9F6 JUMP JUMPDEST PUSH2 0x20C PUSH1 0x4 DUP1 CALLDATASIZE SUB PUSH1 0x20 DUP2 LT ISZERO PUSH2 0x36E JUMPI PUSH1 0x0 DUP1 REVERT JUMPDEST POP CALLDATALOAD PUSH2 0xA4D JUMP JUMPDEST PUSH2 0x2F0 PUSH1 0x4 DUP1 CALLDATASIZE SUB PUSH1 0x40 DUP2 LT ISZERO PUSH2 0x38B JUMPI PUSH1 0x0 DUP1 REVERT JUMPDEST POP PUSH1 0x1 PUSH1 0x1 PUSH1 0xA0 SHL SUB DUP2 CALLDATALOAD AND SWAP1 PUSH1 0x20 ADD CALLDATALOAD PUSH2 0xAFD JUMP JUMPDEST PUSH2 0x2E6 PUSH1 0x4 DUP1 CALLDATASIZE SUB PUSH1 0x60 DUP2 LT ISZERO PUSH2 0x3B7 JUMPI PUSH1 0x0 DUP1 REVERT JUMPDEST POP PUSH1 0x1 PUSH1 0x1 PUSH1 0xA0 SHL SUB DUP2 CALLDATALOAD DUP2 AND SWAP2 PUSH1 0x20 DUP2 ADD CALLDATALOAD SWAP1 SWAP2 AND SWAP1 PUSH1 0x40 ADD CALLDATALOAD PUSH2 0xB2E JUMP JUMPDEST PUSH2 0x2E6 PUSH1 0x4 DUP1 CALLDATASIZE SUB PUSH1 0x20 DUP2 LT ISZERO PUSH2 0x3ED JUMPI PUSH1 0x0 DUP1 REVERT JUMPDEST POP CALLDATALOAD PUSH2 0xB49 JUMP JUMPDEST PUSH2 0x2F0 PUSH1 0x4 DUP1 CALLDATASIZE SUB PUSH1 0x20 DUP2 LT ISZERO PUSH2 0x40A JUMPI PUSH1 0x0 DUP1 REVERT JUMPDEST POP CALLDATALOAD PUSH2 0xC23 JUMP JUMPDEST PUSH2 0x2E6 PUSH1 0x4 DUP1 CALLDATASIZE SUB PUSH1 0x40 DUP2 LT ISZERO PUSH2 0x427 JUMPI PUSH1 0x0 DUP1 REVERT JUMPDEST PUSH1 0xFF DUP3 CALLDATALOAD AND SWAP2 SWAP1 DUP2 ADD SWAP1 PUSH1 0x40 DUP2 ADD PUSH1 0x20 DUP3 ADD CALLDATALOAD PUSH5 0x100000000 DUP2 GT ISZERO PUSH2 0x44C JUMPI PUSH1 0x0 DUP1 REVERT JUMPDEST DUP3 ADD DUP4 PUSH1 0x20 DUP3 ADD GT ISZERO PUSH2 0x45E JUMPI PUSH1 0x0 DUP1 REVERT JUMPDEST DUP1 CALLDATALOAD SWAP1 PUSH1 0x20 ADD SWAP2 DUP5 PUSH1 0x1 DUP4 MUL DUP5 ADD GT PUSH5 0x100000000 DUP4 GT OR ISZERO PUSH2 0x480 JUMPI PUSH1 0x0 DUP1 REVERT JUMPDEST POP SWAP1 SWAP3 POP SWAP1 POP PUSH2 0xC3F JUMP JUMPDEST PUSH2 0x29E PUSH1 0x4 DUP1 CALLDATASIZE SUB PUSH1 0x20 DUP2 LT ISZERO PUSH2 0x4A1 JUMPI PUSH1 0x0 DUP1 REVERT JUMPDEST POP CALLDATALOAD PUSH2 0xCBA JUMP JUMPDEST PUSH2 0x2F0 PUSH1 0x4 DUP1 CALLDATASIZE SUB PUSH1 0x60 DUP2 LT ISZERO PUSH2 0x4BE JUMPI PUSH1 0x0 DUP1 REVERT JUMPDEST PUSH1 0x1 PUSH1 0x1 PUSH1 0xA0 SHL SUB DUP3 CALLDATALOAD AND SWAP2 SWAP1 DUP2 ADD SWAP1 PUSH1 0x40 DUP2 ADD PUSH1 0x20 DUP3 ADD CALLDATALOAD PUSH5 0x100000000 DUP2 GT ISZERO PUSH2 0x4E9 JUMPI PUSH1 0x0 DUP1 REVERT JUMPDEST DUP3 ADD DUP4 PUSH1 0x20 DUP3 ADD GT ISZERO PUSH2 0x4FB JUMPI PUSH1 0x0 DUP1 REVERT JUMPDEST DUP1 CALLDATALOAD SWAP1 PUSH1 0x20 ADD SWAP2 DUP5 PUSH1 0x1 DUP4 MUL DUP5 ADD GT PUSH5 0x100000000 DUP4 GT OR ISZERO PUSH2 0x51D JUMPI PUSH1 0x0 DUP1 REVERT JUMPDEST SWAP2 SWAP4 POP SWAP2 POP CALLDATALOAD PUSH1 0xFF AND PUSH2 0xCE8 JUMP JUMPDEST PUSH2 0x20C PUSH2 0xDF8 JUMP JUMPDEST PUSH2 0x2F0 PUSH1 0x4 DUP1 CALLDATASIZE SUB PUSH1 0x20 DUP2 LT ISZERO PUSH2 0x549 JUMPI PUSH1 0x0 DUP1 REVERT JUMPDEST POP CALLDATALOAD PUSH1 0x1 PUSH1 0x1 PUSH1 0xA0 SHL SUB AND PUSH2 0xE59 JUMP JUMPDEST PUSH2 0x2E6 PUSH2 0xEC1 JUMP JUMPDEST PUSH2 0x29E PUSH2 0xF63 JUMP JUMPDEST PUSH2 0x20C PUSH2 0xF72 JUMP JUMPDEST PUSH2 0x2F0 PUSH1 0x4 DUP1 CALLDATASIZE SUB PUSH1 0x20 DUP2 LT ISZERO PUSH2 0x587 JUMPI PUSH1 0x0 DUP1 REVERT JUMPDEST POP CALLDATALOAD PUSH1 0xFF AND PUSH2 0xFD3 JUMP JUMPDEST PUSH2 0x2E6 PUSH1 0x4 DUP1 CALLDATASIZE SUB PUSH1 0x40 DUP2 LT ISZERO PUSH2 0x5A7 JUMPI PUSH1 0x0 DUP1 REVERT JUMPDEST POP PUSH1 0x1 PUSH1 0x1 PUSH1 0xA0 SHL SUB DUP2 CALLDATALOAD AND SWAP1 PUSH1 0x20 ADD CALLDATALOAD ISZERO ISZERO PUSH2 0xFE5 JUMP JUMPDEST PUSH2 0x2E6 PUSH1 0x4 DUP1 CALLDATASIZE SUB PUSH1 0x80 DUP2 LT ISZERO PUSH2 0x5D5 JUMPI PUSH1 0x0 DUP1 REVERT JUMPDEST PUSH1 0x1 PUSH1 0x1 PUSH1 0xA0 SHL SUB DUP3 CALLDATALOAD DUP2 AND SWAP3 PUSH1 0x20 DUP2 ADD CALLDATALOAD SWAP1 SWAP2 AND SWAP2 PUSH1 0x40 DUP3 ADD CALLDATALOAD SWAP2 SWAP1 DUP2 ADD SWAP1 PUSH1 0x80 DUP2 ADD PUSH1 0x60 DUP3 ADD CALLDATALOAD PUSH5 0x100000000 DUP2 GT ISZERO PUSH2 0x610 JUMPI PUSH1 0x0 DUP1 REVERT JUMPDEST DUP3 ADD DUP4 PUSH1 0x20 DUP3 ADD GT ISZERO PUSH2 0x622 JUMPI PUSH1 0x0 DUP1 REVERT JUMPDEST DUP1 CALLDATALOAD SWAP1 PUSH1 0x20 ADD SWAP2 DUP5 PUSH1 0x1 DUP4 MUL DUP5 ADD GT PUSH5 0x100000000 DUP4 GT OR ISZERO PUSH2 0x644 JUMPI PUSH1 0x0 DUP1 REVERT JUMPDEST SWAP2 SWAP1 DUP1 DUP1 PUSH1 0x1F ADD PUSH1 0x20 DUP1 SWAP2 DIV MUL PUSH1 0x20 ADD PUSH1 0x40 MLOAD SWAP1 DUP2 ADD PUSH1 0x40 MSTORE DUP1 SWAP4 SWAP3 SWAP2 SWAP1 DUP2 DUP2 MSTORE PUSH1 0x20 ADD DUP4 DUP4 DUP1 DUP3 DUP5 CALLDATACOPY PUSH1 0x0 SWAP3 ADD SWAP2 SWAP1 SWAP2 MSTORE POP SWAP3 SWAP6 POP PUSH2 0x10EA SWAP5 POP POP POP POP POP JUMP JUMPDEST PUSH2 0x6A2 PUSH1 0x4 DUP1 CALLDATASIZE SUB PUSH1 0x20 DUP2 LT ISZERO PUSH2 0x69B JUMPI PUSH1 0x0 DUP1 REVERT JUMPDEST POP CALLDATALOAD PUSH2 0x1142 JUMP JUMPDEST PUSH1 0x40 DUP1 MLOAD PUSH1 0xFF SWAP1 SWAP3 AND DUP3 MSTORE MLOAD SWAP1 DUP2 SWAP1 SUB PUSH1 0x20 ADD SWAP1 RETURN JUMPDEST PUSH2 0x20C PUSH1 0x4 DUP1 CALLDATASIZE SUB PUSH1 0x20 DUP2 LT ISZERO PUSH2 0x6CE JUMPI PUSH1 0x0 DUP1 REVERT JUMPDEST POP CALLDATALOAD PUSH2 0x1157 JUMP JUMPDEST PUSH2 0x2F0 PUSH1 0x4 DUP1 CALLDATASIZE SUB PUSH1 0x20 DUP2 LT ISZERO PUSH2 0x6EB JUMPI PUSH1 0x0 DUP1 REVERT JUMPDEST POP CALLDATALOAD PUSH1 0xFF AND PUSH2 0x13FE JUMP JUMPDEST PUSH2 0x1F0 PUSH1 0x4 DUP1 CALLDATASIZE SUB PUSH1 0x40 DUP2 LT ISZERO PUSH2 0x70B JUMPI PUSH1 0x0 DUP1 REVERT JUMPDEST POP PUSH1 0x1 PUSH1 0x1 PUSH1 0xA0 SHL SUB DUP2 CALLDATALOAD DUP2 AND SWAP2 PUSH1 0x20 ADD CALLDATALOAD AND PUSH2 0x1410 JUMP JUMPDEST PUSH2 0x2E6 PUSH1 0x4 DUP1 CALLDATASIZE SUB PUSH1 0x20 DUP2 LT ISZERO PUSH2 0x739 JUMPI PUSH1 0x0 DUP1 REVERT JUMPDEST POP CALLDATALOAD PUSH1 0x1 PUSH1 0x1 PUSH1 0xA0 SHL SUB AND PUSH2 0x143E JUMP JUMPDEST PUSH1 0x1 PUSH1 0x1 PUSH1 0xE0 SHL SUB NOT DUP2 AND PUSH1 0x0 SWAP1 DUP2 MSTORE PUSH1 0x20 DUP2 SWAP1 MSTORE PUSH1 0x40 SWAP1 KECCAK256 SLOAD PUSH1 0xFF AND JUMPDEST SWAP2 SWAP1 POP JUMP JUMPDEST PUSH1 0x6 DUP1 SLOAD PUSH1 0x40 DUP1 MLOAD PUSH1 0x20 PUSH1 0x1F PUSH1 0x2 PUSH1 0x0 NOT PUSH2 0x100 PUSH1 0x1 DUP9 AND ISZERO MUL ADD SWAP1 SWAP6 AND SWAP5 SWAP1 SWAP5 DIV SWAP4 DUP5 ADD DUP2 SWAP1 DIV DUP2 MUL DUP3 ADD DUP2 ADD SWAP1 SWAP3 MSTORE DUP3 DUP2 MSTORE PUSH1 0x60 SWAP4 SWAP1 SWAP3 SWAP1 SWAP2 DUP4 ADD DUP3 DUP3 DUP1 ISZERO PUSH2 0x7F8 JUMPI DUP1 PUSH1 0x1F LT PUSH2 0x7CD JUMPI PUSH2 0x100 DUP1 DUP4 SLOAD DIV MUL DUP4 MSTORE SWAP2 PUSH1 0x20 ADD SWAP2 PUSH2 0x7F8 JUMP JUMPDEST DUP3 ADD SWAP2 SWAP1 PUSH1 0x0 MSTORE PUSH1 0x20 PUSH1 0x0 KECCAK256 SWAP1 JUMPDEST DUP2 SLOAD DUP2 MSTORE SWAP1 PUSH1 0x1 ADD SWAP1 PUSH1 0x20 ADD DUP1 DUP4 GT PUSH2 0x7DB JUMPI DUP3 SWAP1 SUB PUSH1 0x1F AND DUP3 ADD SWAP2 JUMPDEST POP POP POP POP POP SWAP1 POP JUMPDEST SWAP1 JUMP JUMPDEST PUSH1 0x0 PUSH2 0x80E DUP3 PUSH2 0x1537 JUMP JUMPDEST PUSH2 0x849 JUMPI PUSH1 0x40 MLOAD PUSH3 0x461BCD PUSH1 0xE5 SHL DUP2 MSTORE PUSH1 0x4 ADD DUP1 DUP1 PUSH1 0x20 ADD DUP3 DUP2 SUB DUP3 MSTORE PUSH1 0x2C DUP2 MSTORE PUSH1 0x20 ADD DUP1 PUSH2 0x26E8 PUSH1 0x2C SWAP2 CODECOPY PUSH1 0x40 ADD SWAP2 POP POP PUSH1 0x40 MLOAD DUP1 SWAP2 SUB SWAP1 REVERT JUMPDEST POP PUSH1 0x0 SWAP1 DUP2 MSTORE PUSH1 0x4 PUSH1 0x20 MSTORE PUSH1 0x40 SWAP1 KECCAK256 SLOAD PUSH1 0x1 PUSH1 0x1 PUSH1 0xA0 SHL SUB AND SWAP1 JUMP JUMPDEST PUSH1 0x0 PUSH2 0x870 DUP3 PUSH2 0xCBA JUMP JUMPDEST SWAP1 POP DUP1 PUSH1 0x1 PUSH1 0x1 PUSH1 0xA0 SHL SUB AND DUP4 PUSH1 0x1 PUSH1 0x1 PUSH1 0xA0 SHL SUB AND EQ ISZERO PUSH2 0x8C3 JUMPI PUSH1 0x40 MLOAD PUSH3 0x461BCD PUSH1 0xE5 SHL DUP2 MSTORE PUSH1 0x4 ADD DUP1 DUP1 PUSH1 0x20 ADD DUP3 DUP2 SUB DUP3 MSTORE PUSH1 0x21 DUP2 MSTORE PUSH1 0x20 ADD DUP1 PUSH2 0x27B8 PUSH1 0x21 SWAP2 CODECOPY PUSH1 0x40 ADD SWAP2 POP POP PUSH1 0x40 MLOAD DUP1 SWAP2 SUB SWAP1 REVERT JUMPDEST DUP1 PUSH1 0x1 PUSH1 0x1 PUSH1 0xA0 SHL SUB AND PUSH2 0x8D5 PUSH2 0x154A JUMP JUMPDEST PUSH1 0x1 PUSH1 0x1 PUSH1 0xA0 SHL SUB AND EQ DUP1 PUSH2 0x8F6 JUMPI POP PUSH2 0x8F6 DUP2 PUSH2 0x8F1 PUSH2 0x154A JUMP JUMPDEST PUSH2 0x1410 JUMP JUMPDEST PUSH2 0x931 JUMPI PUSH1 0x40 MLOAD PUSH3 0x461BCD PUSH1 0xE5 SHL DUP2 MSTORE PUSH1 0x4 ADD DUP1 DUP1 PUSH1 0x20 ADD DUP3 DUP2 SUB DUP3 MSTORE PUSH1 0x38 DUP2 MSTORE PUSH1 0x20 ADD DUP1 PUSH2 0x263B PUSH1 0x38 SWAP2 CODECOPY PUSH1 0x40 ADD SWAP2 POP POP PUSH1 0x40 MLOAD DUP1 SWAP2 SUB SWAP1 REVERT JUMPDEST PUSH2 0x93B DUP4 DUP4 PUSH2 0x154E JUMP JUMPDEST POP POP POP JUMP JUMPDEST PUSH1 0x0 PUSH2 0x94C PUSH1 0x2 PUSH2 0x15BC JUMP JUMPDEST SWAP1 POP SWAP1 JUMP JUMPDEST PUSH1 0xFF DUP2 AND PUSH1 0x0 SWAP1 DUP2 MSTORE PUSH1 0xF PUSH1 0x20 SWAP1 DUP2 MSTORE PUSH1 0x40 SWAP2 DUP3 SWAP1 KECCAK256 DUP1 SLOAD DUP4 MLOAD PUSH1 0x1F PUSH1 0x2 PUSH1 0x0 NOT PUSH2 0x100 PUSH1 0x1 DUP7 AND ISZERO MUL ADD SWAP1 SWAP4 AND SWAP3 SWAP1 SWAP3 DIV SWAP2 DUP3 ADD DUP5 SWAP1 DIV DUP5 MUL DUP2 ADD DUP5 ADD SWAP1 SWAP5 MSTORE DUP1 DUP5 MSTORE PUSH1 0x60 SWAP4 SWAP3 DUP4 ADD DUP3 DUP3 DUP1 ISZERO PUSH2 0x9EA JUMPI DUP1 PUSH1 0x1F LT PUSH2 0x9BF JUMPI PUSH2 0x100 DUP1 DUP4 SLOAD DIV MUL DUP4 MSTORE SWAP2 PUSH1 0x20 ADD SWAP2 PUSH2 0x9EA JUMP JUMPDEST DUP3 ADD SWAP2 SWAP1 PUSH1 0x0 MSTORE PUSH1 0x20 PUSH1 0x0 KECCAK256 SWAP1 JUMPDEST DUP2 SLOAD DUP2 MSTORE SWAP1 PUSH1 0x1 ADD SWAP1 PUSH1 0x20 ADD DUP1 DUP4 GT PUSH2 0x9CD JUMPI DUP3 SWAP1 SUB PUSH1 0x1F AND DUP3 ADD SWAP2 JUMPDEST POP POP POP POP POP SWAP1 POP SWAP2 SWAP1 POP JUMP JUMPDEST PUSH2 0xA07 PUSH2 0xA01 PUSH2 0x154A JUMP JUMPDEST DUP3 PUSH2 0x15C7 JUMP JUMPDEST PUSH2 0xA42 JUMPI PUSH1 0x40 MLOAD PUSH3 0x461BCD PUSH1 0xE5 SHL DUP2 MSTORE PUSH1 0x4 ADD DUP1 DUP1 PUSH1 0x20 ADD DUP3 DUP2 SUB DUP3 MSTORE PUSH1 0x31 DUP2 MSTORE PUSH1 0x20 ADD DUP1 PUSH2 0x27D9 PUSH1 0x31 SWAP2 CODECOPY PUSH1 0x40 ADD SWAP2 POP POP PUSH1 0x40 MLOAD DUP1 SWAP2 SUB SWAP1 REVERT JUMPDEST PUSH2 0x93B DUP4 DUP4 DUP4 PUSH2 0x1663 JUMP JUMPDEST PUSH1 0x0 DUP2 DUP2 MSTORE PUSH1 0xE PUSH1 0x20 SWAP1 DUP2 MSTORE PUSH1 0x40 DUP1 DUP4 KECCAK256 SLOAD PUSH1 0xFF AND DUP1 DUP5 MSTORE PUSH1 0xF DUP4 MSTORE SWAP3 DUP2 SWAP1 KECCAK256 DUP1 SLOAD DUP3 MLOAD PUSH1 0x1F PUSH1 0x2 PUSH1 0x0 NOT PUSH1 0x1 DUP6 AND ISZERO PUSH2 0x100 MUL ADD SWAP1 SWAP4 AND SWAP3 SWAP1 SWAP3 DIV SWAP2 DUP3 ADD DUP6 SWAP1 DIV DUP6 MUL DUP2 ADD DUP6 ADD SWAP1 SWAP4 MSTORE DUP1 DUP4 MSTORE PUSH1 0x60 SWAP5 SWAP4 DUP4 ADD DUP3 DUP3 DUP1 ISZERO PUSH2 0xAF0 JUMPI DUP1 PUSH1 0x1F LT PUSH2 0xAC5 JUMPI PUSH2 0x100 DUP1 DUP4 SLOAD DIV MUL DUP4 MSTORE SWAP2 PUSH1 0x20 ADD SWAP2 PUSH2 0xAF0 JUMP JUMPDEST DUP3 ADD SWAP2 SWAP1 PUSH1 0x0 MSTORE PUSH1 0x20 PUSH1 0x0 KECCAK256 SWAP1 JUMPDEST DUP2 SLOAD DUP2 MSTORE SWAP1 PUSH1 0x1 ADD SWAP1 PUSH1 0x20 ADD DUP1 DUP4 GT PUSH2 0xAD3 JUMPI DUP3 SWAP1 SUB PUSH1 0x1F AND DUP3 ADD SWAP2 JUMPDEST POP POP POP POP POP SWAP2 POP POP SWAP2 SWAP1 POP JUMP JUMPDEST PUSH1 0x1 PUSH1 0x1 PUSH1 0xA0 SHL SUB DUP3 AND PUSH1 0x0 SWAP1 DUP2 MSTORE PUSH1 0x1 PUSH1 0x20 MSTORE PUSH1 0x40 DUP2 KECCAK256 PUSH2 0xB25 SWAP1 DUP4 PUSH4 0xFFFFFFFF PUSH2 0x17C1 AND JUMP JUMPDEST SWAP1 POP JUMPDEST SWAP3 SWAP2 POP POP JUMP JUMPDEST PUSH2 0x93B DUP4 DUP4 DUP4 PUSH1 0x40 MLOAD DUP1 PUSH1 0x20 ADD PUSH1 0x40 MSTORE DUP1 PUSH1 0x0 DUP2 MSTORE POP PUSH2 0x10EA JUMP JUMPDEST PUSH2 0xB51 PUSH2 0x154A JUMP JUMPDEST PUSH1 0xA SLOAD PUSH1 0x1 PUSH1 0x1 PUSH1 0xA0 SHL SUB SWAP1 DUP2 AND SWAP2 AND EQ PUSH2 0xBA1 JUMPI PUSH1 0x40 DUP1 MLOAD PUSH3 0x461BCD PUSH1 0xE5 SHL DUP2 MSTORE PUSH1 0x20 PUSH1 0x4 DUP3 ADD DUP2 SWAP1 MSTORE PUSH1 0x24 DUP3 ADD MSTORE PUSH1 0x0 DUP1 MLOAD PUSH1 0x20 PUSH2 0x2740 DUP4 CODECOPY DUP2 MLOAD SWAP2 MSTORE PUSH1 0x44 DUP3 ADD MSTORE SWAP1 MLOAD SWAP1 DUP2 SWAP1 SUB PUSH1 0x64 ADD SWAP1 REVERT JUMPDEST PUSH1 0x0 DUP2 DUP2 MSTORE PUSH1 0xE PUSH1 0x20 SWAP1 DUP2 MSTORE PUSH1 0x40 DUP1 DUP4 KECCAK256 SLOAD PUSH1 0xFF AND DUP1 DUP5 MSTORE PUSH1 0xB SWAP1 SWAP3 MSTORE SWAP1 SWAP2 KECCAK256 SLOAD PUSH2 0xBD3 SWAP1 PUSH1 0x1 PUSH4 0xFFFFFFFF PUSH2 0x17CD AND JUMP JUMPDEST PUSH1 0xFF DUP3 AND PUSH1 0x0 SWAP1 DUP2 MSTORE PUSH1 0xB PUSH1 0x20 SWAP1 DUP2 MSTORE PUSH1 0x40 DUP1 DUP4 KECCAK256 SWAP4 SWAP1 SWAP4 SSTORE PUSH1 0xC SWAP1 MSTORE KECCAK256 SLOAD PUSH2 0xC03 SWAP1 PUSH1 0x1 PUSH4 0xFFFFFFFF PUSH2 0x180F AND JUMP JUMPDEST PUSH1 0xFF DUP3 AND PUSH1 0x0 SWAP1 DUP2 MSTORE PUSH1 0xC PUSH1 0x20 MSTORE PUSH1 0x40 SWAP1 KECCAK256 SSTORE PUSH2 0xC1F DUP3 PUSH2 0x1869 JUMP JUMPDEST POP POP JUMP JUMPDEST PUSH1 0x0 DUP1 PUSH2 0xC37 PUSH1 0x2 DUP5 PUSH4 0xFFFFFFFF PUSH2 0x1942 AND JUMP JUMPDEST POP SWAP4 SWAP3 POP POP POP JUMP JUMPDEST PUSH2 0xC47 PUSH2 0x154A JUMP JUMPDEST PUSH1 0xA SLOAD PUSH1 0x1 PUSH1 0x1 PUSH1 0xA0 SHL SUB SWAP1 DUP2 AND SWAP2 AND EQ PUSH2 0xC97 JUMPI PUSH1 0x40 DUP1 MLOAD PUSH3 0x461BCD PUSH1 0xE5 SHL DUP2 MSTORE PUSH1 0x20 PUSH1 0x4 DUP3 ADD DUP2 SWAP1 MSTORE PUSH1 0x24 DUP3 ADD MSTORE PUSH1 0x0 DUP1 MLOAD PUSH1 0x20 PUSH2 0x2740 DUP4 CODECOPY DUP2 MLOAD SWAP2 MSTORE PUSH1 0x44 DUP3 ADD MSTORE SWAP1 MLOAD SWAP1 DUP2 SWAP1 SUB PUSH1 0x64 ADD SWAP1 REVERT JUMPDEST PUSH1 0xFF DUP4 AND PUSH1 0x0 SWAP1 DUP2 MSTORE PUSH1 0xF PUSH1 0x20 MSTORE PUSH1 0x40 SWAP1 KECCAK256 PUSH2 0xCB4 SWAP1 DUP4 DUP4 PUSH2 0x2423 JUMP JUMPDEST POP POP POP POP JUMP JUMPDEST PUSH1 0x0 PUSH2 0xB28 DUP3 PUSH1 0x40 MLOAD DUP1 PUSH1 0x60 ADD PUSH1 0x40 MSTORE DUP1 PUSH1 0x29 DUP2 MSTORE PUSH1 0x20 ADD PUSH2 0x269D PUSH1 0x29 SWAP2 CODECOPY PUSH1 0x2 SWAP2 SWAP1 PUSH4 0xFFFFFFFF PUSH2 0x195E AND JUMP JUMPDEST PUSH1 0x0 PUSH2 0xCF2 PUSH2 0x154A JUMP JUMPDEST PUSH1 0xA SLOAD PUSH1 0x1 PUSH1 0x1 PUSH1 0xA0 SHL SUB SWAP1 DUP2 AND SWAP2 AND EQ PUSH2 0xD42 JUMPI PUSH1 0x40 DUP1 MLOAD PUSH3 0x461BCD PUSH1 0xE5 SHL DUP2 MSTORE PUSH1 0x20 PUSH1 0x4 DUP3 ADD DUP2 SWAP1 MSTORE PUSH1 0x24 DUP3 ADD MSTORE PUSH1 0x0 DUP1 MLOAD PUSH1 0x20 PUSH2 0x2740 DUP4 CODECOPY DUP2 MLOAD SWAP2 MSTORE PUSH1 0x44 DUP3 ADD MSTORE SWAP1 MLOAD SWAP1 DUP2 SWAP1 SUB PUSH1 0x64 ADD SWAP1 REVERT JUMPDEST PUSH1 0x0 PUSH2 0xD4E PUSH1 0xD PUSH2 0x1975 JUMP JUMPDEST SWAP1 POP PUSH2 0xD5A PUSH1 0xD PUSH2 0x1979 JUMP JUMPDEST PUSH1 0x0 DUP2 DUP2 MSTORE PUSH1 0xE PUSH1 0x20 SWAP1 DUP2 MSTORE PUSH1 0x40 DUP1 DUP4 KECCAK256 DUP1 SLOAD PUSH1 0xFF NOT AND PUSH1 0xFF DUP9 AND SWAP1 DUP2 OR SWAP1 SWAP2 SSTORE DUP4 MSTORE PUSH1 0xB SWAP1 SWAP2 MSTORE SWAP1 KECCAK256 SLOAD PUSH2 0xD90 SWAP1 PUSH1 0x1 PUSH2 0x180F JUMP JUMPDEST PUSH1 0xFF DUP5 AND PUSH1 0x0 SWAP1 DUP2 MSTORE PUSH1 0xB PUSH1 0x20 MSTORE PUSH1 0x40 SWAP1 KECCAK256 SSTORE PUSH2 0xDAD DUP7 DUP3 PUSH2 0x1982 JUMP JUMPDEST PUSH2 0xDED DUP2 DUP7 DUP7 DUP1 DUP1 PUSH1 0x1F ADD PUSH1 0x20 DUP1 SWAP2 DIV MUL PUSH1 0x20 ADD PUSH1 0x40 MLOAD SWAP1 DUP2 ADD PUSH1 0x40 MSTORE DUP1 SWAP4 SWAP3 SWAP2 SWAP1 DUP2 DUP2 MSTORE PUSH1 0x20 ADD DUP4 DUP4 DUP1 DUP3 DUP5 CALLDATACOPY PUSH1 0x0 SWAP3 ADD SWAP2 SWAP1 SWAP2 MSTORE POP PUSH2 0x1ABC SWAP3 POP POP POP JUMP JUMPDEST SWAP1 POP JUMPDEST SWAP5 SWAP4 POP POP POP POP JUMP JUMPDEST PUSH1 0x9 DUP1 SLOAD PUSH1 0x40 DUP1 MLOAD PUSH1 0x20 PUSH1 0x1F PUSH1 0x2 PUSH1 0x0 NOT PUSH2 0x100 PUSH1 0x1 DUP9 AND ISZERO MUL ADD SWAP1 SWAP6 AND SWAP5 SWAP1 SWAP5 DIV SWAP4 DUP5 ADD DUP2 SWAP1 DIV DUP2 MUL DUP3 ADD DUP2 ADD SWAP1 SWAP3 MSTORE DUP3 DUP2 MSTORE PUSH1 0x60 SWAP4 SWAP1 SWAP3 SWAP1 SWAP2 DUP4 ADD DUP3 DUP3 DUP1 ISZERO PUSH2 0x7F8 JUMPI DUP1 PUSH1 0x1F LT PUSH2 0x7CD JUMPI PUSH2 0x100 DUP1 DUP4 SLOAD DIV MUL DUP4 MSTORE SWAP2 PUSH1 0x20 ADD SWAP2 PUSH2 0x7F8 JUMP JUMPDEST PUSH1 0x0 PUSH1 0x1 PUSH1 0x1 PUSH1 0xA0 SHL SUB DUP3 AND PUSH2 0xEA0 JUMPI PUSH1 0x40 MLOAD PUSH3 0x461BCD PUSH1 0xE5 SHL DUP2 MSTORE PUSH1 0x4 ADD DUP1 DUP1 PUSH1 0x20 ADD DUP3 DUP2 SUB DUP3 MSTORE PUSH1 0x2A DUP2 MSTORE PUSH1 0x20 ADD DUP1 PUSH2 0x2673 PUSH1 0x2A SWAP2 CODECOPY PUSH1 0x40 ADD SWAP2 POP POP PUSH1 0x40 MLOAD DUP1 SWAP2 SUB SWAP1 REVERT JUMPDEST PUSH1 0x1 PUSH1 0x1 PUSH1 0xA0 SHL SUB DUP3 AND PUSH1 0x0 SWAP1 DUP2 MSTORE PUSH1 0x1 PUSH1 0x20 MSTORE PUSH1 0x40 SWAP1 KECCAK256 PUSH2 0xB28 SWAP1 PUSH2 0x15BC JUMP JUMPDEST PUSH2 0xEC9 PUSH2 0x154A JUMP JUMPDEST PUSH1 0xA SLOAD PUSH1 0x1 PUSH1 0x1 PUSH1 0xA0 SHL SUB SWAP1 DUP2 AND SWAP2 AND EQ PUSH2 0xF19 JUMPI PUSH1 0x40 DUP1 MLOAD PUSH3 0x461BCD PUSH1 0xE5 SHL DUP2 MSTORE PUSH1 0x20 PUSH1 0x4 DUP3 ADD DUP2 SWAP1 MSTORE PUSH1 0x24 DUP3 ADD MSTORE PUSH1 0x0 DUP1 MLOAD PUSH1 0x20 PUSH2 0x2740 DUP4 CODECOPY DUP2 MLOAD SWAP2 MSTORE PUSH1 0x44 DUP3 ADD MSTORE SWAP1 MLOAD SWAP1 DUP2 SWAP1 SUB PUSH1 0x64 ADD SWAP1 REVERT JUMPDEST PUSH1 0xA SLOAD PUSH1 0x40 MLOAD PUSH1 0x0 SWAP2 PUSH1 0x1 PUSH1 0x1 PUSH1 0xA0 SHL SUB AND SWAP1 PUSH32 0x8BE0079C531659141344CD1FD0A4F28419497F9722A3DAAFE3B4186F6B6457E0 SWAP1 DUP4 SWAP1 LOG3 PUSH1 0xA DUP1 SLOAD PUSH1 0x1 PUSH1 0x1 PUSH1 0xA0 SHL SUB NOT AND SWAP1 SSTORE JUMP JUMPDEST PUSH1 0xA SLOAD PUSH1 0x1 PUSH1 0x1 PUSH1 0xA0 SHL SUB AND SWAP1 JUMP JUMPDEST PUSH1 0x7 DUP1 SLOAD PUSH1 0x40 DUP1 MLOAD PUSH1 0x20 PUSH1 0x1F PUSH1 0x2 PUSH1 0x0 NOT PUSH2 0x100 PUSH1 0x1 DUP9 AND ISZERO MUL ADD SWAP1 SWAP6 AND SWAP5 SWAP1 SWAP5 DIV SWAP4 DUP5 ADD DUP2 SWAP1 DIV DUP2 MUL DUP3 ADD DUP2 ADD SWAP1 SWAP3 MSTORE DUP3 DUP2 MSTORE PUSH1 0x60 SWAP4 SWAP1 SWAP3 SWAP1 SWAP2 DUP4 ADD DUP3 DUP3 DUP1 ISZERO PUSH2 0x7F8 JUMPI DUP1 PUSH1 0x1F LT PUSH2 0x7CD JUMPI PUSH2 0x100 DUP1 DUP4 SLOAD DIV MUL DUP4 MSTORE SWAP2 PUSH1 0x20 ADD SWAP2 PUSH2 0x7F8 JUMP JUMPDEST PUSH1 0xB PUSH1 0x20 MSTORE PUSH1 0x0 SWAP1 DUP2 MSTORE PUSH1 0x40 SWAP1 KECCAK256 SLOAD DUP2 JUMP JUMPDEST PUSH2 0xFED PUSH2 0x154A JUMP JUMPDEST PUSH1 0x1 PUSH1 0x1 PUSH1 0xA0 SHL SUB AND DUP3 PUSH1 0x1 PUSH1 0x1 PUSH1 0xA0 SHL SUB AND EQ ISZERO PUSH2 0x1053 JUMPI PUSH1 0x40 DUP1 MLOAD PUSH3 0x461BCD PUSH1 0xE5 SHL DUP2 MSTORE PUSH1 0x20 PUSH1 0x4 DUP3 ADD MSTORE PUSH1 0x19 PUSH1 0x24 DUP3 ADD MSTORE PUSH32 0x4552433732313A20617070726F766520746F2063616C6C657200000000000000 PUSH1 0x44 DUP3 ADD MSTORE SWAP1 MLOAD SWAP1 DUP2 SWAP1 SUB PUSH1 0x64 ADD SWAP1 REVERT JUMPDEST DUP1 PUSH1 0x5 PUSH1 0x0 PUSH2 0x1060 PUSH2 0x154A JUMP JUMPDEST PUSH1 0x1 PUSH1 0x1 PUSH1 0xA0 SHL SUB SWAP1 DUP2 AND DUP3 MSTORE PUSH1 0x20 DUP1 DUP4 ADD SWAP4 SWAP1 SWAP4 MSTORE PUSH1 0x40 SWAP2 DUP3 ADD PUSH1 0x0 SWAP1 DUP2 KECCAK256 SWAP2 DUP8 AND DUP1 DUP3 MSTORE SWAP2 SWAP1 SWAP4 MSTORE SWAP2 KECCAK256 DUP1 SLOAD PUSH1 0xFF NOT AND SWAP3 ISZERO ISZERO SWAP3 SWAP1 SWAP3 OR SWAP1 SWAP2 SSTORE PUSH2 0x10A4 PUSH2 0x154A JUMP JUMPDEST PUSH1 0x40 DUP1 MLOAD DUP5 ISZERO ISZERO DUP2 MSTORE SWAP1 MLOAD PUSH1 0x1 PUSH1 0x1 PUSH1 0xA0 SHL SUB SWAP3 SWAP1 SWAP3 AND SWAP2 PUSH32 0x17307EAB39AB6107E8899845AD3D59BD9653F200F220920489CA2B5937696C31 SWAP2 DUP2 SWAP1 SUB PUSH1 0x20 ADD SWAP1 LOG3 POP POP JUMP JUMPDEST PUSH2 0x10FB PUSH2 0x10F5 PUSH2 0x154A JUMP JUMPDEST DUP4 PUSH2 0x15C7 JUMP JUMPDEST PUSH2 0x1136 JUMPI PUSH1 0x40 MLOAD PUSH3 0x461BCD PUSH1 0xE5 SHL DUP2 MSTORE PUSH1 0x4 ADD DUP1 DUP1 PUSH1 0x20 ADD DUP3 DUP2 SUB DUP3 MSTORE PUSH1 0x31 DUP2 MSTORE PUSH1 0x20 ADD DUP1 PUSH2 0x27D9 PUSH1 0x31 SWAP2 CODECOPY PUSH1 0x40 ADD SWAP2 POP POP PUSH1 0x40 MLOAD DUP1 SWAP2 SUB SWAP1 REVERT JUMPDEST PUSH2 0xCB4 DUP5 DUP5 DUP5 DUP5 PUSH2 0x1B1F JUMP JUMPDEST PUSH1 0x0 SWAP1 DUP2 MSTORE PUSH1 0xE PUSH1 0x20 MSTORE PUSH1 0x40 SWAP1 KECCAK256 SLOAD PUSH1 0xFF AND SWAP1 JUMP JUMPDEST PUSH1 0x60 PUSH2 0x1162 DUP3 PUSH2 0x1537 JUMP JUMPDEST PUSH2 0x119D JUMPI PUSH1 0x40 MLOAD PUSH3 0x461BCD PUSH1 0xE5 SHL DUP2 MSTORE PUSH1 0x4 ADD DUP1 DUP1 PUSH1 0x20 ADD DUP3 DUP2 SUB DUP3 MSTORE PUSH1 0x2F DUP2 MSTORE PUSH1 0x20 ADD DUP1 PUSH2 0x2789 PUSH1 0x2F SWAP2 CODECOPY PUSH1 0x40 ADD SWAP2 POP POP PUSH1 0x40 MLOAD DUP1 SWAP2 SUB SWAP1 REVERT JUMPDEST PUSH1 0x0 DUP3 DUP2 MSTORE PUSH1 0x8 PUSH1 0x20 SWAP1 DUP2 MSTORE PUSH1 0x40 SWAP2 DUP3 SWAP1 KECCAK256 DUP1 SLOAD DUP4 MLOAD PUSH1 0x1F PUSH1 0x2 PUSH1 0x0 NOT PUSH2 0x100 PUSH1 0x1 DUP7 AND ISZERO MUL ADD SWAP1 SWAP4 AND SWAP3 SWAP1 SWAP3 DIV SWAP2 DUP3 ADD DUP5 SWAP1 DIV DUP5 MUL DUP2 ADD DUP5 ADD SWAP1 SWAP5 MSTORE DUP1 DUP5 MSTORE PUSH1 0x60 SWAP4 SWAP3 DUP4 ADD DUP3 DUP3 DUP1 ISZERO PUSH2 0x1232 JUMPI DUP1 PUSH1 0x1F LT PUSH2 0x1207 JUMPI PUSH2 0x100 DUP1 DUP4 SLOAD DIV MUL DUP4 MSTORE SWAP2 PUSH1 0x20 ADD SWAP2 PUSH2 0x1232 JUMP JUMPDEST DUP3 ADD SWAP2 SWAP1 PUSH1 0x0 MSTORE PUSH1 0x20 PUSH1 0x0 KECCAK256 SWAP1 JUMPDEST DUP2 SLOAD DUP2 MSTORE SWAP1 PUSH1 0x1 ADD SWAP1 PUSH1 0x20 ADD DUP1 DUP4 GT PUSH2 0x1215 JUMPI DUP3 SWAP1 SUB PUSH1 0x1F AND DUP3 ADD SWAP2 JUMPDEST POP POP PUSH1 0x9 SLOAD SWAP4 SWAP5 POP POP POP POP PUSH1 0x2 PUSH1 0x0 NOT PUSH2 0x100 PUSH1 0x1 DUP5 AND ISZERO MUL ADD SWAP1 SWAP2 AND DIV PUSH2 0x125B JUMPI SWAP1 POP PUSH2 0x767 JUMP JUMPDEST DUP1 MLOAD ISZERO PUSH2 0x132C JUMPI PUSH1 0x9 DUP2 PUSH1 0x40 MLOAD PUSH1 0x20 ADD DUP1 DUP4 DUP1 SLOAD PUSH1 0x1 DUP2 PUSH1 0x1 AND ISZERO PUSH2 0x100 MUL SUB AND PUSH1 0x2 SWAP1 DIV DUP1 ISZERO PUSH2 0x12C3 JUMPI DUP1 PUSH1 0x1F LT PUSH2 0x12A1 JUMPI PUSH2 0x100 DUP1 DUP4 SLOAD DIV MUL DUP4 MSTORE SWAP2 DUP3 ADD SWAP2 PUSH2 0x12C3 JUMP JUMPDEST DUP3 ADD SWAP2 SWAP1 PUSH1 0x0 MSTORE PUSH1 0x20 PUSH1 0x0 KECCAK256 SWAP1 JUMPDEST DUP2 SLOAD DUP2 MSTORE SWAP1 PUSH1 0x1 ADD SWAP1 PUSH1 0x20 ADD DUP1 DUP4 GT PUSH2 0x12AF JUMPI JUMPDEST POP POP DUP3 MLOAD PUSH1 0x20 DUP5 ADD SWAP1 DUP1 DUP4 DUP4 JUMPDEST PUSH1 0x20 DUP4 LT PUSH2 0x12EF JUMPI DUP1 MLOAD DUP3 MSTORE PUSH1 0x1F NOT SWAP1 SWAP3 ADD SWAP2 PUSH1 0x20 SWAP2 DUP3 ADD SWAP2 ADD PUSH2 0x12D0 JUMP JUMPDEST PUSH1 0x1 DUP4 PUSH1 0x20 SUB PUSH2 0x100 EXP SUB DUP1 NOT DUP3 MLOAD AND DUP2 DUP5 MLOAD AND DUP1 DUP3 OR DUP6 MSTORE POP POP POP POP POP POP SWAP1 POP ADD SWAP3 POP POP POP PUSH1 0x40 MLOAD PUSH1 0x20 DUP2 DUP4 SUB SUB DUP2 MSTORE SWAP1 PUSH1 0x40 MSTORE SWAP2 POP POP PUSH2 0x767 JUMP JUMPDEST PUSH1 0x9 PUSH2 0x1337 DUP5 PUSH2 0x1B71 JUMP JUMPDEST PUSH1 0x40 MLOAD PUSH1 0x20 ADD DUP1 DUP4 DUP1 SLOAD PUSH1 0x1 DUP2 PUSH1 0x1 AND ISZERO PUSH2 0x100 MUL SUB AND PUSH1 0x2 SWAP1 DIV DUP1 ISZERO PUSH2 0x1395 JUMPI DUP1 PUSH1 0x1F LT PUSH2 0x1373 JUMPI PUSH2 0x100 DUP1 DUP4 SLOAD DIV MUL DUP4 MSTORE SWAP2 DUP3 ADD SWAP2 PUSH2 0x1395 JUMP JUMPDEST DUP3 ADD SWAP2 SWAP1 PUSH1 0x0 MSTORE PUSH1 0x20 PUSH1 0x0 KECCAK256 SWAP1 JUMPDEST DUP2 SLOAD DUP2 MSTORE SWAP1 PUSH1 0x1 ADD SWAP1 PUSH1 0x20 ADD DUP1 DUP4 GT PUSH2 0x1381 JUMPI JUMPDEST POP POP DUP3 MLOAD PUSH1 0x20 DUP5 ADD SWAP1 DUP1 DUP4 DUP4 JUMPDEST PUSH1 0x20 DUP4 LT PUSH2 0x13C1 JUMPI DUP1 MLOAD DUP3 MSTORE PUSH1 0x1F NOT SWAP1 SWAP3 ADD SWAP2 PUSH1 0x20 SWAP2 DUP3 ADD SWAP2 ADD PUSH2 0x13A2 JUMP JUMPDEST PUSH1 0x1 DUP4 PUSH1 0x20 SUB PUSH2 0x100 EXP SUB DUP1 NOT DUP3 MLOAD AND DUP2 DUP5 MLOAD AND DUP1 DUP3 OR DUP6 MSTORE POP POP POP POP POP POP SWAP1 POP ADD SWAP3 POP POP POP PUSH1 0x40 MLOAD PUSH1 0x20 DUP2 DUP4 SUB SUB DUP2 MSTORE SWAP1 PUSH1 0x40 MSTORE SWAP2 POP POP SWAP2 SWAP1 POP JUMP JUMPDEST PUSH1 0xC PUSH1 0x20 MSTORE PUSH1 0x0 SWAP1 DUP2 MSTORE PUSH1 0x40 SWAP1 KECCAK256 SLOAD DUP2 JUMP JUMPDEST PUSH1 0x1 PUSH1 0x1 PUSH1 0xA0 SHL SUB SWAP2 DUP3 AND PUSH1 0x0 SWAP1 DUP2 MSTORE PUSH1 0x5 PUSH1 0x20 SWAP1 DUP2 MSTORE PUSH1 0x40 DUP1 DUP4 KECCAK256 SWAP4 SWAP1 SWAP5 AND DUP3 MSTORE SWAP2 SWAP1 SWAP2 MSTORE KECCAK256 SLOAD PUSH1 0xFF AND SWAP1 JUMP JUMPDEST PUSH2 0x1446 PUSH2 0x154A JUMP JUMPDEST PUSH1 0xA SLOAD PUSH1 0x1 PUSH1 0x1 PUSH1 0xA0 SHL SUB SWAP1 DUP2 AND SWAP2 AND EQ PUSH2 0x1496 JUMPI PUSH1 0x40 DUP1 MLOAD PUSH3 0x461BCD PUSH1 0xE5 SHL DUP2 MSTORE PUSH1 0x20 PUSH1 0x4 DUP3 ADD DUP2 SWAP1 MSTORE PUSH1 0x24 DUP3 ADD MSTORE PUSH1 0x0 DUP1 MLOAD PUSH1 0x20 PUSH2 0x2740 DUP4 CODECOPY DUP2 MLOAD SWAP2 MSTORE PUSH1 0x44 DUP3 ADD MSTORE SWAP1 MLOAD SWAP1 DUP2 SWAP1 SUB PUSH1 0x64 ADD SWAP1 REVERT JUMPDEST PUSH1 0x1 PUSH1 0x1 PUSH1 0xA0 SHL SUB DUP2 AND PUSH2 0x14DB JUMPI PUSH1 0x40 MLOAD PUSH3 0x461BCD PUSH1 0xE5 SHL DUP2 MSTORE PUSH1 0x4 ADD DUP1 DUP1 PUSH1 0x20 ADD DUP3 DUP2 SUB DUP3 MSTORE PUSH1 0x26 DUP2 MSTORE PUSH1 0x20 ADD DUP1 PUSH2 0x25C5 PUSH1 0x26 SWAP2 CODECOPY PUSH1 0x40 ADD SWAP2 POP POP PUSH1 0x40 MLOAD DUP1 SWAP2 SUB SWAP1 REVERT JUMPDEST PUSH1 0xA SLOAD PUSH1 0x40 MLOAD PUSH1 0x1 PUSH1 0x1 PUSH1 0xA0 SHL SUB DUP1 DUP5 AND SWAP3 AND SWAP1 PUSH32 0x8BE0079C531659141344CD1FD0A4F28419497F9722A3DAAFE3B4186F6B6457E0 SWAP1 PUSH1 0x0 SWAP1 LOG3 PUSH1 0xA DUP1 SLOAD PUSH1 0x1 PUSH1 0x1 PUSH1 0xA0 SHL SUB NOT AND PUSH1 0x1 PUSH1 0x1 PUSH1 0xA0 SHL SUB SWAP3 SWAP1 SWAP3 AND SWAP2 SWAP1 SWAP2 OR SWAP1 SSTORE JUMP JUMPDEST PUSH1 0x0 PUSH2 0xB28 PUSH1 0x2 DUP4 PUSH4 0xFFFFFFFF PUSH2 0x1C35 AND JUMP JUMPDEST CALLER SWAP1 JUMP JUMPDEST PUSH1 0x0 DUP2 DUP2 MSTORE PUSH1 0x4 PUSH1 0x20 MSTORE PUSH1 0x40 SWAP1 KECCAK256 DUP1 SLOAD PUSH1 0x1 PUSH1 0x1 PUSH1 0xA0 SHL SUB NOT AND PUSH1 0x1 PUSH1 0x1 PUSH1 0xA0 SHL SUB DUP5 AND SWAP1 DUP2 OR SWAP1 SWAP2 SSTORE DUP2 SWAP1 PUSH2 0x1583 DUP3 PUSH2 0xCBA JUMP JUMPDEST PUSH1 0x1 PUSH1 0x1 PUSH1 0xA0 SHL SUB AND PUSH32 0x8C5BE1E5EBEC7D5BD14F71427D1E84F3DD0314C0F7B2291E5B200AC8C7C3B925 PUSH1 0x40 MLOAD PUSH1 0x40 MLOAD DUP1 SWAP2 SUB SWAP1 LOG4 POP POP JUMP JUMPDEST PUSH1 0x0 PUSH2 0xB28 DUP3 PUSH2 0x1975 JUMP JUMPDEST PUSH1 0x0 PUSH2 0x15D2 DUP3 PUSH2 0x1537 JUMP JUMPDEST PUSH2 0x160D JUMPI PUSH1 0x40 MLOAD PUSH3 0x461BCD PUSH1 0xE5 SHL DUP2 MSTORE PUSH1 0x4 ADD DUP1 DUP1 PUSH1 0x20 ADD DUP3 DUP2 SUB DUP3 MSTORE PUSH1 0x2C DUP2 MSTORE PUSH1 0x20 ADD DUP1 PUSH2 0x260F PUSH1 0x2C SWAP2 CODECOPY PUSH1 0x40 ADD SWAP2 POP POP PUSH1 0x40 MLOAD DUP1 SWAP2 SUB SWAP1 REVERT JUMPDEST PUSH1 0x0 PUSH2 0x1618 DUP4 PUSH2 0xCBA JUMP JUMPDEST SWAP1 POP DUP1 PUSH1 0x1 PUSH1 0x1 PUSH1 0xA0 SHL SUB AND DUP5 PUSH1 0x1 PUSH1 0x1 PUSH1 0xA0 SHL SUB AND EQ DUP1 PUSH2 0x1653 JUMPI POP DUP4 PUSH1 0x1 PUSH1 0x1 PUSH1 0xA0 SHL SUB AND PUSH2 0x1648 DUP5 PUSH2 0x803 JUMP JUMPDEST PUSH1 0x1 PUSH1 0x1 PUSH1 0xA0 SHL SUB AND EQ JUMPDEST DUP1 PUSH2 0xDF0 JUMPI POP PUSH2 0xDF0 DUP2 DUP6 PUSH2 0x1410 JUMP JUMPDEST DUP3 PUSH1 0x1 PUSH1 0x1 PUSH1 0xA0 SHL SUB AND PUSH2 0x1676 DUP3 PUSH2 0xCBA JUMP JUMPDEST PUSH1 0x1 PUSH1 0x1 PUSH1 0xA0 SHL SUB AND EQ PUSH2 0x16BB JUMPI PUSH1 0x40 MLOAD PUSH3 0x461BCD PUSH1 0xE5 SHL DUP2 MSTORE PUSH1 0x4 ADD DUP1 DUP1 PUSH1 0x20 ADD DUP3 DUP2 SUB DUP3 MSTORE PUSH1 0x29 DUP2 MSTORE PUSH1 0x20 ADD DUP1 PUSH2 0x2760 PUSH1 0x29 SWAP2 CODECOPY PUSH1 0x40 ADD SWAP2 POP POP PUSH1 0x40 MLOAD DUP1 SWAP2 SUB SWAP1 REVERT JUMPDEST PUSH1 0x1 PUSH1 0x1 PUSH1 0xA0 SHL SUB DUP3 AND PUSH2 0x1700 JUMPI PUSH1 0x40 MLOAD PUSH3 0x461BCD PUSH1 0xE5 SHL DUP2 MSTORE PUSH1 0x4 ADD DUP1 DUP1 PUSH1 0x20 ADD DUP3 DUP2 SUB DUP3 MSTORE PUSH1 0x24 DUP2 MSTORE PUSH1 0x20 ADD DUP1 PUSH2 0x25EB PUSH1 0x24 SWAP2 CODECOPY PUSH1 0x40 ADD SWAP2 POP POP PUSH1 0x40 MLOAD DUP1 SWAP2 SUB SWAP1 REVERT JUMPDEST PUSH2 0x170B DUP4 DUP4 DUP4 PUSH2 0x93B JUMP JUMPDEST PUSH2 0x1716 PUSH1 0x0 DUP3 PUSH2 0x154E JUMP JUMPDEST PUSH1 0x1 PUSH1 0x1 PUSH1 0xA0 SHL SUB DUP4 AND PUSH1 0x0 SWAP1 DUP2 MSTORE PUSH1 0x1 PUSH1 0x20 MSTORE PUSH1 0x40 SWAP1 KECCAK256 PUSH2 0x173E SWAP1 DUP3 PUSH4 0xFFFFFFFF PUSH2 0x1C41 AND JUMP JUMPDEST POP PUSH1 0x1 PUSH1 0x1 PUSH1 0xA0 SHL SUB DUP3 AND PUSH1 0x0 SWAP1 DUP2 MSTORE PUSH1 0x1 PUSH1 0x20 MSTORE PUSH1 0x40 SWAP1 KECCAK256 PUSH2 0x1767 SWAP1 DUP3 PUSH4 0xFFFFFFFF PUSH2 0x1C4D AND JUMP JUMPDEST POP PUSH2 0x177A PUSH1 0x2 DUP3 DUP5 PUSH4 0xFFFFFFFF PUSH2 0x1C59 AND JUMP JUMPDEST POP DUP1 DUP3 PUSH1 0x1 PUSH1 0x1 PUSH1 0xA0 SHL SUB AND DUP5 PUSH1 0x1 PUSH1 0x1 PUSH1 0xA0 SHL SUB AND PUSH32 0xDDF252AD1BE2C89B69C2B068FC378DAA952BA7F163C4A11628F55A4DF523B3EF PUSH1 0x40 MLOAD PUSH1 0x40 MLOAD DUP1 SWAP2 SUB SWAP1 LOG4 POP POP POP JUMP JUMPDEST PUSH1 0x0 PUSH2 0xB25 DUP4 DUP4 PUSH2 0x1C6F JUMP JUMPDEST PUSH1 0x0 PUSH2 0xB25 DUP4 DUP4 PUSH1 0x40 MLOAD DUP1 PUSH1 0x40 ADD PUSH1 0x40 MSTORE DUP1 PUSH1 0x1E DUP2 MSTORE PUSH1 0x20 ADD PUSH32 0x536166654D6174683A207375627472616374696F6E206F766572666C6F770000 DUP2 MSTORE POP PUSH2 0x1CD3 JUMP JUMPDEST PUSH1 0x0 DUP3 DUP3 ADD DUP4 DUP2 LT ISZERO PUSH2 0xB25 JUMPI PUSH1 0x40 DUP1 MLOAD PUSH3 0x461BCD PUSH1 0xE5 SHL DUP2 MSTORE PUSH1 0x20 PUSH1 0x4 DUP3 ADD MSTORE PUSH1 0x1B PUSH1 0x24 DUP3 ADD MSTORE PUSH32 0x536166654D6174683A206164646974696F6E206F766572666C6F770000000000 PUSH1 0x44 DUP3 ADD MSTORE SWAP1 MLOAD SWAP1 DUP2 SWAP1 SUB PUSH1 0x64 ADD SWAP1 REVERT JUMPDEST PUSH1 0x0 PUSH2 0x1874 DUP3 PUSH2 0xCBA JUMP JUMPDEST SWAP1 POP PUSH2 0x1882 DUP2 PUSH1 0x0 DUP5 PUSH2 0x93B JUMP JUMPDEST PUSH2 0x188D PUSH1 0x0 DUP4 PUSH2 0x154E JUMP JUMPDEST PUSH1 0x0 DUP3 DUP2 MSTORE PUSH1 0x8 PUSH1 0x20 MSTORE PUSH1 0x40 SWAP1 KECCAK256 SLOAD PUSH1 0x2 PUSH1 0x0 NOT PUSH2 0x100 PUSH1 0x1 DUP5 AND ISZERO MUL ADD SWAP1 SWAP2 AND DIV ISZERO PUSH2 0x18CB JUMPI PUSH1 0x0 DUP3 DUP2 MSTORE PUSH1 0x8 PUSH1 0x20 MSTORE PUSH1 0x40 DUP2 KECCAK256 PUSH2 0x18CB SWAP2 PUSH2 0x24A1 JUMP JUMPDEST PUSH1 0x1 PUSH1 0x1 PUSH1 0xA0 SHL SUB DUP2 AND PUSH1 0x0 SWAP1 DUP2 MSTORE PUSH1 0x1 PUSH1 0x20 MSTORE PUSH1 0x40 SWAP1 KECCAK256 PUSH2 0x18F3 SWAP1 DUP4 PUSH4 0xFFFFFFFF PUSH2 0x1C41 AND JUMP JUMPDEST POP PUSH2 0x1905 PUSH1 0x2 DUP4 PUSH4 0xFFFFFFFF PUSH2 0x1D6A AND JUMP JUMPDEST POP PUSH1 0x40 MLOAD DUP3 SWAP1 PUSH1 0x0 SWAP1 PUSH1 0x1 PUSH1 0x1 PUSH1 0xA0 SHL SUB DUP5 AND SWAP1 PUSH32 0xDDF252AD1BE2C89B69C2B068FC378DAA952BA7F163C4A11628F55A4DF523B3EF SWAP1 DUP4 SWAP1 LOG4 POP POP JUMP JUMPDEST PUSH1 0x0 DUP1 DUP1 DUP1 PUSH2 0x1951 DUP7 DUP7 PUSH2 0x1D76 JUMP JUMPDEST SWAP1 SWAP8 SWAP1 SWAP7 POP SWAP5 POP POP POP POP POP JUMP JUMPDEST PUSH1 0x0 PUSH2 0x196B DUP5 DUP5 DUP5 PUSH2 0x1DF1 JUMP JUMPDEST SWAP1 POP JUMPDEST SWAP4 SWAP3 POP POP POP JUMP JUMPDEST SLOAD SWAP1 JUMP JUMPDEST DUP1 SLOAD PUSH1 0x1 ADD SWAP1 SSTORE JUMP JUMPDEST PUSH1 0x1 PUSH1 0x1 PUSH1 0xA0 SHL SUB DUP3 AND PUSH2 0x19DD JUMPI PUSH1 0x40 DUP1 MLOAD PUSH3 0x461BCD PUSH1 0xE5 SHL DUP2 MSTORE PUSH1 0x20 PUSH1 0x4 DUP3 ADD DUP2 SWAP1 MSTORE PUSH1 0x24 DUP3 ADD MSTORE PUSH32 0x4552433732313A206D696E7420746F20746865207A65726F2061646472657373 PUSH1 0x44 DUP3 ADD MSTORE SWAP1 MLOAD SWAP1 DUP2 SWAP1 SUB PUSH1 0x64 ADD SWAP1 REVERT JUMPDEST PUSH2 0x19E6 DUP2 PUSH2 0x1537 JUMP JUMPDEST ISZERO PUSH2 0x1A38 JUMPI PUSH1 0x40 DUP1 MLOAD PUSH3 0x461BCD PUSH1 0xE5 SHL DUP2 MSTORE PUSH1 0x20 PUSH1 0x4 DUP3 ADD MSTORE PUSH1 0x1C PUSH1 0x24 DUP3 ADD MSTORE PUSH32 0x4552433732313A20746F6B656E20616C7265616479206D696E74656400000000 PUSH1 0x44 DUP3 ADD MSTORE SWAP1 MLOAD SWAP1 DUP2 SWAP1 SUB PUSH1 0x64 ADD SWAP1 REVERT JUMPDEST PUSH2 0x1A44 PUSH1 0x0 DUP4 DUP4 PUSH2 0x93B JUMP JUMPDEST PUSH1 0x1 PUSH1 0x1 PUSH1 0xA0 SHL SUB DUP3 AND PUSH1 0x0 SWAP1 DUP2 MSTORE PUSH1 0x1 PUSH1 0x20 MSTORE PUSH1 0x40 SWAP1 KECCAK256 PUSH2 0x1A6C SWAP1 DUP3 PUSH4 0xFFFFFFFF PUSH2 0x1C4D AND JUMP JUMPDEST POP PUSH2 0x1A7F PUSH1 0x2 DUP3 DUP5 PUSH4 0xFFFFFFFF PUSH2 0x1C59 AND JUMP JUMPDEST POP PUSH1 0x40 MLOAD DUP2 SWAP1 PUSH1 0x1 PUSH1 0x1 PUSH1 0xA0 SHL SUB DUP5 AND SWAP1 PUSH1 0x0 SWAP1 PUSH32 0xDDF252AD1BE2C89B69C2B068FC378DAA952BA7F163C4A11628F55A4DF523B3EF SWAP1 DUP3 SWAP1 LOG4 POP POP JUMP JUMPDEST PUSH2 0x1AC5 DUP3 PUSH2 0x1537 JUMP JUMPDEST PUSH2 0x1B00 JUMPI PUSH1 0x40 MLOAD PUSH3 0x461BCD PUSH1 0xE5 SHL DUP2 MSTORE PUSH1 0x4 ADD DUP1 DUP1 PUSH1 0x20 ADD DUP3 DUP2 SUB DUP3 MSTORE PUSH1 0x2C DUP2 MSTORE PUSH1 0x20 ADD DUP1 PUSH2 0x2714 PUSH1 0x2C SWAP2 CODECOPY PUSH1 0x40 ADD SWAP2 POP POP PUSH1 0x40 MLOAD DUP1 SWAP2 SUB SWAP1 REVERT JUMPDEST PUSH1 0x0 DUP3 DUP2 MSTORE PUSH1 0x8 PUSH1 0x20 SWAP1 DUP2 MSTORE PUSH1 0x40 SWAP1 SWAP2 KECCAK256 DUP3 MLOAD PUSH2 0x93B SWAP3 DUP5 ADD SWAP1 PUSH2 0x24E8 JUMP JUMPDEST PUSH2 0x1B2A DUP5 DUP5 DUP5 PUSH2 0x1663 JUMP JUMPDEST PUSH2 0x1B36 DUP5 DUP5 DUP5 DUP5 PUSH2 0x1E7E JUMP JUMPDEST PUSH2 0xCB4 JUMPI PUSH1 0x40 MLOAD PUSH3 0x461BCD PUSH1 0xE5 SHL DUP2 MSTORE PUSH1 0x4 ADD DUP1 DUP1 PUSH1 0x20 ADD DUP3 DUP2 SUB DUP3 MSTORE PUSH1 0x32 DUP2 MSTORE PUSH1 0x20 ADD DUP1 PUSH2 0x2593 PUSH1 0x32 SWAP2 CODECOPY PUSH1 0x40 ADD SWAP2 POP POP PUSH1 0x40 MLOAD DUP1 SWAP2 SUB SWAP1 REVERT JUMPDEST PUSH1 0x60 DUP2 PUSH2 0x1B96 JUMPI POP PUSH1 0x40 DUP1 MLOAD DUP1 DUP3 ADD SWAP1 SWAP2 MSTORE PUSH1 0x1 DUP2 MSTORE PUSH1 0x3 PUSH1 0xFC SHL PUSH1 0x20 DUP3 ADD MSTORE PUSH2 0x767 JUMP JUMPDEST DUP2 PUSH1 0x0 JUMPDEST DUP2 ISZERO PUSH2 0x1BAE JUMPI PUSH1 0x1 ADD PUSH1 0xA DUP3 DIV SWAP2 POP PUSH2 0x1B9A JUMP JUMPDEST PUSH1 0x60 DUP2 PUSH1 0x40 MLOAD SWAP1 DUP1 DUP3 MSTORE DUP1 PUSH1 0x1F ADD PUSH1 0x1F NOT AND PUSH1 0x20 ADD DUP3 ADD PUSH1 0x40 MSTORE DUP1 ISZERO PUSH2 0x1BDB JUMPI PUSH1 0x20 DUP3 ADD DUP2 DUP1 CALLDATASIZE DUP4 CALLDATACOPY ADD SWAP1 POP JUMPDEST POP DUP6 SWAP4 POP SWAP1 POP PUSH1 0x0 NOT DUP3 ADD JUMPDEST DUP4 ISZERO PUSH2 0x1C2C JUMPI PUSH1 0xA DUP5 MOD PUSH1 0x30 ADD PUSH1 0xF8 SHL DUP3 DUP3 DUP1 PUSH1 0x1 SWAP1 SUB SWAP4 POP DUP2 MLOAD DUP2 LT PUSH2 0x1C0A JUMPI INVALID JUMPDEST PUSH1 0x20 ADD ADD SWAP1 PUSH1 0x1 PUSH1 0x1 PUSH1 0xF8 SHL SUB NOT AND SWAP1 DUP2 PUSH1 0x0 BYTE SWAP1 MSTORE8 POP PUSH1 0xA DUP5 DIV SWAP4 POP PUSH2 0x1BE7 JUMP JUMPDEST POP SWAP5 SWAP4 POP POP POP POP JUMP JUMPDEST PUSH1 0x0 PUSH2 0xB25 DUP4 DUP4 PUSH2 0x1FFE JUMP JUMPDEST PUSH1 0x0 PUSH2 0xB25 DUP4 DUP4 PUSH2 0x2016 JUMP JUMPDEST PUSH1 0x0 PUSH2 0xB25 DUP4 DUP4 PUSH2 0x20DC JUMP JUMPDEST PUSH1 0x0 PUSH2 0x196B DUP5 DUP5 PUSH1 0x1 PUSH1 0x1 PUSH1 0xA0 SHL SUB DUP6 AND PUSH2 0x2126 JUMP JUMPDEST DUP2 SLOAD PUSH1 0x0 SWAP1 DUP3 LT PUSH2 0x1CB1 JUMPI PUSH1 0x40 MLOAD PUSH3 0x461BCD PUSH1 0xE5 SHL DUP2 MSTORE PUSH1 0x4 ADD DUP1 DUP1 PUSH1 0x20 ADD DUP3 DUP2 SUB DUP3 MSTORE PUSH1 0x22 DUP2 MSTORE PUSH1 0x20 ADD DUP1 PUSH2 0x2571 PUSH1 0x22 SWAP2 CODECOPY PUSH1 0x40 ADD SWAP2 POP POP PUSH1 0x40 MLOAD DUP1 SWAP2 SUB SWAP1 REVERT JUMPDEST DUP3 PUSH1 0x0 ADD DUP3 DUP2 SLOAD DUP2 LT PUSH2 0x1CC0 JUMPI INVALID JUMPDEST SWAP1 PUSH1 0x0 MSTORE PUSH1 0x20 PUSH1 0x0 KECCAK256 ADD SLOAD SWAP1 POP SWAP3 SWAP2 POP POP JUMP JUMPDEST PUSH1 0x0 DUP2 DUP5 DUP5 GT ISZERO PUSH2 0x1D62 JUMPI PUSH1 0x40 MLOAD PUSH3 0x461BCD PUSH1 0xE5 SHL DUP2 MSTORE PUSH1 0x4 ADD DUP1 DUP1 PUSH1 0x20 ADD DUP3 DUP2 SUB DUP3 MSTORE DUP4 DUP2 DUP2 MLOAD DUP2 MSTORE PUSH1 0x20 ADD SWAP2 POP DUP1 MLOAD SWAP1 PUSH1 0x20 ADD SWAP1 DUP1 DUP4 DUP4 PUSH1 0x0 JUMPDEST DUP4 DUP2 LT ISZERO PUSH2 0x1D27 JUMPI DUP2 DUP2 ADD MLOAD DUP4 DUP3 ADD MSTORE PUSH1 0x20 ADD PUSH2 0x1D0F JUMP JUMPDEST POP POP POP POP SWAP1 POP SWAP1 DUP2 ADD SWAP1 PUSH1 0x1F AND DUP1 ISZERO PUSH2 0x1D54 JUMPI DUP1 DUP3 SUB DUP1 MLOAD PUSH1 0x1 DUP4 PUSH1 0x20 SUB PUSH2 0x100 EXP SUB NOT AND DUP2 MSTORE PUSH1 0x20 ADD SWAP2 POP JUMPDEST POP SWAP3 POP POP POP PUSH1 0x40 MLOAD DUP1 SWAP2 SUB SWAP1 REVERT JUMPDEST POP POP POP SWAP1 SUB SWAP1 JUMP JUMPDEST PUSH1 0x0 PUSH2 0xB25 DUP4 DUP4 PUSH2 0x21BD JUMP JUMPDEST DUP2 SLOAD PUSH1 0x0 SWAP1 DUP2 SWAP1 DUP4 LT PUSH2 0x1DBA JUMPI PUSH1 0x40 MLOAD PUSH3 0x461BCD PUSH1 0xE5 SHL DUP2 MSTORE PUSH1 0x4 ADD DUP1 DUP1 PUSH1 0x20 ADD DUP3 DUP2 SUB DUP3 MSTORE PUSH1 0x22 DUP2 MSTORE PUSH1 0x20 ADD DUP1 PUSH2 0x26C6 PUSH1 0x22 SWAP2 CODECOPY PUSH1 0x40 ADD SWAP2 POP POP PUSH1 0x40 MLOAD DUP1 SWAP2 SUB SWAP1 REVERT JUMPDEST PUSH1 0x0 DUP5 PUSH1 0x0 ADD DUP5 DUP2 SLOAD DUP2 LT PUSH2 0x1DCB JUMPI INVALID JUMPDEST SWAP1 PUSH1 0x0 MSTORE PUSH1 0x20 PUSH1 0x0 KECCAK256 SWAP1 PUSH1 0x2 MUL ADD SWAP1 POP DUP1 PUSH1 0x0 ADD SLOAD DUP2 PUSH1 0x1 ADD SLOAD SWAP3 POP SWAP3 POP POP SWAP3 POP SWAP3 SWAP1 POP JUMP JUMPDEST PUSH1 0x0 DUP3 DUP2 MSTORE PUSH1 0x1 DUP5 ADD PUSH1 0x20 MSTORE PUSH1 0x40 DUP2 KECCAK256 SLOAD DUP3 DUP2 PUSH2 0x1E4F JUMPI PUSH1 0x40 MLOAD PUSH3 0x461BCD PUSH1 0xE5 SHL DUP2 MSTORE PUSH1 0x20 PUSH1 0x4 DUP3 ADD DUP2 DUP2 MSTORE DUP4 MLOAD PUSH1 0x24 DUP5 ADD MSTORE DUP4 MLOAD SWAP1 SWAP3 DUP4 SWAP3 PUSH1 0x44 SWAP1 SWAP2 ADD SWAP2 SWAP1 DUP6 ADD SWAP1 DUP1 DUP4 DUP4 PUSH1 0x0 DUP4 ISZERO PUSH2 0x1D27 JUMPI DUP2 DUP2 ADD MLOAD DUP4 DUP3 ADD MSTORE PUSH1 0x20 ADD PUSH2 0x1D0F JUMP JUMPDEST POP DUP5 PUSH1 0x0 ADD PUSH1 0x1 DUP3 SUB DUP2 SLOAD DUP2 LT PUSH2 0x1E62 JUMPI INVALID JUMPDEST SWAP1 PUSH1 0x0 MSTORE PUSH1 0x20 PUSH1 0x0 KECCAK256 SWAP1 PUSH1 0x2 MUL ADD PUSH1 0x1 ADD SLOAD SWAP2 POP POP SWAP4 SWAP3 POP POP POP JUMP JUMPDEST PUSH1 0x0 PUSH2 0x1E92 DUP5 PUSH1 0x1 PUSH1 0x1 PUSH1 0xA0 SHL SUB AND PUSH2 0x2291 JUMP JUMPDEST PUSH2 0x1E9E JUMPI POP PUSH1 0x1 PUSH2 0xDF0 JUMP JUMPDEST PUSH1 0x60 PUSH2 0x1FC4 PUSH4 0xA85BD01 PUSH1 0xE1 SHL PUSH2 0x1EB3 PUSH2 0x154A JUMP JUMPDEST DUP9 DUP8 DUP8 PUSH1 0x40 MLOAD PUSH1 0x24 ADD DUP1 DUP6 PUSH1 0x1 PUSH1 0x1 PUSH1 0xA0 SHL SUB AND PUSH1 0x1 PUSH1 0x1 PUSH1 0xA0 SHL SUB AND DUP2 MSTORE PUSH1 0x20 ADD DUP5 PUSH1 0x1 PUSH1 0x1 PUSH1 0xA0 SHL SUB AND PUSH1 0x1 PUSH1 0x1 PUSH1 0xA0 SHL SUB AND DUP2 MSTORE PUSH1 0x20 ADD DUP4 DUP2 MSTORE PUSH1 0x20 ADD DUP1 PUSH1 0x20 ADD DUP3 DUP2 SUB DUP3 MSTORE DUP4 DUP2 DUP2 MLOAD DUP2 MSTORE PUSH1 0x20 ADD SWAP2 POP DUP1 MLOAD SWAP1 PUSH1 0x20 ADD SWAP1 DUP1 DUP4 DUP4 PUSH1 0x0 JUMPDEST DUP4 DUP2 LT ISZERO PUSH2 0x1F2C JUMPI DUP2 DUP2 ADD MLOAD DUP4 DUP3 ADD MSTORE PUSH1 0x20 ADD PUSH2 0x1F14 JUMP JUMPDEST POP POP POP POP SWAP1 POP SWAP1 DUP2 ADD SWAP1 PUSH1 0x1F AND DUP1 ISZERO PUSH2 0x1F59 JUMPI DUP1 DUP3 SUB DUP1 MLOAD PUSH1 0x1 DUP4 PUSH1 0x20 SUB PUSH2 0x100 EXP SUB NOT AND DUP2 MSTORE PUSH1 0x20 ADD SWAP2 POP JUMPDEST POP SWAP6 POP POP POP POP POP POP PUSH1 0x40 MLOAD PUSH1 0x20 DUP2 DUP4 SUB SUB DUP2 MSTORE SWAP1 PUSH1 0x40 MSTORE SWAP1 PUSH1 0x1 PUSH1 0x1 PUSH1 0xE0 SHL SUB NOT AND PUSH1 0x20 DUP3 ADD DUP1 MLOAD PUSH1 0x1 PUSH1 0x1 PUSH1 0xE0 SHL SUB DUP4 DUP2 DUP4 AND OR DUP4 MSTORE POP POP POP POP PUSH1 0x40 MLOAD DUP1 PUSH1 0x60 ADD PUSH1 0x40 MSTORE DUP1 PUSH1 0x32 DUP2 MSTORE PUSH1 0x20 ADD PUSH2 0x2593 PUSH1 0x32 SWAP2 CODECOPY PUSH1 0x1 PUSH1 0x1 PUSH1 0xA0 SHL SUB DUP9 AND SWAP2 SWAP1 PUSH4 0xFFFFFFFF PUSH2 0x2297 AND JUMP JUMPDEST SWAP1 POP PUSH1 0x0 DUP2 DUP1 PUSH1 0x20 ADD SWAP1 MLOAD PUSH1 0x20 DUP2 LT ISZERO PUSH2 0x1FDD JUMPI PUSH1 0x0 DUP1 REVERT JUMPDEST POP MLOAD PUSH1 0x1 PUSH1 0x1 PUSH1 0xE0 SHL SUB NOT AND PUSH4 0xA85BD01 PUSH1 0xE1 SHL EQ SWAP3 POP POP POP SWAP5 SWAP4 POP POP POP POP JUMP JUMPDEST PUSH1 0x0 SWAP1 DUP2 MSTORE PUSH1 0x1 SWAP2 SWAP1 SWAP2 ADD PUSH1 0x20 MSTORE PUSH1 0x40 SWAP1 KECCAK256 SLOAD ISZERO ISZERO SWAP1 JUMP JUMPDEST PUSH1 0x0 DUP2 DUP2 MSTORE PUSH1 0x1 DUP4 ADD PUSH1 0x20 MSTORE PUSH1 0x40 DUP2 KECCAK256 SLOAD DUP1 ISZERO PUSH2 0x20D2 JUMPI DUP4 SLOAD PUSH1 0x0 NOT DUP1 DUP4 ADD SWAP2 SWAP1 DUP2 ADD SWAP1 PUSH1 0x0 SWAP1 DUP8 SWAP1 DUP4 SWAP1 DUP2 LT PUSH2 0x2049 JUMPI INVALID JUMPDEST SWAP1 PUSH1 0x0 MSTORE PUSH1 0x20 PUSH1 0x0 KECCAK256 ADD SLOAD SWAP1 POP DUP1 DUP8 PUSH1 0x0 ADD DUP5 DUP2 SLOAD DUP2 LT PUSH2 0x2066 JUMPI INVALID JUMPDEST PUSH1 0x0 SWAP2 DUP3 MSTORE PUSH1 0x20 DUP1 DUP4 KECCAK256 SWAP1 SWAP2 ADD SWAP3 SWAP1 SWAP3 SSTORE DUP3 DUP2 MSTORE PUSH1 0x1 DUP10 DUP2 ADD SWAP1 SWAP3 MSTORE PUSH1 0x40 SWAP1 KECCAK256 SWAP1 DUP5 ADD SWAP1 SSTORE DUP7 SLOAD DUP8 SWAP1 DUP1 PUSH2 0x2096 JUMPI INVALID JUMPDEST PUSH1 0x1 SWAP1 SUB DUP2 DUP2 SWAP1 PUSH1 0x0 MSTORE PUSH1 0x20 PUSH1 0x0 KECCAK256 ADD PUSH1 0x0 SWAP1 SSTORE SWAP1 SSTORE DUP7 PUSH1 0x1 ADD PUSH1 0x0 DUP8 DUP2 MSTORE PUSH1 0x20 ADD SWAP1 DUP2 MSTORE PUSH1 0x20 ADD PUSH1 0x0 KECCAK256 PUSH1 0x0 SWAP1 SSTORE PUSH1 0x1 SWAP5 POP POP POP POP POP PUSH2 0xB28 JUMP JUMPDEST PUSH1 0x0 SWAP2 POP POP PUSH2 0xB28 JUMP JUMPDEST PUSH1 0x0 PUSH2 0x20E8 DUP4 DUP4 PUSH2 0x1FFE JUMP JUMPDEST PUSH2 0x211E JUMPI POP DUP2 SLOAD PUSH1 0x1 DUP2 DUP2 ADD DUP5 SSTORE PUSH1 0x0 DUP5 DUP2 MSTORE PUSH1 0x20 DUP1 DUP3 KECCAK256 SWAP1 SWAP4 ADD DUP5 SWAP1 SSTORE DUP5 SLOAD DUP5 DUP3 MSTORE DUP3 DUP7 ADD SWAP1 SWAP4 MSTORE PUSH1 0x40 SWAP1 KECCAK256 SWAP2 SWAP1 SWAP2 SSTORE PUSH2 0xB28 JUMP JUMPDEST POP PUSH1 0x0 PUSH2 0xB28 JUMP JUMPDEST PUSH1 0x0 DUP3 DUP2 MSTORE PUSH1 0x1 DUP5 ADD PUSH1 0x20 MSTORE PUSH1 0x40 DUP2 KECCAK256 SLOAD DUP1 PUSH2 0x218B JUMPI POP POP PUSH1 0x40 DUP1 MLOAD DUP1 DUP3 ADD DUP3 MSTORE DUP4 DUP2 MSTORE PUSH1 0x20 DUP1 DUP3 ADD DUP5 DUP2 MSTORE DUP7 SLOAD PUSH1 0x1 DUP2 DUP2 ADD DUP10 SSTORE PUSH1 0x0 DUP10 DUP2 MSTORE DUP5 DUP2 KECCAK256 SWAP6 MLOAD PUSH1 0x2 SWAP1 SWAP4 MUL SWAP1 SWAP6 ADD SWAP2 DUP3 SSTORE SWAP2 MLOAD SWAP1 DUP3 ADD SSTORE DUP7 SLOAD DUP7 DUP5 MSTORE DUP2 DUP9 ADD SWAP1 SWAP3 MSTORE SWAP3 SWAP1 SWAP2 KECCAK256 SSTORE PUSH2 0x196E JUMP JUMPDEST DUP3 DUP6 PUSH1 0x0 ADD PUSH1 0x1 DUP4 SUB DUP2 SLOAD DUP2 LT PUSH2 0x219E JUMPI INVALID JUMPDEST SWAP1 PUSH1 0x0 MSTORE PUSH1 0x20 PUSH1 0x0 KECCAK256 SWAP1 PUSH1 0x2 MUL ADD PUSH1 0x1 ADD DUP2 SWAP1 SSTORE POP PUSH1 0x0 SWAP2 POP POP PUSH2 0x196E JUMP JUMPDEST PUSH1 0x0 DUP2 DUP2 MSTORE PUSH1 0x1 DUP4 ADD PUSH1 0x20 MSTORE PUSH1 0x40 DUP2 KECCAK256 SLOAD DUP1 ISZERO PUSH2 0x20D2 JUMPI DUP4 SLOAD PUSH1 0x0 NOT DUP1 DUP4 ADD SWAP2 SWAP1 DUP2 ADD SWAP1 PUSH1 0x0 SWAP1 DUP8 SWAP1 DUP4 SWAP1 DUP2 LT PUSH2 0x21F0 JUMPI INVALID JUMPDEST SWAP1 PUSH1 0x0 MSTORE PUSH1 0x20 PUSH1 0x0 KECCAK256 SWAP1 PUSH1 0x2 MUL ADD SWAP1 POP DUP1 DUP8 PUSH1 0x0 ADD DUP5 DUP2 SLOAD DUP2 LT PUSH2 0x2210 JUMPI INVALID JUMPDEST PUSH1 0x0 SWAP2 DUP3 MSTORE PUSH1 0x20 DUP1 DUP4 KECCAK256 DUP5 SLOAD PUSH1 0x2 SWAP1 SWAP4 MUL ADD SWAP2 DUP3 SSTORE PUSH1 0x1 SWAP4 DUP5 ADD SLOAD SWAP2 DUP5 ADD SWAP2 SWAP1 SWAP2 SSTORE DUP4 SLOAD DUP3 MSTORE DUP10 DUP4 ADD SWAP1 MSTORE PUSH1 0x40 SWAP1 KECCAK256 SWAP1 DUP5 ADD SWAP1 SSTORE DUP7 SLOAD DUP8 SWAP1 DUP1 PUSH2 0x224F JUMPI INVALID JUMPDEST PUSH1 0x0 DUP3 DUP2 MSTORE PUSH1 0x20 DUP1 DUP3 KECCAK256 PUSH1 0x2 PUSH1 0x0 NOT SWAP1 SWAP5 ADD SWAP4 DUP5 MUL ADD DUP3 DUP2 SSTORE PUSH1 0x1 SWAP1 DUP2 ADD DUP4 SWAP1 SSTORE SWAP3 SWAP1 SWAP4 SSTORE DUP9 DUP2 MSTORE DUP10 DUP3 ADD SWAP1 SWAP3 MSTORE PUSH1 0x40 DUP3 KECCAK256 SWAP2 SWAP1 SWAP2 SSTORE SWAP5 POP PUSH2 0xB28 SWAP4 POP POP POP POP JUMP JUMPDEST EXTCODESIZE ISZERO ISZERO SWAP1 JUMP JUMPDEST PUSH1 0x60 PUSH2 0x196B DUP5 DUP5 PUSH1 0x0 DUP6 DUP6 PUSH2 0x22AB DUP6 PUSH2 0x2291 JUMP JUMPDEST PUSH2 0x22FC JUMPI PUSH1 0x40 DUP1 MLOAD PUSH3 0x461BCD PUSH1 0xE5 SHL DUP2 MSTORE PUSH1 0x20 PUSH1 0x4 DUP3 ADD MSTORE PUSH1 0x1D PUSH1 0x24 DUP3 ADD MSTORE PUSH32 0x416464726573733A2063616C6C20746F206E6F6E2D636F6E7472616374000000 PUSH1 0x44 DUP3 ADD MSTORE SWAP1 MLOAD SWAP1 DUP2 SWAP1 SUB PUSH1 0x64 ADD SWAP1 REVERT JUMPDEST PUSH1 0x0 PUSH1 0x60 DUP7 PUSH1 0x1 PUSH1 0x1 PUSH1 0xA0 SHL SUB AND DUP6 DUP8 PUSH1 0x40 MLOAD DUP1 DUP3 DUP1 MLOAD SWAP1 PUSH1 0x20 ADD SWAP1 DUP1 DUP4 DUP4 JUMPDEST PUSH1 0x20 DUP4 LT PUSH2 0x233B JUMPI DUP1 MLOAD DUP3 MSTORE PUSH1 0x1F NOT SWAP1 SWAP3 ADD SWAP2 PUSH1 0x20 SWAP2 DUP3 ADD SWAP2 ADD PUSH2 0x231C JUMP JUMPDEST PUSH1 0x1 DUP4 PUSH1 0x20 SUB PUSH2 0x100 EXP SUB DUP1 NOT DUP3 MLOAD AND DUP2 DUP5 MLOAD AND DUP1 DUP3 OR DUP6 MSTORE POP POP POP POP POP POP SWAP1 POP ADD SWAP2 POP POP PUSH1 0x0 PUSH1 0x40 MLOAD DUP1 DUP4 SUB DUP2 DUP6 DUP8 GAS CALL SWAP3 POP POP POP RETURNDATASIZE DUP1 PUSH1 0x0 DUP2 EQ PUSH2 0x239D JUMPI PUSH1 0x40 MLOAD SWAP2 POP PUSH1 0x1F NOT PUSH1 0x3F RETURNDATASIZE ADD AND DUP3 ADD PUSH1 0x40 MSTORE RETURNDATASIZE DUP3 MSTORE RETURNDATASIZE PUSH1 0x0 PUSH1 0x20 DUP5 ADD RETURNDATACOPY PUSH2 0x23A2 JUMP JUMPDEST PUSH1 0x60 SWAP2 POP JUMPDEST POP SWAP2 POP SWAP2 POP PUSH2 0x23B2 DUP3 DUP3 DUP7 PUSH2 0x23BD JUMP JUMPDEST SWAP8 SWAP7 POP POP POP POP POP POP POP JUMP JUMPDEST PUSH1 0x60 DUP4 ISZERO PUSH2 0x23CC JUMPI POP DUP2 PUSH2 0x196E JUMP JUMPDEST DUP3 MLOAD ISZERO PUSH2 0x23DC JUMPI DUP3 MLOAD DUP1 DUP5 PUSH1 0x20 ADD REVERT JUMPDEST PUSH1 0x40 MLOAD PUSH3 0x461BCD PUSH1 0xE5 SHL DUP2 MSTORE PUSH1 0x20 PUSH1 0x4 DUP3 ADD DUP2 DUP2 MSTORE DUP5 MLOAD PUSH1 0x24 DUP5 ADD MSTORE DUP5 MLOAD DUP6 SWAP4 SWAP2 SWAP3 DUP4 SWAP3 PUSH1 0x44 ADD SWAP2 SWAP1 DUP6 ADD SWAP1 DUP1 DUP4 DUP4 PUSH1 0x0 DUP4 ISZERO PUSH2 0x1D27 JUMPI DUP2 DUP2 ADD MLOAD DUP4 DUP3 ADD MSTORE PUSH1 0x20 ADD PUSH2 0x1D0F JUMP JUMPDEST DUP3 DUP1 SLOAD PUSH1 0x1 DUP2 PUSH1 0x1 AND ISZERO PUSH2 0x100 MUL SUB AND PUSH1 0x2 SWAP1 DIV SWAP1 PUSH1 0x0 MSTORE PUSH1 0x20 PUSH1 0x0 KECCAK256 SWAP1 PUSH1 0x1F ADD PUSH1 0x20 SWAP1 DIV DUP2 ADD SWAP3 DUP3 PUSH1 0x1F LT PUSH2 0x2464 JUMPI DUP3 DUP1 ADD PUSH1 0xFF NOT DUP3 CALLDATALOAD AND OR DUP6 SSTORE PUSH2 0x2491 JUMP JUMPDEST DUP3 DUP1 ADD PUSH1 0x1 ADD DUP6 SSTORE DUP3 ISZERO PUSH2 0x2491 JUMPI SWAP2 DUP3 ADD JUMPDEST DUP3 DUP2 GT ISZERO PUSH2 0x2491 JUMPI DUP3 CALLDATALOAD DUP3 SSTORE SWAP2 PUSH1 0x20 ADD SWAP2 SWAP1 PUSH1 0x1 ADD SWAP1 PUSH2 0x2476 JUMP JUMPDEST POP PUSH2 0x249D SWAP3 SWAP2 POP PUSH2 0x2556 JUMP JUMPDEST POP SWAP1 JUMP JUMPDEST POP DUP1 SLOAD PUSH1 0x1 DUP2 PUSH1 0x1 AND ISZERO PUSH2 0x100 MUL SUB AND PUSH1 0x2 SWAP1 DIV PUSH1 0x0 DUP3 SSTORE DUP1 PUSH1 0x1F LT PUSH2 0x24C7 JUMPI POP PUSH2 0x24E5 JUMP JUMPDEST PUSH1 0x1F ADD PUSH1 0x20 SWAP1 DIV SWAP1 PUSH1 0x0 MSTORE PUSH1 0x20 PUSH1 0x0 KECCAK256 SWAP1 DUP2 ADD SWAP1 PUSH2 0x24E5 SWAP2 SWAP1 PUSH2 0x2556 JUMP JUMPDEST POP JUMP JUMPDEST DUP3 DUP1 SLOAD PUSH1 0x1 DUP2 PUSH1 0x1 AND ISZERO PUSH2 0x100 MUL SUB AND PUSH1 0x2 SWAP1 DIV SWAP1 PUSH1 0x0 MSTORE PUSH1 0x20 PUSH1 0x0 KECCAK256 SWAP1 PUSH1 0x1F ADD PUSH1 0x20 SWAP1 DIV DUP2 ADD SWAP3 DUP3 PUSH1 0x1F LT PUSH2 0x2529 JUMPI DUP1 MLOAD PUSH1 0xFF NOT AND DUP4 DUP1 ADD OR DUP6 SSTORE PUSH2 0x2491 JUMP JUMPDEST DUP3 DUP1 ADD PUSH1 0x1 ADD DUP6 SSTORE DUP3 ISZERO PUSH2 0x2491 JUMPI SWAP2 DUP3 ADD JUMPDEST DUP3 DUP2 GT ISZERO PUSH2 0x2491 JUMPI DUP3 MLOAD DUP3 SSTORE SWAP2 PUSH1 0x20 ADD SWAP2 SWAP1 PUSH1 0x1 ADD SWAP1 PUSH2 0x253B JUMP JUMPDEST PUSH2 0x800 SWAP2 SWAP1 JUMPDEST DUP1 DUP3 GT ISZERO PUSH2 0x249D JUMPI PUSH1 0x0 DUP2 SSTORE PUSH1 0x1 ADD PUSH2 0x255C JUMP INVALID GASLIMIT PUSH15 0x756D657261626C655365743A20696E PUSH5 0x6578206F75 PUSH21 0x206F6620626F756E64734552433732313A20747261 PUSH15 0x7366657220746F206E6F6E20455243 CALLDATACOPY ORIGIN BALANCE MSTORE PUSH6 0x636569766572 KECCAK256 PUSH10 0x6D706C656D656E746572 0x4F PUSH24 0x6E61626C653A206E6577206F776E65722069732074686520 PUSH27 0x65726F20616464726573734552433732313A207472616E73666572 KECCAK256 PUSH21 0x6F20746865207A65726F2061646472657373455243 CALLDATACOPY ORIGIN BALANCE GASPRICE KECCAK256 PUSH16 0x70657261746F7220717565727920666F PUSH19 0x206E6F6E6578697374656E7420746F6B656E45 MSTORE NUMBER CALLDATACOPY ORIGIN BALANCE GASPRICE KECCAK256 PUSH2 0x7070 PUSH19 0x6F76652063616C6C6572206973206E6F74206F PUSH24 0x6E6572206E6F7220617070726F76656420666F7220616C6C GASLIMIT MSTORE NUMBER CALLDATACOPY ORIGIN BALANCE GASPRICE KECCAK256 PUSH3 0x616C61 PUSH15 0x636520717565727920666F72207468 PUSH6 0x207A65726F20 PUSH2 0x6464 PUSH19 0x6573734552433732313A206F776E6572207175 PUSH6 0x727920666F72 KECCAK256 PUSH15 0x6F6E6578697374656E7420746F6B65 PUSH15 0x456E756D657261626C654D61703A20 PUSH10 0x6E646578206F7574206F PUSH7 0x20626F756E6473 GASLIMIT MSTORE NUMBER CALLDATACOPY ORIGIN BALANCE GASPRICE KECCAK256 PUSH2 0x7070 PUSH19 0x6F76656420717565727920666F72206E6F6E65 PUSH25 0x697374656E7420746F6B656E4552433732314D657461646174 PUSH2 0x3A20 SSTORE MSTORE 0x49 KECCAK256 PUSH20 0x6574206F66206E6F6E6578697374656E7420746F PUSH12 0x656E4F776E61626C653A2063 PUSH2 0x6C6C PUSH6 0x72206973206E PUSH16 0x7420746865206F776E65724552433732 BALANCE GASPRICE KECCAK256 PUSH21 0x72616E73666572206F6620746F6B656E2074686174 KECCAK256 PUSH10 0x73206E6F74206F776E45 MSTORE NUMBER CALLDATACOPY ORIGIN BALANCE 0x4D PUSH6 0x746164617461 GASPRICE KECCAK256 SSTORE MSTORE 0x49 KECCAK256 PUSH18 0x7565727920666F72206E6F6E657869737465 PUSH15 0x7420746F6B656E4552433732313A20 PUSH2 0x7070 PUSH19 0x6F76616C20746F2063757272656E74206F776E PUSH6 0x724552433732 BALANCE GASPRICE KECCAK256 PUSH21 0x72616E736665722063616C6C6572206973206E6F74 KECCAK256 PUSH16 0x776E6572206E6F7220617070726F7665 PUSH5 0xA264697066 PUSH20 0x582212202C9ADE1B9EED406DCB8D624D7542EBCC SWAP5 POP PUSH10 0x6BE333D58C8DC6A43F60 CALLDATACOPY 0xDE BYTE PUSH5 0x736F6C6343 STOP MOD DIV STOP CALLER "
				},
				"gasEstimates": {
					"creation": {
						"codeDepositCost": "2060600",
						"executionCost": "infinite",
						"totalCost": "infinite"
					},
					"external": {
						"approve(address,uint256)": "infinite",
						"balanceOf(address)": "infinite",
						"baseURI()": "infinite",
						"bunnyBurnCount(uint8)": "1178",
						"bunnyCount(uint8)": "1223",
						"burn(uint256)": "infinite",
						"getApproved(uint256)": "infinite",
						"getBunnyId(uint256)": "1210",
						"getBunnyName(uint8)": "infinite",
						"getBunnyNameOfTokenId(uint256)": "infinite",
						"isApprovedForAll(address,address)": "1350",
						"mint(address,string,uint8)": "infinite",
						"name()": "infinite",
						"owner()": "1104",
						"ownerOf(uint256)": "infinite",
						"renounceOwnership()": "infinite",
						"safeTransferFrom(address,address,uint256)": "infinite",
						"safeTransferFrom(address,address,uint256,bytes)": "infinite",
						"setApprovalForAll(address,bool)": "infinite",
						"setBunnyName(uint8,string)": "infinite",
						"supportsInterface(bytes4)": "1219",
						"symbol()": "infinite",
						"tokenByIndex(uint256)": "infinite",
						"tokenOfOwnerByIndex(address,uint256)": "infinite",
						"tokenURI(uint256)": "infinite",
						"totalSupply()": "1141",
						"transferFrom(address,address,uint256)": "infinite",
						"transferOwnership(address)": "infinite"
					}
				},
				"methodIdentifiers": {
					"approve(address,uint256)": "095ea7b3",
					"balanceOf(address)": "70a08231",
					"baseURI()": "6c0360eb",
					"bunnyBurnCount(uint8)": "d76a3cfe",
					"bunnyCount(uint8)": "a0411c54",
					"burn(uint256)": "42966c68",
					"getApproved(uint256)": "081812fc",
					"getBunnyId(uint256)": "c72c6883",
					"getBunnyName(uint8)": "1b881e67",
					"getBunnyNameOfTokenId(uint256)": "2e2b0842",
					"isApprovedForAll(address,address)": "e985e9c5",
					"mint(address,string,uint8)": "6a4b8883",
					"name()": "06fdde03",
					"owner()": "8da5cb5b",
					"ownerOf(uint256)": "6352211e",
					"renounceOwnership()": "715018a6",
					"safeTransferFrom(address,address,uint256)": "42842e0e",
					"safeTransferFrom(address,address,uint256,bytes)": "b88d4fde",
					"setApprovalForAll(address,bool)": "a22cb465",
					"setBunnyName(uint8,string)": "5d71dca3",
					"supportsInterface(bytes4)": "01ffc9a7",
					"symbol()": "95d89b41",
					"tokenByIndex(uint256)": "4f6ccce7",
					"tokenOfOwnerByIndex(address,uint256)": "2f745c59",
					"tokenURI(uint256)": "c87b56dd",
					"totalSupply()": "18160ddd",
					"transferFrom(address,address,uint256)": "23b872dd",
					"transferOwnership(address)": "f2fde38b"
				}
			},
			"storageLayout": {
				"storage": [
					{
						"astId": 579,
						"contract": "Users/leilei/Downloads/MasterChefV2/contracts/PancakeBunnies.sol:PancakeBunnies",
						"label": "_supportedInterfaces",
						"offset": 0,
						"slot": "0",
						"type": "t_mapping(t_bytes4,t_bool)"
					},
					{
						"astId": 1918,
						"contract": "Users/leilei/Downloads/MasterChefV2/contracts/PancakeBunnies.sol:PancakeBunnies",
						"label": "_holderTokens",
						"offset": 0,
						"slot": "1",
						"type": "t_mapping(t_address,t_struct(UintSet)1249_storage)"
					},
					{
						"astId": 1920,
						"contract": "Users/leilei/Downloads/MasterChefV2/contracts/PancakeBunnies.sol:PancakeBunnies",
						"label": "_tokenOwners",
						"offset": 0,
						"slot": "2",
						"type": "t_struct(UintToAddressMap)1623_storage"
					},
					{
						"astId": 1924,
						"contract": "Users/leilei/Downloads/MasterChefV2/contracts/PancakeBunnies.sol:PancakeBunnies",
						"label": "_tokenApprovals",
						"offset": 0,
						"slot": "4",
						"type": "t_mapping(t_uint256,t_address)"
					},
					{
						"astId": 1930,
						"contract": "Users/leilei/Downloads/MasterChefV2/contracts/PancakeBunnies.sol:PancakeBunnies",
						"label": "_operatorApprovals",
						"offset": 0,
						"slot": "5",
						"type": "t_mapping(t_address,t_mapping(t_address,t_bool))"
					},
					{
						"astId": 1932,
						"contract": "Users/leilei/Downloads/MasterChefV2/contracts/PancakeBunnies.sol:PancakeBunnies",
						"label": "_name",
						"offset": 0,
						"slot": "6",
						"type": "t_string_storage"
					},
					{
						"astId": 1934,
						"contract": "Users/leilei/Downloads/MasterChefV2/contracts/PancakeBunnies.sol:PancakeBunnies",
						"label": "_symbol",
						"offset": 0,
						"slot": "7",
						"type": "t_string_storage"
					},
					{
						"astId": 1938,
						"contract": "Users/leilei/Downloads/MasterChefV2/contracts/PancakeBunnies.sol:PancakeBunnies",
						"label": "_tokenURIs",
						"offset": 0,
						"slot": "8",
						"type": "t_mapping(t_uint256,t_string_storage)"
					},
					{
						"astId": 1940,
						"contract": "Users/leilei/Downloads/MasterChefV2/contracts/PancakeBunnies.sol:PancakeBunnies",
						"label": "_baseURI",
						"offset": 0,
						"slot": "9",
						"type": "t_string_storage"
					},
					{
						"astId": 28,
						"contract": "Users/leilei/Downloads/MasterChefV2/contracts/PancakeBunnies.sol:PancakeBunnies",
						"label": "_owner",
						"offset": 0,
						"slot": "10",
						"type": "t_address"
					},
					{
						"astId": 2815,
						"contract": "Users/leilei/Downloads/MasterChefV2/contracts/PancakeBunnies.sol:PancakeBunnies",
						"label": "bunnyCount",
						"offset": 0,
						"slot": "11",
						"type": "t_mapping(t_uint8,t_uint256)"
					},
					{
						"astId": 2819,
						"contract": "Users/leilei/Downloads/MasterChefV2/contracts/PancakeBunnies.sol:PancakeBunnies",
						"label": "bunnyBurnCount",
						"offset": 0,
						"slot": "12",
						"type": "t_mapping(t_uint8,t_uint256)"
					},
					{
						"astId": 2821,
						"contract": "Users/leilei/Downloads/MasterChefV2/contracts/PancakeBunnies.sol:PancakeBunnies",
						"label": "_tokenIds",
						"offset": 0,
						"slot": "13",
						"type": "t_struct(Counter)332_storage"
					},
					{
						"astId": 2825,
						"contract": "Users/leilei/Downloads/MasterChefV2/contracts/PancakeBunnies.sol:PancakeBunnies",
						"label": "bunnyIds",
						"offset": 0,
						"slot": "14",
						"type": "t_mapping(t_uint256,t_uint8)"
					},
					{
						"astId": 2829,
						"contract": "Users/leilei/Downloads/MasterChefV2/contracts/PancakeBunnies.sol:PancakeBunnies",
						"label": "bunnyNames",
						"offset": 0,
						"slot": "15",
						"type": "t_mapping(t_uint8,t_string_storage)"
					}
				],
				"types": {
					"t_address": {
						"encoding": "inplace",
						"label": "address",
						"numberOfBytes": "20"
					},
					"t_array(t_bytes32)dyn_storage": {
						"base": "t_bytes32",
						"encoding": "dynamic_array",
						"label": "bytes32[]",
						"numberOfBytes": "32"
					},
					"t_array(t_struct(MapEntry)1351_storage)dyn_storage": {
						"base": "t_struct(MapEntry)1351_storage",
						"encoding": "dynamic_array",
						"label": "struct EnumerableMap.MapEntry[]",
						"numberOfBytes": "32"
					},
					"t_bool": {
						"encoding": "inplace",
						"label": "bool",
						"numberOfBytes": "1"
					},
					"t_bytes32": {
						"encoding": "inplace",
						"label": "bytes32",
						"numberOfBytes": "32"
					},
					"t_bytes4": {
						"encoding": "inplace",
						"label": "bytes4",
						"numberOfBytes": "4"
					},
					"t_mapping(t_address,t_bool)": {
						"encoding": "mapping",
						"key": "t_address",
						"label": "mapping(address => bool)",
						"numberOfBytes": "32",
						"value": "t_bool"
					},
					"t_mapping(t_address,t_mapping(t_address,t_bool))": {
						"encoding": "mapping",
						"key": "t_address",
						"label": "mapping(address => mapping(address => bool))",
						"numberOfBytes": "32",
						"value": "t_mapping(t_address,t_bool)"
					},
					"t_mapping(t_address,t_struct(UintSet)1249_storage)": {
						"encoding": "mapping",
						"key": "t_address",
						"label": "mapping(address => struct EnumerableSet.UintSet)",
						"numberOfBytes": "32",
						"value": "t_struct(UintSet)1249_storage"
					},
					"t_mapping(t_bytes32,t_uint256)": {
						"encoding": "mapping",
						"key": "t_bytes32",
						"label": "mapping(bytes32 => uint256)",
						"numberOfBytes": "32",
						"value": "t_uint256"
					},
					"t_mapping(t_bytes4,t_bool)": {
						"encoding": "mapping",
						"key": "t_bytes4",
						"label": "mapping(bytes4 => bool)",
						"numberOfBytes": "32",
						"value": "t_bool"
					},
					"t_mapping(t_uint256,t_address)": {
						"encoding": "mapping",
						"key": "t_uint256",
						"label": "mapping(uint256 => address)",
						"numberOfBytes": "32",
						"value": "t_address"
					},
					"t_mapping(t_uint256,t_string_storage)": {
						"encoding": "mapping",
						"key": "t_uint256",
						"label": "mapping(uint256 => string)",
						"numberOfBytes": "32",
						"value": "t_string_storage"
					},
					"t_mapping(t_uint256,t_uint8)": {
						"encoding": "mapping",
						"key": "t_uint256",
						"label": "mapping(uint256 => uint8)",
						"numberOfBytes": "32",
						"value": "t_uint8"
					},
					"t_mapping(t_uint8,t_string_storage)": {
						"encoding": "mapping",
						"key": "t_uint8",
						"label": "mapping(uint8 => string)",
						"numberOfBytes": "32",
						"value": "t_string_storage"
					},
					"t_mapping(t_uint8,t_uint256)": {
						"encoding": "mapping",
						"key": "t_uint8",
						"label": "mapping(uint8 => uint256)",
						"numberOfBytes": "32",
						"value": "t_uint256"
					},
					"t_string_storage": {
						"encoding": "bytes",
						"label": "string",
						"numberOfBytes": "32"
					},
					"t_struct(Counter)332_storage": {
						"encoding": "inplace",
						"label": "struct Counters.Counter",
						"members": [
							{
								"astId": 331,
								"contract": "Users/leilei/Downloads/MasterChefV2/contracts/PancakeBunnies.sol:PancakeBunnies",
								"label": "_value",
								"offset": 0,
								"slot": "0",
								"type": "t_uint256"
							}
						],
						"numberOfBytes": "32"
					},
					"t_struct(Map)1359_storage": {
						"encoding": "inplace",
						"label": "struct EnumerableMap.Map",
						"members": [
							{
								"astId": 1354,
								"contract": "Users/leilei/Downloads/MasterChefV2/contracts/PancakeBunnies.sol:PancakeBunnies",
								"label": "_entries",
								"offset": 0,
								"slot": "0",
								"type": "t_array(t_struct(MapEntry)1351_storage)dyn_storage"
							},
							{
								"astId": 1358,
								"contract": "Users/leilei/Downloads/MasterChefV2/contracts/PancakeBunnies.sol:PancakeBunnies",
								"label": "_indexes",
								"offset": 0,
								"slot": "1",
								"type": "t_mapping(t_bytes32,t_uint256)"
							}
						],
						"numberOfBytes": "64"
					},
					"t_struct(MapEntry)1351_storage": {
						"encoding": "inplace",
						"label": "struct EnumerableMap.MapEntry",
						"members": [
							{
								"astId": 1348,
								"contract": "Users/leilei/Downloads/MasterChefV2/contracts/PancakeBunnies.sol:PancakeBunnies",
								"label": "_key",
								"offset": 0,
								"slot": "0",
								"type": "t_bytes32"
							},
							{
								"astId": 1350,
								"contract": "Users/leilei/Downloads/MasterChefV2/contracts/PancakeBunnies.sol:PancakeBunnies",
								"label": "_value",
								"offset": 0,
								"slot": "1",
								"type": "t_bytes32"
							}
						],
						"numberOfBytes": "64"
					},
					"t_struct(Set)875_storage": {
						"encoding": "inplace",
						"label": "struct EnumerableSet.Set",
						"members": [
							{
								"astId": 870,
								"contract": "Users/leilei/Downloads/MasterChefV2/contracts/PancakeBunnies.sol:PancakeBunnies",
								"label": "_values",
								"offset": 0,
								"slot": "0",
								"type": "t_array(t_bytes32)dyn_storage"
							},
							{
								"astId": 874,
								"contract": "Users/leilei/Downloads/MasterChefV2/contracts/PancakeBunnies.sol:PancakeBunnies",
								"label": "_indexes",
								"offset": 0,
								"slot": "1",
								"type": "t_mapping(t_bytes32,t_uint256)"
							}
						],
						"numberOfBytes": "64"
					},
					"t_struct(UintSet)1249_storage": {
						"encoding": "inplace",
						"label": "struct EnumerableSet.UintSet",
						"members": [
							{
								"astId": 1248,
								"contract": "Users/leilei/Downloads/MasterChefV2/contracts/PancakeBunnies.sol:PancakeBunnies",
								"label": "_inner",
								"offset": 0,
								"slot": "0",
								"type": "t_struct(Set)875_storage"
							}
						],
						"numberOfBytes": "64"
					},
					"t_struct(UintToAddressMap)1623_storage": {
						"encoding": "inplace",
						"label": "struct EnumerableMap.UintToAddressMap",
						"members": [
							{
								"astId": 1622,
								"contract": "Users/leilei/Downloads/MasterChefV2/contracts/PancakeBunnies.sol:PancakeBunnies",
								"label": "_inner",
								"offset": 0,
								"slot": "0",
								"type": "t_struct(Map)1359_storage"
							}
						],
						"numberOfBytes": "64"
					},
					"t_uint256": {
						"encoding": "inplace",
						"label": "uint256",
						"numberOfBytes": "32"
					},
					"t_uint8": {
						"encoding": "inplace",
						"label": "uint8",
						"numberOfBytes": "1"
					}
				}
			},
			"userdoc": {
				"methods": {}
			}
		}
	}
}